{
  "_format": "hh-sol-artifact-1",
  "contractName": "Battle1vs1",
  "sourceName": "contracts/game/Battle1vs1.sol",
  "abi": [
    {
      "inputs": [
        {
          "internalType": "address",
          "name": "hmAddr",
          "type": "address"
        },
        {
          "internalType": "address",
          "name": "lbAddr",
          "type": "address"
        },
        {
          "internalType": "address",
          "name": "randAddr",
          "type": "address"
        }
      ],
      "stateMutability": "nonpayable",
      "type": "constructor"
    },
    {
      "anonymous": false,
      "inputs": [
        {
          "indexed": true,
          "internalType": "address",
          "name": "previousOwner",
          "type": "address"
        },
        {
          "indexed": true,
          "internalType": "address",
          "name": "newOwner",
          "type": "address"
        }
      ],
      "name": "OwnershipTransferred",
      "type": "event"
    },
    {
      "inputs": [
        {
          "internalType": "uint256[]",
          "name": "hostHeroes",
          "type": "uint256[]"
        },
        {
          "internalType": "uint256[]",
          "name": "clientHeroes",
          "type": "uint256[]"
        }
      ],
      "name": "contest",
      "outputs": [
        {
          "internalType": "uint256",
          "name": "",
          "type": "uint256"
        }
      ],
      "stateMutability": "view",
      "type": "function"
    },
    {
      "inputs": [],
      "name": "heroManagerAddress",
      "outputs": [
        {
          "internalType": "address",
          "name": "",
          "type": "address"
        }
      ],
      "stateMutability": "view",
      "type": "function"
    },
    {
      "inputs": [],
      "name": "lobbyAddress",
      "outputs": [
        {
          "internalType": "address",
          "name": "",
          "type": "address"
        }
      ],
      "stateMutability": "view",
      "type": "function"
    },
    {
      "inputs": [],
      "name": "owner",
      "outputs": [
        {
          "internalType": "address",
          "name": "",
          "type": "address"
        }
      ],
      "stateMutability": "view",
      "type": "function"
    },
    {
      "inputs": [],
      "name": "randomness",
      "outputs": [
        {
          "internalType": "contract IRandomness",
          "name": "",
          "type": "address"
        }
      ],
      "stateMutability": "view",
      "type": "function"
    },
    {
      "inputs": [],
      "name": "renounceOwnership",
      "outputs": [],
      "stateMutability": "nonpayable",
      "type": "function"
    },
    {
      "inputs": [
        {
          "internalType": "address",
          "name": "randAddr",
          "type": "address"
        }
      ],
      "name": "setRandomness",
      "outputs": [],
      "stateMutability": "nonpayable",
      "type": "function"
    },
    {
      "inputs": [
        {
          "internalType": "address",
          "name": "newOwner",
          "type": "address"
        }
      ],
      "name": "transferOwnership",
      "outputs": [],
      "stateMutability": "nonpayable",
      "type": "function"
    }
  ],
  "bytecode": "0x608060405234801561001057600080fd5b506040516110e63803806110e683398101604081905261002f916100e6565b6100383361007a565b600280546001600160a01b039485166001600160a01b031991821617909155600380549385169382169390931790925560018054919093169116179055610129565b600080546001600160a01b038381166001600160a01b0319831681178455604051919092169283917f8be0079c531659141344cd1fd0a4f28419497f9722a3daafe3b4186f6b6457e09190a35050565b80516001600160a01b03811681146100e157600080fd5b919050565b6000806000606084860312156100fb57600080fd5b610104846100ca565b9250610112602085016100ca565b9150610120604085016100ca565b90509250925092565b610fae806101386000396000f3fe608060405234801561001057600080fd5b50600436106100885760003560e01c8063a37a85e91161005b578063a37a85e9146100f9578063ae19dbd31461010c578063ebc9b48b1461011f578063f2fde38b1461013257600080fd5b8063360131891461008d57806348e8c1d3146100bd578063715018a6146100de5780638da5cb5b146100e8575b600080fd5b6001546100a0906001600160a01b031681565b6040516001600160a01b0390911681526020015b60405180910390f35b6100d06100cb366004610e80565b610145565b6040519081526020016100b4565b6100e6610c62565b005b6000546001600160a01b03166100a0565b6100e6610107366004610ee4565b610c98565b6002546100a0906001600160a01b031681565b6003546100a0906001600160a01b031681565b6100e6610140366004610ee4565b610ce4565b6003546000906001600160a01b031633146101b85760405162461bcd60e51b815260206004820152602860248201527f426174746c65317673313a206f6e6c79206c6f62627920636f6e74726163742060448201526718d85b8818d85b1b60c21b60648201526084015b60405180910390fd5b60025483516001600160a01b0390911690600090859082906101dc576101dc610f14565b602002602001015190506000846000815181106101fb576101fb610f14565b602002602001015190506000836001600160a01b031663d5c1ed8a846040518263ffffffff1660e01b815260040161023591815260200190565b60206040518083038186803b15801561024d57600080fd5b505afa158015610261573d6000803e3d6000fd5b505050506040513d601f19601f820116820180604052508101906102859190610f2a565b604051636ae0f6c560e11b8152600481018490529091506000906001600160a01b0386169063d5c1ed8a9060240160206040518083038186803b1580156102cb57600080fd5b505afa1580156102df573d6000803e3d6000fd5b505050506040513d601f19601f820116820180604052508101906103039190610f2a565b60405163f3d1b5ab60e01b8152600481018690529091506000906001600160a01b0387169063f3d1b5ab9060240160206040518083038186803b15801561034957600080fd5b505afa15801561035d573d6000803e3d6000fd5b505050506040513d601f19601f820116820180604052508101906103819190610f2a565b604051630a36d40b60e01b8152600481018790529091506000906001600160a01b03881690630a36d40b9060240160206040518083038186803b1580156103c757600080fd5b505afa1580156103db573d6000803e3d6000fd5b505050506040513d601f19601f820116820180604052508101906103ff9190610f2a565b60405163f3d1b5ab60e01b8152600481018790529091506000906001600160a01b0389169063f3d1b5ab9060240160206040518083038186803b15801561044557600080fd5b505afa158015610459573d6000803e3d6000fd5b505050506040513d601f19601f8201168201806040525081019061047d9190610f2a565b604051630a36d40b60e01b8152600481018890529091506000906001600160a01b038a1690630a36d40b9060240160206040518083038186803b1580156104c357600080fd5b505afa1580156104d7573d6000803e3d6000fd5b505050506040513d601f19601f820116820180604052508101906104fb9190610f2a565b9050818414156108f657808311156106a057848611156105275760019950505050505050505050610c5c565b848614156105e8576001805460405163a9dd122560e01b81526004810192909252606460248301526000916001600160a01b039091169063a9dd1225906044015b60206040518083038186803b15801561058057600080fd5b505afa158015610594573d6000803e3d6000fd5b505050506040513d601f19601f820116820180604052508101906105b89190610f2a565b9050603c81116105d55760019a5050505050505050505050610c5c565b60029a5050505050505050505050610c5c565b6001805460405163a9dd122560e01b81526004810192909252606460248301526000916001600160a01b039091169063a9dd12259060440160206040518083038186803b15801561063857600080fd5b505afa15801561064c573d6000803e3d6000fd5b505050506040513d601f19601f820116820180604052508101906106709190610f2a565b90506046811161068d5760029a5050505050505050505050610c5c565b60019a5050505050505050505050610c5c565b808314156107f25784861115610756576001805460405163a9dd122560e01b81526004810192909252606460248301526000916001600160a01b039091169063a9dd1225906044015b60206040518083038186803b15801561070157600080fd5b505afa158015610715573d6000803e3d6000fd5b505050506040513d601f19601f820116820180604052508101906107399190610f2a565b9050604681116105d55760019a5050505050505050505050610c5c565b848614156105e8576001805460405163a9dd122560e01b81526004810192909252600260248301526001600160a01b03169063a9dd1225906044015b60206040518083038186803b1580156107aa57600080fd5b505afa1580156107be573d6000803e3d6000fd5b505050506040513d601f19601f820116820180604052508101906107e29190610f2a565b9950505050505050505050610c5c565b8486101561080c5760029950505050505050505050610c5c565b848614156108b9576001805460405163a9dd122560e01b81526004810192909252606460248301526000916001600160a01b039091169063a9dd12259060440160206040518083038186803b15801561086457600080fd5b505afa158015610878573d6000803e3d6000fd5b505050506040513d601f19601f8201168201806040525081019061089c9190610f2a565b9050603c811161068d5760029a5050505050505050505050610c5c565b6001805460405163a9dd122560e01b81526004810192909252606460248301526000916001600160a01b039091169063a9dd1225906044016106e9565b80831415610a9157848611156109ac576001805460405163a9dd122560e01b81526004810192909252606460248301526000916001600160a01b039091169063a9dd12259060440160206040518083038186803b15801561095657600080fd5b505afa15801561096a573d6000803e3d6000fd5b505050506040513d601f19601f8201168201806040525081019061098e9190610f2a565b905060468111156105d55760019a5050505050505050505050610c5c565b848614156109ec576001805460405163a9dd122560e01b81526004810192909252600260248301526001600160a01b03169063a9dd122590604401610792565b6001805460405163a9dd122560e01b81526004810192909252606460248301526000916001600160a01b039091169063a9dd12259060440160206040518083038186803b158015610a3c57600080fd5b505afa158015610a50573d6000803e3d6000fd5b505050506040513d601f19601f82011682018060405250810190610a749190610f2a565b9050601481116105d55760019a5050505050505050505050610c5c565b80831115610b585784861115610ab35760019950505050505050505050610c5c565b6001805460405163a9dd122560e01b81526004810192909252606460248301526000916001600160a01b039091169063a9dd12259060440160206040518083038186803b158015610b0357600080fd5b505afa158015610b17573d6000803e3d6000fd5b505050506040513d601f19601f82011682018060405250810190610b3b9190610f2a565b9050602881116105d55760019a5050505050505050505050610c5c565b84861015610b725760029950505050505050505050610c5c565b84861415610c1f576001805460405163a9dd122560e01b81526004810192909252606460248301526000916001600160a01b039091169063a9dd12259060440160206040518083038186803b158015610bca57600080fd5b505afa158015610bde573d6000803e3d6000fd5b505050506040513d601f19601f82011682018060405250810190610c029190610f2a565b9050601e81116105d55760019a5050505050505050505050610c5c565b6001805460405163a9dd122560e01b81526004810192909252606460248301526000916001600160a01b039091169063a9dd122590604401610568565b92915050565b6000546001600160a01b03163314610c8c5760405162461bcd60e51b81526004016101af90610f43565b610c966000610d7f565b565b6000546001600160a01b03163314610cc25760405162461bcd60e51b81526004016101af90610f43565b600180546001600160a01b0319166001600160a01b0392909216919091179055565b6000546001600160a01b03163314610d0e5760405162461bcd60e51b81526004016101af90610f43565b6001600160a01b038116610d735760405162461bcd60e51b815260206004820152602660248201527f4f776e61626c653a206e6577206f776e657220697320746865207a65726f206160448201526564647265737360d01b60648201526084016101af565b610d7c81610d7f565b50565b600080546001600160a01b038381166001600160a01b0319831681178455604051919092169283917f8be0079c531659141344cd1fd0a4f28419497f9722a3daafe3b4186f6b6457e09190a35050565b634e487b7160e01b600052604160045260246000fd5b600082601f830112610df657600080fd5b8135602067ffffffffffffffff80831115610e1357610e13610dcf565b8260051b604051601f19603f83011681018181108482111715610e3857610e38610dcf565b604052938452858101830193838101925087851115610e5657600080fd5b83870191505b84821015610e7557813583529183019190830190610e5c565b979650505050505050565b60008060408385031215610e9357600080fd5b823567ffffffffffffffff80821115610eab57600080fd5b610eb786838701610de5565b93506020850135915080821115610ecd57600080fd5b50610eda85828601610de5565b9150509250929050565b600060208284031215610ef657600080fd5b81356001600160a01b0381168114610f0d57600080fd5b9392505050565b634e487b7160e01b600052603260045260246000fd5b600060208284031215610f3c57600080fd5b5051919050565b6020808252818101527f4f776e61626c653a2063616c6c6572206973206e6f7420746865206f776e657260408201526060019056fea2646970667358221220f84d8a202bb739b78acc1c858ceae9d026b2a5ef0d0ab27ecbbb30bda5f3475564736f6c63430008090033",
  "linkReferences": {},
  "deployedLinkReferences": {}
}