{
  "_format": "hh-sol-artifact-1",
  "contractName": "Battle1vs1",
  "sourceName": "contracts/game/Battle1vs1.sol",
  "abi": [
    {
      "inputs": [
        {
          "internalType": "address",
          "name": "hmAddr",
          "type": "address"
        },
        {
          "internalType": "address",
          "name": "lbAddr",
          "type": "address"
        },
        {
          "internalType": "address",
          "name": "randAddr",
          "type": "address"
        }
      ],
      "stateMutability": "nonpayable",
      "type": "constructor"
    },
    {
      "anonymous": false,
      "inputs": [
        {
          "indexed": true,
          "internalType": "address",
          "name": "previousOwner",
          "type": "address"
        },
        {
          "indexed": true,
          "internalType": "address",
          "name": "newOwner",
          "type": "address"
        }
      ],
      "name": "OwnershipTransferred",
      "type": "event"
    },
    {
      "inputs": [
        {
          "internalType": "uint256[]",
          "name": "hostHeroes",
          "type": "uint256[]"
        },
        {
          "internalType": "uint256[]",
          "name": "clientHeroes",
          "type": "uint256[]"
        }
      ],
      "name": "contest",
      "outputs": [
        {
          "internalType": "uint256",
          "name": "",
          "type": "uint256"
        }
      ],
      "stateMutability": "view",
      "type": "function"
    },
    {
      "inputs": [],
      "name": "heroManagerAddress",
      "outputs": [
        {
          "internalType": "address",
          "name": "",
          "type": "address"
        }
      ],
      "stateMutability": "view",
      "type": "function"
    },
    {
      "inputs": [],
      "name": "lobbyAddress",
      "outputs": [
        {
          "internalType": "address",
          "name": "",
          "type": "address"
        }
      ],
      "stateMutability": "view",
      "type": "function"
    },
    {
      "inputs": [],
      "name": "owner",
      "outputs": [
        {
          "internalType": "address",
          "name": "",
          "type": "address"
        }
      ],
      "stateMutability": "view",
      "type": "function"
    },
    {
      "inputs": [],
      "name": "randomness",
      "outputs": [
        {
          "internalType": "contract IRandomness",
          "name": "",
          "type": "address"
        }
      ],
      "stateMutability": "view",
      "type": "function"
    },
    {
      "inputs": [],
      "name": "renounceOwnership",
      "outputs": [],
      "stateMutability": "nonpayable",
      "type": "function"
    },
    {
      "inputs": [
        {
          "internalType": "address",
          "name": "hmAddr",
          "type": "address"
        }
      ],
      "name": "setHeroManager",
      "outputs": [],
      "stateMutability": "nonpayable",
      "type": "function"
    },
    {
      "inputs": [
        {
          "internalType": "address",
          "name": "lmAddr",
          "type": "address"
        }
      ],
      "name": "setLobbyManager",
      "outputs": [],
      "stateMutability": "nonpayable",
      "type": "function"
    },
    {
      "inputs": [
        {
          "internalType": "address",
          "name": "randAddr",
          "type": "address"
        }
      ],
      "name": "setRandomness",
      "outputs": [],
      "stateMutability": "nonpayable",
      "type": "function"
    },
    {
      "inputs": [
        {
          "internalType": "address",
          "name": "newOwner",
          "type": "address"
        }
      ],
      "name": "transferOwnership",
      "outputs": [],
      "stateMutability": "nonpayable",
      "type": "function"
    }
  ],
  "bytecode": "0x608060405234801561001057600080fd5b50604051620011c1380380620011c1833981016040819052610031916100e8565b61003a3361007c565b600280546001600160a01b039485166001600160a01b03199182161790915560038054938516938216939093179092556001805491909316911617905561012b565b600080546001600160a01b038381166001600160a01b0319831681178455604051919092169283917f8be0079c531659141344cd1fd0a4f28419497f9722a3daafe3b4186f6b6457e09190a35050565b80516001600160a01b03811681146100e357600080fd5b919050565b6000806000606084860312156100fd57600080fd5b610106846100cc565b9250610114602085016100cc565b9150610122604085016100cc565b90509250925092565b611086806200013b6000396000f3fe608060405234801561001057600080fd5b506004361061009e5760003560e01c80638da5cb5b116100665780638da5cb5b14610124578063a37a85e914610135578063ae19dbd314610148578063ebc9b48b1461015b578063f2fde38b1461016e57600080fd5b80631636f10c146100a357806336013189146100b8578063378cc347146100e857806348e8c1d3146100fb578063715018a61461011c575b600080fd5b6100b66100b1366004610ea7565b610181565b005b6001546100cb906001600160a01b031681565b6040516001600160a01b0390911681526020015b60405180910390f35b6100b66100f6366004610ea7565b6101d6565b61010e610109366004610f88565b610222565b6040519081526020016100df565b6100b6610d3a565b6000546001600160a01b03166100cb565b6100b6610143366004610ea7565b610d70565b6002546100cb906001600160a01b031681565b6003546100cb906001600160a01b031681565b6100b661017c366004610ea7565b610dbc565b6000546001600160a01b031633146101b45760405162461bcd60e51b81526004016101ab90610fec565b60405180910390fd5b600380546001600160a01b0319166001600160a01b0392909216919091179055565b6000546001600160a01b031633146102005760405162461bcd60e51b81526004016101ab90610fec565b600280546001600160a01b0319166001600160a01b0392909216919091179055565b6003546000906001600160a01b031633146102905760405162461bcd60e51b815260206004820152602860248201527f426174746c65317673313a206f6e6c79206c6f62627920636f6e74726163742060448201526718d85b8818d85b1b60c21b60648201526084016101ab565b60025483516001600160a01b0390911690600090859082906102b4576102b4611021565b602002602001015190506000846000815181106102d3576102d3611021565b602002602001015190506000836001600160a01b031663d5c1ed8a846040518263ffffffff1660e01b815260040161030d91815260200190565b60206040518083038186803b15801561032557600080fd5b505afa158015610339573d6000803e3d6000fd5b505050506040513d601f19601f8201168201806040525081019061035d9190611037565b604051636ae0f6c560e11b8152600481018490529091506000906001600160a01b0386169063d5c1ed8a9060240160206040518083038186803b1580156103a357600080fd5b505afa1580156103b7573d6000803e3d6000fd5b505050506040513d601f19601f820116820180604052508101906103db9190611037565b60405163f3d1b5ab60e01b8152600481018690529091506000906001600160a01b0387169063f3d1b5ab9060240160206040518083038186803b15801561042157600080fd5b505afa158015610435573d6000803e3d6000fd5b505050506040513d601f19601f820116820180604052508101906104599190611037565b604051630a36d40b60e01b8152600481018790529091506000906001600160a01b03881690630a36d40b9060240160206040518083038186803b15801561049f57600080fd5b505afa1580156104b3573d6000803e3d6000fd5b505050506040513d601f19601f820116820180604052508101906104d79190611037565b60405163f3d1b5ab60e01b8152600481018790529091506000906001600160a01b0389169063f3d1b5ab9060240160206040518083038186803b15801561051d57600080fd5b505afa158015610531573d6000803e3d6000fd5b505050506040513d601f19601f820116820180604052508101906105559190611037565b604051630a36d40b60e01b8152600481018890529091506000906001600160a01b038a1690630a36d40b9060240160206040518083038186803b15801561059b57600080fd5b505afa1580156105af573d6000803e3d6000fd5b505050506040513d601f19601f820116820180604052508101906105d39190611037565b9050818414156109ce578083111561077857848611156105ff5760019950505050505050505050610d34565b848614156106c0576001805460405163a9dd122560e01b81526004810192909252606460248301526000916001600160a01b039091169063a9dd1225906044015b60206040518083038186803b15801561065857600080fd5b505afa15801561066c573d6000803e3d6000fd5b505050506040513d601f19601f820116820180604052508101906106909190611037565b9050603c81116106ad5760019a5050505050505050505050610d34565b60029a5050505050505050505050610d34565b6001805460405163a9dd122560e01b81526004810192909252606460248301526000916001600160a01b039091169063a9dd12259060440160206040518083038186803b15801561071057600080fd5b505afa158015610724573d6000803e3d6000fd5b505050506040513d601f19601f820116820180604052508101906107489190611037565b9050604681116107655760029a5050505050505050505050610d34565b60019a5050505050505050505050610d34565b808314156108ca578486111561082e576001805460405163a9dd122560e01b81526004810192909252606460248301526000916001600160a01b039091169063a9dd1225906044015b60206040518083038186803b1580156107d957600080fd5b505afa1580156107ed573d6000803e3d6000fd5b505050506040513d601f19601f820116820180604052508101906108119190611037565b9050604681116106ad5760019a5050505050505050505050610d34565b848614156106c0576001805460405163a9dd122560e01b81526004810192909252600260248301526001600160a01b03169063a9dd1225906044015b60206040518083038186803b15801561088257600080fd5b505afa158015610896573d6000803e3d6000fd5b505050506040513d601f19601f820116820180604052508101906108ba9190611037565b9950505050505050505050610d34565b848610156108e45760029950505050505050505050610d34565b84861415610991576001805460405163a9dd122560e01b81526004810192909252606460248301526000916001600160a01b039091169063a9dd12259060440160206040518083038186803b15801561093c57600080fd5b505afa158015610950573d6000803e3d6000fd5b505050506040513d601f19601f820116820180604052508101906109749190611037565b9050603c81116107655760029a5050505050505050505050610d34565b6001805460405163a9dd122560e01b81526004810192909252606460248301526000916001600160a01b039091169063a9dd1225906044016107c1565b80831415610b695784861115610a84576001805460405163a9dd122560e01b81526004810192909252606460248301526000916001600160a01b039091169063a9dd12259060440160206040518083038186803b158015610a2e57600080fd5b505afa158015610a42573d6000803e3d6000fd5b505050506040513d601f19601f82011682018060405250810190610a669190611037565b905060468111156106ad5760019a5050505050505050505050610d34565b84861415610ac4576001805460405163a9dd122560e01b81526004810192909252600260248301526001600160a01b03169063a9dd12259060440161086a565b6001805460405163a9dd122560e01b81526004810192909252606460248301526000916001600160a01b039091169063a9dd12259060440160206040518083038186803b158015610b1457600080fd5b505afa158015610b28573d6000803e3d6000fd5b505050506040513d601f19601f82011682018060405250810190610b4c9190611037565b9050601481116106ad5760019a5050505050505050505050610d34565b80831115610c305784861115610b8b5760019950505050505050505050610d34565b6001805460405163a9dd122560e01b81526004810192909252606460248301526000916001600160a01b039091169063a9dd12259060440160206040518083038186803b158015610bdb57600080fd5b505afa158015610bef573d6000803e3d6000fd5b505050506040513d601f19601f82011682018060405250810190610c139190611037565b9050602881116106ad5760019a5050505050505050505050610d34565b84861015610c4a5760029950505050505050505050610d34565b84861415610cf7576001805460405163a9dd122560e01b81526004810192909252606460248301526000916001600160a01b039091169063a9dd12259060440160206040518083038186803b158015610ca257600080fd5b505afa158015610cb6573d6000803e3d6000fd5b505050506040513d601f19601f82011682018060405250810190610cda9190611037565b9050601e81116106ad5760019a5050505050505050505050610d34565b6001805460405163a9dd122560e01b81526004810192909252606460248301526000916001600160a01b039091169063a9dd122590604401610640565b92915050565b6000546001600160a01b03163314610d645760405162461bcd60e51b81526004016101ab90610fec565b610d6e6000610e57565b565b6000546001600160a01b03163314610d9a5760405162461bcd60e51b81526004016101ab90610fec565b600180546001600160a01b0319166001600160a01b0392909216919091179055565b6000546001600160a01b03163314610de65760405162461bcd60e51b81526004016101ab90610fec565b6001600160a01b038116610e4b5760405162461bcd60e51b815260206004820152602660248201527f4f776e61626c653a206e6577206f776e657220697320746865207a65726f206160448201526564647265737360d01b60648201526084016101ab565b610e5481610e57565b50565b600080546001600160a01b038381166001600160a01b0319831681178455604051919092169283917f8be0079c531659141344cd1fd0a4f28419497f9722a3daafe3b4186f6b6457e09190a35050565b600060208284031215610eb957600080fd5b81356001600160a01b0381168114610ed057600080fd5b9392505050565b634e487b7160e01b600052604160045260246000fd5b600082601f830112610efe57600080fd5b8135602067ffffffffffffffff80831115610f1b57610f1b610ed7565b8260051b604051601f19603f83011681018181108482111715610f4057610f40610ed7565b604052938452858101830193838101925087851115610f5e57600080fd5b83870191505b84821015610f7d57813583529183019190830190610f64565b979650505050505050565b60008060408385031215610f9b57600080fd5b823567ffffffffffffffff80821115610fb357600080fd5b610fbf86838701610eed565b93506020850135915080821115610fd557600080fd5b50610fe285828601610eed565b9150509250929050565b6020808252818101527f4f776e61626c653a2063616c6c6572206973206e6f7420746865206f776e6572604082015260600190565b634e487b7160e01b600052603260045260246000fd5b60006020828403121561104957600080fd5b505191905056fea2646970667358221220c0409aafc7f853834cf20e48583e03b1a0d9523e5360fe84b28a035cc9b24fa264736f6c63430008090033",
  "linkReferences": {},
  "deployedLinkReferences": {}
}