{
  "_format": "hh-sol-artifact-1",
  "contractName": "Battle1vs1",
  "sourceName": "contracts/game/Battle1vs1.sol",
  "abi": [
    {
      "inputs": [
        {
          "internalType": "address",
          "name": "hmAddr",
          "type": "address"
        },
        {
          "internalType": "address",
          "name": "lbAddr",
          "type": "address"
        }
      ],
      "stateMutability": "nonpayable",
      "type": "constructor"
    },
    {
      "inputs": [
        {
          "internalType": "uint256[]",
          "name": "hostHeroes",
          "type": "uint256[]"
        },
        {
          "internalType": "uint256[]",
          "name": "clientHeroes",
          "type": "uint256[]"
        }
      ],
      "name": "contest",
      "outputs": [
        {
          "internalType": "uint256",
          "name": "",
          "type": "uint256"
        }
      ],
      "stateMutability": "view",
      "type": "function"
    },
    {
      "inputs": [],
      "name": "heroManagerAddress",
      "outputs": [
        {
          "internalType": "address",
          "name": "",
          "type": "address"
        }
      ],
      "stateMutability": "view",
      "type": "function"
    },
    {
      "inputs": [],
      "name": "lobbyAddress",
      "outputs": [
        {
          "internalType": "address",
          "name": "",
          "type": "address"
        }
      ],
      "stateMutability": "view",
      "type": "function"
    },
    {
      "inputs": [
        {
          "internalType": "uint256",
          "name": "min",
          "type": "uint256"
        },
        {
          "internalType": "uint256",
          "name": "max",
          "type": "uint256"
        }
      ],
      "name": "random",
      "outputs": [
        {
          "internalType": "uint256",
          "name": "",
          "type": "uint256"
        }
      ],
      "stateMutability": "view",
      "type": "function"
    }
  ],
  "bytecode": "0x608060405234801561001057600080fd5b50604051610a82380380610a8283398101604081905261002f9161007c565b600080546001600160a01b039384166001600160a01b031991821617909155600180549290931691161790556100af565b80516001600160a01b038116811461007757600080fd5b919050565b6000806040838503121561008f57600080fd5b61009883610060565b91506100a660208401610060565b90509250929050565b6109c4806100be6000396000f3fe608060405234801561001057600080fd5b506004361061004c5760003560e01c806348e8c1d314610051578063a9dd122514610077578063ae19dbd31461008a578063ebc9b48b146100b5575b600080fd5b61006461005f366004610872565b6100c8565b6040519081526020015b60405180910390f35b6100646100853660046108d6565b61070f565b60005461009d906001600160a01b031681565b6040516001600160a01b03909116815260200161006e565b60015461009d906001600160a01b031681565b6001546000906001600160a01b0316331461013a5760405162461bcd60e51b815260206004820152602860248201527f426174746c65317673313a206f6e6c79206c6f62627920636f6e74726163742060448201526718d85b8818d85b1b60c21b606482015260840160405180910390fd5b6000805484516001600160a01b0390911691908590829061015d5761015d6108f8565b6020026020010151905060008460008151811061017c5761017c6108f8565b602002602001015190506000836001600160a01b031663d5c1ed8a846040518263ffffffff1660e01b81526004016101b691815260200190565b60206040518083038186803b1580156101ce57600080fd5b505afa1580156101e2573d6000803e3d6000fd5b505050506040513d601f19601f82011682018060405250810190610206919061090e565b604051636ae0f6c560e11b8152600481018490529091506000906001600160a01b0386169063d5c1ed8a9060240160206040518083038186803b15801561024c57600080fd5b505afa158015610260573d6000803e3d6000fd5b505050506040513d601f19601f82011682018060405250810190610284919061090e565b60405163f3d1b5ab60e01b8152600481018690529091506000906001600160a01b0387169063f3d1b5ab9060240160206040518083038186803b1580156102ca57600080fd5b505afa1580156102de573d6000803e3d6000fd5b505050506040513d601f19601f82011682018060405250810190610302919061090e565b604051630a36d40b60e01b8152600481018790529091506000906001600160a01b03881690630a36d40b9060240160206040518083038186803b15801561034857600080fd5b505afa15801561035c573d6000803e3d6000fd5b505050506040513d601f19601f82011682018060405250810190610380919061090e565b60405163f3d1b5ab60e01b8152600481018790529091506000906001600160a01b0389169063f3d1b5ab9060240160206040518083038186803b1580156103c657600080fd5b505afa1580156103da573d6000803e3d6000fd5b505050506040513d601f19601f820116820180604052508101906103fe919061090e565b604051630a36d40b60e01b8152600481018890529091506000906001600160a01b038a1690630a36d40b9060240160206040518083038186803b15801561044457600080fd5b505afa158015610458573d6000803e3d6000fd5b505050506040513d601f19601f8201168201806040525081019061047c919061090e565b9050818414156105e6578083111561052c57848611156104a85760019950505050505050505050610709565b848614156104ee5760006104be6001606461070f565b9050603c81116104db5760019a5050505050505050505050610709565b60029a5050505050505050505050610709565b60006104fc6001606461070f565b9050604681116105195760029a5050505050505050505050610709565b60019a5050505050505050505050610709565b8083141561058b578486111561056757600061054a6001606461070f565b9050604681116104db5760019a5050505050505050505050610709565b848614156104ee5761057b6001600261070f565b9950505050505050505050610709565b848610156105a55760029950505050505050505050610709565b848614156105d85760006105bb6001606461070f565b9050603c81116105195760029a5050505050505050505050610709565b600061054a6001606461070f565b8083141561066157848611156106225760006106046001606461070f565b905060468111156104db5760019a5050505050505050505050610709565b848614156106365761057b6001600261070f565b60006106446001606461070f565b9050601481116104db5760019a5050505050505050505050610709565b808311156106ae57848611156106835760019950505050505050505050610709565b60006106916001606461070f565b9050602881116104db5760019a5050505050505050505050610709565b848610156106c85760029950505050505050505050610709565b848614156106fb5760006106de6001606461070f565b9050601e81116104db5760019a5050505050505050505050610709565b60006104be6001606461070f565b92915050565b6000804442336000356001600160e01b0319165a6040805160208101969096528501939093526bffffffffffffffffffffffff19606092831b16918401919091526001600160e01b031916607483015260788201526098810185905260b8810184905260d80160408051601f19818403018152919052805160209091012090508361079a818561093d565b6107a5906001610954565b6107af908361096c565b6107b99190610954565b949350505050565b634e487b7160e01b600052604160045260246000fd5b600082601f8301126107e857600080fd5b8135602067ffffffffffffffff80831115610805576108056107c1565b8260051b604051601f19603f8301168101818110848211171561082a5761082a6107c1565b60405293845285810183019383810192508785111561084857600080fd5b83870191505b848210156108675781358352918301919083019061084e565b979650505050505050565b6000806040838503121561088557600080fd5b823567ffffffffffffffff8082111561089d57600080fd5b6108a9868387016107d7565b935060208501359150808211156108bf57600080fd5b506108cc858286016107d7565b9150509250929050565b600080604083850312156108e957600080fd5b50508035926020909101359150565b634e487b7160e01b600052603260045260246000fd5b60006020828403121561092057600080fd5b5051919050565b634e487b7160e01b600052601160045260246000fd5b60008282101561094f5761094f610927565b500390565b6000821982111561096757610967610927565b500190565b60008261098957634e487b7160e01b600052601260045260246000fd5b50069056fea2646970667358221220500fc82fc3f32220ead0738ffb0e60290d39eb2f5e1d0e7ce561431d8839e4d764736f6c63430008090033",
  "linkReferences": {},
  "deployedLinkReferences": {}
}