{
  "_format": "hh-sol-artifact-1",
  "contractName": "DataProcessor",
  "sourceName": "contracts/game/DataProcessor.sol",
  "abi": [
    {
      "inputs": [
        {
          "internalType": "address",
          "name": "hmAddr",
          "type": "address"
        },
        {
          "internalType": "address",
          "name": "lmAddr",
          "type": "address"
        }
      ],
      "stateMutability": "nonpayable",
      "type": "constructor"
    },
    {
      "anonymous": false,
      "inputs": [
        {
          "indexed": true,
          "internalType": "address",
          "name": "previousOwner",
          "type": "address"
        },
        {
          "indexed": true,
          "internalType": "address",
          "name": "newOwner",
          "type": "address"
        }
      ],
      "name": "OwnershipTransferred",
      "type": "event"
    },
    {
      "inputs": [
        {
          "internalType": "address",
          "name": "myAddr",
          "type": "address"
        },
        {
          "internalType": "uint256",
          "name": "lobbyCapacity",
          "type": "uint256"
        }
      ],
      "name": "getActiveLobbies",
      "outputs": [
        {
          "internalType": "uint256[]",
          "name": "",
          "type": "uint256[]"
        }
      ],
      "stateMutability": "view",
      "type": "function"
    },
    {
      "inputs": [
        {
          "internalType": "uint256",
          "name": "lobbyCapacity",
          "type": "uint256"
        }
      ],
      "name": "getAllHistory",
      "outputs": [
        {
          "internalType": "uint256[]",
          "name": "",
          "type": "uint256[]"
        }
      ],
      "stateMutability": "view",
      "type": "function"
    },
    {
      "inputs": [
        {
          "internalType": "uint256[]",
          "name": "heroes",
          "type": "uint256[]"
        }
      ],
      "name": "getHeroesPower",
      "outputs": [
        {
          "internalType": "uint256",
          "name": "",
          "type": "uint256"
        }
      ],
      "stateMutability": "view",
      "type": "function"
    },
    {
      "inputs": [
        {
          "internalType": "uint256",
          "name": "lobbyId",
          "type": "uint256"
        }
      ],
      "name": "getLobbyHeroes",
      "outputs": [
        {
          "internalType": "address",
          "name": "",
          "type": "address"
        },
        {
          "internalType": "uint256[]",
          "name": "",
          "type": "uint256[]"
        },
        {
          "internalType": "address",
          "name": "",
          "type": "address"
        },
        {
          "internalType": "uint256[]",
          "name": "",
          "type": "uint256[]"
        }
      ],
      "stateMutability": "view",
      "type": "function"
    },
    {
      "inputs": [
        {
          "internalType": "uint256",
          "name": "lobbyId",
          "type": "uint256"
        }
      ],
      "name": "getLobbyPower",
      "outputs": [
        {
          "internalType": "address",
          "name": "",
          "type": "address"
        },
        {
          "internalType": "uint256",
          "name": "",
          "type": "uint256"
        },
        {
          "internalType": "address",
          "name": "",
          "type": "address"
        },
        {
          "internalType": "uint256",
          "name": "",
          "type": "uint256"
        }
      ],
      "stateMutability": "view",
      "type": "function"
    },
    {
      "inputs": [
        {
          "internalType": "address",
          "name": "myAddr",
          "type": "address"
        },
        {
          "internalType": "uint256",
          "name": "lobbyCapacity",
          "type": "uint256"
        }
      ],
      "name": "getMyHistory",
      "outputs": [
        {
          "internalType": "uint256[]",
          "name": "",
          "type": "uint256[]"
        }
      ],
      "stateMutability": "view",
      "type": "function"
    },
    {
      "inputs": [
        {
          "internalType": "address",
          "name": "myAddr",
          "type": "address"
        },
        {
          "internalType": "uint256",
          "name": "lobbyCapacity",
          "type": "uint256"
        }
      ],
      "name": "getMyLobbies",
      "outputs": [
        {
          "internalType": "uint256[]",
          "name": "",
          "type": "uint256[]"
        }
      ],
      "stateMutability": "view",
      "type": "function"
    },
    {
      "inputs": [
        {
          "internalType": "uint256",
          "name": "lobbyId",
          "type": "uint256"
        },
        {
          "internalType": "address",
          "name": "player",
          "type": "address"
        }
      ],
      "name": "getPlayerHeroesOnLobby",
      "outputs": [
        {
          "internalType": "uint256[]",
          "name": "",
          "type": "uint256[]"
        }
      ],
      "stateMutability": "view",
      "type": "function"
    },
    {
      "inputs": [],
      "name": "heroManager",
      "outputs": [
        {
          "internalType": "contract IHeroManager",
          "name": "",
          "type": "address"
        }
      ],
      "stateMutability": "view",
      "type": "function"
    },
    {
      "inputs": [],
      "name": "lobbyManager",
      "outputs": [
        {
          "internalType": "contract ILobbyManager",
          "name": "",
          "type": "address"
        }
      ],
      "stateMutability": "view",
      "type": "function"
    },
    {
      "inputs": [
        {
          "internalType": "bytes[]",
          "name": "data",
          "type": "bytes[]"
        }
      ],
      "name": "multicall",
      "outputs": [
        {
          "internalType": "bytes[]",
          "name": "results",
          "type": "bytes[]"
        }
      ],
      "stateMutability": "nonpayable",
      "type": "function"
    },
    {
      "inputs": [],
      "name": "owner",
      "outputs": [
        {
          "internalType": "address",
          "name": "",
          "type": "address"
        }
      ],
      "stateMutability": "view",
      "type": "function"
    },
    {
      "inputs": [],
      "name": "renounceOwnership",
      "outputs": [],
      "stateMutability": "nonpayable",
      "type": "function"
    },
    {
      "inputs": [
        {
          "internalType": "address",
          "name": "hmAddr",
          "type": "address"
        }
      ],
      "name": "setHeroManager",
      "outputs": [],
      "stateMutability": "nonpayable",
      "type": "function"
    },
    {
      "inputs": [
        {
          "internalType": "address",
          "name": "lmAddr",
          "type": "address"
        }
      ],
      "name": "setLobbyManager",
      "outputs": [],
      "stateMutability": "nonpayable",
      "type": "function"
    },
    {
      "inputs": [
        {
          "internalType": "address",
          "name": "newOwner",
          "type": "address"
        }
      ],
      "name": "transferOwnership",
      "outputs": [],
      "stateMutability": "nonpayable",
      "type": "function"
    }
  ],
  "bytecode": "0x60806040523480156200001157600080fd5b5060405162001cc338038062001cc38339810160408190526200003491620000de565b6200003f3362000071565b600180546001600160a01b039384166001600160a01b0319918216179091556002805492909316911617905562000116565b600080546001600160a01b038381166001600160a01b0319831681178455604051919092169283917f8be0079c531659141344cd1fd0a4f28419497f9722a3daafe3b4186f6b6457e09190a35050565b80516001600160a01b0381168114620000d957600080fd5b919050565b60008060408385031215620000f257600080fd5b620000fd83620000c1565b91506200010d60208401620000c1565b90509250929050565b611b9d80620001266000396000f3fe608060405234801561001057600080fd5b50600436106101005760003560e01c8063715018a611610097578063b12f5c5711610066578063b12f5c5714610229578063b97dcb2214610271578063ed697f3214610284578063f2fde38b146102a557600080fd5b8063715018a6146101dd5780637407fddd146101e55780638da5cb5b146101f8578063ac9650d81461020957600080fd5b8063378cc347116100d3578063378cc347146101915780633b8a7a13146101a457806345efd785146101b75780634d5f80ad146101ca57600080fd5b806307a48c19146101055780631636f10c146101315780631deb8c44146101465780632e7b4e5714610166575b600080fd5b6101186101133660046115ab565b6102b8565b60405161012894939291906115ff565b60405180910390f35b61014461013f36600461165c565b610377565b005b610159610154366004611679565b6103cc565b60405161012891906116a5565b600254610179906001600160a01b031681565b6040516001600160a01b039091168152602001610128565b61014461019f36600461165c565b6106ab565b600154610179906001600160a01b031681565b6101596101c53660046115ab565b6106f7565b6101596101d8366004611679565b610995565b610144610c67565b6101596101f3366004611679565b610c9d565b6000546001600160a01b0316610179565b61021c6102173660046116b8565b610fb1565b6040516101289190611789565b61023c6102373660046115ab565b6110a6565b60405161012894939291906001600160a01b039485168152602081019390935292166040820152606081019190915260800190565b61015961027f3660046117eb565b611273565b610297610292366004611886565b611303565b604051908152602001610128565b6101446102b336600461165c565b61138a565b600254604051633747da6360e11b81526004810183905260009160609183918391839182916001600160a01b0390911690636e8fb4c6906024016101606040518083038186803b15801561030b57600080fd5b505afa15801561031f573d6000803e3d6000fd5b505050506040513d601f19601f82011682018060405250810190610343919061191c565b505050505050509350935050508161035b8884611273565b826103668a85611273565b955095509550955050509193509193565b6000546001600160a01b031633146103aa5760405162461bcd60e51b81526004016103a1906119b0565b60405180910390fd5b600280546001600160a01b0319166001600160a01b0392909216919091179055565b6060600080600260009054906101000a90046001600160a01b03166001600160a01b031663965d3dc96040518163ffffffff1660e01b815260040160206040518083038186803b15801561041f57600080fd5b505afa158015610433573d6000803e3d6000fd5b505050506040513d601f19601f8201168201806040525081019061045791906119e5565b905060015b81811161054957600254604051633747da6360e11b815260048101839052600091829182916001600160a01b031690636e8fb4c6906024016101606040518083038186803b1580156104ad57600080fd5b505afa1580156104c1573d6000803e3d6000fd5b505050506040513d601f19601f820116820180604052508101906104e5919061191c565b505050975050965050509450505080600014801561050257508782145b80156105205750886001600160a01b0316836001600160a01b031614155b15610533578561052f816119fe565b9650505b5050508080610541906119fe565b91505061045c565b506000808367ffffffffffffffff8111156105665761056661181b565b60405190808252806020026020018201604052801561058f578160200160208202803683370190505b50905060015b8381116106a057600254604051633747da6360e11b815260048101839052600091829182916001600160a01b031690636e8fb4c6906024016101606040518083038186803b1580156105e657600080fd5b505afa1580156105fa573d6000803e3d6000fd5b505050506040513d601f19601f8201168201806040525081019061061e919061191c565b505050975050965050509450505080600014801561063b57508982145b801561065957508a6001600160a01b0316836001600160a01b031614155b1561068a578385878151811061067157610671611a27565b602090810291909101015285610686816119fe565b9650505b5050508080610698906119fe565b915050610595565b509695505050505050565b6000546001600160a01b031633146106d55760405162461bcd60e51b81526004016103a1906119b0565b600180546001600160a01b0319166001600160a01b0392909216919091179055565b6060600080600260009054906101000a90046001600160a01b03166001600160a01b031663965d3dc96040518163ffffffff1660e01b815260040160206040518083038186803b15801561074a57600080fd5b505afa15801561075e573d6000803e3d6000fd5b505050506040513d601f19601f8201168201806040525081019061078291906119e5565b905060015b81811161085457600254604051633747da6360e11b81526004810183905260009182916001600160a01b0390911690636e8fb4c6906024016101606040518083038186803b1580156107d857600080fd5b505afa1580156107ec573d6000803e3d6000fd5b505050506040513d601f19601f82011682018060405250810190610810919061191c565b5050509750509650505050505060008111801561082c57508682145b1561083f578461083b816119fe565b9550505b5050808061084c906119fe565b915050610787565b506000808367ffffffffffffffff8111156108715761087161181b565b60405190808252806020026020018201604052801561089a578160200160208202803683370190505b50905060015b83811161098b57600254604051633747da6360e11b81526004810183905260009182916001600160a01b0390911690636e8fb4c6906024016101606040518083038186803b1580156108f157600080fd5b505afa158015610905573d6000803e3d6000fd5b505050506040513d601f19601f82011682018060405250810190610929919061191c565b5050509750509650505050505060008111801561094557508882145b15610976578284868151811061095d5761095d611a27565b602090810291909101015284610972816119fe565b9550505b50508080610983906119fe565b9150506108a0565b5095945050505050565b6060600080600260009054906101000a90046001600160a01b03166001600160a01b031663965d3dc96040518163ffffffff1660e01b815260040160206040518083038186803b1580156109e857600080fd5b505afa1580156109fc573d6000803e3d6000fd5b505050506040513d601f19601f82011682018060405250810190610a2091906119e5565b905060015b818111610b1157600254604051633747da6360e11b815260048101839052600091829182916001600160a01b031690636e8fb4c6906024016101606040518083038186803b158015610a7657600080fd5b505afa158015610a8a573d6000803e3d6000fd5b505050506040513d601f19601f82011682018060405250810190610aae919061191c565b5050509750509650505094505050806000148015610acb57508782145b8015610ae85750886001600160a01b0316836001600160a01b0316145b15610afb5785610af7816119fe565b9650505b5050508080610b09906119fe565b915050610a25565b506000808367ffffffffffffffff811115610b2e57610b2e61181b565b604051908082528060200260200182016040528015610b57578160200160208202803683370190505b50905060015b8381116106a057600254604051633747da6360e11b815260048101839052600091829182916001600160a01b031690636e8fb4c6906024016101606040518083038186803b158015610bae57600080fd5b505afa158015610bc2573d6000803e3d6000fd5b505050506040513d601f19601f82011682018060405250810190610be6919061191c565b5050509750509650505094505050806000148015610c0357508982145b8015610c2057508a6001600160a01b0316836001600160a01b0316145b15610c515783858781518110610c3857610c38611a27565b602090810291909101015285610c4d816119fe565b9650505b5050508080610c5f906119fe565b915050610b5d565b6000546001600160a01b03163314610c915760405162461bcd60e51b81526004016103a1906119b0565b610c9b6000611425565b565b6060600080600260009054906101000a90046001600160a01b03166001600160a01b031663965d3dc96040518163ffffffff1660e01b815260040160206040518083038186803b158015610cf057600080fd5b505afa158015610d04573d6000803e3d6000fd5b505050506040513d601f19601f82011682018060405250810190610d2891906119e5565b905060015b818111610e3a57600254604051633747da6360e11b8152600481018390526000918291829182916001600160a01b0390911690636e8fb4c6906024016101606040518083038186803b158015610d8257600080fd5b505afa158015610d96573d6000803e3d6000fd5b505050506040513d601f19601f82011682018060405250810190610dba919061191c565b505050975050965050955095505050600081118015610dd857508882145b8015610e105750896001600160a01b0316846001600160a01b03161480610e105750896001600160a01b0316836001600160a01b0316145b15610e235786610e1f816119fe565b9750505b505050508080610e32906119fe565b915050610d2d565b506000808367ffffffffffffffff811115610e5757610e5761181b565b604051908082528060200260200182016040528015610e80578160200160208202803683370190505b50905060015b8381116106a057600254604051633747da6360e11b8152600481018390526000918291829182916001600160a01b0390911690636e8fb4c6906024016101606040518083038186803b158015610edb57600080fd5b505afa158015610eef573d6000803e3d6000fd5b505050506040513d601f19601f82011682018060405250810190610f13919061191c565b505050975050965050955095505050600081118015610f3157508a82145b8015610f6957508b6001600160a01b0316846001600160a01b03161480610f6957508b6001600160a01b0316836001600160a01b0316145b15610f9a5784868881518110610f8157610f81611a27565b602090810291909101015286610f96816119fe565b9750505b505050508080610fa9906119fe565b915050610e86565b60608167ffffffffffffffff811115610fcc57610fcc61181b565b604051908082528060200260200182016040528015610fff57816020015b6060815260200190600190039081610fea5790505b50905060005b8281101561109f5761106f3085858481811061102357611023611a27565b90506020028101906110359190611a3d565b8080601f01602080910402602001604051908101604052809392919081815260200183838082843760009201919091525061147592505050565b82828151811061108157611081611a27565b60200260200101819052508080611097906119fe565b915050611005565b5092915050565b600254604051633747da6360e11b815260048101839052600091829182918291829182916001600160a01b0390911690636e8fb4c6906024016101606040518083038186803b1580156110f857600080fd5b505afa15801561110c573d6000803e3d6000fd5b505050506040513d601f19601f82011682018060405250810190611130919061191c565b505060025460405163c7f790bb60e01b8152979b5095995060009850506001600160a01b03909416955063c7f790bb9461118794508e935089925060040190509182526001600160a01b0316602082015260400190565b60206040518083038186803b15801561119f57600080fd5b505afa1580156111b3573d6000803e3d6000fd5b505050506040513d601f19601f820116820180604052508101906111d791906119e5565b60025460405163c7f790bb60e01b8152600481018b90526001600160a01b0385811660248301529293506000929091169063c7f790bb9060440160206040518083038186803b15801561122957600080fd5b505afa15801561123d573d6000803e3d6000fd5b505050506040513d601f19601f8201168201806040525081019061126191906119e5565b93999198509196509194509092505050565b600254604051635cbee59160e11b8152600481018490526001600160a01b038381166024830152606092169063b97dcb229060440160006040518083038186803b1580156112c057600080fd5b505afa1580156112d4573d6000803e3d6000fd5b505050506040513d6000823e601f3d908101601f191682016040526112fc9190810190611a8b565b9392505050565b6002546040516376b4bf9960e11b81526000916001600160a01b03169063ed697f32906113349085906004016116a5565b60206040518083038186803b15801561134c57600080fd5b505afa158015611360573d6000803e3d6000fd5b505050506040513d601f19601f8201168201806040525081019061138491906119e5565b92915050565b6000546001600160a01b031633146113b45760405162461bcd60e51b81526004016103a1906119b0565b6001600160a01b0381166114195760405162461bcd60e51b815260206004820152602660248201527f4f776e61626c653a206e6577206f776e657220697320746865207a65726f206160448201526564647265737360d01b60648201526084016103a1565b61142281611425565b50565b600080546001600160a01b038381166001600160a01b0319831681178455604051919092169283917f8be0079c531659141344cd1fd0a4f28419497f9722a3daafe3b4186f6b6457e09190a35050565b60606112fc8383604051806060016040528060278152602001611b416027913960606001600160a01b0384163b6114fd5760405162461bcd60e51b815260206004820152602660248201527f416464726573733a2064656c65676174652063616c6c20746f206e6f6e2d636f6044820152651b9d1c9858dd60d21b60648201526084016103a1565b600080856001600160a01b0316856040516115189190611b11565b600060405180830381855af49150503d8060008114611553576040519150601f19603f3d011682016040523d82523d6000602084013e611558565b606091505b5091509150611568828286611572565b9695505050505050565b606083156115815750816112fc565b8251156115915782518084602001fd5b8160405162461bcd60e51b81526004016103a19190611b2d565b6000602082840312156115bd57600080fd5b5035919050565b600081518084526020808501945080840160005b838110156115f4578151875295820195908201906001016115d8565b509495945050505050565b600060018060a01b0380871683526080602084015261162160808401876115c4565b8186166040850152838103606085015261163b81866115c4565b98975050505050505050565b6001600160a01b038116811461142257600080fd5b60006020828403121561166e57600080fd5b81356112fc81611647565b6000806040838503121561168c57600080fd5b823561169781611647565b946020939093013593505050565b6020815260006112fc60208301846115c4565b600080602083850312156116cb57600080fd5b823567ffffffffffffffff808211156116e357600080fd5b818501915085601f8301126116f757600080fd5b81358181111561170657600080fd5b8660208260051b850101111561171b57600080fd5b60209290920196919550909350505050565b60005b83811015611748578181015183820152602001611730565b83811115611757576000848401525b50505050565b6000815180845261177581602086016020860161172d565b601f01601f19169290920160200192915050565b6000602080830181845280855180835260408601915060408160051b870101925083870160005b828110156117de57603f198886030184526117cc85835161175d565b945092850192908501906001016117b0565b5092979650505050505050565b600080604083850312156117fe57600080fd5b82359150602083013561181081611647565b809150509250929050565b634e487b7160e01b600052604160045260246000fd5b604051601f8201601f1916810167ffffffffffffffff8111828210171561185a5761185a61181b565b604052919050565b600067ffffffffffffffff82111561187c5761187c61181b565b5060051b60200190565b6000602080838503121561189957600080fd5b823567ffffffffffffffff8111156118b057600080fd5b8301601f810185136118c157600080fd5b80356118d46118cf82611862565b611831565b81815260059190911b820183019083810190878311156118f357600080fd5b928401925b82841015611911578335825292840192908401906118f8565b979650505050505050565b60008060008060008060008060008060006101608c8e03121561193e57600080fd5b8b519a5060208c0151995060408c015161195781611647565b60608d015190995061196881611647565b8098505060808c0151965060a08c0151955060c08c0151945060e08c015193506101008c015192506101208c015191506101408c015190509295989b509295989b9093969950565b6020808252818101527f4f776e61626c653a2063616c6c6572206973206e6f7420746865206f776e6572604082015260600190565b6000602082840312156119f757600080fd5b5051919050565b6000600019821415611a2057634e487b7160e01b600052601160045260246000fd5b5060010190565b634e487b7160e01b600052603260045260246000fd5b6000808335601e19843603018112611a5457600080fd5b83018035915067ffffffffffffffff821115611a6f57600080fd5b602001915036819003821315611a8457600080fd5b9250929050565b60006020808385031215611a9e57600080fd5b825167ffffffffffffffff811115611ab557600080fd5b8301601f81018513611ac657600080fd5b8051611ad46118cf82611862565b81815260059190911b82018301908381019087831115611af357600080fd5b928401925b8284101561191157835182529284019290840190611af8565b60008251611b2381846020870161172d565b9190910192915050565b6020815260006112fc602083018461175d56fe416464726573733a206c6f772d6c6576656c2064656c65676174652063616c6c206661696c6564a26469706673582212203f58fedf53af6fd6dbf9236573f487d963531f030c13470003f5c4e78665813064736f6c63430008090033",
  "linkReferences": {},
  "deployedLinkReferences": {}
}