{
  "_format": "hh-sol-artifact-1",
  "contractName": "HeroInfinityMulticall",
  "sourceName": "contracts/HeroInfinityMulticall.sol",
  "abi": [
    {
      "inputs": [
        {
          "components": [
            {
              "internalType": "address",
              "name": "target",
              "type": "address"
            },
            {
              "internalType": "bytes",
              "name": "callData",
              "type": "bytes"
            }
          ],
          "internalType": "struct HeroInfinityMulticall.Call[]",
          "name": "calls",
          "type": "tuple[]"
        }
      ],
      "name": "multicall",
      "outputs": [
        {
          "internalType": "bytes[]",
          "name": "results",
          "type": "bytes[]"
        }
      ],
      "stateMutability": "nonpayable",
      "type": "function"
    }
  ],
  "bytecode": "0x608060405234801561001057600080fd5b506104e9806100206000396000f3fe608060405234801561001057600080fd5b506004361061002b5760003560e01c8063caa5c23f14610030575b600080fd5b61004361003e366004610241565b610059565b60405161005091906103de565b60405180910390f35b6060815167ffffffffffffffff811115610075576100756101d1565b6040519080825280602002602001820160405280156100a857816020015b60608152602001906001900390816100935790505b50905060005b82518110156101cb576000808483815181106100cc576100cc610458565b6020026020010151600001516001600160a01b03168584815181106100f3576100f3610458565b60200260200101516020015160405161010c919061046e565b6000604051808303816000865af19150503d8060008114610149576040519150601f19603f3d011682016040523d82523d6000602084013e61014e565b606091505b5091509150816101985760405162461bcd60e51b8152602060048201526011602482015270135d5b1d1a58d85b1b0e8819985a5b1959607a1b604482015260640160405180910390fd5b808484815181106101ab576101ab610458565b6020026020010181905250505080806101c39061048a565b9150506100ae565b50919050565b634e487b7160e01b600052604160045260246000fd5b6040805190810167ffffffffffffffff8111828210171561020a5761020a6101d1565b60405290565b604051601f8201601f1916810167ffffffffffffffff81118282101715610239576102396101d1565b604052919050565b6000602080838503121561025457600080fd5b823567ffffffffffffffff8082111561026c57600080fd5b818501915085601f83011261028057600080fd5b813581811115610292576102926101d1565b8060051b6102a1858201610210565b91825283810185019185810190898411156102bb57600080fd5b86860192505b838310156103a1578235858111156102d95760008081fd5b86016040601f19828d0381018213156102f25760008081fd5b6102fa6101e7565b838b01356001600160a01b03811681146103145760008081fd5b815283830135898111156103285760008081fd5b8085019450508d603f85011261033e5760008081fd5b8a84013589811115610352576103526101d1565b6103628c84601f84011601610210565b92508083528e848287010111156103795760008081fd5b808486018d85013760009083018c0152808b01919091528452505091860191908601906102c1565b9998505050505050505050565b60005b838110156103c95781810151838201526020016103b1565b838111156103d8576000848401525b50505050565b6000602080830181845280855180835260408601915060408160051b870101925083870160005b8281101561044b57878503603f190184528151805180875261042c818989018a85016103ae565b601f01601f191695909501860194509285019290850190600101610405565b5092979650505050505050565b634e487b7160e01b600052603260045260246000fd5b600082516104808184602087016103ae565b9190910192915050565b60006000198214156104ac57634e487b7160e01b600052601160045260246000fd5b506001019056fea2646970667358221220e40260a7c2914c199f74af5c51dbc9eb05113afb9e3a5c8f4247ebb0a003f4c164736f6c63430008090033",
  "linkReferences": {},
  "deployedLinkReferences": {}
}