{
  "_format": "hh-sol-artifact-1",
  "contractName": "HeroManager",
  "sourceName": "contracts/game/HeroManager.sol",
  "abi": [
    {
      "inputs": [],
      "stateMutability": "nonpayable",
      "type": "constructor"
    },
    {
      "anonymous": false,
      "inputs": [
        {
          "indexed": true,
          "internalType": "address",
          "name": "previousOwner",
          "type": "address"
        },
        {
          "indexed": true,
          "internalType": "address",
          "name": "newOwner",
          "type": "address"
        }
      ],
      "name": "OwnershipTransferred",
      "type": "event"
    },
    {
      "inputs": [
        {
          "internalType": "uint256",
          "name": "heroId",
          "type": "uint256"
        },
        {
          "components": [
            {
              "internalType": "uint8",
              "name": "level",
              "type": "uint8"
            },
            {
              "internalType": "uint8",
              "name": "primaryAttribute",
              "type": "uint8"
            },
            {
              "internalType": "uint8",
              "name": "strength",
              "type": "uint8"
            },
            {
              "internalType": "uint8",
              "name": "strengthGain",
              "type": "uint8"
            },
            {
              "internalType": "uint8",
              "name": "agility",
              "type": "uint8"
            },
            {
              "internalType": "uint8",
              "name": "agilityGain",
              "type": "uint8"
            },
            {
              "internalType": "uint8",
              "name": "intelligence",
              "type": "uint8"
            },
            {
              "internalType": "uint8",
              "name": "intelligenceGain",
              "type": "uint8"
            }
          ],
          "internalType": "struct GameFi.Hero",
          "name": "hero",
          "type": "tuple"
        }
      ],
      "name": "addHero",
      "outputs": [],
      "stateMutability": "nonpayable",
      "type": "function"
    },
    {
      "inputs": [],
      "name": "baseLevelUpFee",
      "outputs": [
        {
          "internalType": "uint256",
          "name": "",
          "type": "uint256"
        }
      ],
      "stateMutability": "view",
      "type": "function"
    },
    {
      "inputs": [],
      "name": "bonusLevelUpFee",
      "outputs": [
        {
          "internalType": "uint256",
          "name": "",
          "type": "uint256"
        }
      ],
      "stateMutability": "view",
      "type": "function"
    },
    {
      "inputs": [
        {
          "internalType": "uint256",
          "name": "heroId",
          "type": "uint256"
        }
      ],
      "name": "heroLevel",
      "outputs": [
        {
          "internalType": "uint8",
          "name": "",
          "type": "uint8"
        }
      ],
      "stateMutability": "view",
      "type": "function"
    },
    {
      "inputs": [],
      "name": "heroMaxLevel",
      "outputs": [
        {
          "internalType": "uint8",
          "name": "",
          "type": "uint8"
        }
      ],
      "stateMutability": "view",
      "type": "function"
    },
    {
      "inputs": [
        {
          "internalType": "uint256",
          "name": "heroId",
          "type": "uint256"
        }
      ],
      "name": "heroPower",
      "outputs": [
        {
          "internalType": "uint256",
          "name": "",
          "type": "uint256"
        }
      ],
      "stateMutability": "view",
      "type": "function"
    },
    {
      "inputs": [
        {
          "internalType": "uint256",
          "name": "heroId",
          "type": "uint256"
        }
      ],
      "name": "heroPrimaryAttribute",
      "outputs": [
        {
          "internalType": "uint8",
          "name": "",
          "type": "uint8"
        }
      ],
      "stateMutability": "view",
      "type": "function"
    },
    {
      "inputs": [
        {
          "internalType": "uint256",
          "name": "",
          "type": "uint256"
        }
      ],
      "name": "heroes",
      "outputs": [
        {
          "internalType": "uint8",
          "name": "level",
          "type": "uint8"
        },
        {
          "internalType": "uint8",
          "name": "primaryAttribute",
          "type": "uint8"
        },
        {
          "internalType": "uint8",
          "name": "strength",
          "type": "uint8"
        },
        {
          "internalType": "uint8",
          "name": "strengthGain",
          "type": "uint8"
        },
        {
          "internalType": "uint8",
          "name": "agility",
          "type": "uint8"
        },
        {
          "internalType": "uint8",
          "name": "agilityGain",
          "type": "uint8"
        },
        {
          "internalType": "uint8",
          "name": "intelligence",
          "type": "uint8"
        },
        {
          "internalType": "uint8",
          "name": "intelligenceGain",
          "type": "uint8"
        }
      ],
      "stateMutability": "view",
      "type": "function"
    },
    {
      "inputs": [
        {
          "internalType": "uint256",
          "name": "heroId",
          "type": "uint256"
        },
        {
          "internalType": "uint8",
          "name": "levels",
          "type": "uint8"
        }
      ],
      "name": "levelUp",
      "outputs": [],
      "stateMutability": "nonpayable",
      "type": "function"
    },
    {
      "inputs": [
        {
          "internalType": "bytes[]",
          "name": "data",
          "type": "bytes[]"
        }
      ],
      "name": "multicall",
      "outputs": [
        {
          "internalType": "bytes[]",
          "name": "results",
          "type": "bytes[]"
        }
      ],
      "stateMutability": "nonpayable",
      "type": "function"
    },
    {
      "inputs": [],
      "name": "nft",
      "outputs": [
        {
          "internalType": "contract IERC721",
          "name": "",
          "type": "address"
        }
      ],
      "stateMutability": "view",
      "type": "function"
    },
    {
      "inputs": [],
      "name": "owner",
      "outputs": [
        {
          "internalType": "address",
          "name": "",
          "type": "address"
        }
      ],
      "stateMutability": "view",
      "type": "function"
    },
    {
      "inputs": [],
      "name": "primaryPowerMultiplier",
      "outputs": [
        {
          "internalType": "uint256",
          "name": "",
          "type": "uint256"
        }
      ],
      "stateMutability": "view",
      "type": "function"
    },
    {
      "inputs": [
        {
          "internalType": "uint256",
          "name": "min",
          "type": "uint256"
        },
        {
          "internalType": "uint256",
          "name": "max",
          "type": "uint256"
        }
      ],
      "name": "random",
      "outputs": [
        {
          "internalType": "uint256",
          "name": "",
          "type": "uint256"
        }
      ],
      "stateMutability": "view",
      "type": "function"
    },
    {
      "inputs": [],
      "name": "renounceOwnership",
      "outputs": [],
      "stateMutability": "nonpayable",
      "type": "function"
    },
    {
      "inputs": [],
      "name": "secondaryMultiplier",
      "outputs": [
        {
          "internalType": "uint256",
          "name": "",
          "type": "uint256"
        }
      ],
      "stateMutability": "view",
      "type": "function"
    },
    {
      "inputs": [],
      "name": "thirdMultiplier",
      "outputs": [
        {
          "internalType": "uint256",
          "name": "",
          "type": "uint256"
        }
      ],
      "stateMutability": "view",
      "type": "function"
    },
    {
      "inputs": [],
      "name": "token",
      "outputs": [
        {
          "internalType": "contract IERC20",
          "name": "",
          "type": "address"
        }
      ],
      "stateMutability": "view",
      "type": "function"
    },
    {
      "inputs": [
        {
          "internalType": "address",
          "name": "newOwner",
          "type": "address"
        }
      ],
      "name": "transferOwnership",
      "outputs": [],
      "stateMutability": "nonpayable",
      "type": "function"
    }
  ],
  "bytecode": "0x6080604052690a968163f0a57b40000060035569021e19e0c9bab2400000600455601e600560006101000a81548160ff021916908360ff160217905550600a600655600860075560066008553480156200005857600080fd5b50620000796200006d6200007f60201b60201c565b6200008760201b60201c565b6200014b565b600033905090565b60008060009054906101000a900473ffffffffffffffffffffffffffffffffffffffff169050816000806101000a81548173ffffffffffffffffffffffffffffffffffffffff021916908373ffffffffffffffffffffffffffffffffffffffff1602179055508173ffffffffffffffffffffffffffffffffffffffff168173ffffffffffffffffffffffffffffffffffffffff167f8be0079c531659141344cd1fd0a4f28419497f9722a3daafe3b4186f6b6457e060405160405180910390a35050565b6126b3806200015b6000396000f3fe608060405234801561001057600080fd5b50600436106101215760003560e01c8063a8d4a03b116100ad578063d5c1ed8a11610071578063d5c1ed8a14610303578063f2fde38b14610333578063f37fe3071461034f578063f3d1b5ab1461036b578063fc0c546a1461039b57610121565b8063a8d4a03b14610230578063a9dd122514610267578063aaef012214610297578063ac9650d8146102b5578063bd94773c146102e557610121565b806323cb1c36116100f457806323cb1c36146101ae57806347ccca02146101cc578063715018a6146101ea5780638da5cb5b146101f45780639b12bc881461021257610121565b806301783dfa1461012657806306975ac2146101445780630a36d40b14610162578063125d49f614610192575b600080fd5b61012e6103b9565b60405161013b9190611376565b60405180910390f35b61014c6103bf565b6040516101599190611376565b60405180910390f35b61017c600480360381019061017791906113c7565b6103c5565b6040516101899190611410565b60405180910390f35b6101ac60048036038101906101a79190611457565b6103f2565b005b6101b6610a21565b6040516101c39190611376565b60405180910390f35b6101d4610a27565b6040516101e19190611516565b60405180910390f35b6101f2610a4d565b005b6101fc610ad5565b6040516102099190611552565b60405180910390f35b61021a610afe565b6040516102279190611376565b60405180910390f35b61024a600480360381019061024591906113c7565b610b04565b60405161025e98979695949392919061156d565b60405180910390f35b610281600480360381019061027c91906115eb565b610bb4565b60405161028e9190611376565b60405180910390f35b61029f610c1e565b6040516102ac9190611376565b60405180910390f35b6102cf60048036038101906102ca9190611690565b610c24565b6040516102dc9190611838565b60405180910390f35b6102ed610d30565b6040516102fa9190611410565b60405180910390f35b61031d600480360381019061031891906113c7565b610d43565b60405161032a9190611376565b60405180910390f35b61034d60048036038101906103489190611886565b610f2f565b005b610369600480360381019061036491906118d8565b611027565b005b610385600480360381019061038091906113c7565b6110ca565b6040516103929190611410565b60405180910390f35b6103a36110f7565b6040516103b0919061193a565b60405180910390f35b60065481565b60045481565b60006009600083815260200190815260200160002060000160009054906101000a900460ff169050919050565b3373ffffffffffffffffffffffffffffffffffffffff16600260009054906101000a900473ffffffffffffffffffffffffffffffffffffffff1673ffffffffffffffffffffffffffffffffffffffff16636352211e846040518263ffffffff1660e01b81526004016104649190611376565b60206040518083038186803b15801561047c57600080fd5b505afa158015610490573d6000803e3d6000fd5b505050506040513d601f19601f820116820180604052508101906104b4919061196a565b73ffffffffffffffffffffffffffffffffffffffff161461050a576040517f08c379a0000000000000000000000000000000000000000000000000000000008152600401610501906119f4565b60405180910390fd5b600060096000848152602001908152602001600020604051806101000160405290816000820160009054906101000a900460ff1660ff1660ff1681526020016000820160019054906101000a900460ff1660ff1660ff1681526020016000820160029054906101000a900460ff1660ff1660ff1681526020016000820160039054906101000a900460ff1660ff1660ff1681526020016000820160049054906101000a900460ff1660ff1660ff1681526020016000820160059054906101000a900460ff1660ff1660ff1681526020016000820160069054906101000a900460ff1660ff1660ff1681526020016000820160079054906101000a900460ff1660ff1660ff16815250509050600560009054906101000a900460ff1660ff16816000015160ff1610610670576040517f08c379a000000000000000000000000000000000000000000000000000000000815260040161066790611a60565b60405180910390fd5b600560009054906101000a900460ff1660ff168282600001516106939190611aaf565b60ff1611156106d7576040517f08c379a00000000000000000000000000000000000000000000000000000000081526004016106ce90611b32565b60405180910390fd5b6000600182600001516106ea9190611b52565b60ff166004546106fa9190611b86565b6003546107079190611be0565b9050600060045460028560018761071e9190611b52565b6107289190611c36565b6107329190611ca0565b60ff1661073f9190611b86565b8460ff168361074e9190611b86565b6107589190611be0565b9050600160009054906101000a900473ffffffffffffffffffffffffffffffffffffffff1673ffffffffffffffffffffffffffffffffffffffff166323b872dd3330846040518463ffffffff1660e01b81526004016107b993929190611cd1565b602060405180830381600087803b1580156107d357600080fd5b505af11580156107e7573d6000803e3d6000fd5b505050506040513d601f19601f8201168201806040525081019061080b9190611d40565b61084a576040517f08c379a000000000000000000000000000000000000000000000000000000000815260040161084190611db9565b60405180910390fd5b838360000181815161085c9190611aaf565b91509060ff16908160ff168152505083836060015161087b9190611c36565b8360400181815161088c9190611aaf565b91509060ff16908160ff1681525050838360a001516108ab9190611c36565b836080018181516108bc9190611aaf565b91509060ff16908160ff1681525050838360e001516108db9190611c36565b836040018181516108ec9190611aaf565b91509060ff16908160ff1681525050826009600087815260200190815260200160002060008201518160000160006101000a81548160ff021916908360ff16021790555060208201518160000160016101000a81548160ff021916908360ff16021790555060408201518160000160026101000a81548160ff021916908360ff16021790555060608201518160000160036101000a81548160ff021916908360ff16021790555060808201518160000160046101000a81548160ff021916908360ff16021790555060a08201518160000160056101000a81548160ff021916908360ff16021790555060c08201518160000160066101000a81548160ff021916908360ff16021790555060e08201518160000160076101000a81548160ff021916908360ff1602179055509050505050505050565b60085481565b600260009054906101000a900473ffffffffffffffffffffffffffffffffffffffff1681565b610a5561111d565b73ffffffffffffffffffffffffffffffffffffffff16610a73610ad5565b73ffffffffffffffffffffffffffffffffffffffff1614610ac9576040517f08c379a0000000000000000000000000000000000000000000000000000000008152600401610ac090611e25565b60405180910390fd5b610ad36000611125565b565b60008060009054906101000a900473ffffffffffffffffffffffffffffffffffffffff16905090565b60035481565b60096020528060005260406000206000915090508060000160009054906101000a900460ff16908060000160019054906101000a900460ff16908060000160029054906101000a900460ff16908060000160039054906101000a900460ff16908060000160049054906101000a900460ff16908060000160059054906101000a900460ff16908060000160069054906101000a900460ff16908060000160079054906101000a900460ff16905088565b600080444233604051602001610bcc93929190611eae565b6040516020818303038152906040528051906020012060001c90508360018585610bf69190611eeb565b610c009190611be0565b82610c0b9190611f1f565b610c159190611be0565b91505092915050565b60075481565b60608282905067ffffffffffffffff811115610c4357610c42611f50565b5b604051908082528060200260200182016040528015610c7657816020015b6060815260200190600190039081610c615790505b50905060005b83839050811015610d2957610cf830858584818110610c9e57610c9d611f7f565b5b9050602002810190610cb09190611fbd565b8080601f016020809104026020016040519081016040528093929190818152602001838380828437600081840152601f19601f820116905080830192505050505050506111e9565b828281518110610d0b57610d0a611f7f565b5b60200260200101819052508080610d2190612020565b915050610c7c565b5092915050565b600560009054906101000a900460ff1681565b60008060096000848152602001908152602001600020604051806101000160405290816000820160009054906101000a900460ff1660ff1660ff1681526020016000820160019054906101000a900460ff1660ff1660ff1681526020016000820160029054906101000a900460ff1660ff1660ff1681526020016000820160039054906101000a900460ff1660ff1660ff1681526020016000820160049054906101000a900460ff1660ff1660ff1681526020016000820160059054906101000a900460ff1660ff1660ff1681526020016000820160069054906101000a900460ff1660ff1660ff1681526020016000820160079054906101000a900460ff1660ff1660ff16815250509050600080600080846020015160ff161415610e8257836040015160ff1692508360c0015160ff169150836080015160ff1690505b6001846020015160ff161415610eb157836080015160ff169250836040015160ff1691508360c0015160ff1690505b6002846020015160ff161415610ee0578360c0015160ff169250836080015160ff169150836040015160ff1690505b600060085482610ef09190611b86565b60075484610efe9190611b86565b60065486610f0c9190611b86565b610f169190611be0565b610f209190611be0565b90508095505050505050919050565b610f3761111d565b73ffffffffffffffffffffffffffffffffffffffff16610f55610ad5565b73ffffffffffffffffffffffffffffffffffffffff1614610fab576040517f08c379a0000000000000000000000000000000000000000000000000000000008152600401610fa290611e25565b60405180910390fd5b600073ffffffffffffffffffffffffffffffffffffffff168173ffffffffffffffffffffffffffffffffffffffff16141561101b576040517f08c379a0000000000000000000000000000000000000000000000000000000008152600401611012906120db565b60405180910390fd5b61102481611125565b50565b61102f61111d565b73ffffffffffffffffffffffffffffffffffffffff1661104d610ad5565b73ffffffffffffffffffffffffffffffffffffffff16146110a3576040517f08c379a000000000000000000000000000000000000000000000000000000000815260040161109a90611e25565b60405180910390fd5b806009600084815260200190815260200160002081816110c391906124fd565b9050505050565b60006009600083815260200190815260200160002060000160019054906101000a900460ff169050919050565b600160009054906101000a900473ffffffffffffffffffffffffffffffffffffffff1681565b600033905090565b60008060009054906101000a900473ffffffffffffffffffffffffffffffffffffffff169050816000806101000a81548173ffffffffffffffffffffffffffffffffffffffff021916908373ffffffffffffffffffffffffffffffffffffffff1602179055508173ffffffffffffffffffffffffffffffffffffffff168173ffffffffffffffffffffffffffffffffffffffff167f8be0079c531659141344cd1fd0a4f28419497f9722a3daafe3b4186f6b6457e060405160405180910390a35050565b606061120e838360405180606001604052806027815260200161265760279139611216565b905092915050565b6060611221846112e3565b611260576040517f08c379a00000000000000000000000000000000000000000000000000000000081526004016112579061257d565b60405180910390fd5b6000808573ffffffffffffffffffffffffffffffffffffffff168560405161128891906125d9565b600060405180830381855af49150503d80600081146112c3576040519150601f19603f3d011682016040523d82523d6000602084013e6112c8565b606091505b50915091506112d88282866112f6565b925050509392505050565b600080823b905060008111915050919050565b6060831561130657829050611356565b6000835111156113195782518084602001fd5b816040517f08c379a000000000000000000000000000000000000000000000000000000000815260040161134d9190612634565b60405180910390fd5b9392505050565b6000819050919050565b6113708161135d565b82525050565b600060208201905061138b6000830184611367565b92915050565b600080fd5b600080fd5b6113a48161135d565b81146113af57600080fd5b50565b6000813590506113c18161139b565b92915050565b6000602082840312156113dd576113dc611391565b5b60006113eb848285016113b2565b91505092915050565b600060ff82169050919050565b61140a816113f4565b82525050565b60006020820190506114256000830184611401565b92915050565b611434816113f4565b811461143f57600080fd5b50565b6000813590506114518161142b565b92915050565b6000806040838503121561146e5761146d611391565b5b600061147c858286016113b2565b925050602061148d85828601611442565b9150509250929050565b600073ffffffffffffffffffffffffffffffffffffffff82169050919050565b6000819050919050565b60006114dc6114d76114d284611497565b6114b7565b611497565b9050919050565b60006114ee826114c1565b9050919050565b6000611500826114e3565b9050919050565b611510816114f5565b82525050565b600060208201905061152b6000830184611507565b92915050565b600061153c82611497565b9050919050565b61154c81611531565b82525050565b60006020820190506115676000830184611543565b92915050565b600061010082019050611583600083018b611401565b611590602083018a611401565b61159d6040830189611401565b6115aa6060830188611401565b6115b76080830187611401565b6115c460a0830186611401565b6115d160c0830185611401565b6115de60e0830184611401565b9998505050505050505050565b6000806040838503121561160257611601611391565b5b6000611610858286016113b2565b9250506020611621858286016113b2565b9150509250929050565b600080fd5b600080fd5b600080fd5b60008083601f8401126116505761164f61162b565b5b8235905067ffffffffffffffff81111561166d5761166c611630565b5b60208301915083602082028301111561168957611688611635565b5b9250929050565b600080602083850312156116a7576116a6611391565b5b600083013567ffffffffffffffff8111156116c5576116c4611396565b5b6116d18582860161163a565b92509250509250929050565b600081519050919050565b600082825260208201905092915050565b6000819050602082019050919050565b600081519050919050565b600082825260208201905092915050565b60005b83811015611743578082015181840152602081019050611728565b83811115611752576000848401525b50505050565b6000601f19601f8301169050919050565b600061177482611709565b61177e8185611714565b935061178e818560208601611725565b61179781611758565b840191505092915050565b60006117ae8383611769565b905092915050565b6000602082019050919050565b60006117ce826116dd565b6117d881856116e8565b9350836020820285016117ea856116f9565b8060005b85811015611826578484038952815161180785826117a2565b9450611812836117b6565b925060208a019950506001810190506117ee565b50829750879550505050505092915050565b6000602082019050818103600083015261185281846117c3565b905092915050565b61186381611531565b811461186e57600080fd5b50565b6000813590506118808161185a565b92915050565b60006020828403121561189c5761189b611391565b5b60006118aa84828501611871565b91505092915050565b600080fd5b600061010082840312156118cf576118ce6118b3565b5b81905092915050565b60008061012083850312156118f0576118ef611391565b5b60006118fe858286016113b2565b925050602061190f858286016118b8565b9150509250929050565b6000611924826114e3565b9050919050565b61193481611919565b82525050565b600060208201905061194f600083018461192b565b92915050565b6000815190506119648161185a565b92915050565b6000602082840312156119805761197f611391565b5b600061198e84828501611955565b91505092915050565b600082825260208201905092915050565b7f4865726f4d616e616765723a206e6f742061204e4654206f776e657200000000600082015250565b60006119de601c83611997565b91506119e9826119a8565b602082019050919050565b60006020820190508181036000830152611a0d816119d1565b9050919050565b7f4865726f4d616e616765723a206865726f206d6178206c6576656c0000000000600082015250565b6000611a4a601b83611997565b9150611a5582611a14565b602082019050919050565b60006020820190508181036000830152611a7981611a3d565b9050919050565b7f4e487b7100000000000000000000000000000000000000000000000000000000600052601160045260246000fd5b6000611aba826113f4565b9150611ac5836113f4565b92508260ff03821115611adb57611ada611a80565b5b828201905092915050565b7f4865726f4d616e616765723a20746f6f206d616e79206c6576656c7320757000600082015250565b6000611b1c601f83611997565b9150611b2782611ae6565b602082019050919050565b60006020820190508181036000830152611b4b81611b0f565b9050919050565b6000611b5d826113f4565b9150611b68836113f4565b925082821015611b7b57611b7a611a80565b5b828203905092915050565b6000611b918261135d565b9150611b9c8361135d565b9250817fffffffffffffffffffffffffffffffffffffffffffffffffffffffffffffffff0483118215151615611bd557611bd4611a80565b5b828202905092915050565b6000611beb8261135d565b9150611bf68361135d565b9250827fffffffffffffffffffffffffffffffffffffffffffffffffffffffffffffffff03821115611c2b57611c2a611a80565b5b828201905092915050565b6000611c41826113f4565b9150611c4c836113f4565b92508160ff0483118215151615611c6657611c65611a80565b5b828202905092915050565b7f4e487b7100000000000000000000000000000000000000000000000000000000600052601260045260246000fd5b6000611cab826113f4565b9150611cb6836113f4565b925082611cc657611cc5611c71565b5b828204905092915050565b6000606082019050611ce66000830186611543565b611cf36020830185611543565b611d006040830184611367565b949350505050565b60008115159050919050565b611d1d81611d08565b8114611d2857600080fd5b50565b600081519050611d3a81611d14565b92915050565b600060208284031215611d5657611d55611391565b5b6000611d6484828501611d2b565b91505092915050565b7f4865726f4d616e616765723a206e6f7420656e6f756768206665650000000000600082015250565b6000611da3601b83611997565b9150611dae82611d6d565b602082019050919050565b60006020820190508181036000830152611dd281611d96565b9050919050565b7f4f776e61626c653a2063616c6c6572206973206e6f7420746865206f776e6572600082015250565b6000611e0f602083611997565b9150611e1a82611dd9565b602082019050919050565b60006020820190508181036000830152611e3e81611e02565b9050919050565b6000819050919050565b611e60611e5b8261135d565b611e45565b82525050565b60008160601b9050919050565b6000611e7e82611e66565b9050919050565b6000611e9082611e73565b9050919050565b611ea8611ea382611531565b611e85565b82525050565b6000611eba8286611e4f565b602082019150611eca8285611e4f565b602082019150611eda8284611e97565b601482019150819050949350505050565b6000611ef68261135d565b9150611f018361135d565b925082821015611f1457611f13611a80565b5b828203905092915050565b6000611f2a8261135d565b9150611f358361135d565b925082611f4557611f44611c71565b5b828206905092915050565b7f4e487b7100000000000000000000000000000000000000000000000000000000600052604160045260246000fd5b7f4e487b7100000000000000000000000000000000000000000000000000000000600052603260045260246000fd5b600080fd5b600080fd5b600080fd5b60008083356001602003843603038112611fda57611fd9611fae565b5b80840192508235915067ffffffffffffffff821115611ffc57611ffb611fb3565b5b60208301925060018202360383131561201857612017611fb8565b5b509250929050565b600061202b8261135d565b91507fffffffffffffffffffffffffffffffffffffffffffffffffffffffffffffffff82141561205e5761205d611a80565b5b600182019050919050565b7f4f776e61626c653a206e6577206f776e657220697320746865207a65726f206160008201527f6464726573730000000000000000000000000000000000000000000000000000602082015250565b60006120c5602683611997565b91506120d082612069565b604082019050919050565b600060208201905081810360008301526120f4816120b8565b9050919050565b600081356121088161142b565b80915050919050565b60008160001b9050919050565b600060ff61212b84612111565b9350801983169250808416831791505092915050565b600061215c612157612152846113f4565b6114b7565b6113f4565b9050919050565b6000819050919050565b61217682612141565b61218961218282612163565b835461211e565b8255505050565b60008160081b9050919050565b600061ff006121ab84612190565b9350801983169250808416831791505092915050565b6121ca82612141565b6121dd6121d682612163565b835461219d565b8255505050565b60008160101b9050919050565b600062ff0000612200846121e4565b9350801983169250808416831791505092915050565b61221f82612141565b61223261222b82612163565b83546121f1565b8255505050565b60008160181b9050919050565b600063ff00000061225684612239565b9350801983169250808416831791505092915050565b61227582612141565b61228861228182612163565b8354612246565b8255505050565b60008160201b9050919050565b600064ff000000006122ad8461228f565b9350801983169250808416831791505092915050565b6122cc82612141565b6122df6122d882612163565b835461229c565b8255505050565b60008160281b9050919050565b600065ff0000000000612305846122e6565b9350801983169250808416831791505092915050565b61232482612141565b61233761233082612163565b83546122f3565b8255505050565b60008160301b9050919050565b600066ff00000000000061235e8461233e565b9350801983169250808416831791505092915050565b61237d82612141565b61239061238982612163565b835461234b565b8255505050565b60008160381b9050919050565b600067ff000000000000006123b884612397565b9350801983169250808416831791505092915050565b6123d782612141565b6123ea6123e382612163565b83546123a4565b8255505050565b600081016000830180612403816120fb565b905061240f818461216d565b505050600081016020830180612424816120fb565b905061243081846121c1565b505050600081016040830180612445816120fb565b90506124518184612216565b505050600081016060830180612466816120fb565b9050612472818461226c565b505050600081016080830180612487816120fb565b905061249381846122c3565b5050506000810160a08301806124a8816120fb565b90506124b4818461231b565b5050506000810160c08301806124c9816120fb565b90506124d58184612374565b5050506000810160e08301806124ea816120fb565b90506124f681846123ce565b5050505050565b61250782826123f1565b5050565b7f416464726573733a2064656c65676174652063616c6c20746f206e6f6e2d636f60008201527f6e74726163740000000000000000000000000000000000000000000000000000602082015250565b6000612567602683611997565b91506125728261250b565b604082019050919050565b600060208201905081810360008301526125968161255a565b9050919050565b600081905092915050565b60006125b382611709565b6125bd818561259d565b93506125cd818560208601611725565b80840191505092915050565b60006125e582846125a8565b915081905092915050565b600081519050919050565b6000612606826125f0565b6126108185611997565b9350612620818560208601611725565b61262981611758565b840191505092915050565b6000602082019050818103600083015261264e81846125fb565b90509291505056fe416464726573733a206c6f772d6c6576656c2064656c65676174652063616c6c206661696c6564a2646970667358221220ff3e61e8467ca108f3a0c3428e2ee2f139d0e7289d7526c5fa59fb06e26461b564736f6c63430008090033",
  "linkReferences": {},
  "deployedLinkReferences": {}
}