{
  "_format": "hh-sol-artifact-1",
  "contractName": "HeroManager",
  "sourceName": "contracts/game/HeroManager.sol",
  "abi": [
    {
      "inputs": [],
      "stateMutability": "nonpayable",
      "type": "constructor"
    },
    {
      "anonymous": false,
      "inputs": [
        {
          "indexed": true,
          "internalType": "address",
          "name": "previousOwner",
          "type": "address"
        },
        {
          "indexed": true,
          "internalType": "address",
          "name": "newOwner",
          "type": "address"
        }
      ],
      "name": "OwnershipTransferred",
      "type": "event"
    },
    {
      "inputs": [],
      "name": "HERO_MAX_EXP",
      "outputs": [
        {
          "internalType": "uint256",
          "name": "",
          "type": "uint256"
        }
      ],
      "stateMutability": "view",
      "type": "function"
    },
    {
      "inputs": [],
      "name": "HERO_MAX_LEVEL",
      "outputs": [
        {
          "internalType": "uint256",
          "name": "",
          "type": "uint256"
        }
      ],
      "stateMutability": "view",
      "type": "function"
    },
    {
      "inputs": [
        {
          "internalType": "uint256",
          "name": "heroId",
          "type": "uint256"
        },
        {
          "components": [
            {
              "internalType": "bytes32",
              "name": "name",
              "type": "bytes32"
            },
            {
              "internalType": "uint256",
              "name": "level",
              "type": "uint256"
            },
            {
              "internalType": "uint256",
              "name": "rarity",
              "type": "uint256"
            },
            {
              "internalType": "uint256",
              "name": "primaryAttribute",
              "type": "uint256"
            },
            {
              "internalType": "uint256",
              "name": "attackCapability",
              "type": "uint256"
            },
            {
              "internalType": "uint256",
              "name": "strength",
              "type": "uint256"
            },
            {
              "internalType": "uint256",
              "name": "strengthGain",
              "type": "uint256"
            },
            {
              "internalType": "uint256",
              "name": "agility",
              "type": "uint256"
            },
            {
              "internalType": "uint256",
              "name": "agilityGain",
              "type": "uint256"
            },
            {
              "internalType": "uint256",
              "name": "intelligence",
              "type": "uint256"
            },
            {
              "internalType": "uint256",
              "name": "intelligenceGain",
              "type": "uint256"
            },
            {
              "internalType": "uint256",
              "name": "experience",
              "type": "uint256"
            }
          ],
          "internalType": "struct GameFi.Hero",
          "name": "hero",
          "type": "tuple"
        }
      ],
      "name": "addHero",
      "outputs": [],
      "stateMutability": "nonpayable",
      "type": "function"
    },
    {
      "inputs": [],
      "name": "baseLevelUpFee",
      "outputs": [
        {
          "internalType": "uint256",
          "name": "",
          "type": "uint256"
        }
      ],
      "stateMutability": "view",
      "type": "function"
    },
    {
      "inputs": [],
      "name": "bonusExp",
      "outputs": [
        {
          "internalType": "uint256",
          "name": "",
          "type": "uint256"
        }
      ],
      "stateMutability": "view",
      "type": "function"
    },
    {
      "inputs": [],
      "name": "bonusLevelUpFee",
      "outputs": [
        {
          "internalType": "uint256",
          "name": "",
          "type": "uint256"
        }
      ],
      "stateMutability": "view",
      "type": "function"
    },
    {
      "inputs": [
        {
          "internalType": "uint256[]",
          "name": "heroIds",
          "type": "uint256[]"
        },
        {
          "internalType": "bool",
          "name": "won",
          "type": "bool"
        }
      ],
      "name": "bulkExpUp",
      "outputs": [],
      "stateMutability": "nonpayable",
      "type": "function"
    },
    {
      "inputs": [],
      "name": "expDiff",
      "outputs": [
        {
          "internalType": "uint256",
          "name": "",
          "type": "uint256"
        }
      ],
      "stateMutability": "view",
      "type": "function"
    },
    {
      "inputs": [
        {
          "internalType": "uint256",
          "name": "heroId",
          "type": "uint256"
        },
        {
          "internalType": "bool",
          "name": "won",
          "type": "bool"
        }
      ],
      "name": "expUp",
      "outputs": [],
      "stateMutability": "nonpayable",
      "type": "function"
    },
    {
      "inputs": [
        {
          "internalType": "uint256",
          "name": "heroId",
          "type": "uint256"
        }
      ],
      "name": "heroBonusExp",
      "outputs": [
        {
          "internalType": "uint256",
          "name": "",
          "type": "uint256"
        }
      ],
      "stateMutability": "view",
      "type": "function"
    },
    {
      "inputs": [
        {
          "internalType": "uint256",
          "name": "heroId",
          "type": "uint256"
        }
      ],
      "name": "heroLevel",
      "outputs": [
        {
          "internalType": "uint256",
          "name": "",
          "type": "uint256"
        }
      ],
      "stateMutability": "view",
      "type": "function"
    },
    {
      "inputs": [
        {
          "internalType": "uint256",
          "name": "heroId",
          "type": "uint256"
        }
      ],
      "name": "heroPower",
      "outputs": [
        {
          "internalType": "uint256",
          "name": "",
          "type": "uint256"
        }
      ],
      "stateMutability": "view",
      "type": "function"
    },
    {
      "inputs": [
        {
          "internalType": "uint256",
          "name": "heroId",
          "type": "uint256"
        }
      ],
      "name": "heroPrimaryAttribute",
      "outputs": [
        {
          "internalType": "uint256",
          "name": "",
          "type": "uint256"
        }
      ],
      "stateMutability": "view",
      "type": "function"
    },
    {
      "inputs": [
        {
          "internalType": "uint256",
          "name": "",
          "type": "uint256"
        }
      ],
      "name": "heroes",
      "outputs": [
        {
          "internalType": "bytes32",
          "name": "name",
          "type": "bytes32"
        },
        {
          "internalType": "uint256",
          "name": "level",
          "type": "uint256"
        },
        {
          "internalType": "uint256",
          "name": "rarity",
          "type": "uint256"
        },
        {
          "internalType": "uint256",
          "name": "primaryAttribute",
          "type": "uint256"
        },
        {
          "internalType": "uint256",
          "name": "attackCapability",
          "type": "uint256"
        },
        {
          "internalType": "uint256",
          "name": "strength",
          "type": "uint256"
        },
        {
          "internalType": "uint256",
          "name": "strengthGain",
          "type": "uint256"
        },
        {
          "internalType": "uint256",
          "name": "agility",
          "type": "uint256"
        },
        {
          "internalType": "uint256",
          "name": "agilityGain",
          "type": "uint256"
        },
        {
          "internalType": "uint256",
          "name": "intelligence",
          "type": "uint256"
        },
        {
          "internalType": "uint256",
          "name": "intelligenceGain",
          "type": "uint256"
        },
        {
          "internalType": "uint256",
          "name": "experience",
          "type": "uint256"
        }
      ],
      "stateMutability": "view",
      "type": "function"
    },
    {
      "inputs": [
        {
          "internalType": "uint256",
          "name": "heroId",
          "type": "uint256"
        },
        {
          "internalType": "uint256",
          "name": "levels",
          "type": "uint256"
        }
      ],
      "name": "levelUp",
      "outputs": [],
      "stateMutability": "nonpayable",
      "type": "function"
    },
    {
      "inputs": [],
      "name": "lobbyBattleAddress",
      "outputs": [
        {
          "internalType": "address",
          "name": "",
          "type": "address"
        }
      ],
      "stateMutability": "view",
      "type": "function"
    },
    {
      "inputs": [
        {
          "internalType": "bytes[]",
          "name": "data",
          "type": "bytes[]"
        }
      ],
      "name": "multicall",
      "outputs": [
        {
          "internalType": "bytes[]",
          "name": "results",
          "type": "bytes[]"
        }
      ],
      "stateMutability": "nonpayable",
      "type": "function"
    },
    {
      "inputs": [],
      "name": "nft",
      "outputs": [
        {
          "internalType": "contract IERC721",
          "name": "",
          "type": "address"
        }
      ],
      "stateMutability": "view",
      "type": "function"
    },
    {
      "inputs": [],
      "name": "owner",
      "outputs": [
        {
          "internalType": "address",
          "name": "",
          "type": "address"
        }
      ],
      "stateMutability": "view",
      "type": "function"
    },
    {
      "inputs": [],
      "name": "primaryPowerMultiplier",
      "outputs": [
        {
          "internalType": "uint256",
          "name": "",
          "type": "uint256"
        }
      ],
      "stateMutability": "view",
      "type": "function"
    },
    {
      "inputs": [
        {
          "internalType": "uint256",
          "name": "min",
          "type": "uint256"
        },
        {
          "internalType": "uint256",
          "name": "max",
          "type": "uint256"
        }
      ],
      "name": "random",
      "outputs": [
        {
          "internalType": "uint256",
          "name": "",
          "type": "uint256"
        }
      ],
      "stateMutability": "view",
      "type": "function"
    },
    {
      "inputs": [],
      "name": "rarityPowerBooster",
      "outputs": [
        {
          "internalType": "uint256",
          "name": "",
          "type": "uint256"
        }
      ],
      "stateMutability": "view",
      "type": "function"
    },
    {
      "inputs": [],
      "name": "renounceOwnership",
      "outputs": [],
      "stateMutability": "nonpayable",
      "type": "function"
    },
    {
      "inputs": [],
      "name": "secondaryMultiplier",
      "outputs": [
        {
          "internalType": "uint256",
          "name": "",
          "type": "uint256"
        }
      ],
      "stateMutability": "view",
      "type": "function"
    },
    {
      "inputs": [
        {
          "internalType": "uint256",
          "name": "value",
          "type": "uint256"
        }
      ],
      "name": "setBaseLevelUpFee",
      "outputs": [],
      "stateMutability": "nonpayable",
      "type": "function"
    },
    {
      "inputs": [
        {
          "internalType": "uint256",
          "name": "value",
          "type": "uint256"
        }
      ],
      "name": "setBonusExp",
      "outputs": [],
      "stateMutability": "nonpayable",
      "type": "function"
    },
    {
      "inputs": [
        {
          "internalType": "uint256",
          "name": "value",
          "type": "uint256"
        }
      ],
      "name": "setBonusLevelUpFee",
      "outputs": [],
      "stateMutability": "nonpayable",
      "type": "function"
    },
    {
      "inputs": [
        {
          "internalType": "uint256",
          "name": "value",
          "type": "uint256"
        }
      ],
      "name": "setExpDiff",
      "outputs": [],
      "stateMutability": "nonpayable",
      "type": "function"
    },
    {
      "inputs": [
        {
          "internalType": "address",
          "name": "lbAddr",
          "type": "address"
        }
      ],
      "name": "setLobbyBattle",
      "outputs": [],
      "stateMutability": "nonpayable",
      "type": "function"
    },
    {
      "inputs": [
        {
          "internalType": "address",
          "name": "nftAddress",
          "type": "address"
        }
      ],
      "name": "setNFT",
      "outputs": [],
      "stateMutability": "nonpayable",
      "type": "function"
    },
    {
      "inputs": [
        {
          "internalType": "uint256",
          "name": "value",
          "type": "uint256"
        }
      ],
      "name": "setPrimaryPowerMultiplier",
      "outputs": [],
      "stateMutability": "nonpayable",
      "type": "function"
    },
    {
      "inputs": [
        {
          "internalType": "uint256",
          "name": "value",
          "type": "uint256"
        }
      ],
      "name": "setRarityPowerBooster",
      "outputs": [],
      "stateMutability": "nonpayable",
      "type": "function"
    },
    {
      "inputs": [
        {
          "internalType": "uint256",
          "name": "value",
          "type": "uint256"
        }
      ],
      "name": "setSecondaryMultiplier",
      "outputs": [],
      "stateMutability": "nonpayable",
      "type": "function"
    },
    {
      "inputs": [
        {
          "internalType": "uint256",
          "name": "value",
          "type": "uint256"
        }
      ],
      "name": "setThirdMultiplier",
      "outputs": [],
      "stateMutability": "nonpayable",
      "type": "function"
    },
    {
      "inputs": [
        {
          "internalType": "address",
          "name": "tokenAddress",
          "type": "address"
        }
      ],
      "name": "setToken",
      "outputs": [],
      "stateMutability": "nonpayable",
      "type": "function"
    },
    {
      "inputs": [],
      "name": "thirdMultiplier",
      "outputs": [
        {
          "internalType": "uint256",
          "name": "",
          "type": "uint256"
        }
      ],
      "stateMutability": "view",
      "type": "function"
    },
    {
      "inputs": [],
      "name": "token",
      "outputs": [
        {
          "internalType": "contract IERC20",
          "name": "",
          "type": "address"
        }
      ],
      "stateMutability": "view",
      "type": "function"
    },
    {
      "inputs": [
        {
          "internalType": "address",
          "name": "newOwner",
          "type": "address"
        }
      ],
      "name": "transferOwnership",
      "outputs": [],
      "stateMutability": "nonpayable",
      "type": "function"
    },
    {
      "inputs": [
        {
          "internalType": "address payable",
          "name": "recipient",
          "type": "address"
        }
      ],
      "name": "withdrawDustETH",
      "outputs": [],
      "stateMutability": "nonpayable",
      "type": "function"
    },
    {
      "stateMutability": "payable",
      "type": "receive"
    }
  ],
  "bytecode": "0x6080604052600180546001600160a01b03199081167328ee3e2826264b9c55fcdd122dfa93680916c9b817909155600280549091167376b713ff56b9cad82b2820202537a98182b5a0ec179055690a968163f0a57b400000600490815569021e19e0c9bab2400000600555600a60068181556008600781905555606e6009556801a055690d9db800009055600b5534801561009957600080fd5b506100a3336100a8565b6100f8565b600080546001600160a01b038381166001600160a01b0319831681178455604051919092169283917f8be0079c531659141344cd1fd0a4f28419497f9722a3daafe3b4186f6b6457e09190a35050565b611d12806101076000396000f3fe6080604052600436106102345760003560e01c80638da5cb5b1161012e578063cc0f6f78116100ab578063f2fde38b1161006f578063f2fde38b14610713578063f3d1b5ab14610733578063f56e9c6614610763578063fc0c546a14610783578063fc585034146107a357600080fd5b8063cc0f6f7814610673578063d5c1ed8a14610693578063dda728cd146106b3578063e393c294146106d3578063e3a015ce146106f357600080fd5b8063aaef0122116100f2578063aaef0122146105da578063ab405145146105f0578063ac9650d814610606578063b0a04efa14610633578063b8830f9f1461065357600080fd5b80638da5cb5b146104925780639b12bc88146104b05780639bad6231146104c6578063a8d4a03b146104e6578063a9dd1225146105ba57600080fd5b80633c68e1ad116101bc5780635226dc93116101805780635226dc93146103fd5780636e7dff4d1461041d578063715018a61461043d5780637ce9dd5414610452578063852eebff1461047257600080fd5b80633c68e1ad1461035c5780634018b1ce1461037257806347ccca02146103925780634afca080146103ca5780634fbd1edc146103e757600080fd5b8063144fa6d711610203578063144fa6d7146102d15780631ec462e0146102f157806323cb1c361461031157806331a03ca21461032757806333ab05411461033c57600080fd5b806301783dfa1461024057806306975ac2146102695780630a36d40b1461027f57806313b60c51146102af57600080fd5b3661023b57005b600080fd5b34801561024c57600080fd5b5061025660065481565b6040519081526020015b60405180910390f35b34801561027557600080fd5b5061025660055481565b34801561028b57600080fd5b5061025661029a366004611726565b6000908152600c602052604090206001015490565b3480156102bb57600080fd5b506102cf6102ca366004611726565b6107c3565b005b3480156102dd57600080fd5b506102cf6102ec366004611754565b6107fb565b3480156102fd57600080fd5b506102cf61030c366004611771565b610847565b34801561031d57600080fd5b5061025660085481565b34801561033357600080fd5b50610256601e81565b34801561034857600080fd5b506102cf610357366004611726565b610965565b34801561036857600080fd5b5061025660095481565b34801561037e57600080fd5b506102cf61038d366004611754565b610994565b34801561039e57600080fd5b506002546103b2906001600160a01b031681565b6040516001600160a01b039091168152602001610260565b3480156103d657600080fd5b5061025668056bc75e2d6310000081565b3480156103f357600080fd5b50610256600b5481565b34801561040957600080fd5b506102cf6104183660046117ab565b6109e0565b34801561042957600080fd5b506102cf610438366004611726565b610dce565b34801561044957600080fd5b506102cf610dfd565b34801561045e57600080fd5b506102cf61046d366004611726565b610e33565b34801561047e57600080fd5b506102cf61048d366004611827565b610e62565b34801561049e57600080fd5b506000546001600160a01b03166103b2565b3480156104bc57600080fd5b5061025660045481565b3480156104d257600080fd5b506102cf6104e1366004611726565b610ecb565b3480156104f257600080fd5b50610561610501366004611726565b600c60205280600052604060002060009150905080600001549080600101549080600201549080600301549080600401549080600501549080600601549080600701549080600801549080600901549080600a01549080600b015490508c565b604080519c8d5260208d019b909b52998b019890985260608a0196909652608089019490945260a088019290925260c087015260e086015261010085015261012084015261014083015261016082015261018001610260565b3480156105c657600080fd5b506102566105d53660046117ab565b610efa565b3480156105e657600080fd5b5061025660075481565b3480156105fc57600080fd5b50610256600a5481565b34801561061257600080fd5b5061062661062136600461187e565b610f89565b6040516102609190611918565b34801561063f57600080fd5b506102cf61064e36600461197a565b61107e565b34801561065f57600080fd5b506102cf61066e366004611726565b61119f565b34801561067f57600080fd5b506102cf61068e366004611726565b6111ce565b34801561069f57600080fd5b506102566106ae366004611726565b6111fd565b3480156106bf57600080fd5b506102cf6106ce366004611726565b6113ed565b3480156106df57600080fd5b506102cf6106ee366004611754565b61141c565b3480156106ff57600080fd5b506003546103b2906001600160a01b031681565b34801561071f57600080fd5b506102cf61072e366004611754565b61147f565b34801561073f57600080fd5b5061025661074e366004611726565b6000908152600c602052604090206003015490565b34801561076f57600080fd5b506102cf61077e366004611754565b61151a565b34801561078f57600080fd5b506001546103b2906001600160a01b031681565b3480156107af57600080fd5b506102566107be366004611726565b611566565b6000546001600160a01b031633146107f65760405162461bcd60e51b81526004016107ed906119aa565b60405180910390fd5b600655565b6000546001600160a01b031633146108255760405162461bcd60e51b81526004016107ed906119aa565b600180546001600160a01b0319166001600160a01b0392909216919091179055565b6000546001600160a01b031633146108715760405162461bcd60e51b81526004016107ed906119aa565b6000828152600c6020526040902060010154156108d05760405162461bcd60e51b815260206004820152601f60248201527f4865726f4d616e616765723a206865726f20616c72656164792061646465640060448201526064016107ed565b6000828152600c60205260409020819061095f8282813581556020820135600182015560408201356002820155606082013560038201556080820135600482015560a0820135600582015560c0820135600682015560e0820135600782015561010082013560088201556101208201356009820155610140820135600a820155610160820135600b8201555050565b50505050565b6000546001600160a01b0316331461098f5760405162461bcd60e51b81526004016107ed906119aa565b600455565b6000546001600160a01b031633146109be5760405162461bcd60e51b81526004016107ed906119aa565b600380546001600160a01b0319166001600160a01b0392909216919091179055565b6002546040516331a9108f60e11b81526004810184905233916001600160a01b031690636352211e9060240160206040518083038186803b158015610a2457600080fd5b505afa158015610a38573d6000803e3d6000fd5b505050506040513d601f19601f82011682018060405250810190610a5c91906119df565b6001600160a01b031614610ab25760405162461bcd60e51b815260206004820152601c60248201527f4865726f4d616e616765723a206e6f742061204e4654206f776e65720000000060448201526064016107ed565b6000828152600c6020526040902060010154601e11610b135760405162461bcd60e51b815260206004820152601b60248201527f4865726f4d616e616765723a206865726f206d6178206c6576656c000000000060448201526064016107ed565b6000828152600c6020526040902060010154601e90610b33908390611a12565b1115610b815760405162461bcd60e51b815260206004820152601f60248201527f4865726f4d616e616765723a20746f6f206d616e79206c6576656c732075700060448201526064016107ed565b6000828152600c60205260408120600190810154610b9f9190611a2a565b600554610bac9190611a41565b600454610bb99190611a12565b90506000600554600284600186610bd09190611a2a565b610bda9190611a41565b610be49190611a76565b610bee9190611a41565b610bf88484611a41565b610c029190611a12565b6001546040516323b872dd60e01b8152336004820152306024820152604481018390529192506001600160a01b0316906323b872dd90606401602060405180830381600087803b158015610c5557600080fd5b505af1158015610c69573d6000803e3d6000fd5b505050506040513d601f19601f82011682018060405250810190610c8d9190611a8a565b610cd95760405162461bcd60e51b815260206004820152601b60248201527f4865726f4d616e616765723a206e6f7420656e6f75676820666565000000000060448201526064016107ed565b6000848152600c602052604081206001018054859290610cfa908490611a12565b90915550506000848152600c6020526040902060060154610d1c908490611a41565b6000858152600c602052604081206005018054909190610d3d908490611a12565b90915550506000848152600c6020526040902060080154610d5f908490611a41565b6000858152600c602052604081206007018054909190610d80908490611a12565b90915550506000848152600c60205260409020600a0154610da2908490611a41565b6000858152600c602052604081206009018054909190610dc3908490611a12565b909155505050505050565b6000546001600160a01b03163314610df85760405162461bcd60e51b81526004016107ed906119aa565b600555565b6000546001600160a01b03163314610e275760405162461bcd60e51b81526004016107ed906119aa565b610e3160006115a3565b565b6000546001600160a01b03163314610e5d5760405162461bcd60e51b81526004016107ed906119aa565b600855565b6003546001600160a01b03163314610e8c5760405162461bcd60e51b81526004016107ed90611aa7565b60005b8281101561095f57610eb9848483818110610eac57610eac611af1565b905060200201358361107e565b80610ec381611b07565b915050610e8f565b6000546001600160a01b03163314610ef55760405162461bcd60e51b81526004016107ed906119aa565b600955565b60408051446020820152429181019190915233606090811b6bffffffffffffffffffffffff1916908201526074810183905260948101829052600090819060b40160408051601f198184030181529190528051602090910120905083610f608185611a2a565b610f6b906001611a12565b610f759083611b22565b610f7f9190611a12565b9150505b92915050565b60608167ffffffffffffffff811115610fa457610fa4611b36565b604051908082528060200260200182016040528015610fd757816020015b6060815260200190600190039081610fc25790505b50905060005b828110156110775761104730858584818110610ffb57610ffb611af1565b905060200281019061100d9190611b4c565b8080601f0160208091040260200160405190810160405280939291908181526020018383808284376000920191909152506115f392505050565b82828151811061105957611059611af1565b6020026020010181905250808061106f90611b07565b915050610fdd565b5092915050565b6003546001600160a01b031633148061109657503330145b6110b25760405162461bcd60e51b81526004016107ed90611aa7565b6000816110d457600b546110c584611566565b6110cf9190611a76565b6110dd565b6110dd83611566565b6000848152600c6020526040902060010154909150601e111561119a576000838152600c60205260408120600b01805483929061111b908490611a12565b90915550506000838152600c60205260409020600b015468056bc75e2d631000001161119a576000838152600c60205260408120600b01805468056bc75e2d63100000929061116b908490611a2a565b90915550506000838152600c602052604081206001908101805491929091611194908490611a12565b90915550505b505050565b6000546001600160a01b031633146111c95760405162461bcd60e51b81526004016107ed906119aa565b600a55565b6000546001600160a01b031633146111f85760405162461bcd60e51b81526004016107ed906119aa565b600b55565b6000818152600c602090815260408083208151610180810183528154815260018201549381019390935260028101549183019190915260038101546060830181905260048201546080840152600582015460a0840152600682015460c0840152600782015460e084015260088201546101008401526009820154610120840152600a820154610140840152600b909101546101608301528290819081906112b25750505060a081015161012082015160e08301515b8360600151600114156112d35750505060e081015160a08201516101208301515b8360600151600214156112f45750505061012081015160e082015160a08301515b6000600854826113049190611a41565b6007546113119085611a41565b60065461131e9087611a41565b6113289190611a12565b6113329190611a12565b9050846040015160011415611362576064600954826113519190611a41565b61135b9190611a76565b90506113e3565b84604001516002141561138b5761271060026009546113819190611c77565b6113519083611a41565b8460400151600314156113ab57620f424060036009546113819190611c77565b8460400151600414156113e3576305f5e10060046009546113cc9190611c77565b6113d69083611a41565b6113e09190611a76565b90505b9695505050505050565b6000546001600160a01b031633146114175760405162461bcd60e51b81526004016107ed906119aa565b600755565b6000546001600160a01b031633146114465760405162461bcd60e51b81526004016107ed906119aa565b6040516001600160a01b038216904780156108fc02916000818181858888f1935050505015801561147b573d6000803e3d6000fd5b5050565b6000546001600160a01b031633146114a95760405162461bcd60e51b81526004016107ed906119aa565b6001600160a01b03811661150e5760405162461bcd60e51b815260206004820152602660248201527f4f776e61626c653a206e6577206f776e657220697320746865207a65726f206160448201526564647265737360d01b60648201526084016107ed565b611517816115a3565b50565b6000546001600160a01b031633146115445760405162461bcd60e51b81526004016107ed906119aa565b600280546001600160a01b0319166001600160a01b0392909216919091179055565b6000818152600c602052604081206001908101546115849190611a2a565b61159690670de0b6b3a7640000611a41565b600a54610f839190611a2a565b600080546001600160a01b038381166001600160a01b0319831681178455604051919092169283917f8be0079c531659141344cd1fd0a4f28419497f9722a3daafe3b4186f6b6457e09190a35050565b60606116188383604051806060016040528060278152602001611cb66027913961161f565b9392505050565b60606001600160a01b0384163b6116875760405162461bcd60e51b815260206004820152602660248201527f416464726573733a2064656c65676174652063616c6c20746f206e6f6e2d636f6044820152651b9d1c9858dd60d21b60648201526084016107ed565b600080856001600160a01b0316856040516116a29190611c86565b600060405180830381855af49150503d80600081146116dd576040519150601f19603f3d011682016040523d82523d6000602084013e6116e2565b606091505b50915091506113e3828286606083156116fc575081611618565b82511561170c5782518084602001fd5b8160405162461bcd60e51b81526004016107ed9190611ca2565b60006020828403121561173857600080fd5b5035919050565b6001600160a01b038116811461151757600080fd5b60006020828403121561176657600080fd5b81356116188161173f565b6000808284036101a081121561178657600080fd5b83359250610180601f198201121561179d57600080fd5b506020830190509250929050565b600080604083850312156117be57600080fd5b50508035926020909101359150565b60008083601f8401126117df57600080fd5b50813567ffffffffffffffff8111156117f757600080fd5b6020830191508360208260051b850101111561181257600080fd5b9250929050565b801515811461151757600080fd5b60008060006040848603121561183c57600080fd5b833567ffffffffffffffff81111561185357600080fd5b61185f868287016117cd565b909450925050602084013561187381611819565b809150509250925092565b6000806020838503121561189157600080fd5b823567ffffffffffffffff8111156118a857600080fd5b6118b4858286016117cd565b90969095509350505050565b60005b838110156118db5781810151838201526020016118c3565b8381111561095f5750506000910152565b600081518084526119048160208601602086016118c0565b601f01601f19169290920160200192915050565b6000602080830181845280855180835260408601915060408160051b870101925083870160005b8281101561196d57603f1988860301845261195b8583516118ec565b9450928501929085019060010161193f565b5092979650505050505050565b6000806040838503121561198d57600080fd5b82359150602083013561199f81611819565b809150509250929050565b6020808252818101527f4f776e61626c653a2063616c6c6572206973206e6f7420746865206f776e6572604082015260600190565b6000602082840312156119f157600080fd5b81516116188161173f565b634e487b7160e01b600052601160045260246000fd5b60008219821115611a2557611a256119fc565b500190565b600082821015611a3c57611a3c6119fc565b500390565b6000816000190483118215151615611a5b57611a5b6119fc565b500290565b634e487b7160e01b600052601260045260246000fd5b600082611a8557611a85611a60565b500490565b600060208284031215611a9c57600080fd5b815161161881611819565b6020808252602a908201527f4865726f4d616e616765723a2063616c6c61626c65206279206c6f62627920626040820152696174746c65206f6e6c7960b01b606082015260800190565b634e487b7160e01b600052603260045260246000fd5b6000600019821415611b1b57611b1b6119fc565b5060010190565b600082611b3157611b31611a60565b500690565b634e487b7160e01b600052604160045260246000fd5b6000808335601e19843603018112611b6357600080fd5b83018035915067ffffffffffffffff821115611b7e57600080fd5b60200191503681900382131561181257600080fd5b600181815b80851115611bce578160001904821115611bb457611bb46119fc565b80851615611bc157918102915b93841c9390800290611b98565b509250929050565b600082611be557506001610f83565b81611bf257506000610f83565b8160018114611c085760028114611c1257611c2e565b6001915050610f83565b60ff841115611c2357611c236119fc565b50506001821b610f83565b5060208310610133831016604e8410600b8410161715611c51575081810a610f83565b611c5b8383611b93565b8060001904821115611c6f57611c6f6119fc565b029392505050565b600061161860ff841683611bd6565b60008251611c988184602087016118c0565b9190910192915050565b60208152600061161860208301846118ec56fe416464726573733a206c6f772d6c6576656c2064656c65676174652063616c6c206661696c6564a26469706673582212207451f46ca541a4550a7e54a7275c31e49228e58247800740dd3944947f73f9a364736f6c63430008090033",
  "linkReferences": {},
  "deployedLinkReferences": {}
}