{
  "_format": "hh-sol-artifact-1",
  "contractName": "HeroManager",
  "sourceName": "contracts/game/HeroManager.sol",
  "abi": [
    {
      "inputs": [],
      "stateMutability": "nonpayable",
      "type": "constructor"
    },
    {
      "anonymous": false,
      "inputs": [
        {
          "indexed": true,
          "internalType": "address",
          "name": "previousOwner",
          "type": "address"
        },
        {
          "indexed": true,
          "internalType": "address",
          "name": "newOwner",
          "type": "address"
        }
      ],
      "name": "OwnershipTransferred",
      "type": "event"
    },
    {
      "inputs": [],
      "name": "HERO_MAX_LEVEL",
      "outputs": [
        {
          "internalType": "uint256",
          "name": "",
          "type": "uint256"
        }
      ],
      "stateMutability": "view",
      "type": "function"
    },
    {
      "inputs": [
        {
          "internalType": "uint256",
          "name": "heroId",
          "type": "uint256"
        },
        {
          "components": [
            {
              "internalType": "uint256",
              "name": "level",
              "type": "uint256"
            },
            {
              "internalType": "uint256",
              "name": "rarity",
              "type": "uint256"
            },
            {
              "internalType": "uint256",
              "name": "primaryAttribute",
              "type": "uint256"
            },
            {
              "internalType": "uint256",
              "name": "strength",
              "type": "uint256"
            },
            {
              "internalType": "uint256",
              "name": "strengthGain",
              "type": "uint256"
            },
            {
              "internalType": "uint256",
              "name": "agility",
              "type": "uint256"
            },
            {
              "internalType": "uint256",
              "name": "agilityGain",
              "type": "uint256"
            },
            {
              "internalType": "uint256",
              "name": "intelligence",
              "type": "uint256"
            },
            {
              "internalType": "uint256",
              "name": "intelligenceGain",
              "type": "uint256"
            },
            {
              "internalType": "uint256",
              "name": "experience",
              "type": "uint256"
            }
          ],
          "internalType": "struct GameFi.Hero",
          "name": "hero",
          "type": "tuple"
        }
      ],
      "name": "addHero",
      "outputs": [],
      "stateMutability": "nonpayable",
      "type": "function"
    },
    {
      "inputs": [],
      "name": "baseLevelUpFee",
      "outputs": [
        {
          "internalType": "uint256",
          "name": "",
          "type": "uint256"
        }
      ],
      "stateMutability": "view",
      "type": "function"
    },
    {
      "inputs": [],
      "name": "bonusExp",
      "outputs": [
        {
          "internalType": "uint256",
          "name": "",
          "type": "uint256"
        }
      ],
      "stateMutability": "view",
      "type": "function"
    },
    {
      "inputs": [],
      "name": "bonusLevelUpFee",
      "outputs": [
        {
          "internalType": "uint256",
          "name": "",
          "type": "uint256"
        }
      ],
      "stateMutability": "view",
      "type": "function"
    },
    {
      "inputs": [
        {
          "internalType": "uint256[]",
          "name": "heroIds",
          "type": "uint256[]"
        }
      ],
      "name": "bulkExpDown",
      "outputs": [],
      "stateMutability": "nonpayable",
      "type": "function"
    },
    {
      "inputs": [
        {
          "internalType": "uint256[]",
          "name": "heroIds",
          "type": "uint256[]"
        }
      ],
      "name": "bulkExpUp",
      "outputs": [],
      "stateMutability": "nonpayable",
      "type": "function"
    },
    {
      "inputs": [
        {
          "internalType": "uint256",
          "name": "heroId",
          "type": "uint256"
        }
      ],
      "name": "expDown",
      "outputs": [],
      "stateMutability": "nonpayable",
      "type": "function"
    },
    {
      "inputs": [
        {
          "internalType": "uint256",
          "name": "heroId",
          "type": "uint256"
        }
      ],
      "name": "expUp",
      "outputs": [],
      "stateMutability": "nonpayable",
      "type": "function"
    },
    {
      "inputs": [
        {
          "internalType": "uint256",
          "name": "heroId",
          "type": "uint256"
        }
      ],
      "name": "heroBonusExp",
      "outputs": [
        {
          "internalType": "uint256",
          "name": "",
          "type": "uint256"
        }
      ],
      "stateMutability": "view",
      "type": "function"
    },
    {
      "inputs": [
        {
          "internalType": "uint256",
          "name": "heroId",
          "type": "uint256"
        }
      ],
      "name": "heroLevel",
      "outputs": [
        {
          "internalType": "uint256",
          "name": "",
          "type": "uint256"
        }
      ],
      "stateMutability": "view",
      "type": "function"
    },
    {
      "inputs": [
        {
          "internalType": "uint256",
          "name": "heroId",
          "type": "uint256"
        }
      ],
      "name": "heroPower",
      "outputs": [
        {
          "internalType": "uint256",
          "name": "",
          "type": "uint256"
        }
      ],
      "stateMutability": "view",
      "type": "function"
    },
    {
      "inputs": [
        {
          "internalType": "uint256",
          "name": "heroId",
          "type": "uint256"
        }
      ],
      "name": "heroPrimaryAttribute",
      "outputs": [
        {
          "internalType": "uint256",
          "name": "",
          "type": "uint256"
        }
      ],
      "stateMutability": "view",
      "type": "function"
    },
    {
      "inputs": [
        {
          "internalType": "uint256",
          "name": "",
          "type": "uint256"
        }
      ],
      "name": "heroes",
      "outputs": [
        {
          "internalType": "uint256",
          "name": "level",
          "type": "uint256"
        },
        {
          "internalType": "uint256",
          "name": "rarity",
          "type": "uint256"
        },
        {
          "internalType": "uint256",
          "name": "primaryAttribute",
          "type": "uint256"
        },
        {
          "internalType": "uint256",
          "name": "strength",
          "type": "uint256"
        },
        {
          "internalType": "uint256",
          "name": "strengthGain",
          "type": "uint256"
        },
        {
          "internalType": "uint256",
          "name": "agility",
          "type": "uint256"
        },
        {
          "internalType": "uint256",
          "name": "agilityGain",
          "type": "uint256"
        },
        {
          "internalType": "uint256",
          "name": "intelligence",
          "type": "uint256"
        },
        {
          "internalType": "uint256",
          "name": "intelligenceGain",
          "type": "uint256"
        },
        {
          "internalType": "uint256",
          "name": "experience",
          "type": "uint256"
        }
      ],
      "stateMutability": "view",
      "type": "function"
    },
    {
      "inputs": [
        {
          "internalType": "uint256",
          "name": "heroId",
          "type": "uint256"
        },
        {
          "internalType": "uint256",
          "name": "levels",
          "type": "uint256"
        }
      ],
      "name": "levelUp",
      "outputs": [],
      "stateMutability": "nonpayable",
      "type": "function"
    },
    {
      "inputs": [],
      "name": "lobbyBattleAddress",
      "outputs": [
        {
          "internalType": "address",
          "name": "",
          "type": "address"
        }
      ],
      "stateMutability": "view",
      "type": "function"
    },
    {
      "inputs": [
        {
          "internalType": "bytes[]",
          "name": "data",
          "type": "bytes[]"
        }
      ],
      "name": "multicall",
      "outputs": [
        {
          "internalType": "bytes[]",
          "name": "results",
          "type": "bytes[]"
        }
      ],
      "stateMutability": "nonpayable",
      "type": "function"
    },
    {
      "inputs": [],
      "name": "nft",
      "outputs": [
        {
          "internalType": "contract IERC721",
          "name": "",
          "type": "address"
        }
      ],
      "stateMutability": "view",
      "type": "function"
    },
    {
      "inputs": [],
      "name": "owner",
      "outputs": [
        {
          "internalType": "address",
          "name": "",
          "type": "address"
        }
      ],
      "stateMutability": "view",
      "type": "function"
    },
    {
      "inputs": [],
      "name": "primaryPowerMultiplier",
      "outputs": [
        {
          "internalType": "uint256",
          "name": "",
          "type": "uint256"
        }
      ],
      "stateMutability": "view",
      "type": "function"
    },
    {
      "inputs": [
        {
          "internalType": "uint256",
          "name": "min",
          "type": "uint256"
        },
        {
          "internalType": "uint256",
          "name": "max",
          "type": "uint256"
        }
      ],
      "name": "random",
      "outputs": [
        {
          "internalType": "uint256",
          "name": "",
          "type": "uint256"
        }
      ],
      "stateMutability": "view",
      "type": "function"
    },
    {
      "inputs": [],
      "name": "rarityPowerBooster",
      "outputs": [
        {
          "internalType": "uint256",
          "name": "",
          "type": "uint256"
        }
      ],
      "stateMutability": "view",
      "type": "function"
    },
    {
      "inputs": [],
      "name": "renounceOwnership",
      "outputs": [],
      "stateMutability": "nonpayable",
      "type": "function"
    },
    {
      "inputs": [],
      "name": "secondaryMultiplier",
      "outputs": [
        {
          "internalType": "uint256",
          "name": "",
          "type": "uint256"
        }
      ],
      "stateMutability": "view",
      "type": "function"
    },
    {
      "inputs": [
        {
          "internalType": "uint256",
          "name": "value",
          "type": "uint256"
        }
      ],
      "name": "setBaseLevelUpFee",
      "outputs": [],
      "stateMutability": "nonpayable",
      "type": "function"
    },
    {
      "inputs": [
        {
          "internalType": "uint256",
          "name": "value",
          "type": "uint256"
        }
      ],
      "name": "setBonusExp",
      "outputs": [],
      "stateMutability": "nonpayable",
      "type": "function"
    },
    {
      "inputs": [
        {
          "internalType": "uint256",
          "name": "value",
          "type": "uint256"
        }
      ],
      "name": "setBonusLevelUpFee",
      "outputs": [],
      "stateMutability": "nonpayable",
      "type": "function"
    },
    {
      "inputs": [
        {
          "internalType": "address",
          "name": "lbAddr",
          "type": "address"
        }
      ],
      "name": "setLobbyBattle",
      "outputs": [],
      "stateMutability": "nonpayable",
      "type": "function"
    },
    {
      "inputs": [
        {
          "internalType": "address",
          "name": "nftAddress",
          "type": "address"
        }
      ],
      "name": "setNFT",
      "outputs": [],
      "stateMutability": "nonpayable",
      "type": "function"
    },
    {
      "inputs": [
        {
          "internalType": "uint256",
          "name": "value",
          "type": "uint256"
        }
      ],
      "name": "setPrimaryPowerMultiplier",
      "outputs": [],
      "stateMutability": "nonpayable",
      "type": "function"
    },
    {
      "inputs": [
        {
          "internalType": "uint256",
          "name": "value",
          "type": "uint256"
        }
      ],
      "name": "setRarityPowerBooster",
      "outputs": [],
      "stateMutability": "nonpayable",
      "type": "function"
    },
    {
      "inputs": [
        {
          "internalType": "uint256",
          "name": "value",
          "type": "uint256"
        }
      ],
      "name": "setSecondaryMultiplier",
      "outputs": [],
      "stateMutability": "nonpayable",
      "type": "function"
    },
    {
      "inputs": [
        {
          "internalType": "uint256",
          "name": "value",
          "type": "uint256"
        }
      ],
      "name": "setThirdMultiplier",
      "outputs": [],
      "stateMutability": "nonpayable",
      "type": "function"
    },
    {
      "inputs": [
        {
          "internalType": "address",
          "name": "tokenAddress",
          "type": "address"
        }
      ],
      "name": "setToken",
      "outputs": [],
      "stateMutability": "nonpayable",
      "type": "function"
    },
    {
      "inputs": [],
      "name": "thirdMultiplier",
      "outputs": [
        {
          "internalType": "uint256",
          "name": "",
          "type": "uint256"
        }
      ],
      "stateMutability": "view",
      "type": "function"
    },
    {
      "inputs": [],
      "name": "token",
      "outputs": [
        {
          "internalType": "contract IERC20",
          "name": "",
          "type": "address"
        }
      ],
      "stateMutability": "view",
      "type": "function"
    },
    {
      "inputs": [
        {
          "internalType": "address",
          "name": "newOwner",
          "type": "address"
        }
      ],
      "name": "transferOwnership",
      "outputs": [],
      "stateMutability": "nonpayable",
      "type": "function"
    },
    {
      "inputs": [
        {
          "internalType": "address payable",
          "name": "recipient",
          "type": "address"
        }
      ],
      "name": "withdrawDustETH",
      "outputs": [],
      "stateMutability": "nonpayable",
      "type": "function"
    },
    {
      "stateMutability": "payable",
      "type": "receive"
    }
  ],
  "bytecode": "0x6080604052690a968163f0a57b40000060045569021e19e0c9bab2400000600555600a60065560086007556006600855601e600955606e600a5534801561004557600080fd5b5061004f33610054565b6100a4565b600080546001600160a01b038381166001600160a01b0319831681178455604051919092169283917f8be0079c531659141344cd1fd0a4f28419497f9722a3daafe3b4186f6b6457e09190a35050565b611cad806100b36000396000f3fe6080604052600436106102295760003560e01c80638ff1e98e11610123578063cd8401a8116100ab578063f2fde38b1161006f578063f2fde38b146106d7578063f3d1b5ab146106f7578063f56e9c6614610727578063fc0c546a14610747578063fc5850341461076757600080fd5b8063cd8401a814610637578063d5c1ed8a14610657578063dda728cd14610677578063e393c29414610697578063e3a015ce146106b757600080fd5b8063a9dd1225116100f2578063a9dd12251461059e578063aaef0122146105be578063ab405145146105d4578063ac9650d8146105ea578063b8830f9f1461061757600080fd5b80638ff1e98e1461048f5780639b12bc88146104af5780639bad6231146104c5578063a8d4a03b146104e557600080fd5b80633c68e1ad116101b157806357c773f11161017557806357c773f1146103fc5780636e7dff4d1461041c578063715018a61461043c5780637ce9dd54146104515780638da5cb5b1461047157600080fd5b80633c68e1ad1461034e5780634018b1ce1461036457806347ccca02146103845780634d70f87a146103bc5780635226dc93146103dc57600080fd5b8063144fa6d7116101f8578063144fa6d7146102c35780631d0a51c2146102e357806323cb1c361461030357806331a03ca21461031957806333ab05411461032e57600080fd5b806301783dfa1461023557806306975ac21461025e5780630a36d40b1461027457806313b60c51146102a157600080fd5b3661023057005b600080fd5b34801561024157600080fd5b5061024b60065481565b6040519081526020015b60405180910390f35b34801561026a57600080fd5b5061024b60055481565b34801561028057600080fd5b5061024b61028f366004611751565b6000908152600b602052604090205490565b3480156102ad57600080fd5b506102c16102bc366004611751565b610787565b005b3480156102cf57600080fd5b506102c16102de36600461177f565b6107bf565b3480156102ef57600080fd5b506102c16102fe36600461179c565b61080b565b34801561030f57600080fd5b5061024b60085481565b34801561032557600080fd5b5061024b601e81565b34801561033a57600080fd5b506102c1610349366004611751565b6108b4565b34801561035a57600080fd5b5061024b600a5481565b34801561037057600080fd5b506102c161037f36600461177f565b6108e3565b34801561039057600080fd5b506002546103a4906001600160a01b031681565b6040516001600160a01b039091168152602001610255565b3480156103c857600080fd5b506102c16103d7366004611751565b61092f565b3480156103e857600080fd5b506102c16103f73660046117d6565b6109f3565b34801561040857600080fd5b506102c1610417366004611751565b610e36565b34801561042857600080fd5b506102c1610437366004611751565b610f18565b34801561044857600080fd5b506102c1610f47565b34801561045d57600080fd5b506102c161046c366004611751565b610f7d565b34801561047d57600080fd5b506000546001600160a01b03166103a4565b34801561049b57600080fd5b506102c16104aa366004611844565b610fac565b3480156104bb57600080fd5b5061024b60045481565b3480156104d157600080fd5b506102c16104e0366004611751565b611019565b3480156104f157600080fd5b50610554610500366004611751565b600b602052806000526040600020600091509050806000015490806001015490806002015490806003015490806004015490806005015490806006015490806007015490806008015490806009015490508a565b604080519a8b5260208b0199909952978901969096526060880194909452608087019290925260a086015260c085015260e084015261010083015261012082015261014001610255565b3480156105aa57600080fd5b5061024b6105b93660046117d6565b611048565b3480156105ca57600080fd5b5061024b60075481565b3480156105e057600080fd5b5061024b60095481565b3480156105f657600080fd5b5061060a610605366004611844565b6110d7565b60405161025591906118de565b34801561062357600080fd5b506102c1610632366004611751565b6111cc565b34801561064357600080fd5b506102c1610652366004611844565b6111fb565b34801561066357600080fd5b5061024b610672366004611751565b611263565b34801561068357600080fd5b506102c1610692366004611751565b611435565b3480156106a357600080fd5b506102c16106b236600461177f565b611464565b3480156106c357600080fd5b506003546103a4906001600160a01b031681565b3480156106e357600080fd5b506102c16106f236600461177f565b6114c3565b34801561070357600080fd5b5061024b610712366004611751565b6000908152600b602052604090206002015490565b34801561073357600080fd5b506102c161074236600461177f565b61155b565b34801561075357600080fd5b506001546103a4906001600160a01b031681565b34801561077357600080fd5b5061024b610782366004611751565b6115a7565b6000546001600160a01b031633146107ba5760405162461bcd60e51b81526004016107b190611940565b60405180910390fd5b600655565b6000546001600160a01b031633146107e95760405162461bcd60e51b81526004016107b190611940565b600180546001600160a01b0319166001600160a01b0392909216919091179055565b6000546001600160a01b031633146108355760405162461bcd60e51b81526004016107b190611940565b6000828152600b6020526040902081906108ae8282813581556020820135600182015560408201356002820155606082013560038201556080820135600482015560a0820135600582015560c0820135600682015560e08201356007820155610100820135600882015561012082013560098201555050565b50505050565b6000546001600160a01b031633146108de5760405162461bcd60e51b81526004016107b190611940565b600455565b6000546001600160a01b0316331461090d5760405162461bcd60e51b81526004016107b190611940565b600380546001600160a01b0319166001600160a01b0392909216919091179055565b6003546001600160a01b031633148061094757503330145b6109635760405162461bcd60e51b81526004016107b190611975565b6000818152600b60205260409020546001108061099057506000818152600b602052604090206009015415155b156109f057600060026109a2836115a7565b6109ac91906119eb565b905080600b600084815260200190815260200160002060090160008282546109d491906119ff565b90915550506000829052600b6020526109ee565b90915550505b505b50565b6002546040516331a9108f60e11b81526004810184905233916001600160a01b031690636352211e9060240160206040518083038186803b158015610a3757600080fd5b505afa158015610a4b573d6000803e3d6000fd5b505050506040513d601f19601f82011682018060405250810190610a6f9190611a2e565b6001600160a01b031614610ac55760405162461bcd60e51b815260206004820152601c60248201527f4865726f4d616e616765723a206e6f742061204e4654206f776e65720000000060448201526064016107b1565b6000828152600b602090815260409182902082516101408101845281548082526001830154938201939093526002820154938101939093526003810154606084015260048101546080840152600581015460a0840152600681015460c0840152600781015460e0840152600881015461010084015260090154610120830152601e11610b935760405162461bcd60e51b815260206004820152601b60248201527f4865726f4d616e616765723a206865726f206d6178206c6576656c000000000060448201526064016107b1565b8051601e90610ba3908490611a16565b1115610bf15760405162461bcd60e51b815260206004820152601f60248201527f4865726f4d616e616765723a20746f6f206d616e79206c6576656c732075700060448201526064016107b1565b8051600090610c02906001906119ff565b600554610c0f9190611a4b565b600454610c1c9190611a16565b90506000600554600285600187610c3391906119ff565b610c3d9190611a4b565b610c4791906119eb565b610c519190611a4b565b610c5b8584611a4b565b610c659190611a16565b6001546040516323b872dd60e01b8152336004820152306024820152604481018390529192506001600160a01b0316906323b872dd90606401602060405180830381600087803b158015610cb857600080fd5b505af1158015610ccc573d6000803e3d6000fd5b505050506040513d601f19601f82011682018060405250810190610cf09190611a6a565b610d3c5760405162461bcd60e51b815260206004820152601b60248201527f4865726f4d616e616765723a206e6f7420656e6f75676820666565000000000060448201526064016107b1565b8383600001818151610d4e9190611a16565b9052506080830151610d61908590611a4b565b83606001818151610d729190611a16565b90525060c0830151610d85908590611a4b565b8360a001818151610d969190611a16565b905250610100830151610daa908590611a4b565b83606001818151610dbb9190611a16565b90525050506000928352600b602090815260409384902082518155908201516001820155928101516002840155606081015160038401556080810151600484015560a0810151600584015560c0810151600684015560e081015160078401556101008101516008840155610120015160099092019190915550565b6003546001600160a01b0316331480610e4e57503330145b610e6a5760405162461bcd60e51b81526004016107b190611975565b6000818152600b6020526040902054601e11156109f0576000610e8c826115a7565b905080600b60008481526020019081526020016000206009016000828254610eb49190611a16565b90915550506000828152600b60205260409020600901546064116109ee576000828152600b60205260408120600901805460649290610ef49084906119ff565b90915550506000828152600b602052604081208054600192906109e8908490611a16565b6000546001600160a01b03163314610f425760405162461bcd60e51b81526004016107b190611940565b600555565b6000546001600160a01b03163314610f715760405162461bcd60e51b81526004016107b190611940565b610f7b60006115ce565b565b6000546001600160a01b03163314610fa75760405162461bcd60e51b81526004016107b190611940565b600855565b6003546001600160a01b03163314610fd65760405162461bcd60e51b81526004016107b190611975565b60005b8181101561101457611002838383818110610ff657610ff6611a8c565b9050602002013561092f565b8061100c81611aa2565b915050610fd9565b505050565b6000546001600160a01b031633146110435760405162461bcd60e51b81526004016107b190611940565b600a55565b60408051446020820152429181019190915233606090811b6bffffffffffffffffffffffff1916908201526074810183905260948101829052600090819060b40160408051601f1981840301815291905280516020909101209050836110ae81856119ff565b6110b9906001611a16565b6110c39083611abd565b6110cd9190611a16565b9150505b92915050565b60608167ffffffffffffffff8111156110f2576110f2611ad1565b60405190808252806020026020018201604052801561112557816020015b60608152602001906001900390816111105790505b50905060005b828110156111c5576111953085858481811061114957611149611a8c565b905060200281019061115b9190611ae7565b8080601f01602080910402602001604051908101604052809392919081815260200183838082843760009201919091525061161e92505050565b8282815181106111a7576111a7611a8c565b602002602001018190525080806111bd90611aa2565b91505061112b565b5092915050565b6000546001600160a01b031633146111f65760405162461bcd60e51b81526004016107b190611940565b600955565b6003546001600160a01b031633146112255760405162461bcd60e51b81526004016107b190611975565b60005b818110156110145761125183838381811061124557611245611a8c565b90506020020135610e36565b8061125b81611aa2565b915050611228565b6000818152600b602090815260408083208151610140810183528154815260018201549381019390935260028101549183018290526003810154606084015260048101546080840152600581015460a0840152600681015460c0840152600781015460e08401526008810154610100840152600901546101208301528290819081906112fc57505050606081015160e082015160a08301515b83604001516001141561131c5750505060a0810151606082015160e08301515b83604001516002141561133c5750505060e081015160a082015160608301515b60006008548261134c9190611a4b565b6007546113599085611a4b565b6006546113669087611a4b565b6113709190611a16565b61137a9190611a16565b90508460200151600114156113aa576064600a54826113999190611a4b565b6113a391906119eb565b905061142b565b8460200151600214156113d3576127106002600a546113c99190611c12565b6113999083611a4b565b8460200151600314156113f357620f42406003600a546113c99190611c12565b84602001516004141561142b576305f5e1006004600a546114149190611c12565b61141e9083611a4b565b61142891906119eb565b90505b9695505050505050565b6000546001600160a01b0316331461145f5760405162461bcd60e51b81526004016107b190611940565b600755565b6000546001600160a01b0316331461148e5760405162461bcd60e51b81526004016107b190611940565b6040516001600160a01b038216904780156108fc02916000818181858888f193505050501580156109ee573d6000803e3d6000fd5b6000546001600160a01b031633146114ed5760405162461bcd60e51b81526004016107b190611940565b6001600160a01b0381166115525760405162461bcd60e51b815260206004820152602660248201527f4f776e61626c653a206e6577206f776e657220697320746865207a65726f206160448201526564647265737360d01b60648201526084016107b1565b6109f0816115ce565b6000546001600160a01b031633146115855760405162461bcd60e51b81526004016107b190611940565b600280546001600160a01b0319166001600160a01b0392909216919091179055565b6000818152600b60205260408120546009546115c391906119ff565b6110d1906001611a16565b600080546001600160a01b038381166001600160a01b0319831681178455604051919092169283917f8be0079c531659141344cd1fd0a4f28419497f9722a3daafe3b4186f6b6457e09190a35050565b60606116438383604051806060016040528060278152602001611c516027913961164a565b9392505050565b60606001600160a01b0384163b6116b25760405162461bcd60e51b815260206004820152602660248201527f416464726573733a2064656c65676174652063616c6c20746f206e6f6e2d636f6044820152651b9d1c9858dd60d21b60648201526084016107b1565b600080856001600160a01b0316856040516116cd9190611c21565b600060405180830381855af49150503d8060008114611708576040519150601f19603f3d011682016040523d82523d6000602084013e61170d565b606091505b509150915061142b82828660608315611727575081611643565b8251156117375782518084602001fd5b8160405162461bcd60e51b81526004016107b19190611c3d565b60006020828403121561176357600080fd5b5035919050565b6001600160a01b03811681146109f057600080fd5b60006020828403121561179157600080fd5b81356116438161176a565b6000808284036101608112156117b157600080fd5b83359250610140601f19820112156117c857600080fd5b506020830190509250929050565b600080604083850312156117e957600080fd5b50508035926020909101359150565b60008083601f84011261180a57600080fd5b50813567ffffffffffffffff81111561182257600080fd5b6020830191508360208260051b850101111561183d57600080fd5b9250929050565b6000806020838503121561185757600080fd5b823567ffffffffffffffff81111561186e57600080fd5b61187a858286016117f8565b90969095509350505050565b60005b838110156118a1578181015183820152602001611889565b838111156108ae5750506000910152565b600081518084526118ca816020860160208601611886565b601f01601f19169290920160200192915050565b6000602080830181845280855180835260408601915060408160051b870101925083870160005b8281101561193357603f198886030184526119218583516118b2565b94509285019290850190600101611905565b5092979650505050505050565b6020808252818101527f4f776e61626c653a2063616c6c6572206973206e6f7420746865206f776e6572604082015260600190565b6020808252602a908201527f4865726f4d616e616765723a2063616c6c61626c65206279206c6f62627920626040820152696174746c65206f6e6c7960b01b606082015260800190565b634e487b7160e01b600052601260045260246000fd5b634e487b7160e01b600052601160045260246000fd5b6000826119fa576119fa6119bf565b500490565b600082821015611a1157611a116119d5565b500390565b60008219821115611a2957611a296119d5565b500190565b600060208284031215611a4057600080fd5b81516116438161176a565b6000816000190483118215151615611a6557611a656119d5565b500290565b600060208284031215611a7c57600080fd5b8151801515811461164357600080fd5b634e487b7160e01b600052603260045260246000fd5b6000600019821415611ab657611ab66119d5565b5060010190565b600082611acc57611acc6119bf565b500690565b634e487b7160e01b600052604160045260246000fd5b6000808335601e19843603018112611afe57600080fd5b83018035915067ffffffffffffffff821115611b1957600080fd5b60200191503681900382131561183d57600080fd5b600181815b80851115611b69578160001904821115611b4f57611b4f6119d5565b80851615611b5c57918102915b93841c9390800290611b33565b509250929050565b600082611b80575060016110d1565b81611b8d575060006110d1565b8160018114611ba35760028114611bad57611bc9565b60019150506110d1565b60ff841115611bbe57611bbe6119d5565b50506001821b6110d1565b5060208310610133831016604e8410600b8410161715611bec575081810a6110d1565b611bf68383611b2e565b8060001904821115611c0a57611c0a6119d5565b029392505050565b600061164360ff841683611b71565b60008251611c33818460208701611886565b9190910192915050565b60208152600061164360208301846118b256fe416464726573733a206c6f772d6c6576656c2064656c65676174652063616c6c206661696c6564a264697066735822122062e57596f8ecf99507f7777c1e112bf8db730a9c0ccef8bff7312a53f85884e864736f6c63430008090033",
  "linkReferences": {},
  "deployedLinkReferences": {}
}