{
  "_format": "hh-sol-artifact-1",
  "contractName": "HeroInfinityNodePoolV2",
  "sourceName": "contracts/HeroInfinityNodePoolV2.sol",
  "abi": [
    {
      "inputs": [],
      "stateMutability": "nonpayable",
      "type": "constructor"
    },
    {
      "anonymous": false,
      "inputs": [
        {
          "indexed": true,
          "internalType": "address",
          "name": "previousOwner",
          "type": "address"
        },
        {
          "indexed": true,
          "internalType": "address",
          "name": "newOwner",
          "type": "address"
        }
      ],
      "name": "OwnershipTransferred",
      "type": "event"
    },
    {
      "inputs": [],
      "name": "claimAllNodesReward",
      "outputs": [],
      "stateMutability": "nonpayable",
      "type": "function"
    },
    {
      "inputs": [
        {
          "internalType": "uint256",
          "name": "_creationTime",
          "type": "uint256"
        }
      ],
      "name": "claimNodeReward",
      "outputs": [],
      "stateMutability": "nonpayable",
      "type": "function"
    },
    {
      "inputs": [
        {
          "internalType": "string",
          "name": "nodeName",
          "type": "string"
        },
        {
          "internalType": "uint256",
          "name": "count",
          "type": "uint256"
        }
      ],
      "name": "createNode",
      "outputs": [],
      "stateMutability": "nonpayable",
      "type": "function"
    },
    {
      "inputs": [],
      "name": "feeDeductionRate",
      "outputs": [
        {
          "internalType": "uint256",
          "name": "",
          "type": "uint256"
        }
      ],
      "stateMutability": "view",
      "type": "function"
    },
    {
      "inputs": [],
      "name": "feeDuration",
      "outputs": [
        {
          "internalType": "uint256",
          "name": "",
          "type": "uint256"
        }
      ],
      "stateMutability": "view",
      "type": "function"
    },
    {
      "inputs": [
        {
          "internalType": "address",
          "name": "account",
          "type": "address"
        },
        {
          "internalType": "uint256",
          "name": "createTime",
          "type": "uint256"
        }
      ],
      "name": "getFeeAmount",
      "outputs": [
        {
          "internalType": "uint256",
          "name": "",
          "type": "uint256"
        }
      ],
      "stateMutability": "view",
      "type": "function"
    },
    {
      "inputs": [
        {
          "internalType": "address",
          "name": "account",
          "type": "address"
        }
      ],
      "name": "getNodeNumberOf",
      "outputs": [
        {
          "internalType": "uint256",
          "name": "",
          "type": "uint256"
        }
      ],
      "stateMutability": "view",
      "type": "function"
    },
    {
      "inputs": [
        {
          "internalType": "address",
          "name": "account",
          "type": "address"
        }
      ],
      "name": "getNodes",
      "outputs": [
        {
          "components": [
            {
              "internalType": "string",
              "name": "name",
              "type": "string"
            },
            {
              "internalType": "uint256",
              "name": "creationTime",
              "type": "uint256"
            },
            {
              "internalType": "uint256",
              "name": "lastClaimTime",
              "type": "uint256"
            },
            {
              "internalType": "uint256",
              "name": "feeTime",
              "type": "uint256"
            },
            {
              "internalType": "uint256",
              "name": "dueTime",
              "type": "uint256"
            }
          ],
          "internalType": "struct HeroInfinityNodePoolV2.NodeEntity[]",
          "name": "nodes",
          "type": "tuple[]"
        }
      ],
      "stateMutability": "view",
      "type": "function"
    },
    {
      "inputs": [
        {
          "internalType": "address",
          "name": "account",
          "type": "address"
        },
        {
          "internalType": "uint256",
          "name": "creationTime",
          "type": "uint256"
        }
      ],
      "name": "getRewardAmountOf",
      "outputs": [
        {
          "internalType": "uint256",
          "name": "",
          "type": "uint256"
        }
      ],
      "stateMutability": "view",
      "type": "function"
    },
    {
      "inputs": [
        {
          "internalType": "address",
          "name": "account",
          "type": "address"
        }
      ],
      "name": "getRewardTotalAmountOf",
      "outputs": [
        {
          "internalType": "uint256",
          "name": "",
          "type": "uint256"
        }
      ],
      "stateMutability": "view",
      "type": "function"
    },
    {
      "inputs": [
        {
          "internalType": "uint256",
          "name": "passedDays",
          "type": "uint256"
        }
      ],
      "name": "getRewardsForDay",
      "outputs": [
        {
          "internalType": "uint256",
          "name": "",
          "type": "uint256"
        }
      ],
      "stateMutability": "view",
      "type": "function"
    },
    {
      "inputs": [],
      "name": "hriToken",
      "outputs": [
        {
          "internalType": "contract IERC20",
          "name": "",
          "type": "address"
        }
      ],
      "stateMutability": "view",
      "type": "function"
    },
    {
      "inputs": [],
      "name": "initialNodeFee",
      "outputs": [
        {
          "internalType": "uint256",
          "name": "",
          "type": "uint256"
        }
      ],
      "stateMutability": "view",
      "type": "function"
    },
    {
      "inputs": [],
      "name": "initialRewardRate",
      "outputs": [
        {
          "internalType": "uint256",
          "name": "",
          "type": "uint256"
        }
      ],
      "stateMutability": "view",
      "type": "function"
    },
    {
      "inputs": [],
      "name": "maxNodes",
      "outputs": [
        {
          "internalType": "uint256",
          "name": "",
          "type": "uint256"
        }
      ],
      "stateMutability": "view",
      "type": "function"
    },
    {
      "inputs": [],
      "name": "maxNodesPerWallet",
      "outputs": [
        {
          "internalType": "uint256",
          "name": "",
          "type": "uint256"
        }
      ],
      "stateMutability": "view",
      "type": "function"
    },
    {
      "inputs": [
        {
          "internalType": "address",
          "name": "",
          "type": "address"
        }
      ],
      "name": "migrated",
      "outputs": [
        {
          "internalType": "bool",
          "name": "",
          "type": "bool"
        }
      ],
      "stateMutability": "view",
      "type": "function"
    },
    {
      "inputs": [],
      "name": "minRewardRatePerDay",
      "outputs": [
        {
          "internalType": "uint256",
          "name": "",
          "type": "uint256"
        }
      ],
      "stateMutability": "view",
      "type": "function"
    },
    {
      "inputs": [
        {
          "internalType": "address",
          "name": "",
          "type": "address"
        }
      ],
      "name": "nodeOwners",
      "outputs": [
        {
          "internalType": "uint256",
          "name": "",
          "type": "uint256"
        }
      ],
      "stateMutability": "view",
      "type": "function"
    },
    {
      "inputs": [],
      "name": "nodePrice",
      "outputs": [
        {
          "internalType": "uint256",
          "name": "",
          "type": "uint256"
        }
      ],
      "stateMutability": "view",
      "type": "function"
    },
    {
      "inputs": [],
      "name": "oldNodePool",
      "outputs": [
        {
          "internalType": "contract IHeroInfinityNodePool",
          "name": "",
          "type": "address"
        }
      ],
      "stateMutability": "view",
      "type": "function"
    },
    {
      "inputs": [],
      "name": "overDuration",
      "outputs": [
        {
          "internalType": "uint256",
          "name": "",
          "type": "uint256"
        }
      ],
      "stateMutability": "view",
      "type": "function"
    },
    {
      "inputs": [],
      "name": "owner",
      "outputs": [
        {
          "internalType": "address",
          "name": "",
          "type": "address"
        }
      ],
      "stateMutability": "view",
      "type": "function"
    },
    {
      "inputs": [],
      "name": "payAllNodesFee",
      "outputs": [],
      "stateMutability": "payable",
      "type": "function"
    },
    {
      "inputs": [
        {
          "internalType": "uint256",
          "name": "_creationTime",
          "type": "uint256"
        }
      ],
      "name": "payNodeFee",
      "outputs": [],
      "stateMutability": "payable",
      "type": "function"
    },
    {
      "inputs": [],
      "name": "renounceOwnership",
      "outputs": [],
      "stateMutability": "nonpayable",
      "type": "function"
    },
    {
      "inputs": [],
      "name": "rewardReduceRatePerDay",
      "outputs": [
        {
          "internalType": "uint256",
          "name": "",
          "type": "uint256"
        }
      ],
      "stateMutability": "view",
      "type": "function"
    },
    {
      "inputs": [
        {
          "internalType": "uint256",
          "name": "rate",
          "type": "uint256"
        }
      ],
      "name": "setFeeDeductionRate",
      "outputs": [],
      "stateMutability": "nonpayable",
      "type": "function"
    },
    {
      "inputs": [
        {
          "internalType": "uint256",
          "name": "_feeDuration",
          "type": "uint256"
        }
      ],
      "name": "setFeeDuration",
      "outputs": [],
      "stateMutability": "nonpayable",
      "type": "function"
    },
    {
      "inputs": [
        {
          "internalType": "uint256",
          "name": "_feeAmount",
          "type": "uint256"
        }
      ],
      "name": "setInitialNodeFee",
      "outputs": [],
      "stateMutability": "nonpayable",
      "type": "function"
    },
    {
      "inputs": [
        {
          "internalType": "uint256",
          "name": "rate",
          "type": "uint256"
        }
      ],
      "name": "setInitialRewardRate",
      "outputs": [],
      "stateMutability": "nonpayable",
      "type": "function"
    },
    {
      "inputs": [
        {
          "internalType": "uint256",
          "name": "_count",
          "type": "uint256"
        }
      ],
      "name": "setMaxNodes",
      "outputs": [],
      "stateMutability": "nonpayable",
      "type": "function"
    },
    {
      "inputs": [
        {
          "internalType": "uint256",
          "name": "_count",
          "type": "uint256"
        }
      ],
      "name": "setMaxNodesPerWallet",
      "outputs": [],
      "stateMutability": "nonpayable",
      "type": "function"
    },
    {
      "inputs": [
        {
          "internalType": "uint256",
          "name": "rate",
          "type": "uint256"
        }
      ],
      "name": "setMinRewardRatePerDay",
      "outputs": [],
      "stateMutability": "nonpayable",
      "type": "function"
    },
    {
      "inputs": [
        {
          "internalType": "uint256",
          "name": "newNodePrice",
          "type": "uint256"
        }
      ],
      "name": "setNodePrice",
      "outputs": [],
      "stateMutability": "nonpayable",
      "type": "function"
    },
    {
      "inputs": [
        {
          "internalType": "uint256",
          "name": "_overDuration",
          "type": "uint256"
        }
      ],
      "name": "setOverDuration",
      "outputs": [],
      "stateMutability": "nonpayable",
      "type": "function"
    },
    {
      "inputs": [
        {
          "internalType": "uint256",
          "name": "rate",
          "type": "uint256"
        }
      ],
      "name": "setRewardReduceRatePerDay",
      "outputs": [],
      "stateMutability": "nonpayable",
      "type": "function"
    },
    {
      "inputs": [],
      "name": "totalNodesCreated",
      "outputs": [
        {
          "internalType": "uint256",
          "name": "",
          "type": "uint256"
        }
      ],
      "stateMutability": "view",
      "type": "function"
    },
    {
      "inputs": [
        {
          "internalType": "address",
          "name": "newOwner",
          "type": "address"
        }
      ],
      "name": "transferOwnership",
      "outputs": [],
      "stateMutability": "nonpayable",
      "type": "function"
    },
    {
      "inputs": [],
      "name": "upgradeNode",
      "outputs": [],
      "stateMutability": "nonpayable",
      "type": "function"
    },
    {
      "inputs": [
        {
          "internalType": "address",
          "name": "",
          "type": "address"
        },
        {
          "internalType": "uint256",
          "name": "",
          "type": "uint256"
        }
      ],
      "name": "userFees",
      "outputs": [
        {
          "internalType": "uint256",
          "name": "",
          "type": "uint256"
        }
      ],
      "stateMutability": "view",
      "type": "function"
    },
    {
      "inputs": [
        {
          "internalType": "uint256",
          "name": "amount",
          "type": "uint256"
        }
      ],
      "name": "withdrawFee",
      "outputs": [],
      "stateMutability": "nonpayable",
      "type": "function"
    },
    {
      "inputs": [
        {
          "internalType": "uint256",
          "name": "amount",
          "type": "uint256"
        }
      ],
      "name": "withdrawReward",
      "outputs": [],
      "stateMutability": "nonpayable",
      "type": "function"
    },
    {
      "stateMutability": "payable",
      "type": "receive"
    }
  ],
  "bytecode": "0x6080604052692a5a058fc295ed0000006005556101906006556061600755601e6008556019600955611388600a55662386f26fc10000600b55600f600c8190556224ea00600d556202a300600e5560009055601080546001600160a01b03199081167328ee3e2826264b9c55fcdd122dfa93680916c9b8179091556011805490911673a0f90c8111465e75e5b7e0d85de0dcdc185da1ae1790553480156100a557600080fd5b506100af336100b4565b610104565b600080546001600160a01b038381166001600160a01b0319831681178455604051919092169283917f8be0079c531659141344cd1fd0a4f28419497f9722a3daafe3b4186f6b6457e09190a35050565b6128a4806101136000396000f3fe6080604052600436106102605760003560e01c80637be50ce211610144578063be357616116100b6578063ef8ceb8a1161007a578063ef8ceb8a146106df578063f1f4613a146106ff578063f1fec2b81461071f578063f2fde38b14610735578063f67af2da14610755578063f74c99341461077557600080fd5b8063be35761614610653578063c006593514610673578063ddf0185f14610689578063ebb8035a1461069f578063ebbbbb49146106bf57600080fd5b8063a44c839411610108578063a44c8394146105ca578063afdfffcb146105ea578063b34f594b146105ff578063b7427ef91461061f578063b8527aef14610627578063b8785ef51461063d57600080fd5b80637be50ce2146105365780638da5cb5b1461055657806396ee03af146105745780639ceb5c4814610594578063a2a7b0f2146105b457600080fd5b80634ba0a5ee116101dd578063617740c8116101a1578063617740c81461047057806361b485f6146104865780636b506c0d146104a6578063715018a6146104de57806372fbb841146104f357806378a6b9681461050957600080fd5b80634ba0a5ee146103c5578063523a3f081461040557806355cd6a5e1461042557806357649c36146104455780635971aa211461045a57600080fd5b806332ef9c871161022457806332ef9c87146103145780633310ea141461032a57806335b9e55e1461036257806343b8ff6f14610378578063486af96a1461039857600080fd5b806302e415c91461026c578063031c9dfc1461028e5780630e5ba5a9146102a15780631156ba62146102c15780631a136cd7146102f457600080fd5b3661026757005b600080fd5b34801561027857600080fd5b5061028c610287366004612251565b6107ab565b005b61028c61029c366004612251565b6107e3565b3480156102ad57600080fd5b5061028c6102bc366004612251565b6108f0565b3480156102cd57600080fd5b506102e16102dc366004612251565b61091f565b6040519081526020015b60405180910390f35b34801561030057600080fd5b5061028c61030f366004612251565b6109bd565b34801561032057600080fd5b506102e1600d5481565b34801561033657600080fd5b506102e1610345366004612286565b600160209081526000928352604080842090915290825290205481565b34801561036e57600080fd5b506102e1600c5481565b34801561038457600080fd5b506102e16103933660046122b0565b6109ec565b3480156103a457600080fd5b506103b86103b33660046122b0565b610b6e565b6040516102eb9190612323565b3480156103d157600080fd5b506103f56103e03660046122b0565b60026020526000908152604090205460ff1681565b60405190151581526020016102eb565b34801561041157600080fd5b5061028c610420366004612251565b610c9d565b34801561043157600080fd5b5061028c610440366004612251565b610d4f565b34801561045157600080fd5b5061028c610d7e565b34801561046657600080fd5b506102e160065481565b34801561047c57600080fd5b506102e1600e5481565b34801561049257600080fd5b506102e16104a1366004612286565b610fa9565b3480156104b257600080fd5b506011546104c6906001600160a01b031681565b6040516001600160a01b0390911681526020016102eb565b3480156104ea57600080fd5b5061028c61100b565b3480156104ff57600080fd5b506102e1600b5481565b34801561051557600080fd5b506102e16105243660046122b0565b60036020526000908152604090205481565b34801561054257600080fd5b5061028c610551366004612450565b611041565b34801561056257600080fd5b506000546001600160a01b03166104c6565b34801561058057600080fd5b5061028c61058f366004612251565b611406565b3480156105a057600080fd5b506102e16105af366004612286565b611435565b3480156105c057600080fd5b506102e160095481565b3480156105d657600080fd5b5061028c6105e5366004612251565b6114c7565b3480156105f657600080fd5b5061028c6114f6565b34801561060b57600080fd5b5061028c61061a366004612251565b611623565b61028c611652565b34801561063357600080fd5b506102e1600f5481565b34801561064957600080fd5b506102e160075481565b34801561065f57600080fd5b5061028c61066e366004612251565b611882565b34801561067f57600080fd5b506102e160085481565b34801561069557600080fd5b506102e1600a5481565b3480156106ab57600080fd5b5061028c6106ba366004612251565b6118d9565b3480156106cb57600080fd5b506010546104c6906001600160a01b031681565b3480156106eb57600080fd5b5061028c6106fa366004612251565b6119f4565b34801561070b57600080fd5b5061028c61071a366004612251565b611a23565b34801561072b57600080fd5b506102e160055481565b34801561074157600080fd5b5061028c6107503660046122b0565b611a52565b34801561076157600080fd5b5061028c610770366004612251565b611aed565b34801561078157600080fd5b506102e16107903660046122b0565b6001600160a01b031660009081526003602052604090205490565b6000546001600160a01b031633146107de5760405162461bcd60e51b81526004016107d5906124d2565b60405180910390fd5b600855565b336000818152600460205260408120906107fd8285611b1c565b9050600061080b8486610fa9565b9050803410156108565760405162461bcd60e51b815260206004820152601660248201527513995959081d1bc81c185e4819995948185b5bdd5b9d60521b60448201526064016107d5565b428260040154101561089d5760405162461bcd60e51b815260206004820152601060248201526f139bd919481a5cc8191a5cd8589b195960821b60448201526064016107d5565b600d546108aa904261251d565b60038301819055600e546108bd9161251d565b6004909201919091556001600160a01b039092166000908152600160209081526040808320958352949052929092205550565b6000546001600160a01b0316331461091a5760405162461bcd60e51b81526004016107d5906124d2565b600b55565b6000806127106006546005546109359190612535565b61093f919061256a565b905060005b61094f60018561257e565b811015610984576064600754836109669190612535565b610970919061256a565b91508061097c81612595565b915050610944565b50600061271060085460055461099a9190612535565b6109a4919061256a565b90508082116109b357806109b5565b815b949350505050565b6000546001600160a01b031633146109e75760405162461bcd60e51b81526004016107d5906124d2565b600d55565b6001600160a01b03811660009081526004602052604081208054908290815b83811015610b64576000610b02838381548110610a2a57610a2a6125b0565b90600052602060002090600502016040518060a0016040529081600082018054610a53906125c6565b80601f0160208091040260200160405190810160405280929190818152602001828054610a7f906125c6565b8015610acc5780601f10610aa157610100808354040283529160200191610acc565b820191906000526020600020905b815481529060010190602001808311610aaf57829003601f168201915b50505050508152602001600182015481526020016002820154815260200160038201548152602001600482015481525050611d00565b9050610b446040518060400160405280601781526020017f6e6f6465207265776172642061742025732069732025730000000000000000008152508383611e26565b610b4e818561251d565b9350508080610b5c90612595565b915050610a0b565b5090949350505050565b6001600160a01b0381166000908152600460209081526040808320805482518185028101850190935280835260609492939192909184015b82821015610c9257838290600052602060002090600502016040518060a0016040529081600082018054610bd9906125c6565b80601f0160208091040260200160405190810160405280929190818152602001828054610c05906125c6565b8015610c525780601f10610c2757610100808354040283529160200191610c52565b820191906000526020600020905b815481529060010190602001808311610c3557829003601f168201915b5050505050815260200160018201548152602001600282015481526020016003820154815260200160048201548152505081526020019060010190610ba6565b505050509050919050565b6000546001600160a01b03163314610cc75760405162461bcd60e51b81526004016107d5906124d2565b60105460405163a9059cbb60e01b8152336004820152602481018390526001600160a01b039091169063a9059cbb90604401602060405180830381600087803b158015610d1357600080fd5b505af1158015610d27573d6000803e3d6000fd5b505050506040513d601f19601f82011682018060405250810190610d4b9190612601565b5050565b6000546001600160a01b03163314610d795760405162461bcd60e51b81526004016107d5906124d2565b600e55565b6011546040516324357cb560e11b81523360048201526000916001600160a01b03169063486af96a9060240160006040518083038186803b158015610dc257600080fd5b505afa158015610dd6573d6000803e3d6000fd5b505050506040513d6000823e601f3d908101601f19168201604052610dfe9190810190612623565b905060005b8151811015610f8b573360008181526004602052604090819020815160a0810190925284519091908190869086908110610e3f57610e3f6125b0565b6020026020010151600001518152602001858581518110610e6257610e626125b0565b6020026020010151602001518152602001858581518110610e8557610e856125b0565b6020026020010151604001518152602001858581518110610ea857610ea86125b0565b6020026020010151606001518152602001858581518110610ecb57610ecb6125b0565b60209081029190910181015160800151909152825460018101845560009384529281902082518051939460050290910192610f0992849201906121b8565b506020828101516001830155604080840151600284015560608401516003808501919091556080909401516004909301929092556001600160a01b03841660009081529290528120805491610f5d83612595565b9091555050600f8054906000610f7283612595565b9190505550508080610f8390612595565b915050610e03565b5050336000908152600260205260409020805460ff19166001179055565b6001600160a01b038216600090815260016020908152604080832084845290915281205480610fdc575050600b54611005565b6064600c546064610fed919061257e565b610ff79083612535565b611001919061256a565b9150505b92915050565b6000546001600160a01b031633146110355760405162461bcd60e51b81526004016107d5906124d2565b61103f6000611e72565b565b600081116110895760405162461bcd60e51b81526020600482015260156024820152740436f756e742073686f756c64206265206e6f74203605c1b60448201526064016107d5565b336000818152600360205260409020546110a38285611ec2565b6110ef5760405162461bcd60e51b815260206004820152601f60248201527f435245415445204e4f44453a204e616d65206e6f7420617661696c61626c650060448201526064016107d5565b6009546110fc848361251d565b111561113a5760405162461bcd60e51b815260206004820152600d60248201526c10dbdd5b9d08131a5b5a5d1959609a1b60448201526064016107d5565b80158061118b57506001600160a01b0382166000908152600460205260409020429061116760018461257e565b81548110611177576111776125b0565b906000526020600020906005020160010154105b6111cb5760405162461bcd60e51b8152602060048201526011602482015270546f6f206d616e7920726571756573747360781b60448201526064016107d5565b600a5483600f546111dc919061251d565b11156112235760405162461bcd60e51b8152602060048201526016602482015275115e18d95959081b585e081b9bd9195cc81b1a5b5a5d60521b60448201526064016107d5565b6000836005546112339190612535565b6010546040516323b872dd60e01b81526001600160a01b038681166004830152306024830152604482018490529293509116906323b872dd90606401602060405180830381600087803b15801561128957600080fd5b505af115801561129d573d6000803e3d6000fd5b505050506040513d601f19601f820116820180604052508101906112c19190612601565b5060005b848110156113fe5760006112d9824261251d565b905060046000866001600160a01b03166001600160a01b031681526020019081526020016000206040518060a00160405280898152602001838152602001838152602001600d548461132b919061251d565b8152602001600e54600d5485611341919061251d565b61134b919061251d565b90528154600181018355600092835260209283902082518051939460059093029091019261137c92849201906121b8565b506020828101516001830155604080840151600284015560608401516003808501919091556080909401516004909301929092556001600160a01b038816600090815292905281208054916113d083612595565b9091555050600f80549060006113e583612595565b91905055505080806113f690612595565b9150506112c5565b505050505050565b6000546001600160a01b031633146114305760405162461bcd60e51b81526004016107d5906124d2565b600955565b60008082116114565760405162461bcd60e51b81526004016107d590612782565b6001600160a01b038316600090815260046020526040902080548061148d5760405162461bcd60e51b81526004016107d5906127c9565b60006114998386611b1c565b905060006114bc826040518060a0016040529081600082018054610a53906125c6565b979650505050505050565b6000546001600160a01b031633146114f15760405162461bcd60e51b81526004016107d5906124d2565b600a55565b3360008181526004602052604090208054806115245760405162461bcd60e51b81526004016107d590612782565b600080805b8381101561159c57848181548110611543576115436125b0565b906000526020600020906005020192506000611574846040518060a0016040529081600082018054610a53906125c6565b9050611580818461251d565b426002860155925081905061159481612595565b915050611529565b5060105460405163a9059cbb60e01b81526001600160a01b038781166004830152602482018490529091169063a9059cbb90604401602060405180830381600087803b1580156115eb57600080fd5b505af11580156115ff573d6000803e3d6000fd5b505050506040513d601f19601f820116820180604052508101906113fe9190612601565b6000546001600160a01b0316331461164d5760405162461bcd60e51b81526004016107d5906124d2565b600555565b33600081815260046020526040812090805b82548110156116e35742838281548110611680576116806125b0565b906000526020600020906005020160040154106116d1576116c4848483815481106116ad576116ad6125b0565b906000526020600020906005020160010154610fa9565b6116ce908361251d565b91505b806116db81612595565b915050611664565b508034101561172d5760405162461bcd60e51b815260206004820152601660248201527513995959081d1bc81c185e4819995948185b5bdd5b9d60521b60448201526064016107d5565b60005b825481101561187c574283828154811061174c5761174c6125b0565b9060005260206000209060050201600401541061186a57600061177b858584815481106116ad576116ad6125b0565b9050600d544261178b919061251d565b84838154811061179d5761179d6125b0565b906000526020600020906005020160030181905550600e548483815481106117c7576117c76125b0565b9060005260206000209060050201600301546117e3919061251d565b8483815481106117f5576117f56125b0565b9060005260206000209060050201600401819055508060016000876001600160a01b03166001600160a01b031681526020019081526020016000206000868581548110611844576118446125b0565b906000526020600020906005020160010154815260200190815260200160002081905550505b8061187481612595565b915050611730565b50505050565b6000546001600160a01b031633146118ac5760405162461bcd60e51b81526004016107d5906124d2565b604051339082156108fc029083906000818181858888f19350505050158015610d4b573d6000803e3d6000fd5b33816118f75760405162461bcd60e51b81526004016107d590612782565b6001600160a01b038116600090815260046020526040902080548061192e5760405162461bcd60e51b81526004016107d5906127c9565b600061193a8386611b1c565b9050600061195d826040518060a0016040529081600082018054610a53906125c6565b42600284015560105460405163a9059cbb60e01b81526001600160a01b0388811660048301526024820184905292935091169063a9059cbb90604401602060405180830381600087803b1580156119b357600080fd5b505af11580156119c7573d6000803e3d6000fd5b505050506040513d601f19601f820116820180604052508101906119eb9190612601565b50505050505050565b6000546001600160a01b03163314611a1e5760405162461bcd60e51b81526004016107d5906124d2565b600c55565b6000546001600160a01b03163314611a4d5760405162461bcd60e51b81526004016107d5906124d2565b600755565b6000546001600160a01b03163314611a7c5760405162461bcd60e51b81526004016107d5906124d2565b6001600160a01b038116611ae15760405162461bcd60e51b815260206004820152602660248201527f4f776e61626c653a206e6577206f776e657220697320746865207a65726f206160448201526564647265737360d01b60648201526084016107d5565b611aea81611e72565b50565b6000546001600160a01b03163314611b175760405162461bcd60e51b81526004016107d5906124d2565b600655565b815460009080611b3e5760405162461bcd60e51b81526004016107d5906127c9565b600080611c5e86805480602002602001604051908101604052809291908181526020016000905b82821015611c5157838290600052602060002090600502016040518060a0016040529081600082018054611b98906125c6565b80601f0160208091040260200160405190810160405280929190818152602001828054611bc4906125c6565b8015611c115780601f10611be657610100808354040283529160200191611c11565b820191906000526020600020905b815481529060010190602001808311611bf457829003601f168201915b5050505050815260200160018201548152602001600282015481526020016003820154815260200160048201548152505081526020019060010190611b65565b505050506000858861204e565b90506000808212611c70575060019150805b82611cd45760405162461bcd60e51b815260206004820152602e60248201527f4e4f4445205345415243483a204e6f204e4f444520466f756e6420776974682060448201526d7468697320626c6f636b74696d6560901b60648201526084016107d5565b868181548110611ce657611ce66125b0565b906000526020600020906005020194505050505092915050565b60008160800151421115611d1657506000919050565b6000826020015142611d28919061257e565b90506000611d398262015180612101565b90506000611d4a6201518084612813565b90506000611d7e6040518060400160405280600e81526020016d646179732070617373656420257360901b81525084612143565b60015b838111611e1c576000611d938261091f565b9050600084118015611da457508482145b15611dc45762015180611db78583612535565b611dc1919061256a565b90505b611dce818461251d565b9250611e09604051806040016040528060168152602001757265776172642061742064617920257320697320257360501b8152508383611e26565b5080611e1481612595565b915050611d81565b5095945050505050565b611e6d838383604051602401611e3e93929190612827565b60408051601f198184030181529190526020810180516001600160e01b031663969cdd0360e01b179052612184565b505050565b600080546001600160a01b038381166001600160a01b0319831681178455604051919092169283917f8be0079c531659141344cd1fd0a4f28419497f9722a3daafe3b4186f6b6457e09190a35050565b6001600160a01b038216600090815260046020908152604080832080548251818502810185019093528083528493849084015b82821015611fe157838290600052602060002090600502016040518060a0016040529081600082018054611f28906125c6565b80601f0160208091040260200160405190810160405280929190818152602001828054611f54906125c6565b8015611fa15780601f10611f7657610100808354040283529160200191611fa1565b820191906000526020600020905b815481529060010190602001808311611f8457829003601f168201915b5050505050815260200160018201548152602001600282015481526020016003820154815260200160048201548152505081526020019060010190611ef5565b50505050905060005b815181101561204357838051906020012082828151811061200d5761200d6125b0565b60200260200101516000015180519060200120141561203157600092505050611005565b8061203b81612595565b915050611fea565b506001949350505050565b60008383106120f557600061206e6002612068878761251d565b906121a5565b905082868281518110612083576120836125b0565b602002602001015160200151141561209c5790506109b5565b828682815181106120af576120af6125b0565b60200260200101516020015111156120df576120d786866120d160018561257e565b8661204e565b9150506109b5565b6120d7866120ee83600161251d565b868661204e565b50600019949350505050565b60008061210e8385612813565b905060008361211d838761257e565b612127919061256a565b905081156110015761213a60018261251d565b95945050505050565b610d4b828260405160240161215992919061284c565b60408051601f198184030181529190526020810180516001600160e01b03166309710a9d60e41b1790525b80516a636f6e736f6c652e6c6f67602083016000808483855afa5050505050565b60006121b1828461256a565b9392505050565b8280546121c4906125c6565b90600052602060002090601f0160209004810192826121e6576000855561222c565b82601f106121ff57805160ff191683800117855561222c565b8280016001018555821561222c579182015b8281111561222c578251825591602001919060010190612211565b5061223892915061223c565b5090565b5b80821115612238576000815560010161223d565b60006020828403121561226357600080fd5b5035919050565b80356001600160a01b038116811461228157600080fd5b919050565b6000806040838503121561229957600080fd5b6122a28361226a565b946020939093013593505050565b6000602082840312156122c257600080fd5b6121b18261226a565b60005b838110156122e65781810151838201526020016122ce565b8381111561187c5750506000910152565b6000815180845261230f8160208601602086016122cb565b601f01601f19169290920160200192915050565b60006020808301818452808551808352604092508286019150828160051b87010184880160005b838110156123aa57603f19898403018552815160a08151818652612370828701826122f7565b838b0151878c0152898401518a8801526060808501519088015260809384015193909601929092525050938601939086019060010161234a565b509098975050505050505050565b634e487b7160e01b600052604160045260246000fd5b60405160a0810167ffffffffffffffff811182821017156123f1576123f16123b8565b60405290565b604051601f8201601f1916810167ffffffffffffffff81118282101715612420576124206123b8565b604052919050565b600067ffffffffffffffff821115612442576124426123b8565b50601f01601f191660200190565b6000806040838503121561246357600080fd5b823567ffffffffffffffff81111561247a57600080fd5b8301601f8101851361248b57600080fd5b803561249e61249982612428565b6123f7565b8181528660208385010111156124b357600080fd5b8160208401602083013760006020928201830152969401359450505050565b6020808252818101527f4f776e61626c653a2063616c6c6572206973206e6f7420746865206f776e6572604082015260600190565b634e487b7160e01b600052601160045260246000fd5b6000821982111561253057612530612507565b500190565b600081600019048311821515161561254f5761254f612507565b500290565b634e487b7160e01b600052601260045260246000fd5b60008261257957612579612554565b500490565b60008282101561259057612590612507565b500390565b60006000198214156125a9576125a9612507565b5060010190565b634e487b7160e01b600052603260045260246000fd5b600181811c908216806125da57607f821691505b602082108114156125fb57634e487b7160e01b600052602260045260246000fd5b50919050565b60006020828403121561261357600080fd5b815180151581146121b157600080fd5b6000602080838503121561263657600080fd5b825167ffffffffffffffff8082111561264e57600080fd5b818501915085601f83011261266257600080fd5b815181811115612674576126746123b8565b8060051b6126838582016123f7565b918252838101850191858101908984111561269d57600080fd5b86860192505b83831015612775578251858111156126ba57600080fd5b860160a0818c03601f190112156126d15760008081fd5b6126d96123ce565b88820151878111156126eb5760008081fd5b8201603f81018d136126fd5760008081fd5b89810151604061270f61249983612428565b8281528f828486010111156127245760008081fd5b612733838e83018487016122cb565b8452848101518c850152606080860151918501919091526080808601519185019190915260a090940151938301939093525083525091860191908601906126a3565b9998505050505050505050565b60208082526027908201527f4e4f44453a204352454154494d45206d75737420626520686967686572207468604082015266616e207a65726f60c81b606082015260800190565b6020808252602a908201527f434c41494d204552524f523a20596f7520646f6e27742068617665206e6f64656040820152697320746f20636c61696d60b01b606082015260800190565b60008261282257612822612554565b500690565b60608152600061283a60608301866122f7565b60208301949094525060400152919050565b60408152600061285f60408301856122f7565b9050826020830152939250505056fea26469706673582212209d714cd4c5dd7eef5dcca657d09910f6e01e388853a53e9a296156a69d61300f64736f6c63430008090033",
  "linkReferences": {},
  "deployedLinkReferences": {}
}