{
  "_format": "hh-sol-artifact-1",
  "contractName": "HeroManager",
  "sourceName": "contracts/game/HeroManager.sol",
  "abi": [
    {
      "inputs": [],
      "stateMutability": "nonpayable",
      "type": "constructor"
    },
    {
      "anonymous": false,
      "inputs": [
        {
          "indexed": true,
          "internalType": "address",
          "name": "previousOwner",
          "type": "address"
        },
        {
          "indexed": true,
          "internalType": "address",
          "name": "newOwner",
          "type": "address"
        }
      ],
      "name": "OwnershipTransferred",
      "type": "event"
    },
    {
      "inputs": [
        {
          "internalType": "uint256",
          "name": "heroId",
          "type": "uint256"
        },
        {
          "components": [
            {
              "internalType": "uint8",
              "name": "level",
              "type": "uint8"
            },
            {
              "internalType": "uint8",
              "name": "primaryAttribute",
              "type": "uint8"
            },
            {
              "internalType": "uint8",
              "name": "strength",
              "type": "uint8"
            },
            {
              "internalType": "uint8",
              "name": "strengthGain",
              "type": "uint8"
            },
            {
              "internalType": "uint8",
              "name": "agility",
              "type": "uint8"
            },
            {
              "internalType": "uint8",
              "name": "agilityGain",
              "type": "uint8"
            },
            {
              "internalType": "uint8",
              "name": "intelligence",
              "type": "uint8"
            },
            {
              "internalType": "uint8",
              "name": "intelligenceGain",
              "type": "uint8"
            },
            {
              "internalType": "uint8",
              "name": "experience",
              "type": "uint8"
            }
          ],
          "internalType": "struct GameFi.Hero",
          "name": "hero",
          "type": "tuple"
        }
      ],
      "name": "addHero",
      "outputs": [],
      "stateMutability": "nonpayable",
      "type": "function"
    },
    {
      "inputs": [],
      "name": "baseLevelUpFee",
      "outputs": [
        {
          "internalType": "uint256",
          "name": "",
          "type": "uint256"
        }
      ],
      "stateMutability": "view",
      "type": "function"
    },
    {
      "inputs": [],
      "name": "bonusExp",
      "outputs": [
        {
          "internalType": "uint8",
          "name": "",
          "type": "uint8"
        }
      ],
      "stateMutability": "view",
      "type": "function"
    },
    {
      "inputs": [],
      "name": "bonusLevelUpFee",
      "outputs": [
        {
          "internalType": "uint256",
          "name": "",
          "type": "uint256"
        }
      ],
      "stateMutability": "view",
      "type": "function"
    },
    {
      "inputs": [
        {
          "internalType": "uint256[]",
          "name": "heroIds",
          "type": "uint256[]"
        }
      ],
      "name": "bulkExpDown",
      "outputs": [],
      "stateMutability": "nonpayable",
      "type": "function"
    },
    {
      "inputs": [
        {
          "internalType": "uint256[]",
          "name": "heroIds",
          "type": "uint256[]"
        }
      ],
      "name": "bulkExpUp",
      "outputs": [],
      "stateMutability": "nonpayable",
      "type": "function"
    },
    {
      "inputs": [
        {
          "internalType": "uint256",
          "name": "heroId",
          "type": "uint256"
        }
      ],
      "name": "expDown",
      "outputs": [],
      "stateMutability": "nonpayable",
      "type": "function"
    },
    {
      "inputs": [
        {
          "internalType": "uint256",
          "name": "heroId",
          "type": "uint256"
        }
      ],
      "name": "expUp",
      "outputs": [],
      "stateMutability": "nonpayable",
      "type": "function"
    },
    {
      "inputs": [
        {
          "internalType": "uint256",
          "name": "heroId",
          "type": "uint256"
        }
      ],
      "name": "heroBonusExp",
      "outputs": [
        {
          "internalType": "uint8",
          "name": "",
          "type": "uint8"
        }
      ],
      "stateMutability": "view",
      "type": "function"
    },
    {
      "inputs": [
        {
          "internalType": "uint256",
          "name": "heroId",
          "type": "uint256"
        }
      ],
      "name": "heroLevel",
      "outputs": [
        {
          "internalType": "uint8",
          "name": "",
          "type": "uint8"
        }
      ],
      "stateMutability": "view",
      "type": "function"
    },
    {
      "inputs": [],
      "name": "heroMaxLevel",
      "outputs": [
        {
          "internalType": "uint8",
          "name": "",
          "type": "uint8"
        }
      ],
      "stateMutability": "view",
      "type": "function"
    },
    {
      "inputs": [
        {
          "internalType": "uint256",
          "name": "heroId",
          "type": "uint256"
        }
      ],
      "name": "heroPower",
      "outputs": [
        {
          "internalType": "uint256",
          "name": "",
          "type": "uint256"
        }
      ],
      "stateMutability": "view",
      "type": "function"
    },
    {
      "inputs": [
        {
          "internalType": "uint256",
          "name": "heroId",
          "type": "uint256"
        }
      ],
      "name": "heroPrimaryAttribute",
      "outputs": [
        {
          "internalType": "uint8",
          "name": "",
          "type": "uint8"
        }
      ],
      "stateMutability": "view",
      "type": "function"
    },
    {
      "inputs": [
        {
          "internalType": "uint256",
          "name": "",
          "type": "uint256"
        }
      ],
      "name": "heroes",
      "outputs": [
        {
          "internalType": "uint8",
          "name": "level",
          "type": "uint8"
        },
        {
          "internalType": "uint8",
          "name": "primaryAttribute",
          "type": "uint8"
        },
        {
          "internalType": "uint8",
          "name": "strength",
          "type": "uint8"
        },
        {
          "internalType": "uint8",
          "name": "strengthGain",
          "type": "uint8"
        },
        {
          "internalType": "uint8",
          "name": "agility",
          "type": "uint8"
        },
        {
          "internalType": "uint8",
          "name": "agilityGain",
          "type": "uint8"
        },
        {
          "internalType": "uint8",
          "name": "intelligence",
          "type": "uint8"
        },
        {
          "internalType": "uint8",
          "name": "intelligenceGain",
          "type": "uint8"
        },
        {
          "internalType": "uint8",
          "name": "experience",
          "type": "uint8"
        }
      ],
      "stateMutability": "view",
      "type": "function"
    },
    {
      "inputs": [
        {
          "internalType": "uint256",
          "name": "heroId",
          "type": "uint256"
        },
        {
          "internalType": "uint8",
          "name": "levels",
          "type": "uint8"
        }
      ],
      "name": "levelUp",
      "outputs": [],
      "stateMutability": "nonpayable",
      "type": "function"
    },
    {
      "inputs": [],
      "name": "lobbyBattleAddress",
      "outputs": [
        {
          "internalType": "address",
          "name": "",
          "type": "address"
        }
      ],
      "stateMutability": "view",
      "type": "function"
    },
    {
      "inputs": [
        {
          "internalType": "bytes[]",
          "name": "data",
          "type": "bytes[]"
        }
      ],
      "name": "multicall",
      "outputs": [
        {
          "internalType": "bytes[]",
          "name": "results",
          "type": "bytes[]"
        }
      ],
      "stateMutability": "nonpayable",
      "type": "function"
    },
    {
      "inputs": [],
      "name": "nft",
      "outputs": [
        {
          "internalType": "contract IERC721",
          "name": "",
          "type": "address"
        }
      ],
      "stateMutability": "view",
      "type": "function"
    },
    {
      "inputs": [],
      "name": "owner",
      "outputs": [
        {
          "internalType": "address",
          "name": "",
          "type": "address"
        }
      ],
      "stateMutability": "view",
      "type": "function"
    },
    {
      "inputs": [],
      "name": "primaryPowerMultiplier",
      "outputs": [
        {
          "internalType": "uint256",
          "name": "",
          "type": "uint256"
        }
      ],
      "stateMutability": "view",
      "type": "function"
    },
    {
      "inputs": [
        {
          "internalType": "uint256",
          "name": "min",
          "type": "uint256"
        },
        {
          "internalType": "uint256",
          "name": "max",
          "type": "uint256"
        }
      ],
      "name": "random",
      "outputs": [
        {
          "internalType": "uint256",
          "name": "",
          "type": "uint256"
        }
      ],
      "stateMutability": "view",
      "type": "function"
    },
    {
      "inputs": [],
      "name": "renounceOwnership",
      "outputs": [],
      "stateMutability": "nonpayable",
      "type": "function"
    },
    {
      "inputs": [],
      "name": "secondaryMultiplier",
      "outputs": [
        {
          "internalType": "uint256",
          "name": "",
          "type": "uint256"
        }
      ],
      "stateMutability": "view",
      "type": "function"
    },
    {
      "inputs": [
        {
          "internalType": "address",
          "name": "lbAddr",
          "type": "address"
        }
      ],
      "name": "setLobbyBattle",
      "outputs": [],
      "stateMutability": "nonpayable",
      "type": "function"
    },
    {
      "inputs": [],
      "name": "thirdMultiplier",
      "outputs": [
        {
          "internalType": "uint256",
          "name": "",
          "type": "uint256"
        }
      ],
      "stateMutability": "view",
      "type": "function"
    },
    {
      "inputs": [],
      "name": "token",
      "outputs": [
        {
          "internalType": "contract IERC20",
          "name": "",
          "type": "address"
        }
      ],
      "stateMutability": "view",
      "type": "function"
    },
    {
      "inputs": [
        {
          "internalType": "address",
          "name": "newOwner",
          "type": "address"
        }
      ],
      "name": "transferOwnership",
      "outputs": [],
      "stateMutability": "nonpayable",
      "type": "function"
    }
  ],
  "bytecode": "0x6080604052690a968163f0a57b40000060045569021e19e0c9bab2400000600555601e600660006101000a81548160ff021916908360ff160217905550600a600755600880556006600955601e600a60006101000a81548160ff021916908360ff1602179055503480156200007357600080fd5b5062000094620000886200009a60201b60201c565b620000a260201b60201c565b62000166565b600033905090565b60008060009054906101000a900473ffffffffffffffffffffffffffffffffffffffff169050816000806101000a81548173ffffffffffffffffffffffffffffffffffffffff021916908373ffffffffffffffffffffffffffffffffffffffff1602179055508173ffffffffffffffffffffffffffffffffffffffff168173ffffffffffffffffffffffffffffffffffffffff167f8be0079c531659141344cd1fd0a4f28419497f9722a3daafe3b4186f6b6457e060405160405180910390a35050565b61326580620001766000396000f3fe608060405234801561001057600080fd5b50600436106101a95760003560e01c80639b12bc88116100f9578063cd8401a811610097578063f2fde38b11610071578063f2fde38b146104a0578063f3d1b5ab146104bc578063fc0c546a146104ec578063fc5850341461050a576101a9565b8063cd8401a814610436578063d5c1ed8a14610452578063e3a015ce14610482576101a9565b8063aaef0122116100d3578063aaef0122146103ac578063ab405145146103ca578063ac9650d8146103e8578063bd94773c14610418576101a9565b80639b12bc8814610326578063a8d4a03b14610344578063a9dd12251461037c576101a9565b806347ccca0211610166578063715018a611610140578063715018a6146102c65780638da5cb5b146102d05780638ff1e98e146102ee578063905ac4bb1461030a576101a9565b806347ccca02146102705780634d70f87a1461028e57806357c773f1146102aa576101a9565b806301783dfa146101ae57806306975ac2146101cc5780630a36d40b146101ea578063125d49f61461021a57806323cb1c36146102365780634018b1ce14610254575b600080fd5b6101b661053a565b6040516101c39190611d3d565b60405180910390f35b6101d4610540565b6040516101e19190611d3d565b60405180910390f35b61020460048036038101906101ff9190611d8e565b610546565b6040516102119190611dd7565b60405180910390f35b610234600480360381019061022f9190611e1e565b610573565b005b61023e610be1565b60405161024b9190611d3d565b60405180910390f35b61026e60048036038101906102699190611ebc565b610be7565b005b610278610ca7565b6040516102859190611f48565b60405180910390f35b6102a860048036038101906102a39190611d8e565b610ccd565b005b6102c460048036038101906102bf9190611d8e565b610f86565b005b6102ce61119c565b005b6102d8611224565b6040516102e59190611f72565b60405180910390f35b61030860048036038101906103039190611ff2565b61124d565b005b610324600480360381019061031f9190612064565b61132b565b005b61032e6113ce565b60405161033b9190611d3d565b60405180910390f35b61035e60048036038101906103599190611d8e565b6113d4565b604051610373999897969594939291906120a5565b60405180910390f35b61039660048036038101906103919190612132565b611497565b6040516103a39190611d3d565b60405180910390f35b6103b4611501565b6040516103c19190611d3d565b60405180910390f35b6103d2611507565b6040516103df9190611dd7565b60405180910390f35b61040260048036038101906103fd91906121c8565b61151a565b60405161040f9190612370565b60405180910390f35b610420611626565b60405161042d9190611dd7565b60405180910390f35b610450600480360381019061044b9190611ff2565b611639565b005b61046c60048036038101906104679190611d8e565b611717565b6040516104799190611d3d565b60405180910390f35b61048a611920565b6040516104979190611f72565b60405180910390f35b6104ba60048036038101906104b59190611ebc565b611946565b005b6104d660048036038101906104d19190611d8e565b611a3e565b6040516104e39190611dd7565b60405180910390f35b6104f4611a6b565b60405161050191906123b3565b60405180910390f35b610524600480360381019061051f9190611d8e565b611a91565b6040516105319190611dd7565b60405180910390f35b60075481565b60055481565b6000600b600083815260200190815260200160002060000160009054906101000a900460ff169050919050565b3373ffffffffffffffffffffffffffffffffffffffff16600260009054906101000a900473ffffffffffffffffffffffffffffffffffffffff1673ffffffffffffffffffffffffffffffffffffffff16636352211e846040518263ffffffff1660e01b81526004016105e59190611d3d565b60206040518083038186803b1580156105fd57600080fd5b505afa158015610611573d6000803e3d6000fd5b505050506040513d601f19601f8201168201806040525081019061063591906123e3565b73ffffffffffffffffffffffffffffffffffffffff161461068b576040517f08c379a00000000000000000000000000000000000000000000000000000000081526004016106829061246d565b60405180910390fd5b6000600b6000848152602001908152602001600020604051806101200160405290816000820160009054906101000a900460ff1660ff1660ff1681526020016000820160019054906101000a900460ff1660ff1660ff1681526020016000820160029054906101000a900460ff1660ff1660ff1681526020016000820160039054906101000a900460ff1660ff1660ff1681526020016000820160049054906101000a900460ff1660ff1660ff1681526020016000820160059054906101000a900460ff1660ff1660ff1681526020016000820160069054906101000a900460ff1660ff1660ff1681526020016000820160079054906101000a900460ff1660ff1660ff1681526020016000820160089054906101000a900460ff1660ff1660ff16815250509050600660009054906101000a900460ff1660ff16816000015160ff161061080e576040517f08c379a0000000000000000000000000000000000000000000000000000000008152600401610805906124d9565b60405180910390fd5b600660009054906101000a900460ff1660ff168282600001516108319190612528565b60ff161115610875576040517f08c379a000000000000000000000000000000000000000000000000000000000815260040161086c906125ab565b60405180910390fd5b60006001826000015161088891906125cb565b60ff1660055461089891906125ff565b6004546108a59190612659565b905060006005546002856001876108bc91906125cb565b6108c691906126af565b6108d09190612719565b60ff166108dd91906125ff565b8460ff16836108ec91906125ff565b6108f69190612659565b9050600160009054906101000a900473ffffffffffffffffffffffffffffffffffffffff1673ffffffffffffffffffffffffffffffffffffffff166323b872dd3330846040518463ffffffff1660e01b81526004016109579392919061274a565b602060405180830381600087803b15801561097157600080fd5b505af1158015610985573d6000803e3d6000fd5b505050506040513d601f19601f820116820180604052508101906109a991906127b9565b6109e8576040517f08c379a00000000000000000000000000000000000000000000000000000000081526004016109df90612832565b60405180910390fd5b83836000018181516109fa9190612528565b91509060ff16908160ff1681525050838360600151610a1991906126af565b83604001818151610a2a9190612528565b91509060ff16908160ff1681525050838360a00151610a4991906126af565b83608001818151610a5a9190612528565b91509060ff16908160ff1681525050838360e00151610a7991906126af565b83604001818151610a8a9190612528565b91509060ff16908160ff168152505082600b600087815260200190815260200160002060008201518160000160006101000a81548160ff021916908360ff16021790555060208201518160000160016101000a81548160ff021916908360ff16021790555060408201518160000160026101000a81548160ff021916908360ff16021790555060608201518160000160036101000a81548160ff021916908360ff16021790555060808201518160000160046101000a81548160ff021916908360ff16021790555060a08201518160000160056101000a81548160ff021916908360ff16021790555060c08201518160000160066101000a81548160ff021916908360ff16021790555060e08201518160000160076101000a81548160ff021916908360ff1602179055506101008201518160000160086101000a81548160ff021916908360ff1602179055509050505050505050565b60095481565b610bef611ae4565b73ffffffffffffffffffffffffffffffffffffffff16610c0d611224565b73ffffffffffffffffffffffffffffffffffffffff1614610c63576040517f08c379a0000000000000000000000000000000000000000000000000000000008152600401610c5a9061289e565b60405180910390fd5b80600360006101000a81548173ffffffffffffffffffffffffffffffffffffffff021916908373ffffffffffffffffffffffffffffffffffffffff16021790555050565b600260009054906101000a900473ffffffffffffffffffffffffffffffffffffffff1681565b600360009054906101000a900473ffffffffffffffffffffffffffffffffffffffff1673ffffffffffffffffffffffffffffffffffffffff163373ffffffffffffffffffffffffffffffffffffffff161480610d5457503073ffffffffffffffffffffffffffffffffffffffff163373ffffffffffffffffffffffffffffffffffffffff16145b610d93576040517f08c379a0000000000000000000000000000000000000000000000000000000008152600401610d8a90612930565b60405180910390fd5b6001600b600083815260200190815260200160002060000160009054906101000a900460ff1660ff161180610dee57506000600b600083815260200190815260200160002060000160089054906101000a900460ff1660ff16115b15610f835760006002610e0083611a91565b610e0a9190612719565b905080600b600084815260200190815260200160002060000160088282829054906101000a900460ff16610e3e91906125cb565b92506101000a81548160ff021916908360ff1602179055506000600b600084815260200190815260200160002060000160089054906101000a900460ff1660ff161015610f81576001600b600084815260200190815260200160002060000160009054906101000a900460ff1660ff161415610ee9576000600b600084815260200190815260200160002060000160086101000a81548160ff021916908360ff160217905550610f80565b6064600b600084815260200190815260200160002060000160088282829054906101000a900460ff16610f1c9190612528565b92506101000a81548160ff021916908360ff1602179055506001600b600084815260200190815260200160002060000160008282829054906101000a900460ff16610f6791906125cb565b92506101000a81548160ff021916908360ff1602179055505b5b505b50565b600360009054906101000a900473ffffffffffffffffffffffffffffffffffffffff1673ffffffffffffffffffffffffffffffffffffffff163373ffffffffffffffffffffffffffffffffffffffff16148061100d57503073ffffffffffffffffffffffffffffffffffffffff163373ffffffffffffffffffffffffffffffffffffffff16145b61104c576040517f08c379a000000000000000000000000000000000000000000000000000000000815260040161104390612930565b60405180910390fd5b601e600b600083815260200190815260200160002060000160009054906101000a900460ff1660ff16101561119957600061108682611a91565b905080600b600084815260200190815260200160002060000160088282829054906101000a900460ff166110ba9190612528565b92506101000a81548160ff021916908360ff1602179055506064600b600084815260200190815260200160002060000160089054906101000a900460ff1660ff1610611197576064600b600084815260200190815260200160002060000160088282829054906101000a900460ff1661113391906125cb565b92506101000a81548160ff021916908360ff1602179055506001600b600084815260200190815260200160002060000160008282829054906101000a900460ff1661117e9190612528565b92506101000a81548160ff021916908360ff1602179055505b505b50565b6111a4611ae4565b73ffffffffffffffffffffffffffffffffffffffff166111c2611224565b73ffffffffffffffffffffffffffffffffffffffff1614611218576040517f08c379a000000000000000000000000000000000000000000000000000000000815260040161120f9061289e565b60405180910390fd5b6112226000611aec565b565b60008060009054906101000a900473ffffffffffffffffffffffffffffffffffffffff16905090565b600360009054906101000a900473ffffffffffffffffffffffffffffffffffffffff1673ffffffffffffffffffffffffffffffffffffffff163373ffffffffffffffffffffffffffffffffffffffff16146112dd576040517f08c379a00000000000000000000000000000000000000000000000000000000081526004016112d490612930565b60405180910390fd5b60005b828290508160ff1610156113265761131383838360ff1681811061130757611306612950565b5b90506020020135610ccd565b808061131e9061297f565b9150506112e0565b505050565b611333611ae4565b73ffffffffffffffffffffffffffffffffffffffff16611351611224565b73ffffffffffffffffffffffffffffffffffffffff16146113a7576040517f08c379a000000000000000000000000000000000000000000000000000000000815260040161139e9061289e565b60405180910390fd5b80600b600084815260200190815260200160002081816113c79190612e28565b9050505050565b60045481565b600b6020528060005260406000206000915090508060000160009054906101000a900460ff16908060000160019054906101000a900460ff16908060000160029054906101000a900460ff16908060000160039054906101000a900460ff16908060000160049054906101000a900460ff16908060000160059054906101000a900460ff16908060000160069054906101000a900460ff16908060000160079054906101000a900460ff16908060000160089054906101000a900460ff16905089565b6000804442336040516020016114af93929190612e9f565b6040516020818303038152906040528051906020012060001c905083600185856114d99190612edc565b6114e39190612659565b826114ee9190612f10565b6114f89190612659565b91505092915050565b60085481565b600a60009054906101000a900460ff1681565b60608282905067ffffffffffffffff81111561153957611538612f41565b5b60405190808252806020026020018201604052801561156c57816020015b60608152602001906001900390816115575790505b50905060005b8383905081101561161f576115ee3085858481811061159457611593612950565b5b90506020028101906115a69190612f7f565b8080601f016020809104026020016040519081016040528093929190818152602001838380828437600081840152601f19601f82011690508083019250505050505050611bb0565b82828151811061160157611600612950565b5b6020026020010181905250808061161790612fe2565b915050611572565b5092915050565b600660009054906101000a900460ff1681565b600360009054906101000a900473ffffffffffffffffffffffffffffffffffffffff1673ffffffffffffffffffffffffffffffffffffffff163373ffffffffffffffffffffffffffffffffffffffff16146116c9576040517f08c379a00000000000000000000000000000000000000000000000000000000081526004016116c090612930565b60405180910390fd5b60005b828290508160ff161015611712576116ff83838360ff168181106116f3576116f2612950565b5b90506020020135610f86565b808061170a9061297f565b9150506116cc565b505050565b600080600b6000848152602001908152602001600020604051806101200160405290816000820160009054906101000a900460ff1660ff1660ff1681526020016000820160019054906101000a900460ff1660ff1660ff1681526020016000820160029054906101000a900460ff1660ff1660ff1681526020016000820160039054906101000a900460ff1660ff1660ff1681526020016000820160049054906101000a900460ff1660ff1660ff1681526020016000820160059054906101000a900460ff1660ff1660ff1681526020016000820160069054906101000a900460ff1660ff1660ff1681526020016000820160079054906101000a900460ff1660ff1660ff1681526020016000820160089054906101000a900460ff1660ff1660ff16815250509050600080600080846020015160ff16141561187357836040015160ff1692508360c0015160ff169150836080015160ff1690505b6001846020015160ff1614156118a257836080015160ff169250836040015160ff1691508360c0015160ff1690505b6002846020015160ff1614156118d1578360c0015160ff169250836080015160ff169150836040015160ff1690505b6000600954826118e191906125ff565b600854846118ef91906125ff565b600754866118fd91906125ff565b6119079190612659565b6119119190612659565b90508095505050505050919050565b600360009054906101000a900473ffffffffffffffffffffffffffffffffffffffff1681565b61194e611ae4565b73ffffffffffffffffffffffffffffffffffffffff1661196c611224565b73ffffffffffffffffffffffffffffffffffffffff16146119c2576040517f08c379a00000000000000000000000000000000000000000000000000000000081526004016119b99061289e565b60405180910390fd5b600073ffffffffffffffffffffffffffffffffffffffff168173ffffffffffffffffffffffffffffffffffffffff161415611a32576040517f08c379a0000000000000000000000000000000000000000000000000000000008152600401611a299061309d565b60405180910390fd5b611a3b81611aec565b50565b6000600b600083815260200190815260200160002060000160019054906101000a900460ff169050919050565b600160009054906101000a900473ffffffffffffffffffffffffffffffffffffffff1681565b60006001600b600084815260200190815260200160002060000160009054906101000a900460ff16600a60009054906101000a900460ff16611ad391906125cb565b611add9190612528565b9050919050565b600033905090565b60008060009054906101000a900473ffffffffffffffffffffffffffffffffffffffff169050816000806101000a81548173ffffffffffffffffffffffffffffffffffffffff021916908373ffffffffffffffffffffffffffffffffffffffff1602179055508173ffffffffffffffffffffffffffffffffffffffff168173ffffffffffffffffffffffffffffffffffffffff167f8be0079c531659141344cd1fd0a4f28419497f9722a3daafe3b4186f6b6457e060405160405180910390a35050565b6060611bd5838360405180606001604052806027815260200161320960279139611bdd565b905092915050565b6060611be884611caa565b611c27576040517f08c379a0000000000000000000000000000000000000000000000000000000008152600401611c1e9061312f565b60405180910390fd5b6000808573ffffffffffffffffffffffffffffffffffffffff1685604051611c4f919061318b565b600060405180830381855af49150503d8060008114611c8a576040519150601f19603f3d011682016040523d82523d6000602084013e611c8f565b606091505b5091509150611c9f828286611cbd565b925050509392505050565b600080823b905060008111915050919050565b60608315611ccd57829050611d1d565b600083511115611ce05782518084602001fd5b816040517f08c379a0000000000000000000000000000000000000000000000000000000008152600401611d1491906131e6565b60405180910390fd5b9392505050565b6000819050919050565b611d3781611d24565b82525050565b6000602082019050611d526000830184611d2e565b92915050565b600080fd5b600080fd5b611d6b81611d24565b8114611d7657600080fd5b50565b600081359050611d8881611d62565b92915050565b600060208284031215611da457611da3611d58565b5b6000611db284828501611d79565b91505092915050565b600060ff82169050919050565b611dd181611dbb565b82525050565b6000602082019050611dec6000830184611dc8565b92915050565b611dfb81611dbb565b8114611e0657600080fd5b50565b600081359050611e1881611df2565b92915050565b60008060408385031215611e3557611e34611d58565b5b6000611e4385828601611d79565b9250506020611e5485828601611e09565b9150509250929050565b600073ffffffffffffffffffffffffffffffffffffffff82169050919050565b6000611e8982611e5e565b9050919050565b611e9981611e7e565b8114611ea457600080fd5b50565b600081359050611eb681611e90565b92915050565b600060208284031215611ed257611ed1611d58565b5b6000611ee084828501611ea7565b91505092915050565b6000819050919050565b6000611f0e611f09611f0484611e5e565b611ee9565b611e5e565b9050919050565b6000611f2082611ef3565b9050919050565b6000611f3282611f15565b9050919050565b611f4281611f27565b82525050565b6000602082019050611f5d6000830184611f39565b92915050565b611f6c81611e7e565b82525050565b6000602082019050611f876000830184611f63565b92915050565b600080fd5b600080fd5b600080fd5b60008083601f840112611fb257611fb1611f8d565b5b8235905067ffffffffffffffff811115611fcf57611fce611f92565b5b602083019150836020820283011115611feb57611fea611f97565b5b9250929050565b6000806020838503121561200957612008611d58565b5b600083013567ffffffffffffffff81111561202757612026611d5d565b5b61203385828601611f9c565b92509250509250929050565b600080fd5b6000610120828403121561205b5761205a61203f565b5b81905092915050565b600080610140838503121561207c5761207b611d58565b5b600061208a85828601611d79565b925050602061209b85828601612044565b9150509250929050565b6000610120820190506120bb600083018c611dc8565b6120c8602083018b611dc8565b6120d5604083018a611dc8565b6120e26060830189611dc8565b6120ef6080830188611dc8565b6120fc60a0830187611dc8565b61210960c0830186611dc8565b61211660e0830185611dc8565b612124610100830184611dc8565b9a9950505050505050505050565b6000806040838503121561214957612148611d58565b5b600061215785828601611d79565b925050602061216885828601611d79565b9150509250929050565b60008083601f84011261218857612187611f8d565b5b8235905067ffffffffffffffff8111156121a5576121a4611f92565b5b6020830191508360208202830111156121c1576121c0611f97565b5b9250929050565b600080602083850312156121df576121de611d58565b5b600083013567ffffffffffffffff8111156121fd576121fc611d5d565b5b61220985828601612172565b92509250509250929050565b600081519050919050565b600082825260208201905092915050565b6000819050602082019050919050565b600081519050919050565b600082825260208201905092915050565b60005b8381101561227b578082015181840152602081019050612260565b8381111561228a576000848401525b50505050565b6000601f19601f8301169050919050565b60006122ac82612241565b6122b6818561224c565b93506122c681856020860161225d565b6122cf81612290565b840191505092915050565b60006122e683836122a1565b905092915050565b6000602082019050919050565b600061230682612215565b6123108185612220565b93508360208202850161232285612231565b8060005b8581101561235e578484038952815161233f85826122da565b945061234a836122ee565b925060208a01995050600181019050612326565b50829750879550505050505092915050565b6000602082019050818103600083015261238a81846122fb565b905092915050565b600061239d82611f15565b9050919050565b6123ad81612392565b82525050565b60006020820190506123c860008301846123a4565b92915050565b6000815190506123dd81611e90565b92915050565b6000602082840312156123f9576123f8611d58565b5b6000612407848285016123ce565b91505092915050565b600082825260208201905092915050565b7f4865726f4d616e616765723a206e6f742061204e4654206f776e657200000000600082015250565b6000612457601c83612410565b915061246282612421565b602082019050919050565b600060208201905081810360008301526124868161244a565b9050919050565b7f4865726f4d616e616765723a206865726f206d6178206c6576656c0000000000600082015250565b60006124c3601b83612410565b91506124ce8261248d565b602082019050919050565b600060208201905081810360008301526124f2816124b6565b9050919050565b7f4e487b7100000000000000000000000000000000000000000000000000000000600052601160045260246000fd5b600061253382611dbb565b915061253e83611dbb565b92508260ff03821115612554576125536124f9565b5b828201905092915050565b7f4865726f4d616e616765723a20746f6f206d616e79206c6576656c7320757000600082015250565b6000612595601f83612410565b91506125a08261255f565b602082019050919050565b600060208201905081810360008301526125c481612588565b9050919050565b60006125d682611dbb565b91506125e183611dbb565b9250828210156125f4576125f36124f9565b5b828203905092915050565b600061260a82611d24565b915061261583611d24565b9250817fffffffffffffffffffffffffffffffffffffffffffffffffffffffffffffffff048311821515161561264e5761264d6124f9565b5b828202905092915050565b600061266482611d24565b915061266f83611d24565b9250827fffffffffffffffffffffffffffffffffffffffffffffffffffffffffffffffff038211156126a4576126a36124f9565b5b828201905092915050565b60006126ba82611dbb565b91506126c583611dbb565b92508160ff04831182151516156126df576126de6124f9565b5b828202905092915050565b7f4e487b7100000000000000000000000000000000000000000000000000000000600052601260045260246000fd5b600061272482611dbb565b915061272f83611dbb565b92508261273f5761273e6126ea565b5b828204905092915050565b600060608201905061275f6000830186611f63565b61276c6020830185611f63565b6127796040830184611d2e565b949350505050565b60008115159050919050565b61279681612781565b81146127a157600080fd5b50565b6000815190506127b38161278d565b92915050565b6000602082840312156127cf576127ce611d58565b5b60006127dd848285016127a4565b91505092915050565b7f4865726f4d616e616765723a206e6f7420656e6f756768206665650000000000600082015250565b600061281c601b83612410565b9150612827826127e6565b602082019050919050565b6000602082019050818103600083015261284b8161280f565b9050919050565b7f4f776e61626c653a2063616c6c6572206973206e6f7420746865206f776e6572600082015250565b6000612888602083612410565b915061289382612852565b602082019050919050565b600060208201905081810360008301526128b78161287b565b9050919050565b7f4865726f4d616e616765723a2063616c6c61626c65206279206c6f626279206260008201527f6174746c65206f6e6c7900000000000000000000000000000000000000000000602082015250565b600061291a602a83612410565b9150612925826128be565b604082019050919050565b600060208201905081810360008301526129498161290d565b9050919050565b7f4e487b7100000000000000000000000000000000000000000000000000000000600052603260045260246000fd5b600061298a82611dbb565b915060ff82141561299e5761299d6124f9565b5b600182019050919050565b600081356129b681611df2565b80915050919050565b60008160001b9050919050565b600060ff6129d9846129bf565b9350801983169250808416831791505092915050565b6000612a0a612a05612a0084611dbb565b611ee9565b611dbb565b9050919050565b6000819050919050565b612a24826129ef565b612a37612a3082612a11565b83546129cc565b8255505050565b60008160081b9050919050565b600061ff00612a5984612a3e565b9350801983169250808416831791505092915050565b612a78826129ef565b612a8b612a8482612a11565b8354612a4b565b8255505050565b60008160101b9050919050565b600062ff0000612aae84612a92565b9350801983169250808416831791505092915050565b612acd826129ef565b612ae0612ad982612a11565b8354612a9f565b8255505050565b60008160181b9050919050565b600063ff000000612b0484612ae7565b9350801983169250808416831791505092915050565b612b23826129ef565b612b36612b2f82612a11565b8354612af4565b8255505050565b60008160201b9050919050565b600064ff00000000612b5b84612b3d565b9350801983169250808416831791505092915050565b612b7a826129ef565b612b8d612b8682612a11565b8354612b4a565b8255505050565b60008160281b9050919050565b600065ff0000000000612bb384612b94565b9350801983169250808416831791505092915050565b612bd2826129ef565b612be5612bde82612a11565b8354612ba1565b8255505050565b60008160301b9050919050565b600066ff000000000000612c0c84612bec565b9350801983169250808416831791505092915050565b612c2b826129ef565b612c3e612c3782612a11565b8354612bf9565b8255505050565b60008160381b9050919050565b600067ff00000000000000612c6684612c45565b9350801983169250808416831791505092915050565b612c85826129ef565b612c98612c9182612a11565b8354612c52565b8255505050565b60008160401b9050919050565b600068ff0000000000000000612cc184612c9f565b9350801983169250808416831791505092915050565b612ce0826129ef565b612cf3612cec82612a11565b8354612cac565b8255505050565b600081016000830180612d0c816129a9565b9050612d188184612a1b565b505050600081016020830180612d2d816129a9565b9050612d398184612a6f565b505050600081016040830180612d4e816129a9565b9050612d5a8184612ac4565b505050600081016060830180612d6f816129a9565b9050612d7b8184612b1a565b505050600081016080830180612d90816129a9565b9050612d9c8184612b71565b5050506000810160a0830180612db1816129a9565b9050612dbd8184612bc9565b5050506000810160c0830180612dd2816129a9565b9050612dde8184612c22565b5050506000810160e0830180612df3816129a9565b9050612dff8184612c7c565b50505060008101610100830180612e15816129a9565b9050612e218184612cd7565b5050505050565b612e328282612cfa565b5050565b6000819050919050565b612e51612e4c82611d24565b612e36565b82525050565b60008160601b9050919050565b6000612e6f82612e57565b9050919050565b6000612e8182612e64565b9050919050565b612e99612e9482611e7e565b612e76565b82525050565b6000612eab8286612e40565b602082019150612ebb8285612e40565b602082019150612ecb8284612e88565b601482019150819050949350505050565b6000612ee782611d24565b9150612ef283611d24565b925082821015612f0557612f046124f9565b5b828203905092915050565b6000612f1b82611d24565b9150612f2683611d24565b925082612f3657612f356126ea565b5b828206905092915050565b7f4e487b7100000000000000000000000000000000000000000000000000000000600052604160045260246000fd5b600080fd5b600080fd5b600080fd5b60008083356001602003843603038112612f9c57612f9b612f70565b5b80840192508235915067ffffffffffffffff821115612fbe57612fbd612f75565b5b602083019250600182023603831315612fda57612fd9612f7a565b5b509250929050565b6000612fed82611d24565b91507fffffffffffffffffffffffffffffffffffffffffffffffffffffffffffffffff8214156130205761301f6124f9565b5b600182019050919050565b7f4f776e61626c653a206e6577206f776e657220697320746865207a65726f206160008201527f6464726573730000000000000000000000000000000000000000000000000000602082015250565b6000613087602683612410565b91506130928261302b565b604082019050919050565b600060208201905081810360008301526130b68161307a565b9050919050565b7f416464726573733a2064656c65676174652063616c6c20746f206e6f6e2d636f60008201527f6e74726163740000000000000000000000000000000000000000000000000000602082015250565b6000613119602683612410565b9150613124826130bd565b604082019050919050565b600060208201905081810360008301526131488161310c565b9050919050565b600081905092915050565b600061316582612241565b61316f818561314f565b935061317f81856020860161225d565b80840191505092915050565b6000613197828461315a565b915081905092915050565b600081519050919050565b60006131b8826131a2565b6131c28185612410565b93506131d281856020860161225d565b6131db81612290565b840191505092915050565b6000602082019050818103600083015261320081846131ad565b90509291505056fe416464726573733a206c6f772d6c6576656c2064656c65676174652063616c6c206661696c6564a264697066735822122020163ddabd3f5696429b00f32413fe2c1d6c328d2cde7f5a96f4677b67c8c04364736f6c63430008090033",
  "linkReferences": {},
  "deployedLinkReferences": {}
}