{
  "_format": "hh-sol-artifact-1",
  "contractName": "HeroInfinityToken",
  "sourceName": "contracts/HeroInfinityToken.sol",
  "abi": [
    {
      "inputs": [],
      "stateMutability": "nonpayable",
      "type": "constructor"
    },
    {
      "anonymous": false,
      "inputs": [
        {
          "indexed": true,
          "internalType": "address",
          "name": "owner",
          "type": "address"
        },
        {
          "indexed": true,
          "internalType": "address",
          "name": "spender",
          "type": "address"
        },
        {
          "indexed": false,
          "internalType": "uint256",
          "name": "value",
          "type": "uint256"
        }
      ],
      "name": "Approval",
      "type": "event"
    },
    {
      "anonymous": false,
      "inputs": [
        {
          "indexed": true,
          "internalType": "address",
          "name": "newWallet",
          "type": "address"
        },
        {
          "indexed": true,
          "internalType": "address",
          "name": "oldWallet",
          "type": "address"
        }
      ],
      "name": "DevWalletUpdated",
      "type": "event"
    },
    {
      "anonymous": false,
      "inputs": [
        {
          "indexed": true,
          "internalType": "address",
          "name": "account",
          "type": "address"
        },
        {
          "indexed": false,
          "internalType": "bool",
          "name": "isExcluded",
          "type": "bool"
        }
      ],
      "name": "ExcludeFromFees",
      "type": "event"
    },
    {
      "anonymous": false,
      "inputs": [
        {
          "indexed": true,
          "internalType": "address",
          "name": "newWallet",
          "type": "address"
        },
        {
          "indexed": true,
          "internalType": "address",
          "name": "oldWallet",
          "type": "address"
        }
      ],
      "name": "LiquidityWalletUpdated",
      "type": "event"
    },
    {
      "anonymous": false,
      "inputs": [
        {
          "indexed": true,
          "internalType": "address",
          "name": "newWallet",
          "type": "address"
        },
        {
          "indexed": true,
          "internalType": "address",
          "name": "oldWallet",
          "type": "address"
        }
      ],
      "name": "MarketingWalletUpdated",
      "type": "event"
    },
    {
      "anonymous": false,
      "inputs": [
        {
          "indexed": false,
          "internalType": "uint256",
          "name": "timestamp",
          "type": "uint256"
        }
      ],
      "name": "OwnerForcedSwapBack",
      "type": "event"
    },
    {
      "anonymous": false,
      "inputs": [
        {
          "indexed": true,
          "internalType": "address",
          "name": "previousOwner",
          "type": "address"
        },
        {
          "indexed": true,
          "internalType": "address",
          "name": "newOwner",
          "type": "address"
        }
      ],
      "name": "OwnershipTransferred",
      "type": "event"
    },
    {
      "anonymous": false,
      "inputs": [
        {
          "indexed": true,
          "internalType": "address",
          "name": "pair",
          "type": "address"
        },
        {
          "indexed": true,
          "internalType": "bool",
          "name": "value",
          "type": "bool"
        }
      ],
      "name": "SetAutomatedMarketMakerPair",
      "type": "event"
    },
    {
      "anonymous": false,
      "inputs": [
        {
          "indexed": false,
          "internalType": "uint256",
          "name": "tokensSwapped",
          "type": "uint256"
        },
        {
          "indexed": false,
          "internalType": "uint256",
          "name": "ethReceived",
          "type": "uint256"
        },
        {
          "indexed": false,
          "internalType": "uint256",
          "name": "tokensIntoLiquidity",
          "type": "uint256"
        }
      ],
      "name": "SwapAndLiquify",
      "type": "event"
    },
    {
      "anonymous": false,
      "inputs": [
        {
          "indexed": true,
          "internalType": "address",
          "name": "from",
          "type": "address"
        },
        {
          "indexed": true,
          "internalType": "address",
          "name": "to",
          "type": "address"
        },
        {
          "indexed": false,
          "internalType": "uint256",
          "name": "value",
          "type": "uint256"
        }
      ],
      "name": "Transfer",
      "type": "event"
    },
    {
      "anonymous": false,
      "inputs": [
        {
          "indexed": true,
          "internalType": "address",
          "name": "newAddress",
          "type": "address"
        },
        {
          "indexed": true,
          "internalType": "address",
          "name": "oldAddress",
          "type": "address"
        }
      ],
      "name": "UpdateUniswapV2Router",
      "type": "event"
    },
    {
      "inputs": [
        {
          "internalType": "address",
          "name": "",
          "type": "address"
        }
      ],
      "name": "_isExcludedMaxTransactionAmount",
      "outputs": [
        {
          "internalType": "bool",
          "name": "",
          "type": "bool"
        }
      ],
      "stateMutability": "view",
      "type": "function"
    },
    {
      "inputs": [
        {
          "internalType": "address",
          "name": "newOwner",
          "type": "address"
        },
        {
          "internalType": "address",
          "name": "router",
          "type": "address"
        },
        {
          "internalType": "uint256",
          "name": "liquidityAmount",
          "type": "uint256"
        },
        {
          "internalType": "uint256",
          "name": "airdropAmount",
          "type": "uint256"
        },
        {
          "internalType": "uint256",
          "name": "dailyThreshold",
          "type": "uint256"
        },
        {
          "internalType": "address[]",
          "name": "airdropUsers",
          "type": "address[]"
        },
        {
          "internalType": "uint256[]",
          "name": "airdropAmounts",
          "type": "uint256[]"
        }
      ],
      "name": "airdropAndLaunch",
      "outputs": [],
      "stateMutability": "payable",
      "type": "function"
    },
    {
      "inputs": [
        {
          "internalType": "address",
          "name": "owner",
          "type": "address"
        },
        {
          "internalType": "address",
          "name": "spender",
          "type": "address"
        }
      ],
      "name": "allowance",
      "outputs": [
        {
          "internalType": "uint256",
          "name": "",
          "type": "uint256"
        }
      ],
      "stateMutability": "view",
      "type": "function"
    },
    {
      "inputs": [
        {
          "internalType": "address",
          "name": "spender",
          "type": "address"
        },
        {
          "internalType": "uint256",
          "name": "amount",
          "type": "uint256"
        }
      ],
      "name": "approve",
      "outputs": [
        {
          "internalType": "bool",
          "name": "",
          "type": "bool"
        }
      ],
      "stateMutability": "nonpayable",
      "type": "function"
    },
    {
      "inputs": [
        {
          "internalType": "address",
          "name": "",
          "type": "address"
        }
      ],
      "name": "automatedMarketMakerPairs",
      "outputs": [
        {
          "internalType": "bool",
          "name": "",
          "type": "bool"
        }
      ],
      "stateMutability": "view",
      "type": "function"
    },
    {
      "inputs": [
        {
          "internalType": "address",
          "name": "account",
          "type": "address"
        }
      ],
      "name": "balanceOf",
      "outputs": [
        {
          "internalType": "uint256",
          "name": "",
          "type": "uint256"
        }
      ],
      "stateMutability": "view",
      "type": "function"
    },
    {
      "inputs": [],
      "name": "buyDevFee",
      "outputs": [
        {
          "internalType": "uint256",
          "name": "",
          "type": "uint256"
        }
      ],
      "stateMutability": "view",
      "type": "function"
    },
    {
      "inputs": [],
      "name": "buyLiquidityFee",
      "outputs": [
        {
          "internalType": "uint256",
          "name": "",
          "type": "uint256"
        }
      ],
      "stateMutability": "view",
      "type": "function"
    },
    {
      "inputs": [],
      "name": "buyMarketingFee",
      "outputs": [
        {
          "internalType": "uint256",
          "name": "",
          "type": "uint256"
        }
      ],
      "stateMutability": "view",
      "type": "function"
    },
    {
      "inputs": [],
      "name": "buyTotalFees",
      "outputs": [
        {
          "internalType": "uint256",
          "name": "",
          "type": "uint256"
        }
      ],
      "stateMutability": "view",
      "type": "function"
    },
    {
      "inputs": [],
      "name": "decimals",
      "outputs": [
        {
          "internalType": "uint8",
          "name": "",
          "type": "uint8"
        }
      ],
      "stateMutability": "view",
      "type": "function"
    },
    {
      "inputs": [
        {
          "internalType": "address",
          "name": "spender",
          "type": "address"
        },
        {
          "internalType": "uint256",
          "name": "subtractedValue",
          "type": "uint256"
        }
      ],
      "name": "decreaseAllowance",
      "outputs": [
        {
          "internalType": "bool",
          "name": "",
          "type": "bool"
        }
      ],
      "stateMutability": "nonpayable",
      "type": "function"
    },
    {
      "inputs": [],
      "name": "devWallet",
      "outputs": [
        {
          "internalType": "address",
          "name": "",
          "type": "address"
        }
      ],
      "stateMutability": "view",
      "type": "function"
    },
    {
      "inputs": [],
      "name": "disableTransferDelay",
      "outputs": [
        {
          "internalType": "bool",
          "name": "",
          "type": "bool"
        }
      ],
      "stateMutability": "nonpayable",
      "type": "function"
    },
    {
      "inputs": [
        {
          "internalType": "address",
          "name": "account",
          "type": "address"
        },
        {
          "internalType": "bool",
          "name": "excluded",
          "type": "bool"
        }
      ],
      "name": "excludeFromFees",
      "outputs": [],
      "stateMutability": "nonpayable",
      "type": "function"
    },
    {
      "inputs": [
        {
          "internalType": "address",
          "name": "updAds",
          "type": "address"
        },
        {
          "internalType": "bool",
          "name": "isEx",
          "type": "bool"
        }
      ],
      "name": "excludeFromMaxTransaction",
      "outputs": [],
      "stateMutability": "nonpayable",
      "type": "function"
    },
    {
      "inputs": [],
      "name": "forceSwapBack",
      "outputs": [],
      "stateMutability": "nonpayable",
      "type": "function"
    },
    {
      "inputs": [
        {
          "internalType": "address",
          "name": "spender",
          "type": "address"
        },
        {
          "internalType": "uint256",
          "name": "addedValue",
          "type": "uint256"
        }
      ],
      "name": "increaseAllowance",
      "outputs": [
        {
          "internalType": "bool",
          "name": "",
          "type": "bool"
        }
      ],
      "stateMutability": "nonpayable",
      "type": "function"
    },
    {
      "inputs": [
        {
          "internalType": "address",
          "name": "account",
          "type": "address"
        }
      ],
      "name": "isExcludedFromFees",
      "outputs": [
        {
          "internalType": "bool",
          "name": "",
          "type": "bool"
        }
      ],
      "stateMutability": "view",
      "type": "function"
    },
    {
      "inputs": [],
      "name": "launchTime",
      "outputs": [
        {
          "internalType": "uint256",
          "name": "",
          "type": "uint256"
        }
      ],
      "stateMutability": "view",
      "type": "function"
    },
    {
      "inputs": [],
      "name": "limitsInEffect",
      "outputs": [
        {
          "internalType": "bool",
          "name": "",
          "type": "bool"
        }
      ],
      "stateMutability": "view",
      "type": "function"
    },
    {
      "inputs": [],
      "name": "liquidityWallet",
      "outputs": [
        {
          "internalType": "address",
          "name": "",
          "type": "address"
        }
      ],
      "stateMutability": "view",
      "type": "function"
    },
    {
      "inputs": [],
      "name": "marketingWallet",
      "outputs": [
        {
          "internalType": "address",
          "name": "",
          "type": "address"
        }
      ],
      "stateMutability": "view",
      "type": "function"
    },
    {
      "inputs": [],
      "name": "maxTransactionAmount",
      "outputs": [
        {
          "internalType": "uint256",
          "name": "",
          "type": "uint256"
        }
      ],
      "stateMutability": "view",
      "type": "function"
    },
    {
      "inputs": [],
      "name": "maxWallet",
      "outputs": [
        {
          "internalType": "uint256",
          "name": "",
          "type": "uint256"
        }
      ],
      "stateMutability": "view",
      "type": "function"
    },
    {
      "inputs": [],
      "name": "name",
      "outputs": [
        {
          "internalType": "string",
          "name": "",
          "type": "string"
        }
      ],
      "stateMutability": "view",
      "type": "function"
    },
    {
      "inputs": [],
      "name": "owner",
      "outputs": [
        {
          "internalType": "address",
          "name": "",
          "type": "address"
        }
      ],
      "stateMutability": "view",
      "type": "function"
    },
    {
      "inputs": [],
      "name": "removeLimits",
      "outputs": [
        {
          "internalType": "bool",
          "name": "",
          "type": "bool"
        }
      ],
      "stateMutability": "nonpayable",
      "type": "function"
    },
    {
      "inputs": [],
      "name": "renounceOwnership",
      "outputs": [],
      "stateMutability": "nonpayable",
      "type": "function"
    },
    {
      "inputs": [],
      "name": "sellDevFee",
      "outputs": [
        {
          "internalType": "uint256",
          "name": "",
          "type": "uint256"
        }
      ],
      "stateMutability": "view",
      "type": "function"
    },
    {
      "inputs": [],
      "name": "sellLiquidityFee",
      "outputs": [
        {
          "internalType": "uint256",
          "name": "",
          "type": "uint256"
        }
      ],
      "stateMutability": "view",
      "type": "function"
    },
    {
      "inputs": [],
      "name": "sellMarketingFee",
      "outputs": [
        {
          "internalType": "uint256",
          "name": "",
          "type": "uint256"
        }
      ],
      "stateMutability": "view",
      "type": "function"
    },
    {
      "inputs": [],
      "name": "sellTotalFees",
      "outputs": [
        {
          "internalType": "uint256",
          "name": "",
          "type": "uint256"
        }
      ],
      "stateMutability": "view",
      "type": "function"
    },
    {
      "inputs": [
        {
          "internalType": "address",
          "name": "pair",
          "type": "address"
        },
        {
          "internalType": "bool",
          "name": "value",
          "type": "bool"
        }
      ],
      "name": "setAutomatedMarketMakerPair",
      "outputs": [],
      "stateMutability": "nonpayable",
      "type": "function"
    },
    {
      "inputs": [],
      "name": "swapEnabled",
      "outputs": [
        {
          "internalType": "bool",
          "name": "",
          "type": "bool"
        }
      ],
      "stateMutability": "view",
      "type": "function"
    },
    {
      "inputs": [],
      "name": "swapTokensAtAmount",
      "outputs": [
        {
          "internalType": "uint256",
          "name": "",
          "type": "uint256"
        }
      ],
      "stateMutability": "view",
      "type": "function"
    },
    {
      "inputs": [],
      "name": "symbol",
      "outputs": [
        {
          "internalType": "string",
          "name": "",
          "type": "string"
        }
      ],
      "stateMutability": "view",
      "type": "function"
    },
    {
      "inputs": [],
      "name": "tokensForDev",
      "outputs": [
        {
          "internalType": "uint256",
          "name": "",
          "type": "uint256"
        }
      ],
      "stateMutability": "view",
      "type": "function"
    },
    {
      "inputs": [],
      "name": "tokensForLiquidity",
      "outputs": [
        {
          "internalType": "uint256",
          "name": "",
          "type": "uint256"
        }
      ],
      "stateMutability": "view",
      "type": "function"
    },
    {
      "inputs": [],
      "name": "tokensForMarketing",
      "outputs": [
        {
          "internalType": "uint256",
          "name": "",
          "type": "uint256"
        }
      ],
      "stateMutability": "view",
      "type": "function"
    },
    {
      "inputs": [],
      "name": "totalSupply",
      "outputs": [
        {
          "internalType": "uint256",
          "name": "",
          "type": "uint256"
        }
      ],
      "stateMutability": "view",
      "type": "function"
    },
    {
      "inputs": [],
      "name": "tradingActive",
      "outputs": [
        {
          "internalType": "bool",
          "name": "",
          "type": "bool"
        }
      ],
      "stateMutability": "view",
      "type": "function"
    },
    {
      "inputs": [
        {
          "internalType": "address",
          "name": "to",
          "type": "address"
        },
        {
          "internalType": "uint256",
          "name": "amount",
          "type": "uint256"
        }
      ],
      "name": "transfer",
      "outputs": [
        {
          "internalType": "bool",
          "name": "",
          "type": "bool"
        }
      ],
      "stateMutability": "nonpayable",
      "type": "function"
    },
    {
      "inputs": [],
      "name": "transferDelayEnabled",
      "outputs": [
        {
          "internalType": "bool",
          "name": "",
          "type": "bool"
        }
      ],
      "stateMutability": "view",
      "type": "function"
    },
    {
      "inputs": [
        {
          "internalType": "address",
          "name": "from",
          "type": "address"
        },
        {
          "internalType": "address",
          "name": "to",
          "type": "address"
        },
        {
          "internalType": "uint256",
          "name": "amount",
          "type": "uint256"
        }
      ],
      "name": "transferFrom",
      "outputs": [
        {
          "internalType": "bool",
          "name": "",
          "type": "bool"
        }
      ],
      "stateMutability": "nonpayable",
      "type": "function"
    },
    {
      "inputs": [
        {
          "internalType": "address",
          "name": "newOwner",
          "type": "address"
        }
      ],
      "name": "transferOwnership",
      "outputs": [],
      "stateMutability": "nonpayable",
      "type": "function"
    },
    {
      "inputs": [],
      "name": "uniswapV2Pair",
      "outputs": [
        {
          "internalType": "address",
          "name": "",
          "type": "address"
        }
      ],
      "stateMutability": "view",
      "type": "function"
    },
    {
      "inputs": [],
      "name": "uniswapV2Router",
      "outputs": [
        {
          "internalType": "contract IUniswapV2Router02",
          "name": "",
          "type": "address"
        }
      ],
      "stateMutability": "view",
      "type": "function"
    },
    {
      "inputs": [
        {
          "internalType": "uint256",
          "name": "_marketingFee",
          "type": "uint256"
        },
        {
          "internalType": "uint256",
          "name": "_liquidityFee",
          "type": "uint256"
        },
        {
          "internalType": "uint256",
          "name": "_devFee",
          "type": "uint256"
        }
      ],
      "name": "updateBuyFees",
      "outputs": [],
      "stateMutability": "nonpayable",
      "type": "function"
    },
    {
      "inputs": [
        {
          "internalType": "address",
          "name": "newDevWallet",
          "type": "address"
        }
      ],
      "name": "updateDevWallet",
      "outputs": [],
      "stateMutability": "nonpayable",
      "type": "function"
    },
    {
      "inputs": [
        {
          "internalType": "address",
          "name": "newMarketingWallet",
          "type": "address"
        }
      ],
      "name": "updateMarketingWallet",
      "outputs": [],
      "stateMutability": "nonpayable",
      "type": "function"
    },
    {
      "inputs": [
        {
          "internalType": "uint256",
          "name": "newNum",
          "type": "uint256"
        }
      ],
      "name": "updateMaxAmount",
      "outputs": [],
      "stateMutability": "nonpayable",
      "type": "function"
    },
    {
      "inputs": [
        {
          "internalType": "uint256",
          "name": "_marketingFee",
          "type": "uint256"
        },
        {
          "internalType": "uint256",
          "name": "_liquidityFee",
          "type": "uint256"
        },
        {
          "internalType": "uint256",
          "name": "_devFee",
          "type": "uint256"
        }
      ],
      "name": "updateSellFees",
      "outputs": [],
      "stateMutability": "nonpayable",
      "type": "function"
    },
    {
      "inputs": [
        {
          "internalType": "bool",
          "name": "enabled",
          "type": "bool"
        }
      ],
      "name": "updateSwapEnabled",
      "outputs": [],
      "stateMutability": "nonpayable",
      "type": "function"
    },
    {
      "inputs": [
        {
          "internalType": "uint256",
          "name": "newAmount",
          "type": "uint256"
        }
      ],
      "name": "updateSwapTokensAtAmount",
      "outputs": [
        {
          "internalType": "bool",
          "name": "",
          "type": "bool"
        }
      ],
      "stateMutability": "nonpayable",
      "type": "function"
    },
    {
      "inputs": [
        {
          "internalType": "address",
          "name": "newWallet",
          "type": "address"
        }
      ],
      "name": "updateliquidityWallet",
      "outputs": [],
      "stateMutability": "nonpayable",
      "type": "function"
    },
    {
      "inputs": [
        {
          "internalType": "address",
          "name": "_recipient",
          "type": "address"
        }
      ],
      "name": "withdrawDustETH",
      "outputs": [],
      "stateMutability": "nonpayable",
      "type": "function"
    },
    {
      "inputs": [
        {
          "internalType": "address",
          "name": "_token",
          "type": "address"
        },
        {
          "internalType": "address",
          "name": "_to",
          "type": "address"
        }
      ],
      "name": "withdrawDustToken",
      "outputs": [
        {
          "internalType": "bool",
          "name": "_sent",
          "type": "bool"
        }
      ],
      "stateMutability": "nonpayable",
      "type": "function"
    },
    {
      "stateMutability": "payable",
      "type": "receive"
    }
  ],
  "bytecode": "0x6080604052600f805463ffffffff1916630100000117905564829e34aa006010556014805460ff191660011790553480156200003a57600080fd5b50604051806040016040528060128152602001712432b937a4b73334b734ba3c902a37b5b2b760711b8152506040518060400160405280600381526020016248524960e81b81525081600390805190602001906200009a92919062000129565b508051620000b090600490602084019062000129565b505050620000cd620000c7620000d360201b60201c565b620000d7565b6200020c565b3390565b600580546001600160a01b038381166001600160a01b0319831681179093556040519116919082907f8be0079c531659141344cd1fd0a4f28419497f9722a3daafe3b4186f6b6457e090600090a35050565b8280546200013790620001cf565b90600052602060002090601f0160209004810192826200015b5760008555620001a6565b82601f106200017657805160ff1916838001178555620001a6565b82800160010185558215620001a6579182015b82811115620001a657825182559160200191906001019062000189565b50620001b4929150620001b8565b5090565b5b80821115620001b45760008155600101620001b9565b600181811c90821680620001e457607f821691505b602082108114156200020657634e487b7160e01b600052602260045260246000fd5b50919050565b613872806200021c6000396000f3fe6080604052600436106103855760003560e01c806392136913116101d1578063c17b5b8c11610102578063e2f45605116100a0578063f2fde38b1161006f578063f2fde38b14610a0e578063f4a2c16f14610a2e578063f637434214610a4e578063f8b45b0514610a6457600080fd5b8063e2f45605146109ad578063e393c294146109c3578063e884f260146109e3578063f11a24d3146109f857600080fd5b8063d257b34f116100dc578063d257b34f14610911578063d469801614610931578063d85ba06314610951578063dd62ed3e1461096757600080fd5b8063c17b5b8c146108c1578063c876d0b9146108e1578063c8c8ebe4146108fb57600080fd5b8063a0d82dc51161016f578063aacebbe311610149578063aacebbe314610832578063b62496f514610852578063bbc0c74214610882578063c0246668146108a157600080fd5b8063a0d82dc5146107dc578063a457c2d7146107f2578063a9059cbb1461081257600080fd5b806395d89b41116101ab57806395d89b411461077b5780639a7a23d6146107905780639c3b4fdc146107b05780639fccce32146107c657600080fd5b80639213691314610725578063924de9b71461073b57806392aa37731461075b57600080fd5b80634fbee193116102b6578063751039fc116102545780637bce5a04116102235780637bce5a04146106b15780638095d564146106c75780638da5cb5b146106e75780638ea5220f1461070557600080fd5b8063751039fc146106465780637571336a1461065b57806375f0a8741461067b578063790ca4131461069b57600080fd5b80636d5e9b40116102905780636d5e9b40146105de5780636ddd1713146105f157806370a0823114610611578063715018a61461063157600080fd5b80634fbee1931461057b57806351f205e4146105b35780636a486a8e146105c857600080fd5b80631a8145bb11610323578063313ce567116102fd578063313ce56714610505578063395093511461052157806349bd5a5e146105415780634a62bb651461056157600080fd5b80631a8145bb146104b95780631f3fed8f146104cf57806323b872dd146104e557600080fd5b806310d5de531161035f57806310d5de531461040e5780631694505e1461043e57806318160ddd146104765780631816467f1461049957600080fd5b806306fdde0314610391578063095ea7b3146103bc578063106b5da1146103ec57600080fd5b3661038c57005b600080fd5b34801561039d57600080fd5b506103a6610a7a565b6040516103b391906131f4565b60405180910390f35b3480156103c857600080fd5b506103dc6103d736600461325e565b610a9e565b60405190151581526020016103b3565b3480156103f857600080fd5b5061040c61040736600461328a565b610ab6565b005b34801561041a57600080fd5b506103dc6104293660046132a3565b60216020526000908152604090205460ff1681565b34801561044a57600080fd5b5060065461045e906001600160a01b031681565b6040516001600160a01b0390911681526020016103b3565b34801561048257600080fd5b5061048b610b9b565b6040519081526020016103b3565b3480156104a557600080fd5b5061040c6104b43660046132a3565b610ba6565b3480156104c557600080fd5b5061048b601e5481565b3480156104db57600080fd5b5061048b601d5481565b3480156104f157600080fd5b506103dc6105003660046132c0565b610c2d565b34801561051157600080fd5b50604051601281526020016103b3565b34801561052d57600080fd5b506103dc61053c36600461325e565b610c51565b34801561054d57600080fd5b5060075461045e906001600160a01b031681565b34801561056d57600080fd5b50600f546103dc9060ff1681565b34801561058757600080fd5b506103dc6105963660046132a3565b6001600160a01b0316600090815260208052604090205460ff1690565b3480156105bf57600080fd5b5061040c610c90565b3480156105d457600080fd5b5061048b60195481565b61040c6105ec3660046133d7565b610d8e565b3480156105fd57600080fd5b50600f546103dc9062010000900460ff1681565b34801561061d57600080fd5b5061048b61062c3660046132a3565b611499565b34801561063d57600080fd5b5061040c6114b4565b34801561065257600080fd5b506103dc6114ea565b34801561066757600080fd5b5061040c6106763660046134eb565b611534565b34801561068757600080fd5b5060095461045e906001600160a01b031681565b3480156106a757600080fd5b5061048b60085481565b3480156106bd57600080fd5b5061048b60165481565b3480156106d357600080fd5b5061040c6106e2366004613524565b611589565b3480156106f357600080fd5b506005546001600160a01b031661045e565b34801561071157600080fd5b50600a5461045e906001600160a01b031681565b34801561073157600080fd5b5061048b601a5481565b34801561074757600080fd5b5061040c610756366004613550565b611631565b34801561076757600080fd5b5061040c6107763660046132a3565b611677565b34801561078757600080fd5b506103a66116fe565b34801561079c57600080fd5b5061040c6107ab3660046134eb565b61171d565b3480156107bc57600080fd5b5061048b60185481565b3480156107d257600080fd5b5061048b601f5481565b3480156107e857600080fd5b5061048b601c5481565b3480156107fe57600080fd5b506103dc61080d36600461325e565b6117d9565b34801561081e57600080fd5b506103dc61082d36600461325e565b61186b565b34801561083e57600080fd5b5061040c61084d3660046132a3565b611879565b34801561085e57600080fd5b506103dc61086d3660046132a3565b60226020526000908152604090205460ff1681565b34801561088e57600080fd5b50600f546103dc90610100900460ff1681565b3480156108ad57600080fd5b5061040c6108bc3660046134eb565b611900565b3480156108cd57600080fd5b5061040c6108dc366004613524565b611987565b3480156108ed57600080fd5b506014546103dc9060ff1681565b34801561090757600080fd5b5061048b600c5481565b34801561091d57600080fd5b506103dc61092c36600461328a565b611a32565b34801561093d57600080fd5b50600b5461045e906001600160a01b031681565b34801561095d57600080fd5b5061048b60155481565b34801561097357600080fd5b5061048b61098236600461356d565b6001600160a01b03918216600090815260016020908152604080832093909416825291909152205490565b3480156109b957600080fd5b5061048b600d5481565b3480156109cf57600080fd5b5061040c6109de3660046132a3565b611b82565b3480156109ef57600080fd5b506103dc611c75565b348015610a0457600080fd5b5061048b60175481565b348015610a1a57600080fd5b5061040c610a293660046132a3565b611cb2565b348015610a3a57600080fd5b506103dc610a4936600461356d565b611d4d565b348015610a5a57600080fd5b5061048b601b5481565b348015610a7057600080fd5b5061048b600e5481565b600f54606090610100900460ff16610a9157600080fd5b610a99611e82565b905090565b600033610aac818585611f14565b5060019392505050565b6005546001600160a01b03163314610ae95760405162461bcd60e51b8152600401610ae09061359b565b60405180910390fd5b670de0b6b3a76400006103e8610afd610b9b565b610b089060056135e6565b610b129190613605565b610b1c9190613605565b811015610b835760405162461bcd60e51b815260206004820152602f60248201527f43616e6e6f7420736574206d61785472616e73616374696f6e416d6f756e742060448201526e6c6f776572207468616e20302e352560881b6064820152608401610ae0565b610b9581670de0b6b3a76400006135e6565b600c5550565b6000610a9960025490565b6005546001600160a01b03163314610bd05760405162461bcd60e51b8152600401610ae09061359b565b600a546040516001600160a01b03918216918316907f0db17895a9d092fb3ca24d626f2150dd80c185b0706b36f1040ee239f56cb87190600090a3600a80546001600160a01b0319166001600160a01b0392909216919091179055565b600033610c3b858285612038565b610c468585856120ca565b506001949350505050565b3360008181526001602090815260408083206001600160a01b0387168452909152812054909190610aac9082908690610c8b908790613627565b611f14565b6005546001600160a01b03163314610cba5760405162461bcd60e51b8152600401610ae09061359b565b6000610cc530611499565b90506064610cd1610b9b565b610cdb9190613605565b811015610d505760405162461bcd60e51b815260206004820152603e60248201527f43616e206f6e6c792073776170206261636b206966206d6f7265207468616e2060448201527f3125206f6620746f6b656e7320737475636b206f6e20636f6e747261637400006064820152608401610ae0565b610d586128b2565b6040514281527f1b56c383f4f48fc992e45667ea4eabae777b9cca68b516a9562d8cda78f1bb329060200160405180910390a150565b6005546001600160a01b03163314610db85760405162461bcd60e51b8152600401610ae09061359b565b600f54610100900460ff1615610e105760405162461bcd60e51b815260206004820152601a60248201527f54726164696e6720697320616c726561647920656e61626c65640000000000006044820152606401610ae0565b8051825114610e555760405162461bcd60e51b8152602060048201526011602482015270496e76616c696420617267756d656e747360781b6044820152606401610ae0565b85610e61816001611534565b600680546001600160a01b0319166001600160a01b0383169081179091556040805163c45a015560e01b8152905163c45a015591600480820192602092909190829003018186803b158015610eb557600080fd5b505afa158015610ec9573d6000803e3d6000fd5b505050506040513d601f19601f82011682018060405250810190610eed919061363f565b6001600160a01b031663c9c6539630836001600160a01b031663ad5c46486040518163ffffffff1660e01b815260040160206040518083038186803b158015610f3557600080fd5b505afa158015610f49573d6000803e3d6000fd5b505050506040513d601f19601f82011682018060405250810190610f6d919061363f565b6040516001600160e01b031960e085901b1681526001600160a01b03928316600482015291166024820152604401602060405180830381600087803b158015610fb557600080fd5b505af1158015610fc9573d6000803e3d6000fd5b505050506040513d601f19601f82011682018060405250810190610fed919061363f565b600780546001600160a01b0319166001600160a01b03929092169182179055611017906001611534565b60075461102e906001600160a01b03166001612b2a565b6006600460026008600e60036b033b2e3c9fd0803ce80000006127106110558260056135e6565b61105f9190613605565b6110718c670de0b6b3a76400006135e6565b1161107b57600080fd5b60138b905561271061108e82601e6135e6565b6110989190613605565b600c556127106110a98260646135e6565b6110b39190613605565b600e556127106110c48260056135e6565b6110ce9190613605565b600d55601687905560178690556018859055846110eb8789613627565b6110f59190613627565b601555601a849055601b839055601c829055816111128486613627565b61111c9190613627565b6019819055508e600960006101000a8154816001600160a01b0302191690836001600160a01b031602179055508e600a60006101000a8154816001600160a01b0302191690836001600160a01b031602179055508e600b60006101000a8154816001600160a01b0302191690836001600160a01b031602179055506111b36111ac6005546001600160a01b031690565b6001611900565b6111be8f6001611900565b6111c9306001611900565b6111d661dead6001611900565b6111f26111eb6005546001600160a01b031690565b6001611534565b6111fd8f6001611534565b611208306001611534565b61121561dead6001611534565b6112303061122b8f670de0b6b3a76400006135e6565b612b7e565b6112508f6112468f670de0b6b3a76400006135e6565b61122b908461365c565b61126b6112658e670de0b6b3a76400006135e6565b34612c5d565b600754600090611285906001600160a01b03166001611900565b600f805460ff1916905560005b8b518110156113a05760008b82815181106112af576112af613673565b6020026020010151670de0b6b3a76400006112ca91906135e6565b905060008d83815181106112e0576112e0613673565b6020026020010151905060126000826001600160a01b03166001600160a01b03168152602001908152602001600020546000146113545760405162461bcd60e51b8152602060048201526012602482015271185a5c991c9bdc08191d5c1b1a58d85d195960721b6044820152606401610ae0565b61135e8285613627565b600754909450611378906001600160a01b031682846120ca565b6001600160a01b031660009081526012602052604090205561139981613689565b9050611292565b506007546113b8906001600160a01b03166000611900565b600f805460ff191660011790556113d78d670de0b6b3a76400006135e6565b811461141c5760405162461bcd60e51b815260206004820152601460248201527315dc9bdb99c8185a5c991c9bdc08185b5bdd5b9d60621b6044820152606401610ae0565b6007546040805160016209351760e01b0319815290516001600160a01b0390921691829163fff6cae991600480830192600092919082900301818387803b15801561146657600080fd5b505af115801561147a573d6000803e3d6000fd5b50505050611486612d20565b5050505050505050505050505050505050565b6001600160a01b031660009081526020819052604090205490565b6005546001600160a01b031633146114de5760405162461bcd60e51b8152600401610ae09061359b565b6114e86000612d8f565b565b6005546000906001600160a01b031633146115175760405162461bcd60e51b8152600401610ae09061359b565b50600f805463ff0000ff191690556014805460ff19169055600190565b6005546001600160a01b0316331461155e5760405162461bcd60e51b8152600401610ae09061359b565b6001600160a01b03919091166000908152602160205260409020805460ff1916911515919091179055565b6005546001600160a01b031633146115b35760405162461bcd60e51b8152600401610ae09061359b565b601683905560178290556018819055806115cd8385613627565b6115d79190613627565b60158190556019101561162c5760405162461bcd60e51b815260206004820181905260248201527f43616e6e6f74207365742062757920666565206d6f7265207468616e203235256044820152606401610ae0565b505050565b6005546001600160a01b0316331461165b5760405162461bcd60e51b8152600401610ae09061359b565b600f8054911515620100000262ff000019909216919091179055565b6005546001600160a01b031633146116a15760405162461bcd60e51b8152600401610ae09061359b565b600b546040516001600160a01b03918216918316907f6080503d1da552ae8eb4b7b8a20245d9fabed014180510e7d1a05ea08fdb0f3e90600090a3600b80546001600160a01b0319166001600160a01b0392909216919091179055565b600f54606090610100900460ff1661171557600080fd5b610a99612de1565b6005546001600160a01b031633146117475760405162461bcd60e51b8152600401610ae09061359b565b6007546001600160a01b03838116911614156117cb5760405162461bcd60e51b815260206004820152603960248201527f54686520706169722063616e6e6f742062652072656d6f7665642066726f6d2060448201527f6175746f6d617465644d61726b65744d616b65725061697273000000000000006064820152608401610ae0565b6117d58282612b2a565b5050565b3360008181526001602090815260408083206001600160a01b03871684529091528120549091908381101561185e5760405162461bcd60e51b815260206004820152602560248201527f45524332303a2064656372656173656420616c6c6f77616e63652062656c6f77604482015264207a65726f60d81b6064820152608401610ae0565b610c468286868403611f14565b600033610aac8185856120ca565b6005546001600160a01b031633146118a35760405162461bcd60e51b8152600401610ae09061359b565b6009546040516001600160a01b03918216918316907f8616c7a330e3cf61290821331585511f1e2778171e2b005fb5ec60cfe874dc6790600090a3600980546001600160a01b0319166001600160a01b0392909216919091179055565b6005546001600160a01b0316331461192a5760405162461bcd60e51b8152600401610ae09061359b565b6001600160a01b03821660008181526020808052604091829020805460ff191685151590811790915591519182527f9d8f7706ea1113d1a167b526eca956215946dd36cc7df39eb16180222d8b5df7910160405180910390a25050565b6005546001600160a01b031633146119b15760405162461bcd60e51b8152600401610ae09061359b565b601a839055601b829055601c819055806119cb8385613627565b6119d59190613627565b6019818155101561162c5760405162461bcd60e51b815260206004820152602160248201527f43616e6e6f74207365742073656c6c20666565206d6f7265207468616e2032356044820152602560f81b6064820152608401610ae0565b6005546000906001600160a01b03163314611a5f5760405162461bcd60e51b8152600401610ae09061359b565b620186a0611a6b610b9b565b611a769060016135e6565b611a809190613605565b821015611aed5760405162461bcd60e51b815260206004820152603560248201527f5377617020616d6f756e742063616e6e6f74206265206c6f776572207468616e60448201527410181718181892903a37ba30b61039bab838363c9760591b6064820152608401610ae0565b6103e8611af8610b9b565b611b039060056135e6565b611b0d9190613605565b821115611b795760405162461bcd60e51b815260206004820152603460248201527f5377617020616d6f756e742063616e6e6f742062652068696768657220746861604482015273371018171a92903a37ba30b61039bab838363c9760611b6064820152608401610ae0565b50600d55600190565b6005546001600160a01b03163314611bac5760405162461bcd60e51b8152600401610ae09061359b565b60405147906000906001600160a01b0384169083908381818185875af1925050503d8060008114611bf9576040519150601f19603f3d011682016040523d82523d6000602084013e611bfe565b606091505b505090508061162c5760405162461bcd60e51b815260206004820152603a60248201527f416464726573733a20756e61626c6520746f2073656e642076616c75652c207260448201527f6563697069656e74206d617920686176652072657665727465640000000000006064820152608401610ae0565b6005546000906001600160a01b03163314611ca25760405162461bcd60e51b8152600401610ae09061359b565b506014805460ff19169055600190565b6005546001600160a01b03163314611cdc5760405162461bcd60e51b8152600401610ae09061359b565b6001600160a01b038116611d415760405162461bcd60e51b815260206004820152602660248201527f4f776e61626c653a206e6577206f776e657220697320746865207a65726f206160448201526564647265737360d01b6064820152608401610ae0565b611d4a81612d8f565b50565b6005546000906001600160a01b03163314611d7a5760405162461bcd60e51b8152600401610ae09061359b565b6040516370a0823160e01b81523060048201526000906001600160a01b038516906370a082319060240160206040518083038186803b158015611dbc57600080fd5b505afa158015611dd0573d6000803e3d6000fd5b505050506040513d601f19601f82011682018060405250810190611df491906136a4565b60405163a9059cbb60e01b81526001600160a01b038581166004830152602482018390529192509085169063a9059cbb90604401602060405180830381600087803b158015611e4257600080fd5b505af1158015611e56573d6000803e3d6000fd5b505050506040513d601f19601f82011682018060405250810190611e7a91906136bd565b949350505050565b606060038054611e91906136da565b80601f0160208091040260200160405190810160405280929190818152602001828054611ebd906136da565b8015611f0a5780601f10611edf57610100808354040283529160200191611f0a565b820191906000526020600020905b815481529060010190602001808311611eed57829003601f168201915b5050505050905090565b6001600160a01b038316611f765760405162461bcd60e51b8152602060048201526024808201527f45524332303a20617070726f76652066726f6d20746865207a65726f206164646044820152637265737360e01b6064820152608401610ae0565b6001600160a01b038216611fd75760405162461bcd60e51b815260206004820152602260248201527f45524332303a20617070726f766520746f20746865207a65726f206164647265604482015261737360f01b6064820152608401610ae0565b6001600160a01b0383811660008181526001602090815260408083209487168084529482529182902085905590518481527f8c5be1e5ebec7d5bd14f71427d1e84f3dd0314c0f7b2291e5b200ac8c7c3b925910160405180910390a3505050565b6001600160a01b0383811660009081526001602090815260408083209386168352929052205460001981146120c457818110156120b75760405162461bcd60e51b815260206004820152601d60248201527f45524332303a20696e73756666696369656e7420616c6c6f77616e63650000006044820152606401610ae0565b6120c48484848403611f14565b50505050565b6001600160a01b0383166120f05760405162461bcd60e51b8152600401610ae090613715565b6001600160a01b0382166121165760405162461bcd60e51b8152600401610ae09061375a565b806121275761162c83836000612df0565b600f5460ff161561257a576005546001600160a01b0384811691161480159061215e57506005546001600160a01b03838116911614155b801561217257506001600160a01b03821615155b801561218957506001600160a01b03821661dead14155b801561219f5750600754600160a01b900460ff16155b1561257a57600f54610100900460ff16612235576001600160a01b038316600090815260208052604090205460ff16806121f057506001600160a01b038216600090815260208052604090205460ff165b6122355760405162461bcd60e51b81526020600482015260166024820152752a3930b234b7339034b9903737ba1030b1ba34bb329760511b6044820152606401610ae0565b60145460ff1615612334576005546001600160a01b0383811691161480159061226c57506006546001600160a01b03838116911614155b801561228657506007546001600160a01b03838116911614155b15612334573260009081526011602052604090205443116123215760405162461bcd60e51b815260206004820152604960248201527f5f7472616e736665723a3a205472616e736665722044656c617920656e61626c60448201527f65642e20204f6e6c79206f6e652070757263686173652070657220626c6f636b6064820152681030b63637bbb2b21760b91b608482015260a401610ae0565b3260009081526011602052604090204390555b6001600160a01b03831660009081526022602052604090205460ff16801561237557506001600160a01b03821660009081526021602052604090205460ff16155b1561244957600c548111156123ea5760405162461bcd60e51b815260206004820152603560248201527f427579207472616e7366657220616d6f756e742065786365656473207468652060448201527436b0bc2a3930b739b0b1ba34b7b720b6b7bab73a1760591b6064820152608401610ae0565b600e546123f683611499565b6124009083613627565b11156124445760405162461bcd60e51b815260206004820152601360248201527213585e081dd85b1b195d08195e18d959591959606a1b6044820152606401610ae0565b61257a565b6001600160a01b03821660009081526022602052604090205460ff16801561248a57506001600160a01b03831660009081526021602052604090205460ff16155b1561250057600c548111156124445760405162461bcd60e51b815260206004820152603660248201527f53656c6c207472616e7366657220616d6f756e742065786365656473207468656044820152751036b0bc2a3930b739b0b1ba34b7b720b6b7bab73a1760511b6064820152608401610ae0565b6001600160a01b03821660009081526021602052604090205460ff1661257a57600e5461252c83611499565b6125369083613627565b111561257a5760405162461bcd60e51b815260206004820152601360248201527213585e081dd85b1b195d08195e18d959591959606a1b6044820152606401610ae0565b600061258530611499565b600d54909150811080159081906125a45750600f5462010000900460ff165b80156125ba5750600754600160a01b900460ff16155b80156125df57506001600160a01b03851660009081526022602052604090205460ff16155b801561260357506001600160a01b038516600090815260208052604090205460ff16155b801561262757506001600160a01b038416600090815260208052604090205460ff16155b15612655576007805460ff60a01b1916600160a01b1790556126476128b2565b6007805460ff60a01b191690555b6007546001600160a01b038616600090815260208052604090205460ff600160a01b9092048216159116806126a157506001600160a01b038516600090815260208052604090205460ff165b156126aa575060005b60008115612895576001600160a01b03861660009081526022602052604090205460ff1680156126dc57506000601954115b1561279a5761270160646126fb60195488612f4490919063ffffffff16565b90612f57565b9050601954601b548261271491906135e6565b61271e9190613605565b601e600082825461272f9190613627565b9091555050601954601c5461274490836135e6565b61274e9190613605565b601f600082825461275f9190613627565b9091555050601954601a5461277490836135e6565b61277e9190613605565b601d600082825461278f9190613627565b909155506128779050565b6001600160a01b03871660009081526022602052604090205460ff1680156127c457506000601554115b15612877576127e360646126fb60155488612f4490919063ffffffff16565b9050601554601754826127f691906135e6565b6128009190613605565b601e60008282546128119190613627565b909155505060155460185461282690836135e6565b6128309190613605565b601f60008282546128419190613627565b909155505060155460165461285690836135e6565b6128609190613605565b601d60008282546128719190613627565b90915550505b801561288857612888873083612df0565b612892818661365c565b94505b6128a0878787612df0565b6128a987612f63565b50505050505050565b60006128bd30611499565b90506000601f54601d54601e546128d49190613627565b6128de9190613627565b90508115806128eb575080155b156128f4575050565b6000600282601e548561290791906135e6565b6129119190613605565b61291b9190613605565b90506000612929848361307f565b9050476129358261308b565b6000612941478361307f565b9050600061295e866126fb601d5485612f4490919063ffffffff16565b9050600061297b876126fb601f5486612f4490919063ffffffff16565b905060008161298a848661365c565b612994919061365c565b6000601e819055601d819055601f81905560095460405192935090916001600160a01b039091169085908381818185875af1925050503d80600081146129f6576040519150601f19603f3d011682016040523d82523d6000602084013e6129fb565b606091505b5050600a546040519192506001600160a01b0316908490600081818185875af1925050503d8060008114612a4b576040519150601f19603f3d011682016040523d82523d6000602084013e612a50565b606091505b50909150508715801590612a645750600082115b15612ab757612a738883612c5d565b601e54604080518981526020810185905280820192909252517f17bbfb9a6069321b6ded73bd96327c9e6b7212a5cd51ff219cd61370acafb5619181900360600190a15b670de0b6b3a76400004710612b1e576009546040516001600160a01b03909116904790600081818185875af1925050503d8060008114612b13576040519150601f19603f3d011682016040523d82523d6000602084013e612b18565b606091505b50909150505b50505050505050505050565b6001600160a01b038216600081815260226020526040808220805460ff191685151590811790915590519092917fffa9187bf1f18bf477bd0ea1bcbb64e93b6a98132473929edfce215cd9b16fab91a35050565b6001600160a01b038216612bd45760405162461bcd60e51b815260206004820152601f60248201527f45524332303a206d696e7420746f20746865207a65726f2061646472657373006044820152606401610ae0565b8060026000828254612be69190613627565b90915550506001600160a01b03821660009081526020819052604081208054839290612c13908490613627565b90915550506040518181526001600160a01b038316906000907fddf252ad1be2c89b69c2b068fc378daa952ba7f163c4a11628f55a4df523b3ef9060200160405180910390a35050565b600654612c759030906001600160a01b031684611f14565b600654600b5460405163f305d71960e01b81523060048201526024810185905260006044820181905260648201526001600160a01b0391821660848201524260a482015291169063f305d71990839060c4016060604051808303818588803b158015612ce057600080fd5b505af1158015612cf4573d6000803e3d6000fd5b50505050506040513d601f19601f82011682018060405250810190612d19919061379d565b5050505050565b600f54610100900460ff1615612d785760405162461bcd60e51b815260206004820152601a60248201527f54726164696e6720697320616c726561647920656e61626c65640000000000006044820152606401610ae0565b600f805462ffff0019166201010017905542600855565b600580546001600160a01b038381166001600160a01b0319831681179093556040519116919082907f8be0079c531659141344cd1fd0a4f28419497f9722a3daafe3b4186f6b6457e090600090a35050565b606060048054611e91906136da565b6001600160a01b038316612e165760405162461bcd60e51b8152600401610ae090613715565b6001600160a01b038216612e3c5760405162461bcd60e51b8152600401610ae09061375a565b6001600160a01b03831660009081526020819052604090205481811015612eb45760405162461bcd60e51b815260206004820152602660248201527f45524332303a207472616e7366657220616d6f756e7420657863656564732062604482015265616c616e636560d01b6064820152608401610ae0565b6001600160a01b03808516600090815260208190526040808220858503905591851681529081208054849290612eeb908490613627565b92505081905550826001600160a01b0316846001600160a01b03167fddf252ad1be2c89b69c2b068fc378daa952ba7f163c4a11628f55a4df523b3ef84604051612f3791815260200190565b60405180910390a36120c4565b6000612f5082846135e6565b9392505050565b6000612f508284613605565b6001600160a01b038116600090815260126020526040902054612f835750565b60006201518060085442612f97919061365c565b612fa19190613605565b9050600060135482612fb391906135e6565b612fc590670de0b6b3a76400006135e6565b6001600160a01b0384166000908152601260205260409020549091508111156130045750506001600160a01b0316600090815260126020526040812055565b6001600160a01b03831660009081526012602052604090205461302890829061365c565b61303184611499565b101561162c5760405162461bcd60e51b815260206004820152601f60248201527f56657374696e6720706572696f64206973206e6f7420656e64656420796574006044820152606401610ae0565b6000612f50828461365c565b60408051600280825260608201835260009260208301908036833701905050905030816000815181106130c0576130c0613673565b6001600160a01b03928316602091820292909201810191909152600654604080516315ab88c960e31b81529051919093169263ad5c4648926004808301939192829003018186803b15801561311457600080fd5b505afa158015613128573d6000803e3d6000fd5b505050506040513d601f19601f8201168201806040525081019061314c919061363f565b8160018151811061315f5761315f613673565b6001600160a01b0392831660209182029290920101526006546131859130911684611f14565b60065460405163791ac94760e01b81526001600160a01b039091169063791ac947906131be9085906000908690309042906004016137cb565b600060405180830381600087803b1580156131d857600080fd5b505af11580156131ec573d6000803e3d6000fd5b505050505050565b600060208083528351808285015260005b8181101561322157858101830151858201604001528201613205565b81811115613233576000604083870101525b50601f01601f1916929092016040019392505050565b6001600160a01b0381168114611d4a57600080fd5b6000806040838503121561327157600080fd5b823561327c81613249565b946020939093013593505050565b60006020828403121561329c57600080fd5b5035919050565b6000602082840312156132b557600080fd5b8135612f5081613249565b6000806000606084860312156132d557600080fd5b83356132e081613249565b925060208401356132f081613249565b929592945050506040919091013590565b634e487b7160e01b600052604160045260246000fd5b604051601f8201601f1916810167ffffffffffffffff8111828210171561334057613340613301565b604052919050565b600067ffffffffffffffff82111561336257613362613301565b5060051b60200190565b600082601f83011261337d57600080fd5b8135602061339261338d83613348565b613317565b82815260059290921b840181019181810190868411156133b157600080fd5b8286015b848110156133cc57803583529183019183016133b5565b509695505050505050565b600080600080600080600060e0888a0312156133f257600080fd5b87356133fd81613249565b965060208881013561340e81613249565b965060408901359550606089013594506080890135935060a089013567ffffffffffffffff8082111561344057600080fd5b818b0191508b601f83011261345457600080fd5b813561346261338d82613348565b81815260059190911b8301840190848101908e83111561348157600080fd5b938501935b828510156134a857843561349981613249565b82529385019390850190613486565b9650505060c08b01359250808311156134c057600080fd5b50506134ce8a828b0161336c565b91505092959891949750929550565b8015158114611d4a57600080fd5b600080604083850312156134fe57600080fd5b823561350981613249565b91506020830135613519816134dd565b809150509250929050565b60008060006060848603121561353957600080fd5b505081359360208301359350604090920135919050565b60006020828403121561356257600080fd5b8135612f50816134dd565b6000806040838503121561358057600080fd5b823561358b81613249565b9150602083013561351981613249565b6020808252818101527f4f776e61626c653a2063616c6c6572206973206e6f7420746865206f776e6572604082015260600190565b634e487b7160e01b600052601160045260246000fd5b6000816000190483118215151615613600576136006135d0565b500290565b60008261362257634e487b7160e01b600052601260045260246000fd5b500490565b6000821982111561363a5761363a6135d0565b500190565b60006020828403121561365157600080fd5b8151612f5081613249565b60008282101561366e5761366e6135d0565b500390565b634e487b7160e01b600052603260045260246000fd5b600060001982141561369d5761369d6135d0565b5060010190565b6000602082840312156136b657600080fd5b5051919050565b6000602082840312156136cf57600080fd5b8151612f50816134dd565b600181811c908216806136ee57607f821691505b6020821081141561370f57634e487b7160e01b600052602260045260246000fd5b50919050565b60208082526025908201527f45524332303a207472616e736665722066726f6d20746865207a65726f206164604082015264647265737360d81b606082015260800190565b60208082526023908201527f45524332303a207472616e7366657220746f20746865207a65726f206164647260408201526265737360e81b606082015260800190565b6000806000606084860312156137b257600080fd5b8351925060208401519150604084015190509250925092565b600060a082018783526020878185015260a0604085015281875180845260c086019150828901935060005b8181101561381b5784516001600160a01b0316835293830193918301916001016137f6565b50506001600160a01b0396909616606085015250505060800152939250505056fea26469706673582212200ac0218628d5077a27cb270c8617f3e9406475ec6c6a7bddd301e0e619679b7664736f6c63430008090033",
  "linkReferences": {},
  "deployedLinkReferences": {}
}