{
  "_format": "hh-sol-artifact-1",
  "contractName": "HeroInfinityNFT",
  "sourceName": "contracts/HeroInfinityNFT.sol",
  "abi": [
    {
      "inputs": [
        {
          "internalType": "address",
          "name": "_pool",
          "type": "address"
        }
      ],
      "stateMutability": "nonpayable",
      "type": "constructor"
    },
    {
      "anonymous": false,
      "inputs": [
        {
          "indexed": true,
          "internalType": "address",
          "name": "owner",
          "type": "address"
        },
        {
          "indexed": true,
          "internalType": "address",
          "name": "approved",
          "type": "address"
        },
        {
          "indexed": true,
          "internalType": "uint256",
          "name": "tokenId",
          "type": "uint256"
        }
      ],
      "name": "Approval",
      "type": "event"
    },
    {
      "anonymous": false,
      "inputs": [
        {
          "indexed": true,
          "internalType": "address",
          "name": "owner",
          "type": "address"
        },
        {
          "indexed": true,
          "internalType": "address",
          "name": "operator",
          "type": "address"
        },
        {
          "indexed": false,
          "internalType": "bool",
          "name": "approved",
          "type": "bool"
        }
      ],
      "name": "ApprovalForAll",
      "type": "event"
    },
    {
      "anonymous": false,
      "inputs": [
        {
          "indexed": true,
          "internalType": "address",
          "name": "previousOwner",
          "type": "address"
        },
        {
          "indexed": true,
          "internalType": "address",
          "name": "newOwner",
          "type": "address"
        }
      ],
      "name": "OwnershipTransferred",
      "type": "event"
    },
    {
      "anonymous": false,
      "inputs": [
        {
          "indexed": true,
          "internalType": "address",
          "name": "from",
          "type": "address"
        },
        {
          "indexed": true,
          "internalType": "address",
          "name": "to",
          "type": "address"
        },
        {
          "indexed": true,
          "internalType": "uint256",
          "name": "tokenId",
          "type": "uint256"
        }
      ],
      "name": "Transfer",
      "type": "event"
    },
    {
      "inputs": [],
      "name": "HIGHEST_PUBLIC",
      "outputs": [
        {
          "internalType": "uint256",
          "name": "",
          "type": "uint256"
        }
      ],
      "stateMutability": "view",
      "type": "function"
    },
    {
      "inputs": [],
      "name": "HIGHEST_TEAM",
      "outputs": [
        {
          "internalType": "uint256",
          "name": "",
          "type": "uint256"
        }
      ],
      "stateMutability": "view",
      "type": "function"
    },
    {
      "inputs": [],
      "name": "MAX_PER_WALLET",
      "outputs": [
        {
          "internalType": "uint256",
          "name": "",
          "type": "uint256"
        }
      ],
      "stateMutability": "view",
      "type": "function"
    },
    {
      "inputs": [
        {
          "internalType": "address",
          "name": "to",
          "type": "address"
        },
        {
          "internalType": "uint256",
          "name": "tokenId",
          "type": "uint256"
        }
      ],
      "name": "approve",
      "outputs": [],
      "stateMutability": "nonpayable",
      "type": "function"
    },
    {
      "inputs": [
        {
          "internalType": "address",
          "name": "owner",
          "type": "address"
        }
      ],
      "name": "balanceOf",
      "outputs": [
        {
          "internalType": "uint256",
          "name": "",
          "type": "uint256"
        }
      ],
      "stateMutability": "view",
      "type": "function"
    },
    {
      "inputs": [
        {
          "internalType": "uint256",
          "name": "tokenId",
          "type": "uint256"
        }
      ],
      "name": "getApproved",
      "outputs": [
        {
          "internalType": "address",
          "name": "",
          "type": "address"
        }
      ],
      "stateMutability": "view",
      "type": "function"
    },
    {
      "inputs": [
        {
          "internalType": "address",
          "name": "owner",
          "type": "address"
        },
        {
          "internalType": "address",
          "name": "operator",
          "type": "address"
        }
      ],
      "name": "isApprovedForAll",
      "outputs": [
        {
          "internalType": "bool",
          "name": "",
          "type": "bool"
        }
      ],
      "stateMutability": "view",
      "type": "function"
    },
    {
      "inputs": [],
      "name": "isMintOpen",
      "outputs": [
        {
          "internalType": "bool",
          "name": "",
          "type": "bool"
        }
      ],
      "stateMutability": "view",
      "type": "function"
    },
    {
      "inputs": [],
      "name": "isSaleOpen",
      "outputs": [
        {
          "internalType": "bool",
          "name": "",
          "type": "bool"
        }
      ],
      "stateMutability": "view",
      "type": "function"
    },
    {
      "inputs": [
        {
          "internalType": "uint256",
          "name": "amount",
          "type": "uint256"
        }
      ],
      "name": "mint",
      "outputs": [],
      "stateMutability": "payable",
      "type": "function"
    },
    {
      "inputs": [],
      "name": "mintEndTimestamp",
      "outputs": [
        {
          "internalType": "uint256",
          "name": "",
          "type": "uint256"
        }
      ],
      "stateMutability": "view",
      "type": "function"
    },
    {
      "inputs": [
        {
          "internalType": "address",
          "name": "account",
          "type": "address"
        }
      ],
      "name": "mintPrice",
      "outputs": [
        {
          "internalType": "uint256",
          "name": "",
          "type": "uint256"
        }
      ],
      "stateMutability": "view",
      "type": "function"
    },
    {
      "inputs": [],
      "name": "mintStartTimestamp",
      "outputs": [
        {
          "internalType": "uint256",
          "name": "",
          "type": "uint256"
        }
      ],
      "stateMutability": "view",
      "type": "function"
    },
    {
      "inputs": [
        {
          "internalType": "uint256",
          "name": "amount",
          "type": "uint256"
        }
      ],
      "name": "mintTeam",
      "outputs": [],
      "stateMutability": "nonpayable",
      "type": "function"
    },
    {
      "inputs": [
        {
          "internalType": "address",
          "name": "",
          "type": "address"
        }
      ],
      "name": "mintedAmount",
      "outputs": [
        {
          "internalType": "uint256",
          "name": "",
          "type": "uint256"
        }
      ],
      "stateMutability": "view",
      "type": "function"
    },
    {
      "inputs": [
        {
          "internalType": "bytes[]",
          "name": "data",
          "type": "bytes[]"
        }
      ],
      "name": "multicall",
      "outputs": [
        {
          "internalType": "bytes[]",
          "name": "results",
          "type": "bytes[]"
        }
      ],
      "stateMutability": "nonpayable",
      "type": "function"
    },
    {
      "inputs": [],
      "name": "name",
      "outputs": [
        {
          "internalType": "string",
          "name": "",
          "type": "string"
        }
      ],
      "stateMutability": "view",
      "type": "function"
    },
    {
      "inputs": [],
      "name": "nodePool",
      "outputs": [
        {
          "internalType": "address",
          "name": "",
          "type": "address"
        }
      ],
      "stateMutability": "view",
      "type": "function"
    },
    {
      "inputs": [],
      "name": "owner",
      "outputs": [
        {
          "internalType": "address",
          "name": "",
          "type": "address"
        }
      ],
      "stateMutability": "view",
      "type": "function"
    },
    {
      "inputs": [
        {
          "internalType": "uint256",
          "name": "tokenId",
          "type": "uint256"
        }
      ],
      "name": "ownerOf",
      "outputs": [
        {
          "internalType": "address",
          "name": "",
          "type": "address"
        }
      ],
      "stateMutability": "view",
      "type": "function"
    },
    {
      "inputs": [],
      "name": "publicMintPrice",
      "outputs": [
        {
          "internalType": "uint256",
          "name": "",
          "type": "uint256"
        }
      ],
      "stateMutability": "view",
      "type": "function"
    },
    {
      "inputs": [],
      "name": "renounceOwnership",
      "outputs": [],
      "stateMutability": "nonpayable",
      "type": "function"
    },
    {
      "inputs": [
        {
          "internalType": "address",
          "name": "from",
          "type": "address"
        },
        {
          "internalType": "address",
          "name": "to",
          "type": "address"
        },
        {
          "internalType": "uint256",
          "name": "tokenId",
          "type": "uint256"
        }
      ],
      "name": "safeTransferFrom",
      "outputs": [],
      "stateMutability": "nonpayable",
      "type": "function"
    },
    {
      "inputs": [
        {
          "internalType": "address",
          "name": "from",
          "type": "address"
        },
        {
          "internalType": "address",
          "name": "to",
          "type": "address"
        },
        {
          "internalType": "uint256",
          "name": "tokenId",
          "type": "uint256"
        },
        {
          "internalType": "bytes",
          "name": "_data",
          "type": "bytes"
        }
      ],
      "name": "safeTransferFrom",
      "outputs": [],
      "stateMutability": "nonpayable",
      "type": "function"
    },
    {
      "inputs": [
        {
          "internalType": "uint256",
          "name": "amount",
          "type": "uint256"
        }
      ],
      "name": "sale",
      "outputs": [],
      "stateMutability": "payable",
      "type": "function"
    },
    {
      "inputs": [],
      "name": "saleMintPrice",
      "outputs": [
        {
          "internalType": "uint256",
          "name": "",
          "type": "uint256"
        }
      ],
      "stateMutability": "view",
      "type": "function"
    },
    {
      "inputs": [
        {
          "internalType": "address",
          "name": "operator",
          "type": "address"
        },
        {
          "internalType": "bool",
          "name": "approved",
          "type": "bool"
        }
      ],
      "name": "setApprovalForAll",
      "outputs": [],
      "stateMutability": "nonpayable",
      "type": "function"
    },
    {
      "inputs": [
        {
          "internalType": "string",
          "name": "uri",
          "type": "string"
        }
      ],
      "name": "setBaseURI",
      "outputs": [],
      "stateMutability": "nonpayable",
      "type": "function"
    },
    {
      "inputs": [
        {
          "internalType": "uint256",
          "name": "_whitelist",
          "type": "uint256"
        },
        {
          "internalType": "uint256",
          "name": "_public",
          "type": "uint256"
        },
        {
          "internalType": "uint256",
          "name": "_sale",
          "type": "uint256"
        }
      ],
      "name": "setMintPrice",
      "outputs": [],
      "stateMutability": "nonpayable",
      "type": "function"
    },
    {
      "inputs": [
        {
          "internalType": "address",
          "name": "poolAddress",
          "type": "address"
        }
      ],
      "name": "setNodePool",
      "outputs": [],
      "stateMutability": "nonpayable",
      "type": "function"
    },
    {
      "inputs": [
        {
          "internalType": "bool",
          "name": "_open",
          "type": "bool"
        }
      ],
      "name": "setReserved",
      "outputs": [],
      "stateMutability": "nonpayable",
      "type": "function"
    },
    {
      "inputs": [
        {
          "internalType": "bool",
          "name": "_open",
          "type": "bool"
        }
      ],
      "name": "setSaleOpen",
      "outputs": [],
      "stateMutability": "nonpayable",
      "type": "function"
    },
    {
      "inputs": [
        {
          "internalType": "uint256",
          "name": "_mintStartTimestamp",
          "type": "uint256"
        },
        {
          "internalType": "uint256",
          "name": "_mintEndTimestamp",
          "type": "uint256"
        }
      ],
      "name": "setTimestamps",
      "outputs": [],
      "stateMutability": "nonpayable",
      "type": "function"
    },
    {
      "inputs": [
        {
          "internalType": "bytes4",
          "name": "interfaceId",
          "type": "bytes4"
        }
      ],
      "name": "supportsInterface",
      "outputs": [
        {
          "internalType": "bool",
          "name": "",
          "type": "bool"
        }
      ],
      "stateMutability": "view",
      "type": "function"
    },
    {
      "inputs": [],
      "name": "symbol",
      "outputs": [
        {
          "internalType": "string",
          "name": "",
          "type": "string"
        }
      ],
      "stateMutability": "view",
      "type": "function"
    },
    {
      "inputs": [
        {
          "internalType": "uint256",
          "name": "index",
          "type": "uint256"
        }
      ],
      "name": "tokenByIndex",
      "outputs": [
        {
          "internalType": "uint256",
          "name": "",
          "type": "uint256"
        }
      ],
      "stateMutability": "view",
      "type": "function"
    },
    {
      "inputs": [
        {
          "internalType": "address",
          "name": "owner",
          "type": "address"
        },
        {
          "internalType": "uint256",
          "name": "index",
          "type": "uint256"
        }
      ],
      "name": "tokenOfOwnerByIndex",
      "outputs": [
        {
          "internalType": "uint256",
          "name": "",
          "type": "uint256"
        }
      ],
      "stateMutability": "view",
      "type": "function"
    },
    {
      "inputs": [
        {
          "internalType": "uint256",
          "name": "tokenId",
          "type": "uint256"
        }
      ],
      "name": "tokenURI",
      "outputs": [
        {
          "internalType": "string",
          "name": "",
          "type": "string"
        }
      ],
      "stateMutability": "view",
      "type": "function"
    },
    {
      "inputs": [],
      "name": "totalSupply",
      "outputs": [
        {
          "internalType": "uint256",
          "name": "",
          "type": "uint256"
        }
      ],
      "stateMutability": "view",
      "type": "function"
    },
    {
      "inputs": [
        {
          "internalType": "address",
          "name": "from",
          "type": "address"
        },
        {
          "internalType": "address",
          "name": "to",
          "type": "address"
        },
        {
          "internalType": "uint256",
          "name": "tokenId",
          "type": "uint256"
        }
      ],
      "name": "transferFrom",
      "outputs": [],
      "stateMutability": "nonpayable",
      "type": "function"
    },
    {
      "inputs": [
        {
          "internalType": "address",
          "name": "newOwner",
          "type": "address"
        }
      ],
      "name": "transferOwnership",
      "outputs": [],
      "stateMutability": "nonpayable",
      "type": "function"
    },
    {
      "inputs": [],
      "name": "whitelistMintPrice",
      "outputs": [
        {
          "internalType": "uint256",
          "name": "",
          "type": "uint256"
        }
      ],
      "stateMutability": "view",
      "type": "function"
    },
    {
      "inputs": [],
      "name": "withdrawETH",
      "outputs": [],
      "stateMutability": "nonpayable",
      "type": "function"
    }
  ],
  "bytecode": "0x60806040526608e1bc9bf04000600c55660c6f3b40b6c000600d55660e35fa931a0000600e556011805461ffff191690556000601255601d6013553480156200004757600080fd5b5060405162002d7738038062002d778339810160408190526200006a9162000220565b604080518082018252601381527f4865726f20496e66696e697479204361726473000000000000000000000000006020808301918252835180850190945260048452634852494360e01b908401528151919291620000cb916000916200017a565b508051620000e19060019060208401906200017a565b505050620000fe620000f86200012460201b60201c565b62000128565b600b80546001600160a01b0319166001600160a01b03929092169190911790556200028f565b3390565b600a80546001600160a01b038381166001600160a01b0319831681179093556040519116919082907f8be0079c531659141344cd1fd0a4f28419497f9722a3daafe3b4186f6b6457e090600090a35050565b828054620001889062000252565b90600052602060002090601f016020900481019282620001ac5760008555620001f7565b82601f10620001c757805160ff1916838001178555620001f7565b82800160010185558215620001f7579182015b82811115620001f7578251825591602001919060010190620001da565b506200020592915062000209565b5090565b5b808211156200020557600081556001016200020a565b6000602082840312156200023357600080fd5b81516001600160a01b03811681146200024b57600080fd5b9392505050565b600181811c908216806200026757607f821691505b602082108114156200028957634e487b7160e01b600052602260045260246000fd5b50919050565b612ad8806200029f6000396000f3fe60806040526004361061025c5760003560e01c8063715018a611610144578063af979f25116100b6578063dc53fd921161007a578063dc53fd92146106b5578063e086e5ec146106cb578063e985e9c5146106e0578063f2fde38b14610729578063fa10197714610749578063fbbf8cc31461076957600080fd5b8063af979f251461061f578063b88d4fde1461063f578063c87b56dd1461065f578063cc6ac2f51461067f578063d8f1f8f41461069557600080fd5b80639be9c50d116101085780639be9c50d1461057e5780639c14a88414610594578063a0712d68146105a9578063a0e389de146105bc578063a22cb465146105d2578063ac9650d8146105f257600080fd5b8063715018a61461050d5780637307b3d9146105225780638da5cb5b1461053857806395d89b4114610556578063960327021461056b57600080fd5b806326cea918116101dd57806335c6aaf8116101a157806335c6aaf81461045757806342842e0e1461046d5780634f6ccce71461048d57806355f804b3146104ad5780636352211e146104cd57806370a08231146104ed57600080fd5b806326cea918146103b75780632eb7c7e3146103d75780632f745c59146103f7578063319948ba14610417578063342f48aa1461043757600080fd5b806318160ddd1161022457806318160ddd14610335578063199080161461034a5780631a0813301461035f5780632142aa2c1461037757806323b872dd1461039757600080fd5b806301ffc9a71461026157806306fdde0314610296578063081812fc146102b8578063095ea7b3146102f05780630f2cdd6c14610312575b600080fd5b34801561026d57600080fd5b5061028161027c3660046122da565b610796565b60405190151581526020015b60405180910390f35b3480156102a257600080fd5b506102ab6107c1565b60405161028d919061234f565b3480156102c457600080fd5b506102d86102d3366004612362565b610853565b6040516001600160a01b03909116815260200161028d565b3480156102fc57600080fd5b5061031061030b366004612397565b6108ed565b005b34801561031e57600080fd5b50610327600581565b60405190815260200161028d565b34801561034157600080fd5b50600854610327565b34801561035657600080fd5b50610281610a03565b34801561036b57600080fd5b5060115460ff16610281565b34801561038357600080fd5b506103276103923660046123c1565b610a3b565b3480156103a357600080fd5b506103106103b23660046123dc565b610ad8565b3480156103c357600080fd5b506103106103d23660046123c1565b610b09565b3480156103e357600080fd5b506103106103f2366004612428565b610b55565b34801561040357600080fd5b50610327610412366004612397565b610b99565b34801561042357600080fd5b50610310610432366004612443565b610c2f565b34801561044357600080fd5b50610310610452366004612362565b610c67565b34801561046357600080fd5b50610327600c5481565b34801561047957600080fd5b506103106104883660046123dc565b610d6c565b34801561049957600080fd5b506103276104a8366004612362565b610d87565b3480156104b957600080fd5b506103106104c83660046124fb565b610e1a565b3480156104d957600080fd5b506102d86104e8366004612362565b610e5b565b3480156104f957600080fd5b506103276105083660046123c1565b610ed2565b34801561051957600080fd5b50610310610f59565b34801561052e57600080fd5b5061032761043681565b34801561054457600080fd5b50600a546001600160a01b03166102d8565b34801561056257600080fd5b506102ab610f8f565b610310610579366004612362565b610f9e565b34801561058a57600080fd5b50610327600e5481565b3480156105a057600080fd5b50610327601c81565b6103106105b7366004612362565b611077565b3480156105c857600080fd5b50610327600f5481565b3480156105de57600080fd5b506103106105ed366004612544565b6110c8565b3480156105fe57600080fd5b5061061261060d366004612577565b6110d3565b60405161028d91906125ec565b34801561062b57600080fd5b5061031061063a366004612428565b6111c1565b34801561064b57600080fd5b5061031061065a36600461264e565b6111fe565b34801561066b57600080fd5b506102ab61067a366004612362565b611230565b34801561068b57600080fd5b5061032760105481565b3480156106a157600080fd5b50600b546102d8906001600160a01b031681565b3480156106c157600080fd5b50610327600d5481565b3480156106d757600080fd5b5061031061131c565b3480156106ec57600080fd5b506102816106fb3660046126ca565b6001600160a01b03918216600090815260056020908152604080832093909416825291909152205460ff1690565b34801561073557600080fd5b506103106107443660046123c1565b611372565b34801561075557600080fd5b506103106107643660046126f4565b61140a565b34801561077557600080fd5b506103276107843660046123c1565b60156020526000908152604090205481565b60006001600160e01b0319821663780e9d6360e01b14806107bb57506107bb8261148e565b92915050565b6060600080546107d090612716565b80601f01602080910402602001604051908101604052809291908181526020018280546107fc90612716565b80156108495780601f1061081e57610100808354040283529160200191610849565b820191906000526020600020905b81548152906001019060200180831161082c57829003601f168201915b5050505050905090565b6000818152600260205260408120546001600160a01b03166108d15760405162461bcd60e51b815260206004820152602c60248201527f4552433732313a20617070726f76656420717565727920666f72206e6f6e657860448201526b34b9ba32b73a103a37b5b2b760a11b60648201526084015b60405180910390fd5b506000908152600460205260409020546001600160a01b031690565b60006108f882610e5b565b9050806001600160a01b0316836001600160a01b031614156109665760405162461bcd60e51b815260206004820152602160248201527f4552433732313a20617070726f76616c20746f2063757272656e74206f776e656044820152603960f91b60648201526084016108c8565b336001600160a01b0382161480610982575061098281336106fb565b6109f45760405162461bcd60e51b815260206004820152603860248201527f4552433732313a20617070726f76652063616c6c6572206973206e6f74206f7760448201527f6e6572206e6f7220617070726f76656420666f7220616c6c000000000000000060648201526084016108c8565b6109fe83836114de565b505050565b600080600f54118015610a185750600f544210155b8015610a2657506010544211155b8015610a36575061043660135411155b905090565b600d54600b54604051633dd3264d60e21b81526001600160a01b03848116600483015260009392849291169063f74c99349060240160206040518083038186803b158015610a8857600080fd5b505afa158015610a9c573d6000803e3d6000fd5b505050506040513d601f19601f82011682018060405250810190610ac09190612751565b90506004811115610ad157600c5491505b5092915050565b610ae2338261154c565b610afe5760405162461bcd60e51b81526004016108c89061276a565b6109fe838383611643565b600a546001600160a01b03163314610b335760405162461bcd60e51b81526004016108c8906127bb565b600b80546001600160a01b0319166001600160a01b0392909216919091179055565b600a546001600160a01b03163314610b7f5760405162461bcd60e51b81526004016108c8906127bb565b601180549115156101000261ff0019909216919091179055565b6000610ba483610ed2565b8210610c065760405162461bcd60e51b815260206004820152602b60248201527f455243373231456e756d657261626c653a206f776e657220696e646578206f7560448201526a74206f6620626f756e647360a81b60648201526084016108c8565b506001600160a01b03919091166000908152600660209081526040808320938352929052205490565b600a546001600160a01b03163314610c595760405162461bcd60e51b81526004016108c8906127bb565b600c92909255600d55600e55565b600a546001600160a01b03163314610c915760405162461bcd60e51b81526004016108c8906127bb565b80610ccf5760405162461bcd60e51b815260206004820152600e60248201526d1253959053125117d05353d5539560921b60448201526064016108c8565b6012546000610cde8383612806565b9050601c610ced60018361281e565b1115610d315760405162461bcd60e51b81526020600482015260136024820152721511505357d31253525517d15610d151511151606a1b60448201526064016108c8565b601281905560005b83811015610d6657610d5433610d4f8386612806565b6117ea565b80610d5e81612835565b915050610d39565b50505050565b6109fe838383604051806020016040528060008152506111fe565b6000610d9260085490565b8210610df55760405162461bcd60e51b815260206004820152602c60248201527f455243373231456e756d657261626c653a20676c6f62616c20696e646578206f60448201526b7574206f6620626f756e647360a01b60648201526084016108c8565b60088281548110610e0857610e08612850565b90600052602060002001549050919050565b600a546001600160a01b03163314610e445760405162461bcd60e51b81526004016108c8906127bb565b8051610e5790601490602084019061222b565b5050565b6000818152600260205260408120546001600160a01b0316806107bb5760405162461bcd60e51b815260206004820152602960248201527f4552433732313a206f776e657220717565727920666f72206e6f6e657869737460448201526832b73a103a37b5b2b760b91b60648201526084016108c8565b60006001600160a01b038216610f3d5760405162461bcd60e51b815260206004820152602a60248201527f4552433732313a2062616c616e636520717565727920666f7220746865207a65604482015269726f206164647265737360b01b60648201526084016108c8565b506001600160a01b031660009081526003602052604090205490565b600a546001600160a01b03163314610f835760405162461bcd60e51b81526004016108c8906127bb565b610f8d6000611938565b565b6060600180546107d090612716565b60115460ff16610fe05760405162461bcd60e51b815260206004820152600d60248201526c29a0a622afa727aa2fa7a822a760991b60448201526064016108c8565b34600e5482610fef9190612866565b1461102e5760405162461bcd60e51b815260206004820152600f60248201526e57524f4e475f4554485f56414c554560881b60448201526064016108c8565b60005b8181101561106257611050338260135461104b9190612806565b61198a565b8061105a81612835565b915050611031565b50806013546110719190612806565b60135550565b61107f610a03565b6110bb5760405162461bcd60e51b815260206004820152600d60248201526c26a4a72a2fa727aa2fa7a822a760991b60448201526064016108c8565b6110c533826119a4565b50565b610e57338383611b59565b60608167ffffffffffffffff8111156110ee576110ee61246f565b60405190808252806020026020018201604052801561112157816020015b606081526020019060019003908161110c5790505b50905060005b82811015610ad1576111913085858481811061114557611145612850565b90506020028101906111579190612885565b8080601f016020809104026020016040519081016040528093929190818152602001838380828437600092019190915250611c2892505050565b8282815181106111a3576111a3612850565b602002602001018190525080806111b990612835565b915050611127565b600a546001600160a01b031633146111eb5760405162461bcd60e51b81526004016108c8906127bb565b6011805460ff1916911515919091179055565b611208338361154c565b6112245760405162461bcd60e51b81526004016108c89061276a565b610d6684848484611c4d565b6000818152600260205260409020546060906001600160a01b03166112af5760405162461bcd60e51b815260206004820152602f60248201527f4552433732314d657461646174613a2055524920717565727920666f72206e6f60448201526e3732bc34b9ba32b73a103a37b5b2b760891b60648201526084016108c8565b60006112b9611c80565b601154909150610100900460ff16156112fb57806112d684611c8f565b6040516020016112e79291906128d3565b604051602081830303815290604052611315565b604051806080016040528060578152602001612a25605791395b9392505050565b600a546001600160a01b031633146113465760405162461bcd60e51b81526004016108c8906127bb565b60405133904780156108fc02916000818181858888f193505050501580156110c5573d6000803e3d6000fd5b600a546001600160a01b0316331461139c5760405162461bcd60e51b81526004016108c8906127bb565b6001600160a01b0381166114015760405162461bcd60e51b815260206004820152602660248201527f4f776e61626c653a206e6577206f776e657220697320746865207a65726f206160448201526564647265737360d01b60648201526084016108c8565b6110c581611938565b600a546001600160a01b031633146114345760405162461bcd60e51b81526004016108c8906127bb565b818111801561144257504282115b6114835760405162461bcd60e51b8152602060048201526012602482015271494e56414c49445f54494d455354414d505360701b60448201526064016108c8565b600f91909155601055565b60006001600160e01b031982166380ac58cd60e01b14806114bf57506001600160e01b03198216635b5e139f60e01b145b806107bb57506301ffc9a760e01b6001600160e01b03198316146107bb565b600081815260046020526040902080546001600160a01b0319166001600160a01b038416908117909155819061151382610e5b565b6001600160a01b03167f8c5be1e5ebec7d5bd14f71427d1e84f3dd0314c0f7b2291e5b200ac8c7c3b92560405160405180910390a45050565b6000818152600260205260408120546001600160a01b03166115c55760405162461bcd60e51b815260206004820152602c60248201527f4552433732313a206f70657261746f7220717565727920666f72206e6f6e657860448201526b34b9ba32b73a103a37b5b2b760a11b60648201526084016108c8565b60006115d083610e5b565b9050806001600160a01b0316846001600160a01b0316148061160b5750836001600160a01b031661160084610853565b6001600160a01b0316145b8061163b57506001600160a01b0380821660009081526005602090815260408083209388168352929052205460ff165b949350505050565b826001600160a01b031661165682610e5b565b6001600160a01b0316146116ba5760405162461bcd60e51b815260206004820152602560248201527f4552433732313a207472616e736665722066726f6d20696e636f72726563742060448201526437bbb732b960d91b60648201526084016108c8565b6001600160a01b03821661171c5760405162461bcd60e51b8152602060048201526024808201527f4552433732313a207472616e7366657220746f20746865207a65726f206164646044820152637265737360e01b60648201526084016108c8565b611727838383611d8d565b6117326000826114de565b6001600160a01b038316600090815260036020526040812080546001929061175b90849061281e565b90915550506001600160a01b0382166000908152600360205260408120805460019290611789908490612806565b909155505060008181526002602052604080822080546001600160a01b0319166001600160a01b0386811691821790925591518493918716917fddf252ad1be2c89b69c2b068fc378daa952ba7f163c4a11628f55a4df523b3ef91a4505050565b6001600160a01b0382166118405760405162461bcd60e51b815260206004820181905260248201527f4552433732313a206d696e7420746f20746865207a65726f206164647265737360448201526064016108c8565b6000818152600260205260409020546001600160a01b0316156118a55760405162461bcd60e51b815260206004820152601c60248201527f4552433732313a20746f6b656e20616c7265616479206d696e7465640000000060448201526064016108c8565b6118b160008383611d8d565b6001600160a01b03821660009081526003602052604081208054600192906118da908490612806565b909155505060008181526002602052604080822080546001600160a01b0319166001600160a01b03861690811790915590518392907fddf252ad1be2c89b69c2b068fc378daa952ba7f163c4a11628f55a4df523b3ef908290a45050565b600a80546001600160a01b038381166001600160a01b0319831681179093556040519116919082907f8be0079c531659141344cd1fd0a4f28419497f9722a3daafe3b4186f6b6457e090600090a35050565b610e57828260405180602001604052806000815250611e45565b806119e25760405162461bcd60e51b815260206004820152600e60248201526d1253959053125117d05353d5539560921b60448201526064016108c8565b6001600160a01b038216600090815260156020526040812054611a06908390612806565b90506005811115611a515760405162461bcd60e51b815260206004820152601560248201527415d05313115517d31253525517d15610d151511151605a1b60448201526064016108c8565b6013546000611a608483612806565b9050610436611a7060018361281e565b1115611ab45760405162461bcd60e51b815260206004820152601360248201527214d0531157d31253525517d15610d151511151606a1b60448201526064016108c8565b34611abe86610a3b565b611ac89086612866565b1115611b085760405162461bcd60e51b815260206004820152600f60248201526e57524f4e475f4554485f56414c554560881b60448201526064016108c8565b60138190556001600160a01b03851660009081526015602052604081208490555b84811015611b5157611b3f8661104b8386612806565b80611b4981612835565b915050611b29565b505050505050565b816001600160a01b0316836001600160a01b03161415611bbb5760405162461bcd60e51b815260206004820152601960248201527f4552433732313a20617070726f766520746f2063616c6c65720000000000000060448201526064016108c8565b6001600160a01b03838116600081815260056020908152604080832094871680845294825291829020805460ff191686151590811790915591519182527f17307eab39ab6107e8899845ad3d59bd9653f200f220920489ca2b5937696c31910160405180910390a3505050565b60606113158383604051806060016040528060278152602001612a7c60279139611e78565b611c58848484611643565b611c6484848484611f55565b610d665760405162461bcd60e51b81526004016108c890612912565b6060601480546107d090612716565b606081611cb35750506040805180820190915260018152600360fc1b602082015290565b8160005b8115611cdd5780611cc781612835565b9150611cd69050600a8361297a565b9150611cb7565b60008167ffffffffffffffff811115611cf857611cf861246f565b6040519080825280601f01601f191660200182016040528015611d22576020820181803683370190505b5090505b841561163b57611d3760018361281e565b9150611d44600a8661298e565b611d4f906030612806565b60f81b818381518110611d6457611d64612850565b60200101906001600160f81b031916908160001a905350611d86600a8661297a565b9450611d26565b6001600160a01b038316611de857611de381600880546000838152600960205260408120829055600182018355919091527ff3f7a9fe364faab93b216da50a3214154f22a0a2b415b23a84c8169e8b636ee30155565b611e0b565b816001600160a01b0316836001600160a01b031614611e0b57611e0b8382612062565b6001600160a01b038216611e22576109fe816120ff565b826001600160a01b0316826001600160a01b0316146109fe576109fe82826121ae565b611e4f83836117ea565b611e5c6000848484611f55565b6109fe5760405162461bcd60e51b81526004016108c890612912565b60606001600160a01b0384163b611ee05760405162461bcd60e51b815260206004820152602660248201527f416464726573733a2064656c65676174652063616c6c20746f206e6f6e2d636f6044820152651b9d1c9858dd60d21b60648201526084016108c8565b600080856001600160a01b031685604051611efb91906129a2565b600060405180830381855af49150503d8060008114611f36576040519150601f19603f3d011682016040523d82523d6000602084013e611f3b565b606091505b5091509150611f4b8282866121f2565b9695505050505050565b60006001600160a01b0384163b1561205757604051630a85bd0160e11b81526001600160a01b0385169063150b7a0290611f999033908990889088906004016129be565b602060405180830381600087803b158015611fb357600080fd5b505af1925050508015611fe3575060408051601f3d908101601f19168201909252611fe0918101906129f1565b60015b61203d573d808015612011576040519150601f19603f3d011682016040523d82523d6000602084013e612016565b606091505b5080516120355760405162461bcd60e51b81526004016108c890612912565b805181602001fd5b6001600160e01b031916630a85bd0160e11b14905061163b565b506001949350505050565b6000600161206f84610ed2565b612079919061281e565b6000838152600760205260409020549091508082146120cc576001600160a01b03841660009081526006602090815260408083208584528252808320548484528184208190558352600790915290208190555b5060009182526007602090815260408084208490556001600160a01b039094168352600681528383209183525290812055565b6008546000906121119060019061281e565b6000838152600960205260408120546008805493945090928490811061213957612139612850565b90600052602060002001549050806008838154811061215a5761215a612850565b600091825260208083209091019290925582815260099091526040808220849055858252812055600880548061219257612192612a0e565b6001900381819060005260206000200160009055905550505050565b60006121b983610ed2565b6001600160a01b039093166000908152600660209081526040808320868452825280832085905593825260079052919091209190915550565b60608315612201575081611315565b8251156122115782518084602001fd5b8160405162461bcd60e51b81526004016108c8919061234f565b82805461223790612716565b90600052602060002090601f016020900481019282612259576000855561229f565b82601f1061227257805160ff191683800117855561229f565b8280016001018555821561229f579182015b8281111561229f578251825591602001919060010190612284565b506122ab9291506122af565b5090565b5b808211156122ab57600081556001016122b0565b6001600160e01b0319811681146110c557600080fd5b6000602082840312156122ec57600080fd5b8135611315816122c4565b60005b838110156123125781810151838201526020016122fa565b83811115610d665750506000910152565b6000815180845261233b8160208601602086016122f7565b601f01601f19169290920160200192915050565b6020815260006113156020830184612323565b60006020828403121561237457600080fd5b5035919050565b80356001600160a01b038116811461239257600080fd5b919050565b600080604083850312156123aa57600080fd5b6123b38361237b565b946020939093013593505050565b6000602082840312156123d357600080fd5b6113158261237b565b6000806000606084860312156123f157600080fd5b6123fa8461237b565b92506124086020850161237b565b9150604084013590509250925092565b8035801515811461239257600080fd5b60006020828403121561243a57600080fd5b61131582612418565b60008060006060848603121561245857600080fd5b505081359360208301359350604090920135919050565b634e487b7160e01b600052604160045260246000fd5b600067ffffffffffffffff808411156124a0576124a061246f565b604051601f8501601f19908116603f011681019082821181831017156124c8576124c861246f565b816040528093508581528686860111156124e157600080fd5b858560208301376000602087830101525050509392505050565b60006020828403121561250d57600080fd5b813567ffffffffffffffff81111561252457600080fd5b8201601f8101841361253557600080fd5b61163b84823560208401612485565b6000806040838503121561255757600080fd5b6125608361237b565b915061256e60208401612418565b90509250929050565b6000806020838503121561258a57600080fd5b823567ffffffffffffffff808211156125a257600080fd5b818501915085601f8301126125b657600080fd5b8135818111156125c557600080fd5b8660208260051b85010111156125da57600080fd5b60209290920196919550909350505050565b6000602080830181845280855180835260408601915060408160051b870101925083870160005b8281101561264157603f1988860301845261262f858351612323565b94509285019290850190600101612613565b5092979650505050505050565b6000806000806080858703121561266457600080fd5b61266d8561237b565b935061267b6020860161237b565b925060408501359150606085013567ffffffffffffffff81111561269e57600080fd5b8501601f810187136126af57600080fd5b6126be87823560208401612485565b91505092959194509250565b600080604083850312156126dd57600080fd5b6126e68361237b565b915061256e6020840161237b565b6000806040838503121561270757600080fd5b50508035926020909101359150565b600181811c9082168061272a57607f821691505b6020821081141561274b57634e487b7160e01b600052602260045260246000fd5b50919050565b60006020828403121561276357600080fd5b5051919050565b60208082526031908201527f4552433732313a207472616e736665722063616c6c6572206973206e6f74206f6040820152701ddb995c881b9bdc88185c1c1c9bdd9959607a1b606082015260800190565b6020808252818101527f4f776e61626c653a2063616c6c6572206973206e6f7420746865206f776e6572604082015260600190565b634e487b7160e01b600052601160045260246000fd5b60008219821115612819576128196127f0565b500190565b600082821015612830576128306127f0565b500390565b6000600019821415612849576128496127f0565b5060010190565b634e487b7160e01b600052603260045260246000fd5b6000816000190483118215151615612880576128806127f0565b500290565b6000808335601e1984360301811261289c57600080fd5b83018035915067ffffffffffffffff8211156128b757600080fd5b6020019150368190038213156128cc57600080fd5b9250929050565b600083516128e58184602088016122f7565b8351908301906128f98183602088016122f7565b64173539b7b760d91b9101908152600501949350505050565b60208082526032908201527f4552433732313a207472616e7366657220746f206e6f6e20455243373231526560408201527131b2b4bb32b91034b6b83632b6b2b73a32b960711b606082015260800190565b634e487b7160e01b600052601260045260246000fd5b60008261298957612989612964565b500490565b60008261299d5761299d612964565b500690565b600082516129b48184602087016122f7565b9190910192915050565b6001600160a01b0385811682528416602082015260408101839052608060608201819052600090611f4b90830184612323565b600060208284031215612a0357600080fd5b8151611315816122c4565b634e487b7160e01b600052603160045260246000fdfe68747470733a2f2f6865726f696e66696e6974792e6d7970696e6174612e636c6f75642f697066732f516d5271717a6e5062435564654a41727a55594c4d6975477265706d4a766d6a6269546f70594d70544a62414262416464726573733a206c6f772d6c6576656c2064656c65676174652063616c6c206661696c6564a264697066735822122037b7af2b3fc8e3f5b5011a3c13770ca2290b8e9983e723a3fad633b85120f58d64736f6c63430008090033",
  "linkReferences": {},
  "deployedLinkReferences": {}
}