{
  "_format": "hh-sol-artifact-1",
  "contractName": "HeroManager",
  "sourceName": "contracts/game/HeroManager.sol",
  "abi": [
    {
      "inputs": [],
      "stateMutability": "nonpayable",
      "type": "constructor"
    },
    {
      "anonymous": false,
      "inputs": [
        {
          "indexed": true,
          "internalType": "address",
          "name": "previousOwner",
          "type": "address"
        },
        {
          "indexed": true,
          "internalType": "address",
          "name": "newOwner",
          "type": "address"
        }
      ],
      "name": "OwnershipTransferred",
      "type": "event"
    },
    {
      "inputs": [],
      "name": "HERO_MAX_LEVEL",
      "outputs": [
        {
          "internalType": "uint256",
          "name": "",
          "type": "uint256"
        }
      ],
      "stateMutability": "view",
      "type": "function"
    },
    {
      "inputs": [
        {
          "internalType": "uint256",
          "name": "heroId",
          "type": "uint256"
        },
        {
          "components": [
            {
              "internalType": "bytes32",
              "name": "name",
              "type": "bytes32"
            },
            {
              "internalType": "uint256",
              "name": "level",
              "type": "uint256"
            },
            {
              "internalType": "uint256",
              "name": "rarity",
              "type": "uint256"
            },
            {
              "internalType": "uint256",
              "name": "primaryAttribute",
              "type": "uint256"
            },
            {
              "internalType": "uint256",
              "name": "attackCapability",
              "type": "uint256"
            },
            {
              "internalType": "uint256",
              "name": "strength",
              "type": "uint256"
            },
            {
              "internalType": "uint256",
              "name": "strengthGain",
              "type": "uint256"
            },
            {
              "internalType": "uint256",
              "name": "agility",
              "type": "uint256"
            },
            {
              "internalType": "uint256",
              "name": "agilityGain",
              "type": "uint256"
            },
            {
              "internalType": "uint256",
              "name": "intelligence",
              "type": "uint256"
            },
            {
              "internalType": "uint256",
              "name": "intelligenceGain",
              "type": "uint256"
            },
            {
              "internalType": "uint256",
              "name": "experience",
              "type": "uint256"
            }
          ],
          "internalType": "struct GameFi.Hero",
          "name": "hero",
          "type": "tuple"
        }
      ],
      "name": "addHero",
      "outputs": [],
      "stateMutability": "nonpayable",
      "type": "function"
    },
    {
      "inputs": [],
      "name": "baseLevelUpFee",
      "outputs": [
        {
          "internalType": "uint256",
          "name": "",
          "type": "uint256"
        }
      ],
      "stateMutability": "view",
      "type": "function"
    },
    {
      "inputs": [],
      "name": "bonusExp",
      "outputs": [
        {
          "internalType": "uint256",
          "name": "",
          "type": "uint256"
        }
      ],
      "stateMutability": "view",
      "type": "function"
    },
    {
      "inputs": [],
      "name": "bonusLevelUpFee",
      "outputs": [
        {
          "internalType": "uint256",
          "name": "",
          "type": "uint256"
        }
      ],
      "stateMutability": "view",
      "type": "function"
    },
    {
      "inputs": [
        {
          "internalType": "uint256[]",
          "name": "heroIds",
          "type": "uint256[]"
        }
      ],
      "name": "bulkExpDown",
      "outputs": [],
      "stateMutability": "nonpayable",
      "type": "function"
    },
    {
      "inputs": [
        {
          "internalType": "uint256[]",
          "name": "heroIds",
          "type": "uint256[]"
        }
      ],
      "name": "bulkExpUp",
      "outputs": [],
      "stateMutability": "nonpayable",
      "type": "function"
    },
    {
      "inputs": [
        {
          "internalType": "uint256",
          "name": "heroId",
          "type": "uint256"
        }
      ],
      "name": "expDown",
      "outputs": [],
      "stateMutability": "nonpayable",
      "type": "function"
    },
    {
      "inputs": [
        {
          "internalType": "uint256",
          "name": "heroId",
          "type": "uint256"
        }
      ],
      "name": "expUp",
      "outputs": [],
      "stateMutability": "nonpayable",
      "type": "function"
    },
    {
      "inputs": [
        {
          "internalType": "uint256",
          "name": "heroId",
          "type": "uint256"
        }
      ],
      "name": "heroBonusExp",
      "outputs": [
        {
          "internalType": "uint256",
          "name": "",
          "type": "uint256"
        }
      ],
      "stateMutability": "view",
      "type": "function"
    },
    {
      "inputs": [
        {
          "internalType": "uint256",
          "name": "heroId",
          "type": "uint256"
        }
      ],
      "name": "heroLevel",
      "outputs": [
        {
          "internalType": "uint256",
          "name": "",
          "type": "uint256"
        }
      ],
      "stateMutability": "view",
      "type": "function"
    },
    {
      "inputs": [
        {
          "internalType": "uint256",
          "name": "heroId",
          "type": "uint256"
        }
      ],
      "name": "heroPower",
      "outputs": [
        {
          "internalType": "uint256",
          "name": "",
          "type": "uint256"
        }
      ],
      "stateMutability": "view",
      "type": "function"
    },
    {
      "inputs": [
        {
          "internalType": "uint256",
          "name": "heroId",
          "type": "uint256"
        }
      ],
      "name": "heroPrimaryAttribute",
      "outputs": [
        {
          "internalType": "uint256",
          "name": "",
          "type": "uint256"
        }
      ],
      "stateMutability": "view",
      "type": "function"
    },
    {
      "inputs": [
        {
          "internalType": "uint256",
          "name": "",
          "type": "uint256"
        }
      ],
      "name": "heroes",
      "outputs": [
        {
          "internalType": "bytes32",
          "name": "name",
          "type": "bytes32"
        },
        {
          "internalType": "uint256",
          "name": "level",
          "type": "uint256"
        },
        {
          "internalType": "uint256",
          "name": "rarity",
          "type": "uint256"
        },
        {
          "internalType": "uint256",
          "name": "primaryAttribute",
          "type": "uint256"
        },
        {
          "internalType": "uint256",
          "name": "attackCapability",
          "type": "uint256"
        },
        {
          "internalType": "uint256",
          "name": "strength",
          "type": "uint256"
        },
        {
          "internalType": "uint256",
          "name": "strengthGain",
          "type": "uint256"
        },
        {
          "internalType": "uint256",
          "name": "agility",
          "type": "uint256"
        },
        {
          "internalType": "uint256",
          "name": "agilityGain",
          "type": "uint256"
        },
        {
          "internalType": "uint256",
          "name": "intelligence",
          "type": "uint256"
        },
        {
          "internalType": "uint256",
          "name": "intelligenceGain",
          "type": "uint256"
        },
        {
          "internalType": "uint256",
          "name": "experience",
          "type": "uint256"
        }
      ],
      "stateMutability": "view",
      "type": "function"
    },
    {
      "inputs": [
        {
          "internalType": "uint256",
          "name": "heroId",
          "type": "uint256"
        },
        {
          "internalType": "uint256",
          "name": "levels",
          "type": "uint256"
        }
      ],
      "name": "levelUp",
      "outputs": [],
      "stateMutability": "nonpayable",
      "type": "function"
    },
    {
      "inputs": [],
      "name": "lobbyBattleAddress",
      "outputs": [
        {
          "internalType": "address",
          "name": "",
          "type": "address"
        }
      ],
      "stateMutability": "view",
      "type": "function"
    },
    {
      "inputs": [
        {
          "internalType": "bytes[]",
          "name": "data",
          "type": "bytes[]"
        }
      ],
      "name": "multicall",
      "outputs": [
        {
          "internalType": "bytes[]",
          "name": "results",
          "type": "bytes[]"
        }
      ],
      "stateMutability": "nonpayable",
      "type": "function"
    },
    {
      "inputs": [],
      "name": "nft",
      "outputs": [
        {
          "internalType": "contract IERC721",
          "name": "",
          "type": "address"
        }
      ],
      "stateMutability": "view",
      "type": "function"
    },
    {
      "inputs": [],
      "name": "owner",
      "outputs": [
        {
          "internalType": "address",
          "name": "",
          "type": "address"
        }
      ],
      "stateMutability": "view",
      "type": "function"
    },
    {
      "inputs": [],
      "name": "primaryPowerMultiplier",
      "outputs": [
        {
          "internalType": "uint256",
          "name": "",
          "type": "uint256"
        }
      ],
      "stateMutability": "view",
      "type": "function"
    },
    {
      "inputs": [
        {
          "internalType": "uint256",
          "name": "min",
          "type": "uint256"
        },
        {
          "internalType": "uint256",
          "name": "max",
          "type": "uint256"
        }
      ],
      "name": "random",
      "outputs": [
        {
          "internalType": "uint256",
          "name": "",
          "type": "uint256"
        }
      ],
      "stateMutability": "view",
      "type": "function"
    },
    {
      "inputs": [],
      "name": "rarityPowerBooster",
      "outputs": [
        {
          "internalType": "uint256",
          "name": "",
          "type": "uint256"
        }
      ],
      "stateMutability": "view",
      "type": "function"
    },
    {
      "inputs": [],
      "name": "renounceOwnership",
      "outputs": [],
      "stateMutability": "nonpayable",
      "type": "function"
    },
    {
      "inputs": [],
      "name": "secondaryMultiplier",
      "outputs": [
        {
          "internalType": "uint256",
          "name": "",
          "type": "uint256"
        }
      ],
      "stateMutability": "view",
      "type": "function"
    },
    {
      "inputs": [
        {
          "internalType": "uint256",
          "name": "value",
          "type": "uint256"
        }
      ],
      "name": "setBaseLevelUpFee",
      "outputs": [],
      "stateMutability": "nonpayable",
      "type": "function"
    },
    {
      "inputs": [
        {
          "internalType": "uint256",
          "name": "value",
          "type": "uint256"
        }
      ],
      "name": "setBonusExp",
      "outputs": [],
      "stateMutability": "nonpayable",
      "type": "function"
    },
    {
      "inputs": [
        {
          "internalType": "uint256",
          "name": "value",
          "type": "uint256"
        }
      ],
      "name": "setBonusLevelUpFee",
      "outputs": [],
      "stateMutability": "nonpayable",
      "type": "function"
    },
    {
      "inputs": [
        {
          "internalType": "address",
          "name": "lbAddr",
          "type": "address"
        }
      ],
      "name": "setLobbyBattle",
      "outputs": [],
      "stateMutability": "nonpayable",
      "type": "function"
    },
    {
      "inputs": [
        {
          "internalType": "address",
          "name": "nftAddress",
          "type": "address"
        }
      ],
      "name": "setNFT",
      "outputs": [],
      "stateMutability": "nonpayable",
      "type": "function"
    },
    {
      "inputs": [
        {
          "internalType": "uint256",
          "name": "value",
          "type": "uint256"
        }
      ],
      "name": "setPrimaryPowerMultiplier",
      "outputs": [],
      "stateMutability": "nonpayable",
      "type": "function"
    },
    {
      "inputs": [
        {
          "internalType": "uint256",
          "name": "value",
          "type": "uint256"
        }
      ],
      "name": "setRarityPowerBooster",
      "outputs": [],
      "stateMutability": "nonpayable",
      "type": "function"
    },
    {
      "inputs": [
        {
          "internalType": "uint256",
          "name": "value",
          "type": "uint256"
        }
      ],
      "name": "setSecondaryMultiplier",
      "outputs": [],
      "stateMutability": "nonpayable",
      "type": "function"
    },
    {
      "inputs": [
        {
          "internalType": "uint256",
          "name": "value",
          "type": "uint256"
        }
      ],
      "name": "setThirdMultiplier",
      "outputs": [],
      "stateMutability": "nonpayable",
      "type": "function"
    },
    {
      "inputs": [
        {
          "internalType": "address",
          "name": "tokenAddress",
          "type": "address"
        }
      ],
      "name": "setToken",
      "outputs": [],
      "stateMutability": "nonpayable",
      "type": "function"
    },
    {
      "inputs": [],
      "name": "thirdMultiplier",
      "outputs": [
        {
          "internalType": "uint256",
          "name": "",
          "type": "uint256"
        }
      ],
      "stateMutability": "view",
      "type": "function"
    },
    {
      "inputs": [],
      "name": "token",
      "outputs": [
        {
          "internalType": "contract IERC20",
          "name": "",
          "type": "address"
        }
      ],
      "stateMutability": "view",
      "type": "function"
    },
    {
      "inputs": [
        {
          "internalType": "address",
          "name": "newOwner",
          "type": "address"
        }
      ],
      "name": "transferOwnership",
      "outputs": [],
      "stateMutability": "nonpayable",
      "type": "function"
    },
    {
      "inputs": [
        {
          "internalType": "address payable",
          "name": "recipient",
          "type": "address"
        }
      ],
      "name": "withdrawDustETH",
      "outputs": [],
      "stateMutability": "nonpayable",
      "type": "function"
    },
    {
      "stateMutability": "payable",
      "type": "receive"
    }
  ],
  "bytecode": "0x6080604052690a968163f0a57b40000060045569021e19e0c9bab2400000600555600a60065560086007556006600855601e600955606e600a5534801561004557600080fd5b5061004f33610054565b6100a4565b600080546001600160a01b038381166001600160a01b0319831681178455604051919092169283917f8be0079c531659141344cd1fd0a4f28419497f9722a3daafe3b4186f6b6457e09190a35050565b611d3b806100b36000396000f3fe6080604052600436106102295760003560e01c80638ff1e98e11610123578063cd8401a8116100ab578063f2fde38b1161006f578063f2fde38b146106f5578063f3d1b5ab14610715578063f56e9c6614610745578063fc0c546a14610765578063fc5850341461078557600080fd5b8063cd8401a814610655578063d5c1ed8a14610675578063dda728cd14610695578063e393c294146106b5578063e3a015ce146106d557600080fd5b8063a9dd1225116100f2578063a9dd1225146105bc578063aaef0122146105dc578063ab405145146105f2578063ac9650d814610608578063b8830f9f1461063557600080fd5b80638ff1e98e146104925780639b12bc88146104b25780639bad6231146104c8578063a8d4a03b146104e857600080fd5b80633c68e1ad116101b157806357c773f11161017557806357c773f1146103ff5780636e7dff4d1461041f578063715018a61461043f5780637ce9dd54146104545780638da5cb5b1461047457600080fd5b80633c68e1ad146103515780634018b1ce1461036757806347ccca02146103875780634d70f87a146103bf5780635226dc93146103df57600080fd5b8063144fa6d7116101f8578063144fa6d7146102c65780631ec462e0146102e657806323cb1c361461030657806331a03ca21461031c57806333ab05411461033157600080fd5b806301783dfa1461023557806306975ac21461025e5780630a36d40b1461027457806313b60c51146102a457600080fd5b3661023057005b600080fd5b34801561024157600080fd5b5061024b60065481565b6040519081526020015b60405180910390f35b34801561026a57600080fd5b5061024b60055481565b34801561028057600080fd5b5061024b61028f3660046117df565b6000908152600b602052604090206001015490565b3480156102b057600080fd5b506102c46102bf3660046117df565b6107a5565b005b3480156102d257600080fd5b506102c46102e136600461180d565b6107dd565b3480156102f257600080fd5b506102c461030136600461182a565b610829565b34801561031257600080fd5b5061024b60085481565b34801561032857600080fd5b5061024b601e81565b34801561033d57600080fd5b506102c461034c3660046117df565b6108e8565b34801561035d57600080fd5b5061024b600a5481565b34801561037357600080fd5b506102c461038236600461180d565b610917565b34801561039357600080fd5b506002546103a7906001600160a01b031681565b6040516001600160a01b039091168152602001610255565b3480156103cb57600080fd5b506102c46103da3660046117df565b610963565b3480156103eb57600080fd5b506102c46103fa366004611864565b610a2b565b34801561040b57600080fd5b506102c461041a3660046117df565b610e9c565b34801561042b57600080fd5b506102c461043a3660046117df565b610f87565b34801561044b57600080fd5b506102c4610fb6565b34801561046057600080fd5b506102c461046f3660046117df565b610fec565b34801561048057600080fd5b506000546001600160a01b03166103a7565b34801561049e57600080fd5b506102c46104ad3660046118d2565b61101b565b3480156104be57600080fd5b5061024b60045481565b3480156104d457600080fd5b506102c46104e33660046117df565b611088565b3480156104f457600080fd5b506105636105033660046117df565b600b60205280600052604060002060009150905080600001549080600101549080600201549080600301549080600401549080600501549080600601549080600701549080600801549080600901549080600a01549080600b015490508c565b604080519c8d5260208d019b909b52998b019890985260608a0196909652608089019490945260a088019290925260c087015260e086015261010085015261012084015261014083015261016082015261018001610255565b3480156105c857600080fd5b5061024b6105d7366004611864565b6110b7565b3480156105e857600080fd5b5061024b60075481565b3480156105fe57600080fd5b5061024b60095481565b34801561061457600080fd5b506106286106233660046118d2565b611146565b604051610255919061196c565b34801561064157600080fd5b506102c46106503660046117df565b61123b565b34801561066157600080fd5b506102c46106703660046118d2565b61126a565b34801561068157600080fd5b5061024b6106903660046117df565b6112d2565b3480156106a157600080fd5b506102c46106b03660046117df565b6114c0565b3480156106c157600080fd5b506102c46106d036600461180d565b6114ef565b3480156106e157600080fd5b506003546103a7906001600160a01b031681565b34801561070157600080fd5b506102c461071036600461180d565b61154e565b34801561072157600080fd5b5061024b6107303660046117df565b6000908152600b602052604090206003015490565b34801561075157600080fd5b506102c461076036600461180d565b6115e6565b34801561077157600080fd5b506001546103a7906001600160a01b031681565b34801561079157600080fd5b5061024b6107a03660046117df565b611632565b6000546001600160a01b031633146107d85760405162461bcd60e51b81526004016107cf906119ce565b60405180910390fd5b600655565b6000546001600160a01b031633146108075760405162461bcd60e51b81526004016107cf906119ce565b600180546001600160a01b0319166001600160a01b0392909216919091179055565b6000546001600160a01b031633146108535760405162461bcd60e51b81526004016107cf906119ce565b6000828152600b6020526040902081906108e28282813581556020820135600182015560408201356002820155606082013560038201556080820135600482015560a0820135600582015560c0820135600682015560e0820135600782015561010082013560088201556101208201356009820155610140820135600a820155610160820135600b8201555050565b50505050565b6000546001600160a01b031633146109125760405162461bcd60e51b81526004016107cf906119ce565b600455565b6000546001600160a01b031633146109415760405162461bcd60e51b81526004016107cf906119ce565b600380546001600160a01b0319166001600160a01b0392909216919091179055565b6003546001600160a01b031633148061097b57503330145b6109975760405162461bcd60e51b81526004016107cf90611a03565b6000818152600b6020526040902060019081015411806109c857506000818152600b60208190526040909120015415155b15610a2857600060026109da83611632565b6109e49190611a79565b905080600b6000848152602001908152602001600020600b016000828254610a0c9190611a8d565b90915550506000829052600b602052610a26565b90915550505b505b50565b6002546040516331a9108f60e11b81526004810184905233916001600160a01b031690636352211e9060240160206040518083038186803b158015610a6f57600080fd5b505afa158015610a83573d6000803e3d6000fd5b505050506040513d601f19601f82011682018060405250810190610aa79190611abc565b6001600160a01b031614610afd5760405162461bcd60e51b815260206004820152601c60248201527f4865726f4d616e616765723a206e6f742061204e4654206f776e65720000000060448201526064016107cf565b6000828152600b60208181526040928390208351610180810185528154815260018201549281018390526002820154948101949094526003810154606085015260048101546080850152600581015460a0850152600681015460c0850152600781015460e085015260088101546101008501526009810154610120850152600a81015461014085015290910154610160830152601e11610bdf5760405162461bcd60e51b815260206004820152601b60248201527f4865726f4d616e616765723a206865726f206d6178206c6576656c000000000060448201526064016107cf565b601e828260200151610bf19190611aa4565b1115610c3f5760405162461bcd60e51b815260206004820152601f60248201527f4865726f4d616e616765723a20746f6f206d616e79206c6576656c732075700060448201526064016107cf565b600060018260200151610c529190611a8d565b600554610c5f9190611ad9565b600454610c6c9190611aa4565b90506000600554600285600187610c839190611a8d565b610c8d9190611ad9565b610c979190611a79565b610ca19190611ad9565b610cab8584611ad9565b610cb59190611aa4565b6001546040516323b872dd60e01b8152336004820152306024820152604481018390529192506001600160a01b0316906323b872dd90606401602060405180830381600087803b158015610d0857600080fd5b505af1158015610d1c573d6000803e3d6000fd5b505050506040513d601f19601f82011682018060405250810190610d409190611af8565b610d8c5760405162461bcd60e51b815260206004820152601b60248201527f4865726f4d616e616765723a206e6f7420656e6f75676820666565000000000060448201526064016107cf565b8383602001818151610d9e9190611aa4565b90525060c0830151610db1908590611ad9565b8360a001818151610dc29190611aa4565b905250610100830151610dd6908590611ad9565b8360e001818151610de79190611aa4565b905250610140830151610dfb908590611ad9565b8360a001818151610e0c9190611aa4565b90525050506000928352600b602081815260409485902083518155908301516001820155938201516002850155606082015160038501556080820151600485015560a0820151600585015560c0820151600685015560e0820151600785015561010082015160088501556101208201516009850155610140820151600a8501556101609091015192019190915550565b6003546001600160a01b0316331480610eb457503330145b610ed05760405162461bcd60e51b81526004016107cf90611a03565b6000818152600b6020526040902060010154601e1115610a28576000610ef582611632565b905080600b6000848152602001908152602001600020600b016000828254610f1d9190611aa4565b90915550506000828152600b602081905260409091200154606411610a26576000828152600b60208190526040822001805460649290610f5e908490611a8d565b90915550506000828152600b602052604081206001908101805491929091610a20908490611aa4565b6000546001600160a01b03163314610fb15760405162461bcd60e51b81526004016107cf906119ce565b600555565b6000546001600160a01b03163314610fe05760405162461bcd60e51b81526004016107cf906119ce565b610fea600061165c565b565b6000546001600160a01b031633146110165760405162461bcd60e51b81526004016107cf906119ce565b600855565b6003546001600160a01b031633146110455760405162461bcd60e51b81526004016107cf90611a03565b60005b818110156110835761107183838381811061106557611065611b1a565b90506020020135610963565b8061107b81611b30565b915050611048565b505050565b6000546001600160a01b031633146110b25760405162461bcd60e51b81526004016107cf906119ce565b600a55565b60408051446020820152429181019190915233606090811b6bffffffffffffffffffffffff1916908201526074810183905260948101829052600090819060b40160408051601f19818403018152919052805160209091012090508361111d8185611a8d565b611128906001611aa4565b6111329083611b4b565b61113c9190611aa4565b9150505b92915050565b60608167ffffffffffffffff81111561116157611161611b5f565b60405190808252806020026020018201604052801561119457816020015b606081526020019060019003908161117f5790505b50905060005b8281101561123457611204308585848181106111b8576111b8611b1a565b90506020028101906111ca9190611b75565b8080601f0160208091040260200160405190810160405280939291908181526020018383808284376000920191909152506116ac92505050565b82828151811061121657611216611b1a565b6020026020010181905250808061122c90611b30565b91505061119a565b5092915050565b6000546001600160a01b031633146112655760405162461bcd60e51b81526004016107cf906119ce565b600955565b6003546001600160a01b031633146112945760405162461bcd60e51b81526004016107cf90611a03565b60005b81811015611083576112c08383838181106112b4576112b4611b1a565b90506020020135610e9c565b806112ca81611b30565b915050611297565b6000818152600b602081815260408084208151610180810183528154815260018201549381019390935260028101549183019190915260038101546060830181905260048201546080840152600582015460a0840152600682015460c0840152600782015460e084015260088201546101008401526009820154610120840152600a820154610140840152920154610160820152908290819081906113855750505060a081015161012082015160e08301515b8360600151600114156113a65750505060e081015160a08201516101208301515b8360600151600214156113c75750505061012081015160e082015160a08301515b6000600854826113d79190611ad9565b6007546113e49085611ad9565b6006546113f19087611ad9565b6113fb9190611aa4565b6114059190611aa4565b9050846040015160011415611435576064600a54826114249190611ad9565b61142e9190611a79565b90506114b6565b84604001516002141561145e576127106002600a546114549190611ca0565b6114249083611ad9565b84604001516003141561147e57620f42406003600a546114549190611ca0565b8460400151600414156114b6576305f5e1006004600a5461149f9190611ca0565b6114a99083611ad9565b6114b39190611a79565b90505b9695505050505050565b6000546001600160a01b031633146114ea5760405162461bcd60e51b81526004016107cf906119ce565b600755565b6000546001600160a01b031633146115195760405162461bcd60e51b81526004016107cf906119ce565b6040516001600160a01b038216904780156108fc02916000818181858888f19350505050158015610a26573d6000803e3d6000fd5b6000546001600160a01b031633146115785760405162461bcd60e51b81526004016107cf906119ce565b6001600160a01b0381166115dd5760405162461bcd60e51b815260206004820152602660248201527f4f776e61626c653a206e6577206f776e657220697320746865207a65726f206160448201526564647265737360d01b60648201526084016107cf565b610a288161165c565b6000546001600160a01b031633146116105760405162461bcd60e51b81526004016107cf906119ce565b600280546001600160a01b0319166001600160a01b0392909216919091179055565b6000818152600b60205260408120600101546009546116519190611a8d565b611140906001611aa4565b600080546001600160a01b038381166001600160a01b0319831681178455604051919092169283917f8be0079c531659141344cd1fd0a4f28419497f9722a3daafe3b4186f6b6457e09190a35050565b60606116d18383604051806060016040528060278152602001611cdf602791396116d8565b9392505050565b60606001600160a01b0384163b6117405760405162461bcd60e51b815260206004820152602660248201527f416464726573733a2064656c65676174652063616c6c20746f206e6f6e2d636f6044820152651b9d1c9858dd60d21b60648201526084016107cf565b600080856001600160a01b03168560405161175b9190611caf565b600060405180830381855af49150503d8060008114611796576040519150601f19603f3d011682016040523d82523d6000602084013e61179b565b606091505b50915091506114b6828286606083156117b55750816116d1565b8251156117c55782518084602001fd5b8160405162461bcd60e51b81526004016107cf9190611ccb565b6000602082840312156117f157600080fd5b5035919050565b6001600160a01b0381168114610a2857600080fd5b60006020828403121561181f57600080fd5b81356116d1816117f8565b6000808284036101a081121561183f57600080fd5b83359250610180601f198201121561185657600080fd5b506020830190509250929050565b6000806040838503121561187757600080fd5b50508035926020909101359150565b60008083601f84011261189857600080fd5b50813567ffffffffffffffff8111156118b057600080fd5b6020830191508360208260051b85010111156118cb57600080fd5b9250929050565b600080602083850312156118e557600080fd5b823567ffffffffffffffff8111156118fc57600080fd5b61190885828601611886565b90969095509350505050565b60005b8381101561192f578181015183820152602001611917565b838111156108e25750506000910152565b60008151808452611958816020860160208601611914565b601f01601f19169290920160200192915050565b6000602080830181845280855180835260408601915060408160051b870101925083870160005b828110156119c157603f198886030184526119af858351611940565b94509285019290850190600101611993565b5092979650505050505050565b6020808252818101527f4f776e61626c653a2063616c6c6572206973206e6f7420746865206f776e6572604082015260600190565b6020808252602a908201527f4865726f4d616e616765723a2063616c6c61626c65206279206c6f62627920626040820152696174746c65206f6e6c7960b01b606082015260800190565b634e487b7160e01b600052601260045260246000fd5b634e487b7160e01b600052601160045260246000fd5b600082611a8857611a88611a4d565b500490565b600082821015611a9f57611a9f611a63565b500390565b60008219821115611ab757611ab7611a63565b500190565b600060208284031215611ace57600080fd5b81516116d1816117f8565b6000816000190483118215151615611af357611af3611a63565b500290565b600060208284031215611b0a57600080fd5b815180151581146116d157600080fd5b634e487b7160e01b600052603260045260246000fd5b6000600019821415611b4457611b44611a63565b5060010190565b600082611b5a57611b5a611a4d565b500690565b634e487b7160e01b600052604160045260246000fd5b6000808335601e19843603018112611b8c57600080fd5b83018035915067ffffffffffffffff821115611ba757600080fd5b6020019150368190038213156118cb57600080fd5b600181815b80851115611bf7578160001904821115611bdd57611bdd611a63565b80851615611bea57918102915b93841c9390800290611bc1565b509250929050565b600082611c0e57506001611140565b81611c1b57506000611140565b8160018114611c315760028114611c3b57611c57565b6001915050611140565b60ff841115611c4c57611c4c611a63565b50506001821b611140565b5060208310610133831016604e8410600b8410161715611c7a575081810a611140565b611c848383611bbc565b8060001904821115611c9857611c98611a63565b029392505050565b60006116d160ff841683611bff565b60008251611cc1818460208701611914565b9190910192915050565b6020815260006116d1602083018461194056fe416464726573733a206c6f772d6c6576656c2064656c65676174652063616c6c206661696c6564a264697066735822122001613e46c6710c57ff58c06b5e4a06fb7983604b063f5f404c0ac8a3b264dfa664736f6c63430008090033",
  "linkReferences": {},
  "deployedLinkReferences": {}
}