{
  "_format": "hh-sol-artifact-1",
  "contractName": "HeroInfinityToken",
  "sourceName": "contracts/HeroInfinityToken.sol",
  "abi": [
    {
      "inputs": [],
      "stateMutability": "nonpayable",
      "type": "constructor"
    },
    {
      "anonymous": false,
      "inputs": [
        {
          "indexed": true,
          "internalType": "address",
          "name": "owner",
          "type": "address"
        },
        {
          "indexed": true,
          "internalType": "address",
          "name": "spender",
          "type": "address"
        },
        {
          "indexed": false,
          "internalType": "uint256",
          "name": "value",
          "type": "uint256"
        }
      ],
      "name": "Approval",
      "type": "event"
    },
    {
      "anonymous": false,
      "inputs": [
        {
          "indexed": true,
          "internalType": "address",
          "name": "previousOwner",
          "type": "address"
        },
        {
          "indexed": true,
          "internalType": "address",
          "name": "newOwner",
          "type": "address"
        }
      ],
      "name": "OwnershipTransferred",
      "type": "event"
    },
    {
      "anonymous": false,
      "inputs": [
        {
          "indexed": true,
          "internalType": "address",
          "name": "from",
          "type": "address"
        },
        {
          "indexed": true,
          "internalType": "address",
          "name": "to",
          "type": "address"
        },
        {
          "indexed": false,
          "internalType": "uint256",
          "name": "value",
          "type": "uint256"
        }
      ],
      "name": "Transfer",
      "type": "event"
    },
    {
      "inputs": [
        {
          "internalType": "address",
          "name": "owner",
          "type": "address"
        },
        {
          "internalType": "address",
          "name": "spender",
          "type": "address"
        }
      ],
      "name": "allowance",
      "outputs": [
        {
          "internalType": "uint256",
          "name": "",
          "type": "uint256"
        }
      ],
      "stateMutability": "view",
      "type": "function"
    },
    {
      "inputs": [
        {
          "internalType": "address",
          "name": "spender",
          "type": "address"
        },
        {
          "internalType": "uint256",
          "name": "amount",
          "type": "uint256"
        }
      ],
      "name": "approve",
      "outputs": [
        {
          "internalType": "bool",
          "name": "",
          "type": "bool"
        }
      ],
      "stateMutability": "nonpayable",
      "type": "function"
    },
    {
      "inputs": [
        {
          "internalType": "address",
          "name": "account",
          "type": "address"
        }
      ],
      "name": "balanceOf",
      "outputs": [
        {
          "internalType": "uint256",
          "name": "",
          "type": "uint256"
        }
      ],
      "stateMutability": "view",
      "type": "function"
    },
    {
      "inputs": [],
      "name": "decimals",
      "outputs": [
        {
          "internalType": "uint8",
          "name": "",
          "type": "uint8"
        }
      ],
      "stateMutability": "view",
      "type": "function"
    },
    {
      "inputs": [
        {
          "internalType": "address",
          "name": "spender",
          "type": "address"
        },
        {
          "internalType": "uint256",
          "name": "subtractedValue",
          "type": "uint256"
        }
      ],
      "name": "decreaseAllowance",
      "outputs": [
        {
          "internalType": "bool",
          "name": "",
          "type": "bool"
        }
      ],
      "stateMutability": "nonpayable",
      "type": "function"
    },
    {
      "inputs": [
        {
          "internalType": "address",
          "name": "spender",
          "type": "address"
        },
        {
          "internalType": "uint256",
          "name": "addedValue",
          "type": "uint256"
        }
      ],
      "name": "increaseAllowance",
      "outputs": [
        {
          "internalType": "bool",
          "name": "",
          "type": "bool"
        }
      ],
      "stateMutability": "nonpayable",
      "type": "function"
    },
    {
      "inputs": [],
      "name": "name",
      "outputs": [
        {
          "internalType": "string",
          "name": "",
          "type": "string"
        }
      ],
      "stateMutability": "view",
      "type": "function"
    },
    {
      "inputs": [],
      "name": "owner",
      "outputs": [
        {
          "internalType": "address",
          "name": "",
          "type": "address"
        }
      ],
      "stateMutability": "view",
      "type": "function"
    },
    {
      "inputs": [],
      "name": "renounceOwnership",
      "outputs": [],
      "stateMutability": "nonpayable",
      "type": "function"
    },
    {
      "inputs": [
        {
          "internalType": "address[]",
          "name": "addrs",
          "type": "address[]"
        }
      ],
      "name": "setBots",
      "outputs": [],
      "stateMutability": "nonpayable",
      "type": "function"
    },
    {
      "inputs": [],
      "name": "symbol",
      "outputs": [
        {
          "internalType": "string",
          "name": "",
          "type": "string"
        }
      ],
      "stateMutability": "view",
      "type": "function"
    },
    {
      "inputs": [],
      "name": "totalSupply",
      "outputs": [
        {
          "internalType": "uint256",
          "name": "",
          "type": "uint256"
        }
      ],
      "stateMutability": "view",
      "type": "function"
    },
    {
      "inputs": [
        {
          "internalType": "address",
          "name": "recipient",
          "type": "address"
        },
        {
          "internalType": "uint256",
          "name": "amount",
          "type": "uint256"
        }
      ],
      "name": "transfer",
      "outputs": [
        {
          "internalType": "bool",
          "name": "",
          "type": "bool"
        }
      ],
      "stateMutability": "nonpayable",
      "type": "function"
    },
    {
      "inputs": [
        {
          "internalType": "address",
          "name": "sender",
          "type": "address"
        },
        {
          "internalType": "address",
          "name": "recipient",
          "type": "address"
        },
        {
          "internalType": "uint256",
          "name": "amount",
          "type": "uint256"
        }
      ],
      "name": "transferFrom",
      "outputs": [
        {
          "internalType": "bool",
          "name": "",
          "type": "bool"
        }
      ],
      "stateMutability": "nonpayable",
      "type": "function"
    },
    {
      "inputs": [
        {
          "internalType": "address",
          "name": "newOwner",
          "type": "address"
        }
      ],
      "name": "transferOwnership",
      "outputs": [],
      "stateMutability": "nonpayable",
      "type": "function"
    },
    {
      "inputs": [
        {
          "internalType": "address[]",
          "name": "addrs",
          "type": "address[]"
        }
      ],
      "name": "unsetBots",
      "outputs": [],
      "stateMutability": "nonpayable",
      "type": "function"
    }
  ],
  "bytecode": "0x60806040523480156200001157600080fd5b506040518060400160405280601381526020017f4865726f20496e66696e69747920546f6b656e000000000000000000000000008152506040518060400160405280600381526020017f485249000000000000000000000000000000000000000000000000000000000081525081600390805190602001906200009692919062000347565b508060049080519060200190620000af92919062000347565b505050620000d2620000c6620000f660201b60201c565b620000fe60201b60201c565b620000f0336b033b2e3c9fd0803ce8000000620001c460201b60201c565b620005a3565b600033905090565b6000600560009054906101000a900473ffffffffffffffffffffffffffffffffffffffff16905081600560006101000a81548173ffffffffffffffffffffffffffffffffffffffff021916908373ffffffffffffffffffffffffffffffffffffffff1602179055508173ffffffffffffffffffffffffffffffffffffffff168173ffffffffffffffffffffffffffffffffffffffff167f8be0079c531659141344cd1fd0a4f28419497f9722a3daafe3b4186f6b6457e060405160405180910390a35050565b600073ffffffffffffffffffffffffffffffffffffffff168273ffffffffffffffffffffffffffffffffffffffff16141562000237576040517f08c379a00000000000000000000000000000000000000000000000000000000081526004016200022e906200042f565b60405180910390fd5b6200024b600083836200033d60201b60201c565b80600260008282546200025f91906200047f565b92505081905550806000808473ffffffffffffffffffffffffffffffffffffffff1673ffffffffffffffffffffffffffffffffffffffff1681526020019081526020016000206000828254620002b691906200047f565b925050819055508173ffffffffffffffffffffffffffffffffffffffff16600073ffffffffffffffffffffffffffffffffffffffff167fddf252ad1be2c89b69c2b068fc378daa952ba7f163c4a11628f55a4df523b3ef836040516200031d919062000451565b60405180910390a362000339600083836200034260201b60201c565b5050565b505050565b505050565b8280546200035590620004e6565b90600052602060002090601f016020900481019282620003795760008555620003c5565b82601f106200039457805160ff1916838001178555620003c5565b82800160010185558215620003c5579182015b82811115620003c4578251825591602001919060010190620003a7565b5b509050620003d49190620003d8565b5090565b5b80821115620003f3576000816000905550600101620003d9565b5090565b600062000406601f836200046e565b915062000413826200057a565b602082019050919050565b6200042981620004dc565b82525050565b600060208201905081810360008301526200044a81620003f7565b9050919050565b60006020820190506200046860008301846200041e565b92915050565b600082825260208201905092915050565b60006200048c82620004dc565b91506200049983620004dc565b9250827fffffffffffffffffffffffffffffffffffffffffffffffffffffffffffffffff03821115620004d157620004d06200051c565b5b828201905092915050565b6000819050919050565b60006002820490506001821680620004ff57607f821691505b602082108114156200051657620005156200054b565b5b50919050565b7f4e487b7100000000000000000000000000000000000000000000000000000000600052601160045260246000fd5b7f4e487b7100000000000000000000000000000000000000000000000000000000600052602260045260246000fd5b7f45524332303a206d696e7420746f20746865207a65726f206164647265737300600082015250565b611e7380620005b36000396000f3fe608060405234801561001057600080fd5b50600436106101005760003560e01c80638da5cb5b11610097578063a9059cbb11610066578063a9059cbb146102b1578063b515566a146102e1578063dd62ed3e146102fd578063f2fde38b1461032d57610100565b80638da5cb5b1461022957806395d89b4114610247578063a39af98414610265578063a457c2d71461028157610100565b8063313ce567116100d3578063313ce567146101a157806339509351146101bf57806370a08231146101ef578063715018a61461021f57610100565b806306fdde0314610105578063095ea7b31461012357806318160ddd1461015357806323b872dd14610171575b600080fd5b61010d610349565b60405161011a91906116a9565b60405180910390f35b61013d60048036038101906101389190611400565b6103db565b60405161014a919061168e565b60405180910390f35b61015b6103f9565b604051610168919061182b565b60405180910390f35b61018b600480360381019061018691906113b1565b610403565b604051610198919061168e565b60405180910390f35b6101a96104fb565b6040516101b69190611846565b60405180910390f35b6101d960048036038101906101d49190611400565b610504565b6040516101e6919061168e565b60405180910390f35b6102096004803603810190610204919061134c565b6105b0565b604051610216919061182b565b60405180910390f35b6102276105f8565b005b610231610680565b60405161023e9190611673565b60405180910390f35b61024f6106aa565b60405161025c91906116a9565b60405180910390f35b61027f600480360381019061027a919061143c565b61073c565b005b61029b60048036038101906102969190611400565b610873565b6040516102a8919061168e565b60405180910390f35b6102cb60048036038101906102c69190611400565b61095e565b6040516102d8919061168e565b60405180910390f35b6102fb60048036038101906102f6919061143c565b61097c565b005b61031760048036038101906103129190611375565b610ab3565b604051610324919061182b565b60405180910390f35b6103476004803603810190610342919061134c565b610b3a565b005b606060038054610358906119ac565b80601f0160208091040260200160405190810160405280929190818152602001828054610384906119ac565b80156103d15780601f106103a6576101008083540402835291602001916103d1565b820191906000526020600020905b8154815290600101906020018083116103b457829003601f168201915b5050505050905090565b60006103ef6103e8610c32565b8484610c3a565b6001905092915050565b6000600254905090565b6000610410848484610e05565b6000600160008673ffffffffffffffffffffffffffffffffffffffff1673ffffffffffffffffffffffffffffffffffffffff168152602001908152602001600020600061045b610c32565b73ffffffffffffffffffffffffffffffffffffffff1673ffffffffffffffffffffffffffffffffffffffff168152602001908152602001600020549050828110156104db576040517f08c379a00000000000000000000000000000000000000000000000000000000081526004016104d29061178b565b60405180910390fd5b6104ef856104e7610c32565b858403610c3a565b60019150509392505050565b60006012905090565b60006105a6610511610c32565b84846001600061051f610c32565b73ffffffffffffffffffffffffffffffffffffffff1673ffffffffffffffffffffffffffffffffffffffff16815260200190815260200160002060008873ffffffffffffffffffffffffffffffffffffffff1673ffffffffffffffffffffffffffffffffffffffff168152602001908152602001600020546105a191906118ce565b610c3a565b6001905092915050565b60008060008373ffffffffffffffffffffffffffffffffffffffff1673ffffffffffffffffffffffffffffffffffffffff168152602001908152602001600020549050919050565b610600610c32565b73ffffffffffffffffffffffffffffffffffffffff1661061e610680565b73ffffffffffffffffffffffffffffffffffffffff1614610674576040517f08c379a000000000000000000000000000000000000000000000000000000000815260040161066b906117ab565b60405180910390fd5b61067e6000610f3b565b565b6000600560009054906101000a900473ffffffffffffffffffffffffffffffffffffffff16905090565b6060600480546106b9906119ac565b80601f01602080910402602001604051908101604052809291908181526020018280546106e5906119ac565b80156107325780601f1061070757610100808354040283529160200191610732565b820191906000526020600020905b81548152906001019060200180831161071557829003601f168201915b5050505050905090565b610744610c32565b73ffffffffffffffffffffffffffffffffffffffff16610762610680565b73ffffffffffffffffffffffffffffffffffffffff16146107b8576040517f08c379a00000000000000000000000000000000000000000000000000000000081526004016107af906117ab565b60405180910390fd5b60005b815181101561086f57600060066000848481518110610803577f4e487b7100000000000000000000000000000000000000000000000000000000600052603260045260246000fd5b602002602001015173ffffffffffffffffffffffffffffffffffffffff1673ffffffffffffffffffffffffffffffffffffffff16815260200190815260200160002060006101000a81548160ff021916908315150217905550808061086790611a0f565b9150506107bb565b5050565b60008060016000610882610c32565b73ffffffffffffffffffffffffffffffffffffffff1673ffffffffffffffffffffffffffffffffffffffff16815260200190815260200160002060008573ffffffffffffffffffffffffffffffffffffffff1673ffffffffffffffffffffffffffffffffffffffff1681526020019081526020016000205490508281101561093f576040517f08c379a00000000000000000000000000000000000000000000000000000000081526004016109369061180b565b60405180910390fd5b61095361094a610c32565b85858403610c3a565b600191505092915050565b600061097261096b610c32565b8484610e05565b6001905092915050565b610984610c32565b73ffffffffffffffffffffffffffffffffffffffff166109a2610680565b73ffffffffffffffffffffffffffffffffffffffff16146109f8576040517f08c379a00000000000000000000000000000000000000000000000000000000081526004016109ef906117ab565b60405180910390fd5b60005b8151811015610aaf57600160066000848481518110610a43577f4e487b7100000000000000000000000000000000000000000000000000000000600052603260045260246000fd5b602002602001015173ffffffffffffffffffffffffffffffffffffffff1673ffffffffffffffffffffffffffffffffffffffff16815260200190815260200160002060006101000a81548160ff0219169083151502179055508080610aa790611a0f565b9150506109fb565b5050565b6000600160008473ffffffffffffffffffffffffffffffffffffffff1673ffffffffffffffffffffffffffffffffffffffff16815260200190815260200160002060008373ffffffffffffffffffffffffffffffffffffffff1673ffffffffffffffffffffffffffffffffffffffff16815260200190815260200160002054905092915050565b610b42610c32565b73ffffffffffffffffffffffffffffffffffffffff16610b60610680565b73ffffffffffffffffffffffffffffffffffffffff1614610bb6576040517f08c379a0000000000000000000000000000000000000000000000000000000008152600401610bad906117ab565b60405180910390fd5b600073ffffffffffffffffffffffffffffffffffffffff168173ffffffffffffffffffffffffffffffffffffffff161415610c26576040517f08c379a0000000000000000000000000000000000000000000000000000000008152600401610c1d9061170b565b60405180910390fd5b610c2f81610f3b565b50565b600033905090565b600073ffffffffffffffffffffffffffffffffffffffff168373ffffffffffffffffffffffffffffffffffffffff161415610caa576040517f08c379a0000000000000000000000000000000000000000000000000000000008152600401610ca1906117eb565b60405180910390fd5b600073ffffffffffffffffffffffffffffffffffffffff168273ffffffffffffffffffffffffffffffffffffffff161415610d1a576040517f08c379a0000000000000000000000000000000000000000000000000000000008152600401610d119061172b565b60405180910390fd5b80600160008573ffffffffffffffffffffffffffffffffffffffff1673ffffffffffffffffffffffffffffffffffffffff16815260200190815260200160002060008473ffffffffffffffffffffffffffffffffffffffff1673ffffffffffffffffffffffffffffffffffffffff168152602001908152602001600020819055508173ffffffffffffffffffffffffffffffffffffffff168373ffffffffffffffffffffffffffffffffffffffff167f8c5be1e5ebec7d5bd14f71427d1e84f3dd0314c0f7b2291e5b200ac8c7c3b92583604051610df8919061182b565b60405180910390a3505050565b60008111610e48576040517f08c379a0000000000000000000000000000000000000000000000000000000008152600401610e3f9061176b565b60405180910390fd5b600660008473ffffffffffffffffffffffffffffffffffffffff1673ffffffffffffffffffffffffffffffffffffffff16815260200190815260200160002060009054906101000a900460ff16158015610eec5750600660008373ffffffffffffffffffffffffffffffffffffffff1673ffffffffffffffffffffffffffffffffffffffff16815260200190815260200160002060009054906101000a900460ff16155b610f2b576040517f08c379a0000000000000000000000000000000000000000000000000000000008152600401610f22906116eb565b60405180910390fd5b610f36838383611001565b505050565b6000600560009054906101000a900473ffffffffffffffffffffffffffffffffffffffff16905081600560006101000a81548173ffffffffffffffffffffffffffffffffffffffff021916908373ffffffffffffffffffffffffffffffffffffffff1602179055508173ffffffffffffffffffffffffffffffffffffffff168173ffffffffffffffffffffffffffffffffffffffff167f8be0079c531659141344cd1fd0a4f28419497f9722a3daafe3b4186f6b6457e060405160405180910390a35050565b600073ffffffffffffffffffffffffffffffffffffffff168373ffffffffffffffffffffffffffffffffffffffff161415611071576040517f08c379a0000000000000000000000000000000000000000000000000000000008152600401611068906117cb565b60405180910390fd5b600073ffffffffffffffffffffffffffffffffffffffff168273ffffffffffffffffffffffffffffffffffffffff1614156110e1576040517f08c379a00000000000000000000000000000000000000000000000000000000081526004016110d8906116cb565b60405180910390fd5b6110ec838383611282565b60008060008573ffffffffffffffffffffffffffffffffffffffff1673ffffffffffffffffffffffffffffffffffffffff16815260200190815260200160002054905081811015611172576040517f08c379a00000000000000000000000000000000000000000000000000000000081526004016111699061174b565b60405180910390fd5b8181036000808673ffffffffffffffffffffffffffffffffffffffff1673ffffffffffffffffffffffffffffffffffffffff16815260200190815260200160002081905550816000808573ffffffffffffffffffffffffffffffffffffffff1673ffffffffffffffffffffffffffffffffffffffff168152602001908152602001600020600082825461120591906118ce565b925050819055508273ffffffffffffffffffffffffffffffffffffffff168473ffffffffffffffffffffffffffffffffffffffff167fddf252ad1be2c89b69c2b068fc378daa952ba7f163c4a11628f55a4df523b3ef84604051611269919061182b565b60405180910390a361127c848484611287565b50505050565b505050565b505050565b600061129f61129a84611886565b611861565b905080838252602082019050828560208602820111156112be57600080fd5b60005b858110156112ee57816112d488826112f8565b8452602084019350602083019250506001810190506112c1565b5050509392505050565b60008135905061130781611e0f565b92915050565b600082601f83011261131e57600080fd5b813561132e84826020860161128c565b91505092915050565b60008135905061134681611e26565b92915050565b60006020828403121561135e57600080fd5b600061136c848285016112f8565b91505092915050565b6000806040838503121561138857600080fd5b6000611396858286016112f8565b92505060206113a7858286016112f8565b9150509250929050565b6000806000606084860312156113c657600080fd5b60006113d4868287016112f8565b93505060206113e5868287016112f8565b92505060406113f686828701611337565b9150509250925092565b6000806040838503121561141357600080fd5b6000611421858286016112f8565b925050602061143285828601611337565b9150509250929050565b60006020828403121561144e57600080fd5b600082013567ffffffffffffffff81111561146857600080fd5b6114748482850161130d565b91505092915050565b61148681611924565b82525050565b61149581611936565b82525050565b60006114a6826118b2565b6114b081856118bd565b93506114c0818560208601611979565b6114c981611ae5565b840191505092915050565b60006114e16023836118bd565b91506114ec82611af6565b604082019050919050565b60006115046014836118bd565b915061150f82611b45565b602082019050919050565b60006115276026836118bd565b915061153282611b6e565b604082019050919050565b600061154a6022836118bd565b915061155582611bbd565b604082019050919050565b600061156d6026836118bd565b915061157882611c0c565b604082019050919050565b6000611590602e836118bd565b915061159b82611c5b565b604082019050919050565b60006115b36028836118bd565b91506115be82611caa565b604082019050919050565b60006115d66020836118bd565b91506115e182611cf9565b602082019050919050565b60006115f96025836118bd565b915061160482611d22565b604082019050919050565b600061161c6024836118bd565b915061162782611d71565b604082019050919050565b600061163f6025836118bd565b915061164a82611dc0565b604082019050919050565b61165e81611962565b82525050565b61166d8161196c565b82525050565b6000602082019050611688600083018461147d565b92915050565b60006020820190506116a3600083018461148c565b92915050565b600060208201905081810360008301526116c3818461149b565b905092915050565b600060208201905081810360008301526116e4816114d4565b9050919050565b60006020820190508181036000830152611704816114f7565b9050919050565b600060208201905081810360008301526117248161151a565b9050919050565b600060208201905081810360008301526117448161153d565b9050919050565b6000602082019050818103600083015261176481611560565b9050919050565b6000602082019050818103600083015261178481611583565b9050919050565b600060208201905081810360008301526117a4816115a6565b9050919050565b600060208201905081810360008301526117c4816115c9565b9050919050565b600060208201905081810360008301526117e4816115ec565b9050919050565b600060208201905081810360008301526118048161160f565b9050919050565b6000602082019050818103600083015261182481611632565b9050919050565b60006020820190506118406000830184611655565b92915050565b600060208201905061185b6000830184611664565b92915050565b600061186b61187c565b905061187782826119de565b919050565b6000604051905090565b600067ffffffffffffffff8211156118a1576118a0611ab6565b5b602082029050602081019050919050565b600081519050919050565b600082825260208201905092915050565b60006118d982611962565b91506118e483611962565b9250827fffffffffffffffffffffffffffffffffffffffffffffffffffffffffffffffff0382111561191957611918611a58565b5b828201905092915050565b600061192f82611942565b9050919050565b60008115159050919050565b600073ffffffffffffffffffffffffffffffffffffffff82169050919050565b6000819050919050565b600060ff82169050919050565b60005b8381101561199757808201518184015260208101905061197c565b838111156119a6576000848401525b50505050565b600060028204905060018216806119c457607f821691505b602082108114156119d8576119d7611a87565b5b50919050565b6119e782611ae5565b810181811067ffffffffffffffff82111715611a0657611a05611ab6565b5b80604052505050565b6000611a1a82611962565b91507fffffffffffffffffffffffffffffffffffffffffffffffffffffffffffffffff821415611a4d57611a4c611a58565b5b600182019050919050565b7f4e487b7100000000000000000000000000000000000000000000000000000000600052601160045260246000fd5b7f4e487b7100000000000000000000000000000000000000000000000000000000600052602260045260246000fd5b7f4e487b7100000000000000000000000000000000000000000000000000000000600052604160045260246000fd5b6000601f19601f8301169050919050565b7f45524332303a207472616e7366657220746f20746865207a65726f206164647260008201527f6573730000000000000000000000000000000000000000000000000000000000602082015250565b7f4852493a207472616e7366657220627920626f74000000000000000000000000600082015250565b7f4f776e61626c653a206e6577206f776e657220697320746865207a65726f206160008201527f6464726573730000000000000000000000000000000000000000000000000000602082015250565b7f45524332303a20617070726f766520746f20746865207a65726f20616464726560008201527f7373000000000000000000000000000000000000000000000000000000000000602082015250565b7f45524332303a207472616e7366657220616d6f756e742065786365656473206260008201527f616c616e63650000000000000000000000000000000000000000000000000000602082015250565b7f4852493a207472616e7366657220616d6f756e74206d7573742062652067726560008201527f61746572207468616e207a65726f000000000000000000000000000000000000602082015250565b7f45524332303a207472616e7366657220616d6f756e742065786365656473206160008201527f6c6c6f77616e6365000000000000000000000000000000000000000000000000602082015250565b7f4f776e61626c653a2063616c6c6572206973206e6f7420746865206f776e6572600082015250565b7f45524332303a207472616e736665722066726f6d20746865207a65726f20616460008201527f6472657373000000000000000000000000000000000000000000000000000000602082015250565b7f45524332303a20617070726f76652066726f6d20746865207a65726f2061646460008201527f7265737300000000000000000000000000000000000000000000000000000000602082015250565b7f45524332303a2064656372656173656420616c6c6f77616e63652062656c6f7760008201527f207a65726f000000000000000000000000000000000000000000000000000000602082015250565b611e1881611924565b8114611e2357600080fd5b50565b611e2f81611962565b8114611e3a57600080fd5b5056fea2646970667358221220009d4d936c97dfc306edffe695b153e047ad999789b214769d303867a533f60264736f6c63430008040033",
  "linkReferences": {},
  "deployedLinkReferences": {}
}