{
  "_format": "hh-sol-artifact-1",
  "contractName": "HeroInfinityNFT",
  "sourceName": "contracts/HeroInfinityNFT.sol",
  "abi": [
    {
      "inputs": [
        {
          "internalType": "bytes32",
          "name": "root",
          "type": "bytes32"
        }
      ],
      "stateMutability": "nonpayable",
      "type": "constructor"
    },
    {
      "anonymous": false,
      "inputs": [
        {
          "indexed": true,
          "internalType": "address",
          "name": "owner",
          "type": "address"
        },
        {
          "indexed": true,
          "internalType": "address",
          "name": "approved",
          "type": "address"
        },
        {
          "indexed": true,
          "internalType": "uint256",
          "name": "tokenId",
          "type": "uint256"
        }
      ],
      "name": "Approval",
      "type": "event"
    },
    {
      "anonymous": false,
      "inputs": [
        {
          "indexed": true,
          "internalType": "address",
          "name": "owner",
          "type": "address"
        },
        {
          "indexed": true,
          "internalType": "address",
          "name": "operator",
          "type": "address"
        },
        {
          "indexed": false,
          "internalType": "bool",
          "name": "approved",
          "type": "bool"
        }
      ],
      "name": "ApprovalForAll",
      "type": "event"
    },
    {
      "anonymous": false,
      "inputs": [
        {
          "indexed": true,
          "internalType": "address",
          "name": "previousOwner",
          "type": "address"
        },
        {
          "indexed": true,
          "internalType": "address",
          "name": "newOwner",
          "type": "address"
        }
      ],
      "name": "OwnershipTransferred",
      "type": "event"
    },
    {
      "anonymous": false,
      "inputs": [
        {
          "indexed": true,
          "internalType": "address",
          "name": "from",
          "type": "address"
        },
        {
          "indexed": true,
          "internalType": "address",
          "name": "to",
          "type": "address"
        },
        {
          "indexed": true,
          "internalType": "uint256",
          "name": "tokenId",
          "type": "uint256"
        }
      ],
      "name": "Transfer",
      "type": "event"
    },
    {
      "inputs": [],
      "name": "HIGHEST_PUBLIC",
      "outputs": [
        {
          "internalType": "uint256",
          "name": "",
          "type": "uint256"
        }
      ],
      "stateMutability": "view",
      "type": "function"
    },
    {
      "inputs": [],
      "name": "HIGHEST_TEAM",
      "outputs": [
        {
          "internalType": "uint256",
          "name": "",
          "type": "uint256"
        }
      ],
      "stateMutability": "view",
      "type": "function"
    },
    {
      "inputs": [],
      "name": "MAX_PER_WALLET",
      "outputs": [
        {
          "internalType": "uint256",
          "name": "",
          "type": "uint256"
        }
      ],
      "stateMutability": "view",
      "type": "function"
    },
    {
      "inputs": [
        {
          "internalType": "address",
          "name": "to",
          "type": "address"
        },
        {
          "internalType": "uint256",
          "name": "tokenId",
          "type": "uint256"
        }
      ],
      "name": "approve",
      "outputs": [],
      "stateMutability": "nonpayable",
      "type": "function"
    },
    {
      "inputs": [
        {
          "internalType": "address",
          "name": "owner",
          "type": "address"
        }
      ],
      "name": "balanceOf",
      "outputs": [
        {
          "internalType": "uint256",
          "name": "",
          "type": "uint256"
        }
      ],
      "stateMutability": "view",
      "type": "function"
    },
    {
      "inputs": [
        {
          "internalType": "uint256",
          "name": "tokenId",
          "type": "uint256"
        }
      ],
      "name": "getApproved",
      "outputs": [
        {
          "internalType": "address",
          "name": "",
          "type": "address"
        }
      ],
      "stateMutability": "view",
      "type": "function"
    },
    {
      "inputs": [
        {
          "internalType": "address",
          "name": "owner",
          "type": "address"
        },
        {
          "internalType": "address",
          "name": "operator",
          "type": "address"
        }
      ],
      "name": "isApprovedForAll",
      "outputs": [
        {
          "internalType": "bool",
          "name": "",
          "type": "bool"
        }
      ],
      "stateMutability": "view",
      "type": "function"
    },
    {
      "inputs": [],
      "name": "isPublicOpen",
      "outputs": [
        {
          "internalType": "bool",
          "name": "",
          "type": "bool"
        }
      ],
      "stateMutability": "view",
      "type": "function"
    },
    {
      "inputs": [],
      "name": "isWhitelistOpen",
      "outputs": [
        {
          "internalType": "bool",
          "name": "",
          "type": "bool"
        }
      ],
      "stateMutability": "view",
      "type": "function"
    },
    {
      "inputs": [],
      "name": "merkleRoot",
      "outputs": [
        {
          "internalType": "bytes32",
          "name": "",
          "type": "bytes32"
        }
      ],
      "stateMutability": "view",
      "type": "function"
    },
    {
      "inputs": [
        {
          "internalType": "uint256",
          "name": "amount",
          "type": "uint256"
        }
      ],
      "name": "mint",
      "outputs": [],
      "stateMutability": "payable",
      "type": "function"
    },
    {
      "inputs": [],
      "name": "mintPrice",
      "outputs": [
        {
          "internalType": "uint256",
          "name": "",
          "type": "uint256"
        }
      ],
      "stateMutability": "view",
      "type": "function"
    },
    {
      "inputs": [
        {
          "internalType": "uint256",
          "name": "amount",
          "type": "uint256"
        }
      ],
      "name": "mintTeam",
      "outputs": [],
      "stateMutability": "nonpayable",
      "type": "function"
    },
    {
      "inputs": [
        {
          "internalType": "bytes32[]",
          "name": "merkleProof",
          "type": "bytes32[]"
        },
        {
          "internalType": "uint256",
          "name": "amount",
          "type": "uint256"
        }
      ],
      "name": "mintWhitelist",
      "outputs": [],
      "stateMutability": "payable",
      "type": "function"
    },
    {
      "inputs": [
        {
          "internalType": "address",
          "name": "",
          "type": "address"
        }
      ],
      "name": "mintedAmount",
      "outputs": [
        {
          "internalType": "uint256",
          "name": "",
          "type": "uint256"
        }
      ],
      "stateMutability": "view",
      "type": "function"
    },
    {
      "inputs": [],
      "name": "name",
      "outputs": [
        {
          "internalType": "string",
          "name": "",
          "type": "string"
        }
      ],
      "stateMutability": "view",
      "type": "function"
    },
    {
      "inputs": [],
      "name": "owner",
      "outputs": [
        {
          "internalType": "address",
          "name": "",
          "type": "address"
        }
      ],
      "stateMutability": "view",
      "type": "function"
    },
    {
      "inputs": [
        {
          "internalType": "uint256",
          "name": "tokenId",
          "type": "uint256"
        }
      ],
      "name": "ownerOf",
      "outputs": [
        {
          "internalType": "address",
          "name": "",
          "type": "address"
        }
      ],
      "stateMutability": "view",
      "type": "function"
    },
    {
      "inputs": [],
      "name": "publicStartTimestamp",
      "outputs": [
        {
          "internalType": "uint256",
          "name": "",
          "type": "uint256"
        }
      ],
      "stateMutability": "view",
      "type": "function"
    },
    {
      "inputs": [],
      "name": "renounceOwnership",
      "outputs": [],
      "stateMutability": "nonpayable",
      "type": "function"
    },
    {
      "inputs": [
        {
          "internalType": "address",
          "name": "from",
          "type": "address"
        },
        {
          "internalType": "address",
          "name": "to",
          "type": "address"
        },
        {
          "internalType": "uint256",
          "name": "tokenId",
          "type": "uint256"
        }
      ],
      "name": "safeTransferFrom",
      "outputs": [],
      "stateMutability": "nonpayable",
      "type": "function"
    },
    {
      "inputs": [
        {
          "internalType": "address",
          "name": "from",
          "type": "address"
        },
        {
          "internalType": "address",
          "name": "to",
          "type": "address"
        },
        {
          "internalType": "uint256",
          "name": "tokenId",
          "type": "uint256"
        },
        {
          "internalType": "bytes",
          "name": "_data",
          "type": "bytes"
        }
      ],
      "name": "safeTransferFrom",
      "outputs": [],
      "stateMutability": "nonpayable",
      "type": "function"
    },
    {
      "inputs": [
        {
          "internalType": "address",
          "name": "operator",
          "type": "address"
        },
        {
          "internalType": "bool",
          "name": "approved",
          "type": "bool"
        }
      ],
      "name": "setApprovalForAll",
      "outputs": [],
      "stateMutability": "nonpayable",
      "type": "function"
    },
    {
      "inputs": [
        {
          "internalType": "string",
          "name": "uri",
          "type": "string"
        }
      ],
      "name": "setBaseURI",
      "outputs": [],
      "stateMutability": "nonpayable",
      "type": "function"
    },
    {
      "inputs": [
        {
          "internalType": "uint256",
          "name": "price",
          "type": "uint256"
        }
      ],
      "name": "setMintPrice",
      "outputs": [],
      "stateMutability": "nonpayable",
      "type": "function"
    },
    {
      "inputs": [
        {
          "internalType": "uint256",
          "name": "whitelistTimestamp",
          "type": "uint256"
        },
        {
          "internalType": "uint256",
          "name": "publicTimestamp",
          "type": "uint256"
        }
      ],
      "name": "setSaleTimestamps",
      "outputs": [],
      "stateMutability": "nonpayable",
      "type": "function"
    },
    {
      "inputs": [
        {
          "internalType": "bytes4",
          "name": "interfaceId",
          "type": "bytes4"
        }
      ],
      "name": "supportsInterface",
      "outputs": [
        {
          "internalType": "bool",
          "name": "",
          "type": "bool"
        }
      ],
      "stateMutability": "view",
      "type": "function"
    },
    {
      "inputs": [],
      "name": "symbol",
      "outputs": [
        {
          "internalType": "string",
          "name": "",
          "type": "string"
        }
      ],
      "stateMutability": "view",
      "type": "function"
    },
    {
      "inputs": [
        {
          "internalType": "uint256",
          "name": "amount",
          "type": "uint256"
        }
      ],
      "name": "testMint",
      "outputs": [],
      "stateMutability": "nonpayable",
      "type": "function"
    },
    {
      "inputs": [
        {
          "internalType": "uint256",
          "name": "index",
          "type": "uint256"
        }
      ],
      "name": "tokenByIndex",
      "outputs": [
        {
          "internalType": "uint256",
          "name": "",
          "type": "uint256"
        }
      ],
      "stateMutability": "view",
      "type": "function"
    },
    {
      "inputs": [
        {
          "internalType": "address",
          "name": "owner",
          "type": "address"
        },
        {
          "internalType": "uint256",
          "name": "index",
          "type": "uint256"
        }
      ],
      "name": "tokenOfOwnerByIndex",
      "outputs": [
        {
          "internalType": "uint256",
          "name": "",
          "type": "uint256"
        }
      ],
      "stateMutability": "view",
      "type": "function"
    },
    {
      "inputs": [
        {
          "internalType": "uint256",
          "name": "tokenId",
          "type": "uint256"
        }
      ],
      "name": "tokenURI",
      "outputs": [
        {
          "internalType": "string",
          "name": "",
          "type": "string"
        }
      ],
      "stateMutability": "view",
      "type": "function"
    },
    {
      "inputs": [],
      "name": "totalSupply",
      "outputs": [
        {
          "internalType": "uint256",
          "name": "",
          "type": "uint256"
        }
      ],
      "stateMutability": "view",
      "type": "function"
    },
    {
      "inputs": [
        {
          "internalType": "address",
          "name": "from",
          "type": "address"
        },
        {
          "internalType": "address",
          "name": "to",
          "type": "address"
        },
        {
          "internalType": "uint256",
          "name": "tokenId",
          "type": "uint256"
        }
      ],
      "name": "transferFrom",
      "outputs": [],
      "stateMutability": "nonpayable",
      "type": "function"
    },
    {
      "inputs": [
        {
          "internalType": "address",
          "name": "newOwner",
          "type": "address"
        }
      ],
      "name": "transferOwnership",
      "outputs": [],
      "stateMutability": "nonpayable",
      "type": "function"
    },
    {
      "inputs": [],
      "name": "whitelistStartTimestamp",
      "outputs": [
        {
          "internalType": "uint256",
          "name": "",
          "type": "uint256"
        }
      ],
      "stateMutability": "view",
      "type": "function"
    },
    {
      "inputs": [],
      "name": "withdrawETH",
      "outputs": [],
      "stateMutability": "nonpayable",
      "type": "function"
    }
  ],
  "bytecode": "0x60a0604052662386f26fc10000600c556000600f55601d601055604051806080016040528060588152602001620049da60589139601190805190602001906200004a9291906200021b565b503480156200005857600080fd5b5060405162004a3238038062004a3283398181016040528101906200007e91906200030b565b6040518060400160405280601181526020017f4865726f20496e66696e697479204e46540000000000000000000000000000008152506040518060400160405280600681526020017f4852494e465400000000000000000000000000000000000000000000000000008152508160009080519060200190620001029291906200021b565b5080600190805190602001906200011b9291906200021b565b5050506200013e620001326200014d60201b60201c565b6200015560201b60201c565b806080818152505050620003a2565b600033905090565b6000600a60009054906101000a900473ffffffffffffffffffffffffffffffffffffffff16905081600a60006101000a81548173ffffffffffffffffffffffffffffffffffffffff021916908373ffffffffffffffffffffffffffffffffffffffff1602179055508173ffffffffffffffffffffffffffffffffffffffff168173ffffffffffffffffffffffffffffffffffffffff167f8be0079c531659141344cd1fd0a4f28419497f9722a3daafe3b4186f6b6457e060405160405180910390a35050565b82805462000229906200036c565b90600052602060002090601f0160209004810192826200024d576000855562000299565b82601f106200026857805160ff191683800117855562000299565b8280016001018555821562000299579182015b82811115620002985782518255916020019190600101906200027b565b5b509050620002a89190620002ac565b5090565b5b80821115620002c7576000816000905550600101620002ad565b5090565b600080fd5b6000819050919050565b620002e581620002d0565b8114620002f157600080fd5b50565b6000815190506200030581620002da565b92915050565b600060208284031215620003245762000323620002cb565b5b60006200033484828501620002f4565b91505092915050565b7f4e487b7100000000000000000000000000000000000000000000000000000000600052602260045260246000fd5b600060028204905060018216806200038557607f821691505b602082108114156200039c576200039b6200033d565b5b50919050565b60805161461c620003be6000396000610be3015261461c6000f3fe60806040526004361061021a5760003560e01c806370a0823111610123578063a22cb465116100ab578063e086e5ec1161006f578063e086e5ec146107b9578063e985e9c5146107d0578063f2fde38b1461080d578063f4a0a52814610836578063fbbf8cc31461085f5761021a565b8063a22cb465146106e5578063a6d612f91461070e578063b88d4fde1461072a578063c87b56dd14610753578063dcbd5bbb146107905761021a565b806394f4504d116100f257806394f4504d1461061d57806395d89b41146106485780639c14a884146106735780639ecfab9b1461069e578063a0712d68146106c95761021a565b806370a0823114610573578063715018a6146105b05780637307b3d9146105c75780638da5cb5b146105f25761021a565b80632f3f94ae116101a657806342842e0e1161017557806342842e0e1461047c5780634f6ccce7146104a557806355f804b3146104e25780636352211e1461050b5780636817c76c146105485761021a565b80632f3f94ae146103c25780632f745c59146103eb578063342f48aa146104285780633e65408a146104515761021a565b80630f2cdd6c116101ed5780630f2cdd6c146102ed57806311c67efc1461031857806318160ddd1461034357806323b872dd1461036e5780632eb4a7ab146103975761021a565b806301ffc9a71461021f57806306fdde031461025c578063081812fc14610287578063095ea7b3146102c4575b600080fd5b34801561022b57600080fd5b5061024660048036038101906102419190612d8b565b61089c565b6040516102539190612dd3565b60405180910390f35b34801561026857600080fd5b50610271610916565b60405161027e9190612e87565b60405180910390f35b34801561029357600080fd5b506102ae60048036038101906102a99190612edf565b6109a8565b6040516102bb9190612f4d565b60405180910390f35b3480156102d057600080fd5b506102eb60048036038101906102e69190612f94565b610a2d565b005b3480156102f957600080fd5b50610302610b45565b60405161030f9190612fe3565b60405180910390f35b34801561032457600080fd5b5061032d610b4a565b60405161033a9190612dd3565b60405180910390f35b34801561034f57600080fd5b50610358610b74565b6040516103659190612fe3565b60405180910390f35b34801561037a57600080fd5b5061039560048036038101906103909190612ffe565b610b81565b005b3480156103a357600080fd5b506103ac610be1565b6040516103b9919061306a565b60405180910390f35b3480156103ce57600080fd5b506103e960048036038101906103e49190612edf565b610c05565b005b3480156103f757600080fd5b50610412600480360381019061040d9190612f94565b610c44565b60405161041f9190612fe3565b60405180910390f35b34801561043457600080fd5b5061044f600480360381019061044a9190612edf565b610ce9565b005b34801561045d57600080fd5b50610466610e50565b6040516104739190612fe3565b60405180910390f35b34801561048857600080fd5b506104a3600480360381019061049e9190612ffe565b610e56565b005b3480156104b157600080fd5b506104cc60048036038101906104c79190612edf565b610e76565b6040516104d99190612fe3565b60405180910390f35b3480156104ee57600080fd5b50610509600480360381019061050491906131ba565b610ee7565b005b34801561051757600080fd5b50610532600480360381019061052d9190612edf565b610f7d565b60405161053f9190612f4d565b60405180910390f35b34801561055457600080fd5b5061055d61102f565b60405161056a9190612fe3565b60405180910390f35b34801561057f57600080fd5b5061059a60048036038101906105959190613203565b611035565b6040516105a79190612fe3565b60405180910390f35b3480156105bc57600080fd5b506105c56110ed565b005b3480156105d357600080fd5b506105dc611175565b6040516105e99190612fe3565b60405180910390f35b3480156105fe57600080fd5b5061060761117b565b6040516106149190612f4d565b60405180910390f35b34801561062957600080fd5b506106326111a5565b60405161063f9190612dd3565b60405180910390f35b34801561065457600080fd5b5061065d6111cf565b60405161066a9190612e87565b60405180910390f35b34801561067f57600080fd5b50610688611261565b6040516106959190612fe3565b60405180910390f35b3480156106aa57600080fd5b506106b3611266565b6040516106c09190612fe3565b60405180910390f35b6106e360048036038101906106de9190612edf565b61126c565b005b3480156106f157600080fd5b5061070c6004803603810190610707919061325c565b6112c0565b005b610728600480360381019061072391906132fc565b6112d6565b005b34801561073657600080fd5b50610751600480360381019061074c91906133fd565b61132c565b005b34801561075f57600080fd5b5061077a60048036038101906107759190612edf565b61138e565b6040516107879190612e87565b60405180910390f35b34801561079c57600080fd5b506107b760048036038101906107b29190613480565b611435565b005b3480156107c557600080fd5b506107ce611510565b005b3480156107dc57600080fd5b506107f760048036038101906107f291906134c0565b6115d5565b6040516108049190612dd3565b60405180910390f35b34801561081957600080fd5b50610834600480360381019061082f9190613203565b611669565b005b34801561084257600080fd5b5061085d60048036038101906108589190612edf565b611761565b005b34801561086b57600080fd5b5061088660048036038101906108819190613203565b6117e7565b6040516108939190612fe3565b60405180910390f35b60007f780e9d63000000000000000000000000000000000000000000000000000000007bffffffffffffffffffffffffffffffffffffffffffffffffffffffff1916827bffffffffffffffffffffffffffffffffffffffffffffffffffffffff1916148061090f575061090e826117ff565b5b9050919050565b6060600080546109259061352f565b80601f01602080910402602001604051908101604052809291908181526020018280546109519061352f565b801561099e5780601f106109735761010080835404028352916020019161099e565b820191906000526020600020905b81548152906001019060200180831161098157829003601f168201915b5050505050905090565b60006109b3826118e1565b6109f2576040517f08c379a00000000000000000000000000000000000000000000000000000000081526004016109e9906135d3565b60405180910390fd5b6004600083815260200190815260200160002060009054906101000a900473ffffffffffffffffffffffffffffffffffffffff169050919050565b6000610a3882610f7d565b90508073ffffffffffffffffffffffffffffffffffffffff168373ffffffffffffffffffffffffffffffffffffffff161415610aa9576040517f08c379a0000000000000000000000000000000000000000000000000000000008152600401610aa090613665565b60405180910390fd5b8073ffffffffffffffffffffffffffffffffffffffff16610ac861194d565b73ffffffffffffffffffffffffffffffffffffffff161480610af75750610af681610af161194d565b6115d5565b5b610b36576040517f08c379a0000000000000000000000000000000000000000000000000000000008152600401610b2d906136f7565b60405180910390fd5b610b408383611955565b505050565b600581565b600080600e54118015610b5f5750600e544210155b8015610b6f575061043660105411155b905090565b6000600880549050905090565b610b92610b8c61194d565b82611a0e565b610bd1576040517f08c379a0000000000000000000000000000000000000000000000000000000008152600401610bc890613789565b60405180910390fd5b610bdc838383611aec565b505050565b7f000000000000000000000000000000000000000000000000000000000000000081565b60005b81811015610c4057610c1a600b611d48565b610c2d33610c28600b611d5e565b611d6c565b8080610c38906137d8565b915050610c08565b5050565b6000610c4f83611035565b8210610c90576040517f08c379a0000000000000000000000000000000000000000000000000000000008152600401610c8790613893565b60405180910390fd5b600660008473ffffffffffffffffffffffffffffffffffffffff1673ffffffffffffffffffffffffffffffffffffffff168152602001908152602001600020600083815260200190815260200160002054905092915050565b610cf161194d565b73ffffffffffffffffffffffffffffffffffffffff16610d0f61117b565b73ffffffffffffffffffffffffffffffffffffffff1614610d65576040517f08c379a0000000000000000000000000000000000000000000000000000000008152600401610d5c906138ff565b60405180910390fd5b6000811415610da9576040517f08c379a0000000000000000000000000000000000000000000000000000000008152600401610da09061396b565b60405180910390fd5b6000600f54905060008282610dbe919061398b565b9050601c600182610dcf91906139e1565b1115610e10576040517f08c379a0000000000000000000000000000000000000000000000000000000008152600401610e0790613a61565b60405180910390fd5b80600f8190555060005b83811015610e4a57610e37338285610e32919061398b565b611d8a565b8080610e42906137d8565b915050610e1a565b50505050565b600e5481565b610e718383836040518060200160405280600081525061132c565b505050565b6000610e80610b74565b8210610ec1576040517f08c379a0000000000000000000000000000000000000000000000000000000008152600401610eb890613af3565b60405180910390fd5b60088281548110610ed557610ed4613b13565b5b90600052602060002001549050919050565b610eef61194d565b73ffffffffffffffffffffffffffffffffffffffff16610f0d61117b565b73ffffffffffffffffffffffffffffffffffffffff1614610f63576040517f08c379a0000000000000000000000000000000000000000000000000000000008152600401610f5a906138ff565b60405180910390fd5b8060119080519060200190610f79929190612c7c565b5050565b6000806002600084815260200190815260200160002060009054906101000a900473ffffffffffffffffffffffffffffffffffffffff169050600073ffffffffffffffffffffffffffffffffffffffff168173ffffffffffffffffffffffffffffffffffffffff161415611026576040517f08c379a000000000000000000000000000000000000000000000000000000000815260040161101d90613bb4565b60405180910390fd5b80915050919050565b600c5481565b60008073ffffffffffffffffffffffffffffffffffffffff168273ffffffffffffffffffffffffffffffffffffffff1614156110a6576040517f08c379a000000000000000000000000000000000000000000000000000000000815260040161109d90613c46565b60405180910390fd5b600360008373ffffffffffffffffffffffffffffffffffffffff1673ffffffffffffffffffffffffffffffffffffffff168152602001908152602001600020549050919050565b6110f561194d565b73ffffffffffffffffffffffffffffffffffffffff1661111361117b565b73ffffffffffffffffffffffffffffffffffffffff1614611169576040517f08c379a0000000000000000000000000000000000000000000000000000000008152600401611160906138ff565b60405180910390fd5b6111736000611f58565b565b61043681565b6000600a60009054906101000a900473ffffffffffffffffffffffffffffffffffffffff16905090565b600080600d541180156111ba5750600d544210155b80156111ca575061043660105411155b905090565b6060600180546111de9061352f565b80601f016020809104026020016040519081016040528092919081815260200182805461120a9061352f565b80156112575780601f1061122c57610100808354040283529160200191611257565b820191906000526020600020905b81548152906001019060200180831161123a57829003601f168201915b5050505050905090565b601c81565b600d5481565b611274610b4a565b6112b3576040517f08c379a00000000000000000000000000000000000000000000000000000000081526004016112aa90613cb2565b60405180910390fd5b6112bd338261201e565b50565b6112d26112cb61194d565b8383612232565b5050565b6112de6111a5565b61131d576040517f08c379a000000000000000000000000000000000000000000000000000000000815260040161131490613cb2565b60405180910390fd5b611327338261201e565b505050565b61133d61133761194d565b83611a0e565b61137c576040517f08c379a000000000000000000000000000000000000000000000000000000000815260040161137390613789565b60405180910390fd5b6113888484848461239f565b50505050565b6060611399826118e1565b6113d8576040517f08c379a00000000000000000000000000000000000000000000000000000000081526004016113cf90613d44565b60405180910390fd5b60006113e26123fb565b90506000815111611402576040518060200160405280600081525061142d565b8061140c8461248d565b60405160200161141d929190613dec565b6040516020818303038152906040525b915050919050565b61143d61194d565b73ffffffffffffffffffffffffffffffffffffffff1661145b61117b565b73ffffffffffffffffffffffffffffffffffffffff16146114b1576040517f08c379a00000000000000000000000000000000000000000000000000000000081526004016114a8906138ff565b60405180910390fd5b81811180156114bf57504282115b6114fe576040517f08c379a00000000000000000000000000000000000000000000000000000000081526004016114f590613e67565b60405180910390fd5b81600d8190555080600e819055505050565b61151861194d565b73ffffffffffffffffffffffffffffffffffffffff1661153661117b565b73ffffffffffffffffffffffffffffffffffffffff161461158c576040517f08c379a0000000000000000000000000000000000000000000000000000000008152600401611583906138ff565b60405180910390fd5b3373ffffffffffffffffffffffffffffffffffffffff166108fc479081150290604051600060405180830381858888f193505050501580156115d2573d6000803e3d6000fd5b50565b6000600560008473ffffffffffffffffffffffffffffffffffffffff1673ffffffffffffffffffffffffffffffffffffffff16815260200190815260200160002060008373ffffffffffffffffffffffffffffffffffffffff1673ffffffffffffffffffffffffffffffffffffffff16815260200190815260200160002060009054906101000a900460ff16905092915050565b61167161194d565b73ffffffffffffffffffffffffffffffffffffffff1661168f61117b565b73ffffffffffffffffffffffffffffffffffffffff16146116e5576040517f08c379a00000000000000000000000000000000000000000000000000000000081526004016116dc906138ff565b60405180910390fd5b600073ffffffffffffffffffffffffffffffffffffffff168173ffffffffffffffffffffffffffffffffffffffff161415611755576040517f08c379a000000000000000000000000000000000000000000000000000000000815260040161174c90613ef9565b60405180910390fd5b61175e81611f58565b50565b61176961194d565b73ffffffffffffffffffffffffffffffffffffffff1661178761117b565b73ffffffffffffffffffffffffffffffffffffffff16146117dd576040517f08c379a00000000000000000000000000000000000000000000000000000000081526004016117d4906138ff565b60405180910390fd5b80600c8190555050565b60126020528060005260406000206000915090505481565b60007f80ac58cd000000000000000000000000000000000000000000000000000000007bffffffffffffffffffffffffffffffffffffffffffffffffffffffff1916827bffffffffffffffffffffffffffffffffffffffffffffffffffffffff191614806118ca57507f5b5e139f000000000000000000000000000000000000000000000000000000007bffffffffffffffffffffffffffffffffffffffffffffffffffffffff1916827bffffffffffffffffffffffffffffffffffffffffffffffffffffffff1916145b806118da57506118d9826125ee565b5b9050919050565b60008073ffffffffffffffffffffffffffffffffffffffff166002600084815260200190815260200160002060009054906101000a900473ffffffffffffffffffffffffffffffffffffffff1673ffffffffffffffffffffffffffffffffffffffff1614159050919050565b600033905090565b816004600083815260200190815260200160002060006101000a81548173ffffffffffffffffffffffffffffffffffffffff021916908373ffffffffffffffffffffffffffffffffffffffff160217905550808273ffffffffffffffffffffffffffffffffffffffff166119c883610f7d565b73ffffffffffffffffffffffffffffffffffffffff167f8c5be1e5ebec7d5bd14f71427d1e84f3dd0314c0f7b2291e5b200ac8c7c3b92560405160405180910390a45050565b6000611a19826118e1565b611a58576040517f08c379a0000000000000000000000000000000000000000000000000000000008152600401611a4f90613f8b565b60405180910390fd5b6000611a6383610f7d565b90508073ffffffffffffffffffffffffffffffffffffffff168473ffffffffffffffffffffffffffffffffffffffff161480611ad257508373ffffffffffffffffffffffffffffffffffffffff16611aba846109a8565b73ffffffffffffffffffffffffffffffffffffffff16145b80611ae35750611ae281856115d5565b5b91505092915050565b8273ffffffffffffffffffffffffffffffffffffffff16611b0c82610f7d565b73ffffffffffffffffffffffffffffffffffffffff1614611b62576040517f08c379a0000000000000000000000000000000000000000000000000000000008152600401611b599061401d565b60405180910390fd5b600073ffffffffffffffffffffffffffffffffffffffff168273ffffffffffffffffffffffffffffffffffffffff161415611bd2576040517f08c379a0000000000000000000000000000000000000000000000000000000008152600401611bc9906140af565b60405180910390fd5b611bdd838383612658565b611be8600082611955565b6001600360008573ffffffffffffffffffffffffffffffffffffffff1673ffffffffffffffffffffffffffffffffffffffff1681526020019081526020016000206000828254611c3891906139e1565b925050819055506001600360008473ffffffffffffffffffffffffffffffffffffffff1673ffffffffffffffffffffffffffffffffffffffff1681526020019081526020016000206000828254611c8f919061398b565b92505081905550816002600083815260200190815260200160002060006101000a81548173ffffffffffffffffffffffffffffffffffffffff021916908373ffffffffffffffffffffffffffffffffffffffff160217905550808273ffffffffffffffffffffffffffffffffffffffff168473ffffffffffffffffffffffffffffffffffffffff167fddf252ad1be2c89b69c2b068fc378daa952ba7f163c4a11628f55a4df523b3ef60405160405180910390a4505050565b6001816000016000828254019250508190555050565b600081600001549050919050565b611d8682826040518060200160405280600081525061276c565b5050565b600073ffffffffffffffffffffffffffffffffffffffff168273ffffffffffffffffffffffffffffffffffffffff161415611dfa576040517f08c379a0000000000000000000000000000000000000000000000000000000008152600401611df19061411b565b60405180910390fd5b611e03816118e1565b15611e43576040517f08c379a0000000000000000000000000000000000000000000000000000000008152600401611e3a90614187565b60405180910390fd5b611e4f60008383612658565b6001600360008473ffffffffffffffffffffffffffffffffffffffff1673ffffffffffffffffffffffffffffffffffffffff1681526020019081526020016000206000828254611e9f919061398b565b92505081905550816002600083815260200190815260200160002060006101000a81548173ffffffffffffffffffffffffffffffffffffffff021916908373ffffffffffffffffffffffffffffffffffffffff160217905550808273ffffffffffffffffffffffffffffffffffffffff16600073ffffffffffffffffffffffffffffffffffffffff167fddf252ad1be2c89b69c2b068fc378daa952ba7f163c4a11628f55a4df523b3ef60405160405180910390a45050565b6000600a60009054906101000a900473ffffffffffffffffffffffffffffffffffffffff16905081600a60006101000a81548173ffffffffffffffffffffffffffffffffffffffff021916908373ffffffffffffffffffffffffffffffffffffffff1602179055508173ffffffffffffffffffffffffffffffffffffffff168173ffffffffffffffffffffffffffffffffffffffff167f8be0079c531659141344cd1fd0a4f28419497f9722a3daafe3b4186f6b6457e060405160405180910390a35050565b6000811415612062576040517f08c379a00000000000000000000000000000000000000000000000000000000081526004016120599061396b565b60405180910390fd5b600081601260008573ffffffffffffffffffffffffffffffffffffffff1673ffffffffffffffffffffffffffffffffffffffff168152602001908152602001600020546120af919061398b565b905060058111156120f5576040517f08c379a00000000000000000000000000000000000000000000000000000000081526004016120ec906141f3565b60405180910390fd5b600060105490506000838261210a919061398b565b905061043660018261211c91906139e1565b111561215d576040517f08c379a00000000000000000000000000000000000000000000000000000000081526004016121549061425f565b60405180910390fd5b34600c548561216c919061427f565b146121ac576040517f08c379a00000000000000000000000000000000000000000000000000000000081526004016121a390614325565b60405180910390fd5b8060108190555082601260008773ffffffffffffffffffffffffffffffffffffffff1673ffffffffffffffffffffffffffffffffffffffff1681526020019081526020016000208190555060005b8481101561222a57612217868285612212919061398b565b611d6c565b8080612222906137d8565b9150506121fa565b505050505050565b8173ffffffffffffffffffffffffffffffffffffffff168373ffffffffffffffffffffffffffffffffffffffff1614156122a1576040517f08c379a000000000000000000000000000000000000000000000000000000000815260040161229890614391565b60405180910390fd5b80600560008573ffffffffffffffffffffffffffffffffffffffff1673ffffffffffffffffffffffffffffffffffffffff16815260200190815260200160002060008473ffffffffffffffffffffffffffffffffffffffff1673ffffffffffffffffffffffffffffffffffffffff16815260200190815260200160002060006101000a81548160ff0219169083151502179055508173ffffffffffffffffffffffffffffffffffffffff168373ffffffffffffffffffffffffffffffffffffffff167f17307eab39ab6107e8899845ad3d59bd9653f200f220920489ca2b5937696c31836040516123929190612dd3565b60405180910390a3505050565b6123aa848484611aec565b6123b6848484846127c7565b6123f5576040517f08c379a00000000000000000000000000000000000000000000000000000000081526004016123ec90614423565b60405180910390fd5b50505050565b60606011805461240a9061352f565b80601f01602080910402602001604051908101604052809291908181526020018280546124369061352f565b80156124835780601f1061245857610100808354040283529160200191612483565b820191906000526020600020905b81548152906001019060200180831161246657829003601f168201915b5050505050905090565b606060008214156124d5576040518060400160405280600181526020017f300000000000000000000000000000000000000000000000000000000000000081525090506125e9565b600082905060005b600082146125075780806124f0906137d8565b915050600a826125009190614472565b91506124dd565b60008167ffffffffffffffff8111156125235761252261308f565b5b6040519080825280601f01601f1916602001820160405280156125555781602001600182028036833780820191505090505b5090505b600085146125e25760018261256e91906139e1565b9150600a8561257d91906144a3565b6030612589919061398b565b60f81b81838151811061259f5761259e613b13565b5b60200101907effffffffffffffffffffffffffffffffffffffffffffffffffffffffffffff1916908160001a905350600a856125db9190614472565b9450612559565b8093505050505b919050565b60007f01ffc9a7000000000000000000000000000000000000000000000000000000007bffffffffffffffffffffffffffffffffffffffffffffffffffffffff1916827bffffffffffffffffffffffffffffffffffffffffffffffffffffffff1916149050919050565b61266383838361295e565b600073ffffffffffffffffffffffffffffffffffffffff168373ffffffffffffffffffffffffffffffffffffffff1614156126a6576126a181612963565b6126e5565b8173ffffffffffffffffffffffffffffffffffffffff168373ffffffffffffffffffffffffffffffffffffffff16146126e4576126e383826129ac565b5b5b600073ffffffffffffffffffffffffffffffffffffffff168273ffffffffffffffffffffffffffffffffffffffff1614156127285761272381612b19565b612767565b8273ffffffffffffffffffffffffffffffffffffffff168273ffffffffffffffffffffffffffffffffffffffff1614612766576127658282612bea565b5b5b505050565b6127768383611d8a565b61278360008484846127c7565b6127c2576040517f08c379a00000000000000000000000000000000000000000000000000000000081526004016127b990614423565b60405180910390fd5b505050565b60006127e88473ffffffffffffffffffffffffffffffffffffffff16612c69565b15612951578373ffffffffffffffffffffffffffffffffffffffff1663150b7a0261281161194d565b8786866040518563ffffffff1660e01b81526004016128339493929190614529565b602060405180830381600087803b15801561284d57600080fd5b505af192505050801561287e57506040513d601f19601f8201168201806040525081019061287b919061458a565b60015b612901573d80600081146128ae576040519150601f19603f3d011682016040523d82523d6000602084013e6128b3565b606091505b506000815114156128f9576040517f08c379a00000000000000000000000000000000000000000000000000000000081526004016128f090614423565b60405180910390fd5b805181602001fd5b63150b7a0260e01b7bffffffffffffffffffffffffffffffffffffffffffffffffffffffff1916817bffffffffffffffffffffffffffffffffffffffffffffffffffffffff191614915050612956565b600190505b949350505050565b505050565b6008805490506009600083815260200190815260200160002081905550600881908060018154018082558091505060019003906000526020600020016000909190919091505550565b600060016129b984611035565b6129c391906139e1565b9050600060076000848152602001908152602001600020549050818114612aa8576000600660008673ffffffffffffffffffffffffffffffffffffffff1673ffffffffffffffffffffffffffffffffffffffff168152602001908152602001600020600084815260200190815260200160002054905080600660008773ffffffffffffffffffffffffffffffffffffffff1673ffffffffffffffffffffffffffffffffffffffff168152602001908152602001600020600084815260200190815260200160002081905550816007600083815260200190815260200160002081905550505b6007600084815260200190815260200160002060009055600660008573ffffffffffffffffffffffffffffffffffffffff1673ffffffffffffffffffffffffffffffffffffffff16815260200190815260200160002060008381526020019081526020016000206000905550505050565b60006001600880549050612b2d91906139e1565b9050600060096000848152602001908152602001600020549050600060088381548110612b5d57612b5c613b13565b5b906000526020600020015490508060088381548110612b7f57612b7e613b13565b5b906000526020600020018190555081600960008381526020019081526020016000208190555060096000858152602001908152602001600020600090556008805480612bce57612bcd6145b7565b5b6001900381819060005260206000200160009055905550505050565b6000612bf583611035565b905081600660008573ffffffffffffffffffffffffffffffffffffffff1673ffffffffffffffffffffffffffffffffffffffff168152602001908152602001600020600083815260200190815260200160002081905550806007600084815260200190815260200160002081905550505050565b600080823b905060008111915050919050565b828054612c889061352f565b90600052602060002090601f016020900481019282612caa5760008555612cf1565b82601f10612cc357805160ff1916838001178555612cf1565b82800160010185558215612cf1579182015b82811115612cf0578251825591602001919060010190612cd5565b5b509050612cfe9190612d02565b5090565b5b80821115612d1b576000816000905550600101612d03565b5090565b6000604051905090565b600080fd5b600080fd5b60007fffffffff0000000000000000000000000000000000000000000000000000000082169050919050565b612d6881612d33565b8114612d7357600080fd5b50565b600081359050612d8581612d5f565b92915050565b600060208284031215612da157612da0612d29565b5b6000612daf84828501612d76565b91505092915050565b60008115159050919050565b612dcd81612db8565b82525050565b6000602082019050612de86000830184612dc4565b92915050565b600081519050919050565b600082825260208201905092915050565b60005b83811015612e28578082015181840152602081019050612e0d565b83811115612e37576000848401525b50505050565b6000601f19601f8301169050919050565b6000612e5982612dee565b612e638185612df9565b9350612e73818560208601612e0a565b612e7c81612e3d565b840191505092915050565b60006020820190508181036000830152612ea18184612e4e565b905092915050565b6000819050919050565b612ebc81612ea9565b8114612ec757600080fd5b50565b600081359050612ed981612eb3565b92915050565b600060208284031215612ef557612ef4612d29565b5b6000612f0384828501612eca565b91505092915050565b600073ffffffffffffffffffffffffffffffffffffffff82169050919050565b6000612f3782612f0c565b9050919050565b612f4781612f2c565b82525050565b6000602082019050612f626000830184612f3e565b92915050565b612f7181612f2c565b8114612f7c57600080fd5b50565b600081359050612f8e81612f68565b92915050565b60008060408385031215612fab57612faa612d29565b5b6000612fb985828601612f7f565b9250506020612fca85828601612eca565b9150509250929050565b612fdd81612ea9565b82525050565b6000602082019050612ff86000830184612fd4565b92915050565b60008060006060848603121561301757613016612d29565b5b600061302586828701612f7f565b935050602061303686828701612f7f565b925050604061304786828701612eca565b9150509250925092565b6000819050919050565b61306481613051565b82525050565b600060208201905061307f600083018461305b565b92915050565b600080fd5b600080fd5b7f4e487b7100000000000000000000000000000000000000000000000000000000600052604160045260246000fd5b6130c782612e3d565b810181811067ffffffffffffffff821117156130e6576130e561308f565b5b80604052505050565b60006130f9612d1f565b905061310582826130be565b919050565b600067ffffffffffffffff8211156131255761312461308f565b5b61312e82612e3d565b9050602081019050919050565b82818337600083830152505050565b600061315d6131588461310a565b6130ef565b9050828152602081018484840111156131795761317861308a565b5b61318484828561313b565b509392505050565b600082601f8301126131a1576131a0613085565b5b81356131b184826020860161314a565b91505092915050565b6000602082840312156131d0576131cf612d29565b5b600082013567ffffffffffffffff8111156131ee576131ed612d2e565b5b6131fa8482850161318c565b91505092915050565b60006020828403121561321957613218612d29565b5b600061322784828501612f7f565b91505092915050565b61323981612db8565b811461324457600080fd5b50565b60008135905061325681613230565b92915050565b6000806040838503121561327357613272612d29565b5b600061328185828601612f7f565b925050602061329285828601613247565b9150509250929050565b600080fd5b600080fd5b60008083601f8401126132bc576132bb613085565b5b8235905067ffffffffffffffff8111156132d9576132d861329c565b5b6020830191508360208202830111156132f5576132f46132a1565b5b9250929050565b60008060006040848603121561331557613314612d29565b5b600084013567ffffffffffffffff81111561333357613332612d2e565b5b61333f868287016132a6565b9350935050602061335286828701612eca565b9150509250925092565b600067ffffffffffffffff8211156133775761337661308f565b5b61338082612e3d565b9050602081019050919050565b60006133a061339b8461335c565b6130ef565b9050828152602081018484840111156133bc576133bb61308a565b5b6133c784828561313b565b509392505050565b600082601f8301126133e4576133e3613085565b5b81356133f484826020860161338d565b91505092915050565b6000806000806080858703121561341757613416612d29565b5b600061342587828801612f7f565b945050602061343687828801612f7f565b935050604061344787828801612eca565b925050606085013567ffffffffffffffff81111561346857613467612d2e565b5b613474878288016133cf565b91505092959194509250565b6000806040838503121561349757613496612d29565b5b60006134a585828601612eca565b92505060206134b685828601612eca565b9150509250929050565b600080604083850312156134d7576134d6612d29565b5b60006134e585828601612f7f565b92505060206134f685828601612f7f565b9150509250929050565b7f4e487b7100000000000000000000000000000000000000000000000000000000600052602260045260246000fd5b6000600282049050600182168061354757607f821691505b6020821081141561355b5761355a613500565b5b50919050565b7f4552433732313a20617070726f76656420717565727920666f72206e6f6e657860008201527f697374656e7420746f6b656e0000000000000000000000000000000000000000602082015250565b60006135bd602c83612df9565b91506135c882613561565b604082019050919050565b600060208201905081810360008301526135ec816135b0565b9050919050565b7f4552433732313a20617070726f76616c20746f2063757272656e74206f776e6560008201527f7200000000000000000000000000000000000000000000000000000000000000602082015250565b600061364f602183612df9565b915061365a826135f3565b604082019050919050565b6000602082019050818103600083015261367e81613642565b9050919050565b7f4552433732313a20617070726f76652063616c6c6572206973206e6f74206f7760008201527f6e6572206e6f7220617070726f76656420666f7220616c6c0000000000000000602082015250565b60006136e1603883612df9565b91506136ec82613685565b604082019050919050565b60006020820190508181036000830152613710816136d4565b9050919050565b7f4552433732313a207472616e736665722063616c6c6572206973206e6f74206f60008201527f776e6572206e6f7220617070726f766564000000000000000000000000000000602082015250565b6000613773603183612df9565b915061377e82613717565b604082019050919050565b600060208201905081810360008301526137a281613766565b9050919050565b7f4e487b7100000000000000000000000000000000000000000000000000000000600052601160045260246000fd5b60006137e382612ea9565b91507fffffffffffffffffffffffffffffffffffffffffffffffffffffffffffffffff821415613816576138156137a9565b5b600182019050919050565b7f455243373231456e756d657261626c653a206f776e657220696e646578206f7560008201527f74206f6620626f756e6473000000000000000000000000000000000000000000602082015250565b600061387d602b83612df9565b915061388882613821565b604082019050919050565b600060208201905081810360008301526138ac81613870565b9050919050565b7f4f776e61626c653a2063616c6c6572206973206e6f7420746865206f776e6572600082015250565b60006138e9602083612df9565b91506138f4826138b3565b602082019050919050565b60006020820190508181036000830152613918816138dc565b9050919050565b7f494e56414c49445f414d4f554e54000000000000000000000000000000000000600082015250565b6000613955600e83612df9565b91506139608261391f565b602082019050919050565b6000602082019050818103600083015261398481613948565b9050919050565b600061399682612ea9565b91506139a183612ea9565b9250827fffffffffffffffffffffffffffffffffffffffffffffffffffffffffffffffff038211156139d6576139d56137a9565b5b828201905092915050565b60006139ec82612ea9565b91506139f783612ea9565b925082821015613a0a57613a096137a9565b5b828203905092915050565b7f5445414d5f4c494d49545f455843454544454400000000000000000000000000600082015250565b6000613a4b601383612df9565b9150613a5682613a15565b602082019050919050565b60006020820190508181036000830152613a7a81613a3e565b9050919050565b7f455243373231456e756d657261626c653a20676c6f62616c20696e646578206f60008201527f7574206f6620626f756e64730000000000000000000000000000000000000000602082015250565b6000613add602c83612df9565b9150613ae882613a81565b604082019050919050565b60006020820190508181036000830152613b0c81613ad0565b9050919050565b7f4e487b7100000000000000000000000000000000000000000000000000000000600052603260045260246000fd5b7f4552433732313a206f776e657220717565727920666f72206e6f6e657869737460008201527f656e7420746f6b656e0000000000000000000000000000000000000000000000602082015250565b6000613b9e602983612df9565b9150613ba982613b42565b604082019050919050565b60006020820190508181036000830152613bcd81613b91565b9050919050565b7f4552433732313a2062616c616e636520717565727920666f7220746865207a6560008201527f726f206164647265737300000000000000000000000000000000000000000000602082015250565b6000613c30602a83612df9565b9150613c3b82613bd4565b604082019050919050565b60006020820190508181036000830152613c5f81613c23565b9050919050565b7f53414c455f4e4f545f4f50454e00000000000000000000000000000000000000600082015250565b6000613c9c600d83612df9565b9150613ca782613c66565b602082019050919050565b60006020820190508181036000830152613ccb81613c8f565b9050919050565b7f4552433732314d657461646174613a2055524920717565727920666f72206e6f60008201527f6e6578697374656e7420746f6b656e0000000000000000000000000000000000602082015250565b6000613d2e602f83612df9565b9150613d3982613cd2565b604082019050919050565b60006020820190508181036000830152613d5d81613d21565b9050919050565b600081905092915050565b6000613d7a82612dee565b613d848185613d64565b9350613d94818560208601612e0a565b80840191505092915050565b7f2e6a736f6e000000000000000000000000000000000000000000000000000000600082015250565b6000613dd6600583613d64565b9150613de182613da0565b600582019050919050565b6000613df88285613d6f565b9150613e048284613d6f565b9150613e0f82613dc9565b91508190509392505050565b7f494e56414c49445f54494d455354414d50530000000000000000000000000000600082015250565b6000613e51601283612df9565b9150613e5c82613e1b565b602082019050919050565b60006020820190508181036000830152613e8081613e44565b9050919050565b7f4f776e61626c653a206e6577206f776e657220697320746865207a65726f206160008201527f6464726573730000000000000000000000000000000000000000000000000000602082015250565b6000613ee3602683612df9565b9150613eee82613e87565b604082019050919050565b60006020820190508181036000830152613f1281613ed6565b9050919050565b7f4552433732313a206f70657261746f7220717565727920666f72206e6f6e657860008201527f697374656e7420746f6b656e0000000000000000000000000000000000000000602082015250565b6000613f75602c83612df9565b9150613f8082613f19565b604082019050919050565b60006020820190508181036000830152613fa481613f68565b9050919050565b7f4552433732313a207472616e73666572206f6620746f6b656e2074686174206960008201527f73206e6f74206f776e0000000000000000000000000000000000000000000000602082015250565b6000614007602983612df9565b915061401282613fab565b604082019050919050565b6000602082019050818103600083015261403681613ffa565b9050919050565b7f4552433732313a207472616e7366657220746f20746865207a65726f2061646460008201527f7265737300000000000000000000000000000000000000000000000000000000602082015250565b6000614099602483612df9565b91506140a48261403d565b604082019050919050565b600060208201905081810360008301526140c88161408c565b9050919050565b7f4552433732313a206d696e7420746f20746865207a65726f2061646472657373600082015250565b6000614105602083612df9565b9150614110826140cf565b602082019050919050565b60006020820190508181036000830152614134816140f8565b9050919050565b7f4552433732313a20746f6b656e20616c7265616479206d696e74656400000000600082015250565b6000614171601c83612df9565b915061417c8261413b565b602082019050919050565b600060208201905081810360008301526141a081614164565b9050919050565b7f57414c4c45545f4c494d49545f45584345454445440000000000000000000000600082015250565b60006141dd601583612df9565b91506141e8826141a7565b602082019050919050565b6000602082019050818103600083015261420c816141d0565b9050919050565b7f53414c455f4c494d49545f455843454544454400000000000000000000000000600082015250565b6000614249601383612df9565b915061425482614213565b602082019050919050565b600060208201905081810360008301526142788161423c565b9050919050565b600061428a82612ea9565b915061429583612ea9565b9250817fffffffffffffffffffffffffffffffffffffffffffffffffffffffffffffffff04831182151516156142ce576142cd6137a9565b5b828202905092915050565b7f57524f4e475f4554485f56414c55450000000000000000000000000000000000600082015250565b600061430f600f83612df9565b915061431a826142d9565b602082019050919050565b6000602082019050818103600083015261433e81614302565b9050919050565b7f4552433732313a20617070726f766520746f2063616c6c657200000000000000600082015250565b600061437b601983612df9565b915061438682614345565b602082019050919050565b600060208201905081810360008301526143aa8161436e565b9050919050565b7f4552433732313a207472616e7366657220746f206e6f6e20455243373231526560008201527f63656976657220696d706c656d656e7465720000000000000000000000000000602082015250565b600061440d603283612df9565b9150614418826143b1565b604082019050919050565b6000602082019050818103600083015261443c81614400565b9050919050565b7f4e487b7100000000000000000000000000000000000000000000000000000000600052601260045260246000fd5b600061447d82612ea9565b915061448883612ea9565b92508261449857614497614443565b5b828204905092915050565b60006144ae82612ea9565b91506144b983612ea9565b9250826144c9576144c8614443565b5b828206905092915050565b600081519050919050565b600082825260208201905092915050565b60006144fb826144d4565b61450581856144df565b9350614515818560208601612e0a565b61451e81612e3d565b840191505092915050565b600060808201905061453e6000830187612f3e565b61454b6020830186612f3e565b6145586040830185612fd4565b818103606083015261456a81846144f0565b905095945050505050565b60008151905061458481612d5f565b92915050565b6000602082840312156145a05761459f612d29565b5b60006145ae84828501614575565b91505092915050565b7f4e487b7100000000000000000000000000000000000000000000000000000000600052603160045260246000fdfea26469706673582212206fe18f6730bdaeb8eafdab31ffe503c9a5728fdc38fd1473c1134d46f414016c64736f6c6343000809003368747470733a2f2f6865726f696e66696e6974792e6d7970696e6174612e636c6f75642f697066732f516d654442506a7577426e5569504a68557478616b34396338677735326233664c557550625977716174465471702f",
  "linkReferences": {},
  "deployedLinkReferences": {}
}