{
  "_format": "hh-sol-artifact-1",
  "contractName": "HeroInfinityWallet",
  "sourceName": "contracts/HeroInfinityWallet.sol",
  "abi": [
    {
      "anonymous": false,
      "inputs": [
        {
          "indexed": true,
          "internalType": "address",
          "name": "previousOwner",
          "type": "address"
        },
        {
          "indexed": true,
          "internalType": "address",
          "name": "newOwner",
          "type": "address"
        }
      ],
      "name": "OwnershipTransferred",
      "type": "event"
    },
    {
      "inputs": [],
      "name": "owner",
      "outputs": [
        {
          "internalType": "address",
          "name": "",
          "type": "address"
        }
      ],
      "stateMutability": "view",
      "type": "function"
    },
    {
      "inputs": [],
      "name": "renounceOwnership",
      "outputs": [],
      "stateMutability": "nonpayable",
      "type": "function"
    },
    {
      "inputs": [],
      "name": "token",
      "outputs": [
        {
          "internalType": "contract IERC20",
          "name": "",
          "type": "address"
        }
      ],
      "stateMutability": "view",
      "type": "function"
    },
    {
      "inputs": [
        {
          "internalType": "address",
          "name": "receipent",
          "type": "address"
        },
        {
          "internalType": "uint256",
          "name": "amount",
          "type": "uint256"
        }
      ],
      "name": "transfer",
      "outputs": [],
      "stateMutability": "nonpayable",
      "type": "function"
    },
    {
      "inputs": [
        {
          "internalType": "address",
          "name": "newOwner",
          "type": "address"
        }
      ],
      "name": "transferOwnership",
      "outputs": [],
      "stateMutability": "nonpayable",
      "type": "function"
    },
    {
      "stateMutability": "payable",
      "type": "receive"
    }
  ],
  "bytecode": "0x6080604052600180546001600160a01b0319167328ee3e2826264b9c55fcdd122dfa93680916c9b817905534801561003657600080fd5b5061004033610045565b610095565b600080546001600160a01b038381166001600160a01b0319831681178455604051919092169283917f8be0079c531659141344cd1fd0a4f28419497f9722a3daafe3b4186f6b6457e09190a35050565b6103db806100a46000396000f3fe60806040526004361061004e5760003560e01c8063715018a61461005a5780638da5cb5b14610071578063a9059cbb146100a7578063f2fde38b146100c7578063fc0c546a146100e757600080fd5b3661005557005b600080fd5b34801561006657600080fd5b5061006f610107565b005b34801561007d57600080fd5b506000546001600160a01b03165b6040516001600160a01b03909116815260200160405180910390f35b3480156100b357600080fd5b5061006f6100c2366004610302565b610146565b3480156100d357600080fd5b5061006f6100e236600461032c565b6101fb565b3480156100f357600080fd5b5060015461008b906001600160a01b031681565b6000546001600160a01b0316331461013a5760405162461bcd60e51b81526004016101319061034e565b60405180910390fd5b6101446000610296565b565b6000546001600160a01b031633146101705760405162461bcd60e51b81526004016101319061034e565b60015460405163a9059cbb60e01b81526001600160a01b038481166004830152602482018490529091169063a9059cbb90604401602060405180830381600087803b1580156101be57600080fd5b505af11580156101d2573d6000803e3d6000fd5b505050506040513d601f19601f820116820180604052508101906101f69190610383565b505050565b6000546001600160a01b031633146102255760405162461bcd60e51b81526004016101319061034e565b6001600160a01b03811661028a5760405162461bcd60e51b815260206004820152602660248201527f4f776e61626c653a206e6577206f776e657220697320746865207a65726f206160448201526564647265737360d01b6064820152608401610131565b61029381610296565b50565b600080546001600160a01b038381166001600160a01b0319831681178455604051919092169283917f8be0079c531659141344cd1fd0a4f28419497f9722a3daafe3b4186f6b6457e09190a35050565b80356001600160a01b03811681146102fd57600080fd5b919050565b6000806040838503121561031557600080fd5b61031e836102e6565b946020939093013593505050565b60006020828403121561033e57600080fd5b610347826102e6565b9392505050565b6020808252818101527f4f776e61626c653a2063616c6c6572206973206e6f7420746865206f776e6572604082015260600190565b60006020828403121561039557600080fd5b8151801515811461034757600080fdfea264697066735822122087fe22b27b400a7622f41c27f52023134898364ed7b6914470e76073625051a564736f6c63430008090033",
  "linkReferences": {},
  "deployedLinkReferences": {}
}