{
  "_format": "hh-sol-artifact-1",
  "contractName": "HeroInfinityNodePoolV2",
  "sourceName": "contracts/HeroInfinityNodePoolV2.sol",
  "abi": [
    {
      "inputs": [],
      "stateMutability": "nonpayable",
      "type": "constructor"
    },
    {
      "anonymous": false,
      "inputs": [
        {
          "indexed": true,
          "internalType": "address",
          "name": "previousOwner",
          "type": "address"
        },
        {
          "indexed": true,
          "internalType": "address",
          "name": "newOwner",
          "type": "address"
        }
      ],
      "name": "OwnershipTransferred",
      "type": "event"
    },
    {
      "inputs": [],
      "name": "claimAllNodesReward",
      "outputs": [],
      "stateMutability": "nonpayable",
      "type": "function"
    },
    {
      "inputs": [
        {
          "internalType": "uint256",
          "name": "_creationTime",
          "type": "uint256"
        }
      ],
      "name": "claimNodeReward",
      "outputs": [],
      "stateMutability": "nonpayable",
      "type": "function"
    },
    {
      "inputs": [
        {
          "internalType": "string",
          "name": "nodeName",
          "type": "string"
        },
        {
          "internalType": "uint256",
          "name": "count",
          "type": "uint256"
        }
      ],
      "name": "createNode",
      "outputs": [],
      "stateMutability": "nonpayable",
      "type": "function"
    },
    {
      "inputs": [],
      "name": "feeDeductionRate",
      "outputs": [
        {
          "internalType": "uint256",
          "name": "",
          "type": "uint256"
        }
      ],
      "stateMutability": "view",
      "type": "function"
    },
    {
      "inputs": [],
      "name": "feeDuration",
      "outputs": [
        {
          "internalType": "uint256",
          "name": "",
          "type": "uint256"
        }
      ],
      "stateMutability": "view",
      "type": "function"
    },
    {
      "inputs": [
        {
          "internalType": "address",
          "name": "user",
          "type": "address"
        }
      ],
      "name": "getAllFee",
      "outputs": [
        {
          "internalType": "uint256",
          "name": "",
          "type": "uint256"
        }
      ],
      "stateMutability": "view",
      "type": "function"
    },
    {
      "inputs": [
        {
          "internalType": "address",
          "name": "account",
          "type": "address"
        },
        {
          "internalType": "uint256",
          "name": "createTime",
          "type": "uint256"
        }
      ],
      "name": "getFeeAmount",
      "outputs": [
        {
          "internalType": "uint256",
          "name": "",
          "type": "uint256"
        }
      ],
      "stateMutability": "view",
      "type": "function"
    },
    {
      "inputs": [
        {
          "internalType": "address",
          "name": "account",
          "type": "address"
        }
      ],
      "name": "getNodeNumberOf",
      "outputs": [
        {
          "internalType": "uint256",
          "name": "",
          "type": "uint256"
        }
      ],
      "stateMutability": "view",
      "type": "function"
    },
    {
      "inputs": [
        {
          "internalType": "address",
          "name": "account",
          "type": "address"
        }
      ],
      "name": "getNodes",
      "outputs": [
        {
          "components": [
            {
              "internalType": "string",
              "name": "name",
              "type": "string"
            },
            {
              "internalType": "uint256",
              "name": "creationTime",
              "type": "uint256"
            },
            {
              "internalType": "uint256",
              "name": "lastClaimTime",
              "type": "uint256"
            },
            {
              "internalType": "uint256",
              "name": "feeTime",
              "type": "uint256"
            },
            {
              "internalType": "uint256",
              "name": "dueTime",
              "type": "uint256"
            }
          ],
          "internalType": "struct HeroInfinityNodePoolV2.NodeEntity[]",
          "name": "nodes",
          "type": "tuple[]"
        }
      ],
      "stateMutability": "view",
      "type": "function"
    },
    {
      "inputs": [
        {
          "internalType": "address",
          "name": "account",
          "type": "address"
        },
        {
          "internalType": "uint256",
          "name": "creationTime",
          "type": "uint256"
        }
      ],
      "name": "getRewardAmountOf",
      "outputs": [
        {
          "internalType": "uint256",
          "name": "",
          "type": "uint256"
        }
      ],
      "stateMutability": "view",
      "type": "function"
    },
    {
      "inputs": [
        {
          "internalType": "address",
          "name": "account",
          "type": "address"
        }
      ],
      "name": "getRewardTotalAmountOf",
      "outputs": [
        {
          "internalType": "uint256",
          "name": "",
          "type": "uint256"
        }
      ],
      "stateMutability": "view",
      "type": "function"
    },
    {
      "inputs": [
        {
          "internalType": "uint256",
          "name": "passedDays",
          "type": "uint256"
        }
      ],
      "name": "getRewardsForDay",
      "outputs": [
        {
          "internalType": "uint256",
          "name": "",
          "type": "uint256"
        }
      ],
      "stateMutability": "view",
      "type": "function"
    },
    {
      "inputs": [],
      "name": "hriToken",
      "outputs": [
        {
          "internalType": "contract IERC20",
          "name": "",
          "type": "address"
        }
      ],
      "stateMutability": "view",
      "type": "function"
    },
    {
      "inputs": [],
      "name": "initialNodeFee",
      "outputs": [
        {
          "internalType": "uint256",
          "name": "",
          "type": "uint256"
        }
      ],
      "stateMutability": "view",
      "type": "function"
    },
    {
      "inputs": [],
      "name": "initialRewardRate",
      "outputs": [
        {
          "internalType": "uint256",
          "name": "",
          "type": "uint256"
        }
      ],
      "stateMutability": "view",
      "type": "function"
    },
    {
      "inputs": [],
      "name": "maxNodes",
      "outputs": [
        {
          "internalType": "uint256",
          "name": "",
          "type": "uint256"
        }
      ],
      "stateMutability": "view",
      "type": "function"
    },
    {
      "inputs": [],
      "name": "maxNodesPerWallet",
      "outputs": [
        {
          "internalType": "uint256",
          "name": "",
          "type": "uint256"
        }
      ],
      "stateMutability": "view",
      "type": "function"
    },
    {
      "inputs": [
        {
          "internalType": "address",
          "name": "",
          "type": "address"
        }
      ],
      "name": "migrated",
      "outputs": [
        {
          "internalType": "bool",
          "name": "",
          "type": "bool"
        }
      ],
      "stateMutability": "view",
      "type": "function"
    },
    {
      "inputs": [],
      "name": "minRewardRatePerDay",
      "outputs": [
        {
          "internalType": "uint256",
          "name": "",
          "type": "uint256"
        }
      ],
      "stateMutability": "view",
      "type": "function"
    },
    {
      "inputs": [
        {
          "internalType": "address",
          "name": "",
          "type": "address"
        }
      ],
      "name": "nodeOwners",
      "outputs": [
        {
          "internalType": "uint256",
          "name": "",
          "type": "uint256"
        }
      ],
      "stateMutability": "view",
      "type": "function"
    },
    {
      "inputs": [],
      "name": "nodePrice",
      "outputs": [
        {
          "internalType": "uint256",
          "name": "",
          "type": "uint256"
        }
      ],
      "stateMutability": "view",
      "type": "function"
    },
    {
      "inputs": [],
      "name": "oldNodePool",
      "outputs": [
        {
          "internalType": "contract IHeroInfinityNodePool",
          "name": "",
          "type": "address"
        }
      ],
      "stateMutability": "view",
      "type": "function"
    },
    {
      "inputs": [],
      "name": "overDuration",
      "outputs": [
        {
          "internalType": "uint256",
          "name": "",
          "type": "uint256"
        }
      ],
      "stateMutability": "view",
      "type": "function"
    },
    {
      "inputs": [],
      "name": "owner",
      "outputs": [
        {
          "internalType": "address",
          "name": "",
          "type": "address"
        }
      ],
      "stateMutability": "view",
      "type": "function"
    },
    {
      "inputs": [],
      "name": "payAllNodesFee",
      "outputs": [],
      "stateMutability": "payable",
      "type": "function"
    },
    {
      "inputs": [
        {
          "internalType": "uint256",
          "name": "_creationTime",
          "type": "uint256"
        }
      ],
      "name": "payNodeFee",
      "outputs": [],
      "stateMutability": "payable",
      "type": "function"
    },
    {
      "inputs": [],
      "name": "renounceOwnership",
      "outputs": [],
      "stateMutability": "nonpayable",
      "type": "function"
    },
    {
      "inputs": [],
      "name": "rewardReduceRatePerDay",
      "outputs": [
        {
          "internalType": "uint256",
          "name": "",
          "type": "uint256"
        }
      ],
      "stateMutability": "view",
      "type": "function"
    },
    {
      "inputs": [
        {
          "internalType": "uint256",
          "name": "rate",
          "type": "uint256"
        }
      ],
      "name": "setFeeDeductionRate",
      "outputs": [],
      "stateMutability": "nonpayable",
      "type": "function"
    },
    {
      "inputs": [
        {
          "internalType": "uint256",
          "name": "_feeDuration",
          "type": "uint256"
        }
      ],
      "name": "setFeeDuration",
      "outputs": [],
      "stateMutability": "nonpayable",
      "type": "function"
    },
    {
      "inputs": [
        {
          "internalType": "uint256",
          "name": "_feeAmount",
          "type": "uint256"
        }
      ],
      "name": "setInitialNodeFee",
      "outputs": [],
      "stateMutability": "nonpayable",
      "type": "function"
    },
    {
      "inputs": [
        {
          "internalType": "uint256",
          "name": "rate",
          "type": "uint256"
        }
      ],
      "name": "setInitialRewardRate",
      "outputs": [],
      "stateMutability": "nonpayable",
      "type": "function"
    },
    {
      "inputs": [
        {
          "internalType": "uint256",
          "name": "_count",
          "type": "uint256"
        }
      ],
      "name": "setMaxNodes",
      "outputs": [],
      "stateMutability": "nonpayable",
      "type": "function"
    },
    {
      "inputs": [
        {
          "internalType": "uint256",
          "name": "_count",
          "type": "uint256"
        }
      ],
      "name": "setMaxNodesPerWallet",
      "outputs": [],
      "stateMutability": "nonpayable",
      "type": "function"
    },
    {
      "inputs": [
        {
          "internalType": "uint256",
          "name": "rate",
          "type": "uint256"
        }
      ],
      "name": "setMinRewardRatePerDay",
      "outputs": [],
      "stateMutability": "nonpayable",
      "type": "function"
    },
    {
      "inputs": [
        {
          "internalType": "uint256",
          "name": "newNodePrice",
          "type": "uint256"
        }
      ],
      "name": "setNodePrice",
      "outputs": [],
      "stateMutability": "nonpayable",
      "type": "function"
    },
    {
      "inputs": [
        {
          "internalType": "uint256",
          "name": "_overDuration",
          "type": "uint256"
        }
      ],
      "name": "setOverDuration",
      "outputs": [],
      "stateMutability": "nonpayable",
      "type": "function"
    },
    {
      "inputs": [
        {
          "internalType": "uint256",
          "name": "rate",
          "type": "uint256"
        }
      ],
      "name": "setRewardReduceRatePerDay",
      "outputs": [],
      "stateMutability": "nonpayable",
      "type": "function"
    },
    {
      "inputs": [],
      "name": "totalNodesCreated",
      "outputs": [
        {
          "internalType": "uint256",
          "name": "",
          "type": "uint256"
        }
      ],
      "stateMutability": "view",
      "type": "function"
    },
    {
      "inputs": [
        {
          "internalType": "address",
          "name": "newOwner",
          "type": "address"
        }
      ],
      "name": "transferOwnership",
      "outputs": [],
      "stateMutability": "nonpayable",
      "type": "function"
    },
    {
      "inputs": [],
      "name": "upgradeNode",
      "outputs": [],
      "stateMutability": "nonpayable",
      "type": "function"
    },
    {
      "inputs": [
        {
          "internalType": "address",
          "name": "",
          "type": "address"
        },
        {
          "internalType": "uint256",
          "name": "",
          "type": "uint256"
        }
      ],
      "name": "userFees",
      "outputs": [
        {
          "internalType": "uint256",
          "name": "",
          "type": "uint256"
        }
      ],
      "stateMutability": "view",
      "type": "function"
    },
    {
      "inputs": [
        {
          "internalType": "uint256",
          "name": "amount",
          "type": "uint256"
        }
      ],
      "name": "withdrawFee",
      "outputs": [],
      "stateMutability": "nonpayable",
      "type": "function"
    },
    {
      "inputs": [
        {
          "internalType": "uint256",
          "name": "amount",
          "type": "uint256"
        }
      ],
      "name": "withdrawReward",
      "outputs": [],
      "stateMutability": "nonpayable",
      "type": "function"
    },
    {
      "stateMutability": "payable",
      "type": "receive"
    }
  ],
  "bytecode": "0x6080604052692a5a058fc295ed0000006005556101906006556061600755601e6008556032600955611388600a55662386f26fc10000600b55600f600c8190556224ea00600d556202a300600e5560009055601080546001600160a01b03199081167328ee3e2826264b9c55fcdd122dfa93680916c9b8179091556011805490911673a0f90c8111465e75e5b7e0d85de0dcdc185da1ae1790553480156100a557600080fd5b506100af336100b4565b610104565b600080546001600160a01b038381166001600160a01b0319831681178455604051919092169283917f8be0079c531659141344cd1fd0a4f28419497f9722a3daafe3b4186f6b6457e09190a35050565b6128dc806101136000396000f3fe60806040526004361061026b5760003560e01c80637be50ce211610144578063be357616116100b6578063ef8ceb8a1161007a578063ef8ceb8a1461070a578063f1f4613a1461072a578063f1fec2b81461074a578063f2fde38b14610760578063f67af2da14610780578063f74c9934146107a057600080fd5b8063be3576161461067e578063c00659351461069e578063ddf0185f146106b4578063ebb8035a146106ca578063ebbbbb49146106ea57600080fd5b8063a44c839411610108578063a44c8394146105f5578063afdfffcb14610615578063b34f594b1461062a578063b7427ef91461064a578063b8527aef14610652578063b8785ef51461066857600080fd5b80637be50ce2146105615780638da5cb5b1461058157806396ee03af1461059f5780639ceb5c48146105bf578063a2a7b0f2146105df57600080fd5b8063523a3f08116101dd578063617740c8116101a1578063617740c81461049b57806361b485f6146104b15780636b506c0d146104d1578063715018a61461050957806372fbb8411461051e57806378a6b9681461053457600080fd5b8063523a3f081461041057806355cd6a5e1461043057806357649c36146104505780635971aa21146104655780635c3b981c1461047b57600080fd5b806332ef9c871161022f57806332ef9c871461031f5780633310ea141461033557806335b9e55e1461036d57806343b8ff6f14610383578063486af96a146103a35780634ba0a5ee146103d057600080fd5b806302e415c914610277578063031c9dfc146102995780630e5ba5a9146102ac5780631156ba62146102cc5780631a136cd7146102ff57600080fd5b3661027257005b600080fd5b34801561028357600080fd5b506102976102923660046122ab565b6107d6565b005b6102976102a73660046122ab565b61080e565b3480156102b857600080fd5b506102976102c73660046122ab565b61091b565b3480156102d857600080fd5b506102ec6102e73660046122ab565b61094a565b6040519081526020015b60405180910390f35b34801561030b57600080fd5b5061029761031a3660046122ab565b6109e8565b34801561032b57600080fd5b506102ec600d5481565b34801561034157600080fd5b506102ec6103503660046122e0565b600160209081526000928352604080842090915290825290205481565b34801561037957600080fd5b506102ec600c5481565b34801561038f57600080fd5b506102ec61039e36600461230a565b610a17565b3480156103af57600080fd5b506103c36103be36600461230a565b610b99565b6040516102f6919061237d565b3480156103dc57600080fd5b506104006103eb36600461230a565b60026020526000908152604090205460ff1681565b60405190151581526020016102f6565b34801561041c57600080fd5b5061029761042b3660046122ab565b610cc8565b34801561043c57600080fd5b5061029761044b3660046122ab565b610d7a565b34801561045c57600080fd5b50610297610da9565b34801561047157600080fd5b506102ec60065481565b34801561048757600080fd5b506102ec61049636600461230a565b610fd4565b3480156104a757600080fd5b506102ec600e5481565b3480156104bd57600080fd5b506102ec6104cc3660046122e0565b611076565b3480156104dd57600080fd5b506011546104f1906001600160a01b031681565b6040516001600160a01b0390911681526020016102f6565b34801561051557600080fd5b506102976110d8565b34801561052a57600080fd5b506102ec600b5481565b34801561054057600080fd5b506102ec61054f36600461230a565b60036020526000908152604090205481565b34801561056d57600080fd5b5061029761057c3660046124aa565b61110e565b34801561058d57600080fd5b506000546001600160a01b03166104f1565b3480156105ab57600080fd5b506102976105ba3660046122ab565b6114d3565b3480156105cb57600080fd5b506102ec6105da3660046122e0565b611502565b3480156105eb57600080fd5b506102ec60095481565b34801561060157600080fd5b506102976106103660046122ab565b611594565b34801561062157600080fd5b506102976115c3565b34801561063657600080fd5b506102976106453660046122ab565b6116f0565b61029761171f565b34801561065e57600080fd5b506102ec600f5481565b34801561067457600080fd5b506102ec60075481565b34801561068a57600080fd5b506102976106993660046122ab565b6118d8565b3480156106aa57600080fd5b506102ec60085481565b3480156106c057600080fd5b506102ec600a5481565b3480156106d657600080fd5b506102976106e53660046122ab565b61192f565b3480156106f657600080fd5b506010546104f1906001600160a01b031681565b34801561071657600080fd5b506102976107253660046122ab565b611a4a565b34801561073657600080fd5b506102976107453660046122ab565b611a79565b34801561075657600080fd5b506102ec60055481565b34801561076c57600080fd5b5061029761077b36600461230a565b611aa8565b34801561078c57600080fd5b5061029761079b3660046122ab565b611b43565b3480156107ac57600080fd5b506102ec6107bb36600461230a565b6001600160a01b031660009081526003602052604090205490565b6000546001600160a01b031633146108095760405162461bcd60e51b81526004016108009061252c565b60405180910390fd5b600855565b336000818152600460205260408120906108288285611b72565b905060006108368486611076565b9050803410156108815760405162461bcd60e51b815260206004820152601660248201527513995959081d1bc81c185e4819995948185b5bdd5b9d60521b6044820152606401610800565b42826004015410156108c85760405162461bcd60e51b815260206004820152601060248201526f139bd919481a5cc8191a5cd8589b195960821b6044820152606401610800565b600d546108d59042612577565b60038301819055600e546108e891612577565b6004909201919091556001600160a01b039092166000908152600160209081526040808320958352949052929092205550565b6000546001600160a01b031633146109455760405162461bcd60e51b81526004016108009061252c565b600b55565b600080612710600654600554610960919061258f565b61096a91906125c4565b905060005b61097a6001856125d8565b8110156109af57606460075483610991919061258f565b61099b91906125c4565b9150806109a7816125ef565b91505061096f565b5060006127106008546005546109c5919061258f565b6109cf91906125c4565b90508082116109de57806109e0565b815b949350505050565b6000546001600160a01b03163314610a125760405162461bcd60e51b81526004016108009061252c565b600d55565b6001600160a01b03811660009081526004602052604081208054908290815b83811015610b8f576000610b2d838381548110610a5557610a5561260a565b90600052602060002090600502016040518060a0016040529081600082018054610a7e90612620565b80601f0160208091040260200160405190810160405280929190818152602001828054610aaa90612620565b8015610af75780601f10610acc57610100808354040283529160200191610af7565b820191906000526020600020905b815481529060010190602001808311610ada57829003601f168201915b50505050508152602001600182015481526020016002820154815260200160038201548152602001600482015481525050611d56565b9050610b6f6040518060400160405280601781526020017f6e6f6465207265776172642061742025732069732025730000000000000000008152508383611ec1565b610b798185612577565b9350508080610b87906125ef565b915050610a36565b5090949350505050565b6001600160a01b0381166000908152600460209081526040808320805482518185028101850190935280835260609492939192909184015b82821015610cbd57838290600052602060002090600502016040518060a0016040529081600082018054610c0490612620565b80601f0160208091040260200160405190810160405280929190818152602001828054610c3090612620565b8015610c7d5780601f10610c5257610100808354040283529160200191610c7d565b820191906000526020600020905b815481529060010190602001808311610c6057829003601f168201915b5050505050815260200160018201548152602001600282015481526020016003820154815260200160048201548152505081526020019060010190610bd1565b505050509050919050565b6000546001600160a01b03163314610cf25760405162461bcd60e51b81526004016108009061252c565b60105460405163a9059cbb60e01b8152336004820152602481018390526001600160a01b039091169063a9059cbb90604401602060405180830381600087803b158015610d3e57600080fd5b505af1158015610d52573d6000803e3d6000fd5b505050506040513d601f19601f82011682018060405250810190610d76919061265b565b5050565b6000546001600160a01b03163314610da45760405162461bcd60e51b81526004016108009061252c565b600e55565b6011546040516324357cb560e11b81523360048201526000916001600160a01b03169063486af96a9060240160006040518083038186803b158015610ded57600080fd5b505afa158015610e01573d6000803e3d6000fd5b505050506040513d6000823e601f3d908101601f19168201604052610e29919081019061267d565b905060005b8151811015610fb6573360008181526004602052604090819020815160a0810190925284519091908190869086908110610e6a57610e6a61260a565b6020026020010151600001518152602001858581518110610e8d57610e8d61260a565b6020026020010151602001518152602001858581518110610eb057610eb061260a565b6020026020010151604001518152602001858581518110610ed357610ed361260a565b6020026020010151606001518152602001858581518110610ef657610ef661260a565b60209081029190910181015160800151909152825460018101845560009384529281902082518051939460050290910192610f349284920190612212565b506020828101516001830155604080840151600284015560608401516003808501919091556080909401516004909301929092556001600160a01b03841660009081529290528120805491610f88836125ef565b9091555050600f8054906000610f9d836125ef565b9190505550508080610fae906125ef565b915050610e2e565b5050336000908152600260205260409020805460ff19166001179055565b6001600160a01b038116600090815260046020526040812081805b825481101561106e574283828154811061100b5761100b61260a565b9060005260206000209060050201600401541061105c5761104f858483815481106110385761103861260a565b906000526020600020906005020160010154611076565b6110599083612577565b91505b80611066816125ef565b915050610fef565b509392505050565b6001600160a01b0382166000908152600160209081526040808320848452909152812054806110a9575050600b546110d2565b6064600c5460646110ba91906125d8565b6110c4908361258f565b6110ce91906125c4565b9150505b92915050565b6000546001600160a01b031633146111025760405162461bcd60e51b81526004016108009061252c565b61110c6000611f0d565b565b600081116111565760405162461bcd60e51b81526020600482015260156024820152740436f756e742073686f756c64206265206e6f74203605c1b6044820152606401610800565b336000818152600360205260409020546111708285611f5d565b6111bc5760405162461bcd60e51b815260206004820152601f60248201527f435245415445204e4f44453a204e616d65206e6f7420617661696c61626c65006044820152606401610800565b6009546111c98483612577565b11156112075760405162461bcd60e51b815260206004820152600d60248201526c10dbdd5b9d08131a5b5a5d1959609a1b6044820152606401610800565b80158061125857506001600160a01b038216600090815260046020526040902042906112346001846125d8565b815481106112445761124461260a565b906000526020600020906005020160010154105b6112985760405162461bcd60e51b8152602060048201526011602482015270546f6f206d616e7920726571756573747360781b6044820152606401610800565b600a5483600f546112a99190612577565b11156112f05760405162461bcd60e51b8152602060048201526016602482015275115e18d95959081b585e081b9bd9195cc81b1a5b5a5d60521b6044820152606401610800565b600083600554611300919061258f565b6010546040516323b872dd60e01b81526001600160a01b038681166004830152306024830152604482018490529293509116906323b872dd90606401602060405180830381600087803b15801561135657600080fd5b505af115801561136a573d6000803e3d6000fd5b505050506040513d601f19601f8201168201806040525081019061138e919061265b565b5060005b848110156114cb5760006113a68242612577565b905060046000866001600160a01b03166001600160a01b031681526020019081526020016000206040518060a00160405280898152602001838152602001838152602001600d54846113f89190612577565b8152602001600e54600d548561140e9190612577565b6114189190612577565b9052815460018101835560009283526020928390208251805193946005909302909101926114499284920190612212565b506020828101516001830155604080840151600284015560608401516003808501919091556080909401516004909301929092556001600160a01b0388166000908152929052812080549161149d836125ef565b9091555050600f80549060006114b2836125ef565b91905055505080806114c3906125ef565b915050611392565b505050505050565b6000546001600160a01b031633146114fd5760405162461bcd60e51b81526004016108009061252c565b600955565b60008082116115235760405162461bcd60e51b8152600401610800906127dc565b6001600160a01b038316600090815260046020526040902080548061155a5760405162461bcd60e51b815260040161080090612823565b60006115668386611b72565b90506000611589826040518060a0016040529081600082018054610a7e90612620565b979650505050505050565b6000546001600160a01b031633146115be5760405162461bcd60e51b81526004016108009061252c565b600a55565b3360008181526004602052604090208054806115f15760405162461bcd60e51b8152600401610800906127dc565b600080805b83811015611669578481815481106116105761161061260a565b906000526020600020906005020192506000611641846040518060a0016040529081600082018054610a7e90612620565b905061164d8184612577565b4260028601559250819050611661816125ef565b9150506115f6565b5060105460405163a9059cbb60e01b81526001600160a01b038781166004830152602482018490529091169063a9059cbb90604401602060405180830381600087803b1580156116b857600080fd5b505af11580156116cc573d6000803e3d6000fd5b505050506040513d601f19601f820116820180604052508101906114cb919061265b565b6000546001600160a01b0316331461171a5760405162461bcd60e51b81526004016108009061252c565b600555565b3360008181526004602052604081209061173883610fd4565b9050803410156117835760405162461bcd60e51b815260206004820152601660248201527513995959081d1bc81c185e4819995948185b5bdd5b9d60521b6044820152606401610800565b60005b82548110156118d257428382815481106117a2576117a261260a565b906000526020600020906005020160040154106118c05760006117d1858584815481106110385761103861260a565b9050600d54426117e19190612577565b8483815481106117f3576117f361260a565b906000526020600020906005020160030181905550600e5484838154811061181d5761181d61260a565b9060005260206000209060050201600301546118399190612577565b84838154811061184b5761184b61260a565b9060005260206000209060050201600401819055508060016000876001600160a01b03166001600160a01b03168152602001908152602001600020600086858154811061189a5761189a61260a565b906000526020600020906005020160010154815260200190815260200160002081905550505b806118ca816125ef565b915050611786565b50505050565b6000546001600160a01b031633146119025760405162461bcd60e51b81526004016108009061252c565b604051339082156108fc029083906000818181858888f19350505050158015610d76573d6000803e3d6000fd5b338161194d5760405162461bcd60e51b8152600401610800906127dc565b6001600160a01b03811660009081526004602052604090208054806119845760405162461bcd60e51b815260040161080090612823565b60006119908386611b72565b905060006119b3826040518060a0016040529081600082018054610a7e90612620565b42600284015560105460405163a9059cbb60e01b81526001600160a01b0388811660048301526024820184905292935091169063a9059cbb90604401602060405180830381600087803b158015611a0957600080fd5b505af1158015611a1d573d6000803e3d6000fd5b505050506040513d601f19601f82011682018060405250810190611a41919061265b565b50505050505050565b6000546001600160a01b03163314611a745760405162461bcd60e51b81526004016108009061252c565b600c55565b6000546001600160a01b03163314611aa35760405162461bcd60e51b81526004016108009061252c565b600755565b6000546001600160a01b03163314611ad25760405162461bcd60e51b81526004016108009061252c565b6001600160a01b038116611b375760405162461bcd60e51b815260206004820152602660248201527f4f776e61626c653a206e6577206f776e657220697320746865207a65726f206160448201526564647265737360d01b6064820152608401610800565b611b4081611f0d565b50565b6000546001600160a01b03163314611b6d5760405162461bcd60e51b81526004016108009061252c565b600655565b815460009080611b945760405162461bcd60e51b815260040161080090612823565b600080611cb486805480602002602001604051908101604052809291908181526020016000905b82821015611ca757838290600052602060002090600502016040518060a0016040529081600082018054611bee90612620565b80601f0160208091040260200160405190810160405280929190818152602001828054611c1a90612620565b8015611c675780601f10611c3c57610100808354040283529160200191611c67565b820191906000526020600020905b815481529060010190602001808311611c4a57829003601f168201915b5050505050815260200160018201548152602001600282015481526020016003820154815260200160048201548152505081526020019060010190611bbb565b50505050600085886120e9565b90506000808212611cc6575060019150805b82611d2a5760405162461bcd60e51b815260206004820152602e60248201527f4e4f4445205345415243483a204e6f204e4f444520466f756e6420776974682060448201526d7468697320626c6f636b74696d6560901b6064820152608401610800565b868181548110611d3c57611d3c61260a565b906000526020600020906005020194505050505092915050565b60008160800151421115611d6c57506000919050565b6000826020015142611d7e91906125d8565b90506000611d8f826201518061219c565b90506000611da0620151808461286d565b90506000856040015142611db491906125d8565b9050808211611dc35781611dc5565b805b9150600060015b848111611eb6576040880151611de5826201518061258f565b8960200151611df49190612577565b1115611ea4576040880151600090611e0f836201518061258f565b8a60200151611e1e9190612577565b611e2891906125d8565b90506000611e358361094a565b905086831415611e685762015180611e4d878361258f565b611e5791906125c4565b611e619085612577565b9350611ea1565b620151808210611e7c57611e618185612577565b62015180611e8a838361258f565b611e9491906125c4565b611e9e9085612577565b93505b50505b80611eae816125ef565b915050611dcc565b509695505050505050565b611f08838383604051602401611ed993929190612881565b60408051601f198184030181529190526020810180516001600160e01b031663969cdd0360e01b1790526121de565b505050565b600080546001600160a01b038381166001600160a01b0319831681178455604051919092169283917f8be0079c531659141344cd1fd0a4f28419497f9722a3daafe3b4186f6b6457e09190a35050565b6001600160a01b038216600090815260046020908152604080832080548251818502810185019093528083528493849084015b8282101561207c57838290600052602060002090600502016040518060a0016040529081600082018054611fc390612620565b80601f0160208091040260200160405190810160405280929190818152602001828054611fef90612620565b801561203c5780601f106120115761010080835404028352916020019161203c565b820191906000526020600020905b81548152906001019060200180831161201f57829003601f168201915b5050505050815260200160018201548152602001600282015481526020016003820154815260200160048201548152505081526020019060010190611f90565b50505050905060005b81518110156120de5783805190602001208282815181106120a8576120a861260a565b6020026020010151600001518051906020012014156120cc576000925050506110d2565b806120d6816125ef565b915050612085565b506001949350505050565b600083831061219057600061210960026121038787612577565b906121ff565b90508286828151811061211e5761211e61260a565b60200260200101516020015114156121375790506109e0565b8286828151811061214a5761214a61260a565b602002602001015160200151111561217a57612172868661216c6001856125d8565b866120e9565b9150506109e0565b61217286612189836001612577565b86866120e9565b50600019949350505050565b6000806121a9838561286d565b90506000836121b883876125d8565b6121c291906125c4565b905081156110ce576121d5600182612577565b95945050505050565b80516a636f6e736f6c652e6c6f67602083016000808483855afa5050505050565b600061220b82846125c4565b9392505050565b82805461221e90612620565b90600052602060002090601f0160209004810192826122405760008555612286565b82601f1061225957805160ff1916838001178555612286565b82800160010185558215612286579182015b8281111561228657825182559160200191906001019061226b565b50612292929150612296565b5090565b5b808211156122925760008155600101612297565b6000602082840312156122bd57600080fd5b5035919050565b80356001600160a01b03811681146122db57600080fd5b919050565b600080604083850312156122f357600080fd5b6122fc836122c4565b946020939093013593505050565b60006020828403121561231c57600080fd5b61220b826122c4565b60005b83811015612340578181015183820152602001612328565b838111156118d25750506000910152565b60008151808452612369816020860160208601612325565b601f01601f19169290920160200192915050565b60006020808301818452808551808352604092508286019150828160051b87010184880160005b8381101561240457603f19898403018552815160a081518186526123ca82870182612351565b838b0151878c0152898401518a880152606080850151908801526080938401519390960192909252505093860193908601906001016123a4565b509098975050505050505050565b634e487b7160e01b600052604160045260246000fd5b60405160a0810167ffffffffffffffff8111828210171561244b5761244b612412565b60405290565b604051601f8201601f1916810167ffffffffffffffff8111828210171561247a5761247a612412565b604052919050565b600067ffffffffffffffff82111561249c5761249c612412565b50601f01601f191660200190565b600080604083850312156124bd57600080fd5b823567ffffffffffffffff8111156124d457600080fd5b8301601f810185136124e557600080fd5b80356124f86124f382612482565b612451565b81815286602083850101111561250d57600080fd5b8160208401602083013760006020928201830152969401359450505050565b6020808252818101527f4f776e61626c653a2063616c6c6572206973206e6f7420746865206f776e6572604082015260600190565b634e487b7160e01b600052601160045260246000fd5b6000821982111561258a5761258a612561565b500190565b60008160001904831182151516156125a9576125a9612561565b500290565b634e487b7160e01b600052601260045260246000fd5b6000826125d3576125d36125ae565b500490565b6000828210156125ea576125ea612561565b500390565b600060001982141561260357612603612561565b5060010190565b634e487b7160e01b600052603260045260246000fd5b600181811c9082168061263457607f821691505b6020821081141561265557634e487b7160e01b600052602260045260246000fd5b50919050565b60006020828403121561266d57600080fd5b8151801515811461220b57600080fd5b6000602080838503121561269057600080fd5b825167ffffffffffffffff808211156126a857600080fd5b818501915085601f8301126126bc57600080fd5b8151818111156126ce576126ce612412565b8060051b6126dd858201612451565b91825283810185019185810190898411156126f757600080fd5b86860192505b838310156127cf5782518581111561271457600080fd5b860160a0818c03601f1901121561272b5760008081fd5b612733612428565b88820151878111156127455760008081fd5b8201603f81018d136127575760008081fd5b8981015160406127696124f383612482565b8281528f8284860101111561277e5760008081fd5b61278d838e8301848701612325565b8452848101518c850152606080860151918501919091526080808601519185019190915260a090940151938301939093525083525091860191908601906126fd565b9998505050505050505050565b60208082526027908201527f4e4f44453a204352454154494d45206d75737420626520686967686572207468604082015266616e207a65726f60c81b606082015260800190565b6020808252602a908201527f434c41494d204552524f523a20596f7520646f6e27742068617665206e6f64656040820152697320746f20636c61696d60b01b606082015260800190565b60008261287c5761287c6125ae565b500690565b6060815260006128946060830186612351565b6020830194909452506040015291905056fea264697066735822122062cbc820ef9dce9c8da484a5d254686ca032d8701f7f2c2aba549692ed9f987464736f6c63430008090033",
  "linkReferences": {},
  "deployedLinkReferences": {}
}