{
  "_format": "hh-sol-artifact-1",
  "contractName": "HeroInfinityMulticall",
  "sourceName": "contracts/HeroInfinityMulticall.sol",
  "abi": [
    {
      "inputs": [
        {
          "components": [
            {
              "internalType": "address",
              "name": "target",
              "type": "address"
            },
            {
              "internalType": "bytes",
              "name": "callData",
              "type": "bytes"
            }
          ],
          "internalType": "struct HeroInfinityMulticall.Call[]",
          "name": "calls",
          "type": "tuple[]"
        }
      ],
      "name": "multicall",
      "outputs": [
        {
          "internalType": "bytes[]",
          "name": "results",
          "type": "bytes[]"
        }
      ],
      "stateMutability": "nonpayable",
      "type": "function"
    }
  ],
  "bytecode": "0x608060405234801561001057600080fd5b506105de806100206000396000f3fe608060405234801561001057600080fd5b506004361061002b5760003560e01c8063caa5c23f14610030575b600080fd5b61004361003e3660046102e8565b610059565b60405161005091906104b1565b60405180910390f35b6060815167ffffffffffffffff81111561007557610075610278565b6040519080825280602002602001820160405280156100a857816020015b60608152602001906001900390816100935790505b50905060005b825181101561012b576100fb8382815181106100cc576100cc610513565b6020026020010151600001518483815181106100ea576100ea610513565b602002602001015160200151610131565b82828151811061010d5761010d610513565b6020026020010181905250808061012390610529565b9150506100ae565b50919050565b606061015683836040518060600160405280602781526020016105826027913961015d565b9392505050565b60606001600160a01b0384163b6101ca5760405162461bcd60e51b815260206004820152602660248201527f416464726573733a2064656c65676174652063616c6c20746f206e6f6e2d636f6044820152651b9d1c9858dd60d21b60648201526084015b60405180910390fd5b600080856001600160a01b0316856040516101e59190610552565b600060405180830381855af49150503d8060008114610220576040519150601f19603f3d011682016040523d82523d6000602084013e610225565b606091505b509150915061023582828661023f565b9695505050505050565b6060831561024e575081610156565b82511561025e5782518084602001fd5b8160405162461bcd60e51b81526004016101c1919061056e565b634e487b7160e01b600052604160045260246000fd5b6040805190810167ffffffffffffffff811182821017156102b1576102b1610278565b60405290565b604051601f8201601f1916810167ffffffffffffffff811182821017156102e0576102e0610278565b604052919050565b600060208083850312156102fb57600080fd5b823567ffffffffffffffff8082111561031357600080fd5b818501915085601f83011261032757600080fd5b81358181111561033957610339610278565b8060051b6103488582016102b7565b918252838101850191858101908984111561036257600080fd5b86860192505b83831015610448578235858111156103805760008081fd5b86016040601f19828d0381018213156103995760008081fd5b6103a161028e565b838b01356001600160a01b03811681146103bb5760008081fd5b815283830135898111156103cf5760008081fd5b8085019450508d603f8501126103e55760008081fd5b8a840135898111156103f9576103f9610278565b6104098c84601f840116016102b7565b92508083528e848287010111156104205760008081fd5b808486018d85013760009083018c0152808b0191909152845250509186019190860190610368565b9998505050505050505050565b60005b83811015610470578181015183820152602001610458565b8381111561047f576000848401525b50505050565b6000815180845261049d816020860160208601610455565b601f01601f19169290920160200192915050565b6000602080830181845280855180835260408601915060408160051b870101925083870160005b8281101561050657603f198886030184526104f4858351610485565b945092850192908501906001016104d8565b5092979650505050505050565b634e487b7160e01b600052603260045260246000fd5b600060001982141561054b57634e487b7160e01b600052601160045260246000fd5b5060010190565b60008251610564818460208701610455565b9190910192915050565b602081526000610156602083018461048556fe416464726573733a206c6f772d6c6576656c2064656c65676174652063616c6c206661696c6564a2646970667358221220df8ef42a3ff43d164503bfcce6ff269bd7fd41acb8ebee54bcc1480adbb817ab64736f6c63430008090033",
  "linkReferences": {},
  "deployedLinkReferences": {}
}