{
  "_format": "hh-sol-artifact-1",
  "contractName": "HeroManager",
  "sourceName": "contracts/game/HeroManager.sol",
  "abi": [
    {
      "inputs": [
        {
          "internalType": "address",
          "name": "tokenAddress",
          "type": "address"
        },
        {
          "internalType": "address",
          "name": "nftAddress",
          "type": "address"
        }
      ],
      "stateMutability": "nonpayable",
      "type": "constructor"
    },
    {
      "anonymous": false,
      "inputs": [
        {
          "indexed": true,
          "internalType": "address",
          "name": "previousOwner",
          "type": "address"
        },
        {
          "indexed": true,
          "internalType": "address",
          "name": "newOwner",
          "type": "address"
        }
      ],
      "name": "OwnershipTransferred",
      "type": "event"
    },
    {
      "inputs": [],
      "name": "HERO_MAX_EXP",
      "outputs": [
        {
          "internalType": "uint256",
          "name": "",
          "type": "uint256"
        }
      ],
      "stateMutability": "view",
      "type": "function"
    },
    {
      "inputs": [],
      "name": "HERO_MAX_LEVEL",
      "outputs": [
        {
          "internalType": "uint256",
          "name": "",
          "type": "uint256"
        }
      ],
      "stateMutability": "view",
      "type": "function"
    },
    {
      "inputs": [
        {
          "internalType": "uint256",
          "name": "heroId",
          "type": "uint256"
        },
        {
          "components": [
            {
              "internalType": "bytes32",
              "name": "name",
              "type": "bytes32"
            },
            {
              "internalType": "uint256",
              "name": "level",
              "type": "uint256"
            },
            {
              "internalType": "uint256",
              "name": "rarity",
              "type": "uint256"
            },
            {
              "internalType": "uint256",
              "name": "primaryAttribute",
              "type": "uint256"
            },
            {
              "internalType": "uint256",
              "name": "attackCapability",
              "type": "uint256"
            },
            {
              "internalType": "uint256",
              "name": "strength",
              "type": "uint256"
            },
            {
              "internalType": "uint256",
              "name": "strengthGain",
              "type": "uint256"
            },
            {
              "internalType": "uint256",
              "name": "agility",
              "type": "uint256"
            },
            {
              "internalType": "uint256",
              "name": "agilityGain",
              "type": "uint256"
            },
            {
              "internalType": "uint256",
              "name": "intelligence",
              "type": "uint256"
            },
            {
              "internalType": "uint256",
              "name": "intelligenceGain",
              "type": "uint256"
            },
            {
              "internalType": "uint256",
              "name": "experience",
              "type": "uint256"
            }
          ],
          "internalType": "struct GameFi.Hero",
          "name": "hero",
          "type": "tuple"
        }
      ],
      "name": "addHero",
      "outputs": [],
      "stateMutability": "nonpayable",
      "type": "function"
    },
    {
      "inputs": [],
      "name": "baseLevelUpFee",
      "outputs": [
        {
          "internalType": "uint256",
          "name": "",
          "type": "uint256"
        }
      ],
      "stateMutability": "view",
      "type": "function"
    },
    {
      "inputs": [],
      "name": "bonusExp",
      "outputs": [
        {
          "internalType": "uint256",
          "name": "",
          "type": "uint256"
        }
      ],
      "stateMutability": "view",
      "type": "function"
    },
    {
      "inputs": [],
      "name": "bonusLevelUpFee",
      "outputs": [
        {
          "internalType": "uint256",
          "name": "",
          "type": "uint256"
        }
      ],
      "stateMutability": "view",
      "type": "function"
    },
    {
      "inputs": [
        {
          "internalType": "uint256[]",
          "name": "heroIds",
          "type": "uint256[]"
        },
        {
          "internalType": "bool",
          "name": "won",
          "type": "bool"
        }
      ],
      "name": "bulkExpUp",
      "outputs": [],
      "stateMutability": "nonpayable",
      "type": "function"
    },
    {
      "inputs": [],
      "name": "energyRecoveryTime",
      "outputs": [
        {
          "internalType": "uint256",
          "name": "",
          "type": "uint256"
        }
      ],
      "stateMutability": "view",
      "type": "function"
    },
    {
      "inputs": [],
      "name": "expDiff",
      "outputs": [
        {
          "internalType": "uint256",
          "name": "",
          "type": "uint256"
        }
      ],
      "stateMutability": "view",
      "type": "function"
    },
    {
      "inputs": [
        {
          "internalType": "uint256",
          "name": "heroId",
          "type": "uint256"
        },
        {
          "internalType": "bool",
          "name": "won",
          "type": "bool"
        }
      ],
      "name": "expUp",
      "outputs": [],
      "stateMutability": "nonpayable",
      "type": "function"
    },
    {
      "inputs": [
        {
          "internalType": "uint256",
          "name": "heroId",
          "type": "uint256"
        }
      ],
      "name": "heroEnergy",
      "outputs": [
        {
          "internalType": "uint256",
          "name": "",
          "type": "uint256"
        }
      ],
      "stateMutability": "view",
      "type": "function"
    },
    {
      "inputs": [
        {
          "internalType": "uint256",
          "name": "heroId",
          "type": "uint256"
        }
      ],
      "name": "heroLevel",
      "outputs": [
        {
          "internalType": "uint256",
          "name": "",
          "type": "uint256"
        }
      ],
      "stateMutability": "view",
      "type": "function"
    },
    {
      "inputs": [
        {
          "internalType": "uint256",
          "name": "heroId",
          "type": "uint256"
        }
      ],
      "name": "heroPower",
      "outputs": [
        {
          "internalType": "uint256",
          "name": "",
          "type": "uint256"
        }
      ],
      "stateMutability": "view",
      "type": "function"
    },
    {
      "inputs": [
        {
          "internalType": "uint256",
          "name": "heroId",
          "type": "uint256"
        }
      ],
      "name": "heroPrimaryAttribute",
      "outputs": [
        {
          "internalType": "uint256",
          "name": "",
          "type": "uint256"
        }
      ],
      "stateMutability": "view",
      "type": "function"
    },
    {
      "inputs": [
        {
          "internalType": "uint256",
          "name": "",
          "type": "uint256"
        }
      ],
      "name": "heroes",
      "outputs": [
        {
          "internalType": "bytes32",
          "name": "name",
          "type": "bytes32"
        },
        {
          "internalType": "uint256",
          "name": "level",
          "type": "uint256"
        },
        {
          "internalType": "uint256",
          "name": "rarity",
          "type": "uint256"
        },
        {
          "internalType": "uint256",
          "name": "primaryAttribute",
          "type": "uint256"
        },
        {
          "internalType": "uint256",
          "name": "attackCapability",
          "type": "uint256"
        },
        {
          "internalType": "uint256",
          "name": "strength",
          "type": "uint256"
        },
        {
          "internalType": "uint256",
          "name": "strengthGain",
          "type": "uint256"
        },
        {
          "internalType": "uint256",
          "name": "agility",
          "type": "uint256"
        },
        {
          "internalType": "uint256",
          "name": "agilityGain",
          "type": "uint256"
        },
        {
          "internalType": "uint256",
          "name": "intelligence",
          "type": "uint256"
        },
        {
          "internalType": "uint256",
          "name": "intelligenceGain",
          "type": "uint256"
        },
        {
          "internalType": "uint256",
          "name": "experience",
          "type": "uint256"
        }
      ],
      "stateMutability": "view",
      "type": "function"
    },
    {
      "inputs": [
        {
          "internalType": "uint256",
          "name": "",
          "type": "uint256"
        }
      ],
      "name": "heroesEnergy",
      "outputs": [
        {
          "internalType": "uint256",
          "name": "",
          "type": "uint256"
        }
      ],
      "stateMutability": "view",
      "type": "function"
    },
    {
      "inputs": [
        {
          "internalType": "uint256",
          "name": "",
          "type": "uint256"
        }
      ],
      "name": "heroesEnergyUsedAt",
      "outputs": [
        {
          "internalType": "uint256",
          "name": "",
          "type": "uint256"
        }
      ],
      "stateMutability": "view",
      "type": "function"
    },
    {
      "inputs": [
        {
          "internalType": "uint256",
          "name": "heroId",
          "type": "uint256"
        },
        {
          "internalType": "uint256",
          "name": "levels",
          "type": "uint256"
        }
      ],
      "name": "levelUp",
      "outputs": [],
      "stateMutability": "nonpayable",
      "type": "function"
    },
    {
      "inputs": [
        {
          "internalType": "uint256",
          "name": "heroId",
          "type": "uint256"
        },
        {
          "internalType": "uint256",
          "name": "levels",
          "type": "uint256"
        }
      ],
      "name": "levelUpFee",
      "outputs": [
        {
          "internalType": "uint256",
          "name": "",
          "type": "uint256"
        }
      ],
      "stateMutability": "view",
      "type": "function"
    },
    {
      "inputs": [],
      "name": "lobbyManagerAddress",
      "outputs": [
        {
          "internalType": "address",
          "name": "",
          "type": "address"
        }
      ],
      "stateMutability": "view",
      "type": "function"
    },
    {
      "inputs": [],
      "name": "maxHeroEnergy",
      "outputs": [
        {
          "internalType": "uint256",
          "name": "",
          "type": "uint256"
        }
      ],
      "stateMutability": "view",
      "type": "function"
    },
    {
      "inputs": [
        {
          "internalType": "bytes[]",
          "name": "data",
          "type": "bytes[]"
        }
      ],
      "name": "multicall",
      "outputs": [
        {
          "internalType": "bytes[]",
          "name": "results",
          "type": "bytes[]"
        }
      ],
      "stateMutability": "nonpayable",
      "type": "function"
    },
    {
      "inputs": [],
      "name": "nft",
      "outputs": [
        {
          "internalType": "contract IERC721",
          "name": "",
          "type": "address"
        }
      ],
      "stateMutability": "view",
      "type": "function"
    },
    {
      "inputs": [],
      "name": "owner",
      "outputs": [
        {
          "internalType": "address",
          "name": "",
          "type": "address"
        }
      ],
      "stateMutability": "view",
      "type": "function"
    },
    {
      "inputs": [],
      "name": "primaryPowerMultiplier",
      "outputs": [
        {
          "internalType": "uint256",
          "name": "",
          "type": "uint256"
        }
      ],
      "stateMutability": "view",
      "type": "function"
    },
    {
      "inputs": [],
      "name": "rarityPowerBooster",
      "outputs": [
        {
          "internalType": "uint256",
          "name": "",
          "type": "uint256"
        }
      ],
      "stateMutability": "view",
      "type": "function"
    },
    {
      "inputs": [],
      "name": "renounceOwnership",
      "outputs": [],
      "stateMutability": "nonpayable",
      "type": "function"
    },
    {
      "inputs": [],
      "name": "rewardsPayeer",
      "outputs": [
        {
          "internalType": "address",
          "name": "",
          "type": "address"
        }
      ],
      "stateMutability": "view",
      "type": "function"
    },
    {
      "inputs": [],
      "name": "secondaryMultiplier",
      "outputs": [
        {
          "internalType": "uint256",
          "name": "",
          "type": "uint256"
        }
      ],
      "stateMutability": "view",
      "type": "function"
    },
    {
      "inputs": [
        {
          "internalType": "uint256",
          "name": "value",
          "type": "uint256"
        }
      ],
      "name": "setBaseLevelUpFee",
      "outputs": [],
      "stateMutability": "nonpayable",
      "type": "function"
    },
    {
      "inputs": [
        {
          "internalType": "uint256",
          "name": "value",
          "type": "uint256"
        }
      ],
      "name": "setBonusExp",
      "outputs": [],
      "stateMutability": "nonpayable",
      "type": "function"
    },
    {
      "inputs": [
        {
          "internalType": "uint256",
          "name": "value",
          "type": "uint256"
        }
      ],
      "name": "setBonusLevelUpFee",
      "outputs": [],
      "stateMutability": "nonpayable",
      "type": "function"
    },
    {
      "inputs": [
        {
          "internalType": "uint256",
          "name": "value",
          "type": "uint256"
        }
      ],
      "name": "setEnergyRecoveryTime",
      "outputs": [],
      "stateMutability": "nonpayable",
      "type": "function"
    },
    {
      "inputs": [
        {
          "internalType": "uint256",
          "name": "value",
          "type": "uint256"
        }
      ],
      "name": "setExpDiff",
      "outputs": [],
      "stateMutability": "nonpayable",
      "type": "function"
    },
    {
      "inputs": [
        {
          "internalType": "address",
          "name": "lbAddr",
          "type": "address"
        }
      ],
      "name": "setLobbyManager",
      "outputs": [],
      "stateMutability": "nonpayable",
      "type": "function"
    },
    {
      "inputs": [
        {
          "internalType": "uint256",
          "name": "value",
          "type": "uint256"
        }
      ],
      "name": "setMaxHeroEnergy",
      "outputs": [],
      "stateMutability": "nonpayable",
      "type": "function"
    },
    {
      "inputs": [
        {
          "internalType": "uint256",
          "name": "value",
          "type": "uint256"
        }
      ],
      "name": "setPrimaryPowerMultiplier",
      "outputs": [],
      "stateMutability": "nonpayable",
      "type": "function"
    },
    {
      "inputs": [
        {
          "internalType": "uint256",
          "name": "value",
          "type": "uint256"
        }
      ],
      "name": "setRarityPowerBooster",
      "outputs": [],
      "stateMutability": "nonpayable",
      "type": "function"
    },
    {
      "inputs": [
        {
          "internalType": "address",
          "name": "payer",
          "type": "address"
        }
      ],
      "name": "setRewardsPayeer",
      "outputs": [],
      "stateMutability": "nonpayable",
      "type": "function"
    },
    {
      "inputs": [
        {
          "internalType": "uint256",
          "name": "value",
          "type": "uint256"
        }
      ],
      "name": "setSecondaryMultiplier",
      "outputs": [],
      "stateMutability": "nonpayable",
      "type": "function"
    },
    {
      "inputs": [
        {
          "internalType": "uint256",
          "name": "value",
          "type": "uint256"
        }
      ],
      "name": "setThirdMultiplier",
      "outputs": [],
      "stateMutability": "nonpayable",
      "type": "function"
    },
    {
      "inputs": [
        {
          "internalType": "uint256",
          "name": "heroId",
          "type": "uint256"
        }
      ],
      "name": "spendHeroEnergy",
      "outputs": [],
      "stateMutability": "nonpayable",
      "type": "function"
    },
    {
      "inputs": [],
      "name": "thirdMultiplier",
      "outputs": [
        {
          "internalType": "uint256",
          "name": "",
          "type": "uint256"
        }
      ],
      "stateMutability": "view",
      "type": "function"
    },
    {
      "inputs": [],
      "name": "token",
      "outputs": [
        {
          "internalType": "contract IERC20",
          "name": "",
          "type": "address"
        }
      ],
      "stateMutability": "view",
      "type": "function"
    },
    {
      "inputs": [
        {
          "internalType": "address",
          "name": "newOwner",
          "type": "address"
        }
      ],
      "name": "transferOwnership",
      "outputs": [],
      "stateMutability": "nonpayable",
      "type": "function"
    },
    {
      "inputs": [
        {
          "internalType": "uint256[]",
          "name": "heroIds",
          "type": "uint256[]"
        }
      ],
      "name": "validateHeroEnergies",
      "outputs": [
        {
          "internalType": "bool",
          "name": "",
          "type": "bool"
        }
      ],
      "stateMutability": "view",
      "type": "function"
    },
    {
      "inputs": [
        {
          "internalType": "uint256[]",
          "name": "heroIds",
          "type": "uint256[]"
        },
        {
          "internalType": "address",
          "name": "owner",
          "type": "address"
        }
      ],
      "name": "validateHeroIds",
      "outputs": [
        {
          "internalType": "bool",
          "name": "",
          "type": "bool"
        }
      ],
      "stateMutability": "view",
      "type": "function"
    }
  ],
  "bytecode": "0x6080604052600480546001600160a01b031916730cca7943409260455ceef6be46c69b3fc808e24f178155690a968163f0a57b400000600590815569021e19e0c9bab24000006006908155600a600781905560088055600991909155606e90556801a055690d9db80000600b55600c91909155600d55610e10600e553480156200008857600080fd5b5060405162001f6f38038062001f6f833981016040819052620000ab9162000155565b620000b633620000e8565b600180546001600160a01b039384166001600160a01b031991821617909155600280549290931691161790556200018d565b600080546001600160a01b038381166001600160a01b0319831681178455604051919092169283917f8be0079c531659141344cd1fd0a4f28419497f9722a3daafe3b4186f6b6457e09190a35050565b80516001600160a01b03811681146200015057600080fd5b919050565b600080604083850312156200016957600080fd5b620001748362000138565b9150620001846020840162000138565b90509250929050565b611dd2806200019d6000396000f3fe608060405234801561001057600080fd5b50600436106102955760003560e01c8063852eebff11610167578063b3803453116100ce578063d5c1ed8a11610087578063d5c1ed8a1461064e578063dda728cd14610661578063e4118fca14610674578063f2fde38b14610687578063f3d1b5ab1461069a578063fc0c546a146106bd57600080fd5b8063b3803453146105d9578063b7601a15146105f9578063b8830f9f1461060c578063c6afe9ae1461061f578063c97bdb5814610632578063cc0f6f781461063b57600080fd5b8063a8d4a03b11610120578063a8d4a03b146104ba578063aaef012214610581578063ab4051451461058a578063ac9650d814610593578063af264bd7146105b3578063b0a04efa146105c657600080fd5b8063852eebff1461045e5780638af31646146104715780638da5cb5b1461047a5780639b12bc881461048b5780639bad6231146104945780639cabd6db146104a757600080fd5b806331a03ca21161020b5780634fbd1edc116101c45780634fbd1edc146104015780635226dc931461040a5780636e7dff4d1461041d578063715018a61461043057806372450f99146104385780637ce9dd541461044b57600080fd5b806331a03ca2146103a757806333ab0541146103af5780633c68e1ad146103c25780634239ca30146103cb57806347ccca02146103de5780634afca080146103f157600080fd5b806313b60c511161025d57806313b60c51146103305780631636f10c146103455780631ec462e01461035857806323cb1c361461036b578063294cdacd146103745780632a18bdfe1461039457600080fd5b80630152368f1461029a57806301783dfa146102c257806306975ac2146102d95780630a36d40b146102e257806311ce406d14610305575b600080fd5b6102ad6102a8366004611801565b6106d0565b60405190151581526020015b60405180910390f35b6102cb60075481565b6040519081526020016102b9565b6102cb60065481565b6102cb6102f0366004611858565b6000908152600f602052604090206001015490565b600454610318906001600160a01b031681565b6040516001600160a01b0390911681526020016102b9565b61034361033e366004611858565b6107e8565b005b610343610353366004611871565b610817565b61034361036636600461188e565b610863565b6102cb60095481565b6102cb610382366004611858565b60116020526000908152604090205481565b6102cb6103a2366004611858565b610981565b6102cb601e81565b6103436103bd366004611858565b6109e5565b6102cb600a5481565b6103436103d9366004611858565b610a14565b600254610318906001600160a01b031681565b6102cb68056bc75e2d6310000081565b6102cb600c5481565b6103436104183660046118c8565b610aeb565b61034361042b366004611858565b610e45565b610343610e74565b610343610446366004611858565b610eaa565b610343610459366004611858565b610ed9565b61034361046c3660046118f8565b610f08565b6102cb600d5481565b6000546001600160a01b0316610318565b6102cb60055481565b6103436104a2366004611858565b610f67565b6103436104b5366004611858565b610f96565b6105286104c8366004611858565b600f60205280600052604060002060009150905080600001549080600101549080600201549080600301549080600401549080600501549080600601549080600701549080600801549080600901549080600a01549080600b015490508c565b604080519c8d5260208d019b909b52998b019890985260608a0196909652608089019490945260a088019290925260c087015260e0860152610100850152610120840152610140830152610160820152610180016102b9565b6102cb60085481565b6102cb600b5481565b6105a66105a1366004611944565b610fc5565b6040516102b991906119de565b6102cb6105c13660046118c8565b6110bb565b6103436105d4366004611a40565b611118565b6102cb6105e7366004611858565b60106020526000908152604090205481565b6102ad610607366004611944565b6111ea565b61034361061a366004611858565b611278565b600354610318906001600160a01b031681565b6102cb600e5481565b610343610649366004611858565b6112a7565b6102cb61065c366004611858565b6112d6565b61034361066f366004611858565b6114c6565b610343610682366004611871565b6114f5565b610343610695366004611871565b611541565b6102cb6106a8366004611858565b6000908152600f602052604090206003015490565b600154610318906001600160a01b031681565b6000805b838110156107db576002546001600160a01b038085169116636352211e87878581811061070357610703611a70565b905060200201356040518263ffffffff1660e01b815260040161072891815260200190565b60206040518083038186803b15801561074057600080fd5b505afa158015610754573d6000803e3d6000fd5b505050506040513d601f19601f820116820180604052508101906107789190611a86565b6001600160a01b0316146107d35760405162461bcd60e51b815260206004820152601b60248201527f4865726f4d616e616765723a206e6f74206865726f206f776e6572000000000060448201526064015b60405180910390fd5b6001016106d4565b50600190505b9392505050565b6000546001600160a01b031633146108125760405162461bcd60e51b81526004016107ca90611aa3565b600755565b6000546001600160a01b031633146108415760405162461bcd60e51b81526004016107ca90611aa3565b600380546001600160a01b0319166001600160a01b0392909216919091179055565b6000546001600160a01b0316331461088d5760405162461bcd60e51b81526004016107ca90611aa3565b6000828152600f6020526040902060010154156108ec5760405162461bcd60e51b815260206004820152601f60248201527f4865726f4d616e616765723a206865726f20616c72656164792061646465640060448201526064016107ca565b6000828152600f60205260409020819061097b8282813581556020820135600182015560408201356002820155606082013560038201556080820135600482015560a0820135600582015560c0820135600682015560e0820135600782015561010082013560088201556101208201356009820155610140820135600a820155610160820135600b8201555050565b50505050565b600d54600082815260106020526040812054909190818110156109b0576109a88183611aee565b949350505050565b60008481526011602052604090205462015180906109ce9042611aee565b11156109db575092915050565b5060009392505050565b6000546001600160a01b03163314610a0f5760405162461bcd60e51b81526004016107ca90611aa3565b600555565b6003546001600160a01b03163314610a3e5760405162461bcd60e51b81526004016107ca90611b05565b6000610a4982610981565b11610a965760405162461bcd60e51b815260206004820152601d60248201527f4865726f4d616e616765723a206865726f207a65726f20656e6572677900000060448201526064016107ca565b600081815260106020526040902054600d54811415610ab757506001610ad9565b600181019050600d54811415610ad95760008281526011602052604090204290555b60009182526010602052604090912055565b6000828152600f6020526040908190206001015460025491516331a9108f60e11b815260048101859052909133916001600160a01b0390911690636352211e9060240160206040518083038186803b158015610b4657600080fd5b505afa158015610b5a573d6000803e3d6000fd5b505050506040513d601f19601f82011682018060405250810190610b7e9190611a86565b6001600160a01b031614610bd45760405162461bcd60e51b815260206004820152601c60248201527f4865726f4d616e616765723a206e6f742061204e4654206f776e65720000000060448201526064016107ca565b601e8110610c245760405162461bcd60e51b815260206004820152601b60248201527f4865726f4d616e616765723a206865726f206d6178206c6576656c000000000060448201526064016107ca565b601e610c308383611b4f565b1115610c7e5760405162461bcd60e51b815260206004820152601f60248201527f4865726f4d616e616765723a20746f6f206d616e79206c6576656c732075700060448201526064016107ca565b6000610c8a84846110bb565b600154600480546040516323b872dd60e01b815233928101929092526001600160a01b039081166024830152604482018490529293509116906323b872dd90606401602060405180830381600087803b158015610ce657600080fd5b505af1158015610cfa573d6000803e3d6000fd5b505050506040513d601f19601f82011682018060405250810190610d1e9190611b67565b610d6a5760405162461bcd60e51b815260206004820152601b60248201527f4865726f4d616e616765723a206e6f7420656e6f75676820666565000000000060448201526064016107ca565b506000838152600f602081815260408084208151610180810183528154815260018201805482860152600283015493820193909352600382015460608201526004820154608082015260058201805460a08301908152600684015460c0840190815260078501805460e08601908152600887015461010087019081526009880180546101208901908152600a8a01546101408a01908152600b909a018054610160909a01999099529f8d529a9099529a8c01909655519051908a02019055925195519587029095019055925194519490930290930190915555565b6000546001600160a01b03163314610e6f5760405162461bcd60e51b81526004016107ca90611aa3565b600655565b6000546001600160a01b03163314610e9e5760405162461bcd60e51b81526004016107ca90611aa3565b610ea860006115dc565b565b6000546001600160a01b03163314610ed45760405162461bcd60e51b81526004016107ca90611aa3565b600e55565b6000546001600160a01b03163314610f035760405162461bcd60e51b81526004016107ca90611aa3565b600955565b6003546001600160a01b03163314610f325760405162461bcd60e51b81526004016107ca90611b05565b60005b8281101561097b57610f5f848483818110610f5257610f52611a70565b9050602002013583611118565b600101610f35565b6000546001600160a01b03163314610f915760405162461bcd60e51b81526004016107ca90611aa3565b600a55565b6000546001600160a01b03163314610fc05760405162461bcd60e51b81526004016107ca90611aa3565b600d55565b60608167ffffffffffffffff811115610fe057610fe0611b84565b60405190808252806020026020018201604052801561101357816020015b6060815260200190600190039081610ffe5790505b50905060005b828110156110b3576110833085858481811061103757611037611a70565b90506020028101906110499190611b9a565b8080601f01602080910402602001604051908101604052809392919081815260200183838082843760009201919091525061162c92505050565b82828151811061109557611095611a70565b602002602001018190525080806110ab90611be1565b915050611019565b505b92915050565b6000828152600f6020526040812060010154600654826110e2600019840183026005540190565b9050848102600061110c61110761110260026000198b018b025b90611651565b860290565b830190565b98975050505050505050565b60035433906001600160a01b031681148061113b57506001600160a01b03811630145b6111575760405162461bcd60e51b81526004016107ca90611b05565b6000826111725761116d600c546110fc8661166a565b61117b565b61117b8461166a565b6000858152600f602052604090206001810154600b9091015491925090601e8210156111c757820168056bc75e2d6310000081106111c7576001919091019068056bc75e2d630fffff19015b6000958652600f60205260409095206001810191909155600b0193909355505050565b6000805b8281101561126e57600061121985858481811061120d5761120d611a70565b90506020020135610981565b116112665760405162461bcd60e51b815260206004820152601e60248201527f4865726f4d616e616765723a206e6f7420656e6f75676820656e65726779000060448201526064016107ca565b6001016111ee565b5060019392505050565b6000546001600160a01b031633146112a25760405162461bcd60e51b81526004016107ca90611aa3565b600b55565b6000546001600160a01b031633146112d15760405162461bcd60e51b81526004016107ca90611aa3565b600c55565b6000818152600f602090815260408083208151610180810183528154815260018201549381019390935260028101549183019190915260038101546060830181905260048201546080840152600582015460a0840152600682015460c0840152600782015460e084015260088201546101008401526009820154610120840152600a820154610140840152600b9091015461016083015282908190819061138b5750505060a081015161012082015160e08301515b8360600151600114156113ac5750505060e081015160a08201516101208301515b8360600151600214156113cd5750505061012081015160e082015160a08301515b6000600954826113dd9190611bfc565b6008546113ea9085611bfc565b6007546113f79087611bfc565b6114019190611b4f565b61140b9190611b4f565b905084604001516001141561143b576064600a548261142a9190611bfc565b6114349190611c31565b90506114bc565b846040015160021415611464576127106002600a5461145a9190611d37565b61142a9083611bfc565b84604001516003141561148457620f42406003600a5461145a9190611d37565b8460400151600414156114bc576305f5e1006004600a546114a59190611d37565b6114af9083611bfc565b6114b99190611c31565b90505b9695505050505050565b6000546001600160a01b031633146114f05760405162461bcd60e51b81526004016107ca90611aa3565b600855565b6000546001600160a01b0316331461151f5760405162461bcd60e51b81526004016107ca90611aa3565b600480546001600160a01b0319166001600160a01b0392909216919091179055565b6000546001600160a01b0316331461156b5760405162461bcd60e51b81526004016107ca90611aa3565b6001600160a01b0381166115d05760405162461bcd60e51b815260206004820152602660248201527f4f776e61626c653a206e6577206f776e657220697320746865207a65726f206160448201526564647265737360d01b60648201526084016107ca565b6115d9816115dc565b50565b600080546001600160a01b038381166001600160a01b0319831681178455604051919092169283917f8be0079c531659141344cd1fd0a4f28419497f9722a3daafe3b4186f6b6457e09190a35050565b60606107e18383604051806060016040528060278152602001611d7660279139611699565b600081838161166257611662611c1b565b049392505050565b6000818152600f60205260408120600101546000198101670de0b6b3a764000002600b549091508190036107e1565b60606001600160a01b0384163b6117015760405162461bcd60e51b815260206004820152602660248201527f416464726573733a2064656c65676174652063616c6c20746f206e6f6e2d636f6044820152651b9d1c9858dd60d21b60648201526084016107ca565b600080856001600160a01b03168560405161171c9190611d46565b600060405180830381855af49150503d8060008114611757576040519150601f19603f3d011682016040523d82523d6000602084013e61175c565b606091505b50915091506114bc828286606083156117765750816107e1565b8251156117865782518084602001fd5b8160405162461bcd60e51b81526004016107ca9190611d62565b60008083601f8401126117b257600080fd5b50813567ffffffffffffffff8111156117ca57600080fd5b6020830191508360208260051b85010111156117e557600080fd5b9250929050565b6001600160a01b03811681146115d957600080fd5b60008060006040848603121561181657600080fd5b833567ffffffffffffffff81111561182d57600080fd5b611839868287016117a0565b909450925050602084013561184d816117ec565b809150509250925092565b60006020828403121561186a57600080fd5b5035919050565b60006020828403121561188357600080fd5b81356107e1816117ec565b6000808284036101a08112156118a357600080fd5b83359250610180601f19820112156118ba57600080fd5b506020830190509250929050565b600080604083850312156118db57600080fd5b50508035926020909101359150565b80151581146115d957600080fd5b60008060006040848603121561190d57600080fd5b833567ffffffffffffffff81111561192457600080fd5b611930868287016117a0565b909450925050602084013561184d816118ea565b6000806020838503121561195757600080fd5b823567ffffffffffffffff81111561196e57600080fd5b61197a858286016117a0565b90969095509350505050565b60005b838110156119a1578181015183820152602001611989565b8381111561097b5750506000910152565b600081518084526119ca816020860160208601611986565b601f01601f19169290920160200192915050565b6000602080830181845280855180835260408601915060408160051b870101925083870160005b82811015611a3357603f19888603018452611a218583516119b2565b94509285019290850190600101611a05565b5092979650505050505050565b60008060408385031215611a5357600080fd5b823591506020830135611a65816118ea565b809150509250929050565b634e487b7160e01b600052603260045260246000fd5b600060208284031215611a9857600080fd5b81516107e1816117ec565b6020808252818101527f4f776e61626c653a2063616c6c6572206973206e6f7420746865206f776e6572604082015260600190565b634e487b7160e01b600052601160045260246000fd5b600082821015611b0057611b00611ad8565b500390565b6020808252602a908201527f4865726f4d616e616765723a2063616c6c61626c65206279206c6f62627920626040820152696174746c65206f6e6c7960b01b606082015260800190565b60008219821115611b6257611b62611ad8565b500190565b600060208284031215611b7957600080fd5b81516107e1816118ea565b634e487b7160e01b600052604160045260246000fd5b6000808335601e19843603018112611bb157600080fd5b83018035915067ffffffffffffffff821115611bcc57600080fd5b6020019150368190038213156117e557600080fd5b6000600019821415611bf557611bf5611ad8565b5060010190565b6000816000190483118215151615611c1657611c16611ad8565b500290565b634e487b7160e01b600052601260045260246000fd5b600082611c4e57634e487b7160e01b600052601260045260246000fd5b500490565b600181815b80851115611c8e578160001904821115611c7457611c74611ad8565b80851615611c8157918102915b93841c9390800290611c58565b509250929050565b600082611ca5575060016110b5565b81611cb2575060006110b5565b8160018114611cc85760028114611cd257611cee565b60019150506110b5565b60ff841115611ce357611ce3611ad8565b50506001821b6110b5565b5060208310610133831016604e8410600b8410161715611d11575081810a6110b5565b611d1b8383611c53565b8060001904821115611d2f57611d2f611ad8565b029392505050565b60006107e160ff841683611c96565b60008251611d58818460208701611986565b9190910192915050565b6020815260006107e160208301846119b256fe416464726573733a206c6f772d6c6576656c2064656c65676174652063616c6c206661696c6564a26469706673582212200ca48646da7aa3a6e43f227c2fc685db8604f57e3d8a014b0d1abd307233a0d964736f6c63430008090033",
  "linkReferences": {},
  "deployedLinkReferences": {}
}