{
  "_format": "hh-sol-artifact-1",
  "contractName": "HeroInfinityNFT",
  "sourceName": "contracts/HeroInfinityNFT.sol",
  "abi": [
    {
      "inputs": [
        {
          "internalType": "address",
          "name": "_pool",
          "type": "address"
        }
      ],
      "stateMutability": "nonpayable",
      "type": "constructor"
    },
    {
      "anonymous": false,
      "inputs": [
        {
          "indexed": true,
          "internalType": "address",
          "name": "owner",
          "type": "address"
        },
        {
          "indexed": true,
          "internalType": "address",
          "name": "approved",
          "type": "address"
        },
        {
          "indexed": true,
          "internalType": "uint256",
          "name": "tokenId",
          "type": "uint256"
        }
      ],
      "name": "Approval",
      "type": "event"
    },
    {
      "anonymous": false,
      "inputs": [
        {
          "indexed": true,
          "internalType": "address",
          "name": "owner",
          "type": "address"
        },
        {
          "indexed": true,
          "internalType": "address",
          "name": "operator",
          "type": "address"
        },
        {
          "indexed": false,
          "internalType": "bool",
          "name": "approved",
          "type": "bool"
        }
      ],
      "name": "ApprovalForAll",
      "type": "event"
    },
    {
      "anonymous": false,
      "inputs": [
        {
          "indexed": true,
          "internalType": "address",
          "name": "previousOwner",
          "type": "address"
        },
        {
          "indexed": true,
          "internalType": "address",
          "name": "newOwner",
          "type": "address"
        }
      ],
      "name": "OwnershipTransferred",
      "type": "event"
    },
    {
      "anonymous": false,
      "inputs": [
        {
          "indexed": true,
          "internalType": "address",
          "name": "from",
          "type": "address"
        },
        {
          "indexed": true,
          "internalType": "address",
          "name": "to",
          "type": "address"
        },
        {
          "indexed": true,
          "internalType": "uint256",
          "name": "tokenId",
          "type": "uint256"
        }
      ],
      "name": "Transfer",
      "type": "event"
    },
    {
      "inputs": [],
      "name": "HIGHEST_PUBLIC",
      "outputs": [
        {
          "internalType": "uint256",
          "name": "",
          "type": "uint256"
        }
      ],
      "stateMutability": "view",
      "type": "function"
    },
    {
      "inputs": [],
      "name": "HIGHEST_TEAM",
      "outputs": [
        {
          "internalType": "uint256",
          "name": "",
          "type": "uint256"
        }
      ],
      "stateMutability": "view",
      "type": "function"
    },
    {
      "inputs": [],
      "name": "MAX_PER_WALLET",
      "outputs": [
        {
          "internalType": "uint256",
          "name": "",
          "type": "uint256"
        }
      ],
      "stateMutability": "view",
      "type": "function"
    },
    {
      "inputs": [
        {
          "internalType": "address",
          "name": "to",
          "type": "address"
        },
        {
          "internalType": "uint256",
          "name": "tokenId",
          "type": "uint256"
        }
      ],
      "name": "approve",
      "outputs": [],
      "stateMutability": "nonpayable",
      "type": "function"
    },
    {
      "inputs": [
        {
          "internalType": "address",
          "name": "owner",
          "type": "address"
        }
      ],
      "name": "balanceOf",
      "outputs": [
        {
          "internalType": "uint256",
          "name": "",
          "type": "uint256"
        }
      ],
      "stateMutability": "view",
      "type": "function"
    },
    {
      "inputs": [
        {
          "internalType": "uint256",
          "name": "tokenId",
          "type": "uint256"
        }
      ],
      "name": "getApproved",
      "outputs": [
        {
          "internalType": "address",
          "name": "",
          "type": "address"
        }
      ],
      "stateMutability": "view",
      "type": "function"
    },
    {
      "inputs": [
        {
          "internalType": "address",
          "name": "owner",
          "type": "address"
        },
        {
          "internalType": "address",
          "name": "operator",
          "type": "address"
        }
      ],
      "name": "isApprovedForAll",
      "outputs": [
        {
          "internalType": "bool",
          "name": "",
          "type": "bool"
        }
      ],
      "stateMutability": "view",
      "type": "function"
    },
    {
      "inputs": [],
      "name": "isMintOpen",
      "outputs": [
        {
          "internalType": "bool",
          "name": "",
          "type": "bool"
        }
      ],
      "stateMutability": "view",
      "type": "function"
    },
    {
      "inputs": [],
      "name": "isSaleOpen",
      "outputs": [
        {
          "internalType": "bool",
          "name": "",
          "type": "bool"
        }
      ],
      "stateMutability": "view",
      "type": "function"
    },
    {
      "inputs": [
        {
          "internalType": "uint256",
          "name": "amount",
          "type": "uint256"
        }
      ],
      "name": "mint",
      "outputs": [],
      "stateMutability": "payable",
      "type": "function"
    },
    {
      "inputs": [],
      "name": "mintEndTimestamp",
      "outputs": [
        {
          "internalType": "uint256",
          "name": "",
          "type": "uint256"
        }
      ],
      "stateMutability": "view",
      "type": "function"
    },
    {
      "inputs": [
        {
          "internalType": "address",
          "name": "account",
          "type": "address"
        }
      ],
      "name": "mintPrice",
      "outputs": [
        {
          "internalType": "uint256",
          "name": "",
          "type": "uint256"
        }
      ],
      "stateMutability": "view",
      "type": "function"
    },
    {
      "inputs": [],
      "name": "mintStartTimestamp",
      "outputs": [
        {
          "internalType": "uint256",
          "name": "",
          "type": "uint256"
        }
      ],
      "stateMutability": "view",
      "type": "function"
    },
    {
      "inputs": [
        {
          "internalType": "uint256",
          "name": "amount",
          "type": "uint256"
        }
      ],
      "name": "mintTeam",
      "outputs": [],
      "stateMutability": "nonpayable",
      "type": "function"
    },
    {
      "inputs": [
        {
          "internalType": "address",
          "name": "",
          "type": "address"
        }
      ],
      "name": "mintedAmount",
      "outputs": [
        {
          "internalType": "uint256",
          "name": "",
          "type": "uint256"
        }
      ],
      "stateMutability": "view",
      "type": "function"
    },
    {
      "inputs": [],
      "name": "name",
      "outputs": [
        {
          "internalType": "string",
          "name": "",
          "type": "string"
        }
      ],
      "stateMutability": "view",
      "type": "function"
    },
    {
      "inputs": [],
      "name": "nodePool",
      "outputs": [
        {
          "internalType": "address",
          "name": "",
          "type": "address"
        }
      ],
      "stateMutability": "view",
      "type": "function"
    },
    {
      "inputs": [],
      "name": "owner",
      "outputs": [
        {
          "internalType": "address",
          "name": "",
          "type": "address"
        }
      ],
      "stateMutability": "view",
      "type": "function"
    },
    {
      "inputs": [
        {
          "internalType": "uint256",
          "name": "tokenId",
          "type": "uint256"
        }
      ],
      "name": "ownerOf",
      "outputs": [
        {
          "internalType": "address",
          "name": "",
          "type": "address"
        }
      ],
      "stateMutability": "view",
      "type": "function"
    },
    {
      "inputs": [],
      "name": "publicMintPrice",
      "outputs": [
        {
          "internalType": "uint256",
          "name": "",
          "type": "uint256"
        }
      ],
      "stateMutability": "view",
      "type": "function"
    },
    {
      "inputs": [],
      "name": "renounceOwnership",
      "outputs": [],
      "stateMutability": "nonpayable",
      "type": "function"
    },
    {
      "inputs": [
        {
          "internalType": "address",
          "name": "from",
          "type": "address"
        },
        {
          "internalType": "address",
          "name": "to",
          "type": "address"
        },
        {
          "internalType": "uint256",
          "name": "tokenId",
          "type": "uint256"
        }
      ],
      "name": "safeTransferFrom",
      "outputs": [],
      "stateMutability": "nonpayable",
      "type": "function"
    },
    {
      "inputs": [
        {
          "internalType": "address",
          "name": "from",
          "type": "address"
        },
        {
          "internalType": "address",
          "name": "to",
          "type": "address"
        },
        {
          "internalType": "uint256",
          "name": "tokenId",
          "type": "uint256"
        },
        {
          "internalType": "bytes",
          "name": "_data",
          "type": "bytes"
        }
      ],
      "name": "safeTransferFrom",
      "outputs": [],
      "stateMutability": "nonpayable",
      "type": "function"
    },
    {
      "inputs": [
        {
          "internalType": "uint256",
          "name": "amount",
          "type": "uint256"
        }
      ],
      "name": "sale",
      "outputs": [],
      "stateMutability": "payable",
      "type": "function"
    },
    {
      "inputs": [],
      "name": "saleMintPrice",
      "outputs": [
        {
          "internalType": "uint256",
          "name": "",
          "type": "uint256"
        }
      ],
      "stateMutability": "view",
      "type": "function"
    },
    {
      "inputs": [
        {
          "internalType": "address",
          "name": "operator",
          "type": "address"
        },
        {
          "internalType": "bool",
          "name": "approved",
          "type": "bool"
        }
      ],
      "name": "setApprovalForAll",
      "outputs": [],
      "stateMutability": "nonpayable",
      "type": "function"
    },
    {
      "inputs": [
        {
          "internalType": "string",
          "name": "uri",
          "type": "string"
        }
      ],
      "name": "setBaseURI",
      "outputs": [],
      "stateMutability": "nonpayable",
      "type": "function"
    },
    {
      "inputs": [
        {
          "internalType": "uint256",
          "name": "_whitelist",
          "type": "uint256"
        },
        {
          "internalType": "uint256",
          "name": "_public",
          "type": "uint256"
        },
        {
          "internalType": "uint256",
          "name": "_sale",
          "type": "uint256"
        }
      ],
      "name": "setMintPrice",
      "outputs": [],
      "stateMutability": "nonpayable",
      "type": "function"
    },
    {
      "inputs": [
        {
          "internalType": "address",
          "name": "poolAddress",
          "type": "address"
        }
      ],
      "name": "setNodePool",
      "outputs": [],
      "stateMutability": "nonpayable",
      "type": "function"
    },
    {
      "inputs": [
        {
          "internalType": "bool",
          "name": "_open",
          "type": "bool"
        }
      ],
      "name": "setReserved",
      "outputs": [],
      "stateMutability": "nonpayable",
      "type": "function"
    },
    {
      "inputs": [
        {
          "internalType": "bool",
          "name": "_open",
          "type": "bool"
        }
      ],
      "name": "setSaleOpen",
      "outputs": [],
      "stateMutability": "nonpayable",
      "type": "function"
    },
    {
      "inputs": [
        {
          "internalType": "uint256",
          "name": "_mintStartTimestamp",
          "type": "uint256"
        },
        {
          "internalType": "uint256",
          "name": "_mintEndTimestamp",
          "type": "uint256"
        }
      ],
      "name": "setTimestamps",
      "outputs": [],
      "stateMutability": "nonpayable",
      "type": "function"
    },
    {
      "inputs": [
        {
          "internalType": "bytes4",
          "name": "interfaceId",
          "type": "bytes4"
        }
      ],
      "name": "supportsInterface",
      "outputs": [
        {
          "internalType": "bool",
          "name": "",
          "type": "bool"
        }
      ],
      "stateMutability": "view",
      "type": "function"
    },
    {
      "inputs": [],
      "name": "symbol",
      "outputs": [
        {
          "internalType": "string",
          "name": "",
          "type": "string"
        }
      ],
      "stateMutability": "view",
      "type": "function"
    },
    {
      "inputs": [
        {
          "internalType": "uint256",
          "name": "index",
          "type": "uint256"
        }
      ],
      "name": "tokenByIndex",
      "outputs": [
        {
          "internalType": "uint256",
          "name": "",
          "type": "uint256"
        }
      ],
      "stateMutability": "view",
      "type": "function"
    },
    {
      "inputs": [
        {
          "internalType": "address",
          "name": "owner",
          "type": "address"
        },
        {
          "internalType": "uint256",
          "name": "index",
          "type": "uint256"
        }
      ],
      "name": "tokenOfOwnerByIndex",
      "outputs": [
        {
          "internalType": "uint256",
          "name": "",
          "type": "uint256"
        }
      ],
      "stateMutability": "view",
      "type": "function"
    },
    {
      "inputs": [
        {
          "internalType": "uint256",
          "name": "tokenId",
          "type": "uint256"
        }
      ],
      "name": "tokenURI",
      "outputs": [
        {
          "internalType": "string",
          "name": "",
          "type": "string"
        }
      ],
      "stateMutability": "view",
      "type": "function"
    },
    {
      "inputs": [],
      "name": "totalSupply",
      "outputs": [
        {
          "internalType": "uint256",
          "name": "",
          "type": "uint256"
        }
      ],
      "stateMutability": "view",
      "type": "function"
    },
    {
      "inputs": [
        {
          "internalType": "address",
          "name": "from",
          "type": "address"
        },
        {
          "internalType": "address",
          "name": "to",
          "type": "address"
        },
        {
          "internalType": "uint256",
          "name": "tokenId",
          "type": "uint256"
        }
      ],
      "name": "transferFrom",
      "outputs": [],
      "stateMutability": "nonpayable",
      "type": "function"
    },
    {
      "inputs": [
        {
          "internalType": "address",
          "name": "newOwner",
          "type": "address"
        }
      ],
      "name": "transferOwnership",
      "outputs": [],
      "stateMutability": "nonpayable",
      "type": "function"
    },
    {
      "inputs": [],
      "name": "whitelistMintPrice",
      "outputs": [
        {
          "internalType": "uint256",
          "name": "",
          "type": "uint256"
        }
      ],
      "stateMutability": "view",
      "type": "function"
    },
    {
      "inputs": [],
      "name": "withdrawETH",
      "outputs": [],
      "stateMutability": "nonpayable",
      "type": "function"
    }
  ],
  "bytecode": "0x60806040526608e1bc9bf04000600c55660c6f3b40b6c000600d55660e35fa931a0000600e556000601160006101000a81548160ff0219169083151502179055506000601160016101000a81548160ff0219169083151502179055506000601255601d6013553480156200007257600080fd5b5060405162004f2138038062004f21833981810160405281019062000098919062000388565b6040518060400160405280601381526020017f4865726f20496e66696e697479204361726473000000000000000000000000008152506040518060400160405280600481526020017f485249430000000000000000000000000000000000000000000000000000000081525081600090805190602001906200011c9291906200026e565b508060019080519060200190620001359291906200026e565b505050620001586200014c620001a060201b60201c565b620001a860201b60201c565b80600b60006101000a81548173ffffffffffffffffffffffffffffffffffffffff021916908373ffffffffffffffffffffffffffffffffffffffff160217905550506200041f565b600033905090565b6000600a60009054906101000a900473ffffffffffffffffffffffffffffffffffffffff16905081600a60006101000a81548173ffffffffffffffffffffffffffffffffffffffff021916908373ffffffffffffffffffffffffffffffffffffffff1602179055508173ffffffffffffffffffffffffffffffffffffffff168173ffffffffffffffffffffffffffffffffffffffff167f8be0079c531659141344cd1fd0a4f28419497f9722a3daafe3b4186f6b6457e060405160405180910390a35050565b8280546200027c90620003e9565b90600052602060002090601f016020900481019282620002a05760008555620002ec565b82601f10620002bb57805160ff1916838001178555620002ec565b82800160010185558215620002ec579182015b82811115620002eb578251825591602001919060010190620002ce565b5b509050620002fb9190620002ff565b5090565b5b808211156200031a57600081600090555060010162000300565b5090565b600080fd5b600073ffffffffffffffffffffffffffffffffffffffff82169050919050565b6000620003508262000323565b9050919050565b620003628162000343565b81146200036e57600080fd5b50565b600081519050620003828162000357565b92915050565b600060208284031215620003a157620003a06200031e565b5b6000620003b18482850162000371565b91505092915050565b7f4e487b7100000000000000000000000000000000000000000000000000000000600052602260045260246000fd5b600060028204905060018216806200040257607f821691505b60208210811415620004195762000418620003ba565b5b50919050565b614af2806200042f6000396000f3fe6080604052600436106102515760003560e01c8063715018a611610139578063af979f25116100b6578063dc53fd921161007a578063dc53fd92146108aa578063e086e5ec146108d5578063e985e9c5146108ec578063f2fde38b14610929578063fa10197714610952578063fbbf8cc31461097b57610251565b8063af979f25146107c5578063b88d4fde146107ee578063c87b56dd14610817578063cc6ac2f514610854578063d8f1f8f41461087f57610251565b80639be9c50d116100fd5780639be9c50d146106ff5780639c14a8841461072a578063a0712d6814610755578063a0e389de14610771578063a22cb4651461079c57610251565b8063715018a61461064b5780637307b3d9146106625780638da5cb5b1461068d57806395d89b41146106b857806396032702146106e357610251565b806326cea918116101d257806335c6aaf81161019657806335c6aaf81461051757806342842e0e146105425780634f6ccce71461056b57806355f804b3146105a85780636352211e146105d157806370a082311461060e57610251565b806326cea918146104365780632eb7c7e31461045f5780632f745c5914610488578063319948ba146104c5578063342f48aa146104ee57610251565b806318160ddd1161021957806318160ddd1461034f578063199080161461037a5780631a081330146103a55780632142aa2c146103d057806323b872dd1461040d57610251565b806301ffc9a71461025657806306fdde0314610293578063081812fc146102be578063095ea7b3146102fb5780630f2cdd6c14610324575b600080fd5b34801561026257600080fd5b5061027d600480360381019061027891906131d0565b6109b8565b60405161028a9190613218565b60405180910390f35b34801561029f57600080fd5b506102a8610a32565b6040516102b591906132cc565b60405180910390f35b3480156102ca57600080fd5b506102e560048036038101906102e09190613324565b610ac4565b6040516102f29190613392565b60405180910390f35b34801561030757600080fd5b50610322600480360381019061031d91906133d9565b610b49565b005b34801561033057600080fd5b50610339610c61565b6040516103469190613428565b60405180910390f35b34801561035b57600080fd5b50610364610c66565b6040516103719190613428565b60405180910390f35b34801561038657600080fd5b5061038f610c73565b60405161039c9190613218565b60405180910390f35b3480156103b157600080fd5b506103ba610cab565b6040516103c79190613218565b60405180910390f35b3480156103dc57600080fd5b506103f760048036038101906103f29190613443565b610cc2565b6040516104049190613428565b60405180910390f35b34801561041957600080fd5b50610434600480360381019061042f9190613470565b610d92565b005b34801561044257600080fd5b5061045d60048036038101906104589190613443565b610df2565b005b34801561046b57600080fd5b50610486600480360381019061048191906134ef565b610eb2565b005b34801561049457600080fd5b506104af60048036038101906104aa91906133d9565b610f4b565b6040516104bc9190613428565b60405180910390f35b3480156104d157600080fd5b506104ec60048036038101906104e7919061351c565b610ff0565b005b3480156104fa57600080fd5b5061051560048036038101906105109190613324565b611086565b005b34801561052357600080fd5b5061052c6111ed565b6040516105399190613428565b60405180910390f35b34801561054e57600080fd5b5061056960048036038101906105649190613470565b6111f3565b005b34801561057757600080fd5b50610592600480360381019061058d9190613324565b611213565b60405161059f9190613428565b60405180910390f35b3480156105b457600080fd5b506105cf60048036038101906105ca91906136a4565b611284565b005b3480156105dd57600080fd5b506105f860048036038101906105f39190613324565b61131a565b6040516106059190613392565b60405180910390f35b34801561061a57600080fd5b5061063560048036038101906106309190613443565b6113cc565b6040516106429190613428565b60405180910390f35b34801561065757600080fd5b50610660611484565b005b34801561066e57600080fd5b5061067761150c565b6040516106849190613428565b60405180910390f35b34801561069957600080fd5b506106a2611512565b6040516106af9190613392565b60405180910390f35b3480156106c457600080fd5b506106cd61153c565b6040516106da91906132cc565b60405180910390f35b6106fd60048036038101906106f89190613324565b6115ce565b005b34801561070b57600080fd5b506107146116b9565b6040516107219190613428565b60405180910390f35b34801561073657600080fd5b5061073f6116bf565b60405161074c9190613428565b60405180910390f35b61076f600480360381019061076a9190613324565b6116c4565b005b34801561077d57600080fd5b50610786611718565b6040516107939190613428565b60405180910390f35b3480156107a857600080fd5b506107c360048036038101906107be91906136ed565b61171e565b005b3480156107d157600080fd5b506107ec60048036038101906107e791906134ef565b611734565b005b3480156107fa57600080fd5b50610815600480360381019061081091906137ce565b6117cd565b005b34801561082357600080fd5b5061083e60048036038101906108399190613324565b61182f565b60405161084b91906132cc565b60405180910390f35b34801561086057600080fd5b506108696118eb565b6040516108769190613428565b60405180910390f35b34801561088b57600080fd5b506108946118f1565b6040516108a19190613392565b60405180910390f35b3480156108b657600080fd5b506108bf611917565b6040516108cc9190613428565b60405180910390f35b3480156108e157600080fd5b506108ea61191d565b005b3480156108f857600080fd5b50610913600480360381019061090e9190613851565b6119e2565b6040516109209190613218565b60405180910390f35b34801561093557600080fd5b50610950600480360381019061094b9190613443565b611a76565b005b34801561095e57600080fd5b5061097960048036038101906109749190613891565b611b6e565b005b34801561098757600080fd5b506109a2600480360381019061099d9190613443565b611c49565b6040516109af9190613428565b60405180910390f35b60007f780e9d63000000000000000000000000000000000000000000000000000000007bffffffffffffffffffffffffffffffffffffffffffffffffffffffff1916827bffffffffffffffffffffffffffffffffffffffffffffffffffffffff19161480610a2b5750610a2a82611c61565b5b9050919050565b606060008054610a4190613900565b80601f0160208091040260200160405190810160405280929190818152602001828054610a6d90613900565b8015610aba5780601f10610a8f57610100808354040283529160200191610aba565b820191906000526020600020905b815481529060010190602001808311610a9d57829003601f168201915b5050505050905090565b6000610acf82611d43565b610b0e576040517f08c379a0000000000000000000000000000000000000000000000000000000008152600401610b05906139a4565b60405180910390fd5b6004600083815260200190815260200160002060009054906101000a900473ffffffffffffffffffffffffffffffffffffffff169050919050565b6000610b548261131a565b90508073ffffffffffffffffffffffffffffffffffffffff168373ffffffffffffffffffffffffffffffffffffffff161415610bc5576040517f08c379a0000000000000000000000000000000000000000000000000000000008152600401610bbc90613a36565b60405180910390fd5b8073ffffffffffffffffffffffffffffffffffffffff16610be4611daf565b73ffffffffffffffffffffffffffffffffffffffff161480610c135750610c1281610c0d611daf565b6119e2565b5b610c52576040517f08c379a0000000000000000000000000000000000000000000000000000000008152600401610c4990613ac8565b60405180910390fd5b610c5c8383611db7565b505050565b600581565b6000600880549050905090565b600080600f54118015610c885750600f544210155b8015610c9657506010544211155b8015610ca6575061043660135411155b905090565b6000601160009054906101000a900460ff16905090565b600080600d5490506000600b60009054906101000a900473ffffffffffffffffffffffffffffffffffffffff1673ffffffffffffffffffffffffffffffffffffffff1663f74c9934856040518263ffffffff1660e01b8152600401610d279190613392565b60206040518083038186803b158015610d3f57600080fd5b505afa158015610d53573d6000803e3d6000fd5b505050506040513d601f19601f82011682018060405250810190610d779190613afd565b90506004811115610d8857600c5491505b8192505050919050565b610da3610d9d611daf565b82611e70565b610de2576040517f08c379a0000000000000000000000000000000000000000000000000000000008152600401610dd990613b9c565b60405180910390fd5b610ded838383611f4e565b505050565b610dfa611daf565b73ffffffffffffffffffffffffffffffffffffffff16610e18611512565b73ffffffffffffffffffffffffffffffffffffffff1614610e6e576040517f08c379a0000000000000000000000000000000000000000000000000000000008152600401610e6590613c08565b60405180910390fd5b80600b60006101000a81548173ffffffffffffffffffffffffffffffffffffffff021916908373ffffffffffffffffffffffffffffffffffffffff16021790555050565b610eba611daf565b73ffffffffffffffffffffffffffffffffffffffff16610ed8611512565b73ffffffffffffffffffffffffffffffffffffffff1614610f2e576040517f08c379a0000000000000000000000000000000000000000000000000000000008152600401610f2590613c08565b60405180910390fd5b80601160016101000a81548160ff02191690831515021790555050565b6000610f56836113cc565b8210610f97576040517f08c379a0000000000000000000000000000000000000000000000000000000008152600401610f8e90613c9a565b60405180910390fd5b600660008473ffffffffffffffffffffffffffffffffffffffff1673ffffffffffffffffffffffffffffffffffffffff168152602001908152602001600020600083815260200190815260200160002054905092915050565b610ff8611daf565b73ffffffffffffffffffffffffffffffffffffffff16611016611512565b73ffffffffffffffffffffffffffffffffffffffff161461106c576040517f08c379a000000000000000000000000000000000000000000000000000000000815260040161106390613c08565b60405180910390fd5b82600c8190555081600d8190555080600e81905550505050565b61108e611daf565b73ffffffffffffffffffffffffffffffffffffffff166110ac611512565b73ffffffffffffffffffffffffffffffffffffffff1614611102576040517f08c379a00000000000000000000000000000000000000000000000000000000081526004016110f990613c08565b60405180910390fd5b6000811415611146576040517f08c379a000000000000000000000000000000000000000000000000000000000815260040161113d90613d06565b60405180910390fd5b600060125490506000828261115b9190613d55565b9050601c60018261116c9190613dab565b11156111ad576040517f08c379a00000000000000000000000000000000000000000000000000000000081526004016111a490613e2b565b60405180910390fd5b8060128190555060005b838110156111e7576111d43382856111cf9190613d55565b6121aa565b80806111df90613e4b565b9150506111b7565b50505050565b600c5481565b61120e838383604051806020016040528060008152506117cd565b505050565b600061121d610c66565b821061125e576040517f08c379a000000000000000000000000000000000000000000000000000000000815260040161125590613f06565b60405180910390fd5b6008828154811061127257611271613f26565b5b90600052602060002001549050919050565b61128c611daf565b73ffffffffffffffffffffffffffffffffffffffff166112aa611512565b73ffffffffffffffffffffffffffffffffffffffff1614611300576040517f08c379a00000000000000000000000000000000000000000000000000000000081526004016112f790613c08565b60405180910390fd5b80601490805190602001906113169291906130c1565b5050565b6000806002600084815260200190815260200160002060009054906101000a900473ffffffffffffffffffffffffffffffffffffffff169050600073ffffffffffffffffffffffffffffffffffffffff168173ffffffffffffffffffffffffffffffffffffffff1614156113c3576040517f08c379a00000000000000000000000000000000000000000000000000000000081526004016113ba90613fc7565b60405180910390fd5b80915050919050565b60008073ffffffffffffffffffffffffffffffffffffffff168273ffffffffffffffffffffffffffffffffffffffff16141561143d576040517f08c379a000000000000000000000000000000000000000000000000000000000815260040161143490614059565b60405180910390fd5b600360008373ffffffffffffffffffffffffffffffffffffffff1673ffffffffffffffffffffffffffffffffffffffff168152602001908152602001600020549050919050565b61148c611daf565b73ffffffffffffffffffffffffffffffffffffffff166114aa611512565b73ffffffffffffffffffffffffffffffffffffffff1614611500576040517f08c379a00000000000000000000000000000000000000000000000000000000081526004016114f790613c08565b60405180910390fd5b61150a6000612378565b565b61043681565b6000600a60009054906101000a900473ffffffffffffffffffffffffffffffffffffffff16905090565b60606001805461154b90613900565b80601f016020809104026020016040519081016040528092919081815260200182805461157790613900565b80156115c45780601f10611599576101008083540402835291602001916115c4565b820191906000526020600020905b8154815290600101906020018083116115a757829003601f168201915b5050505050905090565b601160009054906101000a900460ff1661161d576040517f08c379a0000000000000000000000000000000000000000000000000000000008152600401611614906140c5565b60405180910390fd5b34600e548261162c91906140e5565b1461166c576040517f08c379a00000000000000000000000000000000000000000000000000000000081526004016116639061418b565b60405180910390fd5b60005b818110156116a15761168e33826013546116899190613d55565b61243e565b808061169990613e4b565b91505061166f565b50806013546116b09190613d55565b60138190555050565b600e5481565b601c81565b6116cc610c73565b61170b576040517f08c379a0000000000000000000000000000000000000000000000000000000008152600401611702906141f7565b60405180910390fd5b611715338261245c565b50565b600f5481565b611730611729611daf565b8383612677565b5050565b61173c611daf565b73ffffffffffffffffffffffffffffffffffffffff1661175a611512565b73ffffffffffffffffffffffffffffffffffffffff16146117b0576040517f08c379a00000000000000000000000000000000000000000000000000000000081526004016117a790613c08565b60405180910390fd5b80601160006101000a81548160ff02191690831515021790555050565b6117de6117d8611daf565b83611e70565b61181d576040517f08c379a000000000000000000000000000000000000000000000000000000000815260040161181490613b9c565b60405180910390fd5b611829848484846127e4565b50505050565b606061183a82611d43565b611879576040517f08c379a000000000000000000000000000000000000000000000000000000000815260040161187090614289565b60405180910390fd5b6000611883612840565b9050601160019054906101000a900460ff16156118c957806118a4846128d2565b6040516020016118b5929190614331565b6040516020818303038152906040526118e3565b604051806080016040528060578152602001614a66605791395b915050919050565b60105481565b600b60009054906101000a900473ffffffffffffffffffffffffffffffffffffffff1681565b600d5481565b611925611daf565b73ffffffffffffffffffffffffffffffffffffffff16611943611512565b73ffffffffffffffffffffffffffffffffffffffff1614611999576040517f08c379a000000000000000000000000000000000000000000000000000000000815260040161199090613c08565b60405180910390fd5b3373ffffffffffffffffffffffffffffffffffffffff166108fc479081150290604051600060405180830381858888f193505050501580156119df573d6000803e3d6000fd5b50565b6000600560008473ffffffffffffffffffffffffffffffffffffffff1673ffffffffffffffffffffffffffffffffffffffff16815260200190815260200160002060008373ffffffffffffffffffffffffffffffffffffffff1673ffffffffffffffffffffffffffffffffffffffff16815260200190815260200160002060009054906101000a900460ff16905092915050565b611a7e611daf565b73ffffffffffffffffffffffffffffffffffffffff16611a9c611512565b73ffffffffffffffffffffffffffffffffffffffff1614611af2576040517f08c379a0000000000000000000000000000000000000000000000000000000008152600401611ae990613c08565b60405180910390fd5b600073ffffffffffffffffffffffffffffffffffffffff168173ffffffffffffffffffffffffffffffffffffffff161415611b62576040517f08c379a0000000000000000000000000000000000000000000000000000000008152600401611b59906143d2565b60405180910390fd5b611b6b81612378565b50565b611b76611daf565b73ffffffffffffffffffffffffffffffffffffffff16611b94611512565b73ffffffffffffffffffffffffffffffffffffffff1614611bea576040517f08c379a0000000000000000000000000000000000000000000000000000000008152600401611be190613c08565b60405180910390fd5b8181118015611bf857504282115b611c37576040517f08c379a0000000000000000000000000000000000000000000000000000000008152600401611c2e9061443e565b60405180910390fd5b81600f81905550806010819055505050565b60156020528060005260406000206000915090505481565b60007f80ac58cd000000000000000000000000000000000000000000000000000000007bffffffffffffffffffffffffffffffffffffffffffffffffffffffff1916827bffffffffffffffffffffffffffffffffffffffffffffffffffffffff19161480611d2c57507f5b5e139f000000000000000000000000000000000000000000000000000000007bffffffffffffffffffffffffffffffffffffffffffffffffffffffff1916827bffffffffffffffffffffffffffffffffffffffffffffffffffffffff1916145b80611d3c5750611d3b82612a33565b5b9050919050565b60008073ffffffffffffffffffffffffffffffffffffffff166002600084815260200190815260200160002060009054906101000a900473ffffffffffffffffffffffffffffffffffffffff1673ffffffffffffffffffffffffffffffffffffffff1614159050919050565b600033905090565b816004600083815260200190815260200160002060006101000a81548173ffffffffffffffffffffffffffffffffffffffff021916908373ffffffffffffffffffffffffffffffffffffffff160217905550808273ffffffffffffffffffffffffffffffffffffffff16611e2a8361131a565b73ffffffffffffffffffffffffffffffffffffffff167f8c5be1e5ebec7d5bd14f71427d1e84f3dd0314c0f7b2291e5b200ac8c7c3b92560405160405180910390a45050565b6000611e7b82611d43565b611eba576040517f08c379a0000000000000000000000000000000000000000000000000000000008152600401611eb1906144d0565b60405180910390fd5b6000611ec58361131a565b90508073ffffffffffffffffffffffffffffffffffffffff168473ffffffffffffffffffffffffffffffffffffffff161480611f3457508373ffffffffffffffffffffffffffffffffffffffff16611f1c84610ac4565b73ffffffffffffffffffffffffffffffffffffffff16145b80611f455750611f4481856119e2565b5b91505092915050565b8273ffffffffffffffffffffffffffffffffffffffff16611f6e8261131a565b73ffffffffffffffffffffffffffffffffffffffff1614611fc4576040517f08c379a0000000000000000000000000000000000000000000000000000000008152600401611fbb90614562565b60405180910390fd5b600073ffffffffffffffffffffffffffffffffffffffff168273ffffffffffffffffffffffffffffffffffffffff161415612034576040517f08c379a000000000000000000000000000000000000000000000000000000000815260040161202b906145f4565b60405180910390fd5b61203f838383612a9d565b61204a600082611db7565b6001600360008573ffffffffffffffffffffffffffffffffffffffff1673ffffffffffffffffffffffffffffffffffffffff168152602001908152602001600020600082825461209a9190613dab565b925050819055506001600360008473ffffffffffffffffffffffffffffffffffffffff1673ffffffffffffffffffffffffffffffffffffffff16815260200190815260200160002060008282546120f19190613d55565b92505081905550816002600083815260200190815260200160002060006101000a81548173ffffffffffffffffffffffffffffffffffffffff021916908373ffffffffffffffffffffffffffffffffffffffff160217905550808273ffffffffffffffffffffffffffffffffffffffff168473ffffffffffffffffffffffffffffffffffffffff167fddf252ad1be2c89b69c2b068fc378daa952ba7f163c4a11628f55a4df523b3ef60405160405180910390a4505050565b600073ffffffffffffffffffffffffffffffffffffffff168273ffffffffffffffffffffffffffffffffffffffff16141561221a576040517f08c379a000000000000000000000000000000000000000000000000000000000815260040161221190614660565b60405180910390fd5b61222381611d43565b15612263576040517f08c379a000000000000000000000000000000000000000000000000000000000815260040161225a906146cc565b60405180910390fd5b61226f60008383612a9d565b6001600360008473ffffffffffffffffffffffffffffffffffffffff1673ffffffffffffffffffffffffffffffffffffffff16815260200190815260200160002060008282546122bf9190613d55565b92505081905550816002600083815260200190815260200160002060006101000a81548173ffffffffffffffffffffffffffffffffffffffff021916908373ffffffffffffffffffffffffffffffffffffffff160217905550808273ffffffffffffffffffffffffffffffffffffffff16600073ffffffffffffffffffffffffffffffffffffffff167fddf252ad1be2c89b69c2b068fc378daa952ba7f163c4a11628f55a4df523b3ef60405160405180910390a45050565b6000600a60009054906101000a900473ffffffffffffffffffffffffffffffffffffffff16905081600a60006101000a81548173ffffffffffffffffffffffffffffffffffffffff021916908373ffffffffffffffffffffffffffffffffffffffff1602179055508173ffffffffffffffffffffffffffffffffffffffff168173ffffffffffffffffffffffffffffffffffffffff167f8be0079c531659141344cd1fd0a4f28419497f9722a3daafe3b4186f6b6457e060405160405180910390a35050565b612458828260405180602001604052806000815250612bb1565b5050565b60008114156124a0576040517f08c379a000000000000000000000000000000000000000000000000000000000815260040161249790613d06565b60405180910390fd5b600081601560008573ffffffffffffffffffffffffffffffffffffffff1673ffffffffffffffffffffffffffffffffffffffff168152602001908152602001600020546124ed9190613d55565b90506005811115612533576040517f08c379a000000000000000000000000000000000000000000000000000000000815260040161252a90614738565b60405180910390fd5b60006013549050600083826125489190613d55565b905061043660018261255a9190613dab565b111561259b576040517f08c379a0000000000000000000000000000000000000000000000000000000008152600401612592906147a4565b60405180910390fd5b346125a586610cc2565b856125b091906140e5565b11156125f1576040517f08c379a00000000000000000000000000000000000000000000000000000000081526004016125e89061418b565b60405180910390fd5b8060138190555082601560008773ffffffffffffffffffffffffffffffffffffffff1673ffffffffffffffffffffffffffffffffffffffff1681526020019081526020016000208190555060005b8481101561266f5761265c8682856126579190613d55565b61243e565b808061266790613e4b565b91505061263f565b505050505050565b8173ffffffffffffffffffffffffffffffffffffffff168373ffffffffffffffffffffffffffffffffffffffff1614156126e6576040517f08c379a00000000000000000000000000000000000000000000000000000000081526004016126dd90614810565b60405180910390fd5b80600560008573ffffffffffffffffffffffffffffffffffffffff1673ffffffffffffffffffffffffffffffffffffffff16815260200190815260200160002060008473ffffffffffffffffffffffffffffffffffffffff1673ffffffffffffffffffffffffffffffffffffffff16815260200190815260200160002060006101000a81548160ff0219169083151502179055508173ffffffffffffffffffffffffffffffffffffffff168373ffffffffffffffffffffffffffffffffffffffff167f17307eab39ab6107e8899845ad3d59bd9653f200f220920489ca2b5937696c31836040516127d79190613218565b60405180910390a3505050565b6127ef848484611f4e565b6127fb84848484612c0c565b61283a576040517f08c379a0000000000000000000000000000000000000000000000000000000008152600401612831906148a2565b60405180910390fd5b50505050565b60606014805461284f90613900565b80601f016020809104026020016040519081016040528092919081815260200182805461287b90613900565b80156128c85780601f1061289d576101008083540402835291602001916128c8565b820191906000526020600020905b8154815290600101906020018083116128ab57829003601f168201915b5050505050905090565b6060600082141561291a576040518060400160405280600181526020017f30000000000000000000000000000000000000000000000000000000000000008152509050612a2e565b600082905060005b6000821461294c57808061293590613e4b565b915050600a8261294591906148f1565b9150612922565b60008167ffffffffffffffff81111561296857612967613579565b5b6040519080825280601f01601f19166020018201604052801561299a5781602001600182028036833780820191505090505b5090505b60008514612a27576001826129b39190613dab565b9150600a856129c29190614922565b60306129ce9190613d55565b60f81b8183815181106129e4576129e3613f26565b5b60200101907effffffffffffffffffffffffffffffffffffffffffffffffffffffffffffff1916908160001a905350600a85612a2091906148f1565b945061299e565b8093505050505b919050565b60007f01ffc9a7000000000000000000000000000000000000000000000000000000007bffffffffffffffffffffffffffffffffffffffffffffffffffffffff1916827bffffffffffffffffffffffffffffffffffffffffffffffffffffffff1916149050919050565b612aa8838383612da3565b600073ffffffffffffffffffffffffffffffffffffffff168373ffffffffffffffffffffffffffffffffffffffff161415612aeb57612ae681612da8565b612b2a565b8173ffffffffffffffffffffffffffffffffffffffff168373ffffffffffffffffffffffffffffffffffffffff1614612b2957612b288382612df1565b5b5b600073ffffffffffffffffffffffffffffffffffffffff168273ffffffffffffffffffffffffffffffffffffffff161415612b6d57612b6881612f5e565b612bac565b8273ffffffffffffffffffffffffffffffffffffffff168273ffffffffffffffffffffffffffffffffffffffff1614612bab57612baa828261302f565b5b5b505050565b612bbb83836121aa565b612bc86000848484612c0c565b612c07576040517f08c379a0000000000000000000000000000000000000000000000000000000008152600401612bfe906148a2565b60405180910390fd5b505050565b6000612c2d8473ffffffffffffffffffffffffffffffffffffffff166130ae565b15612d96578373ffffffffffffffffffffffffffffffffffffffff1663150b7a02612c56611daf565b8786866040518563ffffffff1660e01b8152600401612c7894939291906149a8565b602060405180830381600087803b158015612c9257600080fd5b505af1925050508015612cc357506040513d601f19601f82011682018060405250810190612cc09190614a09565b60015b612d46573d8060008114612cf3576040519150601f19603f3d011682016040523d82523d6000602084013e612cf8565b606091505b50600081511415612d3e576040517f08c379a0000000000000000000000000000000000000000000000000000000008152600401612d35906148a2565b60405180910390fd5b805181602001fd5b63150b7a0260e01b7bffffffffffffffffffffffffffffffffffffffffffffffffffffffff1916817bffffffffffffffffffffffffffffffffffffffffffffffffffffffff191614915050612d9b565b600190505b949350505050565b505050565b6008805490506009600083815260200190815260200160002081905550600881908060018154018082558091505060019003906000526020600020016000909190919091505550565b60006001612dfe846113cc565b612e089190613dab565b9050600060076000848152602001908152602001600020549050818114612eed576000600660008673ffffffffffffffffffffffffffffffffffffffff1673ffffffffffffffffffffffffffffffffffffffff168152602001908152602001600020600084815260200190815260200160002054905080600660008773ffffffffffffffffffffffffffffffffffffffff1673ffffffffffffffffffffffffffffffffffffffff168152602001908152602001600020600084815260200190815260200160002081905550816007600083815260200190815260200160002081905550505b6007600084815260200190815260200160002060009055600660008573ffffffffffffffffffffffffffffffffffffffff1673ffffffffffffffffffffffffffffffffffffffff16815260200190815260200160002060008381526020019081526020016000206000905550505050565b60006001600880549050612f729190613dab565b9050600060096000848152602001908152602001600020549050600060088381548110612fa257612fa1613f26565b5b906000526020600020015490508060088381548110612fc457612fc3613f26565b5b90600052602060002001819055508160096000838152602001908152602001600020819055506009600085815260200190815260200160002060009055600880548061301357613012614a36565b5b6001900381819060005260206000200160009055905550505050565b600061303a836113cc565b905081600660008573ffffffffffffffffffffffffffffffffffffffff1673ffffffffffffffffffffffffffffffffffffffff168152602001908152602001600020600083815260200190815260200160002081905550806007600084815260200190815260200160002081905550505050565b600080823b905060008111915050919050565b8280546130cd90613900565b90600052602060002090601f0160209004810192826130ef5760008555613136565b82601f1061310857805160ff1916838001178555613136565b82800160010185558215613136579182015b8281111561313557825182559160200191906001019061311a565b5b5090506131439190613147565b5090565b5b80821115613160576000816000905550600101613148565b5090565b6000604051905090565b600080fd5b600080fd5b60007fffffffff0000000000000000000000000000000000000000000000000000000082169050919050565b6131ad81613178565b81146131b857600080fd5b50565b6000813590506131ca816131a4565b92915050565b6000602082840312156131e6576131e561316e565b5b60006131f4848285016131bb565b91505092915050565b60008115159050919050565b613212816131fd565b82525050565b600060208201905061322d6000830184613209565b92915050565b600081519050919050565b600082825260208201905092915050565b60005b8381101561326d578082015181840152602081019050613252565b8381111561327c576000848401525b50505050565b6000601f19601f8301169050919050565b600061329e82613233565b6132a8818561323e565b93506132b881856020860161324f565b6132c181613282565b840191505092915050565b600060208201905081810360008301526132e68184613293565b905092915050565b6000819050919050565b613301816132ee565b811461330c57600080fd5b50565b60008135905061331e816132f8565b92915050565b60006020828403121561333a5761333961316e565b5b60006133488482850161330f565b91505092915050565b600073ffffffffffffffffffffffffffffffffffffffff82169050919050565b600061337c82613351565b9050919050565b61338c81613371565b82525050565b60006020820190506133a76000830184613383565b92915050565b6133b681613371565b81146133c157600080fd5b50565b6000813590506133d3816133ad565b92915050565b600080604083850312156133f0576133ef61316e565b5b60006133fe858286016133c4565b925050602061340f8582860161330f565b9150509250929050565b613422816132ee565b82525050565b600060208201905061343d6000830184613419565b92915050565b6000602082840312156134595761345861316e565b5b6000613467848285016133c4565b91505092915050565b6000806000606084860312156134895761348861316e565b5b6000613497868287016133c4565b93505060206134a8868287016133c4565b92505060406134b98682870161330f565b9150509250925092565b6134cc816131fd565b81146134d757600080fd5b50565b6000813590506134e9816134c3565b92915050565b6000602082840312156135055761350461316e565b5b6000613513848285016134da565b91505092915050565b6000806000606084860312156135355761353461316e565b5b60006135438682870161330f565b93505060206135548682870161330f565b92505060406135658682870161330f565b9150509250925092565b600080fd5b600080fd5b7f4e487b7100000000000000000000000000000000000000000000000000000000600052604160045260246000fd5b6135b182613282565b810181811067ffffffffffffffff821117156135d0576135cf613579565b5b80604052505050565b60006135e3613164565b90506135ef82826135a8565b919050565b600067ffffffffffffffff82111561360f5761360e613579565b5b61361882613282565b9050602081019050919050565b82818337600083830152505050565b6000613647613642846135f4565b6135d9565b90508281526020810184848401111561366357613662613574565b5b61366e848285613625565b509392505050565b600082601f83011261368b5761368a61356f565b5b813561369b848260208601613634565b91505092915050565b6000602082840312156136ba576136b961316e565b5b600082013567ffffffffffffffff8111156136d8576136d7613173565b5b6136e484828501613676565b91505092915050565b600080604083850312156137045761370361316e565b5b6000613712858286016133c4565b9250506020613723858286016134da565b9150509250929050565b600067ffffffffffffffff82111561374857613747613579565b5b61375182613282565b9050602081019050919050565b600061377161376c8461372d565b6135d9565b90508281526020810184848401111561378d5761378c613574565b5b613798848285613625565b509392505050565b600082601f8301126137b5576137b461356f565b5b81356137c584826020860161375e565b91505092915050565b600080600080608085870312156137e8576137e761316e565b5b60006137f6878288016133c4565b9450506020613807878288016133c4565b93505060406138188782880161330f565b925050606085013567ffffffffffffffff81111561383957613838613173565b5b613845878288016137a0565b91505092959194509250565b600080604083850312156138685761386761316e565b5b6000613876858286016133c4565b9250506020613887858286016133c4565b9150509250929050565b600080604083850312156138a8576138a761316e565b5b60006138b68582860161330f565b92505060206138c78582860161330f565b9150509250929050565b7f4e487b7100000000000000000000000000000000000000000000000000000000600052602260045260246000fd5b6000600282049050600182168061391857607f821691505b6020821081141561392c5761392b6138d1565b5b50919050565b7f4552433732313a20617070726f76656420717565727920666f72206e6f6e657860008201527f697374656e7420746f6b656e0000000000000000000000000000000000000000602082015250565b600061398e602c8361323e565b915061399982613932565b604082019050919050565b600060208201905081810360008301526139bd81613981565b9050919050565b7f4552433732313a20617070726f76616c20746f2063757272656e74206f776e6560008201527f7200000000000000000000000000000000000000000000000000000000000000602082015250565b6000613a2060218361323e565b9150613a2b826139c4565b604082019050919050565b60006020820190508181036000830152613a4f81613a13565b9050919050565b7f4552433732313a20617070726f76652063616c6c6572206973206e6f74206f7760008201527f6e6572206e6f7220617070726f76656420666f7220616c6c0000000000000000602082015250565b6000613ab260388361323e565b9150613abd82613a56565b604082019050919050565b60006020820190508181036000830152613ae181613aa5565b9050919050565b600081519050613af7816132f8565b92915050565b600060208284031215613b1357613b1261316e565b5b6000613b2184828501613ae8565b91505092915050565b7f4552433732313a207472616e736665722063616c6c6572206973206e6f74206f60008201527f776e6572206e6f7220617070726f766564000000000000000000000000000000602082015250565b6000613b8660318361323e565b9150613b9182613b2a565b604082019050919050565b60006020820190508181036000830152613bb581613b79565b9050919050565b7f4f776e61626c653a2063616c6c6572206973206e6f7420746865206f776e6572600082015250565b6000613bf260208361323e565b9150613bfd82613bbc565b602082019050919050565b60006020820190508181036000830152613c2181613be5565b9050919050565b7f455243373231456e756d657261626c653a206f776e657220696e646578206f7560008201527f74206f6620626f756e6473000000000000000000000000000000000000000000602082015250565b6000613c84602b8361323e565b9150613c8f82613c28565b604082019050919050565b60006020820190508181036000830152613cb381613c77565b9050919050565b7f494e56414c49445f414d4f554e54000000000000000000000000000000000000600082015250565b6000613cf0600e8361323e565b9150613cfb82613cba565b602082019050919050565b60006020820190508181036000830152613d1f81613ce3565b9050919050565b7f4e487b7100000000000000000000000000000000000000000000000000000000600052601160045260246000fd5b6000613d60826132ee565b9150613d6b836132ee565b9250827fffffffffffffffffffffffffffffffffffffffffffffffffffffffffffffffff03821115613da057613d9f613d26565b5b828201905092915050565b6000613db6826132ee565b9150613dc1836132ee565b925082821015613dd457613dd3613d26565b5b828203905092915050565b7f5445414d5f4c494d49545f455843454544454400000000000000000000000000600082015250565b6000613e1560138361323e565b9150613e2082613ddf565b602082019050919050565b60006020820190508181036000830152613e4481613e08565b9050919050565b6000613e56826132ee565b91507fffffffffffffffffffffffffffffffffffffffffffffffffffffffffffffffff821415613e8957613e88613d26565b5b600182019050919050565b7f455243373231456e756d657261626c653a20676c6f62616c20696e646578206f60008201527f7574206f6620626f756e64730000000000000000000000000000000000000000602082015250565b6000613ef0602c8361323e565b9150613efb82613e94565b604082019050919050565b60006020820190508181036000830152613f1f81613ee3565b9050919050565b7f4e487b7100000000000000000000000000000000000000000000000000000000600052603260045260246000fd5b7f4552433732313a206f776e657220717565727920666f72206e6f6e657869737460008201527f656e7420746f6b656e0000000000000000000000000000000000000000000000602082015250565b6000613fb160298361323e565b9150613fbc82613f55565b604082019050919050565b60006020820190508181036000830152613fe081613fa4565b9050919050565b7f4552433732313a2062616c616e636520717565727920666f7220746865207a6560008201527f726f206164647265737300000000000000000000000000000000000000000000602082015250565b6000614043602a8361323e565b915061404e82613fe7565b604082019050919050565b6000602082019050818103600083015261407281614036565b9050919050565b7f53414c455f4e4f545f4f50454e00000000000000000000000000000000000000600082015250565b60006140af600d8361323e565b91506140ba82614079565b602082019050919050565b600060208201905081810360008301526140de816140a2565b9050919050565b60006140f0826132ee565b91506140fb836132ee565b9250817fffffffffffffffffffffffffffffffffffffffffffffffffffffffffffffffff048311821515161561413457614133613d26565b5b828202905092915050565b7f57524f4e475f4554485f56414c55450000000000000000000000000000000000600082015250565b6000614175600f8361323e565b91506141808261413f565b602082019050919050565b600060208201905081810360008301526141a481614168565b9050919050565b7f4d494e545f4e4f545f4f50454e00000000000000000000000000000000000000600082015250565b60006141e1600d8361323e565b91506141ec826141ab565b602082019050919050565b60006020820190508181036000830152614210816141d4565b9050919050565b7f4552433732314d657461646174613a2055524920717565727920666f72206e6f60008201527f6e6578697374656e7420746f6b656e0000000000000000000000000000000000602082015250565b6000614273602f8361323e565b915061427e82614217565b604082019050919050565b600060208201905081810360008301526142a281614266565b9050919050565b600081905092915050565b60006142bf82613233565b6142c981856142a9565b93506142d981856020860161324f565b80840191505092915050565b7f2e6a736f6e000000000000000000000000000000000000000000000000000000600082015250565b600061431b6005836142a9565b9150614326826142e5565b600582019050919050565b600061433d82856142b4565b915061434982846142b4565b91506143548261430e565b91508190509392505050565b7f4f776e61626c653a206e6577206f776e657220697320746865207a65726f206160008201527f6464726573730000000000000000000000000000000000000000000000000000602082015250565b60006143bc60268361323e565b91506143c782614360565b604082019050919050565b600060208201905081810360008301526143eb816143af565b9050919050565b7f494e56414c49445f54494d455354414d50530000000000000000000000000000600082015250565b600061442860128361323e565b9150614433826143f2565b602082019050919050565b600060208201905081810360008301526144578161441b565b9050919050565b7f4552433732313a206f70657261746f7220717565727920666f72206e6f6e657860008201527f697374656e7420746f6b656e0000000000000000000000000000000000000000602082015250565b60006144ba602c8361323e565b91506144c58261445e565b604082019050919050565b600060208201905081810360008301526144e9816144ad565b9050919050565b7f4552433732313a207472616e73666572206f6620746f6b656e2074686174206960008201527f73206e6f74206f776e0000000000000000000000000000000000000000000000602082015250565b600061454c60298361323e565b9150614557826144f0565b604082019050919050565b6000602082019050818103600083015261457b8161453f565b9050919050565b7f4552433732313a207472616e7366657220746f20746865207a65726f2061646460008201527f7265737300000000000000000000000000000000000000000000000000000000602082015250565b60006145de60248361323e565b91506145e982614582565b604082019050919050565b6000602082019050818103600083015261460d816145d1565b9050919050565b7f4552433732313a206d696e7420746f20746865207a65726f2061646472657373600082015250565b600061464a60208361323e565b915061465582614614565b602082019050919050565b600060208201905081810360008301526146798161463d565b9050919050565b7f4552433732313a20746f6b656e20616c7265616479206d696e74656400000000600082015250565b60006146b6601c8361323e565b91506146c182614680565b602082019050919050565b600060208201905081810360008301526146e5816146a9565b9050919050565b7f57414c4c45545f4c494d49545f45584345454445440000000000000000000000600082015250565b600061472260158361323e565b915061472d826146ec565b602082019050919050565b6000602082019050818103600083015261475181614715565b9050919050565b7f53414c455f4c494d49545f455843454544454400000000000000000000000000600082015250565b600061478e60138361323e565b915061479982614758565b602082019050919050565b600060208201905081810360008301526147bd81614781565b9050919050565b7f4552433732313a20617070726f766520746f2063616c6c657200000000000000600082015250565b60006147fa60198361323e565b9150614805826147c4565b602082019050919050565b60006020820190508181036000830152614829816147ed565b9050919050565b7f4552433732313a207472616e7366657220746f206e6f6e20455243373231526560008201527f63656976657220696d706c656d656e7465720000000000000000000000000000602082015250565b600061488c60328361323e565b915061489782614830565b604082019050919050565b600060208201905081810360008301526148bb8161487f565b9050919050565b7f4e487b7100000000000000000000000000000000000000000000000000000000600052601260045260246000fd5b60006148fc826132ee565b9150614907836132ee565b925082614917576149166148c2565b5b828204905092915050565b600061492d826132ee565b9150614938836132ee565b925082614948576149476148c2565b5b828206905092915050565b600081519050919050565b600082825260208201905092915050565b600061497a82614953565b614984818561495e565b935061499481856020860161324f565b61499d81613282565b840191505092915050565b60006080820190506149bd6000830187613383565b6149ca6020830186613383565b6149d76040830185613419565b81810360608301526149e9818461496f565b905095945050505050565b600081519050614a03816131a4565b92915050565b600060208284031215614a1f57614a1e61316e565b5b6000614a2d848285016149f4565b91505092915050565b7f4e487b7100000000000000000000000000000000000000000000000000000000600052603160045260246000fdfe68747470733a2f2f6865726f696e66696e6974792e6d7970696e6174612e636c6f75642f697066732f516d5271717a6e5062435564654a41727a55594c4d6975477265706d4a766d6a6269546f70594d70544a62414262a264697066735822122027578a026a48c9eee405923e0c32a519b24176a8f975b428339679f1258b4dea64736f6c63430008090033",
  "linkReferences": {},
  "deployedLinkReferences": {}
}