{
  "_format": "hh-sol-artifact-1",
  "contractName": "HeroInfinityToken",
  "sourceName": "contracts/HeroInfinityToken.sol",
  "abi": [
    {
      "inputs": [],
      "stateMutability": "nonpayable",
      "type": "constructor"
    },
    {
      "anonymous": false,
      "inputs": [
        {
          "indexed": true,
          "internalType": "address",
          "name": "owner",
          "type": "address"
        },
        {
          "indexed": true,
          "internalType": "address",
          "name": "spender",
          "type": "address"
        },
        {
          "indexed": false,
          "internalType": "uint256",
          "name": "value",
          "type": "uint256"
        }
      ],
      "name": "Approval",
      "type": "event"
    },
    {
      "anonymous": false,
      "inputs": [
        {
          "indexed": true,
          "internalType": "address",
          "name": "newWallet",
          "type": "address"
        },
        {
          "indexed": true,
          "internalType": "address",
          "name": "oldWallet",
          "type": "address"
        }
      ],
      "name": "DevWalletUpdated",
      "type": "event"
    },
    {
      "anonymous": false,
      "inputs": [
        {
          "indexed": true,
          "internalType": "address",
          "name": "account",
          "type": "address"
        },
        {
          "indexed": false,
          "internalType": "bool",
          "name": "isExcluded",
          "type": "bool"
        }
      ],
      "name": "ExcludeFromFees",
      "type": "event"
    },
    {
      "anonymous": false,
      "inputs": [
        {
          "indexed": true,
          "internalType": "address",
          "name": "newWallet",
          "type": "address"
        },
        {
          "indexed": true,
          "internalType": "address",
          "name": "oldWallet",
          "type": "address"
        }
      ],
      "name": "LiquidityWalletUpdated",
      "type": "event"
    },
    {
      "anonymous": false,
      "inputs": [
        {
          "indexed": true,
          "internalType": "address",
          "name": "newWallet",
          "type": "address"
        },
        {
          "indexed": true,
          "internalType": "address",
          "name": "oldWallet",
          "type": "address"
        }
      ],
      "name": "MarketingWalletUpdated",
      "type": "event"
    },
    {
      "anonymous": false,
      "inputs": [
        {
          "indexed": false,
          "internalType": "uint256",
          "name": "timestamp",
          "type": "uint256"
        }
      ],
      "name": "OwnerForcedSwapBack",
      "type": "event"
    },
    {
      "anonymous": false,
      "inputs": [
        {
          "indexed": true,
          "internalType": "address",
          "name": "previousOwner",
          "type": "address"
        },
        {
          "indexed": true,
          "internalType": "address",
          "name": "newOwner",
          "type": "address"
        }
      ],
      "name": "OwnershipTransferred",
      "type": "event"
    },
    {
      "anonymous": false,
      "inputs": [
        {
          "indexed": true,
          "internalType": "address",
          "name": "pair",
          "type": "address"
        },
        {
          "indexed": true,
          "internalType": "bool",
          "name": "value",
          "type": "bool"
        }
      ],
      "name": "SetAutomatedMarketMakerPair",
      "type": "event"
    },
    {
      "anonymous": false,
      "inputs": [
        {
          "indexed": false,
          "internalType": "uint256",
          "name": "tokensSwapped",
          "type": "uint256"
        },
        {
          "indexed": false,
          "internalType": "uint256",
          "name": "ethReceived",
          "type": "uint256"
        },
        {
          "indexed": false,
          "internalType": "uint256",
          "name": "tokensIntoLiquidity",
          "type": "uint256"
        }
      ],
      "name": "SwapAndLiquify",
      "type": "event"
    },
    {
      "anonymous": false,
      "inputs": [
        {
          "indexed": true,
          "internalType": "address",
          "name": "from",
          "type": "address"
        },
        {
          "indexed": true,
          "internalType": "address",
          "name": "to",
          "type": "address"
        },
        {
          "indexed": false,
          "internalType": "uint256",
          "name": "value",
          "type": "uint256"
        }
      ],
      "name": "Transfer",
      "type": "event"
    },
    {
      "anonymous": false,
      "inputs": [
        {
          "indexed": true,
          "internalType": "address",
          "name": "newAddress",
          "type": "address"
        },
        {
          "indexed": true,
          "internalType": "address",
          "name": "oldAddress",
          "type": "address"
        }
      ],
      "name": "UpdateUniswapV2Router",
      "type": "event"
    },
    {
      "inputs": [
        {
          "internalType": "address",
          "name": "",
          "type": "address"
        }
      ],
      "name": "_isExcludedMaxTransactionAmount",
      "outputs": [
        {
          "internalType": "bool",
          "name": "",
          "type": "bool"
        }
      ],
      "stateMutability": "view",
      "type": "function"
    },
    {
      "inputs": [
        {
          "internalType": "address",
          "name": "newOwner",
          "type": "address"
        },
        {
          "internalType": "address",
          "name": "router",
          "type": "address"
        },
        {
          "internalType": "uint256",
          "name": "liquidityAmount",
          "type": "uint256"
        },
        {
          "internalType": "uint256",
          "name": "airdropAmount",
          "type": "uint256"
        },
        {
          "internalType": "uint256",
          "name": "dailyThreshold",
          "type": "uint256"
        },
        {
          "internalType": "address[]",
          "name": "airdropUsers",
          "type": "address[]"
        },
        {
          "internalType": "uint256[]",
          "name": "airdropAmounts",
          "type": "uint256[]"
        }
      ],
      "name": "airdropAndLaunch",
      "outputs": [],
      "stateMutability": "payable",
      "type": "function"
    },
    {
      "inputs": [
        {
          "internalType": "address",
          "name": "owner",
          "type": "address"
        },
        {
          "internalType": "address",
          "name": "spender",
          "type": "address"
        }
      ],
      "name": "allowance",
      "outputs": [
        {
          "internalType": "uint256",
          "name": "",
          "type": "uint256"
        }
      ],
      "stateMutability": "view",
      "type": "function"
    },
    {
      "inputs": [
        {
          "internalType": "address",
          "name": "spender",
          "type": "address"
        },
        {
          "internalType": "uint256",
          "name": "amount",
          "type": "uint256"
        }
      ],
      "name": "approve",
      "outputs": [
        {
          "internalType": "bool",
          "name": "",
          "type": "bool"
        }
      ],
      "stateMutability": "nonpayable",
      "type": "function"
    },
    {
      "inputs": [
        {
          "internalType": "address",
          "name": "",
          "type": "address"
        }
      ],
      "name": "automatedMarketMakerPairs",
      "outputs": [
        {
          "internalType": "bool",
          "name": "",
          "type": "bool"
        }
      ],
      "stateMutability": "view",
      "type": "function"
    },
    {
      "inputs": [
        {
          "internalType": "address",
          "name": "account",
          "type": "address"
        }
      ],
      "name": "balanceOf",
      "outputs": [
        {
          "internalType": "uint256",
          "name": "",
          "type": "uint256"
        }
      ],
      "stateMutability": "view",
      "type": "function"
    },
    {
      "inputs": [],
      "name": "buyDevFee",
      "outputs": [
        {
          "internalType": "uint256",
          "name": "",
          "type": "uint256"
        }
      ],
      "stateMutability": "view",
      "type": "function"
    },
    {
      "inputs": [],
      "name": "buyLiquidityFee",
      "outputs": [
        {
          "internalType": "uint256",
          "name": "",
          "type": "uint256"
        }
      ],
      "stateMutability": "view",
      "type": "function"
    },
    {
      "inputs": [],
      "name": "buyMarketingFee",
      "outputs": [
        {
          "internalType": "uint256",
          "name": "",
          "type": "uint256"
        }
      ],
      "stateMutability": "view",
      "type": "function"
    },
    {
      "inputs": [],
      "name": "buyTotalFees",
      "outputs": [
        {
          "internalType": "uint256",
          "name": "",
          "type": "uint256"
        }
      ],
      "stateMutability": "view",
      "type": "function"
    },
    {
      "inputs": [],
      "name": "decimals",
      "outputs": [
        {
          "internalType": "uint8",
          "name": "",
          "type": "uint8"
        }
      ],
      "stateMutability": "view",
      "type": "function"
    },
    {
      "inputs": [
        {
          "internalType": "address",
          "name": "spender",
          "type": "address"
        },
        {
          "internalType": "uint256",
          "name": "subtractedValue",
          "type": "uint256"
        }
      ],
      "name": "decreaseAllowance",
      "outputs": [
        {
          "internalType": "bool",
          "name": "",
          "type": "bool"
        }
      ],
      "stateMutability": "nonpayable",
      "type": "function"
    },
    {
      "inputs": [],
      "name": "devWallet",
      "outputs": [
        {
          "internalType": "address",
          "name": "",
          "type": "address"
        }
      ],
      "stateMutability": "view",
      "type": "function"
    },
    {
      "inputs": [],
      "name": "disableTransferDelay",
      "outputs": [
        {
          "internalType": "bool",
          "name": "",
          "type": "bool"
        }
      ],
      "stateMutability": "nonpayable",
      "type": "function"
    },
    {
      "inputs": [
        {
          "internalType": "address",
          "name": "account",
          "type": "address"
        },
        {
          "internalType": "bool",
          "name": "excluded",
          "type": "bool"
        }
      ],
      "name": "excludeFromFees",
      "outputs": [],
      "stateMutability": "nonpayable",
      "type": "function"
    },
    {
      "inputs": [
        {
          "internalType": "address",
          "name": "updAds",
          "type": "address"
        },
        {
          "internalType": "bool",
          "name": "isEx",
          "type": "bool"
        }
      ],
      "name": "excludeFromMaxTransaction",
      "outputs": [],
      "stateMutability": "nonpayable",
      "type": "function"
    },
    {
      "inputs": [],
      "name": "forceSwapBack",
      "outputs": [],
      "stateMutability": "nonpayable",
      "type": "function"
    },
    {
      "inputs": [
        {
          "internalType": "address",
          "name": "spender",
          "type": "address"
        },
        {
          "internalType": "uint256",
          "name": "addedValue",
          "type": "uint256"
        }
      ],
      "name": "increaseAllowance",
      "outputs": [
        {
          "internalType": "bool",
          "name": "",
          "type": "bool"
        }
      ],
      "stateMutability": "nonpayable",
      "type": "function"
    },
    {
      "inputs": [
        {
          "internalType": "address",
          "name": "account",
          "type": "address"
        }
      ],
      "name": "isExcludedFromFees",
      "outputs": [
        {
          "internalType": "bool",
          "name": "",
          "type": "bool"
        }
      ],
      "stateMutability": "view",
      "type": "function"
    },
    {
      "inputs": [],
      "name": "launchTime",
      "outputs": [
        {
          "internalType": "uint256",
          "name": "",
          "type": "uint256"
        }
      ],
      "stateMutability": "view",
      "type": "function"
    },
    {
      "inputs": [],
      "name": "limitsInEffect",
      "outputs": [
        {
          "internalType": "bool",
          "name": "",
          "type": "bool"
        }
      ],
      "stateMutability": "view",
      "type": "function"
    },
    {
      "inputs": [],
      "name": "liquidityWallet",
      "outputs": [
        {
          "internalType": "address",
          "name": "",
          "type": "address"
        }
      ],
      "stateMutability": "view",
      "type": "function"
    },
    {
      "inputs": [],
      "name": "marketingWallet",
      "outputs": [
        {
          "internalType": "address",
          "name": "",
          "type": "address"
        }
      ],
      "stateMutability": "view",
      "type": "function"
    },
    {
      "inputs": [],
      "name": "maxTransactionAmount",
      "outputs": [
        {
          "internalType": "uint256",
          "name": "",
          "type": "uint256"
        }
      ],
      "stateMutability": "view",
      "type": "function"
    },
    {
      "inputs": [],
      "name": "maxWallet",
      "outputs": [
        {
          "internalType": "uint256",
          "name": "",
          "type": "uint256"
        }
      ],
      "stateMutability": "view",
      "type": "function"
    },
    {
      "inputs": [],
      "name": "name",
      "outputs": [
        {
          "internalType": "string",
          "name": "",
          "type": "string"
        }
      ],
      "stateMutability": "view",
      "type": "function"
    },
    {
      "inputs": [],
      "name": "owner",
      "outputs": [
        {
          "internalType": "address",
          "name": "",
          "type": "address"
        }
      ],
      "stateMutability": "view",
      "type": "function"
    },
    {
      "inputs": [],
      "name": "removeLimits",
      "outputs": [
        {
          "internalType": "bool",
          "name": "",
          "type": "bool"
        }
      ],
      "stateMutability": "nonpayable",
      "type": "function"
    },
    {
      "inputs": [],
      "name": "renounceOwnership",
      "outputs": [],
      "stateMutability": "nonpayable",
      "type": "function"
    },
    {
      "inputs": [],
      "name": "sellDevFee",
      "outputs": [
        {
          "internalType": "uint256",
          "name": "",
          "type": "uint256"
        }
      ],
      "stateMutability": "view",
      "type": "function"
    },
    {
      "inputs": [],
      "name": "sellLiquidityFee",
      "outputs": [
        {
          "internalType": "uint256",
          "name": "",
          "type": "uint256"
        }
      ],
      "stateMutability": "view",
      "type": "function"
    },
    {
      "inputs": [],
      "name": "sellMarketingFee",
      "outputs": [
        {
          "internalType": "uint256",
          "name": "",
          "type": "uint256"
        }
      ],
      "stateMutability": "view",
      "type": "function"
    },
    {
      "inputs": [],
      "name": "sellTotalFees",
      "outputs": [
        {
          "internalType": "uint256",
          "name": "",
          "type": "uint256"
        }
      ],
      "stateMutability": "view",
      "type": "function"
    },
    {
      "inputs": [
        {
          "internalType": "address",
          "name": "pair",
          "type": "address"
        },
        {
          "internalType": "bool",
          "name": "value",
          "type": "bool"
        }
      ],
      "name": "setAutomatedMarketMakerPair",
      "outputs": [],
      "stateMutability": "nonpayable",
      "type": "function"
    },
    {
      "inputs": [],
      "name": "swapEnabled",
      "outputs": [
        {
          "internalType": "bool",
          "name": "",
          "type": "bool"
        }
      ],
      "stateMutability": "view",
      "type": "function"
    },
    {
      "inputs": [],
      "name": "swapTokensAtAmount",
      "outputs": [
        {
          "internalType": "uint256",
          "name": "",
          "type": "uint256"
        }
      ],
      "stateMutability": "view",
      "type": "function"
    },
    {
      "inputs": [],
      "name": "symbol",
      "outputs": [
        {
          "internalType": "string",
          "name": "",
          "type": "string"
        }
      ],
      "stateMutability": "view",
      "type": "function"
    },
    {
      "inputs": [],
      "name": "tokensForDev",
      "outputs": [
        {
          "internalType": "uint256",
          "name": "",
          "type": "uint256"
        }
      ],
      "stateMutability": "view",
      "type": "function"
    },
    {
      "inputs": [],
      "name": "tokensForLiquidity",
      "outputs": [
        {
          "internalType": "uint256",
          "name": "",
          "type": "uint256"
        }
      ],
      "stateMutability": "view",
      "type": "function"
    },
    {
      "inputs": [],
      "name": "tokensForMarketing",
      "outputs": [
        {
          "internalType": "uint256",
          "name": "",
          "type": "uint256"
        }
      ],
      "stateMutability": "view",
      "type": "function"
    },
    {
      "inputs": [],
      "name": "totalSupply",
      "outputs": [
        {
          "internalType": "uint256",
          "name": "",
          "type": "uint256"
        }
      ],
      "stateMutability": "view",
      "type": "function"
    },
    {
      "inputs": [],
      "name": "tradingActive",
      "outputs": [
        {
          "internalType": "bool",
          "name": "",
          "type": "bool"
        }
      ],
      "stateMutability": "view",
      "type": "function"
    },
    {
      "inputs": [
        {
          "internalType": "address",
          "name": "recipient",
          "type": "address"
        },
        {
          "internalType": "uint256",
          "name": "amount",
          "type": "uint256"
        }
      ],
      "name": "transfer",
      "outputs": [
        {
          "internalType": "bool",
          "name": "",
          "type": "bool"
        }
      ],
      "stateMutability": "nonpayable",
      "type": "function"
    },
    {
      "inputs": [],
      "name": "transferDelayEnabled",
      "outputs": [
        {
          "internalType": "bool",
          "name": "",
          "type": "bool"
        }
      ],
      "stateMutability": "view",
      "type": "function"
    },
    {
      "inputs": [
        {
          "internalType": "address",
          "name": "sender",
          "type": "address"
        },
        {
          "internalType": "address",
          "name": "recipient",
          "type": "address"
        },
        {
          "internalType": "uint256",
          "name": "amount",
          "type": "uint256"
        }
      ],
      "name": "transferFrom",
      "outputs": [
        {
          "internalType": "bool",
          "name": "",
          "type": "bool"
        }
      ],
      "stateMutability": "nonpayable",
      "type": "function"
    },
    {
      "inputs": [
        {
          "internalType": "address",
          "name": "newOwner",
          "type": "address"
        }
      ],
      "name": "transferOwnership",
      "outputs": [],
      "stateMutability": "nonpayable",
      "type": "function"
    },
    {
      "inputs": [],
      "name": "uniswapV2Pair",
      "outputs": [
        {
          "internalType": "address",
          "name": "",
          "type": "address"
        }
      ],
      "stateMutability": "view",
      "type": "function"
    },
    {
      "inputs": [],
      "name": "uniswapV2Router",
      "outputs": [
        {
          "internalType": "contract IUniswapV2Router02",
          "name": "",
          "type": "address"
        }
      ],
      "stateMutability": "view",
      "type": "function"
    },
    {
      "inputs": [
        {
          "internalType": "uint256",
          "name": "_marketingFee",
          "type": "uint256"
        },
        {
          "internalType": "uint256",
          "name": "_liquidityFee",
          "type": "uint256"
        },
        {
          "internalType": "uint256",
          "name": "_devFee",
          "type": "uint256"
        }
      ],
      "name": "updateBuyFees",
      "outputs": [],
      "stateMutability": "nonpayable",
      "type": "function"
    },
    {
      "inputs": [
        {
          "internalType": "address",
          "name": "newDevWallet",
          "type": "address"
        }
      ],
      "name": "updateDevWallet",
      "outputs": [],
      "stateMutability": "nonpayable",
      "type": "function"
    },
    {
      "inputs": [
        {
          "internalType": "address",
          "name": "newMarketingWallet",
          "type": "address"
        }
      ],
      "name": "updateMarketingWallet",
      "outputs": [],
      "stateMutability": "nonpayable",
      "type": "function"
    },
    {
      "inputs": [
        {
          "internalType": "uint256",
          "name": "newNum",
          "type": "uint256"
        }
      ],
      "name": "updateMaxAmount",
      "outputs": [],
      "stateMutability": "nonpayable",
      "type": "function"
    },
    {
      "inputs": [
        {
          "internalType": "uint256",
          "name": "_marketingFee",
          "type": "uint256"
        },
        {
          "internalType": "uint256",
          "name": "_liquidityFee",
          "type": "uint256"
        },
        {
          "internalType": "uint256",
          "name": "_devFee",
          "type": "uint256"
        }
      ],
      "name": "updateSellFees",
      "outputs": [],
      "stateMutability": "nonpayable",
      "type": "function"
    },
    {
      "inputs": [
        {
          "internalType": "bool",
          "name": "enabled",
          "type": "bool"
        }
      ],
      "name": "updateSwapEnabled",
      "outputs": [],
      "stateMutability": "nonpayable",
      "type": "function"
    },
    {
      "inputs": [
        {
          "internalType": "uint256",
          "name": "newAmount",
          "type": "uint256"
        }
      ],
      "name": "updateSwapTokensAtAmount",
      "outputs": [
        {
          "internalType": "bool",
          "name": "",
          "type": "bool"
        }
      ],
      "stateMutability": "nonpayable",
      "type": "function"
    },
    {
      "inputs": [
        {
          "internalType": "address",
          "name": "newWallet",
          "type": "address"
        }
      ],
      "name": "updateliquidityWallet",
      "outputs": [],
      "stateMutability": "nonpayable",
      "type": "function"
    },
    {
      "inputs": [
        {
          "internalType": "address",
          "name": "_recipient",
          "type": "address"
        }
      ],
      "name": "withdrawDustETH",
      "outputs": [],
      "stateMutability": "nonpayable",
      "type": "function"
    },
    {
      "inputs": [
        {
          "internalType": "address",
          "name": "_token",
          "type": "address"
        },
        {
          "internalType": "address",
          "name": "_to",
          "type": "address"
        }
      ],
      "name": "withdrawDustToken",
      "outputs": [
        {
          "internalType": "bool",
          "name": "_sent",
          "type": "bool"
        }
      ],
      "stateMutability": "nonpayable",
      "type": "function"
    },
    {
      "stateMutability": "payable",
      "type": "receive"
    }
  ],
  "bytecode": "0x60806040526001600f60006101000a81548160ff0219169083151502179055506000600f60016101000a81548160ff0219169083151502179055506000600f60026101000a81548160ff0219169083151502179055506001600f60036101000a81548160ff02191690831515021790555064829e34aa006010556001601460006101000a81548160ff021916908315150217905550348015620000a157600080fd5b506040518060400160405280601281526020017f4865726f496e66696e69747920546f6b656e00000000000000000000000000008152506040518060400160405280600381526020017f485249000000000000000000000000000000000000000000000000000000000081525081600390805190602001906200012692919062000236565b5080600490805190602001906200013f92919062000236565b50505062000162620001566200016860201b60201c565b6200017060201b60201c565b6200034b565b600033905090565b6000600560009054906101000a900473ffffffffffffffffffffffffffffffffffffffff16905081600560006101000a81548173ffffffffffffffffffffffffffffffffffffffff021916908373ffffffffffffffffffffffffffffffffffffffff1602179055508173ffffffffffffffffffffffffffffffffffffffff168173ffffffffffffffffffffffffffffffffffffffff167f8be0079c531659141344cd1fd0a4f28419497f9722a3daafe3b4186f6b6457e060405160405180910390a35050565b828054620002449062000315565b90600052602060002090601f016020900481019282620002685760008555620002b4565b82601f106200028357805160ff1916838001178555620002b4565b82800160010185558215620002b4579182015b82811115620002b357825182559160200191906001019062000296565b5b509050620002c39190620002c7565b5090565b5b80821115620002e2576000816000905550600101620002c8565b5090565b7f4e487b7100000000000000000000000000000000000000000000000000000000600052602260045260246000fd5b600060028204905060018216806200032e57607f821691505b60208210811415620003455762000344620002e6565b5b50919050565b616aaf806200035b6000396000f3fe6080604052600436106103855760003560e01c806392136913116101d1578063c17b5b8c11610102578063e2f45605116100a0578063f2fde38b1161006f578063f2fde38b14610d1c578063f4a2c16f14610d45578063f637434214610d82578063f8b45b0514610dad5761038c565b8063e2f4560514610c72578063e393c29414610c9d578063e884f26014610cc6578063f11a24d314610cf15761038c565b8063d257b34f116100dc578063d257b34f14610ba2578063d469801614610bdf578063d85ba06314610c0a578063dd62ed3e14610c355761038c565b8063c17b5b8c14610b23578063c876d0b914610b4c578063c8c8ebe414610b775761038c565b8063a0d82dc51161016f578063aacebbe311610149578063aacebbe314610a69578063b62496f514610a92578063bbc0c74214610acf578063c024666814610afa5761038c565b8063a0d82dc5146109c4578063a457c2d7146109ef578063a9059cbb14610a2c5761038c565b806395d89b41116101ab57806395d89b411461091a5780639a7a23d6146109455780639c3b4fdc1461096e5780639fccce32146109995761038c565b8063921369131461089d578063924de9b7146108c857806392aa3773146108f15761038c565b80634fbee193116102b6578063751039fc116102545780637bce5a04116102235780637bce5a04146107f35780638095d5641461081e5780638da5cb5b146108475780638ea5220f146108725761038c565b8063751039fc146107495780637571336a1461077457806375f0a8741461079d578063790ca413146107c85761038c565b80636d5e9b40116102905780636d5e9b40146106ae5780636ddd1713146106ca57806370a08231146106f5578063715018a6146107325761038c565b80634fbee1931461062f57806351f205e41461066c5780636a486a8e146106835761038c565b80631a8145bb11610323578063313ce567116102fd578063313ce56714610571578063395093511461059c57806349bd5a5e146105d95780634a62bb65146106045761038c565b80631a8145bb146104de5780631f3fed8f1461050957806323b872dd146105345761038c565b806310d5de531161035f57806310d5de53146104225780631694505e1461045f57806318160ddd1461048a5780631816467f146104b55761038c565b806306fdde0314610391578063095ea7b3146103bc578063106b5da1146103f95761038c565b3661038c57005b600080fd5b34801561039d57600080fd5b506103a6610dd8565b6040516103b39190614eec565b60405180910390f35b3480156103c857600080fd5b506103e360048036038101906103de9190614fb6565b610e00565b6040516103f09190615011565b60405180910390f35b34801561040557600080fd5b50610420600480360381019061041b919061502c565b610e1e565b005b34801561042e57600080fd5b5061044960048036038101906104449190615059565b610f2d565b6040516104569190615011565b60405180910390f35b34801561046b57600080fd5b50610474610f4d565b60405161048191906150e5565b60405180910390f35b34801561049657600080fd5b5061049f610f73565b6040516104ac919061510f565b60405180910390f35b3480156104c157600080fd5b506104dc60048036038101906104d79190615059565b610f82565b005b3480156104ea57600080fd5b506104f36110be565b604051610500919061510f565b60405180910390f35b34801561051557600080fd5b5061051e6110c4565b60405161052b919061510f565b60405180910390f35b34801561054057600080fd5b5061055b6004803603810190610556919061512a565b6110ca565b6040516105689190615011565b60405180910390f35b34801561057d57600080fd5b506105866111c2565b6040516105939190615199565b60405180910390f35b3480156105a857600080fd5b506105c360048036038101906105be9190614fb6565b6111d1565b6040516105d09190615011565b60405180910390f35b3480156105e557600080fd5b506105ee61127d565b6040516105fb91906151c3565b60405180910390f35b34801561061057600080fd5b506106196112a3565b6040516106269190615011565b60405180910390f35b34801561063b57600080fd5b5061065660048036038101906106519190615059565b6112b6565b6040516106639190615011565b60405180910390f35b34801561067857600080fd5b5061068161130c565b005b34801561068f57600080fd5b5061069861142d565b6040516106a5919061510f565b60405180910390f35b6106c860048036038101906106c391906153e9565b611433565b005b3480156106d657600080fd5b506106df611d83565b6040516106ec9190615011565b60405180910390f35b34801561070157600080fd5b5061071c60048036038101906107179190615059565b611d96565b604051610729919061510f565b60405180910390f35b34801561073e57600080fd5b50610747611dde565b005b34801561075557600080fd5b5061075e611e66565b60405161076b9190615011565b60405180910390f35b34801561078057600080fd5b5061079b600480360381019061079691906154ef565b611f3c565b005b3480156107a957600080fd5b506107b2612013565b6040516107bf91906151c3565b60405180910390f35b3480156107d457600080fd5b506107dd612039565b6040516107ea919061510f565b60405180910390f35b3480156107ff57600080fd5b5061080861203f565b604051610815919061510f565b60405180910390f35b34801561082a57600080fd5b506108456004803603810190610840919061552f565b612045565b005b34801561085357600080fd5b5061085c612144565b60405161086991906151c3565b60405180910390f35b34801561087e57600080fd5b5061088761216e565b60405161089491906151c3565b60405180910390f35b3480156108a957600080fd5b506108b2612194565b6040516108bf919061510f565b60405180910390f35b3480156108d457600080fd5b506108ef60048036038101906108ea9190615582565b61219a565b005b3480156108fd57600080fd5b5061091860048036038101906109139190615059565b612233565b005b34801561092657600080fd5b5061092f61236f565b60405161093c9190614eec565b60405180910390f35b34801561095157600080fd5b5061096c600480360381019061096791906154ef565b612397565b005b34801561097a57600080fd5b506109836124b2565b604051610990919061510f565b60405180910390f35b3480156109a557600080fd5b506109ae6124b8565b6040516109bb919061510f565b60405180910390f35b3480156109d057600080fd5b506109d96124be565b6040516109e6919061510f565b60405180910390f35b3480156109fb57600080fd5b50610a166004803603810190610a119190614fb6565b6124c4565b604051610a239190615011565b60405180910390f35b348015610a3857600080fd5b50610a536004803603810190610a4e9190614fb6565b6125af565b604051610a609190615011565b60405180910390f35b348015610a7557600080fd5b50610a906004803603810190610a8b9190615059565b6125cd565b005b348015610a9e57600080fd5b50610ab96004803603810190610ab49190615059565b612709565b604051610ac69190615011565b60405180910390f35b348015610adb57600080fd5b50610ae4612729565b604051610af19190615011565b60405180910390f35b348015610b0657600080fd5b50610b216004803603810190610b1c91906154ef565b61273c565b005b348015610b2f57600080fd5b50610b4a6004803603810190610b45919061552f565b612861565b005b348015610b5857600080fd5b50610b6161295f565b604051610b6e9190615011565b60405180910390f35b348015610b8357600080fd5b50610b8c612972565b604051610b99919061510f565b60405180910390f35b348015610bae57600080fd5b50610bc96004803603810190610bc4919061502c565b612978565b604051610bd69190615011565b60405180910390f35b348015610beb57600080fd5b50610bf4612acd565b604051610c0191906151c3565b60405180910390f35b348015610c1657600080fd5b50610c1f612af3565b604051610c2c919061510f565b60405180910390f35b348015610c4157600080fd5b50610c5c6004803603810190610c5791906155af565b612af9565b604051610c69919061510f565b60405180910390f35b348015610c7e57600080fd5b50610c87612b80565b604051610c94919061510f565b60405180910390f35b348015610ca957600080fd5b50610cc46004803603810190610cbf9190615059565b612b86565b005b348015610cd257600080fd5b50610cdb612cb8565b604051610ce89190615011565b60405180910390f35b348015610cfd57600080fd5b50610d06612d58565b604051610d13919061510f565b60405180910390f35b348015610d2857600080fd5b50610d436004803603810190610d3e9190615059565b612d5e565b005b348015610d5157600080fd5b50610d6c6004803603810190610d6791906155af565b612e56565b604051610d799190615011565b60405180910390f35b348015610d8e57600080fd5b50610d97612ff7565b604051610da4919061510f565b60405180910390f35b348015610db957600080fd5b50610dc2612ffd565b604051610dcf919061510f565b60405180910390f35b6060600f60019054906101000a900460ff16610df357600080fd5b610dfb613003565b905090565b6000610e14610e0d613095565b848461309d565b6001905092915050565b610e26613095565b73ffffffffffffffffffffffffffffffffffffffff16610e44612144565b73ffffffffffffffffffffffffffffffffffffffff1614610e9a576040517f08c379a0000000000000000000000000000000000000000000000000000000008152600401610e919061563b565b60405180910390fd5b670de0b6b3a76400006103e86005610eb0610f73565b610eba919061568a565b610ec49190615713565b610ece9190615713565b811015610f10576040517f08c379a0000000000000000000000000000000000000000000000000000000008152600401610f07906157b6565b60405180910390fd5b670de0b6b3a764000081610f24919061568a565b600c8190555050565b60216020528060005260406000206000915054906101000a900460ff1681565b600660009054906101000a900473ffffffffffffffffffffffffffffffffffffffff1681565b6000610f7d613268565b905090565b610f8a613095565b73ffffffffffffffffffffffffffffffffffffffff16610fa8612144565b73ffffffffffffffffffffffffffffffffffffffff1614610ffe576040517f08c379a0000000000000000000000000000000000000000000000000000000008152600401610ff59061563b565b60405180910390fd5b600a60009054906101000a900473ffffffffffffffffffffffffffffffffffffffff1673ffffffffffffffffffffffffffffffffffffffff168173ffffffffffffffffffffffffffffffffffffffff167f0db17895a9d092fb3ca24d626f2150dd80c185b0706b36f1040ee239f56cb87160405160405180910390a380600a60006101000a81548173ffffffffffffffffffffffffffffffffffffffff021916908373ffffffffffffffffffffffffffffffffffffffff16021790555050565b601e5481565b601d5481565b60006110d7848484613272565b6000600160008673ffffffffffffffffffffffffffffffffffffffff1673ffffffffffffffffffffffffffffffffffffffff1681526020019081526020016000206000611122613095565b73ffffffffffffffffffffffffffffffffffffffff1673ffffffffffffffffffffffffffffffffffffffff168152602001908152602001600020549050828110156111a2576040517f08c379a000000000000000000000000000000000000000000000000000000000815260040161119990615848565b60405180910390fd5b6111b6856111ae613095565b85840361309d565b60019150509392505050565b60006111cc613f19565b905090565b60006112736111de613095565b8484600160006111ec613095565b73ffffffffffffffffffffffffffffffffffffffff1673ffffffffffffffffffffffffffffffffffffffff16815260200190815260200160002060008873ffffffffffffffffffffffffffffffffffffffff1673ffffffffffffffffffffffffffffffffffffffff1681526020019081526020016000205461126e9190615868565b61309d565b6001905092915050565b600760009054906101000a900473ffffffffffffffffffffffffffffffffffffffff1681565b600f60009054906101000a900460ff1681565b6000602060008373ffffffffffffffffffffffffffffffffffffffff1673ffffffffffffffffffffffffffffffffffffffff16815260200190815260200160002060009054906101000a900460ff169050919050565b611314613095565b73ffffffffffffffffffffffffffffffffffffffff16611332612144565b73ffffffffffffffffffffffffffffffffffffffff1614611388576040517f08c379a000000000000000000000000000000000000000000000000000000000815260040161137f9061563b565b60405180910390fd5b600061139330611d96565b9050606461139f610f73565b6113a99190615713565b8110156113eb576040517f08c379a00000000000000000000000000000000000000000000000000000000081526004016113e290615930565b60405180910390fd5b6113f3613f22565b7f1b56c383f4f48fc992e45667ea4eabae777b9cca68b516a9562d8cda78f1bb3242604051611422919061510f565b60405180910390a150565b60195481565b61143b613095565b73ffffffffffffffffffffffffffffffffffffffff16611459612144565b73ffffffffffffffffffffffffffffffffffffffff16146114af576040517f08c379a00000000000000000000000000000000000000000000000000000000081526004016114a69061563b565b60405180910390fd5b600f60019054906101000a900460ff16156114ff576040517f08c379a00000000000000000000000000000000000000000000000000000000081526004016114f69061599c565b60405180910390fd5b8051825114611543576040517f08c379a000000000000000000000000000000000000000000000000000000000815260040161153a90615a08565b60405180910390fd5b6000869050611553816001611f3c565b80600660006101000a81548173ffffffffffffffffffffffffffffffffffffffff021916908373ffffffffffffffffffffffffffffffffffffffff1602179055508073ffffffffffffffffffffffffffffffffffffffff1663c45a01556040518163ffffffff1660e01b815260040160206040518083038186803b1580156115da57600080fd5b505afa1580156115ee573d6000803e3d6000fd5b505050506040513d601f19601f820116820180604052508101906116129190615a3d565b73ffffffffffffffffffffffffffffffffffffffff1663c9c65396308373ffffffffffffffffffffffffffffffffffffffff1663ad5c46486040518163ffffffff1660e01b815260040160206040518083038186803b15801561167457600080fd5b505afa158015611688573d6000803e3d6000fd5b505050506040513d601f19601f820116820180604052508101906116ac9190615a3d565b6040518363ffffffff1660e01b81526004016116c9929190615a6a565b602060405180830381600087803b1580156116e357600080fd5b505af11580156116f7573d6000803e3d6000fd5b505050506040513d601f19601f8201168201806040525081019061171b9190615a3d565b600760006101000a81548173ffffffffffffffffffffffffffffffffffffffff021916908373ffffffffffffffffffffffffffffffffffffffff160217905550611788600760009054906101000a900473ffffffffffffffffffffffffffffffffffffffff166001611f3c565b6117b5600760009054906101000a900473ffffffffffffffffffffffffffffffffffffffff16600161427d565b6000600690506000600490506000600290506000600890506000600e905060006003905060006b033b2e3c9fd0803ce800000090506127106005826117fa919061568a565b6118049190615713565b670de0b6b3a76400008c611818919061568a565b1161182257600080fd5b8a601381905550612710601e82611839919061568a565b6118439190615713565b600c81905550612710606482611859919061568a565b6118639190615713565b600e81905550612710600582611879919061568a565b6118839190615713565b600d819055508660168190555085601781905550846018819055506018546017546016546118b19190615868565b6118bb9190615868565b60158190555083601a8190555082601b8190555081601c81905550601c54601b54601a546118e99190615868565b6118f39190615868565b6019819055508e600960006101000a81548173ffffffffffffffffffffffffffffffffffffffff021916908373ffffffffffffffffffffffffffffffffffffffff1602179055508e600a60006101000a81548173ffffffffffffffffffffffffffffffffffffffff021916908373ffffffffffffffffffffffffffffffffffffffff1602179055508e600b60006101000a81548173ffffffffffffffffffffffffffffffffffffffff021916908373ffffffffffffffffffffffffffffffffffffffff1602179055506119ce6119c7612144565b600161273c565b6119d98f600161273c565b6119e430600161273c565b6119f161dead600161273c565b611a036119fc612144565b6001611f3c565b611a0e8f6001611f3c565b611a19306001611f3c565b611a2661dead6001611f3c565b611a4330670de0b6b3a76400008f611a3e919061568a565b61431e565b611a6b8f670de0b6b3a76400008f611a5b919061568a565b83611a669190615a93565b61431e565b611a88670de0b6b3a76400008e611a82919061568a565b3461447e565b6000611ab7600760009054906101000a900473ffffffffffffffffffffffffffffffffffffffff16600161273c565b6000600f60006101000a81548160ff02191690831515021790555060005b8b51811015611c43576000670de0b6b3a76400008c8381518110611afc57611afb615ac7565b5b6020026020010151611b0e919061568a565b905060008d8381518110611b2557611b24615ac7565b5b602002602001015190506000601260008373ffffffffffffffffffffffffffffffffffffffff1673ffffffffffffffffffffffffffffffffffffffff1681526020019081526020016000205414611bb1576040517f08c379a0000000000000000000000000000000000000000000000000000000008152600401611ba890615b42565b60405180910390fd5b8184611bbd9190615868565b9350611bec600760009054906101000a900473ffffffffffffffffffffffffffffffffffffffff168284613272565b81601260008373ffffffffffffffffffffffffffffffffffffffff1673ffffffffffffffffffffffffffffffffffffffff16815260200190815260200160002081905550505080611c3c90615b62565b9050611ad5565b50611c71600760009054906101000a900473ffffffffffffffffffffffffffffffffffffffff16600061273c565b6001600f60006101000a81548160ff021916908315150217905550670de0b6b3a76400008d611ca0919061568a565b8114611ce1576040517f08c379a0000000000000000000000000000000000000000000000000000000008152600401611cd890615bf7565b60405180910390fd5b6000600760009054906101000a900473ffffffffffffffffffffffffffffffffffffffff1690508073ffffffffffffffffffffffffffffffffffffffff1663fff6cae96040518163ffffffff1660e01b8152600401600060405180830381600087803b158015611d5057600080fd5b505af1158015611d64573d6000803e3d6000fd5b50505050611d7061458d565b5050505050505050505050505050505050565b600f60029054906101000a900460ff1681565b60008060008373ffffffffffffffffffffffffffffffffffffffff1673ffffffffffffffffffffffffffffffffffffffff168152602001908152602001600020549050919050565b611de6613095565b73ffffffffffffffffffffffffffffffffffffffff16611e04612144565b73ffffffffffffffffffffffffffffffffffffffff1614611e5a576040517f08c379a0000000000000000000000000000000000000000000000000000000008152600401611e519061563b565b60405180910390fd5b611e64600061461c565b565b6000611e70613095565b73ffffffffffffffffffffffffffffffffffffffff16611e8e612144565b73ffffffffffffffffffffffffffffffffffffffff1614611ee4576040517f08c379a0000000000000000000000000000000000000000000000000000000008152600401611edb9061563b565b60405180910390fd5b6000600f60006101000a81548160ff0219169083151502179055506000600f60036101000a81548160ff0219169083151502179055506000601460006101000a81548160ff0219169083151502179055506001905090565b611f44613095565b73ffffffffffffffffffffffffffffffffffffffff16611f62612144565b73ffffffffffffffffffffffffffffffffffffffff1614611fb8576040517f08c379a0000000000000000000000000000000000000000000000000000000008152600401611faf9061563b565b60405180910390fd5b80602160008473ffffffffffffffffffffffffffffffffffffffff1673ffffffffffffffffffffffffffffffffffffffff16815260200190815260200160002060006101000a81548160ff0219169083151502179055505050565b600960009054906101000a900473ffffffffffffffffffffffffffffffffffffffff1681565b60085481565b60165481565b61204d613095565b73ffffffffffffffffffffffffffffffffffffffff1661206b612144565b73ffffffffffffffffffffffffffffffffffffffff16146120c1576040517f08c379a00000000000000000000000000000000000000000000000000000000081526004016120b89061563b565b60405180910390fd5b8260168190555081601781905550806018819055506018546017546016546120e99190615868565b6120f39190615868565b6015819055506019601554111561213f576040517f08c379a000000000000000000000000000000000000000000000000000000000815260040161213690615c63565b60405180910390fd5b505050565b6000600560009054906101000a900473ffffffffffffffffffffffffffffffffffffffff16905090565b600a60009054906101000a900473ffffffffffffffffffffffffffffffffffffffff1681565b601a5481565b6121a2613095565b73ffffffffffffffffffffffffffffffffffffffff166121c0612144565b73ffffffffffffffffffffffffffffffffffffffff1614612216576040517f08c379a000000000000000000000000000000000000000000000000000000000815260040161220d9061563b565b60405180910390fd5b80600f60026101000a81548160ff02191690831515021790555050565b61223b613095565b73ffffffffffffffffffffffffffffffffffffffff16612259612144565b73ffffffffffffffffffffffffffffffffffffffff16146122af576040517f08c379a00000000000000000000000000000000000000000000000000000000081526004016122a69061563b565b60405180910390fd5b600b60009054906101000a900473ffffffffffffffffffffffffffffffffffffffff1673ffffffffffffffffffffffffffffffffffffffff168173ffffffffffffffffffffffffffffffffffffffff167f6080503d1da552ae8eb4b7b8a20245d9fabed014180510e7d1a05ea08fdb0f3e60405160405180910390a380600b60006101000a81548173ffffffffffffffffffffffffffffffffffffffff021916908373ffffffffffffffffffffffffffffffffffffffff16021790555050565b6060600f60019054906101000a900460ff1661238a57600080fd5b6123926146e2565b905090565b61239f613095565b73ffffffffffffffffffffffffffffffffffffffff166123bd612144565b73ffffffffffffffffffffffffffffffffffffffff1614612413576040517f08c379a000000000000000000000000000000000000000000000000000000000815260040161240a9061563b565b60405180910390fd5b600760009054906101000a900473ffffffffffffffffffffffffffffffffffffffff1673ffffffffffffffffffffffffffffffffffffffff168273ffffffffffffffffffffffffffffffffffffffff1614156124a4576040517f08c379a000000000000000000000000000000000000000000000000000000000815260040161249b90615cf5565b60405180910390fd5b6124ae828261427d565b5050565b60185481565b601f5481565b601c5481565b600080600160006124d3613095565b73ffffffffffffffffffffffffffffffffffffffff1673ffffffffffffffffffffffffffffffffffffffff16815260200190815260200160002060008573ffffffffffffffffffffffffffffffffffffffff1673ffffffffffffffffffffffffffffffffffffffff16815260200190815260200160002054905082811015612590576040517f08c379a000000000000000000000000000000000000000000000000000000000815260040161258790615d87565b60405180910390fd5b6125a461259b613095565b8585840361309d565b600191505092915050565b60006125c36125bc613095565b8484613272565b6001905092915050565b6125d5613095565b73ffffffffffffffffffffffffffffffffffffffff166125f3612144565b73ffffffffffffffffffffffffffffffffffffffff1614612649576040517f08c379a00000000000000000000000000000000000000000000000000000000081526004016126409061563b565b60405180910390fd5b600960009054906101000a900473ffffffffffffffffffffffffffffffffffffffff1673ffffffffffffffffffffffffffffffffffffffff168173ffffffffffffffffffffffffffffffffffffffff167f8616c7a330e3cf61290821331585511f1e2778171e2b005fb5ec60cfe874dc6760405160405180910390a380600960006101000a81548173ffffffffffffffffffffffffffffffffffffffff021916908373ffffffffffffffffffffffffffffffffffffffff16021790555050565b60226020528060005260406000206000915054906101000a900460ff1681565b600f60019054906101000a900460ff1681565b612744613095565b73ffffffffffffffffffffffffffffffffffffffff16612762612144565b73ffffffffffffffffffffffffffffffffffffffff16146127b8576040517f08c379a00000000000000000000000000000000000000000000000000000000081526004016127af9061563b565b60405180910390fd5b80602060008473ffffffffffffffffffffffffffffffffffffffff1673ffffffffffffffffffffffffffffffffffffffff16815260200190815260200160002060006101000a81548160ff0219169083151502179055508173ffffffffffffffffffffffffffffffffffffffff167f9d8f7706ea1113d1a167b526eca956215946dd36cc7df39eb16180222d8b5df7826040516128559190615011565b60405180910390a25050565b612869613095565b73ffffffffffffffffffffffffffffffffffffffff16612887612144565b73ffffffffffffffffffffffffffffffffffffffff16146128dd576040517f08c379a00000000000000000000000000000000000000000000000000000000081526004016128d49061563b565b60405180910390fd5b82601a8190555081601b8190555080601c81905550601c54601b54601a546129059190615868565b61290f9190615868565b60198190555060198054111561295a576040517f08c379a000000000000000000000000000000000000000000000000000000000815260040161295190615e19565b60405180910390fd5b505050565b601460009054906101000a900460ff1681565b600c5481565b6000612982613095565b73ffffffffffffffffffffffffffffffffffffffff166129a0612144565b73ffffffffffffffffffffffffffffffffffffffff16146129f6576040517f08c379a00000000000000000000000000000000000000000000000000000000081526004016129ed9061563b565b60405180910390fd5b620186a06001612a04610f73565b612a0e919061568a565b612a189190615713565b821015612a5a576040517f08c379a0000000000000000000000000000000000000000000000000000000008152600401612a5190615eab565b60405180910390fd5b6103e86005612a67610f73565b612a71919061568a565b612a7b9190615713565b821115612abd576040517f08c379a0000000000000000000000000000000000000000000000000000000008152600401612ab490615f3d565b60405180910390fd5b81600d8190555060019050919050565b600b60009054906101000a900473ffffffffffffffffffffffffffffffffffffffff1681565b60155481565b6000600160008473ffffffffffffffffffffffffffffffffffffffff1673ffffffffffffffffffffffffffffffffffffffff16815260200190815260200160002060008373ffffffffffffffffffffffffffffffffffffffff1673ffffffffffffffffffffffffffffffffffffffff16815260200190815260200160002054905092915050565b600d5481565b612b8e613095565b73ffffffffffffffffffffffffffffffffffffffff16612bac612144565b73ffffffffffffffffffffffffffffffffffffffff1614612c02576040517f08c379a0000000000000000000000000000000000000000000000000000000008152600401612bf99061563b565b60405180910390fd5b600047905060008273ffffffffffffffffffffffffffffffffffffffff1682604051612c2d90615f8e565b60006040518083038185875af1925050503d8060008114612c6a576040519150601f19603f3d011682016040523d82523d6000602084013e612c6f565b606091505b5050905080612cb3576040517f08c379a0000000000000000000000000000000000000000000000000000000008152600401612caa90616015565b60405180910390fd5b505050565b6000612cc2613095565b73ffffffffffffffffffffffffffffffffffffffff16612ce0612144565b73ffffffffffffffffffffffffffffffffffffffff1614612d36576040517f08c379a0000000000000000000000000000000000000000000000000000000008152600401612d2d9061563b565b60405180910390fd5b6000601460006101000a81548160ff0219169083151502179055506001905090565b60175481565b612d66613095565b73ffffffffffffffffffffffffffffffffffffffff16612d84612144565b73ffffffffffffffffffffffffffffffffffffffff1614612dda576040517f08c379a0000000000000000000000000000000000000000000000000000000008152600401612dd19061563b565b60405180910390fd5b600073ffffffffffffffffffffffffffffffffffffffff168173ffffffffffffffffffffffffffffffffffffffff161415612e4a576040517f08c379a0000000000000000000000000000000000000000000000000000000008152600401612e41906160a7565b60405180910390fd5b612e538161461c565b50565b6000612e60613095565b73ffffffffffffffffffffffffffffffffffffffff16612e7e612144565b73ffffffffffffffffffffffffffffffffffffffff1614612ed4576040517f08c379a0000000000000000000000000000000000000000000000000000000008152600401612ecb9061563b565b60405180910390fd5b60008373ffffffffffffffffffffffffffffffffffffffff166370a08231306040518263ffffffff1660e01b8152600401612f0f91906151c3565b60206040518083038186803b158015612f2757600080fd5b505afa158015612f3b573d6000803e3d6000fd5b505050506040513d601f19601f82011682018060405250810190612f5f91906160dc565b90508373ffffffffffffffffffffffffffffffffffffffff1663a9059cbb84836040518363ffffffff1660e01b8152600401612f9c929190616109565b602060405180830381600087803b158015612fb657600080fd5b505af1158015612fca573d6000803e3d6000fd5b505050506040513d601f19601f82011682018060405250810190612fee9190616147565b91505092915050565b601b5481565b600e5481565b606060038054613012906161a3565b80601f016020809104026020016040519081016040528092919081815260200182805461303e906161a3565b801561308b5780601f106130605761010080835404028352916020019161308b565b820191906000526020600020905b81548152906001019060200180831161306e57829003601f168201915b5050505050905090565b600033905090565b600073ffffffffffffffffffffffffffffffffffffffff168373ffffffffffffffffffffffffffffffffffffffff16141561310d576040517f08c379a000000000000000000000000000000000000000000000000000000000815260040161310490616247565b60405180910390fd5b600073ffffffffffffffffffffffffffffffffffffffff168273ffffffffffffffffffffffffffffffffffffffff16141561317d576040517f08c379a0000000000000000000000000000000000000000000000000000000008152600401613174906162d9565b60405180910390fd5b80600160008573ffffffffffffffffffffffffffffffffffffffff1673ffffffffffffffffffffffffffffffffffffffff16815260200190815260200160002060008473ffffffffffffffffffffffffffffffffffffffff1673ffffffffffffffffffffffffffffffffffffffff168152602001908152602001600020819055508173ffffffffffffffffffffffffffffffffffffffff168373ffffffffffffffffffffffffffffffffffffffff167f8c5be1e5ebec7d5bd14f71427d1e84f3dd0314c0f7b2291e5b200ac8c7c3b9258360405161325b919061510f565b60405180910390a3505050565b6000600254905090565b600073ffffffffffffffffffffffffffffffffffffffff168373ffffffffffffffffffffffffffffffffffffffff1614156132e2576040517f08c379a00000000000000000000000000000000000000000000000000000000081526004016132d99061636b565b60405180910390fd5b600073ffffffffffffffffffffffffffffffffffffffff168273ffffffffffffffffffffffffffffffffffffffff161415613352576040517f08c379a0000000000000000000000000000000000000000000000000000000008152600401613349906163fd565b60405180910390fd5b600081141561336c5761336783836000614774565b613f14565b600f60009054906101000a900460ff1615613a3357613389612144565b73ffffffffffffffffffffffffffffffffffffffff168373ffffffffffffffffffffffffffffffffffffffff16141580156133f757506133c7612144565b73ffffffffffffffffffffffffffffffffffffffff168273ffffffffffffffffffffffffffffffffffffffff1614155b80156134305750600073ffffffffffffffffffffffffffffffffffffffff168273ffffffffffffffffffffffffffffffffffffffff1614155b801561346a575061dead73ffffffffffffffffffffffffffffffffffffffff168273ffffffffffffffffffffffffffffffffffffffff1614155b80156134835750600760149054906101000a900460ff16155b15613a3257600f60019054906101000a900460ff1661357d57602060008473ffffffffffffffffffffffffffffffffffffffff1673ffffffffffffffffffffffffffffffffffffffff16815260200190815260200160002060009054906101000a900460ff168061353d5750602060008373ffffffffffffffffffffffffffffffffffffffff1673ffffffffffffffffffffffffffffffffffffffff16815260200190815260200160002060009054906101000a900460ff165b61357c576040517f08c379a000000000000000000000000000000000000000000000000000000000815260040161357390616469565b60405180910390fd5b5b601460009054906101000a900460ff16156137495761359a612144565b73ffffffffffffffffffffffffffffffffffffffff168273ffffffffffffffffffffffffffffffffffffffff16141580156136235750600660009054906101000a900473ffffffffffffffffffffffffffffffffffffffff1673ffffffffffffffffffffffffffffffffffffffff168273ffffffffffffffffffffffffffffffffffffffff1614155b801561367d5750600760009054906101000a900473ffffffffffffffffffffffffffffffffffffffff1673ffffffffffffffffffffffffffffffffffffffff168273ffffffffffffffffffffffffffffffffffffffff1614155b156137485743601160003273ffffffffffffffffffffffffffffffffffffffff1673ffffffffffffffffffffffffffffffffffffffff1681526020019081526020016000205410613703576040517f08c379a00000000000000000000000000000000000000000000000000000000081526004016136fa90616521565b60405180910390fd5b43601160003273ffffffffffffffffffffffffffffffffffffffff1673ffffffffffffffffffffffffffffffffffffffff168152602001908152602001600020819055505b5b602260008473ffffffffffffffffffffffffffffffffffffffff1673ffffffffffffffffffffffffffffffffffffffff16815260200190815260200160002060009054906101000a900460ff1680156137ec5750602160008373ffffffffffffffffffffffffffffffffffffffff1673ffffffffffffffffffffffffffffffffffffffff16815260200190815260200160002060009054906101000a900460ff16155b1561389357600c54811115613836576040517f08c379a000000000000000000000000000000000000000000000000000000000815260040161382d906165b3565b60405180910390fd5b600e5461384283611d96565b8261384d9190615868565b111561388e576040517f08c379a00000000000000000000000000000000000000000000000000000000081526004016138859061661f565b60405180910390fd5b613a31565b602260008373ffffffffffffffffffffffffffffffffffffffff1673ffffffffffffffffffffffffffffffffffffffff16815260200190815260200160002060009054906101000a900460ff1680156139365750602160008473ffffffffffffffffffffffffffffffffffffffff1673ffffffffffffffffffffffffffffffffffffffff16815260200190815260200160002060009054906101000a900460ff16155b1561398557600c54811115613980576040517f08c379a0000000000000000000000000000000000000000000000000000000008152600401613977906166b1565b60405180910390fd5b613a30565b602160008373ffffffffffffffffffffffffffffffffffffffff1673ffffffffffffffffffffffffffffffffffffffff16815260200190815260200160002060009054906101000a900460ff16613a2f57600e546139e283611d96565b826139ed9190615868565b1115613a2e576040517f08c379a0000000000000000000000000000000000000000000000000000000008152600401613a259061661f565b60405180910390fd5b5b5b5b5b5b6000613a3e30611d96565b90506000600d548210159050808015613a635750600f60029054906101000a900460ff165b8015613a7c5750600760149054906101000a900460ff16155b8015613ad25750602260008673ffffffffffffffffffffffffffffffffffffffff1673ffffffffffffffffffffffffffffffffffffffff16815260200190815260200160002060009054906101000a900460ff16155b8015613b285750602060008673ffffffffffffffffffffffffffffffffffffffff1673ffffffffffffffffffffffffffffffffffffffff16815260200190815260200160002060009054906101000a900460ff16155b8015613b7e5750602060008573ffffffffffffffffffffffffffffffffffffffff1673ffffffffffffffffffffffffffffffffffffffff16815260200190815260200160002060009054906101000a900460ff16155b15613bc2576001600760146101000a81548160ff021916908315150217905550613ba6613f22565b6000600760146101000a81548160ff0219169083151502179055505b6000600760149054906101000a900460ff16159050602060008773ffffffffffffffffffffffffffffffffffffffff1673ffffffffffffffffffffffffffffffffffffffff16815260200190815260200160002060009054906101000a900460ff1680613c785750602060008673ffffffffffffffffffffffffffffffffffffffff1673ffffffffffffffffffffffffffffffffffffffff16815260200190815260200160002060009054906101000a900460ff165b15613c8257600090505b60008115613efb57602260008773ffffffffffffffffffffffffffffffffffffffff1673ffffffffffffffffffffffffffffffffffffffff16815260200190815260200160002060009054906101000a900460ff168015613ce557506000601954115b15613db257613d126064613d04601954886149f590919063ffffffff16565b614a0b90919063ffffffff16565b9050601954601b5482613d25919061568a565b613d2f9190615713565b601e6000828254613d409190615868565b92505081905550601954601c5482613d58919061568a565b613d629190615713565b601f6000828254613d739190615868565b92505081905550601954601a5482613d8b919061568a565b613d959190615713565b601d6000828254613da69190615868565b92505081905550613ed7565b602260008873ffffffffffffffffffffffffffffffffffffffff1673ffffffffffffffffffffffffffffffffffffffff16815260200190815260200160002060009054906101000a900460ff168015613e0d57506000601554115b15613ed657613e3a6064613e2c601554886149f590919063ffffffff16565b614a0b90919063ffffffff16565b905060155460175482613e4d919061568a565b613e579190615713565b601e6000828254613e689190615868565b9250508190555060155460185482613e80919061568a565b613e8a9190615713565b601f6000828254613e9b9190615868565b9250508190555060155460165482613eb3919061568a565b613ebd9190615713565b601d6000828254613ece9190615868565b925050819055505b5b6000811115613eec57613eeb873083614774565b5b8085613ef89190615a93565b94505b613f06878787614774565b613f0f87614a21565b505050505b505050565b60006012905090565b6000613f2d30611d96565b90506000601f54601d54601e54613f449190615868565b613f4e9190615868565b90506000821480613f5f5750600081145b15613f6b57505061427b565b6000600282601e5485613f7e919061568a565b613f889190615713565b613f929190615713565b90506000613fa98285614be190919063ffffffff16565b90506000479050613fb982614bf7565b6000613fce8247614be190919063ffffffff16565b90506000613ff986613feb601d54856149f590919063ffffffff16565b614a0b90919063ffffffff16565b9050600061402487614016601f54866149f590919063ffffffff16565b614a0b90919063ffffffff16565b905060008183856140359190615a93565b61403f9190615a93565b90506000601e819055506000601d819055506000601f819055506000600960009054906101000a900473ffffffffffffffffffffffffffffffffffffffff1673ffffffffffffffffffffffffffffffffffffffff16846040516140a190615f8e565b60006040518083038185875af1925050503d80600081146140de576040519150601f19603f3d011682016040523d82523d6000602084013e6140e3565b606091505b50509050600a60009054906101000a900473ffffffffffffffffffffffffffffffffffffffff1673ffffffffffffffffffffffffffffffffffffffff168360405161412d90615f8e565b60006040518083038185875af1925050503d806000811461416a576040519150601f19603f3d011682016040523d82523d6000602084013e61416f565b606091505b5050809150506000881180156141855750600082115b156141d257614194888361447e565b7f17bbfb9a6069321b6ded73bd96327c9e6b7212a5cd51ff219cd61370acafb5618783601e546040516141c9939291906166d1565b60405180910390a15b670de0b6b3a7640000471061427057600960009054906101000a900473ffffffffffffffffffffffffffffffffffffffff1673ffffffffffffffffffffffffffffffffffffffff164760405161422790615f8e565b60006040518083038185875af1925050503d8060008114614264576040519150601f19603f3d011682016040523d82523d6000602084013e614269565b606091505b5050809150505b505050505050505050505b565b80602260008473ffffffffffffffffffffffffffffffffffffffff1673ffffffffffffffffffffffffffffffffffffffff16815260200190815260200160002060006101000a81548160ff0219169083151502179055508015158273ffffffffffffffffffffffffffffffffffffffff167fffa9187bf1f18bf477bd0ea1bcbb64e93b6a98132473929edfce215cd9b16fab60405160405180910390a35050565b600073ffffffffffffffffffffffffffffffffffffffff168273ffffffffffffffffffffffffffffffffffffffff16141561438e576040517f08c379a000000000000000000000000000000000000000000000000000000000815260040161438590616754565b60405180910390fd5b61439a60008383614e49565b80600260008282546143ac9190615868565b92505081905550806000808473ffffffffffffffffffffffffffffffffffffffff1673ffffffffffffffffffffffffffffffffffffffff16815260200190815260200160002060008282546144019190615868565b925050819055508173ffffffffffffffffffffffffffffffffffffffff16600073ffffffffffffffffffffffffffffffffffffffff167fddf252ad1be2c89b69c2b068fc378daa952ba7f163c4a11628f55a4df523b3ef83604051614466919061510f565b60405180910390a361447a60008383614e4e565b5050565b6144ab30600660009054906101000a900473ffffffffffffffffffffffffffffffffffffffff168461309d565b600660009054906101000a900473ffffffffffffffffffffffffffffffffffffffff1673ffffffffffffffffffffffffffffffffffffffff1663f305d719823085600080600b60009054906101000a900473ffffffffffffffffffffffffffffffffffffffff16426040518863ffffffff1660e01b8152600401614534969594939291906167af565b6060604051808303818588803b15801561454d57600080fd5b505af1158015614561573d6000803e3d6000fd5b50505050506040513d601f19601f820116820180604052508101906145869190616810565b5050505050565b600f60019054906101000a900460ff16156145dd576040517f08c379a00000000000000000000000000000000000000000000000000000000081526004016145d49061599c565b60405180910390fd5b6001600f60016101000a81548160ff0219169083151502179055506001600f60026101000a81548160ff02191690831515021790555042600881905550565b6000600560009054906101000a900473ffffffffffffffffffffffffffffffffffffffff16905081600560006101000a81548173ffffffffffffffffffffffffffffffffffffffff021916908373ffffffffffffffffffffffffffffffffffffffff1602179055508173ffffffffffffffffffffffffffffffffffffffff168173ffffffffffffffffffffffffffffffffffffffff167f8be0079c531659141344cd1fd0a4f28419497f9722a3daafe3b4186f6b6457e060405160405180910390a35050565b6060600480546146f1906161a3565b80601f016020809104026020016040519081016040528092919081815260200182805461471d906161a3565b801561476a5780601f1061473f5761010080835404028352916020019161476a565b820191906000526020600020905b81548152906001019060200180831161474d57829003601f168201915b5050505050905090565b600073ffffffffffffffffffffffffffffffffffffffff168373ffffffffffffffffffffffffffffffffffffffff1614156147e4576040517f08c379a00000000000000000000000000000000000000000000000000000000081526004016147db9061636b565b60405180910390fd5b600073ffffffffffffffffffffffffffffffffffffffff168273ffffffffffffffffffffffffffffffffffffffff161415614854576040517f08c379a000000000000000000000000000000000000000000000000000000000815260040161484b906163fd565b60405180910390fd5b61485f838383614e49565b60008060008573ffffffffffffffffffffffffffffffffffffffff1673ffffffffffffffffffffffffffffffffffffffff168152602001908152602001600020549050818110156148e5576040517f08c379a00000000000000000000000000000000000000000000000000000000081526004016148dc906168d5565b60405180910390fd5b8181036000808673ffffffffffffffffffffffffffffffffffffffff1673ffffffffffffffffffffffffffffffffffffffff16815260200190815260200160002081905550816000808573ffffffffffffffffffffffffffffffffffffffff1673ffffffffffffffffffffffffffffffffffffffff16815260200190815260200160002060008282546149789190615868565b925050819055508273ffffffffffffffffffffffffffffffffffffffff168473ffffffffffffffffffffffffffffffffffffffff167fddf252ad1be2c89b69c2b068fc378daa952ba7f163c4a11628f55a4df523b3ef846040516149dc919061510f565b60405180910390a36149ef848484614e4e565b50505050565b60008183614a03919061568a565b905092915050565b60008183614a199190615713565b905092915050565b6000601260008373ffffffffffffffffffffffffffffffffffffffff1673ffffffffffffffffffffffffffffffffffffffff168152602001908152602001600020541415614a6e57614bde565b60006201518060085442614a829190615a93565b614a8c9190615713565b90506000670de0b6b3a764000060135483614aa7919061568a565b614ab1919061568a565b9050601260008473ffffffffffffffffffffffffffffffffffffffff1673ffffffffffffffffffffffffffffffffffffffff16815260200190815260200160002054811115614b46576000601260008573ffffffffffffffffffffffffffffffffffffffff1673ffffffffffffffffffffffffffffffffffffffff168152602001908152602001600020819055505050614bde565b80601260008573ffffffffffffffffffffffffffffffffffffffff1673ffffffffffffffffffffffffffffffffffffffff16815260200190815260200160002054614b919190615a93565b614b9a84611d96565b1015614bdb576040517f08c379a0000000000000000000000000000000000000000000000000000000008152600401614bd290616941565b60405180910390fd5b50505b50565b60008183614bef9190615a93565b905092915050565b6000600267ffffffffffffffff811115614c1457614c136151e3565b5b604051908082528060200260200182016040528015614c425781602001602082028036833780820191505090505b5090503081600081518110614c5a57614c59615ac7565b5b602002602001019073ffffffffffffffffffffffffffffffffffffffff16908173ffffffffffffffffffffffffffffffffffffffff1681525050600660009054906101000a900473ffffffffffffffffffffffffffffffffffffffff1673ffffffffffffffffffffffffffffffffffffffff1663ad5c46486040518163ffffffff1660e01b815260040160206040518083038186803b158015614cfc57600080fd5b505afa158015614d10573d6000803e3d6000fd5b505050506040513d601f19601f82011682018060405250810190614d349190615a3d565b81600181518110614d4857614d47615ac7565b5b602002602001019073ffffffffffffffffffffffffffffffffffffffff16908173ffffffffffffffffffffffffffffffffffffffff1681525050614daf30600660009054906101000a900473ffffffffffffffffffffffffffffffffffffffff168461309d565b600660009054906101000a900473ffffffffffffffffffffffffffffffffffffffff1673ffffffffffffffffffffffffffffffffffffffff1663791ac9478360008430426040518663ffffffff1660e01b8152600401614e13959493929190616a1f565b600060405180830381600087803b158015614e2d57600080fd5b505af1158015614e41573d6000803e3d6000fd5b505050505050565b505050565b505050565b600081519050919050565b600082825260208201905092915050565b60005b83811015614e8d578082015181840152602081019050614e72565b83811115614e9c576000848401525b50505050565b6000601f19601f8301169050919050565b6000614ebe82614e53565b614ec88185614e5e565b9350614ed8818560208601614e6f565b614ee181614ea2565b840191505092915050565b60006020820190508181036000830152614f068184614eb3565b905092915050565b6000604051905090565b600080fd5b600080fd5b600073ffffffffffffffffffffffffffffffffffffffff82169050919050565b6000614f4d82614f22565b9050919050565b614f5d81614f42565b8114614f6857600080fd5b50565b600081359050614f7a81614f54565b92915050565b6000819050919050565b614f9381614f80565b8114614f9e57600080fd5b50565b600081359050614fb081614f8a565b92915050565b60008060408385031215614fcd57614fcc614f18565b5b6000614fdb85828601614f6b565b9250506020614fec85828601614fa1565b9150509250929050565b60008115159050919050565b61500b81614ff6565b82525050565b60006020820190506150266000830184615002565b92915050565b60006020828403121561504257615041614f18565b5b600061505084828501614fa1565b91505092915050565b60006020828403121561506f5761506e614f18565b5b600061507d84828501614f6b565b91505092915050565b6000819050919050565b60006150ab6150a66150a184614f22565b615086565b614f22565b9050919050565b60006150bd82615090565b9050919050565b60006150cf826150b2565b9050919050565b6150df816150c4565b82525050565b60006020820190506150fa60008301846150d6565b92915050565b61510981614f80565b82525050565b60006020820190506151246000830184615100565b92915050565b60008060006060848603121561514357615142614f18565b5b600061515186828701614f6b565b935050602061516286828701614f6b565b925050604061517386828701614fa1565b9150509250925092565b600060ff82169050919050565b6151938161517d565b82525050565b60006020820190506151ae600083018461518a565b92915050565b6151bd81614f42565b82525050565b60006020820190506151d860008301846151b4565b92915050565b600080fd5b7f4e487b7100000000000000000000000000000000000000000000000000000000600052604160045260246000fd5b61521b82614ea2565b810181811067ffffffffffffffff8211171561523a576152396151e3565b5b80604052505050565b600061524d614f0e565b90506152598282615212565b919050565b600067ffffffffffffffff821115615279576152786151e3565b5b602082029050602081019050919050565b600080fd5b60006152a261529d8461525e565b615243565b905080838252602082019050602084028301858111156152c5576152c461528a565b5b835b818110156152ee57806152da8882614f6b565b8452602084019350506020810190506152c7565b5050509392505050565b600082601f83011261530d5761530c6151de565b5b813561531d84826020860161528f565b91505092915050565b600067ffffffffffffffff821115615341576153406151e3565b5b602082029050602081019050919050565b600061536561536084615326565b615243565b905080838252602082019050602084028301858111156153885761538761528a565b5b835b818110156153b1578061539d8882614fa1565b84526020840193505060208101905061538a565b5050509392505050565b600082601f8301126153d0576153cf6151de565b5b81356153e0848260208601615352565b91505092915050565b600080600080600080600060e0888a03121561540857615407614f18565b5b60006154168a828b01614f6b565b97505060206154278a828b01614f6b565b96505060406154388a828b01614fa1565b95505060606154498a828b01614fa1565b945050608061545a8a828b01614fa1565b93505060a088013567ffffffffffffffff81111561547b5761547a614f1d565b5b6154878a828b016152f8565b92505060c088013567ffffffffffffffff8111156154a8576154a7614f1d565b5b6154b48a828b016153bb565b91505092959891949750929550565b6154cc81614ff6565b81146154d757600080fd5b50565b6000813590506154e9816154c3565b92915050565b6000806040838503121561550657615505614f18565b5b600061551485828601614f6b565b9250506020615525858286016154da565b9150509250929050565b60008060006060848603121561554857615547614f18565b5b600061555686828701614fa1565b935050602061556786828701614fa1565b925050604061557886828701614fa1565b9150509250925092565b60006020828403121561559857615597614f18565b5b60006155a6848285016154da565b91505092915050565b600080604083850312156155c6576155c5614f18565b5b60006155d485828601614f6b565b92505060206155e585828601614f6b565b9150509250929050565b7f4f776e61626c653a2063616c6c6572206973206e6f7420746865206f776e6572600082015250565b6000615625602083614e5e565b9150615630826155ef565b602082019050919050565b6000602082019050818103600083015261565481615618565b9050919050565b7f4e487b7100000000000000000000000000000000000000000000000000000000600052601160045260246000fd5b600061569582614f80565b91506156a083614f80565b9250817fffffffffffffffffffffffffffffffffffffffffffffffffffffffffffffffff04831182151516156156d9576156d861565b565b5b828202905092915050565b7f4e487b7100000000000000000000000000000000000000000000000000000000600052601260045260246000fd5b600061571e82614f80565b915061572983614f80565b925082615739576157386156e4565b5b828204905092915050565b7f43616e6e6f7420736574206d61785472616e73616374696f6e416d6f756e742060008201527f6c6f776572207468616e20302e35250000000000000000000000000000000000602082015250565b60006157a0602f83614e5e565b91506157ab82615744565b604082019050919050565b600060208201905081810360008301526157cf81615793565b9050919050565b7f45524332303a207472616e7366657220616d6f756e742065786365656473206160008201527f6c6c6f77616e6365000000000000000000000000000000000000000000000000602082015250565b6000615832602883614e5e565b915061583d826157d6565b604082019050919050565b6000602082019050818103600083015261586181615825565b9050919050565b600061587382614f80565b915061587e83614f80565b9250827fffffffffffffffffffffffffffffffffffffffffffffffffffffffffffffffff038211156158b3576158b261565b565b5b828201905092915050565b7f43616e206f6e6c792073776170206261636b206966206d6f7265207468616e2060008201527f3125206f6620746f6b656e7320737475636b206f6e20636f6e74726163740000602082015250565b600061591a603e83614e5e565b9150615925826158be565b604082019050919050565b600060208201905081810360008301526159498161590d565b9050919050565b7f54726164696e6720697320616c726561647920656e61626c6564000000000000600082015250565b6000615986601a83614e5e565b915061599182615950565b602082019050919050565b600060208201905081810360008301526159b581615979565b9050919050565b7f496e76616c696420617267756d656e7473000000000000000000000000000000600082015250565b60006159f2601183614e5e565b91506159fd826159bc565b602082019050919050565b60006020820190508181036000830152615a21816159e5565b9050919050565b600081519050615a3781614f54565b92915050565b600060208284031215615a5357615a52614f18565b5b6000615a6184828501615a28565b91505092915050565b6000604082019050615a7f60008301856151b4565b615a8c60208301846151b4565b9392505050565b6000615a9e82614f80565b9150615aa983614f80565b925082821015615abc57615abb61565b565b5b828203905092915050565b7f4e487b7100000000000000000000000000000000000000000000000000000000600052603260045260246000fd5b7f61697264726f70206475706c6963617465640000000000000000000000000000600082015250565b6000615b2c601283614e5e565b9150615b3782615af6565b602082019050919050565b60006020820190508181036000830152615b5b81615b1f565b9050919050565b6000615b6d82614f80565b91507fffffffffffffffffffffffffffffffffffffffffffffffffffffffffffffffff821415615ba057615b9f61565b565b5b600182019050919050565b7f57726f6e672061697264726f7020616d6f756e74000000000000000000000000600082015250565b6000615be1601483614e5e565b9150615bec82615bab565b602082019050919050565b60006020820190508181036000830152615c1081615bd4565b9050919050565b7f43616e6e6f74207365742062757920666565206d6f7265207468616e20323525600082015250565b6000615c4d602083614e5e565b9150615c5882615c17565b602082019050919050565b60006020820190508181036000830152615c7c81615c40565b9050919050565b7f54686520706169722063616e6e6f742062652072656d6f7665642066726f6d2060008201527f6175746f6d617465644d61726b65744d616b6572506169727300000000000000602082015250565b6000615cdf603983614e5e565b9150615cea82615c83565b604082019050919050565b60006020820190508181036000830152615d0e81615cd2565b9050919050565b7f45524332303a2064656372656173656420616c6c6f77616e63652062656c6f7760008201527f207a65726f000000000000000000000000000000000000000000000000000000602082015250565b6000615d71602583614e5e565b9150615d7c82615d15565b604082019050919050565b60006020820190508181036000830152615da081615d64565b9050919050565b7f43616e6e6f74207365742073656c6c20666565206d6f7265207468616e20323560008201527f2500000000000000000000000000000000000000000000000000000000000000602082015250565b6000615e03602183614e5e565b9150615e0e82615da7565b604082019050919050565b60006020820190508181036000830152615e3281615df6565b9050919050565b7f5377617020616d6f756e742063616e6e6f74206265206c6f776572207468616e60008201527f20302e3030312520746f74616c20737570706c792e0000000000000000000000602082015250565b6000615e95603583614e5e565b9150615ea082615e39565b604082019050919050565b60006020820190508181036000830152615ec481615e88565b9050919050565b7f5377617020616d6f756e742063616e6e6f74206265206869676865722074686160008201527f6e20302e352520746f74616c20737570706c792e000000000000000000000000602082015250565b6000615f27603483614e5e565b9150615f3282615ecb565b604082019050919050565b60006020820190508181036000830152615f5681615f1a565b9050919050565b600081905092915050565b50565b6000615f78600083615f5d565b9150615f8382615f68565b600082019050919050565b6000615f9982615f6b565b9150819050919050565b7f416464726573733a20756e61626c6520746f2073656e642076616c75652c207260008201527f6563697069656e74206d61792068617665207265766572746564000000000000602082015250565b6000615fff603a83614e5e565b915061600a82615fa3565b604082019050919050565b6000602082019050818103600083015261602e81615ff2565b9050919050565b7f4f776e61626c653a206e6577206f776e657220697320746865207a65726f206160008201527f6464726573730000000000000000000000000000000000000000000000000000602082015250565b6000616091602683614e5e565b915061609c82616035565b604082019050919050565b600060208201905081810360008301526160c081616084565b9050919050565b6000815190506160d681614f8a565b92915050565b6000602082840312156160f2576160f1614f18565b5b6000616100848285016160c7565b91505092915050565b600060408201905061611e60008301856151b4565b61612b6020830184615100565b9392505050565b600081519050616141816154c3565b92915050565b60006020828403121561615d5761615c614f18565b5b600061616b84828501616132565b91505092915050565b7f4e487b7100000000000000000000000000000000000000000000000000000000600052602260045260246000fd5b600060028204905060018216806161bb57607f821691505b602082108114156161cf576161ce616174565b5b50919050565b7f45524332303a20617070726f76652066726f6d20746865207a65726f2061646460008201527f7265737300000000000000000000000000000000000000000000000000000000602082015250565b6000616231602483614e5e565b915061623c826161d5565b604082019050919050565b6000602082019050818103600083015261626081616224565b9050919050565b7f45524332303a20617070726f766520746f20746865207a65726f20616464726560008201527f7373000000000000000000000000000000000000000000000000000000000000602082015250565b60006162c3602283614e5e565b91506162ce82616267565b604082019050919050565b600060208201905081810360008301526162f2816162b6565b9050919050565b7f45524332303a207472616e736665722066726f6d20746865207a65726f20616460008201527f6472657373000000000000000000000000000000000000000000000000000000602082015250565b6000616355602583614e5e565b9150616360826162f9565b604082019050919050565b6000602082019050818103600083015261638481616348565b9050919050565b7f45524332303a207472616e7366657220746f20746865207a65726f206164647260008201527f6573730000000000000000000000000000000000000000000000000000000000602082015250565b60006163e7602383614e5e565b91506163f28261638b565b604082019050919050565b60006020820190508181036000830152616416816163da565b9050919050565b7f54726164696e67206973206e6f74206163746976652e00000000000000000000600082015250565b6000616453601683614e5e565b915061645e8261641d565b602082019050919050565b6000602082019050818103600083015261648281616446565b9050919050565b7f5f7472616e736665723a3a205472616e736665722044656c617920656e61626c60008201527f65642e20204f6e6c79206f6e652070757263686173652070657220626c6f636b60208201527f20616c6c6f7765642e0000000000000000000000000000000000000000000000604082015250565b600061650b604983614e5e565b915061651682616489565b606082019050919050565b6000602082019050818103600083015261653a816164fe565b9050919050565b7f427579207472616e7366657220616d6f756e742065786365656473207468652060008201527f6d61785472616e73616374696f6e416d6f756e742e0000000000000000000000602082015250565b600061659d603583614e5e565b91506165a882616541565b604082019050919050565b600060208201905081810360008301526165cc81616590565b9050919050565b7f4d61782077616c6c657420657863656564656400000000000000000000000000600082015250565b6000616609601383614e5e565b9150616614826165d3565b602082019050919050565b60006020820190508181036000830152616638816165fc565b9050919050565b7f53656c6c207472616e7366657220616d6f756e7420657863656564732074686560008201527f206d61785472616e73616374696f6e416d6f756e742e00000000000000000000602082015250565b600061669b603683614e5e565b91506166a68261663f565b604082019050919050565b600060208201905081810360008301526166ca8161668e565b9050919050565b60006060820190506166e66000830186615100565b6166f36020830185615100565b6167006040830184615100565b949350505050565b7f45524332303a206d696e7420746f20746865207a65726f206164647265737300600082015250565b600061673e601f83614e5e565b915061674982616708565b602082019050919050565b6000602082019050818103600083015261676d81616731565b9050919050565b6000819050919050565b600061679961679461678f84616774565b615086565b614f80565b9050919050565b6167a98161677e565b82525050565b600060c0820190506167c460008301896151b4565b6167d16020830188615100565b6167de60408301876167a0565b6167eb60608301866167a0565b6167f860808301856151b4565b61680560a0830184615100565b979650505050505050565b60008060006060848603121561682957616828614f18565b5b6000616837868287016160c7565b9350506020616848868287016160c7565b9250506040616859868287016160c7565b9150509250925092565b7f45524332303a207472616e7366657220616d6f756e742065786365656473206260008201527f616c616e63650000000000000000000000000000000000000000000000000000602082015250565b60006168bf602683614e5e565b91506168ca82616863565b604082019050919050565b600060208201905081810360008301526168ee816168b2565b9050919050565b7f56657374696e6720706572696f64206973206e6f7420656e6465642079657400600082015250565b600061692b601f83614e5e565b9150616936826168f5565b602082019050919050565b6000602082019050818103600083015261695a8161691e565b9050919050565b600081519050919050565b600082825260208201905092915050565b6000819050602082019050919050565b61699681614f42565b82525050565b60006169a8838361698d565b60208301905092915050565b6000602082019050919050565b60006169cc82616961565b6169d6818561696c565b93506169e18361697d565b8060005b83811015616a125781516169f9888261699c565b9750616a04836169b4565b9250506001810190506169e5565b5085935050505092915050565b600060a082019050616a346000830188615100565b616a4160208301876167a0565b8181036040830152616a5381866169c1565b9050616a6260608301856151b4565b616a6f6080830184615100565b969550505050505056fea2646970667358221220a5c9f4606a09e747de55867989b1cbab7439fbba8e37ef58e30c4ba1ed81967964736f6c63430008090033",
  "linkReferences": {},
  "deployedLinkReferences": {}
}