{
  "_format": "hh-sol-artifact-1",
  "contractName": "HeroInfinityNFT",
  "sourceName": "contracts/HeroInfinityNFT.sol",
  "abi": [
    {
      "inputs": [
        {
          "internalType": "address",
          "name": "_pool",
          "type": "address"
        }
      ],
      "stateMutability": "nonpayable",
      "type": "constructor"
    },
    {
      "anonymous": false,
      "inputs": [
        {
          "indexed": true,
          "internalType": "address",
          "name": "owner",
          "type": "address"
        },
        {
          "indexed": true,
          "internalType": "address",
          "name": "approved",
          "type": "address"
        },
        {
          "indexed": true,
          "internalType": "uint256",
          "name": "tokenId",
          "type": "uint256"
        }
      ],
      "name": "Approval",
      "type": "event"
    },
    {
      "anonymous": false,
      "inputs": [
        {
          "indexed": true,
          "internalType": "address",
          "name": "owner",
          "type": "address"
        },
        {
          "indexed": true,
          "internalType": "address",
          "name": "operator",
          "type": "address"
        },
        {
          "indexed": false,
          "internalType": "bool",
          "name": "approved",
          "type": "bool"
        }
      ],
      "name": "ApprovalForAll",
      "type": "event"
    },
    {
      "anonymous": false,
      "inputs": [
        {
          "indexed": true,
          "internalType": "address",
          "name": "previousOwner",
          "type": "address"
        },
        {
          "indexed": true,
          "internalType": "address",
          "name": "newOwner",
          "type": "address"
        }
      ],
      "name": "OwnershipTransferred",
      "type": "event"
    },
    {
      "anonymous": false,
      "inputs": [
        {
          "indexed": true,
          "internalType": "address",
          "name": "from",
          "type": "address"
        },
        {
          "indexed": true,
          "internalType": "address",
          "name": "to",
          "type": "address"
        },
        {
          "indexed": true,
          "internalType": "uint256",
          "name": "tokenId",
          "type": "uint256"
        }
      ],
      "name": "Transfer",
      "type": "event"
    },
    {
      "inputs": [],
      "name": "HIGHEST_PUBLIC",
      "outputs": [
        {
          "internalType": "uint256",
          "name": "",
          "type": "uint256"
        }
      ],
      "stateMutability": "view",
      "type": "function"
    },
    {
      "inputs": [],
      "name": "HIGHEST_TEAM",
      "outputs": [
        {
          "internalType": "uint256",
          "name": "",
          "type": "uint256"
        }
      ],
      "stateMutability": "view",
      "type": "function"
    },
    {
      "inputs": [],
      "name": "MAX_PER_WALLET",
      "outputs": [
        {
          "internalType": "uint256",
          "name": "",
          "type": "uint256"
        }
      ],
      "stateMutability": "view",
      "type": "function"
    },
    {
      "inputs": [
        {
          "internalType": "address",
          "name": "to",
          "type": "address"
        },
        {
          "internalType": "uint256",
          "name": "tokenId",
          "type": "uint256"
        }
      ],
      "name": "approve",
      "outputs": [],
      "stateMutability": "nonpayable",
      "type": "function"
    },
    {
      "inputs": [
        {
          "internalType": "address",
          "name": "owner",
          "type": "address"
        }
      ],
      "name": "balanceOf",
      "outputs": [
        {
          "internalType": "uint256",
          "name": "",
          "type": "uint256"
        }
      ],
      "stateMutability": "view",
      "type": "function"
    },
    {
      "inputs": [
        {
          "internalType": "uint256",
          "name": "tokenId",
          "type": "uint256"
        }
      ],
      "name": "getApproved",
      "outputs": [
        {
          "internalType": "address",
          "name": "",
          "type": "address"
        }
      ],
      "stateMutability": "view",
      "type": "function"
    },
    {
      "inputs": [
        {
          "internalType": "address",
          "name": "owner",
          "type": "address"
        },
        {
          "internalType": "address",
          "name": "operator",
          "type": "address"
        }
      ],
      "name": "isApprovedForAll",
      "outputs": [
        {
          "internalType": "bool",
          "name": "",
          "type": "bool"
        }
      ],
      "stateMutability": "view",
      "type": "function"
    },
    {
      "inputs": [],
      "name": "isMintOpen",
      "outputs": [
        {
          "internalType": "bool",
          "name": "",
          "type": "bool"
        }
      ],
      "stateMutability": "view",
      "type": "function"
    },
    {
      "inputs": [],
      "name": "isSaleOpen",
      "outputs": [
        {
          "internalType": "bool",
          "name": "",
          "type": "bool"
        }
      ],
      "stateMutability": "view",
      "type": "function"
    },
    {
      "inputs": [
        {
          "internalType": "uint256",
          "name": "amount",
          "type": "uint256"
        }
      ],
      "name": "mint",
      "outputs": [],
      "stateMutability": "payable",
      "type": "function"
    },
    {
      "inputs": [],
      "name": "mintEndTimestamp",
      "outputs": [
        {
          "internalType": "uint256",
          "name": "",
          "type": "uint256"
        }
      ],
      "stateMutability": "view",
      "type": "function"
    },
    {
      "inputs": [
        {
          "internalType": "address",
          "name": "account",
          "type": "address"
        }
      ],
      "name": "mintPrice",
      "outputs": [
        {
          "internalType": "uint256",
          "name": "",
          "type": "uint256"
        }
      ],
      "stateMutability": "view",
      "type": "function"
    },
    {
      "inputs": [],
      "name": "mintStartTimestamp",
      "outputs": [
        {
          "internalType": "uint256",
          "name": "",
          "type": "uint256"
        }
      ],
      "stateMutability": "view",
      "type": "function"
    },
    {
      "inputs": [
        {
          "internalType": "uint256",
          "name": "amount",
          "type": "uint256"
        }
      ],
      "name": "mintTeam",
      "outputs": [],
      "stateMutability": "nonpayable",
      "type": "function"
    },
    {
      "inputs": [
        {
          "internalType": "address",
          "name": "",
          "type": "address"
        }
      ],
      "name": "mintedAmount",
      "outputs": [
        {
          "internalType": "uint256",
          "name": "",
          "type": "uint256"
        }
      ],
      "stateMutability": "view",
      "type": "function"
    },
    {
      "inputs": [
        {
          "internalType": "bytes[]",
          "name": "data",
          "type": "bytes[]"
        }
      ],
      "name": "multicall",
      "outputs": [
        {
          "internalType": "bytes[]",
          "name": "results",
          "type": "bytes[]"
        }
      ],
      "stateMutability": "nonpayable",
      "type": "function"
    },
    {
      "inputs": [],
      "name": "name",
      "outputs": [
        {
          "internalType": "string",
          "name": "",
          "type": "string"
        }
      ],
      "stateMutability": "view",
      "type": "function"
    },
    {
      "inputs": [],
      "name": "nodePool",
      "outputs": [
        {
          "internalType": "address",
          "name": "",
          "type": "address"
        }
      ],
      "stateMutability": "view",
      "type": "function"
    },
    {
      "inputs": [],
      "name": "owner",
      "outputs": [
        {
          "internalType": "address",
          "name": "",
          "type": "address"
        }
      ],
      "stateMutability": "view",
      "type": "function"
    },
    {
      "inputs": [
        {
          "internalType": "uint256",
          "name": "tokenId",
          "type": "uint256"
        }
      ],
      "name": "ownerOf",
      "outputs": [
        {
          "internalType": "address",
          "name": "",
          "type": "address"
        }
      ],
      "stateMutability": "view",
      "type": "function"
    },
    {
      "inputs": [],
      "name": "publicMintPrice",
      "outputs": [
        {
          "internalType": "uint256",
          "name": "",
          "type": "uint256"
        }
      ],
      "stateMutability": "view",
      "type": "function"
    },
    {
      "inputs": [],
      "name": "renounceOwnership",
      "outputs": [],
      "stateMutability": "nonpayable",
      "type": "function"
    },
    {
      "inputs": [
        {
          "internalType": "address",
          "name": "from",
          "type": "address"
        },
        {
          "internalType": "address",
          "name": "to",
          "type": "address"
        },
        {
          "internalType": "uint256",
          "name": "tokenId",
          "type": "uint256"
        }
      ],
      "name": "safeTransferFrom",
      "outputs": [],
      "stateMutability": "nonpayable",
      "type": "function"
    },
    {
      "inputs": [
        {
          "internalType": "address",
          "name": "from",
          "type": "address"
        },
        {
          "internalType": "address",
          "name": "to",
          "type": "address"
        },
        {
          "internalType": "uint256",
          "name": "tokenId",
          "type": "uint256"
        },
        {
          "internalType": "bytes",
          "name": "_data",
          "type": "bytes"
        }
      ],
      "name": "safeTransferFrom",
      "outputs": [],
      "stateMutability": "nonpayable",
      "type": "function"
    },
    {
      "inputs": [
        {
          "internalType": "uint256",
          "name": "amount",
          "type": "uint256"
        }
      ],
      "name": "sale",
      "outputs": [],
      "stateMutability": "payable",
      "type": "function"
    },
    {
      "inputs": [],
      "name": "saleMintPrice",
      "outputs": [
        {
          "internalType": "uint256",
          "name": "",
          "type": "uint256"
        }
      ],
      "stateMutability": "view",
      "type": "function"
    },
    {
      "inputs": [
        {
          "internalType": "address",
          "name": "operator",
          "type": "address"
        },
        {
          "internalType": "bool",
          "name": "approved",
          "type": "bool"
        }
      ],
      "name": "setApprovalForAll",
      "outputs": [],
      "stateMutability": "nonpayable",
      "type": "function"
    },
    {
      "inputs": [
        {
          "internalType": "string",
          "name": "uri",
          "type": "string"
        }
      ],
      "name": "setBaseURI",
      "outputs": [],
      "stateMutability": "nonpayable",
      "type": "function"
    },
    {
      "inputs": [
        {
          "internalType": "uint256",
          "name": "_whitelist",
          "type": "uint256"
        },
        {
          "internalType": "uint256",
          "name": "_public",
          "type": "uint256"
        },
        {
          "internalType": "uint256",
          "name": "_sale",
          "type": "uint256"
        }
      ],
      "name": "setMintPrice",
      "outputs": [],
      "stateMutability": "nonpayable",
      "type": "function"
    },
    {
      "inputs": [
        {
          "internalType": "address",
          "name": "poolAddress",
          "type": "address"
        }
      ],
      "name": "setNodePool",
      "outputs": [],
      "stateMutability": "nonpayable",
      "type": "function"
    },
    {
      "inputs": [
        {
          "internalType": "bool",
          "name": "_open",
          "type": "bool"
        }
      ],
      "name": "setReserved",
      "outputs": [],
      "stateMutability": "nonpayable",
      "type": "function"
    },
    {
      "inputs": [
        {
          "internalType": "bool",
          "name": "_open",
          "type": "bool"
        }
      ],
      "name": "setSaleOpen",
      "outputs": [],
      "stateMutability": "nonpayable",
      "type": "function"
    },
    {
      "inputs": [
        {
          "internalType": "uint256",
          "name": "_mintStartTimestamp",
          "type": "uint256"
        },
        {
          "internalType": "uint256",
          "name": "_mintEndTimestamp",
          "type": "uint256"
        }
      ],
      "name": "setTimestamps",
      "outputs": [],
      "stateMutability": "nonpayable",
      "type": "function"
    },
    {
      "inputs": [
        {
          "internalType": "bytes4",
          "name": "interfaceId",
          "type": "bytes4"
        }
      ],
      "name": "supportsInterface",
      "outputs": [
        {
          "internalType": "bool",
          "name": "",
          "type": "bool"
        }
      ],
      "stateMutability": "view",
      "type": "function"
    },
    {
      "inputs": [],
      "name": "symbol",
      "outputs": [
        {
          "internalType": "string",
          "name": "",
          "type": "string"
        }
      ],
      "stateMutability": "view",
      "type": "function"
    },
    {
      "inputs": [
        {
          "internalType": "uint256",
          "name": "index",
          "type": "uint256"
        }
      ],
      "name": "tokenByIndex",
      "outputs": [
        {
          "internalType": "uint256",
          "name": "",
          "type": "uint256"
        }
      ],
      "stateMutability": "view",
      "type": "function"
    },
    {
      "inputs": [
        {
          "internalType": "address",
          "name": "owner",
          "type": "address"
        },
        {
          "internalType": "uint256",
          "name": "index",
          "type": "uint256"
        }
      ],
      "name": "tokenOfOwnerByIndex",
      "outputs": [
        {
          "internalType": "uint256",
          "name": "",
          "type": "uint256"
        }
      ],
      "stateMutability": "view",
      "type": "function"
    },
    {
      "inputs": [
        {
          "internalType": "uint256",
          "name": "tokenId",
          "type": "uint256"
        }
      ],
      "name": "tokenURI",
      "outputs": [
        {
          "internalType": "string",
          "name": "",
          "type": "string"
        }
      ],
      "stateMutability": "view",
      "type": "function"
    },
    {
      "inputs": [],
      "name": "totalSupply",
      "outputs": [
        {
          "internalType": "uint256",
          "name": "",
          "type": "uint256"
        }
      ],
      "stateMutability": "view",
      "type": "function"
    },
    {
      "inputs": [
        {
          "internalType": "address",
          "name": "from",
          "type": "address"
        },
        {
          "internalType": "address",
          "name": "to",
          "type": "address"
        },
        {
          "internalType": "uint256",
          "name": "tokenId",
          "type": "uint256"
        }
      ],
      "name": "transferFrom",
      "outputs": [],
      "stateMutability": "nonpayable",
      "type": "function"
    },
    {
      "inputs": [
        {
          "internalType": "address",
          "name": "newOwner",
          "type": "address"
        }
      ],
      "name": "transferOwnership",
      "outputs": [],
      "stateMutability": "nonpayable",
      "type": "function"
    },
    {
      "inputs": [],
      "name": "whitelistMintPrice",
      "outputs": [
        {
          "internalType": "uint256",
          "name": "",
          "type": "uint256"
        }
      ],
      "stateMutability": "view",
      "type": "function"
    },
    {
      "inputs": [],
      "name": "withdrawETH",
      "outputs": [],
      "stateMutability": "nonpayable",
      "type": "function"
    }
  ],
  "bytecode": "0x60806040526608e1bc9bf04000600c55660c6f3b40b6c000600d55660e35fa931a0000600e556011805461ffff191690556000601255601d6013553480156200004757600080fd5b5060405162002d7238038062002d728339810160408190526200006a9162000220565b604080518082018252601381527f4865726f20496e66696e697479204361726473000000000000000000000000006020808301918252835180850190945260048452634852494360e01b908401528151919291620000cb916000916200017a565b508051620000e19060019060208401906200017a565b505050620000fe620000f86200012460201b60201c565b62000128565b600b80546001600160a01b0319166001600160a01b03929092169190911790556200028f565b3390565b600a80546001600160a01b038381166001600160a01b0319831681179093556040519116919082907f8be0079c531659141344cd1fd0a4f28419497f9722a3daafe3b4186f6b6457e090600090a35050565b828054620001889062000252565b90600052602060002090601f016020900481019282620001ac5760008555620001f7565b82601f10620001c757805160ff1916838001178555620001f7565b82800160010185558215620001f7579182015b82811115620001f7578251825591602001919060010190620001da565b506200020592915062000209565b5090565b5b808211156200020557600081556001016200020a565b6000602082840312156200023357600080fd5b81516001600160a01b03811681146200024b57600080fd5b9392505050565b600181811c908216806200026757607f821691505b602082108114156200028957634e487b7160e01b600052602260045260246000fd5b50919050565b612ad3806200029f6000396000f3fe60806040526004361061025c5760003560e01c8063715018a611610144578063af979f25116100b6578063dc53fd921161007a578063dc53fd92146106b5578063e086e5ec146106cb578063e985e9c5146106e0578063f2fde38b14610729578063fa10197714610749578063fbbf8cc31461076957600080fd5b8063af979f251461061f578063b88d4fde1461063f578063c87b56dd1461065f578063cc6ac2f51461067f578063d8f1f8f41461069557600080fd5b80639be9c50d116101085780639be9c50d1461057e5780639c14a88414610594578063a0712d68146105a9578063a0e389de146105bc578063a22cb465146105d2578063ac9650d8146105f257600080fd5b8063715018a61461050d5780637307b3d9146105225780638da5cb5b1461053857806395d89b4114610556578063960327021461056b57600080fd5b806326cea918116101dd57806335c6aaf8116101a157806335c6aaf81461045757806342842e0e1461046d5780634f6ccce71461048d57806355f804b3146104ad5780636352211e146104cd57806370a08231146104ed57600080fd5b806326cea918146103b75780632eb7c7e3146103d75780632f745c59146103f7578063319948ba14610417578063342f48aa1461043757600080fd5b806318160ddd1161022457806318160ddd14610335578063199080161461034a5780631a0813301461035f5780632142aa2c1461037757806323b872dd1461039757600080fd5b806301ffc9a71461026157806306fdde0314610296578063081812fc146102b8578063095ea7b3146102f05780630f2cdd6c14610312575b600080fd5b34801561026d57600080fd5b5061028161027c3660046122d5565b610796565b60405190151581526020015b60405180910390f35b3480156102a257600080fd5b506102ab6107c1565b60405161028d919061234a565b3480156102c457600080fd5b506102d86102d336600461235d565b610853565b6040516001600160a01b03909116815260200161028d565b3480156102fc57600080fd5b5061031061030b366004612392565b6108ed565b005b34801561031e57600080fd5b50610327600581565b60405190815260200161028d565b34801561034157600080fd5b50600854610327565b34801561035657600080fd5b50610281610a03565b34801561036b57600080fd5b5060115460ff16610281565b34801561038357600080fd5b506103276103923660046123bc565b610a3b565b3480156103a357600080fd5b506103106103b23660046123d7565b610ad8565b3480156103c357600080fd5b506103106103d23660046123bc565b610b09565b3480156103e357600080fd5b506103106103f2366004612423565b610b55565b34801561040357600080fd5b50610327610412366004612392565b610b99565b34801561042357600080fd5b5061031061043236600461243e565b610c2f565b34801561044357600080fd5b5061031061045236600461235d565b610c67565b34801561046357600080fd5b50610327600c5481565b34801561047957600080fd5b506103106104883660046123d7565b610d6c565b34801561049957600080fd5b506103276104a836600461235d565b610d87565b3480156104b957600080fd5b506103106104c83660046124f6565b610e1a565b3480156104d957600080fd5b506102d86104e836600461235d565b610e5b565b3480156104f957600080fd5b506103276105083660046123bc565b610ed2565b34801561051957600080fd5b50610310610f59565b34801561052e57600080fd5b5061032761043681565b34801561054457600080fd5b50600a546001600160a01b03166102d8565b34801561056257600080fd5b506102ab610f8f565b61031061057936600461235d565b610f9e565b34801561058a57600080fd5b50610327600e5481565b3480156105a057600080fd5b50610327601c81565b6103106105b736600461235d565b611077565b3480156105c857600080fd5b50610327600f5481565b3480156105de57600080fd5b506103106105ed36600461253f565b6110c8565b3480156105fe57600080fd5b5061061261060d366004612572565b6110d3565b60405161028d91906125e7565b34801561062b57600080fd5b5061031061063a366004612423565b6111c1565b34801561064b57600080fd5b5061031061065a366004612649565b6111fe565b34801561066b57600080fd5b506102ab61067a36600461235d565b611230565b34801561068b57600080fd5b5061032760105481565b3480156106a157600080fd5b50600b546102d8906001600160a01b031681565b3480156106c157600080fd5b50610327600d5481565b3480156106d757600080fd5b5061031061131c565b3480156106ec57600080fd5b506102816106fb3660046126c5565b6001600160a01b03918216600090815260056020908152604080832093909416825291909152205460ff1690565b34801561073557600080fd5b506103106107443660046123bc565b611372565b34801561075557600080fd5b506103106107643660046126ef565b61140a565b34801561077557600080fd5b506103276107843660046123bc565b60156020526000908152604090205481565b60006001600160e01b0319821663780e9d6360e01b14806107bb57506107bb8261148e565b92915050565b6060600080546107d090612711565b80601f01602080910402602001604051908101604052809291908181526020018280546107fc90612711565b80156108495780601f1061081e57610100808354040283529160200191610849565b820191906000526020600020905b81548152906001019060200180831161082c57829003601f168201915b5050505050905090565b6000818152600260205260408120546001600160a01b03166108d15760405162461bcd60e51b815260206004820152602c60248201527f4552433732313a20617070726f76656420717565727920666f72206e6f6e657860448201526b34b9ba32b73a103a37b5b2b760a11b60648201526084015b60405180910390fd5b506000908152600460205260409020546001600160a01b031690565b60006108f882610e5b565b9050806001600160a01b0316836001600160a01b031614156109665760405162461bcd60e51b815260206004820152602160248201527f4552433732313a20617070726f76616c20746f2063757272656e74206f776e656044820152603960f91b60648201526084016108c8565b336001600160a01b0382161480610982575061098281336106fb565b6109f45760405162461bcd60e51b815260206004820152603860248201527f4552433732313a20617070726f76652063616c6c6572206973206e6f74206f7760448201527f6e6572206e6f7220617070726f76656420666f7220616c6c000000000000000060648201526084016108c8565b6109fe83836114de565b505050565b600080600f54118015610a185750600f544210155b8015610a2657506010544211155b8015610a36575061043660135411155b905090565b600d54600b54604051633dd3264d60e21b81526001600160a01b03848116600483015260009392849291169063f74c99349060240160206040518083038186803b158015610a8857600080fd5b505afa158015610a9c573d6000803e3d6000fd5b505050506040513d601f19601f82011682018060405250810190610ac0919061274c565b90506004811115610ad157600c5491505b5092915050565b610ae2338261154c565b610afe5760405162461bcd60e51b81526004016108c890612765565b6109fe838383611643565b600a546001600160a01b03163314610b335760405162461bcd60e51b81526004016108c8906127b6565b600b80546001600160a01b0319166001600160a01b0392909216919091179055565b600a546001600160a01b03163314610b7f5760405162461bcd60e51b81526004016108c8906127b6565b601180549115156101000261ff0019909216919091179055565b6000610ba483610ed2565b8210610c065760405162461bcd60e51b815260206004820152602b60248201527f455243373231456e756d657261626c653a206f776e657220696e646578206f7560448201526a74206f6620626f756e647360a81b60648201526084016108c8565b506001600160a01b03919091166000908152600660209081526040808320938352929052205490565b600a546001600160a01b03163314610c595760405162461bcd60e51b81526004016108c8906127b6565b600c92909255600d55600e55565b600a546001600160a01b03163314610c915760405162461bcd60e51b81526004016108c8906127b6565b80610ccf5760405162461bcd60e51b815260206004820152600e60248201526d1253959053125117d05353d5539560921b60448201526064016108c8565b6012546000610cde8383612801565b9050601c610ced600183612819565b1115610d315760405162461bcd60e51b81526020600482015260136024820152721511505357d31253525517d15610d151511151606a1b60448201526064016108c8565b601281905560005b83811015610d6657610d5433610d4f8386612801565b6117ee565b80610d5e81612830565b915050610d39565b50505050565b6109fe838383604051806020016040528060008152506111fe565b6000610d9260085490565b8210610df55760405162461bcd60e51b815260206004820152602c60248201527f455243373231456e756d657261626c653a20676c6f62616c20696e646578206f60448201526b7574206f6620626f756e647360a01b60648201526084016108c8565b60088281548110610e0857610e0861284b565b90600052602060002001549050919050565b600a546001600160a01b03163314610e445760405162461bcd60e51b81526004016108c8906127b6565b8051610e57906014906020840190612226565b5050565b6000818152600260205260408120546001600160a01b0316806107bb5760405162461bcd60e51b815260206004820152602960248201527f4552433732313a206f776e657220717565727920666f72206e6f6e657869737460448201526832b73a103a37b5b2b760b91b60648201526084016108c8565b60006001600160a01b038216610f3d5760405162461bcd60e51b815260206004820152602a60248201527f4552433732313a2062616c616e636520717565727920666f7220746865207a65604482015269726f206164647265737360b01b60648201526084016108c8565b506001600160a01b031660009081526003602052604090205490565b600a546001600160a01b03163314610f835760405162461bcd60e51b81526004016108c8906127b6565b610f8d600061193c565b565b6060600180546107d090612711565b60115460ff16610fe05760405162461bcd60e51b815260206004820152600d60248201526c29a0a622afa727aa2fa7a822a760991b60448201526064016108c8565b34600e5482610fef9190612861565b1461102e5760405162461bcd60e51b815260206004820152600f60248201526e57524f4e475f4554485f56414c554560881b60448201526064016108c8565b60005b8181101561106257611050338260135461104b9190612801565b61198e565b8061105a81612830565b915050611031565b50806013546110719190612801565b60135550565b61107f610a03565b6110bb5760405162461bcd60e51b815260206004820152600d60248201526c26a4a72a2fa727aa2fa7a822a760991b60448201526064016108c8565b6110c533826119a8565b50565b610e57338383611b5d565b60608167ffffffffffffffff8111156110ee576110ee61246a565b60405190808252806020026020018201604052801561112157816020015b606081526020019060019003908161110c5790505b50905060005b82811015610ad157611191308585848181106111455761114561284b565b90506020028101906111579190612880565b8080601f016020809104026020016040519081016040528093929190818152602001838380828437600092019190915250611c2c92505050565b8282815181106111a3576111a361284b565b602002602001018190525080806111b990612830565b915050611127565b600a546001600160a01b031633146111eb5760405162461bcd60e51b81526004016108c8906127b6565b6011805460ff1916911515919091179055565b611208338361154c565b6112245760405162461bcd60e51b81526004016108c890612765565b610d6684848484611c51565b6000818152600260205260409020546060906001600160a01b03166112af5760405162461bcd60e51b815260206004820152602f60248201527f4552433732314d657461646174613a2055524920717565727920666f72206e6f60448201526e3732bc34b9ba32b73a103a37b5b2b760891b60648201526084016108c8565b60006112b9611c84565b601154909150610100900460ff16156112fb57806112d684611c93565b6040516020016112e79291906128ce565b604051602081830303815290604052611315565b604051806080016040528060578152602001612a20605791395b9392505050565b600a546001600160a01b031633146113465760405162461bcd60e51b81526004016108c8906127b6565b60405133904780156108fc02916000818181858888f193505050501580156110c5573d6000803e3d6000fd5b600a546001600160a01b0316331461139c5760405162461bcd60e51b81526004016108c8906127b6565b6001600160a01b0381166114015760405162461bcd60e51b815260206004820152602660248201527f4f776e61626c653a206e6577206f776e657220697320746865207a65726f206160448201526564647265737360d01b60648201526084016108c8565b6110c58161193c565b600a546001600160a01b031633146114345760405162461bcd60e51b81526004016108c8906127b6565b818111801561144257504282115b6114835760405162461bcd60e51b8152602060048201526012602482015271494e56414c49445f54494d455354414d505360701b60448201526064016108c8565b600f91909155601055565b60006001600160e01b031982166380ac58cd60e01b14806114bf57506001600160e01b03198216635b5e139f60e01b145b806107bb57506301ffc9a760e01b6001600160e01b03198316146107bb565b600081815260046020526040902080546001600160a01b0319166001600160a01b038416908117909155819061151382610e5b565b6001600160a01b03167f8c5be1e5ebec7d5bd14f71427d1e84f3dd0314c0f7b2291e5b200ac8c7c3b92560405160405180910390a45050565b6000818152600260205260408120546001600160a01b03166115c55760405162461bcd60e51b815260206004820152602c60248201527f4552433732313a206f70657261746f7220717565727920666f72206e6f6e657860448201526b34b9ba32b73a103a37b5b2b760a11b60648201526084016108c8565b60006115d083610e5b565b9050806001600160a01b0316846001600160a01b0316148061160b5750836001600160a01b031661160084610853565b6001600160a01b0316145b8061163b57506001600160a01b0380821660009081526005602090815260408083209388168352929052205460ff165b949350505050565b826001600160a01b031661165682610e5b565b6001600160a01b0316146116be5760405162461bcd60e51b815260206004820152602960248201527f4552433732313a207472616e73666572206f6620746f6b656e2074686174206960448201526839903737ba1037bbb760b91b60648201526084016108c8565b6001600160a01b0382166117205760405162461bcd60e51b8152602060048201526024808201527f4552433732313a207472616e7366657220746f20746865207a65726f206164646044820152637265737360e01b60648201526084016108c8565b61172b838383611d91565b6117366000826114de565b6001600160a01b038316600090815260036020526040812080546001929061175f908490612819565b90915550506001600160a01b038216600090815260036020526040812080546001929061178d908490612801565b909155505060008181526002602052604080822080546001600160a01b0319166001600160a01b0386811691821790925591518493918716917fddf252ad1be2c89b69c2b068fc378daa952ba7f163c4a11628f55a4df523b3ef91a4505050565b6001600160a01b0382166118445760405162461bcd60e51b815260206004820181905260248201527f4552433732313a206d696e7420746f20746865207a65726f206164647265737360448201526064016108c8565b6000818152600260205260409020546001600160a01b0316156118a95760405162461bcd60e51b815260206004820152601c60248201527f4552433732313a20746f6b656e20616c7265616479206d696e7465640000000060448201526064016108c8565b6118b560008383611d91565b6001600160a01b03821660009081526003602052604081208054600192906118de908490612801565b909155505060008181526002602052604080822080546001600160a01b0319166001600160a01b03861690811790915590518392907fddf252ad1be2c89b69c2b068fc378daa952ba7f163c4a11628f55a4df523b3ef908290a45050565b600a80546001600160a01b038381166001600160a01b0319831681179093556040519116919082907f8be0079c531659141344cd1fd0a4f28419497f9722a3daafe3b4186f6b6457e090600090a35050565b610e57828260405180602001604052806000815250611e49565b806119e65760405162461bcd60e51b815260206004820152600e60248201526d1253959053125117d05353d5539560921b60448201526064016108c8565b6001600160a01b038216600090815260156020526040812054611a0a908390612801565b90506005811115611a555760405162461bcd60e51b815260206004820152601560248201527415d05313115517d31253525517d15610d151511151605a1b60448201526064016108c8565b6013546000611a648483612801565b9050610436611a74600183612819565b1115611ab85760405162461bcd60e51b815260206004820152601360248201527214d0531157d31253525517d15610d151511151606a1b60448201526064016108c8565b34611ac286610a3b565b611acc9086612861565b1115611b0c5760405162461bcd60e51b815260206004820152600f60248201526e57524f4e475f4554485f56414c554560881b60448201526064016108c8565b60138190556001600160a01b03851660009081526015602052604081208490555b84811015611b5557611b438661104b8386612801565b80611b4d81612830565b915050611b2d565b505050505050565b816001600160a01b0316836001600160a01b03161415611bbf5760405162461bcd60e51b815260206004820152601960248201527f4552433732313a20617070726f766520746f2063616c6c65720000000000000060448201526064016108c8565b6001600160a01b03838116600081815260056020908152604080832094871680845294825291829020805460ff191686151590811790915591519182527f17307eab39ab6107e8899845ad3d59bd9653f200f220920489ca2b5937696c31910160405180910390a3505050565b60606113158383604051806060016040528060278152602001612a7760279139611e7c565b611c5c848484611643565b611c6884848484611f50565b610d665760405162461bcd60e51b81526004016108c89061290d565b6060601480546107d090612711565b606081611cb75750506040805180820190915260018152600360fc1b602082015290565b8160005b8115611ce15780611ccb81612830565b9150611cda9050600a83612975565b9150611cbb565b60008167ffffffffffffffff811115611cfc57611cfc61246a565b6040519080825280601f01601f191660200182016040528015611d26576020820181803683370190505b5090505b841561163b57611d3b600183612819565b9150611d48600a86612989565b611d53906030612801565b60f81b818381518110611d6857611d6861284b565b60200101906001600160f81b031916908160001a905350611d8a600a86612975565b9450611d2a565b6001600160a01b038316611dec57611de781600880546000838152600960205260408120829055600182018355919091527ff3f7a9fe364faab93b216da50a3214154f22a0a2b415b23a84c8169e8b636ee30155565b611e0f565b816001600160a01b0316836001600160a01b031614611e0f57611e0f838261205d565b6001600160a01b038216611e26576109fe816120fa565b826001600160a01b0316826001600160a01b0316146109fe576109fe82826121a9565b611e5383836117ee565b611e606000848484611f50565b6109fe5760405162461bcd60e51b81526004016108c89061290d565b6060833b611edb5760405162461bcd60e51b815260206004820152602660248201527f416464726573733a2064656c65676174652063616c6c20746f206e6f6e2d636f6044820152651b9d1c9858dd60d21b60648201526084016108c8565b600080856001600160a01b031685604051611ef6919061299d565b600060405180830381855af49150503d8060008114611f31576040519150601f19603f3d011682016040523d82523d6000602084013e611f36565b606091505b5091509150611f468282866121ed565b9695505050505050565b60006001600160a01b0384163b1561205257604051630a85bd0160e11b81526001600160a01b0385169063150b7a0290611f949033908990889088906004016129b9565b602060405180830381600087803b158015611fae57600080fd5b505af1925050508015611fde575060408051601f3d908101601f19168201909252611fdb918101906129ec565b60015b612038573d80801561200c576040519150601f19603f3d011682016040523d82523d6000602084013e612011565b606091505b5080516120305760405162461bcd60e51b81526004016108c89061290d565b805181602001fd5b6001600160e01b031916630a85bd0160e11b14905061163b565b506001949350505050565b6000600161206a84610ed2565b6120749190612819565b6000838152600760205260409020549091508082146120c7576001600160a01b03841660009081526006602090815260408083208584528252808320548484528184208190558352600790915290208190555b5060009182526007602090815260408084208490556001600160a01b039094168352600681528383209183525290812055565b60085460009061210c90600190612819565b600083815260096020526040812054600880549394509092849081106121345761213461284b565b9060005260206000200154905080600883815481106121555761215561284b565b600091825260208083209091019290925582815260099091526040808220849055858252812055600880548061218d5761218d612a09565b6001900381819060005260206000200160009055905550505050565b60006121b483610ed2565b6001600160a01b039093166000908152600660209081526040808320868452825280832085905593825260079052919091209190915550565b606083156121fc575081611315565b82511561220c5782518084602001fd5b8160405162461bcd60e51b81526004016108c8919061234a565b82805461223290612711565b90600052602060002090601f016020900481019282612254576000855561229a565b82601f1061226d57805160ff191683800117855561229a565b8280016001018555821561229a579182015b8281111561229a57825182559160200191906001019061227f565b506122a69291506122aa565b5090565b5b808211156122a657600081556001016122ab565b6001600160e01b0319811681146110c557600080fd5b6000602082840312156122e757600080fd5b8135611315816122bf565b60005b8381101561230d5781810151838201526020016122f5565b83811115610d665750506000910152565b600081518084526123368160208601602086016122f2565b601f01601f19169290920160200192915050565b602081526000611315602083018461231e565b60006020828403121561236f57600080fd5b5035919050565b80356001600160a01b038116811461238d57600080fd5b919050565b600080604083850312156123a557600080fd5b6123ae83612376565b946020939093013593505050565b6000602082840312156123ce57600080fd5b61131582612376565b6000806000606084860312156123ec57600080fd5b6123f584612376565b925061240360208501612376565b9150604084013590509250925092565b8035801515811461238d57600080fd5b60006020828403121561243557600080fd5b61131582612413565b60008060006060848603121561245357600080fd5b505081359360208301359350604090920135919050565b634e487b7160e01b600052604160045260246000fd5b600067ffffffffffffffff8084111561249b5761249b61246a565b604051601f8501601f19908116603f011681019082821181831017156124c3576124c361246a565b816040528093508581528686860111156124dc57600080fd5b858560208301376000602087830101525050509392505050565b60006020828403121561250857600080fd5b813567ffffffffffffffff81111561251f57600080fd5b8201601f8101841361253057600080fd5b61163b84823560208401612480565b6000806040838503121561255257600080fd5b61255b83612376565b915061256960208401612413565b90509250929050565b6000806020838503121561258557600080fd5b823567ffffffffffffffff8082111561259d57600080fd5b818501915085601f8301126125b157600080fd5b8135818111156125c057600080fd5b8660208260051b85010111156125d557600080fd5b60209290920196919550909350505050565b6000602080830181845280855180835260408601915060408160051b870101925083870160005b8281101561263c57603f1988860301845261262a85835161231e565b9450928501929085019060010161260e565b5092979650505050505050565b6000806000806080858703121561265f57600080fd5b61266885612376565b935061267660208601612376565b925060408501359150606085013567ffffffffffffffff81111561269957600080fd5b8501601f810187136126aa57600080fd5b6126b987823560208401612480565b91505092959194509250565b600080604083850312156126d857600080fd5b6126e183612376565b915061256960208401612376565b6000806040838503121561270257600080fd5b50508035926020909101359150565b600181811c9082168061272557607f821691505b6020821081141561274657634e487b7160e01b600052602260045260246000fd5b50919050565b60006020828403121561275e57600080fd5b5051919050565b60208082526031908201527f4552433732313a207472616e736665722063616c6c6572206973206e6f74206f6040820152701ddb995c881b9bdc88185c1c1c9bdd9959607a1b606082015260800190565b6020808252818101527f4f776e61626c653a2063616c6c6572206973206e6f7420746865206f776e6572604082015260600190565b634e487b7160e01b600052601160045260246000fd5b60008219821115612814576128146127eb565b500190565b60008282101561282b5761282b6127eb565b500390565b6000600019821415612844576128446127eb565b5060010190565b634e487b7160e01b600052603260045260246000fd5b600081600019048311821515161561287b5761287b6127eb565b500290565b6000808335601e1984360301811261289757600080fd5b83018035915067ffffffffffffffff8211156128b257600080fd5b6020019150368190038213156128c757600080fd5b9250929050565b600083516128e08184602088016122f2565b8351908301906128f48183602088016122f2565b64173539b7b760d91b9101908152600501949350505050565b60208082526032908201527f4552433732313a207472616e7366657220746f206e6f6e20455243373231526560408201527131b2b4bb32b91034b6b83632b6b2b73a32b960711b606082015260800190565b634e487b7160e01b600052601260045260246000fd5b6000826129845761298461295f565b500490565b6000826129985761299861295f565b500690565b600082516129af8184602087016122f2565b9190910192915050565b6001600160a01b0385811682528416602082015260408101839052608060608201819052600090611f469083018461231e565b6000602082840312156129fe57600080fd5b8151611315816122bf565b634e487b7160e01b600052603160045260246000fdfe68747470733a2f2f6865726f696e66696e6974792e6d7970696e6174612e636c6f75642f697066732f516d5271717a6e5062435564654a41727a55594c4d6975477265706d4a766d6a6269546f70594d70544a62414262416464726573733a206c6f772d6c6576656c2064656c65676174652063616c6c206661696c6564a264697066735822122099d41541dd1ec022448b4dd4ccfe8b454d82fed55ff6b6070aab4deeadee7b2b64736f6c63430008090033",
  "linkReferences": {},
  "deployedLinkReferences": {}
}