{
  "_format": "hh-sol-artifact-1",
  "contractName": "HeroInfinityNFT",
  "sourceName": "contracts/HeroInfinityNFT.sol",
  "abi": [
    {
      "inputs": [
        {
          "internalType": "address",
          "name": "_pool",
          "type": "address"
        }
      ],
      "stateMutability": "nonpayable",
      "type": "constructor"
    },
    {
      "anonymous": false,
      "inputs": [
        {
          "indexed": true,
          "internalType": "address",
          "name": "owner",
          "type": "address"
        },
        {
          "indexed": true,
          "internalType": "address",
          "name": "approved",
          "type": "address"
        },
        {
          "indexed": true,
          "internalType": "uint256",
          "name": "tokenId",
          "type": "uint256"
        }
      ],
      "name": "Approval",
      "type": "event"
    },
    {
      "anonymous": false,
      "inputs": [
        {
          "indexed": true,
          "internalType": "address",
          "name": "owner",
          "type": "address"
        },
        {
          "indexed": true,
          "internalType": "address",
          "name": "operator",
          "type": "address"
        },
        {
          "indexed": false,
          "internalType": "bool",
          "name": "approved",
          "type": "bool"
        }
      ],
      "name": "ApprovalForAll",
      "type": "event"
    },
    {
      "anonymous": false,
      "inputs": [
        {
          "indexed": true,
          "internalType": "address",
          "name": "previousOwner",
          "type": "address"
        },
        {
          "indexed": true,
          "internalType": "address",
          "name": "newOwner",
          "type": "address"
        }
      ],
      "name": "OwnershipTransferred",
      "type": "event"
    },
    {
      "anonymous": false,
      "inputs": [
        {
          "indexed": true,
          "internalType": "address",
          "name": "from",
          "type": "address"
        },
        {
          "indexed": true,
          "internalType": "address",
          "name": "to",
          "type": "address"
        },
        {
          "indexed": true,
          "internalType": "uint256",
          "name": "tokenId",
          "type": "uint256"
        }
      ],
      "name": "Transfer",
      "type": "event"
    },
    {
      "inputs": [],
      "name": "HIGHEST_PUBLIC",
      "outputs": [
        {
          "internalType": "uint256",
          "name": "",
          "type": "uint256"
        }
      ],
      "stateMutability": "view",
      "type": "function"
    },
    {
      "inputs": [],
      "name": "HIGHEST_TEAM",
      "outputs": [
        {
          "internalType": "uint256",
          "name": "",
          "type": "uint256"
        }
      ],
      "stateMutability": "view",
      "type": "function"
    },
    {
      "inputs": [],
      "name": "MAX_PER_WALLET",
      "outputs": [
        {
          "internalType": "uint256",
          "name": "",
          "type": "uint256"
        }
      ],
      "stateMutability": "view",
      "type": "function"
    },
    {
      "inputs": [
        {
          "internalType": "address",
          "name": "to",
          "type": "address"
        },
        {
          "internalType": "uint256",
          "name": "tokenId",
          "type": "uint256"
        }
      ],
      "name": "approve",
      "outputs": [],
      "stateMutability": "nonpayable",
      "type": "function"
    },
    {
      "inputs": [
        {
          "internalType": "address",
          "name": "owner",
          "type": "address"
        }
      ],
      "name": "balanceOf",
      "outputs": [
        {
          "internalType": "uint256",
          "name": "",
          "type": "uint256"
        }
      ],
      "stateMutability": "view",
      "type": "function"
    },
    {
      "inputs": [
        {
          "internalType": "uint256",
          "name": "tokenId",
          "type": "uint256"
        }
      ],
      "name": "getApproved",
      "outputs": [
        {
          "internalType": "address",
          "name": "",
          "type": "address"
        }
      ],
      "stateMutability": "view",
      "type": "function"
    },
    {
      "inputs": [
        {
          "internalType": "address",
          "name": "owner",
          "type": "address"
        },
        {
          "internalType": "address",
          "name": "operator",
          "type": "address"
        }
      ],
      "name": "isApprovedForAll",
      "outputs": [
        {
          "internalType": "bool",
          "name": "",
          "type": "bool"
        }
      ],
      "stateMutability": "view",
      "type": "function"
    },
    {
      "inputs": [],
      "name": "isMintOpen",
      "outputs": [
        {
          "internalType": "bool",
          "name": "",
          "type": "bool"
        }
      ],
      "stateMutability": "view",
      "type": "function"
    },
    {
      "inputs": [],
      "name": "isSaleOpen",
      "outputs": [
        {
          "internalType": "bool",
          "name": "",
          "type": "bool"
        }
      ],
      "stateMutability": "view",
      "type": "function"
    },
    {
      "inputs": [
        {
          "internalType": "uint256",
          "name": "amount",
          "type": "uint256"
        }
      ],
      "name": "mint",
      "outputs": [],
      "stateMutability": "payable",
      "type": "function"
    },
    {
      "inputs": [],
      "name": "mintEndTimestamp",
      "outputs": [
        {
          "internalType": "uint256",
          "name": "",
          "type": "uint256"
        }
      ],
      "stateMutability": "view",
      "type": "function"
    },
    {
      "inputs": [
        {
          "internalType": "address",
          "name": "account",
          "type": "address"
        }
      ],
      "name": "mintPrice",
      "outputs": [
        {
          "internalType": "uint256",
          "name": "",
          "type": "uint256"
        }
      ],
      "stateMutability": "view",
      "type": "function"
    },
    {
      "inputs": [],
      "name": "mintStartTimestamp",
      "outputs": [
        {
          "internalType": "uint256",
          "name": "",
          "type": "uint256"
        }
      ],
      "stateMutability": "view",
      "type": "function"
    },
    {
      "inputs": [
        {
          "internalType": "uint256",
          "name": "amount",
          "type": "uint256"
        }
      ],
      "name": "mintTeam",
      "outputs": [],
      "stateMutability": "nonpayable",
      "type": "function"
    },
    {
      "inputs": [
        {
          "internalType": "address",
          "name": "",
          "type": "address"
        }
      ],
      "name": "mintedAmount",
      "outputs": [
        {
          "internalType": "uint256",
          "name": "",
          "type": "uint256"
        }
      ],
      "stateMutability": "view",
      "type": "function"
    },
    {
      "inputs": [],
      "name": "name",
      "outputs": [
        {
          "internalType": "string",
          "name": "",
          "type": "string"
        }
      ],
      "stateMutability": "view",
      "type": "function"
    },
    {
      "inputs": [],
      "name": "nodePool",
      "outputs": [
        {
          "internalType": "address",
          "name": "",
          "type": "address"
        }
      ],
      "stateMutability": "view",
      "type": "function"
    },
    {
      "inputs": [],
      "name": "owner",
      "outputs": [
        {
          "internalType": "address",
          "name": "",
          "type": "address"
        }
      ],
      "stateMutability": "view",
      "type": "function"
    },
    {
      "inputs": [
        {
          "internalType": "uint256",
          "name": "tokenId",
          "type": "uint256"
        }
      ],
      "name": "ownerOf",
      "outputs": [
        {
          "internalType": "address",
          "name": "",
          "type": "address"
        }
      ],
      "stateMutability": "view",
      "type": "function"
    },
    {
      "inputs": [],
      "name": "publicMintPrice",
      "outputs": [
        {
          "internalType": "uint256",
          "name": "",
          "type": "uint256"
        }
      ],
      "stateMutability": "view",
      "type": "function"
    },
    {
      "inputs": [],
      "name": "renounceOwnership",
      "outputs": [],
      "stateMutability": "nonpayable",
      "type": "function"
    },
    {
      "inputs": [
        {
          "internalType": "address",
          "name": "from",
          "type": "address"
        },
        {
          "internalType": "address",
          "name": "to",
          "type": "address"
        },
        {
          "internalType": "uint256",
          "name": "tokenId",
          "type": "uint256"
        }
      ],
      "name": "safeTransferFrom",
      "outputs": [],
      "stateMutability": "nonpayable",
      "type": "function"
    },
    {
      "inputs": [
        {
          "internalType": "address",
          "name": "from",
          "type": "address"
        },
        {
          "internalType": "address",
          "name": "to",
          "type": "address"
        },
        {
          "internalType": "uint256",
          "name": "tokenId",
          "type": "uint256"
        },
        {
          "internalType": "bytes",
          "name": "_data",
          "type": "bytes"
        }
      ],
      "name": "safeTransferFrom",
      "outputs": [],
      "stateMutability": "nonpayable",
      "type": "function"
    },
    {
      "inputs": [
        {
          "internalType": "uint256",
          "name": "amount",
          "type": "uint256"
        }
      ],
      "name": "sale",
      "outputs": [],
      "stateMutability": "payable",
      "type": "function"
    },
    {
      "inputs": [],
      "name": "saleMintPrice",
      "outputs": [
        {
          "internalType": "uint256",
          "name": "",
          "type": "uint256"
        }
      ],
      "stateMutability": "view",
      "type": "function"
    },
    {
      "inputs": [
        {
          "internalType": "address",
          "name": "operator",
          "type": "address"
        },
        {
          "internalType": "bool",
          "name": "approved",
          "type": "bool"
        }
      ],
      "name": "setApprovalForAll",
      "outputs": [],
      "stateMutability": "nonpayable",
      "type": "function"
    },
    {
      "inputs": [
        {
          "internalType": "string",
          "name": "uri",
          "type": "string"
        }
      ],
      "name": "setBaseURI",
      "outputs": [],
      "stateMutability": "nonpayable",
      "type": "function"
    },
    {
      "inputs": [
        {
          "internalType": "uint256",
          "name": "_whitelist",
          "type": "uint256"
        },
        {
          "internalType": "uint256",
          "name": "_public",
          "type": "uint256"
        },
        {
          "internalType": "uint256",
          "name": "_sale",
          "type": "uint256"
        }
      ],
      "name": "setMintPrice",
      "outputs": [],
      "stateMutability": "nonpayable",
      "type": "function"
    },
    {
      "inputs": [
        {
          "internalType": "bool",
          "name": "_open",
          "type": "bool"
        }
      ],
      "name": "setReserved",
      "outputs": [],
      "stateMutability": "nonpayable",
      "type": "function"
    },
    {
      "inputs": [
        {
          "internalType": "bool",
          "name": "_open",
          "type": "bool"
        }
      ],
      "name": "setSaleOpen",
      "outputs": [],
      "stateMutability": "nonpayable",
      "type": "function"
    },
    {
      "inputs": [
        {
          "internalType": "uint256",
          "name": "_mintStartTimestamp",
          "type": "uint256"
        },
        {
          "internalType": "uint256",
          "name": "_mintEndTimestamp",
          "type": "uint256"
        }
      ],
      "name": "setTimestamps",
      "outputs": [],
      "stateMutability": "nonpayable",
      "type": "function"
    },
    {
      "inputs": [
        {
          "internalType": "bytes4",
          "name": "interfaceId",
          "type": "bytes4"
        }
      ],
      "name": "supportsInterface",
      "outputs": [
        {
          "internalType": "bool",
          "name": "",
          "type": "bool"
        }
      ],
      "stateMutability": "view",
      "type": "function"
    },
    {
      "inputs": [],
      "name": "symbol",
      "outputs": [
        {
          "internalType": "string",
          "name": "",
          "type": "string"
        }
      ],
      "stateMutability": "view",
      "type": "function"
    },
    {
      "inputs": [
        {
          "internalType": "uint256",
          "name": "index",
          "type": "uint256"
        }
      ],
      "name": "tokenByIndex",
      "outputs": [
        {
          "internalType": "uint256",
          "name": "",
          "type": "uint256"
        }
      ],
      "stateMutability": "view",
      "type": "function"
    },
    {
      "inputs": [
        {
          "internalType": "address",
          "name": "owner",
          "type": "address"
        },
        {
          "internalType": "uint256",
          "name": "index",
          "type": "uint256"
        }
      ],
      "name": "tokenOfOwnerByIndex",
      "outputs": [
        {
          "internalType": "uint256",
          "name": "",
          "type": "uint256"
        }
      ],
      "stateMutability": "view",
      "type": "function"
    },
    {
      "inputs": [
        {
          "internalType": "uint256",
          "name": "tokenId",
          "type": "uint256"
        }
      ],
      "name": "tokenURI",
      "outputs": [
        {
          "internalType": "string",
          "name": "",
          "type": "string"
        }
      ],
      "stateMutability": "view",
      "type": "function"
    },
    {
      "inputs": [],
      "name": "totalSupply",
      "outputs": [
        {
          "internalType": "uint256",
          "name": "",
          "type": "uint256"
        }
      ],
      "stateMutability": "view",
      "type": "function"
    },
    {
      "inputs": [
        {
          "internalType": "address",
          "name": "from",
          "type": "address"
        },
        {
          "internalType": "address",
          "name": "to",
          "type": "address"
        },
        {
          "internalType": "uint256",
          "name": "tokenId",
          "type": "uint256"
        }
      ],
      "name": "transferFrom",
      "outputs": [],
      "stateMutability": "nonpayable",
      "type": "function"
    },
    {
      "inputs": [
        {
          "internalType": "address",
          "name": "newOwner",
          "type": "address"
        }
      ],
      "name": "transferOwnership",
      "outputs": [],
      "stateMutability": "nonpayable",
      "type": "function"
    },
    {
      "inputs": [],
      "name": "whitelistMintPrice",
      "outputs": [
        {
          "internalType": "uint256",
          "name": "",
          "type": "uint256"
        }
      ],
      "stateMutability": "view",
      "type": "function"
    },
    {
      "inputs": [],
      "name": "withdrawETH",
      "outputs": [],
      "stateMutability": "nonpayable",
      "type": "function"
    }
  ],
  "bytecode": "0x60806040526608e1bc9bf04000600c55660c6f3b40b6c000600d55660e35fa931a0000600e556000601160006101000a81548160ff0219169083151502179055506000601160016101000a81548160ff0219169083151502179055506000601255601d6013553480156200007257600080fd5b5060405162004e2d38038062004e2d833981810160405281019062000098919062000388565b6040518060400160405280601381526020017f4865726f20496e66696e697479204361726473000000000000000000000000008152506040518060400160405280600481526020017f485249430000000000000000000000000000000000000000000000000000000081525081600090805190602001906200011c9291906200026e565b508060019080519060200190620001359291906200026e565b505050620001586200014c620001a060201b60201c565b620001a860201b60201c565b80600b60006101000a81548173ffffffffffffffffffffffffffffffffffffffff021916908373ffffffffffffffffffffffffffffffffffffffff160217905550506200041f565b600033905090565b6000600a60009054906101000a900473ffffffffffffffffffffffffffffffffffffffff16905081600a60006101000a81548173ffffffffffffffffffffffffffffffffffffffff021916908373ffffffffffffffffffffffffffffffffffffffff1602179055508173ffffffffffffffffffffffffffffffffffffffff168173ffffffffffffffffffffffffffffffffffffffff167f8be0079c531659141344cd1fd0a4f28419497f9722a3daafe3b4186f6b6457e060405160405180910390a35050565b8280546200027c90620003e9565b90600052602060002090601f016020900481019282620002a05760008555620002ec565b82601f10620002bb57805160ff1916838001178555620002ec565b82800160010185558215620002ec579182015b82811115620002eb578251825591602001919060010190620002ce565b5b509050620002fb9190620002ff565b5090565b5b808211156200031a57600081600090555060010162000300565b5090565b600080fd5b600073ffffffffffffffffffffffffffffffffffffffff82169050919050565b6000620003508262000323565b9050919050565b620003628162000343565b81146200036e57600080fd5b50565b600081519050620003828162000357565b92915050565b600060208284031215620003a157620003a06200031e565b5b6000620003b18482850162000371565b91505092915050565b7f4e487b7100000000000000000000000000000000000000000000000000000000600052602260045260246000fd5b600060028204905060018216806200040257607f821691505b60208210811415620004195762000418620003ba565b5b50919050565b6149fe806200042f6000396000f3fe6080604052600436106102465760003560e01c8063715018a611610139578063af979f25116100b6578063dc53fd921161007a578063dc53fd9214610876578063e086e5ec146108a1578063e985e9c5146108b8578063f2fde38b146108f5578063fa1019771461091e578063fbbf8cc31461094757610246565b8063af979f2514610791578063b88d4fde146107ba578063c87b56dd146107e3578063cc6ac2f514610820578063d8f1f8f41461084b57610246565b80639be9c50d116100fd5780639be9c50d146106cb5780639c14a884146106f6578063a0712d6814610721578063a0e389de1461073d578063a22cb4651461076857610246565b8063715018a6146106175780637307b3d91461062e5780638da5cb5b1461065957806395d89b411461068457806396032702146106af57610246565b80632eb7c7e3116101c757806342842e0e1161018b57806342842e0e1461050e5780634f6ccce71461053757806355f804b3146105745780636352211e1461059d57806370a08231146105da57610246565b80632eb7c7e31461042b5780632f745c5914610454578063319948ba14610491578063342f48aa146104ba57806335c6aaf8146104e357610246565b806318160ddd1161020e57806318160ddd14610344578063199080161461036f5780631a0813301461039a5780632142aa2c146103c557806323b872dd1461040257610246565b806301ffc9a71461024b57806306fdde0314610288578063081812fc146102b3578063095ea7b3146102f05780630f2cdd6c14610319575b600080fd5b34801561025757600080fd5b50610272600480360381019061026d91906130dc565b610984565b60405161027f9190613124565b60405180910390f35b34801561029457600080fd5b5061029d6109fe565b6040516102aa91906131d8565b60405180910390f35b3480156102bf57600080fd5b506102da60048036038101906102d59190613230565b610a90565b6040516102e7919061329e565b60405180910390f35b3480156102fc57600080fd5b50610317600480360381019061031291906132e5565b610b15565b005b34801561032557600080fd5b5061032e610c2d565b60405161033b9190613334565b60405180910390f35b34801561035057600080fd5b50610359610c32565b6040516103669190613334565b60405180910390f35b34801561037b57600080fd5b50610384610c3f565b6040516103919190613124565b60405180910390f35b3480156103a657600080fd5b506103af610c77565b6040516103bc9190613124565b60405180910390f35b3480156103d157600080fd5b506103ec60048036038101906103e7919061334f565b610c8e565b6040516103f99190613334565b60405180910390f35b34801561040e57600080fd5b506104296004803603810190610424919061337c565b610d5e565b005b34801561043757600080fd5b50610452600480360381019061044d91906133fb565b610dbe565b005b34801561046057600080fd5b5061047b600480360381019061047691906132e5565b610e57565b6040516104889190613334565b60405180910390f35b34801561049d57600080fd5b506104b860048036038101906104b39190613428565b610efc565b005b3480156104c657600080fd5b506104e160048036038101906104dc9190613230565b610f92565b005b3480156104ef57600080fd5b506104f86110f9565b6040516105059190613334565b60405180910390f35b34801561051a57600080fd5b506105356004803603810190610530919061337c565b6110ff565b005b34801561054357600080fd5b5061055e60048036038101906105599190613230565b61111f565b60405161056b9190613334565b60405180910390f35b34801561058057600080fd5b5061059b600480360381019061059691906135b0565b611190565b005b3480156105a957600080fd5b506105c460048036038101906105bf9190613230565b611226565b6040516105d1919061329e565b60405180910390f35b3480156105e657600080fd5b5061060160048036038101906105fc919061334f565b6112d8565b60405161060e9190613334565b60405180910390f35b34801561062357600080fd5b5061062c611390565b005b34801561063a57600080fd5b50610643611418565b6040516106509190613334565b60405180910390f35b34801561066557600080fd5b5061066e61141e565b60405161067b919061329e565b60405180910390f35b34801561069057600080fd5b50610699611448565b6040516106a691906131d8565b60405180910390f35b6106c960048036038101906106c49190613230565b6114da565b005b3480156106d757600080fd5b506106e06115c5565b6040516106ed9190613334565b60405180910390f35b34801561070257600080fd5b5061070b6115cb565b6040516107189190613334565b60405180910390f35b61073b60048036038101906107369190613230565b6115d0565b005b34801561074957600080fd5b50610752611624565b60405161075f9190613334565b60405180910390f35b34801561077457600080fd5b5061078f600480360381019061078a91906135f9565b61162a565b005b34801561079d57600080fd5b506107b860048036038101906107b391906133fb565b611640565b005b3480156107c657600080fd5b506107e160048036038101906107dc91906136da565b6116d9565b005b3480156107ef57600080fd5b5061080a60048036038101906108059190613230565b61173b565b60405161081791906131d8565b60405180910390f35b34801561082c57600080fd5b506108356117f7565b6040516108429190613334565b60405180910390f35b34801561085757600080fd5b506108606117fd565b60405161086d919061329e565b60405180910390f35b34801561088257600080fd5b5061088b611823565b6040516108989190613334565b60405180910390f35b3480156108ad57600080fd5b506108b6611829565b005b3480156108c457600080fd5b506108df60048036038101906108da919061375d565b6118ee565b6040516108ec9190613124565b60405180910390f35b34801561090157600080fd5b5061091c6004803603810190610917919061334f565b611982565b005b34801561092a57600080fd5b506109456004803603810190610940919061379d565b611a7a565b005b34801561095357600080fd5b5061096e6004803603810190610969919061334f565b611b55565b60405161097b9190613334565b60405180910390f35b60007f780e9d63000000000000000000000000000000000000000000000000000000007bffffffffffffffffffffffffffffffffffffffffffffffffffffffff1916827bffffffffffffffffffffffffffffffffffffffffffffffffffffffff191614806109f757506109f682611b6d565b5b9050919050565b606060008054610a0d9061380c565b80601f0160208091040260200160405190810160405280929190818152602001828054610a399061380c565b8015610a865780601f10610a5b57610100808354040283529160200191610a86565b820191906000526020600020905b815481529060010190602001808311610a6957829003601f168201915b5050505050905090565b6000610a9b82611c4f565b610ada576040517f08c379a0000000000000000000000000000000000000000000000000000000008152600401610ad1906138b0565b60405180910390fd5b6004600083815260200190815260200160002060009054906101000a900473ffffffffffffffffffffffffffffffffffffffff169050919050565b6000610b2082611226565b90508073ffffffffffffffffffffffffffffffffffffffff168373ffffffffffffffffffffffffffffffffffffffff161415610b91576040517f08c379a0000000000000000000000000000000000000000000000000000000008152600401610b8890613942565b60405180910390fd5b8073ffffffffffffffffffffffffffffffffffffffff16610bb0611cbb565b73ffffffffffffffffffffffffffffffffffffffff161480610bdf5750610bde81610bd9611cbb565b6118ee565b5b610c1e576040517f08c379a0000000000000000000000000000000000000000000000000000000008152600401610c15906139d4565b60405180910390fd5b610c288383611cc3565b505050565b600581565b6000600880549050905090565b600080600f54118015610c545750600f544210155b8015610c6257506010544211155b8015610c72575061043660135411155b905090565b6000601160009054906101000a900460ff16905090565b600080600d5490506000600b60009054906101000a900473ffffffffffffffffffffffffffffffffffffffff1673ffffffffffffffffffffffffffffffffffffffff1663f74c9934856040518263ffffffff1660e01b8152600401610cf3919061329e565b60206040518083038186803b158015610d0b57600080fd5b505afa158015610d1f573d6000803e3d6000fd5b505050506040513d601f19601f82011682018060405250810190610d439190613a09565b90506004811115610d5457600c5491505b8192505050919050565b610d6f610d69611cbb565b82611d7c565b610dae576040517f08c379a0000000000000000000000000000000000000000000000000000000008152600401610da590613aa8565b60405180910390fd5b610db9838383611e5a565b505050565b610dc6611cbb565b73ffffffffffffffffffffffffffffffffffffffff16610de461141e565b73ffffffffffffffffffffffffffffffffffffffff1614610e3a576040517f08c379a0000000000000000000000000000000000000000000000000000000008152600401610e3190613b14565b60405180910390fd5b80601160016101000a81548160ff02191690831515021790555050565b6000610e62836112d8565b8210610ea3576040517f08c379a0000000000000000000000000000000000000000000000000000000008152600401610e9a90613ba6565b60405180910390fd5b600660008473ffffffffffffffffffffffffffffffffffffffff1673ffffffffffffffffffffffffffffffffffffffff168152602001908152602001600020600083815260200190815260200160002054905092915050565b610f04611cbb565b73ffffffffffffffffffffffffffffffffffffffff16610f2261141e565b73ffffffffffffffffffffffffffffffffffffffff1614610f78576040517f08c379a0000000000000000000000000000000000000000000000000000000008152600401610f6f90613b14565b60405180910390fd5b82600c8190555081600d8190555080600e81905550505050565b610f9a611cbb565b73ffffffffffffffffffffffffffffffffffffffff16610fb861141e565b73ffffffffffffffffffffffffffffffffffffffff161461100e576040517f08c379a000000000000000000000000000000000000000000000000000000000815260040161100590613b14565b60405180910390fd5b6000811415611052576040517f08c379a000000000000000000000000000000000000000000000000000000000815260040161104990613c12565b60405180910390fd5b60006012549050600082826110679190613c61565b9050601c6001826110789190613cb7565b11156110b9576040517f08c379a00000000000000000000000000000000000000000000000000000000081526004016110b090613d37565b60405180910390fd5b8060128190555060005b838110156110f3576110e03382856110db9190613c61565b6120b6565b80806110eb90613d57565b9150506110c3565b50505050565b600c5481565b61111a838383604051806020016040528060008152506116d9565b505050565b6000611129610c32565b821061116a576040517f08c379a000000000000000000000000000000000000000000000000000000000815260040161116190613e12565b60405180910390fd5b6008828154811061117e5761117d613e32565b5b90600052602060002001549050919050565b611198611cbb565b73ffffffffffffffffffffffffffffffffffffffff166111b661141e565b73ffffffffffffffffffffffffffffffffffffffff161461120c576040517f08c379a000000000000000000000000000000000000000000000000000000000815260040161120390613b14565b60405180910390fd5b8060149080519060200190611222929190612fcd565b5050565b6000806002600084815260200190815260200160002060009054906101000a900473ffffffffffffffffffffffffffffffffffffffff169050600073ffffffffffffffffffffffffffffffffffffffff168173ffffffffffffffffffffffffffffffffffffffff1614156112cf576040517f08c379a00000000000000000000000000000000000000000000000000000000081526004016112c690613ed3565b60405180910390fd5b80915050919050565b60008073ffffffffffffffffffffffffffffffffffffffff168273ffffffffffffffffffffffffffffffffffffffff161415611349576040517f08c379a000000000000000000000000000000000000000000000000000000000815260040161134090613f65565b60405180910390fd5b600360008373ffffffffffffffffffffffffffffffffffffffff1673ffffffffffffffffffffffffffffffffffffffff168152602001908152602001600020549050919050565b611398611cbb565b73ffffffffffffffffffffffffffffffffffffffff166113b661141e565b73ffffffffffffffffffffffffffffffffffffffff161461140c576040517f08c379a000000000000000000000000000000000000000000000000000000000815260040161140390613b14565b60405180910390fd5b6114166000612284565b565b61043681565b6000600a60009054906101000a900473ffffffffffffffffffffffffffffffffffffffff16905090565b6060600180546114579061380c565b80601f01602080910402602001604051908101604052809291908181526020018280546114839061380c565b80156114d05780601f106114a5576101008083540402835291602001916114d0565b820191906000526020600020905b8154815290600101906020018083116114b357829003601f168201915b5050505050905090565b601160009054906101000a900460ff16611529576040517f08c379a000000000000000000000000000000000000000000000000000000000815260040161152090613fd1565b60405180910390fd5b34600e54826115389190613ff1565b14611578576040517f08c379a000000000000000000000000000000000000000000000000000000000815260040161156f90614097565b60405180910390fd5b60005b818110156115ad5761159a33826013546115959190613c61565b61234a565b80806115a590613d57565b91505061157b565b50806013546115bc9190613c61565b60138190555050565b600e5481565b601c81565b6115d8610c3f565b611617576040517f08c379a000000000000000000000000000000000000000000000000000000000815260040161160e90614103565b60405180910390fd5b6116213382612368565b50565b600f5481565b61163c611635611cbb565b8383612583565b5050565b611648611cbb565b73ffffffffffffffffffffffffffffffffffffffff1661166661141e565b73ffffffffffffffffffffffffffffffffffffffff16146116bc576040517f08c379a00000000000000000000000000000000000000000000000000000000081526004016116b390613b14565b60405180910390fd5b80601160006101000a81548160ff02191690831515021790555050565b6116ea6116e4611cbb565b83611d7c565b611729576040517f08c379a000000000000000000000000000000000000000000000000000000000815260040161172090613aa8565b60405180910390fd5b611735848484846126f0565b50505050565b606061174682611c4f565b611785576040517f08c379a000000000000000000000000000000000000000000000000000000000815260040161177c90614195565b60405180910390fd5b600061178f61274c565b9050601160019054906101000a900460ff16156117d557806117b0846127de565b6040516020016117c192919061423d565b6040516020818303038152906040526117ef565b604051806080016040528060578152602001614972605791395b915050919050565b60105481565b600b60009054906101000a900473ffffffffffffffffffffffffffffffffffffffff1681565b600d5481565b611831611cbb565b73ffffffffffffffffffffffffffffffffffffffff1661184f61141e565b73ffffffffffffffffffffffffffffffffffffffff16146118a5576040517f08c379a000000000000000000000000000000000000000000000000000000000815260040161189c90613b14565b60405180910390fd5b3373ffffffffffffffffffffffffffffffffffffffff166108fc479081150290604051600060405180830381858888f193505050501580156118eb573d6000803e3d6000fd5b50565b6000600560008473ffffffffffffffffffffffffffffffffffffffff1673ffffffffffffffffffffffffffffffffffffffff16815260200190815260200160002060008373ffffffffffffffffffffffffffffffffffffffff1673ffffffffffffffffffffffffffffffffffffffff16815260200190815260200160002060009054906101000a900460ff16905092915050565b61198a611cbb565b73ffffffffffffffffffffffffffffffffffffffff166119a861141e565b73ffffffffffffffffffffffffffffffffffffffff16146119fe576040517f08c379a00000000000000000000000000000000000000000000000000000000081526004016119f590613b14565b60405180910390fd5b600073ffffffffffffffffffffffffffffffffffffffff168173ffffffffffffffffffffffffffffffffffffffff161415611a6e576040517f08c379a0000000000000000000000000000000000000000000000000000000008152600401611a65906142de565b60405180910390fd5b611a7781612284565b50565b611a82611cbb565b73ffffffffffffffffffffffffffffffffffffffff16611aa061141e565b73ffffffffffffffffffffffffffffffffffffffff1614611af6576040517f08c379a0000000000000000000000000000000000000000000000000000000008152600401611aed90613b14565b60405180910390fd5b8181118015611b0457504282115b611b43576040517f08c379a0000000000000000000000000000000000000000000000000000000008152600401611b3a9061434a565b60405180910390fd5b81600f81905550806010819055505050565b60156020528060005260406000206000915090505481565b60007f80ac58cd000000000000000000000000000000000000000000000000000000007bffffffffffffffffffffffffffffffffffffffffffffffffffffffff1916827bffffffffffffffffffffffffffffffffffffffffffffffffffffffff19161480611c3857507f5b5e139f000000000000000000000000000000000000000000000000000000007bffffffffffffffffffffffffffffffffffffffffffffffffffffffff1916827bffffffffffffffffffffffffffffffffffffffffffffffffffffffff1916145b80611c485750611c478261293f565b5b9050919050565b60008073ffffffffffffffffffffffffffffffffffffffff166002600084815260200190815260200160002060009054906101000a900473ffffffffffffffffffffffffffffffffffffffff1673ffffffffffffffffffffffffffffffffffffffff1614159050919050565b600033905090565b816004600083815260200190815260200160002060006101000a81548173ffffffffffffffffffffffffffffffffffffffff021916908373ffffffffffffffffffffffffffffffffffffffff160217905550808273ffffffffffffffffffffffffffffffffffffffff16611d3683611226565b73ffffffffffffffffffffffffffffffffffffffff167f8c5be1e5ebec7d5bd14f71427d1e84f3dd0314c0f7b2291e5b200ac8c7c3b92560405160405180910390a45050565b6000611d8782611c4f565b611dc6576040517f08c379a0000000000000000000000000000000000000000000000000000000008152600401611dbd906143dc565b60405180910390fd5b6000611dd183611226565b90508073ffffffffffffffffffffffffffffffffffffffff168473ffffffffffffffffffffffffffffffffffffffff161480611e4057508373ffffffffffffffffffffffffffffffffffffffff16611e2884610a90565b73ffffffffffffffffffffffffffffffffffffffff16145b80611e515750611e5081856118ee565b5b91505092915050565b8273ffffffffffffffffffffffffffffffffffffffff16611e7a82611226565b73ffffffffffffffffffffffffffffffffffffffff1614611ed0576040517f08c379a0000000000000000000000000000000000000000000000000000000008152600401611ec79061446e565b60405180910390fd5b600073ffffffffffffffffffffffffffffffffffffffff168273ffffffffffffffffffffffffffffffffffffffff161415611f40576040517f08c379a0000000000000000000000000000000000000000000000000000000008152600401611f3790614500565b60405180910390fd5b611f4b8383836129a9565b611f56600082611cc3565b6001600360008573ffffffffffffffffffffffffffffffffffffffff1673ffffffffffffffffffffffffffffffffffffffff1681526020019081526020016000206000828254611fa69190613cb7565b925050819055506001600360008473ffffffffffffffffffffffffffffffffffffffff1673ffffffffffffffffffffffffffffffffffffffff1681526020019081526020016000206000828254611ffd9190613c61565b92505081905550816002600083815260200190815260200160002060006101000a81548173ffffffffffffffffffffffffffffffffffffffff021916908373ffffffffffffffffffffffffffffffffffffffff160217905550808273ffffffffffffffffffffffffffffffffffffffff168473ffffffffffffffffffffffffffffffffffffffff167fddf252ad1be2c89b69c2b068fc378daa952ba7f163c4a11628f55a4df523b3ef60405160405180910390a4505050565b600073ffffffffffffffffffffffffffffffffffffffff168273ffffffffffffffffffffffffffffffffffffffff161415612126576040517f08c379a000000000000000000000000000000000000000000000000000000000815260040161211d9061456c565b60405180910390fd5b61212f81611c4f565b1561216f576040517f08c379a0000000000000000000000000000000000000000000000000000000008152600401612166906145d8565b60405180910390fd5b61217b600083836129a9565b6001600360008473ffffffffffffffffffffffffffffffffffffffff1673ffffffffffffffffffffffffffffffffffffffff16815260200190815260200160002060008282546121cb9190613c61565b92505081905550816002600083815260200190815260200160002060006101000a81548173ffffffffffffffffffffffffffffffffffffffff021916908373ffffffffffffffffffffffffffffffffffffffff160217905550808273ffffffffffffffffffffffffffffffffffffffff16600073ffffffffffffffffffffffffffffffffffffffff167fddf252ad1be2c89b69c2b068fc378daa952ba7f163c4a11628f55a4df523b3ef60405160405180910390a45050565b6000600a60009054906101000a900473ffffffffffffffffffffffffffffffffffffffff16905081600a60006101000a81548173ffffffffffffffffffffffffffffffffffffffff021916908373ffffffffffffffffffffffffffffffffffffffff1602179055508173ffffffffffffffffffffffffffffffffffffffff168173ffffffffffffffffffffffffffffffffffffffff167f8be0079c531659141344cd1fd0a4f28419497f9722a3daafe3b4186f6b6457e060405160405180910390a35050565b612364828260405180602001604052806000815250612abd565b5050565b60008114156123ac576040517f08c379a00000000000000000000000000000000000000000000000000000000081526004016123a390613c12565b60405180910390fd5b600081601560008573ffffffffffffffffffffffffffffffffffffffff1673ffffffffffffffffffffffffffffffffffffffff168152602001908152602001600020546123f99190613c61565b9050600581111561243f576040517f08c379a000000000000000000000000000000000000000000000000000000000815260040161243690614644565b60405180910390fd5b60006013549050600083826124549190613c61565b90506104366001826124669190613cb7565b11156124a7576040517f08c379a000000000000000000000000000000000000000000000000000000000815260040161249e906146b0565b60405180910390fd5b346124b186610c8e565b856124bc9190613ff1565b11156124fd576040517f08c379a00000000000000000000000000000000000000000000000000000000081526004016124f490614097565b60405180910390fd5b8060138190555082601560008773ffffffffffffffffffffffffffffffffffffffff1673ffffffffffffffffffffffffffffffffffffffff1681526020019081526020016000208190555060005b8481101561257b576125688682856125639190613c61565b61234a565b808061257390613d57565b91505061254b565b505050505050565b8173ffffffffffffffffffffffffffffffffffffffff168373ffffffffffffffffffffffffffffffffffffffff1614156125f2576040517f08c379a00000000000000000000000000000000000000000000000000000000081526004016125e99061471c565b60405180910390fd5b80600560008573ffffffffffffffffffffffffffffffffffffffff1673ffffffffffffffffffffffffffffffffffffffff16815260200190815260200160002060008473ffffffffffffffffffffffffffffffffffffffff1673ffffffffffffffffffffffffffffffffffffffff16815260200190815260200160002060006101000a81548160ff0219169083151502179055508173ffffffffffffffffffffffffffffffffffffffff168373ffffffffffffffffffffffffffffffffffffffff167f17307eab39ab6107e8899845ad3d59bd9653f200f220920489ca2b5937696c31836040516126e39190613124565b60405180910390a3505050565b6126fb848484611e5a565b61270784848484612b18565b612746576040517f08c379a000000000000000000000000000000000000000000000000000000000815260040161273d906147ae565b60405180910390fd5b50505050565b60606014805461275b9061380c565b80601f01602080910402602001604051908101604052809291908181526020018280546127879061380c565b80156127d45780601f106127a9576101008083540402835291602001916127d4565b820191906000526020600020905b8154815290600101906020018083116127b757829003601f168201915b5050505050905090565b60606000821415612826576040518060400160405280600181526020017f3000000000000000000000000000000000000000000000000000000000000000815250905061293a565b600082905060005b6000821461285857808061284190613d57565b915050600a8261285191906147fd565b915061282e565b60008167ffffffffffffffff81111561287457612873613485565b5b6040519080825280601f01601f1916602001820160405280156128a65781602001600182028036833780820191505090505b5090505b60008514612933576001826128bf9190613cb7565b9150600a856128ce919061482e565b60306128da9190613c61565b60f81b8183815181106128f0576128ef613e32565b5b60200101907effffffffffffffffffffffffffffffffffffffffffffffffffffffffffffff1916908160001a905350600a8561292c91906147fd565b94506128aa565b8093505050505b919050565b60007f01ffc9a7000000000000000000000000000000000000000000000000000000007bffffffffffffffffffffffffffffffffffffffffffffffffffffffff1916827bffffffffffffffffffffffffffffffffffffffffffffffffffffffff1916149050919050565b6129b4838383612caf565b600073ffffffffffffffffffffffffffffffffffffffff168373ffffffffffffffffffffffffffffffffffffffff1614156129f7576129f281612cb4565b612a36565b8173ffffffffffffffffffffffffffffffffffffffff168373ffffffffffffffffffffffffffffffffffffffff1614612a3557612a348382612cfd565b5b5b600073ffffffffffffffffffffffffffffffffffffffff168273ffffffffffffffffffffffffffffffffffffffff161415612a7957612a7481612e6a565b612ab8565b8273ffffffffffffffffffffffffffffffffffffffff168273ffffffffffffffffffffffffffffffffffffffff1614612ab757612ab68282612f3b565b5b5b505050565b612ac783836120b6565b612ad46000848484612b18565b612b13576040517f08c379a0000000000000000000000000000000000000000000000000000000008152600401612b0a906147ae565b60405180910390fd5b505050565b6000612b398473ffffffffffffffffffffffffffffffffffffffff16612fba565b15612ca2578373ffffffffffffffffffffffffffffffffffffffff1663150b7a02612b62611cbb565b8786866040518563ffffffff1660e01b8152600401612b8494939291906148b4565b602060405180830381600087803b158015612b9e57600080fd5b505af1925050508015612bcf57506040513d601f19601f82011682018060405250810190612bcc9190614915565b60015b612c52573d8060008114612bff576040519150601f19603f3d011682016040523d82523d6000602084013e612c04565b606091505b50600081511415612c4a576040517f08c379a0000000000000000000000000000000000000000000000000000000008152600401612c41906147ae565b60405180910390fd5b805181602001fd5b63150b7a0260e01b7bffffffffffffffffffffffffffffffffffffffffffffffffffffffff1916817bffffffffffffffffffffffffffffffffffffffffffffffffffffffff191614915050612ca7565b600190505b949350505050565b505050565b6008805490506009600083815260200190815260200160002081905550600881908060018154018082558091505060019003906000526020600020016000909190919091505550565b60006001612d0a846112d8565b612d149190613cb7565b9050600060076000848152602001908152602001600020549050818114612df9576000600660008673ffffffffffffffffffffffffffffffffffffffff1673ffffffffffffffffffffffffffffffffffffffff168152602001908152602001600020600084815260200190815260200160002054905080600660008773ffffffffffffffffffffffffffffffffffffffff1673ffffffffffffffffffffffffffffffffffffffff168152602001908152602001600020600084815260200190815260200160002081905550816007600083815260200190815260200160002081905550505b6007600084815260200190815260200160002060009055600660008573ffffffffffffffffffffffffffffffffffffffff1673ffffffffffffffffffffffffffffffffffffffff16815260200190815260200160002060008381526020019081526020016000206000905550505050565b60006001600880549050612e7e9190613cb7565b9050600060096000848152602001908152602001600020549050600060088381548110612eae57612ead613e32565b5b906000526020600020015490508060088381548110612ed057612ecf613e32565b5b906000526020600020018190555081600960008381526020019081526020016000208190555060096000858152602001908152602001600020600090556008805480612f1f57612f1e614942565b5b6001900381819060005260206000200160009055905550505050565b6000612f46836112d8565b905081600660008573ffffffffffffffffffffffffffffffffffffffff1673ffffffffffffffffffffffffffffffffffffffff168152602001908152602001600020600083815260200190815260200160002081905550806007600084815260200190815260200160002081905550505050565b600080823b905060008111915050919050565b828054612fd99061380c565b90600052602060002090601f016020900481019282612ffb5760008555613042565b82601f1061301457805160ff1916838001178555613042565b82800160010185558215613042579182015b82811115613041578251825591602001919060010190613026565b5b50905061304f9190613053565b5090565b5b8082111561306c576000816000905550600101613054565b5090565b6000604051905090565b600080fd5b600080fd5b60007fffffffff0000000000000000000000000000000000000000000000000000000082169050919050565b6130b981613084565b81146130c457600080fd5b50565b6000813590506130d6816130b0565b92915050565b6000602082840312156130f2576130f161307a565b5b6000613100848285016130c7565b91505092915050565b60008115159050919050565b61311e81613109565b82525050565b60006020820190506131396000830184613115565b92915050565b600081519050919050565b600082825260208201905092915050565b60005b8381101561317957808201518184015260208101905061315e565b83811115613188576000848401525b50505050565b6000601f19601f8301169050919050565b60006131aa8261313f565b6131b4818561314a565b93506131c481856020860161315b565b6131cd8161318e565b840191505092915050565b600060208201905081810360008301526131f2818461319f565b905092915050565b6000819050919050565b61320d816131fa565b811461321857600080fd5b50565b60008135905061322a81613204565b92915050565b6000602082840312156132465761324561307a565b5b60006132548482850161321b565b91505092915050565b600073ffffffffffffffffffffffffffffffffffffffff82169050919050565b60006132888261325d565b9050919050565b6132988161327d565b82525050565b60006020820190506132b3600083018461328f565b92915050565b6132c28161327d565b81146132cd57600080fd5b50565b6000813590506132df816132b9565b92915050565b600080604083850312156132fc576132fb61307a565b5b600061330a858286016132d0565b925050602061331b8582860161321b565b9150509250929050565b61332e816131fa565b82525050565b60006020820190506133496000830184613325565b92915050565b6000602082840312156133655761336461307a565b5b6000613373848285016132d0565b91505092915050565b6000806000606084860312156133955761339461307a565b5b60006133a3868287016132d0565b93505060206133b4868287016132d0565b92505060406133c58682870161321b565b9150509250925092565b6133d881613109565b81146133e357600080fd5b50565b6000813590506133f5816133cf565b92915050565b6000602082840312156134115761341061307a565b5b600061341f848285016133e6565b91505092915050565b6000806000606084860312156134415761344061307a565b5b600061344f8682870161321b565b93505060206134608682870161321b565b92505060406134718682870161321b565b9150509250925092565b600080fd5b600080fd5b7f4e487b7100000000000000000000000000000000000000000000000000000000600052604160045260246000fd5b6134bd8261318e565b810181811067ffffffffffffffff821117156134dc576134db613485565b5b80604052505050565b60006134ef613070565b90506134fb82826134b4565b919050565b600067ffffffffffffffff82111561351b5761351a613485565b5b6135248261318e565b9050602081019050919050565b82818337600083830152505050565b600061355361354e84613500565b6134e5565b90508281526020810184848401111561356f5761356e613480565b5b61357a848285613531565b509392505050565b600082601f8301126135975761359661347b565b5b81356135a7848260208601613540565b91505092915050565b6000602082840312156135c6576135c561307a565b5b600082013567ffffffffffffffff8111156135e4576135e361307f565b5b6135f084828501613582565b91505092915050565b600080604083850312156136105761360f61307a565b5b600061361e858286016132d0565b925050602061362f858286016133e6565b9150509250929050565b600067ffffffffffffffff82111561365457613653613485565b5b61365d8261318e565b9050602081019050919050565b600061367d61367884613639565b6134e5565b90508281526020810184848401111561369957613698613480565b5b6136a4848285613531565b509392505050565b600082601f8301126136c1576136c061347b565b5b81356136d184826020860161366a565b91505092915050565b600080600080608085870312156136f4576136f361307a565b5b6000613702878288016132d0565b9450506020613713878288016132d0565b93505060406137248782880161321b565b925050606085013567ffffffffffffffff8111156137455761374461307f565b5b613751878288016136ac565b91505092959194509250565b600080604083850312156137745761377361307a565b5b6000613782858286016132d0565b9250506020613793858286016132d0565b9150509250929050565b600080604083850312156137b4576137b361307a565b5b60006137c28582860161321b565b92505060206137d38582860161321b565b9150509250929050565b7f4e487b7100000000000000000000000000000000000000000000000000000000600052602260045260246000fd5b6000600282049050600182168061382457607f821691505b60208210811415613838576138376137dd565b5b50919050565b7f4552433732313a20617070726f76656420717565727920666f72206e6f6e657860008201527f697374656e7420746f6b656e0000000000000000000000000000000000000000602082015250565b600061389a602c8361314a565b91506138a58261383e565b604082019050919050565b600060208201905081810360008301526138c98161388d565b9050919050565b7f4552433732313a20617070726f76616c20746f2063757272656e74206f776e6560008201527f7200000000000000000000000000000000000000000000000000000000000000602082015250565b600061392c60218361314a565b9150613937826138d0565b604082019050919050565b6000602082019050818103600083015261395b8161391f565b9050919050565b7f4552433732313a20617070726f76652063616c6c6572206973206e6f74206f7760008201527f6e6572206e6f7220617070726f76656420666f7220616c6c0000000000000000602082015250565b60006139be60388361314a565b91506139c982613962565b604082019050919050565b600060208201905081810360008301526139ed816139b1565b9050919050565b600081519050613a0381613204565b92915050565b600060208284031215613a1f57613a1e61307a565b5b6000613a2d848285016139f4565b91505092915050565b7f4552433732313a207472616e736665722063616c6c6572206973206e6f74206f60008201527f776e6572206e6f7220617070726f766564000000000000000000000000000000602082015250565b6000613a9260318361314a565b9150613a9d82613a36565b604082019050919050565b60006020820190508181036000830152613ac181613a85565b9050919050565b7f4f776e61626c653a2063616c6c6572206973206e6f7420746865206f776e6572600082015250565b6000613afe60208361314a565b9150613b0982613ac8565b602082019050919050565b60006020820190508181036000830152613b2d81613af1565b9050919050565b7f455243373231456e756d657261626c653a206f776e657220696e646578206f7560008201527f74206f6620626f756e6473000000000000000000000000000000000000000000602082015250565b6000613b90602b8361314a565b9150613b9b82613b34565b604082019050919050565b60006020820190508181036000830152613bbf81613b83565b9050919050565b7f494e56414c49445f414d4f554e54000000000000000000000000000000000000600082015250565b6000613bfc600e8361314a565b9150613c0782613bc6565b602082019050919050565b60006020820190508181036000830152613c2b81613bef565b9050919050565b7f4e487b7100000000000000000000000000000000000000000000000000000000600052601160045260246000fd5b6000613c6c826131fa565b9150613c77836131fa565b9250827fffffffffffffffffffffffffffffffffffffffffffffffffffffffffffffffff03821115613cac57613cab613c32565b5b828201905092915050565b6000613cc2826131fa565b9150613ccd836131fa565b925082821015613ce057613cdf613c32565b5b828203905092915050565b7f5445414d5f4c494d49545f455843454544454400000000000000000000000000600082015250565b6000613d2160138361314a565b9150613d2c82613ceb565b602082019050919050565b60006020820190508181036000830152613d5081613d14565b9050919050565b6000613d62826131fa565b91507fffffffffffffffffffffffffffffffffffffffffffffffffffffffffffffffff821415613d9557613d94613c32565b5b600182019050919050565b7f455243373231456e756d657261626c653a20676c6f62616c20696e646578206f60008201527f7574206f6620626f756e64730000000000000000000000000000000000000000602082015250565b6000613dfc602c8361314a565b9150613e0782613da0565b604082019050919050565b60006020820190508181036000830152613e2b81613def565b9050919050565b7f4e487b7100000000000000000000000000000000000000000000000000000000600052603260045260246000fd5b7f4552433732313a206f776e657220717565727920666f72206e6f6e657869737460008201527f656e7420746f6b656e0000000000000000000000000000000000000000000000602082015250565b6000613ebd60298361314a565b9150613ec882613e61565b604082019050919050565b60006020820190508181036000830152613eec81613eb0565b9050919050565b7f4552433732313a2062616c616e636520717565727920666f7220746865207a6560008201527f726f206164647265737300000000000000000000000000000000000000000000602082015250565b6000613f4f602a8361314a565b9150613f5a82613ef3565b604082019050919050565b60006020820190508181036000830152613f7e81613f42565b9050919050565b7f53414c455f4e4f545f4f50454e00000000000000000000000000000000000000600082015250565b6000613fbb600d8361314a565b9150613fc682613f85565b602082019050919050565b60006020820190508181036000830152613fea81613fae565b9050919050565b6000613ffc826131fa565b9150614007836131fa565b9250817fffffffffffffffffffffffffffffffffffffffffffffffffffffffffffffffff04831182151516156140405761403f613c32565b5b828202905092915050565b7f57524f4e475f4554485f56414c55450000000000000000000000000000000000600082015250565b6000614081600f8361314a565b915061408c8261404b565b602082019050919050565b600060208201905081810360008301526140b081614074565b9050919050565b7f4d494e545f4e4f545f4f50454e00000000000000000000000000000000000000600082015250565b60006140ed600d8361314a565b91506140f8826140b7565b602082019050919050565b6000602082019050818103600083015261411c816140e0565b9050919050565b7f4552433732314d657461646174613a2055524920717565727920666f72206e6f60008201527f6e6578697374656e7420746f6b656e0000000000000000000000000000000000602082015250565b600061417f602f8361314a565b915061418a82614123565b604082019050919050565b600060208201905081810360008301526141ae81614172565b9050919050565b600081905092915050565b60006141cb8261313f565b6141d581856141b5565b93506141e581856020860161315b565b80840191505092915050565b7f2e6a736f6e000000000000000000000000000000000000000000000000000000600082015250565b60006142276005836141b5565b9150614232826141f1565b600582019050919050565b600061424982856141c0565b915061425582846141c0565b91506142608261421a565b91508190509392505050565b7f4f776e61626c653a206e6577206f776e657220697320746865207a65726f206160008201527f6464726573730000000000000000000000000000000000000000000000000000602082015250565b60006142c860268361314a565b91506142d38261426c565b604082019050919050565b600060208201905081810360008301526142f7816142bb565b9050919050565b7f494e56414c49445f54494d455354414d50530000000000000000000000000000600082015250565b600061433460128361314a565b915061433f826142fe565b602082019050919050565b6000602082019050818103600083015261436381614327565b9050919050565b7f4552433732313a206f70657261746f7220717565727920666f72206e6f6e657860008201527f697374656e7420746f6b656e0000000000000000000000000000000000000000602082015250565b60006143c6602c8361314a565b91506143d18261436a565b604082019050919050565b600060208201905081810360008301526143f5816143b9565b9050919050565b7f4552433732313a207472616e73666572206f6620746f6b656e2074686174206960008201527f73206e6f74206f776e0000000000000000000000000000000000000000000000602082015250565b600061445860298361314a565b9150614463826143fc565b604082019050919050565b600060208201905081810360008301526144878161444b565b9050919050565b7f4552433732313a207472616e7366657220746f20746865207a65726f2061646460008201527f7265737300000000000000000000000000000000000000000000000000000000602082015250565b60006144ea60248361314a565b91506144f58261448e565b604082019050919050565b60006020820190508181036000830152614519816144dd565b9050919050565b7f4552433732313a206d696e7420746f20746865207a65726f2061646472657373600082015250565b600061455660208361314a565b915061456182614520565b602082019050919050565b6000602082019050818103600083015261458581614549565b9050919050565b7f4552433732313a20746f6b656e20616c7265616479206d696e74656400000000600082015250565b60006145c2601c8361314a565b91506145cd8261458c565b602082019050919050565b600060208201905081810360008301526145f1816145b5565b9050919050565b7f57414c4c45545f4c494d49545f45584345454445440000000000000000000000600082015250565b600061462e60158361314a565b9150614639826145f8565b602082019050919050565b6000602082019050818103600083015261465d81614621565b9050919050565b7f53414c455f4c494d49545f455843454544454400000000000000000000000000600082015250565b600061469a60138361314a565b91506146a582614664565b602082019050919050565b600060208201905081810360008301526146c98161468d565b9050919050565b7f4552433732313a20617070726f766520746f2063616c6c657200000000000000600082015250565b600061470660198361314a565b9150614711826146d0565b602082019050919050565b60006020820190508181036000830152614735816146f9565b9050919050565b7f4552433732313a207472616e7366657220746f206e6f6e20455243373231526560008201527f63656976657220696d706c656d656e7465720000000000000000000000000000602082015250565b600061479860328361314a565b91506147a38261473c565b604082019050919050565b600060208201905081810360008301526147c78161478b565b9050919050565b7f4e487b7100000000000000000000000000000000000000000000000000000000600052601260045260246000fd5b6000614808826131fa565b9150614813836131fa565b925082614823576148226147ce565b5b828204905092915050565b6000614839826131fa565b9150614844836131fa565b925082614854576148536147ce565b5b828206905092915050565b600081519050919050565b600082825260208201905092915050565b60006148868261485f565b614890818561486a565b93506148a081856020860161315b565b6148a98161318e565b840191505092915050565b60006080820190506148c9600083018761328f565b6148d6602083018661328f565b6148e36040830185613325565b81810360608301526148f5818461487b565b905095945050505050565b60008151905061490f816130b0565b92915050565b60006020828403121561492b5761492a61307a565b5b600061493984828501614900565b91505092915050565b7f4e487b7100000000000000000000000000000000000000000000000000000000600052603160045260246000fdfe68747470733a2f2f6865726f696e66696e6974792e6d7970696e6174612e636c6f75642f697066732f516d5271717a6e5062435564654a41727a55594c4d6975477265706d4a766d6a6269546f70594d70544a62414262a2646970667358221220a6c6dbfc53b3d4f3b158a32598ad8e32a7fd2b54ffcce1ef80f51ac36cbc33f764736f6c63430008090033",
  "linkReferences": {},
  "deployedLinkReferences": {}
}