{
  "_format": "hh-sol-artifact-1",
  "contractName": "HeroManager",
  "sourceName": "contracts/game/HeroManager.sol",
  "abi": [
    {
      "inputs": [],
      "stateMutability": "nonpayable",
      "type": "constructor"
    },
    {
      "anonymous": false,
      "inputs": [
        {
          "indexed": true,
          "internalType": "address",
          "name": "previousOwner",
          "type": "address"
        },
        {
          "indexed": true,
          "internalType": "address",
          "name": "newOwner",
          "type": "address"
        }
      ],
      "name": "OwnershipTransferred",
      "type": "event"
    },
    {
      "inputs": [],
      "name": "HERO_MAX_LEVEL",
      "outputs": [
        {
          "internalType": "uint8",
          "name": "",
          "type": "uint8"
        }
      ],
      "stateMutability": "view",
      "type": "function"
    },
    {
      "inputs": [
        {
          "internalType": "uint256",
          "name": "heroId",
          "type": "uint256"
        },
        {
          "components": [
            {
              "internalType": "uint8",
              "name": "level",
              "type": "uint8"
            },
            {
              "internalType": "uint8",
              "name": "rarity",
              "type": "uint8"
            },
            {
              "internalType": "uint8",
              "name": "primaryAttribute",
              "type": "uint8"
            },
            {
              "internalType": "uint8",
              "name": "strength",
              "type": "uint8"
            },
            {
              "internalType": "uint8",
              "name": "strengthGain",
              "type": "uint8"
            },
            {
              "internalType": "uint8",
              "name": "agility",
              "type": "uint8"
            },
            {
              "internalType": "uint8",
              "name": "agilityGain",
              "type": "uint8"
            },
            {
              "internalType": "uint8",
              "name": "intelligence",
              "type": "uint8"
            },
            {
              "internalType": "uint8",
              "name": "intelligenceGain",
              "type": "uint8"
            },
            {
              "internalType": "uint8",
              "name": "experience",
              "type": "uint8"
            }
          ],
          "internalType": "struct GameFi.Hero",
          "name": "hero",
          "type": "tuple"
        }
      ],
      "name": "addHero",
      "outputs": [],
      "stateMutability": "nonpayable",
      "type": "function"
    },
    {
      "inputs": [],
      "name": "baseLevelUpFee",
      "outputs": [
        {
          "internalType": "uint256",
          "name": "",
          "type": "uint256"
        }
      ],
      "stateMutability": "view",
      "type": "function"
    },
    {
      "inputs": [],
      "name": "bonusExp",
      "outputs": [
        {
          "internalType": "uint8",
          "name": "",
          "type": "uint8"
        }
      ],
      "stateMutability": "view",
      "type": "function"
    },
    {
      "inputs": [],
      "name": "bonusLevelUpFee",
      "outputs": [
        {
          "internalType": "uint256",
          "name": "",
          "type": "uint256"
        }
      ],
      "stateMutability": "view",
      "type": "function"
    },
    {
      "inputs": [
        {
          "internalType": "uint256[]",
          "name": "heroIds",
          "type": "uint256[]"
        }
      ],
      "name": "bulkExpDown",
      "outputs": [],
      "stateMutability": "nonpayable",
      "type": "function"
    },
    {
      "inputs": [
        {
          "internalType": "uint256[]",
          "name": "heroIds",
          "type": "uint256[]"
        }
      ],
      "name": "bulkExpUp",
      "outputs": [],
      "stateMutability": "nonpayable",
      "type": "function"
    },
    {
      "inputs": [
        {
          "internalType": "uint256",
          "name": "heroId",
          "type": "uint256"
        }
      ],
      "name": "expDown",
      "outputs": [],
      "stateMutability": "nonpayable",
      "type": "function"
    },
    {
      "inputs": [
        {
          "internalType": "uint256",
          "name": "heroId",
          "type": "uint256"
        }
      ],
      "name": "expUp",
      "outputs": [],
      "stateMutability": "nonpayable",
      "type": "function"
    },
    {
      "inputs": [
        {
          "internalType": "uint256",
          "name": "heroId",
          "type": "uint256"
        }
      ],
      "name": "heroBonusExp",
      "outputs": [
        {
          "internalType": "uint8",
          "name": "",
          "type": "uint8"
        }
      ],
      "stateMutability": "view",
      "type": "function"
    },
    {
      "inputs": [
        {
          "internalType": "uint256",
          "name": "heroId",
          "type": "uint256"
        }
      ],
      "name": "heroLevel",
      "outputs": [
        {
          "internalType": "uint8",
          "name": "",
          "type": "uint8"
        }
      ],
      "stateMutability": "view",
      "type": "function"
    },
    {
      "inputs": [
        {
          "internalType": "uint256",
          "name": "heroId",
          "type": "uint256"
        }
      ],
      "name": "heroPower",
      "outputs": [
        {
          "internalType": "uint256",
          "name": "",
          "type": "uint256"
        }
      ],
      "stateMutability": "view",
      "type": "function"
    },
    {
      "inputs": [
        {
          "internalType": "uint256",
          "name": "heroId",
          "type": "uint256"
        }
      ],
      "name": "heroPrimaryAttribute",
      "outputs": [
        {
          "internalType": "uint8",
          "name": "",
          "type": "uint8"
        }
      ],
      "stateMutability": "view",
      "type": "function"
    },
    {
      "inputs": [
        {
          "internalType": "uint256",
          "name": "",
          "type": "uint256"
        }
      ],
      "name": "heroes",
      "outputs": [
        {
          "internalType": "uint8",
          "name": "level",
          "type": "uint8"
        },
        {
          "internalType": "uint8",
          "name": "rarity",
          "type": "uint8"
        },
        {
          "internalType": "uint8",
          "name": "primaryAttribute",
          "type": "uint8"
        },
        {
          "internalType": "uint8",
          "name": "strength",
          "type": "uint8"
        },
        {
          "internalType": "uint8",
          "name": "strengthGain",
          "type": "uint8"
        },
        {
          "internalType": "uint8",
          "name": "agility",
          "type": "uint8"
        },
        {
          "internalType": "uint8",
          "name": "agilityGain",
          "type": "uint8"
        },
        {
          "internalType": "uint8",
          "name": "intelligence",
          "type": "uint8"
        },
        {
          "internalType": "uint8",
          "name": "intelligenceGain",
          "type": "uint8"
        },
        {
          "internalType": "uint8",
          "name": "experience",
          "type": "uint8"
        }
      ],
      "stateMutability": "view",
      "type": "function"
    },
    {
      "inputs": [
        {
          "internalType": "uint256",
          "name": "heroId",
          "type": "uint256"
        },
        {
          "internalType": "uint8",
          "name": "levels",
          "type": "uint8"
        }
      ],
      "name": "levelUp",
      "outputs": [],
      "stateMutability": "nonpayable",
      "type": "function"
    },
    {
      "inputs": [],
      "name": "lobbyBattleAddress",
      "outputs": [
        {
          "internalType": "address",
          "name": "",
          "type": "address"
        }
      ],
      "stateMutability": "view",
      "type": "function"
    },
    {
      "inputs": [
        {
          "internalType": "bytes[]",
          "name": "data",
          "type": "bytes[]"
        }
      ],
      "name": "multicall",
      "outputs": [
        {
          "internalType": "bytes[]",
          "name": "results",
          "type": "bytes[]"
        }
      ],
      "stateMutability": "nonpayable",
      "type": "function"
    },
    {
      "inputs": [],
      "name": "nft",
      "outputs": [
        {
          "internalType": "contract IERC721",
          "name": "",
          "type": "address"
        }
      ],
      "stateMutability": "view",
      "type": "function"
    },
    {
      "inputs": [],
      "name": "owner",
      "outputs": [
        {
          "internalType": "address",
          "name": "",
          "type": "address"
        }
      ],
      "stateMutability": "view",
      "type": "function"
    },
    {
      "inputs": [],
      "name": "primaryPowerMultiplier",
      "outputs": [
        {
          "internalType": "uint256",
          "name": "",
          "type": "uint256"
        }
      ],
      "stateMutability": "view",
      "type": "function"
    },
    {
      "inputs": [
        {
          "internalType": "uint256",
          "name": "min",
          "type": "uint256"
        },
        {
          "internalType": "uint256",
          "name": "max",
          "type": "uint256"
        }
      ],
      "name": "random",
      "outputs": [
        {
          "internalType": "uint256",
          "name": "",
          "type": "uint256"
        }
      ],
      "stateMutability": "view",
      "type": "function"
    },
    {
      "inputs": [],
      "name": "rarityPowerBooster",
      "outputs": [
        {
          "internalType": "uint256",
          "name": "",
          "type": "uint256"
        }
      ],
      "stateMutability": "view",
      "type": "function"
    },
    {
      "inputs": [],
      "name": "renounceOwnership",
      "outputs": [],
      "stateMutability": "nonpayable",
      "type": "function"
    },
    {
      "inputs": [],
      "name": "secondaryMultiplier",
      "outputs": [
        {
          "internalType": "uint256",
          "name": "",
          "type": "uint256"
        }
      ],
      "stateMutability": "view",
      "type": "function"
    },
    {
      "inputs": [
        {
          "internalType": "uint256",
          "name": "value",
          "type": "uint256"
        }
      ],
      "name": "setBaseLevelUpFee",
      "outputs": [],
      "stateMutability": "nonpayable",
      "type": "function"
    },
    {
      "inputs": [
        {
          "internalType": "uint8",
          "name": "value",
          "type": "uint8"
        }
      ],
      "name": "setBonusExp",
      "outputs": [],
      "stateMutability": "nonpayable",
      "type": "function"
    },
    {
      "inputs": [
        {
          "internalType": "uint256",
          "name": "value",
          "type": "uint256"
        }
      ],
      "name": "setBonusLevelUpFee",
      "outputs": [],
      "stateMutability": "nonpayable",
      "type": "function"
    },
    {
      "inputs": [
        {
          "internalType": "address",
          "name": "lbAddr",
          "type": "address"
        }
      ],
      "name": "setLobbyBattle",
      "outputs": [],
      "stateMutability": "nonpayable",
      "type": "function"
    },
    {
      "inputs": [
        {
          "internalType": "address",
          "name": "nftAddress",
          "type": "address"
        }
      ],
      "name": "setNFT",
      "outputs": [],
      "stateMutability": "nonpayable",
      "type": "function"
    },
    {
      "inputs": [
        {
          "internalType": "uint256",
          "name": "value",
          "type": "uint256"
        }
      ],
      "name": "setPrimaryPowerMultiplier",
      "outputs": [],
      "stateMutability": "nonpayable",
      "type": "function"
    },
    {
      "inputs": [
        {
          "internalType": "uint256",
          "name": "value",
          "type": "uint256"
        }
      ],
      "name": "setRarityPowerBooster",
      "outputs": [],
      "stateMutability": "nonpayable",
      "type": "function"
    },
    {
      "inputs": [
        {
          "internalType": "uint256",
          "name": "value",
          "type": "uint256"
        }
      ],
      "name": "setSecondaryMultiplier",
      "outputs": [],
      "stateMutability": "nonpayable",
      "type": "function"
    },
    {
      "inputs": [
        {
          "internalType": "uint256",
          "name": "value",
          "type": "uint256"
        }
      ],
      "name": "setThirdMultiplier",
      "outputs": [],
      "stateMutability": "nonpayable",
      "type": "function"
    },
    {
      "inputs": [
        {
          "internalType": "address",
          "name": "tokenAddress",
          "type": "address"
        }
      ],
      "name": "setToken",
      "outputs": [],
      "stateMutability": "nonpayable",
      "type": "function"
    },
    {
      "inputs": [],
      "name": "thirdMultiplier",
      "outputs": [
        {
          "internalType": "uint256",
          "name": "",
          "type": "uint256"
        }
      ],
      "stateMutability": "view",
      "type": "function"
    },
    {
      "inputs": [],
      "name": "token",
      "outputs": [
        {
          "internalType": "contract IERC20",
          "name": "",
          "type": "address"
        }
      ],
      "stateMutability": "view",
      "type": "function"
    },
    {
      "inputs": [
        {
          "internalType": "address",
          "name": "newOwner",
          "type": "address"
        }
      ],
      "name": "transferOwnership",
      "outputs": [],
      "stateMutability": "nonpayable",
      "type": "function"
    },
    {
      "inputs": [
        {
          "internalType": "address payable",
          "name": "recipient",
          "type": "address"
        }
      ],
      "name": "withdrawDustETH",
      "outputs": [],
      "stateMutability": "nonpayable",
      "type": "function"
    },
    {
      "stateMutability": "payable",
      "type": "receive"
    }
  ],
  "bytecode": "0x6080604052690a968163f0a57b40000060045569021e19e0c9bab2400000600555600a600681815560086007819055556009805460ff1916601e179055606e905534801561004c57600080fd5b506100563361005b565b6100ab565b600080546001600160a01b038381166001600160a01b0319831681178455604051919092169283917f8be0079c531659141344cd1fd0a4f28419497f9722a3daafe3b4186f6b6457e09190a35050565b612198806100ba6000396000f3fe6080604052600436106102295760003560e01c80638ff1e98e11610123578063cd8401a8116100ab578063f2fde38b1161006f578063f2fde38b1461071f578063f3d1b5ab1461073f578063f56e9c6614610775578063fc0c546a14610795578063fc585034146107b557600080fd5b8063cd8401a81461067f578063d5c1ed8a1461069f578063dda728cd146106bf578063e393c294146106df578063e3a015ce146106ff57600080fd5b8063a8d4a03b116100f2578063a8d4a03b1461051a578063a9dd122514610602578063aaef012214610622578063ab40514514610638578063ac9650d81461065257600080fd5b80638ff1e98e146104a45780639b12bc88146104c45780639bad6231146104da5780639e91beba146104fa57600080fd5b80633c68e1ad116101b157806357c773f11161017557806357c773f1146104115780636e7dff4d14610431578063715018a6146104515780637ce9dd54146104665780638da5cb5b1461048657600080fd5b80633c68e1ad146103635780634018b1ce1461037957806347ccca02146103995780634d70f87a146103d157806357a90e2b146103f157600080fd5b806313b60c51116101f857806313b60c51146102d8578063144fa6d7146102f857806323cb1c361461031857806331a03ca21461032e57806333ab05411461034357600080fd5b806301783dfa1461023557806306975ac21461025e5780630a36d40b14610274578063125d49f6146102b657600080fd5b3661023057005b600080fd5b34801561024157600080fd5b5061024b60065481565b6040519081526020015b60405180910390f35b34801561026a57600080fd5b5061024b60055481565b34801561028057600080fd5b506102a461028f36600461197b565b6000908152600b602052604090205460ff1690565b60405160ff9091168152602001610255565b3480156102c257600080fd5b506102d66102d13660046119a3565b6107d5565b005b3480156102e457600080fd5b506102d66102f336600461197b565b610d5e565b34801561030457600080fd5b506102d66103133660046119e8565b610d8d565b34801561032457600080fd5b5061024b60085481565b34801561033a57600080fd5b506102a4601e81565b34801561034f57600080fd5b506102d661035e36600461197b565b610dd9565b34801561036f57600080fd5b5061024b600a5481565b34801561038557600080fd5b506102d66103943660046119e8565b610e08565b3480156103a557600080fd5b506002546103b9906001600160a01b031681565b6040516001600160a01b039091168152602001610255565b3480156103dd57600080fd5b506102d66103ec36600461197b565b610e54565b3480156103fd57600080fd5b506102d661040c366004611a05565b610f54565b34801561041d57600080fd5b506102d661042c36600461197b565b610f94565b34801561043d57600080fd5b506102d661044c36600461197b565b6110c1565b34801561045d57600080fd5b506102d66110f0565b34801561047257600080fd5b506102d661048136600461197b565b611126565b34801561049257600080fd5b506000546001600160a01b03166103b9565b3480156104b057600080fd5b506102d66104bf366004611a6e565b611155565b3480156104d057600080fd5b5061024b60045481565b3480156104e657600080fd5b506102d66104f536600461197b565b6111c8565b34801561050657600080fd5b506102d6610515366004611ab0565b6111f7565b34801561052657600080fd5b506105a561053536600461197b565b600b6020526000908152604090205460ff808216916101008104821691620100008204811691630100000081048216916401000000008204811691650100000000008104821691600160301b8204811691600160381b8104821691600160401b8204811691600160481b9004168a565b6040805160ff9b8c168152998b1660208b0152978a16978901979097529488166060880152928716608087015290861660a0860152851660c0850152841660e0840152831661010083015290911661012082015261014001610255565b34801561060e57600080fd5b5061024b61061d366004611aea565b611241565b34801561062e57600080fd5b5061024b60075481565b34801561064457600080fd5b506009546102a49060ff1681565b34801561065e57600080fd5b5061067261066d366004611a6e565b6112ca565b6040516102559190611b64565b34801561068b57600080fd5b506102d661069a366004611a6e565b6113bf565b3480156106ab57600080fd5b5061024b6106ba36600461197b565b61142d565b3480156106cb57600080fd5b506102d66106da36600461197b565b611662565b3480156106eb57600080fd5b506102d66106fa3660046119e8565b611691565b34801561070b57600080fd5b506003546103b9906001600160a01b031681565b34801561072b57600080fd5b506102d661073a3660046119e8565b6116f0565b34801561074b57600080fd5b506102a461075a36600461197b565b6000908152600b602052604090205462010000900460ff1690565b34801561078157600080fd5b506102d66107903660046119e8565b611788565b3480156107a157600080fd5b506001546103b9906001600160a01b031681565b3480156107c157600080fd5b506102a46107d036600461197b565b6117d4565b6002546040516331a9108f60e11b81526004810184905233916001600160a01b031690636352211e9060240160206040518083038186803b15801561081957600080fd5b505afa15801561082d573d6000803e3d6000fd5b505050506040513d601f19601f820116820180604052508101906108519190611bc6565b6001600160a01b0316146108ac5760405162461bcd60e51b815260206004820152601c60248201527f4865726f4d616e616765723a206e6f742061204e4654206f776e65720000000060448201526064015b60405180910390fd5b6000828152600b6020908152604091829020825161014081018452905460ff8082168084526101008084048316958501959095526201000083048216958401959095526301000000820481166060840152640100000000820481166080840152650100000000008204811660a0840152600160301b8204811660c0840152600160381b8204811660e0840152600160401b8204811693830193909352600160481b900490911661012082015290601e116109a85760405162461bcd60e51b815260206004820152601b60248201527f4865726f4d616e616765723a206865726f206d6178206c6576656c000000000060448201526064016108a3565b8051601e906109b8908490611bf9565b60ff161115610a095760405162461bcd60e51b815260206004820152601f60248201527f4865726f4d616e616765723a20746f6f206d616e79206c6576656c732075700060448201526064016108a3565b8051600090610a1a90600190611c1e565b60ff16600554610a2a9190611c41565b600454610a379190611c60565b90506000600554600285600187610a4e9190611c1e565b610a589190611c78565b610a629190611cb7565b60ff16610a6f9190611c41565b610a7c60ff861684611c41565b610a869190611c60565b6001546040516323b872dd60e01b8152336004820152306024820152604481018390529192506001600160a01b0316906323b872dd90606401602060405180830381600087803b158015610ad957600080fd5b505af1158015610aed573d6000803e3d6000fd5b505050506040513d601f19601f82011682018060405250810190610b119190611cd9565b610b5d5760405162461bcd60e51b815260206004820152601b60248201527f4865726f4d616e616765723a206e6f7420656e6f75676820666565000000000060448201526064016108a3565b8383600001818151610b6f9190611bf9565b60ff169052506080830151610b85908590611c78565b83606001818151610b969190611bf9565b60ff1690525060c0830151610bac908590611c78565b8360a001818151610bbd9190611bf9565b60ff16905250610100830151610bd4908590611c78565b83606001818151610be59190611bf9565b91509060ff16908160ff168152505082600b600087815260200190815260200160002060008201518160000160006101000a81548160ff021916908360ff16021790555060208201518160000160016101000a81548160ff021916908360ff16021790555060408201518160000160026101000a81548160ff021916908360ff16021790555060608201518160000160036101000a81548160ff021916908360ff16021790555060808201518160000160046101000a81548160ff021916908360ff16021790555060a08201518160000160056101000a81548160ff021916908360ff16021790555060c08201518160000160066101000a81548160ff021916908360ff16021790555060e08201518160000160076101000a81548160ff021916908360ff1602179055506101008201518160000160086101000a81548160ff021916908360ff1602179055506101208201518160000160096101000a81548160ff021916908360ff1602179055509050505050505050565b6000546001600160a01b03163314610d885760405162461bcd60e51b81526004016108a390611cfb565b600655565b6000546001600160a01b03163314610db75760405162461bcd60e51b81526004016108a390611cfb565b600180546001600160a01b0319166001600160a01b0392909216919091179055565b6000546001600160a01b03163314610e035760405162461bcd60e51b81526004016108a390611cfb565b600455565b6000546001600160a01b03163314610e325760405162461bcd60e51b81526004016108a390611cfb565b600380546001600160a01b0319166001600160a01b0392909216919091179055565b6003546001600160a01b0316331480610e6c57503330145b610e885760405162461bcd60e51b81526004016108a390611d30565b6000818152600b6020526040902054600160ff9091161180610ec157506000818152600b6020526040902054600160481b900460ff1615155b15610f515760006002610ed3836117d4565b610edd9190611cb7565b6000838152600b6020526040902080549192508291600990610f0a908490600160481b900460ff16611c1e565b825460ff9182166101009390930a9283029190920219909116179055506000829052600b602052610f4f565b92506101000a81548160ff021916908360ff1602179055505b505b50565b6000546001600160a01b03163314610f7e5760405162461bcd60e51b81526004016108a390611cfb565b6009805460ff191660ff92909216919091179055565b6003546001600160a01b0316331480610fac57503330145b610fc85760405162461bcd60e51b81526004016108a390611d30565b6000818152600b6020526040902054601e60ff9091161015610f51576000610fef826117d4565b6000838152600b602052604090208054919250829160099061101c908490600160481b900460ff16611bf9565b82546101009290920a60ff8181021990931691831602179091556000848152600b60205260409020546064600160481b909104909116109050610f4f576000828152600b60205260409020805460649190600990611085908490600160481b900460ff16611c1e565b82546101009290920a60ff8181021990931691831602179091556000848152600b602052604081208054600194509092610f3691859116611bf9565b6000546001600160a01b031633146110eb5760405162461bcd60e51b81526004016108a390611cfb565b600555565b6000546001600160a01b0316331461111a5760405162461bcd60e51b81526004016108a390611cfb565b6111246000611801565b565b6000546001600160a01b031633146111505760405162461bcd60e51b81526004016108a390611cfb565b600855565b6003546001600160a01b0316331461117f5760405162461bcd60e51b81526004016108a390611d30565b60005b60ff81168211156111c3576111b183838360ff168181106111a5576111a5611d7a565b90506020020135610e54565b806111bb81611d90565b915050611182565b505050565b6000546001600160a01b031633146111f25760405162461bcd60e51b81526004016108a390611cfb565b600a55565b6000546001600160a01b031633146112215760405162461bcd60e51b81526004016108a390611cfb565b6000828152600b60205260409020819061123b8282611dbd565b50505050565b60008044423360405160200161127c93929190928352602083019190915260601b6bffffffffffffffffffffffff1916604082015260540190565b60408051601f1981840301815291905280516020909101209050836112a18185611f6a565b6112ac906001611c60565b6112b69083611f81565b6112c09190611c60565b9150505b92915050565b60608167ffffffffffffffff8111156112e5576112e5611f95565b60405190808252806020026020018201604052801561131857816020015b60608152602001906001900390816113035790505b50905060005b828110156113b8576113883085858481811061133c5761133c611d7a565b905060200281019061134e9190611fab565b8080601f01602080910402602001604051908101604052809392919081815260200183838082843760009201919091525061185192505050565b82828151811061139a5761139a611d7a565b602002602001018190525080806113b090611ff2565b91505061131e565b5092915050565b6003546001600160a01b031633146113e95760405162461bcd60e51b81526004016108a390611d30565b60005b60ff81168211156111c35761141b83838360ff1681811061140f5761140f611d7a565b90506020020135610f94565b8061142581611d90565b9150506113ec565b6000818152600b60209081526040808320815161014081018352905460ff808216835261010080830482169584019590955262010000820481169383018490526301000000820481166060840152640100000000820481166080840152650100000000008204811660a0840152600160301b8204811660c0840152600160381b8204811660e0840152600160401b8204811694830194909452600160481b90049092166101208301528290819081906114ff57836060015160ff1692508360e0015160ff1691508360a0015160ff1690505b836040015160ff166001141561152e578360a0015160ff169250836060015160ff1691508360e0015160ff1690505b836040015160ff166002141561155d578360e0015160ff1692508360a0015160ff169150836060015160ff1690505b60006008548261156d9190611c41565b60075461157a9085611c41565b6006546115879087611c41565b6115919190611c60565b61159b9190611c60565b9050846020015160ff16600114156115ce576064600a54826115bd9190611c41565b6115c7919061200d565b9050611658565b846020015160ff16600214156115fa576127106002600a546115f091906120fd565b6115bd9083611c41565b846020015160ff166003141561161d57620f42406003600a546115f091906120fd565b846020015160ff1660041415611658576305f5e1006004600a5461164191906120fd565b61164b9083611c41565b611655919061200d565b90505b9695505050505050565b6000546001600160a01b0316331461168c5760405162461bcd60e51b81526004016108a390611cfb565b600755565b6000546001600160a01b031633146116bb5760405162461bcd60e51b81526004016108a390611cfb565b6040516001600160a01b038216904780156108fc02916000818181858888f19350505050158015610f4f573d6000803e3d6000fd5b6000546001600160a01b0316331461171a5760405162461bcd60e51b81526004016108a390611cfb565b6001600160a01b03811661177f5760405162461bcd60e51b815260206004820152602660248201527f4f776e61626c653a206e6577206f776e657220697320746865207a65726f206160448201526564647265737360d01b60648201526084016108a3565b610f5181611801565b6000546001600160a01b031633146117b25760405162461bcd60e51b81526004016108a390611cfb565b600280546001600160a01b0319166001600160a01b0392909216919091179055565b6000818152600b60205260408120546009546117f69160ff9081169116611c1e565b6112c4906001611bf9565b600080546001600160a01b038381166001600160a01b0319831681178455604051919092169283917f8be0079c531659141344cd1fd0a4f28419497f9722a3daafe3b4186f6b6457e09190a35050565b6060611876838360405180606001604052806027815260200161213c6027913961187d565b9392505050565b6060833b6118dc5760405162461bcd60e51b815260206004820152602660248201527f416464726573733a2064656c65676174652063616c6c20746f206e6f6e2d636f6044820152651b9d1c9858dd60d21b60648201526084016108a3565b600080856001600160a01b0316856040516118f7919061210c565b600060405180830381855af49150503d8060008114611932576040519150601f19603f3d011682016040523d82523d6000602084013e611937565b606091505b509150915061165882828660608315611951575081611876565b8251156119615782518084602001fd5b8160405162461bcd60e51b81526004016108a39190612128565b60006020828403121561198d57600080fd5b5035919050565b60ff81168114610f5157600080fd5b600080604083850312156119b657600080fd5b8235915060208301356119c881611994565b809150509250929050565b6001600160a01b0381168114610f5157600080fd5b6000602082840312156119fa57600080fd5b8135611876816119d3565b600060208284031215611a1757600080fd5b813561187681611994565b60008083601f840112611a3457600080fd5b50813567ffffffffffffffff811115611a4c57600080fd5b6020830191508360208260051b8501011115611a6757600080fd5b9250929050565b60008060208385031215611a8157600080fd5b823567ffffffffffffffff811115611a9857600080fd5b611aa485828601611a22565b90969095509350505050565b600080828403610160811215611ac557600080fd5b83359250610140601f1982011215611adc57600080fd5b506020830190509250929050565b60008060408385031215611afd57600080fd5b50508035926020909101359150565b60005b83811015611b27578181015183820152602001611b0f565b8381111561123b5750506000910152565b60008151808452611b50816020860160208601611b0c565b601f01601f19169290920160200192915050565b6000602080830181845280855180835260408601915060408160051b870101925083870160005b82811015611bb957603f19888603018452611ba7858351611b38565b94509285019290850190600101611b8b565b5092979650505050505050565b600060208284031215611bd857600080fd5b8151611876816119d3565b634e487b7160e01b600052601160045260246000fd5b600060ff821660ff84168060ff03821115611c1657611c16611be3565b019392505050565b600060ff821660ff841680821015611c3857611c38611be3565b90039392505050565b6000816000190483118215151615611c5b57611c5b611be3565b500290565b60008219821115611c7357611c73611be3565b500190565b600060ff821660ff84168160ff0481118215151615611c9957611c99611be3565b029392505050565b634e487b7160e01b600052601260045260246000fd5b600060ff831680611cca57611cca611ca1565b8060ff84160491505092915050565b600060208284031215611ceb57600080fd5b8151801515811461187657600080fd5b6020808252818101527f4f776e61626c653a2063616c6c6572206973206e6f7420746865206f776e6572604082015260600190565b6020808252602a908201527f4865726f4d616e616765723a2063616c6c61626c65206279206c6f62627920626040820152696174746c65206f6e6c7960b01b606082015260800190565b634e487b7160e01b600052603260045260246000fd5b600060ff821660ff811415611da757611da7611be3565b60010192915050565b600081356112c481611994565b8135611dc881611994565b60ff811660ff19835416178255506020820135611de481611994565b815461ff001916600882901b61ff001617825550611e1f611e0760408401611db0565b825462ff0000191660109190911b62ff000016178255565b611e48611e2e60608401611db0565b825463ff000000191660189190911b63ff00000016178255565b611e73611e5760808401611db0565b825464ff00000000191660209190911b64ff0000000016178255565b611ea0611e8260a08401611db0565b825465ff0000000000191660289190911b65ff000000000016178255565b611ecf611eaf60c08401611db0565b825466ff000000000000191660309190911b66ff00000000000016178255565b611f00611ede60e08401611db0565b825467ff00000000000000191660389190911b67ff0000000000000016178255565b611f34611f106101008401611db0565b825468ff0000000000000000191660409190911b68ff000000000000000016178255565b610f4f611f446101208401611db0565b825469ff000000000000000000191660489190911b69ff00000000000000000016178255565b600082821015611f7c57611f7c611be3565b500390565b600082611f9057611f90611ca1565b500690565b634e487b7160e01b600052604160045260246000fd5b6000808335601e19843603018112611fc257600080fd5b83018035915067ffffffffffffffff821115611fdd57600080fd5b602001915036819003821315611a6757600080fd5b600060001982141561200657612006611be3565b5060010190565b60008261201c5761201c611ca1565b500490565b600181815b8085111561205c57816000190482111561204257612042611be3565b8085161561204f57918102915b93841c9390800290612026565b509250929050565b600082612073575060016112c4565b81612080575060006112c4565b816001811461209657600281146120a0576120bc565b60019150506112c4565b60ff8411156120b1576120b1611be3565b50506001821b6112c4565b5060208310610133831016604e8410600b84101617156120df575081810a6112c4565b6120e98383612021565b8060001904821115611c9957611c99611be3565b600061187660ff841683612064565b6000825161211e818460208701611b0c565b9190910192915050565b6020815260006118766020830184611b3856fe416464726573733a206c6f772d6c6576656c2064656c65676174652063616c6c206661696c6564a2646970667358221220005f1b3d82d9847b54aa4376a3b916fc2a2e6ba746ae762c0097061a66fa4fcc64736f6c63430008090033",
  "linkReferences": {},
  "deployedLinkReferences": {}
}