{
  "_format": "hh-sol-artifact-1",
  "contractName": "HeroManager",
  "sourceName": "contracts/game/HeroManager.sol",
  "abi": [
    {
      "inputs": [],
      "stateMutability": "nonpayable",
      "type": "constructor"
    },
    {
      "anonymous": false,
      "inputs": [
        {
          "indexed": true,
          "internalType": "address",
          "name": "previousOwner",
          "type": "address"
        },
        {
          "indexed": true,
          "internalType": "address",
          "name": "newOwner",
          "type": "address"
        }
      ],
      "name": "OwnershipTransferred",
      "type": "event"
    },
    {
      "inputs": [],
      "name": "HERO_MAX_EXP",
      "outputs": [
        {
          "internalType": "uint256",
          "name": "",
          "type": "uint256"
        }
      ],
      "stateMutability": "view",
      "type": "function"
    },
    {
      "inputs": [],
      "name": "HERO_MAX_LEVEL",
      "outputs": [
        {
          "internalType": "uint256",
          "name": "",
          "type": "uint256"
        }
      ],
      "stateMutability": "view",
      "type": "function"
    },
    {
      "inputs": [],
      "name": "NFT",
      "outputs": [
        {
          "internalType": "contract IERC721",
          "name": "",
          "type": "address"
        }
      ],
      "stateMutability": "view",
      "type": "function"
    },
    {
      "inputs": [],
      "name": "TOKEN",
      "outputs": [
        {
          "internalType": "contract IERC20",
          "name": "",
          "type": "address"
        }
      ],
      "stateMutability": "view",
      "type": "function"
    },
    {
      "inputs": [
        {
          "internalType": "uint256",
          "name": "heroId",
          "type": "uint256"
        },
        {
          "components": [
            {
              "internalType": "bytes32",
              "name": "name",
              "type": "bytes32"
            },
            {
              "internalType": "uint256",
              "name": "level",
              "type": "uint256"
            },
            {
              "internalType": "uint256",
              "name": "rarity",
              "type": "uint256"
            },
            {
              "internalType": "uint256",
              "name": "primaryAttribute",
              "type": "uint256"
            },
            {
              "internalType": "uint256",
              "name": "attackCapability",
              "type": "uint256"
            },
            {
              "internalType": "uint256",
              "name": "strength",
              "type": "uint256"
            },
            {
              "internalType": "uint256",
              "name": "strengthGain",
              "type": "uint256"
            },
            {
              "internalType": "uint256",
              "name": "agility",
              "type": "uint256"
            },
            {
              "internalType": "uint256",
              "name": "agilityGain",
              "type": "uint256"
            },
            {
              "internalType": "uint256",
              "name": "intelligence",
              "type": "uint256"
            },
            {
              "internalType": "uint256",
              "name": "intelligenceGain",
              "type": "uint256"
            },
            {
              "internalType": "uint256",
              "name": "experience",
              "type": "uint256"
            }
          ],
          "internalType": "struct GameFi.Hero",
          "name": "hero",
          "type": "tuple"
        }
      ],
      "name": "addHero",
      "outputs": [],
      "stateMutability": "nonpayable",
      "type": "function"
    },
    {
      "inputs": [],
      "name": "baseLevelUpFee",
      "outputs": [
        {
          "internalType": "uint256",
          "name": "",
          "type": "uint256"
        }
      ],
      "stateMutability": "view",
      "type": "function"
    },
    {
      "inputs": [],
      "name": "bonusExp",
      "outputs": [
        {
          "internalType": "uint256",
          "name": "",
          "type": "uint256"
        }
      ],
      "stateMutability": "view",
      "type": "function"
    },
    {
      "inputs": [],
      "name": "bonusLevelUpFee",
      "outputs": [
        {
          "internalType": "uint256",
          "name": "",
          "type": "uint256"
        }
      ],
      "stateMutability": "view",
      "type": "function"
    },
    {
      "inputs": [
        {
          "internalType": "uint256[]",
          "name": "heroIds",
          "type": "uint256[]"
        },
        {
          "internalType": "bool",
          "name": "won",
          "type": "bool"
        }
      ],
      "name": "bulkExpUp",
      "outputs": [],
      "stateMutability": "nonpayable",
      "type": "function"
    },
    {
      "inputs": [],
      "name": "energyRecoveryTime",
      "outputs": [
        {
          "internalType": "uint256",
          "name": "",
          "type": "uint256"
        }
      ],
      "stateMutability": "view",
      "type": "function"
    },
    {
      "inputs": [],
      "name": "expDiff",
      "outputs": [
        {
          "internalType": "uint256",
          "name": "",
          "type": "uint256"
        }
      ],
      "stateMutability": "view",
      "type": "function"
    },
    {
      "inputs": [
        {
          "internalType": "uint256",
          "name": "heroId",
          "type": "uint256"
        },
        {
          "internalType": "bool",
          "name": "won",
          "type": "bool"
        }
      ],
      "name": "expUp",
      "outputs": [],
      "stateMutability": "nonpayable",
      "type": "function"
    },
    {
      "inputs": [
        {
          "internalType": "uint256",
          "name": "heroId",
          "type": "uint256"
        }
      ],
      "name": "heroEnergy",
      "outputs": [
        {
          "internalType": "uint256",
          "name": "",
          "type": "uint256"
        }
      ],
      "stateMutability": "view",
      "type": "function"
    },
    {
      "inputs": [
        {
          "internalType": "uint256",
          "name": "heroId",
          "type": "uint256"
        }
      ],
      "name": "heroLevel",
      "outputs": [
        {
          "internalType": "uint256",
          "name": "",
          "type": "uint256"
        }
      ],
      "stateMutability": "view",
      "type": "function"
    },
    {
      "inputs": [
        {
          "internalType": "uint256",
          "name": "heroId",
          "type": "uint256"
        }
      ],
      "name": "heroPower",
      "outputs": [
        {
          "internalType": "uint256",
          "name": "",
          "type": "uint256"
        }
      ],
      "stateMutability": "view",
      "type": "function"
    },
    {
      "inputs": [
        {
          "internalType": "uint256",
          "name": "heroId",
          "type": "uint256"
        }
      ],
      "name": "heroPrimaryAttribute",
      "outputs": [
        {
          "internalType": "uint256",
          "name": "",
          "type": "uint256"
        }
      ],
      "stateMutability": "view",
      "type": "function"
    },
    {
      "inputs": [
        {
          "internalType": "uint256",
          "name": "",
          "type": "uint256"
        }
      ],
      "name": "heroes",
      "outputs": [
        {
          "internalType": "bytes32",
          "name": "name",
          "type": "bytes32"
        },
        {
          "internalType": "uint256",
          "name": "level",
          "type": "uint256"
        },
        {
          "internalType": "uint256",
          "name": "rarity",
          "type": "uint256"
        },
        {
          "internalType": "uint256",
          "name": "primaryAttribute",
          "type": "uint256"
        },
        {
          "internalType": "uint256",
          "name": "attackCapability",
          "type": "uint256"
        },
        {
          "internalType": "uint256",
          "name": "strength",
          "type": "uint256"
        },
        {
          "internalType": "uint256",
          "name": "strengthGain",
          "type": "uint256"
        },
        {
          "internalType": "uint256",
          "name": "agility",
          "type": "uint256"
        },
        {
          "internalType": "uint256",
          "name": "agilityGain",
          "type": "uint256"
        },
        {
          "internalType": "uint256",
          "name": "intelligence",
          "type": "uint256"
        },
        {
          "internalType": "uint256",
          "name": "intelligenceGain",
          "type": "uint256"
        },
        {
          "internalType": "uint256",
          "name": "experience",
          "type": "uint256"
        }
      ],
      "stateMutability": "view",
      "type": "function"
    },
    {
      "inputs": [
        {
          "internalType": "uint256",
          "name": "",
          "type": "uint256"
        }
      ],
      "name": "heroesEnergy",
      "outputs": [
        {
          "internalType": "uint256",
          "name": "",
          "type": "uint256"
        }
      ],
      "stateMutability": "view",
      "type": "function"
    },
    {
      "inputs": [
        {
          "internalType": "uint256",
          "name": "",
          "type": "uint256"
        }
      ],
      "name": "heroesEnergyUsedAt",
      "outputs": [
        {
          "internalType": "uint256",
          "name": "",
          "type": "uint256"
        }
      ],
      "stateMutability": "view",
      "type": "function"
    },
    {
      "inputs": [
        {
          "internalType": "uint256",
          "name": "heroId",
          "type": "uint256"
        },
        {
          "internalType": "uint256",
          "name": "levels",
          "type": "uint256"
        }
      ],
      "name": "levelUp",
      "outputs": [],
      "stateMutability": "nonpayable",
      "type": "function"
    },
    {
      "inputs": [],
      "name": "lobbyBattleAddress",
      "outputs": [
        {
          "internalType": "address",
          "name": "",
          "type": "address"
        }
      ],
      "stateMutability": "view",
      "type": "function"
    },
    {
      "inputs": [],
      "name": "maxHeroEnergy",
      "outputs": [
        {
          "internalType": "uint256",
          "name": "",
          "type": "uint256"
        }
      ],
      "stateMutability": "view",
      "type": "function"
    },
    {
      "inputs": [
        {
          "internalType": "bytes[]",
          "name": "data",
          "type": "bytes[]"
        }
      ],
      "name": "multicall",
      "outputs": [
        {
          "internalType": "bytes[]",
          "name": "results",
          "type": "bytes[]"
        }
      ],
      "stateMutability": "nonpayable",
      "type": "function"
    },
    {
      "inputs": [],
      "name": "owner",
      "outputs": [
        {
          "internalType": "address",
          "name": "",
          "type": "address"
        }
      ],
      "stateMutability": "view",
      "type": "function"
    },
    {
      "inputs": [],
      "name": "primaryPowerMultiplier",
      "outputs": [
        {
          "internalType": "uint256",
          "name": "",
          "type": "uint256"
        }
      ],
      "stateMutability": "view",
      "type": "function"
    },
    {
      "inputs": [],
      "name": "rarityPowerBooster",
      "outputs": [
        {
          "internalType": "uint256",
          "name": "",
          "type": "uint256"
        }
      ],
      "stateMutability": "view",
      "type": "function"
    },
    {
      "inputs": [],
      "name": "renounceOwnership",
      "outputs": [],
      "stateMutability": "nonpayable",
      "type": "function"
    },
    {
      "inputs": [],
      "name": "secondaryMultiplier",
      "outputs": [
        {
          "internalType": "uint256",
          "name": "",
          "type": "uint256"
        }
      ],
      "stateMutability": "view",
      "type": "function"
    },
    {
      "inputs": [
        {
          "internalType": "uint256",
          "name": "value",
          "type": "uint256"
        }
      ],
      "name": "setBaseLevelUpFee",
      "outputs": [],
      "stateMutability": "nonpayable",
      "type": "function"
    },
    {
      "inputs": [
        {
          "internalType": "uint256",
          "name": "value",
          "type": "uint256"
        }
      ],
      "name": "setBonusExp",
      "outputs": [],
      "stateMutability": "nonpayable",
      "type": "function"
    },
    {
      "inputs": [
        {
          "internalType": "uint256",
          "name": "value",
          "type": "uint256"
        }
      ],
      "name": "setBonusLevelUpFee",
      "outputs": [],
      "stateMutability": "nonpayable",
      "type": "function"
    },
    {
      "inputs": [
        {
          "internalType": "uint256",
          "name": "value",
          "type": "uint256"
        }
      ],
      "name": "setEnergyRecoveryTime",
      "outputs": [],
      "stateMutability": "nonpayable",
      "type": "function"
    },
    {
      "inputs": [
        {
          "internalType": "uint256",
          "name": "value",
          "type": "uint256"
        }
      ],
      "name": "setExpDiff",
      "outputs": [],
      "stateMutability": "nonpayable",
      "type": "function"
    },
    {
      "inputs": [
        {
          "internalType": "address",
          "name": "lbAddr",
          "type": "address"
        }
      ],
      "name": "setLobbyBattle",
      "outputs": [],
      "stateMutability": "nonpayable",
      "type": "function"
    },
    {
      "inputs": [
        {
          "internalType": "uint256",
          "name": "value",
          "type": "uint256"
        }
      ],
      "name": "setMaxHeroEnergy",
      "outputs": [],
      "stateMutability": "nonpayable",
      "type": "function"
    },
    {
      "inputs": [
        {
          "internalType": "uint256",
          "name": "value",
          "type": "uint256"
        }
      ],
      "name": "setPrimaryPowerMultiplier",
      "outputs": [],
      "stateMutability": "nonpayable",
      "type": "function"
    },
    {
      "inputs": [
        {
          "internalType": "uint256",
          "name": "value",
          "type": "uint256"
        }
      ],
      "name": "setRarityPowerBooster",
      "outputs": [],
      "stateMutability": "nonpayable",
      "type": "function"
    },
    {
      "inputs": [
        {
          "internalType": "uint256",
          "name": "value",
          "type": "uint256"
        }
      ],
      "name": "setSecondaryMultiplier",
      "outputs": [],
      "stateMutability": "nonpayable",
      "type": "function"
    },
    {
      "inputs": [
        {
          "internalType": "uint256",
          "name": "value",
          "type": "uint256"
        }
      ],
      "name": "setThirdMultiplier",
      "outputs": [],
      "stateMutability": "nonpayable",
      "type": "function"
    },
    {
      "inputs": [
        {
          "internalType": "uint256",
          "name": "heroId",
          "type": "uint256"
        }
      ],
      "name": "spendHeroEnergy",
      "outputs": [],
      "stateMutability": "nonpayable",
      "type": "function"
    },
    {
      "inputs": [],
      "name": "thirdMultiplier",
      "outputs": [
        {
          "internalType": "uint256",
          "name": "",
          "type": "uint256"
        }
      ],
      "stateMutability": "view",
      "type": "function"
    },
    {
      "inputs": [
        {
          "internalType": "address",
          "name": "newOwner",
          "type": "address"
        }
      ],
      "name": "transferOwnership",
      "outputs": [],
      "stateMutability": "nonpayable",
      "type": "function"
    }
  ],
  "bytecode": "0x6080604052690a968163f0a57b40000060025569021e19e0c9bab2400000600355600a600455600860055560068055606e6007556801a055690d9db8000060085560046009556005600a55610e10600b5534801561005c57600080fd5b506100663361006b565b6100bb565b600080546001600160a01b038381166001600160a01b0319831681178455604051919092169283917f8be0079c531659141344cd1fd0a4f28419497f9722a3daafe3b4186f6b6457e09190a35050565b611a50806100ca6000396000f3fe608060405234801561001057600080fd5b506004361061025e5760003560e01c806382bfefc811610146578063ac9650d8116100c3578063cc0f6f7811610087578063cc0f6f78146105b8578063d5c1ed8a146105cb578063dda728cd146105de578063e3a015ce146105f1578063f2fde38b14610604578063f3d1b5ab1461061757600080fd5b8063ac9650d814610549578063b0a04efa14610569578063b38034531461057c578063b8830f9f1461059c578063c97bdb58146105af57600080fd5b80639bad62311161010a5780639bad62311461044a5780639cabd6db1461045d578063a8d4a03b14610470578063aaef012214610537578063ab4051451461054057600080fd5b806382bfefc8146103f9578063852eebff146104145780638af31646146104275780638da5cb5b146104305780639b12bc881461044157600080fd5b80633c68e1ad116101df5780635226dc93116101a35780635226dc93146103725780636e7dff4d14610385578063715018a61461039857806372450f99146103a05780637c0b8de2146103b35780637ce9dd54146103e657600080fd5b80633c68e1ad1461032a5780634018b1ce146103335780634239ca30146103465780634afca080146103595780634fbd1edc1461036957600080fd5b806323cb1c361161022657806323cb1c36146102d3578063294cdacd146102dc5780632a18bdfe146102fc57806331a03ca21461030f57806333ab05411461031757600080fd5b806301783dfa1461026357806306975ac21461027f5780630a36d40b1461028857806313b60c51146102ab5780631ec462e0146102c0575b600080fd5b61026c60045481565b6040519081526020015b60405180910390f35b61026c60035481565b61026c61029636600461146a565b6000908152600c602052604090206001015490565b6102be6102b936600461146a565b61063a565b005b6102be6102ce366004611483565b610672565b61026c60065481565b61026c6102ea36600461146a565b600e6020526000908152604090205481565b61026c61030a36600461146a565b610790565b61026c601e81565b6102be61032536600461146a565b6107f4565b61026c60075481565b6102be6103413660046114d2565b610823565b6102be61035436600461146a565b61086f565b61026c68056bc75e2d6310000081565b61026c60095481565b6102be6103803660046114ef565b610946565b6102be61039336600461146a565b610c3f565b6102be610c6e565b6102be6103ae36600461146a565b610ca4565b6103ce7376b713ff56b9cad82b2820202537a98182b5a0ec81565b6040516001600160a01b039091168152602001610276565b6102be6103f436600461146a565b610cd3565b6103ce7328ee3e2826264b9c55fcdd122dfa93680916c9b881565b6102be61042236600461156b565b610d02565b61026c600a5481565b6000546001600160a01b03166103ce565b61026c60025481565b6102be61045836600461146a565b610d61565b6102be61046b36600461146a565b610d90565b6104de61047e36600461146a565b600c60205280600052604060002060009150905080600001549080600101549080600201549080600301549080600401549080600501549080600601549080600701549080600801549080600901549080600a01549080600b015490508c565b604080519c8d5260208d019b909b52998b019890985260608a0196909652608089019490945260a088019290925260c087015260e086015261010085015261012084015261014083015261016082015261018001610276565b61026c60055481565b61026c60085481565b61055c6105573660046115c2565b610dbf565b604051610276919061165c565b6102be6105773660046116be565b610eb5565b61026c61058a36600461146a565b600d6020526000908152604090205481565b6102be6105aa36600461146a565b610f87565b61026c600b5481565b6102be6105c636600461146a565b610fb6565b61026c6105d936600461146a565b610fe5565b6102be6105ec36600461146a565b6111d5565b6001546103ce906001600160a01b031681565b6102be6106123660046114d2565b611204565b61026c61062536600461146a565b6000908152600c602052604090206003015490565b6000546001600160a01b0316331461066d5760405162461bcd60e51b8152600401610664906116ee565b60405180910390fd5b600455565b6000546001600160a01b0316331461069c5760405162461bcd60e51b8152600401610664906116ee565b6000828152600c6020526040902060010154156106fb5760405162461bcd60e51b815260206004820152601f60248201527f4865726f4d616e616765723a206865726f20616c7265616479206164646564006044820152606401610664565b6000828152600c60205260409020819061078a8282813581556020820135600182015560408201356002820155606082013560038201556080820135600482015560a0820135600582015560c0820135600682015560e0820135600782015561010082013560088201556101208201356009820155610140820135600a820155610160820135600b8201555050565b50505050565b600a546000828152600d6020526040812054909190818110156107bf576107b78183611739565b949350505050565b6000848152600e602052604090205462015180906107dd9042611739565b11156107ea575092915050565b5060009392505050565b6000546001600160a01b0316331461081e5760405162461bcd60e51b8152600401610664906116ee565b600255565b6000546001600160a01b0316331461084d5760405162461bcd60e51b8152600401610664906116ee565b600180546001600160a01b0319166001600160a01b0392909216919091179055565b6001546001600160a01b031633146108995760405162461bcd60e51b815260040161066490611750565b60006108a482610790565b116108f15760405162461bcd60e51b815260206004820152601d60248201527f4865726f4d616e616765723a206865726f207a65726f20656e657267790000006044820152606401610664565b6000818152600d6020526040902054600a5481141561091257506001610934565b600181019050600a54811415610934576000828152600e602052604090204290555b6000918252600d602052604090912055565b6000828152600c6020526040908190206001015490516331a9108f60e11b81526004810184905233907376b713ff56b9cad82b2820202537a98182b5a0ec90636352211e9060240160206040518083038186803b1580156109a657600080fd5b505afa1580156109ba573d6000803e3d6000fd5b505050506040513d601f19601f820116820180604052508101906109de919061179a565b6001600160a01b031614610a345760405162461bcd60e51b815260206004820152601c60248201527f4865726f4d616e616765723a206e6f742061204e4654206f776e6572000000006044820152606401610664565b601e8110610a845760405162461bcd60e51b815260206004820152601b60248201527f4865726f4d616e616765723a206865726f206d6178206c6576656c00000000006044820152606401610664565b601e610a9083836117b7565b1115610ade5760405162461bcd60e51b815260206004820152601f60248201527f4865726f4d616e616765723a20746f6f206d616e79206c6576656c73207570006044820152606401610664565b6003546000610af4600019840183026002540190565b90508381026000610b1e610b19610b1460026000198a018a025b9061129f565b860290565b830190565b6040516323b872dd60e01b8152336004820152306024820152604481018290529091507328ee3e2826264b9c55fcdd122dfa93680916c9b8906323b872dd90606401602060405180830381600087803b158015610b7a57600080fd5b505af1158015610b8e573d6000803e3d6000fd5b505050506040513d601f19601f82011682018060405250810190610bb291906117cf565b610bfe5760405162461bcd60e51b815260206004820152601b60248201527f4865726f4d616e616765723a206e6f7420656e6f7567682066656500000000006044820152606401610664565b505050600093845250600c60205260409092209181016001830155600682015481026005830155600882015481026007830155600a82015402600990910155565b6000546001600160a01b03163314610c695760405162461bcd60e51b8152600401610664906116ee565b600355565b6000546001600160a01b03163314610c985760405162461bcd60e51b8152600401610664906116ee565b610ca260006112b8565b565b6000546001600160a01b03163314610cce5760405162461bcd60e51b8152600401610664906116ee565b600b55565b6000546001600160a01b03163314610cfd5760405162461bcd60e51b8152600401610664906116ee565b600655565b6001546001600160a01b03163314610d2c5760405162461bcd60e51b815260040161066490611750565b60005b8281101561078a57610d59848483818110610d4c57610d4c6117ec565b9050602002013583610eb5565b600101610d2f565b6000546001600160a01b03163314610d8b5760405162461bcd60e51b8152600401610664906116ee565b600755565b6000546001600160a01b03163314610dba5760405162461bcd60e51b8152600401610664906116ee565b600a55565b60608167ffffffffffffffff811115610dda57610dda611802565b604051908082528060200260200182016040528015610e0d57816020015b6060815260200190600190039081610df85790505b50905060005b82811015610ead57610e7d30858584818110610e3157610e316117ec565b9050602002810190610e439190611818565b8080601f01602080910402602001604051908101604052809392919081815260200183838082843760009201919091525061130892505050565b828281518110610e8f57610e8f6117ec565b60200260200101819052508080610ea59061185f565b915050610e13565b505b92915050565b60015433906001600160a01b0316811480610ed857506001600160a01b03811630145b610ef45760405162461bcd60e51b815260040161066490611750565b600082610f0f57610f0a600954610b0e86611334565b610f18565b610f1884611334565b6000858152600c602052604090206001810154600b9091015491925090601e821015610f6457820168056bc75e2d631000008110610f64576001919091019068056bc75e2d630fffff19015b6000958652600c60205260409095206001810191909155600b0193909355505050565b6000546001600160a01b03163314610fb15760405162461bcd60e51b8152600401610664906116ee565b600855565b6000546001600160a01b03163314610fe05760405162461bcd60e51b8152600401610664906116ee565b600955565b6000818152600c602090815260408083208151610180810183528154815260018201549381019390935260028101549183019190915260038101546060830181905260048201546080840152600582015460a0840152600682015460c0840152600782015460e084015260088201546101008401526009820154610120840152600a820154610140840152600b9091015461016083015282908190819061109a5750505060a081015161012082015160e08301515b8360600151600114156110bb5750505060e081015160a08201516101208301515b8360600151600214156110dc5750505061012081015160e082015160a08301515b6000600654826110ec919061187a565b6005546110f9908561187a565b600454611106908761187a565b61111091906117b7565b61111a91906117b7565b905084604001516001141561114a57606460075482611139919061187a565b61114391906118af565b90506111cb565b84604001516002141561117357612710600260075461116991906119b5565b611139908361187a565b84604001516003141561119357620f4240600360075461116991906119b5565b8460400151600414156111cb576305f5e10060046007546111b491906119b5565b6111be908361187a565b6111c891906118af565b90505b9695505050505050565b6000546001600160a01b031633146111ff5760405162461bcd60e51b8152600401610664906116ee565b600555565b6000546001600160a01b0316331461122e5760405162461bcd60e51b8152600401610664906116ee565b6001600160a01b0381166112935760405162461bcd60e51b815260206004820152602660248201527f4f776e61626c653a206e6577206f776e657220697320746865207a65726f206160448201526564647265737360d01b6064820152608401610664565b61129c816112b8565b50565b60008183816112b0576112b0611899565b049392505050565b600080546001600160a01b038381166001600160a01b0319831681178455604051919092169283917f8be0079c531659141344cd1fd0a4f28419497f9722a3daafe3b4186f6b6457e09190a35050565b606061132d83836040518060600160405280602781526020016119f460279139611363565b9392505050565b6000818152600c60205260408120600101546000198101670de0b6b3a76400000260085490915081900361132d565b60606001600160a01b0384163b6113cb5760405162461bcd60e51b815260206004820152602660248201527f416464726573733a2064656c65676174652063616c6c20746f206e6f6e2d636f6044820152651b9d1c9858dd60d21b6064820152608401610664565b600080856001600160a01b0316856040516113e691906119c4565b600060405180830381855af49150503d8060008114611421576040519150601f19603f3d011682016040523d82523d6000602084013e611426565b606091505b50915091506111cb8282866060831561144057508161132d565b8251156114505782518084602001fd5b8160405162461bcd60e51b815260040161066491906119e0565b60006020828403121561147c57600080fd5b5035919050565b6000808284036101a081121561149857600080fd5b83359250610180601f19820112156114af57600080fd5b506020830190509250929050565b6001600160a01b038116811461129c57600080fd5b6000602082840312156114e457600080fd5b813561132d816114bd565b6000806040838503121561150257600080fd5b50508035926020909101359150565b60008083601f84011261152357600080fd5b50813567ffffffffffffffff81111561153b57600080fd5b6020830191508360208260051b850101111561155657600080fd5b9250929050565b801515811461129c57600080fd5b60008060006040848603121561158057600080fd5b833567ffffffffffffffff81111561159757600080fd5b6115a386828701611511565b90945092505060208401356115b78161155d565b809150509250925092565b600080602083850312156115d557600080fd5b823567ffffffffffffffff8111156115ec57600080fd5b6115f885828601611511565b90969095509350505050565b60005b8381101561161f578181015183820152602001611607565b8381111561078a5750506000910152565b60008151808452611648816020860160208601611604565b601f01601f19169290920160200192915050565b6000602080830181845280855180835260408601915060408160051b870101925083870160005b828110156116b157603f1988860301845261169f858351611630565b94509285019290850190600101611683565b5092979650505050505050565b600080604083850312156116d157600080fd5b8235915060208301356116e38161155d565b809150509250929050565b6020808252818101527f4f776e61626c653a2063616c6c6572206973206e6f7420746865206f776e6572604082015260600190565b634e487b7160e01b600052601160045260246000fd5b60008282101561174b5761174b611723565b500390565b6020808252602a908201527f4865726f4d616e616765723a2063616c6c61626c65206279206c6f62627920626040820152696174746c65206f6e6c7960b01b606082015260800190565b6000602082840312156117ac57600080fd5b815161132d816114bd565b600082198211156117ca576117ca611723565b500190565b6000602082840312156117e157600080fd5b815161132d8161155d565b634e487b7160e01b600052603260045260246000fd5b634e487b7160e01b600052604160045260246000fd5b6000808335601e1984360301811261182f57600080fd5b83018035915067ffffffffffffffff82111561184a57600080fd5b60200191503681900382131561155657600080fd5b600060001982141561187357611873611723565b5060010190565b600081600019048311821515161561189457611894611723565b500290565b634e487b7160e01b600052601260045260246000fd5b6000826118cc57634e487b7160e01b600052601260045260246000fd5b500490565b600181815b8085111561190c5781600019048211156118f2576118f2611723565b808516156118ff57918102915b93841c93908002906118d6565b509250929050565b60008261192357506001610eaf565b8161193057506000610eaf565b816001811461194657600281146119505761196c565b6001915050610eaf565b60ff84111561196157611961611723565b50506001821b610eaf565b5060208310610133831016604e8410600b841016171561198f575081810a610eaf565b61199983836118d1565b80600019048211156119ad576119ad611723565b029392505050565b600061132d60ff841683611914565b600082516119d6818460208701611604565b9190910192915050565b60208152600061132d602083018461163056fe416464726573733a206c6f772d6c6576656c2064656c65676174652063616c6c206661696c6564a26469706673582212208bd75581169d486b895cd8cb666d363318334259977c55377cb46bdfa9a669e064736f6c63430008090033",
  "linkReferences": {},
  "deployedLinkReferences": {}
}