{
  "_format": "hh-sol-artifact-1",
  "contractName": "HeroInfinityNFT",
  "sourceName": "contracts/HeroInfinityNFT.sol",
  "abi": [
    {
      "inputs": [
        {
          "internalType": "bytes32",
          "name": "root",
          "type": "bytes32"
        }
      ],
      "stateMutability": "nonpayable",
      "type": "constructor"
    },
    {
      "anonymous": false,
      "inputs": [
        {
          "indexed": true,
          "internalType": "address",
          "name": "owner",
          "type": "address"
        },
        {
          "indexed": true,
          "internalType": "address",
          "name": "approved",
          "type": "address"
        },
        {
          "indexed": true,
          "internalType": "uint256",
          "name": "tokenId",
          "type": "uint256"
        }
      ],
      "name": "Approval",
      "type": "event"
    },
    {
      "anonymous": false,
      "inputs": [
        {
          "indexed": true,
          "internalType": "address",
          "name": "owner",
          "type": "address"
        },
        {
          "indexed": true,
          "internalType": "address",
          "name": "operator",
          "type": "address"
        },
        {
          "indexed": false,
          "internalType": "bool",
          "name": "approved",
          "type": "bool"
        }
      ],
      "name": "ApprovalForAll",
      "type": "event"
    },
    {
      "anonymous": false,
      "inputs": [
        {
          "indexed": true,
          "internalType": "address",
          "name": "previousOwner",
          "type": "address"
        },
        {
          "indexed": true,
          "internalType": "address",
          "name": "newOwner",
          "type": "address"
        }
      ],
      "name": "OwnershipTransferred",
      "type": "event"
    },
    {
      "anonymous": false,
      "inputs": [
        {
          "indexed": true,
          "internalType": "address",
          "name": "from",
          "type": "address"
        },
        {
          "indexed": true,
          "internalType": "address",
          "name": "to",
          "type": "address"
        },
        {
          "indexed": true,
          "internalType": "uint256",
          "name": "tokenId",
          "type": "uint256"
        }
      ],
      "name": "Transfer",
      "type": "event"
    },
    {
      "inputs": [],
      "name": "HIGHEST_PUBLIC",
      "outputs": [
        {
          "internalType": "uint256",
          "name": "",
          "type": "uint256"
        }
      ],
      "stateMutability": "view",
      "type": "function"
    },
    {
      "inputs": [],
      "name": "HIGHEST_TEAM",
      "outputs": [
        {
          "internalType": "uint256",
          "name": "",
          "type": "uint256"
        }
      ],
      "stateMutability": "view",
      "type": "function"
    },
    {
      "inputs": [],
      "name": "MAX_PER_WALLET",
      "outputs": [
        {
          "internalType": "uint256",
          "name": "",
          "type": "uint256"
        }
      ],
      "stateMutability": "view",
      "type": "function"
    },
    {
      "inputs": [],
      "name": "MINT_PRICE",
      "outputs": [
        {
          "internalType": "uint256",
          "name": "",
          "type": "uint256"
        }
      ],
      "stateMutability": "view",
      "type": "function"
    },
    {
      "inputs": [
        {
          "internalType": "address",
          "name": "to",
          "type": "address"
        },
        {
          "internalType": "uint256",
          "name": "tokenId",
          "type": "uint256"
        }
      ],
      "name": "approve",
      "outputs": [],
      "stateMutability": "nonpayable",
      "type": "function"
    },
    {
      "inputs": [
        {
          "internalType": "address",
          "name": "owner",
          "type": "address"
        }
      ],
      "name": "balanceOf",
      "outputs": [
        {
          "internalType": "uint256",
          "name": "",
          "type": "uint256"
        }
      ],
      "stateMutability": "view",
      "type": "function"
    },
    {
      "inputs": [
        {
          "internalType": "uint256",
          "name": "tokenId",
          "type": "uint256"
        }
      ],
      "name": "getApproved",
      "outputs": [
        {
          "internalType": "address",
          "name": "",
          "type": "address"
        }
      ],
      "stateMutability": "view",
      "type": "function"
    },
    {
      "inputs": [
        {
          "internalType": "address",
          "name": "owner",
          "type": "address"
        },
        {
          "internalType": "address",
          "name": "operator",
          "type": "address"
        }
      ],
      "name": "isApprovedForAll",
      "outputs": [
        {
          "internalType": "bool",
          "name": "",
          "type": "bool"
        }
      ],
      "stateMutability": "view",
      "type": "function"
    },
    {
      "inputs": [],
      "name": "isPublicOpen",
      "outputs": [
        {
          "internalType": "bool",
          "name": "",
          "type": "bool"
        }
      ],
      "stateMutability": "view",
      "type": "function"
    },
    {
      "inputs": [],
      "name": "isWhitelistOpen",
      "outputs": [
        {
          "internalType": "bool",
          "name": "",
          "type": "bool"
        }
      ],
      "stateMutability": "view",
      "type": "function"
    },
    {
      "inputs": [],
      "name": "merkleRoot",
      "outputs": [
        {
          "internalType": "bytes32",
          "name": "",
          "type": "bytes32"
        }
      ],
      "stateMutability": "view",
      "type": "function"
    },
    {
      "inputs": [
        {
          "internalType": "uint256",
          "name": "amount",
          "type": "uint256"
        }
      ],
      "name": "mint",
      "outputs": [],
      "stateMutability": "payable",
      "type": "function"
    },
    {
      "inputs": [
        {
          "internalType": "uint256",
          "name": "amount",
          "type": "uint256"
        }
      ],
      "name": "mintTeam",
      "outputs": [],
      "stateMutability": "nonpayable",
      "type": "function"
    },
    {
      "inputs": [
        {
          "internalType": "bytes32[]",
          "name": "merkleProof",
          "type": "bytes32[]"
        },
        {
          "internalType": "uint256",
          "name": "amount",
          "type": "uint256"
        }
      ],
      "name": "mintWhitelist",
      "outputs": [],
      "stateMutability": "payable",
      "type": "function"
    },
    {
      "inputs": [
        {
          "internalType": "address",
          "name": "",
          "type": "address"
        }
      ],
      "name": "mintedAmount",
      "outputs": [
        {
          "internalType": "uint256",
          "name": "",
          "type": "uint256"
        }
      ],
      "stateMutability": "view",
      "type": "function"
    },
    {
      "inputs": [],
      "name": "name",
      "outputs": [
        {
          "internalType": "string",
          "name": "",
          "type": "string"
        }
      ],
      "stateMutability": "view",
      "type": "function"
    },
    {
      "inputs": [],
      "name": "owner",
      "outputs": [
        {
          "internalType": "address",
          "name": "",
          "type": "address"
        }
      ],
      "stateMutability": "view",
      "type": "function"
    },
    {
      "inputs": [
        {
          "internalType": "uint256",
          "name": "tokenId",
          "type": "uint256"
        }
      ],
      "name": "ownerOf",
      "outputs": [
        {
          "internalType": "address",
          "name": "",
          "type": "address"
        }
      ],
      "stateMutability": "view",
      "type": "function"
    },
    {
      "inputs": [],
      "name": "publicStartTimestamp",
      "outputs": [
        {
          "internalType": "uint256",
          "name": "",
          "type": "uint256"
        }
      ],
      "stateMutability": "view",
      "type": "function"
    },
    {
      "inputs": [],
      "name": "renounceOwnership",
      "outputs": [],
      "stateMutability": "nonpayable",
      "type": "function"
    },
    {
      "inputs": [
        {
          "internalType": "address",
          "name": "from",
          "type": "address"
        },
        {
          "internalType": "address",
          "name": "to",
          "type": "address"
        },
        {
          "internalType": "uint256",
          "name": "tokenId",
          "type": "uint256"
        }
      ],
      "name": "safeTransferFrom",
      "outputs": [],
      "stateMutability": "nonpayable",
      "type": "function"
    },
    {
      "inputs": [
        {
          "internalType": "address",
          "name": "from",
          "type": "address"
        },
        {
          "internalType": "address",
          "name": "to",
          "type": "address"
        },
        {
          "internalType": "uint256",
          "name": "tokenId",
          "type": "uint256"
        },
        {
          "internalType": "bytes",
          "name": "_data",
          "type": "bytes"
        }
      ],
      "name": "safeTransferFrom",
      "outputs": [],
      "stateMutability": "nonpayable",
      "type": "function"
    },
    {
      "inputs": [
        {
          "internalType": "address",
          "name": "operator",
          "type": "address"
        },
        {
          "internalType": "bool",
          "name": "approved",
          "type": "bool"
        }
      ],
      "name": "setApprovalForAll",
      "outputs": [],
      "stateMutability": "nonpayable",
      "type": "function"
    },
    {
      "inputs": [
        {
          "internalType": "string",
          "name": "uri",
          "type": "string"
        }
      ],
      "name": "setBaseURI",
      "outputs": [],
      "stateMutability": "nonpayable",
      "type": "function"
    },
    {
      "inputs": [
        {
          "internalType": "uint256",
          "name": "whitelistTimestamp",
          "type": "uint256"
        },
        {
          "internalType": "uint256",
          "name": "publicTimestamp",
          "type": "uint256"
        }
      ],
      "name": "setSaleTimestamps",
      "outputs": [],
      "stateMutability": "nonpayable",
      "type": "function"
    },
    {
      "inputs": [
        {
          "internalType": "bytes4",
          "name": "interfaceId",
          "type": "bytes4"
        }
      ],
      "name": "supportsInterface",
      "outputs": [
        {
          "internalType": "bool",
          "name": "",
          "type": "bool"
        }
      ],
      "stateMutability": "view",
      "type": "function"
    },
    {
      "inputs": [],
      "name": "symbol",
      "outputs": [
        {
          "internalType": "string",
          "name": "",
          "type": "string"
        }
      ],
      "stateMutability": "view",
      "type": "function"
    },
    {
      "inputs": [
        {
          "internalType": "uint256",
          "name": "amount",
          "type": "uint256"
        }
      ],
      "name": "testMint",
      "outputs": [],
      "stateMutability": "nonpayable",
      "type": "function"
    },
    {
      "inputs": [
        {
          "internalType": "uint256",
          "name": "index",
          "type": "uint256"
        }
      ],
      "name": "tokenByIndex",
      "outputs": [
        {
          "internalType": "uint256",
          "name": "",
          "type": "uint256"
        }
      ],
      "stateMutability": "view",
      "type": "function"
    },
    {
      "inputs": [
        {
          "internalType": "address",
          "name": "owner",
          "type": "address"
        },
        {
          "internalType": "uint256",
          "name": "index",
          "type": "uint256"
        }
      ],
      "name": "tokenOfOwnerByIndex",
      "outputs": [
        {
          "internalType": "uint256",
          "name": "",
          "type": "uint256"
        }
      ],
      "stateMutability": "view",
      "type": "function"
    },
    {
      "inputs": [
        {
          "internalType": "uint256",
          "name": "tokenId",
          "type": "uint256"
        }
      ],
      "name": "tokenURI",
      "outputs": [
        {
          "internalType": "string",
          "name": "",
          "type": "string"
        }
      ],
      "stateMutability": "view",
      "type": "function"
    },
    {
      "inputs": [],
      "name": "totalSupply",
      "outputs": [
        {
          "internalType": "uint256",
          "name": "",
          "type": "uint256"
        }
      ],
      "stateMutability": "view",
      "type": "function"
    },
    {
      "inputs": [
        {
          "internalType": "address",
          "name": "from",
          "type": "address"
        },
        {
          "internalType": "address",
          "name": "to",
          "type": "address"
        },
        {
          "internalType": "uint256",
          "name": "tokenId",
          "type": "uint256"
        }
      ],
      "name": "transferFrom",
      "outputs": [],
      "stateMutability": "nonpayable",
      "type": "function"
    },
    {
      "inputs": [
        {
          "internalType": "address",
          "name": "newOwner",
          "type": "address"
        }
      ],
      "name": "transferOwnership",
      "outputs": [],
      "stateMutability": "nonpayable",
      "type": "function"
    },
    {
      "inputs": [],
      "name": "whitelistStartTimestamp",
      "outputs": [
        {
          "internalType": "uint256",
          "name": "",
          "type": "uint256"
        }
      ],
      "stateMutability": "view",
      "type": "function"
    },
    {
      "inputs": [],
      "name": "withdrawETH",
      "outputs": [],
      "stateMutability": "nonpayable",
      "type": "function"
    }
  ],
  "bytecode": "0x60a06040526000600e55601d600f556040518060800160405280605881526020016200491f60589139601090805190602001906200003f92919062000210565b503480156200004d57600080fd5b506040516200497738038062004977833981810160405281019062000073919062000300565b6040518060400160405280601181526020017f4865726f20496e66696e697479204e46540000000000000000000000000000008152506040518060400160405280600681526020017f4852494e465400000000000000000000000000000000000000000000000000008152508160009080519060200190620000f792919062000210565b5080600190805190602001906200011092919062000210565b50505062000133620001276200014260201b60201c565b6200014a60201b60201c565b80608081815250505062000397565b600033905090565b6000600a60009054906101000a900473ffffffffffffffffffffffffffffffffffffffff16905081600a60006101000a81548173ffffffffffffffffffffffffffffffffffffffff021916908373ffffffffffffffffffffffffffffffffffffffff1602179055508173ffffffffffffffffffffffffffffffffffffffff168173ffffffffffffffffffffffffffffffffffffffff167f8be0079c531659141344cd1fd0a4f28419497f9722a3daafe3b4186f6b6457e060405160405180910390a35050565b8280546200021e9062000361565b90600052602060002090601f0160209004810192826200024257600085556200028e565b82601f106200025d57805160ff19168380011785556200028e565b828001600101855582156200028e579182015b828111156200028d57825182559160200191906001019062000270565b5b5090506200029d9190620002a1565b5090565b5b80821115620002bc576000816000905550600101620002a2565b5090565b600080fd5b6000819050919050565b620002da81620002c5565b8114620002e657600080fd5b50565b600081519050620002fa81620002cf565b92915050565b600060208284031215620003195762000318620002c0565b5b60006200032984828501620002e9565b91505092915050565b7f4e487b7100000000000000000000000000000000000000000000000000000000600052602260045260246000fd5b600060028204905060018216806200037a57607f821691505b6020821081141562000391576200039062000332565b5b50919050565b60805161456c620003b36000396000610baf015261456c6000f3fe60806040526004361061020f5760003560e01c8063715018a611610118578063a6d612f9116100a0578063dcbd5bbb1161006f578063dcbd5bbb14610785578063e086e5ec146107ae578063e985e9c5146107c5578063f2fde38b14610802578063fbbf8cc31461082b5761020f565b8063a6d612f9146106d8578063b88d4fde146106f4578063c002d23d1461071d578063c87b56dd146107485761020f565b806395d89b41116100e757806395d89b41146106125780639c14a8841461063d5780639ecfab9b14610668578063a0712d6814610693578063a22cb465146106af5761020f565b8063715018a61461057a5780637307b3d9146105915780638da5cb5b146105bc57806394f4504d146105e75761020f565b80632f3f94ae1161019b57806342842e0e1161016a57806342842e0e146104715780634f6ccce71461049a57806355f804b3146104d75780636352211e1461050057806370a082311461053d5761020f565b80632f3f94ae146103b75780632f745c59146103e0578063342f48aa1461041d5780633e65408a146104465761020f565b80630f2cdd6c116101e25780630f2cdd6c146102e257806311c67efc1461030d57806318160ddd1461033857806323b872dd146103635780632eb4a7ab1461038c5761020f565b806301ffc9a71461021457806306fdde0314610251578063081812fc1461027c578063095ea7b3146102b9575b600080fd5b34801561022057600080fd5b5061023b60048036038101906102369190612cdb565b610868565b6040516102489190612d23565b60405180910390f35b34801561025d57600080fd5b506102666108e2565b6040516102739190612dd7565b60405180910390f35b34801561028857600080fd5b506102a3600480360381019061029e9190612e2f565b610974565b6040516102b09190612e9d565b60405180910390f35b3480156102c557600080fd5b506102e060048036038101906102db9190612ee4565b6109f9565b005b3480156102ee57600080fd5b506102f7610b11565b6040516103049190612f33565b60405180910390f35b34801561031957600080fd5b50610322610b16565b60405161032f9190612d23565b60405180910390f35b34801561034457600080fd5b5061034d610b40565b60405161035a9190612f33565b60405180910390f35b34801561036f57600080fd5b5061038a60048036038101906103859190612f4e565b610b4d565b005b34801561039857600080fd5b506103a1610bad565b6040516103ae9190612fba565b60405180910390f35b3480156103c357600080fd5b506103de60048036038101906103d99190612e2f565b610bd1565b005b3480156103ec57600080fd5b5061040760048036038101906104029190612ee4565b610c10565b6040516104149190612f33565b60405180910390f35b34801561042957600080fd5b50610444600480360381019061043f9190612e2f565b610cb5565b005b34801561045257600080fd5b5061045b610e1c565b6040516104689190612f33565b60405180910390f35b34801561047d57600080fd5b5061049860048036038101906104939190612f4e565b610e22565b005b3480156104a657600080fd5b506104c160048036038101906104bc9190612e2f565b610e42565b6040516104ce9190612f33565b60405180910390f35b3480156104e357600080fd5b506104fe60048036038101906104f9919061310a565b610eb3565b005b34801561050c57600080fd5b5061052760048036038101906105229190612e2f565b610f49565b6040516105349190612e9d565b60405180910390f35b34801561054957600080fd5b50610564600480360381019061055f9190613153565b610ffb565b6040516105719190612f33565b60405180910390f35b34801561058657600080fd5b5061058f6110b3565b005b34801561059d57600080fd5b506105a661113b565b6040516105b39190612f33565b60405180910390f35b3480156105c857600080fd5b506105d1611141565b6040516105de9190612e9d565b60405180910390f35b3480156105f357600080fd5b506105fc61116b565b6040516106099190612d23565b60405180910390f35b34801561061e57600080fd5b50610627611195565b6040516106349190612dd7565b60405180910390f35b34801561064957600080fd5b50610652611227565b60405161065f9190612f33565b60405180910390f35b34801561067457600080fd5b5061067d61122c565b60405161068a9190612f33565b60405180910390f35b6106ad60048036038101906106a89190612e2f565b611232565b005b3480156106bb57600080fd5b506106d660048036038101906106d191906131ac565b611286565b005b6106f260048036038101906106ed919061324c565b61129c565b005b34801561070057600080fd5b5061071b6004803603810190610716919061334d565b6112f2565b005b34801561072957600080fd5b50610732611354565b60405161073f9190612f33565b60405180910390f35b34801561075457600080fd5b5061076f600480360381019061076a9190612e2f565b61135f565b60405161077c9190612dd7565b60405180910390f35b34801561079157600080fd5b506107ac60048036038101906107a791906133d0565b611406565b005b3480156107ba57600080fd5b506107c36114e1565b005b3480156107d157600080fd5b506107ec60048036038101906107e79190613410565b6115a6565b6040516107f99190612d23565b60405180910390f35b34801561080e57600080fd5b5061082960048036038101906108249190613153565b61163a565b005b34801561083757600080fd5b50610852600480360381019061084d9190613153565b611732565b60405161085f9190612f33565b60405180910390f35b60007f780e9d63000000000000000000000000000000000000000000000000000000007bffffffffffffffffffffffffffffffffffffffffffffffffffffffff1916827bffffffffffffffffffffffffffffffffffffffffffffffffffffffff191614806108db57506108da8261174a565b5b9050919050565b6060600080546108f19061347f565b80601f016020809104026020016040519081016040528092919081815260200182805461091d9061347f565b801561096a5780601f1061093f5761010080835404028352916020019161096a565b820191906000526020600020905b81548152906001019060200180831161094d57829003601f168201915b5050505050905090565b600061097f8261182c565b6109be576040517f08c379a00000000000000000000000000000000000000000000000000000000081526004016109b590613523565b60405180910390fd5b6004600083815260200190815260200160002060009054906101000a900473ffffffffffffffffffffffffffffffffffffffff169050919050565b6000610a0482610f49565b90508073ffffffffffffffffffffffffffffffffffffffff168373ffffffffffffffffffffffffffffffffffffffff161415610a75576040517f08c379a0000000000000000000000000000000000000000000000000000000008152600401610a6c906135b5565b60405180910390fd5b8073ffffffffffffffffffffffffffffffffffffffff16610a94611898565b73ffffffffffffffffffffffffffffffffffffffff161480610ac35750610ac281610abd611898565b6115a6565b5b610b02576040517f08c379a0000000000000000000000000000000000000000000000000000000008152600401610af990613647565b60405180910390fd5b610b0c83836118a0565b505050565b600581565b600080600d54118015610b2b5750600d544210155b8015610b3b5750610436600f5411155b905090565b6000600880549050905090565b610b5e610b58611898565b82611959565b610b9d576040517f08c379a0000000000000000000000000000000000000000000000000000000008152600401610b94906136d9565b60405180910390fd5b610ba8838383611a37565b505050565b7f000000000000000000000000000000000000000000000000000000000000000081565b60005b81811015610c0c57610be6600b611c93565b610bf933610bf4600b611ca9565b611cb7565b8080610c0490613728565b915050610bd4565b5050565b6000610c1b83610ffb565b8210610c5c576040517f08c379a0000000000000000000000000000000000000000000000000000000008152600401610c53906137e3565b60405180910390fd5b600660008473ffffffffffffffffffffffffffffffffffffffff1673ffffffffffffffffffffffffffffffffffffffff168152602001908152602001600020600083815260200190815260200160002054905092915050565b610cbd611898565b73ffffffffffffffffffffffffffffffffffffffff16610cdb611141565b73ffffffffffffffffffffffffffffffffffffffff1614610d31576040517f08c379a0000000000000000000000000000000000000000000000000000000008152600401610d289061384f565b60405180910390fd5b6000811415610d75576040517f08c379a0000000000000000000000000000000000000000000000000000000008152600401610d6c906138bb565b60405180910390fd5b6000600e54905060008282610d8a91906138db565b9050601c600182610d9b9190613931565b1115610ddc576040517f08c379a0000000000000000000000000000000000000000000000000000000008152600401610dd3906139b1565b60405180910390fd5b80600e8190555060005b83811015610e1657610e03338285610dfe91906138db565b611cd5565b8080610e0e90613728565b915050610de6565b50505050565b600d5481565b610e3d838383604051806020016040528060008152506112f2565b505050565b6000610e4c610b40565b8210610e8d576040517f08c379a0000000000000000000000000000000000000000000000000000000008152600401610e8490613a43565b60405180910390fd5b60088281548110610ea157610ea0613a63565b5b90600052602060002001549050919050565b610ebb611898565b73ffffffffffffffffffffffffffffffffffffffff16610ed9611141565b73ffffffffffffffffffffffffffffffffffffffff1614610f2f576040517f08c379a0000000000000000000000000000000000000000000000000000000008152600401610f269061384f565b60405180910390fd5b8060109080519060200190610f45929190612bcc565b5050565b6000806002600084815260200190815260200160002060009054906101000a900473ffffffffffffffffffffffffffffffffffffffff169050600073ffffffffffffffffffffffffffffffffffffffff168173ffffffffffffffffffffffffffffffffffffffff161415610ff2576040517f08c379a0000000000000000000000000000000000000000000000000000000008152600401610fe990613b04565b60405180910390fd5b80915050919050565b60008073ffffffffffffffffffffffffffffffffffffffff168273ffffffffffffffffffffffffffffffffffffffff16141561106c576040517f08c379a000000000000000000000000000000000000000000000000000000000815260040161106390613b96565b60405180910390fd5b600360008373ffffffffffffffffffffffffffffffffffffffff1673ffffffffffffffffffffffffffffffffffffffff168152602001908152602001600020549050919050565b6110bb611898565b73ffffffffffffffffffffffffffffffffffffffff166110d9611141565b73ffffffffffffffffffffffffffffffffffffffff161461112f576040517f08c379a00000000000000000000000000000000000000000000000000000000081526004016111269061384f565b60405180910390fd5b6111396000611ea3565b565b61043681565b6000600a60009054906101000a900473ffffffffffffffffffffffffffffffffffffffff16905090565b600080600c541180156111805750600c544210155b80156111905750610436600f5411155b905090565b6060600180546111a49061347f565b80601f01602080910402602001604051908101604052809291908181526020018280546111d09061347f565b801561121d5780601f106111f25761010080835404028352916020019161121d565b820191906000526020600020905b81548152906001019060200180831161120057829003601f168201915b5050505050905090565b601c81565b600c5481565b61123a610b16565b611279576040517f08c379a000000000000000000000000000000000000000000000000000000000815260040161127090613c02565b60405180910390fd5b6112833382611f69565b50565b611298611291611898565b8383612182565b5050565b6112a461116b565b6112e3576040517f08c379a00000000000000000000000000000000000000000000000000000000081526004016112da90613c02565b60405180910390fd5b6112ed3382611f69565b505050565b6113036112fd611898565b83611959565b611342576040517f08c379a0000000000000000000000000000000000000000000000000000000008152600401611339906136d9565b60405180910390fd5b61134e848484846122ef565b50505050565b662386f26fc1000081565b606061136a8261182c565b6113a9576040517f08c379a00000000000000000000000000000000000000000000000000000000081526004016113a090613c94565b60405180910390fd5b60006113b361234b565b905060008151116113d357604051806020016040528060008152506113fe565b806113dd846123dd565b6040516020016113ee929190613d3c565b6040516020818303038152906040525b915050919050565b61140e611898565b73ffffffffffffffffffffffffffffffffffffffff1661142c611141565b73ffffffffffffffffffffffffffffffffffffffff1614611482576040517f08c379a00000000000000000000000000000000000000000000000000000000081526004016114799061384f565b60405180910390fd5b818111801561149057504282115b6114cf576040517f08c379a00000000000000000000000000000000000000000000000000000000081526004016114c690613db7565b60405180910390fd5b81600c8190555080600d819055505050565b6114e9611898565b73ffffffffffffffffffffffffffffffffffffffff16611507611141565b73ffffffffffffffffffffffffffffffffffffffff161461155d576040517f08c379a00000000000000000000000000000000000000000000000000000000081526004016115549061384f565b60405180910390fd5b3373ffffffffffffffffffffffffffffffffffffffff166108fc479081150290604051600060405180830381858888f193505050501580156115a3573d6000803e3d6000fd5b50565b6000600560008473ffffffffffffffffffffffffffffffffffffffff1673ffffffffffffffffffffffffffffffffffffffff16815260200190815260200160002060008373ffffffffffffffffffffffffffffffffffffffff1673ffffffffffffffffffffffffffffffffffffffff16815260200190815260200160002060009054906101000a900460ff16905092915050565b611642611898565b73ffffffffffffffffffffffffffffffffffffffff16611660611141565b73ffffffffffffffffffffffffffffffffffffffff16146116b6576040517f08c379a00000000000000000000000000000000000000000000000000000000081526004016116ad9061384f565b60405180910390fd5b600073ffffffffffffffffffffffffffffffffffffffff168173ffffffffffffffffffffffffffffffffffffffff161415611726576040517f08c379a000000000000000000000000000000000000000000000000000000000815260040161171d90613e49565b60405180910390fd5b61172f81611ea3565b50565b60116020528060005260406000206000915090505481565b60007f80ac58cd000000000000000000000000000000000000000000000000000000007bffffffffffffffffffffffffffffffffffffffffffffffffffffffff1916827bffffffffffffffffffffffffffffffffffffffffffffffffffffffff1916148061181557507f5b5e139f000000000000000000000000000000000000000000000000000000007bffffffffffffffffffffffffffffffffffffffffffffffffffffffff1916827bffffffffffffffffffffffffffffffffffffffffffffffffffffffff1916145b8061182557506118248261253e565b5b9050919050565b60008073ffffffffffffffffffffffffffffffffffffffff166002600084815260200190815260200160002060009054906101000a900473ffffffffffffffffffffffffffffffffffffffff1673ffffffffffffffffffffffffffffffffffffffff1614159050919050565b600033905090565b816004600083815260200190815260200160002060006101000a81548173ffffffffffffffffffffffffffffffffffffffff021916908373ffffffffffffffffffffffffffffffffffffffff160217905550808273ffffffffffffffffffffffffffffffffffffffff1661191383610f49565b73ffffffffffffffffffffffffffffffffffffffff167f8c5be1e5ebec7d5bd14f71427d1e84f3dd0314c0f7b2291e5b200ac8c7c3b92560405160405180910390a45050565b60006119648261182c565b6119a3576040517f08c379a000000000000000000000000000000000000000000000000000000000815260040161199a90613edb565b60405180910390fd5b60006119ae83610f49565b90508073ffffffffffffffffffffffffffffffffffffffff168473ffffffffffffffffffffffffffffffffffffffff161480611a1d57508373ffffffffffffffffffffffffffffffffffffffff16611a0584610974565b73ffffffffffffffffffffffffffffffffffffffff16145b80611a2e5750611a2d81856115a6565b5b91505092915050565b8273ffffffffffffffffffffffffffffffffffffffff16611a5782610f49565b73ffffffffffffffffffffffffffffffffffffffff1614611aad576040517f08c379a0000000000000000000000000000000000000000000000000000000008152600401611aa490613f6d565b60405180910390fd5b600073ffffffffffffffffffffffffffffffffffffffff168273ffffffffffffffffffffffffffffffffffffffff161415611b1d576040517f08c379a0000000000000000000000000000000000000000000000000000000008152600401611b1490613fff565b60405180910390fd5b611b288383836125a8565b611b336000826118a0565b6001600360008573ffffffffffffffffffffffffffffffffffffffff1673ffffffffffffffffffffffffffffffffffffffff1681526020019081526020016000206000828254611b839190613931565b925050819055506001600360008473ffffffffffffffffffffffffffffffffffffffff1673ffffffffffffffffffffffffffffffffffffffff1681526020019081526020016000206000828254611bda91906138db565b92505081905550816002600083815260200190815260200160002060006101000a81548173ffffffffffffffffffffffffffffffffffffffff021916908373ffffffffffffffffffffffffffffffffffffffff160217905550808273ffffffffffffffffffffffffffffffffffffffff168473ffffffffffffffffffffffffffffffffffffffff167fddf252ad1be2c89b69c2b068fc378daa952ba7f163c4a11628f55a4df523b3ef60405160405180910390a4505050565b6001816000016000828254019250508190555050565b600081600001549050919050565b611cd18282604051806020016040528060008152506126bc565b5050565b600073ffffffffffffffffffffffffffffffffffffffff168273ffffffffffffffffffffffffffffffffffffffff161415611d45576040517f08c379a0000000000000000000000000000000000000000000000000000000008152600401611d3c9061406b565b60405180910390fd5b611d4e8161182c565b15611d8e576040517f08c379a0000000000000000000000000000000000000000000000000000000008152600401611d85906140d7565b60405180910390fd5b611d9a600083836125a8565b6001600360008473ffffffffffffffffffffffffffffffffffffffff1673ffffffffffffffffffffffffffffffffffffffff1681526020019081526020016000206000828254611dea91906138db565b92505081905550816002600083815260200190815260200160002060006101000a81548173ffffffffffffffffffffffffffffffffffffffff021916908373ffffffffffffffffffffffffffffffffffffffff160217905550808273ffffffffffffffffffffffffffffffffffffffff16600073ffffffffffffffffffffffffffffffffffffffff167fddf252ad1be2c89b69c2b068fc378daa952ba7f163c4a11628f55a4df523b3ef60405160405180910390a45050565b6000600a60009054906101000a900473ffffffffffffffffffffffffffffffffffffffff16905081600a60006101000a81548173ffffffffffffffffffffffffffffffffffffffff021916908373ffffffffffffffffffffffffffffffffffffffff1602179055508173ffffffffffffffffffffffffffffffffffffffff168173ffffffffffffffffffffffffffffffffffffffff167f8be0079c531659141344cd1fd0a4f28419497f9722a3daafe3b4186f6b6457e060405160405180910390a35050565b6000811415611fad576040517f08c379a0000000000000000000000000000000000000000000000000000000008152600401611fa4906138bb565b60405180910390fd5b600081601160008573ffffffffffffffffffffffffffffffffffffffff1673ffffffffffffffffffffffffffffffffffffffff16815260200190815260200160002054611ffa91906138db565b90506005811115612040576040517f08c379a000000000000000000000000000000000000000000000000000000000815260040161203790614143565b60405180910390fd5b6000600f5490506000838261205591906138db565b90506104366001826120679190613931565b11156120a8576040517f08c379a000000000000000000000000000000000000000000000000000000000815260040161209f906141af565b60405180910390fd5b34662386f26fc10000856120bc91906141cf565b146120fc576040517f08c379a00000000000000000000000000000000000000000000000000000000081526004016120f390614275565b60405180910390fd5b80600f8190555082601160008773ffffffffffffffffffffffffffffffffffffffff1673ffffffffffffffffffffffffffffffffffffffff1681526020019081526020016000208190555060005b8481101561217a5761216786828561216291906138db565b611cb7565b808061217290613728565b91505061214a565b505050505050565b8173ffffffffffffffffffffffffffffffffffffffff168373ffffffffffffffffffffffffffffffffffffffff1614156121f1576040517f08c379a00000000000000000000000000000000000000000000000000000000081526004016121e8906142e1565b60405180910390fd5b80600560008573ffffffffffffffffffffffffffffffffffffffff1673ffffffffffffffffffffffffffffffffffffffff16815260200190815260200160002060008473ffffffffffffffffffffffffffffffffffffffff1673ffffffffffffffffffffffffffffffffffffffff16815260200190815260200160002060006101000a81548160ff0219169083151502179055508173ffffffffffffffffffffffffffffffffffffffff168373ffffffffffffffffffffffffffffffffffffffff167f17307eab39ab6107e8899845ad3d59bd9653f200f220920489ca2b5937696c31836040516122e29190612d23565b60405180910390a3505050565b6122fa848484611a37565b61230684848484612717565b612345576040517f08c379a000000000000000000000000000000000000000000000000000000000815260040161233c90614373565b60405180910390fd5b50505050565b60606010805461235a9061347f565b80601f01602080910402602001604051908101604052809291908181526020018280546123869061347f565b80156123d35780601f106123a8576101008083540402835291602001916123d3565b820191906000526020600020905b8154815290600101906020018083116123b657829003601f168201915b5050505050905090565b60606000821415612425576040518060400160405280600181526020017f30000000000000000000000000000000000000000000000000000000000000008152509050612539565b600082905060005b6000821461245757808061244090613728565b915050600a8261245091906143c2565b915061242d565b60008167ffffffffffffffff81111561247357612472612fdf565b5b6040519080825280601f01601f1916602001820160405280156124a55781602001600182028036833780820191505090505b5090505b60008514612532576001826124be9190613931565b9150600a856124cd91906143f3565b60306124d991906138db565b60f81b8183815181106124ef576124ee613a63565b5b60200101907effffffffffffffffffffffffffffffffffffffffffffffffffffffffffffff1916908160001a905350600a8561252b91906143c2565b94506124a9565b8093505050505b919050565b60007f01ffc9a7000000000000000000000000000000000000000000000000000000007bffffffffffffffffffffffffffffffffffffffffffffffffffffffff1916827bffffffffffffffffffffffffffffffffffffffffffffffffffffffff1916149050919050565b6125b38383836128ae565b600073ffffffffffffffffffffffffffffffffffffffff168373ffffffffffffffffffffffffffffffffffffffff1614156125f6576125f1816128b3565b612635565b8173ffffffffffffffffffffffffffffffffffffffff168373ffffffffffffffffffffffffffffffffffffffff16146126345761263383826128fc565b5b5b600073ffffffffffffffffffffffffffffffffffffffff168273ffffffffffffffffffffffffffffffffffffffff1614156126785761267381612a69565b6126b7565b8273ffffffffffffffffffffffffffffffffffffffff168273ffffffffffffffffffffffffffffffffffffffff16146126b6576126b58282612b3a565b5b5b505050565b6126c68383611cd5565b6126d36000848484612717565b612712576040517f08c379a000000000000000000000000000000000000000000000000000000000815260040161270990614373565b60405180910390fd5b505050565b60006127388473ffffffffffffffffffffffffffffffffffffffff16612bb9565b156128a1578373ffffffffffffffffffffffffffffffffffffffff1663150b7a02612761611898565b8786866040518563ffffffff1660e01b81526004016127839493929190614479565b602060405180830381600087803b15801561279d57600080fd5b505af19250505080156127ce57506040513d601f19601f820116820180604052508101906127cb91906144da565b60015b612851573d80600081146127fe576040519150601f19603f3d011682016040523d82523d6000602084013e612803565b606091505b50600081511415612849576040517f08c379a000000000000000000000000000000000000000000000000000000000815260040161284090614373565b60405180910390fd5b805181602001fd5b63150b7a0260e01b7bffffffffffffffffffffffffffffffffffffffffffffffffffffffff1916817bffffffffffffffffffffffffffffffffffffffffffffffffffffffff1916149150506128a6565b600190505b949350505050565b505050565b6008805490506009600083815260200190815260200160002081905550600881908060018154018082558091505060019003906000526020600020016000909190919091505550565b6000600161290984610ffb565b6129139190613931565b90506000600760008481526020019081526020016000205490508181146129f8576000600660008673ffffffffffffffffffffffffffffffffffffffff1673ffffffffffffffffffffffffffffffffffffffff168152602001908152602001600020600084815260200190815260200160002054905080600660008773ffffffffffffffffffffffffffffffffffffffff1673ffffffffffffffffffffffffffffffffffffffff168152602001908152602001600020600084815260200190815260200160002081905550816007600083815260200190815260200160002081905550505b6007600084815260200190815260200160002060009055600660008573ffffffffffffffffffffffffffffffffffffffff1673ffffffffffffffffffffffffffffffffffffffff16815260200190815260200160002060008381526020019081526020016000206000905550505050565b60006001600880549050612a7d9190613931565b9050600060096000848152602001908152602001600020549050600060088381548110612aad57612aac613a63565b5b906000526020600020015490508060088381548110612acf57612ace613a63565b5b906000526020600020018190555081600960008381526020019081526020016000208190555060096000858152602001908152602001600020600090556008805480612b1e57612b1d614507565b5b6001900381819060005260206000200160009055905550505050565b6000612b4583610ffb565b905081600660008573ffffffffffffffffffffffffffffffffffffffff1673ffffffffffffffffffffffffffffffffffffffff168152602001908152602001600020600083815260200190815260200160002081905550806007600084815260200190815260200160002081905550505050565b600080823b905060008111915050919050565b828054612bd89061347f565b90600052602060002090601f016020900481019282612bfa5760008555612c41565b82601f10612c1357805160ff1916838001178555612c41565b82800160010185558215612c41579182015b82811115612c40578251825591602001919060010190612c25565b5b509050612c4e9190612c52565b5090565b5b80821115612c6b576000816000905550600101612c53565b5090565b6000604051905090565b600080fd5b600080fd5b60007fffffffff0000000000000000000000000000000000000000000000000000000082169050919050565b612cb881612c83565b8114612cc357600080fd5b50565b600081359050612cd581612caf565b92915050565b600060208284031215612cf157612cf0612c79565b5b6000612cff84828501612cc6565b91505092915050565b60008115159050919050565b612d1d81612d08565b82525050565b6000602082019050612d386000830184612d14565b92915050565b600081519050919050565b600082825260208201905092915050565b60005b83811015612d78578082015181840152602081019050612d5d565b83811115612d87576000848401525b50505050565b6000601f19601f8301169050919050565b6000612da982612d3e565b612db38185612d49565b9350612dc3818560208601612d5a565b612dcc81612d8d565b840191505092915050565b60006020820190508181036000830152612df18184612d9e565b905092915050565b6000819050919050565b612e0c81612df9565b8114612e1757600080fd5b50565b600081359050612e2981612e03565b92915050565b600060208284031215612e4557612e44612c79565b5b6000612e5384828501612e1a565b91505092915050565b600073ffffffffffffffffffffffffffffffffffffffff82169050919050565b6000612e8782612e5c565b9050919050565b612e9781612e7c565b82525050565b6000602082019050612eb26000830184612e8e565b92915050565b612ec181612e7c565b8114612ecc57600080fd5b50565b600081359050612ede81612eb8565b92915050565b60008060408385031215612efb57612efa612c79565b5b6000612f0985828601612ecf565b9250506020612f1a85828601612e1a565b9150509250929050565b612f2d81612df9565b82525050565b6000602082019050612f486000830184612f24565b92915050565b600080600060608486031215612f6757612f66612c79565b5b6000612f7586828701612ecf565b9350506020612f8686828701612ecf565b9250506040612f9786828701612e1a565b9150509250925092565b6000819050919050565b612fb481612fa1565b82525050565b6000602082019050612fcf6000830184612fab565b92915050565b600080fd5b600080fd5b7f4e487b7100000000000000000000000000000000000000000000000000000000600052604160045260246000fd5b61301782612d8d565b810181811067ffffffffffffffff8211171561303657613035612fdf565b5b80604052505050565b6000613049612c6f565b9050613055828261300e565b919050565b600067ffffffffffffffff82111561307557613074612fdf565b5b61307e82612d8d565b9050602081019050919050565b82818337600083830152505050565b60006130ad6130a88461305a565b61303f565b9050828152602081018484840111156130c9576130c8612fda565b5b6130d484828561308b565b509392505050565b600082601f8301126130f1576130f0612fd5565b5b813561310184826020860161309a565b91505092915050565b6000602082840312156131205761311f612c79565b5b600082013567ffffffffffffffff81111561313e5761313d612c7e565b5b61314a848285016130dc565b91505092915050565b60006020828403121561316957613168612c79565b5b600061317784828501612ecf565b91505092915050565b61318981612d08565b811461319457600080fd5b50565b6000813590506131a681613180565b92915050565b600080604083850312156131c3576131c2612c79565b5b60006131d185828601612ecf565b92505060206131e285828601613197565b9150509250929050565b600080fd5b600080fd5b60008083601f84011261320c5761320b612fd5565b5b8235905067ffffffffffffffff811115613229576132286131ec565b5b602083019150836020820283011115613245576132446131f1565b5b9250929050565b60008060006040848603121561326557613264612c79565b5b600084013567ffffffffffffffff81111561328357613282612c7e565b5b61328f868287016131f6565b935093505060206132a286828701612e1a565b9150509250925092565b600067ffffffffffffffff8211156132c7576132c6612fdf565b5b6132d082612d8d565b9050602081019050919050565b60006132f06132eb846132ac565b61303f565b90508281526020810184848401111561330c5761330b612fda565b5b61331784828561308b565b509392505050565b600082601f83011261333457613333612fd5565b5b81356133448482602086016132dd565b91505092915050565b6000806000806080858703121561336757613366612c79565b5b600061337587828801612ecf565b945050602061338687828801612ecf565b935050604061339787828801612e1a565b925050606085013567ffffffffffffffff8111156133b8576133b7612c7e565b5b6133c48782880161331f565b91505092959194509250565b600080604083850312156133e7576133e6612c79565b5b60006133f585828601612e1a565b925050602061340685828601612e1a565b9150509250929050565b6000806040838503121561342757613426612c79565b5b600061343585828601612ecf565b925050602061344685828601612ecf565b9150509250929050565b7f4e487b7100000000000000000000000000000000000000000000000000000000600052602260045260246000fd5b6000600282049050600182168061349757607f821691505b602082108114156134ab576134aa613450565b5b50919050565b7f4552433732313a20617070726f76656420717565727920666f72206e6f6e657860008201527f697374656e7420746f6b656e0000000000000000000000000000000000000000602082015250565b600061350d602c83612d49565b9150613518826134b1565b604082019050919050565b6000602082019050818103600083015261353c81613500565b9050919050565b7f4552433732313a20617070726f76616c20746f2063757272656e74206f776e6560008201527f7200000000000000000000000000000000000000000000000000000000000000602082015250565b600061359f602183612d49565b91506135aa82613543565b604082019050919050565b600060208201905081810360008301526135ce81613592565b9050919050565b7f4552433732313a20617070726f76652063616c6c6572206973206e6f74206f7760008201527f6e6572206e6f7220617070726f76656420666f7220616c6c0000000000000000602082015250565b6000613631603883612d49565b915061363c826135d5565b604082019050919050565b6000602082019050818103600083015261366081613624565b9050919050565b7f4552433732313a207472616e736665722063616c6c6572206973206e6f74206f60008201527f776e6572206e6f7220617070726f766564000000000000000000000000000000602082015250565b60006136c3603183612d49565b91506136ce82613667565b604082019050919050565b600060208201905081810360008301526136f2816136b6565b9050919050565b7f4e487b7100000000000000000000000000000000000000000000000000000000600052601160045260246000fd5b600061373382612df9565b91507fffffffffffffffffffffffffffffffffffffffffffffffffffffffffffffffff821415613766576137656136f9565b5b600182019050919050565b7f455243373231456e756d657261626c653a206f776e657220696e646578206f7560008201527f74206f6620626f756e6473000000000000000000000000000000000000000000602082015250565b60006137cd602b83612d49565b91506137d882613771565b604082019050919050565b600060208201905081810360008301526137fc816137c0565b9050919050565b7f4f776e61626c653a2063616c6c6572206973206e6f7420746865206f776e6572600082015250565b6000613839602083612d49565b915061384482613803565b602082019050919050565b600060208201905081810360008301526138688161382c565b9050919050565b7f494e56414c49445f414d4f554e54000000000000000000000000000000000000600082015250565b60006138a5600e83612d49565b91506138b08261386f565b602082019050919050565b600060208201905081810360008301526138d481613898565b9050919050565b60006138e682612df9565b91506138f183612df9565b9250827fffffffffffffffffffffffffffffffffffffffffffffffffffffffffffffffff03821115613926576139256136f9565b5b828201905092915050565b600061393c82612df9565b915061394783612df9565b92508282101561395a576139596136f9565b5b828203905092915050565b7f5445414d5f4c494d49545f455843454544454400000000000000000000000000600082015250565b600061399b601383612d49565b91506139a682613965565b602082019050919050565b600060208201905081810360008301526139ca8161398e565b9050919050565b7f455243373231456e756d657261626c653a20676c6f62616c20696e646578206f60008201527f7574206f6620626f756e64730000000000000000000000000000000000000000602082015250565b6000613a2d602c83612d49565b9150613a38826139d1565b604082019050919050565b60006020820190508181036000830152613a5c81613a20565b9050919050565b7f4e487b7100000000000000000000000000000000000000000000000000000000600052603260045260246000fd5b7f4552433732313a206f776e657220717565727920666f72206e6f6e657869737460008201527f656e7420746f6b656e0000000000000000000000000000000000000000000000602082015250565b6000613aee602983612d49565b9150613af982613a92565b604082019050919050565b60006020820190508181036000830152613b1d81613ae1565b9050919050565b7f4552433732313a2062616c616e636520717565727920666f7220746865207a6560008201527f726f206164647265737300000000000000000000000000000000000000000000602082015250565b6000613b80602a83612d49565b9150613b8b82613b24565b604082019050919050565b60006020820190508181036000830152613baf81613b73565b9050919050565b7f53414c455f4e4f545f4f50454e00000000000000000000000000000000000000600082015250565b6000613bec600d83612d49565b9150613bf782613bb6565b602082019050919050565b60006020820190508181036000830152613c1b81613bdf565b9050919050565b7f4552433732314d657461646174613a2055524920717565727920666f72206e6f60008201527f6e6578697374656e7420746f6b656e0000000000000000000000000000000000602082015250565b6000613c7e602f83612d49565b9150613c8982613c22565b604082019050919050565b60006020820190508181036000830152613cad81613c71565b9050919050565b600081905092915050565b6000613cca82612d3e565b613cd48185613cb4565b9350613ce4818560208601612d5a565b80840191505092915050565b7f2e6a736f6e000000000000000000000000000000000000000000000000000000600082015250565b6000613d26600583613cb4565b9150613d3182613cf0565b600582019050919050565b6000613d488285613cbf565b9150613d548284613cbf565b9150613d5f82613d19565b91508190509392505050565b7f494e56414c49445f54494d455354414d50530000000000000000000000000000600082015250565b6000613da1601283612d49565b9150613dac82613d6b565b602082019050919050565b60006020820190508181036000830152613dd081613d94565b9050919050565b7f4f776e61626c653a206e6577206f776e657220697320746865207a65726f206160008201527f6464726573730000000000000000000000000000000000000000000000000000602082015250565b6000613e33602683612d49565b9150613e3e82613dd7565b604082019050919050565b60006020820190508181036000830152613e6281613e26565b9050919050565b7f4552433732313a206f70657261746f7220717565727920666f72206e6f6e657860008201527f697374656e7420746f6b656e0000000000000000000000000000000000000000602082015250565b6000613ec5602c83612d49565b9150613ed082613e69565b604082019050919050565b60006020820190508181036000830152613ef481613eb8565b9050919050565b7f4552433732313a207472616e73666572206f6620746f6b656e2074686174206960008201527f73206e6f74206f776e0000000000000000000000000000000000000000000000602082015250565b6000613f57602983612d49565b9150613f6282613efb565b604082019050919050565b60006020820190508181036000830152613f8681613f4a565b9050919050565b7f4552433732313a207472616e7366657220746f20746865207a65726f2061646460008201527f7265737300000000000000000000000000000000000000000000000000000000602082015250565b6000613fe9602483612d49565b9150613ff482613f8d565b604082019050919050565b6000602082019050818103600083015261401881613fdc565b9050919050565b7f4552433732313a206d696e7420746f20746865207a65726f2061646472657373600082015250565b6000614055602083612d49565b91506140608261401f565b602082019050919050565b6000602082019050818103600083015261408481614048565b9050919050565b7f4552433732313a20746f6b656e20616c7265616479206d696e74656400000000600082015250565b60006140c1601c83612d49565b91506140cc8261408b565b602082019050919050565b600060208201905081810360008301526140f0816140b4565b9050919050565b7f57414c4c45545f4c494d49545f45584345454445440000000000000000000000600082015250565b600061412d601583612d49565b9150614138826140f7565b602082019050919050565b6000602082019050818103600083015261415c81614120565b9050919050565b7f53414c455f4c494d49545f455843454544454400000000000000000000000000600082015250565b6000614199601383612d49565b91506141a482614163565b602082019050919050565b600060208201905081810360008301526141c88161418c565b9050919050565b60006141da82612df9565b91506141e583612df9565b9250817fffffffffffffffffffffffffffffffffffffffffffffffffffffffffffffffff048311821515161561421e5761421d6136f9565b5b828202905092915050565b7f57524f4e475f4554485f56414c55450000000000000000000000000000000000600082015250565b600061425f600f83612d49565b915061426a82614229565b602082019050919050565b6000602082019050818103600083015261428e81614252565b9050919050565b7f4552433732313a20617070726f766520746f2063616c6c657200000000000000600082015250565b60006142cb601983612d49565b91506142d682614295565b602082019050919050565b600060208201905081810360008301526142fa816142be565b9050919050565b7f4552433732313a207472616e7366657220746f206e6f6e20455243373231526560008201527f63656976657220696d706c656d656e7465720000000000000000000000000000602082015250565b600061435d603283612d49565b915061436882614301565b604082019050919050565b6000602082019050818103600083015261438c81614350565b9050919050565b7f4e487b7100000000000000000000000000000000000000000000000000000000600052601260045260246000fd5b60006143cd82612df9565b91506143d883612df9565b9250826143e8576143e7614393565b5b828204905092915050565b60006143fe82612df9565b915061440983612df9565b92508261441957614418614393565b5b828206905092915050565b600081519050919050565b600082825260208201905092915050565b600061444b82614424565b614455818561442f565b9350614465818560208601612d5a565b61446e81612d8d565b840191505092915050565b600060808201905061448e6000830187612e8e565b61449b6020830186612e8e565b6144a86040830185612f24565b81810360608301526144ba8184614440565b905095945050505050565b6000815190506144d481612caf565b92915050565b6000602082840312156144f0576144ef612c79565b5b60006144fe848285016144c5565b91505092915050565b7f4e487b7100000000000000000000000000000000000000000000000000000000600052603160045260246000fdfea2646970667358221220c9c640a6ae5bbdc70f70387948273984bb146db730f08d8af268040003209eb464736f6c6343000809003368747470733a2f2f6865726f696e66696e6974792e6d7970696e6174612e636c6f75642f697066732f516d654442506a7577426e5569504a68557478616b34396338677735326233664c557550625977716174465471702f",
  "linkReferences": {},
  "deployedLinkReferences": {}
}