{
  "_format": "hh-sol-artifact-1",
  "contractName": "HeroManager",
  "sourceName": "contracts/game/HeroManager.sol",
  "abi": [
    {
      "inputs": [
        {
          "internalType": "address",
          "name": "tokenAddress",
          "type": "address"
        },
        {
          "internalType": "address",
          "name": "nftAddress",
          "type": "address"
        }
      ],
      "stateMutability": "nonpayable",
      "type": "constructor"
    },
    {
      "anonymous": false,
      "inputs": [
        {
          "indexed": true,
          "internalType": "address",
          "name": "previousOwner",
          "type": "address"
        },
        {
          "indexed": true,
          "internalType": "address",
          "name": "newOwner",
          "type": "address"
        }
      ],
      "name": "OwnershipTransferred",
      "type": "event"
    },
    {
      "inputs": [],
      "name": "HERO_MAX_EXP",
      "outputs": [
        {
          "internalType": "uint256",
          "name": "",
          "type": "uint256"
        }
      ],
      "stateMutability": "view",
      "type": "function"
    },
    {
      "inputs": [],
      "name": "HERO_MAX_LEVEL",
      "outputs": [
        {
          "internalType": "uint256",
          "name": "",
          "type": "uint256"
        }
      ],
      "stateMutability": "view",
      "type": "function"
    },
    {
      "inputs": [
        {
          "internalType": "uint256",
          "name": "heroId",
          "type": "uint256"
        },
        {
          "components": [
            {
              "internalType": "bytes32",
              "name": "name",
              "type": "bytes32"
            },
            {
              "internalType": "uint256",
              "name": "level",
              "type": "uint256"
            },
            {
              "internalType": "uint256",
              "name": "rarity",
              "type": "uint256"
            },
            {
              "internalType": "uint256",
              "name": "primaryAttribute",
              "type": "uint256"
            },
            {
              "internalType": "uint256",
              "name": "attackCapability",
              "type": "uint256"
            },
            {
              "internalType": "uint256",
              "name": "strength",
              "type": "uint256"
            },
            {
              "internalType": "uint256",
              "name": "strengthGain",
              "type": "uint256"
            },
            {
              "internalType": "uint256",
              "name": "agility",
              "type": "uint256"
            },
            {
              "internalType": "uint256",
              "name": "agilityGain",
              "type": "uint256"
            },
            {
              "internalType": "uint256",
              "name": "intelligence",
              "type": "uint256"
            },
            {
              "internalType": "uint256",
              "name": "intelligenceGain",
              "type": "uint256"
            },
            {
              "internalType": "uint256",
              "name": "experience",
              "type": "uint256"
            }
          ],
          "internalType": "struct GameFi.Hero",
          "name": "hero",
          "type": "tuple"
        }
      ],
      "name": "addHero",
      "outputs": [],
      "stateMutability": "nonpayable",
      "type": "function"
    },
    {
      "inputs": [],
      "name": "baseLevelUpFee",
      "outputs": [
        {
          "internalType": "uint256",
          "name": "",
          "type": "uint256"
        }
      ],
      "stateMutability": "view",
      "type": "function"
    },
    {
      "inputs": [],
      "name": "bonusExp",
      "outputs": [
        {
          "internalType": "uint256",
          "name": "",
          "type": "uint256"
        }
      ],
      "stateMutability": "view",
      "type": "function"
    },
    {
      "inputs": [],
      "name": "bonusLevelUpFee",
      "outputs": [
        {
          "internalType": "uint256",
          "name": "",
          "type": "uint256"
        }
      ],
      "stateMutability": "view",
      "type": "function"
    },
    {
      "inputs": [
        {
          "internalType": "uint256[]",
          "name": "heroIds",
          "type": "uint256[]"
        },
        {
          "internalType": "bool",
          "name": "won",
          "type": "bool"
        }
      ],
      "name": "bulkExpUp",
      "outputs": [],
      "stateMutability": "nonpayable",
      "type": "function"
    },
    {
      "inputs": [],
      "name": "energyRecoveryTime",
      "outputs": [
        {
          "internalType": "uint256",
          "name": "",
          "type": "uint256"
        }
      ],
      "stateMutability": "view",
      "type": "function"
    },
    {
      "inputs": [],
      "name": "expDiff",
      "outputs": [
        {
          "internalType": "uint256",
          "name": "",
          "type": "uint256"
        }
      ],
      "stateMutability": "view",
      "type": "function"
    },
    {
      "inputs": [
        {
          "internalType": "uint256",
          "name": "heroId",
          "type": "uint256"
        },
        {
          "internalType": "bool",
          "name": "won",
          "type": "bool"
        }
      ],
      "name": "expUp",
      "outputs": [],
      "stateMutability": "nonpayable",
      "type": "function"
    },
    {
      "inputs": [
        {
          "internalType": "uint256",
          "name": "heroId",
          "type": "uint256"
        }
      ],
      "name": "heroEnergy",
      "outputs": [
        {
          "internalType": "uint256",
          "name": "",
          "type": "uint256"
        }
      ],
      "stateMutability": "view",
      "type": "function"
    },
    {
      "inputs": [
        {
          "internalType": "uint256",
          "name": "heroId",
          "type": "uint256"
        }
      ],
      "name": "heroLevel",
      "outputs": [
        {
          "internalType": "uint256",
          "name": "",
          "type": "uint256"
        }
      ],
      "stateMutability": "view",
      "type": "function"
    },
    {
      "inputs": [
        {
          "internalType": "uint256",
          "name": "heroId",
          "type": "uint256"
        }
      ],
      "name": "heroPower",
      "outputs": [
        {
          "internalType": "uint256",
          "name": "",
          "type": "uint256"
        }
      ],
      "stateMutability": "view",
      "type": "function"
    },
    {
      "inputs": [
        {
          "internalType": "uint256",
          "name": "heroId",
          "type": "uint256"
        }
      ],
      "name": "heroPrimaryAttribute",
      "outputs": [
        {
          "internalType": "uint256",
          "name": "",
          "type": "uint256"
        }
      ],
      "stateMutability": "view",
      "type": "function"
    },
    {
      "inputs": [
        {
          "internalType": "uint256",
          "name": "",
          "type": "uint256"
        }
      ],
      "name": "heroes",
      "outputs": [
        {
          "internalType": "bytes32",
          "name": "name",
          "type": "bytes32"
        },
        {
          "internalType": "uint256",
          "name": "level",
          "type": "uint256"
        },
        {
          "internalType": "uint256",
          "name": "rarity",
          "type": "uint256"
        },
        {
          "internalType": "uint256",
          "name": "primaryAttribute",
          "type": "uint256"
        },
        {
          "internalType": "uint256",
          "name": "attackCapability",
          "type": "uint256"
        },
        {
          "internalType": "uint256",
          "name": "strength",
          "type": "uint256"
        },
        {
          "internalType": "uint256",
          "name": "strengthGain",
          "type": "uint256"
        },
        {
          "internalType": "uint256",
          "name": "agility",
          "type": "uint256"
        },
        {
          "internalType": "uint256",
          "name": "agilityGain",
          "type": "uint256"
        },
        {
          "internalType": "uint256",
          "name": "intelligence",
          "type": "uint256"
        },
        {
          "internalType": "uint256",
          "name": "intelligenceGain",
          "type": "uint256"
        },
        {
          "internalType": "uint256",
          "name": "experience",
          "type": "uint256"
        }
      ],
      "stateMutability": "view",
      "type": "function"
    },
    {
      "inputs": [
        {
          "internalType": "uint256",
          "name": "",
          "type": "uint256"
        }
      ],
      "name": "heroesEnergy",
      "outputs": [
        {
          "internalType": "uint256",
          "name": "",
          "type": "uint256"
        }
      ],
      "stateMutability": "view",
      "type": "function"
    },
    {
      "inputs": [
        {
          "internalType": "uint256",
          "name": "",
          "type": "uint256"
        }
      ],
      "name": "heroesEnergyUsedAt",
      "outputs": [
        {
          "internalType": "uint256",
          "name": "",
          "type": "uint256"
        }
      ],
      "stateMutability": "view",
      "type": "function"
    },
    {
      "inputs": [
        {
          "internalType": "uint256",
          "name": "heroId",
          "type": "uint256"
        },
        {
          "internalType": "uint256",
          "name": "levels",
          "type": "uint256"
        }
      ],
      "name": "levelUp",
      "outputs": [],
      "stateMutability": "nonpayable",
      "type": "function"
    },
    {
      "inputs": [],
      "name": "lobbyBattleAddress",
      "outputs": [
        {
          "internalType": "address",
          "name": "",
          "type": "address"
        }
      ],
      "stateMutability": "view",
      "type": "function"
    },
    {
      "inputs": [],
      "name": "maxHeroEnergy",
      "outputs": [
        {
          "internalType": "uint256",
          "name": "",
          "type": "uint256"
        }
      ],
      "stateMutability": "view",
      "type": "function"
    },
    {
      "inputs": [
        {
          "internalType": "bytes[]",
          "name": "data",
          "type": "bytes[]"
        }
      ],
      "name": "multicall",
      "outputs": [
        {
          "internalType": "bytes[]",
          "name": "results",
          "type": "bytes[]"
        }
      ],
      "stateMutability": "nonpayable",
      "type": "function"
    },
    {
      "inputs": [],
      "name": "nft",
      "outputs": [
        {
          "internalType": "contract IERC721",
          "name": "",
          "type": "address"
        }
      ],
      "stateMutability": "view",
      "type": "function"
    },
    {
      "inputs": [],
      "name": "owner",
      "outputs": [
        {
          "internalType": "address",
          "name": "",
          "type": "address"
        }
      ],
      "stateMutability": "view",
      "type": "function"
    },
    {
      "inputs": [],
      "name": "primaryPowerMultiplier",
      "outputs": [
        {
          "internalType": "uint256",
          "name": "",
          "type": "uint256"
        }
      ],
      "stateMutability": "view",
      "type": "function"
    },
    {
      "inputs": [],
      "name": "rarityPowerBooster",
      "outputs": [
        {
          "internalType": "uint256",
          "name": "",
          "type": "uint256"
        }
      ],
      "stateMutability": "view",
      "type": "function"
    },
    {
      "inputs": [],
      "name": "renounceOwnership",
      "outputs": [],
      "stateMutability": "nonpayable",
      "type": "function"
    },
    {
      "inputs": [],
      "name": "secondaryMultiplier",
      "outputs": [
        {
          "internalType": "uint256",
          "name": "",
          "type": "uint256"
        }
      ],
      "stateMutability": "view",
      "type": "function"
    },
    {
      "inputs": [
        {
          "internalType": "uint256",
          "name": "value",
          "type": "uint256"
        }
      ],
      "name": "setBaseLevelUpFee",
      "outputs": [],
      "stateMutability": "nonpayable",
      "type": "function"
    },
    {
      "inputs": [
        {
          "internalType": "uint256",
          "name": "value",
          "type": "uint256"
        }
      ],
      "name": "setBonusExp",
      "outputs": [],
      "stateMutability": "nonpayable",
      "type": "function"
    },
    {
      "inputs": [
        {
          "internalType": "uint256",
          "name": "value",
          "type": "uint256"
        }
      ],
      "name": "setBonusLevelUpFee",
      "outputs": [],
      "stateMutability": "nonpayable",
      "type": "function"
    },
    {
      "inputs": [
        {
          "internalType": "uint256",
          "name": "value",
          "type": "uint256"
        }
      ],
      "name": "setEnergyRecoveryTime",
      "outputs": [],
      "stateMutability": "nonpayable",
      "type": "function"
    },
    {
      "inputs": [
        {
          "internalType": "uint256",
          "name": "value",
          "type": "uint256"
        }
      ],
      "name": "setExpDiff",
      "outputs": [],
      "stateMutability": "nonpayable",
      "type": "function"
    },
    {
      "inputs": [
        {
          "internalType": "address",
          "name": "lbAddr",
          "type": "address"
        }
      ],
      "name": "setLobbyBattle",
      "outputs": [],
      "stateMutability": "nonpayable",
      "type": "function"
    },
    {
      "inputs": [
        {
          "internalType": "uint256",
          "name": "value",
          "type": "uint256"
        }
      ],
      "name": "setMaxHeroEnergy",
      "outputs": [],
      "stateMutability": "nonpayable",
      "type": "function"
    },
    {
      "inputs": [
        {
          "internalType": "uint256",
          "name": "value",
          "type": "uint256"
        }
      ],
      "name": "setPrimaryPowerMultiplier",
      "outputs": [],
      "stateMutability": "nonpayable",
      "type": "function"
    },
    {
      "inputs": [
        {
          "internalType": "uint256",
          "name": "value",
          "type": "uint256"
        }
      ],
      "name": "setRarityPowerBooster",
      "outputs": [],
      "stateMutability": "nonpayable",
      "type": "function"
    },
    {
      "inputs": [
        {
          "internalType": "uint256",
          "name": "value",
          "type": "uint256"
        }
      ],
      "name": "setSecondaryMultiplier",
      "outputs": [],
      "stateMutability": "nonpayable",
      "type": "function"
    },
    {
      "inputs": [
        {
          "internalType": "uint256",
          "name": "value",
          "type": "uint256"
        }
      ],
      "name": "setThirdMultiplier",
      "outputs": [],
      "stateMutability": "nonpayable",
      "type": "function"
    },
    {
      "inputs": [
        {
          "internalType": "uint256",
          "name": "heroId",
          "type": "uint256"
        }
      ],
      "name": "spendHeroEnergy",
      "outputs": [],
      "stateMutability": "nonpayable",
      "type": "function"
    },
    {
      "inputs": [],
      "name": "thirdMultiplier",
      "outputs": [
        {
          "internalType": "uint256",
          "name": "",
          "type": "uint256"
        }
      ],
      "stateMutability": "view",
      "type": "function"
    },
    {
      "inputs": [],
      "name": "token",
      "outputs": [
        {
          "internalType": "contract IERC20",
          "name": "",
          "type": "address"
        }
      ],
      "stateMutability": "view",
      "type": "function"
    },
    {
      "inputs": [
        {
          "internalType": "address",
          "name": "newOwner",
          "type": "address"
        }
      ],
      "name": "transferOwnership",
      "outputs": [],
      "stateMutability": "nonpayable",
      "type": "function"
    },
    {
      "inputs": [
        {
          "internalType": "uint256[]",
          "name": "heroIds",
          "type": "uint256[]"
        }
      ],
      "name": "validateHeroEnergies",
      "outputs": [
        {
          "internalType": "bool",
          "name": "",
          "type": "bool"
        }
      ],
      "stateMutability": "view",
      "type": "function"
    },
    {
      "inputs": [
        {
          "internalType": "uint256[]",
          "name": "heroIds",
          "type": "uint256[]"
        },
        {
          "internalType": "address",
          "name": "owner",
          "type": "address"
        }
      ],
      "name": "validateHeroIds",
      "outputs": [
        {
          "internalType": "bool",
          "name": "",
          "type": "bool"
        }
      ],
      "stateMutability": "view",
      "type": "function"
    }
  ],
  "bytecode": "0x6080604052690a968163f0a57b40000060045569021e19e0c9bab2400000600555600a60065560086007556006600855606e6009556801a055690d9db80000600a556004600b556005600c55610e10600d553480156200005e57600080fd5b5060405162001dd338038062001dd383398101604081905262000081916200012b565b6200008c33620000be565b600180546001600160a01b039384166001600160a01b0319918216179091556002805492909316911617905562000163565b600080546001600160a01b038381166001600160a01b0319831681178455604051919092169283917f8be0079c531659141344cd1fd0a4f28419497f9722a3daafe3b4186f6b6457e09190a35050565b80516001600160a01b03811681146200012657600080fd5b919050565b600080604083850312156200013f57600080fd5b6200014a836200010e565b91506200015a602084016200010e565b90509250929050565b611c6080620001736000396000f3fe608060405234801561001057600080fd5b50600436106102745760003560e01c8063852eebff11610151578063b3803453116100c3578063d5c1ed8a11610087578063d5c1ed8a146105f4578063dda728cd14610607578063e3a015ce1461061a578063f2fde38b1461062d578063f3d1b5ab14610640578063fc0c546a1461066357600080fd5b8063b380345314610592578063b7601a15146105b2578063b8830f9f146105c5578063c97bdb58146105d8578063cc0f6f78146105e157600080fd5b80639cabd6db116101155780639cabd6db14610473578063a8d4a03b14610486578063aaef01221461054d578063ab40514514610556578063ac9650d81461055f578063b0a04efa1461057f57600080fd5b8063852eebff1461042a5780638af316461461043d5780638da5cb5b146104465780639b12bc88146104575780639bad62311461046057600080fd5b80633c68e1ad116101ea5780634fbd1edc116101ae5780634fbd1edc146103cd5780635226dc93146103d65780636e7dff4d146103e9578063715018a6146103fc57806372450f99146104045780637ce9dd541461041757600080fd5b80633c68e1ad146103635780634018b1ce1461036c5780634239ca301461037f57806347ccca02146103925780634afca080146103bd57600080fd5b80631ec462e01161023c5780631ec462e0146102f957806323cb1c361461030c578063294cdacd146103155780632a18bdfe1461033557806331a03ca21461034857806333ab05411461035057600080fd5b80630152368f1461027957806301783dfa146102a157806306975ac2146102b85780630a36d40b146102c157806313b60c51146102e4575b600080fd5b61028c61028736600461168f565b610676565b60405190151581526020015b60405180910390f35b6102aa60065481565b604051908152602001610298565b6102aa60055481565b6102aa6102cf3660046116e6565b6000908152600e602052604090206001015490565b6102f76102f23660046116e6565b61078e565b005b6102f76103073660046116ff565b6107bd565b6102aa60085481565b6102aa6103233660046116e6565b60106020526000908152604090205481565b6102aa6103433660046116e6565b6108db565b6102aa601e81565b6102f761035e3660046116e6565b61093f565b6102aa60095481565b6102f761037a366004611739565b61096e565b6102f761038d3660046116e6565b6109ba565b6002546103a5906001600160a01b031681565b6040516001600160a01b039091168152602001610298565b6102aa68056bc75e2d6310000081565b6102aa600b5481565b6102f76103e4366004611756565b610a91565b6102f76103f73660046116e6565b610d7c565b6102f7610dab565b6102f76104123660046116e6565b610de1565b6102f76104253660046116e6565b610e10565b6102f7610438366004611786565b610e3f565b6102aa600c5481565b6000546001600160a01b03166103a5565b6102aa60045481565b6102f761046e3660046116e6565b610e9e565b6102f76104813660046116e6565b610ecd565b6104f46104943660046116e6565b600e60205280600052604060002060009150905080600001549080600101549080600201549080600301549080600401549080600501549080600601549080600701549080600801549080600901549080600a01549080600b015490508c565b604080519c8d5260208d019b909b52998b019890985260608a0196909652608089019490945260a088019290925260c087015260e086015261010085015261012084015261014083015261016082015261018001610298565b6102aa60075481565b6102aa600a5481565b61057261056d3660046117d2565b610efc565b604051610298919061186c565b6102f761058d3660046118ce565b610ff2565b6102aa6105a03660046116e6565b600f6020526000908152604090205481565b61028c6105c03660046117d2565b6110c4565b6102f76105d33660046116e6565b611152565b6102aa600d5481565b6102f76105ef3660046116e6565b611181565b6102aa6106023660046116e6565b6111b0565b6102f76106153660046116e6565b6113a0565b6003546103a5906001600160a01b031681565b6102f761063b366004611739565b6113cf565b6102aa61064e3660046116e6565b6000908152600e602052604090206003015490565b6001546103a5906001600160a01b031681565b6000805b83811015610781576002546001600160a01b038085169116636352211e8787858181106106a9576106a96118fe565b905060200201356040518263ffffffff1660e01b81526004016106ce91815260200190565b60206040518083038186803b1580156106e657600080fd5b505afa1580156106fa573d6000803e3d6000fd5b505050506040513d601f19601f8201168201806040525081019061071e9190611914565b6001600160a01b0316146107795760405162461bcd60e51b815260206004820152601b60248201527f4c6f626279426174746c653a206e6f74206865726f206f776e6572000000000060448201526064015b60405180910390fd5b60010161067a565b50600190505b9392505050565b6000546001600160a01b031633146107b85760405162461bcd60e51b815260040161077090611931565b600655565b6000546001600160a01b031633146107e75760405162461bcd60e51b815260040161077090611931565b6000828152600e6020526040902060010154156108465760405162461bcd60e51b815260206004820152601f60248201527f4865726f4d616e616765723a206865726f20616c7265616479206164646564006044820152606401610770565b6000828152600e6020526040902081906108d58282813581556020820135600182015560408201356002820155606082013560038201556080820135600482015560a0820135600582015560c0820135600682015560e0820135600782015561010082013560088201556101208201356009820155610140820135600a820155610160820135600b8201555050565b50505050565b600c546000828152600f60205260408120549091908181101561090a57610902818361197c565b949350505050565b6000848152601060205260409020546201518090610928904261197c565b1115610935575092915050565b5060009392505050565b6000546001600160a01b031633146109695760405162461bcd60e51b815260040161077090611931565b600455565b6000546001600160a01b031633146109985760405162461bcd60e51b815260040161077090611931565b600380546001600160a01b0319166001600160a01b0392909216919091179055565b6003546001600160a01b031633146109e45760405162461bcd60e51b815260040161077090611993565b60006109ef826108db565b11610a3c5760405162461bcd60e51b815260206004820152601d60248201527f4865726f4d616e616765723a206865726f207a65726f20656e657267790000006044820152606401610770565b6000818152600f6020526040902054600c54811415610a5d57506001610a7f565b600181019050600c54811415610a7f5760008281526010602052604090204290555b6000918252600f602052604090912055565b6000828152600e6020526040908190206001015460025491516331a9108f60e11b815260048101859052909133916001600160a01b0390911690636352211e9060240160206040518083038186803b158015610aec57600080fd5b505afa158015610b00573d6000803e3d6000fd5b505050506040513d601f19601f82011682018060405250810190610b249190611914565b6001600160a01b031614610b7a5760405162461bcd60e51b815260206004820152601c60248201527f4865726f4d616e616765723a206e6f742061204e4654206f776e6572000000006044820152606401610770565b601e8110610bca5760405162461bcd60e51b815260206004820152601b60248201527f4865726f4d616e616765723a206865726f206d6178206c6576656c00000000006044820152606401610770565b601e610bd683836119dd565b1115610c245760405162461bcd60e51b815260206004820152601f60248201527f4865726f4d616e616765723a20746f6f206d616e79206c6576656c73207570006044820152606401610770565b6005546000610c3a600019840183026004540190565b90508381026000610c64610c5f610c5a60026000198a018a025b9061146a565b860290565b830190565b6001546040516323b872dd60e01b8152336004820152306024820152604481018390529192506001600160a01b0316906323b872dd90606401602060405180830381600087803b158015610cb757600080fd5b505af1158015610ccb573d6000803e3d6000fd5b505050506040513d601f19601f82011682018060405250810190610cef91906119f5565b610d3b5760405162461bcd60e51b815260206004820152601b60248201527f4865726f4d616e616765723a206e6f7420656e6f7567682066656500000000006044820152606401610770565b505050600093845250600e60205260409092209181016001830155600682015481026005830155600882015481026007830155600a82015402600990910155565b6000546001600160a01b03163314610da65760405162461bcd60e51b815260040161077090611931565b600555565b6000546001600160a01b03163314610dd55760405162461bcd60e51b815260040161077090611931565b610ddf6000611483565b565b6000546001600160a01b03163314610e0b5760405162461bcd60e51b815260040161077090611931565b600d55565b6000546001600160a01b03163314610e3a5760405162461bcd60e51b815260040161077090611931565b600855565b6003546001600160a01b03163314610e695760405162461bcd60e51b815260040161077090611993565b60005b828110156108d557610e96848483818110610e8957610e896118fe565b9050602002013583610ff2565b600101610e6c565b6000546001600160a01b03163314610ec85760405162461bcd60e51b815260040161077090611931565b600955565b6000546001600160a01b03163314610ef75760405162461bcd60e51b815260040161077090611931565b600c55565b60608167ffffffffffffffff811115610f1757610f17611a12565b604051908082528060200260200182016040528015610f4a57816020015b6060815260200190600190039081610f355790505b50905060005b82811015610fea57610fba30858584818110610f6e57610f6e6118fe565b9050602002810190610f809190611a28565b8080601f0160208091040260200160405190810160405280939291908181526020018383808284376000920191909152506114d392505050565b828281518110610fcc57610fcc6118fe565b60200260200101819052508080610fe290611a6f565b915050610f50565b505b92915050565b60035433906001600160a01b031681148061101557506001600160a01b03811630145b6110315760405162461bcd60e51b815260040161077090611993565b60008261104c57611047600b54610c54866114f8565b611055565b611055846114f8565b6000858152600e602052604090206001810154600b9091015491925090601e8210156110a157820168056bc75e2d6310000081106110a1576001919091019068056bc75e2d630fffff19015b6000958652600e60205260409095206001810191909155600b0193909355505050565b6000805b828110156111485760006110f38585848181106110e7576110e76118fe565b905060200201356108db565b116111405760405162461bcd60e51b815260206004820152601e60248201527f4c6f626279426174746c653a206e6f7420656e6f75676820656e6572677900006044820152606401610770565b6001016110c8565b5060019392505050565b6000546001600160a01b0316331461117c5760405162461bcd60e51b815260040161077090611931565b600a55565b6000546001600160a01b031633146111ab5760405162461bcd60e51b815260040161077090611931565b600b55565b6000818152600e602090815260408083208151610180810183528154815260018201549381019390935260028101549183019190915260038101546060830181905260048201546080840152600582015460a0840152600682015460c0840152600782015460e084015260088201546101008401526009820154610120840152600a820154610140840152600b909101546101608301528290819081906112655750505060a081015161012082015160e08301515b8360600151600114156112865750505060e081015160a08201516101208301515b8360600151600214156112a75750505061012081015160e082015160a08301515b6000600854826112b79190611a8a565b6007546112c49085611a8a565b6006546112d19087611a8a565b6112db91906119dd565b6112e591906119dd565b9050846040015160011415611315576064600954826113049190611a8a565b61130e9190611abf565b9050611396565b84604001516002141561133e5761271060026009546113349190611bc5565b6113049083611a8a565b84604001516003141561135e57620f424060036009546113349190611bc5565b846040015160041415611396576305f5e100600460095461137f9190611bc5565b6113899083611a8a565b6113939190611abf565b90505b9695505050505050565b6000546001600160a01b031633146113ca5760405162461bcd60e51b815260040161077090611931565b600755565b6000546001600160a01b031633146113f95760405162461bcd60e51b815260040161077090611931565b6001600160a01b03811661145e5760405162461bcd60e51b815260206004820152602660248201527f4f776e61626c653a206e6577206f776e657220697320746865207a65726f206160448201526564647265737360d01b6064820152608401610770565b61146781611483565b50565b600081838161147b5761147b611aa9565b049392505050565b600080546001600160a01b038381166001600160a01b0319831681178455604051919092169283917f8be0079c531659141344cd1fd0a4f28419497f9722a3daafe3b4186f6b6457e09190a35050565b60606107878383604051806060016040528060278152602001611c0460279139611527565b6000818152600e60205260408120600101546000198101670de0b6b3a764000002600a54909150819003610787565b60606001600160a01b0384163b61158f5760405162461bcd60e51b815260206004820152602660248201527f416464726573733a2064656c65676174652063616c6c20746f206e6f6e2d636f6044820152651b9d1c9858dd60d21b6064820152608401610770565b600080856001600160a01b0316856040516115aa9190611bd4565b600060405180830381855af49150503d80600081146115e5576040519150601f19603f3d011682016040523d82523d6000602084013e6115ea565b606091505b509150915061139682828660608315611604575081610787565b8251156116145782518084602001fd5b8160405162461bcd60e51b81526004016107709190611bf0565b60008083601f84011261164057600080fd5b50813567ffffffffffffffff81111561165857600080fd5b6020830191508360208260051b850101111561167357600080fd5b9250929050565b6001600160a01b038116811461146757600080fd5b6000806000604084860312156116a457600080fd5b833567ffffffffffffffff8111156116bb57600080fd5b6116c78682870161162e565b90945092505060208401356116db8161167a565b809150509250925092565b6000602082840312156116f857600080fd5b5035919050565b6000808284036101a081121561171457600080fd5b83359250610180601f198201121561172b57600080fd5b506020830190509250929050565b60006020828403121561174b57600080fd5b81356107878161167a565b6000806040838503121561176957600080fd5b50508035926020909101359150565b801515811461146757600080fd5b60008060006040848603121561179b57600080fd5b833567ffffffffffffffff8111156117b257600080fd5b6117be8682870161162e565b90945092505060208401356116db81611778565b600080602083850312156117e557600080fd5b823567ffffffffffffffff8111156117fc57600080fd5b6118088582860161162e565b90969095509350505050565b60005b8381101561182f578181015183820152602001611817565b838111156108d55750506000910152565b60008151808452611858816020860160208601611814565b601f01601f19169290920160200192915050565b6000602080830181845280855180835260408601915060408160051b870101925083870160005b828110156118c157603f198886030184526118af858351611840565b94509285019290850190600101611893565b5092979650505050505050565b600080604083850312156118e157600080fd5b8235915060208301356118f381611778565b809150509250929050565b634e487b7160e01b600052603260045260246000fd5b60006020828403121561192657600080fd5b81516107878161167a565b6020808252818101527f4f776e61626c653a2063616c6c6572206973206e6f7420746865206f776e6572604082015260600190565b634e487b7160e01b600052601160045260246000fd5b60008282101561198e5761198e611966565b500390565b6020808252602a908201527f4865726f4d616e616765723a2063616c6c61626c65206279206c6f62627920626040820152696174746c65206f6e6c7960b01b606082015260800190565b600082198211156119f0576119f0611966565b500190565b600060208284031215611a0757600080fd5b815161078781611778565b634e487b7160e01b600052604160045260246000fd5b6000808335601e19843603018112611a3f57600080fd5b83018035915067ffffffffffffffff821115611a5a57600080fd5b60200191503681900382131561167357600080fd5b6000600019821415611a8357611a83611966565b5060010190565b6000816000190483118215151615611aa457611aa4611966565b500290565b634e487b7160e01b600052601260045260246000fd5b600082611adc57634e487b7160e01b600052601260045260246000fd5b500490565b600181815b80851115611b1c578160001904821115611b0257611b02611966565b80851615611b0f57918102915b93841c9390800290611ae6565b509250929050565b600082611b3357506001610fec565b81611b4057506000610fec565b8160018114611b565760028114611b6057611b7c565b6001915050610fec565b60ff841115611b7157611b71611966565b50506001821b610fec565b5060208310610133831016604e8410600b8410161715611b9f575081810a610fec565b611ba98383611ae1565b8060001904821115611bbd57611bbd611966565b029392505050565b600061078760ff841683611b24565b60008251611be6818460208701611814565b9190910192915050565b602081526000610787602083018461184056fe416464726573733a206c6f772d6c6576656c2064656c65676174652063616c6c206661696c6564a264697066735822122001ce1a09dd30412bd4429772a405815758c509421e2c9d2a3f85cef0181cf6ca64736f6c63430008090033",
  "linkReferences": {},
  "deployedLinkReferences": {}
}