{
  "_format": "hh-sol-artifact-1",
  "contractName": "HeroInfinityNFT",
  "sourceName": "contracts/HeroInfinityNFT.sol",
  "abi": [
    {
      "inputs": [],
      "stateMutability": "nonpayable",
      "type": "constructor"
    },
    {
      "anonymous": false,
      "inputs": [
        {
          "indexed": true,
          "internalType": "address",
          "name": "owner",
          "type": "address"
        },
        {
          "indexed": true,
          "internalType": "address",
          "name": "approved",
          "type": "address"
        },
        {
          "indexed": true,
          "internalType": "uint256",
          "name": "tokenId",
          "type": "uint256"
        }
      ],
      "name": "Approval",
      "type": "event"
    },
    {
      "anonymous": false,
      "inputs": [
        {
          "indexed": true,
          "internalType": "address",
          "name": "owner",
          "type": "address"
        },
        {
          "indexed": true,
          "internalType": "address",
          "name": "operator",
          "type": "address"
        },
        {
          "indexed": false,
          "internalType": "bool",
          "name": "approved",
          "type": "bool"
        }
      ],
      "name": "ApprovalForAll",
      "type": "event"
    },
    {
      "anonymous": false,
      "inputs": [
        {
          "indexed": true,
          "internalType": "address",
          "name": "previousOwner",
          "type": "address"
        },
        {
          "indexed": true,
          "internalType": "address",
          "name": "newOwner",
          "type": "address"
        }
      ],
      "name": "OwnershipTransferred",
      "type": "event"
    },
    {
      "anonymous": false,
      "inputs": [
        {
          "indexed": true,
          "internalType": "address",
          "name": "from",
          "type": "address"
        },
        {
          "indexed": true,
          "internalType": "address",
          "name": "to",
          "type": "address"
        },
        {
          "indexed": true,
          "internalType": "uint256",
          "name": "tokenId",
          "type": "uint256"
        }
      ],
      "name": "Transfer",
      "type": "event"
    },
    {
      "inputs": [],
      "name": "HIGHEST_PUBLIC",
      "outputs": [
        {
          "internalType": "uint256",
          "name": "",
          "type": "uint256"
        }
      ],
      "stateMutability": "view",
      "type": "function"
    },
    {
      "inputs": [],
      "name": "HIGHEST_TEAM",
      "outputs": [
        {
          "internalType": "uint256",
          "name": "",
          "type": "uint256"
        }
      ],
      "stateMutability": "view",
      "type": "function"
    },
    {
      "inputs": [],
      "name": "MAX_PER_WALLET",
      "outputs": [
        {
          "internalType": "uint256",
          "name": "",
          "type": "uint256"
        }
      ],
      "stateMutability": "view",
      "type": "function"
    },
    {
      "inputs": [
        {
          "internalType": "address",
          "name": "to",
          "type": "address"
        },
        {
          "internalType": "uint256",
          "name": "tokenId",
          "type": "uint256"
        }
      ],
      "name": "approve",
      "outputs": [],
      "stateMutability": "nonpayable",
      "type": "function"
    },
    {
      "inputs": [
        {
          "internalType": "address",
          "name": "owner",
          "type": "address"
        }
      ],
      "name": "balanceOf",
      "outputs": [
        {
          "internalType": "uint256",
          "name": "",
          "type": "uint256"
        }
      ],
      "stateMutability": "view",
      "type": "function"
    },
    {
      "inputs": [
        {
          "internalType": "uint256",
          "name": "tokenId",
          "type": "uint256"
        }
      ],
      "name": "getApproved",
      "outputs": [
        {
          "internalType": "address",
          "name": "",
          "type": "address"
        }
      ],
      "stateMutability": "view",
      "type": "function"
    },
    {
      "inputs": [
        {
          "internalType": "address",
          "name": "owner",
          "type": "address"
        },
        {
          "internalType": "address",
          "name": "operator",
          "type": "address"
        }
      ],
      "name": "isApprovedForAll",
      "outputs": [
        {
          "internalType": "bool",
          "name": "",
          "type": "bool"
        }
      ],
      "stateMutability": "view",
      "type": "function"
    },
    {
      "inputs": [],
      "name": "isMintOpen",
      "outputs": [
        {
          "internalType": "bool",
          "name": "",
          "type": "bool"
        }
      ],
      "stateMutability": "view",
      "type": "function"
    },
    {
      "inputs": [],
      "name": "isSaleOpen",
      "outputs": [
        {
          "internalType": "bool",
          "name": "",
          "type": "bool"
        }
      ],
      "stateMutability": "view",
      "type": "function"
    },
    {
      "inputs": [
        {
          "internalType": "uint256",
          "name": "amount",
          "type": "uint256"
        }
      ],
      "name": "mint",
      "outputs": [],
      "stateMutability": "payable",
      "type": "function"
    },
    {
      "inputs": [],
      "name": "mintEndTimestamp",
      "outputs": [
        {
          "internalType": "uint256",
          "name": "",
          "type": "uint256"
        }
      ],
      "stateMutability": "view",
      "type": "function"
    },
    {
      "inputs": [
        {
          "internalType": "address",
          "name": "account",
          "type": "address"
        }
      ],
      "name": "mintPrice",
      "outputs": [
        {
          "internalType": "uint256",
          "name": "",
          "type": "uint256"
        }
      ],
      "stateMutability": "view",
      "type": "function"
    },
    {
      "inputs": [
        {
          "internalType": "uint256",
          "name": "amount",
          "type": "uint256"
        }
      ],
      "name": "mintTeam",
      "outputs": [],
      "stateMutability": "nonpayable",
      "type": "function"
    },
    {
      "inputs": [
        {
          "internalType": "address",
          "name": "",
          "type": "address"
        }
      ],
      "name": "mintedAmount",
      "outputs": [
        {
          "internalType": "uint256",
          "name": "",
          "type": "uint256"
        }
      ],
      "stateMutability": "view",
      "type": "function"
    },
    {
      "inputs": [
        {
          "internalType": "bytes[]",
          "name": "data",
          "type": "bytes[]"
        }
      ],
      "name": "multicall",
      "outputs": [
        {
          "internalType": "bytes[]",
          "name": "results",
          "type": "bytes[]"
        }
      ],
      "stateMutability": "nonpayable",
      "type": "function"
    },
    {
      "inputs": [],
      "name": "name",
      "outputs": [
        {
          "internalType": "string",
          "name": "",
          "type": "string"
        }
      ],
      "stateMutability": "view",
      "type": "function"
    },
    {
      "inputs": [],
      "name": "nodePool",
      "outputs": [
        {
          "internalType": "address",
          "name": "",
          "type": "address"
        }
      ],
      "stateMutability": "view",
      "type": "function"
    },
    {
      "inputs": [],
      "name": "owner",
      "outputs": [
        {
          "internalType": "address",
          "name": "",
          "type": "address"
        }
      ],
      "stateMutability": "view",
      "type": "function"
    },
    {
      "inputs": [
        {
          "internalType": "uint256",
          "name": "tokenId",
          "type": "uint256"
        }
      ],
      "name": "ownerOf",
      "outputs": [
        {
          "internalType": "address",
          "name": "",
          "type": "address"
        }
      ],
      "stateMutability": "view",
      "type": "function"
    },
    {
      "inputs": [],
      "name": "publicMintPrice",
      "outputs": [
        {
          "internalType": "uint256",
          "name": "",
          "type": "uint256"
        }
      ],
      "stateMutability": "view",
      "type": "function"
    },
    {
      "inputs": [],
      "name": "renounceOwnership",
      "outputs": [],
      "stateMutability": "nonpayable",
      "type": "function"
    },
    {
      "inputs": [
        {
          "internalType": "address",
          "name": "from",
          "type": "address"
        },
        {
          "internalType": "address",
          "name": "to",
          "type": "address"
        },
        {
          "internalType": "uint256",
          "name": "tokenId",
          "type": "uint256"
        }
      ],
      "name": "safeTransferFrom",
      "outputs": [],
      "stateMutability": "nonpayable",
      "type": "function"
    },
    {
      "inputs": [
        {
          "internalType": "address",
          "name": "from",
          "type": "address"
        },
        {
          "internalType": "address",
          "name": "to",
          "type": "address"
        },
        {
          "internalType": "uint256",
          "name": "tokenId",
          "type": "uint256"
        },
        {
          "internalType": "bytes",
          "name": "_data",
          "type": "bytes"
        }
      ],
      "name": "safeTransferFrom",
      "outputs": [],
      "stateMutability": "nonpayable",
      "type": "function"
    },
    {
      "inputs": [
        {
          "internalType": "uint256",
          "name": "amount",
          "type": "uint256"
        }
      ],
      "name": "sale",
      "outputs": [],
      "stateMutability": "payable",
      "type": "function"
    },
    {
      "inputs": [],
      "name": "saleMintPrice",
      "outputs": [
        {
          "internalType": "uint256",
          "name": "",
          "type": "uint256"
        }
      ],
      "stateMutability": "view",
      "type": "function"
    },
    {
      "inputs": [
        {
          "internalType": "address",
          "name": "operator",
          "type": "address"
        },
        {
          "internalType": "bool",
          "name": "approved",
          "type": "bool"
        }
      ],
      "name": "setApprovalForAll",
      "outputs": [],
      "stateMutability": "nonpayable",
      "type": "function"
    },
    {
      "inputs": [
        {
          "internalType": "string",
          "name": "uri",
          "type": "string"
        }
      ],
      "name": "setBaseURI",
      "outputs": [],
      "stateMutability": "nonpayable",
      "type": "function"
    },
    {
      "inputs": [
        {
          "internalType": "uint256",
          "name": "_whitelist",
          "type": "uint256"
        },
        {
          "internalType": "uint256",
          "name": "_public",
          "type": "uint256"
        },
        {
          "internalType": "uint256",
          "name": "_sale",
          "type": "uint256"
        }
      ],
      "name": "setMintPrice",
      "outputs": [],
      "stateMutability": "nonpayable",
      "type": "function"
    },
    {
      "inputs": [
        {
          "internalType": "address",
          "name": "poolAddress",
          "type": "address"
        }
      ],
      "name": "setNodePool",
      "outputs": [],
      "stateMutability": "nonpayable",
      "type": "function"
    },
    {
      "inputs": [
        {
          "internalType": "bool",
          "name": "_open",
          "type": "bool"
        }
      ],
      "name": "setReserved",
      "outputs": [],
      "stateMutability": "nonpayable",
      "type": "function"
    },
    {
      "inputs": [
        {
          "internalType": "bool",
          "name": "_open",
          "type": "bool"
        }
      ],
      "name": "setSaleOpen",
      "outputs": [],
      "stateMutability": "nonpayable",
      "type": "function"
    },
    {
      "inputs": [
        {
          "internalType": "uint256",
          "name": "_mintEndTimestamp",
          "type": "uint256"
        }
      ],
      "name": "setTimestamps",
      "outputs": [],
      "stateMutability": "nonpayable",
      "type": "function"
    },
    {
      "inputs": [
        {
          "internalType": "bytes4",
          "name": "interfaceId",
          "type": "bytes4"
        }
      ],
      "name": "supportsInterface",
      "outputs": [
        {
          "internalType": "bool",
          "name": "",
          "type": "bool"
        }
      ],
      "stateMutability": "view",
      "type": "function"
    },
    {
      "inputs": [],
      "name": "symbol",
      "outputs": [
        {
          "internalType": "string",
          "name": "",
          "type": "string"
        }
      ],
      "stateMutability": "view",
      "type": "function"
    },
    {
      "inputs": [
        {
          "internalType": "uint256",
          "name": "index",
          "type": "uint256"
        }
      ],
      "name": "tokenByIndex",
      "outputs": [
        {
          "internalType": "uint256",
          "name": "",
          "type": "uint256"
        }
      ],
      "stateMutability": "view",
      "type": "function"
    },
    {
      "inputs": [
        {
          "internalType": "address",
          "name": "owner",
          "type": "address"
        },
        {
          "internalType": "uint256",
          "name": "index",
          "type": "uint256"
        }
      ],
      "name": "tokenOfOwnerByIndex",
      "outputs": [
        {
          "internalType": "uint256",
          "name": "",
          "type": "uint256"
        }
      ],
      "stateMutability": "view",
      "type": "function"
    },
    {
      "inputs": [
        {
          "internalType": "uint256",
          "name": "tokenId",
          "type": "uint256"
        }
      ],
      "name": "tokenURI",
      "outputs": [
        {
          "internalType": "string",
          "name": "",
          "type": "string"
        }
      ],
      "stateMutability": "view",
      "type": "function"
    },
    {
      "inputs": [],
      "name": "totalSupply",
      "outputs": [
        {
          "internalType": "uint256",
          "name": "",
          "type": "uint256"
        }
      ],
      "stateMutability": "view",
      "type": "function"
    },
    {
      "inputs": [
        {
          "internalType": "address",
          "name": "from",
          "type": "address"
        },
        {
          "internalType": "address",
          "name": "to",
          "type": "address"
        },
        {
          "internalType": "uint256",
          "name": "tokenId",
          "type": "uint256"
        }
      ],
      "name": "transferFrom",
      "outputs": [],
      "stateMutability": "nonpayable",
      "type": "function"
    },
    {
      "inputs": [
        {
          "internalType": "address",
          "name": "newOwner",
          "type": "address"
        }
      ],
      "name": "transferOwnership",
      "outputs": [],
      "stateMutability": "nonpayable",
      "type": "function"
    },
    {
      "inputs": [],
      "name": "whitelistMintPrice",
      "outputs": [
        {
          "internalType": "uint256",
          "name": "",
          "type": "uint256"
        }
      ],
      "stateMutability": "view",
      "type": "function"
    },
    {
      "inputs": [],
      "name": "withdrawETH",
      "outputs": [],
      "stateMutability": "nonpayable",
      "type": "function"
    }
  ],
  "bytecode": "0x60806040526608e1bc9bf04000600c55660c6f3b40b6c000600d55660e35fa931a0000600e556010805461ffff191690556000601155601d6012553480156200004757600080fd5b50604080518082018252601481527f4865726f20496e66696e697479204865726f6573000000000000000000000000602080830191825283518085019094526004845263090a492960e31b908401528151919291620000a99160009162000138565b508051620000bf90600190602084019062000138565b505050620000dc620000d6620000e260201b60201c565b620000e6565b6200021b565b3390565b600a80546001600160a01b038381166001600160a01b0319831681179093556040519116919082907f8be0079c531659141344cd1fd0a4f28419497f9722a3daafe3b4186f6b6457e090600090a35050565b8280546200014690620001de565b90600052602060002090601f0160209004810192826200016a5760008555620001b5565b82601f106200018557805160ff1916838001178555620001b5565b82800160010185558215620001b5579182015b82811115620001b557825182559160200191906001019062000198565b50620001c3929150620001c7565b5090565b5b80821115620001c35760008155600101620001c8565b600181811c90821680620001f357607f821691505b602082108114156200021557634e487b7160e01b600052602260045260246000fd5b50919050565b612a7d806200022b6000396000f3fe6080604052600436106102515760003560e01c8063715018a611610139578063af979f25116100b6578063d8f1f8f41161007a578063d8f1f8f414610694578063dc53fd92146106b4578063e086e5ec146106ca578063e985e9c5146106df578063f2fde38b14610728578063fbbf8cc31461074857600080fd5b8063af979f25146105fe578063b88d4fde1461061e578063bb32aef41461063e578063c87b56dd1461065e578063cc6ac2f51461067e57600080fd5b80639be9c50d116100fd5780639be9c50d146105735780639c14a88414610589578063a0712d681461059e578063a22cb465146105b1578063ac9650d8146105d157600080fd5b8063715018a6146105025780637307b3d9146105175780638da5cb5b1461052d57806395d89b411461054b578063960327021461056057600080fd5b806326cea918116101d257806335c6aaf81161019657806335c6aaf81461044c57806342842e0e146104625780634f6ccce71461048257806355f804b3146104a25780636352211e146104c257806370a08231146104e257600080fd5b806326cea918146103ac5780632eb7c7e3146103cc5780632f745c59146103ec578063319948ba1461040c578063342f48aa1461042c57600080fd5b806318160ddd1161021957806318160ddd1461032a578063199080161461033f5780631a081330146103545780632142aa2c1461036c57806323b872dd1461038c57600080fd5b806301ffc9a71461025657806306fdde031461028b578063081812fc146102ad578063095ea7b3146102e55780630f2cdd6c14610307575b600080fd5b34801561026257600080fd5b506102766102713660046122a1565b610775565b60405190151581526020015b60405180910390f35b34801561029757600080fd5b506102a06107a0565b6040516102829190612316565b3480156102b957600080fd5b506102cd6102c8366004612329565b610832565b6040516001600160a01b039091168152602001610282565b3480156102f157600080fd5b5061030561030036600461235e565b6108cc565b005b34801561031357600080fd5b5061031c600581565b604051908152602001610282565b34801561033657600080fd5b5060085461031c565b34801561034b57600080fd5b506102766109e2565b34801561036057600080fd5b5060105460ff16610276565b34801561037857600080fd5b5061031c610387366004612388565b610a0c565b34801561039857600080fd5b506103056103a73660046123a3565b610aa9565b3480156103b857600080fd5b506103056103c7366004612388565b610ada565b3480156103d857600080fd5b506103056103e73660046123ef565b610b26565b3480156103f857600080fd5b5061031c61040736600461235e565b610b6a565b34801561041857600080fd5b5061030561042736600461240a565b610c00565b34801561043857600080fd5b50610305610447366004612329565b610c38565b34801561045857600080fd5b5061031c600c5481565b34801561046e57600080fd5b5061030561047d3660046123a3565b610d3d565b34801561048e57600080fd5b5061031c61049d366004612329565b610d58565b3480156104ae57600080fd5b506103056104bd3660046124c2565b610deb565b3480156104ce57600080fd5b506102cd6104dd366004612329565b610e2c565b3480156104ee57600080fd5b5061031c6104fd366004612388565b610ea3565b34801561050e57600080fd5b50610305610f2a565b34801561052357600080fd5b5061031c61043681565b34801561053957600080fd5b50600a546001600160a01b03166102cd565b34801561055757600080fd5b506102a0610f60565b61030561056e366004612329565b610f6f565b34801561057f57600080fd5b5061031c600e5481565b34801561059557600080fd5b5061031c601c81565b6103056105ac366004612329565b611048565b3480156105bd57600080fd5b506103056105cc36600461250b565b6110a5565b3480156105dd57600080fd5b506105f16105ec36600461253e565b6110b0565b60405161028291906125b3565b34801561060a57600080fd5b506103056106193660046123ef565b61119e565b34801561062a57600080fd5b50610305610639366004612615565b6111db565b34801561064a57600080fd5b50610305610659366004612329565b61120d565b34801561066a57600080fd5b506102a0610679366004612329565b611280565b34801561068a57600080fd5b5061031c600f5481565b3480156106a057600080fd5b50600b546102cd906001600160a01b031681565b3480156106c057600080fd5b5061031c600d5481565b3480156106d657600080fd5b5061030561136c565b3480156106eb57600080fd5b506102766106fa366004612691565b6001600160a01b03918216600090815260056020908152604080832093909416825291909152205460ff1690565b34801561073457600080fd5b50610305610743366004612388565b6113c5565b34801561075457600080fd5b5061031c610763366004612388565b60146020526000908152604090205481565b60006001600160e01b0319821663780e9d6360e01b148061079a575061079a8261145d565b92915050565b6060600080546107af906126bb565b80601f01602080910402602001604051908101604052809291908181526020018280546107db906126bb565b80156108285780601f106107fd57610100808354040283529160200191610828565b820191906000526020600020905b81548152906001019060200180831161080b57829003601f168201915b5050505050905090565b6000818152600260205260408120546001600160a01b03166108b05760405162461bcd60e51b815260206004820152602c60248201527f4552433732313a20617070726f76656420717565727920666f72206e6f6e657860448201526b34b9ba32b73a103a37b5b2b760a11b60648201526084015b60405180910390fd5b506000908152600460205260409020546001600160a01b031690565b60006108d782610e2c565b9050806001600160a01b0316836001600160a01b031614156109455760405162461bcd60e51b815260206004820152602160248201527f4552433732313a20617070726f76616c20746f2063757272656e74206f776e656044820152603960f91b60648201526084016108a7565b336001600160a01b0382161480610961575061096181336106fa565b6109d35760405162461bcd60e51b815260206004820152603860248201527f4552433732313a20617070726f76652063616c6c6572206973206e6f74206f7760448201527f6e6572206e6f7220617070726f76656420666f7220616c6c000000000000000060648201526084016108a7565b6109dd83836114ad565b505050565b600080600f541180156109f75750600f544211155b8015610a07575061043660125411155b905090565b600d54600b54604051633dd3264d60e21b81526001600160a01b03848116600483015260009392849291169063f74c99349060240160206040518083038186803b158015610a5957600080fd5b505afa158015610a6d573d6000803e3d6000fd5b505050506040513d601f19601f82011682018060405250810190610a9191906126f6565b90506004811115610aa257600c5491505b5092915050565b610ab3338261151b565b610acf5760405162461bcd60e51b81526004016108a79061270f565b6109dd838383611612565b600a546001600160a01b03163314610b045760405162461bcd60e51b81526004016108a790612760565b600b80546001600160a01b0319166001600160a01b0392909216919091179055565b600a546001600160a01b03163314610b505760405162461bcd60e51b81526004016108a790612760565b601080549115156101000261ff0019909216919091179055565b6000610b7583610ea3565b8210610bd75760405162461bcd60e51b815260206004820152602b60248201527f455243373231456e756d657261626c653a206f776e657220696e646578206f7560448201526a74206f6620626f756e647360a81b60648201526084016108a7565b506001600160a01b03919091166000908152600660209081526040808320938352929052205490565b600a546001600160a01b03163314610c2a5760405162461bcd60e51b81526004016108a790612760565b600c92909255600d55600e55565b600a546001600160a01b03163314610c625760405162461bcd60e51b81526004016108a790612760565b80610ca05760405162461bcd60e51b815260206004820152600e60248201526d1253959053125117d05353d5539560921b60448201526064016108a7565b6011546000610caf83836127ab565b9050601c610cbe6001836127c3565b1115610d025760405162461bcd60e51b81526020600482015260136024820152721511505357d31253525517d15610d151511151606a1b60448201526064016108a7565b601181905560005b83811015610d3757610d2533610d2083866127ab565b6117b9565b80610d2f816127da565b915050610d0a565b50505050565b6109dd838383604051806020016040528060008152506111db565b6000610d6360085490565b8210610dc65760405162461bcd60e51b815260206004820152602c60248201527f455243373231456e756d657261626c653a20676c6f62616c20696e646578206f60448201526b7574206f6620626f756e647360a01b60648201526084016108a7565b60088281548110610dd957610dd96127f5565b90600052602060002001549050919050565b600a546001600160a01b03163314610e155760405162461bcd60e51b81526004016108a790612760565b8051610e289060139060208401906121f2565b5050565b6000818152600260205260408120546001600160a01b03168061079a5760405162461bcd60e51b815260206004820152602960248201527f4552433732313a206f776e657220717565727920666f72206e6f6e657869737460448201526832b73a103a37b5b2b760b91b60648201526084016108a7565b60006001600160a01b038216610f0e5760405162461bcd60e51b815260206004820152602a60248201527f4552433732313a2062616c616e636520717565727920666f7220746865207a65604482015269726f206164647265737360b01b60648201526084016108a7565b506001600160a01b031660009081526003602052604090205490565b600a546001600160a01b03163314610f545760405162461bcd60e51b81526004016108a790612760565b610f5e6000611907565b565b6060600180546107af906126bb565b60105460ff16610fb15760405162461bcd60e51b815260206004820152600d60248201526c29a0a622afa727aa2fa7a822a760991b60448201526064016108a7565b34600e5482610fc0919061280b565b14610fff5760405162461bcd60e51b815260206004820152600f60248201526e57524f4e475f4554485f56414c554560881b60448201526064016108a7565b60005b8181101561103357611021338260125461101c91906127ab565b611959565b8061102b816127da565b915050611002565b508060125461104291906127ab565b60125550565b6110506109e2565b61108c5760405162461bcd60e51b815260206004820152600d60248201526c26a4a72a2fa727aa2fa7a822a760991b60448201526064016108a7565b33600061109882610a0c565b90506109dd828483611973565b610e28338383611b20565b60608167ffffffffffffffff8111156110cb576110cb612436565b6040519080825280602002602001820160405280156110fe57816020015b60608152602001906001900390816110e95790505b50905060005b82811015610aa25761116e30858584818110611122576111226127f5565b9050602002810190611134919061282a565b8080601f016020809104026020016040519081016040528093929190818152602001838380828437600092019190915250611bef92505050565b828281518110611180576111806127f5565b60200260200101819052508080611196906127da565b915050611104565b600a546001600160a01b031633146111c85760405162461bcd60e51b81526004016108a790612760565b6010805460ff1916911515919091179055565b6111e5338361151b565b6112015760405162461bcd60e51b81526004016108a79061270f565b610d3784848484611c14565b600a546001600160a01b031633146112375760405162461bcd60e51b81526004016108a790612760565b42811161127b5760405162461bcd60e51b8152602060048201526012602482015271494e56414c49445f54494d455354414d505360701b60448201526064016108a7565b600f55565b6000818152600260205260409020546060906001600160a01b03166112ff5760405162461bcd60e51b815260206004820152602f60248201527f4552433732314d657461646174613a2055524920717565727920666f72206e6f60448201526e3732bc34b9ba32b73a103a37b5b2b760891b60648201526084016108a7565b6000611309611c47565b601054909150610100900460ff161561134b578061132684611c56565b604051602001611337929190612878565b604051602081830303815290604052611365565b6040518060800160405280605781526020016129ca605791395b9392505050565b600a546001600160a01b031633146113965760405162461bcd60e51b81526004016108a790612760565b60405133904780156108fc02916000818181858888f193505050501580156113c2573d6000803e3d6000fd5b50565b600a546001600160a01b031633146113ef5760405162461bcd60e51b81526004016108a790612760565b6001600160a01b0381166114545760405162461bcd60e51b815260206004820152602660248201527f4f776e61626c653a206e6577206f776e657220697320746865207a65726f206160448201526564647265737360d01b60648201526084016108a7565b6113c281611907565b60006001600160e01b031982166380ac58cd60e01b148061148e57506001600160e01b03198216635b5e139f60e01b145b8061079a57506301ffc9a760e01b6001600160e01b031983161461079a565b600081815260046020526040902080546001600160a01b0319166001600160a01b03841690811790915581906114e282610e2c565b6001600160a01b03167f8c5be1e5ebec7d5bd14f71427d1e84f3dd0314c0f7b2291e5b200ac8c7c3b92560405160405180910390a45050565b6000818152600260205260408120546001600160a01b03166115945760405162461bcd60e51b815260206004820152602c60248201527f4552433732313a206f70657261746f7220717565727920666f72206e6f6e657860448201526b34b9ba32b73a103a37b5b2b760a11b60648201526084016108a7565b600061159f83610e2c565b9050806001600160a01b0316846001600160a01b031614806115da5750836001600160a01b03166115cf84610832565b6001600160a01b0316145b8061160a57506001600160a01b0380821660009081526005602090815260408083209388168352929052205460ff165b949350505050565b826001600160a01b031661162582610e2c565b6001600160a01b0316146116895760405162461bcd60e51b815260206004820152602560248201527f4552433732313a207472616e736665722066726f6d20696e636f72726563742060448201526437bbb732b960d91b60648201526084016108a7565b6001600160a01b0382166116eb5760405162461bcd60e51b8152602060048201526024808201527f4552433732313a207472616e7366657220746f20746865207a65726f206164646044820152637265737360e01b60648201526084016108a7565b6116f6838383611d54565b6117016000826114ad565b6001600160a01b038316600090815260036020526040812080546001929061172a9084906127c3565b90915550506001600160a01b03821660009081526003602052604081208054600192906117589084906127ab565b909155505060008181526002602052604080822080546001600160a01b0319166001600160a01b0386811691821790925591518493918716917fddf252ad1be2c89b69c2b068fc378daa952ba7f163c4a11628f55a4df523b3ef91a4505050565b6001600160a01b03821661180f5760405162461bcd60e51b815260206004820181905260248201527f4552433732313a206d696e7420746f20746865207a65726f206164647265737360448201526064016108a7565b6000818152600260205260409020546001600160a01b0316156118745760405162461bcd60e51b815260206004820152601c60248201527f4552433732313a20746f6b656e20616c7265616479206d696e7465640000000060448201526064016108a7565b61188060008383611d54565b6001600160a01b03821660009081526003602052604081208054600192906118a99084906127ab565b909155505060008181526002602052604080822080546001600160a01b0319166001600160a01b03861690811790915590518392907fddf252ad1be2c89b69c2b068fc378daa952ba7f163c4a11628f55a4df523b3ef908290a45050565b600a80546001600160a01b038381166001600160a01b0319831681179093556040519116919082907f8be0079c531659141344cd1fd0a4f28419497f9722a3daafe3b4186f6b6457e090600090a35050565b610e28828260405180602001604052806000815250611e0c565b816119b15760405162461bcd60e51b815260206004820152600e60248201526d1253959053125117d05353d5539560921b60448201526064016108a7565b6001600160a01b0383166000908152601460205260408120546119d59084906127ab565b90506005811115611a205760405162461bcd60e51b815260206004820152601560248201527415d05313115517d31253525517d15610d151511151605a1b60448201526064016108a7565b6012546000611a2f85836127ab565b9050610436611a3f6001836127c3565b1115611a835760405162461bcd60e51b815260206004820152601360248201527214d0531157d31253525517d15610d151511151606a1b60448201526064016108a7565b34611a8e858761280b565b1115611ace5760405162461bcd60e51b815260206004820152600f60248201526e57524f4e475f4554485f56414c554560881b60448201526064016108a7565b60128190556001600160a01b03861660009081526014602052604081208490555b85811015611b1757611b058761101c83866127ab565b80611b0f816127da565b915050611aef565b50505050505050565b816001600160a01b0316836001600160a01b03161415611b825760405162461bcd60e51b815260206004820152601960248201527f4552433732313a20617070726f766520746f2063616c6c65720000000000000060448201526064016108a7565b6001600160a01b03838116600081815260056020908152604080832094871680845294825291829020805460ff191686151590811790915591519182527f17307eab39ab6107e8899845ad3d59bd9653f200f220920489ca2b5937696c31910160405180910390a3505050565b60606113658383604051806060016040528060278152602001612a2160279139611e3f565b611c1f848484611612565b611c2b84848484611f1c565b610d375760405162461bcd60e51b81526004016108a7906128b7565b6060601380546107af906126bb565b606081611c7a5750506040805180820190915260018152600360fc1b602082015290565b8160005b8115611ca45780611c8e816127da565b9150611c9d9050600a8361291f565b9150611c7e565b60008167ffffffffffffffff811115611cbf57611cbf612436565b6040519080825280601f01601f191660200182016040528015611ce9576020820181803683370190505b5090505b841561160a57611cfe6001836127c3565b9150611d0b600a86612933565b611d169060306127ab565b60f81b818381518110611d2b57611d2b6127f5565b60200101906001600160f81b031916908160001a905350611d4d600a8661291f565b9450611ced565b6001600160a01b038316611daf57611daa81600880546000838152600960205260408120829055600182018355919091527ff3f7a9fe364faab93b216da50a3214154f22a0a2b415b23a84c8169e8b636ee30155565b611dd2565b816001600160a01b0316836001600160a01b031614611dd257611dd28382612029565b6001600160a01b038216611de9576109dd816120c6565b826001600160a01b0316826001600160a01b0316146109dd576109dd8282612175565b611e1683836117b9565b611e236000848484611f1c565b6109dd5760405162461bcd60e51b81526004016108a7906128b7565b60606001600160a01b0384163b611ea75760405162461bcd60e51b815260206004820152602660248201527f416464726573733a2064656c65676174652063616c6c20746f206e6f6e2d636f6044820152651b9d1c9858dd60d21b60648201526084016108a7565b600080856001600160a01b031685604051611ec29190612947565b600060405180830381855af49150503d8060008114611efd576040519150601f19603f3d011682016040523d82523d6000602084013e611f02565b606091505b5091509150611f128282866121b9565b9695505050505050565b60006001600160a01b0384163b1561201e57604051630a85bd0160e11b81526001600160a01b0385169063150b7a0290611f60903390899088908890600401612963565b602060405180830381600087803b158015611f7a57600080fd5b505af1925050508015611faa575060408051601f3d908101601f19168201909252611fa791810190612996565b60015b612004573d808015611fd8576040519150601f19603f3d011682016040523d82523d6000602084013e611fdd565b606091505b508051611ffc5760405162461bcd60e51b81526004016108a7906128b7565b805181602001fd5b6001600160e01b031916630a85bd0160e11b14905061160a565b506001949350505050565b6000600161203684610ea3565b61204091906127c3565b600083815260076020526040902054909150808214612093576001600160a01b03841660009081526006602090815260408083208584528252808320548484528184208190558352600790915290208190555b5060009182526007602090815260408084208490556001600160a01b039094168352600681528383209183525290812055565b6008546000906120d8906001906127c3565b60008381526009602052604081205460088054939450909284908110612100576121006127f5565b906000526020600020015490508060088381548110612121576121216127f5565b6000918252602080832090910192909255828152600990915260408082208490558582528120556008805480612159576121596129b3565b6001900381819060005260206000200160009055905550505050565b600061218083610ea3565b6001600160a01b039093166000908152600660209081526040808320868452825280832085905593825260079052919091209190915550565b606083156121c8575081611365565b8251156121d85782518084602001fd5b8160405162461bcd60e51b81526004016108a79190612316565b8280546121fe906126bb565b90600052602060002090601f0160209004810192826122205760008555612266565b82601f1061223957805160ff1916838001178555612266565b82800160010185558215612266579182015b8281111561226657825182559160200191906001019061224b565b50612272929150612276565b5090565b5b808211156122725760008155600101612277565b6001600160e01b0319811681146113c257600080fd5b6000602082840312156122b357600080fd5b81356113658161228b565b60005b838110156122d95781810151838201526020016122c1565b83811115610d375750506000910152565b600081518084526123028160208601602086016122be565b601f01601f19169290920160200192915050565b60208152600061136560208301846122ea565b60006020828403121561233b57600080fd5b5035919050565b80356001600160a01b038116811461235957600080fd5b919050565b6000806040838503121561237157600080fd5b61237a83612342565b946020939093013593505050565b60006020828403121561239a57600080fd5b61136582612342565b6000806000606084860312156123b857600080fd5b6123c184612342565b92506123cf60208501612342565b9150604084013590509250925092565b8035801515811461235957600080fd5b60006020828403121561240157600080fd5b611365826123df565b60008060006060848603121561241f57600080fd5b505081359360208301359350604090920135919050565b634e487b7160e01b600052604160045260246000fd5b600067ffffffffffffffff8084111561246757612467612436565b604051601f8501601f19908116603f0116810190828211818310171561248f5761248f612436565b816040528093508581528686860111156124a857600080fd5b858560208301376000602087830101525050509392505050565b6000602082840312156124d457600080fd5b813567ffffffffffffffff8111156124eb57600080fd5b8201601f810184136124fc57600080fd5b61160a8482356020840161244c565b6000806040838503121561251e57600080fd5b61252783612342565b9150612535602084016123df565b90509250929050565b6000806020838503121561255157600080fd5b823567ffffffffffffffff8082111561256957600080fd5b818501915085601f83011261257d57600080fd5b81358181111561258c57600080fd5b8660208260051b85010111156125a157600080fd5b60209290920196919550909350505050565b6000602080830181845280855180835260408601915060408160051b870101925083870160005b8281101561260857603f198886030184526125f68583516122ea565b945092850192908501906001016125da565b5092979650505050505050565b6000806000806080858703121561262b57600080fd5b61263485612342565b935061264260208601612342565b925060408501359150606085013567ffffffffffffffff81111561266557600080fd5b8501601f8101871361267657600080fd5b6126858782356020840161244c565b91505092959194509250565b600080604083850312156126a457600080fd5b6126ad83612342565b915061253560208401612342565b600181811c908216806126cf57607f821691505b602082108114156126f057634e487b7160e01b600052602260045260246000fd5b50919050565b60006020828403121561270857600080fd5b5051919050565b60208082526031908201527f4552433732313a207472616e736665722063616c6c6572206973206e6f74206f6040820152701ddb995c881b9bdc88185c1c1c9bdd9959607a1b606082015260800190565b6020808252818101527f4f776e61626c653a2063616c6c6572206973206e6f7420746865206f776e6572604082015260600190565b634e487b7160e01b600052601160045260246000fd5b600082198211156127be576127be612795565b500190565b6000828210156127d5576127d5612795565b500390565b60006000198214156127ee576127ee612795565b5060010190565b634e487b7160e01b600052603260045260246000fd5b600081600019048311821515161561282557612825612795565b500290565b6000808335601e1984360301811261284157600080fd5b83018035915067ffffffffffffffff82111561285c57600080fd5b60200191503681900382131561287157600080fd5b9250929050565b6000835161288a8184602088016122be565b83519083019061289e8183602088016122be565b64173539b7b760d91b9101908152600501949350505050565b60208082526032908201527f4552433732313a207472616e7366657220746f206e6f6e20455243373231526560408201527131b2b4bb32b91034b6b83632b6b2b73a32b960711b606082015260800190565b634e487b7160e01b600052601260045260246000fd5b60008261292e5761292e612909565b500490565b60008261294257612942612909565b500690565b600082516129598184602087016122be565b9190910192915050565b6001600160a01b0385811682528416602082015260408101839052608060608201819052600090611f12908301846122ea565b6000602082840312156129a857600080fd5b81516113658161228b565b634e487b7160e01b600052603160045260246000fdfe68747470733a2f2f6865726f696e66696e6974792e6d7970696e6174612e636c6f75642f697066732f516d5271717a6e5062435564654a41727a55594c4d6975477265706d4a766d6a6269546f70594d70544a62414262416464726573733a206c6f772d6c6576656c2064656c65676174652063616c6c206661696c6564a264697066735822122015aab6df1ab05ef4713709ed52431e55b688e35734d1c675e48b7ce7a5b5d4c964736f6c63430008090033",
  "linkReferences": {},
  "deployedLinkReferences": {}
}