{
  "_format": "hh-sol-artifact-1",
  "contractName": "HeroInfinityNFT",
  "sourceName": "contracts/HeroInfinityNFT.sol",
  "abi": [
    {
      "inputs": [
        {
          "internalType": "address",
          "name": "_pool",
          "type": "address"
        }
      ],
      "stateMutability": "nonpayable",
      "type": "constructor"
    },
    {
      "anonymous": false,
      "inputs": [
        {
          "indexed": true,
          "internalType": "address",
          "name": "owner",
          "type": "address"
        },
        {
          "indexed": true,
          "internalType": "address",
          "name": "approved",
          "type": "address"
        },
        {
          "indexed": true,
          "internalType": "uint256",
          "name": "tokenId",
          "type": "uint256"
        }
      ],
      "name": "Approval",
      "type": "event"
    },
    {
      "anonymous": false,
      "inputs": [
        {
          "indexed": true,
          "internalType": "address",
          "name": "owner",
          "type": "address"
        },
        {
          "indexed": true,
          "internalType": "address",
          "name": "operator",
          "type": "address"
        },
        {
          "indexed": false,
          "internalType": "bool",
          "name": "approved",
          "type": "bool"
        }
      ],
      "name": "ApprovalForAll",
      "type": "event"
    },
    {
      "anonymous": false,
      "inputs": [
        {
          "indexed": true,
          "internalType": "address",
          "name": "previousOwner",
          "type": "address"
        },
        {
          "indexed": true,
          "internalType": "address",
          "name": "newOwner",
          "type": "address"
        }
      ],
      "name": "OwnershipTransferred",
      "type": "event"
    },
    {
      "anonymous": false,
      "inputs": [
        {
          "indexed": true,
          "internalType": "address",
          "name": "from",
          "type": "address"
        },
        {
          "indexed": true,
          "internalType": "address",
          "name": "to",
          "type": "address"
        },
        {
          "indexed": true,
          "internalType": "uint256",
          "name": "tokenId",
          "type": "uint256"
        }
      ],
      "name": "Transfer",
      "type": "event"
    },
    {
      "inputs": [],
      "name": "HIGHEST_PUBLIC",
      "outputs": [
        {
          "internalType": "uint256",
          "name": "",
          "type": "uint256"
        }
      ],
      "stateMutability": "view",
      "type": "function"
    },
    {
      "inputs": [],
      "name": "HIGHEST_TEAM",
      "outputs": [
        {
          "internalType": "uint256",
          "name": "",
          "type": "uint256"
        }
      ],
      "stateMutability": "view",
      "type": "function"
    },
    {
      "inputs": [],
      "name": "MAX_PER_WALLET",
      "outputs": [
        {
          "internalType": "uint256",
          "name": "",
          "type": "uint256"
        }
      ],
      "stateMutability": "view",
      "type": "function"
    },
    {
      "inputs": [
        {
          "internalType": "address",
          "name": "to",
          "type": "address"
        },
        {
          "internalType": "uint256",
          "name": "tokenId",
          "type": "uint256"
        }
      ],
      "name": "approve",
      "outputs": [],
      "stateMutability": "nonpayable",
      "type": "function"
    },
    {
      "inputs": [
        {
          "internalType": "address",
          "name": "owner",
          "type": "address"
        }
      ],
      "name": "balanceOf",
      "outputs": [
        {
          "internalType": "uint256",
          "name": "",
          "type": "uint256"
        }
      ],
      "stateMutability": "view",
      "type": "function"
    },
    {
      "inputs": [
        {
          "internalType": "uint256",
          "name": "tokenId",
          "type": "uint256"
        }
      ],
      "name": "getApproved",
      "outputs": [
        {
          "internalType": "address",
          "name": "",
          "type": "address"
        }
      ],
      "stateMutability": "view",
      "type": "function"
    },
    {
      "inputs": [
        {
          "internalType": "address",
          "name": "owner",
          "type": "address"
        },
        {
          "internalType": "address",
          "name": "operator",
          "type": "address"
        }
      ],
      "name": "isApprovedForAll",
      "outputs": [
        {
          "internalType": "bool",
          "name": "",
          "type": "bool"
        }
      ],
      "stateMutability": "view",
      "type": "function"
    },
    {
      "inputs": [],
      "name": "isMintOpen",
      "outputs": [
        {
          "internalType": "bool",
          "name": "",
          "type": "bool"
        }
      ],
      "stateMutability": "view",
      "type": "function"
    },
    {
      "inputs": [],
      "name": "isSaleOpen",
      "outputs": [
        {
          "internalType": "bool",
          "name": "",
          "type": "bool"
        }
      ],
      "stateMutability": "view",
      "type": "function"
    },
    {
      "inputs": [
        {
          "internalType": "uint256",
          "name": "amount",
          "type": "uint256"
        }
      ],
      "name": "mint",
      "outputs": [],
      "stateMutability": "payable",
      "type": "function"
    },
    {
      "inputs": [],
      "name": "mintEndTimestamp",
      "outputs": [
        {
          "internalType": "uint256",
          "name": "",
          "type": "uint256"
        }
      ],
      "stateMutability": "view",
      "type": "function"
    },
    {
      "inputs": [],
      "name": "mintStartTimestamp",
      "outputs": [
        {
          "internalType": "uint256",
          "name": "",
          "type": "uint256"
        }
      ],
      "stateMutability": "view",
      "type": "function"
    },
    {
      "inputs": [
        {
          "internalType": "uint256",
          "name": "amount",
          "type": "uint256"
        }
      ],
      "name": "mintTeam",
      "outputs": [],
      "stateMutability": "nonpayable",
      "type": "function"
    },
    {
      "inputs": [
        {
          "internalType": "address",
          "name": "",
          "type": "address"
        }
      ],
      "name": "mintedAmount",
      "outputs": [
        {
          "internalType": "uint256",
          "name": "",
          "type": "uint256"
        }
      ],
      "stateMutability": "view",
      "type": "function"
    },
    {
      "inputs": [],
      "name": "name",
      "outputs": [
        {
          "internalType": "string",
          "name": "",
          "type": "string"
        }
      ],
      "stateMutability": "view",
      "type": "function"
    },
    {
      "inputs": [],
      "name": "nodePool",
      "outputs": [
        {
          "internalType": "address",
          "name": "",
          "type": "address"
        }
      ],
      "stateMutability": "view",
      "type": "function"
    },
    {
      "inputs": [],
      "name": "owner",
      "outputs": [
        {
          "internalType": "address",
          "name": "",
          "type": "address"
        }
      ],
      "stateMutability": "view",
      "type": "function"
    },
    {
      "inputs": [
        {
          "internalType": "uint256",
          "name": "tokenId",
          "type": "uint256"
        }
      ],
      "name": "ownerOf",
      "outputs": [
        {
          "internalType": "address",
          "name": "",
          "type": "address"
        }
      ],
      "stateMutability": "view",
      "type": "function"
    },
    {
      "inputs": [],
      "name": "publicMintPrice",
      "outputs": [
        {
          "internalType": "uint256",
          "name": "",
          "type": "uint256"
        }
      ],
      "stateMutability": "view",
      "type": "function"
    },
    {
      "inputs": [],
      "name": "renounceOwnership",
      "outputs": [],
      "stateMutability": "nonpayable",
      "type": "function"
    },
    {
      "inputs": [
        {
          "internalType": "address",
          "name": "from",
          "type": "address"
        },
        {
          "internalType": "address",
          "name": "to",
          "type": "address"
        },
        {
          "internalType": "uint256",
          "name": "tokenId",
          "type": "uint256"
        }
      ],
      "name": "safeTransferFrom",
      "outputs": [],
      "stateMutability": "nonpayable",
      "type": "function"
    },
    {
      "inputs": [
        {
          "internalType": "address",
          "name": "from",
          "type": "address"
        },
        {
          "internalType": "address",
          "name": "to",
          "type": "address"
        },
        {
          "internalType": "uint256",
          "name": "tokenId",
          "type": "uint256"
        },
        {
          "internalType": "bytes",
          "name": "_data",
          "type": "bytes"
        }
      ],
      "name": "safeTransferFrom",
      "outputs": [],
      "stateMutability": "nonpayable",
      "type": "function"
    },
    {
      "inputs": [
        {
          "internalType": "uint256",
          "name": "amount",
          "type": "uint256"
        }
      ],
      "name": "sale",
      "outputs": [],
      "stateMutability": "payable",
      "type": "function"
    },
    {
      "inputs": [],
      "name": "saleMintPrice",
      "outputs": [
        {
          "internalType": "uint256",
          "name": "",
          "type": "uint256"
        }
      ],
      "stateMutability": "view",
      "type": "function"
    },
    {
      "inputs": [
        {
          "internalType": "address",
          "name": "operator",
          "type": "address"
        },
        {
          "internalType": "bool",
          "name": "approved",
          "type": "bool"
        }
      ],
      "name": "setApprovalForAll",
      "outputs": [],
      "stateMutability": "nonpayable",
      "type": "function"
    },
    {
      "inputs": [
        {
          "internalType": "string",
          "name": "uri",
          "type": "string"
        }
      ],
      "name": "setBaseURI",
      "outputs": [],
      "stateMutability": "nonpayable",
      "type": "function"
    },
    {
      "inputs": [
        {
          "internalType": "uint256",
          "name": "_whitelist",
          "type": "uint256"
        },
        {
          "internalType": "uint256",
          "name": "_public",
          "type": "uint256"
        },
        {
          "internalType": "uint256",
          "name": "_sale",
          "type": "uint256"
        }
      ],
      "name": "setMintPrice",
      "outputs": [],
      "stateMutability": "nonpayable",
      "type": "function"
    },
    {
      "inputs": [
        {
          "internalType": "bool",
          "name": "_open",
          "type": "bool"
        }
      ],
      "name": "setReserved",
      "outputs": [],
      "stateMutability": "nonpayable",
      "type": "function"
    },
    {
      "inputs": [
        {
          "internalType": "bool",
          "name": "_open",
          "type": "bool"
        }
      ],
      "name": "setSaleOpen",
      "outputs": [],
      "stateMutability": "nonpayable",
      "type": "function"
    },
    {
      "inputs": [
        {
          "internalType": "uint256",
          "name": "_mintStartTimestamp",
          "type": "uint256"
        },
        {
          "internalType": "uint256",
          "name": "_mintEndTimestamp",
          "type": "uint256"
        }
      ],
      "name": "setTimestamps",
      "outputs": [],
      "stateMutability": "nonpayable",
      "type": "function"
    },
    {
      "inputs": [
        {
          "internalType": "bytes4",
          "name": "interfaceId",
          "type": "bytes4"
        }
      ],
      "name": "supportsInterface",
      "outputs": [
        {
          "internalType": "bool",
          "name": "",
          "type": "bool"
        }
      ],
      "stateMutability": "view",
      "type": "function"
    },
    {
      "inputs": [],
      "name": "symbol",
      "outputs": [
        {
          "internalType": "string",
          "name": "",
          "type": "string"
        }
      ],
      "stateMutability": "view",
      "type": "function"
    },
    {
      "inputs": [
        {
          "internalType": "uint256",
          "name": "amount",
          "type": "uint256"
        }
      ],
      "name": "testMint",
      "outputs": [],
      "stateMutability": "nonpayable",
      "type": "function"
    },
    {
      "inputs": [
        {
          "internalType": "uint256",
          "name": "index",
          "type": "uint256"
        }
      ],
      "name": "tokenByIndex",
      "outputs": [
        {
          "internalType": "uint256",
          "name": "",
          "type": "uint256"
        }
      ],
      "stateMutability": "view",
      "type": "function"
    },
    {
      "inputs": [
        {
          "internalType": "address",
          "name": "owner",
          "type": "address"
        },
        {
          "internalType": "uint256",
          "name": "index",
          "type": "uint256"
        }
      ],
      "name": "tokenOfOwnerByIndex",
      "outputs": [
        {
          "internalType": "uint256",
          "name": "",
          "type": "uint256"
        }
      ],
      "stateMutability": "view",
      "type": "function"
    },
    {
      "inputs": [
        {
          "internalType": "uint256",
          "name": "tokenId",
          "type": "uint256"
        }
      ],
      "name": "tokenURI",
      "outputs": [
        {
          "internalType": "string",
          "name": "",
          "type": "string"
        }
      ],
      "stateMutability": "view",
      "type": "function"
    },
    {
      "inputs": [],
      "name": "totalSupply",
      "outputs": [
        {
          "internalType": "uint256",
          "name": "",
          "type": "uint256"
        }
      ],
      "stateMutability": "view",
      "type": "function"
    },
    {
      "inputs": [
        {
          "internalType": "address",
          "name": "from",
          "type": "address"
        },
        {
          "internalType": "address",
          "name": "to",
          "type": "address"
        },
        {
          "internalType": "uint256",
          "name": "tokenId",
          "type": "uint256"
        }
      ],
      "name": "transferFrom",
      "outputs": [],
      "stateMutability": "nonpayable",
      "type": "function"
    },
    {
      "inputs": [
        {
          "internalType": "address",
          "name": "newOwner",
          "type": "address"
        }
      ],
      "name": "transferOwnership",
      "outputs": [],
      "stateMutability": "nonpayable",
      "type": "function"
    },
    {
      "inputs": [],
      "name": "whitelistMintPrice",
      "outputs": [
        {
          "internalType": "uint256",
          "name": "",
          "type": "uint256"
        }
      ],
      "stateMutability": "view",
      "type": "function"
    },
    {
      "inputs": [],
      "name": "withdrawETH",
      "outputs": [],
      "stateMutability": "nonpayable",
      "type": "function"
    }
  ],
  "bytecode": "0x60806040526608e1bc9bf04000600d55660c6f3b40b6c000600e55660e35fa931a0000600f556000601260006101000a81548160ff0219169083151502179055506000601260016101000a81548160ff0219169083151502179055506000601355601d6014553480156200007257600080fd5b5060405162004d0a38038062004d0a833981810160405281019062000098919062000388565b6040518060400160405280601381526020017f4865726f20496e66696e697479204361726473000000000000000000000000008152506040518060400160405280600481526020017f485249430000000000000000000000000000000000000000000000000000000081525081600090805190602001906200011c9291906200026e565b508060019080519060200190620001359291906200026e565b505050620001586200014c620001a060201b60201c565b620001a860201b60201c565b80600c60006101000a81548173ffffffffffffffffffffffffffffffffffffffff021916908373ffffffffffffffffffffffffffffffffffffffff160217905550506200041f565b600033905090565b6000600a60009054906101000a900473ffffffffffffffffffffffffffffffffffffffff16905081600a60006101000a81548173ffffffffffffffffffffffffffffffffffffffff021916908373ffffffffffffffffffffffffffffffffffffffff1602179055508173ffffffffffffffffffffffffffffffffffffffff168173ffffffffffffffffffffffffffffffffffffffff167f8be0079c531659141344cd1fd0a4f28419497f9722a3daafe3b4186f6b6457e060405160405180910390a35050565b8280546200027c90620003e9565b90600052602060002090601f016020900481019282620002a05760008555620002ec565b82601f10620002bb57805160ff1916838001178555620002ec565b82800160010185558215620002ec579182015b82811115620002eb578251825591602001919060010190620002ce565b5b509050620002fb9190620002ff565b5090565b5b808211156200031a57600081600090555060010162000300565b5090565b600080fd5b600073ffffffffffffffffffffffffffffffffffffffff82169050919050565b6000620003508262000323565b9050919050565b620003628162000343565b81146200036e57600080fd5b50565b600081519050620003828162000357565b92915050565b600060208284031215620003a157620003a06200031e565b5b6000620003b18482850162000371565b91505092915050565b7f4e487b7100000000000000000000000000000000000000000000000000000000600052602260045260246000fd5b600060028204905060018216806200040257607f821691505b60208210811415620004195762000418620003ba565b5b50919050565b6148db806200042f6000396000f3fe6080604052600436106102465760003560e01c8063715018a611610139578063af979f25116100b6578063dc53fd921161007a578063dc53fd9214610862578063e086e5ec1461088d578063e985e9c5146108a4578063f2fde38b146108e1578063fa1019771461090a578063fbbf8cc31461093357610246565b8063af979f251461077d578063b88d4fde146107a6578063c87b56dd146107cf578063cc6ac2f51461080c578063d8f1f8f41461083757610246565b80639be9c50d116100fd5780639be9c50d146106b75780639c14a884146106e2578063a0712d681461070d578063a0e389de14610729578063a22cb4651461075457610246565b8063715018a6146106035780637307b3d91461061a5780638da5cb5b1461064557806395d89b4114610670578063960327021461069b57610246565b80632f3f94ae116101c757806342842e0e1161018b57806342842e0e146104fa5780634f6ccce71461052357806355f804b3146105605780636352211e1461058957806370a08231146105c657610246565b80632f3f94ae146104175780632f745c5914610440578063319948ba1461047d578063342f48aa146104a657806335c6aaf8146104cf57610246565b806318160ddd1161020e57806318160ddd14610344578063199080161461036f5780631a0813301461039a57806323b872dd146103c55780632eb7c7e3146103ee57610246565b806301ffc9a71461024b57806306fdde0314610288578063081812fc146102b3578063095ea7b3146102f05780630f2cdd6c14610319575b600080fd5b34801561025757600080fd5b50610272600480360381019061026d9190613052565b610970565b60405161027f919061309a565b60405180910390f35b34801561029457600080fd5b5061029d6109ea565b6040516102aa919061314e565b60405180910390f35b3480156102bf57600080fd5b506102da60048036038101906102d591906131a6565b610a7c565b6040516102e79190613214565b60405180910390f35b3480156102fc57600080fd5b506103176004803603810190610312919061325b565b610b01565b005b34801561032557600080fd5b5061032e610c19565b60405161033b91906132aa565b60405180910390f35b34801561035057600080fd5b50610359610c1e565b60405161036691906132aa565b60405180910390f35b34801561037b57600080fd5b50610384610c2b565b604051610391919061309a565b60405180910390f35b3480156103a657600080fd5b506103af610c63565b6040516103bc919061309a565b60405180910390f35b3480156103d157600080fd5b506103ec60048036038101906103e791906132c5565b610c7a565b005b3480156103fa57600080fd5b5061041560048036038101906104109190613344565b610cda565b005b34801561042357600080fd5b5061043e600480360381019061043991906131a6565b610d73565b005b34801561044c57600080fd5b506104676004803603810190610462919061325b565b610db2565b60405161047491906132aa565b60405180910390f35b34801561048957600080fd5b506104a4600480360381019061049f9190613371565b610e57565b005b3480156104b257600080fd5b506104cd60048036038101906104c891906131a6565b610eed565b005b3480156104db57600080fd5b506104e4611054565b6040516104f191906132aa565b60405180910390f35b34801561050657600080fd5b50610521600480360381019061051c91906132c5565b61105a565b005b34801561052f57600080fd5b5061054a600480360381019061054591906131a6565b61107a565b60405161055791906132aa565b60405180910390f35b34801561056c57600080fd5b50610587600480360381019061058291906134f9565b6110eb565b005b34801561059557600080fd5b506105b060048036038101906105ab91906131a6565b611181565b6040516105bd9190613214565b60405180910390f35b3480156105d257600080fd5b506105ed60048036038101906105e89190613542565b611233565b6040516105fa91906132aa565b60405180910390f35b34801561060f57600080fd5b506106186112eb565b005b34801561062657600080fd5b5061062f611373565b60405161063c91906132aa565b60405180910390f35b34801561065157600080fd5b5061065a611379565b6040516106679190613214565b60405180910390f35b34801561067c57600080fd5b506106856113a3565b604051610692919061314e565b60405180910390f35b6106b560048036038101906106b091906131a6565b611435565b005b3480156106c357600080fd5b506106cc611520565b6040516106d991906132aa565b60405180910390f35b3480156106ee57600080fd5b506106f7611526565b60405161070491906132aa565b60405180910390f35b610727600480360381019061072291906131a6565b61152b565b005b34801561073557600080fd5b5061073e61157f565b60405161074b91906132aa565b60405180910390f35b34801561076057600080fd5b5061077b6004803603810190610776919061356f565b611585565b005b34801561078957600080fd5b506107a4600480360381019061079f9190613344565b61159b565b005b3480156107b257600080fd5b506107cd60048036038101906107c89190613650565b611634565b005b3480156107db57600080fd5b506107f660048036038101906107f191906131a6565b611696565b604051610803919061314e565b60405180910390f35b34801561081857600080fd5b50610821611749565b60405161082e91906132aa565b60405180910390f35b34801561084357600080fd5b5061084c61174f565b6040516108599190613214565b60405180910390f35b34801561086e57600080fd5b50610877611775565b60405161088491906132aa565b60405180910390f35b34801561089957600080fd5b506108a261177b565b005b3480156108b057600080fd5b506108cb60048036038101906108c691906136d3565b611840565b6040516108d8919061309a565b60405180910390f35b3480156108ed57600080fd5b5061090860048036038101906109039190613542565b6118d4565b005b34801561091657600080fd5b50610931600480360381019061092c9190613713565b6119cc565b005b34801561093f57600080fd5b5061095a60048036038101906109559190613542565b611aa7565b60405161096791906132aa565b60405180910390f35b60007f780e9d63000000000000000000000000000000000000000000000000000000007bffffffffffffffffffffffffffffffffffffffffffffffffffffffff1916827bffffffffffffffffffffffffffffffffffffffffffffffffffffffff191614806109e357506109e282611abf565b5b9050919050565b6060600080546109f990613782565b80601f0160208091040260200160405190810160405280929190818152602001828054610a2590613782565b8015610a725780601f10610a4757610100808354040283529160200191610a72565b820191906000526020600020905b815481529060010190602001808311610a5557829003601f168201915b5050505050905090565b6000610a8782611ba1565b610ac6576040517f08c379a0000000000000000000000000000000000000000000000000000000008152600401610abd90613826565b60405180910390fd5b6004600083815260200190815260200160002060009054906101000a900473ffffffffffffffffffffffffffffffffffffffff169050919050565b6000610b0c82611181565b90508073ffffffffffffffffffffffffffffffffffffffff168373ffffffffffffffffffffffffffffffffffffffff161415610b7d576040517f08c379a0000000000000000000000000000000000000000000000000000000008152600401610b74906138b8565b60405180910390fd5b8073ffffffffffffffffffffffffffffffffffffffff16610b9c611c0d565b73ffffffffffffffffffffffffffffffffffffffff161480610bcb5750610bca81610bc5611c0d565b611840565b5b610c0a576040517f08c379a0000000000000000000000000000000000000000000000000000000008152600401610c019061394a565b60405180910390fd5b610c148383611c15565b505050565b600581565b6000600880549050905090565b600080601054118015610c4057506010544210155b8015610c4e57506011544211155b8015610c5e575061043660145411155b905090565b6000601260009054906101000a900460ff16905090565b610c8b610c85611c0d565b82611cce565b610cca576040517f08c379a0000000000000000000000000000000000000000000000000000000008152600401610cc1906139dc565b60405180910390fd5b610cd5838383611dac565b505050565b610ce2611c0d565b73ffffffffffffffffffffffffffffffffffffffff16610d00611379565b73ffffffffffffffffffffffffffffffffffffffff1614610d56576040517f08c379a0000000000000000000000000000000000000000000000000000000008152600401610d4d90613a48565b60405180910390fd5b80601260016101000a81548160ff02191690831515021790555050565b60005b81811015610dae57610d88600b612008565b610d9b33610d96600b61201e565b61202c565b8080610da690613a97565b915050610d76565b5050565b6000610dbd83611233565b8210610dfe576040517f08c379a0000000000000000000000000000000000000000000000000000000008152600401610df590613b52565b60405180910390fd5b600660008473ffffffffffffffffffffffffffffffffffffffff1673ffffffffffffffffffffffffffffffffffffffff168152602001908152602001600020600083815260200190815260200160002054905092915050565b610e5f611c0d565b73ffffffffffffffffffffffffffffffffffffffff16610e7d611379565b73ffffffffffffffffffffffffffffffffffffffff1614610ed3576040517f08c379a0000000000000000000000000000000000000000000000000000000008152600401610eca90613a48565b60405180910390fd5b82600d8190555081600e8190555080600f81905550505050565b610ef5611c0d565b73ffffffffffffffffffffffffffffffffffffffff16610f13611379565b73ffffffffffffffffffffffffffffffffffffffff1614610f69576040517f08c379a0000000000000000000000000000000000000000000000000000000008152600401610f6090613a48565b60405180910390fd5b6000811415610fad576040517f08c379a0000000000000000000000000000000000000000000000000000000008152600401610fa490613bbe565b60405180910390fd5b6000601354905060008282610fc29190613bde565b9050601c600182610fd39190613c34565b1115611014576040517f08c379a000000000000000000000000000000000000000000000000000000000815260040161100b90613cb4565b60405180910390fd5b8060138190555060005b8381101561104e5761103b3382856110369190613bde565b61204a565b808061104690613a97565b91505061101e565b50505050565b600d5481565b61107583838360405180602001604052806000815250611634565b505050565b6000611084610c1e565b82106110c5576040517f08c379a00000000000000000000000000000000000000000000000000000000081526004016110bc90613d46565b60405180910390fd5b600882815481106110d9576110d8613d66565b5b90600052602060002001549050919050565b6110f3611c0d565b73ffffffffffffffffffffffffffffffffffffffff16611111611379565b73ffffffffffffffffffffffffffffffffffffffff1614611167576040517f08c379a000000000000000000000000000000000000000000000000000000000815260040161115e90613a48565b60405180910390fd5b806015908051906020019061117d929190612f43565b5050565b6000806002600084815260200190815260200160002060009054906101000a900473ffffffffffffffffffffffffffffffffffffffff169050600073ffffffffffffffffffffffffffffffffffffffff168173ffffffffffffffffffffffffffffffffffffffff16141561122a576040517f08c379a000000000000000000000000000000000000000000000000000000000815260040161122190613e07565b60405180910390fd5b80915050919050565b60008073ffffffffffffffffffffffffffffffffffffffff168273ffffffffffffffffffffffffffffffffffffffff1614156112a4576040517f08c379a000000000000000000000000000000000000000000000000000000000815260040161129b90613e99565b60405180910390fd5b600360008373ffffffffffffffffffffffffffffffffffffffff1673ffffffffffffffffffffffffffffffffffffffff168152602001908152602001600020549050919050565b6112f3611c0d565b73ffffffffffffffffffffffffffffffffffffffff16611311611379565b73ffffffffffffffffffffffffffffffffffffffff1614611367576040517f08c379a000000000000000000000000000000000000000000000000000000000815260040161135e90613a48565b60405180910390fd5b6113716000612218565b565b61043681565b6000600a60009054906101000a900473ffffffffffffffffffffffffffffffffffffffff16905090565b6060600180546113b290613782565b80601f01602080910402602001604051908101604052809291908181526020018280546113de90613782565b801561142b5780601f106114005761010080835404028352916020019161142b565b820191906000526020600020905b81548152906001019060200180831161140e57829003601f168201915b5050505050905090565b601260009054906101000a900460ff16611484576040517f08c379a000000000000000000000000000000000000000000000000000000000815260040161147b90613f05565b60405180910390fd5b34600f54826114939190613f25565b146114d3576040517f08c379a00000000000000000000000000000000000000000000000000000000081526004016114ca90613fcb565b60405180910390fd5b60005b81811015611508576114f533826014546114f09190613bde565b61202c565b808061150090613a97565b9150506114d6565b50806014546115179190613bde565b60148190555050565b600f5481565b601c81565b611533610c2b565b611572576040517f08c379a000000000000000000000000000000000000000000000000000000000815260040161156990614037565b60405180910390fd5b61157c33826122de565b50565b60105481565b611597611590611c0d565b83836124f9565b5050565b6115a3611c0d565b73ffffffffffffffffffffffffffffffffffffffff166115c1611379565b73ffffffffffffffffffffffffffffffffffffffff1614611617576040517f08c379a000000000000000000000000000000000000000000000000000000000815260040161160e90613a48565b60405180910390fd5b80601260006101000a81548160ff02191690831515021790555050565b61164561163f611c0d565b83611cce565b611684576040517f08c379a000000000000000000000000000000000000000000000000000000000815260040161167b906139dc565b60405180910390fd5b61169084848484612666565b50505050565b60606116a182611ba1565b6116e0576040517f08c379a00000000000000000000000000000000000000000000000000000000081526004016116d7906140c9565b60405180910390fd5b60006116ea6126c2565b9050601260019054906101000a900460ff1615611730578061170b84612754565b60405160200161171c929190614171565b604051602081830303815290604052611741565b604051806020016040528060008152505b915050919050565b60115481565b600c60009054906101000a900473ffffffffffffffffffffffffffffffffffffffff1681565b600e5481565b611783611c0d565b73ffffffffffffffffffffffffffffffffffffffff166117a1611379565b73ffffffffffffffffffffffffffffffffffffffff16146117f7576040517f08c379a00000000000000000000000000000000000000000000000000000000081526004016117ee90613a48565b60405180910390fd5b3373ffffffffffffffffffffffffffffffffffffffff166108fc479081150290604051600060405180830381858888f1935050505015801561183d573d6000803e3d6000fd5b50565b6000600560008473ffffffffffffffffffffffffffffffffffffffff1673ffffffffffffffffffffffffffffffffffffffff16815260200190815260200160002060008373ffffffffffffffffffffffffffffffffffffffff1673ffffffffffffffffffffffffffffffffffffffff16815260200190815260200160002060009054906101000a900460ff16905092915050565b6118dc611c0d565b73ffffffffffffffffffffffffffffffffffffffff166118fa611379565b73ffffffffffffffffffffffffffffffffffffffff1614611950576040517f08c379a000000000000000000000000000000000000000000000000000000000815260040161194790613a48565b60405180910390fd5b600073ffffffffffffffffffffffffffffffffffffffff168173ffffffffffffffffffffffffffffffffffffffff1614156119c0576040517f08c379a00000000000000000000000000000000000000000000000000000000081526004016119b790614212565b60405180910390fd5b6119c981612218565b50565b6119d4611c0d565b73ffffffffffffffffffffffffffffffffffffffff166119f2611379565b73ffffffffffffffffffffffffffffffffffffffff1614611a48576040517f08c379a0000000000000000000000000000000000000000000000000000000008152600401611a3f90613a48565b60405180910390fd5b8181118015611a5657504282115b611a95576040517f08c379a0000000000000000000000000000000000000000000000000000000008152600401611a8c9061427e565b60405180910390fd5b81601081905550806011819055505050565b60166020528060005260406000206000915090505481565b60007f80ac58cd000000000000000000000000000000000000000000000000000000007bffffffffffffffffffffffffffffffffffffffffffffffffffffffff1916827bffffffffffffffffffffffffffffffffffffffffffffffffffffffff19161480611b8a57507f5b5e139f000000000000000000000000000000000000000000000000000000007bffffffffffffffffffffffffffffffffffffffffffffffffffffffff1916827bffffffffffffffffffffffffffffffffffffffffffffffffffffffff1916145b80611b9a5750611b99826128b5565b5b9050919050565b60008073ffffffffffffffffffffffffffffffffffffffff166002600084815260200190815260200160002060009054906101000a900473ffffffffffffffffffffffffffffffffffffffff1673ffffffffffffffffffffffffffffffffffffffff1614159050919050565b600033905090565b816004600083815260200190815260200160002060006101000a81548173ffffffffffffffffffffffffffffffffffffffff021916908373ffffffffffffffffffffffffffffffffffffffff160217905550808273ffffffffffffffffffffffffffffffffffffffff16611c8883611181565b73ffffffffffffffffffffffffffffffffffffffff167f8c5be1e5ebec7d5bd14f71427d1e84f3dd0314c0f7b2291e5b200ac8c7c3b92560405160405180910390a45050565b6000611cd982611ba1565b611d18576040517f08c379a0000000000000000000000000000000000000000000000000000000008152600401611d0f90614310565b60405180910390fd5b6000611d2383611181565b90508073ffffffffffffffffffffffffffffffffffffffff168473ffffffffffffffffffffffffffffffffffffffff161480611d9257508373ffffffffffffffffffffffffffffffffffffffff16611d7a84610a7c565b73ffffffffffffffffffffffffffffffffffffffff16145b80611da35750611da28185611840565b5b91505092915050565b8273ffffffffffffffffffffffffffffffffffffffff16611dcc82611181565b73ffffffffffffffffffffffffffffffffffffffff1614611e22576040517f08c379a0000000000000000000000000000000000000000000000000000000008152600401611e19906143a2565b60405180910390fd5b600073ffffffffffffffffffffffffffffffffffffffff168273ffffffffffffffffffffffffffffffffffffffff161415611e92576040517f08c379a0000000000000000000000000000000000000000000000000000000008152600401611e8990614434565b60405180910390fd5b611e9d83838361291f565b611ea8600082611c15565b6001600360008573ffffffffffffffffffffffffffffffffffffffff1673ffffffffffffffffffffffffffffffffffffffff1681526020019081526020016000206000828254611ef89190613c34565b925050819055506001600360008473ffffffffffffffffffffffffffffffffffffffff1673ffffffffffffffffffffffffffffffffffffffff1681526020019081526020016000206000828254611f4f9190613bde565b92505081905550816002600083815260200190815260200160002060006101000a81548173ffffffffffffffffffffffffffffffffffffffff021916908373ffffffffffffffffffffffffffffffffffffffff160217905550808273ffffffffffffffffffffffffffffffffffffffff168473ffffffffffffffffffffffffffffffffffffffff167fddf252ad1be2c89b69c2b068fc378daa952ba7f163c4a11628f55a4df523b3ef60405160405180910390a4505050565b6001816000016000828254019250508190555050565b600081600001549050919050565b612046828260405180602001604052806000815250612a33565b5050565b600073ffffffffffffffffffffffffffffffffffffffff168273ffffffffffffffffffffffffffffffffffffffff1614156120ba576040517f08c379a00000000000000000000000000000000000000000000000000000000081526004016120b1906144a0565b60405180910390fd5b6120c381611ba1565b15612103576040517f08c379a00000000000000000000000000000000000000000000000000000000081526004016120fa9061450c565b60405180910390fd5b61210f6000838361291f565b6001600360008473ffffffffffffffffffffffffffffffffffffffff1673ffffffffffffffffffffffffffffffffffffffff168152602001908152602001600020600082825461215f9190613bde565b92505081905550816002600083815260200190815260200160002060006101000a81548173ffffffffffffffffffffffffffffffffffffffff021916908373ffffffffffffffffffffffffffffffffffffffff160217905550808273ffffffffffffffffffffffffffffffffffffffff16600073ffffffffffffffffffffffffffffffffffffffff167fddf252ad1be2c89b69c2b068fc378daa952ba7f163c4a11628f55a4df523b3ef60405160405180910390a45050565b6000600a60009054906101000a900473ffffffffffffffffffffffffffffffffffffffff16905081600a60006101000a81548173ffffffffffffffffffffffffffffffffffffffff021916908373ffffffffffffffffffffffffffffffffffffffff1602179055508173ffffffffffffffffffffffffffffffffffffffff168173ffffffffffffffffffffffffffffffffffffffff167f8be0079c531659141344cd1fd0a4f28419497f9722a3daafe3b4186f6b6457e060405160405180910390a35050565b6000811415612322576040517f08c379a000000000000000000000000000000000000000000000000000000000815260040161231990613bbe565b60405180910390fd5b600081601660008573ffffffffffffffffffffffffffffffffffffffff1673ffffffffffffffffffffffffffffffffffffffff1681526020019081526020016000205461236f9190613bde565b905060058111156123b5576040517f08c379a00000000000000000000000000000000000000000000000000000000081526004016123ac90614578565b60405180910390fd5b60006014549050600083826123ca9190613bde565b90506104366001826123dc9190613c34565b111561241d576040517f08c379a0000000000000000000000000000000000000000000000000000000008152600401612414906145e4565b60405180910390fd5b6000600e5490503481866124319190613f25565b1115612472576040517f08c379a000000000000000000000000000000000000000000000000000000000815260040161246990613fcb565b60405180910390fd5b8160148190555083601660008873ffffffffffffffffffffffffffffffffffffffff1673ffffffffffffffffffffffffffffffffffffffff1681526020019081526020016000208190555060005b858110156124f0576124dd8782866124d89190613bde565b61202c565b80806124e890613a97565b9150506124c0565b50505050505050565b8173ffffffffffffffffffffffffffffffffffffffff168373ffffffffffffffffffffffffffffffffffffffff161415612568576040517f08c379a000000000000000000000000000000000000000000000000000000000815260040161255f90614650565b60405180910390fd5b80600560008573ffffffffffffffffffffffffffffffffffffffff1673ffffffffffffffffffffffffffffffffffffffff16815260200190815260200160002060008473ffffffffffffffffffffffffffffffffffffffff1673ffffffffffffffffffffffffffffffffffffffff16815260200190815260200160002060006101000a81548160ff0219169083151502179055508173ffffffffffffffffffffffffffffffffffffffff168373ffffffffffffffffffffffffffffffffffffffff167f17307eab39ab6107e8899845ad3d59bd9653f200f220920489ca2b5937696c3183604051612659919061309a565b60405180910390a3505050565b612671848484611dac565b61267d84848484612a8e565b6126bc576040517f08c379a00000000000000000000000000000000000000000000000000000000081526004016126b3906146e2565b60405180910390fd5b50505050565b6060601580546126d190613782565b80601f01602080910402602001604051908101604052809291908181526020018280546126fd90613782565b801561274a5780601f1061271f5761010080835404028352916020019161274a565b820191906000526020600020905b81548152906001019060200180831161272d57829003601f168201915b5050505050905090565b6060600082141561279c576040518060400160405280600181526020017f300000000000000000000000000000000000000000000000000000000000000081525090506128b0565b600082905060005b600082146127ce5780806127b790613a97565b915050600a826127c79190614731565b91506127a4565b60008167ffffffffffffffff8111156127ea576127e96133ce565b5b6040519080825280601f01601f19166020018201604052801561281c5781602001600182028036833780820191505090505b5090505b600085146128a9576001826128359190613c34565b9150600a856128449190614762565b60306128509190613bde565b60f81b81838151811061286657612865613d66565b5b60200101907effffffffffffffffffffffffffffffffffffffffffffffffffffffffffffff1916908160001a905350600a856128a29190614731565b9450612820565b8093505050505b919050565b60007f01ffc9a7000000000000000000000000000000000000000000000000000000007bffffffffffffffffffffffffffffffffffffffffffffffffffffffff1916827bffffffffffffffffffffffffffffffffffffffffffffffffffffffff1916149050919050565b61292a838383612c25565b600073ffffffffffffffffffffffffffffffffffffffff168373ffffffffffffffffffffffffffffffffffffffff16141561296d5761296881612c2a565b6129ac565b8173ffffffffffffffffffffffffffffffffffffffff168373ffffffffffffffffffffffffffffffffffffffff16146129ab576129aa8382612c73565b5b5b600073ffffffffffffffffffffffffffffffffffffffff168273ffffffffffffffffffffffffffffffffffffffff1614156129ef576129ea81612de0565b612a2e565b8273ffffffffffffffffffffffffffffffffffffffff168273ffffffffffffffffffffffffffffffffffffffff1614612a2d57612a2c8282612eb1565b5b5b505050565b612a3d838361204a565b612a4a6000848484612a8e565b612a89576040517f08c379a0000000000000000000000000000000000000000000000000000000008152600401612a80906146e2565b60405180910390fd5b505050565b6000612aaf8473ffffffffffffffffffffffffffffffffffffffff16612f30565b15612c18578373ffffffffffffffffffffffffffffffffffffffff1663150b7a02612ad8611c0d565b8786866040518563ffffffff1660e01b8152600401612afa94939291906147e8565b602060405180830381600087803b158015612b1457600080fd5b505af1925050508015612b4557506040513d601f19601f82011682018060405250810190612b429190614849565b60015b612bc8573d8060008114612b75576040519150601f19603f3d011682016040523d82523d6000602084013e612b7a565b606091505b50600081511415612bc0576040517f08c379a0000000000000000000000000000000000000000000000000000000008152600401612bb7906146e2565b60405180910390fd5b805181602001fd5b63150b7a0260e01b7bffffffffffffffffffffffffffffffffffffffffffffffffffffffff1916817bffffffffffffffffffffffffffffffffffffffffffffffffffffffff191614915050612c1d565b600190505b949350505050565b505050565b6008805490506009600083815260200190815260200160002081905550600881908060018154018082558091505060019003906000526020600020016000909190919091505550565b60006001612c8084611233565b612c8a9190613c34565b9050600060076000848152602001908152602001600020549050818114612d6f576000600660008673ffffffffffffffffffffffffffffffffffffffff1673ffffffffffffffffffffffffffffffffffffffff168152602001908152602001600020600084815260200190815260200160002054905080600660008773ffffffffffffffffffffffffffffffffffffffff1673ffffffffffffffffffffffffffffffffffffffff168152602001908152602001600020600084815260200190815260200160002081905550816007600083815260200190815260200160002081905550505b6007600084815260200190815260200160002060009055600660008573ffffffffffffffffffffffffffffffffffffffff1673ffffffffffffffffffffffffffffffffffffffff16815260200190815260200160002060008381526020019081526020016000206000905550505050565b60006001600880549050612df49190613c34565b9050600060096000848152602001908152602001600020549050600060088381548110612e2457612e23613d66565b5b906000526020600020015490508060088381548110612e4657612e45613d66565b5b906000526020600020018190555081600960008381526020019081526020016000208190555060096000858152602001908152602001600020600090556008805480612e9557612e94614876565b5b6001900381819060005260206000200160009055905550505050565b6000612ebc83611233565b905081600660008573ffffffffffffffffffffffffffffffffffffffff1673ffffffffffffffffffffffffffffffffffffffff168152602001908152602001600020600083815260200190815260200160002081905550806007600084815260200190815260200160002081905550505050565b600080823b905060008111915050919050565b828054612f4f90613782565b90600052602060002090601f016020900481019282612f715760008555612fb8565b82601f10612f8a57805160ff1916838001178555612fb8565b82800160010185558215612fb8579182015b82811115612fb7578251825591602001919060010190612f9c565b5b509050612fc59190612fc9565b5090565b5b80821115612fe2576000816000905550600101612fca565b5090565b6000604051905090565b600080fd5b600080fd5b60007fffffffff0000000000000000000000000000000000000000000000000000000082169050919050565b61302f81612ffa565b811461303a57600080fd5b50565b60008135905061304c81613026565b92915050565b60006020828403121561306857613067612ff0565b5b60006130768482850161303d565b91505092915050565b60008115159050919050565b6130948161307f565b82525050565b60006020820190506130af600083018461308b565b92915050565b600081519050919050565b600082825260208201905092915050565b60005b838110156130ef5780820151818401526020810190506130d4565b838111156130fe576000848401525b50505050565b6000601f19601f8301169050919050565b6000613120826130b5565b61312a81856130c0565b935061313a8185602086016130d1565b61314381613104565b840191505092915050565b600060208201905081810360008301526131688184613115565b905092915050565b6000819050919050565b61318381613170565b811461318e57600080fd5b50565b6000813590506131a08161317a565b92915050565b6000602082840312156131bc576131bb612ff0565b5b60006131ca84828501613191565b91505092915050565b600073ffffffffffffffffffffffffffffffffffffffff82169050919050565b60006131fe826131d3565b9050919050565b61320e816131f3565b82525050565b60006020820190506132296000830184613205565b92915050565b613238816131f3565b811461324357600080fd5b50565b6000813590506132558161322f565b92915050565b6000806040838503121561327257613271612ff0565b5b600061328085828601613246565b925050602061329185828601613191565b9150509250929050565b6132a481613170565b82525050565b60006020820190506132bf600083018461329b565b92915050565b6000806000606084860312156132de576132dd612ff0565b5b60006132ec86828701613246565b93505060206132fd86828701613246565b925050604061330e86828701613191565b9150509250925092565b6133218161307f565b811461332c57600080fd5b50565b60008135905061333e81613318565b92915050565b60006020828403121561335a57613359612ff0565b5b60006133688482850161332f565b91505092915050565b60008060006060848603121561338a57613389612ff0565b5b600061339886828701613191565b93505060206133a986828701613191565b92505060406133ba86828701613191565b9150509250925092565b600080fd5b600080fd5b7f4e487b7100000000000000000000000000000000000000000000000000000000600052604160045260246000fd5b61340682613104565b810181811067ffffffffffffffff82111715613425576134246133ce565b5b80604052505050565b6000613438612fe6565b905061344482826133fd565b919050565b600067ffffffffffffffff821115613464576134636133ce565b5b61346d82613104565b9050602081019050919050565b82818337600083830152505050565b600061349c61349784613449565b61342e565b9050828152602081018484840111156134b8576134b76133c9565b5b6134c384828561347a565b509392505050565b600082601f8301126134e0576134df6133c4565b5b81356134f0848260208601613489565b91505092915050565b60006020828403121561350f5761350e612ff0565b5b600082013567ffffffffffffffff81111561352d5761352c612ff5565b5b613539848285016134cb565b91505092915050565b60006020828403121561355857613557612ff0565b5b600061356684828501613246565b91505092915050565b6000806040838503121561358657613585612ff0565b5b600061359485828601613246565b92505060206135a58582860161332f565b9150509250929050565b600067ffffffffffffffff8211156135ca576135c96133ce565b5b6135d382613104565b9050602081019050919050565b60006135f36135ee846135af565b61342e565b90508281526020810184848401111561360f5761360e6133c9565b5b61361a84828561347a565b509392505050565b600082601f830112613637576136366133c4565b5b81356136478482602086016135e0565b91505092915050565b6000806000806080858703121561366a57613669612ff0565b5b600061367887828801613246565b945050602061368987828801613246565b935050604061369a87828801613191565b925050606085013567ffffffffffffffff8111156136bb576136ba612ff5565b5b6136c787828801613622565b91505092959194509250565b600080604083850312156136ea576136e9612ff0565b5b60006136f885828601613246565b925050602061370985828601613246565b9150509250929050565b6000806040838503121561372a57613729612ff0565b5b600061373885828601613191565b925050602061374985828601613191565b9150509250929050565b7f4e487b7100000000000000000000000000000000000000000000000000000000600052602260045260246000fd5b6000600282049050600182168061379a57607f821691505b602082108114156137ae576137ad613753565b5b50919050565b7f4552433732313a20617070726f76656420717565727920666f72206e6f6e657860008201527f697374656e7420746f6b656e0000000000000000000000000000000000000000602082015250565b6000613810602c836130c0565b915061381b826137b4565b604082019050919050565b6000602082019050818103600083015261383f81613803565b9050919050565b7f4552433732313a20617070726f76616c20746f2063757272656e74206f776e6560008201527f7200000000000000000000000000000000000000000000000000000000000000602082015250565b60006138a26021836130c0565b91506138ad82613846565b604082019050919050565b600060208201905081810360008301526138d181613895565b9050919050565b7f4552433732313a20617070726f76652063616c6c6572206973206e6f74206f7760008201527f6e6572206e6f7220617070726f76656420666f7220616c6c0000000000000000602082015250565b60006139346038836130c0565b915061393f826138d8565b604082019050919050565b6000602082019050818103600083015261396381613927565b9050919050565b7f4552433732313a207472616e736665722063616c6c6572206973206e6f74206f60008201527f776e6572206e6f7220617070726f766564000000000000000000000000000000602082015250565b60006139c66031836130c0565b91506139d18261396a565b604082019050919050565b600060208201905081810360008301526139f5816139b9565b9050919050565b7f4f776e61626c653a2063616c6c6572206973206e6f7420746865206f776e6572600082015250565b6000613a326020836130c0565b9150613a3d826139fc565b602082019050919050565b60006020820190508181036000830152613a6181613a25565b9050919050565b7f4e487b7100000000000000000000000000000000000000000000000000000000600052601160045260246000fd5b6000613aa282613170565b91507fffffffffffffffffffffffffffffffffffffffffffffffffffffffffffffffff821415613ad557613ad4613a68565b5b600182019050919050565b7f455243373231456e756d657261626c653a206f776e657220696e646578206f7560008201527f74206f6620626f756e6473000000000000000000000000000000000000000000602082015250565b6000613b3c602b836130c0565b9150613b4782613ae0565b604082019050919050565b60006020820190508181036000830152613b6b81613b2f565b9050919050565b7f494e56414c49445f414d4f554e54000000000000000000000000000000000000600082015250565b6000613ba8600e836130c0565b9150613bb382613b72565b602082019050919050565b60006020820190508181036000830152613bd781613b9b565b9050919050565b6000613be982613170565b9150613bf483613170565b9250827fffffffffffffffffffffffffffffffffffffffffffffffffffffffffffffffff03821115613c2957613c28613a68565b5b828201905092915050565b6000613c3f82613170565b9150613c4a83613170565b925082821015613c5d57613c5c613a68565b5b828203905092915050565b7f5445414d5f4c494d49545f455843454544454400000000000000000000000000600082015250565b6000613c9e6013836130c0565b9150613ca982613c68565b602082019050919050565b60006020820190508181036000830152613ccd81613c91565b9050919050565b7f455243373231456e756d657261626c653a20676c6f62616c20696e646578206f60008201527f7574206f6620626f756e64730000000000000000000000000000000000000000602082015250565b6000613d30602c836130c0565b9150613d3b82613cd4565b604082019050919050565b60006020820190508181036000830152613d5f81613d23565b9050919050565b7f4e487b7100000000000000000000000000000000000000000000000000000000600052603260045260246000fd5b7f4552433732313a206f776e657220717565727920666f72206e6f6e657869737460008201527f656e7420746f6b656e0000000000000000000000000000000000000000000000602082015250565b6000613df16029836130c0565b9150613dfc82613d95565b604082019050919050565b60006020820190508181036000830152613e2081613de4565b9050919050565b7f4552433732313a2062616c616e636520717565727920666f7220746865207a6560008201527f726f206164647265737300000000000000000000000000000000000000000000602082015250565b6000613e83602a836130c0565b9150613e8e82613e27565b604082019050919050565b60006020820190508181036000830152613eb281613e76565b9050919050565b7f53414c455f4e4f545f4f50454e00000000000000000000000000000000000000600082015250565b6000613eef600d836130c0565b9150613efa82613eb9565b602082019050919050565b60006020820190508181036000830152613f1e81613ee2565b9050919050565b6000613f3082613170565b9150613f3b83613170565b9250817fffffffffffffffffffffffffffffffffffffffffffffffffffffffffffffffff0483118215151615613f7457613f73613a68565b5b828202905092915050565b7f57524f4e475f4554485f56414c55450000000000000000000000000000000000600082015250565b6000613fb5600f836130c0565b9150613fc082613f7f565b602082019050919050565b60006020820190508181036000830152613fe481613fa8565b9050919050565b7f4d494e545f4e4f545f4f50454e00000000000000000000000000000000000000600082015250565b6000614021600d836130c0565b915061402c82613feb565b602082019050919050565b6000602082019050818103600083015261405081614014565b9050919050565b7f4552433732314d657461646174613a2055524920717565727920666f72206e6f60008201527f6e6578697374656e7420746f6b656e0000000000000000000000000000000000602082015250565b60006140b3602f836130c0565b91506140be82614057565b604082019050919050565b600060208201905081810360008301526140e2816140a6565b9050919050565b600081905092915050565b60006140ff826130b5565b61410981856140e9565b93506141198185602086016130d1565b80840191505092915050565b7f2e6a736f6e000000000000000000000000000000000000000000000000000000600082015250565b600061415b6005836140e9565b915061416682614125565b600582019050919050565b600061417d82856140f4565b915061418982846140f4565b91506141948261414e565b91508190509392505050565b7f4f776e61626c653a206e6577206f776e657220697320746865207a65726f206160008201527f6464726573730000000000000000000000000000000000000000000000000000602082015250565b60006141fc6026836130c0565b9150614207826141a0565b604082019050919050565b6000602082019050818103600083015261422b816141ef565b9050919050565b7f494e56414c49445f54494d455354414d50530000000000000000000000000000600082015250565b60006142686012836130c0565b915061427382614232565b602082019050919050565b600060208201905081810360008301526142978161425b565b9050919050565b7f4552433732313a206f70657261746f7220717565727920666f72206e6f6e657860008201527f697374656e7420746f6b656e0000000000000000000000000000000000000000602082015250565b60006142fa602c836130c0565b91506143058261429e565b604082019050919050565b60006020820190508181036000830152614329816142ed565b9050919050565b7f4552433732313a207472616e73666572206f6620746f6b656e2074686174206960008201527f73206e6f74206f776e0000000000000000000000000000000000000000000000602082015250565b600061438c6029836130c0565b915061439782614330565b604082019050919050565b600060208201905081810360008301526143bb8161437f565b9050919050565b7f4552433732313a207472616e7366657220746f20746865207a65726f2061646460008201527f7265737300000000000000000000000000000000000000000000000000000000602082015250565b600061441e6024836130c0565b9150614429826143c2565b604082019050919050565b6000602082019050818103600083015261444d81614411565b9050919050565b7f4552433732313a206d696e7420746f20746865207a65726f2061646472657373600082015250565b600061448a6020836130c0565b915061449582614454565b602082019050919050565b600060208201905081810360008301526144b98161447d565b9050919050565b7f4552433732313a20746f6b656e20616c7265616479206d696e74656400000000600082015250565b60006144f6601c836130c0565b9150614501826144c0565b602082019050919050565b60006020820190508181036000830152614525816144e9565b9050919050565b7f57414c4c45545f4c494d49545f45584345454445440000000000000000000000600082015250565b60006145626015836130c0565b915061456d8261452c565b602082019050919050565b6000602082019050818103600083015261459181614555565b9050919050565b7f53414c455f4c494d49545f455843454544454400000000000000000000000000600082015250565b60006145ce6013836130c0565b91506145d982614598565b602082019050919050565b600060208201905081810360008301526145fd816145c1565b9050919050565b7f4552433732313a20617070726f766520746f2063616c6c657200000000000000600082015250565b600061463a6019836130c0565b915061464582614604565b602082019050919050565b600060208201905081810360008301526146698161462d565b9050919050565b7f4552433732313a207472616e7366657220746f206e6f6e20455243373231526560008201527f63656976657220696d706c656d656e7465720000000000000000000000000000602082015250565b60006146cc6032836130c0565b91506146d782614670565b604082019050919050565b600060208201905081810360008301526146fb816146bf565b9050919050565b7f4e487b7100000000000000000000000000000000000000000000000000000000600052601260045260246000fd5b600061473c82613170565b915061474783613170565b92508261475757614756614702565b5b828204905092915050565b600061476d82613170565b915061477883613170565b92508261478857614787614702565b5b828206905092915050565b600081519050919050565b600082825260208201905092915050565b60006147ba82614793565b6147c4818561479e565b93506147d48185602086016130d1565b6147dd81613104565b840191505092915050565b60006080820190506147fd6000830187613205565b61480a6020830186613205565b614817604083018561329b565b818103606083015261482981846147af565b905095945050505050565b60008151905061484381613026565b92915050565b60006020828403121561485f5761485e612ff0565b5b600061486d84828501614834565b91505092915050565b7f4e487b7100000000000000000000000000000000000000000000000000000000600052603160045260246000fdfea26469706673582212207931349d8cc28ce76265ea0cfbfc651f02be3d23d2106773c5a7e345c845e85a64736f6c63430008090033",
  "linkReferences": {},
  "deployedLinkReferences": {}
}