{
  "_format": "hh-sol-artifact-1",
  "contractName": "HeroManager",
  "sourceName": "contracts/game/HeroManager.sol",
  "abi": [
    {
      "inputs": [
        {
          "internalType": "address",
          "name": "tokenAddress",
          "type": "address"
        },
        {
          "internalType": "address",
          "name": "nftAddress",
          "type": "address"
        }
      ],
      "stateMutability": "nonpayable",
      "type": "constructor"
    },
    {
      "anonymous": false,
      "inputs": [
        {
          "indexed": true,
          "internalType": "address",
          "name": "previousOwner",
          "type": "address"
        },
        {
          "indexed": true,
          "internalType": "address",
          "name": "newOwner",
          "type": "address"
        }
      ],
      "name": "OwnershipTransferred",
      "type": "event"
    },
    {
      "inputs": [],
      "name": "HERO_MAX_EXP",
      "outputs": [
        {
          "internalType": "uint256",
          "name": "",
          "type": "uint256"
        }
      ],
      "stateMutability": "view",
      "type": "function"
    },
    {
      "inputs": [],
      "name": "HERO_MAX_LEVEL",
      "outputs": [
        {
          "internalType": "uint256",
          "name": "",
          "type": "uint256"
        }
      ],
      "stateMutability": "view",
      "type": "function"
    },
    {
      "inputs": [
        {
          "internalType": "uint256",
          "name": "heroId",
          "type": "uint256"
        },
        {
          "components": [
            {
              "internalType": "bytes32",
              "name": "name",
              "type": "bytes32"
            },
            {
              "internalType": "uint256",
              "name": "level",
              "type": "uint256"
            },
            {
              "internalType": "uint256",
              "name": "rarity",
              "type": "uint256"
            },
            {
              "internalType": "uint256",
              "name": "primaryAttribute",
              "type": "uint256"
            },
            {
              "internalType": "uint256",
              "name": "attackCapability",
              "type": "uint256"
            },
            {
              "internalType": "uint256",
              "name": "strength",
              "type": "uint256"
            },
            {
              "internalType": "uint256",
              "name": "strengthGain",
              "type": "uint256"
            },
            {
              "internalType": "uint256",
              "name": "agility",
              "type": "uint256"
            },
            {
              "internalType": "uint256",
              "name": "agilityGain",
              "type": "uint256"
            },
            {
              "internalType": "uint256",
              "name": "intelligence",
              "type": "uint256"
            },
            {
              "internalType": "uint256",
              "name": "intelligenceGain",
              "type": "uint256"
            },
            {
              "internalType": "uint256",
              "name": "experience",
              "type": "uint256"
            }
          ],
          "internalType": "struct GameFi.Hero",
          "name": "hero",
          "type": "tuple"
        }
      ],
      "name": "addHero",
      "outputs": [],
      "stateMutability": "nonpayable",
      "type": "function"
    },
    {
      "inputs": [],
      "name": "baseLevelUpFee",
      "outputs": [
        {
          "internalType": "uint256",
          "name": "",
          "type": "uint256"
        }
      ],
      "stateMutability": "view",
      "type": "function"
    },
    {
      "inputs": [],
      "name": "bonusExp",
      "outputs": [
        {
          "internalType": "uint256",
          "name": "",
          "type": "uint256"
        }
      ],
      "stateMutability": "view",
      "type": "function"
    },
    {
      "inputs": [],
      "name": "bonusLevelUpFee",
      "outputs": [
        {
          "internalType": "uint256",
          "name": "",
          "type": "uint256"
        }
      ],
      "stateMutability": "view",
      "type": "function"
    },
    {
      "inputs": [
        {
          "internalType": "uint256[]",
          "name": "heroIds",
          "type": "uint256[]"
        },
        {
          "internalType": "bool",
          "name": "won",
          "type": "bool"
        }
      ],
      "name": "bulkExpUp",
      "outputs": [],
      "stateMutability": "nonpayable",
      "type": "function"
    },
    {
      "inputs": [],
      "name": "energyRecoveryTime",
      "outputs": [
        {
          "internalType": "uint256",
          "name": "",
          "type": "uint256"
        }
      ],
      "stateMutability": "view",
      "type": "function"
    },
    {
      "inputs": [],
      "name": "expDiff",
      "outputs": [
        {
          "internalType": "uint256",
          "name": "",
          "type": "uint256"
        }
      ],
      "stateMutability": "view",
      "type": "function"
    },
    {
      "inputs": [
        {
          "internalType": "uint256",
          "name": "heroId",
          "type": "uint256"
        },
        {
          "internalType": "bool",
          "name": "won",
          "type": "bool"
        }
      ],
      "name": "expUp",
      "outputs": [],
      "stateMutability": "nonpayable",
      "type": "function"
    },
    {
      "inputs": [
        {
          "internalType": "uint256",
          "name": "heroId",
          "type": "uint256"
        }
      ],
      "name": "heroEnergy",
      "outputs": [
        {
          "internalType": "uint256",
          "name": "",
          "type": "uint256"
        }
      ],
      "stateMutability": "view",
      "type": "function"
    },
    {
      "inputs": [
        {
          "internalType": "uint256",
          "name": "heroId",
          "type": "uint256"
        }
      ],
      "name": "heroLevel",
      "outputs": [
        {
          "internalType": "uint256",
          "name": "",
          "type": "uint256"
        }
      ],
      "stateMutability": "view",
      "type": "function"
    },
    {
      "inputs": [
        {
          "internalType": "uint256",
          "name": "heroId",
          "type": "uint256"
        }
      ],
      "name": "heroPower",
      "outputs": [
        {
          "internalType": "uint256",
          "name": "",
          "type": "uint256"
        }
      ],
      "stateMutability": "view",
      "type": "function"
    },
    {
      "inputs": [
        {
          "internalType": "uint256",
          "name": "heroId",
          "type": "uint256"
        }
      ],
      "name": "heroPrimaryAttribute",
      "outputs": [
        {
          "internalType": "uint256",
          "name": "",
          "type": "uint256"
        }
      ],
      "stateMutability": "view",
      "type": "function"
    },
    {
      "inputs": [
        {
          "internalType": "uint256",
          "name": "",
          "type": "uint256"
        }
      ],
      "name": "heroes",
      "outputs": [
        {
          "internalType": "bytes32",
          "name": "name",
          "type": "bytes32"
        },
        {
          "internalType": "uint256",
          "name": "level",
          "type": "uint256"
        },
        {
          "internalType": "uint256",
          "name": "rarity",
          "type": "uint256"
        },
        {
          "internalType": "uint256",
          "name": "primaryAttribute",
          "type": "uint256"
        },
        {
          "internalType": "uint256",
          "name": "attackCapability",
          "type": "uint256"
        },
        {
          "internalType": "uint256",
          "name": "strength",
          "type": "uint256"
        },
        {
          "internalType": "uint256",
          "name": "strengthGain",
          "type": "uint256"
        },
        {
          "internalType": "uint256",
          "name": "agility",
          "type": "uint256"
        },
        {
          "internalType": "uint256",
          "name": "agilityGain",
          "type": "uint256"
        },
        {
          "internalType": "uint256",
          "name": "intelligence",
          "type": "uint256"
        },
        {
          "internalType": "uint256",
          "name": "intelligenceGain",
          "type": "uint256"
        },
        {
          "internalType": "uint256",
          "name": "experience",
          "type": "uint256"
        }
      ],
      "stateMutability": "view",
      "type": "function"
    },
    {
      "inputs": [
        {
          "internalType": "uint256",
          "name": "",
          "type": "uint256"
        }
      ],
      "name": "heroesEnergy",
      "outputs": [
        {
          "internalType": "uint256",
          "name": "",
          "type": "uint256"
        }
      ],
      "stateMutability": "view",
      "type": "function"
    },
    {
      "inputs": [
        {
          "internalType": "uint256",
          "name": "",
          "type": "uint256"
        }
      ],
      "name": "heroesEnergyUsedAt",
      "outputs": [
        {
          "internalType": "uint256",
          "name": "",
          "type": "uint256"
        }
      ],
      "stateMutability": "view",
      "type": "function"
    },
    {
      "inputs": [
        {
          "internalType": "uint256",
          "name": "heroId",
          "type": "uint256"
        },
        {
          "internalType": "uint256",
          "name": "levels",
          "type": "uint256"
        }
      ],
      "name": "levelUp",
      "outputs": [],
      "stateMutability": "nonpayable",
      "type": "function"
    },
    {
      "inputs": [
        {
          "internalType": "uint256",
          "name": "heroId",
          "type": "uint256"
        },
        {
          "internalType": "uint256",
          "name": "levels",
          "type": "uint256"
        }
      ],
      "name": "levelUpFee",
      "outputs": [
        {
          "internalType": "uint256",
          "name": "",
          "type": "uint256"
        }
      ],
      "stateMutability": "view",
      "type": "function"
    },
    {
      "inputs": [],
      "name": "lobbyManagerAddress",
      "outputs": [
        {
          "internalType": "address",
          "name": "",
          "type": "address"
        }
      ],
      "stateMutability": "view",
      "type": "function"
    },
    {
      "inputs": [],
      "name": "maxHeroEnergy",
      "outputs": [
        {
          "internalType": "uint256",
          "name": "",
          "type": "uint256"
        }
      ],
      "stateMutability": "view",
      "type": "function"
    },
    {
      "inputs": [
        {
          "internalType": "bytes[]",
          "name": "data",
          "type": "bytes[]"
        }
      ],
      "name": "multicall",
      "outputs": [
        {
          "internalType": "bytes[]",
          "name": "results",
          "type": "bytes[]"
        }
      ],
      "stateMutability": "nonpayable",
      "type": "function"
    },
    {
      "inputs": [],
      "name": "nft",
      "outputs": [
        {
          "internalType": "contract IERC721",
          "name": "",
          "type": "address"
        }
      ],
      "stateMutability": "view",
      "type": "function"
    },
    {
      "inputs": [],
      "name": "owner",
      "outputs": [
        {
          "internalType": "address",
          "name": "",
          "type": "address"
        }
      ],
      "stateMutability": "view",
      "type": "function"
    },
    {
      "inputs": [],
      "name": "primaryPowerMultiplier",
      "outputs": [
        {
          "internalType": "uint256",
          "name": "",
          "type": "uint256"
        }
      ],
      "stateMutability": "view",
      "type": "function"
    },
    {
      "inputs": [],
      "name": "rarityPowerBooster",
      "outputs": [
        {
          "internalType": "uint256",
          "name": "",
          "type": "uint256"
        }
      ],
      "stateMutability": "view",
      "type": "function"
    },
    {
      "inputs": [],
      "name": "renounceOwnership",
      "outputs": [],
      "stateMutability": "nonpayable",
      "type": "function"
    },
    {
      "inputs": [],
      "name": "secondaryMultiplier",
      "outputs": [
        {
          "internalType": "uint256",
          "name": "",
          "type": "uint256"
        }
      ],
      "stateMutability": "view",
      "type": "function"
    },
    {
      "inputs": [
        {
          "internalType": "uint256",
          "name": "value",
          "type": "uint256"
        }
      ],
      "name": "setBaseLevelUpFee",
      "outputs": [],
      "stateMutability": "nonpayable",
      "type": "function"
    },
    {
      "inputs": [
        {
          "internalType": "uint256",
          "name": "value",
          "type": "uint256"
        }
      ],
      "name": "setBonusExp",
      "outputs": [],
      "stateMutability": "nonpayable",
      "type": "function"
    },
    {
      "inputs": [
        {
          "internalType": "uint256",
          "name": "value",
          "type": "uint256"
        }
      ],
      "name": "setBonusLevelUpFee",
      "outputs": [],
      "stateMutability": "nonpayable",
      "type": "function"
    },
    {
      "inputs": [
        {
          "internalType": "uint256",
          "name": "value",
          "type": "uint256"
        }
      ],
      "name": "setEnergyRecoveryTime",
      "outputs": [],
      "stateMutability": "nonpayable",
      "type": "function"
    },
    {
      "inputs": [
        {
          "internalType": "uint256",
          "name": "value",
          "type": "uint256"
        }
      ],
      "name": "setExpDiff",
      "outputs": [],
      "stateMutability": "nonpayable",
      "type": "function"
    },
    {
      "inputs": [
        {
          "internalType": "address",
          "name": "lbAddr",
          "type": "address"
        }
      ],
      "name": "setLobbyManager",
      "outputs": [],
      "stateMutability": "nonpayable",
      "type": "function"
    },
    {
      "inputs": [
        {
          "internalType": "uint256",
          "name": "value",
          "type": "uint256"
        }
      ],
      "name": "setMaxHeroEnergy",
      "outputs": [],
      "stateMutability": "nonpayable",
      "type": "function"
    },
    {
      "inputs": [
        {
          "internalType": "uint256",
          "name": "value",
          "type": "uint256"
        }
      ],
      "name": "setPrimaryPowerMultiplier",
      "outputs": [],
      "stateMutability": "nonpayable",
      "type": "function"
    },
    {
      "inputs": [
        {
          "internalType": "uint256",
          "name": "value",
          "type": "uint256"
        }
      ],
      "name": "setRarityPowerBooster",
      "outputs": [],
      "stateMutability": "nonpayable",
      "type": "function"
    },
    {
      "inputs": [
        {
          "internalType": "uint256",
          "name": "value",
          "type": "uint256"
        }
      ],
      "name": "setSecondaryMultiplier",
      "outputs": [],
      "stateMutability": "nonpayable",
      "type": "function"
    },
    {
      "inputs": [
        {
          "internalType": "uint256",
          "name": "value",
          "type": "uint256"
        }
      ],
      "name": "setThirdMultiplier",
      "outputs": [],
      "stateMutability": "nonpayable",
      "type": "function"
    },
    {
      "inputs": [
        {
          "internalType": "uint256",
          "name": "heroId",
          "type": "uint256"
        }
      ],
      "name": "spendHeroEnergy",
      "outputs": [],
      "stateMutability": "nonpayable",
      "type": "function"
    },
    {
      "inputs": [],
      "name": "thirdMultiplier",
      "outputs": [
        {
          "internalType": "uint256",
          "name": "",
          "type": "uint256"
        }
      ],
      "stateMutability": "view",
      "type": "function"
    },
    {
      "inputs": [],
      "name": "token",
      "outputs": [
        {
          "internalType": "contract IERC20",
          "name": "",
          "type": "address"
        }
      ],
      "stateMutability": "view",
      "type": "function"
    },
    {
      "inputs": [
        {
          "internalType": "address",
          "name": "newOwner",
          "type": "address"
        }
      ],
      "name": "transferOwnership",
      "outputs": [],
      "stateMutability": "nonpayable",
      "type": "function"
    },
    {
      "inputs": [
        {
          "internalType": "uint256[]",
          "name": "heroIds",
          "type": "uint256[]"
        }
      ],
      "name": "validateHeroEnergies",
      "outputs": [
        {
          "internalType": "bool",
          "name": "",
          "type": "bool"
        }
      ],
      "stateMutability": "view",
      "type": "function"
    },
    {
      "inputs": [
        {
          "internalType": "uint256[]",
          "name": "heroIds",
          "type": "uint256[]"
        },
        {
          "internalType": "address",
          "name": "owner",
          "type": "address"
        }
      ],
      "name": "validateHeroIds",
      "outputs": [
        {
          "internalType": "bool",
          "name": "",
          "type": "bool"
        }
      ],
      "stateMutability": "view",
      "type": "function"
    }
  ],
  "bytecode": "0x6080604052690a968163f0a57b40000060045569021e19e0c9bab2400000600555600a60065560086007556006600855606e6009556801a055690d9db80000600a556004600b556005600c55610e10600d553480156200005e57600080fd5b5060405162001e1738038062001e1783398101604081905262000081916200012b565b6200008c33620000be565b600180546001600160a01b039384166001600160a01b0319918216179091556002805492909316911617905562000163565b600080546001600160a01b038381166001600160a01b0319831681178455604051919092169283917f8be0079c531659141344cd1fd0a4f28419497f9722a3daafe3b4186f6b6457e09190a35050565b80516001600160a01b03811681146200012657600080fd5b919050565b600080604083850312156200013f57600080fd5b6200014a836200010e565b91506200015a602084016200010e565b90509250929050565b611ca480620001736000396000f3fe608060405234801561001057600080fd5b506004361061027f5760003560e01c8063852eebff1161015c578063b0a04efa116100ce578063cc0f6f7811610087578063cc0f6f7814610612578063d5c1ed8a14610625578063dda728cd14610638578063f2fde38b1461064b578063f3d1b5ab1461065e578063fc0c546a1461068157600080fd5b8063b0a04efa1461059d578063b3803453146105b0578063b7601a15146105d0578063b8830f9f146105e3578063c6afe9ae146105f6578063c97bdb581461060957600080fd5b80639cabd6db116101205780639cabd6db1461047e578063a8d4a03b14610491578063aaef012214610558578063ab40514514610561578063ac9650d81461056a578063af264bd71461058a57600080fd5b8063852eebff146104355780638af31646146104485780638da5cb5b146104515780639b12bc88146104625780639bad62311461046b57600080fd5b806333ab0541116101f55780634fbd1edc116101b95780634fbd1edc146103d85780635226dc93146103e15780636e7dff4d146103f4578063715018a61461040757806372450f991461040f5780637ce9dd541461042257600080fd5b806333ab05411461036e5780633c68e1ad146103815780634239ca301461038a57806347ccca021461039d5780634afca080146103c857600080fd5b80631636f10c116102475780631636f10c146103045780631ec462e01461031757806323cb1c361461032a578063294cdacd146103335780632a18bdfe1461035357806331a03ca21461036657600080fd5b80630152368f1461028457806301783dfa146102ac57806306975ac2146102c35780630a36d40b146102cc57806313b60c51146102ef575b600080fd5b6102976102923660046116d3565b610694565b60405190151581526020015b60405180910390f35b6102b560065481565b6040519081526020016102a3565b6102b560055481565b6102b56102da36600461172a565b6000908152600e602052604090206001015490565b6103026102fd36600461172a565b6107ac565b005b610302610312366004611743565b6107db565b610302610325366004611760565b610827565b6102b560085481565b6102b561034136600461172a565b60106020526000908152604090205481565b6102b561036136600461172a565b610945565b6102b5601e81565b61030261037c36600461172a565b6109a9565b6102b560095481565b61030261039836600461172a565b6109d8565b6002546103b0906001600160a01b031681565b6040516001600160a01b0390911681526020016102a3565b6102b568056bc75e2d6310000081565b6102b5600b5481565b6103026103ef36600461179a565b610aaf565b61030261040236600461172a565b610d63565b610302610d92565b61030261041d36600461172a565b610dc8565b61030261043036600461172a565b610df7565b6103026104433660046117ca565b610e26565b6102b5600c5481565b6000546001600160a01b03166103b0565b6102b560045481565b61030261047936600461172a565b610e85565b61030261048c36600461172a565b610eb4565b6104ff61049f36600461172a565b600e60205280600052604060002060009150905080600001549080600101549080600201549080600301549080600401549080600501549080600601549080600701549080600801549080600901549080600a01549080600b015490508c565b604080519c8d5260208d019b909b52998b019890985260608a0196909652608089019490945260a088019290925260c087015260e0860152610100850152610120840152610140830152610160820152610180016102a3565b6102b560075481565b6102b5600a5481565b61057d610578366004611816565b610ee3565b6040516102a391906118b0565b6102b561059836600461179a565b610fd9565b6103026105ab366004611912565b611036565b6102b56105be36600461172a565b600f6020526000908152604090205481565b6102976105de366004611816565b611108565b6103026105f136600461172a565b611196565b6003546103b0906001600160a01b031681565b6102b5600d5481565b61030261062036600461172a565b6111c5565b6102b561063336600461172a565b6111f4565b61030261064636600461172a565b6113e4565b610302610659366004611743565b611413565b6102b561066c36600461172a565b6000908152600e602052604090206003015490565b6001546103b0906001600160a01b031681565b6000805b8381101561079f576002546001600160a01b038085169116636352211e8787858181106106c7576106c7611942565b905060200201356040518263ffffffff1660e01b81526004016106ec91815260200190565b60206040518083038186803b15801561070457600080fd5b505afa158015610718573d6000803e3d6000fd5b505050506040513d601f19601f8201168201806040525081019061073c9190611958565b6001600160a01b0316146107975760405162461bcd60e51b815260206004820152601b60248201527f4865726f4d616e616765723a206e6f74206865726f206f776e6572000000000060448201526064015b60405180910390fd5b600101610698565b50600190505b9392505050565b6000546001600160a01b031633146107d65760405162461bcd60e51b815260040161078e90611975565b600655565b6000546001600160a01b031633146108055760405162461bcd60e51b815260040161078e90611975565b600380546001600160a01b0319166001600160a01b0392909216919091179055565b6000546001600160a01b031633146108515760405162461bcd60e51b815260040161078e90611975565b6000828152600e6020526040902060010154156108b05760405162461bcd60e51b815260206004820152601f60248201527f4865726f4d616e616765723a206865726f20616c726561647920616464656400604482015260640161078e565b6000828152600e60205260409020819061093f8282813581556020820135600182015560408201356002820155606082013560038201556080820135600482015560a0820135600582015560c0820135600682015560e0820135600782015561010082013560088201556101208201356009820155610140820135600a820155610160820135600b8201555050565b50505050565b600c546000828152600f6020526040812054909190818110156109745761096c81836119c0565b949350505050565b600084815260106020526040902054620151809061099290426119c0565b111561099f575092915050565b5060009392505050565b6000546001600160a01b031633146109d35760405162461bcd60e51b815260040161078e90611975565b600455565b6003546001600160a01b03163314610a025760405162461bcd60e51b815260040161078e906119d7565b6000610a0d82610945565b11610a5a5760405162461bcd60e51b815260206004820152601d60248201527f4865726f4d616e616765723a206865726f207a65726f20656e65726779000000604482015260640161078e565b6000818152600f6020526040902054600c54811415610a7b57506001610a9d565b600181019050600c54811415610a9d5760008281526010602052604090204290555b6000918252600f602052604090912055565b6000828152600e6020526040908190206001015460025491516331a9108f60e11b815260048101859052909133916001600160a01b0390911690636352211e9060240160206040518083038186803b158015610b0a57600080fd5b505afa158015610b1e573d6000803e3d6000fd5b505050506040513d601f19601f82011682018060405250810190610b429190611958565b6001600160a01b031614610b985760405162461bcd60e51b815260206004820152601c60248201527f4865726f4d616e616765723a206e6f742061204e4654206f776e657200000000604482015260640161078e565b601e8110610be85760405162461bcd60e51b815260206004820152601b60248201527f4865726f4d616e616765723a206865726f206d6178206c6576656c0000000000604482015260640161078e565b601e610bf48383611a21565b1115610c425760405162461bcd60e51b815260206004820152601f60248201527f4865726f4d616e616765723a20746f6f206d616e79206c6576656c7320757000604482015260640161078e565b6000610c4e8484610fd9565b6001546040516323b872dd60e01b8152336004820152306024820152604481018390529192506001600160a01b0316906323b872dd90606401602060405180830381600087803b158015610ca157600080fd5b505af1158015610cb5573d6000803e3d6000fd5b505050506040513d601f19601f82011682018060405250810190610cd99190611a39565b610d255760405162461bcd60e51b815260206004820152601b60248201527f4865726f4d616e616765723a206e6f7420656e6f756768206665650000000000604482015260640161078e565b506000928352600e60205260409092209181016001830155600682015481026005830155600882015481026007830155600a82015402600990910155565b6000546001600160a01b03163314610d8d5760405162461bcd60e51b815260040161078e90611975565b600555565b6000546001600160a01b03163314610dbc5760405162461bcd60e51b815260040161078e90611975565b610dc660006114ae565b565b6000546001600160a01b03163314610df25760405162461bcd60e51b815260040161078e90611975565b600d55565b6000546001600160a01b03163314610e215760405162461bcd60e51b815260040161078e90611975565b600855565b6003546001600160a01b03163314610e505760405162461bcd60e51b815260040161078e906119d7565b60005b8281101561093f57610e7d848483818110610e7057610e70611942565b9050602002013583611036565b600101610e53565b6000546001600160a01b03163314610eaf5760405162461bcd60e51b815260040161078e90611975565b600955565b6000546001600160a01b03163314610ede5760405162461bcd60e51b815260040161078e90611975565b600c55565b60608167ffffffffffffffff811115610efe57610efe611a56565b604051908082528060200260200182016040528015610f3157816020015b6060815260200190600190039081610f1c5790505b50905060005b82811015610fd157610fa130858584818110610f5557610f55611942565b9050602002810190610f679190611a6c565b8080601f0160208091040260200160405190810160405280939291908181526020018383808284376000920191909152506114fe92505050565b828281518110610fb357610fb3611942565b60200260200101819052508080610fc990611ab3565b915050610f37565b505b92915050565b6000828152600e602052604081206001015460055482611000600019840183026004540190565b9050848102600061102a61102561102060026000198b018b025b90611523565b860290565b830190565b98975050505050505050565b60035433906001600160a01b031681148061105957506001600160a01b03811630145b6110755760405162461bcd60e51b815260040161078e906119d7565b6000826110905761108b600b5461101a8661153c565b611099565b6110998461153c565b6000858152600e602052604090206001810154600b9091015491925090601e8210156110e557820168056bc75e2d6310000081106110e5576001919091019068056bc75e2d630fffff19015b6000958652600e60205260409095206001810191909155600b0193909355505050565b6000805b8281101561118c57600061113785858481811061112b5761112b611942565b90506020020135610945565b116111845760405162461bcd60e51b815260206004820152601e60248201527f4865726f4d616e616765723a206e6f7420656e6f75676820656e657267790000604482015260640161078e565b60010161110c565b5060019392505050565b6000546001600160a01b031633146111c05760405162461bcd60e51b815260040161078e90611975565b600a55565b6000546001600160a01b031633146111ef5760405162461bcd60e51b815260040161078e90611975565b600b55565b6000818152600e602090815260408083208151610180810183528154815260018201549381019390935260028101549183019190915260038101546060830181905260048201546080840152600582015460a0840152600682015460c0840152600782015460e084015260088201546101008401526009820154610120840152600a820154610140840152600b909101546101608301528290819081906112a95750505060a081015161012082015160e08301515b8360600151600114156112ca5750505060e081015160a08201516101208301515b8360600151600214156112eb5750505061012081015160e082015160a08301515b6000600854826112fb9190611ace565b6007546113089085611ace565b6006546113159087611ace565b61131f9190611a21565b6113299190611a21565b9050846040015160011415611359576064600954826113489190611ace565b6113529190611b03565b90506113da565b8460400151600214156113825761271060026009546113789190611c09565b6113489083611ace565b8460400151600314156113a257620f424060036009546113789190611c09565b8460400151600414156113da576305f5e10060046009546113c39190611c09565b6113cd9083611ace565b6113d79190611b03565b90505b9695505050505050565b6000546001600160a01b0316331461140e5760405162461bcd60e51b815260040161078e90611975565b600755565b6000546001600160a01b0316331461143d5760405162461bcd60e51b815260040161078e90611975565b6001600160a01b0381166114a25760405162461bcd60e51b815260206004820152602660248201527f4f776e61626c653a206e6577206f776e657220697320746865207a65726f206160448201526564647265737360d01b606482015260840161078e565b6114ab816114ae565b50565b600080546001600160a01b038381166001600160a01b0319831681178455604051919092169283917f8be0079c531659141344cd1fd0a4f28419497f9722a3daafe3b4186f6b6457e09190a35050565b60606107a58383604051806060016040528060278152602001611c486027913961156b565b600081838161153457611534611aed565b049392505050565b6000818152600e60205260408120600101546000198101670de0b6b3a764000002600a549091508190036107a5565b60606001600160a01b0384163b6115d35760405162461bcd60e51b815260206004820152602660248201527f416464726573733a2064656c65676174652063616c6c20746f206e6f6e2d636f6044820152651b9d1c9858dd60d21b606482015260840161078e565b600080856001600160a01b0316856040516115ee9190611c18565b600060405180830381855af49150503d8060008114611629576040519150601f19603f3d011682016040523d82523d6000602084013e61162e565b606091505b50915091506113da828286606083156116485750816107a5565b8251156116585782518084602001fd5b8160405162461bcd60e51b815260040161078e9190611c34565b60008083601f84011261168457600080fd5b50813567ffffffffffffffff81111561169c57600080fd5b6020830191508360208260051b85010111156116b757600080fd5b9250929050565b6001600160a01b03811681146114ab57600080fd5b6000806000604084860312156116e857600080fd5b833567ffffffffffffffff8111156116ff57600080fd5b61170b86828701611672565b909450925050602084013561171f816116be565b809150509250925092565b60006020828403121561173c57600080fd5b5035919050565b60006020828403121561175557600080fd5b81356107a5816116be565b6000808284036101a081121561177557600080fd5b83359250610180601f198201121561178c57600080fd5b506020830190509250929050565b600080604083850312156117ad57600080fd5b50508035926020909101359150565b80151581146114ab57600080fd5b6000806000604084860312156117df57600080fd5b833567ffffffffffffffff8111156117f657600080fd5b61180286828701611672565b909450925050602084013561171f816117bc565b6000806020838503121561182957600080fd5b823567ffffffffffffffff81111561184057600080fd5b61184c85828601611672565b90969095509350505050565b60005b8381101561187357818101518382015260200161185b565b8381111561093f5750506000910152565b6000815180845261189c816020860160208601611858565b601f01601f19169290920160200192915050565b6000602080830181845280855180835260408601915060408160051b870101925083870160005b8281101561190557603f198886030184526118f3858351611884565b945092850192908501906001016118d7565b5092979650505050505050565b6000806040838503121561192557600080fd5b823591506020830135611937816117bc565b809150509250929050565b634e487b7160e01b600052603260045260246000fd5b60006020828403121561196a57600080fd5b81516107a5816116be565b6020808252818101527f4f776e61626c653a2063616c6c6572206973206e6f7420746865206f776e6572604082015260600190565b634e487b7160e01b600052601160045260246000fd5b6000828210156119d2576119d26119aa565b500390565b6020808252602a908201527f4865726f4d616e616765723a2063616c6c61626c65206279206c6f62627920626040820152696174746c65206f6e6c7960b01b606082015260800190565b60008219821115611a3457611a346119aa565b500190565b600060208284031215611a4b57600080fd5b81516107a5816117bc565b634e487b7160e01b600052604160045260246000fd5b6000808335601e19843603018112611a8357600080fd5b83018035915067ffffffffffffffff821115611a9e57600080fd5b6020019150368190038213156116b757600080fd5b6000600019821415611ac757611ac76119aa565b5060010190565b6000816000190483118215151615611ae857611ae86119aa565b500290565b634e487b7160e01b600052601260045260246000fd5b600082611b2057634e487b7160e01b600052601260045260246000fd5b500490565b600181815b80851115611b60578160001904821115611b4657611b466119aa565b80851615611b5357918102915b93841c9390800290611b2a565b509250929050565b600082611b7757506001610fd3565b81611b8457506000610fd3565b8160018114611b9a5760028114611ba457611bc0565b6001915050610fd3565b60ff841115611bb557611bb56119aa565b50506001821b610fd3565b5060208310610133831016604e8410600b8410161715611be3575081810a610fd3565b611bed8383611b25565b8060001904821115611c0157611c016119aa565b029392505050565b60006107a560ff841683611b68565b60008251611c2a818460208701611858565b9190910192915050565b6020815260006107a5602083018461188456fe416464726573733a206c6f772d6c6576656c2064656c65676174652063616c6c206661696c6564a264697066735822122057e290743eadc672de0fa63357f634cc5b7867c350d6e5def07a938fa8227b7164736f6c63430008090033",
  "linkReferences": {},
  "deployedLinkReferences": {}
}