{
  "_format": "hh-sol-artifact-1",
  "contractName": "HeroManager",
  "sourceName": "contracts/game/HeroManager.sol",
  "abi": [
    {
      "inputs": [],
      "stateMutability": "nonpayable",
      "type": "constructor"
    },
    {
      "anonymous": false,
      "inputs": [
        {
          "indexed": true,
          "internalType": "address",
          "name": "previousOwner",
          "type": "address"
        },
        {
          "indexed": true,
          "internalType": "address",
          "name": "newOwner",
          "type": "address"
        }
      ],
      "name": "OwnershipTransferred",
      "type": "event"
    },
    {
      "inputs": [],
      "name": "HERO_MAX_EXP",
      "outputs": [
        {
          "internalType": "uint256",
          "name": "",
          "type": "uint256"
        }
      ],
      "stateMutability": "view",
      "type": "function"
    },
    {
      "inputs": [],
      "name": "HERO_MAX_LEVEL",
      "outputs": [
        {
          "internalType": "uint256",
          "name": "",
          "type": "uint256"
        }
      ],
      "stateMutability": "view",
      "type": "function"
    },
    {
      "inputs": [
        {
          "internalType": "uint256",
          "name": "heroId",
          "type": "uint256"
        },
        {
          "components": [
            {
              "internalType": "bytes32",
              "name": "name",
              "type": "bytes32"
            },
            {
              "internalType": "uint256",
              "name": "level",
              "type": "uint256"
            },
            {
              "internalType": "uint256",
              "name": "rarity",
              "type": "uint256"
            },
            {
              "internalType": "uint256",
              "name": "primaryAttribute",
              "type": "uint256"
            },
            {
              "internalType": "uint256",
              "name": "attackCapability",
              "type": "uint256"
            },
            {
              "internalType": "uint256",
              "name": "strength",
              "type": "uint256"
            },
            {
              "internalType": "uint256",
              "name": "strengthGain",
              "type": "uint256"
            },
            {
              "internalType": "uint256",
              "name": "agility",
              "type": "uint256"
            },
            {
              "internalType": "uint256",
              "name": "agilityGain",
              "type": "uint256"
            },
            {
              "internalType": "uint256",
              "name": "intelligence",
              "type": "uint256"
            },
            {
              "internalType": "uint256",
              "name": "intelligenceGain",
              "type": "uint256"
            },
            {
              "internalType": "uint256",
              "name": "experience",
              "type": "uint256"
            }
          ],
          "internalType": "struct GameFi.Hero",
          "name": "hero",
          "type": "tuple"
        }
      ],
      "name": "addHero",
      "outputs": [],
      "stateMutability": "nonpayable",
      "type": "function"
    },
    {
      "inputs": [],
      "name": "baseLevelUpFee",
      "outputs": [
        {
          "internalType": "uint256",
          "name": "",
          "type": "uint256"
        }
      ],
      "stateMutability": "view",
      "type": "function"
    },
    {
      "inputs": [],
      "name": "bonusLevelUpFee",
      "outputs": [
        {
          "internalType": "uint256",
          "name": "",
          "type": "uint256"
        }
      ],
      "stateMutability": "view",
      "type": "function"
    },
    {
      "inputs": [
        {
          "internalType": "uint256[]",
          "name": "heroIds",
          "type": "uint256[]"
        },
        {
          "internalType": "uint256",
          "name": "exp",
          "type": "uint256"
        }
      ],
      "name": "bulkExpUp",
      "outputs": [],
      "stateMutability": "nonpayable",
      "type": "function"
    },
    {
      "inputs": [
        {
          "internalType": "uint256",
          "name": "heroId",
          "type": "uint256"
        },
        {
          "internalType": "uint256",
          "name": "exp",
          "type": "uint256"
        }
      ],
      "name": "expUp",
      "outputs": [],
      "stateMutability": "nonpayable",
      "type": "function"
    },
    {
      "inputs": [
        {
          "internalType": "uint256",
          "name": "heroId",
          "type": "uint256"
        }
      ],
      "name": "heroLevel",
      "outputs": [
        {
          "internalType": "uint256",
          "name": "",
          "type": "uint256"
        }
      ],
      "stateMutability": "view",
      "type": "function"
    },
    {
      "inputs": [
        {
          "internalType": "uint256",
          "name": "heroId",
          "type": "uint256"
        }
      ],
      "name": "heroPower",
      "outputs": [
        {
          "internalType": "uint256",
          "name": "",
          "type": "uint256"
        }
      ],
      "stateMutability": "view",
      "type": "function"
    },
    {
      "inputs": [
        {
          "internalType": "uint256",
          "name": "heroId",
          "type": "uint256"
        }
      ],
      "name": "heroPrimaryAttribute",
      "outputs": [
        {
          "internalType": "uint256",
          "name": "",
          "type": "uint256"
        }
      ],
      "stateMutability": "view",
      "type": "function"
    },
    {
      "inputs": [
        {
          "internalType": "uint256",
          "name": "",
          "type": "uint256"
        }
      ],
      "name": "heroes",
      "outputs": [
        {
          "internalType": "bytes32",
          "name": "name",
          "type": "bytes32"
        },
        {
          "internalType": "uint256",
          "name": "level",
          "type": "uint256"
        },
        {
          "internalType": "uint256",
          "name": "rarity",
          "type": "uint256"
        },
        {
          "internalType": "uint256",
          "name": "primaryAttribute",
          "type": "uint256"
        },
        {
          "internalType": "uint256",
          "name": "attackCapability",
          "type": "uint256"
        },
        {
          "internalType": "uint256",
          "name": "strength",
          "type": "uint256"
        },
        {
          "internalType": "uint256",
          "name": "strengthGain",
          "type": "uint256"
        },
        {
          "internalType": "uint256",
          "name": "agility",
          "type": "uint256"
        },
        {
          "internalType": "uint256",
          "name": "agilityGain",
          "type": "uint256"
        },
        {
          "internalType": "uint256",
          "name": "intelligence",
          "type": "uint256"
        },
        {
          "internalType": "uint256",
          "name": "intelligenceGain",
          "type": "uint256"
        },
        {
          "internalType": "uint256",
          "name": "experience",
          "type": "uint256"
        }
      ],
      "stateMutability": "view",
      "type": "function"
    },
    {
      "inputs": [
        {
          "internalType": "uint256",
          "name": "heroId",
          "type": "uint256"
        },
        {
          "internalType": "uint256",
          "name": "levels",
          "type": "uint256"
        }
      ],
      "name": "levelUp",
      "outputs": [],
      "stateMutability": "nonpayable",
      "type": "function"
    },
    {
      "inputs": [],
      "name": "lobbyBattleAddress",
      "outputs": [
        {
          "internalType": "address",
          "name": "",
          "type": "address"
        }
      ],
      "stateMutability": "view",
      "type": "function"
    },
    {
      "inputs": [
        {
          "internalType": "bytes[]",
          "name": "data",
          "type": "bytes[]"
        }
      ],
      "name": "multicall",
      "outputs": [
        {
          "internalType": "bytes[]",
          "name": "results",
          "type": "bytes[]"
        }
      ],
      "stateMutability": "nonpayable",
      "type": "function"
    },
    {
      "inputs": [],
      "name": "nft",
      "outputs": [
        {
          "internalType": "contract IERC721",
          "name": "",
          "type": "address"
        }
      ],
      "stateMutability": "view",
      "type": "function"
    },
    {
      "inputs": [],
      "name": "owner",
      "outputs": [
        {
          "internalType": "address",
          "name": "",
          "type": "address"
        }
      ],
      "stateMutability": "view",
      "type": "function"
    },
    {
      "inputs": [],
      "name": "primaryPowerMultiplier",
      "outputs": [
        {
          "internalType": "uint256",
          "name": "",
          "type": "uint256"
        }
      ],
      "stateMutability": "view",
      "type": "function"
    },
    {
      "inputs": [
        {
          "internalType": "uint256",
          "name": "min",
          "type": "uint256"
        },
        {
          "internalType": "uint256",
          "name": "max",
          "type": "uint256"
        }
      ],
      "name": "random",
      "outputs": [
        {
          "internalType": "uint256",
          "name": "",
          "type": "uint256"
        }
      ],
      "stateMutability": "view",
      "type": "function"
    },
    {
      "inputs": [],
      "name": "rarityPowerBooster",
      "outputs": [
        {
          "internalType": "uint256",
          "name": "",
          "type": "uint256"
        }
      ],
      "stateMutability": "view",
      "type": "function"
    },
    {
      "inputs": [],
      "name": "renounceOwnership",
      "outputs": [],
      "stateMutability": "nonpayable",
      "type": "function"
    },
    {
      "inputs": [],
      "name": "secondaryMultiplier",
      "outputs": [
        {
          "internalType": "uint256",
          "name": "",
          "type": "uint256"
        }
      ],
      "stateMutability": "view",
      "type": "function"
    },
    {
      "inputs": [
        {
          "internalType": "uint256",
          "name": "value",
          "type": "uint256"
        }
      ],
      "name": "setBaseLevelUpFee",
      "outputs": [],
      "stateMutability": "nonpayable",
      "type": "function"
    },
    {
      "inputs": [
        {
          "internalType": "uint256",
          "name": "value",
          "type": "uint256"
        }
      ],
      "name": "setBonusLevelUpFee",
      "outputs": [],
      "stateMutability": "nonpayable",
      "type": "function"
    },
    {
      "inputs": [
        {
          "internalType": "address",
          "name": "lbAddr",
          "type": "address"
        }
      ],
      "name": "setLobbyBattle",
      "outputs": [],
      "stateMutability": "nonpayable",
      "type": "function"
    },
    {
      "inputs": [
        {
          "internalType": "address",
          "name": "nftAddress",
          "type": "address"
        }
      ],
      "name": "setNFT",
      "outputs": [],
      "stateMutability": "nonpayable",
      "type": "function"
    },
    {
      "inputs": [
        {
          "internalType": "uint256",
          "name": "value",
          "type": "uint256"
        }
      ],
      "name": "setPrimaryPowerMultiplier",
      "outputs": [],
      "stateMutability": "nonpayable",
      "type": "function"
    },
    {
      "inputs": [
        {
          "internalType": "uint256",
          "name": "value",
          "type": "uint256"
        }
      ],
      "name": "setRarityPowerBooster",
      "outputs": [],
      "stateMutability": "nonpayable",
      "type": "function"
    },
    {
      "inputs": [
        {
          "internalType": "uint256",
          "name": "value",
          "type": "uint256"
        }
      ],
      "name": "setSecondaryMultiplier",
      "outputs": [],
      "stateMutability": "nonpayable",
      "type": "function"
    },
    {
      "inputs": [
        {
          "internalType": "uint256",
          "name": "value",
          "type": "uint256"
        }
      ],
      "name": "setThirdMultiplier",
      "outputs": [],
      "stateMutability": "nonpayable",
      "type": "function"
    },
    {
      "inputs": [
        {
          "internalType": "address",
          "name": "tokenAddress",
          "type": "address"
        }
      ],
      "name": "setToken",
      "outputs": [],
      "stateMutability": "nonpayable",
      "type": "function"
    },
    {
      "inputs": [],
      "name": "thirdMultiplier",
      "outputs": [
        {
          "internalType": "uint256",
          "name": "",
          "type": "uint256"
        }
      ],
      "stateMutability": "view",
      "type": "function"
    },
    {
      "inputs": [],
      "name": "token",
      "outputs": [
        {
          "internalType": "contract IERC20",
          "name": "",
          "type": "address"
        }
      ],
      "stateMutability": "view",
      "type": "function"
    },
    {
      "inputs": [
        {
          "internalType": "address",
          "name": "newOwner",
          "type": "address"
        }
      ],
      "name": "transferOwnership",
      "outputs": [],
      "stateMutability": "nonpayable",
      "type": "function"
    },
    {
      "inputs": [
        {
          "internalType": "address payable",
          "name": "recipient",
          "type": "address"
        }
      ],
      "name": "withdrawDustETH",
      "outputs": [],
      "stateMutability": "nonpayable",
      "type": "function"
    },
    {
      "stateMutability": "payable",
      "type": "receive"
    }
  ],
  "bytecode": "0x6080604052600180546001600160a01b03199081167328ee3e2826264b9c55fcdd122dfa93680916c9b8179091556002805490911673ef5a8af5148a53a4ef4749595fe44e3e08754b8b179055690a968163f0a57b40000060045569021e19e0c9bab2400000600555600a60069081556008600781905555606e60095534801561008857600080fd5b5061009233610097565b6100e7565b600080546001600160a01b038381166001600160a01b0319831681178455604051919092169283917f8be0079c531659141344cd1fd0a4f28419497f9722a3daafe3b4186f6b6457e09190a35050565b611b24806100f66000396000f3fe6080604052600436106101fd5760003560e01c80638da5cb5b1161010d578063b00475b5116100a0578063e3a015ce1161006f578063e3a015ce14610648578063f2fde38b14610668578063f3d1b5ab14610688578063f56e9c66146106b8578063fc0c546a146106d857600080fd5b8063b00475b5146105c8578063d5c1ed8a146105e8578063dda728cd14610608578063e393c2941461062857600080fd5b8063a8d4a03b116100dc578063a8d4a03b14610491578063a9dd122514610565578063aaef012214610585578063ac9650d81461059b57600080fd5b80638da5cb5b1461041d5780639b12bc881461043b5780639bad623114610451578063a6cb826e1461047157600080fd5b806333ab0541116101905780634afca0801161015f5780634afca080146103935780635226dc93146103a85780636e7dff4d146103c8578063715018a6146103e85780637ce9dd54146103fd57600080fd5b806333ab0541146103055780633c68e1ad146103255780634018b1ce1461033b57806347ccca021461035b57600080fd5b8063144fa6d7116101cc578063144fa6d71461029a5780631ec462e0146102ba57806323cb1c36146102da57806331a03ca2146102f057600080fd5b806301783dfa1461020957806306975ac2146102325780630a36d40b1461024857806313b60c511461027857600080fd5b3661020457005b600080fd5b34801561021557600080fd5b5061021f60065481565b6040519081526020015b60405180910390f35b34801561023e57600080fd5b5061021f60055481565b34801561025457600080fd5b5061021f61026336600461157c565b6000908152600a602052604090206001015490565b34801561028457600080fd5b5061029861029336600461157c565b6106f8565b005b3480156102a657600080fd5b506102986102b53660046115aa565b610730565b3480156102c657600080fd5b506102986102d53660046115c7565b61077c565b3480156102e657600080fd5b5061021f60085481565b3480156102fc57600080fd5b5061021f601e81565b34801561031157600080fd5b5061029861032036600461157c565b61089a565b34801561033157600080fd5b5061021f60095481565b34801561034757600080fd5b506102986103563660046115aa565b6108c9565b34801561036757600080fd5b5060025461037b906001600160a01b031681565b6040516001600160a01b039091168152602001610229565b34801561039f57600080fd5b5061021f606481565b3480156103b457600080fd5b506102986103c3366004611601565b610915565b3480156103d457600080fd5b506102986103e336600461157c565b610d04565b3480156103f457600080fd5b50610298610d33565b34801561040957600080fd5b5061029861041836600461157c565b610d69565b34801561042957600080fd5b506000546001600160a01b031661037b565b34801561044757600080fd5b5061021f60045481565b34801561045d57600080fd5b5061029861046c36600461157c565b610d98565b34801561047d57600080fd5b5061029861048c366004611601565b610dc7565b34801561049d57600080fd5b5061050c6104ac36600461157c565b600a60205280600052604060002060009150905080600001549080600101549080600201549080600301549080600401549080600501549080600601549080600701549080600801549080600901549080600a01549080600b015490508c565b604080519c8d5260208d019b909b52998b019890985260608a0196909652608089019490945260a088019290925260c087015260e086015261010085015261012084015261014083015261016082015261018001610229565b34801561057157600080fd5b5061021f610580366004611601565b610ea9565b34801561059157600080fd5b5061021f60075481565b3480156105a757600080fd5b506105bb6105b636600461166f565b610f38565b6040516102299190611709565b3480156105d457600080fd5b506102986105e336600461176b565b61102d565b3480156105f457600080fd5b5061021f61060336600461157c565b611096565b34801561061457600080fd5b5061029861062336600461157c565b611284565b34801561063457600080fd5b506102986106433660046115aa565b6112b3565b34801561065457600080fd5b5060035461037b906001600160a01b031681565b34801561067457600080fd5b506102986106833660046115aa565b611312565b34801561069457600080fd5b5061021f6106a336600461157c565b6000908152600a602052604090206003015490565b3480156106c457600080fd5b506102986106d33660046115aa565b6113ad565b3480156106e457600080fd5b5060015461037b906001600160a01b031681565b6000546001600160a01b0316331461072b5760405162461bcd60e51b8152600401610722906117b7565b60405180910390fd5b600655565b6000546001600160a01b0316331461075a5760405162461bcd60e51b8152600401610722906117b7565b600180546001600160a01b0319166001600160a01b0392909216919091179055565b6000546001600160a01b031633146107a65760405162461bcd60e51b8152600401610722906117b7565b6000828152600a6020526040902060010154156108055760405162461bcd60e51b815260206004820152601f60248201527f4865726f4d616e616765723a206865726f20616c7265616479206164646564006044820152606401610722565b6000828152600a6020526040902081906108948282813581556020820135600182015560408201356002820155606082013560038201556080820135600482015560a0820135600582015560c0820135600682015560e0820135600782015561010082013560088201556101208201356009820155610140820135600a820155610160820135600b8201555050565b50505050565b6000546001600160a01b031633146108c45760405162461bcd60e51b8152600401610722906117b7565b600455565b6000546001600160a01b031633146108f35760405162461bcd60e51b8152600401610722906117b7565b600380546001600160a01b0319166001600160a01b0392909216919091179055565b6002546040516331a9108f60e11b81526004810184905233916001600160a01b031690636352211e9060240160206040518083038186803b15801561095957600080fd5b505afa15801561096d573d6000803e3d6000fd5b505050506040513d601f19601f8201168201806040525081019061099191906117ec565b6001600160a01b0316146109e75760405162461bcd60e51b815260206004820152601c60248201527f4865726f4d616e616765723a206e6f742061204e4654206f776e6572000000006044820152606401610722565b6000828152600a6020526040902060010154601e11610a485760405162461bcd60e51b815260206004820152601b60248201527f4865726f4d616e616765723a206865726f206d6178206c6576656c00000000006044820152606401610722565b6000828152600a6020526040902060010154601e90610a6890839061181f565b1115610ab65760405162461bcd60e51b815260206004820152601f60248201527f4865726f4d616e616765723a20746f6f206d616e79206c6576656c73207570006044820152606401610722565b6000828152600a60205260408120600190810154610ad49190611837565b600554610ae1919061184e565b600454610aee919061181f565b90506000600554600284600186610b059190611837565b610b0f919061184e565b610b199190611883565b610b23919061184e565b610b2d848461184e565b610b37919061181f565b6001546040516323b872dd60e01b8152336004820152306024820152604481018390529192506001600160a01b0316906323b872dd90606401602060405180830381600087803b158015610b8a57600080fd5b505af1158015610b9e573d6000803e3d6000fd5b505050506040513d601f19601f82011682018060405250810190610bc29190611897565b610c0e5760405162461bcd60e51b815260206004820152601b60248201527f4865726f4d616e616765723a206e6f7420656e6f7567682066656500000000006044820152606401610722565b6000848152600a602052604081206001018054859290610c2f90849061181f565b90915550506000848152600a6020526040902060060154610c5190849061184e565b6000858152600a602052604081206005018054909190610c7290849061181f565b90915550506000848152600a6020526040902060080154610c9490849061184e565b6000858152600a602052604081206007018054909190610cb590849061181f565b90915550506000848152600a602081905260409091200154610cd890849061184e565b6000858152600a602052604081206009018054909190610cf990849061181f565b909155505050505050565b6000546001600160a01b03163314610d2e5760405162461bcd60e51b8152600401610722906117b7565b600555565b6000546001600160a01b03163314610d5d5760405162461bcd60e51b8152600401610722906117b7565b610d6760006113f9565b565b6000546001600160a01b03163314610d935760405162461bcd60e51b8152600401610722906117b7565b600855565b6000546001600160a01b03163314610dc25760405162461bcd60e51b8152600401610722906117b7565b600955565b6003546001600160a01b0316331480610ddf57503330145b610dfb5760405162461bcd60e51b8152600401610722906118b9565b6000828152600a6020526040902060010154601e1115610ea5576000828152600a60205260408120600b018054839290610e3690849061181f565b90915550506000828152600a60205260409020600b0154606411610ea5576000828152600a60205260408120600b01805460649290610e76908490611837565b90915550506000828152600a602052604081206001908101805491929091610e9f90849061181f565b90915550505b5050565b60408051446020820152429181019190915233606090811b6bffffffffffffffffffffffff1916908201526074810183905260948101829052600090819060b40160408051601f198184030181529190528051602090910120905083610f0f8185611837565b610f1a90600161181f565b610f249083611903565b610f2e919061181f565b9150505b92915050565b60608167ffffffffffffffff811115610f5357610f53611917565b604051908082528060200260200182016040528015610f8657816020015b6060815260200190600190039081610f715790505b50905060005b8281101561102657610ff630858584818110610faa57610faa61192d565b9050602002810190610fbc9190611943565b8080601f01602080910402602001604051908101604052809392919081815260200183838082843760009201919091525061144992505050565b8282815181106110085761100861192d565b6020026020010181905250808061101e9061198a565b915050610f8c565b5092915050565b6003546001600160a01b031633146110575760405162461bcd60e51b8152600401610722906118b9565b60005b82811015610894576110848484838181106110775761107761192d565b9050602002013583610dc7565b8061108e8161198a565b91505061105a565b6000818152600a602081815260408084208151610180810183528154815260018201549381019390935260028101549183019190915260038101546060830181905260048201546080840152600582015460a0840152600682015460c0840152600782015460e08401526008820154610100840152600982015461012084015292810154610140830152600b0154610160820152908290819081906111495750505060a081015161012082015160e08301515b83606001516001141561116a5750505060e081015160a08201516101208301515b83606001516002141561118b5750505061012081015160e082015160a08301515b60006008548261119b919061184e565b6007546111a8908561184e565b6006546111b5908761184e565b6111bf919061181f565b6111c9919061181f565b90508460400151600114156111f9576064600954826111e8919061184e565b6111f29190611883565b905061127a565b8460400151600214156112225761271060026009546112189190611a89565b6111e8908361184e565b84604001516003141561124257620f424060036009546112189190611a89565b84604001516004141561127a576305f5e10060046009546112639190611a89565b61126d908361184e565b6112779190611883565b90505b9695505050505050565b6000546001600160a01b031633146112ae5760405162461bcd60e51b8152600401610722906117b7565b600755565b6000546001600160a01b031633146112dd5760405162461bcd60e51b8152600401610722906117b7565b6040516001600160a01b038216904780156108fc02916000818181858888f19350505050158015610ea5573d6000803e3d6000fd5b6000546001600160a01b0316331461133c5760405162461bcd60e51b8152600401610722906117b7565b6001600160a01b0381166113a15760405162461bcd60e51b815260206004820152602660248201527f4f776e61626c653a206e6577206f776e657220697320746865207a65726f206160448201526564647265737360d01b6064820152608401610722565b6113aa816113f9565b50565b6000546001600160a01b031633146113d75760405162461bcd60e51b8152600401610722906117b7565b600280546001600160a01b0319166001600160a01b0392909216919091179055565b600080546001600160a01b038381166001600160a01b0319831681178455604051919092169283917f8be0079c531659141344cd1fd0a4f28419497f9722a3daafe3b4186f6b6457e09190a35050565b606061146e8383604051806060016040528060278152602001611ac860279139611475565b9392505050565b60606001600160a01b0384163b6114dd5760405162461bcd60e51b815260206004820152602660248201527f416464726573733a2064656c65676174652063616c6c20746f206e6f6e2d636f6044820152651b9d1c9858dd60d21b6064820152608401610722565b600080856001600160a01b0316856040516114f89190611a98565b600060405180830381855af49150503d8060008114611533576040519150601f19603f3d011682016040523d82523d6000602084013e611538565b606091505b509150915061127a8282866060831561155257508161146e565b8251156115625782518084602001fd5b8160405162461bcd60e51b81526004016107229190611ab4565b60006020828403121561158e57600080fd5b5035919050565b6001600160a01b03811681146113aa57600080fd5b6000602082840312156115bc57600080fd5b813561146e81611595565b6000808284036101a08112156115dc57600080fd5b83359250610180601f19820112156115f357600080fd5b506020830190509250929050565b6000806040838503121561161457600080fd5b50508035926020909101359150565b60008083601f84011261163557600080fd5b50813567ffffffffffffffff81111561164d57600080fd5b6020830191508360208260051b850101111561166857600080fd5b9250929050565b6000806020838503121561168257600080fd5b823567ffffffffffffffff81111561169957600080fd5b6116a585828601611623565b90969095509350505050565b60005b838110156116cc5781810151838201526020016116b4565b838111156108945750506000910152565b600081518084526116f58160208601602086016116b1565b601f01601f19169290920160200192915050565b6000602080830181845280855180835260408601915060408160051b870101925083870160005b8281101561175e57603f1988860301845261174c8583516116dd565b94509285019290850190600101611730565b5092979650505050505050565b60008060006040848603121561178057600080fd5b833567ffffffffffffffff81111561179757600080fd5b6117a386828701611623565b909790965060209590950135949350505050565b6020808252818101527f4f776e61626c653a2063616c6c6572206973206e6f7420746865206f776e6572604082015260600190565b6000602082840312156117fe57600080fd5b815161146e81611595565b634e487b7160e01b600052601160045260246000fd5b6000821982111561183257611832611809565b500190565b60008282101561184957611849611809565b500390565b600081600019048311821515161561186857611868611809565b500290565b634e487b7160e01b600052601260045260246000fd5b6000826118925761189261186d565b500490565b6000602082840312156118a957600080fd5b8151801515811461146e57600080fd5b6020808252602a908201527f4865726f4d616e616765723a2063616c6c61626c65206279206c6f62627920626040820152696174746c65206f6e6c7960b01b606082015260800190565b6000826119125761191261186d565b500690565b634e487b7160e01b600052604160045260246000fd5b634e487b7160e01b600052603260045260246000fd5b6000808335601e1984360301811261195a57600080fd5b83018035915067ffffffffffffffff82111561197557600080fd5b60200191503681900382131561166857600080fd5b600060001982141561199e5761199e611809565b5060010190565b600181815b808511156119e05781600019048211156119c6576119c6611809565b808516156119d357918102915b93841c93908002906119aa565b509250929050565b6000826119f757506001610f32565b81611a0457506000610f32565b8160018114611a1a5760028114611a2457611a40565b6001915050610f32565b60ff841115611a3557611a35611809565b50506001821b610f32565b5060208310610133831016604e8410600b8410161715611a63575081810a610f32565b611a6d83836119a5565b8060001904821115611a8157611a81611809565b029392505050565b600061146e60ff8416836119e8565b60008251611aaa8184602087016116b1565b9190910192915050565b60208152600061146e60208301846116dd56fe416464726573733a206c6f772d6c6576656c2064656c65676174652063616c6c206661696c6564a2646970667358221220e98007e44c801f7da8d893788ab4a4148d58beecedb1af6f52050e2e9d68c55d64736f6c63430008090033",
  "linkReferences": {},
  "deployedLinkReferences": {}
}