{
  "_format": "hh-sol-artifact-1",
  "contractName": "HeroManager",
  "sourceName": "contracts/game/HeroManager.sol",
  "abi": [
    {
      "inputs": [],
      "stateMutability": "nonpayable",
      "type": "constructor"
    },
    {
      "anonymous": false,
      "inputs": [
        {
          "indexed": true,
          "internalType": "address",
          "name": "previousOwner",
          "type": "address"
        },
        {
          "indexed": true,
          "internalType": "address",
          "name": "newOwner",
          "type": "address"
        }
      ],
      "name": "OwnershipTransferred",
      "type": "event"
    },
    {
      "inputs": [],
      "name": "HERO_MAX_EXP",
      "outputs": [
        {
          "internalType": "uint256",
          "name": "",
          "type": "uint256"
        }
      ],
      "stateMutability": "view",
      "type": "function"
    },
    {
      "inputs": [],
      "name": "HERO_MAX_LEVEL",
      "outputs": [
        {
          "internalType": "uint256",
          "name": "",
          "type": "uint256"
        }
      ],
      "stateMutability": "view",
      "type": "function"
    },
    {
      "inputs": [],
      "name": "NFT",
      "outputs": [
        {
          "internalType": "contract IERC721",
          "name": "",
          "type": "address"
        }
      ],
      "stateMutability": "view",
      "type": "function"
    },
    {
      "inputs": [],
      "name": "TOKEN",
      "outputs": [
        {
          "internalType": "contract IERC20",
          "name": "",
          "type": "address"
        }
      ],
      "stateMutability": "view",
      "type": "function"
    },
    {
      "inputs": [
        {
          "internalType": "uint256",
          "name": "heroId",
          "type": "uint256"
        },
        {
          "components": [
            {
              "internalType": "bytes32",
              "name": "name",
              "type": "bytes32"
            },
            {
              "internalType": "uint256",
              "name": "level",
              "type": "uint256"
            },
            {
              "internalType": "uint256",
              "name": "rarity",
              "type": "uint256"
            },
            {
              "internalType": "uint256",
              "name": "primaryAttribute",
              "type": "uint256"
            },
            {
              "internalType": "uint256",
              "name": "attackCapability",
              "type": "uint256"
            },
            {
              "internalType": "uint256",
              "name": "strength",
              "type": "uint256"
            },
            {
              "internalType": "uint256",
              "name": "strengthGain",
              "type": "uint256"
            },
            {
              "internalType": "uint256",
              "name": "agility",
              "type": "uint256"
            },
            {
              "internalType": "uint256",
              "name": "agilityGain",
              "type": "uint256"
            },
            {
              "internalType": "uint256",
              "name": "intelligence",
              "type": "uint256"
            },
            {
              "internalType": "uint256",
              "name": "intelligenceGain",
              "type": "uint256"
            },
            {
              "internalType": "uint256",
              "name": "experience",
              "type": "uint256"
            }
          ],
          "internalType": "struct GameFi.Hero",
          "name": "hero",
          "type": "tuple"
        }
      ],
      "name": "addHero",
      "outputs": [],
      "stateMutability": "nonpayable",
      "type": "function"
    },
    {
      "inputs": [],
      "name": "baseLevelUpFee",
      "outputs": [
        {
          "internalType": "uint256",
          "name": "",
          "type": "uint256"
        }
      ],
      "stateMutability": "view",
      "type": "function"
    },
    {
      "inputs": [],
      "name": "bonusExp",
      "outputs": [
        {
          "internalType": "uint256",
          "name": "",
          "type": "uint256"
        }
      ],
      "stateMutability": "view",
      "type": "function"
    },
    {
      "inputs": [],
      "name": "bonusLevelUpFee",
      "outputs": [
        {
          "internalType": "uint256",
          "name": "",
          "type": "uint256"
        }
      ],
      "stateMutability": "view",
      "type": "function"
    },
    {
      "inputs": [
        {
          "internalType": "uint256[]",
          "name": "heroIds",
          "type": "uint256[]"
        },
        {
          "internalType": "bool",
          "name": "won",
          "type": "bool"
        }
      ],
      "name": "bulkExpUp",
      "outputs": [],
      "stateMutability": "nonpayable",
      "type": "function"
    },
    {
      "inputs": [],
      "name": "expDiff",
      "outputs": [
        {
          "internalType": "uint256",
          "name": "",
          "type": "uint256"
        }
      ],
      "stateMutability": "view",
      "type": "function"
    },
    {
      "inputs": [
        {
          "internalType": "uint256",
          "name": "heroId",
          "type": "uint256"
        },
        {
          "internalType": "bool",
          "name": "won",
          "type": "bool"
        }
      ],
      "name": "expUp",
      "outputs": [],
      "stateMutability": "nonpayable",
      "type": "function"
    },
    {
      "inputs": [
        {
          "internalType": "uint256",
          "name": "heroId",
          "type": "uint256"
        }
      ],
      "name": "heroBonusExp",
      "outputs": [
        {
          "internalType": "uint256",
          "name": "",
          "type": "uint256"
        }
      ],
      "stateMutability": "view",
      "type": "function"
    },
    {
      "inputs": [
        {
          "internalType": "uint256",
          "name": "heroId",
          "type": "uint256"
        }
      ],
      "name": "heroLevel",
      "outputs": [
        {
          "internalType": "uint256",
          "name": "",
          "type": "uint256"
        }
      ],
      "stateMutability": "view",
      "type": "function"
    },
    {
      "inputs": [
        {
          "internalType": "uint256",
          "name": "heroId",
          "type": "uint256"
        }
      ],
      "name": "heroPower",
      "outputs": [
        {
          "internalType": "uint256",
          "name": "",
          "type": "uint256"
        }
      ],
      "stateMutability": "view",
      "type": "function"
    },
    {
      "inputs": [
        {
          "internalType": "uint256",
          "name": "heroId",
          "type": "uint256"
        }
      ],
      "name": "heroPrimaryAttribute",
      "outputs": [
        {
          "internalType": "uint256",
          "name": "",
          "type": "uint256"
        }
      ],
      "stateMutability": "view",
      "type": "function"
    },
    {
      "inputs": [
        {
          "internalType": "uint256",
          "name": "",
          "type": "uint256"
        }
      ],
      "name": "heroes",
      "outputs": [
        {
          "internalType": "bytes32",
          "name": "name",
          "type": "bytes32"
        },
        {
          "internalType": "uint256",
          "name": "level",
          "type": "uint256"
        },
        {
          "internalType": "uint256",
          "name": "rarity",
          "type": "uint256"
        },
        {
          "internalType": "uint256",
          "name": "primaryAttribute",
          "type": "uint256"
        },
        {
          "internalType": "uint256",
          "name": "attackCapability",
          "type": "uint256"
        },
        {
          "internalType": "uint256",
          "name": "strength",
          "type": "uint256"
        },
        {
          "internalType": "uint256",
          "name": "strengthGain",
          "type": "uint256"
        },
        {
          "internalType": "uint256",
          "name": "agility",
          "type": "uint256"
        },
        {
          "internalType": "uint256",
          "name": "agilityGain",
          "type": "uint256"
        },
        {
          "internalType": "uint256",
          "name": "intelligence",
          "type": "uint256"
        },
        {
          "internalType": "uint256",
          "name": "intelligenceGain",
          "type": "uint256"
        },
        {
          "internalType": "uint256",
          "name": "experience",
          "type": "uint256"
        }
      ],
      "stateMutability": "view",
      "type": "function"
    },
    {
      "inputs": [
        {
          "internalType": "uint256",
          "name": "heroId",
          "type": "uint256"
        },
        {
          "internalType": "uint256",
          "name": "levels",
          "type": "uint256"
        }
      ],
      "name": "levelUp",
      "outputs": [],
      "stateMutability": "nonpayable",
      "type": "function"
    },
    {
      "inputs": [],
      "name": "lobbyBattleAddress",
      "outputs": [
        {
          "internalType": "address",
          "name": "",
          "type": "address"
        }
      ],
      "stateMutability": "view",
      "type": "function"
    },
    {
      "inputs": [
        {
          "internalType": "bytes[]",
          "name": "data",
          "type": "bytes[]"
        }
      ],
      "name": "multicall",
      "outputs": [
        {
          "internalType": "bytes[]",
          "name": "results",
          "type": "bytes[]"
        }
      ],
      "stateMutability": "nonpayable",
      "type": "function"
    },
    {
      "inputs": [],
      "name": "owner",
      "outputs": [
        {
          "internalType": "address",
          "name": "",
          "type": "address"
        }
      ],
      "stateMutability": "view",
      "type": "function"
    },
    {
      "inputs": [],
      "name": "primaryPowerMultiplier",
      "outputs": [
        {
          "internalType": "uint256",
          "name": "",
          "type": "uint256"
        }
      ],
      "stateMutability": "view",
      "type": "function"
    },
    {
      "inputs": [
        {
          "internalType": "uint256",
          "name": "min",
          "type": "uint256"
        },
        {
          "internalType": "uint256",
          "name": "max",
          "type": "uint256"
        }
      ],
      "name": "random",
      "outputs": [
        {
          "internalType": "uint256",
          "name": "",
          "type": "uint256"
        }
      ],
      "stateMutability": "view",
      "type": "function"
    },
    {
      "inputs": [],
      "name": "rarityPowerBooster",
      "outputs": [
        {
          "internalType": "uint256",
          "name": "",
          "type": "uint256"
        }
      ],
      "stateMutability": "view",
      "type": "function"
    },
    {
      "inputs": [],
      "name": "renounceOwnership",
      "outputs": [],
      "stateMutability": "nonpayable",
      "type": "function"
    },
    {
      "inputs": [],
      "name": "secondaryMultiplier",
      "outputs": [
        {
          "internalType": "uint256",
          "name": "",
          "type": "uint256"
        }
      ],
      "stateMutability": "view",
      "type": "function"
    },
    {
      "inputs": [
        {
          "internalType": "uint256",
          "name": "value",
          "type": "uint256"
        }
      ],
      "name": "setBaseLevelUpFee",
      "outputs": [],
      "stateMutability": "nonpayable",
      "type": "function"
    },
    {
      "inputs": [
        {
          "internalType": "uint256",
          "name": "value",
          "type": "uint256"
        }
      ],
      "name": "setBonusExp",
      "outputs": [],
      "stateMutability": "nonpayable",
      "type": "function"
    },
    {
      "inputs": [
        {
          "internalType": "uint256",
          "name": "value",
          "type": "uint256"
        }
      ],
      "name": "setBonusLevelUpFee",
      "outputs": [],
      "stateMutability": "nonpayable",
      "type": "function"
    },
    {
      "inputs": [
        {
          "internalType": "uint256",
          "name": "value",
          "type": "uint256"
        }
      ],
      "name": "setExpDiff",
      "outputs": [],
      "stateMutability": "nonpayable",
      "type": "function"
    },
    {
      "inputs": [
        {
          "internalType": "address",
          "name": "lbAddr",
          "type": "address"
        }
      ],
      "name": "setLobbyBattle",
      "outputs": [],
      "stateMutability": "nonpayable",
      "type": "function"
    },
    {
      "inputs": [
        {
          "internalType": "uint256",
          "name": "value",
          "type": "uint256"
        }
      ],
      "name": "setPrimaryPowerMultiplier",
      "outputs": [],
      "stateMutability": "nonpayable",
      "type": "function"
    },
    {
      "inputs": [
        {
          "internalType": "uint256",
          "name": "value",
          "type": "uint256"
        }
      ],
      "name": "setRarityPowerBooster",
      "outputs": [],
      "stateMutability": "nonpayable",
      "type": "function"
    },
    {
      "inputs": [
        {
          "internalType": "uint256",
          "name": "value",
          "type": "uint256"
        }
      ],
      "name": "setSecondaryMultiplier",
      "outputs": [],
      "stateMutability": "nonpayable",
      "type": "function"
    },
    {
      "inputs": [
        {
          "internalType": "uint256",
          "name": "value",
          "type": "uint256"
        }
      ],
      "name": "setThirdMultiplier",
      "outputs": [],
      "stateMutability": "nonpayable",
      "type": "function"
    },
    {
      "inputs": [],
      "name": "thirdMultiplier",
      "outputs": [
        {
          "internalType": "uint256",
          "name": "",
          "type": "uint256"
        }
      ],
      "stateMutability": "view",
      "type": "function"
    },
    {
      "inputs": [
        {
          "internalType": "address",
          "name": "newOwner",
          "type": "address"
        }
      ],
      "name": "transferOwnership",
      "outputs": [],
      "stateMutability": "nonpayable",
      "type": "function"
    },
    {
      "inputs": [
        {
          "internalType": "address payable",
          "name": "recipient",
          "type": "address"
        }
      ],
      "name": "withdrawDustETH",
      "outputs": [],
      "stateMutability": "nonpayable",
      "type": "function"
    },
    {
      "stateMutability": "payable",
      "type": "receive"
    }
  ],
  "bytecode": "0x6080604052690a968163f0a57b40000060025569021e19e0c9bab2400000600355600a600455600860055560068055606e6007556801a055690d9db80000600855600460095534801561005157600080fd5b5061005b33610060565b6100b0565b600080546001600160a01b038381166001600160a01b0319831681178455604051919092169283917f8be0079c531659141344cd1fd0a4f28419497f9722a3daafe3b4186f6b6457e09190a35050565b611c45806100bf6000396000f3fe60806040526004361061021e5760003560e01c8063852eebff11610123578063b0a04efa116100ab578063e393c2941161006f578063e393c294146106cd578063e3a015ce146106ed578063f2fde38b1461070d578063f3d1b5ab1461072d578063fc5850341461075d57600080fd5b8063b0a04efa1461062d578063b8830f9f1461064d578063cc0f6f781461066d578063d5c1ed8a1461068d578063dda728cd146106ad57600080fd5b8063a8d4a03b116100f2578063a8d4a03b146104e0578063a9dd1225146105b4578063aaef0122146105d4578063ab405145146105ea578063ac9650d81461060057600080fd5b8063852eebff1461046c5780638da5cb5b1461048c5780639b12bc88146104aa5780639bad6231146104c057600080fd5b80634018b1ce116101a65780636e7dff4d116101755780636e7dff4d146103af578063715018a6146103cf5780637c0b8de2146103e45780637ce9dd541461042457806382bfefc81461044457600080fd5b80634018b1ce1461033c5780634afca0801461035c5780634fbd1edc146103795780635226dc931461038f57600080fd5b80631ec462e0116101ed5780631ec462e0146102bb57806323cb1c36146102db57806331a03ca2146102f157806333ab0541146103065780633c68e1ad1461032657600080fd5b806301783dfa1461022a57806306975ac2146102535780630a36d40b1461026957806313b60c511461029957600080fd5b3661022557005b600080fd5b34801561023657600080fd5b5061024060045481565b6040519081526020015b60405180910390f35b34801561025f57600080fd5b5061024060035481565b34801561027557600080fd5b50610240610284366004611659565b6000908152600a602052604090206001015490565b3480156102a557600080fd5b506102b96102b4366004611659565b61077d565b005b3480156102c757600080fd5b506102b96102d6366004611672565b6107b5565b3480156102e757600080fd5b5061024060065481565b3480156102fd57600080fd5b50610240601e81565b34801561031257600080fd5b506102b9610321366004611659565b6108d3565b34801561033257600080fd5b5061024060075481565b34801561034857600080fd5b506102b96103573660046116c1565b610902565b34801561036857600080fd5b5061024068056bc75e2d6310000081565b34801561038557600080fd5b5061024060095481565b34801561039b57600080fd5b506102b96103aa3660046116de565b61094e565b3480156103bb57600080fd5b506102b96103ca366004611659565b610d4f565b3480156103db57600080fd5b506102b9610d7e565b3480156103f057600080fd5b5061040c7376b713ff56b9cad82b2820202537a98182b5a0ec81565b6040516001600160a01b03909116815260200161024a565b34801561043057600080fd5b506102b961043f366004611659565b610db4565b34801561045057600080fd5b5061040c7328ee3e2826264b9c55fcdd122dfa93680916c9b881565b34801561047857600080fd5b506102b961048736600461175a565b610de3565b34801561049857600080fd5b506000546001600160a01b031661040c565b3480156104b657600080fd5b5061024060025481565b3480156104cc57600080fd5b506102b96104db366004611659565b610e4c565b3480156104ec57600080fd5b5061055b6104fb366004611659565b600a60205280600052604060002060009150905080600001549080600101549080600201549080600301549080600401549080600501549080600601549080600701549080600801549080600901549080600a01549080600b015490508c565b604080519c8d5260208d019b909b52998b019890985260608a0196909652608089019490945260a088019290925260c087015260e08601526101008501526101208401526101408301526101608201526101800161024a565b3480156105c057600080fd5b506102406105cf3660046116de565b610e7b565b3480156105e057600080fd5b5061024060055481565b3480156105f657600080fd5b5061024060085481565b34801561060c57600080fd5b5061062061061b3660046117b1565b610f0a565b60405161024a919061184b565b34801561063957600080fd5b506102b96106483660046118ad565b610fff565b34801561065957600080fd5b506102b9610668366004611659565b611120565b34801561067957600080fd5b506102b9610688366004611659565b61114f565b34801561069957600080fd5b506102406106a8366004611659565b61117e565b3480156106b957600080fd5b506102b96106c8366004611659565b61136c565b3480156106d957600080fd5b506102b96106e83660046116c1565b61139b565b3480156106f957600080fd5b5060015461040c906001600160a01b031681565b34801561071957600080fd5b506102b96107283660046116c1565b6113fe565b34801561073957600080fd5b50610240610748366004611659565b6000908152600a602052604090206003015490565b34801561076957600080fd5b50610240610778366004611659565b611499565b6000546001600160a01b031633146107b05760405162461bcd60e51b81526004016107a7906118dd565b60405180910390fd5b600455565b6000546001600160a01b031633146107df5760405162461bcd60e51b81526004016107a7906118dd565b6000828152600a60205260409020600101541561083e5760405162461bcd60e51b815260206004820152601f60248201527f4865726f4d616e616765723a206865726f20616c72656164792061646465640060448201526064016107a7565b6000828152600a6020526040902081906108cd8282813581556020820135600182015560408201356002820155606082013560038201556080820135600482015560a0820135600582015560c0820135600682015560e0820135600782015561010082013560088201556101208201356009820155610140820135600a820155610160820135600b8201555050565b50505050565b6000546001600160a01b031633146108fd5760405162461bcd60e51b81526004016107a7906118dd565b600255565b6000546001600160a01b0316331461092c5760405162461bcd60e51b81526004016107a7906118dd565b600180546001600160a01b0319166001600160a01b0392909216919091179055565b6040516331a9108f60e11b81526004810183905233907376b713ff56b9cad82b2820202537a98182b5a0ec90636352211e9060240160206040518083038186803b15801561099b57600080fd5b505afa1580156109af573d6000803e3d6000fd5b505050506040513d601f19601f820116820180604052508101906109d39190611912565b6001600160a01b031614610a295760405162461bcd60e51b815260206004820152601c60248201527f4865726f4d616e616765723a206e6f742061204e4654206f776e65720000000060448201526064016107a7565b6000828152600a6020526040902060010154601e11610a8a5760405162461bcd60e51b815260206004820152601b60248201527f4865726f4d616e616765723a206865726f206d6178206c6576656c000000000060448201526064016107a7565b6000828152600a6020526040902060010154601e90610aaa908390611945565b1115610af85760405162461bcd60e51b815260206004820152601f60248201527f4865726f4d616e616765723a20746f6f206d616e79206c6576656c732075700060448201526064016107a7565b6000828152600a60205260408120600190810154610b16919061195d565b600354610b239190611974565b600254610b309190611945565b90506000600354600284600186610b47919061195d565b610b519190611974565b610b5b91906119a9565b610b659190611974565b610b6f8484611974565b610b799190611945565b6040516323b872dd60e01b8152336004820152306024820152604481018290529091507328ee3e2826264b9c55fcdd122dfa93680916c9b8906323b872dd90606401602060405180830381600087803b158015610bd557600080fd5b505af1158015610be9573d6000803e3d6000fd5b505050506040513d601f19601f82011682018060405250810190610c0d91906119bd565b610c595760405162461bcd60e51b815260206004820152601b60248201527f4865726f4d616e616765723a206e6f7420656e6f75676820666565000000000060448201526064016107a7565b6000848152600a602052604081206001018054859290610c7a908490611945565b90915550506000848152600a6020526040902060060154610c9c908490611974565b6000858152600a602052604081206005018054909190610cbd908490611945565b90915550506000848152600a6020526040902060080154610cdf908490611974565b6000858152600a602052604081206007018054909190610d00908490611945565b90915550506000848152600a602081905260409091200154610d23908490611974565b6000858152600a602052604081206009018054909190610d44908490611945565b909155505050505050565b6000546001600160a01b03163314610d795760405162461bcd60e51b81526004016107a7906118dd565b600355565b6000546001600160a01b03163314610da85760405162461bcd60e51b81526004016107a7906118dd565b610db260006114d6565b565b6000546001600160a01b03163314610dde5760405162461bcd60e51b81526004016107a7906118dd565b600655565b6001546001600160a01b03163314610e0d5760405162461bcd60e51b81526004016107a7906119da565b60005b828110156108cd57610e3a848483818110610e2d57610e2d611a24565b9050602002013583610fff565b80610e4481611a3a565b915050610e10565b6000546001600160a01b03163314610e765760405162461bcd60e51b81526004016107a7906118dd565b600755565b60408051446020820152429181019190915233606090811b6bffffffffffffffffffffffff1916908201526074810183905260948101829052600090819060b40160408051601f198184030181529190528051602090910120905083610ee1818561195d565b610eec906001611945565b610ef69083611a55565b610f009190611945565b9150505b92915050565b60608167ffffffffffffffff811115610f2557610f25611a69565b604051908082528060200260200182016040528015610f5857816020015b6060815260200190600190039081610f435790505b50905060005b82811015610ff857610fc830858584818110610f7c57610f7c611a24565b9050602002810190610f8e9190611a7f565b8080601f01602080910402602001604051908101604052809392919081815260200183838082843760009201919091525061152692505050565b828281518110610fda57610fda611a24565b60200260200101819052508080610ff090611a3a565b915050610f5e565b5092915050565b6001546001600160a01b031633148061101757503330145b6110335760405162461bcd60e51b81526004016107a7906119da565b6000816110555760095461104684611499565b61105091906119a9565b61105e565b61105e83611499565b6000848152600a6020526040902060010154909150601e111561111b576000838152600a60205260408120600b01805483929061109c908490611945565b90915550506000838152600a60205260409020600b015468056bc75e2d631000001161111b576000838152600a60205260408120600b01805468056bc75e2d6310000092906110ec90849061195d565b90915550506000838152600a602052604081206001908101805491929091611115908490611945565b90915550505b505050565b6000546001600160a01b0316331461114a5760405162461bcd60e51b81526004016107a7906118dd565b600855565b6000546001600160a01b031633146111795760405162461bcd60e51b81526004016107a7906118dd565b600955565b6000818152600a602081815260408084208151610180810183528154815260018201549381019390935260028101549183019190915260038101546060830181905260048201546080840152600582015460a0840152600682015460c0840152600782015460e08401526008820154610100840152600982015461012084015292810154610140830152600b0154610160820152908290819081906112315750505060a081015161012082015160e08301515b8360600151600114156112525750505060e081015160a08201516101208301515b8360600151600214156112735750505061012081015160e082015160a08301515b6000600654826112839190611974565b6005546112909085611974565b60045461129d9087611974565b6112a79190611945565b6112b19190611945565b90508460400151600114156112e1576064600754826112d09190611974565b6112da91906119a9565b9050611362565b84604001516002141561130a5761271060026007546113009190611baa565b6112d09083611974565b84604001516003141561132a57620f424060036007546113009190611baa565b846040015160041415611362576305f5e100600460075461134b9190611baa565b6113559083611974565b61135f91906119a9565b90505b9695505050505050565b6000546001600160a01b031633146113965760405162461bcd60e51b81526004016107a7906118dd565b600555565b6000546001600160a01b031633146113c55760405162461bcd60e51b81526004016107a7906118dd565b6040516001600160a01b038216904780156108fc02916000818181858888f193505050501580156113fa573d6000803e3d6000fd5b5050565b6000546001600160a01b031633146114285760405162461bcd60e51b81526004016107a7906118dd565b6001600160a01b03811661148d5760405162461bcd60e51b815260206004820152602660248201527f4f776e61626c653a206e6577206f776e657220697320746865207a65726f206160448201526564647265737360d01b60648201526084016107a7565b611496816114d6565b50565b6000818152600a602052604081206001908101546114b7919061195d565b6114c990670de0b6b3a7640000611974565b600854610f04919061195d565b600080546001600160a01b038381166001600160a01b0319831681178455604051919092169283917f8be0079c531659141344cd1fd0a4f28419497f9722a3daafe3b4186f6b6457e09190a35050565b606061154b8383604051806060016040528060278152602001611be960279139611552565b9392505050565b60606001600160a01b0384163b6115ba5760405162461bcd60e51b815260206004820152602660248201527f416464726573733a2064656c65676174652063616c6c20746f206e6f6e2d636f6044820152651b9d1c9858dd60d21b60648201526084016107a7565b600080856001600160a01b0316856040516115d59190611bb9565b600060405180830381855af49150503d8060008114611610576040519150601f19603f3d011682016040523d82523d6000602084013e611615565b606091505b50915091506113628282866060831561162f57508161154b565b82511561163f5782518084602001fd5b8160405162461bcd60e51b81526004016107a79190611bd5565b60006020828403121561166b57600080fd5b5035919050565b6000808284036101a081121561168757600080fd5b83359250610180601f198201121561169e57600080fd5b506020830190509250929050565b6001600160a01b038116811461149657600080fd5b6000602082840312156116d357600080fd5b813561154b816116ac565b600080604083850312156116f157600080fd5b50508035926020909101359150565b60008083601f84011261171257600080fd5b50813567ffffffffffffffff81111561172a57600080fd5b6020830191508360208260051b850101111561174557600080fd5b9250929050565b801515811461149657600080fd5b60008060006040848603121561176f57600080fd5b833567ffffffffffffffff81111561178657600080fd5b61179286828701611700565b90945092505060208401356117a68161174c565b809150509250925092565b600080602083850312156117c457600080fd5b823567ffffffffffffffff8111156117db57600080fd5b6117e785828601611700565b90969095509350505050565b60005b8381101561180e5781810151838201526020016117f6565b838111156108cd5750506000910152565b600081518084526118378160208601602086016117f3565b601f01601f19169290920160200192915050565b6000602080830181845280855180835260408601915060408160051b870101925083870160005b828110156118a057603f1988860301845261188e85835161181f565b94509285019290850190600101611872565b5092979650505050505050565b600080604083850312156118c057600080fd5b8235915060208301356118d28161174c565b809150509250929050565b6020808252818101527f4f776e61626c653a2063616c6c6572206973206e6f7420746865206f776e6572604082015260600190565b60006020828403121561192457600080fd5b815161154b816116ac565b634e487b7160e01b600052601160045260246000fd5b600082198211156119585761195861192f565b500190565b60008282101561196f5761196f61192f565b500390565b600081600019048311821515161561198e5761198e61192f565b500290565b634e487b7160e01b600052601260045260246000fd5b6000826119b8576119b8611993565b500490565b6000602082840312156119cf57600080fd5b815161154b8161174c565b6020808252602a908201527f4865726f4d616e616765723a2063616c6c61626c65206279206c6f62627920626040820152696174746c65206f6e6c7960b01b606082015260800190565b634e487b7160e01b600052603260045260246000fd5b6000600019821415611a4e57611a4e61192f565b5060010190565b600082611a6457611a64611993565b500690565b634e487b7160e01b600052604160045260246000fd5b6000808335601e19843603018112611a9657600080fd5b83018035915067ffffffffffffffff821115611ab157600080fd5b60200191503681900382131561174557600080fd5b600181815b80851115611b01578160001904821115611ae757611ae761192f565b80851615611af457918102915b93841c9390800290611acb565b509250929050565b600082611b1857506001610f04565b81611b2557506000610f04565b8160018114611b3b5760028114611b4557611b61565b6001915050610f04565b60ff841115611b5657611b5661192f565b50506001821b610f04565b5060208310610133831016604e8410600b8410161715611b84575081810a610f04565b611b8e8383611ac6565b8060001904821115611ba257611ba261192f565b029392505050565b600061154b60ff841683611b09565b60008251611bcb8184602087016117f3565b9190910192915050565b60208152600061154b602083018461181f56fe416464726573733a206c6f772d6c6576656c2064656c65676174652063616c6c206661696c6564a2646970667358221220adc520ed301f02a166bfe571fba3d98004083cb59c4ff682ab6cb295c3ae55ab64736f6c63430008090033",
  "linkReferences": {},
  "deployedLinkReferences": {}
}