{
  "_format": "hh-sol-artifact-1",
  "contractName": "HeroInfinityNodePool",
  "sourceName": "contracts/HeroInfinityNodePool.sol",
  "abi": [
    {
      "inputs": [],
      "stateMutability": "nonpayable",
      "type": "constructor"
    },
    {
      "anonymous": false,
      "inputs": [
        {
          "indexed": true,
          "internalType": "address",
          "name": "previousOwner",
          "type": "address"
        },
        {
          "indexed": true,
          "internalType": "address",
          "name": "newOwner",
          "type": "address"
        }
      ],
      "name": "OwnershipTransferred",
      "type": "event"
    },
    {
      "inputs": [
        {
          "internalType": "uint256",
          "name": "newNodePrice",
          "type": "uint256"
        }
      ],
      "name": "changeNodePrice",
      "outputs": [],
      "stateMutability": "nonpayable",
      "type": "function"
    },
    {
      "inputs": [
        {
          "internalType": "uint256",
          "name": "_rewardPerDay",
          "type": "uint256"
        }
      ],
      "name": "changeRewardPerNode",
      "outputs": [],
      "stateMutability": "nonpayable",
      "type": "function"
    },
    {
      "inputs": [],
      "name": "claimAllNodesReward",
      "outputs": [],
      "stateMutability": "nonpayable",
      "type": "function"
    },
    {
      "inputs": [
        {
          "internalType": "uint256",
          "name": "_creationTime",
          "type": "uint256"
        }
      ],
      "name": "claimNodeReward",
      "outputs": [],
      "stateMutability": "nonpayable",
      "type": "function"
    },
    {
      "inputs": [
        {
          "internalType": "string",
          "name": "nodeName",
          "type": "string"
        },
        {
          "internalType": "uint256",
          "name": "count",
          "type": "uint256"
        }
      ],
      "name": "createNode",
      "outputs": [],
      "stateMutability": "nonpayable",
      "type": "function"
    },
    {
      "inputs": [],
      "name": "feeAmount",
      "outputs": [
        {
          "internalType": "uint256",
          "name": "",
          "type": "uint256"
        }
      ],
      "stateMutability": "view",
      "type": "function"
    },
    {
      "inputs": [],
      "name": "feeDuration",
      "outputs": [
        {
          "internalType": "uint256",
          "name": "",
          "type": "uint256"
        }
      ],
      "stateMutability": "view",
      "type": "function"
    },
    {
      "inputs": [
        {
          "internalType": "address",
          "name": "account",
          "type": "address"
        }
      ],
      "name": "getNodeNumberOf",
      "outputs": [
        {
          "internalType": "uint256",
          "name": "",
          "type": "uint256"
        }
      ],
      "stateMutability": "view",
      "type": "function"
    },
    {
      "inputs": [
        {
          "internalType": "address",
          "name": "account",
          "type": "address"
        }
      ],
      "name": "getNodes",
      "outputs": [
        {
          "components": [
            {
              "internalType": "string",
              "name": "name",
              "type": "string"
            },
            {
              "internalType": "uint256",
              "name": "creationTime",
              "type": "uint256"
            },
            {
              "internalType": "uint256",
              "name": "lastClaimTime",
              "type": "uint256"
            },
            {
              "internalType": "uint256",
              "name": "feeTime",
              "type": "uint256"
            },
            {
              "internalType": "uint256",
              "name": "dueTime",
              "type": "uint256"
            }
          ],
          "internalType": "struct HeroInfinityNodePool.NodeEntity[]",
          "name": "nodes",
          "type": "tuple[]"
        }
      ],
      "stateMutability": "view",
      "type": "function"
    },
    {
      "inputs": [
        {
          "internalType": "address",
          "name": "account",
          "type": "address"
        },
        {
          "internalType": "uint256",
          "name": "creationTime",
          "type": "uint256"
        }
      ],
      "name": "getRewardAmountOf",
      "outputs": [
        {
          "internalType": "uint256",
          "name": "",
          "type": "uint256"
        }
      ],
      "stateMutability": "view",
      "type": "function"
    },
    {
      "inputs": [
        {
          "internalType": "address",
          "name": "account",
          "type": "address"
        }
      ],
      "name": "getRewardTotalAmountOf",
      "outputs": [
        {
          "internalType": "uint256",
          "name": "",
          "type": "uint256"
        }
      ],
      "stateMutability": "view",
      "type": "function"
    },
    {
      "inputs": [],
      "name": "hriToken",
      "outputs": [
        {
          "internalType": "contract IERC20",
          "name": "",
          "type": "address"
        }
      ],
      "stateMutability": "view",
      "type": "function"
    },
    {
      "inputs": [],
      "name": "maxNodes",
      "outputs": [
        {
          "internalType": "uint256",
          "name": "",
          "type": "uint256"
        }
      ],
      "stateMutability": "view",
      "type": "function"
    },
    {
      "inputs": [
        {
          "internalType": "address",
          "name": "",
          "type": "address"
        }
      ],
      "name": "nodeOwners",
      "outputs": [
        {
          "internalType": "uint256",
          "name": "",
          "type": "uint256"
        }
      ],
      "stateMutability": "view",
      "type": "function"
    },
    {
      "inputs": [],
      "name": "nodePrice",
      "outputs": [
        {
          "internalType": "uint256",
          "name": "",
          "type": "uint256"
        }
      ],
      "stateMutability": "view",
      "type": "function"
    },
    {
      "inputs": [],
      "name": "overDuration",
      "outputs": [
        {
          "internalType": "uint256",
          "name": "",
          "type": "uint256"
        }
      ],
      "stateMutability": "view",
      "type": "function"
    },
    {
      "inputs": [],
      "name": "owner",
      "outputs": [
        {
          "internalType": "address",
          "name": "",
          "type": "address"
        }
      ],
      "stateMutability": "view",
      "type": "function"
    },
    {
      "inputs": [],
      "name": "payAllNodesFee",
      "outputs": [],
      "stateMutability": "payable",
      "type": "function"
    },
    {
      "inputs": [
        {
          "internalType": "uint256",
          "name": "_creationTime",
          "type": "uint256"
        }
      ],
      "name": "payNodeFee",
      "outputs": [],
      "stateMutability": "payable",
      "type": "function"
    },
    {
      "inputs": [],
      "name": "renounceOwnership",
      "outputs": [],
      "stateMutability": "nonpayable",
      "type": "function"
    },
    {
      "inputs": [],
      "name": "rewardPerDay",
      "outputs": [
        {
          "internalType": "uint256",
          "name": "",
          "type": "uint256"
        }
      ],
      "stateMutability": "view",
      "type": "function"
    },
    {
      "inputs": [
        {
          "internalType": "uint256",
          "name": "_feeAmount",
          "type": "uint256"
        }
      ],
      "name": "setFeeAmount",
      "outputs": [],
      "stateMutability": "nonpayable",
      "type": "function"
    },
    {
      "inputs": [
        {
          "internalType": "uint256",
          "name": "_feeDuration",
          "type": "uint256"
        }
      ],
      "name": "setFeeDuration",
      "outputs": [],
      "stateMutability": "nonpayable",
      "type": "function"
    },
    {
      "inputs": [
        {
          "internalType": "uint256",
          "name": "_count",
          "type": "uint256"
        }
      ],
      "name": "setMaxNodes",
      "outputs": [],
      "stateMutability": "nonpayable",
      "type": "function"
    },
    {
      "inputs": [
        {
          "internalType": "uint256",
          "name": "_overDuration",
          "type": "uint256"
        }
      ],
      "name": "setOverDuration",
      "outputs": [],
      "stateMutability": "nonpayable",
      "type": "function"
    },
    {
      "inputs": [],
      "name": "totalNodesCreated",
      "outputs": [
        {
          "internalType": "uint256",
          "name": "",
          "type": "uint256"
        }
      ],
      "stateMutability": "view",
      "type": "function"
    },
    {
      "inputs": [
        {
          "internalType": "address",
          "name": "newOwner",
          "type": "address"
        }
      ],
      "name": "transferOwnership",
      "outputs": [],
      "stateMutability": "nonpayable",
      "type": "function"
    },
    {
      "inputs": [
        {
          "internalType": "uint256",
          "name": "amount",
          "type": "uint256"
        }
      ],
      "name": "withdrawFee",
      "outputs": [],
      "stateMutability": "nonpayable",
      "type": "function"
    },
    {
      "inputs": [
        {
          "internalType": "uint256",
          "name": "amount",
          "type": "uint256"
        }
      ],
      "name": "withdrawReward",
      "outputs": [],
      "stateMutability": "nonpayable",
      "type": "function"
    },
    {
      "stateMutability": "payable",
      "type": "receive"
    }
  ],
  "bytecode": "0x6080604052692a5a058fc295ed0000006003556901b1ae4d6e2ef50000006004556019600555662386f26fc100006006556224ea006007556202a3006008556000600955600a80546001600160a01b031916730c4ba8e27e337c5e8eac912d836aa8ed09e80e7817905534801561007557600080fd5b5061007f33610084565b6100d4565b600080546001600160a01b038381166001600160a01b0319831681178455604051919092169283917f8be0079c531659141344cd1fd0a4f28419497f9722a3daafe3b4186f6b6457e09190a35050565b611cfe806100e36000396000f3fe6080604052600436106101c65760003560e01c80638013858b116100f7578063b8527aef11610095578063ebbbbb4911610064578063ebbbbb49146104bc578063f1fec2b8146104dc578063f2fde38b146104f2578063f74c99341461051257600080fd5b8063b8527aef14610450578063be35761614610466578063ddf0185f14610486578063ebb8035a1461049c57600080fd5b8063a44c8394116100d1578063a44c8394146103fd578063af8f42b81461041d578063afdfffcb14610433578063b7427ef91461044857600080fd5b80638013858b1461038b5780638da5cb5b146103ab5780639ceb5c48146103dd57600080fd5b8063617740c811610164578063715018a61161013e578063715018a61461030957806378a6b9681461031e5780637b7703921461034b5780637be50ce21461036b57600080fd5b8063617740c8146102bd57806369e15404146102d35780636b392680146102e957600080fd5b806343b8ff6f116101a057806343b8ff6f14610230578063486af96a14610250578063523a3f081461027d57806355cd6a5e1461029d57600080fd5b8063031c9dfc146101d25780631a136cd7146101e757806332ef9c871461020757600080fd5b366101cd57005b600080fd5b6101e56101e03660046118d7565b610548565b005b3480156101f357600080fd5b506101e56102023660046118d7565b610625565b34801561021357600080fd5b5061021d60075481565b6040519081526020015b60405180910390f35b34801561023c57600080fd5b5061021d61024b36600461190c565b610654565b34801561025c57600080fd5b5061027061026b36600461190c565b610796565b6040516102279190611927565b34801561028957600080fd5b506101e56102983660046118d7565b6108c5565b3480156102a957600080fd5b506101e56102b83660046118d7565b610977565b3480156102c957600080fd5b5061021d60085481565b3480156102df57600080fd5b5061021d60065481565b3480156102f557600080fd5b506101e56103043660046118d7565b6109a6565b34801561031557600080fd5b506101e56109d5565b34801561032a57600080fd5b5061021d61033936600461190c565b60016020526000908152604090205481565b34801561035757600080fd5b506101e56103663660046118d7565b610a0b565b34801561037757600080fd5b506101e5610386366004611a0f565b610a3a565b34801561039757600080fd5b506101e56103a63660046118d7565b610db4565b3480156103b757600080fd5b506000546001600160a01b03165b6040516001600160a01b039091168152602001610227565b3480156103e957600080fd5b5061021d6103f8366004611ac4565b610de3565b34801561040957600080fd5b506101e56104183660046118d7565b610e77565b34801561042957600080fd5b5061021d60045481565b34801561043f57600080fd5b506101e5610ea6565b6101e5610fd3565b34801561045c57600080fd5b5061021d60095481565b34801561047257600080fd5b506101e56104813660046118d7565b611169565b34801561049257600080fd5b5061021d60055481565b3480156104a857600080fd5b506101e56104b73660046118d7565b6111c0565b3480156104c857600080fd5b50600a546103c5906001600160a01b031681565b3480156104e857600080fd5b5061021d60035481565b3480156104fe57600080fd5b506101e561050d36600461190c565b6112db565b34801561051e57600080fd5b5061021d61052d36600461190c565b6001600160a01b031660009081526001602052604090205490565b6006543410156105985760405162461bcd60e51b815260206004820152601660248201527513995959081d1bc81c185e4819995948185b5bdd5b9d60521b60448201526064015b60405180910390fd5b336000908152600260205260408120906105b28284611376565b905042816004015410156105fb5760405162461bcd60e51b815260206004820152601060248201526f139bd919481a5cc8191a5cd8589b195960821b604482015260640161058f565b6007546106089042611b04565b6003820181905560085461061b91611b04565b6004909101555050565b6000546001600160a01b0316331461064f5760405162461bcd60e51b815260040161058f90611b1c565b600755565b6001600160a01b03811660009081526002602052604081208054908290815b8381101561078c57600061076a83838154811061069257610692611b51565b90600052602060002090600502016040518060a00160405290816000820180546106bb90611b67565b80601f01602080910402602001604051908101604052809291908181526020018280546106e790611b67565b80156107345780601f1061070957610100808354040283529160200191610734565b820191906000526020600020905b81548152906001019060200180831161071757829003601f168201915b5050505050815260200160018201548152602001600282015481526020016003820154815260200160048201548152505061155a565b90506107768185611b04565b935050808061078490611ba2565b915050610673565b5090949350505050565b6001600160a01b0381166000908152600260209081526040808320805482518185028101850190935280835260609492939192909184015b828210156108ba57838290600052602060002090600502016040518060a001604052908160008201805461080190611b67565b80601f016020809104026020016040519081016040528092919081815260200182805461082d90611b67565b801561087a5780601f1061084f5761010080835404028352916020019161087a565b820191906000526020600020905b81548152906001019060200180831161085d57829003601f168201915b50505050508152602001600182015481526020016002820154815260200160038201548152602001600482015481525050815260200190600101906107ce565b505050509050919050565b6000546001600160a01b031633146108ef5760405162461bcd60e51b815260040161058f90611b1c565b600a5460405163a9059cbb60e01b8152336004820152602481018390526001600160a01b039091169063a9059cbb90604401602060405180830381600087803b15801561093b57600080fd5b505af115801561094f573d6000803e3d6000fd5b505050506040513d601f19601f820116820180604052508101906109739190611bbd565b5050565b6000546001600160a01b031633146109a15760405162461bcd60e51b815260040161058f90611b1c565b600855565b6000546001600160a01b031633146109d05760405162461bcd60e51b815260040161058f90611b1c565b600655565b6000546001600160a01b031633146109ff5760405162461bcd60e51b815260040161058f90611b1c565b610a09600061159b565b565b6000546001600160a01b03163314610a355760405162461bcd60e51b815260040161058f90611b1c565b600455565b60008111610a825760405162461bcd60e51b81526020600482015260156024820152740436f756e742073686f756c64206265206e6f74203605c1b604482015260640161058f565b33600081815260016020526040902054610a9c82856115eb565b610ae85760405162461bcd60e51b815260206004820152601f60248201527f435245415445204e4f44453a204e616d65206e6f7420617661696c61626c6500604482015260640161058f565b600554610af58483611b04565b1115610b335760405162461bcd60e51b815260206004820152600d60248201526c10dbdd5b9d08131a5b5a5d1959609a1b604482015260640161058f565b801580610b8457506001600160a01b03821660009081526002602052604090204290610b60600184611bdf565b81548110610b7057610b70611b51565b906000526020600020906005020160010154105b610bc45760405162461bcd60e51b8152602060048201526011602482015270546f6f206d616e7920726571756573747360781b604482015260640161058f565b600083600354610bd49190611bf6565b600a546040516323b872dd60e01b81526001600160a01b038681166004830152306024830152604482018490529293509116906323b872dd90606401602060405180830381600087803b158015610c2a57600080fd5b505af1158015610c3e573d6000803e3d6000fd5b505050506040513d601f19601f82011682018060405250810190610c629190611bbd565b5060005b84811015610dac576000610c7a8242611b04565b905060026000866001600160a01b03166001600160a01b031681526020019081526020016000206040518060a0016040528089815260200183815260200183815260200160075484610ccc9190611b04565b815260200160085460075485610ce29190611b04565b610cec9190611b04565b905281546001810183556000928352602092839020825180519394600590930290910192610d1d928492019061183e565b5060208201518160010155604082015181600201556060820151816003015560808201518160040155505060016000866001600160a01b03166001600160a01b031681526020019081526020016000206000815480929190610d7e90611ba2565b909155505060098054906000610d9383611ba2565b9190505550508080610da490611ba2565b915050610c66565b505050505050565b6000546001600160a01b03163314610dde5760405162461bcd60e51b815260040161058f90611b1c565b600355565b6000808211610e045760405162461bcd60e51b815260040161058f90611c15565b6001600160a01b0383166000908152600260205260409020805480610e3b5760405162461bcd60e51b815260040161058f90611c5c565b6000610e478386611376565b90506000610e6a826040518060a00160405290816000820180546106bb90611b67565b9450505050505b92915050565b6000546001600160a01b03163314610ea15760405162461bcd60e51b815260040161058f90611b1c565b600555565b336000818152600260205260409020805480610ed45760405162461bcd60e51b815260040161058f90611c15565b600080805b83811015610f4c57848181548110610ef357610ef3611b51565b906000526020600020906005020192506000610f24846040518060a00160405290816000820180546106bb90611b67565b9050610f308184611b04565b4260028601559250819050610f4481611ba2565b915050610ed9565b50600a5460405163a9059cbb60e01b81526001600160a01b038781166004830152602482018490529091169063a9059cbb90604401602060405180830381600087803b158015610f9b57600080fd5b505af1158015610faf573d6000803e3d6000fd5b505050506040513d601f19601f82011682018060405250810190610dac9190611bbd565b33600090815260026020526040812090805b8254811015611038574283828154811061100157611001611b51565b90600052602060002090600502016004015410611026578161102281611ba2565b9250505b8061103081611ba2565b915050610fe5565b50806006546110479190611bf6565b34101561108f5760405162461bcd60e51b815260206004820152601660248201527513995959081d1bc81c185e4819995948185b5bdd5b9d60521b604482015260640161058f565b60005b825481101561116457428382815481106110ae576110ae611b51565b90600052602060002090600502016004015410611152576007546110d29042611b04565b8382815481106110e4576110e4611b51565b90600052602060002090600502016003018190555060085483828154811061110e5761110e611b51565b90600052602060002090600502016003015461112a9190611b04565b83828154811061113c5761113c611b51565b9060005260206000209060050201600401819055505b8061115c81611ba2565b915050611092565b505050565b6000546001600160a01b031633146111935760405162461bcd60e51b815260040161058f90611b1c565b604051339082156108fc029083906000818181858888f19350505050158015610973573d6000803e3d6000fd5b33816111de5760405162461bcd60e51b815260040161058f90611c15565b6001600160a01b03811660009081526002602052604090208054806112155760405162461bcd60e51b815260040161058f90611c5c565b60006112218386611376565b90506000611244826040518060a00160405290816000820180546106bb90611b67565b426002840155600a5460405163a9059cbb60e01b81526001600160a01b0388811660048301526024820184905292935091169063a9059cbb90604401602060405180830381600087803b15801561129a57600080fd5b505af11580156112ae573d6000803e3d6000fd5b505050506040513d601f19601f820116820180604052508101906112d29190611bbd565b50505050505050565b6000546001600160a01b031633146113055760405162461bcd60e51b815260040161058f90611b1c565b6001600160a01b03811661136a5760405162461bcd60e51b815260206004820152602660248201527f4f776e61626c653a206e6577206f776e657220697320746865207a65726f206160448201526564647265737360d01b606482015260840161058f565b6113738161159b565b50565b8154600090806113985760405162461bcd60e51b815260040161058f90611c5c565b6000806114b886805480602002602001604051908101604052809291908181526020016000905b828210156114ab57838290600052602060002090600502016040518060a00160405290816000820180546113f290611b67565b80601f016020809104026020016040519081016040528092919081815260200182805461141e90611b67565b801561146b5780601f106114405761010080835404028352916020019161146b565b820191906000526020600020905b81548152906001019060200180831161144e57829003601f168201915b50505050508152602001600182015481526020016002820154815260200160038201548152602001600482015481525050815260200190600101906113bf565b5050505060008588611777565b905060008082126114ca575060019150805b8261152e5760405162461bcd60e51b815260206004820152602e60248201527f4e4f4445205345415243483a204e6f204e4f444520466f756e6420776974682060448201526d7468697320626c6f636b74696d6560901b606482015260840161058f565b86818154811061154057611540611b51565b906000526020600020906005020194505050505092915050565b6000816080015142111561157057506000919050565b620151808260400151426115849190611bdf565b6004546115919190611bf6565b610e719190611ca6565b600080546001600160a01b038381166001600160a01b0319831681178455604051919092169283917f8be0079c531659141344cd1fd0a4f28419497f9722a3daafe3b4186f6b6457e09190a35050565b6001600160a01b038216600090815260026020908152604080832080548251818502810185019093528083528493849084015b8282101561170a57838290600052602060002090600502016040518060a001604052908160008201805461165190611b67565b80601f016020809104026020016040519081016040528092919081815260200182805461167d90611b67565b80156116ca5780601f1061169f576101008083540402835291602001916116ca565b820191906000526020600020905b8154815290600101906020018083116116ad57829003601f168201915b505050505081526020016001820154815260200160028201548152602001600382015481526020016004820154815250508152602001906001019061161e565b50505050905060005b815181101561176c57838051906020012082828151811061173657611736611b51565b60200260200101516000015180519060200120141561175a57600092505050610e71565b8061176481611ba2565b915050611713565b506001949350505050565b600083831061181e57600061179760026117918787611b04565b9061182b565b9050828682815181106117ac576117ac611b51565b60200260200101516020015114156117c5579050611823565b828682815181106117d8576117d8611b51565b60200260200101516020015111156118085761180086866117fa600185611bdf565b86611777565b915050611823565b61180086611817836001611b04565b8686611777565b506000195b949350505050565b60006118378284611ca6565b9392505050565b82805461184a90611b67565b90600052602060002090601f01602090048101928261186c57600085556118b2565b82601f1061188557805160ff19168380011785556118b2565b828001600101855582156118b2579182015b828111156118b2578251825591602001919060010190611897565b506118be9291506118c2565b5090565b5b808211156118be57600081556001016118c3565b6000602082840312156118e957600080fd5b5035919050565b80356001600160a01b038116811461190757600080fd5b919050565b60006020828403121561191e57600080fd5b611837826118f0565b60006020808301818452808551808352604092508286019150828160051b8701018488016000805b848110156119ea57603f198a8503018652825160a08151818752805180838901528592505b80831015611992578183018c015188840160c00152918b0191611974565b808311156119a3578560c0828a0101525b838c0151888d01528a8401518b8901526060808501519089015260809384015193880193909352505095880195601f01601f191690930160c001929187019160010161194f565b50919998505050505050505050565b634e487b7160e01b600052604160045260246000fd5b60008060408385031215611a2257600080fd5b823567ffffffffffffffff80821115611a3a57600080fd5b818501915085601f830112611a4e57600080fd5b813581811115611a6057611a606119f9565b604051601f8201601f19908116603f01168101908382118183101715611a8857611a886119f9565b81604052828152886020848701011115611aa157600080fd5b826020860160208301376000602093820184015298969091013596505050505050565b60008060408385031215611ad757600080fd5b611ae0836118f0565b946020939093013593505050565b634e487b7160e01b600052601160045260246000fd5b60008219821115611b1757611b17611aee565b500190565b6020808252818101527f4f776e61626c653a2063616c6c6572206973206e6f7420746865206f776e6572604082015260600190565b634e487b7160e01b600052603260045260246000fd5b600181811c90821680611b7b57607f821691505b60208210811415611b9c57634e487b7160e01b600052602260045260246000fd5b50919050565b6000600019821415611bb657611bb6611aee565b5060010190565b600060208284031215611bcf57600080fd5b8151801515811461183757600080fd5b600082821015611bf157611bf1611aee565b500390565b6000816000190483118215151615611c1057611c10611aee565b500290565b60208082526027908201527f4e4f44453a204352454154494d45206d75737420626520686967686572207468604082015266616e207a65726f60c81b606082015260800190565b6020808252602a908201527f434c41494d204552524f523a20596f7520646f6e27742068617665206e6f64656040820152697320746f20636c61696d60b01b606082015260800190565b600082611cc357634e487b7160e01b600052601260045260246000fd5b50049056fea26469706673582212208ea6ff44d1b41468ecad319f7ef8ecfedb97ebccd29af549409eb929670a8db564736f6c63430008090033",
  "linkReferences": {},
  "deployedLinkReferences": {}
}