{
  "_format": "hh-sol-artifact-1",
  "contractName": "HeroInfinityNFT",
  "sourceName": "contracts/HeroInfinityNFT.sol",
  "abi": [
    {
      "inputs": [],
      "stateMutability": "nonpayable",
      "type": "constructor"
    },
    {
      "anonymous": false,
      "inputs": [
        {
          "indexed": true,
          "internalType": "address",
          "name": "owner",
          "type": "address"
        },
        {
          "indexed": true,
          "internalType": "address",
          "name": "approved",
          "type": "address"
        },
        {
          "indexed": true,
          "internalType": "uint256",
          "name": "tokenId",
          "type": "uint256"
        }
      ],
      "name": "Approval",
      "type": "event"
    },
    {
      "anonymous": false,
      "inputs": [
        {
          "indexed": true,
          "internalType": "address",
          "name": "owner",
          "type": "address"
        },
        {
          "indexed": true,
          "internalType": "address",
          "name": "operator",
          "type": "address"
        },
        {
          "indexed": false,
          "internalType": "bool",
          "name": "approved",
          "type": "bool"
        }
      ],
      "name": "ApprovalForAll",
      "type": "event"
    },
    {
      "anonymous": false,
      "inputs": [
        {
          "indexed": true,
          "internalType": "address",
          "name": "previousOwner",
          "type": "address"
        },
        {
          "indexed": true,
          "internalType": "address",
          "name": "newOwner",
          "type": "address"
        }
      ],
      "name": "OwnershipTransferred",
      "type": "event"
    },
    {
      "anonymous": false,
      "inputs": [
        {
          "indexed": true,
          "internalType": "address",
          "name": "from",
          "type": "address"
        },
        {
          "indexed": true,
          "internalType": "address",
          "name": "to",
          "type": "address"
        },
        {
          "indexed": true,
          "internalType": "uint256",
          "name": "tokenId",
          "type": "uint256"
        }
      ],
      "name": "Transfer",
      "type": "event"
    },
    {
      "inputs": [],
      "name": "HIGHEST_PUBLIC",
      "outputs": [
        {
          "internalType": "uint256",
          "name": "",
          "type": "uint256"
        }
      ],
      "stateMutability": "view",
      "type": "function"
    },
    {
      "inputs": [],
      "name": "HIGHEST_TEAM",
      "outputs": [
        {
          "internalType": "uint256",
          "name": "",
          "type": "uint256"
        }
      ],
      "stateMutability": "view",
      "type": "function"
    },
    {
      "inputs": [
        {
          "internalType": "address",
          "name": "to",
          "type": "address"
        },
        {
          "internalType": "uint256",
          "name": "tokenId",
          "type": "uint256"
        }
      ],
      "name": "approve",
      "outputs": [],
      "stateMutability": "nonpayable",
      "type": "function"
    },
    {
      "inputs": [
        {
          "internalType": "address",
          "name": "owner",
          "type": "address"
        }
      ],
      "name": "balanceOf",
      "outputs": [
        {
          "internalType": "uint256",
          "name": "",
          "type": "uint256"
        }
      ],
      "stateMutability": "view",
      "type": "function"
    },
    {
      "inputs": [
        {
          "internalType": "uint256",
          "name": "tokenId",
          "type": "uint256"
        }
      ],
      "name": "getApproved",
      "outputs": [
        {
          "internalType": "address",
          "name": "",
          "type": "address"
        }
      ],
      "stateMutability": "view",
      "type": "function"
    },
    {
      "inputs": [
        {
          "internalType": "address",
          "name": "owner",
          "type": "address"
        },
        {
          "internalType": "address",
          "name": "operator",
          "type": "address"
        }
      ],
      "name": "isApprovedForAll",
      "outputs": [
        {
          "internalType": "bool",
          "name": "",
          "type": "bool"
        }
      ],
      "stateMutability": "view",
      "type": "function"
    },
    {
      "inputs": [],
      "name": "isMintOpen",
      "outputs": [
        {
          "internalType": "bool",
          "name": "",
          "type": "bool"
        }
      ],
      "stateMutability": "view",
      "type": "function"
    },
    {
      "inputs": [],
      "name": "isSaleOpen",
      "outputs": [
        {
          "internalType": "bool",
          "name": "",
          "type": "bool"
        }
      ],
      "stateMutability": "view",
      "type": "function"
    },
    {
      "inputs": [],
      "name": "maxPerWallet",
      "outputs": [
        {
          "internalType": "uint256",
          "name": "",
          "type": "uint256"
        }
      ],
      "stateMutability": "view",
      "type": "function"
    },
    {
      "inputs": [
        {
          "internalType": "uint256",
          "name": "amount",
          "type": "uint256"
        }
      ],
      "name": "mint",
      "outputs": [],
      "stateMutability": "payable",
      "type": "function"
    },
    {
      "inputs": [],
      "name": "mintEndTimestamp",
      "outputs": [
        {
          "internalType": "uint256",
          "name": "",
          "type": "uint256"
        }
      ],
      "stateMutability": "view",
      "type": "function"
    },
    {
      "inputs": [
        {
          "internalType": "address",
          "name": "account",
          "type": "address"
        }
      ],
      "name": "mintPrice",
      "outputs": [
        {
          "internalType": "uint256",
          "name": "",
          "type": "uint256"
        }
      ],
      "stateMutability": "view",
      "type": "function"
    },
    {
      "inputs": [
        {
          "internalType": "uint256",
          "name": "amount",
          "type": "uint256"
        }
      ],
      "name": "mintTeam",
      "outputs": [],
      "stateMutability": "nonpayable",
      "type": "function"
    },
    {
      "inputs": [
        {
          "internalType": "address",
          "name": "",
          "type": "address"
        }
      ],
      "name": "mintedAmount",
      "outputs": [
        {
          "internalType": "uint256",
          "name": "",
          "type": "uint256"
        }
      ],
      "stateMutability": "view",
      "type": "function"
    },
    {
      "inputs": [
        {
          "internalType": "bytes[]",
          "name": "data",
          "type": "bytes[]"
        }
      ],
      "name": "multicall",
      "outputs": [
        {
          "internalType": "bytes[]",
          "name": "results",
          "type": "bytes[]"
        }
      ],
      "stateMutability": "nonpayable",
      "type": "function"
    },
    {
      "inputs": [],
      "name": "name",
      "outputs": [
        {
          "internalType": "string",
          "name": "",
          "type": "string"
        }
      ],
      "stateMutability": "view",
      "type": "function"
    },
    {
      "inputs": [],
      "name": "nodePool",
      "outputs": [
        {
          "internalType": "address",
          "name": "",
          "type": "address"
        }
      ],
      "stateMutability": "view",
      "type": "function"
    },
    {
      "inputs": [],
      "name": "owner",
      "outputs": [
        {
          "internalType": "address",
          "name": "",
          "type": "address"
        }
      ],
      "stateMutability": "view",
      "type": "function"
    },
    {
      "inputs": [
        {
          "internalType": "uint256",
          "name": "tokenId",
          "type": "uint256"
        }
      ],
      "name": "ownerOf",
      "outputs": [
        {
          "internalType": "address",
          "name": "",
          "type": "address"
        }
      ],
      "stateMutability": "view",
      "type": "function"
    },
    {
      "inputs": [],
      "name": "publicMintPrice",
      "outputs": [
        {
          "internalType": "uint256",
          "name": "",
          "type": "uint256"
        }
      ],
      "stateMutability": "view",
      "type": "function"
    },
    {
      "inputs": [],
      "name": "renounceOwnership",
      "outputs": [],
      "stateMutability": "nonpayable",
      "type": "function"
    },
    {
      "inputs": [
        {
          "internalType": "address",
          "name": "from",
          "type": "address"
        },
        {
          "internalType": "address",
          "name": "to",
          "type": "address"
        },
        {
          "internalType": "uint256",
          "name": "tokenId",
          "type": "uint256"
        }
      ],
      "name": "safeTransferFrom",
      "outputs": [],
      "stateMutability": "nonpayable",
      "type": "function"
    },
    {
      "inputs": [
        {
          "internalType": "address",
          "name": "from",
          "type": "address"
        },
        {
          "internalType": "address",
          "name": "to",
          "type": "address"
        },
        {
          "internalType": "uint256",
          "name": "tokenId",
          "type": "uint256"
        },
        {
          "internalType": "bytes",
          "name": "_data",
          "type": "bytes"
        }
      ],
      "name": "safeTransferFrom",
      "outputs": [],
      "stateMutability": "nonpayable",
      "type": "function"
    },
    {
      "inputs": [
        {
          "internalType": "uint256",
          "name": "amount",
          "type": "uint256"
        }
      ],
      "name": "sale",
      "outputs": [],
      "stateMutability": "payable",
      "type": "function"
    },
    {
      "inputs": [],
      "name": "saleMintPrice",
      "outputs": [
        {
          "internalType": "uint256",
          "name": "",
          "type": "uint256"
        }
      ],
      "stateMutability": "view",
      "type": "function"
    },
    {
      "inputs": [
        {
          "internalType": "address",
          "name": "operator",
          "type": "address"
        },
        {
          "internalType": "bool",
          "name": "approved",
          "type": "bool"
        }
      ],
      "name": "setApprovalForAll",
      "outputs": [],
      "stateMutability": "nonpayable",
      "type": "function"
    },
    {
      "inputs": [
        {
          "internalType": "string",
          "name": "uri",
          "type": "string"
        }
      ],
      "name": "setBaseURI",
      "outputs": [],
      "stateMutability": "nonpayable",
      "type": "function"
    },
    {
      "inputs": [
        {
          "internalType": "uint256",
          "name": "limit",
          "type": "uint256"
        }
      ],
      "name": "setMaxPerWallet",
      "outputs": [],
      "stateMutability": "nonpayable",
      "type": "function"
    },
    {
      "inputs": [
        {
          "internalType": "uint256",
          "name": "_whitelist",
          "type": "uint256"
        },
        {
          "internalType": "uint256",
          "name": "_public",
          "type": "uint256"
        },
        {
          "internalType": "uint256",
          "name": "_sale",
          "type": "uint256"
        }
      ],
      "name": "setMintPrice",
      "outputs": [],
      "stateMutability": "nonpayable",
      "type": "function"
    },
    {
      "inputs": [
        {
          "internalType": "address",
          "name": "poolAddress",
          "type": "address"
        }
      ],
      "name": "setNodePool",
      "outputs": [],
      "stateMutability": "nonpayable",
      "type": "function"
    },
    {
      "inputs": [
        {
          "internalType": "bool",
          "name": "_open",
          "type": "bool"
        }
      ],
      "name": "setReserved",
      "outputs": [],
      "stateMutability": "nonpayable",
      "type": "function"
    },
    {
      "inputs": [
        {
          "internalType": "bool",
          "name": "_open",
          "type": "bool"
        }
      ],
      "name": "setSaleOpen",
      "outputs": [],
      "stateMutability": "nonpayable",
      "type": "function"
    },
    {
      "inputs": [
        {
          "internalType": "uint256",
          "name": "_mintEndTimestamp",
          "type": "uint256"
        }
      ],
      "name": "setTimestamps",
      "outputs": [],
      "stateMutability": "nonpayable",
      "type": "function"
    },
    {
      "inputs": [
        {
          "internalType": "bytes4",
          "name": "interfaceId",
          "type": "bytes4"
        }
      ],
      "name": "supportsInterface",
      "outputs": [
        {
          "internalType": "bool",
          "name": "",
          "type": "bool"
        }
      ],
      "stateMutability": "view",
      "type": "function"
    },
    {
      "inputs": [],
      "name": "symbol",
      "outputs": [
        {
          "internalType": "string",
          "name": "",
          "type": "string"
        }
      ],
      "stateMutability": "view",
      "type": "function"
    },
    {
      "inputs": [
        {
          "internalType": "uint256",
          "name": "index",
          "type": "uint256"
        }
      ],
      "name": "tokenByIndex",
      "outputs": [
        {
          "internalType": "uint256",
          "name": "",
          "type": "uint256"
        }
      ],
      "stateMutability": "view",
      "type": "function"
    },
    {
      "inputs": [
        {
          "internalType": "address",
          "name": "owner",
          "type": "address"
        },
        {
          "internalType": "uint256",
          "name": "index",
          "type": "uint256"
        }
      ],
      "name": "tokenOfOwnerByIndex",
      "outputs": [
        {
          "internalType": "uint256",
          "name": "",
          "type": "uint256"
        }
      ],
      "stateMutability": "view",
      "type": "function"
    },
    {
      "inputs": [
        {
          "internalType": "uint256",
          "name": "tokenId",
          "type": "uint256"
        }
      ],
      "name": "tokenURI",
      "outputs": [
        {
          "internalType": "string",
          "name": "",
          "type": "string"
        }
      ],
      "stateMutability": "view",
      "type": "function"
    },
    {
      "inputs": [],
      "name": "totalSupply",
      "outputs": [
        {
          "internalType": "uint256",
          "name": "",
          "type": "uint256"
        }
      ],
      "stateMutability": "view",
      "type": "function"
    },
    {
      "inputs": [
        {
          "internalType": "address",
          "name": "from",
          "type": "address"
        },
        {
          "internalType": "address",
          "name": "to",
          "type": "address"
        },
        {
          "internalType": "uint256",
          "name": "tokenId",
          "type": "uint256"
        }
      ],
      "name": "transferFrom",
      "outputs": [],
      "stateMutability": "nonpayable",
      "type": "function"
    },
    {
      "inputs": [
        {
          "internalType": "address",
          "name": "newOwner",
          "type": "address"
        }
      ],
      "name": "transferOwnership",
      "outputs": [],
      "stateMutability": "nonpayable",
      "type": "function"
    },
    {
      "inputs": [],
      "name": "whitelistMintPrice",
      "outputs": [
        {
          "internalType": "uint256",
          "name": "",
          "type": "uint256"
        }
      ],
      "stateMutability": "view",
      "type": "function"
    },
    {
      "inputs": [],
      "name": "withdrawETH",
      "outputs": [],
      "stateMutability": "nonpayable",
      "type": "function"
    }
  ],
  "bytecode": "0x6080604052600b80546001600160a01b03191673fad5ef0f347eb7bb89e798b5d026f60afa3e2bf41790556005600c5567013fbe85edc90000600d556701aa535d3d0c0000600e556702c68af0bb140000600f556011805461ffff191690556000601255601d6013553480156200007557600080fd5b50604080518082018252601381527f4865726f20496e66696e697479204361726473000000000000000000000000006020808301918252835180850190945260048452634852494360e01b908401528151919291620000d79160009162000166565b508051620000ed90600190602084019062000166565b5050506200010a620001046200011060201b60201c565b62000114565b62000249565b3390565b600a80546001600160a01b038381166001600160a01b0319831681179093556040519116919082907f8be0079c531659141344cd1fd0a4f28419497f9722a3daafe3b4186f6b6457e090600090a35050565b82805462000174906200020c565b90600052602060002090601f016020900481019282620001985760008555620001e3565b82601f10620001b357805160ff1916838001178555620001e3565b82800160010185558215620001e3579182015b82811115620001e3578251825591602001919060010190620001c6565b50620001f1929150620001f5565b5090565b5b80821115620001f15760008155600101620001f6565b600181811c908216806200022157607f821691505b602082108114156200024357634e487b7160e01b600052602260045260246000fd5b50919050565b612ad580620002596000396000f3fe60806040526004361061025c5760003560e01c8063715018a611610144578063b88d4fde116100b6578063dc53fd921161007a578063dc53fd92146106bc578063e086e5ec146106d2578063e268e4d3146106e7578063e985e9c514610707578063f2fde38b14610750578063fbbf8cc31461077057600080fd5b8063b88d4fde14610626578063bb32aef414610646578063c87b56dd14610666578063cc6ac2f514610686578063d8f1f8f41461069c57600080fd5b80639be9c50d116101085780639be9c50d1461057b5780639c14a88414610591578063a0712d68146105a6578063a22cb465146105b9578063ac9650d8146105d9578063af979f251461060657600080fd5b8063715018a61461050a5780637307b3d91461051f5780638da5cb5b1461053557806395d89b4114610553578063960327021461056857600080fd5b80632eb7c7e3116101dd57806342842e0e116101a157806342842e0e14610454578063453c2310146104745780634f6ccce71461048a57806355f804b3146104aa5780636352211e146104ca57806370a08231146104ea57600080fd5b80632eb7c7e3146103be5780632f745c59146103de578063319948ba146103fe578063342f48aa1461041e57806335c6aaf81461043e57600080fd5b8063199080161161022457806319908016146103315780631a081330146103465780632142aa2c1461035e57806323b872dd1461037e57806326cea9181461039e57600080fd5b806301ffc9a71461026157806306fdde0314610296578063081812fc146102b8578063095ea7b3146102f057806318160ddd14610312575b600080fd5b34801561026d57600080fd5b5061028161027c3660046122f9565b61079d565b60405190151581526020015b60405180910390f35b3480156102a257600080fd5b506102ab6107c8565b60405161028d919061236e565b3480156102c457600080fd5b506102d86102d3366004612381565b61085a565b6040516001600160a01b03909116815260200161028d565b3480156102fc57600080fd5b5061031061030b3660046123b6565b6108f4565b005b34801561031e57600080fd5b506008545b60405190815260200161028d565b34801561033d57600080fd5b50610281610a0a565b34801561035257600080fd5b5060115460ff16610281565b34801561036a57600080fd5b506103236103793660046123e0565b610a34565b34801561038a57600080fd5b506103106103993660046123fb565b610ad1565b3480156103aa57600080fd5b506103106103b93660046123e0565b610b02565b3480156103ca57600080fd5b506103106103d9366004612447565b610b4e565b3480156103ea57600080fd5b506103236103f93660046123b6565b610b92565b34801561040a57600080fd5b50610310610419366004612462565b610c28565b34801561042a57600080fd5b50610310610439366004612381565b610c60565b34801561044a57600080fd5b50610323600d5481565b34801561046057600080fd5b5061031061046f3660046123fb565b610d65565b34801561048057600080fd5b50610323600c5481565b34801561049657600080fd5b506103236104a5366004612381565b610d80565b3480156104b657600080fd5b506103106104c536600461251a565b610e13565b3480156104d657600080fd5b506102d86104e5366004612381565b610e54565b3480156104f657600080fd5b506103236105053660046123e0565b610ecb565b34801561051657600080fd5b50610310610f52565b34801561052b57600080fd5b5061032361043681565b34801561054157600080fd5b50600a546001600160a01b03166102d8565b34801561055f57600080fd5b506102ab610f88565b610310610576366004612381565b610f97565b34801561058757600080fd5b50610323600f5481565b34801561059d57600080fd5b50610323601c81565b6103106105b4366004612381565b611070565b3480156105c557600080fd5b506103106105d4366004612563565b6110cd565b3480156105e557600080fd5b506105f96105f4366004612596565b6110d8565b60405161028d919061260b565b34801561061257600080fd5b50610310610621366004612447565b6111c6565b34801561063257600080fd5b5061031061064136600461266d565b611203565b34801561065257600080fd5b50610310610661366004612381565b611235565b34801561067257600080fd5b506102ab610681366004612381565b6112a8565b34801561069257600080fd5b5061032360105481565b3480156106a857600080fd5b50600b546102d8906001600160a01b031681565b3480156106c857600080fd5b50610323600e5481565b3480156106de57600080fd5b50610310611394565b3480156106f357600080fd5b50610310610702366004612381565b6113ed565b34801561071357600080fd5b506102816107223660046126e9565b6001600160a01b03918216600090815260056020908152604080832093909416825291909152205460ff1690565b34801561075c57600080fd5b5061031061076b3660046123e0565b61141c565b34801561077c57600080fd5b5061032361078b3660046123e0565b60156020526000908152604090205481565b60006001600160e01b0319821663780e9d6360e01b14806107c257506107c2826114b4565b92915050565b6060600080546107d790612713565b80601f016020809104026020016040519081016040528092919081815260200182805461080390612713565b80156108505780601f1061082557610100808354040283529160200191610850565b820191906000526020600020905b81548152906001019060200180831161083357829003601f168201915b5050505050905090565b6000818152600260205260408120546001600160a01b03166108d85760405162461bcd60e51b815260206004820152602c60248201527f4552433732313a20617070726f76656420717565727920666f72206e6f6e657860448201526b34b9ba32b73a103a37b5b2b760a11b60648201526084015b60405180910390fd5b506000908152600460205260409020546001600160a01b031690565b60006108ff82610e54565b9050806001600160a01b0316836001600160a01b0316141561096d5760405162461bcd60e51b815260206004820152602160248201527f4552433732313a20617070726f76616c20746f2063757272656e74206f776e656044820152603960f91b60648201526084016108cf565b336001600160a01b038216148061098957506109898133610722565b6109fb5760405162461bcd60e51b815260206004820152603860248201527f4552433732313a20617070726f76652063616c6c6572206973206e6f74206f7760448201527f6e6572206e6f7220617070726f76656420666f7220616c6c000000000000000060648201526084016108cf565b610a058383611504565b505050565b600080601054118015610a1f57506010544211155b8015610a2f575061043660135411155b905090565b600e54600b54604051633dd3264d60e21b81526001600160a01b03848116600483015260009392849291169063f74c99349060240160206040518083038186803b158015610a8157600080fd5b505afa158015610a95573d6000803e3d6000fd5b505050506040513d601f19601f82011682018060405250810190610ab9919061274e565b90506004811115610aca57600d5491505b5092915050565b610adb3382611572565b610af75760405162461bcd60e51b81526004016108cf90612767565b610a05838383611669565b600a546001600160a01b03163314610b2c5760405162461bcd60e51b81526004016108cf906127b8565b600b80546001600160a01b0319166001600160a01b0392909216919091179055565b600a546001600160a01b03163314610b785760405162461bcd60e51b81526004016108cf906127b8565b601180549115156101000261ff0019909216919091179055565b6000610b9d83610ecb565b8210610bff5760405162461bcd60e51b815260206004820152602b60248201527f455243373231456e756d657261626c653a206f776e657220696e646578206f7560448201526a74206f6620626f756e647360a81b60648201526084016108cf565b506001600160a01b03919091166000908152600660209081526040808320938352929052205490565b600a546001600160a01b03163314610c525760405162461bcd60e51b81526004016108cf906127b8565b600d92909255600e55600f55565b600a546001600160a01b03163314610c8a5760405162461bcd60e51b81526004016108cf906127b8565b80610cc85760405162461bcd60e51b815260206004820152600e60248201526d1253959053125117d05353d5539560921b60448201526064016108cf565b6012546000610cd78383612803565b9050601c610ce660018361281b565b1115610d2a5760405162461bcd60e51b81526020600482015260136024820152721511505357d31253525517d15610d151511151606a1b60448201526064016108cf565b601281905560005b83811015610d5f57610d4d33610d488386612803565b611810565b80610d5781612832565b915050610d32565b50505050565b610a0583838360405180602001604052806000815250611203565b6000610d8b60085490565b8210610dee5760405162461bcd60e51b815260206004820152602c60248201527f455243373231456e756d657261626c653a20676c6f62616c20696e646578206f60448201526b7574206f6620626f756e647360a01b60648201526084016108cf565b60088281548110610e0157610e0161284d565b90600052602060002001549050919050565b600a546001600160a01b03163314610e3d5760405162461bcd60e51b81526004016108cf906127b8565b8051610e5090601490602084019061224a565b5050565b6000818152600260205260408120546001600160a01b0316806107c25760405162461bcd60e51b815260206004820152602960248201527f4552433732313a206f776e657220717565727920666f72206e6f6e657869737460448201526832b73a103a37b5b2b760b91b60648201526084016108cf565b60006001600160a01b038216610f365760405162461bcd60e51b815260206004820152602a60248201527f4552433732313a2062616c616e636520717565727920666f7220746865207a65604482015269726f206164647265737360b01b60648201526084016108cf565b506001600160a01b031660009081526003602052604090205490565b600a546001600160a01b03163314610f7c5760405162461bcd60e51b81526004016108cf906127b8565b610f86600061195e565b565b6060600180546107d790612713565b60115460ff16610fd95760405162461bcd60e51b815260206004820152600d60248201526c29a0a622afa727aa2fa7a822a760991b60448201526064016108cf565b34600f5482610fe89190612863565b146110275760405162461bcd60e51b815260206004820152600f60248201526e57524f4e475f4554485f56414c554560881b60448201526064016108cf565b60005b8181101561105b5761104933826013546110449190612803565b6119b0565b8061105381612832565b91505061102a565b508060135461106a9190612803565b60135550565b611078610a0a565b6110b45760405162461bcd60e51b815260206004820152600d60248201526c26a4a72a2fa727aa2fa7a822a760991b60448201526064016108cf565b3360006110c082610a34565b9050610a058284836119ca565b610e50338383611b78565b60608167ffffffffffffffff8111156110f3576110f361248e565b60405190808252806020026020018201604052801561112657816020015b60608152602001906001900390816111115790505b50905060005b82811015610aca576111963085858481811061114a5761114a61284d565b905060200281019061115c9190612882565b8080601f016020809104026020016040519081016040528093929190818152602001838380828437600092019190915250611c4792505050565b8282815181106111a8576111a861284d565b602002602001018190525080806111be90612832565b91505061112c565b600a546001600160a01b031633146111f05760405162461bcd60e51b81526004016108cf906127b8565b6011805460ff1916911515919091179055565b61120d3383611572565b6112295760405162461bcd60e51b81526004016108cf90612767565b610d5f84848484611c6c565b600a546001600160a01b0316331461125f5760405162461bcd60e51b81526004016108cf906127b8565b4281116112a35760405162461bcd60e51b8152602060048201526012602482015271494e56414c49445f54494d455354414d505360701b60448201526064016108cf565b601055565b6000818152600260205260409020546060906001600160a01b03166113275760405162461bcd60e51b815260206004820152602f60248201527f4552433732314d657461646174613a2055524920717565727920666f72206e6f60448201526e3732bc34b9ba32b73a103a37b5b2b760891b60648201526084016108cf565b6000611331611c9f565b601154909150610100900460ff1615611373578061134e84611cae565b60405160200161135f9291906128d0565b60405160208183030381529060405261138d565b604051806080016040528060578152602001612a22605791395b9392505050565b600a546001600160a01b031633146113be5760405162461bcd60e51b81526004016108cf906127b8565b60405133904780156108fc02916000818181858888f193505050501580156113ea573d6000803e3d6000fd5b50565b600a546001600160a01b031633146114175760405162461bcd60e51b81526004016108cf906127b8565b600c55565b600a546001600160a01b031633146114465760405162461bcd60e51b81526004016108cf906127b8565b6001600160a01b0381166114ab5760405162461bcd60e51b815260206004820152602660248201527f4f776e61626c653a206e6577206f776e657220697320746865207a65726f206160448201526564647265737360d01b60648201526084016108cf565b6113ea8161195e565b60006001600160e01b031982166380ac58cd60e01b14806114e557506001600160e01b03198216635b5e139f60e01b145b806107c257506301ffc9a760e01b6001600160e01b03198316146107c2565b600081815260046020526040902080546001600160a01b0319166001600160a01b038416908117909155819061153982610e54565b6001600160a01b03167f8c5be1e5ebec7d5bd14f71427d1e84f3dd0314c0f7b2291e5b200ac8c7c3b92560405160405180910390a45050565b6000818152600260205260408120546001600160a01b03166115eb5760405162461bcd60e51b815260206004820152602c60248201527f4552433732313a206f70657261746f7220717565727920666f72206e6f6e657860448201526b34b9ba32b73a103a37b5b2b760a11b60648201526084016108cf565b60006115f683610e54565b9050806001600160a01b0316846001600160a01b031614806116315750836001600160a01b03166116268461085a565b6001600160a01b0316145b8061166157506001600160a01b0380821660009081526005602090815260408083209388168352929052205460ff165b949350505050565b826001600160a01b031661167c82610e54565b6001600160a01b0316146116e05760405162461bcd60e51b815260206004820152602560248201527f4552433732313a207472616e736665722066726f6d20696e636f72726563742060448201526437bbb732b960d91b60648201526084016108cf565b6001600160a01b0382166117425760405162461bcd60e51b8152602060048201526024808201527f4552433732313a207472616e7366657220746f20746865207a65726f206164646044820152637265737360e01b60648201526084016108cf565b61174d838383611dac565b611758600082611504565b6001600160a01b038316600090815260036020526040812080546001929061178190849061281b565b90915550506001600160a01b03821660009081526003602052604081208054600192906117af908490612803565b909155505060008181526002602052604080822080546001600160a01b0319166001600160a01b0386811691821790925591518493918716917fddf252ad1be2c89b69c2b068fc378daa952ba7f163c4a11628f55a4df523b3ef91a4505050565b6001600160a01b0382166118665760405162461bcd60e51b815260206004820181905260248201527f4552433732313a206d696e7420746f20746865207a65726f206164647265737360448201526064016108cf565b6000818152600260205260409020546001600160a01b0316156118cb5760405162461bcd60e51b815260206004820152601c60248201527f4552433732313a20746f6b656e20616c7265616479206d696e7465640000000060448201526064016108cf565b6118d760008383611dac565b6001600160a01b0382166000908152600360205260408120805460019290611900908490612803565b909155505060008181526002602052604080822080546001600160a01b0319166001600160a01b03861690811790915590518392907fddf252ad1be2c89b69c2b068fc378daa952ba7f163c4a11628f55a4df523b3ef908290a45050565b600a80546001600160a01b038381166001600160a01b0319831681179093556040519116919082907f8be0079c531659141344cd1fd0a4f28419497f9722a3daafe3b4186f6b6457e090600090a35050565b610e50828260405180602001604052806000815250611e64565b81611a085760405162461bcd60e51b815260206004820152600e60248201526d1253959053125117d05353d5539560921b60448201526064016108cf565b6001600160a01b038316600090815260156020526040812054611a2c908490612803565b9050600c54811115611a785760405162461bcd60e51b815260206004820152601560248201527415d05313115517d31253525517d15610d151511151605a1b60448201526064016108cf565b6013546000611a878583612803565b9050610436611a9760018361281b565b1115611adb5760405162461bcd60e51b815260206004820152601360248201527214d0531157d31253525517d15610d151511151606a1b60448201526064016108cf565b34611ae68587612863565b1115611b265760405162461bcd60e51b815260206004820152600f60248201526e57524f4e475f4554485f56414c554560881b60448201526064016108cf565b60138190556001600160a01b03861660009081526015602052604081208490555b85811015611b6f57611b5d876110448386612803565b80611b6781612832565b915050611b47565b50505050505050565b816001600160a01b0316836001600160a01b03161415611bda5760405162461bcd60e51b815260206004820152601960248201527f4552433732313a20617070726f766520746f2063616c6c65720000000000000060448201526064016108cf565b6001600160a01b03838116600081815260056020908152604080832094871680845294825291829020805460ff191686151590811790915591519182527f17307eab39ab6107e8899845ad3d59bd9653f200f220920489ca2b5937696c31910160405180910390a3505050565b606061138d8383604051806060016040528060278152602001612a7960279139611e97565b611c77848484611669565b611c8384848484611f74565b610d5f5760405162461bcd60e51b81526004016108cf9061290f565b6060601480546107d790612713565b606081611cd25750506040805180820190915260018152600360fc1b602082015290565b8160005b8115611cfc5780611ce681612832565b9150611cf59050600a83612977565b9150611cd6565b60008167ffffffffffffffff811115611d1757611d1761248e565b6040519080825280601f01601f191660200182016040528015611d41576020820181803683370190505b5090505b841561166157611d5660018361281b565b9150611d63600a8661298b565b611d6e906030612803565b60f81b818381518110611d8357611d8361284d565b60200101906001600160f81b031916908160001a905350611da5600a86612977565b9450611d45565b6001600160a01b038316611e0757611e0281600880546000838152600960205260408120829055600182018355919091527ff3f7a9fe364faab93b216da50a3214154f22a0a2b415b23a84c8169e8b636ee30155565b611e2a565b816001600160a01b0316836001600160a01b031614611e2a57611e2a8382612081565b6001600160a01b038216611e4157610a058161211e565b826001600160a01b0316826001600160a01b031614610a0557610a0582826121cd565b611e6e8383611810565b611e7b6000848484611f74565b610a055760405162461bcd60e51b81526004016108cf9061290f565b60606001600160a01b0384163b611eff5760405162461bcd60e51b815260206004820152602660248201527f416464726573733a2064656c65676174652063616c6c20746f206e6f6e2d636f6044820152651b9d1c9858dd60d21b60648201526084016108cf565b600080856001600160a01b031685604051611f1a919061299f565b600060405180830381855af49150503d8060008114611f55576040519150601f19603f3d011682016040523d82523d6000602084013e611f5a565b606091505b5091509150611f6a828286612211565b9695505050505050565b60006001600160a01b0384163b1561207657604051630a85bd0160e11b81526001600160a01b0385169063150b7a0290611fb89033908990889088906004016129bb565b602060405180830381600087803b158015611fd257600080fd5b505af1925050508015612002575060408051601f3d908101601f19168201909252611fff918101906129ee565b60015b61205c573d808015612030576040519150601f19603f3d011682016040523d82523d6000602084013e612035565b606091505b5080516120545760405162461bcd60e51b81526004016108cf9061290f565b805181602001fd5b6001600160e01b031916630a85bd0160e11b149050611661565b506001949350505050565b6000600161208e84610ecb565b612098919061281b565b6000838152600760205260409020549091508082146120eb576001600160a01b03841660009081526006602090815260408083208584528252808320548484528184208190558352600790915290208190555b5060009182526007602090815260408084208490556001600160a01b039094168352600681528383209183525290812055565b6008546000906121309060019061281b565b600083815260096020526040812054600880549394509092849081106121585761215861284d565b9060005260206000200154905080600883815481106121795761217961284d565b60009182526020808320909101929092558281526009909152604080822084905585825281205560088054806121b1576121b1612a0b565b6001900381819060005260206000200160009055905550505050565b60006121d883610ecb565b6001600160a01b039093166000908152600660209081526040808320868452825280832085905593825260079052919091209190915550565b6060831561222057508161138d565b8251156122305782518084602001fd5b8160405162461bcd60e51b81526004016108cf919061236e565b82805461225690612713565b90600052602060002090601f01602090048101928261227857600085556122be565b82601f1061229157805160ff19168380011785556122be565b828001600101855582156122be579182015b828111156122be5782518255916020019190600101906122a3565b506122ca9291506122ce565b5090565b5b808211156122ca57600081556001016122cf565b6001600160e01b0319811681146113ea57600080fd5b60006020828403121561230b57600080fd5b813561138d816122e3565b60005b83811015612331578181015183820152602001612319565b83811115610d5f5750506000910152565b6000815180845261235a816020860160208601612316565b601f01601f19169290920160200192915050565b60208152600061138d6020830184612342565b60006020828403121561239357600080fd5b5035919050565b80356001600160a01b03811681146123b157600080fd5b919050565b600080604083850312156123c957600080fd5b6123d28361239a565b946020939093013593505050565b6000602082840312156123f257600080fd5b61138d8261239a565b60008060006060848603121561241057600080fd5b6124198461239a565b92506124276020850161239a565b9150604084013590509250925092565b803580151581146123b157600080fd5b60006020828403121561245957600080fd5b61138d82612437565b60008060006060848603121561247757600080fd5b505081359360208301359350604090920135919050565b634e487b7160e01b600052604160045260246000fd5b600067ffffffffffffffff808411156124bf576124bf61248e565b604051601f8501601f19908116603f011681019082821181831017156124e7576124e761248e565b8160405280935085815286868601111561250057600080fd5b858560208301376000602087830101525050509392505050565b60006020828403121561252c57600080fd5b813567ffffffffffffffff81111561254357600080fd5b8201601f8101841361255457600080fd5b611661848235602084016124a4565b6000806040838503121561257657600080fd5b61257f8361239a565b915061258d60208401612437565b90509250929050565b600080602083850312156125a957600080fd5b823567ffffffffffffffff808211156125c157600080fd5b818501915085601f8301126125d557600080fd5b8135818111156125e457600080fd5b8660208260051b85010111156125f957600080fd5b60209290920196919550909350505050565b6000602080830181845280855180835260408601915060408160051b870101925083870160005b8281101561266057603f1988860301845261264e858351612342565b94509285019290850190600101612632565b5092979650505050505050565b6000806000806080858703121561268357600080fd5b61268c8561239a565b935061269a6020860161239a565b925060408501359150606085013567ffffffffffffffff8111156126bd57600080fd5b8501601f810187136126ce57600080fd5b6126dd878235602084016124a4565b91505092959194509250565b600080604083850312156126fc57600080fd5b6127058361239a565b915061258d6020840161239a565b600181811c9082168061272757607f821691505b6020821081141561274857634e487b7160e01b600052602260045260246000fd5b50919050565b60006020828403121561276057600080fd5b5051919050565b60208082526031908201527f4552433732313a207472616e736665722063616c6c6572206973206e6f74206f6040820152701ddb995c881b9bdc88185c1c1c9bdd9959607a1b606082015260800190565b6020808252818101527f4f776e61626c653a2063616c6c6572206973206e6f7420746865206f776e6572604082015260600190565b634e487b7160e01b600052601160045260246000fd5b60008219821115612816576128166127ed565b500190565b60008282101561282d5761282d6127ed565b500390565b6000600019821415612846576128466127ed565b5060010190565b634e487b7160e01b600052603260045260246000fd5b600081600019048311821515161561287d5761287d6127ed565b500290565b6000808335601e1984360301811261289957600080fd5b83018035915067ffffffffffffffff8211156128b457600080fd5b6020019150368190038213156128c957600080fd5b9250929050565b600083516128e2818460208801612316565b8351908301906128f6818360208801612316565b64173539b7b760d91b9101908152600501949350505050565b60208082526032908201527f4552433732313a207472616e7366657220746f206e6f6e20455243373231526560408201527131b2b4bb32b91034b6b83632b6b2b73a32b960711b606082015260800190565b634e487b7160e01b600052601260045260246000fd5b60008261298657612986612961565b500490565b60008261299a5761299a612961565b500690565b600082516129b1818460208701612316565b9190910192915050565b6001600160a01b0385811682528416602082015260408101839052608060608201819052600090611f6a90830184612342565b600060208284031215612a0057600080fd5b815161138d816122e3565b634e487b7160e01b600052603160045260246000fdfe68747470733a2f2f6865726f696e66696e6974792e6d7970696e6174612e636c6f75642f697066732f516d5271717a6e5062435564654a41727a55594c4d6975477265706d4a766d6a6269546f70594d70544a62414262416464726573733a206c6f772d6c6576656c2064656c65676174652063616c6c206661696c6564a26469706673582212204cb6367bf236daf69d4c7c6d0ec3552317d0321019c303e5e808822d7d704fd064736f6c63430008090033",
  "linkReferences": {},
  "deployedLinkReferences": {}
}