{
  "_format": "hh-sol-artifact-1",
  "contractName": "HeroManager",
  "sourceName": "contracts/game/HeroManager.sol",
  "abi": [
    {
      "inputs": [],
      "stateMutability": "nonpayable",
      "type": "constructor"
    },
    {
      "anonymous": false,
      "inputs": [
        {
          "indexed": true,
          "internalType": "address",
          "name": "previousOwner",
          "type": "address"
        },
        {
          "indexed": true,
          "internalType": "address",
          "name": "newOwner",
          "type": "address"
        }
      ],
      "name": "OwnershipTransferred",
      "type": "event"
    },
    {
      "inputs": [],
      "name": "HERO_MAX_LEVEL",
      "outputs": [
        {
          "internalType": "uint256",
          "name": "",
          "type": "uint256"
        }
      ],
      "stateMutability": "view",
      "type": "function"
    },
    {
      "inputs": [
        {
          "internalType": "uint256",
          "name": "heroId",
          "type": "uint256"
        },
        {
          "components": [
            {
              "internalType": "bytes32",
              "name": "name",
              "type": "bytes32"
            },
            {
              "internalType": "uint8",
              "name": "level",
              "type": "uint8"
            },
            {
              "internalType": "uint8",
              "name": "rarity",
              "type": "uint8"
            },
            {
              "internalType": "uint8",
              "name": "primaryAttribute",
              "type": "uint8"
            },
            {
              "internalType": "uint8",
              "name": "attackCapability",
              "type": "uint8"
            },
            {
              "internalType": "uint256",
              "name": "strength",
              "type": "uint256"
            },
            {
              "internalType": "uint256",
              "name": "strengthGain",
              "type": "uint256"
            },
            {
              "internalType": "uint256",
              "name": "agility",
              "type": "uint256"
            },
            {
              "internalType": "uint256",
              "name": "agilityGain",
              "type": "uint256"
            },
            {
              "internalType": "uint256",
              "name": "intelligence",
              "type": "uint256"
            },
            {
              "internalType": "uint256",
              "name": "intelligenceGain",
              "type": "uint256"
            },
            {
              "internalType": "uint8",
              "name": "experience",
              "type": "uint8"
            }
          ],
          "internalType": "struct GameFi.Hero",
          "name": "hero",
          "type": "tuple"
        }
      ],
      "name": "addHero",
      "outputs": [],
      "stateMutability": "nonpayable",
      "type": "function"
    },
    {
      "inputs": [],
      "name": "baseLevelUpFee",
      "outputs": [
        {
          "internalType": "uint256",
          "name": "",
          "type": "uint256"
        }
      ],
      "stateMutability": "view",
      "type": "function"
    },
    {
      "inputs": [],
      "name": "bonusExp",
      "outputs": [
        {
          "internalType": "uint8",
          "name": "",
          "type": "uint8"
        }
      ],
      "stateMutability": "view",
      "type": "function"
    },
    {
      "inputs": [],
      "name": "bonusLevelUpFee",
      "outputs": [
        {
          "internalType": "uint256",
          "name": "",
          "type": "uint256"
        }
      ],
      "stateMutability": "view",
      "type": "function"
    },
    {
      "inputs": [
        {
          "internalType": "uint256[]",
          "name": "heroIds",
          "type": "uint256[]"
        }
      ],
      "name": "bulkExpDown",
      "outputs": [],
      "stateMutability": "nonpayable",
      "type": "function"
    },
    {
      "inputs": [
        {
          "internalType": "uint256[]",
          "name": "heroIds",
          "type": "uint256[]"
        }
      ],
      "name": "bulkExpUp",
      "outputs": [],
      "stateMutability": "nonpayable",
      "type": "function"
    },
    {
      "inputs": [
        {
          "internalType": "uint256",
          "name": "heroId",
          "type": "uint256"
        }
      ],
      "name": "expDown",
      "outputs": [],
      "stateMutability": "nonpayable",
      "type": "function"
    },
    {
      "inputs": [
        {
          "internalType": "uint256",
          "name": "heroId",
          "type": "uint256"
        }
      ],
      "name": "expUp",
      "outputs": [],
      "stateMutability": "nonpayable",
      "type": "function"
    },
    {
      "inputs": [
        {
          "internalType": "uint256",
          "name": "heroId",
          "type": "uint256"
        }
      ],
      "name": "heroBonusExp",
      "outputs": [
        {
          "internalType": "uint8",
          "name": "",
          "type": "uint8"
        }
      ],
      "stateMutability": "view",
      "type": "function"
    },
    {
      "inputs": [
        {
          "internalType": "uint256",
          "name": "heroId",
          "type": "uint256"
        }
      ],
      "name": "heroLevel",
      "outputs": [
        {
          "internalType": "uint256",
          "name": "",
          "type": "uint256"
        }
      ],
      "stateMutability": "view",
      "type": "function"
    },
    {
      "inputs": [
        {
          "internalType": "uint256",
          "name": "heroId",
          "type": "uint256"
        }
      ],
      "name": "heroPower",
      "outputs": [
        {
          "internalType": "uint256",
          "name": "",
          "type": "uint256"
        }
      ],
      "stateMutability": "view",
      "type": "function"
    },
    {
      "inputs": [
        {
          "internalType": "uint256",
          "name": "heroId",
          "type": "uint256"
        }
      ],
      "name": "heroPrimaryAttribute",
      "outputs": [
        {
          "internalType": "uint256",
          "name": "",
          "type": "uint256"
        }
      ],
      "stateMutability": "view",
      "type": "function"
    },
    {
      "inputs": [
        {
          "internalType": "uint256",
          "name": "",
          "type": "uint256"
        }
      ],
      "name": "heroes",
      "outputs": [
        {
          "internalType": "bytes32",
          "name": "name",
          "type": "bytes32"
        },
        {
          "internalType": "uint8",
          "name": "level",
          "type": "uint8"
        },
        {
          "internalType": "uint8",
          "name": "rarity",
          "type": "uint8"
        },
        {
          "internalType": "uint8",
          "name": "primaryAttribute",
          "type": "uint8"
        },
        {
          "internalType": "uint8",
          "name": "attackCapability",
          "type": "uint8"
        },
        {
          "internalType": "uint256",
          "name": "strength",
          "type": "uint256"
        },
        {
          "internalType": "uint256",
          "name": "strengthGain",
          "type": "uint256"
        },
        {
          "internalType": "uint256",
          "name": "agility",
          "type": "uint256"
        },
        {
          "internalType": "uint256",
          "name": "agilityGain",
          "type": "uint256"
        },
        {
          "internalType": "uint256",
          "name": "intelligence",
          "type": "uint256"
        },
        {
          "internalType": "uint256",
          "name": "intelligenceGain",
          "type": "uint256"
        },
        {
          "internalType": "uint8",
          "name": "experience",
          "type": "uint8"
        }
      ],
      "stateMutability": "view",
      "type": "function"
    },
    {
      "inputs": [
        {
          "internalType": "uint256",
          "name": "heroId",
          "type": "uint256"
        },
        {
          "internalType": "uint8",
          "name": "levels",
          "type": "uint8"
        }
      ],
      "name": "levelUp",
      "outputs": [],
      "stateMutability": "nonpayable",
      "type": "function"
    },
    {
      "inputs": [],
      "name": "lobbyBattleAddress",
      "outputs": [
        {
          "internalType": "address",
          "name": "",
          "type": "address"
        }
      ],
      "stateMutability": "view",
      "type": "function"
    },
    {
      "inputs": [
        {
          "internalType": "bytes[]",
          "name": "data",
          "type": "bytes[]"
        }
      ],
      "name": "multicall",
      "outputs": [
        {
          "internalType": "bytes[]",
          "name": "results",
          "type": "bytes[]"
        }
      ],
      "stateMutability": "nonpayable",
      "type": "function"
    },
    {
      "inputs": [],
      "name": "nft",
      "outputs": [
        {
          "internalType": "contract IERC721",
          "name": "",
          "type": "address"
        }
      ],
      "stateMutability": "view",
      "type": "function"
    },
    {
      "inputs": [],
      "name": "owner",
      "outputs": [
        {
          "internalType": "address",
          "name": "",
          "type": "address"
        }
      ],
      "stateMutability": "view",
      "type": "function"
    },
    {
      "inputs": [],
      "name": "primaryPowerMultiplier",
      "outputs": [
        {
          "internalType": "uint256",
          "name": "",
          "type": "uint256"
        }
      ],
      "stateMutability": "view",
      "type": "function"
    },
    {
      "inputs": [
        {
          "internalType": "uint256",
          "name": "min",
          "type": "uint256"
        },
        {
          "internalType": "uint256",
          "name": "max",
          "type": "uint256"
        }
      ],
      "name": "random",
      "outputs": [
        {
          "internalType": "uint256",
          "name": "",
          "type": "uint256"
        }
      ],
      "stateMutability": "view",
      "type": "function"
    },
    {
      "inputs": [],
      "name": "rarityPowerBooster",
      "outputs": [
        {
          "internalType": "uint256",
          "name": "",
          "type": "uint256"
        }
      ],
      "stateMutability": "view",
      "type": "function"
    },
    {
      "inputs": [],
      "name": "renounceOwnership",
      "outputs": [],
      "stateMutability": "nonpayable",
      "type": "function"
    },
    {
      "inputs": [],
      "name": "secondaryMultiplier",
      "outputs": [
        {
          "internalType": "uint256",
          "name": "",
          "type": "uint256"
        }
      ],
      "stateMutability": "view",
      "type": "function"
    },
    {
      "inputs": [
        {
          "internalType": "uint256",
          "name": "value",
          "type": "uint256"
        }
      ],
      "name": "setBaseLevelUpFee",
      "outputs": [],
      "stateMutability": "nonpayable",
      "type": "function"
    },
    {
      "inputs": [
        {
          "internalType": "uint8",
          "name": "value",
          "type": "uint8"
        }
      ],
      "name": "setBonusExp",
      "outputs": [],
      "stateMutability": "nonpayable",
      "type": "function"
    },
    {
      "inputs": [
        {
          "internalType": "uint256",
          "name": "value",
          "type": "uint256"
        }
      ],
      "name": "setBonusLevelUpFee",
      "outputs": [],
      "stateMutability": "nonpayable",
      "type": "function"
    },
    {
      "inputs": [
        {
          "internalType": "address",
          "name": "lbAddr",
          "type": "address"
        }
      ],
      "name": "setLobbyBattle",
      "outputs": [],
      "stateMutability": "nonpayable",
      "type": "function"
    },
    {
      "inputs": [
        {
          "internalType": "address",
          "name": "nftAddress",
          "type": "address"
        }
      ],
      "name": "setNFT",
      "outputs": [],
      "stateMutability": "nonpayable",
      "type": "function"
    },
    {
      "inputs": [
        {
          "internalType": "uint256",
          "name": "value",
          "type": "uint256"
        }
      ],
      "name": "setPrimaryPowerMultiplier",
      "outputs": [],
      "stateMutability": "nonpayable",
      "type": "function"
    },
    {
      "inputs": [
        {
          "internalType": "uint256",
          "name": "value",
          "type": "uint256"
        }
      ],
      "name": "setRarityPowerBooster",
      "outputs": [],
      "stateMutability": "nonpayable",
      "type": "function"
    },
    {
      "inputs": [
        {
          "internalType": "uint256",
          "name": "value",
          "type": "uint256"
        }
      ],
      "name": "setSecondaryMultiplier",
      "outputs": [],
      "stateMutability": "nonpayable",
      "type": "function"
    },
    {
      "inputs": [
        {
          "internalType": "uint256",
          "name": "value",
          "type": "uint256"
        }
      ],
      "name": "setThirdMultiplier",
      "outputs": [],
      "stateMutability": "nonpayable",
      "type": "function"
    },
    {
      "inputs": [
        {
          "internalType": "address",
          "name": "tokenAddress",
          "type": "address"
        }
      ],
      "name": "setToken",
      "outputs": [],
      "stateMutability": "nonpayable",
      "type": "function"
    },
    {
      "inputs": [],
      "name": "thirdMultiplier",
      "outputs": [
        {
          "internalType": "uint256",
          "name": "",
          "type": "uint256"
        }
      ],
      "stateMutability": "view",
      "type": "function"
    },
    {
      "inputs": [],
      "name": "token",
      "outputs": [
        {
          "internalType": "contract IERC20",
          "name": "",
          "type": "address"
        }
      ],
      "stateMutability": "view",
      "type": "function"
    },
    {
      "inputs": [
        {
          "internalType": "address",
          "name": "newOwner",
          "type": "address"
        }
      ],
      "name": "transferOwnership",
      "outputs": [],
      "stateMutability": "nonpayable",
      "type": "function"
    },
    {
      "inputs": [
        {
          "internalType": "address payable",
          "name": "recipient",
          "type": "address"
        }
      ],
      "name": "withdrawDustETH",
      "outputs": [],
      "stateMutability": "nonpayable",
      "type": "function"
    },
    {
      "stateMutability": "payable",
      "type": "receive"
    }
  ],
  "bytecode": "0x6080604052690a968163f0a57b40000060045569021e19e0c9bab2400000600555600a600681815560086007819055556009805460ff1916601e179055606e905534801561004c57600080fd5b506100563361005b565b6100ab565b600080546001600160a01b038381166001600160a01b0319831681178455604051919092169283917f8be0079c531659141344cd1fd0a4f28419497f9722a3daafe3b4186f6b6457e09190a35050565b611f4f806100ba6000396000f3fe6080604052600436106102295760003560e01c80638da5cb5b11610123578063cd8401a8116100ab578063f2fde38b1161006f578063f2fde38b14610724578063f3d1b5ab14610744578063f56e9c661461077d578063fc0c546a1461079d578063fc585034146107bd57600080fd5b8063cd8401a814610684578063d5c1ed8a146106a4578063dda728cd146106c4578063e393c294146106e4578063e3a015ce1461070457600080fd5b8063a8d4a03b116100f2578063a8d4a03b1461050b578063a9dd1225146105f5578063aaef012214610615578063ab4051451461062b578063ac9650d81461065757600080fd5b80638da5cb5b146104975780638ff1e98e146104b55780639b12bc88146104d55780639bad6231146104eb57600080fd5b806333ab0541116101b157806357a90e2b1161017557806357a90e2b1461040257806357c773f1146104225780636e7dff4d14610442578063715018a6146104625780637ce9dd541461047757600080fd5b806333ab0541146103545780633c68e1ad146103745780634018b1ce1461038a57806347ccca02146103aa5780634d70f87a146103e257600080fd5b806313b60c51116101f857806313b60c51146102c9578063144fa6d7146102e9578063203bb5f11461030957806323cb1c361461032957806331a03ca21461033f57600080fd5b806301783dfa1461023557806306975ac21461025e5780630a36d40b14610274578063125d49f6146102a757600080fd5b3661023057005b600080fd5b34801561024157600080fd5b5061024b60065481565b6040519081526020015b60405180910390f35b34801561026a57600080fd5b5061024b60055481565b34801561028057600080fd5b5061024b61028f3660046117fd565b6000908152600b602052604090206001015460ff1690565b3480156102b357600080fd5b506102c76102c2366004611825565b6107dd565b005b3480156102d557600080fd5b506102c76102e43660046117fd565b610c0b565b3480156102f557600080fd5b506102c761030436600461186a565b610c3a565b34801561031557600080fd5b506102c7610324366004611887565b610c86565b34801561033557600080fd5b5061024b60085481565b34801561034b57600080fd5b5061024b601e81565b34801561036057600080fd5b506102c761036f3660046117fd565b610cd0565b34801561038057600080fd5b5061024b600a5481565b34801561039657600080fd5b506102c76103a536600461186a565b610cff565b3480156103b657600080fd5b506002546103ca906001600160a01b031681565b6040516001600160a01b039091168152602001610255565b3480156103ee57600080fd5b506102c76103fd3660046117fd565b610d4b565b34801561040e57600080fd5b506102c761041d3660046118c1565b610e44565b34801561042e57600080fd5b506102c761043d3660046117fd565b610e84565b34801561044e57600080fd5b506102c761045d3660046117fd565b610fa6565b34801561046e57600080fd5b506102c7610fd5565b34801561048357600080fd5b506102c76104923660046117fd565b61100b565b3480156104a357600080fd5b506000546001600160a01b03166103ca565b3480156104c157600080fd5b506102c76104d036600461192a565b61103a565b3480156104e157600080fd5b5061024b60045481565b3480156104f757600080fd5b506102c76105063660046117fd565b6110a7565b34801561051757600080fd5b506105936105263660046117fd565b600b60205260009081526040902080546001820154600283015460038401546004850154600586015460068701546007880154600890980154969760ff8088169861010089048216986201000081048316986301000000909104831697909690959094909390929091168c565b604080519c8d5260ff9b8c1660208e0152998b16998c019990995296891660608b015294881660808a015260a089019390935260c088019190915260e08701526101008601526101208501526101408401521661016082015261018001610255565b34801561060157600080fd5b5061024b61061036600461196c565b6110d6565b34801561062157600080fd5b5061024b60075481565b34801561063757600080fd5b506009546106459060ff1681565b60405160ff9091168152602001610255565b34801561066357600080fd5b5061067761067236600461192a565b611165565b60405161025591906119e6565b34801561069057600080fd5b506102c761069f36600461192a565b61125a565b3480156106b057600080fd5b5061024b6106bf3660046117fd565b6112c2565b3480156106d057600080fd5b506102c76106df3660046117fd565b6114d8565b3480156106f057600080fd5b506102c76106ff36600461186a565b611507565b34801561071057600080fd5b506003546103ca906001600160a01b031681565b34801561073057600080fd5b506102c761073f36600461186a565b611566565b34801561075057600080fd5b5061024b61075f3660046117fd565b6000908152600b602052604090206001015462010000900460ff1690565b34801561078957600080fd5b506102c761079836600461186a565b6115fe565b3480156107a957600080fd5b506001546103ca906001600160a01b031681565b3480156107c957600080fd5b506106456107d83660046117fd565b61164a565b6002546040516331a9108f60e11b81526004810184905233916001600160a01b031690636352211e9060240160206040518083038186803b15801561082157600080fd5b505afa158015610835573d6000803e3d6000fd5b505050506040513d601f19601f820116820180604052508101906108599190611a48565b6001600160a01b0316146108b45760405162461bcd60e51b815260206004820152601c60248201527f4865726f4d616e616765723a206e6f742061204e4654206f776e65720000000060448201526064015b60405180910390fd5b6000828152600b6020526040902060010154601e60ff9091161061091a5760405162461bcd60e51b815260206004820152601b60248201527f4865726f4d616e616765723a206865726f206d6178206c6576656c000000000060448201526064016108ab565b6000828152600b6020526040902060010154601e9061093d90839060ff16611a7b565b60ff16111561098e5760405162461bcd60e51b815260206004820152601f60248201527f4865726f4d616e616765723a20746f6f206d616e79206c6576656c732075700060448201526064016108ab565b6000828152600b602052604081206001908101546109af919060ff16611aa0565b60ff166005546109bf9190611ac3565b6004546109cc9190611ae2565b905060006005546002846001866109e39190611aa0565b6109ed9190611afa565b6109f79190611b39565b60ff16610a049190611ac3565b610a1160ff851684611ac3565b610a1b9190611ae2565b6001546040516323b872dd60e01b8152336004820152306024820152604481018390529192506001600160a01b0316906323b872dd90606401602060405180830381600087803b158015610a6e57600080fd5b505af1158015610a82573d6000803e3d6000fd5b505050506040513d601f19601f82011682018060405250810190610aa69190611b5b565b610af25760405162461bcd60e51b815260206004820152601b60248201527f4865726f4d616e616765723a206e6f7420656e6f75676820666565000000000060448201526064016108ab565b6000848152600b602052604081206001018054859290610b1690849060ff16611a7b565b92506101000a81548160ff021916908360ff1602179055508260ff16600b600086815260200190815260200160002060030154610b539190611ac3565b6000858152600b602052604081206002018054909190610b74908490611ae2565b90915550506000848152600b6020526040902060050154610b999060ff851690611ac3565b6000858152600b602052604081206004018054909190610bba908490611ae2565b90915550506000848152600b6020526040902060070154610bdf9060ff851690611ac3565b6000858152600b602052604081206006018054909190610c00908490611ae2565b909155505050505050565b6000546001600160a01b03163314610c355760405162461bcd60e51b81526004016108ab90611b7d565b600655565b6000546001600160a01b03163314610c645760405162461bcd60e51b81526004016108ab90611b7d565b600180546001600160a01b0319166001600160a01b0392909216919091179055565b6000546001600160a01b03163314610cb05760405162461bcd60e51b81526004016108ab90611b7d565b6000828152600b602052604090208190610cca8282611bbf565b50505050565b6000546001600160a01b03163314610cfa5760405162461bcd60e51b81526004016108ab90611b7d565b600455565b6000546001600160a01b03163314610d295760405162461bcd60e51b81526004016108ab90611b7d565b600380546001600160a01b0319166001600160a01b0392909216919091179055565b6003546001600160a01b0316331480610d6357503330145b610d7f5760405162461bcd60e51b81526004016108ab90611cc1565b6000818152600b6020526040902060019081015460ff161180610db557506000818152600b602052604090206008015460ff1615155b15610e415760006002610dc78361164a565b610dd19190611b39565b6000838152600b6020526040812060080180549293508392909190610dfa90849060ff16611aa0565b825460ff9182166101009390930a9283029190920219909116179055506000829052600b602052610e3f565b92506101000a81548160ff021916908360ff1602179055505b505b50565b6000546001600160a01b03163314610e6e5760405162461bcd60e51b81526004016108ab90611b7d565b6009805460ff191660ff92909216919091179055565b6003546001600160a01b0316331480610e9c57503330145b610eb85760405162461bcd60e51b81526004016108ab90611cc1565b6000818152600b6020526040902060010154601e60ff9091161015610e41576000610ee28261164a565b6000838152600b6020526040812060080180549293508392909190610f0b90849060ff16611a7b565b82546101009290920a60ff8181021990931691831602179091556000848152600b602052604090206008015460649116109050610e3f576000828152600b60205260408120600801805460649290610f6790849060ff16611aa0565b82546101009290920a60ff8181021990931691831602179091556000848152600b602052604081206001908101805491945092610e2691859116611a7b565b6000546001600160a01b03163314610fd05760405162461bcd60e51b81526004016108ab90611b7d565b600555565b6000546001600160a01b03163314610fff5760405162461bcd60e51b81526004016108ab90611b7d565b611009600061167a565b565b6000546001600160a01b031633146110355760405162461bcd60e51b81526004016108ab90611b7d565b600855565b6003546001600160a01b031633146110645760405162461bcd60e51b81526004016108ab90611cc1565b60005b818110156110a25761109083838381811061108457611084611d0b565b90506020020135610d4b565b8061109a81611d21565b915050611067565b505050565b6000546001600160a01b031633146110d15760405162461bcd60e51b81526004016108ab90611b7d565b600a55565b60408051446020820152429181019190915233606090811b6bffffffffffffffffffffffff1916908201526074810183905260948101829052600090819060b40160408051601f19818403018152919052805160209091012090508361113c8185611d3c565b611147906001611ae2565b6111519083611d53565b61115b9190611ae2565b9150505b92915050565b60608167ffffffffffffffff81111561118057611180611d67565b6040519080825280602002602001820160405280156111b357816020015b606081526020019060019003908161119e5790505b50905060005b8281101561125357611223308585848181106111d7576111d7611d0b565b90506020028101906111e99190611d7d565b8080601f0160208091040260200160405190810160405280939291908181526020018383808284376000920191909152506116ca92505050565b82828151811061123557611235611d0b565b6020026020010181905250808061124b90611d21565b9150506111b9565b5092915050565b6003546001600160a01b031633146112845760405162461bcd60e51b81526004016108ab90611cc1565b60005b818110156110a2576112b08383838181106112a4576112a4611d0b565b90506020020135610e84565b806112ba81611d21565b915050611287565b6000818152600b6020908152604080832081516101808101835281548152600182015460ff80821695830195909552610100808204861694830194909452620100008104851660608301819052630100000090910485166080830152600283015460a0830152600383015460c0830152600483015460e08301526005830154938201939093526006820154610120820152600782015461014082015260089091015490921661016083015282908190819061138b5750505060a081015161012082015160e08301515b836060015160ff16600114156113af5750505060e081015160a08201516101208301515b836060015160ff16600214156113d35750505061012081015160e082015160a08301515b6000600854826113e39190611ac3565b6007546113f09085611ac3565b6006546113fd9087611ac3565b6114079190611ae2565b6114119190611ae2565b9050846040015160ff1660011415611444576064600a54826114339190611ac3565b61143d9190611dc4565b90506114ce565b846040015160ff1660021415611470576127106002600a546114669190611eb4565b6114339083611ac3565b846040015160ff166003141561149357620f42406003600a546114669190611eb4565b846040015160ff16600414156114ce576305f5e1006004600a546114b79190611eb4565b6114c19083611ac3565b6114cb9190611dc4565b90505b9695505050505050565b6000546001600160a01b031633146115025760405162461bcd60e51b81526004016108ab90611b7d565b600755565b6000546001600160a01b031633146115315760405162461bcd60e51b81526004016108ab90611b7d565b6040516001600160a01b038216904780156108fc02916000818181858888f19350505050158015610e3f573d6000803e3d6000fd5b6000546001600160a01b031633146115905760405162461bcd60e51b81526004016108ab90611b7d565b6001600160a01b0381166115f55760405162461bcd60e51b815260206004820152602660248201527f4f776e61626c653a206e6577206f776e657220697320746865207a65726f206160448201526564647265737360d01b60648201526084016108ab565b610e418161167a565b6000546001600160a01b031633146116285760405162461bcd60e51b81526004016108ab90611b7d565b600280546001600160a01b0319166001600160a01b0392909216919091179055565b6000818152600b602052604081206001015460095461166f9160ff9081169116611aa0565b61115f906001611a7b565b600080546001600160a01b038381166001600160a01b0319831681178455604051919092169283917f8be0079c531659141344cd1fd0a4f28419497f9722a3daafe3b4186f6b6457e09190a35050565b60606116ef8383604051806060016040528060278152602001611ef3602791396116f6565b9392505050565b60606001600160a01b0384163b61175e5760405162461bcd60e51b815260206004820152602660248201527f416464726573733a2064656c65676174652063616c6c20746f206e6f6e2d636f6044820152651b9d1c9858dd60d21b60648201526084016108ab565b600080856001600160a01b0316856040516117799190611ec3565b600060405180830381855af49150503d80600081146117b4576040519150601f19603f3d011682016040523d82523d6000602084013e6117b9565b606091505b50915091506114ce828286606083156117d35750816116ef565b8251156117e35782518084602001fd5b8160405162461bcd60e51b81526004016108ab9190611edf565b60006020828403121561180f57600080fd5b5035919050565b60ff81168114610e4157600080fd5b6000806040838503121561183857600080fd5b82359150602083013561184a81611816565b809150509250929050565b6001600160a01b0381168114610e4157600080fd5b60006020828403121561187c57600080fd5b81356116ef81611855565b6000808284036101a081121561189c57600080fd5b83359250610180601f19820112156118b357600080fd5b506020830190509250929050565b6000602082840312156118d357600080fd5b81356116ef81611816565b60008083601f8401126118f057600080fd5b50813567ffffffffffffffff81111561190857600080fd5b6020830191508360208260051b850101111561192357600080fd5b9250929050565b6000806020838503121561193d57600080fd5b823567ffffffffffffffff81111561195457600080fd5b611960858286016118de565b90969095509350505050565b6000806040838503121561197f57600080fd5b50508035926020909101359150565b60005b838110156119a9578181015183820152602001611991565b83811115610cca5750506000910152565b600081518084526119d281602086016020860161198e565b601f01601f19169290920160200192915050565b6000602080830181845280855180835260408601915060408160051b870101925083870160005b82811015611a3b57603f19888603018452611a298583516119ba565b94509285019290850190600101611a0d565b5092979650505050505050565b600060208284031215611a5a57600080fd5b81516116ef81611855565b634e487b7160e01b600052601160045260246000fd5b600060ff821660ff84168060ff03821115611a9857611a98611a65565b019392505050565b600060ff821660ff841680821015611aba57611aba611a65565b90039392505050565b6000816000190483118215151615611add57611add611a65565b500290565b60008219821115611af557611af5611a65565b500190565b600060ff821660ff84168160ff0481118215151615611b1b57611b1b611a65565b029392505050565b634e487b7160e01b600052601260045260246000fd5b600060ff831680611b4c57611b4c611b23565b8060ff84160491505092915050565b600060208284031215611b6d57600080fd5b815180151581146116ef57600080fd5b6020808252818101527f4f776e61626c653a2063616c6c6572206973206e6f7420746865206f776e6572604082015260600190565b6000813561115f81611816565b8135815560018101611be7611bd660208501611bb2565b825460ff191660ff91909116178255565b611c0c611bf660408501611bb2565b825461ff00191660089190911b61ff0016178255565b611c33611c1b60608501611bb2565b825462ff0000191660109190911b62ff000016178255565b611c5c611c4260808501611bb2565b825463ff000000191660189190911b63ff00000016178255565b5060a0820135600282015560c0820135600382015560e08201356004820155610100820135600582015561012082013560068201556101408201356007820155610e3f611cac6101608401611bb2565b6008830160ff821660ff198254161781555050565b6020808252602a908201527f4865726f4d616e616765723a2063616c6c61626c65206279206c6f62627920626040820152696174746c65206f6e6c7960b01b606082015260800190565b634e487b7160e01b600052603260045260246000fd5b6000600019821415611d3557611d35611a65565b5060010190565b600082821015611d4e57611d4e611a65565b500390565b600082611d6257611d62611b23565b500690565b634e487b7160e01b600052604160045260246000fd5b6000808335601e19843603018112611d9457600080fd5b83018035915067ffffffffffffffff821115611daf57600080fd5b60200191503681900382131561192357600080fd5b600082611dd357611dd3611b23565b500490565b600181815b80851115611e13578160001904821115611df957611df9611a65565b80851615611e0657918102915b93841c9390800290611ddd565b509250929050565b600082611e2a5750600161115f565b81611e375750600061115f565b8160018114611e4d5760028114611e5757611e73565b600191505061115f565b60ff841115611e6857611e68611a65565b50506001821b61115f565b5060208310610133831016604e8410600b8410161715611e96575081810a61115f565b611ea08383611dd8565b8060001904821115611b1b57611b1b611a65565b60006116ef60ff841683611e1b565b60008251611ed581846020870161198e565b9190910192915050565b6020815260006116ef60208301846119ba56fe416464726573733a206c6f772d6c6576656c2064656c65676174652063616c6c206661696c6564a2646970667358221220cdf7805555a4f60b7a9c341051b0cbd85747da128543a64a60590a5bce870f1864736f6c63430008090033",
  "linkReferences": {},
  "deployedLinkReferences": {}
}