{
  "_format": "hh-sol-artifact-1",
  "contractName": "HeroManager",
  "sourceName": "contracts/game/HeroManager.sol",
  "abi": [
    {
      "inputs": [],
      "stateMutability": "nonpayable",
      "type": "constructor"
    },
    {
      "anonymous": false,
      "inputs": [
        {
          "indexed": true,
          "internalType": "address",
          "name": "previousOwner",
          "type": "address"
        },
        {
          "indexed": true,
          "internalType": "address",
          "name": "newOwner",
          "type": "address"
        }
      ],
      "name": "OwnershipTransferred",
      "type": "event"
    },
    {
      "inputs": [],
      "name": "HERO_MAX_EXP",
      "outputs": [
        {
          "internalType": "uint256",
          "name": "",
          "type": "uint256"
        }
      ],
      "stateMutability": "view",
      "type": "function"
    },
    {
      "inputs": [],
      "name": "HERO_MAX_LEVEL",
      "outputs": [
        {
          "internalType": "uint256",
          "name": "",
          "type": "uint256"
        }
      ],
      "stateMutability": "view",
      "type": "function"
    },
    {
      "inputs": [],
      "name": "NFT",
      "outputs": [
        {
          "internalType": "contract IERC721",
          "name": "",
          "type": "address"
        }
      ],
      "stateMutability": "view",
      "type": "function"
    },
    {
      "inputs": [],
      "name": "TOKEN",
      "outputs": [
        {
          "internalType": "contract IERC20",
          "name": "",
          "type": "address"
        }
      ],
      "stateMutability": "view",
      "type": "function"
    },
    {
      "inputs": [
        {
          "internalType": "uint256",
          "name": "heroId",
          "type": "uint256"
        },
        {
          "components": [
            {
              "internalType": "bytes32",
              "name": "name",
              "type": "bytes32"
            },
            {
              "internalType": "uint256",
              "name": "level",
              "type": "uint256"
            },
            {
              "internalType": "uint256",
              "name": "rarity",
              "type": "uint256"
            },
            {
              "internalType": "uint256",
              "name": "primaryAttribute",
              "type": "uint256"
            },
            {
              "internalType": "uint256",
              "name": "attackCapability",
              "type": "uint256"
            },
            {
              "internalType": "uint256",
              "name": "strength",
              "type": "uint256"
            },
            {
              "internalType": "uint256",
              "name": "strengthGain",
              "type": "uint256"
            },
            {
              "internalType": "uint256",
              "name": "agility",
              "type": "uint256"
            },
            {
              "internalType": "uint256",
              "name": "agilityGain",
              "type": "uint256"
            },
            {
              "internalType": "uint256",
              "name": "intelligence",
              "type": "uint256"
            },
            {
              "internalType": "uint256",
              "name": "intelligenceGain",
              "type": "uint256"
            },
            {
              "internalType": "uint256",
              "name": "experience",
              "type": "uint256"
            }
          ],
          "internalType": "struct GameFi.Hero",
          "name": "hero",
          "type": "tuple"
        }
      ],
      "name": "addHero",
      "outputs": [],
      "stateMutability": "nonpayable",
      "type": "function"
    },
    {
      "inputs": [],
      "name": "baseLevelUpFee",
      "outputs": [
        {
          "internalType": "uint256",
          "name": "",
          "type": "uint256"
        }
      ],
      "stateMutability": "view",
      "type": "function"
    },
    {
      "inputs": [],
      "name": "bonusExp",
      "outputs": [
        {
          "internalType": "uint256",
          "name": "",
          "type": "uint256"
        }
      ],
      "stateMutability": "view",
      "type": "function"
    },
    {
      "inputs": [],
      "name": "bonusLevelUpFee",
      "outputs": [
        {
          "internalType": "uint256",
          "name": "",
          "type": "uint256"
        }
      ],
      "stateMutability": "view",
      "type": "function"
    },
    {
      "inputs": [
        {
          "internalType": "uint256[]",
          "name": "heroIds",
          "type": "uint256[]"
        },
        {
          "internalType": "bool",
          "name": "won",
          "type": "bool"
        }
      ],
      "name": "bulkExpUp",
      "outputs": [],
      "stateMutability": "nonpayable",
      "type": "function"
    },
    {
      "inputs": [],
      "name": "energyRecoveryTime",
      "outputs": [
        {
          "internalType": "uint256",
          "name": "",
          "type": "uint256"
        }
      ],
      "stateMutability": "view",
      "type": "function"
    },
    {
      "inputs": [],
      "name": "expDiff",
      "outputs": [
        {
          "internalType": "uint256",
          "name": "",
          "type": "uint256"
        }
      ],
      "stateMutability": "view",
      "type": "function"
    },
    {
      "inputs": [
        {
          "internalType": "uint256",
          "name": "heroId",
          "type": "uint256"
        },
        {
          "internalType": "bool",
          "name": "won",
          "type": "bool"
        }
      ],
      "name": "expUp",
      "outputs": [],
      "stateMutability": "nonpayable",
      "type": "function"
    },
    {
      "inputs": [
        {
          "internalType": "uint256",
          "name": "heroId",
          "type": "uint256"
        }
      ],
      "name": "heroEnergy",
      "outputs": [
        {
          "internalType": "uint256",
          "name": "",
          "type": "uint256"
        }
      ],
      "stateMutability": "view",
      "type": "function"
    },
    {
      "inputs": [
        {
          "internalType": "uint256",
          "name": "heroId",
          "type": "uint256"
        }
      ],
      "name": "heroLevel",
      "outputs": [
        {
          "internalType": "uint256",
          "name": "",
          "type": "uint256"
        }
      ],
      "stateMutability": "view",
      "type": "function"
    },
    {
      "inputs": [
        {
          "internalType": "uint256",
          "name": "heroId",
          "type": "uint256"
        }
      ],
      "name": "heroPower",
      "outputs": [
        {
          "internalType": "uint256",
          "name": "",
          "type": "uint256"
        }
      ],
      "stateMutability": "view",
      "type": "function"
    },
    {
      "inputs": [
        {
          "internalType": "uint256",
          "name": "heroId",
          "type": "uint256"
        }
      ],
      "name": "heroPrimaryAttribute",
      "outputs": [
        {
          "internalType": "uint256",
          "name": "",
          "type": "uint256"
        }
      ],
      "stateMutability": "view",
      "type": "function"
    },
    {
      "inputs": [
        {
          "internalType": "uint256",
          "name": "",
          "type": "uint256"
        }
      ],
      "name": "heroes",
      "outputs": [
        {
          "internalType": "bytes32",
          "name": "name",
          "type": "bytes32"
        },
        {
          "internalType": "uint256",
          "name": "level",
          "type": "uint256"
        },
        {
          "internalType": "uint256",
          "name": "rarity",
          "type": "uint256"
        },
        {
          "internalType": "uint256",
          "name": "primaryAttribute",
          "type": "uint256"
        },
        {
          "internalType": "uint256",
          "name": "attackCapability",
          "type": "uint256"
        },
        {
          "internalType": "uint256",
          "name": "strength",
          "type": "uint256"
        },
        {
          "internalType": "uint256",
          "name": "strengthGain",
          "type": "uint256"
        },
        {
          "internalType": "uint256",
          "name": "agility",
          "type": "uint256"
        },
        {
          "internalType": "uint256",
          "name": "agilityGain",
          "type": "uint256"
        },
        {
          "internalType": "uint256",
          "name": "intelligence",
          "type": "uint256"
        },
        {
          "internalType": "uint256",
          "name": "intelligenceGain",
          "type": "uint256"
        },
        {
          "internalType": "uint256",
          "name": "experience",
          "type": "uint256"
        }
      ],
      "stateMutability": "view",
      "type": "function"
    },
    {
      "inputs": [
        {
          "internalType": "uint256",
          "name": "",
          "type": "uint256"
        }
      ],
      "name": "heroesEnergy",
      "outputs": [
        {
          "internalType": "uint256",
          "name": "",
          "type": "uint256"
        }
      ],
      "stateMutability": "view",
      "type": "function"
    },
    {
      "inputs": [
        {
          "internalType": "uint256",
          "name": "",
          "type": "uint256"
        }
      ],
      "name": "heroesEnergyUsedAt",
      "outputs": [
        {
          "internalType": "uint256",
          "name": "",
          "type": "uint256"
        }
      ],
      "stateMutability": "view",
      "type": "function"
    },
    {
      "inputs": [
        {
          "internalType": "uint256",
          "name": "heroId",
          "type": "uint256"
        },
        {
          "internalType": "uint256",
          "name": "levels",
          "type": "uint256"
        }
      ],
      "name": "levelUp",
      "outputs": [],
      "stateMutability": "nonpayable",
      "type": "function"
    },
    {
      "inputs": [],
      "name": "lobbyBattleAddress",
      "outputs": [
        {
          "internalType": "address",
          "name": "",
          "type": "address"
        }
      ],
      "stateMutability": "view",
      "type": "function"
    },
    {
      "inputs": [],
      "name": "maxHeroEnergy",
      "outputs": [
        {
          "internalType": "uint256",
          "name": "",
          "type": "uint256"
        }
      ],
      "stateMutability": "view",
      "type": "function"
    },
    {
      "inputs": [
        {
          "internalType": "bytes[]",
          "name": "data",
          "type": "bytes[]"
        }
      ],
      "name": "multicall",
      "outputs": [
        {
          "internalType": "bytes[]",
          "name": "results",
          "type": "bytes[]"
        }
      ],
      "stateMutability": "nonpayable",
      "type": "function"
    },
    {
      "inputs": [],
      "name": "owner",
      "outputs": [
        {
          "internalType": "address",
          "name": "",
          "type": "address"
        }
      ],
      "stateMutability": "view",
      "type": "function"
    },
    {
      "inputs": [],
      "name": "primaryPowerMultiplier",
      "outputs": [
        {
          "internalType": "uint256",
          "name": "",
          "type": "uint256"
        }
      ],
      "stateMutability": "view",
      "type": "function"
    },
    {
      "inputs": [],
      "name": "rarityPowerBooster",
      "outputs": [
        {
          "internalType": "uint256",
          "name": "",
          "type": "uint256"
        }
      ],
      "stateMutability": "view",
      "type": "function"
    },
    {
      "inputs": [],
      "name": "renounceOwnership",
      "outputs": [],
      "stateMutability": "nonpayable",
      "type": "function"
    },
    {
      "inputs": [],
      "name": "secondaryMultiplier",
      "outputs": [
        {
          "internalType": "uint256",
          "name": "",
          "type": "uint256"
        }
      ],
      "stateMutability": "view",
      "type": "function"
    },
    {
      "inputs": [
        {
          "internalType": "uint256",
          "name": "value",
          "type": "uint256"
        }
      ],
      "name": "setBaseLevelUpFee",
      "outputs": [],
      "stateMutability": "nonpayable",
      "type": "function"
    },
    {
      "inputs": [
        {
          "internalType": "uint256",
          "name": "value",
          "type": "uint256"
        }
      ],
      "name": "setBonusExp",
      "outputs": [],
      "stateMutability": "nonpayable",
      "type": "function"
    },
    {
      "inputs": [
        {
          "internalType": "uint256",
          "name": "value",
          "type": "uint256"
        }
      ],
      "name": "setBonusLevelUpFee",
      "outputs": [],
      "stateMutability": "nonpayable",
      "type": "function"
    },
    {
      "inputs": [
        {
          "internalType": "uint256",
          "name": "value",
          "type": "uint256"
        }
      ],
      "name": "setEnergyRecoveryTime",
      "outputs": [],
      "stateMutability": "nonpayable",
      "type": "function"
    },
    {
      "inputs": [
        {
          "internalType": "uint256",
          "name": "value",
          "type": "uint256"
        }
      ],
      "name": "setExpDiff",
      "outputs": [],
      "stateMutability": "nonpayable",
      "type": "function"
    },
    {
      "inputs": [
        {
          "internalType": "address",
          "name": "lbAddr",
          "type": "address"
        }
      ],
      "name": "setLobbyBattle",
      "outputs": [],
      "stateMutability": "nonpayable",
      "type": "function"
    },
    {
      "inputs": [
        {
          "internalType": "uint256",
          "name": "value",
          "type": "uint256"
        }
      ],
      "name": "setMaxHeroEnergy",
      "outputs": [],
      "stateMutability": "nonpayable",
      "type": "function"
    },
    {
      "inputs": [
        {
          "internalType": "uint256",
          "name": "value",
          "type": "uint256"
        }
      ],
      "name": "setPrimaryPowerMultiplier",
      "outputs": [],
      "stateMutability": "nonpayable",
      "type": "function"
    },
    {
      "inputs": [
        {
          "internalType": "uint256",
          "name": "value",
          "type": "uint256"
        }
      ],
      "name": "setRarityPowerBooster",
      "outputs": [],
      "stateMutability": "nonpayable",
      "type": "function"
    },
    {
      "inputs": [
        {
          "internalType": "uint256",
          "name": "value",
          "type": "uint256"
        }
      ],
      "name": "setSecondaryMultiplier",
      "outputs": [],
      "stateMutability": "nonpayable",
      "type": "function"
    },
    {
      "inputs": [
        {
          "internalType": "uint256",
          "name": "value",
          "type": "uint256"
        }
      ],
      "name": "setThirdMultiplier",
      "outputs": [],
      "stateMutability": "nonpayable",
      "type": "function"
    },
    {
      "inputs": [
        {
          "internalType": "uint256",
          "name": "heroId",
          "type": "uint256"
        }
      ],
      "name": "spendHeroEnergy",
      "outputs": [],
      "stateMutability": "nonpayable",
      "type": "function"
    },
    {
      "inputs": [],
      "name": "thirdMultiplier",
      "outputs": [
        {
          "internalType": "uint256",
          "name": "",
          "type": "uint256"
        }
      ],
      "stateMutability": "view",
      "type": "function"
    },
    {
      "inputs": [
        {
          "internalType": "address",
          "name": "newOwner",
          "type": "address"
        }
      ],
      "name": "transferOwnership",
      "outputs": [],
      "stateMutability": "nonpayable",
      "type": "function"
    }
  ],
  "bytecode": "0x6080604052690a968163f0a57b40000060025569021e19e0c9bab2400000600355600a600455600860055560068055606e6007556801a055690d9db8000060085560046009556005600a55610e10600b5534801561005c57600080fd5b506100663361006b565b6100bb565b600080546001600160a01b038381166001600160a01b0319831681178455604051919092169283917f8be0079c531659141344cd1fd0a4f28419497f9722a3daafe3b4186f6b6457e09190a35050565b611aca806100ca6000396000f3fe608060405234801561001057600080fd5b506004361061025e5760003560e01c806382bfefc811610146578063ac9650d8116100c3578063cc0f6f7811610087578063cc0f6f78146105b8578063d5c1ed8a146105cb578063dda728cd146105de578063e3a015ce146105f1578063f2fde38b14610604578063f3d1b5ab1461061757600080fd5b8063ac9650d814610549578063b0a04efa14610569578063b38034531461057c578063b8830f9f1461059c578063c97bdb58146105af57600080fd5b80639bad62311161010a5780639bad62311461044a5780639cabd6db1461045d578063a8d4a03b14610470578063aaef012214610537578063ab4051451461054057600080fd5b806382bfefc8146103f9578063852eebff146104145780638af31646146104275780638da5cb5b146104305780639b12bc881461044157600080fd5b80633c68e1ad116101df5780635226dc93116101a35780635226dc93146103725780636e7dff4d14610385578063715018a61461039857806372450f99146103a05780637c0b8de2146103b35780637ce9dd54146103e657600080fd5b80633c68e1ad1461032a5780634018b1ce146103335780634239ca30146103465780634afca080146103595780634fbd1edc1461036957600080fd5b806323cb1c361161022657806323cb1c36146102d3578063294cdacd146102dc5780632a18bdfe146102fc57806331a03ca21461030f57806333ab05411461031757600080fd5b806301783dfa1461026357806306975ac21461027f5780630a36d40b1461028857806313b60c51146102ab5780631ec462e0146102c0575b600080fd5b61026c60045481565b6040519081526020015b60405180910390f35b61026c60035481565b61026c6102963660046114e4565b6000908152600c602052604090206001015490565b6102be6102b93660046114e4565b61063a565b005b6102be6102ce3660046114fd565b610672565b61026c60065481565b61026c6102ea3660046114e4565b600e6020526000908152604090205481565b61026c61030a3660046114e4565b610790565b61026c601e81565b6102be6103253660046114e4565b610800565b61026c60075481565b6102be61034136600461154c565b61082f565b6102be6103543660046114e4565b61087b565b61026c68056bc75e2d6310000081565b61026c60095481565b6102be610380366004611569565b610952565b6102be6103933660046114e4565b610ca9565b6102be610cd8565b6102be6103ae3660046114e4565b610d0e565b6103ce7376b713ff56b9cad82b2820202537a98182b5a0ec81565b6040516001600160a01b039091168152602001610276565b6102be6103f43660046114e4565b610d3d565b6103ce7328ee3e2826264b9c55fcdd122dfa93680916c9b881565b6102be6104223660046115e5565b610d6c565b61026c600a5481565b6000546001600160a01b03166103ce565b61026c60025481565b6102be6104583660046114e4565b610dd5565b6102be61046b3660046114e4565b610e04565b6104de61047e3660046114e4565b600c60205280600052604060002060009150905080600001549080600101549080600201549080600301549080600401549080600501549080600601549080600701549080600801549080600901549080600a01549080600b015490508c565b604080519c8d5260208d019b909b52998b019890985260608a0196909652608089019490945260a088019290925260c087015260e086015261010085015261012084015261014083015261016082015261018001610276565b61026c60055481565b61026c60085481565b61055c61055736600461163c565b610e33565b60405161027691906116d6565b6102be610577366004611738565b610f28565b61026c61058a3660046114e4565b600d6020526000908152604090205481565b6102be6105aa3660046114e4565b611001565b61026c600b5481565b6102be6105c63660046114e4565b611030565b61026c6105d93660046114e4565b61105f565b6102be6105ec3660046114e4565b61124f565b6001546103ce906001600160a01b031681565b6102be61061236600461154c565b61127e565b61026c6106253660046114e4565b6000908152600c602052604090206003015490565b6000546001600160a01b0316331461066d5760405162461bcd60e51b815260040161066490611768565b60405180910390fd5b600455565b6000546001600160a01b0316331461069c5760405162461bcd60e51b815260040161066490611768565b6000828152600c6020526040902060010154156106fb5760405162461bcd60e51b815260206004820152601f60248201527f4865726f4d616e616765723a206865726f20616c7265616479206164646564006044820152606401610664565b6000828152600c60205260409020819061078a8282813581556020820135600182015560408201356002820155606082013560038201556080820135600482015560a0820135600582015560c0820135600682015560e0820135600782015561010082013560088201556101208201356009820155610140820135600a820155610160820135600b8201555050565b50505050565b600a546000828152600d6020526040812054909111156107cc576000828152600d6020526040902054600a546107c691906117b3565b92915050565b6000828152600e602052604090205462015180906107ea90426117b3565b11156107f8575050600a5490565b506000919050565b6000546001600160a01b0316331461082a5760405162461bcd60e51b815260040161066490611768565b600255565b6000546001600160a01b031633146108595760405162461bcd60e51b815260040161066490611768565b600180546001600160a01b0319166001600160a01b0392909216919091179055565b6001546001600160a01b031633146108a55760405162461bcd60e51b8152600401610664906117ca565b60006108b082610790565b116108fd5760405162461bcd60e51b815260206004820152601d60248201527f4865726f4d616e616765723a206865726f207a65726f20656e657267790000006044820152606401610664565b6000818152600d6020526040902054600a5481141561091e57506001610940565b600181019050600a54811415610940576000828152600e602052604090204290555b6000918252600d602052604090912055565b6000828152600c6020526040908190206001015490516331a9108f60e11b81526004810184905233907376b713ff56b9cad82b2820202537a98182b5a0ec90636352211e9060240160206040518083038186803b1580156109b257600080fd5b505afa1580156109c6573d6000803e3d6000fd5b505050506040513d601f19601f820116820180604052508101906109ea9190611814565b6001600160a01b031614610a405760405162461bcd60e51b815260206004820152601c60248201527f4865726f4d616e616765723a206e6f742061204e4654206f776e6572000000006044820152606401610664565b601e8110610a905760405162461bcd60e51b815260206004820152601b60248201527f4865726f4d616e616765723a206865726f206d6178206c6576656c00000000006044820152606401610664565b601e610a9c8383611831565b1115610aea5760405162461bcd60e51b815260206004820152601f60248201527f4865726f4d616e616765723a20746f6f206d616e79206c6576656c73207570006044820152606401610664565b6003546000610b00600019840183026002540190565b90508381026000610b28610b23610b1e600019890189026002611319565b860290565b830190565b6040516323b872dd60e01b8152336004820152306024820152604481018290529091507328ee3e2826264b9c55fcdd122dfa93680916c9b8906323b872dd90606401602060405180830381600087803b158015610b8457600080fd5b505af1158015610b98573d6000803e3d6000fd5b505050506040513d601f19601f82011682018060405250810190610bbc9190611849565b610c085760405162461bcd60e51b815260206004820152601b60248201527f4865726f4d616e616765723a206e6f7420656e6f7567682066656500000000006044820152606401610664565b6000878152600c602052604081208688016001820155600681015460059091018054918902929091610c3b908490611831565b90915550506000878152600c60205260408120600881015460079091018054918902929091610c6b908490611831565b90915550506000878152600c60205260408120600a81015460099091018054918902929091610c9b908490611831565b909155505050505050505050565b6000546001600160a01b03163314610cd35760405162461bcd60e51b815260040161066490611768565b600355565b6000546001600160a01b03163314610d025760405162461bcd60e51b815260040161066490611768565b610d0c6000611332565b565b6000546001600160a01b03163314610d385760405162461bcd60e51b815260040161066490611768565b600b55565b6000546001600160a01b03163314610d675760405162461bcd60e51b815260040161066490611768565b600655565b6001546001600160a01b03163314610d965760405162461bcd60e51b8152600401610664906117ca565b60005b8281101561078a57610dc3848483818110610db657610db6611866565b9050602002013583610f28565b80610dcd8161187c565b915050610d99565b6000546001600160a01b03163314610dff5760405162461bcd60e51b815260040161066490611768565b600755565b6000546001600160a01b03163314610e2e5760405162461bcd60e51b815260040161066490611768565b600a55565b60608167ffffffffffffffff811115610e4e57610e4e611897565b604051908082528060200260200182016040528015610e8157816020015b6060815260200190600190039081610e6c5790505b50905060005b82811015610f2157610ef130858584818110610ea557610ea5611866565b9050602002810190610eb791906118ad565b8080601f01602080910402602001604051908101604052809392919081815260200183838082843760009201919091525061138292505050565b828281518110610f0357610f03611866565b60200260200101819052508080610f199061187c565b915050610e87565b5092915050565b60015433906001600160a01b0316811480610f4b57506001600160a01b03811630145b610f675760405162461bcd60e51b8152600401610664906117ca565b600082610f8957600954610f7a856113ae565b610f84919061190a565b610f92565b610f92846113ae565b6000858152600c602052604090206001810154600b9091015491925090601e821015610fde57820168056bc75e2d631000008110610fde576001919091019068056bc75e2d630fffff19015b6000958652600c60205260409095206001810191909155600b0193909355505050565b6000546001600160a01b0316331461102b5760405162461bcd60e51b815260040161066490611768565b600855565b6000546001600160a01b0316331461105a5760405162461bcd60e51b815260040161066490611768565b600955565b6000818152600c602090815260408083208151610180810183528154815260018201549381019390935260028101549183019190915260038101546060830181905260048201546080840152600582015460a0840152600682015460c0840152600782015460e084015260088201546101008401526009820154610120840152600a820154610140840152600b909101546101608301528290819081906111145750505060a081015161012082015160e08301515b8360600151600114156111355750505060e081015160a08201516101208301515b8360600151600214156111565750505061012081015160e082015160a08301515b600060065482611166919061192c565b600554611173908561192c565b600454611180908761192c565b61118a9190611831565b6111949190611831565b90508460400151600114156111c4576064600754826111b3919061192c565b6111bd919061190a565b9050611245565b8460400151600214156111ed5761271060026007546111e39190611a2f565b6111b3908361192c565b84604001516003141561120d57620f424060036007546111e39190611a2f565b846040015160041415611245576305f5e100600460075461122e9190611a2f565b611238908361192c565b611242919061190a565b90505b9695505050505050565b6000546001600160a01b031633146112795760405162461bcd60e51b815260040161066490611768565b600555565b6000546001600160a01b031633146112a85760405162461bcd60e51b815260040161066490611768565b6001600160a01b03811661130d5760405162461bcd60e51b815260206004820152602660248201527f4f776e61626c653a206e6577206f776e657220697320746865207a65726f206160448201526564647265737360d01b6064820152608401610664565b61131681611332565b50565b600081838161132a5761132a6118f4565b049392505050565b600080546001600160a01b038381166001600160a01b0319831681178455604051919092169283917f8be0079c531659141344cd1fd0a4f28419497f9722a3daafe3b4186f6b6457e09190a35050565b60606113a78383604051806060016040528060278152602001611a6e602791396113dd565b9392505050565b6000818152600c60205260408120600101546000198101670de0b6b3a7640000026008549091508190036113a7565b60606001600160a01b0384163b6114455760405162461bcd60e51b815260206004820152602660248201527f416464726573733a2064656c65676174652063616c6c20746f206e6f6e2d636f6044820152651b9d1c9858dd60d21b6064820152608401610664565b600080856001600160a01b0316856040516114609190611a3e565b600060405180830381855af49150503d806000811461149b576040519150601f19603f3d011682016040523d82523d6000602084013e6114a0565b606091505b5091509150611245828286606083156114ba5750816113a7565b8251156114ca5782518084602001fd5b8160405162461bcd60e51b81526004016106649190611a5a565b6000602082840312156114f657600080fd5b5035919050565b6000808284036101a081121561151257600080fd5b83359250610180601f198201121561152957600080fd5b506020830190509250929050565b6001600160a01b038116811461131657600080fd5b60006020828403121561155e57600080fd5b81356113a781611537565b6000806040838503121561157c57600080fd5b50508035926020909101359150565b60008083601f84011261159d57600080fd5b50813567ffffffffffffffff8111156115b557600080fd5b6020830191508360208260051b85010111156115d057600080fd5b9250929050565b801515811461131657600080fd5b6000806000604084860312156115fa57600080fd5b833567ffffffffffffffff81111561161157600080fd5b61161d8682870161158b565b9094509250506020840135611631816115d7565b809150509250925092565b6000806020838503121561164f57600080fd5b823567ffffffffffffffff81111561166657600080fd5b6116728582860161158b565b90969095509350505050565b60005b83811015611699578181015183820152602001611681565b8381111561078a5750506000910152565b600081518084526116c281602086016020860161167e565b601f01601f19169290920160200192915050565b6000602080830181845280855180835260408601915060408160051b870101925083870160005b8281101561172b57603f198886030184526117198583516116aa565b945092850192908501906001016116fd565b5092979650505050505050565b6000806040838503121561174b57600080fd5b82359150602083013561175d816115d7565b809150509250929050565b6020808252818101527f4f776e61626c653a2063616c6c6572206973206e6f7420746865206f776e6572604082015260600190565b634e487b7160e01b600052601160045260246000fd5b6000828210156117c5576117c561179d565b500390565b6020808252602a908201527f4865726f4d616e616765723a2063616c6c61626c65206279206c6f62627920626040820152696174746c65206f6e6c7960b01b606082015260800190565b60006020828403121561182657600080fd5b81516113a781611537565b600082198211156118445761184461179d565b500190565b60006020828403121561185b57600080fd5b81516113a7816115d7565b634e487b7160e01b600052603260045260246000fd5b60006000198214156118905761189061179d565b5060010190565b634e487b7160e01b600052604160045260246000fd5b6000808335601e198436030181126118c457600080fd5b83018035915067ffffffffffffffff8211156118df57600080fd5b6020019150368190038213156115d057600080fd5b634e487b7160e01b600052601260045260246000fd5b60008261192757634e487b7160e01b600052601260045260246000fd5b500490565b60008160001904831182151516156119465761194661179d565b500290565b600181815b8085111561198657816000190482111561196c5761196c61179d565b8085161561197957918102915b93841c9390800290611950565b509250929050565b60008261199d575060016107c6565b816119aa575060006107c6565b81600181146119c057600281146119ca576119e6565b60019150506107c6565b60ff8411156119db576119db61179d565b50506001821b6107c6565b5060208310610133831016604e8410600b8410161715611a09575081810a6107c6565b611a13838361194b565b8060001904821115611a2757611a2761179d565b029392505050565b60006113a760ff84168361198e565b60008251611a5081846020870161167e565b9190910192915050565b6020815260006113a760208301846116aa56fe416464726573733a206c6f772d6c6576656c2064656c65676174652063616c6c206661696c6564a2646970667358221220cdcdc9995372d0d7de29ff18241ea9a36463812bd6d4bc86c4095c97942a4a6264736f6c63430008090033",
  "linkReferences": {},
  "deployedLinkReferences": {}
}