{
  "_format": "hh-sol-artifact-1",
  "contractName": "HeroManager",
  "sourceName": "contracts/game/HeroManager.sol",
  "abi": [
    {
      "inputs": [
        {
          "internalType": "address",
          "name": "tokenAddress",
          "type": "address"
        },
        {
          "internalType": "address",
          "name": "nftAddress",
          "type": "address"
        }
      ],
      "stateMutability": "nonpayable",
      "type": "constructor"
    },
    {
      "anonymous": false,
      "inputs": [
        {
          "indexed": true,
          "internalType": "address",
          "name": "previousOwner",
          "type": "address"
        },
        {
          "indexed": true,
          "internalType": "address",
          "name": "newOwner",
          "type": "address"
        }
      ],
      "name": "OwnershipTransferred",
      "type": "event"
    },
    {
      "inputs": [],
      "name": "HERO_MAX_EXP",
      "outputs": [
        {
          "internalType": "uint256",
          "name": "",
          "type": "uint256"
        }
      ],
      "stateMutability": "view",
      "type": "function"
    },
    {
      "inputs": [],
      "name": "HERO_MAX_LEVEL",
      "outputs": [
        {
          "internalType": "uint256",
          "name": "",
          "type": "uint256"
        }
      ],
      "stateMutability": "view",
      "type": "function"
    },
    {
      "inputs": [
        {
          "internalType": "uint256",
          "name": "heroId",
          "type": "uint256"
        },
        {
          "components": [
            {
              "internalType": "bytes32",
              "name": "name",
              "type": "bytes32"
            },
            {
              "internalType": "uint256",
              "name": "level",
              "type": "uint256"
            },
            {
              "internalType": "uint256",
              "name": "rarity",
              "type": "uint256"
            },
            {
              "internalType": "uint256",
              "name": "primaryAttribute",
              "type": "uint256"
            },
            {
              "internalType": "uint256",
              "name": "attackCapability",
              "type": "uint256"
            },
            {
              "internalType": "uint256",
              "name": "strength",
              "type": "uint256"
            },
            {
              "internalType": "uint256",
              "name": "strengthGain",
              "type": "uint256"
            },
            {
              "internalType": "uint256",
              "name": "agility",
              "type": "uint256"
            },
            {
              "internalType": "uint256",
              "name": "agilityGain",
              "type": "uint256"
            },
            {
              "internalType": "uint256",
              "name": "intelligence",
              "type": "uint256"
            },
            {
              "internalType": "uint256",
              "name": "intelligenceGain",
              "type": "uint256"
            },
            {
              "internalType": "uint256",
              "name": "experience",
              "type": "uint256"
            }
          ],
          "internalType": "struct GameFi.Hero",
          "name": "hero",
          "type": "tuple"
        }
      ],
      "name": "addHero",
      "outputs": [],
      "stateMutability": "nonpayable",
      "type": "function"
    },
    {
      "inputs": [],
      "name": "baseLevelUpFee",
      "outputs": [
        {
          "internalType": "uint256",
          "name": "",
          "type": "uint256"
        }
      ],
      "stateMutability": "view",
      "type": "function"
    },
    {
      "inputs": [],
      "name": "bonusExp",
      "outputs": [
        {
          "internalType": "uint256",
          "name": "",
          "type": "uint256"
        }
      ],
      "stateMutability": "view",
      "type": "function"
    },
    {
      "inputs": [],
      "name": "bonusLevelUpFee",
      "outputs": [
        {
          "internalType": "uint256",
          "name": "",
          "type": "uint256"
        }
      ],
      "stateMutability": "view",
      "type": "function"
    },
    {
      "inputs": [
        {
          "internalType": "uint256[]",
          "name": "heroIds",
          "type": "uint256[]"
        },
        {
          "internalType": "bool",
          "name": "won",
          "type": "bool"
        }
      ],
      "name": "bulkExpUp",
      "outputs": [],
      "stateMutability": "nonpayable",
      "type": "function"
    },
    {
      "inputs": [],
      "name": "energyRecoveryTime",
      "outputs": [
        {
          "internalType": "uint256",
          "name": "",
          "type": "uint256"
        }
      ],
      "stateMutability": "view",
      "type": "function"
    },
    {
      "inputs": [],
      "name": "expDiff",
      "outputs": [
        {
          "internalType": "uint256",
          "name": "",
          "type": "uint256"
        }
      ],
      "stateMutability": "view",
      "type": "function"
    },
    {
      "inputs": [
        {
          "internalType": "uint256",
          "name": "heroId",
          "type": "uint256"
        },
        {
          "internalType": "bool",
          "name": "won",
          "type": "bool"
        }
      ],
      "name": "expUp",
      "outputs": [],
      "stateMutability": "nonpayable",
      "type": "function"
    },
    {
      "inputs": [
        {
          "internalType": "uint256",
          "name": "heroId",
          "type": "uint256"
        }
      ],
      "name": "heroEnergy",
      "outputs": [
        {
          "internalType": "uint256",
          "name": "",
          "type": "uint256"
        }
      ],
      "stateMutability": "view",
      "type": "function"
    },
    {
      "inputs": [
        {
          "internalType": "uint256",
          "name": "heroId",
          "type": "uint256"
        }
      ],
      "name": "heroLevel",
      "outputs": [
        {
          "internalType": "uint256",
          "name": "",
          "type": "uint256"
        }
      ],
      "stateMutability": "view",
      "type": "function"
    },
    {
      "inputs": [
        {
          "internalType": "uint256",
          "name": "heroId",
          "type": "uint256"
        }
      ],
      "name": "heroPower",
      "outputs": [
        {
          "internalType": "uint256",
          "name": "",
          "type": "uint256"
        }
      ],
      "stateMutability": "view",
      "type": "function"
    },
    {
      "inputs": [
        {
          "internalType": "uint256",
          "name": "heroId",
          "type": "uint256"
        }
      ],
      "name": "heroPrimaryAttribute",
      "outputs": [
        {
          "internalType": "uint256",
          "name": "",
          "type": "uint256"
        }
      ],
      "stateMutability": "view",
      "type": "function"
    },
    {
      "inputs": [
        {
          "internalType": "uint256",
          "name": "",
          "type": "uint256"
        }
      ],
      "name": "heroes",
      "outputs": [
        {
          "internalType": "bytes32",
          "name": "name",
          "type": "bytes32"
        },
        {
          "internalType": "uint256",
          "name": "level",
          "type": "uint256"
        },
        {
          "internalType": "uint256",
          "name": "rarity",
          "type": "uint256"
        },
        {
          "internalType": "uint256",
          "name": "primaryAttribute",
          "type": "uint256"
        },
        {
          "internalType": "uint256",
          "name": "attackCapability",
          "type": "uint256"
        },
        {
          "internalType": "uint256",
          "name": "strength",
          "type": "uint256"
        },
        {
          "internalType": "uint256",
          "name": "strengthGain",
          "type": "uint256"
        },
        {
          "internalType": "uint256",
          "name": "agility",
          "type": "uint256"
        },
        {
          "internalType": "uint256",
          "name": "agilityGain",
          "type": "uint256"
        },
        {
          "internalType": "uint256",
          "name": "intelligence",
          "type": "uint256"
        },
        {
          "internalType": "uint256",
          "name": "intelligenceGain",
          "type": "uint256"
        },
        {
          "internalType": "uint256",
          "name": "experience",
          "type": "uint256"
        }
      ],
      "stateMutability": "view",
      "type": "function"
    },
    {
      "inputs": [
        {
          "internalType": "uint256",
          "name": "",
          "type": "uint256"
        }
      ],
      "name": "heroesEnergy",
      "outputs": [
        {
          "internalType": "uint256",
          "name": "",
          "type": "uint256"
        }
      ],
      "stateMutability": "view",
      "type": "function"
    },
    {
      "inputs": [
        {
          "internalType": "uint256",
          "name": "",
          "type": "uint256"
        }
      ],
      "name": "heroesEnergyUsedAt",
      "outputs": [
        {
          "internalType": "uint256",
          "name": "",
          "type": "uint256"
        }
      ],
      "stateMutability": "view",
      "type": "function"
    },
    {
      "inputs": [
        {
          "internalType": "uint256",
          "name": "level",
          "type": "uint256"
        }
      ],
      "name": "levelExp",
      "outputs": [
        {
          "internalType": "uint256",
          "name": "",
          "type": "uint256"
        }
      ],
      "stateMutability": "view",
      "type": "function"
    },
    {
      "inputs": [
        {
          "internalType": "uint256",
          "name": "heroId",
          "type": "uint256"
        },
        {
          "internalType": "uint256",
          "name": "levels",
          "type": "uint256"
        }
      ],
      "name": "levelUp",
      "outputs": [],
      "stateMutability": "nonpayable",
      "type": "function"
    },
    {
      "inputs": [
        {
          "internalType": "uint256",
          "name": "heroId",
          "type": "uint256"
        },
        {
          "internalType": "uint256",
          "name": "levels",
          "type": "uint256"
        }
      ],
      "name": "levelUpFee",
      "outputs": [
        {
          "internalType": "uint256",
          "name": "",
          "type": "uint256"
        }
      ],
      "stateMutability": "view",
      "type": "function"
    },
    {
      "inputs": [],
      "name": "lobbyManagerAddress",
      "outputs": [
        {
          "internalType": "address",
          "name": "",
          "type": "address"
        }
      ],
      "stateMutability": "view",
      "type": "function"
    },
    {
      "inputs": [],
      "name": "maxHeroEnergy",
      "outputs": [
        {
          "internalType": "uint256",
          "name": "",
          "type": "uint256"
        }
      ],
      "stateMutability": "view",
      "type": "function"
    },
    {
      "inputs": [
        {
          "internalType": "bytes[]",
          "name": "data",
          "type": "bytes[]"
        }
      ],
      "name": "multicall",
      "outputs": [
        {
          "internalType": "bytes[]",
          "name": "results",
          "type": "bytes[]"
        }
      ],
      "stateMutability": "nonpayable",
      "type": "function"
    },
    {
      "inputs": [],
      "name": "nft",
      "outputs": [
        {
          "internalType": "contract IERC721",
          "name": "",
          "type": "address"
        }
      ],
      "stateMutability": "view",
      "type": "function"
    },
    {
      "inputs": [],
      "name": "owner",
      "outputs": [
        {
          "internalType": "address",
          "name": "",
          "type": "address"
        }
      ],
      "stateMutability": "view",
      "type": "function"
    },
    {
      "inputs": [],
      "name": "primaryPowerMultiplier",
      "outputs": [
        {
          "internalType": "uint256",
          "name": "",
          "type": "uint256"
        }
      ],
      "stateMutability": "view",
      "type": "function"
    },
    {
      "inputs": [],
      "name": "rarityPowerBooster",
      "outputs": [
        {
          "internalType": "uint256",
          "name": "",
          "type": "uint256"
        }
      ],
      "stateMutability": "view",
      "type": "function"
    },
    {
      "inputs": [],
      "name": "renounceOwnership",
      "outputs": [],
      "stateMutability": "nonpayable",
      "type": "function"
    },
    {
      "inputs": [],
      "name": "secondaryMultiplier",
      "outputs": [
        {
          "internalType": "uint256",
          "name": "",
          "type": "uint256"
        }
      ],
      "stateMutability": "view",
      "type": "function"
    },
    {
      "inputs": [
        {
          "internalType": "uint256",
          "name": "value",
          "type": "uint256"
        }
      ],
      "name": "setBaseLevelUpFee",
      "outputs": [],
      "stateMutability": "nonpayable",
      "type": "function"
    },
    {
      "inputs": [
        {
          "internalType": "uint256",
          "name": "value",
          "type": "uint256"
        }
      ],
      "name": "setBonusExp",
      "outputs": [],
      "stateMutability": "nonpayable",
      "type": "function"
    },
    {
      "inputs": [
        {
          "internalType": "uint256",
          "name": "value",
          "type": "uint256"
        }
      ],
      "name": "setBonusLevelUpFee",
      "outputs": [],
      "stateMutability": "nonpayable",
      "type": "function"
    },
    {
      "inputs": [
        {
          "internalType": "uint256",
          "name": "value",
          "type": "uint256"
        }
      ],
      "name": "setEnergyRecoveryTime",
      "outputs": [],
      "stateMutability": "nonpayable",
      "type": "function"
    },
    {
      "inputs": [
        {
          "internalType": "uint256",
          "name": "value",
          "type": "uint256"
        }
      ],
      "name": "setExpDiff",
      "outputs": [],
      "stateMutability": "nonpayable",
      "type": "function"
    },
    {
      "inputs": [
        {
          "internalType": "address",
          "name": "lbAddr",
          "type": "address"
        }
      ],
      "name": "setLobbyManager",
      "outputs": [],
      "stateMutability": "nonpayable",
      "type": "function"
    },
    {
      "inputs": [
        {
          "internalType": "uint256",
          "name": "value",
          "type": "uint256"
        }
      ],
      "name": "setMaxHeroEnergy",
      "outputs": [],
      "stateMutability": "nonpayable",
      "type": "function"
    },
    {
      "inputs": [
        {
          "internalType": "uint256",
          "name": "value",
          "type": "uint256"
        }
      ],
      "name": "setPrimaryPowerMultiplier",
      "outputs": [],
      "stateMutability": "nonpayable",
      "type": "function"
    },
    {
      "inputs": [
        {
          "internalType": "uint256",
          "name": "value",
          "type": "uint256"
        }
      ],
      "name": "setRarityPowerBooster",
      "outputs": [],
      "stateMutability": "nonpayable",
      "type": "function"
    },
    {
      "inputs": [
        {
          "internalType": "uint256",
          "name": "value",
          "type": "uint256"
        }
      ],
      "name": "setSecondaryMultiplier",
      "outputs": [],
      "stateMutability": "nonpayable",
      "type": "function"
    },
    {
      "inputs": [
        {
          "internalType": "uint256",
          "name": "value",
          "type": "uint256"
        }
      ],
      "name": "setThirdMultiplier",
      "outputs": [],
      "stateMutability": "nonpayable",
      "type": "function"
    },
    {
      "inputs": [
        {
          "internalType": "uint256",
          "name": "heroId",
          "type": "uint256"
        }
      ],
      "name": "spendHeroEnergy",
      "outputs": [],
      "stateMutability": "nonpayable",
      "type": "function"
    },
    {
      "inputs": [],
      "name": "thirdMultiplier",
      "outputs": [
        {
          "internalType": "uint256",
          "name": "",
          "type": "uint256"
        }
      ],
      "stateMutability": "view",
      "type": "function"
    },
    {
      "inputs": [],
      "name": "token",
      "outputs": [
        {
          "internalType": "contract IERC20",
          "name": "",
          "type": "address"
        }
      ],
      "stateMutability": "view",
      "type": "function"
    },
    {
      "inputs": [
        {
          "internalType": "address",
          "name": "newOwner",
          "type": "address"
        }
      ],
      "name": "transferOwnership",
      "outputs": [],
      "stateMutability": "nonpayable",
      "type": "function"
    },
    {
      "inputs": [
        {
          "internalType": "uint256[]",
          "name": "heroIds",
          "type": "uint256[]"
        }
      ],
      "name": "validateHeroEnergies",
      "outputs": [
        {
          "internalType": "bool",
          "name": "",
          "type": "bool"
        }
      ],
      "stateMutability": "view",
      "type": "function"
    },
    {
      "inputs": [
        {
          "internalType": "uint256[]",
          "name": "heroIds",
          "type": "uint256[]"
        },
        {
          "internalType": "address",
          "name": "owner",
          "type": "address"
        }
      ],
      "name": "validateHeroIds",
      "outputs": [
        {
          "internalType": "bool",
          "name": "",
          "type": "bool"
        }
      ],
      "stateMutability": "view",
      "type": "function"
    },
    {
      "inputs": [
        {
          "internalType": "uint256",
          "name": "amount",
          "type": "uint256"
        }
      ],
      "name": "withdrawReserves",
      "outputs": [],
      "stateMutability": "nonpayable",
      "type": "function"
    }
  ],
  "bytecode": "0x6080604052690a968163f0a57b40000060045569021e19e0c9bab2400000600555600a60065560086007556006600855606e6009556801a055690d9db80000600a556004600b556005600c55610e10600d553480156200005e57600080fd5b5060405162001fb538038062001fb583398101604081905262000081916200012b565b6200008c33620000be565b600180546001600160a01b039384166001600160a01b0319918216179091556002805492909316911617905562000163565b600080546001600160a01b038381166001600160a01b0319831681178455604051919092169283917f8be0079c531659141344cd1fd0a4f28419497f9722a3daafe3b4186f6b6457e09190a35050565b80516001600160a01b03811681146200012657600080fd5b919050565b600080604083850312156200013f57600080fd5b6200014a836200010e565b91506200015a602084016200010e565b90509250929050565b611e4280620001736000396000f3fe608060405234801561001057600080fd5b50600436106102955760003560e01c80638af3164611610167578063b0a04efa116100ce578063cc0f6f7811610087578063cc0f6f781461064e578063d5c1ed8a14610661578063dda728cd14610674578063f2fde38b14610687578063f3d1b5ab1461069a578063fc0c546a146106bd57600080fd5b8063b0a04efa146105d9578063b3803453146105ec578063b7601a151461060c578063b8830f9f1461061f578063c6afe9ae14610632578063c97bdb581461064557600080fd5b8063a4197f8211610120578063a4197f82146104ba578063a8d4a03b146104cd578063aaef012214610594578063ab4051451461059d578063ac9650d8146105a6578063af264bd7146105c657600080fd5b80638af316461461045e5780638da5cb5b1461046757806398aa8c33146104785780639b12bc881461048b5780639bad6231146104945780639cabd6db146104a757600080fd5b806333ab05411161020b5780635226dc93116101c45780635226dc93146103f75780636e7dff4d1461040a578063715018a61461041d57806372450f99146104255780637ce9dd5414610438578063852eebff1461044b57600080fd5b806333ab0541146103845780633c68e1ad146103975780634239ca30146103a057806347ccca02146103b35780634afca080146103de5780634fbd1edc146103ee57600080fd5b80631636f10c1161025d5780631636f10c1461031a5780631ec462e01461032d57806323cb1c3614610340578063294cdacd146103495780632a18bdfe1461036957806331a03ca21461037c57600080fd5b80630152368f1461029a57806301783dfa146102c257806306975ac2146102d95780630a36d40b146102e257806313b60c5114610305575b600080fd5b6102ad6102a8366004611871565b6106d0565b60405190151581526020015b60405180910390f35b6102cb60065481565b6040519081526020016102b9565b6102cb60055481565b6102cb6102f03660046118c8565b6000908152600e602052604090206001015490565b6103186103133660046118c8565b6107e8565b005b6103186103283660046118e1565b610817565b61031861033b3660046118fe565b610863565b6102cb60085481565b6102cb6103573660046118c8565b60106020526000908152604090205481565b6102cb6103773660046118c8565b610981565b6102cb601e81565b6103186103923660046118c8565b6109e5565b6102cb60095481565b6103186103ae3660046118c8565b610a14565b6002546103c6906001600160a01b031681565b6040516001600160a01b0390911681526020016102b9565b6102cb68056bc75e2d6310000081565b6102cb600b5481565b610318610405366004611938565b610aeb565b6103186104183660046118c8565b610e3c565b610318610e6b565b6103186104333660046118c8565b610ea1565b6103186104463660046118c8565b610ed0565b610318610459366004611968565b610eff565b6102cb600c5481565b6000546001600160a01b03166103c6565b6103186104863660046118c8565b610f5e565b6102cb60045481565b6103186104a23660046118c8565b611010565b6103186104b53660046118c8565b61103f565b6102cb6104c83660046118c8565b61106e565b61053b6104db3660046118c8565b600e60205280600052604060002060009150905080600001549080600101549080600201549080600301549080600401549080600501549080600601549080600701549080600801549080600901549080600a01549080600b015490508c565b604080519c8d5260208d019b909b52998b019890985260608a0196909652608089019490945260a088019290925260c087015260e0860152610100850152610120840152610140830152610160820152610180016102b9565b6102cb60075481565b6102cb600a5481565b6105b96105b43660046119b4565b61108f565b6040516102b99190611a4e565b6102cb6105d4366004611938565b611184565b6103186105e7366004611ab0565b6111e1565b6102cb6105fa3660046118c8565b600f6020526000908152604090205481565b6102ad61061a3660046119b4565b6112ba565b61031861062d3660046118c8565b611348565b6003546103c6906001600160a01b031681565b6102cb600d5481565b61031861065c3660046118c8565b611377565b6102cb61066f3660046118c8565b6113a6565b6103186106823660046118c8565b611596565b6103186106953660046118e1565b6115c5565b6102cb6106a83660046118c8565b6000908152600e602052604090206003015490565b6001546103c6906001600160a01b031681565b6000805b838110156107db576002546001600160a01b038085169116636352211e87878581811061070357610703611ae0565b905060200201356040518263ffffffff1660e01b815260040161072891815260200190565b60206040518083038186803b15801561074057600080fd5b505afa158015610754573d6000803e3d6000fd5b505050506040513d601f19601f820116820180604052508101906107789190611af6565b6001600160a01b0316146107d35760405162461bcd60e51b815260206004820152601b60248201527f4865726f4d616e616765723a206e6f74206865726f206f776e6572000000000060448201526064015b60405180910390fd5b6001016106d4565b50600190505b9392505050565b6000546001600160a01b031633146108125760405162461bcd60e51b81526004016107ca90611b13565b600655565b6000546001600160a01b031633146108415760405162461bcd60e51b81526004016107ca90611b13565b600380546001600160a01b0319166001600160a01b0392909216919091179055565b6000546001600160a01b0316331461088d5760405162461bcd60e51b81526004016107ca90611b13565b6000828152600e6020526040902060010154156108ec5760405162461bcd60e51b815260206004820152601f60248201527f4865726f4d616e616765723a206865726f20616c72656164792061646465640060448201526064016107ca565b6000828152600e60205260409020819061097b8282813581556020820135600182015560408201356002820155606082013560038201556080820135600482015560a0820135600582015560c0820135600682015560e0820135600782015561010082013560088201556101208201356009820155610140820135600a820155610160820135600b8201555050565b50505050565b600c546000828152600f6020526040812054909190818110156109b0576109a88183611b5e565b949350505050565b60008481526010602052604090205462015180906109ce9042611b5e565b11156109db575092915050565b5060009392505050565b6000546001600160a01b03163314610a0f5760405162461bcd60e51b81526004016107ca90611b13565b600455565b6003546001600160a01b03163314610a3e5760405162461bcd60e51b81526004016107ca90611b75565b6000610a4982610981565b11610a965760405162461bcd60e51b815260206004820152601d60248201527f4865726f4d616e616765723a206865726f207a65726f20656e6572677900000060448201526064016107ca565b6000818152600f6020526040902054600c54811415610ab757506001610ad9565b600181019050600c54811415610ad95760008281526010602052604090204290555b6000918252600f602052604090912055565b6000828152600e6020526040908190206001015460025491516331a9108f60e11b815260048101859052909133916001600160a01b0390911690636352211e9060240160206040518083038186803b158015610b4657600080fd5b505afa158015610b5a573d6000803e3d6000fd5b505050506040513d601f19601f82011682018060405250810190610b7e9190611af6565b6001600160a01b031614610bd45760405162461bcd60e51b815260206004820152601c60248201527f4865726f4d616e616765723a206e6f742061204e4654206f776e65720000000060448201526064016107ca565b601e8110610c245760405162461bcd60e51b815260206004820152601b60248201527f4865726f4d616e616765723a206865726f206d6178206c6576656c000000000060448201526064016107ca565b601e610c308383611bbf565b1115610c7e5760405162461bcd60e51b815260206004820152601f60248201527f4865726f4d616e616765723a20746f6f206d616e79206c6576656c732075700060448201526064016107ca565b6000610c8a8484611184565b6001546040516323b872dd60e01b8152336004820152306024820152604481018390529192506001600160a01b0316906323b872dd90606401602060405180830381600087803b158015610cdd57600080fd5b505af1158015610cf1573d6000803e3d6000fd5b505050506040513d601f19601f82011682018060405250810190610d159190611bd7565b610d615760405162461bcd60e51b815260206004820152601b60248201527f4865726f4d616e616765723a206e6f7420656e6f75676820666565000000000060448201526064016107ca565b506000838152600e602081815260408084208151610180810183528154815260018201805482860152600283015493820193909352600382015460608201526004820154608082015260058201805460a08301908152600684015460c0840190815260078501805460e08601908152600887015461010087019081526009880180546101208901908152600a8a01546101408a01908152600b909a018054610160909a01999099529f8d529a9099529a8c01909655519051908a02019055925195519587029095019055925194519490930290930190915555565b6000546001600160a01b03163314610e665760405162461bcd60e51b81526004016107ca90611b13565b600555565b6000546001600160a01b03163314610e955760405162461bcd60e51b81526004016107ca90611b13565b610e9f6000611660565b565b6000546001600160a01b03163314610ecb5760405162461bcd60e51b81526004016107ca90611b13565b600d55565b6000546001600160a01b03163314610efa5760405162461bcd60e51b81526004016107ca90611b13565b600855565b6003546001600160a01b03163314610f295760405162461bcd60e51b81526004016107ca90611b75565b60005b8281101561097b57610f56848483818110610f4957610f49611ae0565b90506020020135836111e1565b600101610f2c565b6000546001600160a01b03163314610f885760405162461bcd60e51b81526004016107ca90611b13565b60015460405163a9059cbb60e01b8152336004820152602481018390526001600160a01b039091169063a9059cbb90604401602060405180830381600087803b158015610fd457600080fd5b505af1158015610fe8573d6000803e3d6000fd5b505050506040513d601f19601f8201168201806040525081019061100c9190611bd7565b5050565b6000546001600160a01b0316331461103a5760405162461bcd60e51b81526004016107ca90611b13565b600955565b6000546001600160a01b031633146110695760405162461bcd60e51b81526004016107ca90611b13565b600c55565b60006110896000198301670de0b6b3a764000002600a540390565b92915050565b60608167ffffffffffffffff8111156110aa576110aa611bf4565b6040519080825280602002602001820160405280156110dd57816020015b60608152602001906001900390816110c85790505b50905060005b8281101561117d5761114d3085858481811061110157611101611ae0565b90506020028101906111139190611c0a565b8080601f0160208091040260200160405190810160405280939291908181526020018383808284376000920191909152506116b092505050565b82828151811061115f5761115f611ae0565b6020026020010181905250808061117590611c51565b9150506110e3565b5092915050565b6000828152600e6020526040812060010154600554826111ab600019840183026004540190565b905084810260006111d56111d06111cb60026000198b018b025b906116d5565b860290565b830190565b98975050505050505050565b60035433906001600160a01b031681148061120457506001600160a01b03811630145b6112205760405162461bcd60e51b81526004016107ca90611b75565b6000838152600e6020526040902060010154601e81101561097b5760008361125657611251600b546111c5876116ee565b61125f565b61125f856116ee565b6000868152600e60205260409020600b0154909150810168056bc75e2d63100000811061129a576001929092019168056bc75e2d630fffff19015b6000868152600e6020526040902060018101849055600b01555050505050565b6000805b8281101561133e5760006112e98585848181106112dd576112dd611ae0565b90506020020135610981565b116113365760405162461bcd60e51b815260206004820152601e60248201527f4865726f4d616e616765723a206e6f7420656e6f75676820656e65726779000060448201526064016107ca565b6001016112be565b5060019392505050565b6000546001600160a01b031633146113725760405162461bcd60e51b81526004016107ca90611b13565b600a55565b6000546001600160a01b031633146113a15760405162461bcd60e51b81526004016107ca90611b13565b600b55565b6000818152600e602090815260408083208151610180810183528154815260018201549381019390935260028101549183019190915260038101546060830181905260048201546080840152600582015460a0840152600682015460c0840152600782015460e084015260088201546101008401526009820154610120840152600a820154610140840152600b9091015461016083015282908190819061145b5750505060a081015161012082015160e08301515b83606001516001141561147c5750505060e081015160a08201516101208301515b83606001516002141561149d5750505061012081015160e082015160a08301515b6000600854826114ad9190611c6c565b6007546114ba9085611c6c565b6006546114c79087611c6c565b6114d19190611bbf565b6114db9190611bbf565b905084604001516001141561150b576064600954826114fa9190611c6c565b6115049190611ca1565b905061158c565b84604001516002141561153457612710600260095461152a9190611da7565b6114fa9083611c6c565b84604001516003141561155457620f4240600360095461152a9190611da7565b84604001516004141561158c576305f5e10060046009546115759190611da7565b61157f9083611c6c565b6115899190611ca1565b90505b9695505050505050565b6000546001600160a01b031633146115c05760405162461bcd60e51b81526004016107ca90611b13565b600755565b6000546001600160a01b031633146115ef5760405162461bcd60e51b81526004016107ca90611b13565b6001600160a01b0381166116545760405162461bcd60e51b815260206004820152602660248201527f4f776e61626c653a206e6577206f776e657220697320746865207a65726f206160448201526564647265737360d01b60648201526084016107ca565b61165d81611660565b50565b600080546001600160a01b038381166001600160a01b0319831681178455604051919092169283917f8be0079c531659141344cd1fd0a4f28419497f9722a3daafe3b4186f6b6457e09190a35050565b60606107e18383604051806060016040528060278152602001611de660279139611709565b60008183816116e6576116e6611c8b565b049392505050565b6000818152600e60205260408120600101546107e18161106e565b60606001600160a01b0384163b6117715760405162461bcd60e51b815260206004820152602660248201527f416464726573733a2064656c65676174652063616c6c20746f206e6f6e2d636f6044820152651b9d1c9858dd60d21b60648201526084016107ca565b600080856001600160a01b03168560405161178c9190611db6565b600060405180830381855af49150503d80600081146117c7576040519150601f19603f3d011682016040523d82523d6000602084013e6117cc565b606091505b509150915061158c828286606083156117e65750816107e1565b8251156117f65782518084602001fd5b8160405162461bcd60e51b81526004016107ca9190611dd2565b60008083601f84011261182257600080fd5b50813567ffffffffffffffff81111561183a57600080fd5b6020830191508360208260051b850101111561185557600080fd5b9250929050565b6001600160a01b038116811461165d57600080fd5b60008060006040848603121561188657600080fd5b833567ffffffffffffffff81111561189d57600080fd5b6118a986828701611810565b90945092505060208401356118bd8161185c565b809150509250925092565b6000602082840312156118da57600080fd5b5035919050565b6000602082840312156118f357600080fd5b81356107e18161185c565b6000808284036101a081121561191357600080fd5b83359250610180601f198201121561192a57600080fd5b506020830190509250929050565b6000806040838503121561194b57600080fd5b50508035926020909101359150565b801515811461165d57600080fd5b60008060006040848603121561197d57600080fd5b833567ffffffffffffffff81111561199457600080fd5b6119a086828701611810565b90945092505060208401356118bd8161195a565b600080602083850312156119c757600080fd5b823567ffffffffffffffff8111156119de57600080fd5b6119ea85828601611810565b90969095509350505050565b60005b83811015611a115781810151838201526020016119f9565b8381111561097b5750506000910152565b60008151808452611a3a8160208601602086016119f6565b601f01601f19169290920160200192915050565b6000602080830181845280855180835260408601915060408160051b870101925083870160005b82811015611aa357603f19888603018452611a91858351611a22565b94509285019290850190600101611a75565b5092979650505050505050565b60008060408385031215611ac357600080fd5b823591506020830135611ad58161195a565b809150509250929050565b634e487b7160e01b600052603260045260246000fd5b600060208284031215611b0857600080fd5b81516107e18161185c565b6020808252818101527f4f776e61626c653a2063616c6c6572206973206e6f7420746865206f776e6572604082015260600190565b634e487b7160e01b600052601160045260246000fd5b600082821015611b7057611b70611b48565b500390565b6020808252602a908201527f4865726f4d616e616765723a2063616c6c61626c65206279206c6f62627920626040820152696174746c65206f6e6c7960b01b606082015260800190565b60008219821115611bd257611bd2611b48565b500190565b600060208284031215611be957600080fd5b81516107e18161195a565b634e487b7160e01b600052604160045260246000fd5b6000808335601e19843603018112611c2157600080fd5b83018035915067ffffffffffffffff821115611c3c57600080fd5b60200191503681900382131561185557600080fd5b6000600019821415611c6557611c65611b48565b5060010190565b6000816000190483118215151615611c8657611c86611b48565b500290565b634e487b7160e01b600052601260045260246000fd5b600082611cbe57634e487b7160e01b600052601260045260246000fd5b500490565b600181815b80851115611cfe578160001904821115611ce457611ce4611b48565b80851615611cf157918102915b93841c9390800290611cc8565b509250929050565b600082611d1557506001611089565b81611d2257506000611089565b8160018114611d385760028114611d4257611d5e565b6001915050611089565b60ff841115611d5357611d53611b48565b50506001821b611089565b5060208310610133831016604e8410600b8410161715611d81575081810a611089565b611d8b8383611cc3565b8060001904821115611d9f57611d9f611b48565b029392505050565b60006107e160ff841683611d06565b60008251611dc88184602087016119f6565b9190910192915050565b6020815260006107e16020830184611a2256fe416464726573733a206c6f772d6c6576656c2064656c65676174652063616c6c206661696c6564a264697066735822122028d0961c61b6bd01fa40b69ee5d85bd20b2c54df126d6f3adcb293a0c8c141cd64736f6c63430008090033",
  "linkReferences": {},
  "deployedLinkReferences": {}
}