{
  "_format": "hh-sol-artifact-1",
  "contractName": "HeroInfinityToken",
  "sourceName": "contracts/HeroInfinityToken.sol",
  "abi": [
    {
      "inputs": [],
      "stateMutability": "nonpayable",
      "type": "constructor"
    },
    {
      "anonymous": false,
      "inputs": [
        {
          "indexed": true,
          "internalType": "address",
          "name": "owner",
          "type": "address"
        },
        {
          "indexed": true,
          "internalType": "address",
          "name": "spender",
          "type": "address"
        },
        {
          "indexed": false,
          "internalType": "uint256",
          "name": "value",
          "type": "uint256"
        }
      ],
      "name": "Approval",
      "type": "event"
    },
    {
      "anonymous": false,
      "inputs": [
        {
          "indexed": true,
          "internalType": "address",
          "name": "sniper",
          "type": "address"
        }
      ],
      "name": "BoughtEarly",
      "type": "event"
    },
    {
      "anonymous": false,
      "inputs": [
        {
          "indexed": false,
          "internalType": "uint256",
          "name": "amount",
          "type": "uint256"
        }
      ],
      "name": "BuyBackTriggered",
      "type": "event"
    },
    {
      "anonymous": false,
      "inputs": [
        {
          "indexed": true,
          "internalType": "address",
          "name": "newWallet",
          "type": "address"
        },
        {
          "indexed": true,
          "internalType": "address",
          "name": "oldWallet",
          "type": "address"
        }
      ],
      "name": "BuybackWalletUpdated",
      "type": "event"
    },
    {
      "anonymous": false,
      "inputs": [
        {
          "indexed": true,
          "internalType": "address",
          "name": "account",
          "type": "address"
        },
        {
          "indexed": false,
          "internalType": "bool",
          "name": "isExcluded",
          "type": "bool"
        }
      ],
      "name": "ExcludeFromFees",
      "type": "event"
    },
    {
      "anonymous": false,
      "inputs": [
        {
          "indexed": true,
          "internalType": "address",
          "name": "newWallet",
          "type": "address"
        },
        {
          "indexed": true,
          "internalType": "address",
          "name": "oldWallet",
          "type": "address"
        }
      ],
      "name": "LiquidityWalletUpdated",
      "type": "event"
    },
    {
      "anonymous": false,
      "inputs": [
        {
          "indexed": true,
          "internalType": "address",
          "name": "newWallet",
          "type": "address"
        },
        {
          "indexed": true,
          "internalType": "address",
          "name": "oldWallet",
          "type": "address"
        }
      ],
      "name": "MarketingWalletUpdated",
      "type": "event"
    },
    {
      "anonymous": false,
      "inputs": [
        {
          "indexed": false,
          "internalType": "uint256",
          "name": "timestamp",
          "type": "uint256"
        }
      ],
      "name": "OwnerForcedSwapBack",
      "type": "event"
    },
    {
      "anonymous": false,
      "inputs": [
        {
          "indexed": true,
          "internalType": "address",
          "name": "previousOwner",
          "type": "address"
        },
        {
          "indexed": true,
          "internalType": "address",
          "name": "newOwner",
          "type": "address"
        }
      ],
      "name": "OwnershipTransferred",
      "type": "event"
    },
    {
      "anonymous": false,
      "inputs": [
        {
          "indexed": true,
          "internalType": "address",
          "name": "pair",
          "type": "address"
        },
        {
          "indexed": true,
          "internalType": "bool",
          "name": "value",
          "type": "bool"
        }
      ],
      "name": "SetAutomatedMarketMakerPair",
      "type": "event"
    },
    {
      "anonymous": false,
      "inputs": [
        {
          "indexed": false,
          "internalType": "uint256",
          "name": "tokensSwapped",
          "type": "uint256"
        },
        {
          "indexed": false,
          "internalType": "uint256",
          "name": "ethReceived",
          "type": "uint256"
        },
        {
          "indexed": false,
          "internalType": "uint256",
          "name": "tokensIntoLiquidity",
          "type": "uint256"
        }
      ],
      "name": "SwapAndLiquify",
      "type": "event"
    },
    {
      "anonymous": false,
      "inputs": [
        {
          "indexed": true,
          "internalType": "address",
          "name": "from",
          "type": "address"
        },
        {
          "indexed": true,
          "internalType": "address",
          "name": "to",
          "type": "address"
        },
        {
          "indexed": false,
          "internalType": "uint256",
          "name": "value",
          "type": "uint256"
        }
      ],
      "name": "Transfer",
      "type": "event"
    },
    {
      "anonymous": false,
      "inputs": [
        {
          "indexed": true,
          "internalType": "address",
          "name": "newAddress",
          "type": "address"
        },
        {
          "indexed": true,
          "internalType": "address",
          "name": "oldAddress",
          "type": "address"
        }
      ],
      "name": "UpdateUniswapV2Router",
      "type": "event"
    },
    {
      "inputs": [
        {
          "internalType": "address",
          "name": "",
          "type": "address"
        }
      ],
      "name": "_isExcludedMaxTransactionAmount",
      "outputs": [
        {
          "internalType": "bool",
          "name": "",
          "type": "bool"
        }
      ],
      "stateMutability": "view",
      "type": "function"
    },
    {
      "inputs": [
        {
          "internalType": "address",
          "name": "owner",
          "type": "address"
        },
        {
          "internalType": "address",
          "name": "spender",
          "type": "address"
        }
      ],
      "name": "allowance",
      "outputs": [
        {
          "internalType": "uint256",
          "name": "",
          "type": "uint256"
        }
      ],
      "stateMutability": "view",
      "type": "function"
    },
    {
      "inputs": [
        {
          "internalType": "address",
          "name": "spender",
          "type": "address"
        },
        {
          "internalType": "uint256",
          "name": "amount",
          "type": "uint256"
        }
      ],
      "name": "approve",
      "outputs": [
        {
          "internalType": "bool",
          "name": "",
          "type": "bool"
        }
      ],
      "stateMutability": "nonpayable",
      "type": "function"
    },
    {
      "inputs": [
        {
          "internalType": "address",
          "name": "",
          "type": "address"
        }
      ],
      "name": "automatedMarketMakerPairs",
      "outputs": [
        {
          "internalType": "bool",
          "name": "",
          "type": "bool"
        }
      ],
      "stateMutability": "view",
      "type": "function"
    },
    {
      "inputs": [
        {
          "internalType": "address",
          "name": "account",
          "type": "address"
        }
      ],
      "name": "balanceOf",
      "outputs": [
        {
          "internalType": "uint256",
          "name": "",
          "type": "uint256"
        }
      ],
      "stateMutability": "view",
      "type": "function"
    },
    {
      "inputs": [
        {
          "internalType": "uint256",
          "name": "ethAmountInWei",
          "type": "uint256"
        }
      ],
      "name": "buyBackTokens",
      "outputs": [],
      "stateMutability": "nonpayable",
      "type": "function"
    },
    {
      "inputs": [],
      "name": "buyBuyBackFee",
      "outputs": [
        {
          "internalType": "uint256",
          "name": "",
          "type": "uint256"
        }
      ],
      "stateMutability": "view",
      "type": "function"
    },
    {
      "inputs": [],
      "name": "buyDevFee",
      "outputs": [
        {
          "internalType": "uint256",
          "name": "",
          "type": "uint256"
        }
      ],
      "stateMutability": "view",
      "type": "function"
    },
    {
      "inputs": [],
      "name": "buyLiquidityFee",
      "outputs": [
        {
          "internalType": "uint256",
          "name": "",
          "type": "uint256"
        }
      ],
      "stateMutability": "view",
      "type": "function"
    },
    {
      "inputs": [],
      "name": "buyMarketingFee",
      "outputs": [
        {
          "internalType": "uint256",
          "name": "",
          "type": "uint256"
        }
      ],
      "stateMutability": "view",
      "type": "function"
    },
    {
      "inputs": [],
      "name": "buyTotalFees",
      "outputs": [
        {
          "internalType": "uint256",
          "name": "",
          "type": "uint256"
        }
      ],
      "stateMutability": "view",
      "type": "function"
    },
    {
      "inputs": [],
      "name": "buybackWallet",
      "outputs": [
        {
          "internalType": "address",
          "name": "",
          "type": "address"
        }
      ],
      "stateMutability": "view",
      "type": "function"
    },
    {
      "inputs": [],
      "name": "decimals",
      "outputs": [
        {
          "internalType": "uint8",
          "name": "",
          "type": "uint8"
        }
      ],
      "stateMutability": "view",
      "type": "function"
    },
    {
      "inputs": [
        {
          "internalType": "address",
          "name": "spender",
          "type": "address"
        },
        {
          "internalType": "uint256",
          "name": "subtractedValue",
          "type": "uint256"
        }
      ],
      "name": "decreaseAllowance",
      "outputs": [
        {
          "internalType": "bool",
          "name": "",
          "type": "bool"
        }
      ],
      "stateMutability": "nonpayable",
      "type": "function"
    },
    {
      "inputs": [],
      "name": "disableTransferDelay",
      "outputs": [
        {
          "internalType": "bool",
          "name": "",
          "type": "bool"
        }
      ],
      "stateMutability": "nonpayable",
      "type": "function"
    },
    {
      "inputs": [],
      "name": "enableTrading",
      "outputs": [],
      "stateMutability": "nonpayable",
      "type": "function"
    },
    {
      "inputs": [
        {
          "internalType": "address",
          "name": "account",
          "type": "address"
        },
        {
          "internalType": "bool",
          "name": "excluded",
          "type": "bool"
        }
      ],
      "name": "excludeFromFees",
      "outputs": [],
      "stateMutability": "nonpayable",
      "type": "function"
    },
    {
      "inputs": [
        {
          "internalType": "address",
          "name": "updAds",
          "type": "address"
        },
        {
          "internalType": "bool",
          "name": "isEx",
          "type": "bool"
        }
      ],
      "name": "excludeFromMaxTransaction",
      "outputs": [],
      "stateMutability": "nonpayable",
      "type": "function"
    },
    {
      "inputs": [],
      "name": "forceSwapBack",
      "outputs": [],
      "stateMutability": "nonpayable",
      "type": "function"
    },
    {
      "inputs": [
        {
          "internalType": "address",
          "name": "spender",
          "type": "address"
        },
        {
          "internalType": "uint256",
          "name": "addedValue",
          "type": "uint256"
        }
      ],
      "name": "increaseAllowance",
      "outputs": [
        {
          "internalType": "bool",
          "name": "",
          "type": "bool"
        }
      ],
      "stateMutability": "nonpayable",
      "type": "function"
    },
    {
      "inputs": [
        {
          "internalType": "address",
          "name": "account",
          "type": "address"
        }
      ],
      "name": "isExcludedFromFees",
      "outputs": [
        {
          "internalType": "bool",
          "name": "",
          "type": "bool"
        }
      ],
      "stateMutability": "view",
      "type": "function"
    },
    {
      "inputs": [],
      "name": "limitsInEffect",
      "outputs": [
        {
          "internalType": "bool",
          "name": "",
          "type": "bool"
        }
      ],
      "stateMutability": "view",
      "type": "function"
    },
    {
      "inputs": [],
      "name": "liquidityWallet",
      "outputs": [
        {
          "internalType": "address",
          "name": "",
          "type": "address"
        }
      ],
      "stateMutability": "view",
      "type": "function"
    },
    {
      "inputs": [],
      "name": "marketingWallet",
      "outputs": [
        {
          "internalType": "address",
          "name": "",
          "type": "address"
        }
      ],
      "stateMutability": "view",
      "type": "function"
    },
    {
      "inputs": [],
      "name": "maxTransactionAmount",
      "outputs": [
        {
          "internalType": "uint256",
          "name": "",
          "type": "uint256"
        }
      ],
      "stateMutability": "view",
      "type": "function"
    },
    {
      "inputs": [],
      "name": "maxWallet",
      "outputs": [
        {
          "internalType": "uint256",
          "name": "",
          "type": "uint256"
        }
      ],
      "stateMutability": "view",
      "type": "function"
    },
    {
      "inputs": [],
      "name": "name",
      "outputs": [
        {
          "internalType": "string",
          "name": "",
          "type": "string"
        }
      ],
      "stateMutability": "view",
      "type": "function"
    },
    {
      "inputs": [],
      "name": "owner",
      "outputs": [
        {
          "internalType": "address",
          "name": "",
          "type": "address"
        }
      ],
      "stateMutability": "view",
      "type": "function"
    },
    {
      "inputs": [],
      "name": "removeLimits",
      "outputs": [
        {
          "internalType": "bool",
          "name": "",
          "type": "bool"
        }
      ],
      "stateMutability": "nonpayable",
      "type": "function"
    },
    {
      "inputs": [],
      "name": "renounceOwnership",
      "outputs": [],
      "stateMutability": "nonpayable",
      "type": "function"
    },
    {
      "inputs": [],
      "name": "sellBuyBackFee",
      "outputs": [
        {
          "internalType": "uint256",
          "name": "",
          "type": "uint256"
        }
      ],
      "stateMutability": "view",
      "type": "function"
    },
    {
      "inputs": [],
      "name": "sellDevFee",
      "outputs": [
        {
          "internalType": "uint256",
          "name": "",
          "type": "uint256"
        }
      ],
      "stateMutability": "view",
      "type": "function"
    },
    {
      "inputs": [],
      "name": "sellLiquidityFee",
      "outputs": [
        {
          "internalType": "uint256",
          "name": "",
          "type": "uint256"
        }
      ],
      "stateMutability": "view",
      "type": "function"
    },
    {
      "inputs": [],
      "name": "sellMarketingFee",
      "outputs": [
        {
          "internalType": "uint256",
          "name": "",
          "type": "uint256"
        }
      ],
      "stateMutability": "view",
      "type": "function"
    },
    {
      "inputs": [],
      "name": "sellTotalFees",
      "outputs": [
        {
          "internalType": "uint256",
          "name": "",
          "type": "uint256"
        }
      ],
      "stateMutability": "view",
      "type": "function"
    },
    {
      "inputs": [
        {
          "internalType": "address",
          "name": "pair",
          "type": "address"
        },
        {
          "internalType": "bool",
          "name": "value",
          "type": "bool"
        }
      ],
      "name": "setAutomatedMarketMakerPair",
      "outputs": [],
      "stateMutability": "nonpayable",
      "type": "function"
    },
    {
      "inputs": [],
      "name": "swapEnabled",
      "outputs": [
        {
          "internalType": "bool",
          "name": "",
          "type": "bool"
        }
      ],
      "stateMutability": "view",
      "type": "function"
    },
    {
      "inputs": [],
      "name": "swapTokensAtAmount",
      "outputs": [
        {
          "internalType": "uint256",
          "name": "",
          "type": "uint256"
        }
      ],
      "stateMutability": "view",
      "type": "function"
    },
    {
      "inputs": [],
      "name": "symbol",
      "outputs": [
        {
          "internalType": "string",
          "name": "",
          "type": "string"
        }
      ],
      "stateMutability": "view",
      "type": "function"
    },
    {
      "inputs": [],
      "name": "tokensForBuyBack",
      "outputs": [
        {
          "internalType": "uint256",
          "name": "",
          "type": "uint256"
        }
      ],
      "stateMutability": "view",
      "type": "function"
    },
    {
      "inputs": [],
      "name": "tokensForDev",
      "outputs": [
        {
          "internalType": "uint256",
          "name": "",
          "type": "uint256"
        }
      ],
      "stateMutability": "view",
      "type": "function"
    },
    {
      "inputs": [],
      "name": "tokensForLiquidity",
      "outputs": [
        {
          "internalType": "uint256",
          "name": "",
          "type": "uint256"
        }
      ],
      "stateMutability": "view",
      "type": "function"
    },
    {
      "inputs": [],
      "name": "tokensForMarketing",
      "outputs": [
        {
          "internalType": "uint256",
          "name": "",
          "type": "uint256"
        }
      ],
      "stateMutability": "view",
      "type": "function"
    },
    {
      "inputs": [],
      "name": "totalSupply",
      "outputs": [
        {
          "internalType": "uint256",
          "name": "",
          "type": "uint256"
        }
      ],
      "stateMutability": "view",
      "type": "function"
    },
    {
      "inputs": [],
      "name": "tradingActive",
      "outputs": [
        {
          "internalType": "bool",
          "name": "",
          "type": "bool"
        }
      ],
      "stateMutability": "view",
      "type": "function"
    },
    {
      "inputs": [
        {
          "internalType": "address",
          "name": "recipient",
          "type": "address"
        },
        {
          "internalType": "uint256",
          "name": "amount",
          "type": "uint256"
        }
      ],
      "name": "transfer",
      "outputs": [
        {
          "internalType": "bool",
          "name": "",
          "type": "bool"
        }
      ],
      "stateMutability": "nonpayable",
      "type": "function"
    },
    {
      "inputs": [],
      "name": "transferDelayEnabled",
      "outputs": [
        {
          "internalType": "bool",
          "name": "",
          "type": "bool"
        }
      ],
      "stateMutability": "view",
      "type": "function"
    },
    {
      "inputs": [
        {
          "internalType": "address",
          "name": "sender",
          "type": "address"
        },
        {
          "internalType": "address",
          "name": "recipient",
          "type": "address"
        },
        {
          "internalType": "uint256",
          "name": "amount",
          "type": "uint256"
        }
      ],
      "name": "transferFrom",
      "outputs": [
        {
          "internalType": "bool",
          "name": "",
          "type": "bool"
        }
      ],
      "stateMutability": "nonpayable",
      "type": "function"
    },
    {
      "inputs": [
        {
          "internalType": "address",
          "name": "newOwner",
          "type": "address"
        }
      ],
      "name": "transferOwnership",
      "outputs": [],
      "stateMutability": "nonpayable",
      "type": "function"
    },
    {
      "inputs": [],
      "name": "uniswapV2Pair",
      "outputs": [
        {
          "internalType": "address",
          "name": "",
          "type": "address"
        }
      ],
      "stateMutability": "view",
      "type": "function"
    },
    {
      "inputs": [],
      "name": "uniswapV2Router",
      "outputs": [
        {
          "internalType": "contract IUniswapV2Router02",
          "name": "",
          "type": "address"
        }
      ],
      "stateMutability": "view",
      "type": "function"
    },
    {
      "inputs": [
        {
          "internalType": "uint256",
          "name": "_marketingFee",
          "type": "uint256"
        },
        {
          "internalType": "uint256",
          "name": "_liquidityFee",
          "type": "uint256"
        },
        {
          "internalType": "uint256",
          "name": "_buyBackFee",
          "type": "uint256"
        },
        {
          "internalType": "uint256",
          "name": "_devFee",
          "type": "uint256"
        }
      ],
      "name": "updateBuyFees",
      "outputs": [],
      "stateMutability": "nonpayable",
      "type": "function"
    },
    {
      "inputs": [
        {
          "internalType": "address",
          "name": "newWallet",
          "type": "address"
        }
      ],
      "name": "updateBuybackWallet",
      "outputs": [],
      "stateMutability": "nonpayable",
      "type": "function"
    },
    {
      "inputs": [
        {
          "internalType": "address",
          "name": "newMarketingWallet",
          "type": "address"
        }
      ],
      "name": "updateMarketingWallet",
      "outputs": [],
      "stateMutability": "nonpayable",
      "type": "function"
    },
    {
      "inputs": [
        {
          "internalType": "uint256",
          "name": "newNum",
          "type": "uint256"
        }
      ],
      "name": "updateMaxAmount",
      "outputs": [],
      "stateMutability": "nonpayable",
      "type": "function"
    },
    {
      "inputs": [
        {
          "internalType": "uint256",
          "name": "_marketingFee",
          "type": "uint256"
        },
        {
          "internalType": "uint256",
          "name": "_liquidityFee",
          "type": "uint256"
        },
        {
          "internalType": "uint256",
          "name": "_buyBackFee",
          "type": "uint256"
        },
        {
          "internalType": "uint256",
          "name": "_devFee",
          "type": "uint256"
        }
      ],
      "name": "updateSellFees",
      "outputs": [],
      "stateMutability": "nonpayable",
      "type": "function"
    },
    {
      "inputs": [
        {
          "internalType": "bool",
          "name": "enabled",
          "type": "bool"
        }
      ],
      "name": "updateSwapEnabled",
      "outputs": [],
      "stateMutability": "nonpayable",
      "type": "function"
    },
    {
      "inputs": [
        {
          "internalType": "uint256",
          "name": "newAmount",
          "type": "uint256"
        }
      ],
      "name": "updateSwapTokensAtAmount",
      "outputs": [
        {
          "internalType": "bool",
          "name": "",
          "type": "bool"
        }
      ],
      "stateMutability": "nonpayable",
      "type": "function"
    },
    {
      "inputs": [
        {
          "internalType": "address",
          "name": "newWallet",
          "type": "address"
        }
      ],
      "name": "updateliquidityWallet",
      "outputs": [],
      "stateMutability": "nonpayable",
      "type": "function"
    },
    {
      "stateMutability": "payable",
      "type": "receive"
    }
  ],
  "bytecode": "0x60c06040526001600c60006101000a81548160ff0219169083151502179055506000600c60016101000a81548160ff0219169083151502179055506000600c60026101000a81548160ff0219169083151502179055506001600c60036101000a81548160ff02191690831515021790555064829e34aa00600d556001600f60006101000a81548160ff021916908315150217905550348015620000a157600080fd5b506040518060400160405280600c81526020017f4865726f496e66696e69747900000000000000000000000000000000000000008152506040518060400160405280600381526020017f485249000000000000000000000000000000000000000000000000000000000081525081600390805190602001906200012692919062000bec565b5080600490805190602001906200013f92919062000bec565b5050506200016262000156620006ad60201b60201c565b620006b560201b60201c565b6000737a250d5630b4cf539739df2c5dacb4c659f2488d90506200018e8160016200077b60201b60201c565b8073ffffffffffffffffffffffffffffffffffffffff1660808173ffffffffffffffffffffffffffffffffffffffff16815250508073ffffffffffffffffffffffffffffffffffffffff1663c45a01556040518163ffffffff1660e01b8152600401602060405180830381865afa1580156200020e573d6000803e3d6000fd5b505050506040513d601f19601f8201168201806040525081019062000234919062000d06565b73ffffffffffffffffffffffffffffffffffffffff1663c9c65396308373ffffffffffffffffffffffffffffffffffffffff1663ad5c46486040518163ffffffff1660e01b8152600401602060405180830381865afa1580156200029c573d6000803e3d6000fd5b505050506040513d601f19601f82011682018060405250810190620002c2919062000d06565b6040518363ffffffff1660e01b8152600401620002e192919062000d49565b6020604051808303816000875af115801562000301573d6000803e3d6000fd5b505050506040513d601f19601f8201168201806040525081019062000327919062000d06565b73ffffffffffffffffffffffffffffffffffffffff1660a08173ffffffffffffffffffffffffffffffffffffffff16815250506200036f60a05160016200077b60201b60201c565b6200038460a05160016200086560201b60201c565b600060069050600060079050600080600290506000600690506000601190506000806002905060006b033b2e3c9fd0803ce800000090506103e8600582620003cd919062000daf565b620003d9919062000e3f565b6009819055506064600282620003f0919062000daf565b620003fc919062000e3f565b600b8190555061271060058262000414919062000daf565b62000420919062000e3f565b600a81905550886011819055508760128190555086601381905550856014819055506014546013546012546011546200045a919062000e77565b62000466919062000e77565b62000472919062000e77565b60108190555084601681905550836017819055508260188190555081601981905550601954601854601754601654620004ac919062000e77565b620004b8919062000e77565b620004c4919062000e77565b60158190555033600660006101000a81548173ffffffffffffffffffffffffffffffffffffffff021916908373ffffffffffffffffffffffffffffffffffffffff16021790555033600760006101000a81548173ffffffffffffffffffffffffffffffffffffffff021916908373ffffffffffffffffffffffffffffffffffffffff16021790555033600860006101000a81548173ffffffffffffffffffffffffffffffffffffffff021916908373ffffffffffffffffffffffffffffffffffffffff160217905550620005af620005a16200090660201b60201c565b60016200093060201b60201c565b620005c23060016200093060201b60201c565b620005d761dead60016200093060201b60201c565b6200060c600760009054906101000a900473ffffffffffffffffffffffffffffffffffffffff1660016200093060201b60201c565b6200062e620006206200090660201b60201c565b60016200077b60201b60201c565b620006413060016200077b60201b60201c565b62000676600760009054906101000a900473ffffffffffffffffffffffffffffffffffffffff1660016200077b60201b60201c565b6200068b61dead60016200077b60201b60201c565b6200069d338262000a6a60201b60201c565b5050505050505050505062001095565b600033905090565b6000600560009054906101000a900473ffffffffffffffffffffffffffffffffffffffff16905081600560006101000a81548173ffffffffffffffffffffffffffffffffffffffff021916908373ffffffffffffffffffffffffffffffffffffffff1602179055508173ffffffffffffffffffffffffffffffffffffffff168173ffffffffffffffffffffffffffffffffffffffff167f8be0079c531659141344cd1fd0a4f28419497f9722a3daafe3b4186f6b6457e060405160405180910390a35050565b6200078b620006ad60201b60201c565b73ffffffffffffffffffffffffffffffffffffffff16620007b16200090660201b60201c565b73ffffffffffffffffffffffffffffffffffffffff16146200080a576040517f08c379a0000000000000000000000000000000000000000000000000000000008152600401620008019062000f35565b60405180910390fd5b80601f60008473ffffffffffffffffffffffffffffffffffffffff1673ffffffffffffffffffffffffffffffffffffffff16815260200190815260200160002060006101000a81548160ff0219169083151502179055505050565b80602060008473ffffffffffffffffffffffffffffffffffffffff1673ffffffffffffffffffffffffffffffffffffffff16815260200190815260200160002060006101000a81548160ff0219169083151502179055508015158273ffffffffffffffffffffffffffffffffffffffff167fffa9187bf1f18bf477bd0ea1bcbb64e93b6a98132473929edfce215cd9b16fab60405160405180910390a35050565b6000600560009054906101000a900473ffffffffffffffffffffffffffffffffffffffff16905090565b62000940620006ad60201b60201c565b73ffffffffffffffffffffffffffffffffffffffff16620009666200090660201b60201c565b73ffffffffffffffffffffffffffffffffffffffff1614620009bf576040517f08c379a0000000000000000000000000000000000000000000000000000000008152600401620009b69062000f35565b60405180910390fd5b80601e60008473ffffffffffffffffffffffffffffffffffffffff1673ffffffffffffffffffffffffffffffffffffffff16815260200190815260200160002060006101000a81548160ff0219169083151502179055508173ffffffffffffffffffffffffffffffffffffffff167f9d8f7706ea1113d1a167b526eca956215946dd36cc7df39eb16180222d8b5df78260405162000a5e919062000f74565b60405180910390a25050565b600073ffffffffffffffffffffffffffffffffffffffff168273ffffffffffffffffffffffffffffffffffffffff160362000adc576040517f08c379a000000000000000000000000000000000000000000000000000000000815260040162000ad39062000fe1565b60405180910390fd5b62000af06000838362000be260201b60201c565b806002600082825462000b04919062000e77565b92505081905550806000808473ffffffffffffffffffffffffffffffffffffffff1673ffffffffffffffffffffffffffffffffffffffff168152602001908152602001600020600082825462000b5b919062000e77565b925050819055508173ffffffffffffffffffffffffffffffffffffffff16600073ffffffffffffffffffffffffffffffffffffffff167fddf252ad1be2c89b69c2b068fc378daa952ba7f163c4a11628f55a4df523b3ef8360405162000bc2919062001014565b60405180910390a362000bde6000838362000be760201b60201c565b5050565b505050565b505050565b82805462000bfa9062001060565b90600052602060002090601f01602090048101928262000c1e576000855562000c6a565b82601f1062000c3957805160ff191683800117855562000c6a565b8280016001018555821562000c6a579182015b8281111562000c6957825182559160200191906001019062000c4c565b5b50905062000c79919062000c7d565b5090565b5b8082111562000c9857600081600090555060010162000c7e565b5090565b600080fd5b600073ffffffffffffffffffffffffffffffffffffffff82169050919050565b600062000cce8262000ca1565b9050919050565b62000ce08162000cc1565b811462000cec57600080fd5b50565b60008151905062000d008162000cd5565b92915050565b60006020828403121562000d1f5762000d1e62000c9c565b5b600062000d2f8482850162000cef565b91505092915050565b62000d438162000cc1565b82525050565b600060408201905062000d60600083018562000d38565b62000d6f602083018462000d38565b9392505050565b6000819050919050565b7f4e487b7100000000000000000000000000000000000000000000000000000000600052601160045260246000fd5b600062000dbc8262000d76565b915062000dc98362000d76565b9250817fffffffffffffffffffffffffffffffffffffffffffffffffffffffffffffffff048311821515161562000e055762000e0462000d80565b5b828202905092915050565b7f4e487b7100000000000000000000000000000000000000000000000000000000600052601260045260246000fd5b600062000e4c8262000d76565b915062000e598362000d76565b92508262000e6c5762000e6b62000e10565b5b828204905092915050565b600062000e848262000d76565b915062000e918362000d76565b9250827fffffffffffffffffffffffffffffffffffffffffffffffffffffffffffffffff0382111562000ec95762000ec862000d80565b5b828201905092915050565b600082825260208201905092915050565b7f4f776e61626c653a2063616c6c6572206973206e6f7420746865206f776e6572600082015250565b600062000f1d60208362000ed4565b915062000f2a8262000ee5565b602082019050919050565b6000602082019050818103600083015262000f508162000f0e565b9050919050565b60008115159050919050565b62000f6e8162000f57565b82525050565b600060208201905062000f8b600083018462000f63565b92915050565b7f45524332303a206d696e7420746f20746865207a65726f206164647265737300600082015250565b600062000fc9601f8362000ed4565b915062000fd68262000f91565b602082019050919050565b6000602082019050818103600083015262000ffc8162000fba565b9050919050565b6200100e8162000d76565b82525050565b60006020820190506200102b600083018462001003565b92915050565b7f4e487b7100000000000000000000000000000000000000000000000000000000600052602260045260246000fd5b600060028204905060018216806200107957607f821691505b6020821081036200108f576200108e62001031565b5b50919050565b60805160a0516157a062001101600039600081816113db01528181611c120152612e3a01526000818161111a015281816125ea0152818161271601528181612de201528181613fbc0152818161409d015281816140c401528181614160015261418701526157a06000f3fe6080604052600436106103905760003560e01c80638da5cb5b116101dc578063c876d0b911610102578063e2f45605116100a0578063f2fde38b1161006f578063f2fde38b14610d4f578063f637434214610d78578063f8b45b0514610da3578063fc155d1d14610dce57610397565b8063e2f4560514610ca5578063e7ad9fcd14610cd0578063e884f26014610cf9578063f11a24d314610d2457610397565b8063d4698016116100dc578063d469801614610be7578063d85ba06314610c12578063dd62ed3e14610c3d578063deab8aea14610c7a57610397565b8063c876d0b914610b54578063c8c8ebe414610b7f578063d257b34f14610baa57610397565b80639fccce321161017a578063aacebbe311610149578063aacebbe314610a9a578063b62496f514610ac3578063bbc0c74214610b00578063c024666814610b2b57610397565b80639fccce32146109ca578063a0d82dc5146109f5578063a457c2d714610a20578063a9059cbb14610a5d57610397565b806392aa3773116101b657806392aa37731461092257806395d89b411461094b5780639a7a23d6146109765780639c3b4fdc1461099f57610397565b80638da5cb5b146108a357806392136913146108ce578063924de9b7146108f957610397565b8063313ce567116102c15780636ddd17131161025f5780637571336a1161022e5780637571336a1461080d57806375f0a874146108365780637bce5a04146108615780638a8c523c1461088c57610397565b80636ddd17131461076357806370a082311461078e578063715018a6146107cb578063751039fc146107e257610397565b80634a62bb651161029b5780634a62bb65146106b95780634fbee193146106e457806351f205e4146107215780636a486a8e1461073857610397565b8063313ce56714610626578063395093511461065157806349bd5a5e1461068e57610397565b806318160ddd1161032e5780631f3fed8f116103085780631f3fed8f1461056a5780631fe70a981461059557806323b872dd146105c05780632e6ed7ef146105fd57610397565b806318160ddd146104e95780631a221dbb146105145780631a8145bb1461053f57610397565b80630b166d501161036a5780630b166d501461042d578063106b5da11461045857806310d5de53146104815780631694505e146104be57610397565b806304dacd501461039c57806306fdde03146103c5578063095ea7b3146103f057610397565b3661039757005b600080fd5b3480156103a857600080fd5b506103c360048036038101906103be91906142c3565b610df7565b005b3480156103d157600080fd5b506103da610f33565b6040516103e79190614389565b60405180910390f35b3480156103fc57600080fd5b50610417600480360381019061041291906143e1565b610fc5565b604051610424919061443c565b60405180910390f35b34801561043957600080fd5b50610442610fe3565b60405161044f9190614466565b60405180910390f35b34801561046457600080fd5b5061047f600480360381019061047a9190614481565b610fe9565b005b34801561048d57600080fd5b506104a860048036038101906104a391906142c3565b6110f8565b6040516104b5919061443c565b60405180910390f35b3480156104ca57600080fd5b506104d3611118565b6040516104e0919061450d565b60405180910390f35b3480156104f557600080fd5b506104fe61113c565b60405161050b9190614466565b60405180910390f35b34801561052057600080fd5b50610529611146565b6040516105369190614466565b60405180910390f35b34801561054b57600080fd5b5061055461114c565b6040516105619190614466565b60405180910390f35b34801561057657600080fd5b5061057f611152565b60405161058c9190614466565b60405180910390f35b3480156105a157600080fd5b506105aa611158565b6040516105b79190614466565b60405180910390f35b3480156105cc57600080fd5b506105e760048036038101906105e29190614528565b61115e565b6040516105f4919061443c565b60405180910390f35b34801561060957600080fd5b50610624600480360381019061061f919061457b565b611256565b005b34801561063257600080fd5b5061063b611324565b60405161064891906145fe565b60405180910390f35b34801561065d57600080fd5b50610678600480360381019061067391906143e1565b61132d565b604051610685919061443c565b60405180910390f35b34801561069a57600080fd5b506106a36113d9565b6040516106b09190614628565b60405180910390f35b3480156106c557600080fd5b506106ce6113fd565b6040516106db919061443c565b60405180910390f35b3480156106f057600080fd5b5061070b600480360381019061070691906142c3565b611410565b604051610718919061443c565b60405180910390f35b34801561072d57600080fd5b50610736611466565b005b34801561074457600080fd5b5061074d611587565b60405161075a9190614466565b60405180910390f35b34801561076f57600080fd5b5061077861158d565b604051610785919061443c565b60405180910390f35b34801561079a57600080fd5b506107b560048036038101906107b091906142c3565b6115a0565b6040516107c29190614466565b60405180910390f35b3480156107d757600080fd5b506107e06115e8565b005b3480156107ee57600080fd5b506107f7611670565b604051610804919061443c565b60405180910390f35b34801561081957600080fd5b50610834600480360381019061082f919061466f565b611746565b005b34801561084257600080fd5b5061084b61181d565b6040516108589190614628565b60405180910390f35b34801561086d57600080fd5b50610876611843565b6040516108839190614466565b60405180910390f35b34801561089857600080fd5b506108a1611849565b005b3480156108af57600080fd5b506108b86118fd565b6040516108c59190614628565b60405180910390f35b3480156108da57600080fd5b506108e3611927565b6040516108f09190614466565b60405180910390f35b34801561090557600080fd5b50610920600480360381019061091b91906146af565b61192d565b005b34801561092e57600080fd5b50610949600480360381019061094491906142c3565b6119c6565b005b34801561095757600080fd5b50610960611b02565b60405161096d9190614389565b60405180910390f35b34801561098257600080fd5b5061099d6004803603810190610998919061466f565b611b94565b005b3480156109ab57600080fd5b506109b4611cac565b6040516109c19190614466565b60405180910390f35b3480156109d657600080fd5b506109df611cb2565b6040516109ec9190614466565b60405180910390f35b348015610a0157600080fd5b50610a0a611cb8565b604051610a179190614466565b60405180910390f35b348015610a2c57600080fd5b50610a476004803603810190610a4291906143e1565b611cbe565b604051610a54919061443c565b60405180910390f35b348015610a6957600080fd5b50610a846004803603810190610a7f91906143e1565b611da9565b604051610a91919061443c565b60405180910390f35b348015610aa657600080fd5b50610ac16004803603810190610abc91906142c3565b611dc7565b005b348015610acf57600080fd5b50610aea6004803603810190610ae591906142c3565b611f03565b604051610af7919061443c565b60405180910390f35b348015610b0c57600080fd5b50610b15611f22565b604051610b22919061443c565b60405180910390f35b348015610b3757600080fd5b50610b526004803603810190610b4d919061466f565b611f35565b005b348015610b6057600080fd5b50610b6961205a565b604051610b76919061443c565b60405180910390f35b348015610b8b57600080fd5b50610b9461206d565b604051610ba19190614466565b60405180910390f35b348015610bb657600080fd5b50610bd16004803603810190610bcc9190614481565b612073565b604051610bde919061443c565b60405180910390f35b348015610bf357600080fd5b50610bfc6121c8565b604051610c099190614628565b60405180910390f35b348015610c1e57600080fd5b50610c276121ee565b604051610c349190614466565b60405180910390f35b348015610c4957600080fd5b50610c646004803603810190610c5f91906146dc565b6121f4565b604051610c719190614466565b60405180910390f35b348015610c8657600080fd5b50610c8f61227b565b604051610c9c9190614628565b60405180910390f35b348015610cb157600080fd5b50610cba6122a1565b604051610cc79190614466565b60405180910390f35b348015610cdc57600080fd5b50610cf76004803603810190610cf2919061457b565b6122a7565b005b348015610d0557600080fd5b50610d0e612375565b604051610d1b919061443c565b60405180910390f35b348015610d3057600080fd5b50610d39612415565b604051610d469190614466565b60405180910390f35b348015610d5b57600080fd5b50610d766004803603810190610d7191906142c3565b61241b565b005b348015610d8457600080fd5b50610d8d612512565b604051610d9a9190614466565b60405180910390f35b348015610daf57600080fd5b50610db8612518565b604051610dc59190614466565b60405180910390f35b348015610dda57600080fd5b50610df56004803603810190610df09190614481565b61251e565b005b610dff612804565b73ffffffffffffffffffffffffffffffffffffffff16610e1d6118fd565b73ffffffffffffffffffffffffffffffffffffffff1614610e73576040517f08c379a0000000000000000000000000000000000000000000000000000000008152600401610e6a90614768565b60405180910390fd5b600760009054906101000a900473ffffffffffffffffffffffffffffffffffffffff1673ffffffffffffffffffffffffffffffffffffffff168173ffffffffffffffffffffffffffffffffffffffff167f36da8748d344842083f47c18719136f60f0bcd2b5e969f56da5fca1b8667201760405160405180910390a380600760006101000a81548173ffffffffffffffffffffffffffffffffffffffff021916908373ffffffffffffffffffffffffffffffffffffffff16021790555050565b606060038054610f42906147b7565b80601f0160208091040260200160405190810160405280929190818152602001828054610f6e906147b7565b8015610fbb5780601f10610f9057610100808354040283529160200191610fbb565b820191906000526020600020905b815481529060010190602001808311610f9e57829003601f168201915b5050505050905090565b6000610fd9610fd2612804565b848461280c565b6001905092915050565b601c5481565b610ff1612804565b73ffffffffffffffffffffffffffffffffffffffff1661100f6118fd565b73ffffffffffffffffffffffffffffffffffffffff1614611065576040517f08c379a000000000000000000000000000000000000000000000000000000000815260040161105c90614768565b60405180910390fd5b670de0b6b3a76400006103e8600561107b61113c565b6110859190614817565b61108f91906148a0565b61109991906148a0565b8110156110db576040517f08c379a00000000000000000000000000000000000000000000000000000000081526004016110d290614943565b60405180910390fd5b670de0b6b3a7640000816110ef9190614817565b60098190555050565b601f6020528060005260406000206000915054906101000a900460ff1681565b7f000000000000000000000000000000000000000000000000000000000000000081565b6000600254905090565b60185481565b601b5481565b601a5481565b60135481565b600061116b8484846129d5565b6000600160008673ffffffffffffffffffffffffffffffffffffffff1673ffffffffffffffffffffffffffffffffffffffff16815260200190815260200160002060006111b6612804565b73ffffffffffffffffffffffffffffffffffffffff1673ffffffffffffffffffffffffffffffffffffffff16815260200190815260200160002054905082811015611236576040517f08c379a000000000000000000000000000000000000000000000000000000000815260040161122d906149d5565b60405180910390fd5b61124a85611242612804565b85840361280c565b60019150509392505050565b61125e612804565b73ffffffffffffffffffffffffffffffffffffffff1661127c6118fd565b73ffffffffffffffffffffffffffffffffffffffff16146112d2576040517f08c379a00000000000000000000000000000000000000000000000000000000081526004016112c990614768565b60405180910390fd5b8360118190555082601281905550816013819055508060148190555060145460135460125460115461130491906149f5565b61130e91906149f5565b61131891906149f5565b60108190555050505050565b60006012905090565b60006113cf61133a612804565b848460016000611348612804565b73ffffffffffffffffffffffffffffffffffffffff1673ffffffffffffffffffffffffffffffffffffffff16815260200190815260200160002060008873ffffffffffffffffffffffffffffffffffffffff1673ffffffffffffffffffffffffffffffffffffffff168152602001908152602001600020546113ca91906149f5565b61280c565b6001905092915050565b7f000000000000000000000000000000000000000000000000000000000000000081565b600c60009054906101000a900460ff1681565b6000601e60008373ffffffffffffffffffffffffffffffffffffffff1673ffffffffffffffffffffffffffffffffffffffff16815260200190815260200160002060009054906101000a900460ff169050919050565b61146e612804565b73ffffffffffffffffffffffffffffffffffffffff1661148c6118fd565b73ffffffffffffffffffffffffffffffffffffffff16146114e2576040517f08c379a00000000000000000000000000000000000000000000000000000000081526004016114d990614768565b60405180910390fd5b60006114ed306115a0565b905060646114f961113c565b61150391906148a0565b811015611545576040517f08c379a000000000000000000000000000000000000000000000000000000000815260040161153c90614abd565b60405180910390fd5b61154d613730565b7f1b56c383f4f48fc992e45667ea4eabae777b9cca68b516a9562d8cda78f1bb324260405161157c9190614466565b60405180910390a150565b60155481565b600c60029054906101000a900460ff1681565b60008060008373ffffffffffffffffffffffffffffffffffffffff1673ffffffffffffffffffffffffffffffffffffffff168152602001908152602001600020549050919050565b6115f0612804565b73ffffffffffffffffffffffffffffffffffffffff1661160e6118fd565b73ffffffffffffffffffffffffffffffffffffffff1614611664576040517f08c379a000000000000000000000000000000000000000000000000000000000815260040161165b90614768565b60405180910390fd5b61166e6000613af5565b565b600061167a612804565b73ffffffffffffffffffffffffffffffffffffffff166116986118fd565b73ffffffffffffffffffffffffffffffffffffffff16146116ee576040517f08c379a00000000000000000000000000000000000000000000000000000000081526004016116e590614768565b60405180910390fd5b6000600c60006101000a81548160ff0219169083151502179055506000600c60036101000a81548160ff0219169083151502179055506000600f60006101000a81548160ff0219169083151502179055506001905090565b61174e612804565b73ffffffffffffffffffffffffffffffffffffffff1661176c6118fd565b73ffffffffffffffffffffffffffffffffffffffff16146117c2576040517f08c379a00000000000000000000000000000000000000000000000000000000081526004016117b990614768565b60405180910390fd5b80601f60008473ffffffffffffffffffffffffffffffffffffffff1673ffffffffffffffffffffffffffffffffffffffff16815260200190815260200160002060006101000a81548160ff0219169083151502179055505050565b600660009054906101000a900473ffffffffffffffffffffffffffffffffffffffff1681565b60115481565b611851612804565b73ffffffffffffffffffffffffffffffffffffffff1661186f6118fd565b73ffffffffffffffffffffffffffffffffffffffff16146118c5576040517f08c379a00000000000000000000000000000000000000000000000000000000081526004016118bc90614768565b60405180910390fd5b6001600c60016101000a81548160ff0219169083151502179055506001600c60026101000a81548160ff021916908315150217905550565b6000600560009054906101000a900473ffffffffffffffffffffffffffffffffffffffff16905090565b60165481565b611935612804565b73ffffffffffffffffffffffffffffffffffffffff166119536118fd565b73ffffffffffffffffffffffffffffffffffffffff16146119a9576040517f08c379a00000000000000000000000000000000000000000000000000000000081526004016119a090614768565b60405180910390fd5b80600c60026101000a81548160ff02191690831515021790555050565b6119ce612804565b73ffffffffffffffffffffffffffffffffffffffff166119ec6118fd565b73ffffffffffffffffffffffffffffffffffffffff1614611a42576040517f08c379a0000000000000000000000000000000000000000000000000000000008152600401611a3990614768565b60405180910390fd5b600860009054906101000a900473ffffffffffffffffffffffffffffffffffffffff1673ffffffffffffffffffffffffffffffffffffffff168173ffffffffffffffffffffffffffffffffffffffff167f6080503d1da552ae8eb4b7b8a20245d9fabed014180510e7d1a05ea08fdb0f3e60405160405180910390a380600860006101000a81548173ffffffffffffffffffffffffffffffffffffffff021916908373ffffffffffffffffffffffffffffffffffffffff16021790555050565b606060048054611b11906147b7565b80601f0160208091040260200160405190810160405280929190818152602001828054611b3d906147b7565b8015611b8a5780601f10611b5f57610100808354040283529160200191611b8a565b820191906000526020600020905b815481529060010190602001808311611b6d57829003601f168201915b5050505050905090565b611b9c612804565b73ffffffffffffffffffffffffffffffffffffffff16611bba6118fd565b73ffffffffffffffffffffffffffffffffffffffff1614611c10576040517f08c379a0000000000000000000000000000000000000000000000000000000008152600401611c0790614768565b60405180910390fd5b7f000000000000000000000000000000000000000000000000000000000000000073ffffffffffffffffffffffffffffffffffffffff168273ffffffffffffffffffffffffffffffffffffffff1603611c9e576040517f08c379a0000000000000000000000000000000000000000000000000000000008152600401611c9590614b4f565b60405180910390fd5b611ca88282613bbb565b5050565b60145481565b601d5481565b60195481565b60008060016000611ccd612804565b73ffffffffffffffffffffffffffffffffffffffff1673ffffffffffffffffffffffffffffffffffffffff16815260200190815260200160002060008573ffffffffffffffffffffffffffffffffffffffff1673ffffffffffffffffffffffffffffffffffffffff16815260200190815260200160002054905082811015611d8a576040517f08c379a0000000000000000000000000000000000000000000000000000000008152600401611d8190614be1565b60405180910390fd5b611d9e611d95612804565b8585840361280c565b600191505092915050565b6000611dbd611db6612804565b84846129d5565b6001905092915050565b611dcf612804565b73ffffffffffffffffffffffffffffffffffffffff16611ded6118fd565b73ffffffffffffffffffffffffffffffffffffffff1614611e43576040517f08c379a0000000000000000000000000000000000000000000000000000000008152600401611e3a90614768565b60405180910390fd5b600660009054906101000a900473ffffffffffffffffffffffffffffffffffffffff1673ffffffffffffffffffffffffffffffffffffffff168173ffffffffffffffffffffffffffffffffffffffff167f8616c7a330e3cf61290821331585511f1e2778171e2b005fb5ec60cfe874dc6760405160405180910390a380600660006101000a81548173ffffffffffffffffffffffffffffffffffffffff021916908373ffffffffffffffffffffffffffffffffffffffff16021790555050565b602080528060005260406000206000915054906101000a900460ff1681565b600c60019054906101000a900460ff1681565b611f3d612804565b73ffffffffffffffffffffffffffffffffffffffff16611f5b6118fd565b73ffffffffffffffffffffffffffffffffffffffff1614611fb1576040517f08c379a0000000000000000000000000000000000000000000000000000000008152600401611fa890614768565b60405180910390fd5b80601e60008473ffffffffffffffffffffffffffffffffffffffff1673ffffffffffffffffffffffffffffffffffffffff16815260200190815260200160002060006101000a81548160ff0219169083151502179055508173ffffffffffffffffffffffffffffffffffffffff167f9d8f7706ea1113d1a167b526eca956215946dd36cc7df39eb16180222d8b5df78260405161204e919061443c565b60405180910390a25050565b600f60009054906101000a900460ff1681565b60095481565b600061207d612804565b73ffffffffffffffffffffffffffffffffffffffff1661209b6118fd565b73ffffffffffffffffffffffffffffffffffffffff16146120f1576040517f08c379a00000000000000000000000000000000000000000000000000000000081526004016120e890614768565b60405180910390fd5b620186a060016120ff61113c565b6121099190614817565b61211391906148a0565b821015612155576040517f08c379a000000000000000000000000000000000000000000000000000000000815260040161214c90614c73565b60405180910390fd5b6103e8600561216261113c565b61216c9190614817565b61217691906148a0565b8211156121b8576040517f08c379a00000000000000000000000000000000000000000000000000000000081526004016121af90614d05565b60405180910390fd5b81600a8190555060019050919050565b600860009054906101000a900473ffffffffffffffffffffffffffffffffffffffff1681565b60105481565b6000600160008473ffffffffffffffffffffffffffffffffffffffff1673ffffffffffffffffffffffffffffffffffffffff16815260200190815260200160002060008373ffffffffffffffffffffffffffffffffffffffff1673ffffffffffffffffffffffffffffffffffffffff16815260200190815260200160002054905092915050565b600760009054906101000a900473ffffffffffffffffffffffffffffffffffffffff1681565b600a5481565b6122af612804565b73ffffffffffffffffffffffffffffffffffffffff166122cd6118fd565b73ffffffffffffffffffffffffffffffffffffffff1614612323576040517f08c379a000000000000000000000000000000000000000000000000000000000815260040161231a90614768565b60405180910390fd5b8360168190555082601781905550816018819055508060198190555060195460185460175460165461235591906149f5565b61235f91906149f5565b61236991906149f5565b60158190555050505050565b600061237f612804565b73ffffffffffffffffffffffffffffffffffffffff1661239d6118fd565b73ffffffffffffffffffffffffffffffffffffffff16146123f3576040517f08c379a00000000000000000000000000000000000000000000000000000000081526004016123ea90614768565b60405180910390fd5b6000600f60006101000a81548160ff0219169083151502179055506001905090565b60125481565b612423612804565b73ffffffffffffffffffffffffffffffffffffffff166124416118fd565b73ffffffffffffffffffffffffffffffffffffffff1614612497576040517f08c379a000000000000000000000000000000000000000000000000000000000815260040161248e90614768565b60405180910390fd5b600073ffffffffffffffffffffffffffffffffffffffff168173ffffffffffffffffffffffffffffffffffffffff1603612506576040517f08c379a00000000000000000000000000000000000000000000000000000000081526004016124fd90614d97565b60405180910390fd5b61250f81613af5565b50565b60175481565b600b5481565b612526612804565b73ffffffffffffffffffffffffffffffffffffffff166125446118fd565b73ffffffffffffffffffffffffffffffffffffffff161461259a576040517f08c379a000000000000000000000000000000000000000000000000000000000815260040161259190614768565b60405180910390fd5b6000600267ffffffffffffffff8111156125b7576125b6614db7565b5b6040519080825280602002602001820160405280156125e55781602001602082028036833780820191505090505b5090507f000000000000000000000000000000000000000000000000000000000000000073ffffffffffffffffffffffffffffffffffffffff1663ad5c46486040518163ffffffff1660e01b8152600401602060405180830381865afa158015612653573d6000803e3d6000fd5b505050506040513d601f19601f820116820180604052508101906126779190614dfb565b8160008151811061268b5761268a614e28565b5b602002602001019073ffffffffffffffffffffffffffffffffffffffff16908173ffffffffffffffffffffffffffffffffffffffff168152505030816001815181106126da576126d9614e28565b5b602002602001019073ffffffffffffffffffffffffffffffffffffffff16908173ffffffffffffffffffffffffffffffffffffffff16815250507f000000000000000000000000000000000000000000000000000000000000000073ffffffffffffffffffffffffffffffffffffffff1663b6f9de9583600084600760009054906101000a900473ffffffffffffffffffffffffffffffffffffffff16426040518663ffffffff1660e01b81526004016127979493929190614f50565b6000604051808303818588803b1580156127b057600080fd5b505af11580156127c4573d6000803e3d6000fd5b50505050507fa017c1567cfcdd2d750a8c01e39fe2a846bcebc293c7d078477014d684820568826040516127f89190614466565b60405180910390a15050565b600033905090565b600073ffffffffffffffffffffffffffffffffffffffff168373ffffffffffffffffffffffffffffffffffffffff160361287b576040517f08c379a00000000000000000000000000000000000000000000000000000000081526004016128729061500e565b60405180910390fd5b600073ffffffffffffffffffffffffffffffffffffffff168273ffffffffffffffffffffffffffffffffffffffff16036128ea576040517f08c379a00000000000000000000000000000000000000000000000000000000081526004016128e1906150a0565b60405180910390fd5b80600160008573ffffffffffffffffffffffffffffffffffffffff1673ffffffffffffffffffffffffffffffffffffffff16815260200190815260200160002060008473ffffffffffffffffffffffffffffffffffffffff1673ffffffffffffffffffffffffffffffffffffffff168152602001908152602001600020819055508173ffffffffffffffffffffffffffffffffffffffff168373ffffffffffffffffffffffffffffffffffffffff167f8c5be1e5ebec7d5bd14f71427d1e84f3dd0314c0f7b2291e5b200ac8c7c3b925836040516129c89190614466565b60405180910390a3505050565b600073ffffffffffffffffffffffffffffffffffffffff168373ffffffffffffffffffffffffffffffffffffffff1603612a44576040517f08c379a0000000000000000000000000000000000000000000000000000000008152600401612a3b90615132565b60405180910390fd5b600073ffffffffffffffffffffffffffffffffffffffff168273ffffffffffffffffffffffffffffffffffffffff1603612ab3576040517f08c379a0000000000000000000000000000000000000000000000000000000008152600401612aaa906151c4565b60405180910390fd5b60008103612acc57612ac783836000613c5c565b61372b565b600c60009054906101000a900460ff16156131ed57612ae96118fd565b73ffffffffffffffffffffffffffffffffffffffff168373ffffffffffffffffffffffffffffffffffffffff1614158015612b575750612b276118fd565b73ffffffffffffffffffffffffffffffffffffffff168273ffffffffffffffffffffffffffffffffffffffff1614155b8015612b905750600073ffffffffffffffffffffffffffffffffffffffff168273ffffffffffffffffffffffffffffffffffffffff1614155b8015612bca575061dead73ffffffffffffffffffffffffffffffffffffffff168273ffffffffffffffffffffffffffffffffffffffff1614155b8015612be35750600560149054906101000a900460ff16155b156131ec57600c60019054906101000a900460ff16612cdd57601e60008473ffffffffffffffffffffffffffffffffffffffff1673ffffffffffffffffffffffffffffffffffffffff16815260200190815260200160002060009054906101000a900460ff1680612c9d5750601e60008373ffffffffffffffffffffffffffffffffffffffff1673ffffffffffffffffffffffffffffffffffffffff16815260200190815260200160002060009054906101000a900460ff165b612cdc576040517f08c379a0000000000000000000000000000000000000000000000000000000008152600401612cd390615230565b60405180910390fd5b5b600c60039054906101000a900460ff168015612d425750602060008473ffffffffffffffffffffffffffffffffffffffff1673ffffffffffffffffffffffffffffffffffffffff16815260200190815260200160002060009054906101000a900460ff165b15612d8d57600d543a1115612d8c576040517f08c379a0000000000000000000000000000000000000000000000000000000008152600401612d839061529c565b60405180910390fd5b5b600f60009054906101000a900460ff1615612f5557612daa6118fd565b73ffffffffffffffffffffffffffffffffffffffff168273ffffffffffffffffffffffffffffffffffffffff1614158015612e3157507f000000000000000000000000000000000000000000000000000000000000000073ffffffffffffffffffffffffffffffffffffffff168273ffffffffffffffffffffffffffffffffffffffff1614155b8015612e8957507f000000000000000000000000000000000000000000000000000000000000000073ffffffffffffffffffffffffffffffffffffffff168273ffffffffffffffffffffffffffffffffffffffff1614155b15612f545743600e60003273ffffffffffffffffffffffffffffffffffffffff1673ffffffffffffffffffffffffffffffffffffffff1681526020019081526020016000205410612f0f576040517f08c379a0000000000000000000000000000000000000000000000000000000008152600401612f0690615354565b60405180910390fd5b43600e60003273ffffffffffffffffffffffffffffffffffffffff1673ffffffffffffffffffffffffffffffffffffffff168152602001908152602001600020819055505b5b602060008473ffffffffffffffffffffffffffffffffffffffff1673ffffffffffffffffffffffffffffffffffffffff16815260200190815260200160002060009054906101000a900460ff168015612ff85750601f60008373ffffffffffffffffffffffffffffffffffffffff1673ffffffffffffffffffffffffffffffffffffffff16815260200190815260200160002060009054906101000a900460ff16155b1561309f57600954811115613042576040517f08c379a0000000000000000000000000000000000000000000000000000000008152600401613039906153e6565b60405180910390fd5b600b5461304e836115a0565b8261305991906149f5565b111561309a576040517f08c379a000000000000000000000000000000000000000000000000000000000815260040161309190615452565b60405180910390fd5b6131eb565b602060008373ffffffffffffffffffffffffffffffffffffffff1673ffffffffffffffffffffffffffffffffffffffff16815260200190815260200160002060009054906101000a900460ff1680156131425750601f60008473ffffffffffffffffffffffffffffffffffffffff1673ffffffffffffffffffffffffffffffffffffffff16815260200190815260200160002060009054906101000a900460ff16155b156131915760095481111561318c576040517f08c379a0000000000000000000000000000000000000000000000000000000008152600401613183906154e4565b60405180910390fd5b6131ea565b600b5461319d836115a0565b826131a891906149f5565b11156131e9576040517f08c379a00000000000000000000000000000000000000000000000000000000081526004016131e090615452565b60405180910390fd5b5b5b5b5b60006131f8306115a0565b90506000600a54821015905080801561321d5750600c60029054906101000a900460ff165b80156132365750600560149054906101000a900460ff16155b801561328c5750602060008673ffffffffffffffffffffffffffffffffffffffff1673ffffffffffffffffffffffffffffffffffffffff16815260200190815260200160002060009054906101000a900460ff16155b80156132e25750601e60008673ffffffffffffffffffffffffffffffffffffffff1673ffffffffffffffffffffffffffffffffffffffff16815260200190815260200160002060009054906101000a900460ff16155b80156133385750601e60008573ffffffffffffffffffffffffffffffffffffffff1673ffffffffffffffffffffffffffffffffffffffff16815260200190815260200160002060009054906101000a900460ff16155b1561337c576001600560146101000a81548160ff021916908315150217905550613360613730565b6000600560146101000a81548160ff0219169083151502179055505b6000600560149054906101000a900460ff16159050601e60008773ffffffffffffffffffffffffffffffffffffffff1673ffffffffffffffffffffffffffffffffffffffff16815260200190815260200160002060009054906101000a900460ff16806134325750601e60008673ffffffffffffffffffffffffffffffffffffffff1673ffffffffffffffffffffffffffffffffffffffff16815260200190815260200160002060009054906101000a900460ff165b1561343c57600090505b6000811561371b57602060008773ffffffffffffffffffffffffffffffffffffffff1673ffffffffffffffffffffffffffffffffffffffff16815260200190815260200160002060009054906101000a900460ff16801561349f57506000601554115b1561359f576134cc60646134be60155488613edb90919063ffffffff16565b613ef190919063ffffffff16565b9050601554601754826134df9190614817565b6134e991906148a0565b601b60008282546134fa91906149f5565b92505081905550601554601854826135129190614817565b61351c91906148a0565b601c600082825461352d91906149f5565b92505081905550601554601954826135459190614817565b61354f91906148a0565b601d600082825461356091906149f5565b92505081905550601554601654826135789190614817565b61358291906148a0565b601a600082825461359391906149f5565b925050819055506136f7565b602060008873ffffffffffffffffffffffffffffffffffffffff1673ffffffffffffffffffffffffffffffffffffffff16815260200190815260200160002060009054906101000a900460ff1680156135fa57506000601054115b156136f657613627606461361960105488613edb90919063ffffffff16565b613ef190919063ffffffff16565b90506010546012548261363a9190614817565b61364491906148a0565b601b600082825461365591906149f5565b925050819055506010546013548261366d9190614817565b61367791906148a0565b601c600082825461368891906149f5565b92505081905550601054601454826136a09190614817565b6136aa91906148a0565b601d60008282546136bb91906149f5565b92505081905550601054601154826136d39190614817565b6136dd91906148a0565b601a60008282546136ee91906149f5565b925050819055505b5b600081111561370c5761370b873083613c5c565b5b80856137189190615504565b94505b613726878787613c5c565b505050505b505050565b600061373b306115a0565b90506000601d54601c54601a54601b5461375591906149f5565b61375f91906149f5565b61376991906149f5565b9050600082148061377a5750600081145b15613786575050613af3565b6000600282601b54856137999190614817565b6137a391906148a0565b6137ad91906148a0565b905060006137c48285613f0790919063ffffffff16565b905060004790506137d482613f1d565b60006137e98247613f0790919063ffffffff16565b9050600061381486613806601a5485613edb90919063ffffffff16565b613ef190919063ffffffff16565b9050600061383f87613831601d5486613edb90919063ffffffff16565b613ef190919063ffffffff16565b9050600061386a8861385c601c5487613edb90919063ffffffff16565b613ef190919063ffffffff16565b905060008183858761387c9190615504565b6138869190615504565b6138909190615504565b90506000601b819055506000601a819055506000601c819055506000601d819055506000600660009054906101000a900473ffffffffffffffffffffffffffffffffffffffff1673ffffffffffffffffffffffffffffffffffffffff16856040516138fa90615569565b60006040518083038185875af1925050503d8060008114613937576040519150601f19603f3d011682016040523d82523d6000602084013e61393c565b606091505b50509050600660009054906101000a900473ffffffffffffffffffffffffffffffffffffffff1673ffffffffffffffffffffffffffffffffffffffff168460405161398690615569565b60006040518083038185875af1925050503d80600081146139c3576040519150601f19603f3d011682016040523d82523d6000602084013e6139c8565b606091505b5050809150506000891180156139de5750600082115b15613a2b576139ed898361415a565b7f17bbfb9a6069321b6ded73bd96327c9e6b7212a5cd51ff219cd61370acafb5618883601b54604051613a229392919061557e565b60405180910390a15b6000601354148015613a3f57506000601854145b8015613a535750670de0b6b3a76400004710155b15613ae757600660009054906101000a900473ffffffffffffffffffffffffffffffffffffffff1673ffffffffffffffffffffffffffffffffffffffff1647604051613a9e90615569565b60006040518083038185875af1925050503d8060008114613adb576040519150601f19603f3d011682016040523d82523d6000602084013e613ae0565b606091505b5050809150505b50505050505050505050505b565b6000600560009054906101000a900473ffffffffffffffffffffffffffffffffffffffff16905081600560006101000a81548173ffffffffffffffffffffffffffffffffffffffff021916908373ffffffffffffffffffffffffffffffffffffffff1602179055508173ffffffffffffffffffffffffffffffffffffffff168173ffffffffffffffffffffffffffffffffffffffff167f8be0079c531659141344cd1fd0a4f28419497f9722a3daafe3b4186f6b6457e060405160405180910390a35050565b80602060008473ffffffffffffffffffffffffffffffffffffffff1673ffffffffffffffffffffffffffffffffffffffff16815260200190815260200160002060006101000a81548160ff0219169083151502179055508015158273ffffffffffffffffffffffffffffffffffffffff167fffa9187bf1f18bf477bd0ea1bcbb64e93b6a98132473929edfce215cd9b16fab60405160405180910390a35050565b600073ffffffffffffffffffffffffffffffffffffffff168373ffffffffffffffffffffffffffffffffffffffff1603613ccb576040517f08c379a0000000000000000000000000000000000000000000000000000000008152600401613cc290615132565b60405180910390fd5b600073ffffffffffffffffffffffffffffffffffffffff168273ffffffffffffffffffffffffffffffffffffffff1603613d3a576040517f08c379a0000000000000000000000000000000000000000000000000000000008152600401613d31906151c4565b60405180910390fd5b613d45838383614256565b60008060008573ffffffffffffffffffffffffffffffffffffffff1673ffffffffffffffffffffffffffffffffffffffff16815260200190815260200160002054905081811015613dcb576040517f08c379a0000000000000000000000000000000000000000000000000000000008152600401613dc290615627565b60405180910390fd5b8181036000808673ffffffffffffffffffffffffffffffffffffffff1673ffffffffffffffffffffffffffffffffffffffff16815260200190815260200160002081905550816000808573ffffffffffffffffffffffffffffffffffffffff1673ffffffffffffffffffffffffffffffffffffffff1681526020019081526020016000206000828254613e5e91906149f5565b925050819055508273ffffffffffffffffffffffffffffffffffffffff168473ffffffffffffffffffffffffffffffffffffffff167fddf252ad1be2c89b69c2b068fc378daa952ba7f163c4a11628f55a4df523b3ef84604051613ec29190614466565b60405180910390a3613ed584848461425b565b50505050565b60008183613ee99190614817565b905092915050565b60008183613eff91906148a0565b905092915050565b60008183613f159190615504565b905092915050565b6000600267ffffffffffffffff811115613f3a57613f39614db7565b5b604051908082528060200260200182016040528015613f685781602001602082028036833780820191505090505b5090503081600081518110613f8057613f7f614e28565b5b602002602001019073ffffffffffffffffffffffffffffffffffffffff16908173ffffffffffffffffffffffffffffffffffffffff16815250507f000000000000000000000000000000000000000000000000000000000000000073ffffffffffffffffffffffffffffffffffffffff1663ad5c46486040518163ffffffff1660e01b8152600401602060405180830381865afa158015614025573d6000803e3d6000fd5b505050506040513d601f19601f820116820180604052508101906140499190614dfb565b8160018151811061405d5761405c614e28565b5b602002602001019073ffffffffffffffffffffffffffffffffffffffff16908173ffffffffffffffffffffffffffffffffffffffff16815250506140c2307f00000000000000000000000000000000000000000000000000000000000000008461280c565b7f000000000000000000000000000000000000000000000000000000000000000073ffffffffffffffffffffffffffffffffffffffff1663791ac9478360008430426040518663ffffffff1660e01b8152600401614124959493929190615647565b600060405180830381600087803b15801561413e57600080fd5b505af1158015614152573d6000803e3d6000fd5b505050505050565b614185307f00000000000000000000000000000000000000000000000000000000000000008461280c565b7f000000000000000000000000000000000000000000000000000000000000000073ffffffffffffffffffffffffffffffffffffffff1663f305d719823085600080600860009054906101000a900473ffffffffffffffffffffffffffffffffffffffff16426040518863ffffffff1660e01b815260040161420c969594939291906156a1565b60606040518083038185885af115801561422a573d6000803e3d6000fd5b50505050506040513d601f19601f8201168201806040525081019061424f9190615717565b5050505050565b505050565b505050565b600080fd5b600073ffffffffffffffffffffffffffffffffffffffff82169050919050565b600061429082614265565b9050919050565b6142a081614285565b81146142ab57600080fd5b50565b6000813590506142bd81614297565b92915050565b6000602082840312156142d9576142d8614260565b5b60006142e7848285016142ae565b91505092915050565b600081519050919050565b600082825260208201905092915050565b60005b8381101561432a57808201518184015260208101905061430f565b83811115614339576000848401525b50505050565b6000601f19601f8301169050919050565b600061435b826142f0565b61436581856142fb565b935061437581856020860161430c565b61437e8161433f565b840191505092915050565b600060208201905081810360008301526143a38184614350565b905092915050565b6000819050919050565b6143be816143ab565b81146143c957600080fd5b50565b6000813590506143db816143b5565b92915050565b600080604083850312156143f8576143f7614260565b5b6000614406858286016142ae565b9250506020614417858286016143cc565b9150509250929050565b60008115159050919050565b61443681614421565b82525050565b6000602082019050614451600083018461442d565b92915050565b614460816143ab565b82525050565b600060208201905061447b6000830184614457565b92915050565b60006020828403121561449757614496614260565b5b60006144a5848285016143cc565b91505092915050565b6000819050919050565b60006144d36144ce6144c984614265565b6144ae565b614265565b9050919050565b60006144e5826144b8565b9050919050565b60006144f7826144da565b9050919050565b614507816144ec565b82525050565b600060208201905061452260008301846144fe565b92915050565b60008060006060848603121561454157614540614260565b5b600061454f868287016142ae565b9350506020614560868287016142ae565b9250506040614571868287016143cc565b9150509250925092565b6000806000806080858703121561459557614594614260565b5b60006145a3878288016143cc565b94505060206145b4878288016143cc565b93505060406145c5878288016143cc565b92505060606145d6878288016143cc565b91505092959194509250565b600060ff82169050919050565b6145f8816145e2565b82525050565b600060208201905061461360008301846145ef565b92915050565b61462281614285565b82525050565b600060208201905061463d6000830184614619565b92915050565b61464c81614421565b811461465757600080fd5b50565b60008135905061466981614643565b92915050565b6000806040838503121561468657614685614260565b5b6000614694858286016142ae565b92505060206146a58582860161465a565b9150509250929050565b6000602082840312156146c5576146c4614260565b5b60006146d38482850161465a565b91505092915050565b600080604083850312156146f3576146f2614260565b5b6000614701858286016142ae565b9250506020614712858286016142ae565b9150509250929050565b7f4f776e61626c653a2063616c6c6572206973206e6f7420746865206f776e6572600082015250565b60006147526020836142fb565b915061475d8261471c565b602082019050919050565b6000602082019050818103600083015261478181614745565b9050919050565b7f4e487b7100000000000000000000000000000000000000000000000000000000600052602260045260246000fd5b600060028204905060018216806147cf57607f821691505b6020821081036147e2576147e1614788565b5b50919050565b7f4e487b7100000000000000000000000000000000000000000000000000000000600052601160045260246000fd5b6000614822826143ab565b915061482d836143ab565b9250817fffffffffffffffffffffffffffffffffffffffffffffffffffffffffffffffff0483118215151615614866576148656147e8565b5b828202905092915050565b7f4e487b7100000000000000000000000000000000000000000000000000000000600052601260045260246000fd5b60006148ab826143ab565b91506148b6836143ab565b9250826148c6576148c5614871565b5b828204905092915050565b7f43616e6e6f7420736574206d61785472616e73616374696f6e416d6f756e742060008201527f6c6f776572207468616e20302e35250000000000000000000000000000000000602082015250565b600061492d602f836142fb565b9150614938826148d1565b604082019050919050565b6000602082019050818103600083015261495c81614920565b9050919050565b7f45524332303a207472616e7366657220616d6f756e742065786365656473206160008201527f6c6c6f77616e6365000000000000000000000000000000000000000000000000602082015250565b60006149bf6028836142fb565b91506149ca82614963565b604082019050919050565b600060208201905081810360008301526149ee816149b2565b9050919050565b6000614a00826143ab565b9150614a0b836143ab565b9250827fffffffffffffffffffffffffffffffffffffffffffffffffffffffffffffffff03821115614a4057614a3f6147e8565b5b828201905092915050565b7f43616e206f6e6c792073776170206261636b206966206d6f7265207468616e2060008201527f3125206f6620746f6b656e7320737475636b206f6e20636f6e74726163740000602082015250565b6000614aa7603e836142fb565b9150614ab282614a4b565b604082019050919050565b60006020820190508181036000830152614ad681614a9a565b9050919050565b7f54686520706169722063616e6e6f742062652072656d6f7665642066726f6d2060008201527f6175746f6d617465644d61726b65744d616b6572506169727300000000000000602082015250565b6000614b396039836142fb565b9150614b4482614add565b604082019050919050565b60006020820190508181036000830152614b6881614b2c565b9050919050565b7f45524332303a2064656372656173656420616c6c6f77616e63652062656c6f7760008201527f207a65726f000000000000000000000000000000000000000000000000000000602082015250565b6000614bcb6025836142fb565b9150614bd682614b6f565b604082019050919050565b60006020820190508181036000830152614bfa81614bbe565b9050919050565b7f5377617020616d6f756e742063616e6e6f74206265206c6f776572207468616e60008201527f20302e3030312520746f74616c20737570706c792e0000000000000000000000602082015250565b6000614c5d6035836142fb565b9150614c6882614c01565b604082019050919050565b60006020820190508181036000830152614c8c81614c50565b9050919050565b7f5377617020616d6f756e742063616e6e6f74206265206869676865722074686160008201527f6e20302e352520746f74616c20737570706c792e000000000000000000000000602082015250565b6000614cef6034836142fb565b9150614cfa82614c93565b604082019050919050565b60006020820190508181036000830152614d1e81614ce2565b9050919050565b7f4f776e61626c653a206e6577206f776e657220697320746865207a65726f206160008201527f6464726573730000000000000000000000000000000000000000000000000000602082015250565b6000614d816026836142fb565b9150614d8c82614d25565b604082019050919050565b60006020820190508181036000830152614db081614d74565b9050919050565b7f4e487b7100000000000000000000000000000000000000000000000000000000600052604160045260246000fd5b600081519050614df581614297565b92915050565b600060208284031215614e1157614e10614260565b5b6000614e1f84828501614de6565b91505092915050565b7f4e487b7100000000000000000000000000000000000000000000000000000000600052603260045260246000fd5b6000819050919050565b6000614e7c614e77614e7284614e57565b6144ae565b6143ab565b9050919050565b614e8c81614e61565b82525050565b600081519050919050565b600082825260208201905092915050565b6000819050602082019050919050565b614ec781614285565b82525050565b6000614ed98383614ebe565b60208301905092915050565b6000602082019050919050565b6000614efd82614e92565b614f078185614e9d565b9350614f1283614eae565b8060005b83811015614f43578151614f2a8882614ecd565b9750614f3583614ee5565b925050600181019050614f16565b5085935050505092915050565b6000608082019050614f656000830187614e83565b8181036020830152614f778186614ef2565b9050614f866040830185614619565b614f936060830184614457565b95945050505050565b7f45524332303a20617070726f76652066726f6d20746865207a65726f2061646460008201527f7265737300000000000000000000000000000000000000000000000000000000602082015250565b6000614ff86024836142fb565b915061500382614f9c565b604082019050919050565b6000602082019050818103600083015261502781614feb565b9050919050565b7f45524332303a20617070726f766520746f20746865207a65726f20616464726560008201527f7373000000000000000000000000000000000000000000000000000000000000602082015250565b600061508a6022836142fb565b91506150958261502e565b604082019050919050565b600060208201905081810360008301526150b98161507d565b9050919050565b7f45524332303a207472616e736665722066726f6d20746865207a65726f20616460008201527f6472657373000000000000000000000000000000000000000000000000000000602082015250565b600061511c6025836142fb565b9150615127826150c0565b604082019050919050565b6000602082019050818103600083015261514b8161510f565b9050919050565b7f45524332303a207472616e7366657220746f20746865207a65726f206164647260008201527f6573730000000000000000000000000000000000000000000000000000000000602082015250565b60006151ae6023836142fb565b91506151b982615152565b604082019050919050565b600060208201905081810360008301526151dd816151a1565b9050919050565b7f54726164696e67206973206e6f74206163746976652e00000000000000000000600082015250565b600061521a6016836142fb565b9150615225826151e4565b602082019050919050565b600060208201905081810360008301526152498161520d565b9050919050565b7f4761732070726963652065786365656473206c696d69742e0000000000000000600082015250565b60006152866018836142fb565b915061529182615250565b602082019050919050565b600060208201905081810360008301526152b581615279565b9050919050565b7f5f7472616e736665723a3a205472616e736665722044656c617920656e61626c60008201527f65642e20204f6e6c79206f6e652070757263686173652070657220626c6f636b60208201527f20616c6c6f7765642e0000000000000000000000000000000000000000000000604082015250565b600061533e6049836142fb565b9150615349826152bc565b606082019050919050565b6000602082019050818103600083015261536d81615331565b9050919050565b7f427579207472616e7366657220616d6f756e742065786365656473207468652060008201527f6d61785472616e73616374696f6e416d6f756e742e0000000000000000000000602082015250565b60006153d06035836142fb565b91506153db82615374565b604082019050919050565b600060208201905081810360008301526153ff816153c3565b9050919050565b7f4d61782077616c6c657420657863656564656400000000000000000000000000600082015250565b600061543c6013836142fb565b915061544782615406565b602082019050919050565b6000602082019050818103600083015261546b8161542f565b9050919050565b7f53656c6c207472616e7366657220616d6f756e7420657863656564732074686560008201527f206d61785472616e73616374696f6e416d6f756e742e00000000000000000000602082015250565b60006154ce6036836142fb565b91506154d982615472565b604082019050919050565b600060208201905081810360008301526154fd816154c1565b9050919050565b600061550f826143ab565b915061551a836143ab565b92508282101561552d5761552c6147e8565b5b828203905092915050565b600081905092915050565b50565b6000615553600083615538565b915061555e82615543565b600082019050919050565b600061557482615546565b9150819050919050565b60006060820190506155936000830186614457565b6155a06020830185614457565b6155ad6040830184614457565b949350505050565b7f45524332303a207472616e7366657220616d6f756e742065786365656473206260008201527f616c616e63650000000000000000000000000000000000000000000000000000602082015250565b60006156116026836142fb565b915061561c826155b5565b604082019050919050565b6000602082019050818103600083015261564081615604565b9050919050565b600060a08201905061565c6000830188614457565b6156696020830187614e83565b818103604083015261567b8186614ef2565b905061568a6060830185614619565b6156976080830184614457565b9695505050505050565b600060c0820190506156b66000830189614619565b6156c36020830188614457565b6156d06040830187614e83565b6156dd6060830186614e83565b6156ea6080830185614619565b6156f760a0830184614457565b979650505050505050565b600081519050615711816143b5565b92915050565b6000806000606084860312156157305761572f614260565b5b600061573e86828701615702565b935050602061574f86828701615702565b925050604061576086828701615702565b915050925092509256fea264697066735822122090b4ed66473bb9544cbb8ea13d5075fa1dc309cc4e3bdb09252df262c533629364736f6c634300080d0033",
  "linkReferences": {},
  "deployedLinkReferences": {}
}