{
  "_format": "hh-sol-artifact-1",
  "contractName": "HeroInfinityNodePool",
  "sourceName": "contracts/HeroInfinityNodePool.sol",
  "abi": [
    {
      "inputs": [],
      "stateMutability": "nonpayable",
      "type": "constructor"
    },
    {
      "anonymous": false,
      "inputs": [
        {
          "indexed": true,
          "internalType": "address",
          "name": "previousOwner",
          "type": "address"
        },
        {
          "indexed": true,
          "internalType": "address",
          "name": "newOwner",
          "type": "address"
        }
      ],
      "name": "OwnershipTransferred",
      "type": "event"
    },
    {
      "inputs": [
        {
          "internalType": "uint256",
          "name": "newNodePrice",
          "type": "uint256"
        }
      ],
      "name": "changeNodePrice",
      "outputs": [],
      "stateMutability": "nonpayable",
      "type": "function"
    },
    {
      "inputs": [
        {
          "internalType": "uint256",
          "name": "_rewardPerDay",
          "type": "uint256"
        }
      ],
      "name": "changeRewardPerNode",
      "outputs": [],
      "stateMutability": "nonpayable",
      "type": "function"
    },
    {
      "inputs": [],
      "name": "claimAllNodesReward",
      "outputs": [],
      "stateMutability": "nonpayable",
      "type": "function"
    },
    {
      "inputs": [
        {
          "internalType": "uint256",
          "name": "_creationTime",
          "type": "uint256"
        }
      ],
      "name": "claimNodeReward",
      "outputs": [],
      "stateMutability": "nonpayable",
      "type": "function"
    },
    {
      "inputs": [
        {
          "internalType": "string",
          "name": "nodeName",
          "type": "string"
        },
        {
          "internalType": "uint256",
          "name": "count",
          "type": "uint256"
        }
      ],
      "name": "createNode",
      "outputs": [],
      "stateMutability": "nonpayable",
      "type": "function"
    },
    {
      "inputs": [],
      "name": "feeAmount",
      "outputs": [
        {
          "internalType": "uint256",
          "name": "",
          "type": "uint256"
        }
      ],
      "stateMutability": "view",
      "type": "function"
    },
    {
      "inputs": [],
      "name": "feeDuration",
      "outputs": [
        {
          "internalType": "uint256",
          "name": "",
          "type": "uint256"
        }
      ],
      "stateMutability": "view",
      "type": "function"
    },
    {
      "inputs": [
        {
          "internalType": "address",
          "name": "account",
          "type": "address"
        }
      ],
      "name": "getNodeNumberOf",
      "outputs": [
        {
          "internalType": "uint256",
          "name": "",
          "type": "uint256"
        }
      ],
      "stateMutability": "view",
      "type": "function"
    },
    {
      "inputs": [
        {
          "internalType": "address",
          "name": "account",
          "type": "address"
        }
      ],
      "name": "getNodes",
      "outputs": [
        {
          "components": [
            {
              "internalType": "string",
              "name": "name",
              "type": "string"
            },
            {
              "internalType": "uint256",
              "name": "creationTime",
              "type": "uint256"
            },
            {
              "internalType": "uint256",
              "name": "lastClaimTime",
              "type": "uint256"
            },
            {
              "internalType": "uint256",
              "name": "feeTime",
              "type": "uint256"
            },
            {
              "internalType": "uint256",
              "name": "dueTime",
              "type": "uint256"
            }
          ],
          "internalType": "struct HeroInfinityNodePool.NodeEntity[]",
          "name": "nodes",
          "type": "tuple[]"
        }
      ],
      "stateMutability": "view",
      "type": "function"
    },
    {
      "inputs": [
        {
          "internalType": "address",
          "name": "account",
          "type": "address"
        },
        {
          "internalType": "uint256",
          "name": "creationTime",
          "type": "uint256"
        }
      ],
      "name": "getRewardAmountOf",
      "outputs": [
        {
          "internalType": "uint256",
          "name": "",
          "type": "uint256"
        }
      ],
      "stateMutability": "view",
      "type": "function"
    },
    {
      "inputs": [
        {
          "internalType": "address",
          "name": "account",
          "type": "address"
        }
      ],
      "name": "getRewardTotalAmountOf",
      "outputs": [
        {
          "internalType": "uint256",
          "name": "",
          "type": "uint256"
        }
      ],
      "stateMutability": "view",
      "type": "function"
    },
    {
      "inputs": [],
      "name": "hriToken",
      "outputs": [
        {
          "internalType": "contract IERC20",
          "name": "",
          "type": "address"
        }
      ],
      "stateMutability": "view",
      "type": "function"
    },
    {
      "inputs": [],
      "name": "maxNodes",
      "outputs": [
        {
          "internalType": "uint256",
          "name": "",
          "type": "uint256"
        }
      ],
      "stateMutability": "view",
      "type": "function"
    },
    {
      "inputs": [
        {
          "internalType": "address",
          "name": "",
          "type": "address"
        }
      ],
      "name": "nodeOwners",
      "outputs": [
        {
          "internalType": "uint256",
          "name": "",
          "type": "uint256"
        }
      ],
      "stateMutability": "view",
      "type": "function"
    },
    {
      "inputs": [],
      "name": "nodePrice",
      "outputs": [
        {
          "internalType": "uint256",
          "name": "",
          "type": "uint256"
        }
      ],
      "stateMutability": "view",
      "type": "function"
    },
    {
      "inputs": [],
      "name": "overDuration",
      "outputs": [
        {
          "internalType": "uint256",
          "name": "",
          "type": "uint256"
        }
      ],
      "stateMutability": "view",
      "type": "function"
    },
    {
      "inputs": [],
      "name": "owner",
      "outputs": [
        {
          "internalType": "address",
          "name": "",
          "type": "address"
        }
      ],
      "stateMutability": "view",
      "type": "function"
    },
    {
      "inputs": [],
      "name": "payAllNodesFee",
      "outputs": [],
      "stateMutability": "payable",
      "type": "function"
    },
    {
      "inputs": [
        {
          "internalType": "uint256",
          "name": "_creationTime",
          "type": "uint256"
        }
      ],
      "name": "payNodeFee",
      "outputs": [],
      "stateMutability": "payable",
      "type": "function"
    },
    {
      "inputs": [],
      "name": "renounceOwnership",
      "outputs": [],
      "stateMutability": "nonpayable",
      "type": "function"
    },
    {
      "inputs": [],
      "name": "rewardPerDay",
      "outputs": [
        {
          "internalType": "uint256",
          "name": "",
          "type": "uint256"
        }
      ],
      "stateMutability": "view",
      "type": "function"
    },
    {
      "inputs": [
        {
          "internalType": "uint256",
          "name": "_feeAmount",
          "type": "uint256"
        }
      ],
      "name": "setFeeAmount",
      "outputs": [],
      "stateMutability": "nonpayable",
      "type": "function"
    },
    {
      "inputs": [
        {
          "internalType": "uint256",
          "name": "_feeDuration",
          "type": "uint256"
        }
      ],
      "name": "setFeeDuration",
      "outputs": [],
      "stateMutability": "nonpayable",
      "type": "function"
    },
    {
      "inputs": [
        {
          "internalType": "uint256",
          "name": "_count",
          "type": "uint256"
        }
      ],
      "name": "setMaxNodes",
      "outputs": [],
      "stateMutability": "nonpayable",
      "type": "function"
    },
    {
      "inputs": [
        {
          "internalType": "uint256",
          "name": "_overDuration",
          "type": "uint256"
        }
      ],
      "name": "setOverDuration",
      "outputs": [],
      "stateMutability": "nonpayable",
      "type": "function"
    },
    {
      "inputs": [],
      "name": "totalNodesCreated",
      "outputs": [
        {
          "internalType": "uint256",
          "name": "",
          "type": "uint256"
        }
      ],
      "stateMutability": "view",
      "type": "function"
    },
    {
      "inputs": [
        {
          "internalType": "address",
          "name": "newOwner",
          "type": "address"
        }
      ],
      "name": "transferOwnership",
      "outputs": [],
      "stateMutability": "nonpayable",
      "type": "function"
    },
    {
      "inputs": [
        {
          "internalType": "uint256",
          "name": "amount",
          "type": "uint256"
        }
      ],
      "name": "withdrawFee",
      "outputs": [],
      "stateMutability": "nonpayable",
      "type": "function"
    },
    {
      "inputs": [
        {
          "internalType": "uint256",
          "name": "amount",
          "type": "uint256"
        }
      ],
      "name": "withdrawReward",
      "outputs": [],
      "stateMutability": "nonpayable",
      "type": "function"
    },
    {
      "stateMutability": "payable",
      "type": "receive"
    }
  ],
  "bytecode": "0x6080604052692a5a058fc295ed0000006003556901b1ae4d6e2ef50000006004556019600555662386f26fc100006006556224ea006007556202a3006008556000600955600a80546001600160a01b031916730c4ba8e27e337c5e8eac912d836aa8ed09e80e7817905534801561007557600080fd5b5061007f33610084565b6100d4565b600080546001600160a01b038381166001600160a01b0319831681178455604051919092169283917f8be0079c531659141344cd1fd0a4f28419497f9722a3daafe3b4186f6b6457e09190a35050565b611d3b806100e36000396000f3fe6080604052600436106101c65760003560e01c80638013858b116100f7578063b8527aef11610095578063ebbbbb4911610064578063ebbbbb49146104bc578063f1fec2b8146104dc578063f2fde38b146104f2578063f74c99341461051257600080fd5b8063b8527aef14610450578063be35761614610466578063ddf0185f14610486578063ebb8035a1461049c57600080fd5b8063a44c8394116100d1578063a44c8394146103fd578063af8f42b81461041d578063afdfffcb14610433578063b7427ef91461044857600080fd5b80638013858b1461038b5780638da5cb5b146103ab5780639ceb5c48146103dd57600080fd5b8063617740c811610164578063715018a61161013e578063715018a61461030957806378a6b9681461031e5780637b7703921461034b5780637be50ce21461036b57600080fd5b8063617740c8146102bd57806369e15404146102d35780636b392680146102e957600080fd5b806343b8ff6f116101a057806343b8ff6f14610230578063486af96a14610250578063523a3f081461027d57806355cd6a5e1461029d57600080fd5b8063031c9dfc146101d25780631a136cd7146101e757806332ef9c871461020757600080fd5b366101cd57005b600080fd5b6101e56101e0366004611914565b610548565b005b3480156101f357600080fd5b506101e5610202366004611914565b610625565b34801561021357600080fd5b5061021d60075481565b6040519081526020015b60405180910390f35b34801561023c57600080fd5b5061021d61024b366004611949565b610654565b34801561025c57600080fd5b5061027061026b366004611949565b610796565b6040516102279190611964565b34801561028957600080fd5b506101e5610298366004611914565b6108c5565b3480156102a957600080fd5b506101e56102b8366004611914565b610977565b3480156102c957600080fd5b5061021d60085481565b3480156102df57600080fd5b5061021d60065481565b3480156102f557600080fd5b506101e5610304366004611914565b6109a6565b34801561031557600080fd5b506101e56109d5565b34801561032a57600080fd5b5061021d610339366004611949565b60016020526000908152604090205481565b34801561035757600080fd5b506101e5610366366004611914565b610a0b565b34801561037757600080fd5b506101e5610386366004611a4c565b610a3a565b34801561039757600080fd5b506101e56103a6366004611914565b610df1565b3480156103b757600080fd5b506000546001600160a01b03165b6040516001600160a01b039091168152602001610227565b3480156103e957600080fd5b5061021d6103f8366004611b01565b610e20565b34801561040957600080fd5b506101e5610418366004611914565b610eb4565b34801561042957600080fd5b5061021d60045481565b34801561043f57600080fd5b506101e5610ee3565b6101e5611010565b34801561045c57600080fd5b5061021d60095481565b34801561047257600080fd5b506101e5610481366004611914565b6111a6565b34801561049257600080fd5b5061021d60055481565b3480156104a857600080fd5b506101e56104b7366004611914565b6111fd565b3480156104c857600080fd5b50600a546103c5906001600160a01b031681565b3480156104e857600080fd5b5061021d60035481565b3480156104fe57600080fd5b506101e561050d366004611949565b611318565b34801561051e57600080fd5b5061021d61052d366004611949565b6001600160a01b031660009081526001602052604090205490565b6006543410156105985760405162461bcd60e51b815260206004820152601660248201527513995959081d1bc81c185e4819995948185b5bdd5b9d60521b60448201526064015b60405180910390fd5b336000908152600260205260408120906105b282846113b3565b905042816004015410156105fb5760405162461bcd60e51b815260206004820152601060248201526f139bd919481a5cc8191a5cd8589b195960821b604482015260640161058f565b6007546106089042611b41565b6003820181905560085461061b91611b41565b6004909101555050565b6000546001600160a01b0316331461064f5760405162461bcd60e51b815260040161058f90611b59565b600755565b6001600160a01b03811660009081526002602052604081208054908290815b8381101561078c57600061076a83838154811061069257610692611b8e565b90600052602060002090600502016040518060a00160405290816000820180546106bb90611ba4565b80601f01602080910402602001604051908101604052809291908181526020018280546106e790611ba4565b80156107345780601f1061070957610100808354040283529160200191610734565b820191906000526020600020905b81548152906001019060200180831161071757829003601f168201915b50505050508152602001600182015481526020016002820154815260200160038201548152602001600482015481525050611597565b90506107768185611b41565b935050808061078490611bdf565b915050610673565b5090949350505050565b6001600160a01b0381166000908152600260209081526040808320805482518185028101850190935280835260609492939192909184015b828210156108ba57838290600052602060002090600502016040518060a001604052908160008201805461080190611ba4565b80601f016020809104026020016040519081016040528092919081815260200182805461082d90611ba4565b801561087a5780601f1061084f5761010080835404028352916020019161087a565b820191906000526020600020905b81548152906001019060200180831161085d57829003601f168201915b50505050508152602001600182015481526020016002820154815260200160038201548152602001600482015481525050815260200190600101906107ce565b505050509050919050565b6000546001600160a01b031633146108ef5760405162461bcd60e51b815260040161058f90611b59565b600a5460405163a9059cbb60e01b8152336004820152602481018390526001600160a01b039091169063a9059cbb90604401602060405180830381600087803b15801561093b57600080fd5b505af115801561094f573d6000803e3d6000fd5b505050506040513d601f19601f820116820180604052508101906109739190611bfa565b5050565b6000546001600160a01b031633146109a15760405162461bcd60e51b815260040161058f90611b59565b600855565b6000546001600160a01b031633146109d05760405162461bcd60e51b815260040161058f90611b59565b600655565b6000546001600160a01b031633146109ff5760405162461bcd60e51b815260040161058f90611b59565b610a0960006115d8565b565b6000546001600160a01b03163314610a355760405162461bcd60e51b815260040161058f90611b59565b600455565b60008111610a825760405162461bcd60e51b81526020600482015260156024820152740436f756e742073686f756c64206265206e6f74203605c1b604482015260640161058f565b33600081815260016020526040902054610a9c8285611628565b610ae85760405162461bcd60e51b815260206004820152601f60248201527f435245415445204e4f44453a204e616d65206e6f7420617661696c61626c6500604482015260640161058f565b600554610af58483611b41565b1115610b335760405162461bcd60e51b815260206004820152600d60248201526c10dbdd5b9d08131a5b5a5d1959609a1b604482015260640161058f565b801580610b8457506001600160a01b03821660009081526002602052604090204290610b60600184611c1c565b81548110610b7057610b70611b8e565b906000526020600020906005020160010154105b610c015760405162461bcd60e51b815260206004820152604260248201527f596f7520617265206372656174696e67206d616e79206e6f64657320696e207360448201527f686f72742074696d652e20506c656173652074727920616761696e206c617465606482015261391760f11b608482015260a40161058f565b600083600354610c119190611c33565b600a546040516323b872dd60e01b81526001600160a01b038681166004830152306024830152604482018490529293509116906323b872dd90606401602060405180830381600087803b158015610c6757600080fd5b505af1158015610c7b573d6000803e3d6000fd5b505050506040513d601f19601f82011682018060405250810190610c9f9190611bfa565b5060005b84811015610de9576000610cb78242611b41565b905060026000866001600160a01b03166001600160a01b031681526020019081526020016000206040518060a0016040528089815260200183815260200183815260200160075484610d099190611b41565b815260200160085460075485610d1f9190611b41565b610d299190611b41565b905281546001810183556000928352602092839020825180519394600590930290910192610d5a928492019061187b565b5060208201518160010155604082015181600201556060820151816003015560808201518160040155505060016000866001600160a01b03166001600160a01b031681526020019081526020016000206000815480929190610dbb90611bdf565b909155505060098054906000610dd083611bdf565b9190505550508080610de190611bdf565b915050610ca3565b505050505050565b6000546001600160a01b03163314610e1b5760405162461bcd60e51b815260040161058f90611b59565b600355565b6000808211610e415760405162461bcd60e51b815260040161058f90611c52565b6001600160a01b0383166000908152600260205260409020805480610e785760405162461bcd60e51b815260040161058f90611c99565b6000610e8483866113b3565b90506000610ea7826040518060a00160405290816000820180546106bb90611ba4565b9450505050505b92915050565b6000546001600160a01b03163314610ede5760405162461bcd60e51b815260040161058f90611b59565b600555565b336000818152600260205260409020805480610f115760405162461bcd60e51b815260040161058f90611c52565b600080805b83811015610f8957848181548110610f3057610f30611b8e565b906000526020600020906005020192506000610f61846040518060a00160405290816000820180546106bb90611ba4565b9050610f6d8184611b41565b4260028601559250819050610f8181611bdf565b915050610f16565b50600a5460405163a9059cbb60e01b81526001600160a01b038781166004830152602482018490529091169063a9059cbb90604401602060405180830381600087803b158015610fd857600080fd5b505af1158015610fec573d6000803e3d6000fd5b505050506040513d601f19601f82011682018060405250810190610de99190611bfa565b33600090815260026020526040812090805b8254811015611075574283828154811061103e5761103e611b8e565b90600052602060002090600502016004015410611063578161105f81611bdf565b9250505b8061106d81611bdf565b915050611022565b50806006546110849190611c33565b3410156110cc5760405162461bcd60e51b815260206004820152601660248201527513995959081d1bc81c185e4819995948185b5bdd5b9d60521b604482015260640161058f565b60005b82548110156111a157428382815481106110eb576110eb611b8e565b9060005260206000209060050201600401541061118f5760075461110f9042611b41565b83828154811061112157611121611b8e565b90600052602060002090600502016003018190555060085483828154811061114b5761114b611b8e565b9060005260206000209060050201600301546111679190611b41565b83828154811061117957611179611b8e565b9060005260206000209060050201600401819055505b8061119981611bdf565b9150506110cf565b505050565b6000546001600160a01b031633146111d05760405162461bcd60e51b815260040161058f90611b59565b604051339082156108fc029083906000818181858888f19350505050158015610973573d6000803e3d6000fd5b338161121b5760405162461bcd60e51b815260040161058f90611c52565b6001600160a01b03811660009081526002602052604090208054806112525760405162461bcd60e51b815260040161058f90611c99565b600061125e83866113b3565b90506000611281826040518060a00160405290816000820180546106bb90611ba4565b426002840155600a5460405163a9059cbb60e01b81526001600160a01b0388811660048301526024820184905292935091169063a9059cbb90604401602060405180830381600087803b1580156112d757600080fd5b505af11580156112eb573d6000803e3d6000fd5b505050506040513d601f19601f8201168201806040525081019061130f9190611bfa565b50505050505050565b6000546001600160a01b031633146113425760405162461bcd60e51b815260040161058f90611b59565b6001600160a01b0381166113a75760405162461bcd60e51b815260206004820152602660248201527f4f776e61626c653a206e6577206f776e657220697320746865207a65726f206160448201526564647265737360d01b606482015260840161058f565b6113b0816115d8565b50565b8154600090806113d55760405162461bcd60e51b815260040161058f90611c99565b6000806114f586805480602002602001604051908101604052809291908181526020016000905b828210156114e857838290600052602060002090600502016040518060a001604052908160008201805461142f90611ba4565b80601f016020809104026020016040519081016040528092919081815260200182805461145b90611ba4565b80156114a85780601f1061147d576101008083540402835291602001916114a8565b820191906000526020600020905b81548152906001019060200180831161148b57829003601f168201915b50505050508152602001600182015481526020016002820154815260200160038201548152602001600482015481525050815260200190600101906113fc565b50505050600085886117b4565b90506000808212611507575060019150805b8261156b5760405162461bcd60e51b815260206004820152602e60248201527f4e4f4445205345415243483a204e6f204e4f444520466f756e6420776974682060448201526d7468697320626c6f636b74696d6560901b606482015260840161058f565b86818154811061157d5761157d611b8e565b906000526020600020906005020194505050505092915050565b600081608001514211156115ad57506000919050565b620151808260400151426115c19190611c1c565b6004546115ce9190611c33565b610eae9190611ce3565b600080546001600160a01b038381166001600160a01b0319831681178455604051919092169283917f8be0079c531659141344cd1fd0a4f28419497f9722a3daafe3b4186f6b6457e09190a35050565b6001600160a01b038216600090815260026020908152604080832080548251818502810185019093528083528493849084015b8282101561174757838290600052602060002090600502016040518060a001604052908160008201805461168e90611ba4565b80601f01602080910402602001604051908101604052809291908181526020018280546116ba90611ba4565b80156117075780601f106116dc57610100808354040283529160200191611707565b820191906000526020600020905b8154815290600101906020018083116116ea57829003601f168201915b505050505081526020016001820154815260200160028201548152602001600382015481526020016004820154815250508152602001906001019061165b565b50505050905060005b81518110156117a957838051906020012082828151811061177357611773611b8e565b60200260200101516000015180519060200120141561179757600092505050610eae565b806117a181611bdf565b915050611750565b506001949350505050565b600083831061185b5760006117d460026117ce8787611b41565b90611868565b9050828682815181106117e9576117e9611b8e565b6020026020010151602001511415611802579050611860565b8286828151811061181557611815611b8e565b60200260200101516020015111156118455761183d8686611837600185611c1c565b866117b4565b915050611860565b61183d86611854836001611b41565b86866117b4565b506000195b949350505050565b60006118748284611ce3565b9392505050565b82805461188790611ba4565b90600052602060002090601f0160209004810192826118a957600085556118ef565b82601f106118c257805160ff19168380011785556118ef565b828001600101855582156118ef579182015b828111156118ef5782518255916020019190600101906118d4565b506118fb9291506118ff565b5090565b5b808211156118fb5760008155600101611900565b60006020828403121561192657600080fd5b5035919050565b80356001600160a01b038116811461194457600080fd5b919050565b60006020828403121561195b57600080fd5b6118748261192d565b60006020808301818452808551808352604092508286019150828160051b8701018488016000805b84811015611a2757603f198a8503018652825160a08151818752805180838901528592505b808310156119cf578183018c015188840160c00152918b01916119b1565b808311156119e0578560c0828a0101525b838c0151888d01528a8401518b8901526060808501519089015260809384015193880193909352505095880195601f01601f191690930160c001929187019160010161198c565b50919998505050505050505050565b634e487b7160e01b600052604160045260246000fd5b60008060408385031215611a5f57600080fd5b823567ffffffffffffffff80821115611a7757600080fd5b818501915085601f830112611a8b57600080fd5b813581811115611a9d57611a9d611a36565b604051601f8201601f19908116603f01168101908382118183101715611ac557611ac5611a36565b81604052828152886020848701011115611ade57600080fd5b826020860160208301376000602093820184015298969091013596505050505050565b60008060408385031215611b1457600080fd5b611b1d8361192d565b946020939093013593505050565b634e487b7160e01b600052601160045260246000fd5b60008219821115611b5457611b54611b2b565b500190565b6020808252818101527f4f776e61626c653a2063616c6c6572206973206e6f7420746865206f776e6572604082015260600190565b634e487b7160e01b600052603260045260246000fd5b600181811c90821680611bb857607f821691505b60208210811415611bd957634e487b7160e01b600052602260045260246000fd5b50919050565b6000600019821415611bf357611bf3611b2b565b5060010190565b600060208284031215611c0c57600080fd5b8151801515811461187457600080fd5b600082821015611c2e57611c2e611b2b565b500390565b6000816000190483118215151615611c4d57611c4d611b2b565b500290565b60208082526027908201527f4e4f44453a204352454154494d45206d75737420626520686967686572207468604082015266616e207a65726f60c81b606082015260800190565b6020808252602a908201527f434c41494d204552524f523a20596f7520646f6e27742068617665206e6f64656040820152697320746f20636c61696d60b01b606082015260800190565b600082611d0057634e487b7160e01b600052601260045260246000fd5b50049056fea264697066735822122000d71a073f092540c7519f4e73117028432a15f650dce7281e40435e2e0e587864736f6c63430008090033",
  "linkReferences": {},
  "deployedLinkReferences": {}
}