{
  "_format": "hh-sol-artifact-1",
  "contractName": "HeroInfinityNodePoolV2",
  "sourceName": "contracts/HeroInfinityNodePoolV2.sol",
  "abi": [
    {
      "inputs": [],
      "stateMutability": "nonpayable",
      "type": "constructor"
    },
    {
      "anonymous": false,
      "inputs": [
        {
          "indexed": true,
          "internalType": "address",
          "name": "previousOwner",
          "type": "address"
        },
        {
          "indexed": true,
          "internalType": "address",
          "name": "newOwner",
          "type": "address"
        }
      ],
      "name": "OwnershipTransferred",
      "type": "event"
    },
    {
      "inputs": [],
      "name": "claimAllNodesReward",
      "outputs": [],
      "stateMutability": "nonpayable",
      "type": "function"
    },
    {
      "inputs": [
        {
          "internalType": "uint256",
          "name": "_creationTime",
          "type": "uint256"
        }
      ],
      "name": "claimNodeReward",
      "outputs": [],
      "stateMutability": "nonpayable",
      "type": "function"
    },
    {
      "inputs": [
        {
          "internalType": "string",
          "name": "nodeName",
          "type": "string"
        },
        {
          "internalType": "uint256",
          "name": "count",
          "type": "uint256"
        }
      ],
      "name": "createNode",
      "outputs": [],
      "stateMutability": "nonpayable",
      "type": "function"
    },
    {
      "inputs": [],
      "name": "feeDeductionRate",
      "outputs": [
        {
          "internalType": "uint256",
          "name": "",
          "type": "uint256"
        }
      ],
      "stateMutability": "view",
      "type": "function"
    },
    {
      "inputs": [],
      "name": "feeDuration",
      "outputs": [
        {
          "internalType": "uint256",
          "name": "",
          "type": "uint256"
        }
      ],
      "stateMutability": "view",
      "type": "function"
    },
    {
      "inputs": [
        {
          "internalType": "address",
          "name": "user",
          "type": "address"
        }
      ],
      "name": "getAllFee",
      "outputs": [
        {
          "internalType": "uint256",
          "name": "",
          "type": "uint256"
        }
      ],
      "stateMutability": "view",
      "type": "function"
    },
    {
      "inputs": [
        {
          "internalType": "address",
          "name": "account",
          "type": "address"
        },
        {
          "internalType": "uint256",
          "name": "createTime",
          "type": "uint256"
        }
      ],
      "name": "getFeeAmount",
      "outputs": [
        {
          "internalType": "uint256",
          "name": "",
          "type": "uint256"
        }
      ],
      "stateMutability": "view",
      "type": "function"
    },
    {
      "inputs": [
        {
          "internalType": "address",
          "name": "account",
          "type": "address"
        }
      ],
      "name": "getNodeNumberOf",
      "outputs": [
        {
          "internalType": "uint256",
          "name": "",
          "type": "uint256"
        }
      ],
      "stateMutability": "view",
      "type": "function"
    },
    {
      "inputs": [
        {
          "internalType": "address",
          "name": "account",
          "type": "address"
        }
      ],
      "name": "getNodes",
      "outputs": [
        {
          "components": [
            {
              "internalType": "string",
              "name": "name",
              "type": "string"
            },
            {
              "internalType": "uint256",
              "name": "creationTime",
              "type": "uint256"
            },
            {
              "internalType": "uint256",
              "name": "lastClaimTime",
              "type": "uint256"
            },
            {
              "internalType": "uint256",
              "name": "feeTime",
              "type": "uint256"
            },
            {
              "internalType": "uint256",
              "name": "dueTime",
              "type": "uint256"
            }
          ],
          "internalType": "struct HeroInfinityNodePoolV2.NodeEntity[]",
          "name": "nodes",
          "type": "tuple[]"
        }
      ],
      "stateMutability": "view",
      "type": "function"
    },
    {
      "inputs": [
        {
          "internalType": "address",
          "name": "account",
          "type": "address"
        },
        {
          "internalType": "uint256",
          "name": "creationTime",
          "type": "uint256"
        }
      ],
      "name": "getRewardAmountOf",
      "outputs": [
        {
          "internalType": "uint256",
          "name": "",
          "type": "uint256"
        }
      ],
      "stateMutability": "view",
      "type": "function"
    },
    {
      "inputs": [
        {
          "internalType": "address",
          "name": "account",
          "type": "address"
        }
      ],
      "name": "getRewardTotalAmountOf",
      "outputs": [
        {
          "internalType": "uint256",
          "name": "",
          "type": "uint256"
        }
      ],
      "stateMutability": "view",
      "type": "function"
    },
    {
      "inputs": [
        {
          "internalType": "uint256",
          "name": "passedDays",
          "type": "uint256"
        }
      ],
      "name": "getRewardsForDay",
      "outputs": [
        {
          "internalType": "uint256",
          "name": "",
          "type": "uint256"
        }
      ],
      "stateMutability": "view",
      "type": "function"
    },
    {
      "inputs": [],
      "name": "hriToken",
      "outputs": [
        {
          "internalType": "contract IERC20",
          "name": "",
          "type": "address"
        }
      ],
      "stateMutability": "view",
      "type": "function"
    },
    {
      "inputs": [],
      "name": "initialNodeFee",
      "outputs": [
        {
          "internalType": "uint256",
          "name": "",
          "type": "uint256"
        }
      ],
      "stateMutability": "view",
      "type": "function"
    },
    {
      "inputs": [],
      "name": "initialRewardRate",
      "outputs": [
        {
          "internalType": "uint256",
          "name": "",
          "type": "uint256"
        }
      ],
      "stateMutability": "view",
      "type": "function"
    },
    {
      "inputs": [],
      "name": "maxNodes",
      "outputs": [
        {
          "internalType": "uint256",
          "name": "",
          "type": "uint256"
        }
      ],
      "stateMutability": "view",
      "type": "function"
    },
    {
      "inputs": [],
      "name": "maxNodesPerWallet",
      "outputs": [
        {
          "internalType": "uint256",
          "name": "",
          "type": "uint256"
        }
      ],
      "stateMutability": "view",
      "type": "function"
    },
    {
      "inputs": [
        {
          "internalType": "address",
          "name": "",
          "type": "address"
        }
      ],
      "name": "migrated",
      "outputs": [
        {
          "internalType": "bool",
          "name": "",
          "type": "bool"
        }
      ],
      "stateMutability": "view",
      "type": "function"
    },
    {
      "inputs": [],
      "name": "minNodeFee",
      "outputs": [
        {
          "internalType": "uint256",
          "name": "",
          "type": "uint256"
        }
      ],
      "stateMutability": "view",
      "type": "function"
    },
    {
      "inputs": [],
      "name": "minRewardRatePerDay",
      "outputs": [
        {
          "internalType": "uint256",
          "name": "",
          "type": "uint256"
        }
      ],
      "stateMutability": "view",
      "type": "function"
    },
    {
      "inputs": [
        {
          "internalType": "address",
          "name": "",
          "type": "address"
        }
      ],
      "name": "nodeOwners",
      "outputs": [
        {
          "internalType": "uint256",
          "name": "",
          "type": "uint256"
        }
      ],
      "stateMutability": "view",
      "type": "function"
    },
    {
      "inputs": [],
      "name": "nodePrice",
      "outputs": [
        {
          "internalType": "uint256",
          "name": "",
          "type": "uint256"
        }
      ],
      "stateMutability": "view",
      "type": "function"
    },
    {
      "inputs": [],
      "name": "oldNodePool",
      "outputs": [
        {
          "internalType": "contract IHeroInfinityNodePool",
          "name": "",
          "type": "address"
        }
      ],
      "stateMutability": "view",
      "type": "function"
    },
    {
      "inputs": [],
      "name": "overDuration",
      "outputs": [
        {
          "internalType": "uint256",
          "name": "",
          "type": "uint256"
        }
      ],
      "stateMutability": "view",
      "type": "function"
    },
    {
      "inputs": [],
      "name": "owner",
      "outputs": [
        {
          "internalType": "address",
          "name": "",
          "type": "address"
        }
      ],
      "stateMutability": "view",
      "type": "function"
    },
    {
      "inputs": [],
      "name": "payAllNodesFee",
      "outputs": [],
      "stateMutability": "payable",
      "type": "function"
    },
    {
      "inputs": [
        {
          "internalType": "uint256",
          "name": "_creationTime",
          "type": "uint256"
        }
      ],
      "name": "payNodeFee",
      "outputs": [],
      "stateMutability": "payable",
      "type": "function"
    },
    {
      "inputs": [],
      "name": "renounceOwnership",
      "outputs": [],
      "stateMutability": "nonpayable",
      "type": "function"
    },
    {
      "inputs": [],
      "name": "rewardReduceRatePerDay",
      "outputs": [
        {
          "internalType": "uint256",
          "name": "",
          "type": "uint256"
        }
      ],
      "stateMutability": "view",
      "type": "function"
    },
    {
      "inputs": [
        {
          "internalType": "uint256",
          "name": "rate",
          "type": "uint256"
        }
      ],
      "name": "setFeeDeductionRate",
      "outputs": [],
      "stateMutability": "nonpayable",
      "type": "function"
    },
    {
      "inputs": [
        {
          "internalType": "uint256",
          "name": "_feeDuration",
          "type": "uint256"
        }
      ],
      "name": "setFeeDuration",
      "outputs": [],
      "stateMutability": "nonpayable",
      "type": "function"
    },
    {
      "inputs": [
        {
          "internalType": "uint256",
          "name": "_feeAmount",
          "type": "uint256"
        }
      ],
      "name": "setInitialNodeFee",
      "outputs": [],
      "stateMutability": "nonpayable",
      "type": "function"
    },
    {
      "inputs": [
        {
          "internalType": "uint256",
          "name": "rate",
          "type": "uint256"
        }
      ],
      "name": "setInitialRewardRate",
      "outputs": [],
      "stateMutability": "nonpayable",
      "type": "function"
    },
    {
      "inputs": [
        {
          "internalType": "uint256",
          "name": "_count",
          "type": "uint256"
        }
      ],
      "name": "setMaxNodes",
      "outputs": [],
      "stateMutability": "nonpayable",
      "type": "function"
    },
    {
      "inputs": [
        {
          "internalType": "uint256",
          "name": "_count",
          "type": "uint256"
        }
      ],
      "name": "setMaxNodesPerWallet",
      "outputs": [],
      "stateMutability": "nonpayable",
      "type": "function"
    },
    {
      "inputs": [
        {
          "internalType": "uint256",
          "name": "fee",
          "type": "uint256"
        }
      ],
      "name": "setMinNodeFee",
      "outputs": [],
      "stateMutability": "nonpayable",
      "type": "function"
    },
    {
      "inputs": [
        {
          "internalType": "uint256",
          "name": "rate",
          "type": "uint256"
        }
      ],
      "name": "setMinRewardRatePerDay",
      "outputs": [],
      "stateMutability": "nonpayable",
      "type": "function"
    },
    {
      "inputs": [
        {
          "internalType": "uint256",
          "name": "newNodePrice",
          "type": "uint256"
        }
      ],
      "name": "setNodePrice",
      "outputs": [],
      "stateMutability": "nonpayable",
      "type": "function"
    },
    {
      "inputs": [
        {
          "internalType": "uint256",
          "name": "_overDuration",
          "type": "uint256"
        }
      ],
      "name": "setOverDuration",
      "outputs": [],
      "stateMutability": "nonpayable",
      "type": "function"
    },
    {
      "inputs": [
        {
          "internalType": "uint256",
          "name": "rate",
          "type": "uint256"
        }
      ],
      "name": "setRewardReduceRatePerDay",
      "outputs": [],
      "stateMutability": "nonpayable",
      "type": "function"
    },
    {
      "inputs": [],
      "name": "totalNodesCreated",
      "outputs": [
        {
          "internalType": "uint256",
          "name": "",
          "type": "uint256"
        }
      ],
      "stateMutability": "view",
      "type": "function"
    },
    {
      "inputs": [
        {
          "internalType": "address",
          "name": "newOwner",
          "type": "address"
        }
      ],
      "name": "transferOwnership",
      "outputs": [],
      "stateMutability": "nonpayable",
      "type": "function"
    },
    {
      "inputs": [],
      "name": "upgradeNode",
      "outputs": [],
      "stateMutability": "nonpayable",
      "type": "function"
    },
    {
      "inputs": [
        {
          "internalType": "address",
          "name": "",
          "type": "address"
        },
        {
          "internalType": "uint256",
          "name": "",
          "type": "uint256"
        }
      ],
      "name": "userFees",
      "outputs": [
        {
          "internalType": "uint256",
          "name": "",
          "type": "uint256"
        }
      ],
      "stateMutability": "view",
      "type": "function"
    },
    {
      "inputs": [
        {
          "internalType": "uint256",
          "name": "amount",
          "type": "uint256"
        }
      ],
      "name": "withdrawFee",
      "outputs": [],
      "stateMutability": "nonpayable",
      "type": "function"
    },
    {
      "inputs": [
        {
          "internalType": "uint256",
          "name": "amount",
          "type": "uint256"
        }
      ],
      "name": "withdrawReward",
      "outputs": [],
      "stateMutability": "nonpayable",
      "type": "function"
    },
    {
      "stateMutability": "payable",
      "type": "receive"
    }
  ],
  "bytecode": "0x6080604052692a5a058fc295ed0000006005556101906006556061600755601e6008556032600955611388600a55662386f26fc10000600b5566038d7ea4c68000600c55600f600d8190556224ea00600e556202a30090556000601055601180546001600160a01b0319908116730c4ba8e27e337c5e8eac912d836aa8ed09e80e78179091556012805490911673fad5ef0f347eb7bb89e798b5d026f60afa3e2bf41790553480156100b057600080fd5b506100ba336100bf565b61010f565b600080546001600160a01b038381166001600160a01b0319831681178455604051919092169283917f8be0079c531659141344cd1fd0a4f28419497f9722a3daafe3b4186f6b6457e09190a35050565b61288d8061011e6000396000f3fe6080604052600436106102815760003560e01c806378a6b9681161014f578063b8785ef5116100c1578063ef8ceb8a1161007a578063ef8ceb8a14610756578063f1f4613a14610776578063f1fec2b814610796578063f2fde38b146107ac578063f67af2da146107cc578063f74c9934146107ec57600080fd5b8063b8785ef5146106b4578063be357616146106ca578063c0065935146106ea578063ddf0185f14610700578063ebb8035a14610716578063ebbbbb491461073657600080fd5b8063a2a7b0f211610113578063a2a7b0f21461062b578063a44c839414610641578063afdfffcb14610661578063b34f594b14610676578063b7427ef914610696578063b8527aef1461069e57600080fd5b806378a6b968146105805780637be50ce2146105ad5780638da5cb5b146105cd57806396ee03af146105eb5780639ceb5c481461060b57600080fd5b80634ba0a5ee116101f3578063617740c8116101ac578063617740c8146104d157806361b485f6146104e75780636b506c0d14610507578063715018a61461053f57806372fbb84114610554578063774c536a1461056a57600080fd5b80634ba0a5ee14610406578063523a3f081461044657806355cd6a5e1461046657806357649c36146104865780635971aa211461049b5780635c3b981c146104b157600080fd5b80632883b6a0116102455780632883b6a01461033557806332ef9c87146103555780633310ea141461036b57806335b9e55e146103a357806343b8ff6f146103b9578063486af96a146103d957600080fd5b806302e415c91461028d578063031c9dfc146102af5780630e5ba5a9146102c25780631156ba62146102e25780631a136cd71461031557600080fd5b3661028857005b600080fd5b34801561029957600080fd5b506102ad6102a8366004612291565b610822565b005b6102ad6102bd366004612291565b61085a565b3480156102ce57600080fd5b506102ad6102dd366004612291565b610967565b3480156102ee57600080fd5b506103026102fd366004612291565b610996565b6040519081526020015b60405180910390f35b34801561032157600080fd5b506102ad610330366004612291565b610a34565b34801561034157600080fd5b506102ad610350366004612291565b610a63565b34801561036157600080fd5b50610302600e5481565b34801561037757600080fd5b506103026103863660046122c6565b600160209081526000928352604080842090915290825290205481565b3480156103af57600080fd5b50610302600d5481565b3480156103c557600080fd5b506103026103d43660046122f0565b610a92565b3480156103e557600080fd5b506103f96103f43660046122f0565b610bd4565b60405161030c9190612337565b34801561041257600080fd5b506104366104213660046122f0565b60026020526000908152604090205460ff1681565b604051901515815260200161030c565b34801561045257600080fd5b506102ad610461366004612291565b610d03565b34801561047257600080fd5b506102ad610481366004612291565b610db5565b34801561049257600080fd5b506102ad610de4565b3480156104a757600080fd5b5061030260065481565b3480156104bd57600080fd5b506103026104cc3660046122f0565b61100f565b3480156104dd57600080fd5b50610302600f5481565b3480156104f357600080fd5b506103026105023660046122c6565b6110b1565b34801561051357600080fd5b50601254610527906001600160a01b031681565b6040516001600160a01b03909116815260200161030c565b34801561054b57600080fd5b506102ad61112b565b34801561056057600080fd5b50610302600b5481565b34801561057657600080fd5b50610302600c5481565b34801561058c57600080fd5b5061030261059b3660046122f0565b60036020526000908152604090205481565b3480156105b957600080fd5b506102ad6105c8366004612480565b611161565b3480156105d957600080fd5b506000546001600160a01b0316610527565b3480156105f757600080fd5b506102ad610606366004612291565b611526565b34801561061757600080fd5b506103026106263660046122c6565b611555565b34801561063757600080fd5b5061030260095481565b34801561064d57600080fd5b506102ad61065c366004612291565b6115e7565b34801561066d57600080fd5b506102ad611616565b34801561068257600080fd5b506102ad610691366004612291565b611743565b6102ad611772565b3480156106aa57600080fd5b5061030260105481565b3480156106c057600080fd5b5061030260075481565b3480156106d657600080fd5b506102ad6106e5366004612291565b61192b565b3480156106f657600080fd5b5061030260085481565b34801561070c57600080fd5b50610302600a5481565b34801561072257600080fd5b506102ad610731366004612291565b611982565b34801561074257600080fd5b50601154610527906001600160a01b031681565b34801561076257600080fd5b506102ad610771366004612291565b611a9d565b34801561078257600080fd5b506102ad610791366004612291565b611acc565b3480156107a257600080fd5b5061030260055481565b3480156107b857600080fd5b506102ad6107c73660046122f0565b611afb565b3480156107d857600080fd5b506102ad6107e7366004612291565b611b96565b3480156107f857600080fd5b506103026108073660046122f0565b6001600160a01b031660009081526003602052604090205490565b6000546001600160a01b031633146108555760405162461bcd60e51b815260040161084c90612502565b60405180910390fd5b600855565b336000818152600460205260408120906108748285611bc5565b9050600061088284866110b1565b9050803410156108cd5760405162461bcd60e51b815260206004820152601660248201527513995959081d1bc81c185e4819995948185b5bdd5b9d60521b604482015260640161084c565b42826004015410156109145760405162461bcd60e51b815260206004820152601060248201526f139bd919481a5cc8191a5cd8589b195960821b604482015260640161084c565b600e54610921904261254d565b60038301819055600f546109349161254d565b6004909201919091556001600160a01b039092166000908152600160209081526040808320958352949052929092205550565b6000546001600160a01b031633146109915760405162461bcd60e51b815260040161084c90612502565b600b55565b6000806127106006546005546109ac9190612565565b6109b6919061259a565b905060005b6109c66001856125ae565b8110156109fb576064600754836109dd9190612565565b6109e7919061259a565b9150806109f3816125c5565b9150506109bb565b506000612710600854600554610a119190612565565b610a1b919061259a565b9050808211610a2a5780610a2c565b815b949350505050565b6000546001600160a01b03163314610a5e5760405162461bcd60e51b815260040161084c90612502565b600e55565b6000546001600160a01b03163314610a8d5760405162461bcd60e51b815260040161084c90612502565b600c55565b6001600160a01b03811660009081526004602052604081208054908290815b83811015610bca576000610ba8838381548110610ad057610ad06125e0565b90600052602060002090600502016040518060a0016040529081600082018054610af9906125f6565b80601f0160208091040260200160405190810160405280929190818152602001828054610b25906125f6565b8015610b725780601f10610b4757610100808354040283529160200191610b72565b820191906000526020600020905b815481529060010190602001808311610b5557829003601f168201915b50505050508152602001600182015481526020016002820154815260200160038201548152602001600482015481525050611da9565b9050610bb4818561254d565b9350508080610bc2906125c5565b915050610ab1565b5090949350505050565b6001600160a01b0381166000908152600460209081526040808320805482518185028101850190935280835260609492939192909184015b82821015610cf857838290600052602060002090600502016040518060a0016040529081600082018054610c3f906125f6565b80601f0160208091040260200160405190810160405280929190818152602001828054610c6b906125f6565b8015610cb85780601f10610c8d57610100808354040283529160200191610cb8565b820191906000526020600020905b815481529060010190602001808311610c9b57829003601f168201915b5050505050815260200160018201548152602001600282015481526020016003820154815260200160048201548152505081526020019060010190610c0c565b505050509050919050565b6000546001600160a01b03163314610d2d5760405162461bcd60e51b815260040161084c90612502565b60115460405163a9059cbb60e01b8152336004820152602481018390526001600160a01b039091169063a9059cbb90604401602060405180830381600087803b158015610d7957600080fd5b505af1158015610d8d573d6000803e3d6000fd5b505050506040513d601f19601f82011682018060405250810190610db19190612631565b5050565b6000546001600160a01b03163314610ddf5760405162461bcd60e51b815260040161084c90612502565b600f55565b6012546040516324357cb560e11b81523360048201526000916001600160a01b03169063486af96a9060240160006040518083038186803b158015610e2857600080fd5b505afa158015610e3c573d6000803e3d6000fd5b505050506040513d6000823e601f3d908101601f19168201604052610e649190810190612653565b905060005b8151811015610ff1573360008181526004602052604090819020815160a0810190925284519091908190869086908110610ea557610ea56125e0565b6020026020010151600001518152602001858581518110610ec857610ec86125e0565b6020026020010151602001518152602001858581518110610eeb57610eeb6125e0565b6020026020010151604001518152602001858581518110610f0e57610f0e6125e0565b6020026020010151606001518152602001858581518110610f3157610f316125e0565b60209081029190910181015160800151909152825460018101845560009384529281902082518051939460050290910192610f6f92849201906121f8565b506020828101516001830155604080840151600284015560608401516003808501919091556080909401516004909301929092556001600160a01b03841660009081529290528120805491610fc3836125c5565b909155505060108054906000610fd8836125c5565b9190505550508080610fe9906125c5565b915050610e69565b5050336000908152600260205260409020805460ff19166001179055565b6001600160a01b038116600090815260046020526040812081805b82548110156110a95742838281548110611046576110466125e0565b906000526020600020906005020160040154106110975761108a85848381548110611073576110736125e0565b9060005260206000209060050201600101546110b1565b611094908361254d565b91505b806110a1816125c5565b91505061102a565b509392505050565b6001600160a01b0382166000908152600160209081526040808320848452909152812054806110e4575050600b54611125565b60006064600d5460646110f791906125ae565b6111019084612565565b61110b919061259a565b905080600c541161111c5780611120565b600c545b925050505b92915050565b6000546001600160a01b031633146111555760405162461bcd60e51b815260040161084c90612502565b61115f6000611f14565b565b600081116111a95760405162461bcd60e51b81526020600482015260156024820152740436f756e742073686f756c64206265206e6f74203605c1b604482015260640161084c565b336000818152600360205260409020546111c38285611f64565b61120f5760405162461bcd60e51b815260206004820152601f60248201527f435245415445204e4f44453a204e616d65206e6f7420617661696c61626c6500604482015260640161084c565b60095461121c848361254d565b111561125a5760405162461bcd60e51b815260206004820152600d60248201526c10dbdd5b9d08131a5b5a5d1959609a1b604482015260640161084c565b8015806112ab57506001600160a01b038216600090815260046020526040902042906112876001846125ae565b81548110611297576112976125e0565b906000526020600020906005020160010154105b6112eb5760405162461bcd60e51b8152602060048201526011602482015270546f6f206d616e7920726571756573747360781b604482015260640161084c565b600a54836010546112fc919061254d565b11156113435760405162461bcd60e51b8152602060048201526016602482015275115e18d95959081b585e081b9bd9195cc81b1a5b5a5d60521b604482015260640161084c565b6000836005546113539190612565565b6011546040516323b872dd60e01b81526001600160a01b038681166004830152306024830152604482018490529293509116906323b872dd90606401602060405180830381600087803b1580156113a957600080fd5b505af11580156113bd573d6000803e3d6000fd5b505050506040513d601f19601f820116820180604052508101906113e19190612631565b5060005b8481101561151e5760006113f9824261254d565b905060046000866001600160a01b03166001600160a01b031681526020019081526020016000206040518060a00160405280898152602001838152602001838152602001600e548461144b919061254d565b8152602001600f54600e5485611461919061254d565b61146b919061254d565b90528154600181018355600092835260209283902082518051939460059093029091019261149c92849201906121f8565b506020828101516001830155604080840151600284015560608401516003808501919091556080909401516004909301929092556001600160a01b038816600090815292905281208054916114f0836125c5565b909155505060108054906000611505836125c5565b9190505550508080611516906125c5565b9150506113e5565b505050505050565b6000546001600160a01b031633146115505760405162461bcd60e51b815260040161084c90612502565b600955565b60008082116115765760405162461bcd60e51b815260040161084c906127b2565b6001600160a01b03831660009081526004602052604090208054806115ad5760405162461bcd60e51b815260040161084c906127f9565b60006115b98386611bc5565b905060006115dc826040518060a0016040529081600082018054610af9906125f6565b979650505050505050565b6000546001600160a01b031633146116115760405162461bcd60e51b815260040161084c90612502565b600a55565b3360008181526004602052604090208054806116445760405162461bcd60e51b815260040161084c906127b2565b600080805b838110156116bc57848181548110611663576116636125e0565b906000526020600020906005020192506000611694846040518060a0016040529081600082018054610af9906125f6565b90506116a0818461254d565b42600286015592508190506116b4816125c5565b915050611649565b5060115460405163a9059cbb60e01b81526001600160a01b038781166004830152602482018490529091169063a9059cbb90604401602060405180830381600087803b15801561170b57600080fd5b505af115801561171f573d6000803e3d6000fd5b505050506040513d601f19601f8201168201806040525081019061151e9190612631565b6000546001600160a01b0316331461176d5760405162461bcd60e51b815260040161084c90612502565b600555565b3360008181526004602052604081209061178b8361100f565b9050803410156117d65760405162461bcd60e51b815260206004820152601660248201527513995959081d1bc81c185e4819995948185b5bdd5b9d60521b604482015260640161084c565b60005b825481101561192557428382815481106117f5576117f56125e0565b9060005260206000209060050201600401541061191357600061182485858481548110611073576110736125e0565b9050600e5442611834919061254d565b848381548110611846576118466125e0565b906000526020600020906005020160030181905550600f54848381548110611870576118706125e0565b90600052602060002090600502016003015461188c919061254d565b84838154811061189e5761189e6125e0565b9060005260206000209060050201600401819055508060016000876001600160a01b03166001600160a01b0316815260200190815260200160002060008685815481106118ed576118ed6125e0565b906000526020600020906005020160010154815260200190815260200160002081905550505b8061191d816125c5565b9150506117d9565b50505050565b6000546001600160a01b031633146119555760405162461bcd60e51b815260040161084c90612502565b604051339082156108fc029083906000818181858888f19350505050158015610db1573d6000803e3d6000fd5b33816119a05760405162461bcd60e51b815260040161084c906127b2565b6001600160a01b03811660009081526004602052604090208054806119d75760405162461bcd60e51b815260040161084c906127f9565b60006119e38386611bc5565b90506000611a06826040518060a0016040529081600082018054610af9906125f6565b42600284015560115460405163a9059cbb60e01b81526001600160a01b0388811660048301526024820184905292935091169063a9059cbb90604401602060405180830381600087803b158015611a5c57600080fd5b505af1158015611a70573d6000803e3d6000fd5b505050506040513d601f19601f82011682018060405250810190611a949190612631565b50505050505050565b6000546001600160a01b03163314611ac75760405162461bcd60e51b815260040161084c90612502565b600d55565b6000546001600160a01b03163314611af65760405162461bcd60e51b815260040161084c90612502565b600755565b6000546001600160a01b03163314611b255760405162461bcd60e51b815260040161084c90612502565b6001600160a01b038116611b8a5760405162461bcd60e51b815260206004820152602660248201527f4f776e61626c653a206e6577206f776e657220697320746865207a65726f206160448201526564647265737360d01b606482015260840161084c565b611b9381611f14565b50565b6000546001600160a01b03163314611bc05760405162461bcd60e51b815260040161084c90612502565b600655565b815460009080611be75760405162461bcd60e51b815260040161084c906127f9565b600080611d0786805480602002602001604051908101604052809291908181526020016000905b82821015611cfa57838290600052602060002090600502016040518060a0016040529081600082018054611c41906125f6565b80601f0160208091040260200160405190810160405280929190818152602001828054611c6d906125f6565b8015611cba5780601f10611c8f57610100808354040283529160200191611cba565b820191906000526020600020905b815481529060010190602001808311611c9d57829003601f168201915b5050505050815260200160018201548152602001600282015481526020016003820154815260200160048201548152505081526020019060010190611c0e565b50505050600085886120f0565b90506000808212611d19575060019150805b82611d7d5760405162461bcd60e51b815260206004820152602e60248201527f4e4f4445205345415243483a204e6f204e4f444520466f756e6420776974682060448201526d7468697320626c6f636b74696d6560901b606482015260840161084c565b868181548110611d8f57611d8f6125e0565b906000526020600020906005020194505050505092915050565b60008160800151421115611dbf57506000919050565b6000826020015142611dd191906125ae565b90506000611de282620151806121a3565b90506000611df36201518084612843565b90506000856040015142611e0791906125ae565b9050808211611e165781611e18565b805b9150600060015b848111611f09576040880151611e388262015180612565565b8960200151611e47919061254d565b1115611ef7576040880151600090611e628362015180612565565b8a60200151611e71919061254d565b611e7b91906125ae565b90506000611e8883610996565b905086831415611ebb5762015180611ea08783612565565b611eaa919061259a565b611eb4908561254d565b9350611ef4565b620151808210611ecf57611eb4818561254d565b62015180611edd8383612565565b611ee7919061259a565b611ef1908561254d565b93505b50505b80611f01816125c5565b915050611e1f565b509695505050505050565b600080546001600160a01b038381166001600160a01b0319831681178455604051919092169283917f8be0079c531659141344cd1fd0a4f28419497f9722a3daafe3b4186f6b6457e09190a35050565b6001600160a01b038216600090815260046020908152604080832080548251818502810185019093528083528493849084015b8282101561208357838290600052602060002090600502016040518060a0016040529081600082018054611fca906125f6565b80601f0160208091040260200160405190810160405280929190818152602001828054611ff6906125f6565b80156120435780601f1061201857610100808354040283529160200191612043565b820191906000526020600020905b81548152906001019060200180831161202657829003601f168201915b5050505050815260200160018201548152602001600282015481526020016003820154815260200160048201548152505081526020019060010190611f97565b50505050905060005b81518110156120e55783805190602001208282815181106120af576120af6125e0565b6020026020010151600001518051906020012014156120d357600092505050611125565b806120dd816125c5565b91505061208c565b506001949350505050565b6000838310612197576000612110600261210a878761254d565b906121e5565b905082868281518110612125576121256125e0565b602002602001015160200151141561213e579050610a2c565b82868281518110612151576121516125e0565b60200260200101516020015111156121815761217986866121736001856125ae565b866120f0565b915050610a2c565b6121798661219083600161254d565b86866120f0565b50600019949350505050565b6000806121b08385612843565b90506000836121bf83876125ae565b6121c9919061259a565b90508115610a2c576121dc60018261254d565b95945050505050565b60006121f1828461259a565b9392505050565b828054612204906125f6565b90600052602060002090601f016020900481019282612226576000855561226c565b82601f1061223f57805160ff191683800117855561226c565b8280016001018555821561226c579182015b8281111561226c578251825591602001919060010190612251565b5061227892915061227c565b5090565b5b80821115612278576000815560010161227d565b6000602082840312156122a357600080fd5b5035919050565b80356001600160a01b03811681146122c157600080fd5b919050565b600080604083850312156122d957600080fd5b6122e2836122aa565b946020939093013593505050565b60006020828403121561230257600080fd5b6121f1826122aa565b60005b8381101561232657818101518382015260200161230e565b838111156119255750506000910152565b60006020808301818452808551808352604092508286019150828160051b87010184880160005b838110156123da57603f19898403018552815160a081518186528051808388015260c09250612392818489018d850161230b565b8a840151878c0152898401518a88015260608085015190880152608093840151938701939093525095880195601f909101601f1916909301909201919086019060010161235e565b509098975050505050505050565b634e487b7160e01b600052604160045260246000fd5b60405160a0810167ffffffffffffffff81118282101715612421576124216123e8565b60405290565b604051601f8201601f1916810167ffffffffffffffff81118282101715612450576124506123e8565b604052919050565b600067ffffffffffffffff821115612472576124726123e8565b50601f01601f191660200190565b6000806040838503121561249357600080fd5b823567ffffffffffffffff8111156124aa57600080fd5b8301601f810185136124bb57600080fd5b80356124ce6124c982612458565b612427565b8181528660208385010111156124e357600080fd5b8160208401602083013760006020928201830152969401359450505050565b6020808252818101527f4f776e61626c653a2063616c6c6572206973206e6f7420746865206f776e6572604082015260600190565b634e487b7160e01b600052601160045260246000fd5b6000821982111561256057612560612537565b500190565b600081600019048311821515161561257f5761257f612537565b500290565b634e487b7160e01b600052601260045260246000fd5b6000826125a9576125a9612584565b500490565b6000828210156125c0576125c0612537565b500390565b60006000198214156125d9576125d9612537565b5060010190565b634e487b7160e01b600052603260045260246000fd5b600181811c9082168061260a57607f821691505b6020821081141561262b57634e487b7160e01b600052602260045260246000fd5b50919050565b60006020828403121561264357600080fd5b815180151581146121f157600080fd5b6000602080838503121561266657600080fd5b825167ffffffffffffffff8082111561267e57600080fd5b818501915085601f83011261269257600080fd5b8151818111156126a4576126a46123e8565b8060051b6126b3858201612427565b91825283810185019185810190898411156126cd57600080fd5b86860192505b838310156127a5578251858111156126ea57600080fd5b860160a0818c03601f190112156127015760008081fd5b6127096123fe565b888201518781111561271b5760008081fd5b8201603f81018d1361272d5760008081fd5b89810151604061273f6124c983612458565b8281528f828486010111156127545760008081fd5b612763838e830184870161230b565b8452848101518c850152606080860151918501919091526080808601519185019190915260a090940151938301939093525083525091860191908601906126d3565b9998505050505050505050565b60208082526027908201527f4e4f44453a204352454154494d45206d75737420626520686967686572207468604082015266616e207a65726f60c81b606082015260800190565b6020808252602a908201527f434c41494d204552524f523a20596f7520646f6e27742068617665206e6f64656040820152697320746f20636c61696d60b01b606082015260800190565b60008261285257612852612584565b50069056fea26469706673582212202e326662db33ace50a7e20c196a34079c1b30d0f0f039694e15734dcc296e49564736f6c63430008090033",
  "linkReferences": {},
  "deployedLinkReferences": {}
}