{
  "_format": "hh-sol-artifact-1",
  "contractName": "HeroInfinityNFT",
  "sourceName": "contracts/NFT/HeroInfinityNFT.sol",
  "abi": [
    {
      "inputs": [],
      "stateMutability": "nonpayable",
      "type": "constructor"
    },
    {
      "anonymous": false,
      "inputs": [
        {
          "indexed": true,
          "internalType": "address",
          "name": "owner",
          "type": "address"
        },
        {
          "indexed": true,
          "internalType": "address",
          "name": "approved",
          "type": "address"
        },
        {
          "indexed": true,
          "internalType": "uint256",
          "name": "tokenId",
          "type": "uint256"
        }
      ],
      "name": "Approval",
      "type": "event"
    },
    {
      "anonymous": false,
      "inputs": [
        {
          "indexed": true,
          "internalType": "address",
          "name": "owner",
          "type": "address"
        },
        {
          "indexed": true,
          "internalType": "address",
          "name": "operator",
          "type": "address"
        },
        {
          "indexed": false,
          "internalType": "bool",
          "name": "approved",
          "type": "bool"
        }
      ],
      "name": "ApprovalForAll",
      "type": "event"
    },
    {
      "anonymous": false,
      "inputs": [
        {
          "indexed": true,
          "internalType": "uint256",
          "name": "_heroId",
          "type": "uint256"
        },
        {
          "indexed": false,
          "internalType": "uint8",
          "name": "_toLevel",
          "type": "uint8"
        }
      ],
      "name": "LeveledUp",
      "type": "event"
    },
    {
      "anonymous": false,
      "inputs": [
        {
          "indexed": true,
          "internalType": "address",
          "name": "_owner",
          "type": "address"
        },
        {
          "indexed": false,
          "internalType": "uint256[]",
          "name": "_heroIds",
          "type": "uint256[]"
        }
      ],
      "name": "Minted",
      "type": "event"
    },
    {
      "anonymous": false,
      "inputs": [
        {
          "indexed": true,
          "internalType": "address",
          "name": "previousOwner",
          "type": "address"
        },
        {
          "indexed": true,
          "internalType": "address",
          "name": "newOwner",
          "type": "address"
        }
      ],
      "name": "OwnershipTransferred",
      "type": "event"
    },
    {
      "anonymous": false,
      "inputs": [
        {
          "indexed": true,
          "internalType": "address",
          "name": "from",
          "type": "address"
        },
        {
          "indexed": true,
          "internalType": "address",
          "name": "to",
          "type": "address"
        },
        {
          "indexed": true,
          "internalType": "uint256",
          "name": "tokenId",
          "type": "uint256"
        }
      ],
      "name": "Transfer",
      "type": "event"
    },
    {
      "inputs": [
        {
          "internalType": "address",
          "name": "to",
          "type": "address"
        },
        {
          "internalType": "uint256",
          "name": "tokenId",
          "type": "uint256"
        }
      ],
      "name": "approve",
      "outputs": [],
      "stateMutability": "nonpayable",
      "type": "function"
    },
    {
      "inputs": [
        {
          "internalType": "address",
          "name": "owner",
          "type": "address"
        }
      ],
      "name": "balanceOf",
      "outputs": [
        {
          "internalType": "uint256",
          "name": "",
          "type": "uint256"
        }
      ],
      "stateMutability": "view",
      "type": "function"
    },
    {
      "inputs": [
        {
          "internalType": "uint256",
          "name": "tokenId",
          "type": "uint256"
        }
      ],
      "name": "getApproved",
      "outputs": [
        {
          "internalType": "address",
          "name": "",
          "type": "address"
        }
      ],
      "stateMutability": "view",
      "type": "function"
    },
    {
      "inputs": [
        {
          "internalType": "uint256",
          "name": "",
          "type": "uint256"
        }
      ],
      "name": "heroes",
      "outputs": [
        {
          "internalType": "uint8",
          "name": "level",
          "type": "uint8"
        },
        {
          "internalType": "uint8",
          "name": "heroId",
          "type": "uint8"
        }
      ],
      "stateMutability": "view",
      "type": "function"
    },
    {
      "inputs": [
        {
          "internalType": "address",
          "name": "owner",
          "type": "address"
        },
        {
          "internalType": "address",
          "name": "operator",
          "type": "address"
        }
      ],
      "name": "isApprovedForAll",
      "outputs": [
        {
          "internalType": "bool",
          "name": "",
          "type": "bool"
        }
      ],
      "stateMutability": "view",
      "type": "function"
    },
    {
      "inputs": [
        {
          "internalType": "address",
          "name": "_owner",
          "type": "address"
        },
        {
          "internalType": "uint8",
          "name": "_count",
          "type": "uint8"
        }
      ],
      "name": "mint",
      "outputs": [],
      "stateMutability": "nonpayable",
      "type": "function"
    },
    {
      "inputs": [],
      "name": "name",
      "outputs": [
        {
          "internalType": "string",
          "name": "",
          "type": "string"
        }
      ],
      "stateMutability": "view",
      "type": "function"
    },
    {
      "inputs": [],
      "name": "owner",
      "outputs": [
        {
          "internalType": "address",
          "name": "",
          "type": "address"
        }
      ],
      "stateMutability": "view",
      "type": "function"
    },
    {
      "inputs": [
        {
          "internalType": "uint256",
          "name": "tokenId",
          "type": "uint256"
        }
      ],
      "name": "ownerOf",
      "outputs": [
        {
          "internalType": "address",
          "name": "",
          "type": "address"
        }
      ],
      "stateMutability": "view",
      "type": "function"
    },
    {
      "inputs": [],
      "name": "renounceOwnership",
      "outputs": [],
      "stateMutability": "nonpayable",
      "type": "function"
    },
    {
      "inputs": [
        {
          "internalType": "address",
          "name": "from",
          "type": "address"
        },
        {
          "internalType": "address",
          "name": "to",
          "type": "address"
        },
        {
          "internalType": "uint256",
          "name": "tokenId",
          "type": "uint256"
        }
      ],
      "name": "safeTransferFrom",
      "outputs": [],
      "stateMutability": "nonpayable",
      "type": "function"
    },
    {
      "inputs": [
        {
          "internalType": "address",
          "name": "from",
          "type": "address"
        },
        {
          "internalType": "address",
          "name": "to",
          "type": "address"
        },
        {
          "internalType": "uint256",
          "name": "tokenId",
          "type": "uint256"
        },
        {
          "internalType": "bytes",
          "name": "_data",
          "type": "bytes"
        }
      ],
      "name": "safeTransferFrom",
      "outputs": [],
      "stateMutability": "nonpayable",
      "type": "function"
    },
    {
      "inputs": [
        {
          "internalType": "address",
          "name": "operator",
          "type": "address"
        },
        {
          "internalType": "bool",
          "name": "approved",
          "type": "bool"
        }
      ],
      "name": "setApprovalForAll",
      "outputs": [],
      "stateMutability": "nonpayable",
      "type": "function"
    },
    {
      "inputs": [
        {
          "internalType": "string",
          "name": "_newBaseURI",
          "type": "string"
        }
      ],
      "name": "setBaseURI",
      "outputs": [],
      "stateMutability": "nonpayable",
      "type": "function"
    },
    {
      "inputs": [
        {
          "internalType": "uint256",
          "name": "_tokenId",
          "type": "uint256"
        },
        {
          "internalType": "uint8",
          "name": "_heroId",
          "type": "uint8"
        }
      ],
      "name": "setHeroId",
      "outputs": [],
      "stateMutability": "nonpayable",
      "type": "function"
    },
    {
      "inputs": [
        {
          "internalType": "uint256",
          "name": "_tokenId",
          "type": "uint256"
        },
        {
          "internalType": "uint8",
          "name": "_level",
          "type": "uint8"
        },
        {
          "internalType": "uint8",
          "name": "_heroId",
          "type": "uint8"
        }
      ],
      "name": "setHeroInfo",
      "outputs": [],
      "stateMutability": "nonpayable",
      "type": "function"
    },
    {
      "inputs": [
        {
          "internalType": "uint256",
          "name": "_tokenId",
          "type": "uint256"
        },
        {
          "internalType": "uint8",
          "name": "_level",
          "type": "uint8"
        }
      ],
      "name": "setHeroLevel",
      "outputs": [],
      "stateMutability": "nonpayable",
      "type": "function"
    },
    {
      "inputs": [
        {
          "internalType": "address",
          "name": "_treasureAddress",
          "type": "address"
        }
      ],
      "name": "setTreasureAddress",
      "outputs": [],
      "stateMutability": "nonpayable",
      "type": "function"
    },
    {
      "inputs": [
        {
          "internalType": "bytes4",
          "name": "_interfaceId",
          "type": "bytes4"
        }
      ],
      "name": "supportsInterface",
      "outputs": [
        {
          "internalType": "bool",
          "name": "",
          "type": "bool"
        }
      ],
      "stateMutability": "view",
      "type": "function"
    },
    {
      "inputs": [],
      "name": "symbol",
      "outputs": [
        {
          "internalType": "string",
          "name": "",
          "type": "string"
        }
      ],
      "stateMutability": "view",
      "type": "function"
    },
    {
      "inputs": [],
      "name": "token",
      "outputs": [
        {
          "internalType": "contract IERC20",
          "name": "",
          "type": "address"
        }
      ],
      "stateMutability": "view",
      "type": "function"
    },
    {
      "inputs": [
        {
          "internalType": "uint256",
          "name": "index",
          "type": "uint256"
        }
      ],
      "name": "tokenByIndex",
      "outputs": [
        {
          "internalType": "uint256",
          "name": "",
          "type": "uint256"
        }
      ],
      "stateMutability": "view",
      "type": "function"
    },
    {
      "inputs": [
        {
          "internalType": "address",
          "name": "owner",
          "type": "address"
        },
        {
          "internalType": "uint256",
          "name": "index",
          "type": "uint256"
        }
      ],
      "name": "tokenOfOwnerByIndex",
      "outputs": [
        {
          "internalType": "uint256",
          "name": "",
          "type": "uint256"
        }
      ],
      "stateMutability": "view",
      "type": "function"
    },
    {
      "inputs": [
        {
          "internalType": "uint256",
          "name": "_tokenId",
          "type": "uint256"
        }
      ],
      "name": "tokenURI",
      "outputs": [
        {
          "internalType": "string",
          "name": "",
          "type": "string"
        }
      ],
      "stateMutability": "view",
      "type": "function"
    },
    {
      "inputs": [],
      "name": "totalSupply",
      "outputs": [
        {
          "internalType": "uint256",
          "name": "",
          "type": "uint256"
        }
      ],
      "stateMutability": "view",
      "type": "function"
    },
    {
      "inputs": [
        {
          "internalType": "address",
          "name": "from",
          "type": "address"
        },
        {
          "internalType": "address",
          "name": "to",
          "type": "address"
        },
        {
          "internalType": "uint256",
          "name": "tokenId",
          "type": "uint256"
        }
      ],
      "name": "transferFrom",
      "outputs": [],
      "stateMutability": "nonpayable",
      "type": "function"
    },
    {
      "inputs": [
        {
          "internalType": "address",
          "name": "newOwner",
          "type": "address"
        }
      ],
      "name": "transferOwnership",
      "outputs": [],
      "stateMutability": "nonpayable",
      "type": "function"
    },
    {
      "inputs": [],
      "name": "treasureAddress",
      "outputs": [
        {
          "internalType": "address",
          "name": "",
          "type": "address"
        }
      ],
      "stateMutability": "view",
      "type": "function"
    }
  ],
  "bytecode": "0x60806040526040518060800160405280605881526020016200452860589139600d908051906020019062000035929190620001d8565b503480156200004357600080fd5b506040518060400160405280601181526020017f4865726f20496e66696e697479204e46540000000000000000000000000000008152506040518060400160405280600f81526020017f4865726f496e66696e6974794e465400000000000000000000000000000000008152508160009080519060200190620000c8929190620001d8565b508060019080519060200190620000e1929190620001d8565b50505062000104620000f86200010a60201b60201c565b6200011260201b60201c565b620002ed565b600033905090565b6000600b60009054906101000a900473ffffffffffffffffffffffffffffffffffffffff16905081600b60006101000a81548173ffffffffffffffffffffffffffffffffffffffff021916908373ffffffffffffffffffffffffffffffffffffffff1602179055508173ffffffffffffffffffffffffffffffffffffffff168173ffffffffffffffffffffffffffffffffffffffff167f8be0079c531659141344cd1fd0a4f28419497f9722a3daafe3b4186f6b6457e060405160405180910390a35050565b828054620001e69062000288565b90600052602060002090601f0160209004810192826200020a576000855562000256565b82601f106200022557805160ff191683800117855562000256565b8280016001018555821562000256579182015b828111156200025557825182559160200191906001019062000238565b5b50905062000265919062000269565b5090565b5b80821115620002845760008160009055506001016200026a565b5090565b60006002820490506001821680620002a157607f821691505b60208210811415620002b857620002b7620002be565b5b50919050565b7f4e487b7100000000000000000000000000000000000000000000000000000000600052602260045260246000fd5b61422b80620002fd6000396000f3fe608060405234801561001057600080fd5b50600436106101c45760003560e01c8063715018a6116100f9578063b88d4fde11610097578063d46f6b0311610071578063d46f6b0314610500578063e985e9c51461051e578063f2fde38b1461054e578063fc0c546a1461056a576101c4565b8063b88d4fde14610498578063c36b9332146104b4578063c87b56dd146104d0576101c4565b8063a22cb465116100d3578063a22cb46514610413578063a8118fae1461042f578063a8d4a03b1461044b578063a9c5a7cf1461047c576101c4565b8063715018a6146103cd5780638da5cb5b146103d757806395d89b41146103f5576101c4565b80632f745c591161016657806355f804b31161014057806355f804b3146103355780636352211e14610351578063691562a01461038157806370a082311461039d576101c4565b80632f745c59146102b957806342842e0e146102e95780634f6ccce714610305576101c4565b8063095ea7b3116101a2578063095ea7b31461024757806318160ddd1461026357806323b872dd1461028157806326e9a6ee1461029d576101c4565b806301ffc9a7146101c957806306fdde03146101f9578063081812fc14610217575b600080fd5b6101e360048036038101906101de9190612d4b565b610588565b6040516101f0919061341b565b60405180910390f35b61020161059a565b60405161020e9190613451565b60405180910390f35b610231600480360381019061022c9190612dde565b61062c565b60405161023e9190613392565b60405180910390f35b610261600480360381019061025c9190612cd3565b6106b1565b005b61026b6107c9565b60405161027891906136f3565b60405180910390f35b61029b60048036038101906102969190612bcd565b6107d6565b005b6102b760048036038101906102b29190612e07565b610836565b005b6102d360048036038101906102ce9190612cd3565b61094c565b6040516102e091906136f3565b60405180910390f35b61030360048036038101906102fe9190612bcd565b6109f1565b005b61031f600480360381019061031a9190612dde565b610a11565b60405161032c91906136f3565b60405180910390f35b61034f600480360381019061034a9190612d9d565b610aa8565b005b61036b60048036038101906103669190612dde565b610b3e565b6040516103789190613392565b60405180910390f35b61039b60048036038101906103969190612d0f565b610bf0565b005b6103b760048036038101906103b29190612b68565b610e61565b6040516103c491906136f3565b60405180910390f35b6103d5610f19565b005b6103df610fa1565b6040516103ec9190613392565b60405180910390f35b6103fd610fcb565b60405161040a9190613451565b60405180910390f35b61042d60048036038101906104289190612c97565b61105d565b005b61044960048036038101906104449190612e43565b611073565b005b61046560048036038101906104609190612dde565b611167565b60405161047392919061370e565b60405180910390f35b61049660048036038101906104919190612e07565b6111a5565b005b6104b260048036038101906104ad9190612c1c565b6112bb565b005b6104ce60048036038101906104c99190612b68565b61131d565b005b6104ea60048036038101906104e59190612dde565b6113dd565b6040516104f79190613451565b60405180910390f35b610508611485565b6040516105159190613392565b60405180910390f35b61053860048036038101906105339190612b91565b6114ab565b604051610545919061341b565b60405180910390f35b61056860048036038101906105639190612b68565b61153f565b005b610572611637565b60405161057f9190613436565b60405180910390f35b60006105938261165d565b9050919050565b6060600080546105a9906139f1565b80601f01602080910402602001604051908101604052809291908181526020018280546105d5906139f1565b80156106225780601f106105f757610100808354040283529160200191610622565b820191906000526020600020905b81548152906001019060200180831161060557829003601f168201915b5050505050905090565b6000610637826116d7565b610676576040517f08c379a000000000000000000000000000000000000000000000000000000000815260040161066d90613613565b60405180910390fd5b6004600083815260200190815260200160002060009054906101000a900473ffffffffffffffffffffffffffffffffffffffff169050919050565b60006106bc82610b3e565b90508073ffffffffffffffffffffffffffffffffffffffff168373ffffffffffffffffffffffffffffffffffffffff16141561072d576040517f08c379a000000000000000000000000000000000000000000000000000000000815260040161072490613673565b60405180910390fd5b8073ffffffffffffffffffffffffffffffffffffffff1661074c611743565b73ffffffffffffffffffffffffffffffffffffffff16148061077b575061077a81610775611743565b6114ab565b5b6107ba576040517f08c379a00000000000000000000000000000000000000000000000000000000081526004016107b190613573565b60405180910390fd5b6107c4838361174b565b505050565b6000600980549050905090565b6107e76107e1611743565b82611804565b610826576040517f08c379a000000000000000000000000000000000000000000000000000000000815260040161081d906136b3565b60405180910390fd5b6108318383836118e2565b505050565b61083e611743565b73ffffffffffffffffffffffffffffffffffffffff1661085c610fa1565b73ffffffffffffffffffffffffffffffffffffffff16146108b2576040517f08c379a00000000000000000000000000000000000000000000000000000000081526004016108a990613633565b60405180910390fd5b60405180604001604052808260ff168152602001600f600085815260200190815260200160002060000160019054906101000a900460ff1660ff16815250600f600084815260200190815260200160002060008201518160000160006101000a81548160ff021916908360ff16021790555060208201518160000160016101000a81548160ff021916908360ff1602179055509050505050565b600061095783610e61565b8210610998576040517f08c379a000000000000000000000000000000000000000000000000000000000815260040161098f90613473565b60405180910390fd5b600760008473ffffffffffffffffffffffffffffffffffffffff1673ffffffffffffffffffffffffffffffffffffffff168152602001908152602001600020600083815260200190815260200160002054905092915050565b610a0c838383604051806020016040528060008152506112bb565b505050565b6000610a1b6107c9565b8210610a5c576040517f08c379a0000000000000000000000000000000000000000000000000000000008152600401610a53906136d3565b60405180910390fd5b60098281548110610a96577f4e487b7100000000000000000000000000000000000000000000000000000000600052603260045260246000fd5b90600052602060002001549050919050565b610ab0611743565b73ffffffffffffffffffffffffffffffffffffffff16610ace610fa1565b73ffffffffffffffffffffffffffffffffffffffff1614610b24576040517f08c379a0000000000000000000000000000000000000000000000000000000008152600401610b1b90613633565b60405180910390fd5b80600d9080519060200190610b3a929190612977565b5050565b6000806002600084815260200190815260200160002060009054906101000a900473ffffffffffffffffffffffffffffffffffffffff169050600073ffffffffffffffffffffffffffffffffffffffff168173ffffffffffffffffffffffffffffffffffffffff161415610be7576040517f08c379a0000000000000000000000000000000000000000000000000000000008152600401610bde906135b3565b60405180910390fd5b80915050919050565b600e60009054906101000a900473ffffffffffffffffffffffffffffffffffffffff1673ffffffffffffffffffffffffffffffffffffffff163373ffffffffffffffffffffffffffffffffffffffff1614610c80576040517f08c379a0000000000000000000000000000000000000000000000000000000008152600401610c7790613553565b60405180910390fd5b60008160ff1667ffffffffffffffff811115610cc5577f4e487b7100000000000000000000000000000000000000000000000000000000600052604160045260246000fd5b604051908082528060200260200182016040528015610cf35781602001602082028036833780820191505090505b50905060005b8260ff168160ff161015610e0d57610d116010611b3e565b6000610d1d6010611b54565b9050610d298582611b62565b610d3b81610d36836113dd565b611d30565b6040518060400160405280600060ff168152602001600060ff16815250600f600083815260200190815260200160002060008201518160000160006101000a81548160ff021916908360ff16021790555060208201518160000160016101000a81548160ff021916908360ff16021790555090505080838360ff1681518110610ded577f4e487b7100000000000000000000000000000000000000000000000000000000600052603260045260246000fd5b602002602001018181525050508080610e0590613a9d565b915050610cf9565b508273ffffffffffffffffffffffffffffffffffffffff167f2625f80a8d24fb2b4a5f95be0398a21b27d1ed1677f4a3140fbdd87015b525a482604051610e5491906133f9565b60405180910390a2505050565b60008073ffffffffffffffffffffffffffffffffffffffff168273ffffffffffffffffffffffffffffffffffffffff161415610ed2576040517f08c379a0000000000000000000000000000000000000000000000000000000008152600401610ec990613593565b60405180910390fd5b600360008373ffffffffffffffffffffffffffffffffffffffff1673ffffffffffffffffffffffffffffffffffffffff168152602001908152602001600020549050919050565b610f21611743565b73ffffffffffffffffffffffffffffffffffffffff16610f3f610fa1565b73ffffffffffffffffffffffffffffffffffffffff1614610f95576040517f08c379a0000000000000000000000000000000000000000000000000000000008152600401610f8c90613633565b60405180910390fd5b610f9f6000611da4565b565b6000600b60009054906101000a900473ffffffffffffffffffffffffffffffffffffffff16905090565b606060018054610fda906139f1565b80601f0160208091040260200160405190810160405280929190818152602001828054611006906139f1565b80156110535780601f1061102857610100808354040283529160200191611053565b820191906000526020600020905b81548152906001019060200180831161103657829003601f168201915b5050505050905090565b61106f611068611743565b8383611e6a565b5050565b61107b611743565b73ffffffffffffffffffffffffffffffffffffffff16611099610fa1565b73ffffffffffffffffffffffffffffffffffffffff16146110ef576040517f08c379a00000000000000000000000000000000000000000000000000000000081526004016110e690613633565b60405180910390fd5b60405180604001604052808360ff1681526020018260ff16815250600f600085815260200190815260200160002060008201518160000160006101000a81548160ff021916908360ff16021790555060208201518160000160016101000a81548160ff021916908360ff160217905550905050505050565b600f6020528060005260406000206000915090508060000160009054906101000a900460ff16908060000160019054906101000a900460ff16905082565b6111ad611743565b73ffffffffffffffffffffffffffffffffffffffff166111cb610fa1565b73ffffffffffffffffffffffffffffffffffffffff1614611221576040517f08c379a000000000000000000000000000000000000000000000000000000000815260040161121890613633565b60405180910390fd5b6040518060400160405280600f600085815260200190815260200160002060000160009054906101000a900460ff1660ff1681526020018260ff16815250600f600084815260200190815260200160002060008201518160000160006101000a81548160ff021916908360ff16021790555060208201518160000160016101000a81548160ff021916908360ff1602179055509050505050565b6112cc6112c6611743565b83611804565b61130b576040517f08c379a0000000000000000000000000000000000000000000000000000000008152600401611302906136b3565b60405180910390fd5b61131784848484611fd7565b50505050565b611325611743565b73ffffffffffffffffffffffffffffffffffffffff16611343610fa1565b73ffffffffffffffffffffffffffffffffffffffff1614611399576040517f08c379a000000000000000000000000000000000000000000000000000000000815260040161139090613633565b60405180910390fd5b80600e60006101000a81548173ffffffffffffffffffffffffffffffffffffffff021916908373ffffffffffffffffffffffffffffffffffffffff16021790555050565b60606113e8826116d7565b611427576040517f08c379a000000000000000000000000000000000000000000000000000000000815260040161141e90613693565b60405180910390fd5b6000600d8054611436906139f1565b905011611452576040518060200160405280600081525061147e565b600d61145d83612033565b60405160200161146e929190613363565b6040516020818303038152906040525b9050919050565b600e60009054906101000a900473ffffffffffffffffffffffffffffffffffffffff1681565b6000600560008473ffffffffffffffffffffffffffffffffffffffff1673ffffffffffffffffffffffffffffffffffffffff16815260200190815260200160002060008373ffffffffffffffffffffffffffffffffffffffff1673ffffffffffffffffffffffffffffffffffffffff16815260200190815260200160002060009054906101000a900460ff16905092915050565b611547611743565b73ffffffffffffffffffffffffffffffffffffffff16611565610fa1565b73ffffffffffffffffffffffffffffffffffffffff16146115bb576040517f08c379a00000000000000000000000000000000000000000000000000000000081526004016115b290613633565b60405180910390fd5b600073ffffffffffffffffffffffffffffffffffffffff168173ffffffffffffffffffffffffffffffffffffffff16141561162b576040517f08c379a0000000000000000000000000000000000000000000000000000000008152600401611622906134b3565b60405180910390fd5b61163481611da4565b50565b600c60009054906101000a900473ffffffffffffffffffffffffffffffffffffffff1681565b60007f780e9d63000000000000000000000000000000000000000000000000000000007bffffffffffffffffffffffffffffffffffffffffffffffffffffffff1916827bffffffffffffffffffffffffffffffffffffffffffffffffffffffff191614806116d057506116cf826121e0565b5b9050919050565b60008073ffffffffffffffffffffffffffffffffffffffff166002600084815260200190815260200160002060009054906101000a900473ffffffffffffffffffffffffffffffffffffffff1673ffffffffffffffffffffffffffffffffffffffff1614159050919050565b600033905090565b816004600083815260200190815260200160002060006101000a81548173ffffffffffffffffffffffffffffffffffffffff021916908373ffffffffffffffffffffffffffffffffffffffff160217905550808273ffffffffffffffffffffffffffffffffffffffff166117be83610b3e565b73ffffffffffffffffffffffffffffffffffffffff167f8c5be1e5ebec7d5bd14f71427d1e84f3dd0314c0f7b2291e5b200ac8c7c3b92560405160405180910390a45050565b600061180f826116d7565b61184e576040517f08c379a000000000000000000000000000000000000000000000000000000000815260040161184590613533565b60405180910390fd5b600061185983610b3e565b90508073ffffffffffffffffffffffffffffffffffffffff168473ffffffffffffffffffffffffffffffffffffffff1614806118c857508373ffffffffffffffffffffffffffffffffffffffff166118b08461062c565b73ffffffffffffffffffffffffffffffffffffffff16145b806118d957506118d881856114ab565b5b91505092915050565b8273ffffffffffffffffffffffffffffffffffffffff1661190282610b3e565b73ffffffffffffffffffffffffffffffffffffffff1614611958576040517f08c379a000000000000000000000000000000000000000000000000000000000815260040161194f90613653565b60405180910390fd5b600073ffffffffffffffffffffffffffffffffffffffff168273ffffffffffffffffffffffffffffffffffffffff1614156119c8576040517f08c379a00000000000000000000000000000000000000000000000000000000081526004016119bf906134f3565b60405180910390fd5b6119d38383836122c2565b6119de60008261174b565b6001600360008573ffffffffffffffffffffffffffffffffffffffff1673ffffffffffffffffffffffffffffffffffffffff1681526020019081526020016000206000828254611a2e91906138d6565b925050819055506001600360008473ffffffffffffffffffffffffffffffffffffffff1673ffffffffffffffffffffffffffffffffffffffff1681526020019081526020016000206000828254611a85919061384f565b92505081905550816002600083815260200190815260200160002060006101000a81548173ffffffffffffffffffffffffffffffffffffffff021916908373ffffffffffffffffffffffffffffffffffffffff160217905550808273ffffffffffffffffffffffffffffffffffffffff168473ffffffffffffffffffffffffffffffffffffffff167fddf252ad1be2c89b69c2b068fc378daa952ba7f163c4a11628f55a4df523b3ef60405160405180910390a4505050565b6001816000016000828254019250508190555050565b600081600001549050919050565b600073ffffffffffffffffffffffffffffffffffffffff168273ffffffffffffffffffffffffffffffffffffffff161415611bd2576040517f08c379a0000000000000000000000000000000000000000000000000000000008152600401611bc9906135f3565b60405180910390fd5b611bdb816116d7565b15611c1b576040517f08c379a0000000000000000000000000000000000000000000000000000000008152600401611c12906134d3565b60405180910390fd5b611c27600083836122c2565b6001600360008473ffffffffffffffffffffffffffffffffffffffff1673ffffffffffffffffffffffffffffffffffffffff1681526020019081526020016000206000828254611c77919061384f565b92505081905550816002600083815260200190815260200160002060006101000a81548173ffffffffffffffffffffffffffffffffffffffff021916908373ffffffffffffffffffffffffffffffffffffffff160217905550808273ffffffffffffffffffffffffffffffffffffffff16600073ffffffffffffffffffffffffffffffffffffffff167fddf252ad1be2c89b69c2b068fc378daa952ba7f163c4a11628f55a4df523b3ef60405160405180910390a45050565b611d39826116d7565b611d78576040517f08c379a0000000000000000000000000000000000000000000000000000000008152600401611d6f906135d3565b60405180910390fd5b80600660008481526020019081526020016000209080519060200190611d9f929190612977565b505050565b6000600b60009054906101000a900473ffffffffffffffffffffffffffffffffffffffff16905081600b60006101000a81548173ffffffffffffffffffffffffffffffffffffffff021916908373ffffffffffffffffffffffffffffffffffffffff1602179055508173ffffffffffffffffffffffffffffffffffffffff168173ffffffffffffffffffffffffffffffffffffffff167f8be0079c531659141344cd1fd0a4f28419497f9722a3daafe3b4186f6b6457e060405160405180910390a35050565b8173ffffffffffffffffffffffffffffffffffffffff168373ffffffffffffffffffffffffffffffffffffffff161415611ed9576040517f08c379a0000000000000000000000000000000000000000000000000000000008152600401611ed090613513565b60405180910390fd5b80600560008573ffffffffffffffffffffffffffffffffffffffff1673ffffffffffffffffffffffffffffffffffffffff16815260200190815260200160002060008473ffffffffffffffffffffffffffffffffffffffff1673ffffffffffffffffffffffffffffffffffffffff16815260200190815260200160002060006101000a81548160ff0219169083151502179055508173ffffffffffffffffffffffffffffffffffffffff168373ffffffffffffffffffffffffffffffffffffffff167f17307eab39ab6107e8899845ad3d59bd9653f200f220920489ca2b5937696c3183604051611fca919061341b565b60405180910390a3505050565b611fe28484846118e2565b611fee848484846122d2565b61202d576040517f08c379a000000000000000000000000000000000000000000000000000000000815260040161202490613493565b60405180910390fd5b50505050565b6060600082141561207b576040518060400160405280600181526020017f300000000000000000000000000000000000000000000000000000000000000081525090506121db565b600082905060005b600082146120ad57808061209690613a54565b915050600a826120a691906138a5565b9150612083565b60008167ffffffffffffffff8111156120ef577f4e487b7100000000000000000000000000000000000000000000000000000000600052604160045260246000fd5b6040519080825280601f01601f1916602001820160405280156121215781602001600182028036833780820191505090505b5090505b600085146121d45760018261213a91906138d6565b9150600a856121499190613ac7565b6030612155919061384f565b60f81b818381518110612191577f4e487b7100000000000000000000000000000000000000000000000000000000600052603260045260246000fd5b60200101907effffffffffffffffffffffffffffffffffffffffffffffffffffffffffffff1916908160001a905350600a856121cd91906138a5565b9450612125565b8093505050505b919050565b60007f80ac58cd000000000000000000000000000000000000000000000000000000007bffffffffffffffffffffffffffffffffffffffffffffffffffffffff1916827bffffffffffffffffffffffffffffffffffffffffffffffffffffffff191614806122ab57507f5b5e139f000000000000000000000000000000000000000000000000000000007bffffffffffffffffffffffffffffffffffffffffffffffffffffffff1916827bffffffffffffffffffffffffffffffffffffffffffffffffffffffff1916145b806122bb57506122ba82612469565b5b9050919050565b6122cd8383836124d3565b505050565b60006122f38473ffffffffffffffffffffffffffffffffffffffff166125e7565b1561245c578373ffffffffffffffffffffffffffffffffffffffff1663150b7a0261231c611743565b8786866040518563ffffffff1660e01b815260040161233e94939291906133ad565b602060405180830381600087803b15801561235857600080fd5b505af192505050801561238957506040513d601f19601f820116820180604052508101906123869190612d74565b60015b61240c573d80600081146123b9576040519150601f19603f3d011682016040523d82523d6000602084013e6123be565b606091505b50600081511415612404576040517f08c379a00000000000000000000000000000000000000000000000000000000081526004016123fb90613493565b60405180910390fd5b805181602001fd5b63150b7a0260e01b7bffffffffffffffffffffffffffffffffffffffffffffffffffffffff1916817bffffffffffffffffffffffffffffffffffffffffffffffffffffffff191614915050612461565b600190505b949350505050565b60007f01ffc9a7000000000000000000000000000000000000000000000000000000007bffffffffffffffffffffffffffffffffffffffffffffffffffffffff1916827bffffffffffffffffffffffffffffffffffffffffffffffffffffffff1916149050919050565b6124de8383836125fa565b600073ffffffffffffffffffffffffffffffffffffffff168373ffffffffffffffffffffffffffffffffffffffff1614156125215761251c816125ff565b612560565b8173ffffffffffffffffffffffffffffffffffffffff168373ffffffffffffffffffffffffffffffffffffffff161461255f5761255e8382612648565b5b5b600073ffffffffffffffffffffffffffffffffffffffff168273ffffffffffffffffffffffffffffffffffffffff1614156125a35761259e816127b5565b6125e2565b8273ffffffffffffffffffffffffffffffffffffffff168273ffffffffffffffffffffffffffffffffffffffff16146125e1576125e082826128f8565b5b5b505050565b600080823b905060008111915050919050565b505050565b600980549050600a600083815260200190815260200160002081905550600981908060018154018082558091505060019003906000526020600020016000909190919091505550565b6000600161265584610e61565b61265f91906138d6565b9050600060086000848152602001908152602001600020549050818114612744576000600760008673ffffffffffffffffffffffffffffffffffffffff1673ffffffffffffffffffffffffffffffffffffffff168152602001908152602001600020600084815260200190815260200160002054905080600760008773ffffffffffffffffffffffffffffffffffffffff1673ffffffffffffffffffffffffffffffffffffffff168152602001908152602001600020600084815260200190815260200160002081905550816008600083815260200190815260200160002081905550505b6008600084815260200190815260200160002060009055600760008573ffffffffffffffffffffffffffffffffffffffff1673ffffffffffffffffffffffffffffffffffffffff16815260200190815260200160002060008381526020019081526020016000206000905550505050565b600060016009805490506127c991906138d6565b90506000600a600084815260200190815260200160002054905060006009838154811061281f577f4e487b7100000000000000000000000000000000000000000000000000000000600052603260045260246000fd5b906000526020600020015490508060098381548110612867577f4e487b7100000000000000000000000000000000000000000000000000000000600052603260045260246000fd5b906000526020600020018190555081600a600083815260200190815260200160002081905550600a60008581526020019081526020016000206000905560098054806128dc577f4e487b7100000000000000000000000000000000000000000000000000000000600052603160045260246000fd5b6001900381819060005260206000200160009055905550505050565b600061290383610e61565b905081600760008573ffffffffffffffffffffffffffffffffffffffff1673ffffffffffffffffffffffffffffffffffffffff168152602001908152602001600020600083815260200190815260200160002081905550806008600084815260200190815260200160002081905550505050565b828054612983906139f1565b90600052602060002090601f0160209004810192826129a557600085556129ec565b82601f106129be57805160ff19168380011785556129ec565b828001600101855582156129ec579182015b828111156129eb5782518255916020019190600101906129d0565b5b5090506129f991906129fd565b5090565b5b80821115612a165760008160009055506001016129fe565b5090565b6000612a2d612a288461375c565b613737565b905082815260208101848484011115612a4557600080fd5b612a508482856139af565b509392505050565b6000612a6b612a668461378d565b613737565b905082815260208101848484011115612a8357600080fd5b612a8e8482856139af565b509392505050565b600081359050612aa581614182565b92915050565b600081359050612aba81614199565b92915050565b600081359050612acf816141b0565b92915050565b600081519050612ae4816141b0565b92915050565b600082601f830112612afb57600080fd5b8135612b0b848260208601612a1a565b91505092915050565b600082601f830112612b2557600080fd5b8135612b35848260208601612a58565b91505092915050565b600081359050612b4d816141c7565b92915050565b600081359050612b62816141de565b92915050565b600060208284031215612b7a57600080fd5b6000612b8884828501612a96565b91505092915050565b60008060408385031215612ba457600080fd5b6000612bb285828601612a96565b9250506020612bc385828601612a96565b9150509250929050565b600080600060608486031215612be257600080fd5b6000612bf086828701612a96565b9350506020612c0186828701612a96565b9250506040612c1286828701612b3e565b9150509250925092565b60008060008060808587031215612c3257600080fd5b6000612c4087828801612a96565b9450506020612c5187828801612a96565b9350506040612c6287828801612b3e565b925050606085013567ffffffffffffffff811115612c7f57600080fd5b612c8b87828801612aea565b91505092959194509250565b60008060408385031215612caa57600080fd5b6000612cb885828601612a96565b9250506020612cc985828601612aab565b9150509250929050565b60008060408385031215612ce657600080fd5b6000612cf485828601612a96565b9250506020612d0585828601612b3e565b9150509250929050565b60008060408385031215612d2257600080fd5b6000612d3085828601612a96565b9250506020612d4185828601612b53565b9150509250929050565b600060208284031215612d5d57600080fd5b6000612d6b84828501612ac0565b91505092915050565b600060208284031215612d8657600080fd5b6000612d9484828501612ad5565b91505092915050565b600060208284031215612daf57600080fd5b600082013567ffffffffffffffff811115612dc957600080fd5b612dd584828501612b14565b91505092915050565b600060208284031215612df057600080fd5b6000612dfe84828501612b3e565b91505092915050565b60008060408385031215612e1a57600080fd5b6000612e2885828601612b3e565b9250506020612e3985828601612b53565b9150509250929050565b600080600060608486031215612e5857600080fd5b6000612e6686828701612b3e565b9350506020612e7786828701612b53565b9250506040612e8886828701612b53565b9150509250925092565b6000612e9e8383613336565b60208301905092915050565b612eb38161390a565b82525050565b6000612ec4826137e3565b612ece8185613811565b9350612ed9836137be565b8060005b83811015612f0a578151612ef18882612e92565b9750612efc83613804565b925050600181019050612edd565b5085935050505092915050565b612f208161391c565b82525050565b6000612f31826137ee565b612f3b8185613822565b9350612f4b8185602086016139be565b612f5481613bb4565b840191505092915050565b612f688161398b565b82525050565b6000612f79826137f9565b612f838185613833565b9350612f938185602086016139be565b612f9c81613bb4565b840191505092915050565b6000612fb2826137f9565b612fbc8185613844565b9350612fcc8185602086016139be565b80840191505092915050565b60008154612fe5816139f1565b612fef8186613844565b9450600182166000811461300a576001811461301b5761304e565b60ff1983168652818601935061304e565b613024856137ce565b60005b8381101561304657815481890152600182019150602081019050613027565b838801955050505b50505092915050565b6000613064602b83613833565b915061306f82613bc5565b604082019050919050565b6000613087603283613833565b915061309282613c14565b604082019050919050565b60006130aa602683613833565b91506130b582613c63565b604082019050919050565b60006130cd601c83613833565b91506130d882613cb2565b602082019050919050565b60006130f0602483613833565b91506130fb82613cdb565b604082019050919050565b6000613113601983613833565b915061311e82613d2a565b602082019050919050565b6000613136602c83613833565b915061314182613d53565b604082019050919050565b6000613159602783613833565b915061316482613da2565b604082019050919050565b600061317c603883613833565b915061318782613df1565b604082019050919050565b600061319f602a83613833565b91506131aa82613e40565b604082019050919050565b60006131c2602983613833565b91506131cd82613e8f565b604082019050919050565b60006131e5602e83613833565b91506131f082613ede565b604082019050919050565b6000613208602083613833565b915061321382613f2d565b602082019050919050565b600061322b602c83613833565b915061323682613f56565b604082019050919050565b600061324e600583613844565b915061325982613fa5565b600582019050919050565b6000613271602083613833565b915061327c82613fce565b602082019050919050565b6000613294602983613833565b915061329f82613ff7565b604082019050919050565b60006132b7602183613833565b91506132c282614046565b604082019050919050565b60006132da603083613833565b91506132e582614095565b604082019050919050565b60006132fd603183613833565b9150613308826140e4565b604082019050919050565b6000613320602c83613833565b915061332b82614133565b604082019050919050565b61333f81613974565b82525050565b61334e81613974565b82525050565b61335d8161397e565b82525050565b600061336f8285612fd8565b915061337b8284612fa7565b915061338682613241565b91508190509392505050565b60006020820190506133a76000830184612eaa565b92915050565b60006080820190506133c26000830187612eaa565b6133cf6020830186612eaa565b6133dc6040830185613345565b81810360608301526133ee8184612f26565b905095945050505050565b600060208201905081810360008301526134138184612eb9565b905092915050565b60006020820190506134306000830184612f17565b92915050565b600060208201905061344b6000830184612f5f565b92915050565b6000602082019050818103600083015261346b8184612f6e565b905092915050565b6000602082019050818103600083015261348c81613057565b9050919050565b600060208201905081810360008301526134ac8161307a565b9050919050565b600060208201905081810360008301526134cc8161309d565b9050919050565b600060208201905081810360008301526134ec816130c0565b9050919050565b6000602082019050818103600083015261350c816130e3565b9050919050565b6000602082019050818103600083015261352c81613106565b9050919050565b6000602082019050818103600083015261354c81613129565b9050919050565b6000602082019050818103600083015261356c8161314c565b9050919050565b6000602082019050818103600083015261358c8161316f565b9050919050565b600060208201905081810360008301526135ac81613192565b9050919050565b600060208201905081810360008301526135cc816131b5565b9050919050565b600060208201905081810360008301526135ec816131d8565b9050919050565b6000602082019050818103600083015261360c816131fb565b9050919050565b6000602082019050818103600083015261362c8161321e565b9050919050565b6000602082019050818103600083015261364c81613264565b9050919050565b6000602082019050818103600083015261366c81613287565b9050919050565b6000602082019050818103600083015261368c816132aa565b9050919050565b600060208201905081810360008301526136ac816132cd565b9050919050565b600060208201905081810360008301526136cc816132f0565b9050919050565b600060208201905081810360008301526136ec81613313565b9050919050565b60006020820190506137086000830184613345565b92915050565b60006040820190506137236000830185613354565b6137306020830184613354565b9392505050565b6000613741613752565b905061374d8282613a23565b919050565b6000604051905090565b600067ffffffffffffffff82111561377757613776613b85565b5b61378082613bb4565b9050602081019050919050565b600067ffffffffffffffff8211156137a8576137a7613b85565b5b6137b182613bb4565b9050602081019050919050565b6000819050602082019050919050565b60008190508160005260206000209050919050565b600081519050919050565b600081519050919050565b600081519050919050565b6000602082019050919050565b600082825260208201905092915050565b600082825260208201905092915050565b600082825260208201905092915050565b600081905092915050565b600061385a82613974565b915061386583613974565b9250827fffffffffffffffffffffffffffffffffffffffffffffffffffffffffffffffff0382111561389a57613899613af8565b5b828201905092915050565b60006138b082613974565b91506138bb83613974565b9250826138cb576138ca613b27565b5b828204905092915050565b60006138e182613974565b91506138ec83613974565b9250828210156138ff576138fe613af8565b5b828203905092915050565b600061391582613954565b9050919050565b60008115159050919050565b60007fffffffff0000000000000000000000000000000000000000000000000000000082169050919050565b600073ffffffffffffffffffffffffffffffffffffffff82169050919050565b6000819050919050565b600060ff82169050919050565b60006139968261399d565b9050919050565b60006139a882613954565b9050919050565b82818337600083830152505050565b60005b838110156139dc5780820151818401526020810190506139c1565b838111156139eb576000848401525b50505050565b60006002820490506001821680613a0957607f821691505b60208210811415613a1d57613a1c613b56565b5b50919050565b613a2c82613bb4565b810181811067ffffffffffffffff82111715613a4b57613a4a613b85565b5b80604052505050565b6000613a5f82613974565b91507fffffffffffffffffffffffffffffffffffffffffffffffffffffffffffffffff821415613a9257613a91613af8565b5b600182019050919050565b6000613aa88261397e565b915060ff821415613abc57613abb613af8565b5b600182019050919050565b6000613ad282613974565b9150613add83613974565b925082613aed57613aec613b27565b5b828206905092915050565b7f4e487b7100000000000000000000000000000000000000000000000000000000600052601160045260246000fd5b7f4e487b7100000000000000000000000000000000000000000000000000000000600052601260045260246000fd5b7f4e487b7100000000000000000000000000000000000000000000000000000000600052602260045260246000fd5b7f4e487b7100000000000000000000000000000000000000000000000000000000600052604160045260246000fd5b6000601f19601f8301169050919050565b7f455243373231456e756d657261626c653a206f776e657220696e646578206f7560008201527f74206f6620626f756e6473000000000000000000000000000000000000000000602082015250565b7f4552433732313a207472616e7366657220746f206e6f6e20455243373231526560008201527f63656976657220696d706c656d656e7465720000000000000000000000000000602082015250565b7f4f776e61626c653a206e6577206f776e657220697320746865207a65726f206160008201527f6464726573730000000000000000000000000000000000000000000000000000602082015250565b7f4552433732313a20746f6b656e20616c7265616479206d696e74656400000000600082015250565b7f4552433732313a207472616e7366657220746f20746865207a65726f2061646460008201527f7265737300000000000000000000000000000000000000000000000000000000602082015250565b7f4552433732313a20617070726f766520746f2063616c6c657200000000000000600082015250565b7f4552433732313a206f70657261746f7220717565727920666f72206e6f6e657860008201527f697374656e7420746f6b656e0000000000000000000000000000000000000000602082015250565b7f4865726f496e66696e6974794e46543a206f6e6c79207472656173757265206360008201527f616e206d696e7400000000000000000000000000000000000000000000000000602082015250565b7f4552433732313a20617070726f76652063616c6c6572206973206e6f74206f7760008201527f6e6572206e6f7220617070726f76656420666f7220616c6c0000000000000000602082015250565b7f4552433732313a2062616c616e636520717565727920666f7220746865207a6560008201527f726f206164647265737300000000000000000000000000000000000000000000602082015250565b7f4552433732313a206f776e657220717565727920666f72206e6f6e657869737460008201527f656e7420746f6b656e0000000000000000000000000000000000000000000000602082015250565b7f45524337323155524953746f726167653a2055524920736574206f66206e6f6e60008201527f6578697374656e7420746f6b656e000000000000000000000000000000000000602082015250565b7f4552433732313a206d696e7420746f20746865207a65726f2061646472657373600082015250565b7f4552433732313a20617070726f76656420717565727920666f72206e6f6e657860008201527f697374656e7420746f6b656e0000000000000000000000000000000000000000602082015250565b7f2e6a736f6e000000000000000000000000000000000000000000000000000000600082015250565b7f4f776e61626c653a2063616c6c6572206973206e6f7420746865206f776e6572600082015250565b7f4552433732313a207472616e73666572206f6620746f6b656e2074686174206960008201527f73206e6f74206f776e0000000000000000000000000000000000000000000000602082015250565b7f4552433732313a20617070726f76616c20746f2063757272656e74206f776e6560008201527f7200000000000000000000000000000000000000000000000000000000000000602082015250565b7f4865726f496e66696e6974794e46543a2055524920717565727920666f72206e60008201527f6f6e6578697374656e7420746f6b656e00000000000000000000000000000000602082015250565b7f4552433732313a207472616e736665722063616c6c6572206973206e6f74206f60008201527f776e6572206e6f7220617070726f766564000000000000000000000000000000602082015250565b7f455243373231456e756d657261626c653a20676c6f62616c20696e646578206f60008201527f7574206f6620626f756e64730000000000000000000000000000000000000000602082015250565b61418b8161390a565b811461419657600080fd5b50565b6141a28161391c565b81146141ad57600080fd5b50565b6141b981613928565b81146141c457600080fd5b50565b6141d081613974565b81146141db57600080fd5b50565b6141e78161397e565b81146141f257600080fd5b5056fea2646970667358221220a18f29587b8e08034359992bf5c728af183b202ec69557c35cefa3526b93286564736f6c6343000804003368747470733a2f2f6865726f696e66696e6974792e6d7970696e6174612e636c6f75642f697066732f516d5432395a626a706e5a7345506755536575393273786b4c4b67734e565066344a51556a6d396d6a434b4451692f",
  "linkReferences": {},
  "deployedLinkReferences": {}
}