{
  "_format": "hh-sol-artifact-1",
  "contractName": "HeroManager",
  "sourceName": "contracts/game/HeroManager.sol",
  "abi": [
    {
      "inputs": [
        {
          "internalType": "address",
          "name": "tokenAddress",
          "type": "address"
        },
        {
          "internalType": "address",
          "name": "nftAddress",
          "type": "address"
        }
      ],
      "stateMutability": "nonpayable",
      "type": "constructor"
    },
    {
      "anonymous": false,
      "inputs": [
        {
          "indexed": true,
          "internalType": "address",
          "name": "previousOwner",
          "type": "address"
        },
        {
          "indexed": true,
          "internalType": "address",
          "name": "newOwner",
          "type": "address"
        }
      ],
      "name": "OwnershipTransferred",
      "type": "event"
    },
    {
      "inputs": [],
      "name": "HERO_MAX_EXP",
      "outputs": [
        {
          "internalType": "uint256",
          "name": "",
          "type": "uint256"
        }
      ],
      "stateMutability": "view",
      "type": "function"
    },
    {
      "inputs": [],
      "name": "HERO_MAX_LEVEL",
      "outputs": [
        {
          "internalType": "uint256",
          "name": "",
          "type": "uint256"
        }
      ],
      "stateMutability": "view",
      "type": "function"
    },
    {
      "inputs": [
        {
          "internalType": "uint256",
          "name": "heroId",
          "type": "uint256"
        },
        {
          "components": [
            {
              "internalType": "bytes32",
              "name": "name",
              "type": "bytes32"
            },
            {
              "internalType": "uint256",
              "name": "level",
              "type": "uint256"
            },
            {
              "internalType": "uint256",
              "name": "rarity",
              "type": "uint256"
            },
            {
              "internalType": "uint256",
              "name": "primaryAttribute",
              "type": "uint256"
            },
            {
              "internalType": "uint256",
              "name": "attackCapability",
              "type": "uint256"
            },
            {
              "internalType": "uint256",
              "name": "strength",
              "type": "uint256"
            },
            {
              "internalType": "uint256",
              "name": "strengthGain",
              "type": "uint256"
            },
            {
              "internalType": "uint256",
              "name": "agility",
              "type": "uint256"
            },
            {
              "internalType": "uint256",
              "name": "agilityGain",
              "type": "uint256"
            },
            {
              "internalType": "uint256",
              "name": "intelligence",
              "type": "uint256"
            },
            {
              "internalType": "uint256",
              "name": "intelligenceGain",
              "type": "uint256"
            },
            {
              "internalType": "uint256",
              "name": "experience",
              "type": "uint256"
            }
          ],
          "internalType": "struct GameFi.Hero",
          "name": "hero",
          "type": "tuple"
        }
      ],
      "name": "addHero",
      "outputs": [],
      "stateMutability": "nonpayable",
      "type": "function"
    },
    {
      "inputs": [],
      "name": "baseLevelUpFee",
      "outputs": [
        {
          "internalType": "uint256",
          "name": "",
          "type": "uint256"
        }
      ],
      "stateMutability": "view",
      "type": "function"
    },
    {
      "inputs": [],
      "name": "bonusExp",
      "outputs": [
        {
          "internalType": "uint256",
          "name": "",
          "type": "uint256"
        }
      ],
      "stateMutability": "view",
      "type": "function"
    },
    {
      "inputs": [],
      "name": "bonusLevelUpFee",
      "outputs": [
        {
          "internalType": "uint256",
          "name": "",
          "type": "uint256"
        }
      ],
      "stateMutability": "view",
      "type": "function"
    },
    {
      "inputs": [
        {
          "internalType": "uint256[]",
          "name": "heroIds",
          "type": "uint256[]"
        },
        {
          "internalType": "bool",
          "name": "won",
          "type": "bool"
        }
      ],
      "name": "bulkExpUp",
      "outputs": [],
      "stateMutability": "nonpayable",
      "type": "function"
    },
    {
      "inputs": [],
      "name": "energyRecoveryTime",
      "outputs": [
        {
          "internalType": "uint256",
          "name": "",
          "type": "uint256"
        }
      ],
      "stateMutability": "view",
      "type": "function"
    },
    {
      "inputs": [],
      "name": "expDiff",
      "outputs": [
        {
          "internalType": "uint256",
          "name": "",
          "type": "uint256"
        }
      ],
      "stateMutability": "view",
      "type": "function"
    },
    {
      "inputs": [
        {
          "internalType": "uint256",
          "name": "heroId",
          "type": "uint256"
        },
        {
          "internalType": "bool",
          "name": "won",
          "type": "bool"
        }
      ],
      "name": "expUp",
      "outputs": [],
      "stateMutability": "nonpayable",
      "type": "function"
    },
    {
      "inputs": [
        {
          "internalType": "uint256",
          "name": "heroId",
          "type": "uint256"
        }
      ],
      "name": "heroEnergy",
      "outputs": [
        {
          "internalType": "uint256",
          "name": "",
          "type": "uint256"
        }
      ],
      "stateMutability": "view",
      "type": "function"
    },
    {
      "inputs": [
        {
          "internalType": "uint256",
          "name": "heroId",
          "type": "uint256"
        }
      ],
      "name": "heroLevel",
      "outputs": [
        {
          "internalType": "uint256",
          "name": "",
          "type": "uint256"
        }
      ],
      "stateMutability": "view",
      "type": "function"
    },
    {
      "inputs": [
        {
          "internalType": "uint256",
          "name": "heroId",
          "type": "uint256"
        }
      ],
      "name": "heroPower",
      "outputs": [
        {
          "internalType": "uint256",
          "name": "",
          "type": "uint256"
        }
      ],
      "stateMutability": "view",
      "type": "function"
    },
    {
      "inputs": [
        {
          "internalType": "uint256",
          "name": "heroId",
          "type": "uint256"
        }
      ],
      "name": "heroPrimaryAttribute",
      "outputs": [
        {
          "internalType": "uint256",
          "name": "",
          "type": "uint256"
        }
      ],
      "stateMutability": "view",
      "type": "function"
    },
    {
      "inputs": [
        {
          "internalType": "uint256",
          "name": "",
          "type": "uint256"
        }
      ],
      "name": "heroes",
      "outputs": [
        {
          "internalType": "bytes32",
          "name": "name",
          "type": "bytes32"
        },
        {
          "internalType": "uint256",
          "name": "level",
          "type": "uint256"
        },
        {
          "internalType": "uint256",
          "name": "rarity",
          "type": "uint256"
        },
        {
          "internalType": "uint256",
          "name": "primaryAttribute",
          "type": "uint256"
        },
        {
          "internalType": "uint256",
          "name": "attackCapability",
          "type": "uint256"
        },
        {
          "internalType": "uint256",
          "name": "strength",
          "type": "uint256"
        },
        {
          "internalType": "uint256",
          "name": "strengthGain",
          "type": "uint256"
        },
        {
          "internalType": "uint256",
          "name": "agility",
          "type": "uint256"
        },
        {
          "internalType": "uint256",
          "name": "agilityGain",
          "type": "uint256"
        },
        {
          "internalType": "uint256",
          "name": "intelligence",
          "type": "uint256"
        },
        {
          "internalType": "uint256",
          "name": "intelligenceGain",
          "type": "uint256"
        },
        {
          "internalType": "uint256",
          "name": "experience",
          "type": "uint256"
        }
      ],
      "stateMutability": "view",
      "type": "function"
    },
    {
      "inputs": [
        {
          "internalType": "uint256",
          "name": "",
          "type": "uint256"
        }
      ],
      "name": "heroesEnergy",
      "outputs": [
        {
          "internalType": "uint256",
          "name": "",
          "type": "uint256"
        }
      ],
      "stateMutability": "view",
      "type": "function"
    },
    {
      "inputs": [
        {
          "internalType": "uint256",
          "name": "",
          "type": "uint256"
        }
      ],
      "name": "heroesEnergyUsedAt",
      "outputs": [
        {
          "internalType": "uint256",
          "name": "",
          "type": "uint256"
        }
      ],
      "stateMutability": "view",
      "type": "function"
    },
    {
      "inputs": [
        {
          "internalType": "uint256",
          "name": "level",
          "type": "uint256"
        }
      ],
      "name": "levelExp",
      "outputs": [
        {
          "internalType": "uint256",
          "name": "",
          "type": "uint256"
        }
      ],
      "stateMutability": "view",
      "type": "function"
    },
    {
      "inputs": [
        {
          "internalType": "uint256",
          "name": "heroId",
          "type": "uint256"
        },
        {
          "internalType": "uint256",
          "name": "levels",
          "type": "uint256"
        }
      ],
      "name": "levelUp",
      "outputs": [],
      "stateMutability": "nonpayable",
      "type": "function"
    },
    {
      "inputs": [
        {
          "internalType": "uint256",
          "name": "heroId",
          "type": "uint256"
        },
        {
          "internalType": "uint256",
          "name": "levels",
          "type": "uint256"
        }
      ],
      "name": "levelUpFee",
      "outputs": [
        {
          "internalType": "uint256",
          "name": "",
          "type": "uint256"
        }
      ],
      "stateMutability": "view",
      "type": "function"
    },
    {
      "inputs": [],
      "name": "lobbyManagerAddress",
      "outputs": [
        {
          "internalType": "address",
          "name": "",
          "type": "address"
        }
      ],
      "stateMutability": "view",
      "type": "function"
    },
    {
      "inputs": [],
      "name": "maxHeroEnergy",
      "outputs": [
        {
          "internalType": "uint256",
          "name": "",
          "type": "uint256"
        }
      ],
      "stateMutability": "view",
      "type": "function"
    },
    {
      "inputs": [
        {
          "internalType": "bytes[]",
          "name": "data",
          "type": "bytes[]"
        }
      ],
      "name": "multicall",
      "outputs": [
        {
          "internalType": "bytes[]",
          "name": "results",
          "type": "bytes[]"
        }
      ],
      "stateMutability": "nonpayable",
      "type": "function"
    },
    {
      "inputs": [],
      "name": "nft",
      "outputs": [
        {
          "internalType": "contract IERC721",
          "name": "",
          "type": "address"
        }
      ],
      "stateMutability": "view",
      "type": "function"
    },
    {
      "inputs": [],
      "name": "owner",
      "outputs": [
        {
          "internalType": "address",
          "name": "",
          "type": "address"
        }
      ],
      "stateMutability": "view",
      "type": "function"
    },
    {
      "inputs": [],
      "name": "primaryPowerMultiplier",
      "outputs": [
        {
          "internalType": "uint256",
          "name": "",
          "type": "uint256"
        }
      ],
      "stateMutability": "view",
      "type": "function"
    },
    {
      "inputs": [],
      "name": "rarityPowerBooster",
      "outputs": [
        {
          "internalType": "uint256",
          "name": "",
          "type": "uint256"
        }
      ],
      "stateMutability": "view",
      "type": "function"
    },
    {
      "inputs": [],
      "name": "renounceOwnership",
      "outputs": [],
      "stateMutability": "nonpayable",
      "type": "function"
    },
    {
      "inputs": [],
      "name": "rewardsPayeer",
      "outputs": [
        {
          "internalType": "address",
          "name": "",
          "type": "address"
        }
      ],
      "stateMutability": "view",
      "type": "function"
    },
    {
      "inputs": [],
      "name": "secondaryMultiplier",
      "outputs": [
        {
          "internalType": "uint256",
          "name": "",
          "type": "uint256"
        }
      ],
      "stateMutability": "view",
      "type": "function"
    },
    {
      "inputs": [
        {
          "internalType": "uint256",
          "name": "value",
          "type": "uint256"
        }
      ],
      "name": "setBaseLevelUpFee",
      "outputs": [],
      "stateMutability": "nonpayable",
      "type": "function"
    },
    {
      "inputs": [
        {
          "internalType": "uint256",
          "name": "value",
          "type": "uint256"
        }
      ],
      "name": "setBonusExp",
      "outputs": [],
      "stateMutability": "nonpayable",
      "type": "function"
    },
    {
      "inputs": [
        {
          "internalType": "uint256",
          "name": "value",
          "type": "uint256"
        }
      ],
      "name": "setBonusLevelUpFee",
      "outputs": [],
      "stateMutability": "nonpayable",
      "type": "function"
    },
    {
      "inputs": [
        {
          "internalType": "uint256",
          "name": "value",
          "type": "uint256"
        }
      ],
      "name": "setEnergyRecoveryTime",
      "outputs": [],
      "stateMutability": "nonpayable",
      "type": "function"
    },
    {
      "inputs": [
        {
          "internalType": "uint256",
          "name": "value",
          "type": "uint256"
        }
      ],
      "name": "setExpDiff",
      "outputs": [],
      "stateMutability": "nonpayable",
      "type": "function"
    },
    {
      "inputs": [
        {
          "internalType": "address",
          "name": "lbAddr",
          "type": "address"
        }
      ],
      "name": "setLobbyManager",
      "outputs": [],
      "stateMutability": "nonpayable",
      "type": "function"
    },
    {
      "inputs": [
        {
          "internalType": "uint256",
          "name": "value",
          "type": "uint256"
        }
      ],
      "name": "setMaxHeroEnergy",
      "outputs": [],
      "stateMutability": "nonpayable",
      "type": "function"
    },
    {
      "inputs": [
        {
          "internalType": "uint256",
          "name": "value",
          "type": "uint256"
        }
      ],
      "name": "setPrimaryPowerMultiplier",
      "outputs": [],
      "stateMutability": "nonpayable",
      "type": "function"
    },
    {
      "inputs": [
        {
          "internalType": "uint256",
          "name": "value",
          "type": "uint256"
        }
      ],
      "name": "setRarityPowerBooster",
      "outputs": [],
      "stateMutability": "nonpayable",
      "type": "function"
    },
    {
      "inputs": [
        {
          "internalType": "address",
          "name": "payer",
          "type": "address"
        }
      ],
      "name": "setRewardsPayeer",
      "outputs": [],
      "stateMutability": "nonpayable",
      "type": "function"
    },
    {
      "inputs": [
        {
          "internalType": "uint256",
          "name": "value",
          "type": "uint256"
        }
      ],
      "name": "setSecondaryMultiplier",
      "outputs": [],
      "stateMutability": "nonpayable",
      "type": "function"
    },
    {
      "inputs": [
        {
          "internalType": "uint256",
          "name": "value",
          "type": "uint256"
        }
      ],
      "name": "setThirdMultiplier",
      "outputs": [],
      "stateMutability": "nonpayable",
      "type": "function"
    },
    {
      "inputs": [
        {
          "internalType": "uint256",
          "name": "heroId",
          "type": "uint256"
        }
      ],
      "name": "spendHeroEnergy",
      "outputs": [],
      "stateMutability": "nonpayable",
      "type": "function"
    },
    {
      "inputs": [],
      "name": "thirdMultiplier",
      "outputs": [
        {
          "internalType": "uint256",
          "name": "",
          "type": "uint256"
        }
      ],
      "stateMutability": "view",
      "type": "function"
    },
    {
      "inputs": [],
      "name": "token",
      "outputs": [
        {
          "internalType": "contract IERC20",
          "name": "",
          "type": "address"
        }
      ],
      "stateMutability": "view",
      "type": "function"
    },
    {
      "inputs": [
        {
          "internalType": "address",
          "name": "newOwner",
          "type": "address"
        }
      ],
      "name": "transferOwnership",
      "outputs": [],
      "stateMutability": "nonpayable",
      "type": "function"
    },
    {
      "inputs": [
        {
          "internalType": "uint256[]",
          "name": "heroIds",
          "type": "uint256[]"
        }
      ],
      "name": "validateHeroEnergies",
      "outputs": [
        {
          "internalType": "bool",
          "name": "",
          "type": "bool"
        }
      ],
      "stateMutability": "view",
      "type": "function"
    },
    {
      "inputs": [
        {
          "internalType": "uint256[]",
          "name": "heroIds",
          "type": "uint256[]"
        },
        {
          "internalType": "address",
          "name": "owner",
          "type": "address"
        }
      ],
      "name": "validateHeroIds",
      "outputs": [
        {
          "internalType": "bool",
          "name": "",
          "type": "bool"
        }
      ],
      "stateMutability": "view",
      "type": "function"
    }
  ],
  "bytecode": "0x6080604052600480546001600160a01b031916730cca7943409260455ceef6be46c69b3fc808e24f178155690a968163f0a57b400000600590815569021e19e0c9bab24000006006908155600a600781905560088055600991909155606e90556801a055690d9db80000600b55600c91909155600d55610e10600e553480156200008857600080fd5b5060405162001fa038038062001fa0833981016040819052620000ab9162000155565b620000b633620000e8565b600180546001600160a01b039384166001600160a01b031991821617909155600280549290931691161790556200018d565b600080546001600160a01b038381166001600160a01b0319831681178455604051919092169283917f8be0079c531659141344cd1fd0a4f28419497f9722a3daafe3b4186f6b6457e09190a35050565b80516001600160a01b03811681146200015057600080fd5b919050565b600080604083850312156200016957600080fd5b620001748362000138565b9150620001846020840162000138565b90509250929050565b611e03806200019d6000396000f3fe608060405234801561001057600080fd5b50600436106102a05760003560e01c80638af3164611610167578063b3803453116100ce578063d5c1ed8a11610087578063d5c1ed8a1461066c578063dda728cd1461067f578063e4118fca14610692578063f2fde38b146106a5578063f3d1b5ab146106b8578063fc0c546a146106db57600080fd5b8063b3803453146105f7578063b7601a1514610617578063b8830f9f1461062a578063c6afe9ae1461063d578063c97bdb5814610650578063cc0f6f781461065957600080fd5b8063a8d4a03b11610120578063a8d4a03b146104d8578063aaef01221461059f578063ab405145146105a8578063ac9650d8146105b1578063af264bd7146105d1578063b0a04efa146105e457600080fd5b80638af316461461047c5780638da5cb5b146104855780639b12bc88146104965780639bad62311461049f5780639cabd6db146104b2578063a4197f82146104c557600080fd5b806333ab05411161020b5780635226dc93116101c45780635226dc93146104155780636e7dff4d14610428578063715018a61461043b57806372450f99146104435780637ce9dd5414610456578063852eebff1461046957600080fd5b806333ab0541146103ba5780633c68e1ad146103cd5780634239ca30146103d657806347ccca02146103e95780634afca080146103fc5780634fbd1edc1461040c57600080fd5b80631636f10c1161025d5780631636f10c146103505780631ec462e01461036357806323cb1c3614610376578063294cdacd1461037f5780632a18bdfe1461039f57806331a03ca2146103b257600080fd5b80630152368f146102a557806301783dfa146102cd57806306975ac2146102e45780630a36d40b146102ed57806311ce406d1461031057806313b60c511461033b575b600080fd5b6102b86102b3366004611832565b6106ee565b60405190151581526020015b60405180910390f35b6102d660075481565b6040519081526020016102c4565b6102d660065481565b6102d66102fb366004611889565b6000908152600f602052604090206001015490565b600454610323906001600160a01b031681565b6040516001600160a01b0390911681526020016102c4565b61034e610349366004611889565b610806565b005b61034e61035e3660046118a2565b610835565b61034e6103713660046118bf565b610881565b6102d660095481565b6102d661038d366004611889565b60116020526000908152604090205481565b6102d66103ad366004611889565b61099f565b6102d6601e81565b61034e6103c8366004611889565b610a03565b6102d6600a5481565b61034e6103e4366004611889565b610a32565b600254610323906001600160a01b031681565b6102d668056bc75e2d6310000081565b6102d6600c5481565b61034e6104233660046118f9565b610b09565b61034e610436366004611889565b610e63565b61034e610e92565b61034e610451366004611889565b610ec8565b61034e610464366004611889565b610ef7565b61034e610477366004611929565b610f26565b6102d6600d5481565b6000546001600160a01b0316610323565b6102d660055481565b61034e6104ad366004611889565b610f85565b61034e6104c0366004611889565b610fb4565b6102d66104d3366004611889565b610fe3565b6105466104e6366004611889565b600f60205280600052604060002060009150905080600001549080600101549080600201549080600301549080600401549080600501549080600601549080600701549080600801549080600901549080600a01549080600b015490508c565b604080519c8d5260208d019b909b52998b019890985260608a0196909652608089019490945260a088019290925260c087015260e0860152610100850152610120840152610140830152610160820152610180016102c4565b6102d660085481565b6102d6600b5481565b6105c46105bf366004611975565b611004565b6040516102c49190611a0f565b6102d66105df3660046118f9565b6110f9565b61034e6105f2366004611a71565b611156565b6102d6610605366004611889565b60106020526000908152604090205481565b6102b8610625366004611975565b61122f565b61034e610638366004611889565b6112bd565b600354610323906001600160a01b031681565b6102d6600e5481565b61034e610667366004611889565b6112ec565b6102d661067a366004611889565b61131b565b61034e61068d366004611889565b61150b565b61034e6106a03660046118a2565b61153a565b61034e6106b33660046118a2565b611586565b6102d66106c6366004611889565b6000908152600f602052604090206003015490565b600154610323906001600160a01b031681565b6000805b838110156107f9576002546001600160a01b038085169116636352211e87878581811061072157610721611aa1565b905060200201356040518263ffffffff1660e01b815260040161074691815260200190565b60206040518083038186803b15801561075e57600080fd5b505afa158015610772573d6000803e3d6000fd5b505050506040513d601f19601f820116820180604052508101906107969190611ab7565b6001600160a01b0316146107f15760405162461bcd60e51b815260206004820152601b60248201527f4865726f4d616e616765723a206e6f74206865726f206f776e6572000000000060448201526064015b60405180910390fd5b6001016106f2565b50600190505b9392505050565b6000546001600160a01b031633146108305760405162461bcd60e51b81526004016107e890611ad4565b600755565b6000546001600160a01b0316331461085f5760405162461bcd60e51b81526004016107e890611ad4565b600380546001600160a01b0319166001600160a01b0392909216919091179055565b6000546001600160a01b031633146108ab5760405162461bcd60e51b81526004016107e890611ad4565b6000828152600f60205260409020600101541561090a5760405162461bcd60e51b815260206004820152601f60248201527f4865726f4d616e616765723a206865726f20616c72656164792061646465640060448201526064016107e8565b6000828152600f6020526040902081906109998282813581556020820135600182015560408201356002820155606082013560038201556080820135600482015560a0820135600582015560c0820135600682015560e0820135600782015561010082013560088201556101208201356009820155610140820135600a820155610160820135600b8201555050565b50505050565b600d54600082815260106020526040812054909190818110156109ce576109c68183611b1f565b949350505050565b60008481526011602052604090205462015180906109ec9042611b1f565b11156109f9575092915050565b5060009392505050565b6000546001600160a01b03163314610a2d5760405162461bcd60e51b81526004016107e890611ad4565b600555565b6003546001600160a01b03163314610a5c5760405162461bcd60e51b81526004016107e890611b36565b6000610a678261099f565b11610ab45760405162461bcd60e51b815260206004820152601d60248201527f4865726f4d616e616765723a206865726f207a65726f20656e6572677900000060448201526064016107e8565b600081815260106020526040902054600d54811415610ad557506001610af7565b600181019050600d54811415610af75760008281526011602052604090204290555b60009182526010602052604090912055565b6000828152600f6020526040908190206001015460025491516331a9108f60e11b815260048101859052909133916001600160a01b0390911690636352211e9060240160206040518083038186803b158015610b6457600080fd5b505afa158015610b78573d6000803e3d6000fd5b505050506040513d601f19601f82011682018060405250810190610b9c9190611ab7565b6001600160a01b031614610bf25760405162461bcd60e51b815260206004820152601c60248201527f4865726f4d616e616765723a206e6f742061204e4654206f776e65720000000060448201526064016107e8565b601e8110610c425760405162461bcd60e51b815260206004820152601b60248201527f4865726f4d616e616765723a206865726f206d6178206c6576656c000000000060448201526064016107e8565b601e610c4e8383611b80565b1115610c9c5760405162461bcd60e51b815260206004820152601f60248201527f4865726f4d616e616765723a20746f6f206d616e79206c6576656c732075700060448201526064016107e8565b6000610ca884846110f9565b600154600480546040516323b872dd60e01b815233928101929092526001600160a01b039081166024830152604482018490529293509116906323b872dd90606401602060405180830381600087803b158015610d0457600080fd5b505af1158015610d18573d6000803e3d6000fd5b505050506040513d601f19601f82011682018060405250810190610d3c9190611b98565b610d885760405162461bcd60e51b815260206004820152601b60248201527f4865726f4d616e616765723a206e6f7420656e6f75676820666565000000000060448201526064016107e8565b506000838152600f602081815260408084208151610180810183528154815260018201805482860152600283015493820193909352600382015460608201526004820154608082015260058201805460a08301908152600684015460c0840190815260078501805460e08601908152600887015461010087019081526009880180546101208901908152600a8a01546101408a01908152600b909a018054610160909a01999099529f8d529a9099529a8c01909655519051908a02019055925195519587029095019055925194519490930290930190915555565b6000546001600160a01b03163314610e8d5760405162461bcd60e51b81526004016107e890611ad4565b600655565b6000546001600160a01b03163314610ebc5760405162461bcd60e51b81526004016107e890611ad4565b610ec66000611621565b565b6000546001600160a01b03163314610ef25760405162461bcd60e51b81526004016107e890611ad4565b600e55565b6000546001600160a01b03163314610f215760405162461bcd60e51b81526004016107e890611ad4565b600955565b6003546001600160a01b03163314610f505760405162461bcd60e51b81526004016107e890611b36565b60005b8281101561099957610f7d848483818110610f7057610f70611aa1565b9050602002013583611156565b600101610f53565b6000546001600160a01b03163314610faf5760405162461bcd60e51b81526004016107e890611ad4565b600a55565b6000546001600160a01b03163314610fde5760405162461bcd60e51b81526004016107e890611ad4565b600d55565b6000610ffe6000198301670de0b6b3a764000002600b540390565b92915050565b60608167ffffffffffffffff81111561101f5761101f611bb5565b60405190808252806020026020018201604052801561105257816020015b606081526020019060019003908161103d5790505b50905060005b828110156110f2576110c23085858481811061107657611076611aa1565b90506020028101906110889190611bcb565b8080601f01602080910402602001604051908101604052809392919081815260200183838082843760009201919091525061167192505050565b8282815181106110d4576110d4611aa1565b602002602001018190525080806110ea90611c12565b915050611058565b5092915050565b6000828152600f602052604081206001015460065482611120600019840183026005540190565b9050848102600061114a61114561114060026000198b018b025b90611696565b860290565b830190565b98975050505050505050565b60035433906001600160a01b031681148061117957506001600160a01b03811630145b6111955760405162461bcd60e51b81526004016107e890611b36565b6000838152600f6020526040902060010154601e811015610999576000836111cb576111c6600c5461113a876116af565b6111d4565b6111d4856116af565b6000868152600f60205260409020600b0154909150810168056bc75e2d63100000811061120f576001929092019168056bc75e2d630fffff19015b6000868152600f6020526040902060018101849055600b01555050505050565b6000805b828110156112b357600061125e85858481811061125257611252611aa1565b9050602002013561099f565b116112ab5760405162461bcd60e51b815260206004820152601e60248201527f4865726f4d616e616765723a206e6f7420656e6f75676820656e65726779000060448201526064016107e8565b600101611233565b5060019392505050565b6000546001600160a01b031633146112e75760405162461bcd60e51b81526004016107e890611ad4565b600b55565b6000546001600160a01b031633146113165760405162461bcd60e51b81526004016107e890611ad4565b600c55565b6000818152600f602090815260408083208151610180810183528154815260018201549381019390935260028101549183019190915260038101546060830181905260048201546080840152600582015460a0840152600682015460c0840152600782015460e084015260088201546101008401526009820154610120840152600a820154610140840152600b909101546101608301528290819081906113d05750505060a081015161012082015160e08301515b8360600151600114156113f15750505060e081015160a08201516101208301515b8360600151600214156114125750505061012081015160e082015160a08301515b6000600954826114229190611c2d565b60085461142f9085611c2d565b60075461143c9087611c2d565b6114469190611b80565b6114509190611b80565b9050846040015160011415611480576064600a548261146f9190611c2d565b6114799190611c62565b9050611501565b8460400151600214156114a9576127106002600a5461149f9190611d68565b61146f9083611c2d565b8460400151600314156114c957620f42406003600a5461149f9190611d68565b846040015160041415611501576305f5e1006004600a546114ea9190611d68565b6114f49083611c2d565b6114fe9190611c62565b90505b9695505050505050565b6000546001600160a01b031633146115355760405162461bcd60e51b81526004016107e890611ad4565b600855565b6000546001600160a01b031633146115645760405162461bcd60e51b81526004016107e890611ad4565b600480546001600160a01b0319166001600160a01b0392909216919091179055565b6000546001600160a01b031633146115b05760405162461bcd60e51b81526004016107e890611ad4565b6001600160a01b0381166116155760405162461bcd60e51b815260206004820152602660248201527f4f776e61626c653a206e6577206f776e657220697320746865207a65726f206160448201526564647265737360d01b60648201526084016107e8565b61161e81611621565b50565b600080546001600160a01b038381166001600160a01b0319831681178455604051919092169283917f8be0079c531659141344cd1fd0a4f28419497f9722a3daafe3b4186f6b6457e09190a35050565b60606107ff8383604051806060016040528060278152602001611da7602791396116ca565b60008183816116a7576116a7611c4c565b049392505050565b6000818152600f60205260408120600101546107ff81610fe3565b60606001600160a01b0384163b6117325760405162461bcd60e51b815260206004820152602660248201527f416464726573733a2064656c65676174652063616c6c20746f206e6f6e2d636f6044820152651b9d1c9858dd60d21b60648201526084016107e8565b600080856001600160a01b03168560405161174d9190611d77565b600060405180830381855af49150503d8060008114611788576040519150601f19603f3d011682016040523d82523d6000602084013e61178d565b606091505b5091509150611501828286606083156117a75750816107ff565b8251156117b75782518084602001fd5b8160405162461bcd60e51b81526004016107e89190611d93565b60008083601f8401126117e357600080fd5b50813567ffffffffffffffff8111156117fb57600080fd5b6020830191508360208260051b850101111561181657600080fd5b9250929050565b6001600160a01b038116811461161e57600080fd5b60008060006040848603121561184757600080fd5b833567ffffffffffffffff81111561185e57600080fd5b61186a868287016117d1565b909450925050602084013561187e8161181d565b809150509250925092565b60006020828403121561189b57600080fd5b5035919050565b6000602082840312156118b457600080fd5b81356107ff8161181d565b6000808284036101a08112156118d457600080fd5b83359250610180601f19820112156118eb57600080fd5b506020830190509250929050565b6000806040838503121561190c57600080fd5b50508035926020909101359150565b801515811461161e57600080fd5b60008060006040848603121561193e57600080fd5b833567ffffffffffffffff81111561195557600080fd5b611961868287016117d1565b909450925050602084013561187e8161191b565b6000806020838503121561198857600080fd5b823567ffffffffffffffff81111561199f57600080fd5b6119ab858286016117d1565b90969095509350505050565b60005b838110156119d25781810151838201526020016119ba565b838111156109995750506000910152565b600081518084526119fb8160208601602086016119b7565b601f01601f19169290920160200192915050565b6000602080830181845280855180835260408601915060408160051b870101925083870160005b82811015611a6457603f19888603018452611a528583516119e3565b94509285019290850190600101611a36565b5092979650505050505050565b60008060408385031215611a8457600080fd5b823591506020830135611a968161191b565b809150509250929050565b634e487b7160e01b600052603260045260246000fd5b600060208284031215611ac957600080fd5b81516107ff8161181d565b6020808252818101527f4f776e61626c653a2063616c6c6572206973206e6f7420746865206f776e6572604082015260600190565b634e487b7160e01b600052601160045260246000fd5b600082821015611b3157611b31611b09565b500390565b6020808252602a908201527f4865726f4d616e616765723a2063616c6c61626c65206279206c6f62627920626040820152696174746c65206f6e6c7960b01b606082015260800190565b60008219821115611b9357611b93611b09565b500190565b600060208284031215611baa57600080fd5b81516107ff8161191b565b634e487b7160e01b600052604160045260246000fd5b6000808335601e19843603018112611be257600080fd5b83018035915067ffffffffffffffff821115611bfd57600080fd5b60200191503681900382131561181657600080fd5b6000600019821415611c2657611c26611b09565b5060010190565b6000816000190483118215151615611c4757611c47611b09565b500290565b634e487b7160e01b600052601260045260246000fd5b600082611c7f57634e487b7160e01b600052601260045260246000fd5b500490565b600181815b80851115611cbf578160001904821115611ca557611ca5611b09565b80851615611cb257918102915b93841c9390800290611c89565b509250929050565b600082611cd657506001610ffe565b81611ce357506000610ffe565b8160018114611cf95760028114611d0357611d1f565b6001915050610ffe565b60ff841115611d1457611d14611b09565b50506001821b610ffe565b5060208310610133831016604e8410600b8410161715611d42575081810a610ffe565b611d4c8383611c84565b8060001904821115611d6057611d60611b09565b029392505050565b60006107ff60ff841683611cc7565b60008251611d898184602087016119b7565b9190910192915050565b6020815260006107ff60208301846119e356fe416464726573733a206c6f772d6c6576656c2064656c65676174652063616c6c206661696c6564a26469706673582212204e38ccb14cf2a9518963fe9110f4c3f06242af21ed8f98fda80a2359b6ff664f64736f6c63430008090033",
  "linkReferences": {},
  "deployedLinkReferences": {}
}