{
  "_format": "hh-sol-artifact-1",
  "contractName": "HeroManager",
  "sourceName": "contracts/game/HeroManager.sol",
  "abi": [
    {
      "inputs": [],
      "stateMutability": "nonpayable",
      "type": "constructor"
    },
    {
      "anonymous": false,
      "inputs": [
        {
          "indexed": true,
          "internalType": "address",
          "name": "previousOwner",
          "type": "address"
        },
        {
          "indexed": true,
          "internalType": "address",
          "name": "newOwner",
          "type": "address"
        }
      ],
      "name": "OwnershipTransferred",
      "type": "event"
    },
    {
      "inputs": [],
      "name": "HERO_MAX_EXP",
      "outputs": [
        {
          "internalType": "uint256",
          "name": "",
          "type": "uint256"
        }
      ],
      "stateMutability": "view",
      "type": "function"
    },
    {
      "inputs": [],
      "name": "HERO_MAX_LEVEL",
      "outputs": [
        {
          "internalType": "uint256",
          "name": "",
          "type": "uint256"
        }
      ],
      "stateMutability": "view",
      "type": "function"
    },
    {
      "inputs": [],
      "name": "NFT",
      "outputs": [
        {
          "internalType": "contract IERC721",
          "name": "",
          "type": "address"
        }
      ],
      "stateMutability": "view",
      "type": "function"
    },
    {
      "inputs": [],
      "name": "TOKEN",
      "outputs": [
        {
          "internalType": "contract IERC20",
          "name": "",
          "type": "address"
        }
      ],
      "stateMutability": "view",
      "type": "function"
    },
    {
      "inputs": [
        {
          "internalType": "uint256",
          "name": "heroId",
          "type": "uint256"
        },
        {
          "components": [
            {
              "internalType": "bytes32",
              "name": "name",
              "type": "bytes32"
            },
            {
              "internalType": "uint256",
              "name": "level",
              "type": "uint256"
            },
            {
              "internalType": "uint256",
              "name": "rarity",
              "type": "uint256"
            },
            {
              "internalType": "uint256",
              "name": "primaryAttribute",
              "type": "uint256"
            },
            {
              "internalType": "uint256",
              "name": "attackCapability",
              "type": "uint256"
            },
            {
              "internalType": "uint256",
              "name": "strength",
              "type": "uint256"
            },
            {
              "internalType": "uint256",
              "name": "strengthGain",
              "type": "uint256"
            },
            {
              "internalType": "uint256",
              "name": "agility",
              "type": "uint256"
            },
            {
              "internalType": "uint256",
              "name": "agilityGain",
              "type": "uint256"
            },
            {
              "internalType": "uint256",
              "name": "intelligence",
              "type": "uint256"
            },
            {
              "internalType": "uint256",
              "name": "intelligenceGain",
              "type": "uint256"
            },
            {
              "internalType": "uint256",
              "name": "experience",
              "type": "uint256"
            }
          ],
          "internalType": "struct GameFi.Hero",
          "name": "hero",
          "type": "tuple"
        }
      ],
      "name": "addHero",
      "outputs": [],
      "stateMutability": "nonpayable",
      "type": "function"
    },
    {
      "inputs": [],
      "name": "baseLevelUpFee",
      "outputs": [
        {
          "internalType": "uint256",
          "name": "",
          "type": "uint256"
        }
      ],
      "stateMutability": "view",
      "type": "function"
    },
    {
      "inputs": [],
      "name": "bonusExp",
      "outputs": [
        {
          "internalType": "uint256",
          "name": "",
          "type": "uint256"
        }
      ],
      "stateMutability": "view",
      "type": "function"
    },
    {
      "inputs": [],
      "name": "bonusLevelUpFee",
      "outputs": [
        {
          "internalType": "uint256",
          "name": "",
          "type": "uint256"
        }
      ],
      "stateMutability": "view",
      "type": "function"
    },
    {
      "inputs": [
        {
          "internalType": "uint256[]",
          "name": "heroIds",
          "type": "uint256[]"
        },
        {
          "internalType": "bool",
          "name": "won",
          "type": "bool"
        }
      ],
      "name": "bulkExpUp",
      "outputs": [],
      "stateMutability": "nonpayable",
      "type": "function"
    },
    {
      "inputs": [],
      "name": "energyRecoveryTime",
      "outputs": [
        {
          "internalType": "uint256",
          "name": "",
          "type": "uint256"
        }
      ],
      "stateMutability": "view",
      "type": "function"
    },
    {
      "inputs": [],
      "name": "expDiff",
      "outputs": [
        {
          "internalType": "uint256",
          "name": "",
          "type": "uint256"
        }
      ],
      "stateMutability": "view",
      "type": "function"
    },
    {
      "inputs": [
        {
          "internalType": "uint256",
          "name": "heroId",
          "type": "uint256"
        },
        {
          "internalType": "bool",
          "name": "won",
          "type": "bool"
        }
      ],
      "name": "expUp",
      "outputs": [],
      "stateMutability": "nonpayable",
      "type": "function"
    },
    {
      "inputs": [
        {
          "internalType": "uint256",
          "name": "heroId",
          "type": "uint256"
        }
      ],
      "name": "heroBonusExp",
      "outputs": [
        {
          "internalType": "uint256",
          "name": "",
          "type": "uint256"
        }
      ],
      "stateMutability": "view",
      "type": "function"
    },
    {
      "inputs": [
        {
          "internalType": "uint256",
          "name": "heroId",
          "type": "uint256"
        }
      ],
      "name": "heroEnergy",
      "outputs": [
        {
          "internalType": "uint256",
          "name": "",
          "type": "uint256"
        }
      ],
      "stateMutability": "view",
      "type": "function"
    },
    {
      "inputs": [
        {
          "internalType": "uint256",
          "name": "heroId",
          "type": "uint256"
        }
      ],
      "name": "heroLevel",
      "outputs": [
        {
          "internalType": "uint256",
          "name": "",
          "type": "uint256"
        }
      ],
      "stateMutability": "view",
      "type": "function"
    },
    {
      "inputs": [
        {
          "internalType": "uint256",
          "name": "heroId",
          "type": "uint256"
        }
      ],
      "name": "heroPower",
      "outputs": [
        {
          "internalType": "uint256",
          "name": "",
          "type": "uint256"
        }
      ],
      "stateMutability": "view",
      "type": "function"
    },
    {
      "inputs": [
        {
          "internalType": "uint256",
          "name": "heroId",
          "type": "uint256"
        }
      ],
      "name": "heroPrimaryAttribute",
      "outputs": [
        {
          "internalType": "uint256",
          "name": "",
          "type": "uint256"
        }
      ],
      "stateMutability": "view",
      "type": "function"
    },
    {
      "inputs": [
        {
          "internalType": "uint256",
          "name": "",
          "type": "uint256"
        }
      ],
      "name": "heroes",
      "outputs": [
        {
          "internalType": "bytes32",
          "name": "name",
          "type": "bytes32"
        },
        {
          "internalType": "uint256",
          "name": "level",
          "type": "uint256"
        },
        {
          "internalType": "uint256",
          "name": "rarity",
          "type": "uint256"
        },
        {
          "internalType": "uint256",
          "name": "primaryAttribute",
          "type": "uint256"
        },
        {
          "internalType": "uint256",
          "name": "attackCapability",
          "type": "uint256"
        },
        {
          "internalType": "uint256",
          "name": "strength",
          "type": "uint256"
        },
        {
          "internalType": "uint256",
          "name": "strengthGain",
          "type": "uint256"
        },
        {
          "internalType": "uint256",
          "name": "agility",
          "type": "uint256"
        },
        {
          "internalType": "uint256",
          "name": "agilityGain",
          "type": "uint256"
        },
        {
          "internalType": "uint256",
          "name": "intelligence",
          "type": "uint256"
        },
        {
          "internalType": "uint256",
          "name": "intelligenceGain",
          "type": "uint256"
        },
        {
          "internalType": "uint256",
          "name": "experience",
          "type": "uint256"
        }
      ],
      "stateMutability": "view",
      "type": "function"
    },
    {
      "inputs": [
        {
          "internalType": "uint256",
          "name": "",
          "type": "uint256"
        }
      ],
      "name": "heroesEnergy",
      "outputs": [
        {
          "internalType": "uint256",
          "name": "",
          "type": "uint256"
        }
      ],
      "stateMutability": "view",
      "type": "function"
    },
    {
      "inputs": [
        {
          "internalType": "uint256",
          "name": "",
          "type": "uint256"
        }
      ],
      "name": "heroesEnergyUsedAt",
      "outputs": [
        {
          "internalType": "uint256",
          "name": "",
          "type": "uint256"
        }
      ],
      "stateMutability": "view",
      "type": "function"
    },
    {
      "inputs": [
        {
          "internalType": "uint256",
          "name": "heroId",
          "type": "uint256"
        },
        {
          "internalType": "uint256",
          "name": "levels",
          "type": "uint256"
        }
      ],
      "name": "levelUp",
      "outputs": [],
      "stateMutability": "nonpayable",
      "type": "function"
    },
    {
      "inputs": [],
      "name": "lobbyBattleAddress",
      "outputs": [
        {
          "internalType": "address",
          "name": "",
          "type": "address"
        }
      ],
      "stateMutability": "view",
      "type": "function"
    },
    {
      "inputs": [],
      "name": "maxHeroEnergy",
      "outputs": [
        {
          "internalType": "uint256",
          "name": "",
          "type": "uint256"
        }
      ],
      "stateMutability": "view",
      "type": "function"
    },
    {
      "inputs": [
        {
          "internalType": "bytes[]",
          "name": "data",
          "type": "bytes[]"
        }
      ],
      "name": "multicall",
      "outputs": [
        {
          "internalType": "bytes[]",
          "name": "results",
          "type": "bytes[]"
        }
      ],
      "stateMutability": "nonpayable",
      "type": "function"
    },
    {
      "inputs": [],
      "name": "owner",
      "outputs": [
        {
          "internalType": "address",
          "name": "",
          "type": "address"
        }
      ],
      "stateMutability": "view",
      "type": "function"
    },
    {
      "inputs": [],
      "name": "primaryPowerMultiplier",
      "outputs": [
        {
          "internalType": "uint256",
          "name": "",
          "type": "uint256"
        }
      ],
      "stateMutability": "view",
      "type": "function"
    },
    {
      "inputs": [
        {
          "internalType": "uint256",
          "name": "min",
          "type": "uint256"
        },
        {
          "internalType": "uint256",
          "name": "max",
          "type": "uint256"
        }
      ],
      "name": "random",
      "outputs": [
        {
          "internalType": "uint256",
          "name": "",
          "type": "uint256"
        }
      ],
      "stateMutability": "view",
      "type": "function"
    },
    {
      "inputs": [],
      "name": "rarityPowerBooster",
      "outputs": [
        {
          "internalType": "uint256",
          "name": "",
          "type": "uint256"
        }
      ],
      "stateMutability": "view",
      "type": "function"
    },
    {
      "inputs": [],
      "name": "renounceOwnership",
      "outputs": [],
      "stateMutability": "nonpayable",
      "type": "function"
    },
    {
      "inputs": [],
      "name": "secondaryMultiplier",
      "outputs": [
        {
          "internalType": "uint256",
          "name": "",
          "type": "uint256"
        }
      ],
      "stateMutability": "view",
      "type": "function"
    },
    {
      "inputs": [
        {
          "internalType": "uint256",
          "name": "value",
          "type": "uint256"
        }
      ],
      "name": "setBaseLevelUpFee",
      "outputs": [],
      "stateMutability": "nonpayable",
      "type": "function"
    },
    {
      "inputs": [
        {
          "internalType": "uint256",
          "name": "value",
          "type": "uint256"
        }
      ],
      "name": "setBonusExp",
      "outputs": [],
      "stateMutability": "nonpayable",
      "type": "function"
    },
    {
      "inputs": [
        {
          "internalType": "uint256",
          "name": "value",
          "type": "uint256"
        }
      ],
      "name": "setBonusLevelUpFee",
      "outputs": [],
      "stateMutability": "nonpayable",
      "type": "function"
    },
    {
      "inputs": [
        {
          "internalType": "uint256",
          "name": "value",
          "type": "uint256"
        }
      ],
      "name": "setEnergyRecoveryTime",
      "outputs": [],
      "stateMutability": "nonpayable",
      "type": "function"
    },
    {
      "inputs": [
        {
          "internalType": "uint256",
          "name": "value",
          "type": "uint256"
        }
      ],
      "name": "setExpDiff",
      "outputs": [],
      "stateMutability": "nonpayable",
      "type": "function"
    },
    {
      "inputs": [
        {
          "internalType": "address",
          "name": "lbAddr",
          "type": "address"
        }
      ],
      "name": "setLobbyBattle",
      "outputs": [],
      "stateMutability": "nonpayable",
      "type": "function"
    },
    {
      "inputs": [
        {
          "internalType": "uint256",
          "name": "value",
          "type": "uint256"
        }
      ],
      "name": "setMaxHeroEnergy",
      "outputs": [],
      "stateMutability": "nonpayable",
      "type": "function"
    },
    {
      "inputs": [
        {
          "internalType": "uint256",
          "name": "value",
          "type": "uint256"
        }
      ],
      "name": "setPrimaryPowerMultiplier",
      "outputs": [],
      "stateMutability": "nonpayable",
      "type": "function"
    },
    {
      "inputs": [
        {
          "internalType": "uint256",
          "name": "value",
          "type": "uint256"
        }
      ],
      "name": "setRarityPowerBooster",
      "outputs": [],
      "stateMutability": "nonpayable",
      "type": "function"
    },
    {
      "inputs": [
        {
          "internalType": "uint256",
          "name": "value",
          "type": "uint256"
        }
      ],
      "name": "setSecondaryMultiplier",
      "outputs": [],
      "stateMutability": "nonpayable",
      "type": "function"
    },
    {
      "inputs": [
        {
          "internalType": "uint256",
          "name": "value",
          "type": "uint256"
        }
      ],
      "name": "setThirdMultiplier",
      "outputs": [],
      "stateMutability": "nonpayable",
      "type": "function"
    },
    {
      "inputs": [
        {
          "internalType": "uint256",
          "name": "heroId",
          "type": "uint256"
        }
      ],
      "name": "spendHeroEnergy",
      "outputs": [],
      "stateMutability": "nonpayable",
      "type": "function"
    },
    {
      "inputs": [],
      "name": "thirdMultiplier",
      "outputs": [
        {
          "internalType": "uint256",
          "name": "",
          "type": "uint256"
        }
      ],
      "stateMutability": "view",
      "type": "function"
    },
    {
      "inputs": [
        {
          "internalType": "address",
          "name": "newOwner",
          "type": "address"
        }
      ],
      "name": "transferOwnership",
      "outputs": [],
      "stateMutability": "nonpayable",
      "type": "function"
    },
    {
      "inputs": [
        {
          "internalType": "address payable",
          "name": "recipient",
          "type": "address"
        }
      ],
      "name": "withdrawDustETH",
      "outputs": [],
      "stateMutability": "nonpayable",
      "type": "function"
    },
    {
      "stateMutability": "payable",
      "type": "receive"
    }
  ],
  "bytecode": "0x6080604052690a968163f0a57b40000060025569021e19e0c9bab2400000600355600a600455600860055560068055606e6007556801a055690d9db8000060085560046009556005600a55610e10600b5534801561005c57600080fd5b506100663361006b565b6100bb565b600080546001600160a01b038381166001600160a01b0319831681178455604051919092169283917f8be0079c531659141344cd1fd0a4f28419497f9722a3daafe3b4186f6b6457e09190a35050565b611f91806100ca6000396000f3fe6080604052600436106102765760003560e01c8063852eebff1161014f578063b0a04efa116100c1578063dda728cd1161007a578063dda728cd1461080b578063e393c2941461082b578063e3a015ce1461084b578063f2fde38b1461086b578063f3d1b5ab1461088b578063fc585034146108bb57600080fd5b8063b0a04efa14610748578063b380345314610768578063b8830f9f14610795578063c97bdb58146107b5578063cc0f6f78146107cb578063d5c1ed8a146107eb57600080fd5b80639cabd6db116101135780639cabd6db146105db578063a8d4a03b146105fb578063a9dd1225146106cf578063aaef0122146106ef578063ab40514514610705578063ac9650d81461071b57600080fd5b8063852eebff146105515780638af31646146105715780638da5cb5b146105875780639b12bc88146105a55780639bad6231146105bb57600080fd5b80634018b1ce116101e85780636e7dff4d116101ac5780636e7dff4d14610474578063715018a61461049457806372450f99146104a95780637c0b8de2146104c95780637ce9dd541461050957806382bfefc81461052957600080fd5b80634018b1ce146103e15780634239ca30146104015780634afca080146104215780634fbd1edc1461043e5780635226dc931461045457600080fd5b806323cb1c361161023a57806323cb1c3614610333578063294cdacd146103495780632a18bdfe1461037657806331a03ca21461039657806333ab0541146103ab5780633c68e1ad146103cb57600080fd5b806301783dfa1461028257806306975ac2146102ab5780630a36d40b146102c157806313b60c51146102f15780631ec462e01461031357600080fd5b3661027d57005b600080fd5b34801561028e57600080fd5b5061029860045481565b6040519081526020015b60405180910390f35b3480156102b757600080fd5b5061029860035481565b3480156102cd57600080fd5b506102986102dc3660046119a5565b6000908152600c602052604090206001015490565b3480156102fd57600080fd5b5061031161030c3660046119a5565b6108db565b005b34801561031f57600080fd5b5061031161032e3660046119be565b610913565b34801561033f57600080fd5b5061029860065481565b34801561035557600080fd5b506102986103643660046119a5565b600e6020526000908152604090205481565b34801561038257600080fd5b506102986103913660046119a5565b610a31565b3480156103a257600080fd5b50610298601e81565b3480156103b757600080fd5b506103116103c63660046119a5565b610aa1565b3480156103d757600080fd5b5061029860075481565b3480156103ed57600080fd5b506103116103fc366004611a0d565b610ad0565b34801561040d57600080fd5b5061031161041c3660046119a5565b610b1c565b34801561042d57600080fd5b5061029868056bc75e2d6310000081565b34801561044a57600080fd5b5061029860095481565b34801561046057600080fd5b5061031161046f366004611a2a565b610c1b565b34801561048057600080fd5b5061031161048f3660046119a5565b61101b565b3480156104a057600080fd5b5061031161104a565b3480156104b557600080fd5b506103116104c43660046119a5565b611080565b3480156104d557600080fd5b506104f17376b713ff56b9cad82b2820202537a98182b5a0ec81565b6040516001600160a01b0390911681526020016102a2565b34801561051557600080fd5b506103116105243660046119a5565b6110af565b34801561053557600080fd5b506104f17328ee3e2826264b9c55fcdd122dfa93680916c9b881565b34801561055d57600080fd5b5061031161056c366004611aa6565b6110de565b34801561057d57600080fd5b50610298600a5481565b34801561059357600080fd5b506000546001600160a01b03166104f1565b3480156105b157600080fd5b5061029860025481565b3480156105c757600080fd5b506103116105d63660046119a5565b611147565b3480156105e757600080fd5b506103116105f63660046119a5565b611176565b34801561060757600080fd5b506106766106163660046119a5565b600c60205280600052604060002060009150905080600001549080600101549080600201549080600301549080600401549080600501549080600601549080600701549080600801549080600901549080600a01549080600b015490508c565b604080519c8d5260208d019b909b52998b019890985260608a0196909652608089019490945260a088019290925260c087015260e0860152610100850152610120840152610140830152610160820152610180016102a2565b3480156106db57600080fd5b506102986106ea366004611a2a565b6111a5565b3480156106fb57600080fd5b5061029860055481565b34801561071157600080fd5b5061029860085481565b34801561072757600080fd5b5061073b610736366004611afd565b611257565b6040516102a29190611b97565b34801561075457600080fd5b50610311610763366004611bf9565b61134c565b34801561077457600080fd5b506102986107833660046119a5565b600d6020526000908152604090205481565b3480156107a157600080fd5b506103116107b03660046119a5565b61146d565b3480156107c157600080fd5b50610298600b5481565b3480156107d757600080fd5b506103116107e63660046119a5565b61149c565b3480156107f757600080fd5b506102986108063660046119a5565b6114cb565b34801561081757600080fd5b506103116108263660046119a5565b6116bb565b34801561083757600080fd5b50610311610846366004611a0d565b6116ea565b34801561085757600080fd5b506001546104f1906001600160a01b031681565b34801561087757600080fd5b50610311610886366004611a0d565b61174d565b34801561089757600080fd5b506102986108a63660046119a5565b6000908152600c602052604090206003015490565b3480156108c757600080fd5b506102986108d63660046119a5565b6117e5565b6000546001600160a01b0316331461090e5760405162461bcd60e51b815260040161090590611c29565b60405180910390fd5b600455565b6000546001600160a01b0316331461093d5760405162461bcd60e51b815260040161090590611c29565b6000828152600c60205260409020600101541561099c5760405162461bcd60e51b815260206004820152601f60248201527f4865726f4d616e616765723a206865726f20616c7265616479206164646564006044820152606401610905565b6000828152600c602052604090208190610a2b8282813581556020820135600182015560408201356002820155606082013560038201556080820135600482015560a0820135600582015560c0820135600682015560e0820135600782015561010082013560088201556101208201356009820155610140820135600a820155610160820135600b8201555050565b50505050565b600a546000828152600d602052604081205490911115610a6d576000828152600d6020526040902054600a54610a679190611c74565b92915050565b6000828152600e60205260409020546201518090610a8b9042611c74565b1115610a99575050600a5490565b506000919050565b6000546001600160a01b03163314610acb5760405162461bcd60e51b815260040161090590611c29565b600255565b6000546001600160a01b03163314610afa5760405162461bcd60e51b815260040161090590611c29565b600180546001600160a01b0319166001600160a01b0392909216919091179055565b6001546001600160a01b03163314610b465760405162461bcd60e51b815260040161090590611c8b565b6000610b5182610a31565b11610b9e5760405162461bcd60e51b815260206004820152601d60248201527f4865726f4d616e616765723a206865726f207a65726f20656e657267790000006044820152606401610905565b600a546000828152600d60205260409020541415610bca576000908152600d6020526040902060019055565b6000818152600d60205260408120805460019290610be9908490611cd5565b9091555050600a546000828152600d60205260409020541415610c18576000818152600e602052604090204290555b50565b6040516331a9108f60e11b81526004810183905233907376b713ff56b9cad82b2820202537a98182b5a0ec90636352211e9060240160206040518083038186803b158015610c6857600080fd5b505afa158015610c7c573d6000803e3d6000fd5b505050506040513d601f19601f82011682018060405250810190610ca09190611ced565b6001600160a01b031614610cf65760405162461bcd60e51b815260206004820152601c60248201527f4865726f4d616e616765723a206e6f742061204e4654206f776e6572000000006044820152606401610905565b6000828152600c6020526040902060010154601e11610d575760405162461bcd60e51b815260206004820152601b60248201527f4865726f4d616e616765723a206865726f206d6178206c6576656c00000000006044820152606401610905565b6000828152600c6020526040902060010154601e90610d77908390611cd5565b1115610dc55760405162461bcd60e51b815260206004820152601f60248201527f4865726f4d616e616765723a20746f6f206d616e79206c6576656c73207570006044820152606401610905565b6000828152600c60205260408120600190810154610de39190611c74565b600354610df09190611d0a565b600254610dfd9190611cd5565b90506000600354600284600186610e149190611c74565b610e1e9190611d0a565b610e289190611d3f565b610e329190611d0a565b610e3c8484611d0a565b610e469190611cd5565b6040516323b872dd60e01b8152336004820152306024820152604481018290529091507328ee3e2826264b9c55fcdd122dfa93680916c9b8906323b872dd90606401602060405180830381600087803b158015610ea257600080fd5b505af1158015610eb6573d6000803e3d6000fd5b505050506040513d601f19601f82011682018060405250810190610eda9190611d53565b610f265760405162461bcd60e51b815260206004820152601b60248201527f4865726f4d616e616765723a206e6f7420656e6f7567682066656500000000006044820152606401610905565b6000848152600c602052604081206001018054859290610f47908490611cd5565b90915550506000848152600c6020526040902060060154610f69908490611d0a565b6000858152600c602052604081206005018054909190610f8a908490611cd5565b90915550506000848152600c6020526040902060080154610fac908490611d0a565b6000858152600c602052604081206007018054909190610fcd908490611cd5565b90915550506000848152600c60205260409020600a0154610fef908490611d0a565b6000858152600c602052604081206009018054909190611010908490611cd5565b909155505050505050565b6000546001600160a01b031633146110455760405162461bcd60e51b815260040161090590611c29565b600355565b6000546001600160a01b031633146110745760405162461bcd60e51b815260040161090590611c29565b61107e6000611822565b565b6000546001600160a01b031633146110aa5760405162461bcd60e51b815260040161090590611c29565b600b55565b6000546001600160a01b031633146110d95760405162461bcd60e51b815260040161090590611c29565b600655565b6001546001600160a01b031633146111085760405162461bcd60e51b815260040161090590611c8b565b60005b82811015610a2b5761113584848381811061112857611128611d70565b905060200201358361134c565b8061113f81611d86565b91505061110b565b6000546001600160a01b031633146111715760405162461bcd60e51b815260040161090590611c29565b600755565b6000546001600160a01b031633146111a05760405162461bcd60e51b815260040161090590611c29565b600a55565b6000804442336000356001600160e01b0319165a6040805160208101969096528501939093526bffffffffffffffffffffffff19606092831b16918401919091526001600160e01b031916607483015260788201526098810185905260b8810184905260d80160408051601f1981840301815291905280516020909101209050836112308185611c74565b61123b906001611cd5565b6112459083611da1565b61124f9190611cd5565b949350505050565b60608167ffffffffffffffff81111561127257611272611db5565b6040519080825280602002602001820160405280156112a557816020015b60608152602001906001900390816112905790505b50905060005b8281101561134557611315308585848181106112c9576112c9611d70565b90506020028101906112db9190611dcb565b8080601f01602080910402602001604051908101604052809392919081815260200183838082843760009201919091525061187292505050565b82828151811061132757611327611d70565b6020026020010181905250808061133d90611d86565b9150506112ab565b5092915050565b6001546001600160a01b031633148061136457503330145b6113805760405162461bcd60e51b815260040161090590611c8b565b6000816113a257600954611393846117e5565b61139d9190611d3f565b6113ab565b6113ab836117e5565b6000848152600c6020526040902060010154909150601e1115611468576000838152600c60205260408120600b0180548392906113e9908490611cd5565b90915550506000838152600c60205260409020600b015468056bc75e2d6310000011611468576000838152600c60205260408120600b01805468056bc75e2d631000009290611439908490611c74565b90915550506000838152600c602052604081206001908101805491929091611462908490611cd5565b90915550505b505050565b6000546001600160a01b031633146114975760405162461bcd60e51b815260040161090590611c29565b600855565b6000546001600160a01b031633146114c65760405162461bcd60e51b815260040161090590611c29565b600955565b6000818152600c602090815260408083208151610180810183528154815260018201549381019390935260028101549183019190915260038101546060830181905260048201546080840152600582015460a0840152600682015460c0840152600782015460e084015260088201546101008401526009820154610120840152600a820154610140840152600b909101546101608301528290819081906115805750505060a081015161012082015160e08301515b8360600151600114156115a15750505060e081015160a08201516101208301515b8360600151600214156115c25750505061012081015160e082015160a08301515b6000600654826115d29190611d0a565b6005546115df9085611d0a565b6004546115ec9087611d0a565b6115f69190611cd5565b6116009190611cd5565b90508460400151600114156116305760646007548261161f9190611d0a565b6116299190611d3f565b90506116b1565b84604001516002141561165957612710600260075461164f9190611ef6565b61161f9083611d0a565b84604001516003141561167957620f4240600360075461164f9190611ef6565b8460400151600414156116b1576305f5e100600460075461169a9190611ef6565b6116a49083611d0a565b6116ae9190611d3f565b90505b9695505050505050565b6000546001600160a01b031633146116e55760405162461bcd60e51b815260040161090590611c29565b600555565b6000546001600160a01b031633146117145760405162461bcd60e51b815260040161090590611c29565b6040516001600160a01b038216904780156108fc02916000818181858888f19350505050158015611749573d6000803e3d6000fd5b5050565b6000546001600160a01b031633146117775760405162461bcd60e51b815260040161090590611c29565b6001600160a01b0381166117dc5760405162461bcd60e51b815260206004820152602660248201527f4f776e61626c653a206e6577206f776e657220697320746865207a65726f206160448201526564647265737360d01b6064820152608401610905565b610c1881611822565b6000818152600c602052604081206001908101546118039190611c74565b61181590670de0b6b3a7640000611d0a565b600854610a679190611c74565b600080546001600160a01b038381166001600160a01b0319831681178455604051919092169283917f8be0079c531659141344cd1fd0a4f28419497f9722a3daafe3b4186f6b6457e09190a35050565b60606118978383604051806060016040528060278152602001611f356027913961189e565b9392505050565b60606001600160a01b0384163b6119065760405162461bcd60e51b815260206004820152602660248201527f416464726573733a2064656c65676174652063616c6c20746f206e6f6e2d636f6044820152651b9d1c9858dd60d21b6064820152608401610905565b600080856001600160a01b0316856040516119219190611f05565b600060405180830381855af49150503d806000811461195c576040519150601f19603f3d011682016040523d82523d6000602084013e611961565b606091505b50915091506116b18282866060831561197b575081611897565b82511561198b5782518084602001fd5b8160405162461bcd60e51b81526004016109059190611f21565b6000602082840312156119b757600080fd5b5035919050565b6000808284036101a08112156119d357600080fd5b83359250610180601f19820112156119ea57600080fd5b506020830190509250929050565b6001600160a01b0381168114610c1857600080fd5b600060208284031215611a1f57600080fd5b8135611897816119f8565b60008060408385031215611a3d57600080fd5b50508035926020909101359150565b60008083601f840112611a5e57600080fd5b50813567ffffffffffffffff811115611a7657600080fd5b6020830191508360208260051b8501011115611a9157600080fd5b9250929050565b8015158114610c1857600080fd5b600080600060408486031215611abb57600080fd5b833567ffffffffffffffff811115611ad257600080fd5b611ade86828701611a4c565b9094509250506020840135611af281611a98565b809150509250925092565b60008060208385031215611b1057600080fd5b823567ffffffffffffffff811115611b2757600080fd5b611b3385828601611a4c565b90969095509350505050565b60005b83811015611b5a578181015183820152602001611b42565b83811115610a2b5750506000910152565b60008151808452611b83816020860160208601611b3f565b601f01601f19169290920160200192915050565b6000602080830181845280855180835260408601915060408160051b870101925083870160005b82811015611bec57603f19888603018452611bda858351611b6b565b94509285019290850190600101611bbe565b5092979650505050505050565b60008060408385031215611c0c57600080fd5b823591506020830135611c1e81611a98565b809150509250929050565b6020808252818101527f4f776e61626c653a2063616c6c6572206973206e6f7420746865206f776e6572604082015260600190565b634e487b7160e01b600052601160045260246000fd5b600082821015611c8657611c86611c5e565b500390565b6020808252602a908201527f4865726f4d616e616765723a2063616c6c61626c65206279206c6f62627920626040820152696174746c65206f6e6c7960b01b606082015260800190565b60008219821115611ce857611ce8611c5e565b500190565b600060208284031215611cff57600080fd5b8151611897816119f8565b6000816000190483118215151615611d2457611d24611c5e565b500290565b634e487b7160e01b600052601260045260246000fd5b600082611d4e57611d4e611d29565b500490565b600060208284031215611d6557600080fd5b815161189781611a98565b634e487b7160e01b600052603260045260246000fd5b6000600019821415611d9a57611d9a611c5e565b5060010190565b600082611db057611db0611d29565b500690565b634e487b7160e01b600052604160045260246000fd5b6000808335601e19843603018112611de257600080fd5b83018035915067ffffffffffffffff821115611dfd57600080fd5b602001915036819003821315611a9157600080fd5b600181815b80851115611e4d578160001904821115611e3357611e33611c5e565b80851615611e4057918102915b93841c9390800290611e17565b509250929050565b600082611e6457506001610a67565b81611e7157506000610a67565b8160018114611e875760028114611e9157611ead565b6001915050610a67565b60ff841115611ea257611ea2611c5e565b50506001821b610a67565b5060208310610133831016604e8410600b8410161715611ed0575081810a610a67565b611eda8383611e12565b8060001904821115611eee57611eee611c5e565b029392505050565b600061189760ff841683611e55565b60008251611f17818460208701611b3f565b9190910192915050565b6020815260006118976020830184611b6b56fe416464726573733a206c6f772d6c6576656c2064656c65676174652063616c6c206661696c6564a26469706673582212200ba3f36a90aa74cd2a580a29d3c29ab9dd196f53dcaafe8f53ab904cd1a152c864736f6c63430008090033",
  "linkReferences": {},
  "deployedLinkReferences": {}
}