{
  "_format": "hh-sol-artifact-1",
  "contractName": "HeroInfinityNodePoolV2",
  "sourceName": "contracts/HeroInfinityNodePoolV2.sol",
  "abi": [
    {
      "inputs": [],
      "stateMutability": "nonpayable",
      "type": "constructor"
    },
    {
      "anonymous": false,
      "inputs": [
        {
          "indexed": true,
          "internalType": "address",
          "name": "previousOwner",
          "type": "address"
        },
        {
          "indexed": true,
          "internalType": "address",
          "name": "newOwner",
          "type": "address"
        }
      ],
      "name": "OwnershipTransferred",
      "type": "event"
    },
    {
      "inputs": [
        {
          "internalType": "uint256",
          "name": "newNodePrice",
          "type": "uint256"
        }
      ],
      "name": "changeNodePrice",
      "outputs": [],
      "stateMutability": "nonpayable",
      "type": "function"
    },
    {
      "inputs": [],
      "name": "claimAllNodesReward",
      "outputs": [],
      "stateMutability": "nonpayable",
      "type": "function"
    },
    {
      "inputs": [
        {
          "internalType": "uint256",
          "name": "_creationTime",
          "type": "uint256"
        }
      ],
      "name": "claimNodeReward",
      "outputs": [],
      "stateMutability": "nonpayable",
      "type": "function"
    },
    {
      "inputs": [
        {
          "internalType": "string",
          "name": "nodeName",
          "type": "string"
        },
        {
          "internalType": "uint256",
          "name": "count",
          "type": "uint256"
        }
      ],
      "name": "createNode",
      "outputs": [],
      "stateMutability": "nonpayable",
      "type": "function"
    },
    {
      "inputs": [],
      "name": "feeAmount",
      "outputs": [
        {
          "internalType": "uint256",
          "name": "",
          "type": "uint256"
        }
      ],
      "stateMutability": "view",
      "type": "function"
    },
    {
      "inputs": [],
      "name": "feeDuration",
      "outputs": [
        {
          "internalType": "uint256",
          "name": "",
          "type": "uint256"
        }
      ],
      "stateMutability": "view",
      "type": "function"
    },
    {
      "inputs": [
        {
          "internalType": "address",
          "name": "account",
          "type": "address"
        }
      ],
      "name": "getNodeNumberOf",
      "outputs": [
        {
          "internalType": "uint256",
          "name": "",
          "type": "uint256"
        }
      ],
      "stateMutability": "view",
      "type": "function"
    },
    {
      "inputs": [
        {
          "internalType": "address",
          "name": "account",
          "type": "address"
        }
      ],
      "name": "getNodes",
      "outputs": [
        {
          "components": [
            {
              "internalType": "string",
              "name": "name",
              "type": "string"
            },
            {
              "internalType": "uint256",
              "name": "creationTime",
              "type": "uint256"
            },
            {
              "internalType": "uint256",
              "name": "lastClaimTime",
              "type": "uint256"
            },
            {
              "internalType": "uint256",
              "name": "feeTime",
              "type": "uint256"
            },
            {
              "internalType": "uint256",
              "name": "dueTime",
              "type": "uint256"
            }
          ],
          "internalType": "struct HeroInfinityNodePoolV2.NodeEntity[]",
          "name": "nodes",
          "type": "tuple[]"
        }
      ],
      "stateMutability": "view",
      "type": "function"
    },
    {
      "inputs": [
        {
          "internalType": "address",
          "name": "account",
          "type": "address"
        },
        {
          "internalType": "uint256",
          "name": "creationTime",
          "type": "uint256"
        }
      ],
      "name": "getRewardAmountOf",
      "outputs": [
        {
          "internalType": "uint256",
          "name": "",
          "type": "uint256"
        }
      ],
      "stateMutability": "view",
      "type": "function"
    },
    {
      "inputs": [
        {
          "internalType": "address",
          "name": "account",
          "type": "address"
        }
      ],
      "name": "getRewardTotalAmountOf",
      "outputs": [
        {
          "internalType": "uint256",
          "name": "",
          "type": "uint256"
        }
      ],
      "stateMutability": "view",
      "type": "function"
    },
    {
      "inputs": [],
      "name": "hriToken",
      "outputs": [
        {
          "internalType": "contract IERC20",
          "name": "",
          "type": "address"
        }
      ],
      "stateMutability": "view",
      "type": "function"
    },
    {
      "inputs": [],
      "name": "initialRewardRate",
      "outputs": [
        {
          "internalType": "uint256",
          "name": "",
          "type": "uint256"
        }
      ],
      "stateMutability": "view",
      "type": "function"
    },
    {
      "inputs": [],
      "name": "maxNodes",
      "outputs": [
        {
          "internalType": "uint256",
          "name": "",
          "type": "uint256"
        }
      ],
      "stateMutability": "view",
      "type": "function"
    },
    {
      "inputs": [],
      "name": "minRewardRatePerDay",
      "outputs": [
        {
          "internalType": "uint256",
          "name": "",
          "type": "uint256"
        }
      ],
      "stateMutability": "view",
      "type": "function"
    },
    {
      "inputs": [
        {
          "internalType": "address",
          "name": "",
          "type": "address"
        }
      ],
      "name": "nodeOwners",
      "outputs": [
        {
          "internalType": "uint256",
          "name": "",
          "type": "uint256"
        }
      ],
      "stateMutability": "view",
      "type": "function"
    },
    {
      "inputs": [],
      "name": "nodePrice",
      "outputs": [
        {
          "internalType": "uint256",
          "name": "",
          "type": "uint256"
        }
      ],
      "stateMutability": "view",
      "type": "function"
    },
    {
      "inputs": [],
      "name": "oldNodePool",
      "outputs": [
        {
          "internalType": "contract IHeroInfinityNodePool",
          "name": "",
          "type": "address"
        }
      ],
      "stateMutability": "view",
      "type": "function"
    },
    {
      "inputs": [],
      "name": "overDuration",
      "outputs": [
        {
          "internalType": "uint256",
          "name": "",
          "type": "uint256"
        }
      ],
      "stateMutability": "view",
      "type": "function"
    },
    {
      "inputs": [],
      "name": "owner",
      "outputs": [
        {
          "internalType": "address",
          "name": "",
          "type": "address"
        }
      ],
      "stateMutability": "view",
      "type": "function"
    },
    {
      "inputs": [],
      "name": "payAllNodesFee",
      "outputs": [],
      "stateMutability": "payable",
      "type": "function"
    },
    {
      "inputs": [
        {
          "internalType": "uint256",
          "name": "_creationTime",
          "type": "uint256"
        }
      ],
      "name": "payNodeFee",
      "outputs": [],
      "stateMutability": "payable",
      "type": "function"
    },
    {
      "inputs": [],
      "name": "renounceOwnership",
      "outputs": [],
      "stateMutability": "nonpayable",
      "type": "function"
    },
    {
      "inputs": [],
      "name": "rewardReduceRatePerDay",
      "outputs": [
        {
          "internalType": "uint256",
          "name": "",
          "type": "uint256"
        }
      ],
      "stateMutability": "view",
      "type": "function"
    },
    {
      "inputs": [
        {
          "internalType": "uint256",
          "name": "_feeAmount",
          "type": "uint256"
        }
      ],
      "name": "setFeeAmount",
      "outputs": [],
      "stateMutability": "nonpayable",
      "type": "function"
    },
    {
      "inputs": [
        {
          "internalType": "uint256",
          "name": "_feeDuration",
          "type": "uint256"
        }
      ],
      "name": "setFeeDuration",
      "outputs": [],
      "stateMutability": "nonpayable",
      "type": "function"
    },
    {
      "inputs": [
        {
          "internalType": "uint256",
          "name": "rate",
          "type": "uint256"
        }
      ],
      "name": "setInitialRewardRate",
      "outputs": [],
      "stateMutability": "nonpayable",
      "type": "function"
    },
    {
      "inputs": [
        {
          "internalType": "uint256",
          "name": "_count",
          "type": "uint256"
        }
      ],
      "name": "setMaxNodes",
      "outputs": [],
      "stateMutability": "nonpayable",
      "type": "function"
    },
    {
      "inputs": [
        {
          "internalType": "uint256",
          "name": "rate",
          "type": "uint256"
        }
      ],
      "name": "setMinRewardRatePerDay",
      "outputs": [],
      "stateMutability": "nonpayable",
      "type": "function"
    },
    {
      "inputs": [
        {
          "internalType": "uint256",
          "name": "_overDuration",
          "type": "uint256"
        }
      ],
      "name": "setOverDuration",
      "outputs": [],
      "stateMutability": "nonpayable",
      "type": "function"
    },
    {
      "inputs": [
        {
          "internalType": "uint256",
          "name": "rate",
          "type": "uint256"
        }
      ],
      "name": "setRewardReduceRatePerDay",
      "outputs": [],
      "stateMutability": "nonpayable",
      "type": "function"
    },
    {
      "inputs": [],
      "name": "totalNodesCreated",
      "outputs": [
        {
          "internalType": "uint256",
          "name": "",
          "type": "uint256"
        }
      ],
      "stateMutability": "view",
      "type": "function"
    },
    {
      "inputs": [
        {
          "internalType": "address",
          "name": "newOwner",
          "type": "address"
        }
      ],
      "name": "transferOwnership",
      "outputs": [],
      "stateMutability": "nonpayable",
      "type": "function"
    },
    {
      "inputs": [],
      "name": "upgradeNode",
      "outputs": [],
      "stateMutability": "nonpayable",
      "type": "function"
    },
    {
      "inputs": [
        {
          "internalType": "uint256",
          "name": "amount",
          "type": "uint256"
        }
      ],
      "name": "withdrawFee",
      "outputs": [],
      "stateMutability": "nonpayable",
      "type": "function"
    },
    {
      "inputs": [
        {
          "internalType": "uint256",
          "name": "amount",
          "type": "uint256"
        }
      ],
      "name": "withdrawReward",
      "outputs": [],
      "stateMutability": "nonpayable",
      "type": "function"
    },
    {
      "stateMutability": "payable",
      "type": "receive"
    }
  ],
  "bytecode": "0x6080604052692a5a058fc295ed0000006003556101906004556061600555601e6006556019600755662386f26fc100006008556224ea006009556202a300600a556000600b55600c80546001600160a01b03199081167328ee3e2826264b9c55fcdd122dfa93680916c9b817909155600d805490911673a0f90c8111465e75e5b7e0d85de0dcdc185da1ae17905534801561009957600080fd5b506100a3336100a8565b6100f8565b600080546001600160a01b038381166001600160a01b0319831681178455604051919092169283917f8be0079c531659141344cd1fd0a4f28419497f9722a3daafe3b4186f6b6457e09190a35050565b6123b6806101076000396000f3fe6080604052600436106102085760003560e01c80638013858b11610118578063c0065935116100a0578063f1f4613a1161006f578063f1f4613a14610583578063f1fec2b8146105a3578063f2fde38b146105b9578063f67af2da146105d9578063f74c9934146105f957600080fd5b8063c006593514610517578063ddf0185f1461052d578063ebb8035a14610543578063ebbbbb491461056357600080fd5b8063afdfffcb116100e7578063afdfffcb146104ae578063b7427ef9146104c3578063b8527aef146104cb578063b8785ef5146104e1578063be357616146104f757600080fd5b80638013858b146104305780638da5cb5b146104505780639ceb5c481461046e578063a44c83941461048e57600080fd5b806357649c361161019b5780636b3926801161016a5780636b392680146103765780636b506c0d14610396578063715018a6146103ce57806378a6b968146103e35780637be50ce21461041057600080fd5b806357649c361461031f5780635971aa2114610334578063617740c81461034a57806369e154041461036057600080fd5b806343b8ff6f116101d757806343b8ff6f14610292578063486af96a146102b2578063523a3f08146102df57806355cd6a5e146102ff57600080fd5b806302e415c914610214578063031c9dfc146102365780631a136cd71461024957806332ef9c871461026957600080fd5b3661020f57005b600080fd5b34801561022057600080fd5b5061023461022f366004611ce2565b61062f565b005b610234610244366004611ce2565b610667565b34801561025557600080fd5b50610234610264366004611ce2565b61073f565b34801561027557600080fd5b5061027f60095481565b6040519081526020015b60405180910390f35b34801561029e57600080fd5b5061027f6102ad366004611d17565b61076e565b3480156102be57600080fd5b506102d26102cd366004611d17565b6108b0565b6040516102899190611d62565b3480156102eb57600080fd5b506102346102fa366004611ce2565b6109df565b34801561030b57600080fd5b5061023461031a366004611ce2565b610a91565b34801561032b57600080fd5b50610234610ac0565b34801561034057600080fd5b5061027f60045481565b34801561035657600080fd5b5061027f600a5481565b34801561036c57600080fd5b5061027f60085481565b34801561038257600080fd5b50610234610391366004611ce2565b610cda565b3480156103a257600080fd5b50600d546103b6906001600160a01b031681565b6040516001600160a01b039091168152602001610289565b3480156103da57600080fd5b50610234610d09565b3480156103ef57600080fd5b5061027f6103fe366004611d17565b60016020526000908152604090205481565b34801561041c57600080fd5b5061023461042b366004611eab565b610d3f565b34801561043c57600080fd5b5061023461044b366004611ce2565b6110b9565b34801561045c57600080fd5b506000546001600160a01b03166103b6565b34801561047a57600080fd5b5061027f610489366004611f2d565b6110e8565b34801561049a57600080fd5b506102346104a9366004611ce2565b61117c565b3480156104ba57600080fd5b506102346111ab565b6102346112d8565b3480156104d757600080fd5b5061027f600b5481565b3480156104ed57600080fd5b5061027f60055481565b34801561050357600080fd5b50610234610512366004611ce2565b61146e565b34801561052357600080fd5b5061027f60065481565b34801561053957600080fd5b5061027f60075481565b34801561054f57600080fd5b5061023461055e366004611ce2565b6114c5565b34801561056f57600080fd5b50600c546103b6906001600160a01b031681565b34801561058f57600080fd5b5061023461059e366004611ce2565b6115e0565b3480156105af57600080fd5b5061027f60035481565b3480156105c557600080fd5b506102346105d4366004611d17565b61160f565b3480156105e557600080fd5b506102346105f4366004611ce2565b6116aa565b34801561060557600080fd5b5061027f610614366004611d17565b6001600160a01b031660009081526001602052604090205490565b6000546001600160a01b031633146106625760405162461bcd60e51b815260040161065990611f57565b60405180910390fd5b600655565b6008543410156106b25760405162461bcd60e51b815260206004820152601660248201527513995959081d1bc81c185e4819995948185b5bdd5b9d60521b6044820152606401610659565b336000908152600260205260408120906106cc82846116d9565b905042816004015410156107155760405162461bcd60e51b815260206004820152601060248201526f139bd919481a5cc8191a5cd8589b195960821b6044820152606401610659565b6009546107229042611fa2565b60038201819055600a5461073591611fa2565b6004909101555050565b6000546001600160a01b031633146107695760405162461bcd60e51b815260040161065990611f57565b600955565b6001600160a01b03811660009081526002602052604081208054908290815b838110156108a65760006108848383815481106107ac576107ac611fba565b90600052602060002090600502016040518060a00160405290816000820180546107d590611fd0565b80601f016020809104026020016040519081016040528092919081815260200182805461080190611fd0565b801561084e5780601f106108235761010080835404028352916020019161084e565b820191906000526020600020905b81548152906001019060200180831161083157829003601f168201915b505050505081526020016001820154815260200160028201548152602001600382015481526020016004820154815250506118bd565b90506108908185611fa2565b935050808061089e9061200b565b91505061078d565b5090949350505050565b6001600160a01b0381166000908152600260209081526040808320805482518185028101850190935280835260609492939192909184015b828210156109d457838290600052602060002090600502016040518060a001604052908160008201805461091b90611fd0565b80601f016020809104026020016040519081016040528092919081815260200182805461094790611fd0565b80156109945780601f1061096957610100808354040283529160200191610994565b820191906000526020600020905b81548152906001019060200180831161097757829003601f168201915b50505050508152602001600182015481526020016002820154815260200160038201548152602001600482015481525050815260200190600101906108e8565b505050509050919050565b6000546001600160a01b03163314610a095760405162461bcd60e51b815260040161065990611f57565b600c5460405163a9059cbb60e01b8152336004820152602481018390526001600160a01b039091169063a9059cbb90604401602060405180830381600087803b158015610a5557600080fd5b505af1158015610a69573d6000803e3d6000fd5b505050506040513d601f19601f82011682018060405250810190610a8d9190612026565b5050565b6000546001600160a01b03163314610abb5760405162461bcd60e51b815260040161065990611f57565b600a55565b600d546040516324357cb560e11b81523360048201526000916001600160a01b03169063486af96a9060240160006040518083038186803b158015610b0457600080fd5b505afa158015610b18573d6000803e3d6000fd5b505050506040513d6000823e601f3d908101601f19168201604052610b409190810190612048565b905060005b8151811015610a8d573360008181526002602052604090819020815160a0810190925284519091908190869086908110610b8157610b81611fba565b6020026020010151600001518152602001858581518110610ba457610ba4611fba565b6020026020010151602001518152602001858581518110610bc757610bc7611fba565b6020026020010151604001518152602001858581518110610bea57610bea611fba565b6020026020010151606001518152602001858581518110610c0d57610c0d611fba565b60209081029190910181015160800151909152825460018101845560009384529281902082518051939460050290910192610c4b9284920190611c49565b5060208201518160010155604082015181600201556060820151816003015560808201518160040155505060016000826001600160a01b03166001600160a01b031681526020019081526020016000206000815480929190610cac9061200b565b9091555050600b8054906000610cc18361200b565b9190505550508080610cd29061200b565b915050610b45565b6000546001600160a01b03163314610d045760405162461bcd60e51b815260040161065990611f57565b600855565b6000546001600160a01b03163314610d335760405162461bcd60e51b815260040161065990611f57565b610d3d60006119a6565b565b60008111610d875760405162461bcd60e51b81526020600482015260156024820152740436f756e742073686f756c64206265206e6f74203605c1b6044820152606401610659565b33600081815260016020526040902054610da182856119f6565b610ded5760405162461bcd60e51b815260206004820152601f60248201527f435245415445204e4f44453a204e616d65206e6f7420617661696c61626c65006044820152606401610659565b600754610dfa8483611fa2565b1115610e385760405162461bcd60e51b815260206004820152600d60248201526c10dbdd5b9d08131a5b5a5d1959609a1b6044820152606401610659565b801580610e8957506001600160a01b03821660009081526002602052604090204290610e656001846121a7565b81548110610e7557610e75611fba565b906000526020600020906005020160010154105b610ec95760405162461bcd60e51b8152602060048201526011602482015270546f6f206d616e7920726571756573747360781b6044820152606401610659565b600083600354610ed991906121be565b600c546040516323b872dd60e01b81526001600160a01b038681166004830152306024830152604482018490529293509116906323b872dd90606401602060405180830381600087803b158015610f2f57600080fd5b505af1158015610f43573d6000803e3d6000fd5b505050506040513d601f19601f82011682018060405250810190610f679190612026565b5060005b848110156110b1576000610f7f8242611fa2565b905060026000866001600160a01b03166001600160a01b031681526020019081526020016000206040518060a0016040528089815260200183815260200183815260200160095484610fd19190611fa2565b8152602001600a5460095485610fe79190611fa2565b610ff19190611fa2565b9052815460018101835560009283526020928390208251805193946005909302909101926110229284920190611c49565b5060208201518160010155604082015181600201556060820151816003015560808201518160040155505060016000866001600160a01b03166001600160a01b0316815260200190815260200160002060008154809291906110839061200b565b9091555050600b80549060006110988361200b565b91905055505080806110a99061200b565b915050610f6b565b505050505050565b6000546001600160a01b031633146110e35760405162461bcd60e51b815260040161065990611f57565b600355565b60008082116111095760405162461bcd60e51b8152600401610659906121dd565b6001600160a01b03831660009081526002602052604090208054806111405760405162461bcd60e51b815260040161065990612224565b600061114c83866116d9565b9050600061116f826040518060a00160405290816000820180546107d590611fd0565b9450505050505b92915050565b6000546001600160a01b031633146111a65760405162461bcd60e51b815260040161065990611f57565b600755565b3360008181526002602052604090208054806111d95760405162461bcd60e51b8152600401610659906121dd565b600080805b83811015611251578481815481106111f8576111f8611fba565b906000526020600020906005020192506000611229846040518060a00160405290816000820180546107d590611fd0565b90506112358184611fa2565b42600286015592508190506112498161200b565b9150506111de565b50600c5460405163a9059cbb60e01b81526001600160a01b038781166004830152602482018490529091169063a9059cbb90604401602060405180830381600087803b1580156112a057600080fd5b505af11580156112b4573d6000803e3d6000fd5b505050506040513d601f19601f820116820180604052508101906110b19190612026565b33600090815260026020526040812090805b825481101561133d574283828154811061130657611306611fba565b9060005260206000209060050201600401541061132b57816113278161200b565b9250505b806113358161200b565b9150506112ea565b508060085461134c91906121be565b3410156113945760405162461bcd60e51b815260206004820152601660248201527513995959081d1bc81c185e4819995948185b5bdd5b9d60521b6044820152606401610659565b60005b825481101561146957428382815481106113b3576113b3611fba565b90600052602060002090600502016004015410611457576009546113d79042611fa2565b8382815481106113e9576113e9611fba565b906000526020600020906005020160030181905550600a5483828154811061141357611413611fba565b90600052602060002090600502016003015461142f9190611fa2565b83828154811061144157611441611fba565b9060005260206000209060050201600401819055505b806114618161200b565b915050611397565b505050565b6000546001600160a01b031633146114985760405162461bcd60e51b815260040161065990611f57565b604051339082156108fc029083906000818181858888f19350505050158015610a8d573d6000803e3d6000fd5b33816114e35760405162461bcd60e51b8152600401610659906121dd565b6001600160a01b038116600090815260026020526040902080548061151a5760405162461bcd60e51b815260040161065990612224565b600061152683866116d9565b90506000611549826040518060a00160405290816000820180546107d590611fd0565b426002840155600c5460405163a9059cbb60e01b81526001600160a01b0388811660048301526024820184905292935091169063a9059cbb90604401602060405180830381600087803b15801561159f57600080fd5b505af11580156115b3573d6000803e3d6000fd5b505050506040513d601f19601f820116820180604052508101906115d79190612026565b50505050505050565b6000546001600160a01b0316331461160a5760405162461bcd60e51b815260040161065990611f57565b600555565b6000546001600160a01b031633146116395760405162461bcd60e51b815260040161065990611f57565b6001600160a01b03811661169e5760405162461bcd60e51b815260206004820152602660248201527f4f776e61626c653a206e6577206f776e657220697320746865207a65726f206160448201526564647265737360d01b6064820152608401610659565b6116a7816119a6565b50565b6000546001600160a01b031633146116d45760405162461bcd60e51b815260040161065990611f57565b600455565b8154600090806116fb5760405162461bcd60e51b815260040161065990612224565b60008061181b86805480602002602001604051908101604052809291908181526020016000905b8282101561180e57838290600052602060002090600502016040518060a001604052908160008201805461175590611fd0565b80601f016020809104026020016040519081016040528092919081815260200182805461178190611fd0565b80156117ce5780601f106117a3576101008083540402835291602001916117ce565b820191906000526020600020905b8154815290600101906020018083116117b157829003601f168201915b5050505050815260200160018201548152602001600282015481526020016003820154815260200160048201548152505081526020019060010190611722565b5050505060008588611b82565b9050600080821261182d575060019150805b826118915760405162461bcd60e51b815260206004820152602e60248201527f4e4f4445205345415243483a204e6f204e4f444520466f756e6420776974682060448201526d7468697320626c6f636b74696d6560901b6064820152608401610659565b8681815481106118a3576118a3611fba565b906000526020600020906005020194505050505092915050565b600081608001514211156118d357506000919050565b6000620151804284602001516118e991906121a7565b6118f3919061226e565b90506000805b8281101561199e57600061190e826004611fa2565b611919906064612374565b826005546119279190612374565b60045461193491906121be565b60035461194191906121be565b61194b919061226e565b9050600061271060065460035461196291906121be565b61196c919061226e565b905080821161197b578061197d565b815b6119879085611fa2565b9350505080806119969061200b565b9150506118f9565b509392505050565b600080546001600160a01b038381166001600160a01b0319831681178455604051919092169283917f8be0079c531659141344cd1fd0a4f28419497f9722a3daafe3b4186f6b6457e09190a35050565b6001600160a01b038216600090815260026020908152604080832080548251818502810185019093528083528493849084015b82821015611b1557838290600052602060002090600502016040518060a0016040529081600082018054611a5c90611fd0565b80601f0160208091040260200160405190810160405280929190818152602001828054611a8890611fd0565b8015611ad55780601f10611aaa57610100808354040283529160200191611ad5565b820191906000526020600020905b815481529060010190602001808311611ab857829003601f168201915b5050505050815260200160018201548152602001600282015481526020016003820154815260200160048201548152505081526020019060010190611a29565b50505050905060005b8151811015611b77578380519060200120828281518110611b4157611b41611fba565b602002602001015160000151805190602001201415611b6557600092505050611176565b80611b6f8161200b565b915050611b1e565b506001949350505050565b6000838310611c29576000611ba26002611b9c8787611fa2565b90611c36565b905082868281518110611bb757611bb7611fba565b6020026020010151602001511415611bd0579050611c2e565b82868281518110611be357611be3611fba565b6020026020010151602001511115611c1357611c0b8686611c056001856121a7565b86611b82565b915050611c2e565b611c0b86611c22836001611fa2565b8686611b82565b506000195b949350505050565b6000611c42828461226e565b9392505050565b828054611c5590611fd0565b90600052602060002090601f016020900481019282611c775760008555611cbd565b82601f10611c9057805160ff1916838001178555611cbd565b82800160010185558215611cbd579182015b82811115611cbd578251825591602001919060010190611ca2565b50611cc9929150611ccd565b5090565b5b80821115611cc95760008155600101611cce565b600060208284031215611cf457600080fd5b5035919050565b80356001600160a01b0381168114611d1257600080fd5b919050565b600060208284031215611d2957600080fd5b611c4282611cfb565b60005b83811015611d4d578181015183820152602001611d35565b83811115611d5c576000848401525b50505050565b60006020808301818452808551808352604092508286019150828160051b87010184880160005b83811015611e0557603f19898403018552815160a081518186528051808388015260c09250611dbd818489018d8501611d32565b8a840151878c0152898401518a88015260608085015190880152608093840151938701939093525095880195601f909101601f19169093019092019190860190600101611d89565b509098975050505050505050565b634e487b7160e01b600052604160045260246000fd5b60405160a0810167ffffffffffffffff81118282101715611e4c57611e4c611e13565b60405290565b604051601f8201601f1916810167ffffffffffffffff81118282101715611e7b57611e7b611e13565b604052919050565b600067ffffffffffffffff821115611e9d57611e9d611e13565b50601f01601f191660200190565b60008060408385031215611ebe57600080fd5b823567ffffffffffffffff811115611ed557600080fd5b8301601f81018513611ee657600080fd5b8035611ef9611ef482611e83565b611e52565b818152866020838501011115611f0e57600080fd5b8160208401602083013760006020928201830152969401359450505050565b60008060408385031215611f4057600080fd5b611f4983611cfb565b946020939093013593505050565b6020808252818101527f4f776e61626c653a2063616c6c6572206973206e6f7420746865206f776e6572604082015260600190565b634e487b7160e01b600052601160045260246000fd5b60008219821115611fb557611fb5611f8c565b500190565b634e487b7160e01b600052603260045260246000fd5b600181811c90821680611fe457607f821691505b6020821081141561200557634e487b7160e01b600052602260045260246000fd5b50919050565b600060001982141561201f5761201f611f8c565b5060010190565b60006020828403121561203857600080fd5b81518015158114611c4257600080fd5b6000602080838503121561205b57600080fd5b825167ffffffffffffffff8082111561207357600080fd5b818501915085601f83011261208757600080fd5b81518181111561209957612099611e13565b8060051b6120a8858201611e52565b91825283810185019185810190898411156120c257600080fd5b86860192505b8383101561219a578251858111156120df57600080fd5b860160a0818c03601f190112156120f65760008081fd5b6120fe611e29565b88820151878111156121105760008081fd5b8201603f81018d136121225760008081fd5b898101516040612134611ef483611e83565b8281528f828486010111156121495760008081fd5b612158838e8301848701611d32565b8452848101518c850152606080860151918501919091526080808601519185019190915260a090940151938301939093525083525091860191908601906120c8565b9998505050505050505050565b6000828210156121b9576121b9611f8c565b500390565b60008160001904831182151516156121d8576121d8611f8c565b500290565b60208082526027908201527f4e4f44453a204352454154494d45206d75737420626520686967686572207468604082015266616e207a65726f60c81b606082015260800190565b6020808252602a908201527f434c41494d204552524f523a20596f7520646f6e27742068617665206e6f64656040820152697320746f20636c61696d60b01b606082015260800190565b60008261228b57634e487b7160e01b600052601260045260246000fd5b500490565b600181815b808511156122cb5781600019048211156122b1576122b1611f8c565b808516156122be57918102915b93841c9390800290612295565b509250929050565b6000826122e257506001611176565b816122ef57506000611176565b8160018114612305576002811461230f5761232b565b6001915050611176565b60ff84111561232057612320611f8c565b50506001821b611176565b5060208310610133831016604e8410600b841016171561234e575081810a611176565b6123588383612290565b806000190482111561236c5761236c611f8c565b029392505050565b6000611c4283836122d356fea26469706673582212206650b08a3cefcf697c216caf86fad31490cf5c7a33996c7d0e52fe7e5084150564736f6c63430008090033",
  "linkReferences": {},
  "deployedLinkReferences": {}
}