{
  "_format": "hh-sol-artifact-1",
  "contractName": "LobbyManager",
  "sourceName": "contracts/game/LobbyManager.sol",
  "abi": [
    {
      "inputs": [],
      "stateMutability": "nonpayable",
      "type": "constructor"
    },
    {
      "anonymous": false,
      "inputs": [
        {
          "indexed": true,
          "internalType": "uint256",
          "name": "lobbyId",
          "type": "uint256"
        },
        {
          "indexed": true,
          "internalType": "address",
          "name": "host",
          "type": "address"
        },
        {
          "indexed": true,
          "internalType": "address",
          "name": "client",
          "type": "address"
        }
      ],
      "name": "BattleFinished",
      "type": "event"
    },
    {
      "anonymous": false,
      "inputs": [
        {
          "indexed": true,
          "internalType": "address",
          "name": "previousOwner",
          "type": "address"
        },
        {
          "indexed": true,
          "internalType": "address",
          "name": "newOwner",
          "type": "address"
        }
      ],
      "name": "OwnershipTransferred",
      "type": "event"
    },
    {
      "inputs": [
        {
          "internalType": "uint256",
          "name": "",
          "type": "uint256"
        }
      ],
      "name": "battles",
      "outputs": [
        {
          "internalType": "contract IVersusBattle",
          "name": "",
          "type": "address"
        }
      ],
      "stateMutability": "view",
      "type": "function"
    },
    {
      "inputs": [
        {
          "internalType": "bytes32",
          "name": "name",
          "type": "bytes32"
        },
        {
          "internalType": "bytes32",
          "name": "avatar",
          "type": "bytes32"
        },
        {
          "internalType": "uint256",
          "name": "capacity",
          "type": "uint256"
        },
        {
          "internalType": "uint256[]",
          "name": "heroIds",
          "type": "uint256[]"
        }
      ],
      "name": "createLobby",
      "outputs": [],
      "stateMutability": "nonpayable",
      "type": "function"
    },
    {
      "inputs": [
        {
          "internalType": "address",
          "name": "myAddr",
          "type": "address"
        },
        {
          "internalType": "uint256",
          "name": "capacity",
          "type": "uint256"
        }
      ],
      "name": "getActiveLobbies",
      "outputs": [
        {
          "internalType": "uint256[]",
          "name": "",
          "type": "uint256[]"
        }
      ],
      "stateMutability": "view",
      "type": "function"
    },
    {
      "inputs": [
        {
          "internalType": "uint256",
          "name": "capacity",
          "type": "uint256"
        }
      ],
      "name": "getAllHistory",
      "outputs": [
        {
          "internalType": "uint256[]",
          "name": "",
          "type": "uint256[]"
        }
      ],
      "stateMutability": "view",
      "type": "function"
    },
    {
      "inputs": [
        {
          "internalType": "uint256[]",
          "name": "heroes",
          "type": "uint256[]"
        }
      ],
      "name": "getHeroesPower",
      "outputs": [
        {
          "internalType": "uint256",
          "name": "",
          "type": "uint256"
        }
      ],
      "stateMutability": "view",
      "type": "function"
    },
    {
      "inputs": [
        {
          "internalType": "uint256",
          "name": "lobbyId",
          "type": "uint256"
        }
      ],
      "name": "getLobbyHeroes",
      "outputs": [
        {
          "internalType": "address",
          "name": "",
          "type": "address"
        },
        {
          "internalType": "uint256[]",
          "name": "",
          "type": "uint256[]"
        },
        {
          "internalType": "address",
          "name": "",
          "type": "address"
        },
        {
          "internalType": "uint256[]",
          "name": "",
          "type": "uint256[]"
        }
      ],
      "stateMutability": "view",
      "type": "function"
    },
    {
      "inputs": [
        {
          "internalType": "uint256",
          "name": "lobbyId",
          "type": "uint256"
        }
      ],
      "name": "getLobbyPower",
      "outputs": [
        {
          "internalType": "address",
          "name": "",
          "type": "address"
        },
        {
          "internalType": "uint256",
          "name": "",
          "type": "uint256"
        },
        {
          "internalType": "address",
          "name": "",
          "type": "address"
        },
        {
          "internalType": "uint256",
          "name": "",
          "type": "uint256"
        }
      ],
      "stateMutability": "view",
      "type": "function"
    },
    {
      "inputs": [
        {
          "internalType": "address",
          "name": "myAddr",
          "type": "address"
        },
        {
          "internalType": "uint256",
          "name": "capacity",
          "type": "uint256"
        }
      ],
      "name": "getMyHistory",
      "outputs": [
        {
          "internalType": "uint256[]",
          "name": "",
          "type": "uint256[]"
        }
      ],
      "stateMutability": "view",
      "type": "function"
    },
    {
      "inputs": [
        {
          "internalType": "address",
          "name": "myAddr",
          "type": "address"
        },
        {
          "internalType": "uint256",
          "name": "capacity",
          "type": "uint256"
        }
      ],
      "name": "getMyLobbies",
      "outputs": [
        {
          "internalType": "uint256[]",
          "name": "",
          "type": "uint256[]"
        }
      ],
      "stateMutability": "view",
      "type": "function"
    },
    {
      "inputs": [
        {
          "internalType": "uint256",
          "name": "lobbyId",
          "type": "uint256"
        },
        {
          "internalType": "address",
          "name": "player",
          "type": "address"
        }
      ],
      "name": "getPlayerHeroesOnLobby",
      "outputs": [
        {
          "internalType": "uint256[]",
          "name": "",
          "type": "uint256[]"
        }
      ],
      "stateMutability": "view",
      "type": "function"
    },
    {
      "inputs": [
        {
          "internalType": "uint256",
          "name": "lobbyId",
          "type": "uint256"
        },
        {
          "internalType": "address",
          "name": "player",
          "type": "address"
        }
      ],
      "name": "getPowerHistory",
      "outputs": [
        {
          "internalType": "uint256",
          "name": "",
          "type": "uint256"
        }
      ],
      "stateMutability": "view",
      "type": "function"
    },
    {
      "inputs": [],
      "name": "heroManager",
      "outputs": [
        {
          "internalType": "contract IHeroManager",
          "name": "",
          "type": "address"
        }
      ],
      "stateMutability": "view",
      "type": "function"
    },
    {
      "inputs": [
        {
          "internalType": "uint256",
          "name": "lobbyId",
          "type": "uint256"
        },
        {
          "internalType": "uint256[]",
          "name": "heroIds",
          "type": "uint256[]"
        }
      ],
      "name": "joinLobby",
      "outputs": [],
      "stateMutability": "nonpayable",
      "type": "function"
    },
    {
      "inputs": [
        {
          "internalType": "uint256",
          "name": "",
          "type": "uint256"
        }
      ],
      "name": "lobbies",
      "outputs": [
        {
          "internalType": "bytes32",
          "name": "name",
          "type": "bytes32"
        },
        {
          "internalType": "bytes32",
          "name": "avatar",
          "type": "bytes32"
        },
        {
          "internalType": "address",
          "name": "host",
          "type": "address"
        },
        {
          "internalType": "address",
          "name": "client",
          "type": "address"
        },
        {
          "internalType": "uint256",
          "name": "id",
          "type": "uint256"
        },
        {
          "internalType": "uint256",
          "name": "capacity",
          "type": "uint256"
        },
        {
          "internalType": "uint256",
          "name": "startedAt",
          "type": "uint256"
        },
        {
          "internalType": "uint256",
          "name": "finishedAt",
          "type": "uint256"
        },
        {
          "internalType": "uint256",
          "name": "winner",
          "type": "uint256"
        },
        {
          "internalType": "uint256",
          "name": "fee",
          "type": "uint256"
        },
        {
          "internalType": "uint256",
          "name": "rewards",
          "type": "uint256"
        }
      ],
      "stateMutability": "view",
      "type": "function"
    },
    {
      "inputs": [
        {
          "internalType": "uint256",
          "name": "",
          "type": "uint256"
        }
      ],
      "name": "lobbyFees",
      "outputs": [
        {
          "internalType": "uint256",
          "name": "",
          "type": "uint256"
        }
      ],
      "stateMutability": "view",
      "type": "function"
    },
    {
      "inputs": [
        {
          "internalType": "uint256",
          "name": "",
          "type": "uint256"
        },
        {
          "internalType": "address",
          "name": "",
          "type": "address"
        },
        {
          "internalType": "uint256",
          "name": "",
          "type": "uint256"
        }
      ],
      "name": "lobbyHeroes",
      "outputs": [
        {
          "internalType": "uint256",
          "name": "",
          "type": "uint256"
        }
      ],
      "stateMutability": "view",
      "type": "function"
    },
    {
      "inputs": [
        {
          "internalType": "bytes[]",
          "name": "data",
          "type": "bytes[]"
        }
      ],
      "name": "multicall",
      "outputs": [
        {
          "internalType": "bytes[]",
          "name": "results",
          "type": "bytes[]"
        }
      ],
      "stateMutability": "nonpayable",
      "type": "function"
    },
    {
      "inputs": [],
      "name": "owner",
      "outputs": [
        {
          "internalType": "address",
          "name": "",
          "type": "address"
        }
      ],
      "stateMutability": "view",
      "type": "function"
    },
    {
      "inputs": [
        {
          "internalType": "address",
          "name": "",
          "type": "address"
        }
      ],
      "name": "playersFees",
      "outputs": [
        {
          "internalType": "uint256",
          "name": "",
          "type": "uint256"
        }
      ],
      "stateMutability": "view",
      "type": "function"
    },
    {
      "inputs": [
        {
          "internalType": "address",
          "name": "",
          "type": "address"
        }
      ],
      "name": "playersRewards",
      "outputs": [
        {
          "internalType": "uint256",
          "name": "",
          "type": "uint256"
        }
      ],
      "stateMutability": "view",
      "type": "function"
    },
    {
      "inputs": [
        {
          "internalType": "uint256",
          "name": "",
          "type": "uint256"
        },
        {
          "internalType": "address",
          "name": "",
          "type": "address"
        }
      ],
      "name": "powerHistory",
      "outputs": [
        {
          "internalType": "uint256",
          "name": "",
          "type": "uint256"
        }
      ],
      "stateMutability": "view",
      "type": "function"
    },
    {
      "inputs": [
        {
          "internalType": "uint256",
          "name": "min",
          "type": "uint256"
        },
        {
          "internalType": "uint256",
          "name": "max",
          "type": "uint256"
        }
      ],
      "name": "random",
      "outputs": [
        {
          "internalType": "uint256",
          "name": "",
          "type": "uint256"
        }
      ],
      "stateMutability": "view",
      "type": "function"
    },
    {
      "inputs": [
        {
          "internalType": "address",
          "name": "",
          "type": "address"
        }
      ],
      "name": "registeredPlayers",
      "outputs": [
        {
          "internalType": "bool",
          "name": "",
          "type": "bool"
        }
      ],
      "stateMutability": "view",
      "type": "function"
    },
    {
      "inputs": [],
      "name": "renounceOwnership",
      "outputs": [],
      "stateMutability": "nonpayable",
      "type": "function"
    },
    {
      "inputs": [
        {
          "internalType": "uint256",
          "name": "capacity",
          "type": "uint256"
        },
        {
          "internalType": "address",
          "name": "battleAddress",
          "type": "address"
        }
      ],
      "name": "setBattleAddress",
      "outputs": [],
      "stateMutability": "nonpayable",
      "type": "function"
    },
    {
      "inputs": [
        {
          "internalType": "uint256",
          "name": "multiplier",
          "type": "uint256"
        }
      ],
      "name": "setBenefitMultiplier",
      "outputs": [],
      "stateMutability": "nonpayable",
      "type": "function"
    },
    {
      "inputs": [
        {
          "internalType": "address",
          "name": "hmAddr",
          "type": "address"
        }
      ],
      "name": "setHeroManager",
      "outputs": [],
      "stateMutability": "nonpayable",
      "type": "function"
    },
    {
      "inputs": [
        {
          "internalType": "uint256",
          "name": "capacity",
          "type": "uint256"
        },
        {
          "internalType": "uint256",
          "name": "fee",
          "type": "uint256"
        }
      ],
      "name": "setLobbyFee",
      "outputs": [],
      "stateMutability": "nonpayable",
      "type": "function"
    },
    {
      "inputs": [],
      "name": "totalPlayers",
      "outputs": [
        {
          "internalType": "uint256",
          "name": "",
          "type": "uint256"
        }
      ],
      "stateMutability": "view",
      "type": "function"
    },
    {
      "inputs": [
        {
          "internalType": "address",
          "name": "newOwner",
          "type": "address"
        }
      ],
      "name": "transferOwnership",
      "outputs": [],
      "stateMutability": "nonpayable",
      "type": "function"
    },
    {
      "inputs": [
        {
          "internalType": "uint256",
          "name": "",
          "type": "uint256"
        }
      ],
      "name": "uniquePlayers",
      "outputs": [
        {
          "internalType": "address",
          "name": "",
          "type": "address"
        }
      ],
      "stateMutability": "view",
      "type": "function"
    }
  ],
  "bytecode": "0x608060405260fa60035534801561001557600080fd5b5061001f336100b5565b600b60205269010f0cf064dd592000007f72c6bfb7988af3a1efa6568f02a999bc52252641c659d85961ca3d372b57d5cf5569054b40b1f852bda000007f64c15cc42be7899b001f818cf4433057002112c418d1d3a67cd5cb453051d33e556005600052690a968163f0a57b4000007febae6141bae5521e99e0a8d610356b0f501fea54980b59c84841db43ba7204f455610105565b600080546001600160a01b038381166001600160a01b0319831681178455604051919092169283917f8be0079c531659141344cd1fd0a4f28419497f9722a3daafe3b4186f6b6457e09190a35050565b612cb680620001156000396000f3fe608060405234801561001057600080fd5b50600436106101e45760003560e01c80637407fddd1161010f578063b97dcb22116100a2578063db79986711610071578063db799867146105d7578063ed697f321461060d578063f2fde38b14610620578063f60cdcf61461063357600080fd5b8063b97dcb2214610559578063b9f2d5201461056c578063c7f790bb1461058c578063c8f94270146105b757600080fd5b806394f69662116100de57806394f69662146104cb578063a9dd1225146104de578063ac9650d8146104f1578063b12f5c571461051157600080fd5b80637407fddd1461046b578063833588cc1461047e5780638da5cb5b14610491578063930613fc146104a257600080fd5b806345efd78511610187578063606d2e9611610156578063606d2e96146103465780636bd2dc851461036f5780636e8fb4c61461038f578063715018a61461046357600080fd5b806345efd785146102da5780634bafce22146102ed5780634d5f80ad1461032057806357d15a8b1461033357600080fd5b80631deb8c44116101c35780631deb8c441461026957806328b11d2314610289578063378cc3471461029c5780633b8a7a13146102af57600080fd5b8062c8bd7e146101e957806307a48c19146101fe57806316fc989c1461022a575b600080fd5b6101fc6101f7366004612600565b61063c565b005b61021161020c36600461264c565b610e4f565b60405161022194939291906126a0565b60405180910390f35b61025b6102383660046126fd565b600960209081526000938452604080852082529284528284209052825290205481565b604051908152602001610221565b61027c610277366004612735565b610ea3565b6040516102219190612761565b6101fc61029736600461264c565b61102a565b6101fc6102aa366004612774565b611059565b6002546102c2906001600160a01b031681565b6040516001600160a01b039091168152602001610221565b61027c6102e836600461264c565b6110a5565b6103106102fb366004612774565b60066020526000908152604090205460ff1681565b6040519015158152602001610221565b61027c61032e366004612735565b6111db565b6101fc610341366004612791565b611356565b6102c261035436600461264c565b600c602052600090815260409020546001600160a01b031681565b61025b61037d366004612774565b60086020526000908152604090205481565b61040461039d36600461264c565b600a60208190526000918252604090912080546001820154600283015460038401546004850154600586015460068701546007880154600889015460098a015499909a0154979996986001600160a01b03968716989590961696939592949193909290918b565b604080519b8c5260208c019a909a526001600160a01b03988916998b0199909952969095166060890152608088019390935260a087019190915260c086015260e085015261010084015261012083015261014082015261016001610221565b6101fc6113ae565b61027c610479366004612735565b6113e4565b6101fc61048c3660046127c1565b6115ad565b6000546001600160a01b03166102c2565b6102c26104b036600461264c565b6005602052600090815260409020546001600160a01b031681565b6101fc6104d93660046127e3565b6115e9565b61025b6104ec3660046127c1565b611c01565b6105046104ff366004612844565b611cb3565b60405161022191906128e2565b61052461051f36600461264c565b611da8565b60405161022194939291906001600160a01b039485168152602081019390935292166040820152606081019190915260800190565b61027c610567366004612791565b611f4c565b61025b61057a36600461264c565b600b6020526000908152604090205481565b61025b61059a366004612791565b600d60209081526000928352604080842090915290825290205481565b61025b6105c5366004612774565b60076020526000908152604090205481565b61025b6105e5366004612791565b6000918252600d602090815260408084206001600160a01b0393909316845291905290205490565b61025b61061b36600461295a565b612037565b6101fc61062e366004612774565b6120f6565b61025b60045481565b6000838152600a60205260409081902060028082015460059092015490549251630152368f60e01b815233936001600160a01b03938416931690630152368f9061068e90889088908890600401612a42565b60206040518083038186803b1580156106a657600080fd5b505afa1580156106ba573d6000803e3d6000fd5b505050506040513d601f19601f820116820180604052508101906106de9190612a6e565b5060025460405163b7601a1560e01b81526001600160a01b039091169063b7601a15906107119088908890600401612a90565b60206040518083038186803b15801561072957600080fd5b505afa15801561073d573d6000803e3d6000fd5b505050506040513d601f19601f820116820180604052508101906107619190612a6e565b506000868152600a602052604090206004015486146107d15760405162461bcd60e51b815260206004820152602160248201527f4c6f6262794d616e616765723a206c6f62627920646f65736e277420657869736044820152601d60fa1b60648201526084015b60405180910390fd5b8084146108205760405162461bcd60e51b815260206004820152601a60248201527f4c6f6262794d616e616765723a2077726f6e67206865726f657300000000000060448201526064016107c8565b6000868152600a60205260409020600701541561087f5760405162461bcd60e51b815260206004820152601e60248201527f4c6f6262794d616e616765723a20616c72656164792066696e6973686564000060448201526064016107c8565b60025460408051637e062a3560e11b815290516000926001600160a01b03169163fc0c546a916004808301926020929190829003018186803b1580156108c457600080fd5b505afa1580156108d8573d6000803e3d6000fd5b505050506040513d601f19601f820116820180604052508101906108fc9190612aa4565b90506000600b6000848152602001908152602001600020549050816001600160a01b03166323b872dd86600260009054906101000a90046001600160a01b03166001600160a01b03166311ce406d6040518163ffffffff1660e01b815260040160206040518083038186803b15801561097457600080fd5b505afa158015610988573d6000803e3d6000fd5b505050506040513d601f19601f820116820180604052508101906109ac9190612aa4565b6040516001600160e01b031960e085901b1681526001600160a01b0392831660048201529116602482015260448101849052606401602060405180830381600087803b1580156109fb57600080fd5b505af1158015610a0f573d6000803e3d6000fd5b505050506040513d601f19601f82011682018060405250810190610a339190612a6e565b610a7f5760405162461bcd60e51b815260206004820152601c60248201527f4c6f6262794d616e616765723a206e6f7420656e6f756768206665650000000060448201526064016107c8565b610a8885612191565b6001600160a01b03851660008181526007602081815260408084208054870190558c8452600a90915282206003810180546001600160a01b03191690941790935542920191909155610ada8986611f4c565b9050610ae581612037565b60008a8152600d602090815260408083206001600160a01b038a1684528252918290209290925580518983028181018401909252898152610b439290918b918b91829185019084908082843760009201919091525061203792505050565b60008a8152600d602090815260408083206001600160a01b038b168452909152812091909155600354610b799084026064612206565b60008b8152600a60208181526040808420909201849055888352600c90528082205490516348e8c1d360e01b81529293506001600160a01b03169182906348e8c1d390610bce9087908f908f90600401612ac1565b60206040518083038186803b158015610be657600080fd5b505afa158015610bfa573d6000803e3d6000fd5b505050506040513d601f19601f82011682018060405250810190610c1e9190612ae7565b905080600a60008e815260200190815260200160002060080181905550610c898c82868e8e80806020026020016040519081016040528093929190818152602001838360200280828437600081840152601f19601f820116905080830192505050505050508d61221f565b600081600114610c995789610c9b565b885b9050866001600160a01b03166323b872dd600260009054906101000a90046001600160a01b03166001600160a01b03166311ce406d6040518163ffffffff1660e01b815260040160206040518083038186803b158015610cfa57600080fd5b505afa158015610d0e573d6000803e3d6000fd5b505050506040513d601f19601f82011682018060405250810190610d329190612aa4565b6040516001600160e01b031960e084901b1681526001600160a01b039182166004820152908416602482015260448101879052606401602060405180830381600087803b158015610d8257600080fd5b505af1158015610d96573d6000803e3d6000fd5b505050506040513d601f19601f82011682018060405250810190610dba9190612a6e565b506001600160a01b038116600090815260086020526040902054840160086000836001600160a01b03166001600160a01b0316815260200190815260200160002081905550896001600160a01b0316896001600160a01b03168e7fc77dc6cd4b51c8efc4af40a582ca4cf229fda505a830b4486b200ddcbdb1383f60405160405180910390a450505050505050505050505050565b6000818152600a602052604081206002810154600390910154606091839183916001600160a01b03908116911681610e878882611f4c565b82610e928a85611f4c565b955095509550955050509193509193565b6060600060015b6001548111610f30576000818152600a6020526040902060070154158015610ee257506000818152600a602052604090206005015484145b8015610f0b57506000818152600a60205260409020600201546001600160a01b03868116911614155b15610f1e5781610f1a81612b16565b9250505b80610f2881612b16565b915050610eaa565b506000808267ffffffffffffffff811115610f4d57610f4d612944565b604051908082528060200260200182016040528015610f76578160200160208202803683370190505b50905060015b6001548111611020576000818152600a6020526040902060070154158015610fb457506000818152600a602052604090206005015486145b8015610fdd57506000818152600a60205260409020600201546001600160a01b03888116911614155b1561100e5780828481518110610ff557610ff5612b31565b60209081029190910101528261100a81612b16565b9350505b8061101881612b16565b915050610f7c565b5095945050505050565b6000546001600160a01b031633146110545760405162461bcd60e51b81526004016107c890612b47565b600355565b6000546001600160a01b031633146110835760405162461bcd60e51b81526004016107c890612b47565b600280546001600160a01b0319166001600160a01b0392909216919091179055565b6060600060015b600154811161110a576000818152600a6020526040902060070154158015906110e557506000818152600a602052604090206005015484145b156110f857816110f481612b16565b9250505b8061110281612b16565b9150506110ac565b506000808267ffffffffffffffff81111561112757611127612944565b604051908082528060200260200182016040528015611150578160200160208202803683370190505b50905060015b60015481116111d2576000818152600a60205260409020600701541580159061118f57506000818152600a602052604090206005015486145b156111c057808284815181106111a7576111a7612b31565b6020908102919091010152826111bc81612b16565b9350505b806111ca81612b16565b915050611156565b50949350505050565b6060600060015b6001548111611267576000818152600a602052604090206007015415801561121a57506000818152600a602052604090206005015484145b801561124257506000818152600a60205260409020600201546001600160a01b038681169116145b15611255578161125181612b16565b9250505b8061125f81612b16565b9150506111e2565b506000808267ffffffffffffffff81111561128457611284612944565b6040519080825280602002602001820160405280156112ad578160200160208202803683370190505b50905060015b6001548111611020576000818152600a60205260409020600701541580156112eb57506000818152600a602052604090206005015486145b801561131357506000818152600a60205260409020600201546001600160a01b038881169116145b15611344578082848151811061132b5761132b612b31565b60209081029190910101528261134081612b16565b9350505b8061134e81612b16565b9150506112b3565b6000546001600160a01b031633146113805760405162461bcd60e51b81526004016107c890612b47565b6000918252600c602052604090912080546001600160a01b0319166001600160a01b03909216919091179055565b6000546001600160a01b031633146113d85760405162461bcd60e51b81526004016107c890612b47565b6113e26000612422565b565b6060600060015b6001548111611497576000818152600a60205260409020600701541580159061142457506000818152600a602052604090206005015484145b801561147257506000818152600a60205260409020600201546001600160a01b038681169116148061147257506000818152600a60205260409020600301546001600160a01b038681169116145b15611485578161148181612b16565b9250505b8061148f81612b16565b9150506113eb565b506000808267ffffffffffffffff8111156114b4576114b4612944565b6040519080825280602002602001820160405280156114dd578160200160208202803683370190505b50905060015b6001548111611020576000818152600a60205260409020600701541580159061151c57506000818152600a602052604090206005015486145b801561156a57506000818152600a60205260409020600201546001600160a01b038881169116148061156a57506000818152600a60205260409020600301546001600160a01b038881169116145b1561159b578082848151811061158257611582612b31565b60209081029190910101528261159781612b16565b9350505b806115a581612b16565b9150506114e3565b6000546001600160a01b031633146115d75760405162461bcd60e51b81526004016107c890612b47565b6000918252600b602052604090912055565b6000838152600b602052604090819020546002549151630152368f60e01b815233926001600160a01b031690630152368f9061162d90879087908790600401612a42565b60206040518083038186803b15801561164557600080fd5b505afa158015611659573d6000803e3d6000fd5b505050506040513d601f19601f8201168201806040525081019061167d9190612a6e565b5060025460405163b7601a1560e01b81526001600160a01b039091169063b7601a15906116b09087908790600401612a90565b60206040518083038186803b1580156116c857600080fd5b505afa1580156116dc573d6000803e3d6000fd5b505050506040513d601f19601f820116820180604052508101906117009190612a6e565b5060025460408051637e062a3560e11b815290516000926001600160a01b03169163fc0c546a916004808301926020929190829003018186803b15801561174657600080fd5b505afa15801561175a573d6000803e3d6000fd5b505050506040513d601f19601f8201168201806040525081019061177e9190612aa4565b90508584146117cf5760405162461bcd60e51b815260206004820152601e60248201527f4c6f6262794d616e616765723a2077726f6e6720706172616d6574657273000060448201526064016107c8565b6000821161182a5760405162461bcd60e51b815260206004820152602260248201527f4c6f6262794d616e616765723a2077726f6e67206c6f62627920636170616369604482015261747960f01b60648201526084016107c8565b806001600160a01b03166323b872dd84600260009054906101000a90046001600160a01b03166001600160a01b03166311ce406d6040518163ffffffff1660e01b815260040160206040518083038186803b15801561188857600080fd5b505afa15801561189c573d6000803e3d6000fd5b505050506040513d601f19601f820116820180604052508101906118c09190612aa4565b6040516001600160e01b031960e085901b1681526001600160a01b0392831660048201529116602482015260448101859052606401602060405180830381600087803b15801561190f57600080fd5b505af1158015611923573d6000803e3d6000fd5b505050506040513d601f19601f820116820180604052508101906119479190612a6e565b6119935760405162461bcd60e51b815260206004820152601c60248201527f4c6f6262794d616e616765723a206e6f7420656e6f756768206665650000000060448201526064016107c8565b61199c83612191565b6001600160a01b03831660009081526007602052604090205482016001600160a01b038416600090815260076020526040812091909155600180540190508060018190555060006040518061016001604052808b81526020018a8152602001866001600160a01b0316815260200160006001600160a01b0316815260200183815260200189815260200142815260200160008152602001600081526020018581526020016000815250905080600a6000848152602001908152602001600020600082015181600001556020820151816001015560408201518160020160006101000a8154816001600160a01b0302191690836001600160a01b0316021790555060608201518160030160006101000a8154816001600160a01b0302191690836001600160a01b031602179055506080820151816004015560a0820151816005015560c0820151816006015560e082015181600701556101008201518160080155610120820151816009015561014082015181600a015590505060005b86811015611bf457878782818110611b3257611b32612b31565b60008681526009602090815260408083206001600160a01b03808e168552908352818420888552835292209202939093013590555060025416634239ca30898984818110611b8257611b82612b31565b905060200201356040518263ffffffff1660e01b8152600401611ba791815260200190565b600060405180830381600087803b158015611bc157600080fd5b505af1158015611bd5573d6000803e3d6000fd5b50505050611bed60018261220290919063ffffffff16565b9050611b18565b5050505050505050505050565b6000804442336000356001600160e01b0319165a6040805160208101969096528501939093526bffffffffffffffffffffffff19606092831b16918401919091526001600160e01b031916607483015260788201526098810185905260b8810184905260d80160408051601f198184030181529190528051602090910120905083611c8c8185612b7c565b611c97906001612b93565b611ca19083612bc1565b611cab9190612b93565b949350505050565b60608167ffffffffffffffff811115611cce57611cce612944565b604051908082528060200260200182016040528015611d0157816020015b6060815260200190600190039081611cec5790505b50905060005b82811015611da157611d7130858584818110611d2557611d25612b31565b9050602002810190611d379190612be3565b8080601f01602080910402602001604051908101604052809392919081815260200183838082843760009201919091525061247292505050565b828281518110611d8357611d83612b31565b60200260200101819052508080611d9990612b16565b915050611d07565b5092915050565b600080600080600080600080611dbd89610e4f565b935093509350935060008060005b8551811015611f395760025486516000916001600160a01b03169063d5c1ed8a90899085908110611dfe57611dfe612b31565b60200260200101516040518263ffffffff1660e01b8152600401611e2491815260200190565b60206040518083038186803b158015611e3c57600080fd5b505afa158015611e50573d6000803e3d6000fd5b505050506040513d601f19601f82011682018060405250810190611e749190612ae7565b9384019390506001600160a01b03861615611f305760025485516000916001600160a01b03169063d5c1ed8a90889086908110611eb357611eb3612b31565b60200260200101516040518263ffffffff1660e01b8152600401611ed991815260200190565b60206040518083038186803b158015611ef157600080fd5b505afa158015611f05573d6000803e3d6000fd5b505050506040513d601f19601f82011682018060405250810190611f299190612ae7565b9390930192505b50600101611dcb565b50949a9099509197509295509350505050565b606060005b60008481526009602090815260408083206001600160a01b0387168452825280832084845290915290205415611f935780611f8b81612b16565b915050611f51565b60008167ffffffffffffffff811115611fae57611fae612944565b604051908082528060200260200182016040528015611fd7578160200160208202803683370190505b50905060005b828110156111d25760008681526009602090815260408083206001600160a01b03891684528252808320848452909152902054825183908390811061202457612024612b31565b6020908102919091010152600101611fdd565b60008060005b8351811015611da15760025484516120ec916001600160a01b03169063d5c1ed8a9087908590811061207157612071612b31565b60200260200101516040518263ffffffff1660e01b815260040161209791815260200190565b60206040518083038186803b1580156120af57600080fd5b505afa1580156120c3573d6000803e3d6000fd5b505050506040513d601f19601f820116820180604052508101906120e79190612ae7565b830190565b915060010161203d565b6000546001600160a01b031633146121205760405162461bcd60e51b81526004016107c890612b47565b6001600160a01b0381166121855760405162461bcd60e51b815260206004820152602660248201527f4f776e61626c653a206e6577206f776e657220697320746865207a65726f206160448201526564647265737360d01b60648201526084016107c8565b61218e81612422565b50565b6001600160a01b03811660009081526006602052604090205460ff1661218e5760048054600090815260056020908152604080832080546001600160a01b0319166001600160a01b038716908117909155835260069091529020805460ff1916600190811790915590540160045550565b0190565b600081838161221757612217612bab565b049392505050565b60005b835181101561241a5760025484516001600160a01b039091169063b0a04efa9086908490811061225457612254612b31565b6020026020010151876001146040518363ffffffff1660e01b81526004016122889291909182521515602082015260400190565b600060405180830381600087803b1580156122a257600080fd5b505af11580156122b6573d6000803e3d6000fd5b505060025485516001600160a01b03909116925063b0a04efa91508590849081106122e3576122e3612b31565b6020026020010151876002146040518363ffffffff1660e01b81526004016123179291909182521515602082015260400190565b600060405180830381600087803b15801561233157600080fd5b505af1158015612345573d6000803e3d6000fd5b505060025485516001600160a01b039091169250634239ca30915085908490811061237257612372612b31565b60200260200101516040518263ffffffff1660e01b815260040161239891815260200190565b600060405180830381600087803b1580156123b257600080fd5b505af11580156123c6573d6000803e3d6000fd5b505050508281815181106123dc576123dc612b31565b60209081029190910181015160008881526009835260408082206001600160a01b038716835284528082208583529093529190912055600101612222565b505050505050565b600080546001600160a01b038381166001600160a01b0319831681178455604051919092169283917f8be0079c531659141344cd1fd0a4f28419497f9722a3daafe3b4186f6b6457e09190a35050565b60606124978383604051806060016040528060278152602001612c5a6027913961249e565b9392505050565b60606001600160a01b0384163b6125065760405162461bcd60e51b815260206004820152602660248201527f416464726573733a2064656c65676174652063616c6c20746f206e6f6e2d636f6044820152651b9d1c9858dd60d21b60648201526084016107c8565b600080856001600160a01b0316856040516125219190612c2a565b600060405180830381855af49150503d806000811461255c576040519150601f19603f3d011682016040523d82523d6000602084013e612561565b606091505b509150915061257182828661257b565b9695505050505050565b6060831561258a575081612497565b82511561259a5782518084602001fd5b8160405162461bcd60e51b81526004016107c89190612c46565b60008083601f8401126125c657600080fd5b50813567ffffffffffffffff8111156125de57600080fd5b6020830191508360208260051b85010111156125f957600080fd5b9250929050565b60008060006040848603121561261557600080fd5b83359250602084013567ffffffffffffffff81111561263357600080fd5b61263f868287016125b4565b9497909650939450505050565b60006020828403121561265e57600080fd5b5035919050565b600081518084526020808501945080840160005b8381101561269557815187529582019590820190600101612679565b509495945050505050565b600060018060a01b038087168352608060208401526126c26080840187612665565b818616604085015283810360608501526126dc8186612665565b98975050505050505050565b6001600160a01b038116811461218e57600080fd5b60008060006060848603121561271257600080fd5b833592506020840135612724816126e8565b929592945050506040919091013590565b6000806040838503121561274857600080fd5b8235612753816126e8565b946020939093013593505050565b6020815260006124976020830184612665565b60006020828403121561278657600080fd5b8135612497816126e8565b600080604083850312156127a457600080fd5b8235915060208301356127b6816126e8565b809150509250929050565b600080604083850312156127d457600080fd5b50508035926020909101359150565b6000806000806000608086880312156127fb57600080fd5b853594506020860135935060408601359250606086013567ffffffffffffffff81111561282757600080fd5b612833888289016125b4565b969995985093965092949392505050565b6000806020838503121561285757600080fd5b823567ffffffffffffffff81111561286e57600080fd5b61287a858286016125b4565b90969095509350505050565b60005b838110156128a1578181015183820152602001612889565b838111156128b0576000848401525b50505050565b600081518084526128ce816020860160208601612886565b601f01601f19169290920160200192915050565b6000602080830181845280855180835260408601915060408160051b870101925083870160005b8281101561293757603f198886030184526129258583516128b6565b94509285019290850190600101612909565b5092979650505050505050565b634e487b7160e01b600052604160045260246000fd5b6000602080838503121561296d57600080fd5b823567ffffffffffffffff8082111561298557600080fd5b818501915085601f83011261299957600080fd5b8135818111156129ab576129ab612944565b8060051b604051601f19603f830116810181811085821117156129d0576129d0612944565b6040529182528482019250838101850191888311156129ee57600080fd5b938501935b828510156126dc578435845293850193928501926129f3565b81835260006001600160fb1b03831115612a2557600080fd5b8260051b8083602087013760009401602001938452509192915050565b604081526000612a56604083018587612a0c565b905060018060a01b0383166020830152949350505050565b600060208284031215612a8057600080fd5b8151801515811461249757600080fd5b602081526000611cab602083018486612a0c565b600060208284031215612ab657600080fd5b8151612497816126e8565b604081526000612ad46040830186612665565b8281036020840152612571818587612a0c565b600060208284031215612af957600080fd5b5051919050565b634e487b7160e01b600052601160045260246000fd5b6000600019821415612b2a57612b2a612b00565b5060010190565b634e487b7160e01b600052603260045260246000fd5b6020808252818101527f4f776e61626c653a2063616c6c6572206973206e6f7420746865206f776e6572604082015260600190565b600082821015612b8e57612b8e612b00565b500390565b60008219821115612ba657612ba6612b00565b500190565b634e487b7160e01b600052601260045260246000fd5b600082612bde57634e487b7160e01b600052601260045260246000fd5b500690565b6000808335601e19843603018112612bfa57600080fd5b83018035915067ffffffffffffffff821115612c1557600080fd5b6020019150368190038213156125f957600080fd5b60008251612c3c818460208701612886565b9190910192915050565b60208152600061249760208301846128b656fe416464726573733a206c6f772d6c6576656c2064656c65676174652063616c6c206661696c6564a2646970667358221220caf97e88ce0d7aa55839961c67e2197b4fd273acc64d38b61babce35f262f3a364736f6c63430008090033",
  "linkReferences": {},
  "deployedLinkReferences": {}
}