{
  "_format": "hh-sol-artifact-1",
  "contractName": "LobbyBattle",
  "sourceName": "contracts/game/LobbyBattle.sol",
  "abi": [
    {
      "inputs": [],
      "stateMutability": "nonpayable",
      "type": "constructor"
    },
    {
      "anonymous": false,
      "inputs": [
        {
          "indexed": true,
          "internalType": "uint256",
          "name": "lobbyId",
          "type": "uint256"
        },
        {
          "indexed": true,
          "internalType": "address",
          "name": "host",
          "type": "address"
        },
        {
          "indexed": true,
          "internalType": "address",
          "name": "client",
          "type": "address"
        }
      ],
      "name": "BattleFinished",
      "type": "event"
    },
    {
      "anonymous": false,
      "inputs": [
        {
          "indexed": true,
          "internalType": "address",
          "name": "previousOwner",
          "type": "address"
        },
        {
          "indexed": true,
          "internalType": "address",
          "name": "newOwner",
          "type": "address"
        }
      ],
      "name": "OwnershipTransferred",
      "type": "event"
    },
    {
      "inputs": [
        {
          "internalType": "bytes32",
          "name": "name",
          "type": "bytes32"
        },
        {
          "internalType": "bytes32",
          "name": "avatar",
          "type": "bytes32"
        },
        {
          "internalType": "uint256",
          "name": "capacity",
          "type": "uint256"
        },
        {
          "internalType": "uint256[]",
          "name": "heroIds",
          "type": "uint256[]"
        }
      ],
      "name": "createLobby",
      "outputs": [],
      "stateMutability": "nonpayable",
      "type": "function"
    },
    {
      "inputs": [
        {
          "internalType": "address",
          "name": "myAddr",
          "type": "address"
        },
        {
          "internalType": "uint256",
          "name": "capacity",
          "type": "uint256"
        }
      ],
      "name": "getActiveLobbies",
      "outputs": [
        {
          "internalType": "uint256[]",
          "name": "",
          "type": "uint256[]"
        }
      ],
      "stateMutability": "view",
      "type": "function"
    },
    {
      "inputs": [
        {
          "internalType": "uint256",
          "name": "capacity",
          "type": "uint256"
        }
      ],
      "name": "getAllHistory",
      "outputs": [
        {
          "internalType": "uint256[]",
          "name": "",
          "type": "uint256[]"
        }
      ],
      "stateMutability": "view",
      "type": "function"
    },
    {
      "inputs": [
        {
          "internalType": "uint256[]",
          "name": "heroes",
          "type": "uint256[]"
        }
      ],
      "name": "getHeroesPower",
      "outputs": [
        {
          "internalType": "uint256",
          "name": "",
          "type": "uint256"
        }
      ],
      "stateMutability": "view",
      "type": "function"
    },
    {
      "inputs": [
        {
          "internalType": "uint256",
          "name": "lobbyId",
          "type": "uint256"
        }
      ],
      "name": "getLobbyHeroes",
      "outputs": [
        {
          "internalType": "address",
          "name": "",
          "type": "address"
        },
        {
          "internalType": "uint256[]",
          "name": "",
          "type": "uint256[]"
        },
        {
          "internalType": "address",
          "name": "",
          "type": "address"
        },
        {
          "internalType": "uint256[]",
          "name": "",
          "type": "uint256[]"
        }
      ],
      "stateMutability": "view",
      "type": "function"
    },
    {
      "inputs": [
        {
          "internalType": "uint256",
          "name": "lobbyId",
          "type": "uint256"
        }
      ],
      "name": "getLobbyPower",
      "outputs": [
        {
          "internalType": "address",
          "name": "",
          "type": "address"
        },
        {
          "internalType": "uint256",
          "name": "",
          "type": "uint256"
        },
        {
          "internalType": "address",
          "name": "",
          "type": "address"
        },
        {
          "internalType": "uint256",
          "name": "",
          "type": "uint256"
        }
      ],
      "stateMutability": "view",
      "type": "function"
    },
    {
      "inputs": [
        {
          "internalType": "address",
          "name": "myAddr",
          "type": "address"
        },
        {
          "internalType": "uint256",
          "name": "capacity",
          "type": "uint256"
        }
      ],
      "name": "getMyHistory",
      "outputs": [
        {
          "internalType": "uint256[]",
          "name": "",
          "type": "uint256[]"
        }
      ],
      "stateMutability": "view",
      "type": "function"
    },
    {
      "inputs": [
        {
          "internalType": "address",
          "name": "myAddr",
          "type": "address"
        },
        {
          "internalType": "uint256",
          "name": "capacity",
          "type": "uint256"
        }
      ],
      "name": "getMyLobbies",
      "outputs": [
        {
          "internalType": "uint256[]",
          "name": "",
          "type": "uint256[]"
        }
      ],
      "stateMutability": "view",
      "type": "function"
    },
    {
      "inputs": [
        {
          "internalType": "uint256",
          "name": "lobbyId",
          "type": "uint256"
        },
        {
          "internalType": "address",
          "name": "player",
          "type": "address"
        }
      ],
      "name": "getPlayerHeroesOnLobby",
      "outputs": [
        {
          "internalType": "uint256[]",
          "name": "",
          "type": "uint256[]"
        }
      ],
      "stateMutability": "view",
      "type": "function"
    },
    {
      "inputs": [],
      "name": "heroManager",
      "outputs": [
        {
          "internalType": "contract IHeroManager",
          "name": "",
          "type": "address"
        }
      ],
      "stateMutability": "view",
      "type": "function"
    },
    {
      "inputs": [
        {
          "internalType": "uint256",
          "name": "lobbyId",
          "type": "uint256"
        },
        {
          "internalType": "uint256[]",
          "name": "heroIds",
          "type": "uint256[]"
        }
      ],
      "name": "joinLobby",
      "outputs": [],
      "stateMutability": "nonpayable",
      "type": "function"
    },
    {
      "inputs": [
        {
          "internalType": "uint256",
          "name": "",
          "type": "uint256"
        }
      ],
      "name": "lobbies",
      "outputs": [
        {
          "internalType": "bytes32",
          "name": "name",
          "type": "bytes32"
        },
        {
          "internalType": "bytes32",
          "name": "avatar",
          "type": "bytes32"
        },
        {
          "internalType": "address",
          "name": "host",
          "type": "address"
        },
        {
          "internalType": "address",
          "name": "client",
          "type": "address"
        },
        {
          "internalType": "uint256",
          "name": "id",
          "type": "uint256"
        },
        {
          "internalType": "uint256",
          "name": "capacity",
          "type": "uint256"
        },
        {
          "internalType": "uint256",
          "name": "startedAt",
          "type": "uint256"
        },
        {
          "internalType": "uint256",
          "name": "finishedAt",
          "type": "uint256"
        },
        {
          "internalType": "uint256",
          "name": "winner",
          "type": "uint256"
        },
        {
          "internalType": "uint256",
          "name": "fee",
          "type": "uint256"
        },
        {
          "internalType": "uint256",
          "name": "rewards",
          "type": "uint256"
        }
      ],
      "stateMutability": "view",
      "type": "function"
    },
    {
      "inputs": [
        {
          "internalType": "uint256",
          "name": "",
          "type": "uint256"
        }
      ],
      "name": "lobbyFees",
      "outputs": [
        {
          "internalType": "uint256",
          "name": "",
          "type": "uint256"
        }
      ],
      "stateMutability": "view",
      "type": "function"
    },
    {
      "inputs": [
        {
          "internalType": "uint256",
          "name": "",
          "type": "uint256"
        },
        {
          "internalType": "address",
          "name": "",
          "type": "address"
        },
        {
          "internalType": "uint256",
          "name": "",
          "type": "uint256"
        }
      ],
      "name": "lobbyHeroes",
      "outputs": [
        {
          "internalType": "uint256",
          "name": "",
          "type": "uint256"
        }
      ],
      "stateMutability": "view",
      "type": "function"
    },
    {
      "inputs": [
        {
          "internalType": "uint256",
          "name": "",
          "type": "uint256"
        },
        {
          "internalType": "address",
          "name": "",
          "type": "address"
        }
      ],
      "name": "lobbyHeroesCount",
      "outputs": [
        {
          "internalType": "uint256",
          "name": "",
          "type": "uint256"
        }
      ],
      "stateMutability": "view",
      "type": "function"
    },
    {
      "inputs": [
        {
          "internalType": "bytes[]",
          "name": "data",
          "type": "bytes[]"
        }
      ],
      "name": "multicall",
      "outputs": [
        {
          "internalType": "bytes[]",
          "name": "results",
          "type": "bytes[]"
        }
      ],
      "stateMutability": "nonpayable",
      "type": "function"
    },
    {
      "inputs": [],
      "name": "nft",
      "outputs": [
        {
          "internalType": "contract IERC721",
          "name": "",
          "type": "address"
        }
      ],
      "stateMutability": "view",
      "type": "function"
    },
    {
      "inputs": [],
      "name": "owner",
      "outputs": [
        {
          "internalType": "address",
          "name": "",
          "type": "address"
        }
      ],
      "stateMutability": "view",
      "type": "function"
    },
    {
      "inputs": [
        {
          "internalType": "address",
          "name": "",
          "type": "address"
        }
      ],
      "name": "playersFees",
      "outputs": [
        {
          "internalType": "uint256",
          "name": "",
          "type": "uint256"
        }
      ],
      "stateMutability": "view",
      "type": "function"
    },
    {
      "inputs": [
        {
          "internalType": "address",
          "name": "",
          "type": "address"
        }
      ],
      "name": "playersRewards",
      "outputs": [
        {
          "internalType": "uint256",
          "name": "",
          "type": "uint256"
        }
      ],
      "stateMutability": "view",
      "type": "function"
    },
    {
      "inputs": [
        {
          "internalType": "uint256",
          "name": "min",
          "type": "uint256"
        },
        {
          "internalType": "uint256",
          "name": "max",
          "type": "uint256"
        }
      ],
      "name": "random",
      "outputs": [
        {
          "internalType": "uint256",
          "name": "",
          "type": "uint256"
        }
      ],
      "stateMutability": "view",
      "type": "function"
    },
    {
      "inputs": [
        {
          "internalType": "address",
          "name": "",
          "type": "address"
        }
      ],
      "name": "registeredPlayers",
      "outputs": [
        {
          "internalType": "bool",
          "name": "",
          "type": "bool"
        }
      ],
      "stateMutability": "view",
      "type": "function"
    },
    {
      "inputs": [],
      "name": "renounceOwnership",
      "outputs": [],
      "stateMutability": "nonpayable",
      "type": "function"
    },
    {
      "inputs": [],
      "name": "rewardsPayeer",
      "outputs": [
        {
          "internalType": "address",
          "name": "",
          "type": "address"
        }
      ],
      "stateMutability": "view",
      "type": "function"
    },
    {
      "inputs": [
        {
          "internalType": "uint256",
          "name": "multiplier",
          "type": "uint256"
        }
      ],
      "name": "setBenefitMultiplier",
      "outputs": [],
      "stateMutability": "nonpayable",
      "type": "function"
    },
    {
      "inputs": [
        {
          "internalType": "address",
          "name": "hmAddr",
          "type": "address"
        }
      ],
      "name": "setHeroManager",
      "outputs": [],
      "stateMutability": "nonpayable",
      "type": "function"
    },
    {
      "inputs": [
        {
          "internalType": "uint256",
          "name": "capacity",
          "type": "uint256"
        },
        {
          "internalType": "uint256",
          "name": "fee",
          "type": "uint256"
        }
      ],
      "name": "setLobbyFee",
      "outputs": [],
      "stateMutability": "nonpayable",
      "type": "function"
    },
    {
      "inputs": [
        {
          "internalType": "address",
          "name": "payer",
          "type": "address"
        }
      ],
      "name": "setRewardsPayeer",
      "outputs": [],
      "stateMutability": "nonpayable",
      "type": "function"
    },
    {
      "inputs": [],
      "name": "token",
      "outputs": [
        {
          "internalType": "contract IERC20",
          "name": "",
          "type": "address"
        }
      ],
      "stateMutability": "view",
      "type": "function"
    },
    {
      "inputs": [],
      "name": "totalPlayers",
      "outputs": [
        {
          "internalType": "uint256",
          "name": "",
          "type": "uint256"
        }
      ],
      "stateMutability": "view",
      "type": "function"
    },
    {
      "inputs": [
        {
          "internalType": "address",
          "name": "newOwner",
          "type": "address"
        }
      ],
      "name": "transferOwnership",
      "outputs": [],
      "stateMutability": "nonpayable",
      "type": "function"
    },
    {
      "inputs": [
        {
          "internalType": "uint256",
          "name": "",
          "type": "uint256"
        }
      ],
      "name": "uniquePlayers",
      "outputs": [
        {
          "internalType": "address",
          "name": "",
          "type": "address"
        }
      ],
      "stateMutability": "view",
      "type": "function"
    },
    {
      "inputs": [
        {
          "internalType": "uint256[]",
          "name": "heroIds",
          "type": "uint256[]"
        },
        {
          "internalType": "address",
          "name": "owner",
          "type": "address"
        }
      ],
      "name": "validateHeroIds",
      "outputs": [
        {
          "internalType": "bool",
          "name": "",
          "type": "bool"
        }
      ],
      "stateMutability": "view",
      "type": "function"
    },
    {
      "inputs": [
        {
          "internalType": "address payable",
          "name": "recipient",
          "type": "address"
        }
      ],
      "name": "withdrawDustETH",
      "outputs": [],
      "stateMutability": "nonpayable",
      "type": "function"
    },
    {
      "stateMutability": "payable",
      "type": "receive"
    }
  ],
  "bytecode": "0x6080604052600280546001600160a01b03199081167351624b86523c95175d4b3d145f2ed9f884c683e2179091556003805482167328ee3e2826264b9c55fcdd122dfa93680916c9b817905560048054821673ef5a8af5148a53a4ef4749595fe44e3e08754b8b17905560058054909116730cca7943409260455ceef6be46c69b3fc808e24f17905560fa60065534801561009957600080fd5b506100a333610139565b600f60205269010f0cf064dd592000007f169f97de0d9a84d840042b17d3c6b9638b3d6fd9024c9eb0c7a306a17b49f88f5569054b40b1f852bda000007f45f76dafbbad695564362934e24d72eedc57f9fc1a65f39bca62176cc8296828556005600052690a968163f0a57b4000007f6bda57492eba051cb4a12a1e19df47c9755d78165341d4009b1d09b3f361620455610189565b600080546001600160a01b038381166001600160a01b0319831681178455604051919092169283917f8be0079c531659141344cd1fd0a4f28419497f9722a3daafe3b4186f6b6457e09190a35050565b61315d80620001996000396000f3fe6080604052600436106101fc5760003560e01c80637407fddd1161010d578063b97dcb22116100a0578063e4118fca1161006f578063e4118fca14610779578063ed697f3214610799578063f2fde38b146107b9578063f60cdcf6146107d9578063fc0c546a146107ef57600080fd5b8063b97dcb22146106df578063b9f2d520146106ff578063c8f942701461072c578063e393c2941461075957600080fd5b806394f69662116100dc57806394f696621461061d578063a9dd12251461063d578063ac9650d81461065d578063b12f5c571461068a57600080fd5b80637407fddd14610589578063833588cc146105a95780638da5cb5b146105c9578063930613fc146105e757600080fd5b80633b8a7a13116101905780634d5f80ad1161015f5780634d5f80ad146104105780636bd2dc85146104305780636e8fb4c61461045d578063715018a61461053c57806372c90ca61461055157600080fd5b80633b8a7a131461038057806345efd785146103a057806347ccca02146103c05780634bafce22146103e057600080fd5b806316fc989c116101cc57806316fc989c146102c75780631deb8c441461031357806328b11d2314610340578063378cc3471461036057600080fd5b8062c8bd7e146102085780630152368f1461022a57806307a48c191461025f57806311ce406d1461028f57600080fd5b3661020357005b600080fd5b34801561021457600080fd5b50610228610223366004612a60565b61080f565b005b34801561023657600080fd5b5061024a610245366004612ac0565b61101e565b60405190151581526020015b60405180910390f35b34801561026b57600080fd5b5061027f61027a366004612b16565b61113b565b6040516102569493929190612b6a565b34801561029b57600080fd5b506005546102af906001600160a01b031681565b6040516001600160a01b039091168152602001610256565b3480156102d357600080fd5b506103056102e2366004612bb2565b600c60209081526000938452604080852082529284528284209052825290205481565b604051908152602001610256565b34801561031f57600080fd5b5061033361032e366004612bea565b61118f565b6040516102569190612c16565b34801561034c57600080fd5b5061022861035b366004612b16565b611317565b34801561036c57600080fd5b5061022861037b366004612c29565b611346565b34801561038c57600080fd5b506002546102af906001600160a01b031681565b3480156103ac57600080fd5b506103336103bb366004612b16565b611392565b3480156103cc57600080fd5b506004546102af906001600160a01b031681565b3480156103ec57600080fd5b5061024a6103fb366004612c29565b60096020526000908152604090205460ff1681565b34801561041c57600080fd5b5061033361042b366004612bea565b6114c7565b34801561043c57600080fd5b5061030561044b366004612c29565b600b6020526000908152604090205481565b34801561046957600080fd5b506104dd610478366004612b16565b600e60205260009081526040902080546001820154600283015460038401546004850154600586015460068701546007880154600889015460098a0154600a909a0154989997986001600160a01b03978816989790961696949593949293919290918b565b604080519b8c5260208c019a909a526001600160a01b03988916998b0199909952969095166060890152608088019390935260a087019190915260c086015260e085015261010084015261012083015261014082015261016001610256565b34801561054857600080fd5b50610228611641565b34801561055d57600080fd5b5061030561056c366004612c46565b600d60209081526000928352604080842090915290825290205481565b34801561059557600080fd5b506103336105a4366004612bea565b611677565b3480156105b557600080fd5b506102286105c4366004612c76565b61183f565b3480156105d557600080fd5b506000546001600160a01b03166102af565b3480156105f357600080fd5b506102af610602366004612b16565b6008602052600090815260409020546001600160a01b031681565b34801561062957600080fd5b50610228610638366004612c98565b61187b565b34801561064957600080fd5b50610305610658366004612c76565b611c9e565b34801561066957600080fd5b5061067d610678366004612cf8565b611d2b565b6040516102569190612d95565b34801561069657600080fd5b506106aa6106a5366004612b16565b611e1f565b60405161025694939291906001600160a01b039485168152602081019390935292166040820152606081019190915260800190565b3480156106eb57600080fd5b506103336106fa366004612c46565b611fde565b34801561070b57600080fd5b5061030561071a366004612b16565b600f6020526000908152604090205481565b34801561073857600080fd5b50610305610747366004612c29565b600a6020526000908152604090205481565b34801561076557600080fd5b50610228610774366004612c29565b6120af565b34801561078557600080fd5b50610228610794366004612c29565b612112565b3480156107a557600080fd5b506103056107b4366004612e0d565b61215e565b3480156107c557600080fd5b506102286107d4366004612c29565b61222a565b3480156107e557600080fd5b5061030560075481565b3480156107fb57600080fd5b506003546102af906001600160a01b031681565b61081a82823361101e565b506000838152600e602052604090206004015483146108805760405162461bcd60e51b815260206004820181905260248201527f4c6f626279426174746c653a206c6f62627920646f65736e277420657869737460448201526064015b60405180910390fd5b6000838152600e602052604090206005015481146108e05760405162461bcd60e51b815260206004820152601960248201527f4c6f626279426174746c653a2077726f6e67206865726f6573000000000000006044820152606401610877565b6000838152600e60205260409020600701541561093f5760405162461bcd60e51b815260206004820152601d60248201527f4c6f626279426174746c653a20616c72656164792066696e69736865640000006044820152606401610877565b6000838152600e602090815260408083206005908101548452600f9092529182902054600354915492516323b872dd60e01b81523360048201526001600160a01b039384166024820152604481018290529092909116906323b872dd90606401602060405180830381600087803b1580156109b957600080fd5b505af11580156109cd573d6000803e3d6000fd5b505050506040513d601f19601f820116820180604052508101906109f19190612ebe565b610a3d5760405162461bcd60e51b815260206004820152601b60248201527f4c6f626279426174746c653a206e6f7420656e6f7567682066656500000000006044820152606401610877565b3360009081526009602052604090205460ff16610aaa5760078054600090815260086020908152604080832080546001600160a01b03191633908117909155835260099091528120805460ff19166001908117909155825490929190610aa4908490612ef6565b90915550505b336000908152600a602052604081208054839290610ac9908490612ef6565b90915550506000848152600e602052604081206003810180546001600160a01b0319163317905542600790910155826001600160401b03811115610b0f57610b0f612df7565b604051908082528060200260200182016040528015610b38578160200160208202803683370190505b50905060005b83811015610be257848482818110610b5857610b58612f0e565b6000898152600c60209081526040808320338452808352818420888552835281842094830296909601359093558a8252600e8152828220600201546001600160a01b03168252938452818120858252909352909120548351909150839083908110610bc557610bc5612f0e565b602090810291909101015280610bda81612f24565b915050610b3e565b506000858152600d602090815260408083203384528252808320869055600654888452600e8352818420600501548452600f90925290912054606491610c2791612f3f565b610c319190612f74565b6000868152600e60205260409020600a8101919091556005015460011415610ec457610c90818585808060200260200160405190810160405280939291908181526020018383602002808284376000920191909152506122c592505050565b6000868152600e6020526040902060080181905560011415610dc25760025460405163852eebff60e01b81526001600160a01b039091169063852eebff90610cdf908490600190600401612f88565b600060405180830381600087803b158015610cf957600080fd5b505af1158015610d0d573d6000803e3d6000fd5b505060025460405163852eebff60e01b81526001600160a01b03909116925063852eebff9150610d469087908790600090600401612fac565b600060405180830381600087803b158015610d6057600080fd5b505af1158015610d74573d6000803e3d6000fd5b5050506000868152600e60209081526040808320600a8101546002909101546001600160a01b03168452600b909252822080549193509190610db7908490612ef6565b90915550610ec49050565b60025460405163852eebff60e01b81526001600160a01b039091169063852eebff90610df5908490600090600401612f88565b600060405180830381600087803b158015610e0f57600080fd5b505af1158015610e23573d6000803e3d6000fd5b505060025460405163852eebff60e01b81526001600160a01b03909116925063852eebff9150610e5c9087908790600190600401612fac565b600060405180830381600087803b158015610e7657600080fd5b505af1158015610e8a573d6000803e3d6000fd5b5050506000868152600e60209081526040808320600a0154338452600b909252822080549193509190610ebe908490612ef6565b90915550505b6003546005546000878152600e60205260409020600801546001600160a01b03928316926323b872dd921690600114610f17576000888152600e60205260409020600301546001600160a01b0316610f33565b6000888152600e60205260409020600201546001600160a01b03165b6000898152600e602052604090819020600a0154905160e085901b6001600160e01b03191681526001600160a01b0393841660048201529290911660248301526044820152606401602060405180830381600087803b158015610f9557600080fd5b505af1158015610fa9573d6000803e3d6000fd5b505050506040513d601f19601f82011682018060405250810190610fcd9190612ebe565b506000858152600e602052604080822060020154905133926001600160a01b039092169188917fc77dc6cd4b51c8efc4af40a582ca4cf229fda505a830b4486b200ddcbdb1383f9190a45050505050565b6000805b8381101561112e576004546001600160a01b038085169116636352211e87878581811061105157611051612f0e565b905060200201356040518263ffffffff1660e01b815260040161107691815260200190565b60206040518083038186803b15801561108e57600080fd5b505afa1580156110a2573d6000803e3d6000fd5b505050506040513d601f19601f820116820180604052508101906110c69190612ff5565b6001600160a01b03161461111c5760405162461bcd60e51b815260206004820152601b60248201527f4c6f626279426174746c653a206e6f74206865726f206f776e657200000000006044820152606401610877565b8061112681612f24565b915050611022565b50600190505b9392505050565b6000818152600e602052604081206002810154600390910154606091839183916001600160a01b039081169116816111738882611fde565b8261117e8a85611fde565b955095509550955050509193509193565b6060600060015b600154811161121c576000818152600e60205260409020600701541580156111ce57506000818152600e602052604090206005015484145b80156111f757506000818152600e60205260409020600201546001600160a01b03868116911614155b1561120a578161120681612f24565b9250505b8061121481612f24565b915050611196565b50600080826001600160401b0381111561123857611238612df7565b604051908082528060200260200182016040528015611261578160200160208202803683370190505b50905060015b600154811161130b576000818152600e602052604090206007015415801561129f57506000818152600e602052604090206005015486145b80156112c857506000818152600e60205260409020600201546001600160a01b03888116911614155b156112f957808284815181106112e0576112e0612f0e565b6020908102919091010152826112f581612f24565b9350505b8061130381612f24565b915050611267565b50925050505b92915050565b6000546001600160a01b031633146113415760405162461bcd60e51b815260040161087790613012565b600655565b6000546001600160a01b031633146113705760405162461bcd60e51b815260040161087790613012565b600280546001600160a01b0319166001600160a01b0392909216919091179055565b6060600060015b60015481116113f7576000818152600e6020526040902060070154158015906113d257506000818152600e602052604090206005015484145b156113e557816113e181612f24565b9250505b806113ef81612f24565b915050611399565b50600080826001600160401b0381111561141357611413612df7565b60405190808252806020026020018201604052801561143c578160200160208202803683370190505b50905060015b60015481116114be576000818152600e60205260409020600701541580159061147b57506000818152600e602052604090206005015486145b156114ac578082848151811061149357611493612f0e565b6020908102919091010152826114a881612f24565b9350505b806114b681612f24565b915050611442565b50949350505050565b6060600060015b6001548111611553576000818152600e602052604090206007015415801561150657506000818152600e602052604090206005015484145b801561152e57506000818152600e60205260409020600201546001600160a01b038681169116145b15611541578161153d81612f24565b9250505b8061154b81612f24565b9150506114ce565b50600080826001600160401b0381111561156f5761156f612df7565b604051908082528060200260200182016040528015611598578160200160208202803683370190505b50905060015b600154811161130b576000818152600e60205260409020600701541580156115d657506000818152600e602052604090206005015486145b80156115fe57506000818152600e60205260409020600201546001600160a01b038881169116145b1561162f578082848151811061161657611616612f0e565b60209081029190910101528261162b81612f24565b9350505b8061163981612f24565b91505061159e565b6000546001600160a01b0316331461166b5760405162461bcd60e51b815260040161087790613012565b611675600061288f565b565b6060600060015b600154811161172a576000818152600e6020526040902060070154158015906116b757506000818152600e602052604090206005015484145b801561170557506000818152600e60205260409020600201546001600160a01b038681169116148061170557506000818152600e60205260409020600301546001600160a01b038681169116145b15611718578161171481612f24565b9250505b8061172281612f24565b91505061167e565b50600080826001600160401b0381111561174657611746612df7565b60405190808252806020026020018201604052801561176f578160200160208202803683370190505b50905060015b600154811161130b576000818152600e6020526040902060070154158015906117ae57506000818152600e602052604090206005015486145b80156117fc57506000818152600e60205260409020600201546001600160a01b03888116911614806117fc57506000818152600e60205260409020600301546001600160a01b038881169116145b1561182d578082848151811061181457611814612f0e565b60209081029190910101528261182981612f24565b9350505b8061183781612f24565b915050611775565b6000546001600160a01b031633146118695760405162461bcd60e51b815260040161087790613012565b6000918252600f602052604090912055565b61188682823361101e565b508281146118d65760405162461bcd60e51b815260206004820152601d60248201527f4c6f626279426174746c653a2077726f6e6720706172616d65746572730000006044820152606401610877565b6000838152600f602052604090205461193b5760405162461bcd60e51b815260206004820152602160248201527f4c6f626279426174746c653a2077726f6e67206c6f62627920636170616369746044820152607960f81b6064820152608401610877565b6003546005546000858152600f6020526040908190205490516323b872dd60e01b81523360048201526001600160a01b03928316602482015260448101919091529116906323b872dd90606401602060405180830381600087803b1580156119a257600080fd5b505af11580156119b6573d6000803e3d6000fd5b505050506040513d601f19601f820116820180604052508101906119da9190612ebe565b611a265760405162461bcd60e51b815260206004820152601b60248201527f4c6f626279426174746c653a206e6f7420656e6f7567682066656500000000006044820152606401610877565b3360009081526009602052604090205460ff16611a935760078054600090815260086020908152604080832080546001600160a01b03191633908117909155835260099091528120805460ff19166001908117909155825490929190611a8d908490612ef6565b90915550505b6000838152600f6020908152604080832054338452600a9092528220805491929091611ac0908490612ef6565b909155505060018054810190556000611ad860015490565b90506000604051806101600160405280888152602001878152602001336001600160a01b0316815260200160006001600160a01b031681526020018381526020018681526020014281526020016000815260200160008152602001600f60008881526020019081526020016000205481526020016000815250905080600e6000848152602001908152602001600020600082015181600001556020820151816001015560408201518160020160006101000a8154816001600160a01b0302191690836001600160a01b0316021790555060608201518160030160006101000a8154816001600160a01b0302191690836001600160a01b031602179055506080820151816004015560a0820151816005015560c0820151816006015560e082015181600701556101008201518160080155610120820151816009015561014082015181600a015590505060005b83811015611c7c57848482818110611c3e57611c3e612f0e565b6000868152600c6020908152604080832033845282528083208784528252909120910292909201359091555080611c7481612f24565b915050611c24565b50506000908152600d6020908152604080832033845290915290205550505050565b60408051446020820152429181019190915233606090811b6bffffffffffffffffffffffff1916908201526074810183905260948101829052600090819060b40160408051601f198184030181529190528051602090910120905083611d048185613047565b611d0f906001612ef6565b611d19908361305e565b611d239190612ef6565b949350505050565b6060816001600160401b03811115611d4557611d45612df7565b604051908082528060200260200182016040528015611d7857816020015b6060815260200190600190039081611d635790505b50905060005b82811015611e1857611de830858584818110611d9c57611d9c612f0e565b9050602002810190611dae9190613072565b8080601f0160208091040260200160405190810160405280939291908181526020018383808284376000920191909152506128df92505050565b828281518110611dfa57611dfa612f0e565b60200260200101819052508080611e1090612f24565b915050611d7e565b5092915050565b600080600080600080600080611e348961113b565b935093509350935060008060005b8551811015611fcb5760025486516000916001600160a01b03169063d5c1ed8a90899085908110611e7557611e75612f0e565b60200260200101516040518263ffffffff1660e01b8152600401611e9b91815260200190565b60206040518083038186803b158015611eb357600080fd5b505afa158015611ec7573d6000803e3d6000fd5b505050506040513d601f19601f82011682018060405250810190611eeb91906130b8565b9050611ef78185612ef6565b93506001600160a01b03861615611fb85760025485516000916001600160a01b03169063d5c1ed8a90889086908110611f3257611f32612f0e565b60200260200101516040518263ffffffff1660e01b8152600401611f5891815260200190565b60206040518083038186803b158015611f7057600080fd5b505afa158015611f84573d6000803e3d6000fd5b505050506040513d601f19601f82011682018060405250810190611fa891906130b8565b9050611fb48185612ef6565b9350505b5080611fc381612f24565b915050611e42565b50949a9099509197509295509350505050565b6000828152600d602090815260408083206001600160a01b0385168452909152812054606091816001600160401b0381111561201c5761201c612df7565b604051908082528060200260200182016040528015612045578160200160208202803683370190505b50905060005b828110156114be576000868152600c602090815260408083206001600160a01b03891684528252808320848452909152902054825183908390811061209257612092612f0e565b6020908102919091010152806120a781612f24565b91505061204b565b6000546001600160a01b031633146120d95760405162461bcd60e51b815260040161087790613012565b6040516001600160a01b038216904780156108fc02916000818181858888f1935050505015801561210e573d6000803e3d6000fd5b5050565b6000546001600160a01b0316331461213c5760405162461bcd60e51b815260040161087790613012565b600580546001600160a01b0319166001600160a01b0392909216919091179055565b60008060005b8351811015611e185760025484516001600160a01b039091169063d5c1ed8a9086908490811061219657612196612f0e565b60200260200101516040518263ffffffff1660e01b81526004016121bc91815260200190565b60206040518083038186803b1580156121d457600080fd5b505afa1580156121e8573d6000803e3d6000fd5b505050506040513d601f19601f8201168201806040525081019061220c91906130b8565b6122169083612ef6565b91508061222281612f24565b915050612164565b6000546001600160a01b031633146122545760405162461bcd60e51b815260040161087790613012565b6001600160a01b0381166122b95760405162461bcd60e51b815260206004820152602660248201527f4f776e61626c653a206e6577206f776e657220697320746865207a65726f206160448201526564647265737360d01b6064820152608401610877565b6122c28161288f565b50565b600080836000815181106122db576122db612f0e565b602002602001015190506000836000815181106122fa576122fa612f0e565b6020908102919091010151600254604051636ae0f6c560e11b8152600481018590529192506000916001600160a01b039091169063d5c1ed8a9060240160206040518083038186803b15801561234f57600080fd5b505afa158015612363573d6000803e3d6000fd5b505050506040513d601f19601f8201168201806040525081019061238791906130b8565b600254604051636ae0f6c560e11b8152600481018590529192506000916001600160a01b039091169063d5c1ed8a9060240160206040518083038186803b1580156123d157600080fd5b505afa1580156123e5573d6000803e3d6000fd5b505050506040513d601f19601f8201168201806040525081019061240991906130b8565b60025460405163f3d1b5ab60e01b8152600481018790529192506000916001600160a01b039091169063f3d1b5ab9060240160206040518083038186803b15801561245357600080fd5b505afa158015612467573d6000803e3d6000fd5b505050506040513d601f19601f8201168201806040525081019061248b91906130b8565b600254604051630a36d40b60e01b8152600481018890529192506000916001600160a01b0390911690630a36d40b9060240160206040518083038186803b1580156124d557600080fd5b505afa1580156124e9573d6000803e3d6000fd5b505050506040513d601f19601f8201168201806040525081019061250d91906130b8565b60025460405163f3d1b5ab60e01b8152600481018890529192506000916001600160a01b039091169063f3d1b5ab9060240160206040518083038186803b15801561255757600080fd5b505afa15801561256b573d6000803e3d6000fd5b505050506040513d601f19601f8201168201806040525081019061258f91906130b8565b600254604051630a36d40b60e01b8152600481018990529192506000916001600160a01b0390911690630a36d40b9060240160206040518083038186803b1580156125d957600080fd5b505afa1580156125ed573d6000803e3d6000fd5b505050506040513d601f19601f8201168201806040525081019061261191906130b8565b90508184141561277257808311156126bc578486111561263c57600198505050505050505050611311565b8486141561268057600061265260016064611c9e565b9050603c811161266e5760019950505050505050505050611311565b60029950505050505050505050611311565b600061268e60016064611c9e565b9050604681116126aa5760029950505050505050505050611311565b60019950505050505050505050611311565b8083141561271957848611156126f65760006126da60016064611c9e565b90506046811161266e5760019950505050505050505050611311565b848614156126805761270a60016002611c9e565b98505050505050505050611311565b8486101561273257600298505050505050505050611311565b8486141561276457600061274860016064611c9e565b9050603c81116126aa5760029950505050505050505050611311565b60006126da60016064611c9e565b808314156127eb57848611156127ad57600061279060016064611c9e565b9050604681111561266e5760019950505050505050505050611311565b848614156127c15761270a60016002611c9e565b60006127cf60016064611c9e565b90506014811161266e5760019950505050505050505050611311565b80831115612836578486111561280c57600198505050505050505050611311565b600061281a60016064611c9e565b90506028811161266e5760019950505050505050505050611311565b8486101561284f57600298505050505050505050611311565b8486141561288157600061286560016064611c9e565b9050601e811161266e5760019950505050505050505050611311565b600061265260016064611c9e565b600080546001600160a01b038381166001600160a01b0319831681178455604051919092169283917f8be0079c531659141344cd1fd0a4f28419497f9722a3daafe3b4186f6b6457e09190a35050565b606061113483836040518060600160405280602781526020016131016027913960606001600160a01b0384163b6129675760405162461bcd60e51b815260206004820152602660248201527f416464726573733a2064656c65676174652063616c6c20746f206e6f6e2d636f6044820152651b9d1c9858dd60d21b6064820152608401610877565b600080856001600160a01b03168560405161298291906130d1565b600060405180830381855af49150503d80600081146129bd576040519150601f19603f3d011682016040523d82523d6000602084013e6129c2565b606091505b50915091506129d28282866129dc565b9695505050505050565b606083156129eb575081611134565b8251156129fb5782518084602001fd5b8160405162461bcd60e51b815260040161087791906130ed565b60008083601f840112612a2757600080fd5b5081356001600160401b03811115612a3e57600080fd5b6020830191508360208260051b8501011115612a5957600080fd5b9250929050565b600080600060408486031215612a7557600080fd5b8335925060208401356001600160401b03811115612a9257600080fd5b612a9e86828701612a15565b9497909650939450505050565b6001600160a01b03811681146122c257600080fd5b600080600060408486031215612ad557600080fd5b83356001600160401b03811115612aeb57600080fd5b612af786828701612a15565b9094509250506020840135612b0b81612aab565b809150509250925092565b600060208284031215612b2857600080fd5b5035919050565b600081518084526020808501945080840160005b83811015612b5f57815187529582019590820190600101612b43565b509495945050505050565b600060018060a01b03808716835260806020840152612b8c6080840187612b2f565b81861660408501528381036060850152612ba68186612b2f565b98975050505050505050565b600080600060608486031215612bc757600080fd5b833592506020840135612bd981612aab565b929592945050506040919091013590565b60008060408385031215612bfd57600080fd5b8235612c0881612aab565b946020939093013593505050565b6020815260006111346020830184612b2f565b600060208284031215612c3b57600080fd5b813561113481612aab565b60008060408385031215612c5957600080fd5b823591506020830135612c6b81612aab565b809150509250929050565b60008060408385031215612c8957600080fd5b50508035926020909101359150565b600080600080600060808688031215612cb057600080fd5b85359450602086013593506040860135925060608601356001600160401b03811115612cdb57600080fd5b612ce788828901612a15565b969995985093965092949392505050565b60008060208385031215612d0b57600080fd5b82356001600160401b03811115612d2157600080fd5b612d2d85828601612a15565b90969095509350505050565b60005b83811015612d54578181015183820152602001612d3c565b83811115612d63576000848401525b50505050565b60008151808452612d81816020860160208601612d39565b601f01601f19169290920160200192915050565b6000602080830181845280855180835260408601915060408160051b870101925083870160005b82811015612dea57603f19888603018452612dd8858351612d69565b94509285019290850190600101612dbc565b5092979650505050505050565b634e487b7160e01b600052604160045260246000fd5b60006020808385031215612e2057600080fd5b82356001600160401b0380821115612e3757600080fd5b818501915085601f830112612e4b57600080fd5b813581811115612e5d57612e5d612df7565b8060051b604051601f19603f83011681018181108582111715612e8257612e82612df7565b604052918252848201925083810185019188831115612ea057600080fd5b938501935b82851015612ba657843584529385019392850192612ea5565b600060208284031215612ed057600080fd5b8151801515811461113457600080fd5b634e487b7160e01b600052601160045260246000fd5b60008219821115612f0957612f09612ee0565b500190565b634e487b7160e01b600052603260045260246000fd5b6000600019821415612f3857612f38612ee0565b5060010190565b6000816000190483118215151615612f5957612f59612ee0565b500290565b634e487b7160e01b600052601260045260246000fd5b600082612f8357612f83612f5e565b500490565b604081526000612f9b6040830185612b2f565b905082151560208301529392505050565b6040808252810183905260006001600160fb1b03841115612fcc57600080fd5b8360051b8086606085013760009083016060019081529215156020909201919091525092915050565b60006020828403121561300757600080fd5b815161113481612aab565b6020808252818101527f4f776e61626c653a2063616c6c6572206973206e6f7420746865206f776e6572604082015260600190565b60008282101561305957613059612ee0565b500390565b60008261306d5761306d612f5e565b500690565b6000808335601e1984360301811261308957600080fd5b8301803591506001600160401b038211156130a357600080fd5b602001915036819003821315612a5957600080fd5b6000602082840312156130ca57600080fd5b5051919050565b600082516130e3818460208701612d39565b9190910192915050565b6020815260006111346020830184612d6956fe416464726573733a206c6f772d6c6576656c2064656c65676174652063616c6c206661696c6564a264697066735822122097039fe8d5943d730453568664cbbbfe5edff7ca4355af0900c85e0e09a4608564736f6c63430008090033",
  "linkReferences": {},
  "deployedLinkReferences": {}
}