{
  "_format": "hh-sol-artifact-1",
  "contractName": "LobbyBattle",
  "sourceName": "contracts/game/LobbyBattle.sol",
  "abi": [
    {
      "inputs": [],
      "stateMutability": "nonpayable",
      "type": "constructor"
    },
    {
      "anonymous": false,
      "inputs": [
        {
          "indexed": true,
          "internalType": "uint256",
          "name": "lobbyId",
          "type": "uint256"
        },
        {
          "indexed": true,
          "internalType": "address",
          "name": "host",
          "type": "address"
        },
        {
          "indexed": true,
          "internalType": "address",
          "name": "client",
          "type": "address"
        }
      ],
      "name": "BattleFinished",
      "type": "event"
    },
    {
      "anonymous": false,
      "inputs": [
        {
          "indexed": true,
          "internalType": "address",
          "name": "previousOwner",
          "type": "address"
        },
        {
          "indexed": true,
          "internalType": "address",
          "name": "newOwner",
          "type": "address"
        }
      ],
      "name": "OwnershipTransferred",
      "type": "event"
    },
    {
      "inputs": [],
      "name": "HRI_TOKEN",
      "outputs": [
        {
          "internalType": "contract IERC20",
          "name": "",
          "type": "address"
        }
      ],
      "stateMutability": "view",
      "type": "function"
    },
    {
      "inputs": [],
      "name": "NFT",
      "outputs": [
        {
          "internalType": "contract IERC721",
          "name": "",
          "type": "address"
        }
      ],
      "stateMutability": "view",
      "type": "function"
    },
    {
      "inputs": [
        {
          "internalType": "bytes32",
          "name": "name",
          "type": "bytes32"
        },
        {
          "internalType": "bytes32",
          "name": "avatar",
          "type": "bytes32"
        },
        {
          "internalType": "uint256",
          "name": "capacity",
          "type": "uint256"
        },
        {
          "internalType": "uint256[]",
          "name": "heroIds",
          "type": "uint256[]"
        }
      ],
      "name": "createLobby",
      "outputs": [],
      "stateMutability": "nonpayable",
      "type": "function"
    },
    {
      "inputs": [
        {
          "internalType": "address",
          "name": "myAddr",
          "type": "address"
        },
        {
          "internalType": "uint256",
          "name": "capacity",
          "type": "uint256"
        }
      ],
      "name": "getActiveLobbies",
      "outputs": [
        {
          "internalType": "uint256[]",
          "name": "",
          "type": "uint256[]"
        }
      ],
      "stateMutability": "view",
      "type": "function"
    },
    {
      "inputs": [
        {
          "internalType": "uint256",
          "name": "capacity",
          "type": "uint256"
        }
      ],
      "name": "getAllHistory",
      "outputs": [
        {
          "internalType": "uint256[]",
          "name": "",
          "type": "uint256[]"
        }
      ],
      "stateMutability": "view",
      "type": "function"
    },
    {
      "inputs": [
        {
          "internalType": "uint256[]",
          "name": "heroes",
          "type": "uint256[]"
        }
      ],
      "name": "getHeroesPower",
      "outputs": [
        {
          "internalType": "uint256",
          "name": "",
          "type": "uint256"
        }
      ],
      "stateMutability": "view",
      "type": "function"
    },
    {
      "inputs": [
        {
          "internalType": "uint256",
          "name": "lobbyId",
          "type": "uint256"
        }
      ],
      "name": "getLobbyHeroes",
      "outputs": [
        {
          "internalType": "address",
          "name": "",
          "type": "address"
        },
        {
          "internalType": "uint256[]",
          "name": "",
          "type": "uint256[]"
        },
        {
          "internalType": "address",
          "name": "",
          "type": "address"
        },
        {
          "internalType": "uint256[]",
          "name": "",
          "type": "uint256[]"
        }
      ],
      "stateMutability": "view",
      "type": "function"
    },
    {
      "inputs": [
        {
          "internalType": "uint256",
          "name": "lobbyId",
          "type": "uint256"
        }
      ],
      "name": "getLobbyPower",
      "outputs": [
        {
          "internalType": "address",
          "name": "",
          "type": "address"
        },
        {
          "internalType": "uint256",
          "name": "",
          "type": "uint256"
        },
        {
          "internalType": "address",
          "name": "",
          "type": "address"
        },
        {
          "internalType": "uint256",
          "name": "",
          "type": "uint256"
        }
      ],
      "stateMutability": "view",
      "type": "function"
    },
    {
      "inputs": [
        {
          "internalType": "address",
          "name": "myAddr",
          "type": "address"
        },
        {
          "internalType": "uint256",
          "name": "capacity",
          "type": "uint256"
        }
      ],
      "name": "getMyHistory",
      "outputs": [
        {
          "internalType": "uint256[]",
          "name": "",
          "type": "uint256[]"
        }
      ],
      "stateMutability": "view",
      "type": "function"
    },
    {
      "inputs": [
        {
          "internalType": "address",
          "name": "myAddr",
          "type": "address"
        },
        {
          "internalType": "uint256",
          "name": "capacity",
          "type": "uint256"
        }
      ],
      "name": "getMyLobbies",
      "outputs": [
        {
          "internalType": "uint256[]",
          "name": "",
          "type": "uint256[]"
        }
      ],
      "stateMutability": "view",
      "type": "function"
    },
    {
      "inputs": [
        {
          "internalType": "uint256",
          "name": "lobbyId",
          "type": "uint256"
        },
        {
          "internalType": "address",
          "name": "player",
          "type": "address"
        }
      ],
      "name": "getPlayerHeroesOnLobby",
      "outputs": [
        {
          "internalType": "uint256[]",
          "name": "",
          "type": "uint256[]"
        }
      ],
      "stateMutability": "view",
      "type": "function"
    },
    {
      "inputs": [],
      "name": "heroManager",
      "outputs": [
        {
          "internalType": "contract IHeroManager",
          "name": "",
          "type": "address"
        }
      ],
      "stateMutability": "view",
      "type": "function"
    },
    {
      "inputs": [
        {
          "internalType": "uint256",
          "name": "lobbyId",
          "type": "uint256"
        },
        {
          "internalType": "uint256[]",
          "name": "heroIds",
          "type": "uint256[]"
        }
      ],
      "name": "joinLobby",
      "outputs": [],
      "stateMutability": "nonpayable",
      "type": "function"
    },
    {
      "inputs": [
        {
          "internalType": "uint256",
          "name": "",
          "type": "uint256"
        }
      ],
      "name": "lobbies",
      "outputs": [
        {
          "internalType": "bytes32",
          "name": "name",
          "type": "bytes32"
        },
        {
          "internalType": "bytes32",
          "name": "avatar",
          "type": "bytes32"
        },
        {
          "internalType": "address",
          "name": "host",
          "type": "address"
        },
        {
          "internalType": "address",
          "name": "client",
          "type": "address"
        },
        {
          "internalType": "uint256",
          "name": "id",
          "type": "uint256"
        },
        {
          "internalType": "uint256",
          "name": "capacity",
          "type": "uint256"
        },
        {
          "internalType": "uint256",
          "name": "startedAt",
          "type": "uint256"
        },
        {
          "internalType": "uint256",
          "name": "finishedAt",
          "type": "uint256"
        },
        {
          "internalType": "uint256",
          "name": "winner",
          "type": "uint256"
        },
        {
          "internalType": "uint256",
          "name": "fee",
          "type": "uint256"
        },
        {
          "internalType": "uint256",
          "name": "rewards",
          "type": "uint256"
        }
      ],
      "stateMutability": "view",
      "type": "function"
    },
    {
      "inputs": [
        {
          "internalType": "uint256",
          "name": "",
          "type": "uint256"
        }
      ],
      "name": "lobbyFees",
      "outputs": [
        {
          "internalType": "uint256",
          "name": "",
          "type": "uint256"
        }
      ],
      "stateMutability": "view",
      "type": "function"
    },
    {
      "inputs": [
        {
          "internalType": "uint256",
          "name": "",
          "type": "uint256"
        },
        {
          "internalType": "address",
          "name": "",
          "type": "address"
        },
        {
          "internalType": "uint256",
          "name": "",
          "type": "uint256"
        }
      ],
      "name": "lobbyHeroes",
      "outputs": [
        {
          "internalType": "uint256",
          "name": "",
          "type": "uint256"
        }
      ],
      "stateMutability": "view",
      "type": "function"
    },
    {
      "inputs": [
        {
          "internalType": "uint256",
          "name": "",
          "type": "uint256"
        },
        {
          "internalType": "address",
          "name": "",
          "type": "address"
        }
      ],
      "name": "lobbyHeroesCount",
      "outputs": [
        {
          "internalType": "uint256",
          "name": "",
          "type": "uint256"
        }
      ],
      "stateMutability": "view",
      "type": "function"
    },
    {
      "inputs": [
        {
          "internalType": "bytes[]",
          "name": "data",
          "type": "bytes[]"
        }
      ],
      "name": "multicall",
      "outputs": [
        {
          "internalType": "bytes[]",
          "name": "results",
          "type": "bytes[]"
        }
      ],
      "stateMutability": "nonpayable",
      "type": "function"
    },
    {
      "inputs": [],
      "name": "owner",
      "outputs": [
        {
          "internalType": "address",
          "name": "",
          "type": "address"
        }
      ],
      "stateMutability": "view",
      "type": "function"
    },
    {
      "inputs": [
        {
          "internalType": "address",
          "name": "",
          "type": "address"
        }
      ],
      "name": "playersFees",
      "outputs": [
        {
          "internalType": "uint256",
          "name": "",
          "type": "uint256"
        }
      ],
      "stateMutability": "view",
      "type": "function"
    },
    {
      "inputs": [
        {
          "internalType": "address",
          "name": "",
          "type": "address"
        }
      ],
      "name": "playersRewards",
      "outputs": [
        {
          "internalType": "uint256",
          "name": "",
          "type": "uint256"
        }
      ],
      "stateMutability": "view",
      "type": "function"
    },
    {
      "inputs": [
        {
          "internalType": "uint256",
          "name": "min",
          "type": "uint256"
        },
        {
          "internalType": "uint256",
          "name": "max",
          "type": "uint256"
        }
      ],
      "name": "random",
      "outputs": [
        {
          "internalType": "uint256",
          "name": "",
          "type": "uint256"
        }
      ],
      "stateMutability": "view",
      "type": "function"
    },
    {
      "inputs": [
        {
          "internalType": "address",
          "name": "",
          "type": "address"
        }
      ],
      "name": "registeredPlayers",
      "outputs": [
        {
          "internalType": "bool",
          "name": "",
          "type": "bool"
        }
      ],
      "stateMutability": "view",
      "type": "function"
    },
    {
      "inputs": [],
      "name": "renounceOwnership",
      "outputs": [],
      "stateMutability": "nonpayable",
      "type": "function"
    },
    {
      "inputs": [],
      "name": "rewardsPayeer",
      "outputs": [
        {
          "internalType": "address",
          "name": "",
          "type": "address"
        }
      ],
      "stateMutability": "view",
      "type": "function"
    },
    {
      "inputs": [
        {
          "internalType": "uint256",
          "name": "multiplier",
          "type": "uint256"
        }
      ],
      "name": "setBenefitMultiplier",
      "outputs": [],
      "stateMutability": "nonpayable",
      "type": "function"
    },
    {
      "inputs": [
        {
          "internalType": "address",
          "name": "hmAddr",
          "type": "address"
        }
      ],
      "name": "setHeroManager",
      "outputs": [],
      "stateMutability": "nonpayable",
      "type": "function"
    },
    {
      "inputs": [
        {
          "internalType": "uint256",
          "name": "capacity",
          "type": "uint256"
        },
        {
          "internalType": "uint256",
          "name": "fee",
          "type": "uint256"
        }
      ],
      "name": "setLobbyFee",
      "outputs": [],
      "stateMutability": "nonpayable",
      "type": "function"
    },
    {
      "inputs": [
        {
          "internalType": "address",
          "name": "payer",
          "type": "address"
        }
      ],
      "name": "setRewardsPayeer",
      "outputs": [],
      "stateMutability": "nonpayable",
      "type": "function"
    },
    {
      "inputs": [],
      "name": "totalPlayers",
      "outputs": [
        {
          "internalType": "uint256",
          "name": "",
          "type": "uint256"
        }
      ],
      "stateMutability": "view",
      "type": "function"
    },
    {
      "inputs": [
        {
          "internalType": "address",
          "name": "newOwner",
          "type": "address"
        }
      ],
      "name": "transferOwnership",
      "outputs": [],
      "stateMutability": "nonpayable",
      "type": "function"
    },
    {
      "inputs": [
        {
          "internalType": "uint256",
          "name": "",
          "type": "uint256"
        }
      ],
      "name": "uniquePlayers",
      "outputs": [
        {
          "internalType": "address",
          "name": "",
          "type": "address"
        }
      ],
      "stateMutability": "view",
      "type": "function"
    },
    {
      "inputs": [
        {
          "internalType": "uint256[]",
          "name": "heroIds",
          "type": "uint256[]"
        }
      ],
      "name": "validateHeroEnergies",
      "outputs": [
        {
          "internalType": "bool",
          "name": "",
          "type": "bool"
        }
      ],
      "stateMutability": "view",
      "type": "function"
    },
    {
      "inputs": [
        {
          "internalType": "uint256[]",
          "name": "heroIds",
          "type": "uint256[]"
        },
        {
          "internalType": "address",
          "name": "owner",
          "type": "address"
        }
      ],
      "name": "validateHeroIds",
      "outputs": [
        {
          "internalType": "bool",
          "name": "",
          "type": "bool"
        }
      ],
      "stateMutability": "view",
      "type": "function"
    },
    {
      "inputs": [
        {
          "internalType": "address payable",
          "name": "recipient",
          "type": "address"
        }
      ],
      "name": "withdrawDustETH",
      "outputs": [],
      "stateMutability": "nonpayable",
      "type": "function"
    },
    {
      "stateMutability": "payable",
      "type": "receive"
    }
  ],
  "bytecode": "0x6080604052600380546001600160a01b031916730cca7943409260455ceef6be46c69b3fc808e24f17905560fa6004553480156200003c57600080fd5b506200004833620000df565b600d60205269010f0cf064dd592000007ffd54ff1ed53f34a900b24c5ba64f85761163b5d82d98a47b9bd80e45466993c55569054b40b1f852bda000007f26b4a10d0f0b04925c23bd4480ee147c916e5e87a7d68206a533dad160ac81e2556005600052690a968163f0a57b4000007fa5049387d9cb649c59f4bda666105ba636c2a103d8e2b232ba4d125737cd2149556200012f565b600080546001600160a01b038381166001600160a01b0319831681178455604051919092169283917f8be0079c531659141344cd1fd0a4f28419497f9722a3daafe3b4186f6b6457e09190a35050565b613413806200013f6000396000f3fe6080604052600436106102075760003560e01c80637c0b8de211610118578063b97dcb22116100a0578063e393c2941161006f578063e393c294146107b4578063e4118fca146107d4578063ed697f32146107f4578063f2fde38b14610814578063f60cdcf61461083457600080fd5b8063b97dcb2214610712578063b9f2d52014610732578063c4ee3a4a1461075f578063c8f942701461078757600080fd5b806394f69662116100e757806394f6966214610630578063a9dd122514610650578063ac9650d814610670578063b12f5c571461069d578063b7601a15146106f257600080fd5b80637c0b8de214610594578063833588cc146105bc5780638da5cb5b146105dc578063930613fc146105fa57600080fd5b80633b8a7a131161019b5780636bd2dc851161016a5780636bd2dc851461041b5780636e8fb4c614610448578063715018a61461052757806372c90ca61461053c5780637407fddd1461057457600080fd5b80633b8a7a131461038b57806345efd785146103ab5780634bafce22146103cb5780634d5f80ad146103fb57600080fd5b806316fc989c116101d757806316fc989c146102d25780631deb8c441461031e57806328b11d231461034b578063378cc3471461036b57600080fd5b8062c8bd7e146102135780630152368f1461023557806307a48c191461026a57806311ce406d1461029a57600080fd5b3661020e57005b600080fd5b34801561021f57600080fd5b5061023361022e366004612d16565b61084a565b005b34801561024157600080fd5b50610255610250366004612d76565b6110fd565b60405190151581526020015b60405180910390f35b34801561027657600080fd5b5061028a610285366004612dcc565b611229565b6040516102619493929190612e20565b3480156102a657600080fd5b506003546102ba906001600160a01b031681565b6040516001600160a01b039091168152602001610261565b3480156102de57600080fd5b506103106102ed366004612e68565b600a60209081526000938452604080852082529284528284209052825290205481565b604051908152602001610261565b34801561032a57600080fd5b5061033e610339366004612ea0565b61127d565b6040516102619190612ecc565b34801561035757600080fd5b50610233610366366004612dcc565b611405565b34801561037757600080fd5b50610233610386366004612edf565b611434565b34801561039757600080fd5b506002546102ba906001600160a01b031681565b3480156103b757600080fd5b5061033e6103c6366004612dcc565b611480565b3480156103d757600080fd5b506102556103e6366004612edf565b60076020526000908152604090205460ff1681565b34801561040757600080fd5b5061033e610416366004612ea0565b6115b5565b34801561042757600080fd5b50610310610436366004612edf565b60096020526000908152604090205481565b34801561045457600080fd5b506104c8610463366004612dcc565b600c60205260009081526040902080546001820154600283015460038401546004850154600586015460068701546007880154600889015460098a0154600a909a0154989997986001600160a01b03978816989790961696949593949293919290918b565b604080519b8c5260208c019a909a526001600160a01b03988916998b0199909952969095166060890152608088019390935260a087019190915260c086015260e085015261010084015261012083015261014082015261016001610261565b34801561053357600080fd5b5061023361172f565b34801561054857600080fd5b50610310610557366004612efc565b600b60209081526000928352604080842090915290825290205481565b34801561058057600080fd5b5061033e61058f366004612ea0565b611765565b3480156105a057600080fd5b506102ba7376b713ff56b9cad82b2820202537a98182b5a0ec81565b3480156105c857600080fd5b506102336105d7366004612f2c565b61192d565b3480156105e857600080fd5b506000546001600160a01b03166102ba565b34801561060657600080fd5b506102ba610615366004612dcc565b6006602052600090815260409020546001600160a01b031681565b34801561063c57600080fd5b5061023361064b366004612f4e565b611969565b34801561065c57600080fd5b5061031061066b366004612f2c565b611e1f565b34801561067c57600080fd5b5061069061068b366004612fae565b611ed1565b604051610261919061304b565b3480156106a957600080fd5b506106bd6106b8366004612dcc565b611fc5565b60405161026194939291906001600160a01b039485168152602081019390935292166040820152606081019190915260800190565b3480156106fe57600080fd5b5061025561070d366004612fae565b612184565b34801561071e57600080fd5b5061033e61072d366004612efc565b612294565b34801561073e57600080fd5b5061031061074d366004612dcc565b600d6020526000908152604090205481565b34801561076b57600080fd5b506102ba7328ee3e2826264b9c55fcdd122dfa93680916c9b881565b34801561079357600080fd5b506103106107a2366004612edf565b60086020526000908152604090205481565b3480156107c057600080fd5b506102336107cf366004612edf565b612365565b3480156107e057600080fd5b506102336107ef366004612edf565b6123c8565b34801561080057600080fd5b5061031061080f3660046130c3565b612414565b34801561082057600080fd5b5061023361082f366004612edf565b6124e0565b34801561084057600080fd5b5061031060055481565b6108558282336110fd565b506108608282612184565b506000838152600c602052604090206004015483146108c65760405162461bcd60e51b815260206004820181905260248201527f4c6f626279426174746c653a206c6f62627920646f65736e277420657869737460448201526064015b60405180910390fd5b6000838152600c602052604090206005015481146109265760405162461bcd60e51b815260206004820152601960248201527f4c6f626279426174746c653a2077726f6e67206865726f65730000000000000060448201526064016108bd565b6000838152600c6020526040902060070154156109855760405162461bcd60e51b815260206004820152601d60248201527f4c6f626279426174746c653a20616c72656164792066696e697368656400000060448201526064016108bd565b6000838152600c60209081526040808320600501548352600d909152908190205460035491516323b872dd60e01b81523360048201526001600160a01b03909216602483015260448201819052907328ee3e2826264b9c55fcdd122dfa93680916c9b8906323b872dd90606401602060405180830381600087803b158015610a0c57600080fd5b505af1158015610a20573d6000803e3d6000fd5b505050506040513d601f19601f82011682018060405250810190610a449190613174565b610a905760405162461bcd60e51b815260206004820152601b60248201527f4c6f626279426174746c653a206e6f7420656e6f75676820666565000000000060448201526064016108bd565b3360009081526007602052604090205460ff16610afd5760058054600090815260066020908152604080832080546001600160a01b03191633908117909155835260079091528120805460ff19166001908117909155825490929190610af79084906131ac565b90915550505b3360009081526008602052604081208054839290610b1c9084906131ac565b90915550506000848152600c602052604081206003810180546001600160a01b0319163317905542600790910155826001600160401b03811115610b6257610b626130ad565b604051908082528060200260200182016040528015610b8b578160200160208202803683370190505b50905060005b83811015610cb057848482818110610bab57610bab6131c4565b6000898152600a60209081526040808320338452808352818420888552835281842094830296909601359093558a8252600c8152828220600201546001600160a01b03168252938452818120858252909352909120548351909150839083908110610c1857610c186131c4565b60209081029190910101526002546001600160a01b0316634239ca30868684818110610c4657610c466131c4565b905060200201356040518263ffffffff1660e01b8152600401610c6b91815260200190565b600060405180830381600087803b158015610c8557600080fd5b505af1158015610c99573d6000803e3d6000fd5b505050508080610ca8906131da565b915050610b91565b506000858152600b602090815260408083203384528252808320869055600454888452600c8352818420600501548452600d90925290912054606491610cf5916131f5565b610cff919061322a565b6000868152600c60205260409020600a8101919091556005015460011415610f9257610d5e8185858080602002602001604051908101604052809392919081815260200183836020028082843760009201919091525061257b92505050565b6000868152600c6020526040902060080181905560011415610e905760025460405163852eebff60e01b81526001600160a01b039091169063852eebff90610dad90849060019060040161323e565b600060405180830381600087803b158015610dc757600080fd5b505af1158015610ddb573d6000803e3d6000fd5b505060025460405163852eebff60e01b81526001600160a01b03909116925063852eebff9150610e149087908790600090600401613262565b600060405180830381600087803b158015610e2e57600080fd5b505af1158015610e42573d6000803e3d6000fd5b5050506000868152600c60209081526040808320600a8101546002909101546001600160a01b031684526009909252822080549193509190610e859084906131ac565b90915550610f929050565b60025460405163852eebff60e01b81526001600160a01b039091169063852eebff90610ec390849060009060040161323e565b600060405180830381600087803b158015610edd57600080fd5b505af1158015610ef1573d6000803e3d6000fd5b505060025460405163852eebff60e01b81526001600160a01b03909116925063852eebff9150610f2a9087908790600190600401613262565b600060405180830381600087803b158015610f4457600080fd5b505af1158015610f58573d6000803e3d6000fd5b5050506000868152600c60209081526040808320600a01543384526009909252822080549193509190610f8c9084906131ac565b90915550505b6003546000868152600c60205260409020600801547328ee3e2826264b9c55fcdd122dfa93680916c9b8916323b872dd916001600160a01b0390911690600114610ff6576000888152600c60205260409020600301546001600160a01b0316611012565b6000888152600c60205260409020600201546001600160a01b03165b6000898152600c602052604090819020600a0154905160e085901b6001600160e01b03191681526001600160a01b0393841660048201529290911660248301526044820152606401602060405180830381600087803b15801561107457600080fd5b505af1158015611088573d6000803e3d6000fd5b505050506040513d601f19601f820116820180604052508101906110ac9190613174565b506000858152600c602052604080822060020154905133926001600160a01b039092169188917fc77dc6cd4b51c8efc4af40a582ca4cf229fda505a830b4486b200ddcbdb1383f9190a45050505050565b6000805b8381101561121c576001600160a01b0383167376b713ff56b9cad82b2820202537a98182b5a0ec636352211e87878581811061113f5761113f6131c4565b905060200201356040518263ffffffff1660e01b815260040161116491815260200190565b60206040518083038186803b15801561117c57600080fd5b505afa158015611190573d6000803e3d6000fd5b505050506040513d601f19601f820116820180604052508101906111b491906132ab565b6001600160a01b03161461120a5760405162461bcd60e51b815260206004820152601b60248201527f4c6f626279426174746c653a206e6f74206865726f206f776e6572000000000060448201526064016108bd565b80611214816131da565b915050611101565b50600190505b9392505050565b6000818152600c602052604081206002810154600390910154606091839183916001600160a01b039081169116816112618882612294565b8261126c8a85612294565b955095509550955050509193509193565b6060600060015b600154811161130a576000818152600c60205260409020600701541580156112bc57506000818152600c602052604090206005015484145b80156112e557506000818152600c60205260409020600201546001600160a01b03868116911614155b156112f857816112f4816131da565b9250505b80611302816131da565b915050611284565b50600080826001600160401b03811115611326576113266130ad565b60405190808252806020026020018201604052801561134f578160200160208202803683370190505b50905060015b60015481116113f9576000818152600c602052604090206007015415801561138d57506000818152600c602052604090206005015486145b80156113b657506000818152600c60205260409020600201546001600160a01b03888116911614155b156113e757808284815181106113ce576113ce6131c4565b6020908102919091010152826113e3816131da565b9350505b806113f1816131da565b915050611355565b50925050505b92915050565b6000546001600160a01b0316331461142f5760405162461bcd60e51b81526004016108bd906132c8565b600455565b6000546001600160a01b0316331461145e5760405162461bcd60e51b81526004016108bd906132c8565b600280546001600160a01b0319166001600160a01b0392909216919091179055565b6060600060015b60015481116114e5576000818152600c6020526040902060070154158015906114c057506000818152600c602052604090206005015484145b156114d357816114cf816131da565b9250505b806114dd816131da565b915050611487565b50600080826001600160401b03811115611501576115016130ad565b60405190808252806020026020018201604052801561152a578160200160208202803683370190505b50905060015b60015481116115ac576000818152600c60205260409020600701541580159061156957506000818152600c602052604090206005015486145b1561159a5780828481518110611581576115816131c4565b602090810291909101015282611596816131da565b9350505b806115a4816131da565b915050611530565b50949350505050565b6060600060015b6001548111611641576000818152600c60205260409020600701541580156115f457506000818152600c602052604090206005015484145b801561161c57506000818152600c60205260409020600201546001600160a01b038681169116145b1561162f578161162b816131da565b9250505b80611639816131da565b9150506115bc565b50600080826001600160401b0381111561165d5761165d6130ad565b604051908082528060200260200182016040528015611686578160200160208202803683370190505b50905060015b60015481116113f9576000818152600c60205260409020600701541580156116c457506000818152600c602052604090206005015486145b80156116ec57506000818152600c60205260409020600201546001600160a01b038881169116145b1561171d5780828481518110611704576117046131c4565b602090810291909101015282611719816131da565b9350505b80611727816131da565b91505061168c565b6000546001600160a01b031633146117595760405162461bcd60e51b81526004016108bd906132c8565b6117636000612b45565b565b6060600060015b6001548111611818576000818152600c6020526040902060070154158015906117a557506000818152600c602052604090206005015484145b80156117f357506000818152600c60205260409020600201546001600160a01b03868116911614806117f357506000818152600c60205260409020600301546001600160a01b038681169116145b156118065781611802816131da565b9250505b80611810816131da565b91505061176c565b50600080826001600160401b03811115611834576118346130ad565b60405190808252806020026020018201604052801561185d578160200160208202803683370190505b50905060015b60015481116113f9576000818152600c60205260409020600701541580159061189c57506000818152600c602052604090206005015486145b80156118ea57506000818152600c60205260409020600201546001600160a01b03888116911614806118ea57506000818152600c60205260409020600301546001600160a01b038881169116145b1561191b5780828481518110611902576119026131c4565b602090810291909101015282611917816131da565b9350505b80611925816131da565b915050611863565b6000546001600160a01b031633146119575760405162461bcd60e51b81526004016108bd906132c8565b6000918252600d602052604090912055565b6119748282336110fd565b5061197f8282612184565b508281146119cf5760405162461bcd60e51b815260206004820152601d60248201527f4c6f626279426174746c653a2077726f6e6720706172616d657465727300000060448201526064016108bd565b6000838152600d6020526040902054611a345760405162461bcd60e51b815260206004820152602160248201527f4c6f626279426174746c653a2077726f6e67206c6f62627920636170616369746044820152607960f81b60648201526084016108bd565b6003546000848152600d6020526040908190205490516323b872dd60e01b81523360048201526001600160a01b03909216602483015260448201527328ee3e2826264b9c55fcdd122dfa93680916c9b8906323b872dd90606401602060405180830381600087803b158015611aa857600080fd5b505af1158015611abc573d6000803e3d6000fd5b505050506040513d601f19601f82011682018060405250810190611ae09190613174565b611b2c5760405162461bcd60e51b815260206004820152601b60248201527f4c6f626279426174746c653a206e6f7420656e6f75676820666565000000000060448201526064016108bd565b3360009081526007602052604090205460ff16611b995760058054600090815260066020908152604080832080546001600160a01b03191633908117909155835260079091528120805460ff19166001908117909155825490929190611b939084906131ac565b90915550505b6000838152600d602090815260408083205433845260089092528220805491929091611bc69084906131ac565b909155505060018054810190556000611bde60015490565b90506000604051806101600160405280888152602001878152602001336001600160a01b0316815260200160006001600160a01b031681526020018381526020018681526020014281526020016000815260200160008152602001600d60008881526020019081526020016000205481526020016000815250905080600c6000848152602001908152602001600020600082015181600001556020820151816001015560408201518160020160006101000a8154816001600160a01b0302191690836001600160a01b0316021790555060608201518160030160006101000a8154816001600160a01b0302191690836001600160a01b031602179055506080820151816004015560a0820151816005015560c0820151816006015560e082015181600701556101008201518160080155610120820151816009015561014082015181600a015590505060005b83811015611dfd57848482818110611d4457611d446131c4565b6000868152600a602090815260408083203384528252808320878452825290912091029290920135909155506002546001600160a01b0316634239ca30868684818110611d9357611d936131c4565b905060200201356040518263ffffffff1660e01b8152600401611db891815260200190565b600060405180830381600087803b158015611dd257600080fd5b505af1158015611de6573d6000803e3d6000fd5b505050508080611df5906131da565b915050611d2a565b50506000908152600b6020908152604080832033845290915290205550505050565b6000804442336000356001600160e01b0319165a6040805160208101969096528501939093526bffffffffffffffffffffffff19606092831b16918401919091526001600160e01b031916607483015260788201526098810185905260b8810184905260d80160408051601f198184030181529190528051602090910120905083611eaa81856132fd565b611eb59060016131ac565b611ebf9083613314565b611ec991906131ac565b949350505050565b6060816001600160401b03811115611eeb57611eeb6130ad565b604051908082528060200260200182016040528015611f1e57816020015b6060815260200190600190039081611f095790505b50905060005b82811015611fbe57611f8e30858584818110611f4257611f426131c4565b9050602002810190611f549190613328565b8080601f016020809104026020016040519081016040528093929190818152602001838380828437600092019190915250612b9592505050565b828281518110611fa057611fa06131c4565b60200260200101819052508080611fb6906131da565b915050611f24565b5092915050565b600080600080600080600080611fda89611229565b935093509350935060008060005b85518110156121715760025486516000916001600160a01b03169063d5c1ed8a9089908590811061201b5761201b6131c4565b60200260200101516040518263ffffffff1660e01b815260040161204191815260200190565b60206040518083038186803b15801561205957600080fd5b505afa15801561206d573d6000803e3d6000fd5b505050506040513d601f19601f82011682018060405250810190612091919061336e565b905061209d81856131ac565b93506001600160a01b0386161561215e5760025485516000916001600160a01b03169063d5c1ed8a908890869081106120d8576120d86131c4565b60200260200101516040518263ffffffff1660e01b81526004016120fe91815260200190565b60206040518083038186803b15801561211657600080fd5b505afa15801561212a573d6000803e3d6000fd5b505050506040513d601f19601f8201168201806040525081019061214e919061336e565b905061215a81856131ac565b9350505b5080612169816131da565b915050611fe8565b50949a9099509197509295509350505050565b6000805b8281101561228a576002546000906001600160a01b0316632a18bdfe8686858181106121b6576121b66131c4565b905060200201356040518263ffffffff1660e01b81526004016121db91815260200190565b60206040518083038186803b1580156121f357600080fd5b505afa158015612207573d6000803e3d6000fd5b505050506040513d601f19601f8201168201806040525081019061222b919061336e565b116122785760405162461bcd60e51b815260206004820152601e60248201527f4c6f626279426174746c653a206e6f7420656e6f75676820656e65726779000060448201526064016108bd565b80612282816131da565b915050612188565b5060019392505050565b6000828152600b602090815260408083206001600160a01b0385168452909152812054606091816001600160401b038111156122d2576122d26130ad565b6040519080825280602002602001820160405280156122fb578160200160208202803683370190505b50905060005b828110156115ac576000868152600a602090815260408083206001600160a01b038916845282528083208484529091529020548251839083908110612348576123486131c4565b60209081029190910101528061235d816131da565b915050612301565b6000546001600160a01b0316331461238f5760405162461bcd60e51b81526004016108bd906132c8565b6040516001600160a01b038216904780156108fc02916000818181858888f193505050501580156123c4573d6000803e3d6000fd5b5050565b6000546001600160a01b031633146123f25760405162461bcd60e51b81526004016108bd906132c8565b600380546001600160a01b0319166001600160a01b0392909216919091179055565b60008060005b8351811015611fbe5760025484516001600160a01b039091169063d5c1ed8a9086908490811061244c5761244c6131c4565b60200260200101516040518263ffffffff1660e01b815260040161247291815260200190565b60206040518083038186803b15801561248a57600080fd5b505afa15801561249e573d6000803e3d6000fd5b505050506040513d601f19601f820116820180604052508101906124c2919061336e565b6124cc90836131ac565b9150806124d8816131da565b91505061241a565b6000546001600160a01b0316331461250a5760405162461bcd60e51b81526004016108bd906132c8565b6001600160a01b03811661256f5760405162461bcd60e51b815260206004820152602660248201527f4f776e61626c653a206e6577206f776e657220697320746865207a65726f206160448201526564647265737360d01b60648201526084016108bd565b61257881612b45565b50565b60008083600081518110612591576125916131c4565b602002602001015190506000836000815181106125b0576125b06131c4565b6020908102919091010151600254604051636ae0f6c560e11b8152600481018590529192506000916001600160a01b039091169063d5c1ed8a9060240160206040518083038186803b15801561260557600080fd5b505afa158015612619573d6000803e3d6000fd5b505050506040513d601f19601f8201168201806040525081019061263d919061336e565b600254604051636ae0f6c560e11b8152600481018590529192506000916001600160a01b039091169063d5c1ed8a9060240160206040518083038186803b15801561268757600080fd5b505afa15801561269b573d6000803e3d6000fd5b505050506040513d601f19601f820116820180604052508101906126bf919061336e565b60025460405163f3d1b5ab60e01b8152600481018790529192506000916001600160a01b039091169063f3d1b5ab9060240160206040518083038186803b15801561270957600080fd5b505afa15801561271d573d6000803e3d6000fd5b505050506040513d601f19601f82011682018060405250810190612741919061336e565b600254604051630a36d40b60e01b8152600481018890529192506000916001600160a01b0390911690630a36d40b9060240160206040518083038186803b15801561278b57600080fd5b505afa15801561279f573d6000803e3d6000fd5b505050506040513d601f19601f820116820180604052508101906127c3919061336e565b60025460405163f3d1b5ab60e01b8152600481018890529192506000916001600160a01b039091169063f3d1b5ab9060240160206040518083038186803b15801561280d57600080fd5b505afa158015612821573d6000803e3d6000fd5b505050506040513d601f19601f82011682018060405250810190612845919061336e565b600254604051630a36d40b60e01b8152600481018990529192506000916001600160a01b0390911690630a36d40b9060240160206040518083038186803b15801561288f57600080fd5b505afa1580156128a3573d6000803e3d6000fd5b505050506040513d601f19601f820116820180604052508101906128c7919061336e565b905081841415612a28578083111561297257848611156128f2576001985050505050505050506113ff565b8486141561293657600061290860016064611e1f565b9050603c811161292457600199505050505050505050506113ff565b600299505050505050505050506113ff565b600061294460016064611e1f565b90506046811161296057600299505050505050505050506113ff565b600199505050505050505050506113ff565b808314156129cf57848611156129ac57600061299060016064611e1f565b90506046811161292457600199505050505050505050506113ff565b84861415612936576129c060016002611e1f565b985050505050505050506113ff565b848610156129e8576002985050505050505050506113ff565b84861415612a1a5760006129fe60016064611e1f565b9050603c811161296057600299505050505050505050506113ff565b600061299060016064611e1f565b80831415612aa15784861115612a63576000612a4660016064611e1f565b9050604681111561292457600199505050505050505050506113ff565b84861415612a77576129c060016002611e1f565b6000612a8560016064611e1f565b90506014811161292457600199505050505050505050506113ff565b80831115612aec5784861115612ac2576001985050505050505050506113ff565b6000612ad060016064611e1f565b90506028811161292457600199505050505050505050506113ff565b84861015612b05576002985050505050505050506113ff565b84861415612b37576000612b1b60016064611e1f565b9050601e811161292457600199505050505050505050506113ff565b600061290860016064611e1f565b600080546001600160a01b038381166001600160a01b0319831681178455604051919092169283917f8be0079c531659141344cd1fd0a4f28419497f9722a3daafe3b4186f6b6457e09190a35050565b606061122283836040518060600160405280602781526020016133b76027913960606001600160a01b0384163b612c1d5760405162461bcd60e51b815260206004820152602660248201527f416464726573733a2064656c65676174652063616c6c20746f206e6f6e2d636f6044820152651b9d1c9858dd60d21b60648201526084016108bd565b600080856001600160a01b031685604051612c389190613387565b600060405180830381855af49150503d8060008114612c73576040519150601f19603f3d011682016040523d82523d6000602084013e612c78565b606091505b5091509150612c88828286612c92565b9695505050505050565b60608315612ca1575081611222565b825115612cb15782518084602001fd5b8160405162461bcd60e51b81526004016108bd91906133a3565b60008083601f840112612cdd57600080fd5b5081356001600160401b03811115612cf457600080fd5b6020830191508360208260051b8501011115612d0f57600080fd5b9250929050565b600080600060408486031215612d2b57600080fd5b8335925060208401356001600160401b03811115612d4857600080fd5b612d5486828701612ccb565b9497909650939450505050565b6001600160a01b038116811461257857600080fd5b600080600060408486031215612d8b57600080fd5b83356001600160401b03811115612da157600080fd5b612dad86828701612ccb565b9094509250506020840135612dc181612d61565b809150509250925092565b600060208284031215612dde57600080fd5b5035919050565b600081518084526020808501945080840160005b83811015612e1557815187529582019590820190600101612df9565b509495945050505050565b600060018060a01b03808716835260806020840152612e426080840187612de5565b81861660408501528381036060850152612e5c8186612de5565b98975050505050505050565b600080600060608486031215612e7d57600080fd5b833592506020840135612e8f81612d61565b929592945050506040919091013590565b60008060408385031215612eb357600080fd5b8235612ebe81612d61565b946020939093013593505050565b6020815260006112226020830184612de5565b600060208284031215612ef157600080fd5b813561122281612d61565b60008060408385031215612f0f57600080fd5b823591506020830135612f2181612d61565b809150509250929050565b60008060408385031215612f3f57600080fd5b50508035926020909101359150565b600080600080600060808688031215612f6657600080fd5b85359450602086013593506040860135925060608601356001600160401b03811115612f9157600080fd5b612f9d88828901612ccb565b969995985093965092949392505050565b60008060208385031215612fc157600080fd5b82356001600160401b03811115612fd757600080fd5b612fe385828601612ccb565b90969095509350505050565b60005b8381101561300a578181015183820152602001612ff2565b83811115613019576000848401525b50505050565b60008151808452613037816020860160208601612fef565b601f01601f19169290920160200192915050565b6000602080830181845280855180835260408601915060408160051b870101925083870160005b828110156130a057603f1988860301845261308e85835161301f565b94509285019290850190600101613072565b5092979650505050505050565b634e487b7160e01b600052604160045260246000fd5b600060208083850312156130d657600080fd5b82356001600160401b03808211156130ed57600080fd5b818501915085601f83011261310157600080fd5b813581811115613113576131136130ad565b8060051b604051601f19603f83011681018181108582111715613138576131386130ad565b60405291825284820192508381018501918883111561315657600080fd5b938501935b82851015612e5c5784358452938501939285019261315b565b60006020828403121561318657600080fd5b8151801515811461122257600080fd5b634e487b7160e01b600052601160045260246000fd5b600082198211156131bf576131bf613196565b500190565b634e487b7160e01b600052603260045260246000fd5b60006000198214156131ee576131ee613196565b5060010190565b600081600019048311821515161561320f5761320f613196565b500290565b634e487b7160e01b600052601260045260246000fd5b60008261323957613239613214565b500490565b6040815260006132516040830185612de5565b905082151560208301529392505050565b6040808252810183905260006001600160fb1b0384111561328257600080fd5b8360051b8086606085013760009083016060019081529215156020909201919091525092915050565b6000602082840312156132bd57600080fd5b815161122281612d61565b6020808252818101527f4f776e61626c653a2063616c6c6572206973206e6f7420746865206f776e6572604082015260600190565b60008282101561330f5761330f613196565b500390565b60008261332357613323613214565b500690565b6000808335601e1984360301811261333f57600080fd5b8301803591506001600160401b0382111561335957600080fd5b602001915036819003821315612d0f57600080fd5b60006020828403121561338057600080fd5b5051919050565b60008251613399818460208701612fef565b9190910192915050565b602081526000611222602083018461301f56fe416464726573733a206c6f772d6c6576656c2064656c65676174652063616c6c206661696c6564a26469706673582212202e287e964268a0ba60ba9c844fd64b0ecbbac2c6b2a85403aabf6722671dce5764736f6c63430008090033",
  "linkReferences": {},
  "deployedLinkReferences": {}
}