{
  "_format": "hh-sol-artifact-1",
  "contractName": "LobbyBattle",
  "sourceName": "contracts/game/LobbyBattle.sol",
  "abi": [
    {
      "inputs": [
        {
          "internalType": "address",
          "name": "heroManagerAddress",
          "type": "address"
        }
      ],
      "stateMutability": "nonpayable",
      "type": "constructor"
    },
    {
      "anonymous": false,
      "inputs": [
        {
          "indexed": true,
          "internalType": "address",
          "name": "previousOwner",
          "type": "address"
        },
        {
          "indexed": true,
          "internalType": "address",
          "name": "newOwner",
          "type": "address"
        }
      ],
      "name": "OwnershipTransferred",
      "type": "event"
    },
    {
      "inputs": [
        {
          "internalType": "uint256",
          "name": "capacity",
          "type": "uint256"
        },
        {
          "internalType": "uint256[]",
          "name": "heroIds",
          "type": "uint256[]"
        }
      ],
      "name": "createLobby",
      "outputs": [],
      "stateMutability": "nonpayable",
      "type": "function"
    },
    {
      "inputs": [],
      "name": "heroManager",
      "outputs": [
        {
          "internalType": "contract IHeroManager",
          "name": "",
          "type": "address"
        }
      ],
      "stateMutability": "view",
      "type": "function"
    },
    {
      "inputs": [
        {
          "internalType": "uint256",
          "name": "lobbyId",
          "type": "uint256"
        },
        {
          "internalType": "uint256[]",
          "name": "heroIds",
          "type": "uint256[]"
        }
      ],
      "name": "joinLobby",
      "outputs": [],
      "stateMutability": "nonpayable",
      "type": "function"
    },
    {
      "inputs": [
        {
          "internalType": "uint256",
          "name": "",
          "type": "uint256"
        }
      ],
      "name": "lobbies",
      "outputs": [
        {
          "internalType": "uint256",
          "name": "id",
          "type": "uint256"
        },
        {
          "internalType": "address",
          "name": "host",
          "type": "address"
        },
        {
          "internalType": "address",
          "name": "client",
          "type": "address"
        },
        {
          "internalType": "uint256",
          "name": "capacity",
          "type": "uint256"
        },
        {
          "internalType": "uint256",
          "name": "startedAt",
          "type": "uint256"
        },
        {
          "internalType": "uint256",
          "name": "finishedAt",
          "type": "uint256"
        },
        {
          "internalType": "uint8",
          "name": "winner",
          "type": "uint8"
        }
      ],
      "stateMutability": "view",
      "type": "function"
    },
    {
      "inputs": [
        {
          "internalType": "uint256",
          "name": "",
          "type": "uint256"
        },
        {
          "internalType": "address",
          "name": "",
          "type": "address"
        }
      ],
      "name": "lobbiesRefreshed",
      "outputs": [
        {
          "internalType": "uint256",
          "name": "updatedAt",
          "type": "uint256"
        },
        {
          "internalType": "uint8",
          "name": "limit",
          "type": "uint8"
        }
      ],
      "stateMutability": "view",
      "type": "function"
    },
    {
      "inputs": [
        {
          "internalType": "uint256",
          "name": "",
          "type": "uint256"
        }
      ],
      "name": "lobbyFees",
      "outputs": [
        {
          "internalType": "uint256",
          "name": "",
          "type": "uint256"
        }
      ],
      "stateMutability": "view",
      "type": "function"
    },
    {
      "inputs": [
        {
          "internalType": "bytes[]",
          "name": "data",
          "type": "bytes[]"
        }
      ],
      "name": "multicall",
      "outputs": [
        {
          "internalType": "bytes[]",
          "name": "results",
          "type": "bytes[]"
        }
      ],
      "stateMutability": "nonpayable",
      "type": "function"
    },
    {
      "inputs": [],
      "name": "nft",
      "outputs": [
        {
          "internalType": "contract IERC721",
          "name": "",
          "type": "address"
        }
      ],
      "stateMutability": "view",
      "type": "function"
    },
    {
      "inputs": [],
      "name": "owner",
      "outputs": [
        {
          "internalType": "address",
          "name": "",
          "type": "address"
        }
      ],
      "stateMutability": "view",
      "type": "function"
    },
    {
      "inputs": [
        {
          "internalType": "uint256",
          "name": "min",
          "type": "uint256"
        },
        {
          "internalType": "uint256",
          "name": "max",
          "type": "uint256"
        }
      ],
      "name": "random",
      "outputs": [
        {
          "internalType": "uint256",
          "name": "",
          "type": "uint256"
        }
      ],
      "stateMutability": "view",
      "type": "function"
    },
    {
      "inputs": [],
      "name": "renounceOwnership",
      "outputs": [],
      "stateMutability": "nonpayable",
      "type": "function"
    },
    {
      "inputs": [],
      "name": "token",
      "outputs": [
        {
          "internalType": "contract IERC20",
          "name": "",
          "type": "address"
        }
      ],
      "stateMutability": "view",
      "type": "function"
    },
    {
      "inputs": [
        {
          "internalType": "address",
          "name": "newOwner",
          "type": "address"
        }
      ],
      "name": "transferOwnership",
      "outputs": [],
      "stateMutability": "nonpayable",
      "type": "function"
    },
    {
      "inputs": [
        {
          "internalType": "uint256[]",
          "name": "heroIds",
          "type": "uint256[]"
        }
      ],
      "name": "validateHeroIds",
      "outputs": [],
      "stateMutability": "view",
      "type": "function"
    }
  ],
  "bytecode": "0x608060405260fa6005553480156200001657600080fd5b50604051620032293803806200322983398181016040528101906200003c919062000243565b6200005c620000506200010d60201b60201c565b6200011560201b60201c565b80600260006101000a81548173ffffffffffffffffffffffffffffffffffffffff021916908373ffffffffffffffffffffffffffffffffffffffff16021790555069010f0cf064dd5920000060076000600181526020019081526020016000208190555069054b40b1f852bda00000600760006003815260200190815260200160002081905550690a968163f0a57b4000006007600060058152602001908152602001600020819055505062000275565b600033905090565b60008060009054906101000a900473ffffffffffffffffffffffffffffffffffffffff169050816000806101000a81548173ffffffffffffffffffffffffffffffffffffffff021916908373ffffffffffffffffffffffffffffffffffffffff1602179055508173ffffffffffffffffffffffffffffffffffffffff168173ffffffffffffffffffffffffffffffffffffffff167f8be0079c531659141344cd1fd0a4f28419497f9722a3daafe3b4186f6b6457e060405160405180910390a35050565b600080fd5b600073ffffffffffffffffffffffffffffffffffffffff82169050919050565b60006200020b82620001de565b9050919050565b6200021d81620001fe565b81146200022957600080fd5b50565b6000815190506200023d8162000212565b92915050565b6000602082840312156200025c576200025b620001d9565b5b60006200026c848285016200022c565b91505092915050565b612fa480620002856000396000f3fe608060405234801561001057600080fd5b50600436106100e95760003560e01c80638da5cb5b1161008c578063b5f5d2a511610066578063b5f5d2a514610251578063b9f2d5201461026d578063f2fde38b1461029d578063fc0c546a146102b9576100e9565b80638da5cb5b146101d3578063a9dd1225146101f1578063ac9650d814610221576100e9565b80636e8fb4c6116100c85780636e8fb4c614610146578063715018a61461017c5780637675e0e01461018657806377cb47bf146101a2576100e9565b8062c8bd7e146100ee5780633b8a7a131461010a57806347ccca0214610128575b600080fd5b61010860048036038101906101039190611ea5565b6102d7565b005b6101126109ab565b60405161011f9190611f84565b60405180910390f35b6101306109d1565b60405161013d9190611fc0565b60405180910390f35b610160600480360381019061015b9190611fdb565b6109f7565b6040516101739796959493929190612054565b60405180910390f35b610184610a86565b005b6101a0600480360381019061019b9190611ea5565b610b0e565b005b6101bc60048036038101906101b791906120ef565b610eb8565b6040516101ca92919061212f565b60405180910390f35b6101db610ef6565b6040516101e89190612158565b60405180910390f35b61020b60048036038101906102069190612173565b610f1f565b60405161021891906121b3565b60405180910390f35b61023b60048036038101906102369190612224565b610f89565b60405161024891906123cc565b60405180910390f35b61026b600480360381019061026691906123ee565b611095565b005b61028760048036038101906102829190611fdb565b6111f2565b60405161029491906121b3565b60405180910390f35b6102b760048036038101906102b2919061243b565b61120a565b005b6102c1611302565b6040516102ce9190612489565b60405180910390f35b60006008600085815260200190815260200160002060405180610120016040529081600082015481526020016001820160009054906101000a900473ffffffffffffffffffffffffffffffffffffffff1673ffffffffffffffffffffffffffffffffffffffff1673ffffffffffffffffffffffffffffffffffffffff1681526020016002820160009054906101000a900473ffffffffffffffffffffffffffffffffffffffff1673ffffffffffffffffffffffffffffffffffffffff1673ffffffffffffffffffffffffffffffffffffffff168152602001600382015481526020016004820180548060200260200160405190810160405280929190818152602001828054801561040757602002820191906000526020600020905b8154815260200190600101908083116103f3575b505050505081526020016005820180548060200260200160405190810160405280929190818152602001828054801561045f57602002820191906000526020600020905b81548152602001906001019080831161044b575b5050505050815260200160068201548152602001600782015481526020016008820160009054906101000a900460ff1660ff1660ff16815250509050838160000151146104e1576040517f08c379a00000000000000000000000000000000000000000000000000000000081526004016104d890612501565b60405180910390fd5b8282905081606001511461052a576040517f08c379a00000000000000000000000000000000000000000000000000000000081526004016105219061256d565b60405180910390fd5b60008160e0015114610571576040517f08c379a0000000000000000000000000000000000000000000000000000000008152600401610568906125d9565b60405180910390fd5b600360009054906101000a900473ffffffffffffffffffffffffffffffffffffffff1673ffffffffffffffffffffffffffffffffffffffff166323b872dd33306007600086606001518152602001908152602001600020546040518463ffffffff1660e01b81526004016105e7939291906125f9565b602060405180830381600087803b15801561060157600080fd5b505af1158015610615573d6000803e3d6000fd5b505050506040513d601f19601f820116820180604052508101906106399190612668565b610678576040517f08c379a000000000000000000000000000000000000000000000000000000000815260040161066f906126e1565b60405180910390fd5b6106828383611095565b33816040019073ffffffffffffffffffffffffffffffffffffffff16908173ffffffffffffffffffffffffffffffffffffffff1681525050428160e0018181525050600181606001511415610733576107208160800151848480806020026020016040519081016040528093929190818152602001838360200280828437600081840152601f19601f82011690508083019250505050505050611328565b81610100019060ff16908160ff16815250505b828280806020026020016040519081016040528093929190818152602001838360200280828437600081840152601f19601f820116905080830192505050505050508160a0018190525080600860008681526020019081526020016000206000820151816000015560208201518160010160006101000a81548173ffffffffffffffffffffffffffffffffffffffff021916908373ffffffffffffffffffffffffffffffffffffffff16021790555060408201518160020160006101000a81548173ffffffffffffffffffffffffffffffffffffffff021916908373ffffffffffffffffffffffffffffffffffffffff16021790555060608201518160030155608082015181600401908051906020019061084f929190611d96565b5060a082015181600501908051906020019061086c929190611d96565b5060c0820151816006015560e082015181600701556101008201518160080160006101000a81548160ff021916908360ff160217905550905050600360009054906101000a900473ffffffffffffffffffffffffffffffffffffffff1673ffffffffffffffffffffffffffffffffffffffff1663a9059cbb600183610100015160ff16146108fe578260400151610904565b82602001515b606460055460076000876060015181526020019081526020016000205461092b9190612730565b61093591906127b9565b6040518363ffffffff1660e01b81526004016109529291906127ea565b602060405180830381600087803b15801561096c57600080fd5b505af1158015610980573d6000803e3d6000fd5b505050506040513d601f19601f820116820180604052508101906109a49190612668565b5050505050565b600260009054906101000a900473ffffffffffffffffffffffffffffffffffffffff1681565b600460009054906101000a900473ffffffffffffffffffffffffffffffffffffffff1681565b60086020528060005260406000206000915090508060000154908060010160009054906101000a900473ffffffffffffffffffffffffffffffffffffffff16908060020160009054906101000a900473ffffffffffffffffffffffffffffffffffffffff16908060030154908060060154908060070154908060080160009054906101000a900460ff16905087565b610a8e611b32565b73ffffffffffffffffffffffffffffffffffffffff16610aac610ef6565b73ffffffffffffffffffffffffffffffffffffffff1614610b02576040517f08c379a0000000000000000000000000000000000000000000000000000000008152600401610af99061285f565b60405180910390fd5b610b0c6000611b3a565b565b610b188282611095565b818190508314610b5d576040517f08c379a0000000000000000000000000000000000000000000000000000000008152600401610b54906128cb565b60405180910390fd5b6000600760008581526020019081526020016000205411610bb3576040517f08c379a0000000000000000000000000000000000000000000000000000000008152600401610baa9061295d565b60405180910390fd5b600360009054906101000a900473ffffffffffffffffffffffffffffffffffffffff1673ffffffffffffffffffffffffffffffffffffffff166323b872dd333060076000888152602001908152602001600020546040518463ffffffff1660e01b8152600401610c25939291906125f9565b602060405180830381600087803b158015610c3f57600080fd5b505af1158015610c53573d6000803e3d6000fd5b505050506040513d601f19601f82011682018060405250810190610c779190612668565b610cb6576040517f08c379a0000000000000000000000000000000000000000000000000000000008152600401610cad906126e1565b60405180910390fd5b6060610cc26001611bfe565b6000610cce6001611c14565b905060006040518061012001604052808381526020013373ffffffffffffffffffffffffffffffffffffffff168152602001600073ffffffffffffffffffffffffffffffffffffffff168152602001878152602001868680806020026020016040519081016040528093929190818152602001838360200280828437600081840152601f19601f82011690508083019250505050505050815260200184815260200142815260200160008152602001600060ff16815250905080600860008481526020019081526020016000206000820151816000015560208201518160010160006101000a81548173ffffffffffffffffffffffffffffffffffffffff021916908373ffffffffffffffffffffffffffffffffffffffff16021790555060408201518160020160006101000a81548173ffffffffffffffffffffffffffffffffffffffff021916908373ffffffffffffffffffffffffffffffffffffffff160217905550606082015181600301556080820151816004019080519060200190610e59929190611d96565b5060a0820151816005019080519060200190610e76929190611d96565b5060c0820151816006015560e082015181600701556101008201518160080160006101000a81548160ff021916908360ff160217905550905050505050505050565b6006602052816000526040600020602052806000526040600020600091509150508060000154908060010160009054906101000a900460ff16905082565b60008060009054906101000a900473ffffffffffffffffffffffffffffffffffffffff16905090565b600080444233604051602001610f37939291906129e6565b6040516020818303038152906040528051906020012060001c90508360018585610f619190612a23565b610f6b9190612a57565b82610f769190612aad565b610f809190612a57565b91505092915050565b60608282905067ffffffffffffffff811115610fa857610fa7612ade565b5b604051908082528060200260200182016040528015610fdb57816020015b6060815260200190600190039081610fc65790505b50905060005b8383905081101561108e5761105d3085858481811061100357611002612b0d565b5b90506020028101906110159190612b4b565b8080601f016020809104026020016040519081016040528093929190818152602001838380828437600081840152601f19601f82011690508083019250505050505050611c22565b8282815181106110705761106f612b0d565b5b6020026020010181905250808061108690612bae565b915050610fe1565b5092915050565b60005b828290508160ff1610156111ed573373ffffffffffffffffffffffffffffffffffffffff16600460009054906101000a900473ffffffffffffffffffffffffffffffffffffffff1673ffffffffffffffffffffffffffffffffffffffff16636352211e85858560ff1681811061111157611110612b0d565b5b905060200201356040518263ffffffff1660e01b815260040161113491906121b3565b60206040518083038186803b15801561114c57600080fd5b505afa158015611160573d6000803e3d6000fd5b505050506040513d601f19601f820116820180604052508101906111849190612c0c565b73ffffffffffffffffffffffffffffffffffffffff16146111da576040517f08c379a00000000000000000000000000000000000000000000000000000000081526004016111d190612c85565b60405180910390fd5b80806111e590612ca5565b915050611098565b505050565b60076020528060005260406000206000915090505481565b611212611b32565b73ffffffffffffffffffffffffffffffffffffffff16611230610ef6565b73ffffffffffffffffffffffffffffffffffffffff1614611286576040517f08c379a000000000000000000000000000000000000000000000000000000000815260040161127d9061285f565b60405180910390fd5b600073ffffffffffffffffffffffffffffffffffffffff168173ffffffffffffffffffffffffffffffffffffffff1614156112f6576040517f08c379a00000000000000000000000000000000000000000000000000000000081526004016112ed90612d41565b60405180910390fd5b6112ff81611b3a565b50565b600360009054906101000a900473ffffffffffffffffffffffffffffffffffffffff1681565b6000808360008151811061133f5761133e612b0d565b5b6020026020010151905060008360008151811061135f5761135e612b0d565b5b602002602001015190506000600260009054906101000a900473ffffffffffffffffffffffffffffffffffffffff1673ffffffffffffffffffffffffffffffffffffffff1663d5c1ed8a846040518263ffffffff1660e01b81526004016113c691906121b3565b60206040518083038186803b1580156113de57600080fd5b505afa1580156113f2573d6000803e3d6000fd5b505050506040513d601f19601f820116820180604052508101906114169190612d76565b90506000600260009054906101000a900473ffffffffffffffffffffffffffffffffffffffff1673ffffffffffffffffffffffffffffffffffffffff1663d5c1ed8a846040518263ffffffff1660e01b815260040161147591906121b3565b60206040518083038186803b15801561148d57600080fd5b505afa1580156114a1573d6000803e3d6000fd5b505050506040513d601f19601f820116820180604052508101906114c59190612d76565b90506000600260009054906101000a900473ffffffffffffffffffffffffffffffffffffffff1673ffffffffffffffffffffffffffffffffffffffff1663f3d1b5ab866040518263ffffffff1660e01b815260040161152491906121b3565b60206040518083038186803b15801561153c57600080fd5b505afa158015611550573d6000803e3d6000fd5b505050506040513d601f19601f820116820180604052508101906115749190612dcf565b90506000600260009054906101000a900473ffffffffffffffffffffffffffffffffffffffff1673ffffffffffffffffffffffffffffffffffffffff16630a36d40b876040518263ffffffff1660e01b81526004016115d391906121b3565b60206040518083038186803b1580156115eb57600080fd5b505afa1580156115ff573d6000803e3d6000fd5b505050506040513d601f19601f820116820180604052508101906116239190612dcf565b90506000600260009054906101000a900473ffffffffffffffffffffffffffffffffffffffff1673ffffffffffffffffffffffffffffffffffffffff1663f3d1b5ab876040518263ffffffff1660e01b815260040161168291906121b3565b60206040518083038186803b15801561169a57600080fd5b505afa1580156116ae573d6000803e3d6000fd5b505050506040513d601f19601f820116820180604052508101906116d29190612dcf565b90506000600260009054906101000a900473ffffffffffffffffffffffffffffffffffffffff1673ffffffffffffffffffffffffffffffffffffffff16630a36d40b886040518263ffffffff1660e01b815260040161173191906121b3565b60206040518083038186803b15801561174957600080fd5b505afa15801561175d573d6000803e3d6000fd5b505050506040513d601f19601f820116820180604052508101906117819190612dcf565b90508160ff168460ff161415611982578060ff168360ff16111561183857848611156117b857600198505050505050505050611b2c565b848614156117fc5760006117ce60016064610f1f565b9050603c81116117ea5760019950505050505050505050611b2c565b60029950505050505050505050611b2c565b600061180a60016064610f1f565b9050604681116118265760029950505050505050505050611b2c565b60019950505050505050505050611b2c565b8060ff168360ff1614156118e9578486111561188a57600061185c60016064610f1f565b9050604681116118785760019950505050505050505050611b2c565b60029950505050505050505050611b2c565b848614156118ad5761189e60016002610f1f565b98505050505050505050611b2c565b60006118bb60016064610f1f565b9050604681116118d75760029950505050505050505050611b2c565b60019950505050505050505050611b2c565b8486101561190257600298505050505050505050611b2c565b8486141561194657600061191860016064610f1f565b9050603c81116119345760029950505050505050505050611b2c565b60019950505050505050505050611b2c565b600061195460016064610f1f565b9050604681116119705760019950505050505050505050611b2c565b60029950505050505050505050611b2c565b8060ff168360ff161415611a3457848611156119d55760006119a660016064610f1f565b905060468111156119c35760019950505050505050505050611b2c565b60029950505050505050505050611b2c565b848614156119f8576119e960016002610f1f565b98505050505050505050611b2c565b6000611a0660016064610f1f565b905060148111611a225760019950505050505050505050611b2c565b60029950505050505050505050611b2c565b8060ff168360ff161115611a975784861115611a5b57600198505050505050505050611b2c565b6000611a6960016064610f1f565b905060288111611a855760019950505050505050505050611b2c565b60029950505050505050505050611b2c565b84861015611ab057600298505050505050505050611b2c565b84861415611af4576000611ac660016064610f1f565b9050601e8111611ae25760019950505050505050505050611b2c565b60029950505050505050505050611b2c565b6000611b0260016064610f1f565b9050603c8111611b1e5760019950505050505050505050611b2c565b600299505050505050505050505b92915050565b600033905090565b60008060009054906101000a900473ffffffffffffffffffffffffffffffffffffffff169050816000806101000a81548173ffffffffffffffffffffffffffffffffffffffff021916908373ffffffffffffffffffffffffffffffffffffffff1602179055508173ffffffffffffffffffffffffffffffffffffffff168173ffffffffffffffffffffffffffffffffffffffff167f8be0079c531659141344cd1fd0a4f28419497f9722a3daafe3b4186f6b6457e060405160405180910390a35050565b6001816000016000828254019250508190555050565b600081600001549050919050565b6060611c478383604051806060016040528060278152602001612f4860279139611c4f565b905092915050565b6060611c5a84611d1c565b611c99576040517f08c379a0000000000000000000000000000000000000000000000000000000008152600401611c9090612e6e565b60405180910390fd5b6000808573ffffffffffffffffffffffffffffffffffffffff1685604051611cc19190612eca565b600060405180830381855af49150503d8060008114611cfc576040519150601f19603f3d011682016040523d82523d6000602084013e611d01565b606091505b5091509150611d11828286611d2f565b925050509392505050565b600080823b905060008111915050919050565b60608315611d3f57829050611d8f565b600083511115611d525782518084602001fd5b816040517f08c379a0000000000000000000000000000000000000000000000000000000008152600401611d869190612f25565b60405180910390fd5b9392505050565b828054828255906000526020600020908101928215611dd2579160200282015b82811115611dd1578251825591602001919060010190611db6565b5b509050611ddf9190611de3565b5090565b5b80821115611dfc576000816000905550600101611de4565b5090565b600080fd5b600080fd5b6000819050919050565b611e1d81611e0a565b8114611e2857600080fd5b50565b600081359050611e3a81611e14565b92915050565b600080fd5b600080fd5b600080fd5b60008083601f840112611e6557611e64611e40565b5b8235905067ffffffffffffffff811115611e8257611e81611e45565b5b602083019150836020820283011115611e9e57611e9d611e4a565b5b9250929050565b600080600060408486031215611ebe57611ebd611e00565b5b6000611ecc86828701611e2b565b935050602084013567ffffffffffffffff811115611eed57611eec611e05565b5b611ef986828701611e4f565b92509250509250925092565b600073ffffffffffffffffffffffffffffffffffffffff82169050919050565b6000819050919050565b6000611f4a611f45611f4084611f05565b611f25565b611f05565b9050919050565b6000611f5c82611f2f565b9050919050565b6000611f6e82611f51565b9050919050565b611f7e81611f63565b82525050565b6000602082019050611f996000830184611f75565b92915050565b6000611faa82611f51565b9050919050565b611fba81611f9f565b82525050565b6000602082019050611fd56000830184611fb1565b92915050565b600060208284031215611ff157611ff0611e00565b5b6000611fff84828501611e2b565b91505092915050565b61201181611e0a565b82525050565b600061202282611f05565b9050919050565b61203281612017565b82525050565b600060ff82169050919050565b61204e81612038565b82525050565b600060e082019050612069600083018a612008565b6120766020830189612029565b6120836040830188612029565b6120906060830187612008565b61209d6080830186612008565b6120aa60a0830185612008565b6120b760c0830184612045565b98975050505050505050565b6120cc81612017565b81146120d757600080fd5b50565b6000813590506120e9816120c3565b92915050565b6000806040838503121561210657612105611e00565b5b600061211485828601611e2b565b9250506020612125858286016120da565b9150509250929050565b60006040820190506121446000830185612008565b6121516020830184612045565b9392505050565b600060208201905061216d6000830184612029565b92915050565b6000806040838503121561218a57612189611e00565b5b600061219885828601611e2b565b92505060206121a985828601611e2b565b9150509250929050565b60006020820190506121c86000830184612008565b92915050565b60008083601f8401126121e4576121e3611e40565b5b8235905067ffffffffffffffff81111561220157612200611e45565b5b60208301915083602082028301111561221d5761221c611e4a565b5b9250929050565b6000806020838503121561223b5761223a611e00565b5b600083013567ffffffffffffffff81111561225957612258611e05565b5b612265858286016121ce565b92509250509250929050565b600081519050919050565b600082825260208201905092915050565b6000819050602082019050919050565b600081519050919050565b600082825260208201905092915050565b60005b838110156122d75780820151818401526020810190506122bc565b838111156122e6576000848401525b50505050565b6000601f19601f8301169050919050565b60006123088261229d565b61231281856122a8565b93506123228185602086016122b9565b61232b816122ec565b840191505092915050565b600061234283836122fd565b905092915050565b6000602082019050919050565b600061236282612271565b61236c818561227c565b93508360208202850161237e8561228d565b8060005b858110156123ba578484038952815161239b8582612336565b94506123a68361234a565b925060208a01995050600181019050612382565b50829750879550505050505092915050565b600060208201905081810360008301526123e68184612357565b905092915050565b6000806020838503121561240557612404611e00565b5b600083013567ffffffffffffffff81111561242357612422611e05565b5b61242f85828601611e4f565b92509250509250929050565b60006020828403121561245157612450611e00565b5b600061245f848285016120da565b91505092915050565b600061247382611f51565b9050919050565b61248381612468565b82525050565b600060208201905061249e600083018461247a565b92915050565b600082825260208201905092915050565b7f4c6f626279426174746c653a206c6f62627920646f65736e2774206578697374600082015250565b60006124eb6020836124a4565b91506124f6826124b5565b602082019050919050565b6000602082019050818103600083015261251a816124de565b9050919050565b7f4c6f626279426174746c653a2077726f6e67206865726f657300000000000000600082015250565b60006125576019836124a4565b915061256282612521565b602082019050919050565b600060208201905081810360008301526125868161254a565b9050919050565b7f4c6f626279426174746c653a20616c72656164792066696e6973686564000000600082015250565b60006125c3601d836124a4565b91506125ce8261258d565b602082019050919050565b600060208201905081810360008301526125f2816125b6565b9050919050565b600060608201905061260e6000830186612029565b61261b6020830185612029565b6126286040830184612008565b949350505050565b60008115159050919050565b61264581612630565b811461265057600080fd5b50565b6000815190506126628161263c565b92915050565b60006020828403121561267e5761267d611e00565b5b600061268c84828501612653565b91505092915050565b7f4c6f626279426174746c653a206e6f7420656e6f756768206665650000000000600082015250565b60006126cb601b836124a4565b91506126d682612695565b602082019050919050565b600060208201905081810360008301526126fa816126be565b9050919050565b7f4e487b7100000000000000000000000000000000000000000000000000000000600052601160045260246000fd5b600061273b82611e0a565b915061274683611e0a565b9250817fffffffffffffffffffffffffffffffffffffffffffffffffffffffffffffffff048311821515161561277f5761277e612701565b5b828202905092915050565b7f4e487b7100000000000000000000000000000000000000000000000000000000600052601260045260246000fd5b60006127c482611e0a565b91506127cf83611e0a565b9250826127df576127de61278a565b5b828204905092915050565b60006040820190506127ff6000830185612029565b61280c6020830184612008565b9392505050565b7f4f776e61626c653a2063616c6c6572206973206e6f7420746865206f776e6572600082015250565b60006128496020836124a4565b915061285482612813565b602082019050919050565b600060208201905081810360008301526128788161283c565b9050919050565b7f4c6f626279426174746c653a2077726f6e6720706172616d6574657273000000600082015250565b60006128b5601d836124a4565b91506128c08261287f565b602082019050919050565b600060208201905081810360008301526128e4816128a8565b9050919050565b7f4c6f626279426174746c653a2077726f6e67206c6f626279206361706163697460008201527f7900000000000000000000000000000000000000000000000000000000000000602082015250565b60006129476021836124a4565b9150612952826128eb565b604082019050919050565b600060208201905081810360008301526129768161293a565b9050919050565b6000819050919050565b61299861299382611e0a565b61297d565b82525050565b60008160601b9050919050565b60006129b68261299e565b9050919050565b60006129c8826129ab565b9050919050565b6129e06129db82612017565b6129bd565b82525050565b60006129f28286612987565b602082019150612a028285612987565b602082019150612a1282846129cf565b601482019150819050949350505050565b6000612a2e82611e0a565b9150612a3983611e0a565b925082821015612a4c57612a4b612701565b5b828203905092915050565b6000612a6282611e0a565b9150612a6d83611e0a565b9250827fffffffffffffffffffffffffffffffffffffffffffffffffffffffffffffffff03821115612aa257612aa1612701565b5b828201905092915050565b6000612ab882611e0a565b9150612ac383611e0a565b925082612ad357612ad261278a565b5b828206905092915050565b7f4e487b7100000000000000000000000000000000000000000000000000000000600052604160045260246000fd5b7f4e487b7100000000000000000000000000000000000000000000000000000000600052603260045260246000fd5b600080fd5b600080fd5b600080fd5b60008083356001602003843603038112612b6857612b67612b3c565b5b80840192508235915067ffffffffffffffff821115612b8a57612b89612b41565b5b602083019250600182023603831315612ba657612ba5612b46565b5b509250929050565b6000612bb982611e0a565b91507fffffffffffffffffffffffffffffffffffffffffffffffffffffffffffffffff821415612bec57612beb612701565b5b600182019050919050565b600081519050612c06816120c3565b92915050565b600060208284031215612c2257612c21611e00565b5b6000612c3084828501612bf7565b91505092915050565b7f4c6f626279426174746c653a206e6f74206865726f206f776e65720000000000600082015250565b6000612c6f601b836124a4565b9150612c7a82612c39565b602082019050919050565b60006020820190508181036000830152612c9e81612c62565b9050919050565b6000612cb082612038565b915060ff821415612cc457612cc3612701565b5b600182019050919050565b7f4f776e61626c653a206e6577206f776e657220697320746865207a65726f206160008201527f6464726573730000000000000000000000000000000000000000000000000000602082015250565b6000612d2b6026836124a4565b9150612d3682612ccf565b604082019050919050565b60006020820190508181036000830152612d5a81612d1e565b9050919050565b600081519050612d7081611e14565b92915050565b600060208284031215612d8c57612d8b611e00565b5b6000612d9a84828501612d61565b91505092915050565b612dac81612038565b8114612db757600080fd5b50565b600081519050612dc981612da3565b92915050565b600060208284031215612de557612de4611e00565b5b6000612df384828501612dba565b91505092915050565b7f416464726573733a2064656c65676174652063616c6c20746f206e6f6e2d636f60008201527f6e74726163740000000000000000000000000000000000000000000000000000602082015250565b6000612e586026836124a4565b9150612e6382612dfc565b604082019050919050565b60006020820190508181036000830152612e8781612e4b565b9050919050565b600081905092915050565b6000612ea48261229d565b612eae8185612e8e565b9350612ebe8185602086016122b9565b80840191505092915050565b6000612ed68284612e99565b915081905092915050565b600081519050919050565b6000612ef782612ee1565b612f0181856124a4565b9350612f118185602086016122b9565b612f1a816122ec565b840191505092915050565b60006020820190508181036000830152612f3f8184612eec565b90509291505056fe416464726573733a206c6f772d6c6576656c2064656c65676174652063616c6c206661696c6564a264697066735822122024fae68a37a9fbe45cdeff00b08676ec6167ab3695f19c46c1e1ed951b51eb9464736f6c63430008090033",
  "linkReferences": {},
  "deployedLinkReferences": {}
}