{
  "_format": "hh-sol-artifact-1",
  "contractName": "LobbyBattle",
  "sourceName": "contracts/game/LobbyBattle.sol",
  "abi": [
    {
      "inputs": [],
      "stateMutability": "nonpayable",
      "type": "constructor"
    },
    {
      "anonymous": false,
      "inputs": [
        {
          "indexed": true,
          "internalType": "uint256",
          "name": "lobbyId",
          "type": "uint256"
        },
        {
          "indexed": true,
          "internalType": "address",
          "name": "host",
          "type": "address"
        },
        {
          "indexed": true,
          "internalType": "address",
          "name": "client",
          "type": "address"
        }
      ],
      "name": "BattleFinished",
      "type": "event"
    },
    {
      "anonymous": false,
      "inputs": [
        {
          "indexed": true,
          "internalType": "address",
          "name": "previousOwner",
          "type": "address"
        },
        {
          "indexed": true,
          "internalType": "address",
          "name": "newOwner",
          "type": "address"
        }
      ],
      "name": "OwnershipTransferred",
      "type": "event"
    },
    {
      "inputs": [
        {
          "internalType": "bytes32",
          "name": "name",
          "type": "bytes32"
        },
        {
          "internalType": "bytes32",
          "name": "avatar",
          "type": "bytes32"
        },
        {
          "internalType": "uint256",
          "name": "capacity",
          "type": "uint256"
        },
        {
          "internalType": "uint256",
          "name": "minPower",
          "type": "uint256"
        },
        {
          "internalType": "uint256",
          "name": "maxPower",
          "type": "uint256"
        },
        {
          "internalType": "uint256[]",
          "name": "heroIds",
          "type": "uint256[]"
        }
      ],
      "name": "createLobby",
      "outputs": [],
      "stateMutability": "nonpayable",
      "type": "function"
    },
    {
      "inputs": [
        {
          "internalType": "address",
          "name": "myAddr",
          "type": "address"
        },
        {
          "internalType": "uint256",
          "name": "capacity",
          "type": "uint256"
        }
      ],
      "name": "getActiveLobbies",
      "outputs": [
        {
          "internalType": "uint256[]",
          "name": "",
          "type": "uint256[]"
        }
      ],
      "stateMutability": "view",
      "type": "function"
    },
    {
      "inputs": [
        {
          "internalType": "uint256",
          "name": "capacity",
          "type": "uint256"
        }
      ],
      "name": "getAllHistory",
      "outputs": [
        {
          "internalType": "uint256[]",
          "name": "",
          "type": "uint256[]"
        }
      ],
      "stateMutability": "view",
      "type": "function"
    },
    {
      "inputs": [
        {
          "internalType": "uint256[]",
          "name": "heroes",
          "type": "uint256[]"
        }
      ],
      "name": "getHeroesPower",
      "outputs": [
        {
          "internalType": "uint256",
          "name": "",
          "type": "uint256"
        }
      ],
      "stateMutability": "view",
      "type": "function"
    },
    {
      "inputs": [
        {
          "internalType": "uint256",
          "name": "lobbyId",
          "type": "uint256"
        }
      ],
      "name": "getLobbyHeroes",
      "outputs": [
        {
          "internalType": "address",
          "name": "",
          "type": "address"
        },
        {
          "internalType": "uint256[]",
          "name": "",
          "type": "uint256[]"
        },
        {
          "internalType": "address",
          "name": "",
          "type": "address"
        },
        {
          "internalType": "uint256[]",
          "name": "",
          "type": "uint256[]"
        }
      ],
      "stateMutability": "view",
      "type": "function"
    },
    {
      "inputs": [
        {
          "internalType": "uint256",
          "name": "lobbyId",
          "type": "uint256"
        }
      ],
      "name": "getLobbyPower",
      "outputs": [
        {
          "internalType": "address",
          "name": "",
          "type": "address"
        },
        {
          "internalType": "uint256",
          "name": "",
          "type": "uint256"
        },
        {
          "internalType": "address",
          "name": "",
          "type": "address"
        },
        {
          "internalType": "uint256",
          "name": "",
          "type": "uint256"
        }
      ],
      "stateMutability": "view",
      "type": "function"
    },
    {
      "inputs": [
        {
          "internalType": "uint256",
          "name": "lobbyId",
          "type": "uint256"
        }
      ],
      "name": "getLobbyPowerRange",
      "outputs": [
        {
          "internalType": "uint256",
          "name": "",
          "type": "uint256"
        },
        {
          "internalType": "uint256",
          "name": "",
          "type": "uint256"
        },
        {
          "internalType": "uint256",
          "name": "",
          "type": "uint256"
        },
        {
          "internalType": "uint256",
          "name": "",
          "type": "uint256"
        }
      ],
      "stateMutability": "view",
      "type": "function"
    },
    {
      "inputs": [
        {
          "internalType": "address",
          "name": "myAddr",
          "type": "address"
        },
        {
          "internalType": "uint256",
          "name": "capacity",
          "type": "uint256"
        }
      ],
      "name": "getMyHistory",
      "outputs": [
        {
          "internalType": "uint256[]",
          "name": "",
          "type": "uint256[]"
        }
      ],
      "stateMutability": "view",
      "type": "function"
    },
    {
      "inputs": [
        {
          "internalType": "address",
          "name": "myAddr",
          "type": "address"
        },
        {
          "internalType": "uint256",
          "name": "capacity",
          "type": "uint256"
        }
      ],
      "name": "getMyLobbies",
      "outputs": [
        {
          "internalType": "uint256[]",
          "name": "",
          "type": "uint256[]"
        }
      ],
      "stateMutability": "view",
      "type": "function"
    },
    {
      "inputs": [
        {
          "internalType": "uint256",
          "name": "lobbyId",
          "type": "uint256"
        },
        {
          "internalType": "address",
          "name": "player",
          "type": "address"
        }
      ],
      "name": "getPlayerHeroesOnLobby",
      "outputs": [
        {
          "internalType": "uint256[]",
          "name": "",
          "type": "uint256[]"
        }
      ],
      "stateMutability": "view",
      "type": "function"
    },
    {
      "inputs": [],
      "name": "heroManager",
      "outputs": [
        {
          "internalType": "contract IHeroManager",
          "name": "",
          "type": "address"
        }
      ],
      "stateMutability": "view",
      "type": "function"
    },
    {
      "inputs": [],
      "name": "heroPowerRange",
      "outputs": [
        {
          "internalType": "uint256",
          "name": "",
          "type": "uint256"
        }
      ],
      "stateMutability": "view",
      "type": "function"
    },
    {
      "inputs": [
        {
          "internalType": "uint256",
          "name": "lobbyId",
          "type": "uint256"
        },
        {
          "internalType": "uint256",
          "name": "minPower",
          "type": "uint256"
        },
        {
          "internalType": "uint256",
          "name": "maxPower",
          "type": "uint256"
        },
        {
          "internalType": "uint256[]",
          "name": "heroIds",
          "type": "uint256[]"
        }
      ],
      "name": "joinLobby",
      "outputs": [],
      "stateMutability": "nonpayable",
      "type": "function"
    },
    {
      "inputs": [
        {
          "internalType": "uint256",
          "name": "",
          "type": "uint256"
        }
      ],
      "name": "lobbies",
      "outputs": [
        {
          "internalType": "bytes32",
          "name": "name",
          "type": "bytes32"
        },
        {
          "internalType": "bytes32",
          "name": "avatar",
          "type": "bytes32"
        },
        {
          "internalType": "address",
          "name": "host",
          "type": "address"
        },
        {
          "internalType": "address",
          "name": "client",
          "type": "address"
        },
        {
          "internalType": "uint256",
          "name": "id",
          "type": "uint256"
        },
        {
          "internalType": "uint256",
          "name": "capacity",
          "type": "uint256"
        },
        {
          "internalType": "uint256",
          "name": "startedAt",
          "type": "uint256"
        },
        {
          "internalType": "uint256",
          "name": "finishedAt",
          "type": "uint256"
        },
        {
          "internalType": "uint256",
          "name": "winner",
          "type": "uint256"
        },
        {
          "internalType": "uint256",
          "name": "fee",
          "type": "uint256"
        },
        {
          "internalType": "uint256",
          "name": "rewards",
          "type": "uint256"
        }
      ],
      "stateMutability": "view",
      "type": "function"
    },
    {
      "inputs": [
        {
          "internalType": "uint256",
          "name": "",
          "type": "uint256"
        }
      ],
      "name": "lobbyFees",
      "outputs": [
        {
          "internalType": "uint256",
          "name": "",
          "type": "uint256"
        }
      ],
      "stateMutability": "view",
      "type": "function"
    },
    {
      "inputs": [
        {
          "internalType": "uint256",
          "name": "",
          "type": "uint256"
        },
        {
          "internalType": "address",
          "name": "",
          "type": "address"
        },
        {
          "internalType": "uint256",
          "name": "",
          "type": "uint256"
        }
      ],
      "name": "lobbyHeroes",
      "outputs": [
        {
          "internalType": "uint256",
          "name": "",
          "type": "uint256"
        }
      ],
      "stateMutability": "view",
      "type": "function"
    },
    {
      "inputs": [
        {
          "internalType": "uint256",
          "name": "",
          "type": "uint256"
        },
        {
          "internalType": "address",
          "name": "",
          "type": "address"
        }
      ],
      "name": "lobbyHeroesCount",
      "outputs": [
        {
          "internalType": "uint256",
          "name": "",
          "type": "uint256"
        }
      ],
      "stateMutability": "view",
      "type": "function"
    },
    {
      "inputs": [
        {
          "internalType": "uint256",
          "name": "",
          "type": "uint256"
        },
        {
          "internalType": "address",
          "name": "",
          "type": "address"
        },
        {
          "internalType": "uint256",
          "name": "",
          "type": "uint256"
        }
      ],
      "name": "lobbyPowers",
      "outputs": [
        {
          "internalType": "uint256",
          "name": "",
          "type": "uint256"
        }
      ],
      "stateMutability": "view",
      "type": "function"
    },
    {
      "inputs": [
        {
          "internalType": "bytes[]",
          "name": "data",
          "type": "bytes[]"
        }
      ],
      "name": "multicall",
      "outputs": [
        {
          "internalType": "bytes[]",
          "name": "results",
          "type": "bytes[]"
        }
      ],
      "stateMutability": "nonpayable",
      "type": "function"
    },
    {
      "inputs": [],
      "name": "nft",
      "outputs": [
        {
          "internalType": "contract IERC721",
          "name": "",
          "type": "address"
        }
      ],
      "stateMutability": "view",
      "type": "function"
    },
    {
      "inputs": [],
      "name": "owner",
      "outputs": [
        {
          "internalType": "address",
          "name": "",
          "type": "address"
        }
      ],
      "stateMutability": "view",
      "type": "function"
    },
    {
      "inputs": [
        {
          "internalType": "address",
          "name": "",
          "type": "address"
        }
      ],
      "name": "playersFees",
      "outputs": [
        {
          "internalType": "uint256",
          "name": "",
          "type": "uint256"
        }
      ],
      "stateMutability": "view",
      "type": "function"
    },
    {
      "inputs": [
        {
          "internalType": "address",
          "name": "",
          "type": "address"
        }
      ],
      "name": "playersRewards",
      "outputs": [
        {
          "internalType": "uint256",
          "name": "",
          "type": "uint256"
        }
      ],
      "stateMutability": "view",
      "type": "function"
    },
    {
      "inputs": [
        {
          "internalType": "uint256",
          "name": "min",
          "type": "uint256"
        },
        {
          "internalType": "uint256",
          "name": "max",
          "type": "uint256"
        }
      ],
      "name": "random",
      "outputs": [
        {
          "internalType": "uint256",
          "name": "",
          "type": "uint256"
        }
      ],
      "stateMutability": "view",
      "type": "function"
    },
    {
      "inputs": [
        {
          "internalType": "address",
          "name": "",
          "type": "address"
        }
      ],
      "name": "registeredPlayers",
      "outputs": [
        {
          "internalType": "bool",
          "name": "",
          "type": "bool"
        }
      ],
      "stateMutability": "view",
      "type": "function"
    },
    {
      "inputs": [],
      "name": "renounceOwnership",
      "outputs": [],
      "stateMutability": "nonpayable",
      "type": "function"
    },
    {
      "inputs": [],
      "name": "rewardsPayeer",
      "outputs": [
        {
          "internalType": "address",
          "name": "",
          "type": "address"
        }
      ],
      "stateMutability": "view",
      "type": "function"
    },
    {
      "inputs": [
        {
          "internalType": "uint256",
          "name": "multiplier",
          "type": "uint256"
        }
      ],
      "name": "setBenefitMultiplier",
      "outputs": [],
      "stateMutability": "nonpayable",
      "type": "function"
    },
    {
      "inputs": [
        {
          "internalType": "address",
          "name": "hmAddr",
          "type": "address"
        }
      ],
      "name": "setHeroManager",
      "outputs": [],
      "stateMutability": "nonpayable",
      "type": "function"
    },
    {
      "inputs": [
        {
          "internalType": "uint256",
          "name": "range",
          "type": "uint256"
        }
      ],
      "name": "setHeroPowerRange",
      "outputs": [],
      "stateMutability": "nonpayable",
      "type": "function"
    },
    {
      "inputs": [
        {
          "internalType": "uint256",
          "name": "capacity",
          "type": "uint256"
        },
        {
          "internalType": "uint256",
          "name": "fee",
          "type": "uint256"
        }
      ],
      "name": "setLobbyFee",
      "outputs": [],
      "stateMutability": "nonpayable",
      "type": "function"
    },
    {
      "inputs": [
        {
          "internalType": "address",
          "name": "payer",
          "type": "address"
        }
      ],
      "name": "setRewardsPayeer",
      "outputs": [],
      "stateMutability": "nonpayable",
      "type": "function"
    },
    {
      "inputs": [],
      "name": "token",
      "outputs": [
        {
          "internalType": "contract IERC20",
          "name": "",
          "type": "address"
        }
      ],
      "stateMutability": "view",
      "type": "function"
    },
    {
      "inputs": [],
      "name": "totalPlayers",
      "outputs": [
        {
          "internalType": "uint256",
          "name": "",
          "type": "uint256"
        }
      ],
      "stateMutability": "view",
      "type": "function"
    },
    {
      "inputs": [
        {
          "internalType": "address",
          "name": "newOwner",
          "type": "address"
        }
      ],
      "name": "transferOwnership",
      "outputs": [],
      "stateMutability": "nonpayable",
      "type": "function"
    },
    {
      "inputs": [
        {
          "internalType": "uint256",
          "name": "",
          "type": "uint256"
        }
      ],
      "name": "uniquePlayers",
      "outputs": [
        {
          "internalType": "address",
          "name": "",
          "type": "address"
        }
      ],
      "stateMutability": "view",
      "type": "function"
    },
    {
      "inputs": [
        {
          "internalType": "uint256[]",
          "name": "heroIds",
          "type": "uint256[]"
        },
        {
          "internalType": "address",
          "name": "owner",
          "type": "address"
        }
      ],
      "name": "validateHeroIds",
      "outputs": [
        {
          "internalType": "bool",
          "name": "",
          "type": "bool"
        }
      ],
      "stateMutability": "view",
      "type": "function"
    },
    {
      "inputs": [
        {
          "internalType": "address payable",
          "name": "recipient",
          "type": "address"
        }
      ],
      "name": "withdrawDustETH",
      "outputs": [],
      "stateMutability": "nonpayable",
      "type": "function"
    },
    {
      "stateMutability": "payable",
      "type": "receive"
    }
  ],
  "bytecode": "0x6080604052600280546001600160a01b03199081167351624b86523c95175d4b3d145f2ed9f884c683e2179091556003805482167328ee3e2826264b9c55fcdd122dfa93680916c9b817905560048054821673ef5a8af5148a53a4ef4749595fe44e3e08754b8b17905560058054909116730cca7943409260455ceef6be46c69b3fc808e24f17905560fa600655680821ab0d4414980000600755348015620000a757600080fd5b50620000b3336200014a565b601160205269010f0cf064dd592000007f17bc176d2408558f6e4111feebc3cab4e16b63e967be91cde721f4c8a488b5525569054b40b1f852bda000007f9bfbaa59f8e10e7868f8b402de9d605a390c45ddaebd8c9de3c6f31e733c87ff556005600052690a968163f0a57b4000007fc550213cee30afd5e67ccba7be3d381bbc169034ae08eb3ec9168caca9fe55e7556200019a565b600080546001600160a01b038381166001600160a01b0319831681178455604051919092169283917f8be0079c531659141344cd1fd0a4f28419497f9722a3daafe3b4186f6b6457e09190a35050565b61353080620001aa6000396000f3fe6080604052600436106102295760003560e01c8063715018a611610123578063b97dcb22116100ab578063ed697f321161006f578063ed697f321461083a578063f2fde38b1461085a578063f60cdcf61461087a578063f8a42d3714610890578063fc0c546a1461093857600080fd5b8063b97dcb2214610780578063b9f2d520146107a0578063c8f94270146107cd578063e393c294146107fa578063e4118fca1461081a57600080fd5b80638da5cb5b116100f25780638da5cb5b1461068a578063930613fc146106a8578063a9dd1225146106de578063ac9650d8146106fe578063b12f5c571461072b57600080fd5b8063715018a6146105fd57806372c90ca6146106125780637407fddd1461064a578063833588cc1461066a57600080fd5b806338ebed5c116101b15780634bafce22116101755780634bafce22146104815780634d5f80ad146104b15780636bd2dc85146104d15780636dbd07cf146104fe5780636e8fb4c61461051e57600080fd5b806338ebed5c146103c35780633b8a7a1314610401578063410a3adc1461042157806345efd7851461044157806347ccca021461046157600080fd5b806316fc989c116101f857806316fc989c146102f65780631a42c59b146103345780631deb8c441461035657806328b11d2314610383578063378cc347146103a357600080fd5b80630152368f14610235578063047f49911461026a57806307a48c191461028e57806311ce406d146102be57600080fd5b3661023057005b600080fd5b34801561024157600080fd5b50610255610250366004612e20565b610958565b60405190151581526020015b60405180910390f35b34801561027657600080fd5b5061028060075481565b604051908152602001610261565b34801561029a57600080fd5b506102ae6102a9366004612e76565b610a7a565b6040516102619493929190612eca565b3480156102ca57600080fd5b506005546102de906001600160a01b031681565b6040516001600160a01b039091168152602001610261565b34801561030257600080fd5b50610280610311366004612f12565b600d60209081526000938452604080852082529284528284209052825290205481565b34801561034057600080fd5b5061035461034f366004612f4a565b610ace565b005b34801561036257600080fd5b50610376610371366004612faa565b6113ba565b6040516102619190612fd6565b34801561038f57600080fd5b5061035461039e366004612e76565b611542565b3480156103af57600080fd5b506103546103be366004612fe9565b611571565b3480156103cf57600080fd5b506102806103de366004612f12565b600f60209081526000938452604080852082529284528284209052825290205481565b34801561040d57600080fd5b506002546102de906001600160a01b031681565b34801561042d57600080fd5b5061035461043c366004612e76565b6115bd565b34801561044d57600080fd5b5061037661045c366004612e76565b6115ec565b34801561046d57600080fd5b506004546102de906001600160a01b031681565b34801561048d57600080fd5b5061025561049c366004612fe9565b600a6020526000908152604090205460ff1681565b3480156104bd57600080fd5b506103766104cc366004612faa565b611721565b3480156104dd57600080fd5b506102806104ec366004612fe9565b600c6020526000908152604090205481565b34801561050a57600080fd5b50610354610519366004613006565b61189b565b34801561052a57600080fd5b5061059e610539366004612e76565b601060205260009081526040902080546001820154600283015460038401546004850154600586015460068701546007880154600889015460098a0154600a909a0154989997986001600160a01b03978816989790961696949593949293919290918b565b604080519b8c5260208c019a909a526001600160a01b03988916998b0199909952969095166060890152608088019390935260a087019190915260c086015260e085015261010084015261012083015261014082015261016001610261565b34801561060957600080fd5b50610354611e0f565b34801561061e57600080fd5b5061028061062d366004613079565b600e60209081526000928352604080842090915290825290205481565b34801561065657600080fd5b50610376610665366004612faa565b611e45565b34801561067657600080fd5b506103546106853660046130a9565b61200d565b34801561069657600080fd5b506000546001600160a01b03166102de565b3480156106b457600080fd5b506102de6106c3366004612e76565b6009602052600090815260409020546001600160a01b031681565b3480156106ea57600080fd5b506102806106f93660046130a9565b612049565b34801561070a57600080fd5b5061071e6107193660046130cb565b6120d6565b6040516102619190613168565b34801561073757600080fd5b5061074b610746366004612e76565b6121ca565b60405161026194939291906001600160a01b039485168152602081019390935292166040820152606081019190915260800190565b34801561078c57600080fd5b5061037661079b366004613079565b612389565b3480156107ac57600080fd5b506102806107bb366004612e76565b60116020526000908152604090205481565b3480156107d957600080fd5b506102806107e8366004612fe9565b600b6020526000908152604090205481565b34801561080657600080fd5b50610354610815366004612fe9565b61245a565b34801561082657600080fd5b50610354610835366004612fe9565b6124bd565b34801561084657600080fd5b506102806108553660046131e0565b612509565b34801561086657600080fd5b50610354610875366004612fe9565b6125d5565b34801561088657600080fd5b5061028060085481565b34801561089c57600080fd5b506109186108ab366004612e76565b60009081526010602090815260408083206002810154600390910154600f84528285206001600160a01b0392831686528085528386208680528552838620546001808852858820549490931687529085528386208680529094528285205490855291909320549193909190565b604080519485526020850193909352918301526060820152608001610261565b34801561094457600080fd5b506003546102de906001600160a01b031681565b6000805b83811015610a6d576004546001600160a01b038085169116636352211e87878581811061098b5761098b613291565b905060200201356040518263ffffffff1660e01b81526004016109b091815260200190565b60206040518083038186803b1580156109c857600080fd5b505afa1580156109dc573d6000803e3d6000fd5b505050506040513d601f19601f82011682018060405250810190610a0091906132a7565b6001600160a01b031614610a5b5760405162461bcd60e51b815260206004820152601b60248201527f4c6f626279426174746c653a206e6f74206865726f206f776e6572000000000060448201526064015b60405180910390fd5b80610a65816132da565b91505061095c565b50600190505b9392505050565b60008181526010602052604081206002810154600390910154606091839183916001600160a01b03908116911681610ab28882612389565b82610abd8a85612389565b955095509550955050509193509193565b610ad9828233610958565b506000858152601060205260409020600401548514610b3a5760405162461bcd60e51b815260206004820181905260248201527f4c6f626279426174746c653a206c6f62627920646f65736e27742065786973746044820152606401610a52565b6000858152601060205260409020600501548114610b9a5760405162461bcd60e51b815260206004820152601960248201527f4c6f626279426174746c653a2077726f6e67206865726f6573000000000000006044820152606401610a52565b6000610bd883838080602002602001604051908101604052809392919081815260200183836020028082843760009201919091525061250992505050565b9050808511158015610bea5750808410155b8015610c005750600754610bfe86866132f5565b145b610c4c5760405162461bcd60e51b815260206004820152601e60248201527f4c6f626279426174746c653a2077726f6e6720706f7765722072616e676500006044820152606401610a52565b60008681526010602052604090206007015415610cab5760405162461bcd60e51b815260206004820152601d60248201527f4c6f626279426174746c653a20616c72656164792066696e69736865640000006044820152606401610a52565b6000868152601060209081526040808320600590810154845260119092529182902054600354915492516323b872dd60e01b81523360048201526001600160a01b039384166024820152604481018290529092909116906323b872dd90606401602060405180830381600087803b158015610d2557600080fd5b505af1158015610d39573d6000803e3d6000fd5b505050506040513d601f19601f82011682018060405250810190610d5d919061330c565b610da95760405162461bcd60e51b815260206004820152601b60248201527f4c6f626279426174746c653a206e6f7420656e6f7567682066656500000000006044820152606401610a52565b336000908152600a602052604090205460ff16610e165760088054600090815260096020908152604080832080546001600160a01b031916339081179091558352600a9091528120805460ff19166001908117909155825490929190610e1090849061332e565b90915550505b336000908152600b602052604081208054839290610e3590849061332e565b909155505060008781526010602090815260408083206003810180546001600160a01b0319163390811790915542600790920191909155600f83528184209084528252808320838052909152808220889055600182528120869055836001600160401b03811115610ea857610ea86131ca565b604051908082528060200260200182016040528015610ed1578160200160208202803683370190505b50905060005b84811015610f7b57858582818110610ef157610ef1613291565b60008c8152600d60209081526040808320338452808352818420888552835281842094830296909601359093558d825260108152828220600201546001600160a01b03168252938452818120858252909352909120548351909150839083908110610f5e57610f5e613291565b602090810291909101015280610f73816132da565b915050610ed7565b506000888152600e6020908152604080832033845282528083208790556006548b845260108352818420600501548452601190925290912054606491610fc091613346565b610fca919061337b565b6000898152601060205260409020600a810191909155600501546001141561125d576110298186868080602002602001604051908101604052809392919081815260200183836020028082843760009201919091525061267092505050565b60008981526010602052604090206008018190556001141561115b5760025460405163852eebff60e01b81526001600160a01b039091169063852eebff9061107890849060019060040161338f565b600060405180830381600087803b15801561109257600080fd5b505af11580156110a6573d6000803e3d6000fd5b505060025460405163852eebff60e01b81526001600160a01b03909116925063852eebff91506110df90889088906000906004016133b3565b600060405180830381600087803b1580156110f957600080fd5b505af115801561110d573d6000803e3d6000fd5b5050506000898152601060209081526040808320600a8101546002909101546001600160a01b03168452600c90925282208054919350919061115090849061332e565b9091555061125d9050565b60025460405163852eebff60e01b81526001600160a01b039091169063852eebff9061118e90849060009060040161338f565b600060405180830381600087803b1580156111a857600080fd5b505af11580156111bc573d6000803e3d6000fd5b505060025460405163852eebff60e01b81526001600160a01b03909116925063852eebff91506111f590889088906001906004016133b3565b600060405180830381600087803b15801561120f57600080fd5b505af1158015611223573d6000803e3d6000fd5b5050506000898152601060209081526040808320600a0154338452600c90925282208054919350919061125790849061332e565b90915550505b60035460055460008a8152601060205260409020600801546001600160a01b03928316926323b872dd9216906001146112b05760008b8152601060205260409020600301546001600160a01b03166112cc565b60008b8152601060205260409020600201546001600160a01b03165b60008c81526010602052604090819020600a0154905160e085901b6001600160e01b03191681526001600160a01b0393841660048201529290911660248301526044820152606401602060405180830381600087803b15801561132e57600080fd5b505af1158015611342573d6000803e3d6000fd5b505050506040513d601f19601f82011682018060405250810190611366919061330c565b5060008881526010602052604080822060020154905133926001600160a01b03909216918b917fc77dc6cd4b51c8efc4af40a582ca4cf229fda505a830b4486b200ddcbdb1383f9190a45050505050505050565b6060600060015b6001548111611447576000818152601060205260409020600701541580156113f9575060008181526010602052604090206005015484145b801561142257506000818152601060205260409020600201546001600160a01b03868116911614155b156114355781611431816132da565b9250505b8061143f816132da565b9150506113c1565b50600080826001600160401b03811115611463576114636131ca565b60405190808252806020026020018201604052801561148c578160200160208202803683370190505b50905060015b6001548111611536576000818152601060205260409020600701541580156114ca575060008181526010602052604090206005015486145b80156114f357506000818152601060205260409020600201546001600160a01b03888116911614155b15611524578082848151811061150b5761150b613291565b602090810291909101015282611520816132da565b9350505b8061152e816132da565b915050611492565b50925050505b92915050565b6000546001600160a01b0316331461156c5760405162461bcd60e51b8152600401610a52906133fc565b600655565b6000546001600160a01b0316331461159b5760405162461bcd60e51b8152600401610a52906133fc565b600280546001600160a01b0319166001600160a01b0392909216919091179055565b6000546001600160a01b031633146115e75760405162461bcd60e51b8152600401610a52906133fc565b600755565b6060600060015b6001548111611651576000818152601060205260409020600701541580159061162c575060008181526010602052604090206005015484145b1561163f578161163b816132da565b9250505b80611649816132da565b9150506115f3565b50600080826001600160401b0381111561166d5761166d6131ca565b604051908082528060200260200182016040528015611696578160200160208202803683370190505b50905060015b600154811161171857600081815260106020526040902060070154158015906116d5575060008181526010602052604090206005015486145b1561170657808284815181106116ed576116ed613291565b602090810291909101015282611702816132da565b9350505b80611710816132da565b91505061169c565b50949350505050565b6060600060015b60015481116117ad57600081815260106020526040902060070154158015611760575060008181526010602052604090206005015484145b801561178857506000818152601060205260409020600201546001600160a01b038681169116145b1561179b5781611797816132da565b9250505b806117a5816132da565b915050611728565b50600080826001600160401b038111156117c9576117c96131ca565b6040519080825280602002602001820160405280156117f2578160200160208202803683370190505b50905060015b600154811161153657600081815260106020526040902060070154158015611830575060008181526010602052604090206005015486145b801561185857506000818152601060205260409020600201546001600160a01b038881169116145b15611889578082848151811061187057611870613291565b602090810291909101015282611885816132da565b9350505b80611893816132da565b9150506117f8565b6118a6828233610958565b508481146118f65760405162461bcd60e51b815260206004820152601d60248201527f4c6f626279426174746c653a2077726f6e6720706172616d65746572730000006044820152606401610a52565b600061193483838080602002602001604051908101604052809392919081815260200183836020028082843760009201919091525061250992505050565b90508085111580156119465750808410155b801561195c575060075461195a86866132f5565b145b6119a85760405162461bcd60e51b815260206004820152601e60248201527f4c6f626279426174746c653a2077726f6e6720706f7765722072616e676500006044820152606401610a52565b600086815260116020526040902054611a0d5760405162461bcd60e51b815260206004820152602160248201527f4c6f626279426174746c653a2077726f6e67206c6f62627920636170616369746044820152607960f81b6064820152608401610a52565b600354600554600088815260116020526040908190205490516323b872dd60e01b81523360048201526001600160a01b03928316602482015260448101919091529116906323b872dd90606401602060405180830381600087803b158015611a7457600080fd5b505af1158015611a88573d6000803e3d6000fd5b505050506040513d601f19601f82011682018060405250810190611aac919061330c565b611af85760405162461bcd60e51b815260206004820152601b60248201527f4c6f626279426174746c653a206e6f7420656e6f7567682066656500000000006044820152606401610a52565b336000908152600a602052604090205460ff16611b655760088054600090815260096020908152604080832080546001600160a01b031916339081179091558352600a9091528120805460ff19166001908117909155825490929190611b5f90849061332e565b90915550505b600086815260116020908152604080832054338452600b9092528220805491929091611b9290849061332e565b909155505060018054810190556000611baa60015490565b905060006040518061016001604052808b81526020018a8152602001336001600160a01b0316815260200160006001600160a01b031681526020018381526020018981526020014281526020016000815260200160008152602001601160008b81526020019081526020016000205481526020016000815250905086600f60008481526020019081526020016000206000336001600160a01b03166001600160a01b0316815260200190815260200160002060008081526020019081526020016000208190555085600f60008481526020019081526020016000206000336001600160a01b03166001600160a01b03168152602001908152602001600020600060018152602001908152602001600020819055508060106000848152602001908152602001600020600082015181600001556020820151816001015560408201518160020160006101000a8154816001600160a01b0302191690836001600160a01b0316021790555060608201518160030160006101000a8154816001600160a01b0302191690836001600160a01b031602179055506080820151816004015560a0820151816005015560c0820151816006015560e082015181600701556101008201518160080155610120820151816009015561014082015181600a015590505060005b84811015611de757858582818110611da957611da9613291565b6000868152600d6020908152604080832033845282528083208784528252909120910292909201359091555080611ddf816132da565b915050611d8f565b50506000908152600e6020908152604080832033845290915290209190915550505050505050565b6000546001600160a01b03163314611e395760405162461bcd60e51b8152600401610a52906133fc565b611e436000612c3a565b565b6060600060015b6001548111611ef85760008181526010602052604090206007015415801590611e85575060008181526010602052604090206005015484145b8015611ed357506000818152601060205260409020600201546001600160a01b0386811691161480611ed357506000818152601060205260409020600301546001600160a01b038681169116145b15611ee65781611ee2816132da565b9250505b80611ef0816132da565b915050611e4c565b50600080826001600160401b03811115611f1457611f146131ca565b604051908082528060200260200182016040528015611f3d578160200160208202803683370190505b50905060015b60015481116115365760008181526010602052604090206007015415801590611f7c575060008181526010602052604090206005015486145b8015611fca57506000818152601060205260409020600201546001600160a01b0388811691161480611fca57506000818152601060205260409020600301546001600160a01b038881169116145b15611ffb5780828481518110611fe257611fe2613291565b602090810291909101015282611ff7816132da565b9350505b80612005816132da565b915050611f43565b6000546001600160a01b031633146120375760405162461bcd60e51b8152600401610a52906133fc565b60009182526011602052604090912055565b60408051446020820152429181019190915233606090811b6bffffffffffffffffffffffff1916908201526074810183905260948101829052600090819060b40160408051601f1981840301815291905280516020909101209050836120af81856132f5565b6120ba90600161332e565b6120c49083613431565b6120ce919061332e565b949350505050565b6060816001600160401b038111156120f0576120f06131ca565b60405190808252806020026020018201604052801561212357816020015b606081526020019060019003908161210e5790505b50905060005b828110156121c3576121933085858481811061214757612147613291565b90506020028101906121599190613445565b8080601f016020809104026020016040519081016040528093929190818152602001838380828437600092019190915250612c8a92505050565b8282815181106121a5576121a5613291565b602002602001018190525080806121bb906132da565b915050612129565b5092915050565b6000806000806000806000806121df89610a7a565b935093509350935060008060005b85518110156123765760025486516000916001600160a01b03169063d5c1ed8a9089908590811061222057612220613291565b60200260200101516040518263ffffffff1660e01b815260040161224691815260200190565b60206040518083038186803b15801561225e57600080fd5b505afa158015612272573d6000803e3d6000fd5b505050506040513d601f19601f82011682018060405250810190612296919061348b565b90506122a2818561332e565b93506001600160a01b038616156123635760025485516000916001600160a01b03169063d5c1ed8a908890869081106122dd576122dd613291565b60200260200101516040518263ffffffff1660e01b815260040161230391815260200190565b60206040518083038186803b15801561231b57600080fd5b505afa15801561232f573d6000803e3d6000fd5b505050506040513d601f19601f82011682018060405250810190612353919061348b565b905061235f818561332e565b9350505b508061236e816132da565b9150506121ed565b50949a9099509197509295509350505050565b6000828152600e602090815260408083206001600160a01b0385168452909152812054606091816001600160401b038111156123c7576123c76131ca565b6040519080825280602002602001820160405280156123f0578160200160208202803683370190505b50905060005b82811015611718576000868152600d602090815260408083206001600160a01b03891684528252808320848452909152902054825183908390811061243d5761243d613291565b602090810291909101015280612452816132da565b9150506123f6565b6000546001600160a01b031633146124845760405162461bcd60e51b8152600401610a52906133fc565b6040516001600160a01b038216904780156108fc02916000818181858888f193505050501580156124b9573d6000803e3d6000fd5b5050565b6000546001600160a01b031633146124e75760405162461bcd60e51b8152600401610a52906133fc565b600580546001600160a01b0319166001600160a01b0392909216919091179055565b60008060005b83518110156121c35760025484516001600160a01b039091169063d5c1ed8a9086908490811061254157612541613291565b60200260200101516040518263ffffffff1660e01b815260040161256791815260200190565b60206040518083038186803b15801561257f57600080fd5b505afa158015612593573d6000803e3d6000fd5b505050506040513d601f19601f820116820180604052508101906125b7919061348b565b6125c1908361332e565b9150806125cd816132da565b91505061250f565b6000546001600160a01b031633146125ff5760405162461bcd60e51b8152600401610a52906133fc565b6001600160a01b0381166126645760405162461bcd60e51b815260206004820152602660248201527f4f776e61626c653a206e6577206f776e657220697320746865207a65726f206160448201526564647265737360d01b6064820152608401610a52565b61266d81612c3a565b50565b6000808360008151811061268657612686613291565b602002602001015190506000836000815181106126a5576126a5613291565b6020908102919091010151600254604051636ae0f6c560e11b8152600481018590529192506000916001600160a01b039091169063d5c1ed8a9060240160206040518083038186803b1580156126fa57600080fd5b505afa15801561270e573d6000803e3d6000fd5b505050506040513d601f19601f82011682018060405250810190612732919061348b565b600254604051636ae0f6c560e11b8152600481018590529192506000916001600160a01b039091169063d5c1ed8a9060240160206040518083038186803b15801561277c57600080fd5b505afa158015612790573d6000803e3d6000fd5b505050506040513d601f19601f820116820180604052508101906127b4919061348b565b60025460405163f3d1b5ab60e01b8152600481018790529192506000916001600160a01b039091169063f3d1b5ab9060240160206040518083038186803b1580156127fe57600080fd5b505afa158015612812573d6000803e3d6000fd5b505050506040513d601f19601f82011682018060405250810190612836919061348b565b600254604051630a36d40b60e01b8152600481018890529192506000916001600160a01b0390911690630a36d40b9060240160206040518083038186803b15801561288057600080fd5b505afa158015612894573d6000803e3d6000fd5b505050506040513d601f19601f820116820180604052508101906128b8919061348b565b60025460405163f3d1b5ab60e01b8152600481018890529192506000916001600160a01b039091169063f3d1b5ab9060240160206040518083038186803b15801561290257600080fd5b505afa158015612916573d6000803e3d6000fd5b505050506040513d601f19601f8201168201806040525081019061293a919061348b565b600254604051630a36d40b60e01b8152600481018990529192506000916001600160a01b0390911690630a36d40b9060240160206040518083038186803b15801561298457600080fd5b505afa158015612998573d6000803e3d6000fd5b505050506040513d601f19601f820116820180604052508101906129bc919061348b565b905081841415612b1d5780831115612a6757848611156129e75760019850505050505050505061153c565b84861415612a2b5760006129fd60016064612049565b9050603c8111612a19576001995050505050505050505061153c565b6002995050505050505050505061153c565b6000612a3960016064612049565b905060468111612a55576002995050505050505050505061153c565b6001995050505050505050505061153c565b80831415612ac45784861115612aa1576000612a8560016064612049565b905060468111612a19576001995050505050505050505061153c565b84861415612a2b57612ab560016002612049565b9850505050505050505061153c565b84861015612add5760029850505050505050505061153c565b84861415612b0f576000612af360016064612049565b9050603c8111612a55576002995050505050505050505061153c565b6000612a8560016064612049565b80831415612b965784861115612b58576000612b3b60016064612049565b90506046811115612a19576001995050505050505050505061153c565b84861415612b6c57612ab560016002612049565b6000612b7a60016064612049565b905060148111612a19576001995050505050505050505061153c565b80831115612be15784861115612bb75760019850505050505050505061153c565b6000612bc560016064612049565b905060288111612a19576001995050505050505050505061153c565b84861015612bfa5760029850505050505050505061153c565b84861415612c2c576000612c1060016064612049565b9050601e8111612a19576001995050505050505050505061153c565b60006129fd60016064612049565b600080546001600160a01b038381166001600160a01b0319831681178455604051919092169283917f8be0079c531659141344cd1fd0a4f28419497f9722a3daafe3b4186f6b6457e09190a35050565b6060610a7383836040518060600160405280602781526020016134d46027913960606001600160a01b0384163b612d125760405162461bcd60e51b815260206004820152602660248201527f416464726573733a2064656c65676174652063616c6c20746f206e6f6e2d636f6044820152651b9d1c9858dd60d21b6064820152608401610a52565b600080856001600160a01b031685604051612d2d91906134a4565b600060405180830381855af49150503d8060008114612d68576040519150601f19603f3d011682016040523d82523d6000602084013e612d6d565b606091505b5091509150612d7d828286612d87565b9695505050505050565b60608315612d96575081610a73565b825115612da65782518084602001fd5b8160405162461bcd60e51b8152600401610a5291906134c0565b60008083601f840112612dd257600080fd5b5081356001600160401b03811115612de957600080fd5b6020830191508360208260051b8501011115612e0457600080fd5b9250929050565b6001600160a01b038116811461266d57600080fd5b600080600060408486031215612e3557600080fd5b83356001600160401b03811115612e4b57600080fd5b612e5786828701612dc0565b9094509250506020840135612e6b81612e0b565b809150509250925092565b600060208284031215612e8857600080fd5b5035919050565b600081518084526020808501945080840160005b83811015612ebf57815187529582019590820190600101612ea3565b509495945050505050565b600060018060a01b03808716835260806020840152612eec6080840187612e8f565b81861660408501528381036060850152612f068186612e8f565b98975050505050505050565b600080600060608486031215612f2757600080fd5b833592506020840135612f3981612e0b565b929592945050506040919091013590565b600080600080600060808688031215612f6257600080fd5b85359450602086013593506040860135925060608601356001600160401b03811115612f8d57600080fd5b612f9988828901612dc0565b969995985093965092949392505050565b60008060408385031215612fbd57600080fd5b8235612fc881612e0b565b946020939093013593505050565b602081526000610a736020830184612e8f565b600060208284031215612ffb57600080fd5b8135610a7381612e0b565b600080600080600080600060c0888a03121561302157600080fd5b873596506020880135955060408801359450606088013593506080880135925060a08801356001600160401b0381111561305a57600080fd5b6130668a828b01612dc0565b989b979a50959850939692959293505050565b6000806040838503121561308c57600080fd5b82359150602083013561309e81612e0b565b809150509250929050565b600080604083850312156130bc57600080fd5b50508035926020909101359150565b600080602083850312156130de57600080fd5b82356001600160401b038111156130f457600080fd5b61310085828601612dc0565b90969095509350505050565b60005b8381101561312757818101518382015260200161310f565b83811115613136576000848401525b50505050565b6000815180845261315481602086016020860161310c565b601f01601f19169290920160200192915050565b6000602080830181845280855180835260408601915060408160051b870101925083870160005b828110156131bd57603f198886030184526131ab85835161313c565b9450928501929085019060010161318f565b5092979650505050505050565b634e487b7160e01b600052604160045260246000fd5b600060208083850312156131f357600080fd5b82356001600160401b038082111561320a57600080fd5b818501915085601f83011261321e57600080fd5b813581811115613230576132306131ca565b8060051b604051601f19603f83011681018181108582111715613255576132556131ca565b60405291825284820192508381018501918883111561327357600080fd5b938501935b82851015612f0657843584529385019392850192613278565b634e487b7160e01b600052603260045260246000fd5b6000602082840312156132b957600080fd5b8151610a7381612e0b565b634e487b7160e01b600052601160045260246000fd5b60006000198214156132ee576132ee6132c4565b5060010190565b600082821015613307576133076132c4565b500390565b60006020828403121561331e57600080fd5b81518015158114610a7357600080fd5b60008219821115613341576133416132c4565b500190565b6000816000190483118215151615613360576133606132c4565b500290565b634e487b7160e01b600052601260045260246000fd5b60008261338a5761338a613365565b500490565b6040815260006133a26040830185612e8f565b905082151560208301529392505050565b6040808252810183905260006001600160fb1b038411156133d357600080fd5b8360051b8086606085013760009083016060019081529215156020909201919091525092915050565b6020808252818101527f4f776e61626c653a2063616c6c6572206973206e6f7420746865206f776e6572604082015260600190565b60008261344057613440613365565b500690565b6000808335601e1984360301811261345c57600080fd5b8301803591506001600160401b0382111561347657600080fd5b602001915036819003821315612e0457600080fd5b60006020828403121561349d57600080fd5b5051919050565b600082516134b681846020870161310c565b9190910192915050565b602081526000610a73602083018461313c56fe416464726573733a206c6f772d6c6576656c2064656c65676174652063616c6c206661696c6564a26469706673582212207f665f93b2d22ffe10574ae204e7f4c6ff88cc3796fd6c7ac27511b88507091c64736f6c63430008090033",
  "linkReferences": {},
  "deployedLinkReferences": {}
}