{
  "_format": "hh-sol-artifact-1",
  "contractName": "LobbyBattle",
  "sourceName": "contracts/game/LobbyBattle.sol",
  "abi": [
    {
      "inputs": [],
      "stateMutability": "nonpayable",
      "type": "constructor"
    },
    {
      "anonymous": false,
      "inputs": [
        {
          "indexed": true,
          "internalType": "address",
          "name": "previousOwner",
          "type": "address"
        },
        {
          "indexed": true,
          "internalType": "address",
          "name": "newOwner",
          "type": "address"
        }
      ],
      "name": "OwnershipTransferred",
      "type": "event"
    },
    {
      "inputs": [],
      "name": "bonusExp",
      "outputs": [
        {
          "internalType": "uint256",
          "name": "",
          "type": "uint256"
        }
      ],
      "stateMutability": "view",
      "type": "function"
    },
    {
      "inputs": [
        {
          "internalType": "uint256",
          "name": "capacity",
          "type": "uint256"
        },
        {
          "internalType": "bytes32",
          "name": "name",
          "type": "bytes32"
        },
        {
          "internalType": "bytes32",
          "name": "avatar",
          "type": "bytes32"
        },
        {
          "internalType": "uint256[]",
          "name": "heroIds",
          "type": "uint256[]"
        }
      ],
      "name": "createLobby",
      "outputs": [],
      "stateMutability": "nonpayable",
      "type": "function"
    },
    {
      "inputs": [
        {
          "internalType": "address",
          "name": "myAddr",
          "type": "address"
        }
      ],
      "name": "getActiveLobbies",
      "outputs": [
        {
          "internalType": "uint256[]",
          "name": "",
          "type": "uint256[]"
        }
      ],
      "stateMutability": "view",
      "type": "function"
    },
    {
      "inputs": [],
      "name": "getAllHistory",
      "outputs": [
        {
          "internalType": "uint256[]",
          "name": "",
          "type": "uint256[]"
        }
      ],
      "stateMutability": "view",
      "type": "function"
    },
    {
      "inputs": [
        {
          "internalType": "address",
          "name": "myAddr",
          "type": "address"
        }
      ],
      "name": "getMyHistory",
      "outputs": [
        {
          "internalType": "uint256[]",
          "name": "",
          "type": "uint256[]"
        }
      ],
      "stateMutability": "view",
      "type": "function"
    },
    {
      "inputs": [
        {
          "internalType": "address",
          "name": "myAddr",
          "type": "address"
        }
      ],
      "name": "getMyLobbies",
      "outputs": [
        {
          "internalType": "uint256[]",
          "name": "",
          "type": "uint256[]"
        }
      ],
      "stateMutability": "view",
      "type": "function"
    },
    {
      "inputs": [
        {
          "internalType": "uint256",
          "name": "heroId",
          "type": "uint256"
        }
      ],
      "name": "heroBonusExp",
      "outputs": [
        {
          "internalType": "uint256",
          "name": "",
          "type": "uint256"
        }
      ],
      "stateMutability": "view",
      "type": "function"
    },
    {
      "inputs": [],
      "name": "heroManager",
      "outputs": [
        {
          "internalType": "contract IHeroManager",
          "name": "",
          "type": "address"
        }
      ],
      "stateMutability": "view",
      "type": "function"
    },
    {
      "inputs": [
        {
          "internalType": "uint256",
          "name": "lobbyId",
          "type": "uint256"
        },
        {
          "internalType": "uint256[]",
          "name": "heroIds",
          "type": "uint256[]"
        }
      ],
      "name": "joinLobby",
      "outputs": [],
      "stateMutability": "nonpayable",
      "type": "function"
    },
    {
      "inputs": [
        {
          "internalType": "uint256",
          "name": "",
          "type": "uint256"
        }
      ],
      "name": "lobbies",
      "outputs": [
        {
          "internalType": "bytes32",
          "name": "name",
          "type": "bytes32"
        },
        {
          "internalType": "bytes32",
          "name": "avatar",
          "type": "bytes32"
        },
        {
          "internalType": "address",
          "name": "host",
          "type": "address"
        },
        {
          "internalType": "address",
          "name": "client",
          "type": "address"
        },
        {
          "internalType": "uint256",
          "name": "id",
          "type": "uint256"
        },
        {
          "internalType": "uint256",
          "name": "capacity",
          "type": "uint256"
        },
        {
          "internalType": "uint256",
          "name": "startedAt",
          "type": "uint256"
        },
        {
          "internalType": "uint256",
          "name": "finishedAt",
          "type": "uint256"
        },
        {
          "internalType": "uint256",
          "name": "winner",
          "type": "uint256"
        },
        {
          "internalType": "uint256",
          "name": "fee",
          "type": "uint256"
        },
        {
          "internalType": "uint256",
          "name": "rewards",
          "type": "uint256"
        }
      ],
      "stateMutability": "view",
      "type": "function"
    },
    {
      "inputs": [
        {
          "internalType": "uint256",
          "name": "",
          "type": "uint256"
        },
        {
          "internalType": "address",
          "name": "",
          "type": "address"
        }
      ],
      "name": "lobbiesRefreshed",
      "outputs": [
        {
          "internalType": "uint256",
          "name": "updatedAt",
          "type": "uint256"
        },
        {
          "internalType": "uint256",
          "name": "limit",
          "type": "uint256"
        }
      ],
      "stateMutability": "view",
      "type": "function"
    },
    {
      "inputs": [
        {
          "internalType": "uint256",
          "name": "",
          "type": "uint256"
        }
      ],
      "name": "lobbyFees",
      "outputs": [
        {
          "internalType": "uint256",
          "name": "",
          "type": "uint256"
        }
      ],
      "stateMutability": "view",
      "type": "function"
    },
    {
      "inputs": [
        {
          "internalType": "bytes[]",
          "name": "data",
          "type": "bytes[]"
        }
      ],
      "name": "multicall",
      "outputs": [
        {
          "internalType": "bytes[]",
          "name": "results",
          "type": "bytes[]"
        }
      ],
      "stateMutability": "nonpayable",
      "type": "function"
    },
    {
      "inputs": [],
      "name": "nft",
      "outputs": [
        {
          "internalType": "contract IERC721",
          "name": "",
          "type": "address"
        }
      ],
      "stateMutability": "view",
      "type": "function"
    },
    {
      "inputs": [],
      "name": "owner",
      "outputs": [
        {
          "internalType": "address",
          "name": "",
          "type": "address"
        }
      ],
      "stateMutability": "view",
      "type": "function"
    },
    {
      "inputs": [
        {
          "internalType": "uint256",
          "name": "min",
          "type": "uint256"
        },
        {
          "internalType": "uint256",
          "name": "max",
          "type": "uint256"
        }
      ],
      "name": "random",
      "outputs": [
        {
          "internalType": "uint256",
          "name": "",
          "type": "uint256"
        }
      ],
      "stateMutability": "view",
      "type": "function"
    },
    {
      "inputs": [],
      "name": "renounceOwnership",
      "outputs": [],
      "stateMutability": "nonpayable",
      "type": "function"
    },
    {
      "inputs": [],
      "name": "rewardsPayeer",
      "outputs": [
        {
          "internalType": "address",
          "name": "",
          "type": "address"
        }
      ],
      "stateMutability": "view",
      "type": "function"
    },
    {
      "inputs": [
        {
          "internalType": "uint256",
          "name": "value",
          "type": "uint256"
        }
      ],
      "name": "setBonusExp",
      "outputs": [],
      "stateMutability": "nonpayable",
      "type": "function"
    },
    {
      "inputs": [
        {
          "internalType": "address",
          "name": "payer",
          "type": "address"
        }
      ],
      "name": "setRewardsPayeer",
      "outputs": [],
      "stateMutability": "nonpayable",
      "type": "function"
    },
    {
      "inputs": [],
      "name": "token",
      "outputs": [
        {
          "internalType": "contract IERC20",
          "name": "",
          "type": "address"
        }
      ],
      "stateMutability": "view",
      "type": "function"
    },
    {
      "inputs": [
        {
          "internalType": "address",
          "name": "newOwner",
          "type": "address"
        }
      ],
      "name": "transferOwnership",
      "outputs": [],
      "stateMutability": "nonpayable",
      "type": "function"
    },
    {
      "inputs": [
        {
          "internalType": "uint256[]",
          "name": "heroIds",
          "type": "uint256[]"
        }
      ],
      "name": "validateHeroIds",
      "outputs": [],
      "stateMutability": "view",
      "type": "function"
    }
  ],
  "bytecode": "0x6080604052600280546001600160a01b031916730c966628e4828958376a24ee66f5278a71c96aee17905560fa600655601e60075534801561004057600080fd5b5061004a336100e0565b600960205269010f0cf064dd592000007f92e85d02570a8092d09a6e3a57665bc3815a2699a4074001bf1ccabf660f5a365569054b40b1f852bda000007fc575c31fea594a6eb97c8e9d3f9caee4c16218c6ef37e923234c0fe9014a61e7556005600052690a968163f0a57b4000007f74b05292d1d4b2b48b65261b07099d24244bcb069f138d9a6bfdcf776becac4c55610130565b600080546001600160a01b038381166001600160a01b0319831681178455604051919092169283917f8be0079c531659141344cd1fd0a4f28419497f9722a3daafe3b4186f6b6457e09190a35050565b61228a8061013f6000396000f3fe608060405234801561001057600080fd5b506004361061014c5760003560e01c806377cb47bf116100c3578063b8830f9f1161007c578063b8830f9f146103ae578063b9f2d520146103c1578063e4118fca146103e1578063f2fde38b146103f4578063fc0c546a14610407578063fc5850341461041a57600080fd5b806377cb47bf146102f95780638da5cb5b14610340578063a9dd122514610351578063ab40514514610372578063ac9650d81461037b578063b5f5d2a51461039b57600080fd5b806339c5891a1161011557806339c5891a146101dc5780633b8a7a13146101e45780633c152291146101f757806347ccca021461020a5780636e8fb4c61461021d578063715018a6146102f157600080fd5b8062c8bd7e1461015157806306d040d31461016657806311ce406d146101795780633024438d146101a9578063370068aa146101c9575b600080fd5b61016461015f366004611d67565b61042d565b005b610164610174366004611db3565b610b06565b60055461018c906001600160a01b031681565b6040516001600160a01b0390911681526020015b60405180910390f35b6101bc6101b7366004611e29565b610e65565b6040516101a09190611e46565b6101bc6101d7366004611e29565b610efd565b6101bc610fb2565b60025461018c906001600160a01b031681565b6101bc610205366004611e29565b61101f565b60045461018c906001600160a01b031681565b61029261022b366004611e8a565b600a60208190526000918252604090912080546001820154600283015460038401546004850154600586015460068701546007880154600889015460098a015499909a0154979996986001600160a01b03968716989590961696939592949193909290918b565b604080519b8c5260208c019a909a526001600160a01b03988916998b0199909952969095166060890152608088019390935260a087019190915260c086015260e0850152610100840152610120830152610140820152610160016101a0565b6101646110ad565b61032b610307366004611ea3565b60086020908152600092835260408084209091529082529020805460019091015482565b604080519283526020830191909152016101a0565b6000546001600160a01b031661018c565b61036461035f366004611ed3565b6110e3565b6040519081526020016101a0565b61036460075481565b61038e610389366004611ef5565b611172565b6040516101a09190611f8f565b6101646103a9366004611ef5565b611267565b6101646103bc366004611e8a565b611379565b6103646103cf366004611e8a565b60096020526000908152604090205481565b6101646103ef366004611e29565b6113a8565b610164610402366004611e29565b6113f4565b60035461018c906001600160a01b031681565b610364610428366004611e8a565b61148f565b6000838152600a602052604090206004015483146104925760405162461bcd60e51b815260206004820181905260248201527f4c6f626279426174746c653a206c6f62627920646f65736e277420657869737460448201526064015b60405180910390fd5b6000838152600a602052604090206005015481146104f25760405162461bcd60e51b815260206004820152601960248201527f4c6f626279426174746c653a2077726f6e67206865726f6573000000000000006044820152606401610489565b6000838152600a6020526040902060070154156105515760405162461bcd60e51b815260206004820152601d60248201527f4c6f626279426174746c653a20616c72656164792066696e69736865640000006044820152606401610489565b600354600580546000868152600a60209081526040808320909401548252600990528290205491516323b872dd60e01b81523360048201526001600160a01b0391821660248201526044810192909252909116906323b872dd90606401602060405180830381600087803b1580156105c857600080fd5b505af11580156105dc573d6000803e3d6000fd5b505050506040513d601f19601f820116820180604052508101906106009190611ff1565b61064c5760405162461bcd60e51b815260206004820152601b60248201527f4c6f626279426174746c653a206e6f7420656e6f7567682066656500000000006044820152606401610489565b6106568282611267565b6000838152600a602052604090206003810180546001600160a01b031916331790554260078201556005015460011415610996576000838152600a6020908152604091829020600b01805483518184028101840190945280845261072293928301828280156106e457602002820191906000526020600020905b8154815260200190600101908083116106d0575b505050505083838080602002602001604051908101604052809392919081815260200183836020028082843760009201919091525061152492505050565b6000848152600a6020526040902060080181905560011415610873576002546000848152600a60205260408120600b0180546001600160a01b039093169263b00475b5926107899183919061077957610779612013565b906000526020600020015461148f565b6040518363ffffffff1660e01b81526004016107a6929190612029565b600060405180830381600087803b1580156107c057600080fd5b505af11580156107d4573d6000803e3d6000fd5b5050600280546000878152600a60205260408120600c0180546001600160a01b03909316955063b00475b59450929161081591849161077957610779612013565b61081f91906120a5565b6040518363ffffffff1660e01b815260040161083c929190612029565b600060405180830381600087803b15801561085657600080fd5b505af115801561086a573d6000803e3d6000fd5b50505050610996565b600280546000858152600a60205260408120600b0180546001600160a01b039093169363b00475b593919290916108b291849161077957610779612013565b6108bc91906120a5565b6040518363ffffffff1660e01b81526004016108d9929190612029565b600060405180830381600087803b1580156108f357600080fd5b505af1158015610907573d6000803e3d6000fd5b50506002546000868152600a60205260408120600c0180546001600160a01b03909316945063b00475b593509161094691839161077957610779612013565b6040518363ffffffff1660e01b8152600401610963929190612029565b600060405180830381600087803b15801561097d57600080fd5b505af1158015610991573d6000803e3d6000fd5b505050505b6000838152600a602052604090206109b290600c018383611c80565b506006546000848152600a6020908152604080832060050154835260099091529020546064916109e1916120b9565b6109eb91906120a5565b6000848152600a60208190526040909120908101919091556003546005546008909201546001600160a01b03918216926323b872dd921690600114610a4a576000868152600a60205260409020600301546001600160a01b0316610a66565b6000868152600a60205260409020600201546001600160a01b03165b6000878152600a6020819052604091829020015490516001600160e01b031960e086901b1681526001600160a01b0393841660048201529290911660248301526044820152606401602060405180830381600087803b158015610ac857600080fd5b505af1158015610adc573d6000803e3d6000fd5b505050506040513d601f19601f82011682018060405250810190610b009190611ff1565b50505050565b610b108282611267565b848114610b5f5760405162461bcd60e51b815260206004820152601d60248201527f4c6f626279426174746c653a2077726f6e6720706172616d65746572730000006044820152606401610489565b600085815260096020526040902054610bc45760405162461bcd60e51b815260206004820152602160248201527f4c6f626279426174746c653a2077726f6e67206c6f62627920636170616369746044820152607960f81b6064820152608401610489565b600354600086815260096020526040908190205490516323b872dd60e01b815233600482015230602482015260448101919091526001600160a01b03909116906323b872dd90606401602060405180830381600087803b158015610c2757600080fd5b505af1158015610c3b573d6000803e3d6000fd5b505050506040513d601f19601f82011682018060405250810190610c5f9190611ff1565b610cab5760405162461bcd60e51b815260206004820152601b60248201527f4c6f626279426174746c653a206e6f7420656e6f7567682066656500000000006044820152606401610489565b6060610cbb600180546001019055565b6000610cc660015490565b90506000604051806101a00160405280888152602001878152602001336001600160a01b0316815260200160006001600160a01b031681526020018381526020018981526020014281526020016000815260200160008152602001600960008b81526020019081526020016000205481526020016000815260200186868080602002602001604051908101604052809392919081815260200183836020028082843760009201829052509385525050506020918201869052848152600a80835260409182902084518155848401516001820155918401516002830180546001600160a01b039283166001600160a01b03199182161790915560608601516003850180549190931691161790556080840151600483015560a0840151600583015560c0840151600683015560e084015160078301556101008401516008830155610120840151600983015561014084015190820155610160830151805193945084939192610e3b92600b85019290910190611ccb565b506101808201518051610e5891600c840191602090910190611ccb565b5050505050505050505050565b606080600060015b6001548111610ef4576000818152600a6020526040902060070154158015610eb257506000818152600a60205260409020600201546001600160a01b03868116911614155b15610ee257808383610ec3816120d8565b945081518110610ed557610ed5612013565b6020026020010181815250505b80610eec816120d8565b915050610e6d565b50909392505050565b606080600060015b6001548111610ef4576000818152600a602052604090206007015415801590610f7057506000818152600a60205260409020600201546001600160a01b0386811691161480610f7057506000818152600a60205260409020600301546001600160a01b038681169116145b15610fa057808383610f81816120d8565b945081518110610f9357610f93612013565b6020026020010181815250505b80610faa816120d8565b915050610f05565b606080600060015b6001548111611017576000818152600a60205260409020600701541561100557808383610fe6816120d8565b945081518110610ff857610ff8612013565b6020026020010181815250505b8061100f816120d8565b915050610fba565b509092915050565b606080600060015b6001548111610ef4576000818152600a602052604090206007015415801561106b57506000818152600a60205260409020600201546001600160a01b038681169116145b1561109b5780838361107c816120d8565b94508151811061108e5761108e612013565b6020026020010181815250505b806110a5816120d8565b915050611027565b6000546001600160a01b031633146110d75760405162461bcd60e51b8152600401610489906120f3565b6110e16000611aee565b565b60408051446020820152429181019190915233606090811b6bffffffffffffffffffffffff1916908201526074810183905260948101829052600090819060b40160408051601f1981840301815291905280516020909101209050836111498185612128565b61115490600161213f565b61115e9083612157565b611168919061213f565b9150505b92915050565b60608167ffffffffffffffff81111561118d5761118d61216b565b6040519080825280602002602001820160405280156111c057816020015b60608152602001906001900390816111ab5790505b50905060005b8281101561126057611230308585848181106111e4576111e4612013565b90506020028101906111f69190612181565b8080601f016020809104026020016040519081016040528093929190818152602001838380828437600092019190915250611b3e92505050565b82828151811061124257611242612013565b60200260200101819052508080611258906120d8565b9150506111c6565b5092915050565b60005b818110156113745760045433906001600160a01b0316636352211e85858581811061129757611297612013565b905060200201356040518263ffffffff1660e01b81526004016112bc91815260200190565b60206040518083038186803b1580156112d457600080fd5b505afa1580156112e8573d6000803e3d6000fd5b505050506040513d601f19601f8201168201806040525081019061130c91906121c8565b6001600160a01b0316146113625760405162461bcd60e51b815260206004820152601b60248201527f4c6f626279426174746c653a206e6f74206865726f206f776e657200000000006044820152606401610489565b8061136c816120d8565b91505061126a565b505050565b6000546001600160a01b031633146113a35760405162461bcd60e51b8152600401610489906120f3565b600755565b6000546001600160a01b031633146113d25760405162461bcd60e51b8152600401610489906120f3565b600580546001600160a01b0319166001600160a01b0392909216919091179055565b6000546001600160a01b0316331461141e5760405162461bcd60e51b8152600401610489906120f3565b6001600160a01b0381166114835760405162461bcd60e51b815260206004820152602660248201527f4f776e61626c653a206e6577206f776e657220697320746865207a65726f206160448201526564647265737360d01b6064820152608401610489565b61148c81611aee565b50565b600254604051630a36d40b60e01b8152600481018390526000916001600160a01b031690630a36d40b9060240160206040518083038186803b1580156114d457600080fd5b505afa1580156114e8573d6000803e3d6000fd5b505050506040513d601f19601f8201168201806040525081019061150c91906121e5565b6007546115199190612128565b61116c90600161213f565b6000808360008151811061153a5761153a612013565b6020026020010151905060008360008151811061155957611559612013565b6020908102919091010151600254604051636ae0f6c560e11b8152600481018590529192506000916001600160a01b039091169063d5c1ed8a9060240160206040518083038186803b1580156115ae57600080fd5b505afa1580156115c2573d6000803e3d6000fd5b505050506040513d601f19601f820116820180604052508101906115e691906121e5565b600254604051636ae0f6c560e11b8152600481018590529192506000916001600160a01b039091169063d5c1ed8a9060240160206040518083038186803b15801561163057600080fd5b505afa158015611644573d6000803e3d6000fd5b505050506040513d601f19601f8201168201806040525081019061166891906121e5565b60025460405163f3d1b5ab60e01b8152600481018790529192506000916001600160a01b039091169063f3d1b5ab9060240160206040518083038186803b1580156116b257600080fd5b505afa1580156116c6573d6000803e3d6000fd5b505050506040513d601f19601f820116820180604052508101906116ea91906121e5565b600254604051630a36d40b60e01b8152600481018890529192506000916001600160a01b0390911690630a36d40b9060240160206040518083038186803b15801561173457600080fd5b505afa158015611748573d6000803e3d6000fd5b505050506040513d601f19601f8201168201806040525081019061176c91906121e5565b60025460405163f3d1b5ab60e01b8152600481018890529192506000916001600160a01b039091169063f3d1b5ab9060240160206040518083038186803b1580156117b657600080fd5b505afa1580156117ca573d6000803e3d6000fd5b505050506040513d601f19601f820116820180604052508101906117ee91906121e5565b600254604051630a36d40b60e01b8152600481018990529192506000916001600160a01b0390911690630a36d40b9060240160206040518083038186803b15801561183857600080fd5b505afa15801561184c573d6000803e3d6000fd5b505050506040513d601f19601f8201168201806040525081019061187091906121e5565b9050818414156119d1578083111561191b578486111561189b5760019850505050505050505061116c565b848614156118df5760006118b1600160646110e3565b9050603c81116118cd576001995050505050505050505061116c565b6002995050505050505050505061116c565b60006118ed600160646110e3565b905060468111611909576002995050505050505050505061116c565b6001995050505050505050505061116c565b808314156119785784861115611955576000611939600160646110e3565b9050604681116118cd576001995050505050505050505061116c565b848614156118df57611969600160026110e3565b9850505050505050505061116c565b848610156119915760029850505050505050505061116c565b848614156119c35760006119a7600160646110e3565b9050603c8111611909576002995050505050505050505061116c565b6000611939600160646110e3565b80831415611a4a5784861115611a0c5760006119ef600160646110e3565b905060468111156118cd576001995050505050505050505061116c565b84861415611a2057611969600160026110e3565b6000611a2e600160646110e3565b9050601481116118cd576001995050505050505050505061116c565b80831115611a955784861115611a6b5760019850505050505050505061116c565b6000611a79600160646110e3565b9050602881116118cd576001995050505050505050505061116c565b84861015611aae5760029850505050505050505061116c565b84861415611ae0576000611ac4600160646110e3565b9050601e81116118cd576001995050505050505050505061116c565b60006118b1600160646110e3565b600080546001600160a01b038381166001600160a01b0319831681178455604051919092169283917f8be0079c531659141344cd1fd0a4f28419497f9722a3daafe3b4186f6b6457e09190a35050565b6060611b63838360405180606001604052806027815260200161222e60279139611b6a565b9392505050565b60606001600160a01b0384163b611bd25760405162461bcd60e51b815260206004820152602660248201527f416464726573733a2064656c65676174652063616c6c20746f206e6f6e2d636f6044820152651b9d1c9858dd60d21b6064820152608401610489565b600080856001600160a01b031685604051611bed91906121fe565b600060405180830381855af49150503d8060008114611c28576040519150601f19603f3d011682016040523d82523d6000602084013e611c2d565b606091505b5091509150611c3d828286611c47565b9695505050505050565b60608315611c56575081611b63565b825115611c665782518084602001fd5b8160405162461bcd60e51b8152600401610489919061221a565b828054828255906000526020600020908101928215611cbb579160200282015b82811115611cbb578235825591602001919060010190611ca0565b50611cc7929150611d06565b5090565b828054828255906000526020600020908101928215611cbb579160200282015b82811115611cbb578251825591602001919060010190611ceb565b5b80821115611cc75760008155600101611d07565b60008083601f840112611d2d57600080fd5b50813567ffffffffffffffff811115611d4557600080fd5b6020830191508360208260051b8501011115611d6057600080fd5b9250929050565b600080600060408486031215611d7c57600080fd5b83359250602084013567ffffffffffffffff811115611d9a57600080fd5b611da686828701611d1b565b9497909650939450505050565b600080600080600060808688031215611dcb57600080fd5b853594506020860135935060408601359250606086013567ffffffffffffffff811115611df757600080fd5b611e0388828901611d1b565b969995985093965092949392505050565b6001600160a01b038116811461148c57600080fd5b600060208284031215611e3b57600080fd5b8135611b6381611e14565b6020808252825182820181905260009190848201906040850190845b81811015611e7e57835183529284019291840191600101611e62565b50909695505050505050565b600060208284031215611e9c57600080fd5b5035919050565b60008060408385031215611eb657600080fd5b823591506020830135611ec881611e14565b809150509250929050565b60008060408385031215611ee657600080fd5b50508035926020909101359150565b60008060208385031215611f0857600080fd5b823567ffffffffffffffff811115611f1f57600080fd5b611f2b85828601611d1b565b90969095509350505050565b60005b83811015611f52578181015183820152602001611f3a565b83811115610b005750506000910152565b60008151808452611f7b816020860160208601611f37565b601f01601f19169290920160200192915050565b6000602080830181845280855180835260408601915060408160051b870101925083870160005b82811015611fe457603f19888603018452611fd2858351611f63565b94509285019290850190600101611fb6565b5092979650505050505050565b60006020828403121561200357600080fd5b81518015158114611b6357600080fd5b634e487b7160e01b600052603260045260246000fd5b6000604082016040835280855480835260608501915086600052602092508260002060005b8281101561206a5781548452928401926001918201910161204e565b50505092019290925292915050565b634e487b7160e01b600052601260045260246000fd5b634e487b7160e01b600052601160045260246000fd5b6000826120b4576120b4612079565b500490565b60008160001904831182151516156120d3576120d361208f565b500290565b60006000198214156120ec576120ec61208f565b5060010190565b6020808252818101527f4f776e61626c653a2063616c6c6572206973206e6f7420746865206f776e6572604082015260600190565b60008282101561213a5761213a61208f565b500390565b600082198211156121525761215261208f565b500190565b60008261216657612166612079565b500690565b634e487b7160e01b600052604160045260246000fd5b6000808335601e1984360301811261219857600080fd5b83018035915067ffffffffffffffff8211156121b357600080fd5b602001915036819003821315611d6057600080fd5b6000602082840312156121da57600080fd5b8151611b6381611e14565b6000602082840312156121f757600080fd5b5051919050565b60008251612210818460208701611f37565b9190910192915050565b602081526000611b636020830184611f6356fe416464726573733a206c6f772d6c6576656c2064656c65676174652063616c6c206661696c6564a2646970667358221220a52f8521e5486941c9012fe098d49720bd760fd0ebbcdd78130a28053fc6ea9264736f6c63430008090033",
  "linkReferences": {},
  "deployedLinkReferences": {}
}