{
  "_format": "hh-sol-artifact-1",
  "contractName": "LobbyManager",
  "sourceName": "contracts/game/LobbyManager.sol",
  "abi": [
    {
      "inputs": [],
      "stateMutability": "nonpayable",
      "type": "constructor"
    },
    {
      "anonymous": false,
      "inputs": [
        {
          "indexed": true,
          "internalType": "uint256",
          "name": "lobbyId",
          "type": "uint256"
        },
        {
          "indexed": true,
          "internalType": "address",
          "name": "host",
          "type": "address"
        },
        {
          "indexed": true,
          "internalType": "address",
          "name": "client",
          "type": "address"
        }
      ],
      "name": "BattleFinished",
      "type": "event"
    },
    {
      "anonymous": false,
      "inputs": [
        {
          "indexed": true,
          "internalType": "address",
          "name": "previousOwner",
          "type": "address"
        },
        {
          "indexed": true,
          "internalType": "address",
          "name": "newOwner",
          "type": "address"
        }
      ],
      "name": "OwnershipTransferred",
      "type": "event"
    },
    {
      "inputs": [
        {
          "internalType": "uint256",
          "name": "",
          "type": "uint256"
        }
      ],
      "name": "battles",
      "outputs": [
        {
          "internalType": "contract IVersusBattle",
          "name": "",
          "type": "address"
        }
      ],
      "stateMutability": "view",
      "type": "function"
    },
    {
      "inputs": [
        {
          "internalType": "bytes32",
          "name": "name",
          "type": "bytes32"
        },
        {
          "internalType": "bytes32",
          "name": "avatar",
          "type": "bytes32"
        },
        {
          "internalType": "uint256",
          "name": "capacity",
          "type": "uint256"
        },
        {
          "internalType": "uint256[]",
          "name": "heroIds",
          "type": "uint256[]"
        }
      ],
      "name": "createLobby",
      "outputs": [],
      "stateMutability": "nonpayable",
      "type": "function"
    },
    {
      "inputs": [
        {
          "internalType": "address",
          "name": "myAddr",
          "type": "address"
        },
        {
          "internalType": "uint256",
          "name": "capacity",
          "type": "uint256"
        }
      ],
      "name": "getActiveLobbies",
      "outputs": [
        {
          "internalType": "uint256[]",
          "name": "",
          "type": "uint256[]"
        }
      ],
      "stateMutability": "view",
      "type": "function"
    },
    {
      "inputs": [
        {
          "internalType": "uint256",
          "name": "capacity",
          "type": "uint256"
        }
      ],
      "name": "getAllHistory",
      "outputs": [
        {
          "internalType": "uint256[]",
          "name": "",
          "type": "uint256[]"
        }
      ],
      "stateMutability": "view",
      "type": "function"
    },
    {
      "inputs": [
        {
          "internalType": "uint256[]",
          "name": "heroes",
          "type": "uint256[]"
        }
      ],
      "name": "getHeroesPower",
      "outputs": [
        {
          "internalType": "uint256",
          "name": "",
          "type": "uint256"
        }
      ],
      "stateMutability": "view",
      "type": "function"
    },
    {
      "inputs": [
        {
          "internalType": "uint256",
          "name": "lobbyId",
          "type": "uint256"
        }
      ],
      "name": "getLobbyHeroes",
      "outputs": [
        {
          "internalType": "address",
          "name": "",
          "type": "address"
        },
        {
          "internalType": "uint256[]",
          "name": "",
          "type": "uint256[]"
        },
        {
          "internalType": "address",
          "name": "",
          "type": "address"
        },
        {
          "internalType": "uint256[]",
          "name": "",
          "type": "uint256[]"
        }
      ],
      "stateMutability": "view",
      "type": "function"
    },
    {
      "inputs": [
        {
          "internalType": "uint256",
          "name": "lobbyId",
          "type": "uint256"
        }
      ],
      "name": "getLobbyPower",
      "outputs": [
        {
          "internalType": "address",
          "name": "",
          "type": "address"
        },
        {
          "internalType": "uint256",
          "name": "",
          "type": "uint256"
        },
        {
          "internalType": "address",
          "name": "",
          "type": "address"
        },
        {
          "internalType": "uint256",
          "name": "",
          "type": "uint256"
        }
      ],
      "stateMutability": "view",
      "type": "function"
    },
    {
      "inputs": [
        {
          "internalType": "address",
          "name": "myAddr",
          "type": "address"
        },
        {
          "internalType": "uint256",
          "name": "capacity",
          "type": "uint256"
        }
      ],
      "name": "getMyHistory",
      "outputs": [
        {
          "internalType": "uint256[]",
          "name": "",
          "type": "uint256[]"
        }
      ],
      "stateMutability": "view",
      "type": "function"
    },
    {
      "inputs": [
        {
          "internalType": "address",
          "name": "myAddr",
          "type": "address"
        },
        {
          "internalType": "uint256",
          "name": "capacity",
          "type": "uint256"
        }
      ],
      "name": "getMyLobbies",
      "outputs": [
        {
          "internalType": "uint256[]",
          "name": "",
          "type": "uint256[]"
        }
      ],
      "stateMutability": "view",
      "type": "function"
    },
    {
      "inputs": [
        {
          "internalType": "uint256",
          "name": "lobbyId",
          "type": "uint256"
        },
        {
          "internalType": "address",
          "name": "player",
          "type": "address"
        }
      ],
      "name": "getPlayerHeroesOnLobby",
      "outputs": [
        {
          "internalType": "uint256[]",
          "name": "",
          "type": "uint256[]"
        }
      ],
      "stateMutability": "view",
      "type": "function"
    },
    {
      "inputs": [],
      "name": "heroManager",
      "outputs": [
        {
          "internalType": "contract IHeroManager",
          "name": "",
          "type": "address"
        }
      ],
      "stateMutability": "view",
      "type": "function"
    },
    {
      "inputs": [
        {
          "internalType": "uint256",
          "name": "lobbyId",
          "type": "uint256"
        },
        {
          "internalType": "uint256[]",
          "name": "heroIds",
          "type": "uint256[]"
        }
      ],
      "name": "joinLobby",
      "outputs": [],
      "stateMutability": "nonpayable",
      "type": "function"
    },
    {
      "inputs": [
        {
          "internalType": "uint256",
          "name": "",
          "type": "uint256"
        }
      ],
      "name": "lobbies",
      "outputs": [
        {
          "internalType": "bytes32",
          "name": "name",
          "type": "bytes32"
        },
        {
          "internalType": "bytes32",
          "name": "avatar",
          "type": "bytes32"
        },
        {
          "internalType": "address",
          "name": "host",
          "type": "address"
        },
        {
          "internalType": "address",
          "name": "client",
          "type": "address"
        },
        {
          "internalType": "uint256",
          "name": "id",
          "type": "uint256"
        },
        {
          "internalType": "uint256",
          "name": "capacity",
          "type": "uint256"
        },
        {
          "internalType": "uint256",
          "name": "startedAt",
          "type": "uint256"
        },
        {
          "internalType": "uint256",
          "name": "finishedAt",
          "type": "uint256"
        },
        {
          "internalType": "uint256",
          "name": "winner",
          "type": "uint256"
        },
        {
          "internalType": "uint256",
          "name": "fee",
          "type": "uint256"
        },
        {
          "internalType": "uint256",
          "name": "rewards",
          "type": "uint256"
        }
      ],
      "stateMutability": "view",
      "type": "function"
    },
    {
      "inputs": [
        {
          "internalType": "uint256",
          "name": "",
          "type": "uint256"
        }
      ],
      "name": "lobbyFees",
      "outputs": [
        {
          "internalType": "uint256",
          "name": "",
          "type": "uint256"
        }
      ],
      "stateMutability": "view",
      "type": "function"
    },
    {
      "inputs": [
        {
          "internalType": "uint256",
          "name": "",
          "type": "uint256"
        },
        {
          "internalType": "address",
          "name": "",
          "type": "address"
        },
        {
          "internalType": "uint256",
          "name": "",
          "type": "uint256"
        }
      ],
      "name": "lobbyHeroes",
      "outputs": [
        {
          "internalType": "uint256",
          "name": "",
          "type": "uint256"
        }
      ],
      "stateMutability": "view",
      "type": "function"
    },
    {
      "inputs": [
        {
          "internalType": "bytes[]",
          "name": "data",
          "type": "bytes[]"
        }
      ],
      "name": "multicall",
      "outputs": [
        {
          "internalType": "bytes[]",
          "name": "results",
          "type": "bytes[]"
        }
      ],
      "stateMutability": "nonpayable",
      "type": "function"
    },
    {
      "inputs": [],
      "name": "owner",
      "outputs": [
        {
          "internalType": "address",
          "name": "",
          "type": "address"
        }
      ],
      "stateMutability": "view",
      "type": "function"
    },
    {
      "inputs": [
        {
          "internalType": "address",
          "name": "",
          "type": "address"
        }
      ],
      "name": "playersFees",
      "outputs": [
        {
          "internalType": "uint256",
          "name": "",
          "type": "uint256"
        }
      ],
      "stateMutability": "view",
      "type": "function"
    },
    {
      "inputs": [
        {
          "internalType": "address",
          "name": "",
          "type": "address"
        }
      ],
      "name": "playersRewards",
      "outputs": [
        {
          "internalType": "uint256",
          "name": "",
          "type": "uint256"
        }
      ],
      "stateMutability": "view",
      "type": "function"
    },
    {
      "inputs": [
        {
          "internalType": "uint256",
          "name": "min",
          "type": "uint256"
        },
        {
          "internalType": "uint256",
          "name": "max",
          "type": "uint256"
        }
      ],
      "name": "random",
      "outputs": [
        {
          "internalType": "uint256",
          "name": "",
          "type": "uint256"
        }
      ],
      "stateMutability": "view",
      "type": "function"
    },
    {
      "inputs": [
        {
          "internalType": "address",
          "name": "",
          "type": "address"
        }
      ],
      "name": "registeredPlayers",
      "outputs": [
        {
          "internalType": "bool",
          "name": "",
          "type": "bool"
        }
      ],
      "stateMutability": "view",
      "type": "function"
    },
    {
      "inputs": [],
      "name": "renounceOwnership",
      "outputs": [],
      "stateMutability": "nonpayable",
      "type": "function"
    },
    {
      "inputs": [],
      "name": "rewardsPayeer",
      "outputs": [
        {
          "internalType": "address",
          "name": "",
          "type": "address"
        }
      ],
      "stateMutability": "view",
      "type": "function"
    },
    {
      "inputs": [
        {
          "internalType": "uint256",
          "name": "capacity",
          "type": "uint256"
        },
        {
          "internalType": "address",
          "name": "battleAddress",
          "type": "address"
        }
      ],
      "name": "setBattleAddress",
      "outputs": [],
      "stateMutability": "nonpayable",
      "type": "function"
    },
    {
      "inputs": [
        {
          "internalType": "uint256",
          "name": "multiplier",
          "type": "uint256"
        }
      ],
      "name": "setBenefitMultiplier",
      "outputs": [],
      "stateMutability": "nonpayable",
      "type": "function"
    },
    {
      "inputs": [
        {
          "internalType": "address",
          "name": "hmAddr",
          "type": "address"
        }
      ],
      "name": "setHeroManager",
      "outputs": [],
      "stateMutability": "nonpayable",
      "type": "function"
    },
    {
      "inputs": [
        {
          "internalType": "uint256",
          "name": "capacity",
          "type": "uint256"
        },
        {
          "internalType": "uint256",
          "name": "fee",
          "type": "uint256"
        }
      ],
      "name": "setLobbyFee",
      "outputs": [],
      "stateMutability": "nonpayable",
      "type": "function"
    },
    {
      "inputs": [
        {
          "internalType": "address",
          "name": "payer",
          "type": "address"
        }
      ],
      "name": "setRewardsPayeer",
      "outputs": [],
      "stateMutability": "nonpayable",
      "type": "function"
    },
    {
      "inputs": [],
      "name": "totalPlayers",
      "outputs": [
        {
          "internalType": "uint256",
          "name": "",
          "type": "uint256"
        }
      ],
      "stateMutability": "view",
      "type": "function"
    },
    {
      "inputs": [
        {
          "internalType": "address",
          "name": "newOwner",
          "type": "address"
        }
      ],
      "name": "transferOwnership",
      "outputs": [],
      "stateMutability": "nonpayable",
      "type": "function"
    },
    {
      "inputs": [
        {
          "internalType": "uint256",
          "name": "",
          "type": "uint256"
        }
      ],
      "name": "uniquePlayers",
      "outputs": [
        {
          "internalType": "address",
          "name": "",
          "type": "address"
        }
      ],
      "stateMutability": "view",
      "type": "function"
    }
  ],
  "bytecode": "0x6080604052600380546001600160a01b031916730cca7943409260455ceef6be46c69b3fc808e24f17905560fa60045534801561003b57600080fd5b50610045336100db565b600c60205269010f0cf064dd592000007fd421a5181c571bba3f01190c922c3b2a896fc1d84e86c9f17ac10e67ebef8b5c5569054b40b1f852bda000007fc0da782485e77ae272268ae0a3ff44c1552ecb60b3743924de17a815e0a3cfd7556005600052690a968163f0a57b4000007f2cd9ebf6ff19cdd7ffcc447d7c7d47b5991f5c7392a04512134e765802361fa65561012b565b600080546001600160a01b038381166001600160a01b0319831681178455604051919092169283917f8be0079c531659141344cd1fd0a4f28419497f9722a3daafe3b4186f6b6457e09190a35050565b612a9f8061013a6000396000f3fe608060405234801561001057600080fd5b50600436106101e45760003560e01c8063715018a61161010f578063b12f5c57116100a2578063e4118fca11610071578063e4118fca146105bd578063ed697f32146105d0578063f2fde38b146105e3578063f60cdcf6146105f657600080fd5b8063b12f5c5714610522578063b97dcb221461056a578063b9f2d5201461057d578063c8f942701461059d57600080fd5b8063930613fc116100de578063930613fc146104b357806394f69662146104dc578063a9dd1225146104ef578063ac9650d81461050257600080fd5b8063715018a6146104745780637407fddd1461047c578063833588cc1461048f5780638da5cb5b146104a257600080fd5b80633b8a7a131161018757806357d15a8b1161015657806357d15a8b14610346578063606d2e96146103595780636bd2dc85146103825780636e8fb4c6146103a257600080fd5b80633b8a7a13146102da57806345efd785146102ed5780634bafce22146103005780634d5f80ad1461033357600080fd5b806316fc989c116101c357806316fc989c146102555780631deb8c441461029457806328b11d23146102b4578063378cc347146102c757600080fd5b8062c8bd7e146101e957806307a48c19146101fe57806311ce406d1461022a575b600080fd5b6101fc6101f73660046123e9565b6105ff565b005b61021161020c366004612435565b610c77565b6040516102219493929190612489565b60405180910390f35b60035461023d906001600160a01b031681565b6040516001600160a01b039091168152602001610221565b6102866102633660046124e6565b600a60209081526000938452604080852082529284528284209052825290205481565b604051908152602001610221565b6102a76102a236600461251e565b610ccb565b604051610221919061254a565b6101fc6102c2366004612435565b610e52565b6101fc6102d536600461255d565b610e81565b60025461023d906001600160a01b031681565b6102a76102fb366004612435565b610ecd565b61032361030e36600461255d565b60076020526000908152604090205460ff1681565b6040519015158152602001610221565b6102a761034136600461251e565b611003565b6101fc61035436600461257a565b61117e565b61023d610367366004612435565b600d602052600090815260409020546001600160a01b031681565b61028661039036600461255d565b60096020526000908152604090205481565b6104156103b0366004612435565b600b60205260009081526040902080546001820154600283015460038401546004850154600586015460068701546007880154600889015460098a0154600a909a0154989997986001600160a01b03978816989790961696949593949293919290918b565b604080519b8c5260208c019a909a526001600160a01b03988916998b0199909952969095166060890152608088019390935260a087019190915260c086015260e085015261010084015261012083015261014082015261016001610221565b6101fc6111d6565b6102a761048a36600461251e565b61120c565b6101fc61049d3660046125aa565b6113d5565b6000546001600160a01b031661023d565b61023d6104c1366004612435565b6006602052600090815260409020546001600160a01b031681565b6101fc6104ea3660046125cc565b611411565b6102866104fd3660046125aa565b61199a565b61051561051036600461262d565b611a4c565b60405161022191906126cb565b610535610530366004612435565b611b41565b60405161022194939291906001600160a01b039485168152602081019390935292166040820152606081019190915260800190565b6102a761057836600461257a565b611ce5565b61028661058b366004612435565b600c6020526000908152604090205481565b6102866105ab36600461255d565b60086020526000908152604090205481565b6101fc6105cb36600461255d565b611dd0565b6102866105de366004612743565b611e1c565b6101fc6105f136600461255d565b611edb565b61028660055481565b6000838152600b60205260409081902060028082015460059092015490549251630152368f60e01b815233936001600160a01b03938416931690630152368f906106519088908890889060040161282b565b60206040518083038186803b15801561066957600080fd5b505afa15801561067d573d6000803e3d6000fd5b505050506040513d601f19601f820116820180604052508101906106a19190612857565b5060025460405163b7601a1560e01b81526001600160a01b039091169063b7601a15906106d49088908890600401612879565b60206040518083038186803b1580156106ec57600080fd5b505afa158015610700573d6000803e3d6000fd5b505050506040513d601f19601f820116820180604052508101906107249190612857565b506000868152600b602052604090206004015486146107945760405162461bcd60e51b815260206004820152602160248201527f4c6f6262794d616e616765723a206c6f62627920646f65736e277420657869736044820152601d60fa1b60648201526084015b60405180910390fd5b8084146107e35760405162461bcd60e51b815260206004820152601a60248201527f4c6f6262794d616e616765723a2077726f6e67206865726f6573000000000000604482015260640161078b565b6000868152600b6020526040902060070154156108425760405162461bcd60e51b815260206004820152601e60248201527f4c6f6262794d616e616765723a20616c72656164792066696e69736865640000604482015260640161078b565b60025460408051637e062a3560e11b815290516000926001600160a01b03169163fc0c546a916004808301926020929190829003018186803b15801561088757600080fd5b505afa15801561089b573d6000803e3d6000fd5b505050506040513d601f19601f820116820180604052508101906108bf919061288d565b6000838152600c6020526040908190205460035491516323b872dd60e01b81526001600160a01b03888116600483015292831660248201526044810182905292935091908316906323b872dd90606401602060405180830381600087803b15801561092957600080fd5b505af115801561093d573d6000803e3d6000fd5b505050506040513d601f19601f820116820180604052508101906109619190612857565b6109ad5760405162461bcd60e51b815260206004820152601c60248201527f4c6f6262794d616e616765723a206e6f7420656e6f7567682066656500000000604482015260640161078b565b6109b685611f76565b6001600160a01b03851660008181526008602090815260408083208054860190558b8352600b90915281206003810180546001600160a01b03191690931790925542600790920191909155610a0b8986611ce5565b90506000610a2f6064610a2960045486611feb90919063ffffffff16565b90611fef565b60008b8152600b60209081526040808320600a01849055888352600d9091528082205490516348e8c1d360e01b81529293506001600160a01b03169182906348e8c1d390610a859087908f908f906004016128aa565b60206040518083038186803b158015610a9d57600080fd5b505afa158015610ab1573d6000803e3d6000fd5b505050506040513d601f19601f82011682018060405250810190610ad591906128d0565b905080600b60008e815260200190815260200160002060080181905550610b408c82868e8e80806020026020016040519081016040528093929190818152602001838360200280828437600081840152601f19601f820116905080830192505050505050508d612008565b600081600114610b505789610b52565b885b6003546040516323b872dd60e01b81526001600160a01b0391821660048201528183166024820152604481018790529192508816906323b872dd90606401602060405180830381600087803b158015610baa57600080fd5b505af1158015610bbe573d6000803e3d6000fd5b505050506040513d601f19601f82011682018060405250810190610be29190612857565b506001600160a01b038116600090815260096020526040902054840160096000836001600160a01b03166001600160a01b0316815260200190815260200160002081905550896001600160a01b0316896001600160a01b03168e7fc77dc6cd4b51c8efc4af40a582ca4cf229fda505a830b4486b200ddcbdb1383f60405160405180910390a450505050505050505050505050565b6000818152600b602052604081206002810154600390910154606091839183916001600160a01b03908116911681610caf8882611ce5565b82610cba8a85611ce5565b955095509550955050509193509193565b6060600060015b6001548111610d58576000818152600b6020526040902060070154158015610d0a57506000818152600b602052604090206005015484145b8015610d3357506000818152600b60205260409020600201546001600160a01b03868116911614155b15610d465781610d42816128ff565b9250505b80610d50816128ff565b915050610cd2565b506000808267ffffffffffffffff811115610d7557610d7561272d565b604051908082528060200260200182016040528015610d9e578160200160208202803683370190505b50905060015b6001548111610e48576000818152600b6020526040902060070154158015610ddc57506000818152600b602052604090206005015486145b8015610e0557506000818152600b60205260409020600201546001600160a01b03888116911614155b15610e365780828481518110610e1d57610e1d61291a565b602090810291909101015282610e32816128ff565b9350505b80610e40816128ff565b915050610da4565b5095945050505050565b6000546001600160a01b03163314610e7c5760405162461bcd60e51b815260040161078b90612930565b600455565b6000546001600160a01b03163314610eab5760405162461bcd60e51b815260040161078b90612930565b600280546001600160a01b0319166001600160a01b0392909216919091179055565b6060600060015b6001548111610f32576000818152600b602052604090206007015415801590610f0d57506000818152600b602052604090206005015484145b15610f205781610f1c816128ff565b9250505b80610f2a816128ff565b915050610ed4565b506000808267ffffffffffffffff811115610f4f57610f4f61272d565b604051908082528060200260200182016040528015610f78578160200160208202803683370190505b50905060015b6001548111610ffa576000818152600b602052604090206007015415801590610fb757506000818152600b602052604090206005015486145b15610fe85780828481518110610fcf57610fcf61291a565b602090810291909101015282610fe4816128ff565b9350505b80610ff2816128ff565b915050610f7e565b50949350505050565b6060600060015b600154811161108f576000818152600b602052604090206007015415801561104257506000818152600b602052604090206005015484145b801561106a57506000818152600b60205260409020600201546001600160a01b038681169116145b1561107d5781611079816128ff565b9250505b80611087816128ff565b91505061100a565b506000808267ffffffffffffffff8111156110ac576110ac61272d565b6040519080825280602002602001820160405280156110d5578160200160208202803683370190505b50905060015b6001548111610e48576000818152600b602052604090206007015415801561111357506000818152600b602052604090206005015486145b801561113b57506000818152600b60205260409020600201546001600160a01b038881169116145b1561116c57808284815181106111535761115361291a565b602090810291909101015282611168816128ff565b9350505b80611176816128ff565b9150506110db565b6000546001600160a01b031633146111a85760405162461bcd60e51b815260040161078b90612930565b6000918252600d602052604090912080546001600160a01b0319166001600160a01b03909216919091179055565b6000546001600160a01b031633146112005760405162461bcd60e51b815260040161078b90612930565b61120a600061220b565b565b6060600060015b60015481116112bf576000818152600b60205260409020600701541580159061124c57506000818152600b602052604090206005015484145b801561129a57506000818152600b60205260409020600201546001600160a01b038681169116148061129a57506000818152600b60205260409020600301546001600160a01b038681169116145b156112ad57816112a9816128ff565b9250505b806112b7816128ff565b915050611213565b506000808267ffffffffffffffff8111156112dc576112dc61272d565b604051908082528060200260200182016040528015611305578160200160208202803683370190505b50905060015b6001548111610e48576000818152600b60205260409020600701541580159061134457506000818152600b602052604090206005015486145b801561139257506000818152600b60205260409020600201546001600160a01b038881169116148061139257506000818152600b60205260409020600301546001600160a01b038881169116145b156113c357808284815181106113aa576113aa61291a565b6020908102919091010152826113bf816128ff565b9350505b806113cd816128ff565b91505061130b565b6000546001600160a01b031633146113ff5760405162461bcd60e51b815260040161078b90612930565b6000918252600c602052604090912055565b6000838152600c602052604090819020546002549151630152368f60e01b815233926001600160a01b031690630152368f906114559087908790879060040161282b565b60206040518083038186803b15801561146d57600080fd5b505afa158015611481573d6000803e3d6000fd5b505050506040513d601f19601f820116820180604052508101906114a59190612857565b5060025460405163b7601a1560e01b81526001600160a01b039091169063b7601a15906114d89087908790600401612879565b60206040518083038186803b1580156114f057600080fd5b505afa158015611504573d6000803e3d6000fd5b505050506040513d601f19601f820116820180604052508101906115289190612857565b5060025460408051637e062a3560e11b815290516000926001600160a01b03169163fc0c546a916004808301926020929190829003018186803b15801561156e57600080fd5b505afa158015611582573d6000803e3d6000fd5b505050506040513d601f19601f820116820180604052508101906115a6919061288d565b90508584146115f75760405162461bcd60e51b815260206004820152601e60248201527f4c6f6262794d616e616765723a2077726f6e6720706172616d65746572730000604482015260640161078b565b600082116116525760405162461bcd60e51b815260206004820152602260248201527f4c6f6262794d616e616765723a2077726f6e67206c6f62627920636170616369604482015261747960f01b606482015260840161078b565b6003546040516323b872dd60e01b81526001600160a01b038581166004830152918216602482015260448101849052908216906323b872dd90606401602060405180830381600087803b1580156116a857600080fd5b505af11580156116bc573d6000803e3d6000fd5b505050506040513d601f19601f820116820180604052508101906116e09190612857565b61172c5760405162461bcd60e51b815260206004820152601c60248201527f4c6f6262794d616e616765723a206e6f7420656e6f7567682066656500000000604482015260640161078b565b61173583611f76565b6001600160a01b03831660009081526008602052604090205482016001600160a01b038416600090815260086020526040812091909155600180540190508060018190555060006040518061016001604052808b81526020018a8152602001866001600160a01b0316815260200160006001600160a01b0316815260200183815260200189815260200142815260200160008152602001600081526020018581526020016000815250905080600b6000848152602001908152602001600020600082015181600001556020820151816001015560408201518160020160006101000a8154816001600160a01b0302191690836001600160a01b0316021790555060608201518160030160006101000a8154816001600160a01b0302191690836001600160a01b031602179055506080820151816004015560a0820151816005015560c0820151816006015560e082015181600701556101008201518160080155610120820151816009015561014082015181600a015590505060005b8681101561198d578787828181106118cb576118cb61291a565b6000868152600a602090815260408083206001600160a01b03808e168552908352818420888552835292209202939093013590555060025416634239ca3089898481811061191b5761191b61291a565b905060200201356040518263ffffffff1660e01b815260040161194091815260200190565b600060405180830381600087803b15801561195a57600080fd5b505af115801561196e573d6000803e3d6000fd5b50505050611986600182611fe790919063ffffffff16565b90506118b1565b5050505050505050505050565b6000804442336000356001600160e01b0319165a6040805160208101969096528501939093526bffffffffffffffffffffffff19606092831b16918401919091526001600160e01b031916607483015260788201526098810185905260b8810184905260d80160408051601f198184030181529190528051602090910120905083611a258185612965565b611a3090600161297c565b611a3a90836129aa565b611a44919061297c565b949350505050565b60608167ffffffffffffffff811115611a6757611a6761272d565b604051908082528060200260200182016040528015611a9a57816020015b6060815260200190600190039081611a855790505b50905060005b82811015611b3a57611b0a30858584818110611abe57611abe61291a565b9050602002810190611ad091906129cc565b8080601f01602080910402602001604051908101604052809392919081815260200183838082843760009201919091525061225b92505050565b828281518110611b1c57611b1c61291a565b60200260200101819052508080611b32906128ff565b915050611aa0565b5092915050565b600080600080600080600080611b5689610c77565b935093509350935060008060005b8551811015611cd25760025486516000916001600160a01b03169063d5c1ed8a90899085908110611b9757611b9761291a565b60200260200101516040518263ffffffff1660e01b8152600401611bbd91815260200190565b60206040518083038186803b158015611bd557600080fd5b505afa158015611be9573d6000803e3d6000fd5b505050506040513d601f19601f82011682018060405250810190611c0d91906128d0565b9384019390506001600160a01b03861615611cc95760025485516000916001600160a01b03169063d5c1ed8a90889086908110611c4c57611c4c61291a565b60200260200101516040518263ffffffff1660e01b8152600401611c7291815260200190565b60206040518083038186803b158015611c8a57600080fd5b505afa158015611c9e573d6000803e3d6000fd5b505050506040513d601f19601f82011682018060405250810190611cc291906128d0565b9390930192505b50600101611b64565b50949a9099509197509295509350505050565b606060005b6000848152600a602090815260408083206001600160a01b0387168452825280832084845290915290205415611d2c5780611d24816128ff565b915050611cea565b60008167ffffffffffffffff811115611d4757611d4761272d565b604051908082528060200260200182016040528015611d70578160200160208202803683370190505b50905060005b82811015610ffa576000868152600a602090815260408083206001600160a01b038916845282528083208484529091529020548251839083908110611dbd57611dbd61291a565b6020908102919091010152600101611d76565b6000546001600160a01b03163314611dfa5760405162461bcd60e51b815260040161078b90612930565b600380546001600160a01b0319166001600160a01b0392909216919091179055565b60008060005b8351811015611b3a576002548451611ed1916001600160a01b03169063d5c1ed8a90879085908110611e5657611e5661291a565b60200260200101516040518263ffffffff1660e01b8152600401611e7c91815260200190565b60206040518083038186803b158015611e9457600080fd5b505afa158015611ea8573d6000803e3d6000fd5b505050506040513d601f19601f82011682018060405250810190611ecc91906128d0565b830190565b9150600101611e22565b6000546001600160a01b03163314611f055760405162461bcd60e51b815260040161078b90612930565b6001600160a01b038116611f6a5760405162461bcd60e51b815260206004820152602660248201527f4f776e61626c653a206e6577206f776e657220697320746865207a65726f206160448201526564647265737360d01b606482015260840161078b565b611f738161220b565b50565b6001600160a01b03811660009081526007602052604090205460ff16611f735760058054600090815260066020908152604080832080546001600160a01b0319166001600160a01b038716908117909155835260079091529020805460ff1916600190811790915590540160055550565b0190565b0290565b600081838161200057612000612994565b049392505050565b60005b83518110156122035760025484516001600160a01b039091169063b0a04efa9086908490811061203d5761203d61291a565b6020026020010151876001146040518363ffffffff1660e01b81526004016120719291909182521515602082015260400190565b600060405180830381600087803b15801561208b57600080fd5b505af115801561209f573d6000803e3d6000fd5b505060025485516001600160a01b03909116925063b0a04efa91508590849081106120cc576120cc61291a565b6020026020010151876002146040518363ffffffff1660e01b81526004016121009291909182521515602082015260400190565b600060405180830381600087803b15801561211a57600080fd5b505af115801561212e573d6000803e3d6000fd5b505060025485516001600160a01b039091169250634239ca30915085908490811061215b5761215b61291a565b60200260200101516040518263ffffffff1660e01b815260040161218191815260200190565b600060405180830381600087803b15801561219b57600080fd5b505af11580156121af573d6000803e3d6000fd5b505050508281815181106121c5576121c561291a565b6020908102919091018101516000888152600a835260408082206001600160a01b03871683528452808220858352909352919091205560010161200b565b505050505050565b600080546001600160a01b038381166001600160a01b0319831681178455604051919092169283917f8be0079c531659141344cd1fd0a4f28419497f9722a3daafe3b4186f6b6457e09190a35050565b60606122808383604051806060016040528060278152602001612a4360279139612287565b9392505050565b60606001600160a01b0384163b6122ef5760405162461bcd60e51b815260206004820152602660248201527f416464726573733a2064656c65676174652063616c6c20746f206e6f6e2d636f6044820152651b9d1c9858dd60d21b606482015260840161078b565b600080856001600160a01b03168560405161230a9190612a13565b600060405180830381855af49150503d8060008114612345576040519150601f19603f3d011682016040523d82523d6000602084013e61234a565b606091505b509150915061235a828286612364565b9695505050505050565b60608315612373575081612280565b8251156123835782518084602001fd5b8160405162461bcd60e51b815260040161078b9190612a2f565b60008083601f8401126123af57600080fd5b50813567ffffffffffffffff8111156123c757600080fd5b6020830191508360208260051b85010111156123e257600080fd5b9250929050565b6000806000604084860312156123fe57600080fd5b83359250602084013567ffffffffffffffff81111561241c57600080fd5b6124288682870161239d565b9497909650939450505050565b60006020828403121561244757600080fd5b5035919050565b600081518084526020808501945080840160005b8381101561247e57815187529582019590820190600101612462565b509495945050505050565b600060018060a01b038087168352608060208401526124ab608084018761244e565b818616604085015283810360608501526124c5818661244e565b98975050505050505050565b6001600160a01b0381168114611f7357600080fd5b6000806000606084860312156124fb57600080fd5b83359250602084013561250d816124d1565b929592945050506040919091013590565b6000806040838503121561253157600080fd5b823561253c816124d1565b946020939093013593505050565b602081526000612280602083018461244e565b60006020828403121561256f57600080fd5b8135612280816124d1565b6000806040838503121561258d57600080fd5b82359150602083013561259f816124d1565b809150509250929050565b600080604083850312156125bd57600080fd5b50508035926020909101359150565b6000806000806000608086880312156125e457600080fd5b853594506020860135935060408601359250606086013567ffffffffffffffff81111561261057600080fd5b61261c8882890161239d565b969995985093965092949392505050565b6000806020838503121561264057600080fd5b823567ffffffffffffffff81111561265757600080fd5b6126638582860161239d565b90969095509350505050565b60005b8381101561268a578181015183820152602001612672565b83811115612699576000848401525b50505050565b600081518084526126b781602086016020860161266f565b601f01601f19169290920160200192915050565b6000602080830181845280855180835260408601915060408160051b870101925083870160005b8281101561272057603f1988860301845261270e85835161269f565b945092850192908501906001016126f2565b5092979650505050505050565b634e487b7160e01b600052604160045260246000fd5b6000602080838503121561275657600080fd5b823567ffffffffffffffff8082111561276e57600080fd5b818501915085601f83011261278257600080fd5b8135818111156127945761279461272d565b8060051b604051601f19603f830116810181811085821117156127b9576127b961272d565b6040529182528482019250838101850191888311156127d757600080fd5b938501935b828510156124c5578435845293850193928501926127dc565b81835260006001600160fb1b0383111561280e57600080fd5b8260051b8083602087013760009401602001938452509192915050565b60408152600061283f6040830185876127f5565b905060018060a01b0383166020830152949350505050565b60006020828403121561286957600080fd5b8151801515811461228057600080fd5b602081526000611a446020830184866127f5565b60006020828403121561289f57600080fd5b8151612280816124d1565b6040815260006128bd604083018661244e565b828103602084015261235a8185876127f5565b6000602082840312156128e257600080fd5b5051919050565b634e487b7160e01b600052601160045260246000fd5b6000600019821415612913576129136128e9565b5060010190565b634e487b7160e01b600052603260045260246000fd5b6020808252818101527f4f776e61626c653a2063616c6c6572206973206e6f7420746865206f776e6572604082015260600190565b600082821015612977576129776128e9565b500390565b6000821982111561298f5761298f6128e9565b500190565b634e487b7160e01b600052601260045260246000fd5b6000826129c757634e487b7160e01b600052601260045260246000fd5b500690565b6000808335601e198436030181126129e357600080fd5b83018035915067ffffffffffffffff8211156129fe57600080fd5b6020019150368190038213156123e257600080fd5b60008251612a2581846020870161266f565b9190910192915050565b602081526000612280602083018461269f56fe416464726573733a206c6f772d6c6576656c2064656c65676174652063616c6c206661696c6564a2646970667358221220101698b413f9fa782f9abc83f55293eacb26c046d288d9824e67f79b9056616564736f6c63430008090033",
  "linkReferences": {},
  "deployedLinkReferences": {}
}