{
  "_format": "hh-sol-artifact-1",
  "contractName": "LobbyManager",
  "sourceName": "contracts/game/LobbyManager.sol",
  "abi": [
    {
      "inputs": [],
      "stateMutability": "nonpayable",
      "type": "constructor"
    },
    {
      "anonymous": false,
      "inputs": [
        {
          "indexed": true,
          "internalType": "uint256",
          "name": "lobbyId",
          "type": "uint256"
        },
        {
          "indexed": true,
          "internalType": "address",
          "name": "host",
          "type": "address"
        },
        {
          "indexed": true,
          "internalType": "address",
          "name": "client",
          "type": "address"
        }
      ],
      "name": "BattleFinished",
      "type": "event"
    },
    {
      "anonymous": false,
      "inputs": [
        {
          "indexed": true,
          "internalType": "address",
          "name": "previousOwner",
          "type": "address"
        },
        {
          "indexed": true,
          "internalType": "address",
          "name": "newOwner",
          "type": "address"
        }
      ],
      "name": "OwnershipTransferred",
      "type": "event"
    },
    {
      "inputs": [
        {
          "internalType": "uint256",
          "name": "",
          "type": "uint256"
        }
      ],
      "name": "battles",
      "outputs": [
        {
          "internalType": "contract IVersusBattle",
          "name": "",
          "type": "address"
        }
      ],
      "stateMutability": "view",
      "type": "function"
    },
    {
      "inputs": [],
      "name": "benefitMultiplier",
      "outputs": [
        {
          "internalType": "uint256",
          "name": "",
          "type": "uint256"
        }
      ],
      "stateMutability": "view",
      "type": "function"
    },
    {
      "inputs": [
        {
          "internalType": "bytes32",
          "name": "name",
          "type": "bytes32"
        },
        {
          "internalType": "bytes32",
          "name": "avatar",
          "type": "bytes32"
        },
        {
          "internalType": "uint256",
          "name": "capacity",
          "type": "uint256"
        },
        {
          "internalType": "uint256[]",
          "name": "heroIds",
          "type": "uint256[]"
        }
      ],
      "name": "createLobby",
      "outputs": [],
      "stateMutability": "nonpayable",
      "type": "function"
    },
    {
      "inputs": [
        {
          "internalType": "uint256[]",
          "name": "heroes",
          "type": "uint256[]"
        }
      ],
      "name": "getHeroesPower",
      "outputs": [
        {
          "internalType": "uint256",
          "name": "",
          "type": "uint256"
        }
      ],
      "stateMutability": "view",
      "type": "function"
    },
    {
      "inputs": [
        {
          "internalType": "uint256",
          "name": "lobbyId",
          "type": "uint256"
        },
        {
          "internalType": "address",
          "name": "player",
          "type": "address"
        }
      ],
      "name": "getPlayerHeroesOnLobby",
      "outputs": [
        {
          "internalType": "uint256[]",
          "name": "",
          "type": "uint256[]"
        }
      ],
      "stateMutability": "view",
      "type": "function"
    },
    {
      "inputs": [],
      "name": "heroManager",
      "outputs": [
        {
          "internalType": "contract IHeroManager",
          "name": "",
          "type": "address"
        }
      ],
      "stateMutability": "view",
      "type": "function"
    },
    {
      "inputs": [
        {
          "internalType": "uint256",
          "name": "lobbyId",
          "type": "uint256"
        },
        {
          "internalType": "uint256[]",
          "name": "heroIds",
          "type": "uint256[]"
        }
      ],
      "name": "joinLobby",
      "outputs": [],
      "stateMutability": "nonpayable",
      "type": "function"
    },
    {
      "inputs": [
        {
          "internalType": "uint256",
          "name": "",
          "type": "uint256"
        }
      ],
      "name": "lobbies",
      "outputs": [
        {
          "internalType": "bytes32",
          "name": "name",
          "type": "bytes32"
        },
        {
          "internalType": "bytes32",
          "name": "avatar",
          "type": "bytes32"
        },
        {
          "internalType": "address",
          "name": "host",
          "type": "address"
        },
        {
          "internalType": "address",
          "name": "client",
          "type": "address"
        },
        {
          "internalType": "uint256",
          "name": "id",
          "type": "uint256"
        },
        {
          "internalType": "uint256",
          "name": "capacity",
          "type": "uint256"
        },
        {
          "internalType": "uint256",
          "name": "startedAt",
          "type": "uint256"
        },
        {
          "internalType": "uint256",
          "name": "finishedAt",
          "type": "uint256"
        },
        {
          "internalType": "uint256",
          "name": "winner",
          "type": "uint256"
        },
        {
          "internalType": "uint256",
          "name": "fee",
          "type": "uint256"
        },
        {
          "internalType": "uint256",
          "name": "rewards",
          "type": "uint256"
        }
      ],
      "stateMutability": "view",
      "type": "function"
    },
    {
      "inputs": [
        {
          "internalType": "uint256",
          "name": "",
          "type": "uint256"
        }
      ],
      "name": "lobbyFees",
      "outputs": [
        {
          "internalType": "uint256",
          "name": "",
          "type": "uint256"
        }
      ],
      "stateMutability": "view",
      "type": "function"
    },
    {
      "inputs": [
        {
          "internalType": "uint256",
          "name": "",
          "type": "uint256"
        },
        {
          "internalType": "address",
          "name": "",
          "type": "address"
        },
        {
          "internalType": "uint256",
          "name": "",
          "type": "uint256"
        }
      ],
      "name": "lobbyHeroes",
      "outputs": [
        {
          "internalType": "uint256",
          "name": "",
          "type": "uint256"
        }
      ],
      "stateMutability": "view",
      "type": "function"
    },
    {
      "inputs": [
        {
          "internalType": "bytes[]",
          "name": "data",
          "type": "bytes[]"
        }
      ],
      "name": "multicall",
      "outputs": [
        {
          "internalType": "bytes[]",
          "name": "results",
          "type": "bytes[]"
        }
      ],
      "stateMutability": "nonpayable",
      "type": "function"
    },
    {
      "inputs": [],
      "name": "owner",
      "outputs": [
        {
          "internalType": "address",
          "name": "",
          "type": "address"
        }
      ],
      "stateMutability": "view",
      "type": "function"
    },
    {
      "inputs": [
        {
          "internalType": "address",
          "name": "",
          "type": "address"
        }
      ],
      "name": "playersFees",
      "outputs": [
        {
          "internalType": "uint256",
          "name": "",
          "type": "uint256"
        }
      ],
      "stateMutability": "view",
      "type": "function"
    },
    {
      "inputs": [
        {
          "internalType": "address",
          "name": "",
          "type": "address"
        }
      ],
      "name": "playersRewards",
      "outputs": [
        {
          "internalType": "uint256",
          "name": "",
          "type": "uint256"
        }
      ],
      "stateMutability": "view",
      "type": "function"
    },
    {
      "inputs": [
        {
          "internalType": "uint256",
          "name": "",
          "type": "uint256"
        },
        {
          "internalType": "address",
          "name": "",
          "type": "address"
        }
      ],
      "name": "powerHistory",
      "outputs": [
        {
          "internalType": "uint256",
          "name": "",
          "type": "uint256"
        }
      ],
      "stateMutability": "view",
      "type": "function"
    },
    {
      "inputs": [
        {
          "internalType": "address",
          "name": "",
          "type": "address"
        }
      ],
      "name": "registeredPlayers",
      "outputs": [
        {
          "internalType": "bool",
          "name": "",
          "type": "bool"
        }
      ],
      "stateMutability": "view",
      "type": "function"
    },
    {
      "inputs": [],
      "name": "renounceOwnership",
      "outputs": [],
      "stateMutability": "nonpayable",
      "type": "function"
    },
    {
      "inputs": [
        {
          "internalType": "uint256",
          "name": "capacity",
          "type": "uint256"
        },
        {
          "internalType": "address",
          "name": "battleAddress",
          "type": "address"
        }
      ],
      "name": "setBattleAddress",
      "outputs": [],
      "stateMutability": "nonpayable",
      "type": "function"
    },
    {
      "inputs": [
        {
          "internalType": "uint256",
          "name": "multiplier",
          "type": "uint256"
        }
      ],
      "name": "setBenefitMultiplier",
      "outputs": [],
      "stateMutability": "nonpayable",
      "type": "function"
    },
    {
      "inputs": [
        {
          "internalType": "address",
          "name": "hmAddr",
          "type": "address"
        }
      ],
      "name": "setHeroManager",
      "outputs": [],
      "stateMutability": "nonpayable",
      "type": "function"
    },
    {
      "inputs": [
        {
          "internalType": "uint256",
          "name": "capacity",
          "type": "uint256"
        },
        {
          "internalType": "uint256",
          "name": "fee",
          "type": "uint256"
        }
      ],
      "name": "setLobbyFee",
      "outputs": [],
      "stateMutability": "nonpayable",
      "type": "function"
    },
    {
      "inputs": [],
      "name": "totalLobbies",
      "outputs": [
        {
          "internalType": "uint256",
          "name": "",
          "type": "uint256"
        }
      ],
      "stateMutability": "view",
      "type": "function"
    },
    {
      "inputs": [],
      "name": "totalPlayers",
      "outputs": [
        {
          "internalType": "uint256",
          "name": "",
          "type": "uint256"
        }
      ],
      "stateMutability": "view",
      "type": "function"
    },
    {
      "inputs": [
        {
          "internalType": "address",
          "name": "newOwner",
          "type": "address"
        }
      ],
      "name": "transferOwnership",
      "outputs": [],
      "stateMutability": "nonpayable",
      "type": "function"
    },
    {
      "inputs": [
        {
          "internalType": "uint256",
          "name": "",
          "type": "uint256"
        }
      ],
      "name": "uniquePlayers",
      "outputs": [
        {
          "internalType": "address",
          "name": "",
          "type": "address"
        }
      ],
      "stateMutability": "view",
      "type": "function"
    }
  ],
  "bytecode": "0x608060405260fa60035534801561001557600080fd5b5061001f336100b5565b600b60205269010f0cf064dd592000007f72c6bfb7988af3a1efa6568f02a999bc52252641c659d85961ca3d372b57d5cf5569054b40b1f852bda000007f64c15cc42be7899b001f818cf4433057002112c418d1d3a67cd5cb453051d33e556005600052690a968163f0a57b4000007febae6141bae5521e99e0a8d610356b0f501fea54980b59c84841db43ba7204f455610105565b600080546001600160a01b038381166001600160a01b0319831681178455604051919092169283917f8be0079c531659141344cd1fd0a4f28419497f9722a3daafe3b4186f6b6457e09190a35050565b6121f7806101146000396000f3fe608060405234801561001057600080fd5b50600436106101725760003560e01c80638da5cb5b116100de578063b9f2d52011610097578063da596bb511610071578063da596bb5146104a0578063ed697f32146104a9578063f2fde38b146104bc578063f60cdcf6146104cf57600080fd5b8063b9f2d52014610435578063c7f790bb14610455578063c8f942701461048057600080fd5b80638da5cb5b1461039f578063930613fc146103b057806394f69662146103d9578063965d3dc9146103ec578063ac9650d8146103f5578063b97dcb221461041557600080fd5b806357d15a8b1161013057806357d15a8b14610254578063606d2e96146102675780636bd2dc85146102905780636e8fb4c6146102b0578063715018a614610384578063833588cc1461038c57600080fd5b8062c8bd7e1461017757806316fc989c1461018c57806328b11d23146101d0578063378cc347146101e35780633b8a7a13146101f65780634bafce2214610221575b600080fd5b61018a610185366004611bfa565b6104d8565b005b6101bd61019a366004611c5b565b600960209081526000938452604080852082529284528284209052825290205481565b6040519081526020015b60405180910390f35b61018a6101de366004611c93565b610ceb565b61018a6101f1366004611cac565b610d1a565b600254610209906001600160a01b031681565b6040516001600160a01b0390911681526020016101c7565b61024461022f366004611cac565b60066020526000908152604090205460ff1681565b60405190151581526020016101c7565b61018a610262366004611cc9565b610d66565b610209610275366004611c93565b600c602052600090815260409020546001600160a01b031681565b6101bd61029e366004611cac565b60086020526000908152604090205481565b6103256102be366004611c93565b600a60208190526000918252604090912080546001820154600283015460038401546004850154600586015460068701546007880154600889015460098a015499909a0154979996986001600160a01b03968716989590961696939592949193909290918b565b604080519b8c5260208c019a909a526001600160a01b03988916998b0199909952969095166060890152608088019390935260a087019190915260c086015260e0850152610100840152610120830152610140820152610160016101c7565b61018a610dbe565b61018a61039a366004611cf9565b610df4565b6000546001600160a01b0316610209565b6102096103be366004611c93565b6005602052600090815260409020546001600160a01b031681565b61018a6103e7366004611d1b565b610e30565b6101bd60015481565b610408610403366004611d7c565b611448565b6040516101c79190611e1a565b610428610423366004611cc9565b61153d565b6040516101c79190611eb7565b6101bd610443366004611c93565b600b6020526000908152604090205481565b6101bd610463366004611cc9565b600d60209081526000928352604080842090915290825290205481565b6101bd61048e366004611cac565b60076020526000908152604090205481565b6101bd60035481565b6101bd6104b7366004611ee0565b611631565b61018a6104ca366004611cac565b6116f0565b6101bd60045481565b6000838152600a60205260409081902060028082015460059092015490549251630152368f60e01b815233936001600160a01b03938416931690630152368f9061052a90889088908890600401611fd4565b60206040518083038186803b15801561054257600080fd5b505afa158015610556573d6000803e3d6000fd5b505050506040513d601f19601f8201168201806040525081019061057a9190612000565b5060025460405163b7601a1560e01b81526001600160a01b039091169063b7601a15906105ad9088908890600401612022565b60206040518083038186803b1580156105c557600080fd5b505afa1580156105d9573d6000803e3d6000fd5b505050506040513d601f19601f820116820180604052508101906105fd9190612000565b506000868152600a6020526040902060040154861461066d5760405162461bcd60e51b815260206004820152602160248201527f4c6f6262794d616e616765723a206c6f62627920646f65736e277420657869736044820152601d60fa1b60648201526084015b60405180910390fd5b8084146106bc5760405162461bcd60e51b815260206004820152601a60248201527f4c6f6262794d616e616765723a2077726f6e67206865726f65730000000000006044820152606401610664565b6000868152600a60205260409020600701541561071b5760405162461bcd60e51b815260206004820152601e60248201527f4c6f6262794d616e616765723a20616c72656164792066696e697368656400006044820152606401610664565b60025460408051637e062a3560e11b815290516000926001600160a01b03169163fc0c546a916004808301926020929190829003018186803b15801561076057600080fd5b505afa158015610774573d6000803e3d6000fd5b505050506040513d601f19601f82011682018060405250810190610798919061203e565b90506000600b6000848152602001908152602001600020549050816001600160a01b03166323b872dd86600260009054906101000a90046001600160a01b03166001600160a01b03166311ce406d6040518163ffffffff1660e01b815260040160206040518083038186803b15801561081057600080fd5b505afa158015610824573d6000803e3d6000fd5b505050506040513d601f19601f82011682018060405250810190610848919061203e565b6040516001600160e01b031960e085901b1681526001600160a01b0392831660048201529116602482015260448101849052606401602060405180830381600087803b15801561089757600080fd5b505af11580156108ab573d6000803e3d6000fd5b505050506040513d601f19601f820116820180604052508101906108cf9190612000565b61091b5760405162461bcd60e51b815260206004820152601c60248201527f4c6f6262794d616e616765723a206e6f7420656e6f75676820666565000000006044820152606401610664565b6109248561178b565b6001600160a01b03851660008181526007602081815260408084208054870190558c8452600a90915282206003810180546001600160a01b03191690941790935542920191909155610976898661153d565b905061098181611631565b60008a8152600d602090815260408083206001600160a01b038a16845282529182902092909255805189830281810184019092528981526109df9290918b918b91829185019084908082843760009201919091525061163192505050565b60008a8152600d602090815260408083206001600160a01b038b168452909152812091909155600354610a159084026064611800565b60008b8152600a60208181526040808420909201849055888352600c90528082205490516348e8c1d360e01b81529293506001600160a01b03169182906348e8c1d390610a6a9087908f908f9060040161205b565b60206040518083038186803b158015610a8257600080fd5b505afa158015610a96573d6000803e3d6000fd5b505050506040513d601f19601f82011682018060405250810190610aba9190612081565b905080600a60008e815260200190815260200160002060080181905550610b258c82868e8e80806020026020016040519081016040528093929190818152602001838360200280828437600081840152601f19601f820116905080830192505050505050508d611819565b600081600114610b355789610b37565b885b9050866001600160a01b03166323b872dd600260009054906101000a90046001600160a01b03166001600160a01b03166311ce406d6040518163ffffffff1660e01b815260040160206040518083038186803b158015610b9657600080fd5b505afa158015610baa573d6000803e3d6000fd5b505050506040513d601f19601f82011682018060405250810190610bce919061203e565b6040516001600160e01b031960e084901b1681526001600160a01b039182166004820152908416602482015260448101879052606401602060405180830381600087803b158015610c1e57600080fd5b505af1158015610c32573d6000803e3d6000fd5b505050506040513d601f19601f82011682018060405250810190610c569190612000565b506001600160a01b038116600090815260086020526040902054840160086000836001600160a01b03166001600160a01b0316815260200190815260200160002081905550896001600160a01b0316896001600160a01b03168e7fc77dc6cd4b51c8efc4af40a582ca4cf229fda505a830b4486b200ddcbdb1383f60405160405180910390a450505050505050505050505050565b6000546001600160a01b03163314610d155760405162461bcd60e51b81526004016106649061209a565b600355565b6000546001600160a01b03163314610d445760405162461bcd60e51b81526004016106649061209a565b600280546001600160a01b0319166001600160a01b0392909216919091179055565b6000546001600160a01b03163314610d905760405162461bcd60e51b81526004016106649061209a565b6000918252600c602052604090912080546001600160a01b0319166001600160a01b03909216919091179055565b6000546001600160a01b03163314610de85760405162461bcd60e51b81526004016106649061209a565b610df26000611a1c565b565b6000546001600160a01b03163314610e1e5760405162461bcd60e51b81526004016106649061209a565b6000918252600b602052604090912055565b6000838152600b602052604090819020546002549151630152368f60e01b815233926001600160a01b031690630152368f90610e7490879087908790600401611fd4565b60206040518083038186803b158015610e8c57600080fd5b505afa158015610ea0573d6000803e3d6000fd5b505050506040513d601f19601f82011682018060405250810190610ec49190612000565b5060025460405163b7601a1560e01b81526001600160a01b039091169063b7601a1590610ef79087908790600401612022565b60206040518083038186803b158015610f0f57600080fd5b505afa158015610f23573d6000803e3d6000fd5b505050506040513d601f19601f82011682018060405250810190610f479190612000565b5060025460408051637e062a3560e11b815290516000926001600160a01b03169163fc0c546a916004808301926020929190829003018186803b158015610f8d57600080fd5b505afa158015610fa1573d6000803e3d6000fd5b505050506040513d601f19601f82011682018060405250810190610fc5919061203e565b90508584146110165760405162461bcd60e51b815260206004820152601e60248201527f4c6f6262794d616e616765723a2077726f6e6720706172616d657465727300006044820152606401610664565b600082116110715760405162461bcd60e51b815260206004820152602260248201527f4c6f6262794d616e616765723a2077726f6e67206c6f62627920636170616369604482015261747960f01b6064820152608401610664565b806001600160a01b03166323b872dd84600260009054906101000a90046001600160a01b03166001600160a01b03166311ce406d6040518163ffffffff1660e01b815260040160206040518083038186803b1580156110cf57600080fd5b505afa1580156110e3573d6000803e3d6000fd5b505050506040513d601f19601f82011682018060405250810190611107919061203e565b6040516001600160e01b031960e085901b1681526001600160a01b0392831660048201529116602482015260448101859052606401602060405180830381600087803b15801561115657600080fd5b505af115801561116a573d6000803e3d6000fd5b505050506040513d601f19601f8201168201806040525081019061118e9190612000565b6111da5760405162461bcd60e51b815260206004820152601c60248201527f4c6f6262794d616e616765723a206e6f7420656e6f75676820666565000000006044820152606401610664565b6111e38361178b565b6001600160a01b03831660009081526007602052604090205482016001600160a01b038416600090815260076020526040812091909155600180540190508060018190555060006040518061016001604052808b81526020018a8152602001866001600160a01b0316815260200160006001600160a01b0316815260200183815260200189815260200142815260200160008152602001600081526020018581526020016000815250905080600a6000848152602001908152602001600020600082015181600001556020820151816001015560408201518160020160006101000a8154816001600160a01b0302191690836001600160a01b0316021790555060608201518160030160006101000a8154816001600160a01b0302191690836001600160a01b031602179055506080820151816004015560a0820151816005015560c0820151816006015560e082015181600701556101008201518160080155610120820151816009015561014082015181600a015590505060005b8681101561143b57878782818110611379576113796120cf565b60008681526009602090815260408083206001600160a01b03808e168552908352818420888552835292209202939093013590555060025416634239ca308989848181106113c9576113c96120cf565b905060200201356040518263ffffffff1660e01b81526004016113ee91815260200190565b600060405180830381600087803b15801561140857600080fd5b505af115801561141c573d6000803e3d6000fd5b505050506114346001826117fc90919063ffffffff16565b905061135f565b5050505050505050505050565b60608167ffffffffffffffff81111561146357611463611eca565b60405190808252806020026020018201604052801561149657816020015b60608152602001906001900390816114815790505b50905060005b8281101561153657611506308585848181106114ba576114ba6120cf565b90506020028101906114cc91906120e5565b8080601f016020809104026020016040519081016040528093929190818152602001838380828437600092019190915250611a6c92505050565b828281518110611518576115186120cf565b6020026020010181905250808061152e9061212c565b91505061149c565b5092915050565b606060005b60008481526009602090815260408083206001600160a01b0387168452825280832084845290915290205415611584578061157c8161212c565b915050611542565b60008167ffffffffffffffff81111561159f5761159f611eca565b6040519080825280602002602001820160405280156115c8578160200160208202803683370190505b50905060005b828110156116285760008681526009602090815260408083206001600160a01b038916845282528083208484529091529020548251839083908110611615576116156120cf565b60209081029190910101526001016115ce565b50949350505050565b60008060005b83518110156115365760025484516116e6916001600160a01b03169063d5c1ed8a9087908590811061166b5761166b6120cf565b60200260200101516040518263ffffffff1660e01b815260040161169191815260200190565b60206040518083038186803b1580156116a957600080fd5b505afa1580156116bd573d6000803e3d6000fd5b505050506040513d601f19601f820116820180604052508101906116e19190612081565b830190565b9150600101611637565b6000546001600160a01b0316331461171a5760405162461bcd60e51b81526004016106649061209a565b6001600160a01b03811661177f5760405162461bcd60e51b815260206004820152602660248201527f4f776e61626c653a206e6577206f776e657220697320746865207a65726f206160448201526564647265737360d01b6064820152608401610664565b61178881611a1c565b50565b6001600160a01b03811660009081526006602052604090205460ff166117885760048054600090815260056020908152604080832080546001600160a01b0319166001600160a01b038716908117909155835260069091529020805460ff1916600190811790915590540160045550565b0190565b600081838161181157611811612155565b049392505050565b60005b8351811015611a145760025484516001600160a01b039091169063b0a04efa9086908490811061184e5761184e6120cf565b6020026020010151876001146040518363ffffffff1660e01b81526004016118829291909182521515602082015260400190565b600060405180830381600087803b15801561189c57600080fd5b505af11580156118b0573d6000803e3d6000fd5b505060025485516001600160a01b03909116925063b0a04efa91508590849081106118dd576118dd6120cf565b6020026020010151876002146040518363ffffffff1660e01b81526004016119119291909182521515602082015260400190565b600060405180830381600087803b15801561192b57600080fd5b505af115801561193f573d6000803e3d6000fd5b505060025485516001600160a01b039091169250634239ca30915085908490811061196c5761196c6120cf565b60200260200101516040518263ffffffff1660e01b815260040161199291815260200190565b600060405180830381600087803b1580156119ac57600080fd5b505af11580156119c0573d6000803e3d6000fd5b505050508281815181106119d6576119d66120cf565b60209081029190910181015160008881526009835260408082206001600160a01b03871683528452808220858352909352919091205560010161181c565b505050505050565b600080546001600160a01b038381166001600160a01b0319831681178455604051919092169283917f8be0079c531659141344cd1fd0a4f28419497f9722a3daafe3b4186f6b6457e09190a35050565b6060611a91838360405180606001604052806027815260200161219b60279139611a98565b9392505050565b60606001600160a01b0384163b611b005760405162461bcd60e51b815260206004820152602660248201527f416464726573733a2064656c65676174652063616c6c20746f206e6f6e2d636f6044820152651b9d1c9858dd60d21b6064820152608401610664565b600080856001600160a01b031685604051611b1b919061216b565b600060405180830381855af49150503d8060008114611b56576040519150601f19603f3d011682016040523d82523d6000602084013e611b5b565b606091505b5091509150611b6b828286611b75565b9695505050505050565b60608315611b84575081611a91565b825115611b945782518084602001fd5b8160405162461bcd60e51b81526004016106649190612187565b60008083601f840112611bc057600080fd5b50813567ffffffffffffffff811115611bd857600080fd5b6020830191508360208260051b8501011115611bf357600080fd5b9250929050565b600080600060408486031215611c0f57600080fd5b83359250602084013567ffffffffffffffff811115611c2d57600080fd5b611c3986828701611bae565b9497909650939450505050565b6001600160a01b038116811461178857600080fd5b600080600060608486031215611c7057600080fd5b833592506020840135611c8281611c46565b929592945050506040919091013590565b600060208284031215611ca557600080fd5b5035919050565b600060208284031215611cbe57600080fd5b8135611a9181611c46565b60008060408385031215611cdc57600080fd5b823591506020830135611cee81611c46565b809150509250929050565b60008060408385031215611d0c57600080fd5b50508035926020909101359150565b600080600080600060808688031215611d3357600080fd5b853594506020860135935060408601359250606086013567ffffffffffffffff811115611d5f57600080fd5b611d6b88828901611bae565b969995985093965092949392505050565b60008060208385031215611d8f57600080fd5b823567ffffffffffffffff811115611da657600080fd5b611db285828601611bae565b90969095509350505050565b60005b83811015611dd9578181015183820152602001611dc1565b83811115611de8576000848401525b50505050565b60008151808452611e06816020860160208601611dbe565b601f01601f19169290920160200192915050565b6000602080830181845280855180835260408601915060408160051b870101925083870160005b82811015611e6f57603f19888603018452611e5d858351611dee565b94509285019290850190600101611e41565b5092979650505050505050565b600081518084526020808501945080840160005b83811015611eac57815187529582019590820190600101611e90565b509495945050505050565b602081526000611a916020830184611e7c565b634e487b7160e01b600052604160045260246000fd5b60006020808385031215611ef357600080fd5b823567ffffffffffffffff80821115611f0b57600080fd5b818501915085601f830112611f1f57600080fd5b813581811115611f3157611f31611eca565b8060051b604051601f19603f83011681018181108582111715611f5657611f56611eca565b604052918252848201925083810185019188831115611f7457600080fd5b938501935b82851015611f9257843584529385019392850192611f79565b98975050505050505050565b81835260006001600160fb1b03831115611fb757600080fd5b8260051b8083602087013760009401602001938452509192915050565b604081526000611fe8604083018587611f9e565b905060018060a01b0383166020830152949350505050565b60006020828403121561201257600080fd5b81518015158114611a9157600080fd5b602081526000612036602083018486611f9e565b949350505050565b60006020828403121561205057600080fd5b8151611a9181611c46565b60408152600061206e6040830186611e7c565b8281036020840152611b6b818587611f9e565b60006020828403121561209357600080fd5b5051919050565b6020808252818101527f4f776e61626c653a2063616c6c6572206973206e6f7420746865206f776e6572604082015260600190565b634e487b7160e01b600052603260045260246000fd5b6000808335601e198436030181126120fc57600080fd5b83018035915067ffffffffffffffff82111561211757600080fd5b602001915036819003821315611bf357600080fd5b600060001982141561214e57634e487b7160e01b600052601160045260246000fd5b5060010190565b634e487b7160e01b600052601260045260246000fd5b6000825161217d818460208701611dbe565b9190910192915050565b602081526000611a916020830184611dee56fe416464726573733a206c6f772d6c6576656c2064656c65676174652063616c6c206661696c6564a264697066735822122010e88cd946f7583dcc99e059a2b4a83a9bda2f89795b8236e8c75e1f6e13448864736f6c63430008090033",
  "linkReferences": {},
  "deployedLinkReferences": {}
}