{
  "_format": "hh-sol-artifact-1",
  "contractName": "LobbyBattle",
  "sourceName": "contracts/game/LobbyBattle.sol",
  "abi": [
    {
      "inputs": [],
      "stateMutability": "nonpayable",
      "type": "constructor"
    },
    {
      "anonymous": false,
      "inputs": [
        {
          "indexed": true,
          "internalType": "address",
          "name": "previousOwner",
          "type": "address"
        },
        {
          "indexed": true,
          "internalType": "address",
          "name": "newOwner",
          "type": "address"
        }
      ],
      "name": "OwnershipTransferred",
      "type": "event"
    },
    {
      "inputs": [],
      "name": "bonusExp",
      "outputs": [
        {
          "internalType": "uint256",
          "name": "",
          "type": "uint256"
        }
      ],
      "stateMutability": "view",
      "type": "function"
    },
    {
      "inputs": [
        {
          "internalType": "uint256",
          "name": "capacity",
          "type": "uint256"
        },
        {
          "internalType": "bytes32",
          "name": "name",
          "type": "bytes32"
        },
        {
          "internalType": "bytes32",
          "name": "avatar",
          "type": "bytes32"
        },
        {
          "internalType": "uint256[]",
          "name": "heroIds",
          "type": "uint256[]"
        }
      ],
      "name": "createLobby",
      "outputs": [],
      "stateMutability": "nonpayable",
      "type": "function"
    },
    {
      "inputs": [
        {
          "internalType": "address",
          "name": "myAddr",
          "type": "address"
        }
      ],
      "name": "getActiveLobbies",
      "outputs": [
        {
          "internalType": "uint256[]",
          "name": "",
          "type": "uint256[]"
        }
      ],
      "stateMutability": "view",
      "type": "function"
    },
    {
      "inputs": [],
      "name": "getAllHistory",
      "outputs": [
        {
          "internalType": "uint256[]",
          "name": "",
          "type": "uint256[]"
        }
      ],
      "stateMutability": "view",
      "type": "function"
    },
    {
      "inputs": [
        {
          "internalType": "address",
          "name": "myAddr",
          "type": "address"
        }
      ],
      "name": "getMyHistory",
      "outputs": [
        {
          "internalType": "uint256[]",
          "name": "",
          "type": "uint256[]"
        }
      ],
      "stateMutability": "view",
      "type": "function"
    },
    {
      "inputs": [
        {
          "internalType": "address",
          "name": "myAddr",
          "type": "address"
        }
      ],
      "name": "getMyLobbies",
      "outputs": [
        {
          "internalType": "uint256[]",
          "name": "",
          "type": "uint256[]"
        }
      ],
      "stateMutability": "view",
      "type": "function"
    },
    {
      "inputs": [
        {
          "internalType": "uint256",
          "name": "heroId",
          "type": "uint256"
        }
      ],
      "name": "heroBonusExp",
      "outputs": [
        {
          "internalType": "uint256",
          "name": "",
          "type": "uint256"
        }
      ],
      "stateMutability": "view",
      "type": "function"
    },
    {
      "inputs": [],
      "name": "heroManager",
      "outputs": [
        {
          "internalType": "contract IHeroManager",
          "name": "",
          "type": "address"
        }
      ],
      "stateMutability": "view",
      "type": "function"
    },
    {
      "inputs": [
        {
          "internalType": "uint256",
          "name": "lobbyId",
          "type": "uint256"
        },
        {
          "internalType": "uint256[]",
          "name": "heroIds",
          "type": "uint256[]"
        }
      ],
      "name": "joinLobby",
      "outputs": [],
      "stateMutability": "nonpayable",
      "type": "function"
    },
    {
      "inputs": [
        {
          "internalType": "uint256",
          "name": "",
          "type": "uint256"
        }
      ],
      "name": "lobbies",
      "outputs": [
        {
          "internalType": "bytes32",
          "name": "name",
          "type": "bytes32"
        },
        {
          "internalType": "bytes32",
          "name": "avatar",
          "type": "bytes32"
        },
        {
          "internalType": "address",
          "name": "host",
          "type": "address"
        },
        {
          "internalType": "address",
          "name": "client",
          "type": "address"
        },
        {
          "internalType": "uint256",
          "name": "id",
          "type": "uint256"
        },
        {
          "internalType": "uint256",
          "name": "capacity",
          "type": "uint256"
        },
        {
          "internalType": "uint256",
          "name": "startedAt",
          "type": "uint256"
        },
        {
          "internalType": "uint256",
          "name": "finishedAt",
          "type": "uint256"
        },
        {
          "internalType": "uint256",
          "name": "winner",
          "type": "uint256"
        },
        {
          "internalType": "uint256",
          "name": "fee",
          "type": "uint256"
        },
        {
          "internalType": "uint256",
          "name": "rewards",
          "type": "uint256"
        }
      ],
      "stateMutability": "view",
      "type": "function"
    },
    {
      "inputs": [
        {
          "internalType": "uint256",
          "name": "",
          "type": "uint256"
        },
        {
          "internalType": "address",
          "name": "",
          "type": "address"
        }
      ],
      "name": "lobbiesRefreshed",
      "outputs": [
        {
          "internalType": "uint256",
          "name": "updatedAt",
          "type": "uint256"
        },
        {
          "internalType": "uint256",
          "name": "limit",
          "type": "uint256"
        }
      ],
      "stateMutability": "view",
      "type": "function"
    },
    {
      "inputs": [
        {
          "internalType": "uint256",
          "name": "",
          "type": "uint256"
        }
      ],
      "name": "lobbyFees",
      "outputs": [
        {
          "internalType": "uint256",
          "name": "",
          "type": "uint256"
        }
      ],
      "stateMutability": "view",
      "type": "function"
    },
    {
      "inputs": [
        {
          "internalType": "bytes[]",
          "name": "data",
          "type": "bytes[]"
        }
      ],
      "name": "multicall",
      "outputs": [
        {
          "internalType": "bytes[]",
          "name": "results",
          "type": "bytes[]"
        }
      ],
      "stateMutability": "nonpayable",
      "type": "function"
    },
    {
      "inputs": [],
      "name": "nft",
      "outputs": [
        {
          "internalType": "contract IERC721",
          "name": "",
          "type": "address"
        }
      ],
      "stateMutability": "view",
      "type": "function"
    },
    {
      "inputs": [],
      "name": "owner",
      "outputs": [
        {
          "internalType": "address",
          "name": "",
          "type": "address"
        }
      ],
      "stateMutability": "view",
      "type": "function"
    },
    {
      "inputs": [
        {
          "internalType": "uint256",
          "name": "min",
          "type": "uint256"
        },
        {
          "internalType": "uint256",
          "name": "max",
          "type": "uint256"
        }
      ],
      "name": "random",
      "outputs": [
        {
          "internalType": "uint256",
          "name": "",
          "type": "uint256"
        }
      ],
      "stateMutability": "view",
      "type": "function"
    },
    {
      "inputs": [],
      "name": "renounceOwnership",
      "outputs": [],
      "stateMutability": "nonpayable",
      "type": "function"
    },
    {
      "inputs": [],
      "name": "rewardsPayeer",
      "outputs": [
        {
          "internalType": "address",
          "name": "",
          "type": "address"
        }
      ],
      "stateMutability": "view",
      "type": "function"
    },
    {
      "inputs": [
        {
          "internalType": "uint256",
          "name": "value",
          "type": "uint256"
        }
      ],
      "name": "setBonusExp",
      "outputs": [],
      "stateMutability": "nonpayable",
      "type": "function"
    },
    {
      "inputs": [
        {
          "internalType": "address",
          "name": "hmAddr",
          "type": "address"
        }
      ],
      "name": "setHeroManager",
      "outputs": [],
      "stateMutability": "nonpayable",
      "type": "function"
    },
    {
      "inputs": [
        {
          "internalType": "uint256",
          "name": "capacity",
          "type": "uint256"
        },
        {
          "internalType": "uint256",
          "name": "fee",
          "type": "uint256"
        }
      ],
      "name": "setLobbyFee",
      "outputs": [],
      "stateMutability": "nonpayable",
      "type": "function"
    },
    {
      "inputs": [
        {
          "internalType": "address",
          "name": "payer",
          "type": "address"
        }
      ],
      "name": "setRewardsPayeer",
      "outputs": [],
      "stateMutability": "nonpayable",
      "type": "function"
    },
    {
      "inputs": [],
      "name": "token",
      "outputs": [
        {
          "internalType": "contract IERC20",
          "name": "",
          "type": "address"
        }
      ],
      "stateMutability": "view",
      "type": "function"
    },
    {
      "inputs": [
        {
          "internalType": "address",
          "name": "newOwner",
          "type": "address"
        }
      ],
      "name": "transferOwnership",
      "outputs": [],
      "stateMutability": "nonpayable",
      "type": "function"
    },
    {
      "inputs": [
        {
          "internalType": "uint256[]",
          "name": "heroIds",
          "type": "uint256[]"
        },
        {
          "internalType": "address",
          "name": "owner",
          "type": "address"
        }
      ],
      "name": "validateHeroIds",
      "outputs": [
        {
          "internalType": "bool",
          "name": "",
          "type": "bool"
        }
      ],
      "stateMutability": "view",
      "type": "function"
    },
    {
      "inputs": [
        {
          "internalType": "address payable",
          "name": "recipient",
          "type": "address"
        }
      ],
      "name": "withdrawDustETH",
      "outputs": [],
      "stateMutability": "nonpayable",
      "type": "function"
    },
    {
      "stateMutability": "payable",
      "type": "receive"
    }
  ],
  "bytecode": "0x6080604052600280546001600160a01b0319908116730c966628e4828958376a24ee66f5278a71c96aee179091556003805482167328ee3e2826264b9c55fcdd122dfa93680916c9b817905560048054821673ef5a8af5148a53a4ef4749595fe44e3e08754b8b17905560058054909116730cca7943409260455ceef6be46c69b3fc808e24f17905560fa600655601e60075534801561009e57600080fd5b506100a83361013e565b600960205269010f0cf064dd592000007f92e85d02570a8092d09a6e3a57665bc3815a2699a4074001bf1ccabf660f5a365569054b40b1f852bda000007fc575c31fea594a6eb97c8e9d3f9caee4c16218c6ef37e923234c0fe9014a61e7556005600052690a968163f0a57b4000007f74b05292d1d4b2b48b65261b07099d24244bcb069f138d9a6bfdcf776becac4c5561018e565b600080546001600160a01b038381166001600160a01b0319831681178455604051919092169283917f8be0079c531659141344cd1fd0a4f28419497f9722a3daafe3b4186f6b6457e09190a35050565b6125ad8061019d6000396000f3fe6080604052600436106101845760003560e01c806377cb47bf116100d1578063b8830f9f1161008a578063e4118fca11610064578063e4118fca14610587578063f2fde38b146105a7578063fc0c546a146105c7578063fc585034146105e757600080fd5b8063b8830f9f1461051a578063b9f2d5201461053a578063e393c2941461056757600080fd5b806377cb47bf14610417578063833588cc1461046b5780638da5cb5b1461048b578063a9dd1225146104a9578063ab405145146104d7578063ac9650d8146104ed57600080fd5b8063378cc3471161013e5780633c152291116101185780633c152291146102e157806347ccca02146103015780636e8fb4c614610321578063715018a61461040257600080fd5b8063378cc3471461028c57806339c5891a146102ac5780633b8a7a13146102c157600080fd5b8062c8bd7e146101905780630152368f146101b257806306d040d3146101e757806311ce406d146102075780633024438d1461023f578063370068aa1461026c57600080fd5b3661018b57005b600080fd5b34801561019c57600080fd5b506101b06101ab366004612033565b610607565b005b3480156101be57600080fd5b506101d26101cd366004612094565b610ce2565b60405190151581526020015b60405180910390f35b3480156101f357600080fd5b506101b06102023660046120eb565b610dff565b34801561021357600080fd5b50600554610227906001600160a01b031681565b6040516001600160a01b0390911681526020016101de565b34801561024b57600080fd5b5061025f61025a36600461214c565b611164565b6040516101de9190612169565b34801561027857600080fd5b5061025f61028736600461214c565b6111fc565b34801561029857600080fd5b506101b06102a736600461214c565b6112b1565b3480156102b857600080fd5b5061025f6112fd565b3480156102cd57600080fd5b50600254610227906001600160a01b031681565b3480156102ed57600080fd5b5061025f6102fc36600461214c565b61136a565b34801561030d57600080fd5b50600454610227906001600160a01b031681565b34801561032d57600080fd5b506103a361033c3660046121ad565b600a60208190526000918252604090912080546001820154600283015460038401546004850154600586015460068701546007880154600889015460098a015499909a0154979996986001600160a01b03968716989590961696939592949193909290918b565b604080519b8c5260208c019a909a526001600160a01b03988916998b0199909952969095166060890152608088019390935260a087019190915260c086015260e0850152610100840152610120830152610140820152610160016101de565b34801561040e57600080fd5b506101b06113f8565b34801561042357600080fd5b506104566104323660046121c6565b60086020908152600092835260408084209091529082529020805460019091015482565b604080519283526020830191909152016101de565b34801561047757600080fd5b506101b06104863660046121f6565b61142e565b34801561049757600080fd5b506000546001600160a01b0316610227565b3480156104b557600080fd5b506104c96104c43660046121f6565b61146a565b6040519081526020016101de565b3480156104e357600080fd5b506104c960075481565b3480156104f957600080fd5b5061050d610508366004612218565b6114f9565b6040516101de91906122b2565b34801561052657600080fd5b506101b06105353660046121ad565b6115ee565b34801561054657600080fd5b506104c96105553660046121ad565b60096020526000908152604090205481565b34801561057357600080fd5b506101b061058236600461214c565b61161d565b34801561059357600080fd5b506101b06105a236600461214c565b611680565b3480156105b357600080fd5b506101b06105c236600461214c565b6116cc565b3480156105d357600080fd5b50600354610227906001600160a01b031681565b3480156105f357600080fd5b506104c96106023660046121ad565b611767565b610612828233610ce2565b506000838152600a602052604090206004015483146106785760405162461bcd60e51b815260206004820181905260248201527f4c6f626279426174746c653a206c6f62627920646f65736e277420657869737460448201526064015b60405180910390fd5b6000838152600a602052604090206005015481146106d85760405162461bcd60e51b815260206004820152601960248201527f4c6f626279426174746c653a2077726f6e67206865726f657300000000000000604482015260640161066f565b6000838152600a6020526040902060070154156107375760405162461bcd60e51b815260206004820152601d60248201527f4c6f626279426174746c653a20616c72656164792066696e6973686564000000604482015260640161066f565b600354600580546000868152600a60209081526040808320909401548252600990528290205491516323b872dd60e01b81523360048201526001600160a01b0391821660248201526044810192909252909116906323b872dd90606401602060405180830381600087803b1580156107ae57600080fd5b505af11580156107c2573d6000803e3d6000fd5b505050506040513d601f19601f820116820180604052508101906107e69190612314565b6108325760405162461bcd60e51b815260206004820152601b60248201527f4c6f626279426174746c653a206e6f7420656e6f756768206665650000000000604482015260640161066f565b6000838152600a602052604090206003810180546001600160a01b031916331790554260078201556005015460011415610b72576000838152600a6020908152604091829020600b0180548351818402810184019094528084526108fe93928301828280156108c057602002820191906000526020600020905b8154815260200190600101908083116108ac575b50505050508383808060200260200160405190810160405280939291908181526020018383602002808284376000920191909152506117fc92505050565b6000848152600a6020526040902060080181905560011415610a4f576002546000848152600a60205260408120600b0180546001600160a01b039093169263b00475b5926109659183919061095557610955612336565b9060005260206000200154611767565b6040518363ffffffff1660e01b815260040161098292919061234c565b600060405180830381600087803b15801561099c57600080fd5b505af11580156109b0573d6000803e3d6000fd5b5050600280546000878152600a60205260408120600c0180546001600160a01b03909316955063b00475b5945092916109f191849161095557610955612336565b6109fb91906123c8565b6040518363ffffffff1660e01b8152600401610a1892919061234c565b600060405180830381600087803b158015610a3257600080fd5b505af1158015610a46573d6000803e3d6000fd5b50505050610b72565b600280546000858152600a60205260408120600b0180546001600160a01b039093169363b00475b59391929091610a8e91849161095557610955612336565b610a9891906123c8565b6040518363ffffffff1660e01b8152600401610ab592919061234c565b600060405180830381600087803b158015610acf57600080fd5b505af1158015610ae3573d6000803e3d6000fd5b50506002546000868152600a60205260408120600c0180546001600160a01b03909316945063b00475b5935091610b2291839161095557610955612336565b6040518363ffffffff1660e01b8152600401610b3f92919061234c565b600060405180830381600087803b158015610b5957600080fd5b505af1158015610b6d573d6000803e3d6000fd5b505050505b6000838152600a60205260409020610b8e90600c018383611f4c565b506006546000848152600a602090815260408083206005015483526009909152902054606491610bbd916123dc565b610bc791906123c8565b6000848152600a60208190526040909120908101919091556003546005546008909201546001600160a01b03918216926323b872dd921690600114610c26576000868152600a60205260409020600301546001600160a01b0316610c42565b6000868152600a60205260409020600201546001600160a01b03165b6000878152600a6020819052604091829020015490516001600160e01b031960e086901b1681526001600160a01b0393841660048201529290911660248301526044820152606401602060405180830381600087803b158015610ca457600080fd5b505af1158015610cb8573d6000803e3d6000fd5b505050506040513d601f19601f82011682018060405250810190610cdc9190612314565b50505050565b6000805b83811015610df2576004546001600160a01b038085169116636352211e878785818110610d1557610d15612336565b905060200201356040518263ffffffff1660e01b8152600401610d3a91815260200190565b60206040518083038186803b158015610d5257600080fd5b505afa158015610d66573d6000803e3d6000fd5b505050506040513d601f19601f82011682018060405250810190610d8a91906123fb565b6001600160a01b031614610de05760405162461bcd60e51b815260206004820152601b60248201527f4c6f626279426174746c653a206e6f74206865726f206f776e65720000000000604482015260640161066f565b80610dea81612418565b915050610ce6565b50600190505b9392505050565b610e0a828233610ce2565b50848114610e5a5760405162461bcd60e51b815260206004820152601d60248201527f4c6f626279426174746c653a2077726f6e6720706172616d6574657273000000604482015260640161066f565b600085815260096020526040902054610ebf5760405162461bcd60e51b815260206004820152602160248201527f4c6f626279426174746c653a2077726f6e67206c6f62627920636170616369746044820152607960f81b606482015260840161066f565b600354600554600087815260096020526040908190205490516323b872dd60e01b81523360048201526001600160a01b03928316602482015260448101919091529116906323b872dd90606401602060405180830381600087803b158015610f2657600080fd5b505af1158015610f3a573d6000803e3d6000fd5b505050506040513d601f19601f82011682018060405250810190610f5e9190612314565b610faa5760405162461bcd60e51b815260206004820152601b60248201527f4c6f626279426174746c653a206e6f7420656e6f756768206665650000000000604482015260640161066f565b6060610fba600180546001019055565b6000610fc560015490565b90506000604051806101a00160405280888152602001878152602001336001600160a01b0316815260200160006001600160a01b031681526020018381526020018981526020014281526020016000815260200160008152602001600960008b81526020019081526020016000205481526020016000815260200186868080602002602001604051908101604052809392919081815260200183836020028082843760009201829052509385525050506020918201869052848152600a80835260409182902084518155848401516001820155918401516002830180546001600160a01b039283166001600160a01b03199182161790915560608601516003850180549190931691161790556080840151600483015560a0840151600583015560c0840151600683015560e08401516007830155610100840151600883015561012084015160098301556101408401519082015561016083015180519394508493919261113a92600b85019290910190611f97565b50610180820151805161115791600c840191602090910190611f97565b5050505050505050505050565b606080600060015b60015481116111f3576000818152600a60205260409020600701541580156111b157506000818152600a60205260409020600201546001600160a01b03868116911614155b156111e1578083836111c281612418565b9450815181106111d4576111d4612336565b6020026020010181815250505b806111eb81612418565b91505061116c565b50909392505050565b606080600060015b60015481116111f3576000818152600a60205260409020600701541580159061126f57506000818152600a60205260409020600201546001600160a01b038681169116148061126f57506000818152600a60205260409020600301546001600160a01b038681169116145b1561129f5780838361128081612418565b94508151811061129257611292612336565b6020026020010181815250505b806112a981612418565b915050611204565b6000546001600160a01b031633146112db5760405162461bcd60e51b815260040161066f90612433565b600280546001600160a01b0319166001600160a01b0392909216919091179055565b606080600060015b6001548111611362576000818152600a6020526040902060070154156113505780838361133181612418565b94508151811061134357611343612336565b6020026020010181815250505b8061135a81612418565b915050611305565b509092915050565b606080600060015b60015481116111f3576000818152600a60205260409020600701541580156113b657506000818152600a60205260409020600201546001600160a01b038681169116145b156113e6578083836113c781612418565b9450815181106113d9576113d9612336565b6020026020010181815250505b806113f081612418565b915050611372565b6000546001600160a01b031633146114225760405162461bcd60e51b815260040161066f90612433565b61142c6000611dc6565b565b6000546001600160a01b031633146114585760405162461bcd60e51b815260040161066f90612433565b60009182526009602052604090912055565b60408051446020820152429181019190915233606090811b6bffffffffffffffffffffffff1916908201526074810183905260948101829052600090819060b40160408051601f1981840301815291905280516020909101209050836114d08185612468565b6114db90600161247f565b6114e59083612497565b6114ef919061247f565b9150505b92915050565b60608167ffffffffffffffff811115611514576115146124ab565b60405190808252806020026020018201604052801561154757816020015b60608152602001906001900390816115325790505b50905060005b828110156115e7576115b73085858481811061156b5761156b612336565b905060200281019061157d91906124c1565b8080601f016020809104026020016040519081016040528093929190818152602001838380828437600092019190915250611e1692505050565b8282815181106115c9576115c9612336565b602002602001018190525080806115df90612418565b91505061154d565b5092915050565b6000546001600160a01b031633146116185760405162461bcd60e51b815260040161066f90612433565b600755565b6000546001600160a01b031633146116475760405162461bcd60e51b815260040161066f90612433565b6040516001600160a01b038216904780156108fc02916000818181858888f1935050505015801561167c573d6000803e3d6000fd5b5050565b6000546001600160a01b031633146116aa5760405162461bcd60e51b815260040161066f90612433565b600580546001600160a01b0319166001600160a01b0392909216919091179055565b6000546001600160a01b031633146116f65760405162461bcd60e51b815260040161066f90612433565b6001600160a01b03811661175b5760405162461bcd60e51b815260206004820152602660248201527f4f776e61626c653a206e6577206f776e657220697320746865207a65726f206160448201526564647265737360d01b606482015260840161066f565b61176481611dc6565b50565b600254604051630a36d40b60e01b8152600481018390526000916001600160a01b031690630a36d40b9060240160206040518083038186803b1580156117ac57600080fd5b505afa1580156117c0573d6000803e3d6000fd5b505050506040513d601f19601f820116820180604052508101906117e49190612508565b6007546117f19190612468565b6114f390600161247f565b6000808360008151811061181257611812612336565b6020026020010151905060008360008151811061183157611831612336565b6020908102919091010151600254604051636ae0f6c560e11b8152600481018590529192506000916001600160a01b039091169063d5c1ed8a9060240160206040518083038186803b15801561188657600080fd5b505afa15801561189a573d6000803e3d6000fd5b505050506040513d601f19601f820116820180604052508101906118be9190612508565b600254604051636ae0f6c560e11b8152600481018590529192506000916001600160a01b039091169063d5c1ed8a9060240160206040518083038186803b15801561190857600080fd5b505afa15801561191c573d6000803e3d6000fd5b505050506040513d601f19601f820116820180604052508101906119409190612508565b60025460405163f3d1b5ab60e01b8152600481018790529192506000916001600160a01b039091169063f3d1b5ab9060240160206040518083038186803b15801561198a57600080fd5b505afa15801561199e573d6000803e3d6000fd5b505050506040513d601f19601f820116820180604052508101906119c29190612508565b600254604051630a36d40b60e01b8152600481018890529192506000916001600160a01b0390911690630a36d40b9060240160206040518083038186803b158015611a0c57600080fd5b505afa158015611a20573d6000803e3d6000fd5b505050506040513d601f19601f82011682018060405250810190611a449190612508565b60025460405163f3d1b5ab60e01b8152600481018890529192506000916001600160a01b039091169063f3d1b5ab9060240160206040518083038186803b158015611a8e57600080fd5b505afa158015611aa2573d6000803e3d6000fd5b505050506040513d601f19601f82011682018060405250810190611ac69190612508565b600254604051630a36d40b60e01b8152600481018990529192506000916001600160a01b0390911690630a36d40b9060240160206040518083038186803b158015611b1057600080fd5b505afa158015611b24573d6000803e3d6000fd5b505050506040513d601f19601f82011682018060405250810190611b489190612508565b905081841415611ca95780831115611bf35784861115611b73576001985050505050505050506114f3565b84861415611bb7576000611b896001606461146a565b9050603c8111611ba557600199505050505050505050506114f3565b600299505050505050505050506114f3565b6000611bc56001606461146a565b905060468111611be157600299505050505050505050506114f3565b600199505050505050505050506114f3565b80831415611c505784861115611c2d576000611c116001606461146a565b905060468111611ba557600199505050505050505050506114f3565b84861415611bb757611c416001600261146a565b985050505050505050506114f3565b84861015611c69576002985050505050505050506114f3565b84861415611c9b576000611c7f6001606461146a565b9050603c8111611be157600299505050505050505050506114f3565b6000611c116001606461146a565b80831415611d225784861115611ce4576000611cc76001606461146a565b90506046811115611ba557600199505050505050505050506114f3565b84861415611cf857611c416001600261146a565b6000611d066001606461146a565b905060148111611ba557600199505050505050505050506114f3565b80831115611d6d5784861115611d43576001985050505050505050506114f3565b6000611d516001606461146a565b905060288111611ba557600199505050505050505050506114f3565b84861015611d86576002985050505050505050506114f3565b84861415611db8576000611d9c6001606461146a565b9050601e8111611ba557600199505050505050505050506114f3565b6000611b896001606461146a565b600080546001600160a01b038381166001600160a01b0319831681178455604051919092169283917f8be0079c531659141344cd1fd0a4f28419497f9722a3daafe3b4186f6b6457e09190a35050565b6060610df883836040518060600160405280602781526020016125516027913960606001600160a01b0384163b611e9e5760405162461bcd60e51b815260206004820152602660248201527f416464726573733a2064656c65676174652063616c6c20746f206e6f6e2d636f6044820152651b9d1c9858dd60d21b606482015260840161066f565b600080856001600160a01b031685604051611eb99190612521565b600060405180830381855af49150503d8060008114611ef4576040519150601f19603f3d011682016040523d82523d6000602084013e611ef9565b606091505b5091509150611f09828286611f13565b9695505050505050565b60608315611f22575081610df8565b825115611f325782518084602001fd5b8160405162461bcd60e51b815260040161066f919061253d565b828054828255906000526020600020908101928215611f87579160200282015b82811115611f87578235825591602001919060010190611f6c565b50611f93929150611fd2565b5090565b828054828255906000526020600020908101928215611f87579160200282015b82811115611f87578251825591602001919060010190611fb7565b5b80821115611f935760008155600101611fd3565b60008083601f840112611ff957600080fd5b50813567ffffffffffffffff81111561201157600080fd5b6020830191508360208260051b850101111561202c57600080fd5b9250929050565b60008060006040848603121561204857600080fd5b83359250602084013567ffffffffffffffff81111561206657600080fd5b61207286828701611fe7565b9497909650939450505050565b6001600160a01b038116811461176457600080fd5b6000806000604084860312156120a957600080fd5b833567ffffffffffffffff8111156120c057600080fd5b6120cc86828701611fe7565b90945092505060208401356120e08161207f565b809150509250925092565b60008060008060006080868803121561210357600080fd5b853594506020860135935060408601359250606086013567ffffffffffffffff81111561212f57600080fd5b61213b88828901611fe7565b969995985093965092949392505050565b60006020828403121561215e57600080fd5b8135610df88161207f565b6020808252825182820181905260009190848201906040850190845b818110156121a157835183529284019291840191600101612185565b50909695505050505050565b6000602082840312156121bf57600080fd5b5035919050565b600080604083850312156121d957600080fd5b8235915060208301356121eb8161207f565b809150509250929050565b6000806040838503121561220957600080fd5b50508035926020909101359150565b6000806020838503121561222b57600080fd5b823567ffffffffffffffff81111561224257600080fd5b61224e85828601611fe7565b90969095509350505050565b60005b8381101561227557818101518382015260200161225d565b83811115610cdc5750506000910152565b6000815180845261229e81602086016020860161225a565b601f01601f19169290920160200192915050565b6000602080830181845280855180835260408601915060408160051b870101925083870160005b8281101561230757603f198886030184526122f5858351612286565b945092850192908501906001016122d9565b5092979650505050505050565b60006020828403121561232657600080fd5b81518015158114610df857600080fd5b634e487b7160e01b600052603260045260246000fd5b6000604082016040835280855480835260608501915086600052602092508260002060005b8281101561238d57815484529284019260019182019101612371565b50505092019290925292915050565b634e487b7160e01b600052601260045260246000fd5b634e487b7160e01b600052601160045260246000fd5b6000826123d7576123d761239c565b500490565b60008160001904831182151516156123f6576123f66123b2565b500290565b60006020828403121561240d57600080fd5b8151610df88161207f565b600060001982141561242c5761242c6123b2565b5060010190565b6020808252818101527f4f776e61626c653a2063616c6c6572206973206e6f7420746865206f776e6572604082015260600190565b60008282101561247a5761247a6123b2565b500390565b60008219821115612492576124926123b2565b500190565b6000826124a6576124a661239c565b500690565b634e487b7160e01b600052604160045260246000fd5b6000808335601e198436030181126124d857600080fd5b83018035915067ffffffffffffffff8211156124f357600080fd5b60200191503681900382131561202c57600080fd5b60006020828403121561251a57600080fd5b5051919050565b6000825161253381846020870161225a565b9190910192915050565b602081526000610df8602083018461228656fe416464726573733a206c6f772d6c6576656c2064656c65676174652063616c6c206661696c6564a2646970667358221220e05ace7164997d2c58812f3aef4e99576787435d37317d90b6e0af05aeeea99564736f6c63430008090033",
  "linkReferences": {},
  "deployedLinkReferences": {}
}