{
  "_format": "hh-sol-artifact-1",
  "contractName": "LobbyBattle",
  "sourceName": "contracts/game/LobbyBattle.sol",
  "abi": [
    {
      "inputs": [],
      "stateMutability": "nonpayable",
      "type": "constructor"
    },
    {
      "anonymous": false,
      "inputs": [
        {
          "indexed": true,
          "internalType": "uint256",
          "name": "lobbyId",
          "type": "uint256"
        },
        {
          "indexed": true,
          "internalType": "address",
          "name": "host",
          "type": "address"
        },
        {
          "indexed": true,
          "internalType": "address",
          "name": "client",
          "type": "address"
        }
      ],
      "name": "BattleFinished",
      "type": "event"
    },
    {
      "anonymous": false,
      "inputs": [
        {
          "indexed": true,
          "internalType": "address",
          "name": "previousOwner",
          "type": "address"
        },
        {
          "indexed": true,
          "internalType": "address",
          "name": "newOwner",
          "type": "address"
        }
      ],
      "name": "OwnershipTransferred",
      "type": "event"
    },
    {
      "inputs": [
        {
          "internalType": "bytes32",
          "name": "name",
          "type": "bytes32"
        },
        {
          "internalType": "bytes32",
          "name": "avatar",
          "type": "bytes32"
        },
        {
          "internalType": "uint256",
          "name": "capacity",
          "type": "uint256"
        },
        {
          "internalType": "uint256[]",
          "name": "heroIds",
          "type": "uint256[]"
        }
      ],
      "name": "createLobby",
      "outputs": [],
      "stateMutability": "nonpayable",
      "type": "function"
    },
    {
      "inputs": [
        {
          "internalType": "address",
          "name": "myAddr",
          "type": "address"
        },
        {
          "internalType": "uint256",
          "name": "capacity",
          "type": "uint256"
        }
      ],
      "name": "getActiveLobbies",
      "outputs": [
        {
          "internalType": "uint256[]",
          "name": "",
          "type": "uint256[]"
        }
      ],
      "stateMutability": "view",
      "type": "function"
    },
    {
      "inputs": [
        {
          "internalType": "uint256",
          "name": "capacity",
          "type": "uint256"
        }
      ],
      "name": "getAllHistory",
      "outputs": [
        {
          "internalType": "uint256[]",
          "name": "",
          "type": "uint256[]"
        }
      ],
      "stateMutability": "view",
      "type": "function"
    },
    {
      "inputs": [
        {
          "internalType": "uint256[]",
          "name": "heroes",
          "type": "uint256[]"
        }
      ],
      "name": "getHeroesPower",
      "outputs": [
        {
          "internalType": "uint256",
          "name": "",
          "type": "uint256"
        }
      ],
      "stateMutability": "view",
      "type": "function"
    },
    {
      "inputs": [
        {
          "internalType": "uint256",
          "name": "lobbyId",
          "type": "uint256"
        }
      ],
      "name": "getLobbyHeroes",
      "outputs": [
        {
          "internalType": "address",
          "name": "",
          "type": "address"
        },
        {
          "internalType": "uint256[]",
          "name": "",
          "type": "uint256[]"
        },
        {
          "internalType": "address",
          "name": "",
          "type": "address"
        },
        {
          "internalType": "uint256[]",
          "name": "",
          "type": "uint256[]"
        }
      ],
      "stateMutability": "view",
      "type": "function"
    },
    {
      "inputs": [
        {
          "internalType": "uint256",
          "name": "lobbyId",
          "type": "uint256"
        }
      ],
      "name": "getLobbyPower",
      "outputs": [
        {
          "internalType": "address",
          "name": "",
          "type": "address"
        },
        {
          "internalType": "uint256",
          "name": "",
          "type": "uint256"
        },
        {
          "internalType": "address",
          "name": "",
          "type": "address"
        },
        {
          "internalType": "uint256",
          "name": "",
          "type": "uint256"
        }
      ],
      "stateMutability": "view",
      "type": "function"
    },
    {
      "inputs": [
        {
          "internalType": "address",
          "name": "myAddr",
          "type": "address"
        },
        {
          "internalType": "uint256",
          "name": "capacity",
          "type": "uint256"
        }
      ],
      "name": "getMyHistory",
      "outputs": [
        {
          "internalType": "uint256[]",
          "name": "",
          "type": "uint256[]"
        }
      ],
      "stateMutability": "view",
      "type": "function"
    },
    {
      "inputs": [
        {
          "internalType": "address",
          "name": "myAddr",
          "type": "address"
        },
        {
          "internalType": "uint256",
          "name": "capacity",
          "type": "uint256"
        }
      ],
      "name": "getMyLobbies",
      "outputs": [
        {
          "internalType": "uint256[]",
          "name": "",
          "type": "uint256[]"
        }
      ],
      "stateMutability": "view",
      "type": "function"
    },
    {
      "inputs": [
        {
          "internalType": "uint256",
          "name": "lobbyId",
          "type": "uint256"
        },
        {
          "internalType": "address",
          "name": "player",
          "type": "address"
        }
      ],
      "name": "getPlayerHeroesOnLobby",
      "outputs": [
        {
          "internalType": "uint256[]",
          "name": "",
          "type": "uint256[]"
        }
      ],
      "stateMutability": "view",
      "type": "function"
    },
    {
      "inputs": [],
      "name": "heroManager",
      "outputs": [
        {
          "internalType": "contract IHeroManager",
          "name": "",
          "type": "address"
        }
      ],
      "stateMutability": "view",
      "type": "function"
    },
    {
      "inputs": [
        {
          "internalType": "uint256",
          "name": "lobbyId",
          "type": "uint256"
        },
        {
          "internalType": "uint256[]",
          "name": "heroIds",
          "type": "uint256[]"
        }
      ],
      "name": "joinLobby",
      "outputs": [],
      "stateMutability": "nonpayable",
      "type": "function"
    },
    {
      "inputs": [
        {
          "internalType": "uint256",
          "name": "",
          "type": "uint256"
        }
      ],
      "name": "lobbies",
      "outputs": [
        {
          "internalType": "bytes32",
          "name": "name",
          "type": "bytes32"
        },
        {
          "internalType": "bytes32",
          "name": "avatar",
          "type": "bytes32"
        },
        {
          "internalType": "address",
          "name": "host",
          "type": "address"
        },
        {
          "internalType": "address",
          "name": "client",
          "type": "address"
        },
        {
          "internalType": "uint256",
          "name": "id",
          "type": "uint256"
        },
        {
          "internalType": "uint256",
          "name": "capacity",
          "type": "uint256"
        },
        {
          "internalType": "uint256",
          "name": "startedAt",
          "type": "uint256"
        },
        {
          "internalType": "uint256",
          "name": "finishedAt",
          "type": "uint256"
        },
        {
          "internalType": "uint256",
          "name": "winner",
          "type": "uint256"
        },
        {
          "internalType": "uint256",
          "name": "fee",
          "type": "uint256"
        },
        {
          "internalType": "uint256",
          "name": "rewards",
          "type": "uint256"
        }
      ],
      "stateMutability": "view",
      "type": "function"
    },
    {
      "inputs": [
        {
          "internalType": "uint256",
          "name": "",
          "type": "uint256"
        }
      ],
      "name": "lobbyFees",
      "outputs": [
        {
          "internalType": "uint256",
          "name": "",
          "type": "uint256"
        }
      ],
      "stateMutability": "view",
      "type": "function"
    },
    {
      "inputs": [
        {
          "internalType": "uint256",
          "name": "",
          "type": "uint256"
        },
        {
          "internalType": "address",
          "name": "",
          "type": "address"
        },
        {
          "internalType": "uint256",
          "name": "",
          "type": "uint256"
        }
      ],
      "name": "lobbyHeroes",
      "outputs": [
        {
          "internalType": "uint256",
          "name": "",
          "type": "uint256"
        }
      ],
      "stateMutability": "view",
      "type": "function"
    },
    {
      "inputs": [
        {
          "internalType": "bytes[]",
          "name": "data",
          "type": "bytes[]"
        }
      ],
      "name": "multicall",
      "outputs": [
        {
          "internalType": "bytes[]",
          "name": "results",
          "type": "bytes[]"
        }
      ],
      "stateMutability": "nonpayable",
      "type": "function"
    },
    {
      "inputs": [],
      "name": "owner",
      "outputs": [
        {
          "internalType": "address",
          "name": "",
          "type": "address"
        }
      ],
      "stateMutability": "view",
      "type": "function"
    },
    {
      "inputs": [
        {
          "internalType": "address",
          "name": "",
          "type": "address"
        }
      ],
      "name": "playersFees",
      "outputs": [
        {
          "internalType": "uint256",
          "name": "",
          "type": "uint256"
        }
      ],
      "stateMutability": "view",
      "type": "function"
    },
    {
      "inputs": [
        {
          "internalType": "address",
          "name": "",
          "type": "address"
        }
      ],
      "name": "playersRewards",
      "outputs": [
        {
          "internalType": "uint256",
          "name": "",
          "type": "uint256"
        }
      ],
      "stateMutability": "view",
      "type": "function"
    },
    {
      "inputs": [
        {
          "internalType": "uint256",
          "name": "min",
          "type": "uint256"
        },
        {
          "internalType": "uint256",
          "name": "max",
          "type": "uint256"
        }
      ],
      "name": "random",
      "outputs": [
        {
          "internalType": "uint256",
          "name": "",
          "type": "uint256"
        }
      ],
      "stateMutability": "view",
      "type": "function"
    },
    {
      "inputs": [
        {
          "internalType": "address",
          "name": "",
          "type": "address"
        }
      ],
      "name": "registeredPlayers",
      "outputs": [
        {
          "internalType": "bool",
          "name": "",
          "type": "bool"
        }
      ],
      "stateMutability": "view",
      "type": "function"
    },
    {
      "inputs": [],
      "name": "renounceOwnership",
      "outputs": [],
      "stateMutability": "nonpayable",
      "type": "function"
    },
    {
      "inputs": [],
      "name": "rewardsPayeer",
      "outputs": [
        {
          "internalType": "address",
          "name": "",
          "type": "address"
        }
      ],
      "stateMutability": "view",
      "type": "function"
    },
    {
      "inputs": [
        {
          "internalType": "uint256",
          "name": "multiplier",
          "type": "uint256"
        }
      ],
      "name": "setBenefitMultiplier",
      "outputs": [],
      "stateMutability": "nonpayable",
      "type": "function"
    },
    {
      "inputs": [
        {
          "internalType": "address",
          "name": "hmAddr",
          "type": "address"
        }
      ],
      "name": "setHeroManager",
      "outputs": [],
      "stateMutability": "nonpayable",
      "type": "function"
    },
    {
      "inputs": [
        {
          "internalType": "uint256",
          "name": "capacity",
          "type": "uint256"
        },
        {
          "internalType": "uint256",
          "name": "fee",
          "type": "uint256"
        }
      ],
      "name": "setLobbyFee",
      "outputs": [],
      "stateMutability": "nonpayable",
      "type": "function"
    },
    {
      "inputs": [
        {
          "internalType": "address",
          "name": "payer",
          "type": "address"
        }
      ],
      "name": "setRewardsPayeer",
      "outputs": [],
      "stateMutability": "nonpayable",
      "type": "function"
    },
    {
      "inputs": [],
      "name": "totalPlayers",
      "outputs": [
        {
          "internalType": "uint256",
          "name": "",
          "type": "uint256"
        }
      ],
      "stateMutability": "view",
      "type": "function"
    },
    {
      "inputs": [
        {
          "internalType": "address",
          "name": "newOwner",
          "type": "address"
        }
      ],
      "name": "transferOwnership",
      "outputs": [],
      "stateMutability": "nonpayable",
      "type": "function"
    },
    {
      "inputs": [
        {
          "internalType": "uint256",
          "name": "",
          "type": "uint256"
        }
      ],
      "name": "uniquePlayers",
      "outputs": [
        {
          "internalType": "address",
          "name": "",
          "type": "address"
        }
      ],
      "stateMutability": "view",
      "type": "function"
    }
  ],
  "bytecode": "0x6080604052600380546001600160a01b031916730cca7943409260455ceef6be46c69b3fc808e24f17905560fa60045534801561003b57600080fd5b50610045336100db565b600c60205269010f0cf064dd592000007fd421a5181c571bba3f01190c922c3b2a896fc1d84e86c9f17ac10e67ebef8b5c5569054b40b1f852bda000007fc0da782485e77ae272268ae0a3ff44c1552ecb60b3743924de17a815e0a3cfd7556005600052690a968163f0a57b4000007f2cd9ebf6ff19cdd7ffcc447d7c7d47b5991f5c7392a04512134e765802361fa65561012b565b600080546001600160a01b038381166001600160a01b0319831681178455604051919092169283917f8be0079c531659141344cd1fd0a4f28419497f9722a3daafe3b4186f6b6457e09190a35050565b61305f806200013b6000396000f3fe608060405234801561001057600080fd5b50600436106101ce5760003560e01c80637407fddd11610104578063b12f5c57116100a2578063e4118fca11610071578063e4118fca1461056b578063ed697f321461057e578063f2fde38b14610591578063f60cdcf6146105a457600080fd5b8063b12f5c57146104d0578063b97dcb2214610518578063b9f2d5201461052b578063c8f942701461054b57600080fd5b8063930613fc116100de578063930613fc1461046157806394f696621461048a578063a9dd12251461049d578063ac9650d8146104b057600080fd5b80637407fddd1461042a578063833588cc1461043d5780638da5cb5b1461045057600080fd5b80633b8a7a13116101715780634d5f80ad1161014b5780634d5f80ad1461031d5780636bd2dc85146103305780636e8fb4c614610350578063715018a61461042257600080fd5b80633b8a7a13146102c457806345efd785146102d75780634bafce22146102ea57600080fd5b806316fc989c116101ad57806316fc989c1461023f5780631deb8c441461027e57806328b11d231461029e578063378cc347146102b157600080fd5b8062c8bd7e146101d357806307a48c19146101e857806311ce406d14610214575b600080fd5b6101e66101e13660046129cf565b6105ad565b005b6101fb6101f6366004612a1b565b610f06565b60405161020b9493929190612a6f565b60405180910390f35b600354610227906001600160a01b031681565b6040516001600160a01b03909116815260200161020b565b61027061024d366004612acc565b600a60209081526000938452604080852082529284528284209052825290205481565b60405190815260200161020b565b61029161028c366004612b04565b610f5a565b60405161020b9190612b30565b6101e66102ac366004612a1b565b6110e3565b6101e66102bf366004612b43565b611112565b600254610227906001600160a01b031681565b6102916102e5366004612a1b565b61115e565b61030d6102f8366004612b43565b60076020526000908152604090205460ff1681565b604051901515815260200161020b565b61029161032b366004612b04565b611294565b61027061033e366004612b43565b60096020526000908152604090205481565b6103c361035e366004612a1b565b600b60205260009081526040902080546001820154600283015460038401546004850154600586015460068701546007880154600889015460098a0154600a909a0154989997986001600160a01b03978816989790961696949593949293919290918b565b604080519b8c5260208c019a909a526001600160a01b03988916998b0199909952969095166060890152608088019390935260a087019190915260c086015260e08501526101008401526101208301526101408201526101600161020b565b6101e661140f565b610291610438366004612b04565b611445565b6101e661044b366004612b60565b61160e565b6000546001600160a01b0316610227565b61022761046f366004612a1b565b6006602052600090815260409020546001600160a01b031681565b6101e6610498366004612b82565b61164a565b6102706104ab366004612b60565b611c2a565b6104c36104be366004612be3565b611cdc565b60405161020b9190612c81565b6104e36104de366004612a1b565b611dd1565b60405161020b94939291906001600160a01b039485168152602081019390935292166040820152606081019190915260800190565b610291610526366004612ce3565b611f75565b610270610539366004612a1b565b600c6020526000908152604090205481565b610270610559366004612b43565b60086020526000908152604090205481565b6101e6610579366004612b43565b612060565b61027061058c366004612d29565b6120ac565b6101e661059f366004612b43565b61216b565b61027060055481565b6000838152600b60205260409081902060028082015460035460059093015491549351630152368f60e01b815233946001600160a01b0392831694831693921690630152368f9061060690899089908990600401612e11565b60206040518083038186803b15801561061e57600080fd5b505afa158015610632573d6000803e3d6000fd5b505050506040513d601f19601f820116820180604052508101906106569190612e3d565b5060025460405163b7601a1560e01b81526001600160a01b039091169063b7601a15906106899089908990600401612e5f565b60206040518083038186803b1580156106a157600080fd5b505afa1580156106b5573d6000803e3d6000fd5b505050506040513d601f19601f820116820180604052508101906106d99190612e3d565b506000878152600b6020526040902060040154871461073f5760405162461bcd60e51b815260206004820181905260248201527f4c6f626279426174746c653a206c6f62627920646f65736e277420657869737460448201526064015b60405180910390fd5b80851461078e5760405162461bcd60e51b815260206004820152601960248201527f4c6f626279426174746c653a2077726f6e67206865726f6573000000000000006044820152606401610736565b6000878152600b6020526040902060070154156107ed5760405162461bcd60e51b815260206004820152601d60248201527f4c6f626279426174746c653a20616c72656164792066696e69736865640000006044820152606401610736565b60025460408051637e062a3560e11b815290516000926001600160a01b03169163fc0c546a916004808301926020929190829003018186803b15801561083257600080fd5b505afa158015610846573d6000803e3d6000fd5b505050506040513d601f19601f8201168201806040525081019061086a9190612e73565b6000838152600c6020526040908190205490516323b872dd60e01b81526001600160a01b03888116600483015286811660248301526044820183905292935090918316906323b872dd90606401602060405180830381600087803b1580156108d157600080fd5b505af11580156108e5573d6000803e3d6000fd5b505050506040513d601f19601f820116820180604052508101906109099190612e3d565b6109555760405162461bcd60e51b815260206004820152601b60248201527f4c6f626279426174746c653a206e6f7420656e6f7567682066656500000000006044820152606401610736565b6001600160a01b03861660009081526007602052604090205460ff166109c357600554600081815260066020908152604080832080546001600160a01b0319166001600160a01b038c16908117909155835260079091529020805460ff191660019081179091558101600555505b6001600160a01b03861660008181526008602090815260408083208054860190558c8352600b90915281206003810180546001600160a01b03191690931790925542600790920191909155610a188a87611f75565b90506000610a3c6064610a366004548661220a90919063ffffffff16565b9061220e565b60008c8152600b60205260409020600a0181905590506001851415610ef9576000610a9a838c8c8080602002602001604051908101604052809392919081815260200183836020028082843760009201919091525061222792505050565b60008d8152600b6020526040902060080181905590506001811415610bec5760025483516001600160a01b039091169063b0a04efa908590600090610ae157610ae1612e90565b602002602001015160016040518363ffffffff1660e01b8152600401610b139291909182521515602082015260400190565b600060405180830381600087803b158015610b2d57600080fd5b505af1158015610b41573d6000803e3d6000fd5b50506002546001600160a01b0316915063b0a04efa90508c8c600081610b6957610b69612e90565b6040516001600160e01b031960e086901b1681526020909102929092013560048301525060006024820152604401600060405180830381600087803b158015610bb157600080fd5b505af1158015610bc5573d6000803e3d6000fd5b505050506001600160a01b0388166000908152600960205260409020805483019055610d1b565b60025483516001600160a01b039091169063b0a04efa908590600090610c1457610c14612e90565b602002602001015160006040518363ffffffff1660e01b8152600401610c469291909182521515602082015260400190565b600060405180830381600087803b158015610c6057600080fd5b505af1158015610c74573d6000803e3d6000fd5b50506002546001600160a01b0316915063b0a04efa90508c8c600081610c9c57610c9c612e90565b6040516001600160e01b031960e086901b1681526020909102929092013560048301525060016024820152604401600060405180830381600087803b158015610ce457600080fd5b505af1158015610cf8573d6000803e3d6000fd5b505050506001600160a01b03891660009081526009602052604090208054830190555b8a8a6000818110610d2e57610d2e612e90565b90506020020135600a60008e815260200190815260200160002060008b6001600160a01b03166001600160a01b03168152602001908152602001600020600080815260200190815260200160002081905550600260009054906101000a90046001600160a01b03166001600160a01b0316634239ca308c8c6000818110610db757610db7612e90565b905060200201356040518263ffffffff1660e01b8152600401610ddc91815260200190565b600060405180830381600087803b158015610df657600080fd5b505af1158015610e0a573d6000803e3d6000fd5b50505050846001600160a01b03166323b872dd8883600114610e2c578b610e2e565b8a5b6040516001600160e01b031960e085901b1681526001600160a01b0392831660048201529116602482015260448101859052606401602060405180830381600087803b158015610e7d57600080fd5b505af1158015610e91573d6000803e3d6000fd5b505050506040513d601f19601f82011682018060405250810190610eb59190612e3d565b50886001600160a01b0316886001600160a01b03168d7fc77dc6cd4b51c8efc4af40a582ca4cf229fda505a830b4486b200ddcbdb1383f60405160405180910390a4505b5050505050505050505050565b6000818152600b602052604081206002810154600390910154606091839183916001600160a01b03908116911681610f3e8882611f75565b82610f498a85611f75565b955095509550955050509193509193565b6060600060015b6001548111610fe7576000818152600b6020526040902060070154158015610f9957506000818152600b602052604090206005015484145b8015610fc257506000818152600b60205260409020600201546001600160a01b03868116911614155b15610fd55781610fd181612ebc565b9250505b80610fdf81612ebc565b915050610f61565b506000808267ffffffffffffffff81111561100457611004612d13565b60405190808252806020026020018201604052801561102d578160200160208202803683370190505b50905060015b60015481116110d7576000818152600b602052604090206007015415801561106b57506000818152600b602052604090206005015486145b801561109457506000818152600b60205260409020600201546001600160a01b03888116911614155b156110c557808284815181106110ac576110ac612e90565b6020908102919091010152826110c181612ebc565b9350505b806110cf81612ebc565b915050611033565b50925050505b92915050565b6000546001600160a01b0316331461110d5760405162461bcd60e51b815260040161073690612ed7565b600455565b6000546001600160a01b0316331461113c5760405162461bcd60e51b815260040161073690612ed7565b600280546001600160a01b0319166001600160a01b0392909216919091179055565b6060600060015b60015481116111c3576000818152600b60205260409020600701541580159061119e57506000818152600b602052604090206005015484145b156111b157816111ad81612ebc565b9250505b806111bb81612ebc565b915050611165565b506000808267ffffffffffffffff8111156111e0576111e0612d13565b604051908082528060200260200182016040528015611209578160200160208202803683370190505b50905060015b600154811161128b576000818152600b60205260409020600701541580159061124857506000818152600b602052604090206005015486145b15611279578082848151811061126057611260612e90565b60209081029190910101528261127581612ebc565b9350505b8061128381612ebc565b91505061120f565b50949350505050565b6060600060015b6001548111611320576000818152600b60205260409020600701541580156112d357506000818152600b602052604090206005015484145b80156112fb57506000818152600b60205260409020600201546001600160a01b038681169116145b1561130e578161130a81612ebc565b9250505b8061131881612ebc565b91505061129b565b506000808267ffffffffffffffff81111561133d5761133d612d13565b604051908082528060200260200182016040528015611366578160200160208202803683370190505b50905060015b60015481116110d7576000818152600b60205260409020600701541580156113a457506000818152600b602052604090206005015486145b80156113cc57506000818152600b60205260409020600201546001600160a01b038881169116145b156113fd57808284815181106113e4576113e4612e90565b6020908102919091010152826113f981612ebc565b9350505b8061140781612ebc565b91505061136c565b6000546001600160a01b031633146114395760405162461bcd60e51b815260040161073690612ed7565b61144360006127f1565b565b6060600060015b60015481116114f8576000818152600b60205260409020600701541580159061148557506000818152600b602052604090206005015484145b80156114d357506000818152600b60205260409020600201546001600160a01b03868116911614806114d357506000818152600b60205260409020600301546001600160a01b038681169116145b156114e657816114e281612ebc565b9250505b806114f081612ebc565b91505061144c565b506000808267ffffffffffffffff81111561151557611515612d13565b60405190808252806020026020018201604052801561153e578160200160208202803683370190505b50905060015b60015481116110d7576000818152600b60205260409020600701541580159061157d57506000818152600b602052604090206005015486145b80156115cb57506000818152600b60205260409020600201546001600160a01b03888116911614806115cb57506000818152600b60205260409020600301546001600160a01b038881169116145b156115fc57808284815181106115e3576115e3612e90565b6020908102919091010152826115f881612ebc565b9350505b8061160681612ebc565b915050611544565b6000546001600160a01b031633146116385760405162461bcd60e51b815260040161073690612ed7565b6000918252600c602052604090912055565b6000838152600c602052604090819020546002549151630152368f60e01b815233926001600160a01b031690630152368f9061168e90879087908790600401612e11565b60206040518083038186803b1580156116a657600080fd5b505afa1580156116ba573d6000803e3d6000fd5b505050506040513d601f19601f820116820180604052508101906116de9190612e3d565b5060025460405163b7601a1560e01b81526001600160a01b039091169063b7601a15906117119087908790600401612e5f565b60206040518083038186803b15801561172957600080fd5b505afa15801561173d573d6000803e3d6000fd5b505050506040513d601f19601f820116820180604052508101906117619190612e3d565b5060025460408051637e062a3560e11b815290516000926001600160a01b03169163fc0c546a916004808301926020929190829003018186803b1580156117a757600080fd5b505afa1580156117bb573d6000803e3d6000fd5b505050506040513d601f19601f820116820180604052508101906117df9190612e73565b90508584146118305760405162461bcd60e51b815260206004820152601d60248201527f4c6f626279426174746c653a2077726f6e6720706172616d65746572730000006044820152606401610736565b6000821161188a5760405162461bcd60e51b815260206004820152602160248201527f4c6f626279426174746c653a2077726f6e67206c6f62627920636170616369746044820152607960f81b6064820152608401610736565b6003546040516323b872dd60e01b81526001600160a01b038581166004830152918216602482015260448101849052908216906323b872dd90606401602060405180830381600087803b1580156118e057600080fd5b505af11580156118f4573d6000803e3d6000fd5b505050506040513d601f19601f820116820180604052508101906119189190612e3d565b6119645760405162461bcd60e51b815260206004820152601b60248201527f4c6f626279426174746c653a206e6f7420656e6f7567682066656500000000006044820152606401610736565b6001600160a01b03831660009081526007602052604090205460ff166119d257600554600081815260066020908152604080832080546001600160a01b0319166001600160a01b038916908117909155835260079091529020805460ff191660019081179091558101600555505b6001600160a01b03831660009081526008602052604090205482016001600160a01b038416600090815260086020526040812091909155600180540190508060018190555060006040518061016001604052808b81526020018a8152602001866001600160a01b0316815260200160006001600160a01b0316815260200183815260200189815260200142815260200160008152602001600081526020018581526020016000815250905080600b6000848152602001908152602001600020600082015181600001556020820151816001015560408201518160020160006101000a8154816001600160a01b0302191690836001600160a01b0316021790555060608201518160030160006101000a8154816001600160a01b0302191690836001600160a01b031602179055506080820151816004015560a0820151816005015560c0820151816006015560e082015181600701556101008201518160080155610120820151816009015561014082015181600a015590505060005b86811015610ef957878782818110611b6857611b68612e90565b6000868152600a602090815260408083206001600160a01b03808e168552908352818420888552835292209202939093013590555060025416634239ca30898984818110611bb857611bb8612e90565b905060200201356040518263ffffffff1660e01b8152600401611bdd91815260200190565b600060405180830381600087803b158015611bf757600080fd5b505af1158015611c0b573d6000803e3d6000fd5b50505050611c2360018261220690919063ffffffff16565b9050611b4e565b6000804442336000356001600160e01b0319165a6040805160208101969096528501939093526bffffffffffffffffffffffff19606092831b16918401919091526001600160e01b031916607483015260788201526098810185905260b8810184905260d80160408051601f198184030181529190528051602090910120905083611cb58185612f0c565b611cc0906001612f23565b611cca9083612f51565b611cd49190612f23565b949350505050565b60608167ffffffffffffffff811115611cf757611cf7612d13565b604051908082528060200260200182016040528015611d2a57816020015b6060815260200190600190039081611d155790505b50905060005b82811015611dca57611d9a30858584818110611d4e57611d4e612e90565b9050602002810190611d609190612f73565b8080601f01602080910402602001604051908101604052809392919081815260200183838082843760009201919091525061284192505050565b828281518110611dac57611dac612e90565b60200260200101819052508080611dc290612ebc565b915050611d30565b5092915050565b600080600080600080600080611de689610f06565b935093509350935060008060005b8551811015611f625760025486516000916001600160a01b03169063d5c1ed8a90899085908110611e2757611e27612e90565b60200260200101516040518263ffffffff1660e01b8152600401611e4d91815260200190565b60206040518083038186803b158015611e6557600080fd5b505afa158015611e79573d6000803e3d6000fd5b505050506040513d601f19601f82011682018060405250810190611e9d9190612fba565b9384019390506001600160a01b03861615611f595760025485516000916001600160a01b03169063d5c1ed8a90889086908110611edc57611edc612e90565b60200260200101516040518263ffffffff1660e01b8152600401611f0291815260200190565b60206040518083038186803b158015611f1a57600080fd5b505afa158015611f2e573d6000803e3d6000fd5b505050506040513d601f19601f82011682018060405250810190611f529190612fba565b9390930192505b50600101611df4565b50949a9099509197509295509350505050565b606060005b6000848152600a602090815260408083206001600160a01b0387168452825280832084845290915290205415611fbc5780611fb481612ebc565b915050611f7a565b60008167ffffffffffffffff811115611fd757611fd7612d13565b604051908082528060200260200182016040528015612000578160200160208202803683370190505b50905060005b8281101561128b576000868152600a602090815260408083206001600160a01b03891684528252808320848452909152902054825183908390811061204d5761204d612e90565b6020908102919091010152600101612006565b6000546001600160a01b0316331461208a5760405162461bcd60e51b815260040161073690612ed7565b600380546001600160a01b0319166001600160a01b0392909216919091179055565b60008060005b8351811015611dca576002548451612161916001600160a01b03169063d5c1ed8a908790859081106120e6576120e6612e90565b60200260200101516040518263ffffffff1660e01b815260040161210c91815260200190565b60206040518083038186803b15801561212457600080fd5b505afa158015612138573d6000803e3d6000fd5b505050506040513d601f19601f8201168201806040525081019061215c9190612fba565b830190565b91506001016120b2565b6000546001600160a01b031633146121955760405162461bcd60e51b815260040161073690612ed7565b6001600160a01b0381166121fa5760405162461bcd60e51b815260206004820152602660248201527f4f776e61626c653a206e6577206f776e657220697320746865207a65726f206160448201526564647265737360d01b6064820152608401610736565b612203816127f1565b50565b0190565b0290565b600081838161221f5761221f612f3b565b049392505050565b6000808360008151811061223d5761223d612e90565b6020026020010151905060008360008151811061225c5761225c612e90565b6020908102919091010151600254604051636ae0f6c560e11b8152600481018590529192506000916001600160a01b039091169063d5c1ed8a9060240160206040518083038186803b1580156122b157600080fd5b505afa1580156122c5573d6000803e3d6000fd5b505050506040513d601f19601f820116820180604052508101906122e99190612fba565b600254604051636ae0f6c560e11b8152600481018590529192506000916001600160a01b039091169063d5c1ed8a9060240160206040518083038186803b15801561233357600080fd5b505afa158015612347573d6000803e3d6000fd5b505050506040513d601f19601f8201168201806040525081019061236b9190612fba565b60025460405163f3d1b5ab60e01b8152600481018790529192506000916001600160a01b039091169063f3d1b5ab9060240160206040518083038186803b1580156123b557600080fd5b505afa1580156123c9573d6000803e3d6000fd5b505050506040513d601f19601f820116820180604052508101906123ed9190612fba565b600254604051630a36d40b60e01b8152600481018890529192506000916001600160a01b0390911690630a36d40b9060240160206040518083038186803b15801561243757600080fd5b505afa15801561244b573d6000803e3d6000fd5b505050506040513d601f19601f8201168201806040525081019061246f9190612fba565b60025460405163f3d1b5ab60e01b8152600481018890529192506000916001600160a01b039091169063f3d1b5ab9060240160206040518083038186803b1580156124b957600080fd5b505afa1580156124cd573d6000803e3d6000fd5b505050506040513d601f19601f820116820180604052508101906124f19190612fba565b600254604051630a36d40b60e01b8152600481018990529192506000916001600160a01b0390911690630a36d40b9060240160206040518083038186803b15801561253b57600080fd5b505afa15801561254f573d6000803e3d6000fd5b505050506040513d601f19601f820116820180604052508101906125739190612fba565b9050818414156126d4578083111561261e578486111561259e576001985050505050505050506110dd565b848614156125e25760006125b460016064611c2a565b9050603c81116125d057600199505050505050505050506110dd565b600299505050505050505050506110dd565b60006125f060016064611c2a565b90506046811161260c57600299505050505050505050506110dd565b600199505050505050505050506110dd565b8083141561267b578486111561265857600061263c60016064611c2a565b9050604681116125d057600199505050505050505050506110dd565b848614156125e25761266c60016002611c2a565b985050505050505050506110dd565b84861015612694576002985050505050505050506110dd565b848614156126c65760006126aa60016064611c2a565b9050603c811161260c57600299505050505050505050506110dd565b600061263c60016064611c2a565b8083141561274d578486111561270f5760006126f260016064611c2a565b905060468111156125d057600199505050505050505050506110dd565b848614156127235761266c60016002611c2a565b600061273160016064611c2a565b9050601481116125d057600199505050505050505050506110dd565b80831115612798578486111561276e576001985050505050505050506110dd565b600061277c60016064611c2a565b9050602881116125d057600199505050505050505050506110dd565b848610156127b1576002985050505050505050506110dd565b848614156127e35760006127c760016064611c2a565b9050601e81116125d057600199505050505050505050506110dd565b60006125b460016064611c2a565b600080546001600160a01b038381166001600160a01b0319831681178455604051919092169283917f8be0079c531659141344cd1fd0a4f28419497f9722a3daafe3b4186f6b6457e09190a35050565b606061286683836040518060600160405280602781526020016130036027913961286d565b9392505050565b60606001600160a01b0384163b6128d55760405162461bcd60e51b815260206004820152602660248201527f416464726573733a2064656c65676174652063616c6c20746f206e6f6e2d636f6044820152651b9d1c9858dd60d21b6064820152608401610736565b600080856001600160a01b0316856040516128f09190612fd3565b600060405180830381855af49150503d806000811461292b576040519150601f19603f3d011682016040523d82523d6000602084013e612930565b606091505b509150915061294082828661294a565b9695505050505050565b60608315612959575081612866565b8251156129695782518084602001fd5b8160405162461bcd60e51b81526004016107369190612fef565b60008083601f84011261299557600080fd5b50813567ffffffffffffffff8111156129ad57600080fd5b6020830191508360208260051b85010111156129c857600080fd5b9250929050565b6000806000604084860312156129e457600080fd5b83359250602084013567ffffffffffffffff811115612a0257600080fd5b612a0e86828701612983565b9497909650939450505050565b600060208284031215612a2d57600080fd5b5035919050565b600081518084526020808501945080840160005b83811015612a6457815187529582019590820190600101612a48565b509495945050505050565b600060018060a01b03808716835260806020840152612a916080840187612a34565b81861660408501528381036060850152612aab8186612a34565b98975050505050505050565b6001600160a01b038116811461220357600080fd5b600080600060608486031215612ae157600080fd5b833592506020840135612af381612ab7565b929592945050506040919091013590565b60008060408385031215612b1757600080fd5b8235612b2281612ab7565b946020939093013593505050565b6020815260006128666020830184612a34565b600060208284031215612b5557600080fd5b813561286681612ab7565b60008060408385031215612b7357600080fd5b50508035926020909101359150565b600080600080600060808688031215612b9a57600080fd5b853594506020860135935060408601359250606086013567ffffffffffffffff811115612bc657600080fd5b612bd288828901612983565b969995985093965092949392505050565b60008060208385031215612bf657600080fd5b823567ffffffffffffffff811115612c0d57600080fd5b612c1985828601612983565b90969095509350505050565b60005b83811015612c40578181015183820152602001612c28565b83811115612c4f576000848401525b50505050565b60008151808452612c6d816020860160208601612c25565b601f01601f19169290920160200192915050565b6000602080830181845280855180835260408601915060408160051b870101925083870160005b82811015612cd657603f19888603018452612cc4858351612c55565b94509285019290850190600101612ca8565b5092979650505050505050565b60008060408385031215612cf657600080fd5b823591506020830135612d0881612ab7565b809150509250929050565b634e487b7160e01b600052604160045260246000fd5b60006020808385031215612d3c57600080fd5b823567ffffffffffffffff80821115612d5457600080fd5b818501915085601f830112612d6857600080fd5b813581811115612d7a57612d7a612d13565b8060051b604051601f19603f83011681018181108582111715612d9f57612d9f612d13565b604052918252848201925083810185019188831115612dbd57600080fd5b938501935b82851015612aab57843584529385019392850192612dc2565b81835260006001600160fb1b03831115612df457600080fd5b8260051b8083602087013760009401602001938452509192915050565b604081526000612e25604083018587612ddb565b905060018060a01b0383166020830152949350505050565b600060208284031215612e4f57600080fd5b8151801515811461286657600080fd5b602081526000611cd4602083018486612ddb565b600060208284031215612e8557600080fd5b815161286681612ab7565b634e487b7160e01b600052603260045260246000fd5b634e487b7160e01b600052601160045260246000fd5b6000600019821415612ed057612ed0612ea6565b5060010190565b6020808252818101527f4f776e61626c653a2063616c6c6572206973206e6f7420746865206f776e6572604082015260600190565b600082821015612f1e57612f1e612ea6565b500390565b60008219821115612f3657612f36612ea6565b500190565b634e487b7160e01b600052601260045260246000fd5b600082612f6e57634e487b7160e01b600052601260045260246000fd5b500690565b6000808335601e19843603018112612f8a57600080fd5b83018035915067ffffffffffffffff821115612fa557600080fd5b6020019150368190038213156129c857600080fd5b600060208284031215612fcc57600080fd5b5051919050565b60008251612fe5818460208701612c25565b9190910192915050565b6020815260006128666020830184612c5556fe416464726573733a206c6f772d6c6576656c2064656c65676174652063616c6c206661696c6564a26469706673582212205bff062296130b16357e6951691b4e9e84f29c8bde277b15e5901924c09816ba64736f6c63430008090033",
  "linkReferences": {},
  "deployedLinkReferences": {}
}