{
  "_format": "hh-sol-artifact-1",
  "contractName": "LobbyBattle",
  "sourceName": "contracts/game/LobbyBattle.sol",
  "abi": [
    {
      "inputs": [],
      "stateMutability": "nonpayable",
      "type": "constructor"
    },
    {
      "anonymous": false,
      "inputs": [
        {
          "indexed": true,
          "internalType": "uint256",
          "name": "lobbyId",
          "type": "uint256"
        },
        {
          "indexed": true,
          "internalType": "address",
          "name": "host",
          "type": "address"
        },
        {
          "indexed": true,
          "internalType": "address",
          "name": "client",
          "type": "address"
        }
      ],
      "name": "BattleFinished",
      "type": "event"
    },
    {
      "anonymous": false,
      "inputs": [
        {
          "indexed": true,
          "internalType": "address",
          "name": "previousOwner",
          "type": "address"
        },
        {
          "indexed": true,
          "internalType": "address",
          "name": "newOwner",
          "type": "address"
        }
      ],
      "name": "OwnershipTransferred",
      "type": "event"
    },
    {
      "inputs": [],
      "name": "HRI_TOKEN",
      "outputs": [
        {
          "internalType": "contract IERC20",
          "name": "",
          "type": "address"
        }
      ],
      "stateMutability": "view",
      "type": "function"
    },
    {
      "inputs": [],
      "name": "NFT",
      "outputs": [
        {
          "internalType": "contract IERC721",
          "name": "",
          "type": "address"
        }
      ],
      "stateMutability": "view",
      "type": "function"
    },
    {
      "inputs": [
        {
          "internalType": "bytes32",
          "name": "name",
          "type": "bytes32"
        },
        {
          "internalType": "bytes32",
          "name": "avatar",
          "type": "bytes32"
        },
        {
          "internalType": "uint256",
          "name": "capacity",
          "type": "uint256"
        },
        {
          "internalType": "uint256[]",
          "name": "heroIds",
          "type": "uint256[]"
        }
      ],
      "name": "createLobby",
      "outputs": [],
      "stateMutability": "nonpayable",
      "type": "function"
    },
    {
      "inputs": [
        {
          "internalType": "address",
          "name": "myAddr",
          "type": "address"
        },
        {
          "internalType": "uint256",
          "name": "capacity",
          "type": "uint256"
        }
      ],
      "name": "getActiveLobbies",
      "outputs": [
        {
          "internalType": "uint256[]",
          "name": "",
          "type": "uint256[]"
        }
      ],
      "stateMutability": "view",
      "type": "function"
    },
    {
      "inputs": [
        {
          "internalType": "uint256",
          "name": "capacity",
          "type": "uint256"
        }
      ],
      "name": "getAllHistory",
      "outputs": [
        {
          "internalType": "uint256[]",
          "name": "",
          "type": "uint256[]"
        }
      ],
      "stateMutability": "view",
      "type": "function"
    },
    {
      "inputs": [
        {
          "internalType": "uint256[]",
          "name": "heroes",
          "type": "uint256[]"
        }
      ],
      "name": "getHeroesPower",
      "outputs": [
        {
          "internalType": "uint256",
          "name": "",
          "type": "uint256"
        }
      ],
      "stateMutability": "view",
      "type": "function"
    },
    {
      "inputs": [
        {
          "internalType": "uint256",
          "name": "lobbyId",
          "type": "uint256"
        }
      ],
      "name": "getLobbyHeroes",
      "outputs": [
        {
          "internalType": "address",
          "name": "",
          "type": "address"
        },
        {
          "internalType": "uint256[]",
          "name": "",
          "type": "uint256[]"
        },
        {
          "internalType": "address",
          "name": "",
          "type": "address"
        },
        {
          "internalType": "uint256[]",
          "name": "",
          "type": "uint256[]"
        }
      ],
      "stateMutability": "view",
      "type": "function"
    },
    {
      "inputs": [
        {
          "internalType": "uint256",
          "name": "lobbyId",
          "type": "uint256"
        }
      ],
      "name": "getLobbyPower",
      "outputs": [
        {
          "internalType": "address",
          "name": "",
          "type": "address"
        },
        {
          "internalType": "uint256",
          "name": "",
          "type": "uint256"
        },
        {
          "internalType": "address",
          "name": "",
          "type": "address"
        },
        {
          "internalType": "uint256",
          "name": "",
          "type": "uint256"
        }
      ],
      "stateMutability": "view",
      "type": "function"
    },
    {
      "inputs": [
        {
          "internalType": "address",
          "name": "myAddr",
          "type": "address"
        },
        {
          "internalType": "uint256",
          "name": "capacity",
          "type": "uint256"
        }
      ],
      "name": "getMyHistory",
      "outputs": [
        {
          "internalType": "uint256[]",
          "name": "",
          "type": "uint256[]"
        }
      ],
      "stateMutability": "view",
      "type": "function"
    },
    {
      "inputs": [
        {
          "internalType": "address",
          "name": "myAddr",
          "type": "address"
        },
        {
          "internalType": "uint256",
          "name": "capacity",
          "type": "uint256"
        }
      ],
      "name": "getMyLobbies",
      "outputs": [
        {
          "internalType": "uint256[]",
          "name": "",
          "type": "uint256[]"
        }
      ],
      "stateMutability": "view",
      "type": "function"
    },
    {
      "inputs": [
        {
          "internalType": "uint256",
          "name": "lobbyId",
          "type": "uint256"
        },
        {
          "internalType": "address",
          "name": "player",
          "type": "address"
        }
      ],
      "name": "getPlayerHeroesOnLobby",
      "outputs": [
        {
          "internalType": "uint256[]",
          "name": "",
          "type": "uint256[]"
        }
      ],
      "stateMutability": "view",
      "type": "function"
    },
    {
      "inputs": [],
      "name": "heroManager",
      "outputs": [
        {
          "internalType": "contract IHeroManager",
          "name": "",
          "type": "address"
        }
      ],
      "stateMutability": "view",
      "type": "function"
    },
    {
      "inputs": [
        {
          "internalType": "uint256",
          "name": "lobbyId",
          "type": "uint256"
        },
        {
          "internalType": "uint256[]",
          "name": "heroIds",
          "type": "uint256[]"
        }
      ],
      "name": "joinLobby",
      "outputs": [],
      "stateMutability": "nonpayable",
      "type": "function"
    },
    {
      "inputs": [
        {
          "internalType": "uint256",
          "name": "",
          "type": "uint256"
        }
      ],
      "name": "lobbies",
      "outputs": [
        {
          "internalType": "bytes32",
          "name": "name",
          "type": "bytes32"
        },
        {
          "internalType": "bytes32",
          "name": "avatar",
          "type": "bytes32"
        },
        {
          "internalType": "address",
          "name": "host",
          "type": "address"
        },
        {
          "internalType": "address",
          "name": "client",
          "type": "address"
        },
        {
          "internalType": "uint256",
          "name": "id",
          "type": "uint256"
        },
        {
          "internalType": "uint256",
          "name": "capacity",
          "type": "uint256"
        },
        {
          "internalType": "uint256",
          "name": "startedAt",
          "type": "uint256"
        },
        {
          "internalType": "uint256",
          "name": "finishedAt",
          "type": "uint256"
        },
        {
          "internalType": "uint256",
          "name": "winner",
          "type": "uint256"
        },
        {
          "internalType": "uint256",
          "name": "fee",
          "type": "uint256"
        },
        {
          "internalType": "uint256",
          "name": "rewards",
          "type": "uint256"
        }
      ],
      "stateMutability": "view",
      "type": "function"
    },
    {
      "inputs": [
        {
          "internalType": "uint256",
          "name": "",
          "type": "uint256"
        }
      ],
      "name": "lobbyFees",
      "outputs": [
        {
          "internalType": "uint256",
          "name": "",
          "type": "uint256"
        }
      ],
      "stateMutability": "view",
      "type": "function"
    },
    {
      "inputs": [
        {
          "internalType": "uint256",
          "name": "",
          "type": "uint256"
        },
        {
          "internalType": "address",
          "name": "",
          "type": "address"
        },
        {
          "internalType": "uint256",
          "name": "",
          "type": "uint256"
        }
      ],
      "name": "lobbyHeroes",
      "outputs": [
        {
          "internalType": "uint256",
          "name": "",
          "type": "uint256"
        }
      ],
      "stateMutability": "view",
      "type": "function"
    },
    {
      "inputs": [
        {
          "internalType": "bytes[]",
          "name": "data",
          "type": "bytes[]"
        }
      ],
      "name": "multicall",
      "outputs": [
        {
          "internalType": "bytes[]",
          "name": "results",
          "type": "bytes[]"
        }
      ],
      "stateMutability": "nonpayable",
      "type": "function"
    },
    {
      "inputs": [],
      "name": "owner",
      "outputs": [
        {
          "internalType": "address",
          "name": "",
          "type": "address"
        }
      ],
      "stateMutability": "view",
      "type": "function"
    },
    {
      "inputs": [
        {
          "internalType": "address",
          "name": "",
          "type": "address"
        }
      ],
      "name": "playersFees",
      "outputs": [
        {
          "internalType": "uint256",
          "name": "",
          "type": "uint256"
        }
      ],
      "stateMutability": "view",
      "type": "function"
    },
    {
      "inputs": [
        {
          "internalType": "address",
          "name": "",
          "type": "address"
        }
      ],
      "name": "playersRewards",
      "outputs": [
        {
          "internalType": "uint256",
          "name": "",
          "type": "uint256"
        }
      ],
      "stateMutability": "view",
      "type": "function"
    },
    {
      "inputs": [
        {
          "internalType": "uint256",
          "name": "min",
          "type": "uint256"
        },
        {
          "internalType": "uint256",
          "name": "max",
          "type": "uint256"
        }
      ],
      "name": "random",
      "outputs": [
        {
          "internalType": "uint256",
          "name": "",
          "type": "uint256"
        }
      ],
      "stateMutability": "view",
      "type": "function"
    },
    {
      "inputs": [
        {
          "internalType": "address",
          "name": "",
          "type": "address"
        }
      ],
      "name": "registeredPlayers",
      "outputs": [
        {
          "internalType": "bool",
          "name": "",
          "type": "bool"
        }
      ],
      "stateMutability": "view",
      "type": "function"
    },
    {
      "inputs": [],
      "name": "renounceOwnership",
      "outputs": [],
      "stateMutability": "nonpayable",
      "type": "function"
    },
    {
      "inputs": [],
      "name": "rewardsPayeer",
      "outputs": [
        {
          "internalType": "address",
          "name": "",
          "type": "address"
        }
      ],
      "stateMutability": "view",
      "type": "function"
    },
    {
      "inputs": [
        {
          "internalType": "uint256",
          "name": "multiplier",
          "type": "uint256"
        }
      ],
      "name": "setBenefitMultiplier",
      "outputs": [],
      "stateMutability": "nonpayable",
      "type": "function"
    },
    {
      "inputs": [
        {
          "internalType": "address",
          "name": "hmAddr",
          "type": "address"
        }
      ],
      "name": "setHeroManager",
      "outputs": [],
      "stateMutability": "nonpayable",
      "type": "function"
    },
    {
      "inputs": [
        {
          "internalType": "uint256",
          "name": "capacity",
          "type": "uint256"
        },
        {
          "internalType": "uint256",
          "name": "fee",
          "type": "uint256"
        }
      ],
      "name": "setLobbyFee",
      "outputs": [],
      "stateMutability": "nonpayable",
      "type": "function"
    },
    {
      "inputs": [
        {
          "internalType": "address",
          "name": "payer",
          "type": "address"
        }
      ],
      "name": "setRewardsPayeer",
      "outputs": [],
      "stateMutability": "nonpayable",
      "type": "function"
    },
    {
      "inputs": [],
      "name": "totalPlayers",
      "outputs": [
        {
          "internalType": "uint256",
          "name": "",
          "type": "uint256"
        }
      ],
      "stateMutability": "view",
      "type": "function"
    },
    {
      "inputs": [
        {
          "internalType": "address",
          "name": "newOwner",
          "type": "address"
        }
      ],
      "name": "transferOwnership",
      "outputs": [],
      "stateMutability": "nonpayable",
      "type": "function"
    },
    {
      "inputs": [
        {
          "internalType": "uint256",
          "name": "",
          "type": "uint256"
        }
      ],
      "name": "uniquePlayers",
      "outputs": [
        {
          "internalType": "address",
          "name": "",
          "type": "address"
        }
      ],
      "stateMutability": "view",
      "type": "function"
    }
  ],
  "bytecode": "0x6080604052600380546001600160a01b031916730cca7943409260455ceef6be46c69b3fc808e24f17905560fa60045534801561003b57600080fd5b50610045336100db565b600c60205269010f0cf064dd592000007fd421a5181c571bba3f01190c922c3b2a896fc1d84e86c9f17ac10e67ebef8b5c5569054b40b1f852bda000007fc0da782485e77ae272268ae0a3ff44c1552ecb60b3743924de17a815e0a3cfd7556005600052690a968163f0a57b4000007f2cd9ebf6ff19cdd7ffcc447d7c7d47b5991f5c7392a04512134e765802361fa65561012b565b600080546001600160a01b038381166001600160a01b0319831681178455604051919092169283917f8be0079c531659141344cd1fd0a4f28419497f9722a3daafe3b4186f6b6457e09190a35050565b612fb4806200013b6000396000f3fe608060405234801561001057600080fd5b50600436106101e45760003560e01c80637c0b8de21161010f578063b97dcb22116100a2578063e4118fca11610071578063e4118fca146105b7578063ed697f32146105ca578063f2fde38b146105dd578063f60cdcf6146105f057600080fd5b8063b97dcb2214610549578063b9f2d5201461055c578063c4ee3a4a1461057c578063c8f942701461059757600080fd5b806394f69662116100de57806394f69662146104bb578063a9dd1225146104ce578063ac9650d8146104e1578063b12f5c571461050157600080fd5b80637c0b8de214610453578063833588cc1461046e5780638da5cb5b14610481578063930613fc1461049257600080fd5b80633b8a7a13116101875780636bd2dc85116101565780636bd2dc85146103465780636e8fb4c614610366578063715018a6146104385780637407fddd1461044057600080fd5b80633b8a7a13146102da57806345efd785146102ed5780634bafce22146103005780634d5f80ad1461033357600080fd5b806316fc989c116101c357806316fc989c146102555780631deb8c441461029457806328b11d23146102b4578063378cc347146102c757600080fd5b8062c8bd7e146101e957806307a48c19146101fe57806311ce406d1461022a575b600080fd5b6101fc6101f736600461299a565b6105f9565b005b61021161020c3660046129e6565b610e0b565b6040516102219493929190612a3a565b60405180910390f35b60035461023d906001600160a01b031681565b6040516001600160a01b039091168152602001610221565b610286610263366004612a97565b600a60209081526000938452604080852082529284528284209052825290205481565b604051908152602001610221565b6102a76102a2366004612acf565b610e5f565b6040516102219190612afb565b6101fc6102c23660046129e6565b610fe8565b6101fc6102d5366004612b0e565b611017565b60025461023d906001600160a01b031681565b6102a76102fb3660046129e6565b611063565b61032361030e366004612b0e565b60076020526000908152604090205460ff1681565b6040519015158152602001610221565b6102a7610341366004612acf565b611199565b610286610354366004612b0e565b60096020526000908152604090205481565b6103d96103743660046129e6565b600b60205260009081526040902080546001820154600283015460038401546004850154600586015460068701546007880154600889015460098a0154600a909a0154989997986001600160a01b03978816989790961696949593949293919290918b565b604080519b8c5260208c019a909a526001600160a01b03988916998b0199909952969095166060890152608088019390935260a087019190915260c086015260e085015261010084015261012083015261014082015261016001610221565b6101fc611314565b6102a761044e366004612acf565b61134a565b61023d7376b713ff56b9cad82b2820202537a98182b5a0ec81565b6101fc61047c366004612b2b565b611513565b6000546001600160a01b031661023d565b61023d6104a03660046129e6565b6006602052600090815260409020546001600160a01b031681565b6101fc6104c9366004612b4d565b61154f565b6102866104dc366004612b2b565b6119d9565b6104f46104ef366004612bae565b611a8b565b6040516102219190612c4c565b61051461050f3660046129e6565b611b80565b60405161022194939291906001600160a01b039485168152602081019390935292166040820152606081019190915260800190565b6102a7610557366004612cae565b611d24565b61028661056a3660046129e6565b600c6020526000908152604090205481565b61023d7328ee3e2826264b9c55fcdd122dfa93680916c9b881565b6102866105a5366004612b0e565b60086020526000908152604090205481565b6101fc6105c5366004612b0e565b611e0f565b6102866105d8366004612cf4565b611e5b565b6101fc6105eb366004612b0e565b611f1a565b61028660055481565b6000838152600b60205260409020600281015460035460059092015433926001600160a01b03928316921690610630868686611fb5565b5061063b86866120d7565b506000878152600b602052604090206004015487146106a15760405162461bcd60e51b815260206004820181905260248201527f4c6f626279426174746c653a206c6f62627920646f65736e277420657869737460448201526064015b60405180910390fd5b8085146106f05760405162461bcd60e51b815260206004820152601960248201527f4c6f626279426174746c653a2077726f6e67206865726f6573000000000000006044820152606401610698565b6000878152600b60205260409020600701541561074f5760405162461bcd60e51b815260206004820152601d60248201527f4c6f626279426174746c653a20616c72656164792066696e69736865640000006044820152606401610698565b6000818152600c6020526040908190205490516323b872dd60e01b81526001600160a01b03808716600483015284166024820152604481018290527328ee3e2826264b9c55fcdd122dfa93680916c9b8906323b872dd90606401602060405180830381600087803b1580156107c357600080fd5b505af11580156107d7573d6000803e3d6000fd5b505050506040513d601f19601f820116820180604052508101906107fb9190612da6565b6108475760405162461bcd60e51b815260206004820152601b60248201527f4c6f626279426174746c653a206e6f7420656e6f7567682066656500000000006044820152606401610698565b6001600160a01b03851660009081526007602052604090205460ff166108b557600554600081815260066020908152604080832080546001600160a01b0319166001600160a01b038b16908117909155835260079091529020805460ff191660019081179091558101600555505b6001600160a01b03851660008181526008602090815260408083208054860190558b8352600b90915281206003810180546001600160a01b0319169093179092554260079092019190915561090a8986611d24565b9050600061092e6064610928600454866121e190919063ffffffff16565b906121e5565b60008b8152600b60205260409020600a0181905590506001841415610dff57600061098c838b8b808060200260200160405190810160405280939291908181526020018383602002808284376000920191909152506121fe92505050565b60008c8152600b6020526040902060080181905590506001811415610ade5760025483516001600160a01b039091169063b0a04efa9085906000906109d3576109d3612dc8565b602002602001015160016040518363ffffffff1660e01b8152600401610a059291909182521515602082015260400190565b600060405180830381600087803b158015610a1f57600080fd5b505af1158015610a33573d6000803e3d6000fd5b50506002546001600160a01b0316915063b0a04efa90508b8b600081610a5b57610a5b612dc8565b6040516001600160e01b031960e086901b1681526020909102929092013560048301525060006024820152604401600060405180830381600087803b158015610aa357600080fd5b505af1158015610ab7573d6000803e3d6000fd5b505050506001600160a01b0387166000908152600960205260409020805483019055610c0d565b60025483516001600160a01b039091169063b0a04efa908590600090610b0657610b06612dc8565b602002602001015160006040518363ffffffff1660e01b8152600401610b389291909182521515602082015260400190565b600060405180830381600087803b158015610b5257600080fd5b505af1158015610b66573d6000803e3d6000fd5b50506002546001600160a01b0316915063b0a04efa90508b8b600081610b8e57610b8e612dc8565b6040516001600160e01b031960e086901b1681526020909102929092013560048301525060016024820152604401600060405180830381600087803b158015610bd657600080fd5b505af1158015610bea573d6000803e3d6000fd5b505050506001600160a01b03881660009081526009602052604090208054830190555b89896000818110610c2057610c20612dc8565b90506020020135600a60008d815260200190815260200160002060008a6001600160a01b03166001600160a01b03168152602001908152602001600020600080815260200190815260200160002081905550600260009054906101000a90046001600160a01b03166001600160a01b0316634239ca308b8b6000818110610ca957610ca9612dc8565b905060200201356040518263ffffffff1660e01b8152600401610cce91815260200190565b600060405180830381600087803b158015610ce857600080fd5b505af1158015610cfc573d6000803e3d6000fd5b505050507328ee3e2826264b9c55fcdd122dfa93680916c9b86001600160a01b03166323b872dd8783600114610d32578a610d34565b895b6040516001600160e01b031960e085901b1681526001600160a01b0392831660048201529116602482015260448101859052606401602060405180830381600087803b158015610d8357600080fd5b505af1158015610d97573d6000803e3d6000fd5b505050506040513d601f19601f82011682018060405250810190610dbb9190612da6565b50876001600160a01b0316876001600160a01b03168c7fc77dc6cd4b51c8efc4af40a582ca4cf229fda505a830b4486b200ddcbdb1383f60405160405180910390a4505b50505050505050505050565b6000818152600b602052604081206002810154600390910154606091839183916001600160a01b03908116911681610e438882611d24565b82610e4e8a85611d24565b955095509550955050509193509193565b6060600060015b6001548111610eec576000818152600b6020526040902060070154158015610e9e57506000818152600b602052604090206005015484145b8015610ec757506000818152600b60205260409020600201546001600160a01b03868116911614155b15610eda5781610ed681612df4565b9250505b80610ee481612df4565b915050610e66565b506000808267ffffffffffffffff811115610f0957610f09612cde565b604051908082528060200260200182016040528015610f32578160200160208202803683370190505b50905060015b6001548111610fdc576000818152600b6020526040902060070154158015610f7057506000818152600b602052604090206005015486145b8015610f9957506000818152600b60205260409020600201546001600160a01b03888116911614155b15610fca5780828481518110610fb157610fb1612dc8565b602090810291909101015282610fc681612df4565b9350505b80610fd481612df4565b915050610f38565b50925050505b92915050565b6000546001600160a01b031633146110125760405162461bcd60e51b815260040161069890612e0f565b600455565b6000546001600160a01b031633146110415760405162461bcd60e51b815260040161069890612e0f565b600280546001600160a01b0319166001600160a01b0392909216919091179055565b6060600060015b60015481116110c8576000818152600b6020526040902060070154158015906110a357506000818152600b602052604090206005015484145b156110b657816110b281612df4565b9250505b806110c081612df4565b91505061106a565b506000808267ffffffffffffffff8111156110e5576110e5612cde565b60405190808252806020026020018201604052801561110e578160200160208202803683370190505b50905060015b6001548111611190576000818152600b60205260409020600701541580159061114d57506000818152600b602052604090206005015486145b1561117e578082848151811061116557611165612dc8565b60209081029190910101528261117a81612df4565b9350505b8061118881612df4565b915050611114565b50949350505050565b6060600060015b6001548111611225576000818152600b60205260409020600701541580156111d857506000818152600b602052604090206005015484145b801561120057506000818152600b60205260409020600201546001600160a01b038681169116145b15611213578161120f81612df4565b9250505b8061121d81612df4565b9150506111a0565b506000808267ffffffffffffffff81111561124257611242612cde565b60405190808252806020026020018201604052801561126b578160200160208202803683370190505b50905060015b6001548111610fdc576000818152600b60205260409020600701541580156112a957506000818152600b602052604090206005015486145b80156112d157506000818152600b60205260409020600201546001600160a01b038881169116145b1561130257808284815181106112e9576112e9612dc8565b6020908102919091010152826112fe81612df4565b9350505b8061130c81612df4565b915050611271565b6000546001600160a01b0316331461133e5760405162461bcd60e51b815260040161069890612e0f565b61134860006127c8565b565b6060600060015b60015481116113fd576000818152600b60205260409020600701541580159061138a57506000818152600b602052604090206005015484145b80156113d857506000818152600b60205260409020600201546001600160a01b03868116911614806113d857506000818152600b60205260409020600301546001600160a01b038681169116145b156113eb57816113e781612df4565b9250505b806113f581612df4565b915050611351565b506000808267ffffffffffffffff81111561141a5761141a612cde565b604051908082528060200260200182016040528015611443578160200160208202803683370190505b50905060015b6001548111610fdc576000818152600b60205260409020600701541580159061148257506000818152600b602052604090206005015486145b80156114d057506000818152600b60205260409020600201546001600160a01b03888116911614806114d057506000818152600b60205260409020600301546001600160a01b038881169116145b1561150157808284815181106114e8576114e8612dc8565b6020908102919091010152826114fd81612df4565b9350505b8061150b81612df4565b915050611449565b6000546001600160a01b0316331461153d5760405162461bcd60e51b815260040161069890612e0f565b6000918252600c602052604090912055565b6000838152600c6020526040902054339061156b848484611fb5565b5061157684846120d7565b508483146115c65760405162461bcd60e51b815260206004820152601d60248201527f4c6f626279426174746c653a2077726f6e6720706172616d65746572730000006044820152606401610698565b600081116116205760405162461bcd60e51b815260206004820152602160248201527f4c6f626279426174746c653a2077726f6e67206c6f62627920636170616369746044820152607960f81b6064820152608401610698565b6003546040516323b872dd60e01b81526001600160a01b0380851660048301529091166024820152604481018290527328ee3e2826264b9c55fcdd122dfa93680916c9b8906323b872dd90606401602060405180830381600087803b15801561168857600080fd5b505af115801561169c573d6000803e3d6000fd5b505050506040513d601f19601f820116820180604052508101906116c09190612da6565b61170c5760405162461bcd60e51b815260206004820152601b60248201527f4c6f626279426174746c653a206e6f7420656e6f7567682066656500000000006044820152606401610698565b6001600160a01b03821660009081526007602052604090205460ff1661177a57600554600081815260066020908152604080832080546001600160a01b0319166001600160a01b038816908117909155835260079091529020805460ff191660019081179091558101600555505b6001600160a01b03821660009081526008602052604090205481016001600160a01b0383166000908152600860205260408120919091556001805401905060006040518061016001604052808a8152602001898152602001856001600160a01b0316815260200160006001600160a01b0316815260200183815260200188815260200142815260200160008152602001600081526020018481526020016000815250905080600b6000848152602001908152602001600020600082015181600001556020820151816001015560408201518160020160006101000a8154816001600160a01b0302191690836001600160a01b0316021790555060608201518160030160006101000a8154816001600160a01b0302191690836001600160a01b031602179055506080820151816004015560a0820151816005015560c0820151816006015560e082015181600701556101008201518160080155610120820151816009015561014082015181600a015590505060005b858110156119cb5786868281811061190957611909612dc8565b6000868152600a602090815260408083206001600160a01b03808d168552908352818420888552835292209202939093013590555060025416634239ca3088888481811061195957611959612dc8565b905060200201356040518263ffffffff1660e01b815260040161197e91815260200190565b600060405180830381600087803b15801561199857600080fd5b505af11580156119ac573d6000803e3d6000fd5b505050506119c46001826121dd90919063ffffffff16565b90506118ef565b505060015550505050505050565b6000804442336000356001600160e01b0319165a6040805160208101969096528501939093526bffffffffffffffffffffffff19606092831b16918401919091526001600160e01b031916607483015260788201526098810185905260b8810184905260d80160408051601f198184030181529190528051602090910120905083611a648185612e44565b611a6f906001612e5b565b611a799083612e89565b611a839190612e5b565b949350505050565b60608167ffffffffffffffff811115611aa657611aa6612cde565b604051908082528060200260200182016040528015611ad957816020015b6060815260200190600190039081611ac45790505b50905060005b82811015611b7957611b4930858584818110611afd57611afd612dc8565b9050602002810190611b0f9190612eab565b8080601f01602080910402602001604051908101604052809392919081815260200183838082843760009201919091525061281892505050565b828281518110611b5b57611b5b612dc8565b60200260200101819052508080611b7190612df4565b915050611adf565b5092915050565b600080600080600080600080611b9589610e0b565b935093509350935060008060005b8551811015611d115760025486516000916001600160a01b03169063d5c1ed8a90899085908110611bd657611bd6612dc8565b60200260200101516040518263ffffffff1660e01b8152600401611bfc91815260200190565b60206040518083038186803b158015611c1457600080fd5b505afa158015611c28573d6000803e3d6000fd5b505050506040513d601f19601f82011682018060405250810190611c4c9190612ef2565b9384019390506001600160a01b03861615611d085760025485516000916001600160a01b03169063d5c1ed8a90889086908110611c8b57611c8b612dc8565b60200260200101516040518263ffffffff1660e01b8152600401611cb191815260200190565b60206040518083038186803b158015611cc957600080fd5b505afa158015611cdd573d6000803e3d6000fd5b505050506040513d601f19601f82011682018060405250810190611d019190612ef2565b9390930192505b50600101611ba3565b50949a9099509197509295509350505050565b606060005b6000848152600a602090815260408083206001600160a01b0387168452825280832084845290915290205415611d6b5780611d6381612df4565b915050611d29565b60008167ffffffffffffffff811115611d8657611d86612cde565b604051908082528060200260200182016040528015611daf578160200160208202803683370190505b50905060005b82811015611190576000868152600a602090815260408083206001600160a01b038916845282528083208484529091529020548251839083908110611dfc57611dfc612dc8565b6020908102919091010152600101611db5565b6000546001600160a01b03163314611e395760405162461bcd60e51b815260040161069890612e0f565b600380546001600160a01b0319166001600160a01b0392909216919091179055565b60008060005b8351811015611b79576002548451611f10916001600160a01b03169063d5c1ed8a90879085908110611e9557611e95612dc8565b60200260200101516040518263ffffffff1660e01b8152600401611ebb91815260200190565b60206040518083038186803b158015611ed357600080fd5b505afa158015611ee7573d6000803e3d6000fd5b505050506040513d601f19601f82011682018060405250810190611f0b9190612ef2565b830190565b9150600101611e61565b6000546001600160a01b03163314611f445760405162461bcd60e51b815260040161069890612e0f565b6001600160a01b038116611fa95760405162461bcd60e51b815260206004820152602660248201527f4f776e61626c653a206e6577206f776e657220697320746865207a65726f206160448201526564647265737360d01b6064820152608401610698565b611fb2816127c8565b50565b6000805b838110156120ca576001600160a01b0383167376b713ff56b9cad82b2820202537a98182b5a0ec636352211e878785818110611ff757611ff7612dc8565b905060200201356040518263ffffffff1660e01b815260040161201c91815260200190565b60206040518083038186803b15801561203457600080fd5b505afa158015612048573d6000803e3d6000fd5b505050506040513d601f19601f8201168201806040525081019061206c9190612f0b565b6001600160a01b0316146120c25760405162461bcd60e51b815260206004820152601b60248201527f4c6f626279426174746c653a206e6f74206865726f206f776e657200000000006044820152606401610698565b600101611fb9565b50600190505b9392505050565b6000805b828110156121d3576002546000906001600160a01b0316632a18bdfe86868581811061210957612109612dc8565b905060200201356040518263ffffffff1660e01b815260040161212e91815260200190565b60206040518083038186803b15801561214657600080fd5b505afa15801561215a573d6000803e3d6000fd5b505050506040513d601f19601f8201168201806040525081019061217e9190612ef2565b116121cb5760405162461bcd60e51b815260206004820152601e60248201527f4c6f626279426174746c653a206e6f7420656e6f75676820656e6572677900006044820152606401610698565b6001016120db565b5060019392505050565b0190565b0290565b60008183816121f6576121f6612e73565b049392505050565b6000808360008151811061221457612214612dc8565b6020026020010151905060008360008151811061223357612233612dc8565b6020908102919091010151600254604051636ae0f6c560e11b8152600481018590529192506000916001600160a01b039091169063d5c1ed8a9060240160206040518083038186803b15801561228857600080fd5b505afa15801561229c573d6000803e3d6000fd5b505050506040513d601f19601f820116820180604052508101906122c09190612ef2565b600254604051636ae0f6c560e11b8152600481018590529192506000916001600160a01b039091169063d5c1ed8a9060240160206040518083038186803b15801561230a57600080fd5b505afa15801561231e573d6000803e3d6000fd5b505050506040513d601f19601f820116820180604052508101906123429190612ef2565b60025460405163f3d1b5ab60e01b8152600481018790529192506000916001600160a01b039091169063f3d1b5ab9060240160206040518083038186803b15801561238c57600080fd5b505afa1580156123a0573d6000803e3d6000fd5b505050506040513d601f19601f820116820180604052508101906123c49190612ef2565b600254604051630a36d40b60e01b8152600481018890529192506000916001600160a01b0390911690630a36d40b9060240160206040518083038186803b15801561240e57600080fd5b505afa158015612422573d6000803e3d6000fd5b505050506040513d601f19601f820116820180604052508101906124469190612ef2565b60025460405163f3d1b5ab60e01b8152600481018890529192506000916001600160a01b039091169063f3d1b5ab9060240160206040518083038186803b15801561249057600080fd5b505afa1580156124a4573d6000803e3d6000fd5b505050506040513d601f19601f820116820180604052508101906124c89190612ef2565b600254604051630a36d40b60e01b8152600481018990529192506000916001600160a01b0390911690630a36d40b9060240160206040518083038186803b15801561251257600080fd5b505afa158015612526573d6000803e3d6000fd5b505050506040513d601f19601f8201168201806040525081019061254a9190612ef2565b9050818414156126ab57808311156125f5578486111561257557600198505050505050505050610fe2565b848614156125b957600061258b600160646119d9565b9050603c81116125a75760019950505050505050505050610fe2565b60029950505050505050505050610fe2565b60006125c7600160646119d9565b9050604681116125e35760029950505050505050505050610fe2565b60019950505050505050505050610fe2565b80831415612652578486111561262f576000612613600160646119d9565b9050604681116125a75760019950505050505050505050610fe2565b848614156125b957612643600160026119d9565b98505050505050505050610fe2565b8486101561266b57600298505050505050505050610fe2565b8486141561269d576000612681600160646119d9565b9050603c81116125e35760029950505050505050505050610fe2565b6000612613600160646119d9565b8083141561272457848611156126e65760006126c9600160646119d9565b905060468111156125a75760019950505050505050505050610fe2565b848614156126fa57612643600160026119d9565b6000612708600160646119d9565b9050601481116125a75760019950505050505050505050610fe2565b8083111561276f578486111561274557600198505050505050505050610fe2565b6000612753600160646119d9565b9050602881116125a75760019950505050505050505050610fe2565b8486101561278857600298505050505050505050610fe2565b848614156127ba57600061279e600160646119d9565b9050601e81116125a75760019950505050505050505050610fe2565b600061258b600160646119d9565b600080546001600160a01b038381166001600160a01b0319831681178455604051919092169283917f8be0079c531659141344cd1fd0a4f28419497f9722a3daafe3b4186f6b6457e09190a35050565b60606120d08383604051806060016040528060278152602001612f586027913960606001600160a01b0384163b6128a05760405162461bcd60e51b815260206004820152602660248201527f416464726573733a2064656c65676174652063616c6c20746f206e6f6e2d636f6044820152651b9d1c9858dd60d21b6064820152608401610698565b600080856001600160a01b0316856040516128bb9190612f28565b600060405180830381855af49150503d80600081146128f6576040519150601f19603f3d011682016040523d82523d6000602084013e6128fb565b606091505b509150915061290b828286612915565b9695505050505050565b606083156129245750816120d0565b8251156129345782518084602001fd5b8160405162461bcd60e51b81526004016106989190612f44565b60008083601f84011261296057600080fd5b50813567ffffffffffffffff81111561297857600080fd5b6020830191508360208260051b850101111561299357600080fd5b9250929050565b6000806000604084860312156129af57600080fd5b83359250602084013567ffffffffffffffff8111156129cd57600080fd5b6129d98682870161294e565b9497909650939450505050565b6000602082840312156129f857600080fd5b5035919050565b600081518084526020808501945080840160005b83811015612a2f57815187529582019590820190600101612a13565b509495945050505050565b600060018060a01b03808716835260806020840152612a5c60808401876129ff565b81861660408501528381036060850152612a7681866129ff565b98975050505050505050565b6001600160a01b0381168114611fb257600080fd5b600080600060608486031215612aac57600080fd5b833592506020840135612abe81612a82565b929592945050506040919091013590565b60008060408385031215612ae257600080fd5b8235612aed81612a82565b946020939093013593505050565b6020815260006120d060208301846129ff565b600060208284031215612b2057600080fd5b81356120d081612a82565b60008060408385031215612b3e57600080fd5b50508035926020909101359150565b600080600080600060808688031215612b6557600080fd5b853594506020860135935060408601359250606086013567ffffffffffffffff811115612b9157600080fd5b612b9d8882890161294e565b969995985093965092949392505050565b60008060208385031215612bc157600080fd5b823567ffffffffffffffff811115612bd857600080fd5b612be48582860161294e565b90969095509350505050565b60005b83811015612c0b578181015183820152602001612bf3565b83811115612c1a576000848401525b50505050565b60008151808452612c38816020860160208601612bf0565b601f01601f19169290920160200192915050565b6000602080830181845280855180835260408601915060408160051b870101925083870160005b82811015612ca157603f19888603018452612c8f858351612c20565b94509285019290850190600101612c73565b5092979650505050505050565b60008060408385031215612cc157600080fd5b823591506020830135612cd381612a82565b809150509250929050565b634e487b7160e01b600052604160045260246000fd5b60006020808385031215612d0757600080fd5b823567ffffffffffffffff80821115612d1f57600080fd5b818501915085601f830112612d3357600080fd5b813581811115612d4557612d45612cde565b8060051b604051601f19603f83011681018181108582111715612d6a57612d6a612cde565b604052918252848201925083810185019188831115612d8857600080fd5b938501935b82851015612a7657843584529385019392850192612d8d565b600060208284031215612db857600080fd5b815180151581146120d057600080fd5b634e487b7160e01b600052603260045260246000fd5b634e487b7160e01b600052601160045260246000fd5b6000600019821415612e0857612e08612dde565b5060010190565b6020808252818101527f4f776e61626c653a2063616c6c6572206973206e6f7420746865206f776e6572604082015260600190565b600082821015612e5657612e56612dde565b500390565b60008219821115612e6e57612e6e612dde565b500190565b634e487b7160e01b600052601260045260246000fd5b600082612ea657634e487b7160e01b600052601260045260246000fd5b500690565b6000808335601e19843603018112612ec257600080fd5b83018035915067ffffffffffffffff821115612edd57600080fd5b60200191503681900382131561299357600080fd5b600060208284031215612f0457600080fd5b5051919050565b600060208284031215612f1d57600080fd5b81516120d081612a82565b60008251612f3a818460208701612bf0565b9190910192915050565b6020815260006120d06020830184612c2056fe416464726573733a206c6f772d6c6576656c2064656c65676174652063616c6c206661696c6564a2646970667358221220de572b10b30b37a5dfcca417f8f06ca5c3de922b29e879de3ae355a45e04914e64736f6c63430008090033",
  "linkReferences": {},
  "deployedLinkReferences": {}
}