{
  "_format": "hh-sol-artifact-1",
  "contractName": "LobbyBattle",
  "sourceName": "contracts/game/LobbyBattle.sol",
  "abi": [
    {
      "inputs": [
        {
          "internalType": "address",
          "name": "heroManagerAddress",
          "type": "address"
        }
      ],
      "stateMutability": "nonpayable",
      "type": "constructor"
    },
    {
      "anonymous": false,
      "inputs": [
        {
          "indexed": true,
          "internalType": "address",
          "name": "previousOwner",
          "type": "address"
        },
        {
          "indexed": true,
          "internalType": "address",
          "name": "newOwner",
          "type": "address"
        }
      ],
      "name": "OwnershipTransferred",
      "type": "event"
    },
    {
      "inputs": [
        {
          "internalType": "uint256",
          "name": "capacity",
          "type": "uint256"
        },
        {
          "internalType": "uint256[]",
          "name": "heroIds",
          "type": "uint256[]"
        }
      ],
      "name": "createLobby",
      "outputs": [],
      "stateMutability": "nonpayable",
      "type": "function"
    },
    {
      "inputs": [
        {
          "internalType": "address",
          "name": "account",
          "type": "address"
        },
        {
          "internalType": "uint8",
          "name": "hostOrClient",
          "type": "uint8"
        },
        {
          "internalType": "uint8",
          "name": "runningOrDone",
          "type": "uint8"
        }
      ],
      "name": "getLobbies",
      "outputs": [
        {
          "internalType": "uint256[]",
          "name": "",
          "type": "uint256[]"
        }
      ],
      "stateMutability": "view",
      "type": "function"
    },
    {
      "inputs": [],
      "name": "heroManager",
      "outputs": [
        {
          "internalType": "contract IHeroManager",
          "name": "",
          "type": "address"
        }
      ],
      "stateMutability": "view",
      "type": "function"
    },
    {
      "inputs": [
        {
          "internalType": "uint256",
          "name": "lobbyId",
          "type": "uint256"
        },
        {
          "internalType": "uint256[]",
          "name": "heroIds",
          "type": "uint256[]"
        }
      ],
      "name": "joinLobby",
      "outputs": [],
      "stateMutability": "nonpayable",
      "type": "function"
    },
    {
      "inputs": [
        {
          "internalType": "uint256",
          "name": "",
          "type": "uint256"
        }
      ],
      "name": "lobbies",
      "outputs": [
        {
          "internalType": "uint256",
          "name": "id",
          "type": "uint256"
        },
        {
          "internalType": "address",
          "name": "host",
          "type": "address"
        },
        {
          "internalType": "address",
          "name": "client",
          "type": "address"
        },
        {
          "internalType": "uint256",
          "name": "capacity",
          "type": "uint256"
        },
        {
          "internalType": "uint256",
          "name": "startedAt",
          "type": "uint256"
        },
        {
          "internalType": "uint256",
          "name": "finishedAt",
          "type": "uint256"
        },
        {
          "internalType": "uint8",
          "name": "winner",
          "type": "uint8"
        }
      ],
      "stateMutability": "view",
      "type": "function"
    },
    {
      "inputs": [
        {
          "internalType": "uint256",
          "name": "",
          "type": "uint256"
        },
        {
          "internalType": "address",
          "name": "",
          "type": "address"
        }
      ],
      "name": "lobbiesRefreshed",
      "outputs": [
        {
          "internalType": "uint256",
          "name": "updatedAt",
          "type": "uint256"
        },
        {
          "internalType": "uint8",
          "name": "limit",
          "type": "uint8"
        }
      ],
      "stateMutability": "view",
      "type": "function"
    },
    {
      "inputs": [
        {
          "internalType": "uint256",
          "name": "",
          "type": "uint256"
        }
      ],
      "name": "lobbyFees",
      "outputs": [
        {
          "internalType": "uint256",
          "name": "",
          "type": "uint256"
        }
      ],
      "stateMutability": "view",
      "type": "function"
    },
    {
      "inputs": [
        {
          "internalType": "bytes[]",
          "name": "data",
          "type": "bytes[]"
        }
      ],
      "name": "multicall",
      "outputs": [
        {
          "internalType": "bytes[]",
          "name": "results",
          "type": "bytes[]"
        }
      ],
      "stateMutability": "nonpayable",
      "type": "function"
    },
    {
      "inputs": [],
      "name": "nft",
      "outputs": [
        {
          "internalType": "contract IERC721",
          "name": "",
          "type": "address"
        }
      ],
      "stateMutability": "view",
      "type": "function"
    },
    {
      "inputs": [],
      "name": "owner",
      "outputs": [
        {
          "internalType": "address",
          "name": "",
          "type": "address"
        }
      ],
      "stateMutability": "view",
      "type": "function"
    },
    {
      "inputs": [
        {
          "internalType": "uint256",
          "name": "min",
          "type": "uint256"
        },
        {
          "internalType": "uint256",
          "name": "max",
          "type": "uint256"
        }
      ],
      "name": "random",
      "outputs": [
        {
          "internalType": "uint256",
          "name": "",
          "type": "uint256"
        }
      ],
      "stateMutability": "view",
      "type": "function"
    },
    {
      "inputs": [],
      "name": "renounceOwnership",
      "outputs": [],
      "stateMutability": "nonpayable",
      "type": "function"
    },
    {
      "inputs": [],
      "name": "rewardsPayeer",
      "outputs": [
        {
          "internalType": "address",
          "name": "",
          "type": "address"
        }
      ],
      "stateMutability": "view",
      "type": "function"
    },
    {
      "inputs": [
        {
          "internalType": "address",
          "name": "payer",
          "type": "address"
        }
      ],
      "name": "setRewardsPayeer",
      "outputs": [],
      "stateMutability": "nonpayable",
      "type": "function"
    },
    {
      "inputs": [],
      "name": "token",
      "outputs": [
        {
          "internalType": "contract IERC20",
          "name": "",
          "type": "address"
        }
      ],
      "stateMutability": "view",
      "type": "function"
    },
    {
      "inputs": [
        {
          "internalType": "address",
          "name": "newOwner",
          "type": "address"
        }
      ],
      "name": "transferOwnership",
      "outputs": [],
      "stateMutability": "nonpayable",
      "type": "function"
    },
    {
      "inputs": [
        {
          "internalType": "uint256[]",
          "name": "heroIds",
          "type": "uint256[]"
        }
      ],
      "name": "validateHeroIds",
      "outputs": [],
      "stateMutability": "view",
      "type": "function"
    }
  ],
  "bytecode": "0x608060405260fa6006553480156200001657600080fd5b5060405162003d1338038062003d1383398181016040528101906200003c919062000243565b6200005c620000506200010d60201b60201c565b6200011560201b60201c565b80600260006101000a81548173ffffffffffffffffffffffffffffffffffffffff021916908373ffffffffffffffffffffffffffffffffffffffff16021790555069010f0cf064dd5920000060086000600181526020019081526020016000208190555069054b40b1f852bda00000600860006003815260200190815260200160002081905550690a968163f0a57b4000006008600060058152602001908152602001600020819055505062000275565b600033905090565b60008060009054906101000a900473ffffffffffffffffffffffffffffffffffffffff169050816000806101000a81548173ffffffffffffffffffffffffffffffffffffffff021916908373ffffffffffffffffffffffffffffffffffffffff1602179055508173ffffffffffffffffffffffffffffffffffffffff168173ffffffffffffffffffffffffffffffffffffffff167f8be0079c531659141344cd1fd0a4f28419497f9722a3daafe3b4186f6b6457e060405160405180910390a35050565b600080fd5b600073ffffffffffffffffffffffffffffffffffffffff82169050919050565b60006200020b82620001de565b9050919050565b6200021d81620001fe565b81146200022957600080fd5b50565b6000815190506200023d8162000212565b92915050565b6000602082840312156200025c576200025b620001d9565b5b60006200026c848285016200022c565b91505092915050565b613a8e80620002856000396000f3fe608060405234801561001057600080fd5b506004361061010a5760003560e01c806377cb47bf116100a2578063b5f5d2a511610071578063b5f5d2a5146102c0578063b9f2d520146102dc578063e4118fca1461030c578063f2fde38b14610328578063fc0c546a146103445761010a565b806377cb47bf146102115780638da5cb5b14610242578063a9dd122514610260578063ac9650d8146102905761010a565b8063510131bf116100de578063510131bf146101855780636e8fb4c6146101b5578063715018a6146101eb5780637675e0e0146101f55761010a565b8062c8bd7e1461010f57806311ce406d1461012b5780633b8a7a131461014957806347ccca0214610167575b600080fd5b610129600480360381019061012491906127dc565b610362565b005b610133610cd3565b604051610140919061287d565b60405180910390f35b610151610cf9565b60405161015e91906128f7565b60405180910390f35b61016f610d1f565b60405161017c9190612933565b60405180910390f35b61019f600480360381019061019a91906129b3565b610d45565b6040516101ac9190612ac4565b60405180910390f35b6101cf60048036038101906101ca9190612ae6565b61126e565b6040516101e29796959493929190612b31565b60405180910390f35b6101f36112fd565b005b61020f600480360381019061020a91906127dc565b611385565b005b61022b60048036038101906102269190612ba0565b61172f565b604051610239929190612be0565b60405180910390f35b61024a61176d565b604051610257919061287d565b60405180910390f35b61027a60048036038101906102759190612c09565b611796565b6040516102879190612c49565b60405180910390f35b6102aa60048036038101906102a59190612cba565b611800565b6040516102b79190612e62565b60405180910390f35b6102da60048036038101906102d59190612e84565b61190c565b005b6102f660048036038101906102f19190612ae6565b611a69565b6040516103039190612c49565b60405180910390f35b61032660048036038101906103219190612ed1565b611a81565b005b610342600480360381019061033d9190612ed1565b611b41565b005b61034c611c39565b6040516103599190612f1f565b60405180910390f35b60006009600085815260200190815260200160002060405180610120016040529081600082015481526020016001820160009054906101000a900473ffffffffffffffffffffffffffffffffffffffff1673ffffffffffffffffffffffffffffffffffffffff1673ffffffffffffffffffffffffffffffffffffffff1681526020016002820160009054906101000a900473ffffffffffffffffffffffffffffffffffffffff1673ffffffffffffffffffffffffffffffffffffffff1673ffffffffffffffffffffffffffffffffffffffff168152602001600382015481526020016004820180548060200260200160405190810160405280929190818152602001828054801561049257602002820191906000526020600020905b81548152602001906001019080831161047e575b50505050508152602001600582018054806020026020016040519081016040528092919081815260200182805480156104ea57602002820191906000526020600020905b8154815260200190600101908083116104d6575b5050505050815260200160068201548152602001600782015481526020016008820160009054906101000a900460ff1660ff1660ff168152505090508381600001511461056c576040517f08c379a000000000000000000000000000000000000000000000000000000000815260040161056390612f97565b60405180910390fd5b828290508160600151146105b5576040517f08c379a00000000000000000000000000000000000000000000000000000000081526004016105ac90613003565b60405180910390fd5b60008160e00151146105fc576040517f08c379a00000000000000000000000000000000000000000000000000000000081526004016105f39061306f565b60405180910390fd5b600360009054906101000a900473ffffffffffffffffffffffffffffffffffffffff1673ffffffffffffffffffffffffffffffffffffffff166323b872dd33600560009054906101000a900473ffffffffffffffffffffffffffffffffffffffff166008600086606001518152602001908152602001600020546040518463ffffffff1660e01b81526004016106949392919061308f565b602060405180830381600087803b1580156106ae57600080fd5b505af11580156106c2573d6000803e3d6000fd5b505050506040513d601f19601f820116820180604052508101906106e691906130fe565b610725576040517f08c379a000000000000000000000000000000000000000000000000000000000815260040161071c90613177565b60405180910390fd5b61072f838361190c565b33816040019073ffffffffffffffffffffffffffffffffffffffff16908173ffffffffffffffffffffffffffffffffffffffff1681525050428160e0018181525050600181606001511415610a37576107cd8160800151848480806020026020016040519081016040528093929190818152602001838360200280828437600081840152601f19601f82011690508083019250505050505050611c5f565b81610100019060ff16908160ff1681525050600181610100015160ff16141561091557600260009054906101000a900473ffffffffffffffffffffffffffffffffffffffff1673ffffffffffffffffffffffffffffffffffffffff1663cd8401a882608001516040518263ffffffff1660e01b815260040161084f9190612ac4565b600060405180830381600087803b15801561086957600080fd5b505af115801561087d573d6000803e3d6000fd5b50505050600260009054906101000a900473ffffffffffffffffffffffffffffffffffffffff1673ffffffffffffffffffffffffffffffffffffffff16638ff1e98e84846040518363ffffffff1660e01b81526004016108de929190613207565b600060405180830381600087803b1580156108f857600080fd5b505af115801561090c573d6000803e3d6000fd5b50505050610a36565b600260009054906101000a900473ffffffffffffffffffffffffffffffffffffffff1673ffffffffffffffffffffffffffffffffffffffff16638ff1e98e82608001516040518263ffffffff1660e01b81526004016109749190612ac4565b600060405180830381600087803b15801561098e57600080fd5b505af11580156109a2573d6000803e3d6000fd5b50505050600260009054906101000a900473ffffffffffffffffffffffffffffffffffffffff1673ffffffffffffffffffffffffffffffffffffffff1663cd8401a884846040518363ffffffff1660e01b8152600401610a03929190613207565b600060405180830381600087803b158015610a1d57600080fd5b505af1158015610a31573d6000803e3d6000fd5b505050505b5b828280806020026020016040519081016040528093929190818152602001838360200280828437600081840152601f19601f820116905080830192505050505050508160a0018190525080600960008681526020019081526020016000206000820151816000015560208201518160010160006101000a81548173ffffffffffffffffffffffffffffffffffffffff021916908373ffffffffffffffffffffffffffffffffffffffff16021790555060408201518160020160006101000a81548173ffffffffffffffffffffffffffffffffffffffff021916908373ffffffffffffffffffffffffffffffffffffffff160217905550606082015181600301556080820151816004019080519060200190610b539291906126cd565b5060a0820151816005019080519060200190610b709291906126cd565b5060c0820151816006015560e082015181600701556101008201518160080160006101000a81548160ff021916908360ff160217905550905050600360009054906101000a900473ffffffffffffffffffffffffffffffffffffffff1673ffffffffffffffffffffffffffffffffffffffff166323b872dd600560009054906101000a900473ffffffffffffffffffffffffffffffffffffffff16600184610100015160ff1614610c25578360400151610c2b565b83602001515b6064600654600860008860600151815260200190815260200160002054610c52919061325a565b610c5c91906132e3565b6040518463ffffffff1660e01b8152600401610c7a9392919061308f565b602060405180830381600087803b158015610c9457600080fd5b505af1158015610ca8573d6000803e3d6000fd5b505050506040513d601f19601f82011682018060405250810190610ccc91906130fe565b5050505050565b600560009054906101000a900473ffffffffffffffffffffffffffffffffffffffff1681565b600260009054906101000a900473ffffffffffffffffffffffffffffffffffffffff1681565b600460009054906101000a900473ffffffffffffffffffffffffffffffffffffffff1681565b60608060008460ff161415610eb557600080600190505b610d666001612469565b8111610eae5760008560ff161415610da9578083600183610d879190613314565b81518110610d9857610d97613348565b5b602002602001018181525050610e9b565b60018560ff161415610e29576000600960008381526020019081526020016000206006015414158015610df2575060006009600083815260200190815260200160002060070154145b15610e245780838380610e0490613377565b945081518110610e1757610e16613348565b5b6020026020010181815250505b610e9a565b6000600960008381526020019081526020016000206006015414158015610e6757506000600960008381526020019081526020016000206007015414155b15610e995780838380610e7990613377565b945081518110610e8c57610e8b613348565b5b6020026020010181815250505b5b5b8080610ea690613377565b915050610d5c565b5050611263565b60018460ff16141561108d57600080600190505b610ed36001612469565b8111611086578673ffffffffffffffffffffffffffffffffffffffff166009600083815260200190815260200160002060010160009054906101000a900473ffffffffffffffffffffffffffffffffffffffff1673ffffffffffffffffffffffffffffffffffffffff1614156110735760008560ff161415610f805780838380610f5c90613377565b945081518110610f6f57610f6e613348565b5b602002602001018181525050611072565b60018560ff161415611000576000600960008381526020019081526020016000206006015414158015610fc9575060006009600083815260200190815260200160002060070154145b15610ffb5780838380610fdb90613377565b945081518110610fee57610fed613348565b5b6020026020010181815250505b611071565b600060096000838152602001908152602001600020600601541415801561103e57506000600960008381526020019081526020016000206007015414155b15611070578083838061105090613377565b94508151811061106357611062613348565b5b6020026020010181815250505b5b5b5b808061107e90613377565b915050610ec9565b5050611262565b60028460ff16141561126157600080600190505b6110ab6001612469565b811161125e578673ffffffffffffffffffffffffffffffffffffffff166009600083815260200190815260200160002060020160009054906101000a900473ffffffffffffffffffffffffffffffffffffffff1673ffffffffffffffffffffffffffffffffffffffff16141561124b5760008560ff161415611158578083838061113490613377565b94508151811061114757611146613348565b5b60200260200101818152505061124a565b60018560ff1614156111d85760006009600083815260200190815260200160002060060154141580156111a1575060006009600083815260200190815260200160002060070154145b156111d357808383806111b390613377565b9450815181106111c6576111c5613348565b5b6020026020010181815250505b611249565b600060096000838152602001908152602001600020600601541415801561121657506000600960008381526020019081526020016000206007015414155b15611248578083838061122890613377565b94508151811061123b5761123a613348565b5b6020026020010181815250505b5b5b5b808061125690613377565b9150506110a1565b50505b5b5b809150509392505050565b60096020528060005260406000206000915090508060000154908060010160009054906101000a900473ffffffffffffffffffffffffffffffffffffffff16908060020160009054906101000a900473ffffffffffffffffffffffffffffffffffffffff16908060030154908060060154908060070154908060080160009054906101000a900460ff16905087565b611305612477565b73ffffffffffffffffffffffffffffffffffffffff1661132361176d565b73ffffffffffffffffffffffffffffffffffffffff1614611379576040517f08c379a00000000000000000000000000000000000000000000000000000000081526004016113709061340c565b60405180910390fd5b611383600061247f565b565b61138f828261190c565b8181905083146113d4576040517f08c379a00000000000000000000000000000000000000000000000000000000081526004016113cb90613478565b60405180910390fd5b600060086000858152602001908152602001600020541161142a576040517f08c379a00000000000000000000000000000000000000000000000000000000081526004016114219061350a565b60405180910390fd5b600360009054906101000a900473ffffffffffffffffffffffffffffffffffffffff1673ffffffffffffffffffffffffffffffffffffffff166323b872dd333060086000888152602001908152602001600020546040518463ffffffff1660e01b815260040161149c9392919061308f565b602060405180830381600087803b1580156114b657600080fd5b505af11580156114ca573d6000803e3d6000fd5b505050506040513d601f19601f820116820180604052508101906114ee91906130fe565b61152d576040517f08c379a000000000000000000000000000000000000000000000000000000000815260040161152490613177565b60405180910390fd5b60606115396001612543565b60006115456001612469565b905060006040518061012001604052808381526020013373ffffffffffffffffffffffffffffffffffffffff168152602001600073ffffffffffffffffffffffffffffffffffffffff168152602001878152602001868680806020026020016040519081016040528093929190818152602001838360200280828437600081840152601f19601f82011690508083019250505050505050815260200184815260200142815260200160008152602001600060ff16815250905080600960008481526020019081526020016000206000820151816000015560208201518160010160006101000a81548173ffffffffffffffffffffffffffffffffffffffff021916908373ffffffffffffffffffffffffffffffffffffffff16021790555060408201518160020160006101000a81548173ffffffffffffffffffffffffffffffffffffffff021916908373ffffffffffffffffffffffffffffffffffffffff1602179055506060820151816003015560808201518160040190805190602001906116d09291906126cd565b5060a08201518160050190805190602001906116ed9291906126cd565b5060c0820151816006015560e082015181600701556101008201518160080160006101000a81548160ff021916908360ff160217905550905050505050505050565b6007602052816000526040600020602052806000526040600020600091509150508060000154908060010160009054906101000a900460ff16905082565b60008060009054906101000a900473ffffffffffffffffffffffffffffffffffffffff16905090565b6000804442336040516020016117ae93929190613593565b6040516020818303038152906040528051906020012060001c905083600185856117d89190613314565b6117e291906135d0565b826117ed9190613626565b6117f791906135d0565b91505092915050565b60608282905067ffffffffffffffff81111561181f5761181e613657565b5b60405190808252806020026020018201604052801561185257816020015b606081526020019060019003908161183d5790505b50905060005b83839050811015611905576118d43085858481811061187a57611879613348565b5b905060200281019061188c9190613695565b8080601f016020809104026020016040519081016040528093929190818152602001838380828437600081840152601f19601f82011690508083019250505050505050612559565b8282815181106118e7576118e6613348565b5b602002602001018190525080806118fd90613377565b915050611858565b5092915050565b60005b828290508160ff161015611a64573373ffffffffffffffffffffffffffffffffffffffff16600460009054906101000a900473ffffffffffffffffffffffffffffffffffffffff1673ffffffffffffffffffffffffffffffffffffffff16636352211e85858560ff1681811061198857611987613348565b5b905060200201356040518263ffffffff1660e01b81526004016119ab9190612c49565b60206040518083038186803b1580156119c357600080fd5b505afa1580156119d7573d6000803e3d6000fd5b505050506040513d601f19601f820116820180604052508101906119fb919061370d565b73ffffffffffffffffffffffffffffffffffffffff1614611a51576040517f08c379a0000000000000000000000000000000000000000000000000000000008152600401611a4890613786565b60405180910390fd5b8080611a5c906137a6565b91505061190f565b505050565b60086020528060005260406000206000915090505481565b611a89612477565b73ffffffffffffffffffffffffffffffffffffffff16611aa761176d565b73ffffffffffffffffffffffffffffffffffffffff1614611afd576040517f08c379a0000000000000000000000000000000000000000000000000000000008152600401611af49061340c565b60405180910390fd5b80600560006101000a81548173ffffffffffffffffffffffffffffffffffffffff021916908373ffffffffffffffffffffffffffffffffffffffff16021790555050565b611b49612477565b73ffffffffffffffffffffffffffffffffffffffff16611b6761176d565b73ffffffffffffffffffffffffffffffffffffffff1614611bbd576040517f08c379a0000000000000000000000000000000000000000000000000000000008152600401611bb49061340c565b60405180910390fd5b600073ffffffffffffffffffffffffffffffffffffffff168173ffffffffffffffffffffffffffffffffffffffff161415611c2d576040517f08c379a0000000000000000000000000000000000000000000000000000000008152600401611c2490613842565b60405180910390fd5b611c368161247f565b50565b600360009054906101000a900473ffffffffffffffffffffffffffffffffffffffff1681565b60008083600081518110611c7657611c75613348565b5b60200260200101519050600083600081518110611c9657611c95613348565b5b602002602001015190506000600260009054906101000a900473ffffffffffffffffffffffffffffffffffffffff1673ffffffffffffffffffffffffffffffffffffffff1663d5c1ed8a846040518263ffffffff1660e01b8152600401611cfd9190612c49565b60206040518083038186803b158015611d1557600080fd5b505afa158015611d29573d6000803e3d6000fd5b505050506040513d601f19601f82011682018060405250810190611d4d9190613877565b90506000600260009054906101000a900473ffffffffffffffffffffffffffffffffffffffff1673ffffffffffffffffffffffffffffffffffffffff1663d5c1ed8a846040518263ffffffff1660e01b8152600401611dac9190612c49565b60206040518083038186803b158015611dc457600080fd5b505afa158015611dd8573d6000803e3d6000fd5b505050506040513d601f19601f82011682018060405250810190611dfc9190613877565b90506000600260009054906101000a900473ffffffffffffffffffffffffffffffffffffffff1673ffffffffffffffffffffffffffffffffffffffff1663f3d1b5ab866040518263ffffffff1660e01b8152600401611e5b9190612c49565b60206040518083038186803b158015611e7357600080fd5b505afa158015611e87573d6000803e3d6000fd5b505050506040513d601f19601f82011682018060405250810190611eab91906138b9565b90506000600260009054906101000a900473ffffffffffffffffffffffffffffffffffffffff1673ffffffffffffffffffffffffffffffffffffffff16630a36d40b876040518263ffffffff1660e01b8152600401611f0a9190612c49565b60206040518083038186803b158015611f2257600080fd5b505afa158015611f36573d6000803e3d6000fd5b505050506040513d601f19601f82011682018060405250810190611f5a91906138b9565b90506000600260009054906101000a900473ffffffffffffffffffffffffffffffffffffffff1673ffffffffffffffffffffffffffffffffffffffff1663f3d1b5ab876040518263ffffffff1660e01b8152600401611fb99190612c49565b60206040518083038186803b158015611fd157600080fd5b505afa158015611fe5573d6000803e3d6000fd5b505050506040513d601f19601f8201168201806040525081019061200991906138b9565b90506000600260009054906101000a900473ffffffffffffffffffffffffffffffffffffffff1673ffffffffffffffffffffffffffffffffffffffff16630a36d40b886040518263ffffffff1660e01b81526004016120689190612c49565b60206040518083038186803b15801561208057600080fd5b505afa158015612094573d6000803e3d6000fd5b505050506040513d601f19601f820116820180604052508101906120b891906138b9565b90508160ff168460ff1614156122b9578060ff168360ff16111561216f57848611156120ef57600198505050505050505050612463565b8486141561213357600061210560016064611796565b9050603c81116121215760019950505050505050505050612463565b60029950505050505050505050612463565b600061214160016064611796565b90506046811161215d5760029950505050505050505050612463565b60019950505050505050505050612463565b8060ff168360ff16141561222057848611156121c157600061219360016064611796565b9050604681116121af5760019950505050505050505050612463565b60029950505050505050505050612463565b848614156121e4576121d560016002611796565b98505050505050505050612463565b60006121f260016064611796565b90506046811161220e5760029950505050505050505050612463565b60019950505050505050505050612463565b8486101561223957600298505050505050505050612463565b8486141561227d57600061224f60016064611796565b9050603c811161226b5760029950505050505050505050612463565b60019950505050505050505050612463565b600061228b60016064611796565b9050604681116122a75760019950505050505050505050612463565b60029950505050505050505050612463565b8060ff168360ff16141561236b578486111561230c5760006122dd60016064611796565b905060468111156122fa5760019950505050505050505050612463565b60029950505050505050505050612463565b8486141561232f5761232060016002611796565b98505050505050505050612463565b600061233d60016064611796565b9050601481116123595760019950505050505050505050612463565b60029950505050505050505050612463565b8060ff168360ff1611156123ce578486111561239257600198505050505050505050612463565b60006123a060016064611796565b9050602881116123bc5760019950505050505050505050612463565b60029950505050505050505050612463565b848610156123e757600298505050505050505050612463565b8486141561242b5760006123fd60016064611796565b9050601e81116124195760019950505050505050505050612463565b60029950505050505050505050612463565b600061243960016064611796565b9050603c81116124555760019950505050505050505050612463565b600299505050505050505050505b92915050565b600081600001549050919050565b600033905090565b60008060009054906101000a900473ffffffffffffffffffffffffffffffffffffffff169050816000806101000a81548173ffffffffffffffffffffffffffffffffffffffff021916908373ffffffffffffffffffffffffffffffffffffffff1602179055508173ffffffffffffffffffffffffffffffffffffffff168173ffffffffffffffffffffffffffffffffffffffff167f8be0079c531659141344cd1fd0a4f28419497f9722a3daafe3b4186f6b6457e060405160405180910390a35050565b6001816000016000828254019250508190555050565b606061257e8383604051806060016040528060278152602001613a3260279139612586565b905092915050565b606061259184612653565b6125d0576040517f08c379a00000000000000000000000000000000000000000000000000000000081526004016125c790613958565b60405180910390fd5b6000808573ffffffffffffffffffffffffffffffffffffffff16856040516125f891906139b4565b600060405180830381855af49150503d8060008114612633576040519150601f19603f3d011682016040523d82523d6000602084013e612638565b606091505b5091509150612648828286612666565b925050509392505050565b600080823b905060008111915050919050565b60608315612676578290506126c6565b6000835111156126895782518084602001fd5b816040517f08c379a00000000000000000000000000000000000000000000000000000000081526004016126bd9190613a0f565b60405180910390fd5b9392505050565b828054828255906000526020600020908101928215612709579160200282015b828111156127085782518255916020019190600101906126ed565b5b509050612716919061271a565b5090565b5b8082111561273357600081600090555060010161271b565b5090565b600080fd5b600080fd5b6000819050919050565b61275481612741565b811461275f57600080fd5b50565b6000813590506127718161274b565b92915050565b600080fd5b600080fd5b600080fd5b60008083601f84011261279c5761279b612777565b5b8235905067ffffffffffffffff8111156127b9576127b861277c565b5b6020830191508360208202830111156127d5576127d4612781565b5b9250929050565b6000806000604084860312156127f5576127f4612737565b5b600061280386828701612762565b935050602084013567ffffffffffffffff8111156128245761282361273c565b5b61283086828701612786565b92509250509250925092565b600073ffffffffffffffffffffffffffffffffffffffff82169050919050565b60006128678261283c565b9050919050565b6128778161285c565b82525050565b6000602082019050612892600083018461286e565b92915050565b6000819050919050565b60006128bd6128b86128b38461283c565b612898565b61283c565b9050919050565b60006128cf826128a2565b9050919050565b60006128e1826128c4565b9050919050565b6128f1816128d6565b82525050565b600060208201905061290c60008301846128e8565b92915050565b600061291d826128c4565b9050919050565b61292d81612912565b82525050565b60006020820190506129486000830184612924565b92915050565b6129578161285c565b811461296257600080fd5b50565b6000813590506129748161294e565b92915050565b600060ff82169050919050565b6129908161297a565b811461299b57600080fd5b50565b6000813590506129ad81612987565b92915050565b6000806000606084860312156129cc576129cb612737565b5b60006129da86828701612965565b93505060206129eb8682870161299e565b92505060406129fc8682870161299e565b9150509250925092565b600081519050919050565b600082825260208201905092915050565b6000819050602082019050919050565b612a3b81612741565b82525050565b6000612a4d8383612a32565b60208301905092915050565b6000602082019050919050565b6000612a7182612a06565b612a7b8185612a11565b9350612a8683612a22565b8060005b83811015612ab7578151612a9e8882612a41565b9750612aa983612a59565b925050600181019050612a8a565b5085935050505092915050565b60006020820190508181036000830152612ade8184612a66565b905092915050565b600060208284031215612afc57612afb612737565b5b6000612b0a84828501612762565b91505092915050565b612b1c81612741565b82525050565b612b2b8161297a565b82525050565b600060e082019050612b46600083018a612b13565b612b53602083018961286e565b612b60604083018861286e565b612b6d6060830187612b13565b612b7a6080830186612b13565b612b8760a0830185612b13565b612b9460c0830184612b22565b98975050505050505050565b60008060408385031215612bb757612bb6612737565b5b6000612bc585828601612762565b9250506020612bd685828601612965565b9150509250929050565b6000604082019050612bf56000830185612b13565b612c026020830184612b22565b9392505050565b60008060408385031215612c2057612c1f612737565b5b6000612c2e85828601612762565b9250506020612c3f85828601612762565b9150509250929050565b6000602082019050612c5e6000830184612b13565b92915050565b60008083601f840112612c7a57612c79612777565b5b8235905067ffffffffffffffff811115612c9757612c9661277c565b5b602083019150836020820283011115612cb357612cb2612781565b5b9250929050565b60008060208385031215612cd157612cd0612737565b5b600083013567ffffffffffffffff811115612cef57612cee61273c565b5b612cfb85828601612c64565b92509250509250929050565b600081519050919050565b600082825260208201905092915050565b6000819050602082019050919050565b600081519050919050565b600082825260208201905092915050565b60005b83811015612d6d578082015181840152602081019050612d52565b83811115612d7c576000848401525b50505050565b6000601f19601f8301169050919050565b6000612d9e82612d33565b612da88185612d3e565b9350612db8818560208601612d4f565b612dc181612d82565b840191505092915050565b6000612dd88383612d93565b905092915050565b6000602082019050919050565b6000612df882612d07565b612e028185612d12565b935083602082028501612e1485612d23565b8060005b85811015612e505784840389528151612e318582612dcc565b9450612e3c83612de0565b925060208a01995050600181019050612e18565b50829750879550505050505092915050565b60006020820190508181036000830152612e7c8184612ded565b905092915050565b60008060208385031215612e9b57612e9a612737565b5b600083013567ffffffffffffffff811115612eb957612eb861273c565b5b612ec585828601612786565b92509250509250929050565b600060208284031215612ee757612ee6612737565b5b6000612ef584828501612965565b91505092915050565b6000612f09826128c4565b9050919050565b612f1981612efe565b82525050565b6000602082019050612f346000830184612f10565b92915050565b600082825260208201905092915050565b7f4c6f626279426174746c653a206c6f62627920646f65736e2774206578697374600082015250565b6000612f81602083612f3a565b9150612f8c82612f4b565b602082019050919050565b60006020820190508181036000830152612fb081612f74565b9050919050565b7f4c6f626279426174746c653a2077726f6e67206865726f657300000000000000600082015250565b6000612fed601983612f3a565b9150612ff882612fb7565b602082019050919050565b6000602082019050818103600083015261301c81612fe0565b9050919050565b7f4c6f626279426174746c653a20616c72656164792066696e6973686564000000600082015250565b6000613059601d83612f3a565b915061306482613023565b602082019050919050565b600060208201905081810360008301526130888161304c565b9050919050565b60006060820190506130a4600083018661286e565b6130b1602083018561286e565b6130be6040830184612b13565b949350505050565b60008115159050919050565b6130db816130c6565b81146130e657600080fd5b50565b6000815190506130f8816130d2565b92915050565b60006020828403121561311457613113612737565b5b6000613122848285016130e9565b91505092915050565b7f4c6f626279426174746c653a206e6f7420656e6f756768206665650000000000600082015250565b6000613161601b83612f3a565b915061316c8261312b565b602082019050919050565b6000602082019050818103600083015261319081613154565b9050919050565b600080fd5b82818337600083830152505050565b60006131b78385612a11565b93507f07ffffffffffffffffffffffffffffffffffffffffffffffffffffffffffffff8311156131ea576131e9613197565b5b6020830292506131fb83858461319c565b82840190509392505050565b600060208201905081810360008301526132228184866131ab565b90509392505050565b7f4e487b7100000000000000000000000000000000000000000000000000000000600052601160045260246000fd5b600061326582612741565b915061327083612741565b9250817fffffffffffffffffffffffffffffffffffffffffffffffffffffffffffffffff04831182151516156132a9576132a861322b565b5b828202905092915050565b7f4e487b7100000000000000000000000000000000000000000000000000000000600052601260045260246000fd5b60006132ee82612741565b91506132f983612741565b925082613309576133086132b4565b5b828204905092915050565b600061331f82612741565b915061332a83612741565b92508282101561333d5761333c61322b565b5b828203905092915050565b7f4e487b7100000000000000000000000000000000000000000000000000000000600052603260045260246000fd5b600061338282612741565b91507fffffffffffffffffffffffffffffffffffffffffffffffffffffffffffffffff8214156133b5576133b461322b565b5b600182019050919050565b7f4f776e61626c653a2063616c6c6572206973206e6f7420746865206f776e6572600082015250565b60006133f6602083612f3a565b9150613401826133c0565b602082019050919050565b60006020820190508181036000830152613425816133e9565b9050919050565b7f4c6f626279426174746c653a2077726f6e6720706172616d6574657273000000600082015250565b6000613462601d83612f3a565b915061346d8261342c565b602082019050919050565b6000602082019050818103600083015261349181613455565b9050919050565b7f4c6f626279426174746c653a2077726f6e67206c6f626279206361706163697460008201527f7900000000000000000000000000000000000000000000000000000000000000602082015250565b60006134f4602183612f3a565b91506134ff82613498565b604082019050919050565b60006020820190508181036000830152613523816134e7565b9050919050565b6000819050919050565b61354561354082612741565b61352a565b82525050565b60008160601b9050919050565b60006135638261354b565b9050919050565b600061357582613558565b9050919050565b61358d6135888261285c565b61356a565b82525050565b600061359f8286613534565b6020820191506135af8285613534565b6020820191506135bf828461357c565b601482019150819050949350505050565b60006135db82612741565b91506135e683612741565b9250827fffffffffffffffffffffffffffffffffffffffffffffffffffffffffffffffff0382111561361b5761361a61322b565b5b828201905092915050565b600061363182612741565b915061363c83612741565b92508261364c5761364b6132b4565b5b828206905092915050565b7f4e487b7100000000000000000000000000000000000000000000000000000000600052604160045260246000fd5b600080fd5b600080fd5b600080fd5b600080833560016020038436030381126136b2576136b1613686565b5b80840192508235915067ffffffffffffffff8211156136d4576136d361368b565b5b6020830192506001820236038313156136f0576136ef613690565b5b509250929050565b6000815190506137078161294e565b92915050565b60006020828403121561372357613722612737565b5b6000613731848285016136f8565b91505092915050565b7f4c6f626279426174746c653a206e6f74206865726f206f776e65720000000000600082015250565b6000613770601b83612f3a565b915061377b8261373a565b602082019050919050565b6000602082019050818103600083015261379f81613763565b9050919050565b60006137b18261297a565b915060ff8214156137c5576137c461322b565b5b600182019050919050565b7f4f776e61626c653a206e6577206f776e657220697320746865207a65726f206160008201527f6464726573730000000000000000000000000000000000000000000000000000602082015250565b600061382c602683612f3a565b9150613837826137d0565b604082019050919050565b6000602082019050818103600083015261385b8161381f565b9050919050565b6000815190506138718161274b565b92915050565b60006020828403121561388d5761388c612737565b5b600061389b84828501613862565b91505092915050565b6000815190506138b381612987565b92915050565b6000602082840312156138cf576138ce612737565b5b60006138dd848285016138a4565b91505092915050565b7f416464726573733a2064656c65676174652063616c6c20746f206e6f6e2d636f60008201527f6e74726163740000000000000000000000000000000000000000000000000000602082015250565b6000613942602683612f3a565b915061394d826138e6565b604082019050919050565b6000602082019050818103600083015261397181613935565b9050919050565b600081905092915050565b600061398e82612d33565b6139988185613978565b93506139a8818560208601612d4f565b80840191505092915050565b60006139c08284613983565b915081905092915050565b600081519050919050565b60006139e1826139cb565b6139eb8185612f3a565b93506139fb818560208601612d4f565b613a0481612d82565b840191505092915050565b60006020820190508181036000830152613a2981846139d6565b90509291505056fe416464726573733a206c6f772d6c6576656c2064656c65676174652063616c6c206661696c6564a264697066735822122058b485ce2c17b6a61b9d17863a4b4392e104c0bda0324205a8815e28cb13b2ce64736f6c63430008090033",
  "linkReferences": {},
  "deployedLinkReferences": {}
}