{
  "_format": "hh-sol-artifact-1",
  "contractName": "LobbyManager",
  "sourceName": "contracts/game/LobbyManager.sol",
  "abi": [
    {
      "inputs": [],
      "stateMutability": "nonpayable",
      "type": "constructor"
    },
    {
      "anonymous": false,
      "inputs": [
        {
          "indexed": true,
          "internalType": "uint256",
          "name": "lobbyId",
          "type": "uint256"
        },
        {
          "indexed": true,
          "internalType": "address",
          "name": "host",
          "type": "address"
        },
        {
          "indexed": true,
          "internalType": "address",
          "name": "client",
          "type": "address"
        }
      ],
      "name": "BattleFinished",
      "type": "event"
    },
    {
      "anonymous": false,
      "inputs": [
        {
          "indexed": true,
          "internalType": "address",
          "name": "previousOwner",
          "type": "address"
        },
        {
          "indexed": true,
          "internalType": "address",
          "name": "newOwner",
          "type": "address"
        }
      ],
      "name": "OwnershipTransferred",
      "type": "event"
    },
    {
      "inputs": [
        {
          "internalType": "uint256",
          "name": "",
          "type": "uint256"
        }
      ],
      "name": "battles",
      "outputs": [
        {
          "internalType": "contract IVersusBattle",
          "name": "",
          "type": "address"
        }
      ],
      "stateMutability": "view",
      "type": "function"
    },
    {
      "inputs": [
        {
          "internalType": "bytes32",
          "name": "name",
          "type": "bytes32"
        },
        {
          "internalType": "bytes32",
          "name": "avatar",
          "type": "bytes32"
        },
        {
          "internalType": "uint256",
          "name": "capacity",
          "type": "uint256"
        },
        {
          "internalType": "uint256[]",
          "name": "heroIds",
          "type": "uint256[]"
        }
      ],
      "name": "createLobby",
      "outputs": [],
      "stateMutability": "nonpayable",
      "type": "function"
    },
    {
      "inputs": [
        {
          "internalType": "address",
          "name": "myAddr",
          "type": "address"
        },
        {
          "internalType": "uint256",
          "name": "capacity",
          "type": "uint256"
        }
      ],
      "name": "getActiveLobbies",
      "outputs": [
        {
          "internalType": "uint256[]",
          "name": "",
          "type": "uint256[]"
        }
      ],
      "stateMutability": "view",
      "type": "function"
    },
    {
      "inputs": [
        {
          "internalType": "uint256",
          "name": "capacity",
          "type": "uint256"
        }
      ],
      "name": "getAllHistory",
      "outputs": [
        {
          "internalType": "uint256[]",
          "name": "",
          "type": "uint256[]"
        }
      ],
      "stateMutability": "view",
      "type": "function"
    },
    {
      "inputs": [
        {
          "internalType": "uint256[]",
          "name": "heroes",
          "type": "uint256[]"
        }
      ],
      "name": "getHeroesPower",
      "outputs": [
        {
          "internalType": "uint256",
          "name": "",
          "type": "uint256"
        }
      ],
      "stateMutability": "view",
      "type": "function"
    },
    {
      "inputs": [
        {
          "internalType": "uint256",
          "name": "lobbyId",
          "type": "uint256"
        }
      ],
      "name": "getLobbyHeroes",
      "outputs": [
        {
          "internalType": "address",
          "name": "",
          "type": "address"
        },
        {
          "internalType": "uint256[]",
          "name": "",
          "type": "uint256[]"
        },
        {
          "internalType": "address",
          "name": "",
          "type": "address"
        },
        {
          "internalType": "uint256[]",
          "name": "",
          "type": "uint256[]"
        }
      ],
      "stateMutability": "view",
      "type": "function"
    },
    {
      "inputs": [
        {
          "internalType": "uint256",
          "name": "lobbyId",
          "type": "uint256"
        }
      ],
      "name": "getLobbyPower",
      "outputs": [
        {
          "internalType": "address",
          "name": "",
          "type": "address"
        },
        {
          "internalType": "uint256",
          "name": "",
          "type": "uint256"
        },
        {
          "internalType": "address",
          "name": "",
          "type": "address"
        },
        {
          "internalType": "uint256",
          "name": "",
          "type": "uint256"
        }
      ],
      "stateMutability": "view",
      "type": "function"
    },
    {
      "inputs": [
        {
          "internalType": "address",
          "name": "myAddr",
          "type": "address"
        },
        {
          "internalType": "uint256",
          "name": "capacity",
          "type": "uint256"
        }
      ],
      "name": "getMyHistory",
      "outputs": [
        {
          "internalType": "uint256[]",
          "name": "",
          "type": "uint256[]"
        }
      ],
      "stateMutability": "view",
      "type": "function"
    },
    {
      "inputs": [
        {
          "internalType": "address",
          "name": "myAddr",
          "type": "address"
        },
        {
          "internalType": "uint256",
          "name": "capacity",
          "type": "uint256"
        }
      ],
      "name": "getMyLobbies",
      "outputs": [
        {
          "internalType": "uint256[]",
          "name": "",
          "type": "uint256[]"
        }
      ],
      "stateMutability": "view",
      "type": "function"
    },
    {
      "inputs": [
        {
          "internalType": "uint256",
          "name": "lobbyId",
          "type": "uint256"
        },
        {
          "internalType": "address",
          "name": "player",
          "type": "address"
        }
      ],
      "name": "getPlayerHeroesOnLobby",
      "outputs": [
        {
          "internalType": "uint256[]",
          "name": "",
          "type": "uint256[]"
        }
      ],
      "stateMutability": "view",
      "type": "function"
    },
    {
      "inputs": [],
      "name": "heroManager",
      "outputs": [
        {
          "internalType": "contract IHeroManager",
          "name": "",
          "type": "address"
        }
      ],
      "stateMutability": "view",
      "type": "function"
    },
    {
      "inputs": [
        {
          "internalType": "uint256",
          "name": "lobbyId",
          "type": "uint256"
        },
        {
          "internalType": "uint256[]",
          "name": "heroIds",
          "type": "uint256[]"
        }
      ],
      "name": "joinLobby",
      "outputs": [],
      "stateMutability": "nonpayable",
      "type": "function"
    },
    {
      "inputs": [
        {
          "internalType": "uint256",
          "name": "",
          "type": "uint256"
        }
      ],
      "name": "lobbies",
      "outputs": [
        {
          "internalType": "bytes32",
          "name": "name",
          "type": "bytes32"
        },
        {
          "internalType": "bytes32",
          "name": "avatar",
          "type": "bytes32"
        },
        {
          "internalType": "address",
          "name": "host",
          "type": "address"
        },
        {
          "internalType": "address",
          "name": "client",
          "type": "address"
        },
        {
          "internalType": "uint256",
          "name": "id",
          "type": "uint256"
        },
        {
          "internalType": "uint256",
          "name": "capacity",
          "type": "uint256"
        },
        {
          "internalType": "uint256",
          "name": "startedAt",
          "type": "uint256"
        },
        {
          "internalType": "uint256",
          "name": "finishedAt",
          "type": "uint256"
        },
        {
          "internalType": "uint256",
          "name": "winner",
          "type": "uint256"
        },
        {
          "internalType": "uint256",
          "name": "fee",
          "type": "uint256"
        },
        {
          "internalType": "uint256",
          "name": "rewards",
          "type": "uint256"
        }
      ],
      "stateMutability": "view",
      "type": "function"
    },
    {
      "inputs": [
        {
          "internalType": "uint256",
          "name": "",
          "type": "uint256"
        }
      ],
      "name": "lobbyFees",
      "outputs": [
        {
          "internalType": "uint256",
          "name": "",
          "type": "uint256"
        }
      ],
      "stateMutability": "view",
      "type": "function"
    },
    {
      "inputs": [
        {
          "internalType": "uint256",
          "name": "",
          "type": "uint256"
        },
        {
          "internalType": "address",
          "name": "",
          "type": "address"
        },
        {
          "internalType": "uint256",
          "name": "",
          "type": "uint256"
        }
      ],
      "name": "lobbyHeroes",
      "outputs": [
        {
          "internalType": "uint256",
          "name": "",
          "type": "uint256"
        }
      ],
      "stateMutability": "view",
      "type": "function"
    },
    {
      "inputs": [
        {
          "internalType": "bytes[]",
          "name": "data",
          "type": "bytes[]"
        }
      ],
      "name": "multicall",
      "outputs": [
        {
          "internalType": "bytes[]",
          "name": "results",
          "type": "bytes[]"
        }
      ],
      "stateMutability": "nonpayable",
      "type": "function"
    },
    {
      "inputs": [],
      "name": "owner",
      "outputs": [
        {
          "internalType": "address",
          "name": "",
          "type": "address"
        }
      ],
      "stateMutability": "view",
      "type": "function"
    },
    {
      "inputs": [
        {
          "internalType": "address",
          "name": "",
          "type": "address"
        }
      ],
      "name": "playersFees",
      "outputs": [
        {
          "internalType": "uint256",
          "name": "",
          "type": "uint256"
        }
      ],
      "stateMutability": "view",
      "type": "function"
    },
    {
      "inputs": [
        {
          "internalType": "address",
          "name": "",
          "type": "address"
        }
      ],
      "name": "playersRewards",
      "outputs": [
        {
          "internalType": "uint256",
          "name": "",
          "type": "uint256"
        }
      ],
      "stateMutability": "view",
      "type": "function"
    },
    {
      "inputs": [
        {
          "internalType": "uint256",
          "name": "min",
          "type": "uint256"
        },
        {
          "internalType": "uint256",
          "name": "max",
          "type": "uint256"
        }
      ],
      "name": "random",
      "outputs": [
        {
          "internalType": "uint256",
          "name": "",
          "type": "uint256"
        }
      ],
      "stateMutability": "view",
      "type": "function"
    },
    {
      "inputs": [
        {
          "internalType": "address",
          "name": "",
          "type": "address"
        }
      ],
      "name": "registeredPlayers",
      "outputs": [
        {
          "internalType": "bool",
          "name": "",
          "type": "bool"
        }
      ],
      "stateMutability": "view",
      "type": "function"
    },
    {
      "inputs": [],
      "name": "renounceOwnership",
      "outputs": [],
      "stateMutability": "nonpayable",
      "type": "function"
    },
    {
      "inputs": [
        {
          "internalType": "uint256",
          "name": "capacity",
          "type": "uint256"
        },
        {
          "internalType": "address",
          "name": "battleAddress",
          "type": "address"
        }
      ],
      "name": "setBattleAddress",
      "outputs": [],
      "stateMutability": "nonpayable",
      "type": "function"
    },
    {
      "inputs": [
        {
          "internalType": "uint256",
          "name": "multiplier",
          "type": "uint256"
        }
      ],
      "name": "setBenefitMultiplier",
      "outputs": [],
      "stateMutability": "nonpayable",
      "type": "function"
    },
    {
      "inputs": [
        {
          "internalType": "address",
          "name": "hmAddr",
          "type": "address"
        }
      ],
      "name": "setHeroManager",
      "outputs": [],
      "stateMutability": "nonpayable",
      "type": "function"
    },
    {
      "inputs": [
        {
          "internalType": "uint256",
          "name": "capacity",
          "type": "uint256"
        },
        {
          "internalType": "uint256",
          "name": "fee",
          "type": "uint256"
        }
      ],
      "name": "setLobbyFee",
      "outputs": [],
      "stateMutability": "nonpayable",
      "type": "function"
    },
    {
      "inputs": [],
      "name": "totalPlayers",
      "outputs": [
        {
          "internalType": "uint256",
          "name": "",
          "type": "uint256"
        }
      ],
      "stateMutability": "view",
      "type": "function"
    },
    {
      "inputs": [
        {
          "internalType": "address",
          "name": "newOwner",
          "type": "address"
        }
      ],
      "name": "transferOwnership",
      "outputs": [],
      "stateMutability": "nonpayable",
      "type": "function"
    },
    {
      "inputs": [
        {
          "internalType": "uint256",
          "name": "",
          "type": "uint256"
        }
      ],
      "name": "uniquePlayers",
      "outputs": [
        {
          "internalType": "address",
          "name": "",
          "type": "address"
        }
      ],
      "stateMutability": "view",
      "type": "function"
    }
  ],
  "bytecode": "0x608060405260fa60035534801561001557600080fd5b5061001f336100b5565b600b60205269010f0cf064dd592000007f72c6bfb7988af3a1efa6568f02a999bc52252641c659d85961ca3d372b57d5cf5569054b40b1f852bda000007f64c15cc42be7899b001f818cf4433057002112c418d1d3a67cd5cb453051d33e556005600052690a968163f0a57b4000007febae6141bae5521e99e0a8d610356b0f501fea54980b59c84841db43ba7204f455610105565b600080546001600160a01b038381166001600160a01b0319831681178455604051919092169283917f8be0079c531659141344cd1fd0a4f28419497f9722a3daafe3b4186f6b6457e09190a35050565b612bc880620001156000396000f3fe608060405234801561001057600080fd5b50600436106101ce5760003560e01c8063715018a611610104578063ac9650d8116100a2578063c8f9427011610071578063c8f9427014610576578063ed697f3214610596578063f2fde38b146105a9578063f60cdcf6146105bc57600080fd5b8063ac9650d8146104db578063b12f5c57146104fb578063b97dcb2214610543578063b9f2d5201461055657600080fd5b80638da5cb5b116100de5780638da5cb5b1461047b578063930613fc1461048c57806394f69662146104b5578063a9dd1225146104c857600080fd5b8063715018a61461044d5780637407fddd14610455578063833588cc1461046857600080fd5b806345efd7851161017157806357d15a8b1161014b57806357d15a8b1461031d578063606d2e96146103305780636bd2dc85146103595780636e8fb4c61461037957600080fd5b806345efd785146102c45780634bafce22146102d75780634d5f80ad1461030a57600080fd5b80631deb8c44116101ad5780631deb8c441461025357806328b11d2314610273578063378cc347146102865780633b8a7a131461029957600080fd5b8062c8bd7e146101d357806307a48c19146101e857806316fc989c14610214575b600080fd5b6101e66101e1366004612512565b6105c5565b005b6101fb6101f636600461255e565b610d5d565b60405161020b94939291906125b2565b60405180910390f35b61024561022236600461260f565b600960209081526000938452604080852082529284528284209052825290205481565b60405190815260200161020b565b610266610261366004612647565b610db1565b60405161020b9190612673565b6101e661028136600461255e565b610f38565b6101e6610294366004612686565b610f67565b6002546102ac906001600160a01b031681565b6040516001600160a01b03909116815260200161020b565b6102666102d236600461255e565b610fb3565b6102fa6102e5366004612686565b60066020526000908152604090205460ff1681565b604051901515815260200161020b565b610266610318366004612647565b6110e9565b6101e661032b3660046126a3565b611264565b6102ac61033e36600461255e565b600c602052600090815260409020546001600160a01b031681565b610245610367366004612686565b60086020526000908152604090205481565b6103ee61038736600461255e565b600a60208190526000918252604090912080546001820154600283015460038401546004850154600586015460068701546007880154600889015460098a015499909a0154979996986001600160a01b03968716989590961696939592949193909290918b565b604080519b8c5260208c019a909a526001600160a01b03988916998b0199909952969095166060890152608088019390935260a087019190915260c086015260e08501526101008401526101208301526101408201526101600161020b565b6101e66112bc565b610266610463366004612647565b6112f2565b6101e66104763660046126d3565b6114bb565b6000546001600160a01b03166102ac565b6102ac61049a36600461255e565b6005602052600090815260409020546001600160a01b031681565b6101e66104c33660046126f5565b6114f7565b6102456104d63660046126d3565b611b0f565b6104ee6104e9366004612756565b611bc1565b60405161020b91906127f4565b61050e61050936600461255e565b611cb6565b60405161020b94939291906001600160a01b039485168152602081019390935292166040820152606081019190915260800190565b6102666105513660046126a3565b611e5a565b61024561056436600461255e565b600b6020526000908152604090205481565b610245610584366004612686565b60076020526000908152604090205481565b6102456105a436600461286c565b611f45565b6101e66105b7366004612686565b612004565b61024560045481565b6000838152600a60205260409081902060028082015460059092015490549251630152368f60e01b815233936001600160a01b03938416931690630152368f9061061790889088908890600401612954565b60206040518083038186803b15801561062f57600080fd5b505afa158015610643573d6000803e3d6000fd5b505050506040513d601f19601f820116820180604052508101906106679190612980565b5060025460405163b7601a1560e01b81526001600160a01b039091169063b7601a159061069a90889088906004016129a2565b60206040518083038186803b1580156106b257600080fd5b505afa1580156106c6573d6000803e3d6000fd5b505050506040513d601f19601f820116820180604052508101906106ea9190612980565b506000868152600a6020526040902060040154861461075a5760405162461bcd60e51b815260206004820152602160248201527f4c6f6262794d616e616765723a206c6f62627920646f65736e277420657869736044820152601d60fa1b60648201526084015b60405180910390fd5b8084146107a95760405162461bcd60e51b815260206004820152601a60248201527f4c6f6262794d616e616765723a2077726f6e67206865726f65730000000000006044820152606401610751565b6000868152600a6020526040902060070154156108085760405162461bcd60e51b815260206004820152601e60248201527f4c6f6262794d616e616765723a20616c72656164792066696e697368656400006044820152606401610751565b60025460408051637e062a3560e11b815290516000926001600160a01b03169163fc0c546a916004808301926020929190829003018186803b15801561084d57600080fd5b505afa158015610861573d6000803e3d6000fd5b505050506040513d601f19601f8201168201806040525081019061088591906129b6565b90506000600b6000848152602001908152602001600020549050816001600160a01b03166323b872dd86600260009054906101000a90046001600160a01b03166001600160a01b03166311ce406d6040518163ffffffff1660e01b815260040160206040518083038186803b1580156108fd57600080fd5b505afa158015610911573d6000803e3d6000fd5b505050506040513d601f19601f8201168201806040525081019061093591906129b6565b6040516001600160e01b031960e085901b1681526001600160a01b0392831660048201529116602482015260448101849052606401602060405180830381600087803b15801561098457600080fd5b505af1158015610998573d6000803e3d6000fd5b505050506040513d601f19601f820116820180604052508101906109bc9190612980565b610a085760405162461bcd60e51b815260206004820152601c60248201527f4c6f6262794d616e616765723a206e6f7420656e6f75676820666565000000006044820152606401610751565b610a118561209f565b6001600160a01b03851660008181526007602081815260408084208054870190558c8452600a90915282206003810180546001600160a01b03191690941790935542920191909155610a638986611e5a565b90506000610a876064610a816003548661211490919063ffffffff16565b90612118565b60008b8152600a60208181526040808420909201849055888352600c90528082205490516348e8c1d360e01b81529293506001600160a01b03169182906348e8c1d390610adc9087908f908f906004016129d3565b60206040518083038186803b158015610af457600080fd5b505afa158015610b08573d6000803e3d6000fd5b505050506040513d601f19601f82011682018060405250810190610b2c91906129f9565b905080600a60008e815260200190815260200160002060080181905550610b978c82868e8e80806020026020016040519081016040528093929190818152602001838360200280828437600081840152601f19601f820116905080830192505050505050508d612131565b600081600114610ba75789610ba9565b885b9050866001600160a01b03166323b872dd600260009054906101000a90046001600160a01b03166001600160a01b03166311ce406d6040518163ffffffff1660e01b815260040160206040518083038186803b158015610c0857600080fd5b505afa158015610c1c573d6000803e3d6000fd5b505050506040513d601f19601f82011682018060405250810190610c4091906129b6565b6040516001600160e01b031960e084901b1681526001600160a01b039182166004820152908416602482015260448101879052606401602060405180830381600087803b158015610c9057600080fd5b505af1158015610ca4573d6000803e3d6000fd5b505050506040513d601f19601f82011682018060405250810190610cc89190612980565b506001600160a01b038116600090815260086020526040902054840160086000836001600160a01b03166001600160a01b0316815260200190815260200160002081905550896001600160a01b0316896001600160a01b03168e7fc77dc6cd4b51c8efc4af40a582ca4cf229fda505a830b4486b200ddcbdb1383f60405160405180910390a450505050505050505050505050565b6000818152600a602052604081206002810154600390910154606091839183916001600160a01b03908116911681610d958882611e5a565b82610da08a85611e5a565b955095509550955050509193509193565b6060600060015b6001548111610e3e576000818152600a6020526040902060070154158015610df057506000818152600a602052604090206005015484145b8015610e1957506000818152600a60205260409020600201546001600160a01b03868116911614155b15610e2c5781610e2881612a28565b9250505b80610e3681612a28565b915050610db8565b506000808267ffffffffffffffff811115610e5b57610e5b612856565b604051908082528060200260200182016040528015610e84578160200160208202803683370190505b50905060015b6001548111610f2e576000818152600a6020526040902060070154158015610ec257506000818152600a602052604090206005015486145b8015610eeb57506000818152600a60205260409020600201546001600160a01b03888116911614155b15610f1c5780828481518110610f0357610f03612a43565b602090810291909101015282610f1881612a28565b9350505b80610f2681612a28565b915050610e8a565b5095945050505050565b6000546001600160a01b03163314610f625760405162461bcd60e51b815260040161075190612a59565b600355565b6000546001600160a01b03163314610f915760405162461bcd60e51b815260040161075190612a59565b600280546001600160a01b0319166001600160a01b0392909216919091179055565b6060600060015b6001548111611018576000818152600a602052604090206007015415801590610ff357506000818152600a602052604090206005015484145b15611006578161100281612a28565b9250505b8061101081612a28565b915050610fba565b506000808267ffffffffffffffff81111561103557611035612856565b60405190808252806020026020018201604052801561105e578160200160208202803683370190505b50905060015b60015481116110e0576000818152600a60205260409020600701541580159061109d57506000818152600a602052604090206005015486145b156110ce57808284815181106110b5576110b5612a43565b6020908102919091010152826110ca81612a28565b9350505b806110d881612a28565b915050611064565b50949350505050565b6060600060015b6001548111611175576000818152600a602052604090206007015415801561112857506000818152600a602052604090206005015484145b801561115057506000818152600a60205260409020600201546001600160a01b038681169116145b15611163578161115f81612a28565b9250505b8061116d81612a28565b9150506110f0565b506000808267ffffffffffffffff81111561119257611192612856565b6040519080825280602002602001820160405280156111bb578160200160208202803683370190505b50905060015b6001548111610f2e576000818152600a60205260409020600701541580156111f957506000818152600a602052604090206005015486145b801561122157506000818152600a60205260409020600201546001600160a01b038881169116145b15611252578082848151811061123957611239612a43565b60209081029190910101528261124e81612a28565b9350505b8061125c81612a28565b9150506111c1565b6000546001600160a01b0316331461128e5760405162461bcd60e51b815260040161075190612a59565b6000918252600c602052604090912080546001600160a01b0319166001600160a01b03909216919091179055565b6000546001600160a01b031633146112e65760405162461bcd60e51b815260040161075190612a59565b6112f06000612334565b565b6060600060015b60015481116113a5576000818152600a60205260409020600701541580159061133257506000818152600a602052604090206005015484145b801561138057506000818152600a60205260409020600201546001600160a01b038681169116148061138057506000818152600a60205260409020600301546001600160a01b038681169116145b15611393578161138f81612a28565b9250505b8061139d81612a28565b9150506112f9565b506000808267ffffffffffffffff8111156113c2576113c2612856565b6040519080825280602002602001820160405280156113eb578160200160208202803683370190505b50905060015b6001548111610f2e576000818152600a60205260409020600701541580159061142a57506000818152600a602052604090206005015486145b801561147857506000818152600a60205260409020600201546001600160a01b038881169116148061147857506000818152600a60205260409020600301546001600160a01b038881169116145b156114a9578082848151811061149057611490612a43565b6020908102919091010152826114a581612a28565b9350505b806114b381612a28565b9150506113f1565b6000546001600160a01b031633146114e55760405162461bcd60e51b815260040161075190612a59565b6000918252600b602052604090912055565b6000838152600b602052604090819020546002549151630152368f60e01b815233926001600160a01b031690630152368f9061153b90879087908790600401612954565b60206040518083038186803b15801561155357600080fd5b505afa158015611567573d6000803e3d6000fd5b505050506040513d601f19601f8201168201806040525081019061158b9190612980565b5060025460405163b7601a1560e01b81526001600160a01b039091169063b7601a15906115be90879087906004016129a2565b60206040518083038186803b1580156115d657600080fd5b505afa1580156115ea573d6000803e3d6000fd5b505050506040513d601f19601f8201168201806040525081019061160e9190612980565b5060025460408051637e062a3560e11b815290516000926001600160a01b03169163fc0c546a916004808301926020929190829003018186803b15801561165457600080fd5b505afa158015611668573d6000803e3d6000fd5b505050506040513d601f19601f8201168201806040525081019061168c91906129b6565b90508584146116dd5760405162461bcd60e51b815260206004820152601e60248201527f4c6f6262794d616e616765723a2077726f6e6720706172616d657465727300006044820152606401610751565b600082116117385760405162461bcd60e51b815260206004820152602260248201527f4c6f6262794d616e616765723a2077726f6e67206c6f62627920636170616369604482015261747960f01b6064820152608401610751565b806001600160a01b03166323b872dd84600260009054906101000a90046001600160a01b03166001600160a01b03166311ce406d6040518163ffffffff1660e01b815260040160206040518083038186803b15801561179657600080fd5b505afa1580156117aa573d6000803e3d6000fd5b505050506040513d601f19601f820116820180604052508101906117ce91906129b6565b6040516001600160e01b031960e085901b1681526001600160a01b0392831660048201529116602482015260448101859052606401602060405180830381600087803b15801561181d57600080fd5b505af1158015611831573d6000803e3d6000fd5b505050506040513d601f19601f820116820180604052508101906118559190612980565b6118a15760405162461bcd60e51b815260206004820152601c60248201527f4c6f6262794d616e616765723a206e6f7420656e6f75676820666565000000006044820152606401610751565b6118aa8361209f565b6001600160a01b03831660009081526007602052604090205482016001600160a01b038416600090815260076020526040812091909155600180540190508060018190555060006040518061016001604052808b81526020018a8152602001866001600160a01b0316815260200160006001600160a01b0316815260200183815260200189815260200142815260200160008152602001600081526020018581526020016000815250905080600a6000848152602001908152602001600020600082015181600001556020820151816001015560408201518160020160006101000a8154816001600160a01b0302191690836001600160a01b0316021790555060608201518160030160006101000a8154816001600160a01b0302191690836001600160a01b031602179055506080820151816004015560a0820151816005015560c0820151816006015560e082015181600701556101008201518160080155610120820151816009015561014082015181600a015590505060005b86811015611b0257878782818110611a4057611a40612a43565b60008681526009602090815260408083206001600160a01b03808e168552908352818420888552835292209202939093013590555060025416634239ca30898984818110611a9057611a90612a43565b905060200201356040518263ffffffff1660e01b8152600401611ab591815260200190565b600060405180830381600087803b158015611acf57600080fd5b505af1158015611ae3573d6000803e3d6000fd5b50505050611afb60018261211090919063ffffffff16565b9050611a26565b5050505050505050505050565b6000804442336000356001600160e01b0319165a6040805160208101969096528501939093526bffffffffffffffffffffffff19606092831b16918401919091526001600160e01b031916607483015260788201526098810185905260b8810184905260d80160408051601f198184030181529190528051602090910120905083611b9a8185612a8e565b611ba5906001612aa5565b611baf9083612ad3565b611bb99190612aa5565b949350505050565b60608167ffffffffffffffff811115611bdc57611bdc612856565b604051908082528060200260200182016040528015611c0f57816020015b6060815260200190600190039081611bfa5790505b50905060005b82811015611caf57611c7f30858584818110611c3357611c33612a43565b9050602002810190611c459190612af5565b8080601f01602080910402602001604051908101604052809392919081815260200183838082843760009201919091525061238492505050565b828281518110611c9157611c91612a43565b60200260200101819052508080611ca790612a28565b915050611c15565b5092915050565b600080600080600080600080611ccb89610d5d565b935093509350935060008060005b8551811015611e475760025486516000916001600160a01b03169063d5c1ed8a90899085908110611d0c57611d0c612a43565b60200260200101516040518263ffffffff1660e01b8152600401611d3291815260200190565b60206040518083038186803b158015611d4a57600080fd5b505afa158015611d5e573d6000803e3d6000fd5b505050506040513d601f19601f82011682018060405250810190611d8291906129f9565b9384019390506001600160a01b03861615611e3e5760025485516000916001600160a01b03169063d5c1ed8a90889086908110611dc157611dc1612a43565b60200260200101516040518263ffffffff1660e01b8152600401611de791815260200190565b60206040518083038186803b158015611dff57600080fd5b505afa158015611e13573d6000803e3d6000fd5b505050506040513d601f19601f82011682018060405250810190611e3791906129f9565b9390930192505b50600101611cd9565b50949a9099509197509295509350505050565b606060005b60008481526009602090815260408083206001600160a01b0387168452825280832084845290915290205415611ea15780611e9981612a28565b915050611e5f565b60008167ffffffffffffffff811115611ebc57611ebc612856565b604051908082528060200260200182016040528015611ee5578160200160208202803683370190505b50905060005b828110156110e05760008681526009602090815260408083206001600160a01b038916845282528083208484529091529020548251839083908110611f3257611f32612a43565b6020908102919091010152600101611eeb565b60008060005b8351811015611caf576002548451611ffa916001600160a01b03169063d5c1ed8a90879085908110611f7f57611f7f612a43565b60200260200101516040518263ffffffff1660e01b8152600401611fa591815260200190565b60206040518083038186803b158015611fbd57600080fd5b505afa158015611fd1573d6000803e3d6000fd5b505050506040513d601f19601f82011682018060405250810190611ff591906129f9565b830190565b9150600101611f4b565b6000546001600160a01b0316331461202e5760405162461bcd60e51b815260040161075190612a59565b6001600160a01b0381166120935760405162461bcd60e51b815260206004820152602660248201527f4f776e61626c653a206e6577206f776e657220697320746865207a65726f206160448201526564647265737360d01b6064820152608401610751565b61209c81612334565b50565b6001600160a01b03811660009081526006602052604090205460ff1661209c5760048054600090815260056020908152604080832080546001600160a01b0319166001600160a01b038716908117909155835260069091529020805460ff1916600190811790915590540160045550565b0190565b0290565b600081838161212957612129612abd565b049392505050565b60005b835181101561232c5760025484516001600160a01b039091169063b0a04efa9086908490811061216657612166612a43565b6020026020010151876001146040518363ffffffff1660e01b815260040161219a9291909182521515602082015260400190565b600060405180830381600087803b1580156121b457600080fd5b505af11580156121c8573d6000803e3d6000fd5b505060025485516001600160a01b03909116925063b0a04efa91508590849081106121f5576121f5612a43565b6020026020010151876002146040518363ffffffff1660e01b81526004016122299291909182521515602082015260400190565b600060405180830381600087803b15801561224357600080fd5b505af1158015612257573d6000803e3d6000fd5b505060025485516001600160a01b039091169250634239ca30915085908490811061228457612284612a43565b60200260200101516040518263ffffffff1660e01b81526004016122aa91815260200190565b600060405180830381600087803b1580156122c457600080fd5b505af11580156122d8573d6000803e3d6000fd5b505050508281815181106122ee576122ee612a43565b60209081029190910181015160008881526009835260408082206001600160a01b038716835284528082208583529093529190912055600101612134565b505050505050565b600080546001600160a01b038381166001600160a01b0319831681178455604051919092169283917f8be0079c531659141344cd1fd0a4f28419497f9722a3daafe3b4186f6b6457e09190a35050565b60606123a98383604051806060016040528060278152602001612b6c602791396123b0565b9392505050565b60606001600160a01b0384163b6124185760405162461bcd60e51b815260206004820152602660248201527f416464726573733a2064656c65676174652063616c6c20746f206e6f6e2d636f6044820152651b9d1c9858dd60d21b6064820152608401610751565b600080856001600160a01b0316856040516124339190612b3c565b600060405180830381855af49150503d806000811461246e576040519150601f19603f3d011682016040523d82523d6000602084013e612473565b606091505b509150915061248382828661248d565b9695505050505050565b6060831561249c5750816123a9565b8251156124ac5782518084602001fd5b8160405162461bcd60e51b81526004016107519190612b58565b60008083601f8401126124d857600080fd5b50813567ffffffffffffffff8111156124f057600080fd5b6020830191508360208260051b850101111561250b57600080fd5b9250929050565b60008060006040848603121561252757600080fd5b83359250602084013567ffffffffffffffff81111561254557600080fd5b612551868287016124c6565b9497909650939450505050565b60006020828403121561257057600080fd5b5035919050565b600081518084526020808501945080840160005b838110156125a75781518752958201959082019060010161258b565b509495945050505050565b600060018060a01b038087168352608060208401526125d46080840187612577565b818616604085015283810360608501526125ee8186612577565b98975050505050505050565b6001600160a01b038116811461209c57600080fd5b60008060006060848603121561262457600080fd5b833592506020840135612636816125fa565b929592945050506040919091013590565b6000806040838503121561265a57600080fd5b8235612665816125fa565b946020939093013593505050565b6020815260006123a96020830184612577565b60006020828403121561269857600080fd5b81356123a9816125fa565b600080604083850312156126b657600080fd5b8235915060208301356126c8816125fa565b809150509250929050565b600080604083850312156126e657600080fd5b50508035926020909101359150565b60008060008060006080868803121561270d57600080fd5b853594506020860135935060408601359250606086013567ffffffffffffffff81111561273957600080fd5b612745888289016124c6565b969995985093965092949392505050565b6000806020838503121561276957600080fd5b823567ffffffffffffffff81111561278057600080fd5b61278c858286016124c6565b90969095509350505050565b60005b838110156127b357818101518382015260200161279b565b838111156127c2576000848401525b50505050565b600081518084526127e0816020860160208601612798565b601f01601f19169290920160200192915050565b6000602080830181845280855180835260408601915060408160051b870101925083870160005b8281101561284957603f198886030184526128378583516127c8565b9450928501929085019060010161281b565b5092979650505050505050565b634e487b7160e01b600052604160045260246000fd5b6000602080838503121561287f57600080fd5b823567ffffffffffffffff8082111561289757600080fd5b818501915085601f8301126128ab57600080fd5b8135818111156128bd576128bd612856565b8060051b604051601f19603f830116810181811085821117156128e2576128e2612856565b60405291825284820192508381018501918883111561290057600080fd5b938501935b828510156125ee57843584529385019392850192612905565b81835260006001600160fb1b0383111561293757600080fd5b8260051b8083602087013760009401602001938452509192915050565b60408152600061296860408301858761291e565b905060018060a01b0383166020830152949350505050565b60006020828403121561299257600080fd5b815180151581146123a957600080fd5b602081526000611bb960208301848661291e565b6000602082840312156129c857600080fd5b81516123a9816125fa565b6040815260006129e66040830186612577565b828103602084015261248381858761291e565b600060208284031215612a0b57600080fd5b5051919050565b634e487b7160e01b600052601160045260246000fd5b6000600019821415612a3c57612a3c612a12565b5060010190565b634e487b7160e01b600052603260045260246000fd5b6020808252818101527f4f776e61626c653a2063616c6c6572206973206e6f7420746865206f776e6572604082015260600190565b600082821015612aa057612aa0612a12565b500390565b60008219821115612ab857612ab8612a12565b500190565b634e487b7160e01b600052601260045260246000fd5b600082612af057634e487b7160e01b600052601260045260246000fd5b500690565b6000808335601e19843603018112612b0c57600080fd5b83018035915067ffffffffffffffff821115612b2757600080fd5b60200191503681900382131561250b57600080fd5b60008251612b4e818460208701612798565b9190910192915050565b6020815260006123a960208301846127c856fe416464726573733a206c6f772d6c6576656c2064656c65676174652063616c6c206661696c6564a2646970667358221220c9fbc7eef0f4a7d5973ac61b79f03d30d5df9f03b42cf63022a1ae20145fceec64736f6c63430008090033",
  "linkReferences": {},
  "deployedLinkReferences": {}
}