{
  "_format": "hh-sol-artifact-1",
  "contractName": "LobbyBattle",
  "sourceName": "contracts/game/LobbyBattle.sol",
  "abi": [
    {
      "inputs": [],
      "stateMutability": "nonpayable",
      "type": "constructor"
    },
    {
      "anonymous": false,
      "inputs": [
        {
          "indexed": true,
          "internalType": "address",
          "name": "previousOwner",
          "type": "address"
        },
        {
          "indexed": true,
          "internalType": "address",
          "name": "newOwner",
          "type": "address"
        }
      ],
      "name": "OwnershipTransferred",
      "type": "event"
    },
    {
      "inputs": [],
      "name": "bonusExp",
      "outputs": [
        {
          "internalType": "uint256",
          "name": "",
          "type": "uint256"
        }
      ],
      "stateMutability": "view",
      "type": "function"
    },
    {
      "inputs": [
        {
          "internalType": "uint256",
          "name": "capacity",
          "type": "uint256"
        },
        {
          "internalType": "bytes32",
          "name": "name",
          "type": "bytes32"
        },
        {
          "internalType": "bytes32",
          "name": "avatar",
          "type": "bytes32"
        },
        {
          "internalType": "uint256[]",
          "name": "heroIds",
          "type": "uint256[]"
        }
      ],
      "name": "createLobby",
      "outputs": [],
      "stateMutability": "nonpayable",
      "type": "function"
    },
    {
      "inputs": [
        {
          "internalType": "address",
          "name": "myAddr",
          "type": "address"
        }
      ],
      "name": "getActiveLobbies",
      "outputs": [
        {
          "internalType": "uint256[]",
          "name": "",
          "type": "uint256[]"
        }
      ],
      "stateMutability": "view",
      "type": "function"
    },
    {
      "inputs": [],
      "name": "getAllHistory",
      "outputs": [
        {
          "internalType": "uint256[]",
          "name": "",
          "type": "uint256[]"
        }
      ],
      "stateMutability": "view",
      "type": "function"
    },
    {
      "inputs": [
        {
          "internalType": "uint256",
          "name": "lobbyId",
          "type": "uint256"
        }
      ],
      "name": "getLobbyHeroes",
      "outputs": [
        {
          "internalType": "address",
          "name": "",
          "type": "address"
        },
        {
          "internalType": "uint256[]",
          "name": "",
          "type": "uint256[]"
        },
        {
          "internalType": "address",
          "name": "",
          "type": "address"
        },
        {
          "internalType": "uint256[]",
          "name": "",
          "type": "uint256[]"
        }
      ],
      "stateMutability": "view",
      "type": "function"
    },
    {
      "inputs": [
        {
          "internalType": "uint256",
          "name": "lobbyId",
          "type": "uint256"
        }
      ],
      "name": "getLobbyPower",
      "outputs": [
        {
          "internalType": "address",
          "name": "",
          "type": "address"
        },
        {
          "internalType": "uint256",
          "name": "",
          "type": "uint256"
        },
        {
          "internalType": "address",
          "name": "",
          "type": "address"
        },
        {
          "internalType": "uint256",
          "name": "",
          "type": "uint256"
        }
      ],
      "stateMutability": "view",
      "type": "function"
    },
    {
      "inputs": [
        {
          "internalType": "address",
          "name": "myAddr",
          "type": "address"
        }
      ],
      "name": "getMyHistory",
      "outputs": [
        {
          "internalType": "uint256[]",
          "name": "",
          "type": "uint256[]"
        }
      ],
      "stateMutability": "view",
      "type": "function"
    },
    {
      "inputs": [
        {
          "internalType": "address",
          "name": "myAddr",
          "type": "address"
        }
      ],
      "name": "getMyLobbies",
      "outputs": [
        {
          "internalType": "uint256[]",
          "name": "",
          "type": "uint256[]"
        }
      ],
      "stateMutability": "view",
      "type": "function"
    },
    {
      "inputs": [
        {
          "internalType": "uint256",
          "name": "lobbyId",
          "type": "uint256"
        },
        {
          "internalType": "address",
          "name": "player",
          "type": "address"
        }
      ],
      "name": "getPlayerHeroesOnLobby",
      "outputs": [
        {
          "internalType": "uint256[]",
          "name": "",
          "type": "uint256[]"
        }
      ],
      "stateMutability": "view",
      "type": "function"
    },
    {
      "inputs": [
        {
          "internalType": "uint256",
          "name": "heroId",
          "type": "uint256"
        }
      ],
      "name": "heroBonusExp",
      "outputs": [
        {
          "internalType": "uint256",
          "name": "",
          "type": "uint256"
        }
      ],
      "stateMutability": "view",
      "type": "function"
    },
    {
      "inputs": [],
      "name": "heroManager",
      "outputs": [
        {
          "internalType": "contract IHeroManager",
          "name": "",
          "type": "address"
        }
      ],
      "stateMutability": "view",
      "type": "function"
    },
    {
      "inputs": [
        {
          "internalType": "uint256",
          "name": "lobbyId",
          "type": "uint256"
        },
        {
          "internalType": "uint256[]",
          "name": "heroIds",
          "type": "uint256[]"
        }
      ],
      "name": "joinLobby",
      "outputs": [],
      "stateMutability": "nonpayable",
      "type": "function"
    },
    {
      "inputs": [
        {
          "internalType": "uint256",
          "name": "",
          "type": "uint256"
        }
      ],
      "name": "lobbies",
      "outputs": [
        {
          "internalType": "bytes32",
          "name": "name",
          "type": "bytes32"
        },
        {
          "internalType": "bytes32",
          "name": "avatar",
          "type": "bytes32"
        },
        {
          "internalType": "address",
          "name": "host",
          "type": "address"
        },
        {
          "internalType": "address",
          "name": "client",
          "type": "address"
        },
        {
          "internalType": "uint256",
          "name": "id",
          "type": "uint256"
        },
        {
          "internalType": "uint256",
          "name": "capacity",
          "type": "uint256"
        },
        {
          "internalType": "uint256",
          "name": "startedAt",
          "type": "uint256"
        },
        {
          "internalType": "uint256",
          "name": "finishedAt",
          "type": "uint256"
        },
        {
          "internalType": "uint256",
          "name": "winner",
          "type": "uint256"
        },
        {
          "internalType": "uint256",
          "name": "fee",
          "type": "uint256"
        },
        {
          "internalType": "uint256",
          "name": "rewards",
          "type": "uint256"
        }
      ],
      "stateMutability": "view",
      "type": "function"
    },
    {
      "inputs": [
        {
          "internalType": "uint256",
          "name": "",
          "type": "uint256"
        }
      ],
      "name": "lobbyFees",
      "outputs": [
        {
          "internalType": "uint256",
          "name": "",
          "type": "uint256"
        }
      ],
      "stateMutability": "view",
      "type": "function"
    },
    {
      "inputs": [
        {
          "internalType": "uint256",
          "name": "",
          "type": "uint256"
        },
        {
          "internalType": "address",
          "name": "",
          "type": "address"
        },
        {
          "internalType": "uint256",
          "name": "",
          "type": "uint256"
        }
      ],
      "name": "lobbyHeroes",
      "outputs": [
        {
          "internalType": "uint256",
          "name": "",
          "type": "uint256"
        }
      ],
      "stateMutability": "view",
      "type": "function"
    },
    {
      "inputs": [
        {
          "internalType": "uint256",
          "name": "",
          "type": "uint256"
        },
        {
          "internalType": "address",
          "name": "",
          "type": "address"
        }
      ],
      "name": "lobbyHeroesCount",
      "outputs": [
        {
          "internalType": "uint256",
          "name": "",
          "type": "uint256"
        }
      ],
      "stateMutability": "view",
      "type": "function"
    },
    {
      "inputs": [
        {
          "internalType": "bytes[]",
          "name": "data",
          "type": "bytes[]"
        }
      ],
      "name": "multicall",
      "outputs": [
        {
          "internalType": "bytes[]",
          "name": "results",
          "type": "bytes[]"
        }
      ],
      "stateMutability": "nonpayable",
      "type": "function"
    },
    {
      "inputs": [],
      "name": "nft",
      "outputs": [
        {
          "internalType": "contract IERC721",
          "name": "",
          "type": "address"
        }
      ],
      "stateMutability": "view",
      "type": "function"
    },
    {
      "inputs": [],
      "name": "owner",
      "outputs": [
        {
          "internalType": "address",
          "name": "",
          "type": "address"
        }
      ],
      "stateMutability": "view",
      "type": "function"
    },
    {
      "inputs": [
        {
          "internalType": "uint256",
          "name": "min",
          "type": "uint256"
        },
        {
          "internalType": "uint256",
          "name": "max",
          "type": "uint256"
        }
      ],
      "name": "random",
      "outputs": [
        {
          "internalType": "uint256",
          "name": "",
          "type": "uint256"
        }
      ],
      "stateMutability": "view",
      "type": "function"
    },
    {
      "inputs": [],
      "name": "renounceOwnership",
      "outputs": [],
      "stateMutability": "nonpayable",
      "type": "function"
    },
    {
      "inputs": [],
      "name": "rewardsPayeer",
      "outputs": [
        {
          "internalType": "address",
          "name": "",
          "type": "address"
        }
      ],
      "stateMutability": "view",
      "type": "function"
    },
    {
      "inputs": [
        {
          "internalType": "uint256",
          "name": "value",
          "type": "uint256"
        }
      ],
      "name": "setBonusExp",
      "outputs": [],
      "stateMutability": "nonpayable",
      "type": "function"
    },
    {
      "inputs": [
        {
          "internalType": "address",
          "name": "hmAddr",
          "type": "address"
        }
      ],
      "name": "setHeroManager",
      "outputs": [],
      "stateMutability": "nonpayable",
      "type": "function"
    },
    {
      "inputs": [
        {
          "internalType": "uint256",
          "name": "capacity",
          "type": "uint256"
        },
        {
          "internalType": "uint256",
          "name": "fee",
          "type": "uint256"
        }
      ],
      "name": "setLobbyFee",
      "outputs": [],
      "stateMutability": "nonpayable",
      "type": "function"
    },
    {
      "inputs": [
        {
          "internalType": "address",
          "name": "payer",
          "type": "address"
        }
      ],
      "name": "setRewardsPayeer",
      "outputs": [],
      "stateMutability": "nonpayable",
      "type": "function"
    },
    {
      "inputs": [],
      "name": "token",
      "outputs": [
        {
          "internalType": "contract IERC20",
          "name": "",
          "type": "address"
        }
      ],
      "stateMutability": "view",
      "type": "function"
    },
    {
      "inputs": [
        {
          "internalType": "address",
          "name": "newOwner",
          "type": "address"
        }
      ],
      "name": "transferOwnership",
      "outputs": [],
      "stateMutability": "nonpayable",
      "type": "function"
    },
    {
      "inputs": [
        {
          "internalType": "uint256[]",
          "name": "heroIds",
          "type": "uint256[]"
        },
        {
          "internalType": "address",
          "name": "owner",
          "type": "address"
        }
      ],
      "name": "validateHeroIds",
      "outputs": [
        {
          "internalType": "bool",
          "name": "",
          "type": "bool"
        }
      ],
      "stateMutability": "view",
      "type": "function"
    },
    {
      "inputs": [
        {
          "internalType": "address payable",
          "name": "recipient",
          "type": "address"
        }
      ],
      "name": "withdrawDustETH",
      "outputs": [],
      "stateMutability": "nonpayable",
      "type": "function"
    },
    {
      "stateMutability": "payable",
      "type": "receive"
    }
  ],
  "bytecode": "0x6080604052600280546001600160a01b0319908116730c966628e4828958376a24ee66f5278a71c96aee179091556003805482167328ee3e2826264b9c55fcdd122dfa93680916c9b817905560048054821673ef5a8af5148a53a4ef4749595fe44e3e08754b8b17905560058054909116730cca7943409260455ceef6be46c69b3fc808e24f17905560fa600655601e60075534801561009e57600080fd5b506100a83361013e565b600a60205269010f0cf064dd592000007fbbc70db1b6c7afd11e79c0fb0051300458f1a3acb8ee9789d9b6b26c61ad9bc75569054b40b1f852bda000007fa856840544dc26124927add067d799967eac11be13e14d82cc281ea46fa39759556005600052690a968163f0a57b4000007ff35035bc2b01d44bd35a1dcdc552315cffb73da35cfd60570b7b777f98036f9f5561018e565b600080546001600160a01b038381166001600160a01b0319831681178455604051919092169283917f8be0079c531659141344cd1fd0a4f28419497f9722a3daafe3b4186f6b6457e09190a35050565b612d0d806200019e6000396000f3fe6080604052600436106101d05760003560e01c806372c90ca6116100f7578063b8830f9f11610095578063e4118fca11610064578063e4118fca14610698578063f2fde38b146106b8578063fc0c546a146106d8578063fc585034146106f857600080fd5b8063b8830f9f1461060b578063b97dcb221461062b578063b9f2d5201461064b578063e393c2941461067857600080fd5b8063a9dd1225116100d1578063a9dd122514610553578063ab40514514610573578063ac9650d814610589578063b12f5c57146105b657600080fd5b806372c90ca6146104dd578063833588cc146105155780638da5cb5b1461053557600080fd5b8063370068aa1161016f5780633c1522911161013e5780633c152291146103a957806347ccca02146103c95780636e8fb4c6146103e9578063715018a6146104c857600080fd5b8063370068aa14610334578063378cc3471461035457806339c5891a146103745780633b8a7a131461038957600080fd5b806307a48c19116101ab57806307a48c191461025357806311ce406d1461028357806316fc989c146102bb5780633024438d1461030757600080fd5b8062c8bd7e146101dc5780630152368f146101fe57806306d040d31461023357600080fd5b366101d757005b600080fd5b3480156101e857600080fd5b506101fc6101f73660046126f2565b610718565b005b34801561020a57600080fd5b5061021e610219366004612752565b610e66565b60405190151581526020015b60405180910390f35b34801561023f57600080fd5b506101fc61024e3660046127a8565b610f83565b34801561025f57600080fd5b5061027361026e366004612808565b61130d565b60405161022a949392919061285c565b34801561028f57600080fd5b506005546102a3906001600160a01b031681565b6040516001600160a01b03909116815260200161022a565b3480156102c757600080fd5b506102f96102d63660046128a4565b600860209081526000938452604080852082529284528284209052825290205481565b60405190815260200161022a565b34801561031357600080fd5b506103276103223660046128dc565b611361565b60405161022a91906128f9565b34801561034057600080fd5b5061032761034f3660046128dc565b6114ae565b34801561036057600080fd5b506101fc61036f3660046128dc565b61163e565b34801561038057600080fd5b5061032761168a565b34801561039557600080fd5b506002546102a3906001600160a01b031681565b3480156103b557600080fd5b506103276103c43660046128dc565b611782565b3480156103d557600080fd5b506004546102a3906001600160a01b031681565b3480156103f557600080fd5b50610469610404366004612808565b600b60205260009081526040902080546001820154600283015460038401546004850154600586015460068701546007880154600889015460098a0154600a909a0154989997986001600160a01b03978816989790961696949593949293919290918b565b604080519b8c5260208c019a909a526001600160a01b03988916998b0199909952969095166060890152608088019390935260a087019190915260c086015260e08501526101008401526101208301526101408201526101600161022a565b3480156104d457600080fd5b506101fc6118c4565b3480156104e957600080fd5b506102f96104f836600461290c565b600960209081526000928352604080842090915290825290205481565b34801561052157600080fd5b506101fc61053036600461293c565b6118fa565b34801561054157600080fd5b506000546001600160a01b03166102a3565b34801561055f57600080fd5b506102f961056e36600461293c565b611936565b34801561057f57600080fd5b506102f960075481565b34801561059557600080fd5b506105a96105a436600461295e565b6119c5565b60405161022a91906129fb565b3480156105c257600080fd5b506105d66105d1366004612808565b611ab9565b60405161022a94939291906001600160a01b039485168152602081019390935292166040820152606081019190915260800190565b34801561061757600080fd5b506101fc610626366004612808565b611c78565b34801561063757600080fd5b5061032761064636600461290c565b611ca7565b34801561065757600080fd5b506102f9610666366004612808565b600a6020526000908152604090205481565b34801561068457600080fd5b506101fc6106933660046128dc565b611d78565b3480156106a457600080fd5b506101fc6106b33660046128dc565b611ddb565b3480156106c457600080fd5b506101fc6106d33660046128dc565b611e27565b3480156106e457600080fd5b506003546102a3906001600160a01b031681565b34801561070457600080fd5b506102f9610713366004612808565b611ec2565b610723828233610e66565b506000838152600b602052604090206004015483146107895760405162461bcd60e51b815260206004820181905260248201527f4c6f626279426174746c653a206c6f62627920646f65736e277420657869737460448201526064015b60405180910390fd5b6000838152600b602052604090206005015481146107e95760405162461bcd60e51b815260206004820152601960248201527f4c6f626279426174746c653a2077726f6e67206865726f6573000000000000006044820152606401610780565b6000838152600b6020526040902060070154156108485760405162461bcd60e51b815260206004820152601d60248201527f4c6f626279426174746c653a20616c72656164792066696e69736865640000006044820152606401610780565b600354600580546000868152600b60209081526040808320909401548252600a90528290205491516323b872dd60e01b81523360048201526001600160a01b0391821660248201526044810192909252909116906323b872dd90606401602060405180830381600087803b1580156108bf57600080fd5b505af11580156108d3573d6000803e3d6000fd5b505050506040513d601f19601f820116820180604052508101906108f79190612a5d565b6109435760405162461bcd60e51b815260206004820152601b60248201527f4c6f626279426174746c653a206e6f7420656e6f7567682066656500000000006044820152606401610780565b6000838152600b602052604081206003810180546001600160a01b0319163317905542600790910155816001600160401b0381111561098457610984612a7f565b6040519080825280602002602001820160405280156109ad578160200160208202803683370190505b50905060005b82811015610a57578383828181106109cd576109cd612a95565b600088815260086020908152604080832033845280835281842088855283528184209483029690960135909355898252600b8152828220600201546001600160a01b03168252938452818120858252909352909120548351909150839083908110610a3a57610a3a612a95565b602090810291909101015280610a4f81612ac1565b9150506109b3565b5060008481526009602090815260408083203384528252808320859055868352600b90915290206005015460011415610d1457610ac781848480806020026020016040519081016040528093929190818152602001838360200280828437600092019190915250611f5792505050565b6000858152600b6020526040902060080181905560011415610c045760025481516001600160a01b039091169063b00475b5908390610b1e908290600090610b1157610b11612a95565b6020026020010151611ec2565b6040518363ffffffff1660e01b8152600401610b3b929190612adc565b600060405180830381600087803b158015610b5557600080fd5b505af1158015610b69573d6000803e3d6000fd5b5050600280546001600160a01b0316925063b00475b5915085908590610ba58383600081610b9957610b99612a95565b90506020020135611ec2565b610baf9190612b14565b6040518463ffffffff1660e01b8152600401610bcd93929190612b28565b600060405180830381600087803b158015610be757600080fd5b505af1158015610bfb573d6000803e3d6000fd5b50505050610d14565b600260009054906101000a90046001600160a01b03166001600160a01b031663b00475b5826002610c4185600081518110610b1157610b11612a95565b610c4b9190612b14565b6040518363ffffffff1660e01b8152600401610c68929190612adc565b600060405180830381600087803b158015610c8257600080fd5b505af1158015610c96573d6000803e3d6000fd5b50506002546001600160a01b0316915063b00475b590508484610cc38282600081610b9957610b99612a95565b6040518463ffffffff1660e01b8152600401610ce193929190612b28565b600060405180830381600087803b158015610cfb57600080fd5b505af1158015610d0f573d6000803e3d6000fd5b505050505b6006546000858152600b60209081526040808320600501548352600a909152902054606491610d4291612b6e565b610d4c9190612b14565b6000858152600b60205260409020600a8101919091556003546005546008909201546001600160a01b03918216926323b872dd921690600114610da9576000878152600b60205260409020600301546001600160a01b0316610dc5565b6000878152600b60205260409020600201546001600160a01b03165b6000888152600b602052604090819020600a0154905160e085901b6001600160e01b03191681526001600160a01b0393841660048201529290911660248301526044820152606401602060405180830381600087803b158015610e2757600080fd5b505af1158015610e3b573d6000803e3d6000fd5b505050506040513d601f19601f82011682018060405250810190610e5f9190612a5d565b5050505050565b6000805b83811015610f76576004546001600160a01b038085169116636352211e878785818110610e9957610e99612a95565b905060200201356040518263ffffffff1660e01b8152600401610ebe91815260200190565b60206040518083038186803b158015610ed657600080fd5b505afa158015610eea573d6000803e3d6000fd5b505050506040513d601f19601f82011682018060405250810190610f0e9190612b8d565b6001600160a01b031614610f645760405162461bcd60e51b815260206004820152601b60248201527f4c6f626279426174746c653a206e6f74206865726f206f776e657200000000006044820152606401610780565b80610f6e81612ac1565b915050610e6a565b50600190505b9392505050565b610f8e828233610e66565b50848114610fde5760405162461bcd60e51b815260206004820152601d60248201527f4c6f626279426174746c653a2077726f6e6720706172616d65746572730000006044820152606401610780565b6000858152600a60205260409020546110435760405162461bcd60e51b815260206004820152602160248201527f4c6f626279426174746c653a2077726f6e67206c6f62627920636170616369746044820152607960f81b6064820152608401610780565b6003546005546000878152600a6020526040908190205490516323b872dd60e01b81523360048201526001600160a01b03928316602482015260448101919091529116906323b872dd90606401602060405180830381600087803b1580156110aa57600080fd5b505af11580156110be573d6000803e3d6000fd5b505050506040513d601f19601f820116820180604052508101906110e29190612a5d565b61112e5760405162461bcd60e51b815260206004820152601b60248201527f4c6f626279426174746c653a206e6f7420656e6f7567682066656500000000006044820152606401610780565b61113c600180546001019055565b600061114760015490565b90506000604051806101600160405280878152602001868152602001336001600160a01b0316815260200160006001600160a01b031681526020018381526020018881526020014281526020016000815260200160008152602001600a60008a81526020019081526020016000205481526020016000815250905080600b6000848152602001908152602001600020600082015181600001556020820151816001015560408201518160020160006101000a8154816001600160a01b0302191690836001600160a01b0316021790555060608201518160030160006101000a8154816001600160a01b0302191690836001600160a01b031602179055506080820151816004015560a0820151816005015560c0820151816006015560e082015181600701556101008201518160080155610120820151816009015561014082015181600a015590505060005b838110156112eb578484828181106112ad576112ad612a95565b6000868152600860209081526040808320338452825280832087845282529091209102929092013590915550806112e381612ac1565b915050611293565b5050600090815260096020908152604080832033845290915290205550505050565b6000818152600b602052604081206002810154600390910154606091839183916001600160a01b039081169116816113458882611ca7565b826113508a85611ca7565b955095509550955050509193509193565b6060600060015b60015481116113d2576000818152600b60205260409020600701541580156113ad57506000818152600b60205260409020600201546001600160a01b03858116911614155b156113c057816113bc81612ac1565b9250505b806113ca81612ac1565b915050611368565b50600080826001600160401b038111156113ee576113ee612a7f565b604051908082528060200260200182016040528015611417578160200160208202803683370190505b50905060015b60015481116114a5576000818152600b602052604090206007015415801561146257506000818152600b60205260409020600201546001600160a01b03878116911614155b15611493578082848151811061147a5761147a612a95565b60209081029190910101528261148f81612ac1565b9350505b8061149d81612ac1565b91505061141d565b50949350505050565b6060600060015b6001548111611545576000818152600b60205260409020600701541580159061152057506000818152600b60205260409020600201546001600160a01b038581169116148061152057506000818152600b60205260409020600301546001600160a01b038581169116145b15611533578161152f81612ac1565b9250505b8061153d81612ac1565b9150506114b5565b50600080826001600160401b0381111561156157611561612a7f565b60405190808252806020026020018201604052801561158a578160200160208202803683370190505b50905060015b60015481116114a5576000818152600b6020526040902060070154158015906115fb57506000818152600b60205260409020600201546001600160a01b03878116911614806115fb57506000818152600b60205260409020600301546001600160a01b038781169116145b1561162c578082848151811061161357611613612a95565b60209081029190910101528261162881612ac1565b9350505b8061163681612ac1565b915050611590565b6000546001600160a01b031633146116685760405162461bcd60e51b815260040161078090612baa565b600280546001600160a01b0319166001600160a01b0392909216919091179055565b6060600060015b60015481116116d1576000818152600b6020526040902060070154156116bf57816116bb81612ac1565b9250505b806116c981612ac1565b915050611691565b50600080826001600160401b038111156116ed576116ed612a7f565b604051908082528060200260200182016040528015611716578160200160208202803683370190505b50905060015b600154811161177a576000818152600b602052604090206007015415611768578082848151811061174f5761174f612a95565b60209081029190910101528261176481612ac1565b9350505b8061177281612ac1565b91505061171c565b509392505050565b6060600060015b60015481116117f2576000818152600b60205260409020600701541580156117cd57506000818152600b60205260409020600201546001600160a01b038581169116145b156117e057816117dc81612ac1565b9250505b806117ea81612ac1565b915050611789565b50600080826001600160401b0381111561180e5761180e612a7f565b604051908082528060200260200182016040528015611837578160200160208202803683370190505b50905060015b60015481116114a5576000818152600b602052604090206007015415801561188157506000818152600b60205260409020600201546001600160a01b038781169116145b156118b2578082848151811061189957611899612a95565b6020908102919091010152826118ae81612ac1565b9350505b806118bc81612ac1565b91505061183d565b6000546001600160a01b031633146118ee5760405162461bcd60e51b815260040161078090612baa565b6118f86000612521565b565b6000546001600160a01b031633146119245760405162461bcd60e51b815260040161078090612baa565b6000918252600a602052604090912055565b60408051446020820152429181019190915233606090811b6bffffffffffffffffffffffff1916908201526074810183905260948101829052600090819060b40160408051601f19818403018152919052805160209091012090508361199c8185612bdf565b6119a7906001612bf6565b6119b19083612c0e565b6119bb9190612bf6565b9150505b92915050565b6060816001600160401b038111156119df576119df612a7f565b604051908082528060200260200182016040528015611a1257816020015b60608152602001906001900390816119fd5790505b50905060005b82811015611ab257611a8230858584818110611a3657611a36612a95565b9050602002810190611a489190612c22565b8080601f01602080910402602001604051908101604052809392919081815260200183838082843760009201919091525061257192505050565b828281518110611a9457611a94612a95565b60200260200101819052508080611aaa90612ac1565b915050611a18565b5092915050565b600080600080600080600080611ace8961130d565b935093509350935060008060005b8551811015611c655760025486516000916001600160a01b03169063d5c1ed8a90899085908110611b0f57611b0f612a95565b60200260200101516040518263ffffffff1660e01b8152600401611b3591815260200190565b60206040518083038186803b158015611b4d57600080fd5b505afa158015611b61573d6000803e3d6000fd5b505050506040513d601f19601f82011682018060405250810190611b859190612c68565b9050611b918185612bf6565b93506001600160a01b03861615611c525760025485516000916001600160a01b03169063d5c1ed8a90889086908110611bcc57611bcc612a95565b60200260200101516040518263ffffffff1660e01b8152600401611bf291815260200190565b60206040518083038186803b158015611c0a57600080fd5b505afa158015611c1e573d6000803e3d6000fd5b505050506040513d601f19601f82011682018060405250810190611c429190612c68565b9050611c4e8185612bf6565b9350505b5080611c5d81612ac1565b915050611adc565b50949a9099509197509295509350505050565b6000546001600160a01b03163314611ca25760405162461bcd60e51b815260040161078090612baa565b600755565b60008281526009602090815260408083206001600160a01b0385168452909152812054606091816001600160401b03811115611ce557611ce5612a7f565b604051908082528060200260200182016040528015611d0e578160200160208202803683370190505b50905060005b828110156114a55760008681526008602090815260408083206001600160a01b038916845282528083208484529091529020548251839083908110611d5b57611d5b612a95565b602090810291909101015280611d7081612ac1565b915050611d14565b6000546001600160a01b03163314611da25760405162461bcd60e51b815260040161078090612baa565b6040516001600160a01b038216904780156108fc02916000818181858888f19350505050158015611dd7573d6000803e3d6000fd5b5050565b6000546001600160a01b03163314611e055760405162461bcd60e51b815260040161078090612baa565b600580546001600160a01b0319166001600160a01b0392909216919091179055565b6000546001600160a01b03163314611e515760405162461bcd60e51b815260040161078090612baa565b6001600160a01b038116611eb65760405162461bcd60e51b815260206004820152602660248201527f4f776e61626c653a206e6577206f776e657220697320746865207a65726f206160448201526564647265737360d01b6064820152608401610780565b611ebf81612521565b50565b600254604051630a36d40b60e01b8152600481018390526000916001600160a01b031690630a36d40b9060240160206040518083038186803b158015611f0757600080fd5b505afa158015611f1b573d6000803e3d6000fd5b505050506040513d601f19601f82011682018060405250810190611f3f9190612c68565b600754611f4c9190612bdf565b6119bf906001612bf6565b60008083600081518110611f6d57611f6d612a95565b60200260200101519050600083600081518110611f8c57611f8c612a95565b6020908102919091010151600254604051636ae0f6c560e11b8152600481018590529192506000916001600160a01b039091169063d5c1ed8a9060240160206040518083038186803b158015611fe157600080fd5b505afa158015611ff5573d6000803e3d6000fd5b505050506040513d601f19601f820116820180604052508101906120199190612c68565b600254604051636ae0f6c560e11b8152600481018590529192506000916001600160a01b039091169063d5c1ed8a9060240160206040518083038186803b15801561206357600080fd5b505afa158015612077573d6000803e3d6000fd5b505050506040513d601f19601f8201168201806040525081019061209b9190612c68565b60025460405163f3d1b5ab60e01b8152600481018790529192506000916001600160a01b039091169063f3d1b5ab9060240160206040518083038186803b1580156120e557600080fd5b505afa1580156120f9573d6000803e3d6000fd5b505050506040513d601f19601f8201168201806040525081019061211d9190612c68565b600254604051630a36d40b60e01b8152600481018890529192506000916001600160a01b0390911690630a36d40b9060240160206040518083038186803b15801561216757600080fd5b505afa15801561217b573d6000803e3d6000fd5b505050506040513d601f19601f8201168201806040525081019061219f9190612c68565b60025460405163f3d1b5ab60e01b8152600481018890529192506000916001600160a01b039091169063f3d1b5ab9060240160206040518083038186803b1580156121e957600080fd5b505afa1580156121fd573d6000803e3d6000fd5b505050506040513d601f19601f820116820180604052508101906122219190612c68565b600254604051630a36d40b60e01b8152600481018990529192506000916001600160a01b0390911690630a36d40b9060240160206040518083038186803b15801561226b57600080fd5b505afa15801561227f573d6000803e3d6000fd5b505050506040513d601f19601f820116820180604052508101906122a39190612c68565b905081841415612404578083111561234e57848611156122ce576001985050505050505050506119bf565b848614156123125760006122e460016064611936565b9050603c811161230057600199505050505050505050506119bf565b600299505050505050505050506119bf565b600061232060016064611936565b90506046811161233c57600299505050505050505050506119bf565b600199505050505050505050506119bf565b808314156123ab578486111561238857600061236c60016064611936565b90506046811161230057600199505050505050505050506119bf565b848614156123125761239c60016002611936565b985050505050505050506119bf565b848610156123c4576002985050505050505050506119bf565b848614156123f65760006123da60016064611936565b9050603c811161233c57600299505050505050505050506119bf565b600061236c60016064611936565b8083141561247d578486111561243f57600061242260016064611936565b9050604681111561230057600199505050505050505050506119bf565b848614156124535761239c60016002611936565b600061246160016064611936565b90506014811161230057600199505050505050505050506119bf565b808311156124c8578486111561249e576001985050505050505050506119bf565b60006124ac60016064611936565b90506028811161230057600199505050505050505050506119bf565b848610156124e1576002985050505050505050506119bf565b848614156125135760006124f760016064611936565b9050601e811161230057600199505050505050505050506119bf565b60006122e460016064611936565b600080546001600160a01b038381166001600160a01b0319831681178455604051919092169283917f8be0079c531659141344cd1fd0a4f28419497f9722a3daafe3b4186f6b6457e09190a35050565b6060610f7c8383604051806060016040528060278152602001612cb16027913960606001600160a01b0384163b6125f95760405162461bcd60e51b815260206004820152602660248201527f416464726573733a2064656c65676174652063616c6c20746f206e6f6e2d636f6044820152651b9d1c9858dd60d21b6064820152608401610780565b600080856001600160a01b0316856040516126149190612c81565b600060405180830381855af49150503d806000811461264f576040519150601f19603f3d011682016040523d82523d6000602084013e612654565b606091505b509150915061266482828661266e565b9695505050505050565b6060831561267d575081610f7c565b82511561268d5782518084602001fd5b8160405162461bcd60e51b81526004016107809190612c9d565b60008083601f8401126126b957600080fd5b5081356001600160401b038111156126d057600080fd5b6020830191508360208260051b85010111156126eb57600080fd5b9250929050565b60008060006040848603121561270757600080fd5b8335925060208401356001600160401b0381111561272457600080fd5b612730868287016126a7565b9497909650939450505050565b6001600160a01b0381168114611ebf57600080fd5b60008060006040848603121561276757600080fd5b83356001600160401b0381111561277d57600080fd5b612789868287016126a7565b909450925050602084013561279d8161273d565b809150509250925092565b6000806000806000608086880312156127c057600080fd5b85359450602086013593506040860135925060608601356001600160401b038111156127eb57600080fd5b6127f7888289016126a7565b969995985093965092949392505050565b60006020828403121561281a57600080fd5b5035919050565b600081518084526020808501945080840160005b8381101561285157815187529582019590820190600101612835565b509495945050505050565b600060018060a01b0380871683526080602084015261287e6080840187612821565b818616604085015283810360608501526128988186612821565b98975050505050505050565b6000806000606084860312156128b957600080fd5b8335925060208401356128cb8161273d565b929592945050506040919091013590565b6000602082840312156128ee57600080fd5b8135610f7c8161273d565b602081526000610f7c6020830184612821565b6000806040838503121561291f57600080fd5b8235915060208301356129318161273d565b809150509250929050565b6000806040838503121561294f57600080fd5b50508035926020909101359150565b6000806020838503121561297157600080fd5b82356001600160401b0381111561298757600080fd5b612993858286016126a7565b90969095509350505050565b60005b838110156129ba5781810151838201526020016129a2565b838111156129c9576000848401525b50505050565b600081518084526129e781602086016020860161299f565b601f01601f19169290920160200192915050565b6000602080830181845280855180835260408601915060408160051b870101925083870160005b82811015612a5057603f19888603018452612a3e8583516129cf565b94509285019290850190600101612a22565b5092979650505050505050565b600060208284031215612a6f57600080fd5b81518015158114610f7c57600080fd5b634e487b7160e01b600052604160045260246000fd5b634e487b7160e01b600052603260045260246000fd5b634e487b7160e01b600052601160045260246000fd5b6000600019821415612ad557612ad5612aab565b5060010190565b604081526000612aef6040830185612821565b90508260208301529392505050565b634e487b7160e01b600052601260045260246000fd5b600082612b2357612b23612afe565b500490565b6040808252810183905260006001600160fb1b03841115612b4857600080fd5b8360051b8086606085013760009083016060019081526020909201929092529392505050565b6000816000190483118215151615612b8857612b88612aab565b500290565b600060208284031215612b9f57600080fd5b8151610f7c8161273d565b6020808252818101527f4f776e61626c653a2063616c6c6572206973206e6f7420746865206f776e6572604082015260600190565b600082821015612bf157612bf1612aab565b500390565b60008219821115612c0957612c09612aab565b500190565b600082612c1d57612c1d612afe565b500690565b6000808335601e19843603018112612c3957600080fd5b8301803591506001600160401b03821115612c5357600080fd5b6020019150368190038213156126eb57600080fd5b600060208284031215612c7a57600080fd5b5051919050565b60008251612c9381846020870161299f565b9190910192915050565b602081526000610f7c60208301846129cf56fe416464726573733a206c6f772d6c6576656c2064656c65676174652063616c6c206661696c6564a26469706673582212203a049fa58f02858ac5afda073227061765f2c6a6d81afee72d1156941ae6042c64736f6c63430008090033",
  "linkReferences": {},
  "deployedLinkReferences": {}
}