{
  "_format": "hh-sol-artifact-1",
  "contractName": "LobbyBattle",
  "sourceName": "contracts/game/LobbyBattle.sol",
  "abi": [
    {
      "inputs": [],
      "stateMutability": "nonpayable",
      "type": "constructor"
    },
    {
      "anonymous": false,
      "inputs": [
        {
          "indexed": true,
          "internalType": "address",
          "name": "previousOwner",
          "type": "address"
        },
        {
          "indexed": true,
          "internalType": "address",
          "name": "newOwner",
          "type": "address"
        }
      ],
      "name": "OwnershipTransferred",
      "type": "event"
    },
    {
      "inputs": [],
      "name": "bonusExp",
      "outputs": [
        {
          "internalType": "uint256",
          "name": "",
          "type": "uint256"
        }
      ],
      "stateMutability": "view",
      "type": "function"
    },
    {
      "inputs": [
        {
          "internalType": "uint256",
          "name": "capacity",
          "type": "uint256"
        },
        {
          "internalType": "bytes32",
          "name": "name",
          "type": "bytes32"
        },
        {
          "internalType": "bytes32",
          "name": "avatar",
          "type": "bytes32"
        },
        {
          "internalType": "uint256[]",
          "name": "heroIds",
          "type": "uint256[]"
        }
      ],
      "name": "createLobby",
      "outputs": [],
      "stateMutability": "nonpayable",
      "type": "function"
    },
    {
      "inputs": [
        {
          "internalType": "address",
          "name": "myAddr",
          "type": "address"
        }
      ],
      "name": "getActiveLobbies",
      "outputs": [
        {
          "internalType": "uint256[]",
          "name": "",
          "type": "uint256[]"
        }
      ],
      "stateMutability": "view",
      "type": "function"
    },
    {
      "inputs": [],
      "name": "getAllHistory",
      "outputs": [
        {
          "internalType": "uint256[]",
          "name": "",
          "type": "uint256[]"
        }
      ],
      "stateMutability": "view",
      "type": "function"
    },
    {
      "inputs": [
        {
          "internalType": "address",
          "name": "myAddr",
          "type": "address"
        }
      ],
      "name": "getMyHistory",
      "outputs": [
        {
          "internalType": "uint256[]",
          "name": "",
          "type": "uint256[]"
        }
      ],
      "stateMutability": "view",
      "type": "function"
    },
    {
      "inputs": [
        {
          "internalType": "address",
          "name": "myAddr",
          "type": "address"
        }
      ],
      "name": "getMyLobbies",
      "outputs": [
        {
          "internalType": "uint256[]",
          "name": "",
          "type": "uint256[]"
        }
      ],
      "stateMutability": "view",
      "type": "function"
    },
    {
      "inputs": [
        {
          "internalType": "uint256",
          "name": "heroId",
          "type": "uint256"
        }
      ],
      "name": "heroBonusExp",
      "outputs": [
        {
          "internalType": "uint256",
          "name": "",
          "type": "uint256"
        }
      ],
      "stateMutability": "view",
      "type": "function"
    },
    {
      "inputs": [],
      "name": "heroManager",
      "outputs": [
        {
          "internalType": "contract IHeroManager",
          "name": "",
          "type": "address"
        }
      ],
      "stateMutability": "view",
      "type": "function"
    },
    {
      "inputs": [
        {
          "internalType": "uint256",
          "name": "lobbyId",
          "type": "uint256"
        },
        {
          "internalType": "uint256[]",
          "name": "heroIds",
          "type": "uint256[]"
        }
      ],
      "name": "joinLobby",
      "outputs": [],
      "stateMutability": "nonpayable",
      "type": "function"
    },
    {
      "inputs": [
        {
          "internalType": "uint256",
          "name": "",
          "type": "uint256"
        }
      ],
      "name": "lobbies",
      "outputs": [
        {
          "internalType": "bytes32",
          "name": "name",
          "type": "bytes32"
        },
        {
          "internalType": "bytes32",
          "name": "avatar",
          "type": "bytes32"
        },
        {
          "internalType": "address",
          "name": "host",
          "type": "address"
        },
        {
          "internalType": "address",
          "name": "client",
          "type": "address"
        },
        {
          "internalType": "uint256",
          "name": "id",
          "type": "uint256"
        },
        {
          "internalType": "uint256",
          "name": "capacity",
          "type": "uint256"
        },
        {
          "internalType": "uint256",
          "name": "startedAt",
          "type": "uint256"
        },
        {
          "internalType": "uint256",
          "name": "finishedAt",
          "type": "uint256"
        },
        {
          "internalType": "uint256",
          "name": "winner",
          "type": "uint256"
        },
        {
          "internalType": "uint256",
          "name": "fee",
          "type": "uint256"
        },
        {
          "internalType": "uint256",
          "name": "rewards",
          "type": "uint256"
        }
      ],
      "stateMutability": "view",
      "type": "function"
    },
    {
      "inputs": [
        {
          "internalType": "uint256",
          "name": "",
          "type": "uint256"
        },
        {
          "internalType": "address",
          "name": "",
          "type": "address"
        }
      ],
      "name": "lobbiesRefreshed",
      "outputs": [
        {
          "internalType": "uint256",
          "name": "updatedAt",
          "type": "uint256"
        },
        {
          "internalType": "uint256",
          "name": "limit",
          "type": "uint256"
        }
      ],
      "stateMutability": "view",
      "type": "function"
    },
    {
      "inputs": [
        {
          "internalType": "uint256",
          "name": "",
          "type": "uint256"
        }
      ],
      "name": "lobbyFees",
      "outputs": [
        {
          "internalType": "uint256",
          "name": "",
          "type": "uint256"
        }
      ],
      "stateMutability": "view",
      "type": "function"
    },
    {
      "inputs": [
        {
          "internalType": "uint256",
          "name": "",
          "type": "uint256"
        },
        {
          "internalType": "address",
          "name": "",
          "type": "address"
        },
        {
          "internalType": "uint256",
          "name": "",
          "type": "uint256"
        }
      ],
      "name": "lobbyHeroes",
      "outputs": [
        {
          "internalType": "uint256",
          "name": "",
          "type": "uint256"
        }
      ],
      "stateMutability": "view",
      "type": "function"
    },
    {
      "inputs": [
        {
          "internalType": "bytes[]",
          "name": "data",
          "type": "bytes[]"
        }
      ],
      "name": "multicall",
      "outputs": [
        {
          "internalType": "bytes[]",
          "name": "results",
          "type": "bytes[]"
        }
      ],
      "stateMutability": "nonpayable",
      "type": "function"
    },
    {
      "inputs": [],
      "name": "nft",
      "outputs": [
        {
          "internalType": "contract IERC721",
          "name": "",
          "type": "address"
        }
      ],
      "stateMutability": "view",
      "type": "function"
    },
    {
      "inputs": [],
      "name": "owner",
      "outputs": [
        {
          "internalType": "address",
          "name": "",
          "type": "address"
        }
      ],
      "stateMutability": "view",
      "type": "function"
    },
    {
      "inputs": [
        {
          "internalType": "uint256",
          "name": "min",
          "type": "uint256"
        },
        {
          "internalType": "uint256",
          "name": "max",
          "type": "uint256"
        }
      ],
      "name": "random",
      "outputs": [
        {
          "internalType": "uint256",
          "name": "",
          "type": "uint256"
        }
      ],
      "stateMutability": "view",
      "type": "function"
    },
    {
      "inputs": [],
      "name": "renounceOwnership",
      "outputs": [],
      "stateMutability": "nonpayable",
      "type": "function"
    },
    {
      "inputs": [],
      "name": "rewardsPayeer",
      "outputs": [
        {
          "internalType": "address",
          "name": "",
          "type": "address"
        }
      ],
      "stateMutability": "view",
      "type": "function"
    },
    {
      "inputs": [
        {
          "internalType": "uint256",
          "name": "value",
          "type": "uint256"
        }
      ],
      "name": "setBonusExp",
      "outputs": [],
      "stateMutability": "nonpayable",
      "type": "function"
    },
    {
      "inputs": [
        {
          "internalType": "address",
          "name": "hmAddr",
          "type": "address"
        }
      ],
      "name": "setHeroManager",
      "outputs": [],
      "stateMutability": "nonpayable",
      "type": "function"
    },
    {
      "inputs": [
        {
          "internalType": "uint256",
          "name": "capacity",
          "type": "uint256"
        },
        {
          "internalType": "uint256",
          "name": "fee",
          "type": "uint256"
        }
      ],
      "name": "setLobbyFee",
      "outputs": [],
      "stateMutability": "nonpayable",
      "type": "function"
    },
    {
      "inputs": [
        {
          "internalType": "address",
          "name": "payer",
          "type": "address"
        }
      ],
      "name": "setRewardsPayeer",
      "outputs": [],
      "stateMutability": "nonpayable",
      "type": "function"
    },
    {
      "inputs": [],
      "name": "token",
      "outputs": [
        {
          "internalType": "contract IERC20",
          "name": "",
          "type": "address"
        }
      ],
      "stateMutability": "view",
      "type": "function"
    },
    {
      "inputs": [
        {
          "internalType": "address",
          "name": "newOwner",
          "type": "address"
        }
      ],
      "name": "transferOwnership",
      "outputs": [],
      "stateMutability": "nonpayable",
      "type": "function"
    },
    {
      "inputs": [
        {
          "internalType": "uint256[]",
          "name": "heroIds",
          "type": "uint256[]"
        },
        {
          "internalType": "address",
          "name": "owner",
          "type": "address"
        }
      ],
      "name": "validateHeroIds",
      "outputs": [
        {
          "internalType": "bool",
          "name": "",
          "type": "bool"
        }
      ],
      "stateMutability": "view",
      "type": "function"
    },
    {
      "inputs": [
        {
          "internalType": "address payable",
          "name": "recipient",
          "type": "address"
        }
      ],
      "name": "withdrawDustETH",
      "outputs": [],
      "stateMutability": "nonpayable",
      "type": "function"
    },
    {
      "stateMutability": "payable",
      "type": "receive"
    }
  ],
  "bytecode": "0x6080604052600280546001600160a01b0319908116730c966628e4828958376a24ee66f5278a71c96aee179091556003805482167328ee3e2826264b9c55fcdd122dfa93680916c9b817905560048054821673ef5a8af5148a53a4ef4749595fe44e3e08754b8b17905560058054909116730cca7943409260455ceef6be46c69b3fc808e24f17905560fa600655601e60075534801561009e57600080fd5b506100a83361013e565b600a60205269010f0cf064dd592000007fbbc70db1b6c7afd11e79c0fb0051300458f1a3acb8ee9789d9b6b26c61ad9bc75569054b40b1f852bda000007fa856840544dc26124927add067d799967eac11be13e14d82cc281ea46fa39759556005600052690a968163f0a57b4000007ff35035bc2b01d44bd35a1dcdc552315cffb73da35cfd60570b7b777f98036f9f5561018e565b600080546001600160a01b038381166001600160a01b0319831681178455604051919092169283917f8be0079c531659141344cd1fd0a4f28419497f9722a3daafe3b4186f6b6457e09190a35050565b6129778061019d6000396000f3fe60806040526004361061019f5760003560e01c8063715018a6116100ec578063b8830f9f1161008a578063e4118fca11610064578063e4118fca146105c0578063f2fde38b146105e0578063fc0c546a14610600578063fc5850341461062057600080fd5b8063b8830f9f14610553578063b9f2d52014610573578063e393c294146105a057600080fd5b80638da5cb5b116100c65780638da5cb5b146104d2578063a9dd1225146104f0578063ab40514514610510578063ac9650d81461052657600080fd5b8063715018a61461044957806377cb47bf1461045e578063833588cc146104b257600080fd5b8063370068aa116101595780633b8a7a13116101335780633b8a7a131461030a5780633c1522911461032a57806347ccca021461034a5780636e8fb4c61461036a57600080fd5b8063370068aa146102b5578063378cc347146102d557806339c5891a146102f557600080fd5b8062c8bd7e146101ab5780630152368f146101cd57806306d040d31461020257806311ce406d1461022257806316fc989c1461025a5780633024438d1461028857600080fd5b366101a657005b600080fd5b3480156101b757600080fd5b506101cb6101c63660046123c5565b610640565b005b3480156101d957600080fd5b506101ed6101e8366004612426565b610de2565b60405190151581526020015b60405180910390f35b34801561020e57600080fd5b506101cb61021d36600461247d565b610eff565b34801561022e57600080fd5b50600554610242906001600160a01b031681565b6040516001600160a01b0390911681526020016101f9565b34801561026657600080fd5b5061027a6102753660046124de565b611280565b6040519081526020016101f9565b34801561029457600080fd5b506102a86102a3366004612516565b6112be565b6040516101f99190612533565b3480156102c157600080fd5b506102a86102d0366004612516565b61140c565b3480156102e157600080fd5b506101cb6102f0366004612516565b61159d565b34801561030157600080fd5b506102a86115e9565b34801561031657600080fd5b50600254610242906001600160a01b031681565b34801561033657600080fd5b506102a8610345366004612516565b6116e2565b34801561035657600080fd5b50600454610242906001600160a01b031681565b34801561037657600080fd5b506103ea610385366004612577565b600b60205260009081526040902080546001820154600283015460038401546004850154600586015460068701546007880154600889015460098a0154600a909a0154989997986001600160a01b03978816989790961696949593949293919290918b565b604080519b8c5260208c019a909a526001600160a01b03988916998b0199909952969095166060890152608088019390935260a087019190915260c086015260e0850152610100840152610120830152610140820152610160016101f9565b34801561045557600080fd5b506101cb611825565b34801561046a57600080fd5b5061049d610479366004612590565b60086020908152600092835260408084209091529082529020805460019091015482565b604080519283526020830191909152016101f9565b3480156104be57600080fd5b506101cb6104cd3660046125c0565b61185b565b3480156104de57600080fd5b506000546001600160a01b0316610242565b3480156104fc57600080fd5b5061027a61050b3660046125c0565b611897565b34801561051c57600080fd5b5061027a60075481565b34801561053257600080fd5b506105466105413660046125e2565b611926565b6040516101f9919061267c565b34801561055f57600080fd5b506101cb61056e366004612577565b611a1b565b34801561057f57600080fd5b5061027a61058e366004612577565b600a6020526000908152604090205481565b3480156105ac57600080fd5b506101cb6105bb366004612516565b611a4a565b3480156105cc57600080fd5b506101cb6105db366004612516565b611aad565b3480156105ec57600080fd5b506101cb6105fb366004612516565b611af9565b34801561060c57600080fd5b50600354610242906001600160a01b031681565b34801561062c57600080fd5b5061027a61063b366004612577565b611b94565b61064b828233610de2565b506000838152600b602052604090206004015483146106b15760405162461bcd60e51b815260206004820181905260248201527f4c6f626279426174746c653a206c6f62627920646f65736e277420657869737460448201526064015b60405180910390fd5b6000838152600b602052604090206005015481146107115760405162461bcd60e51b815260206004820152601960248201527f4c6f626279426174746c653a2077726f6e67206865726f65730000000000000060448201526064016106a8565b6000838152600b6020526040902060070154156107705760405162461bcd60e51b815260206004820152601d60248201527f4c6f626279426174746c653a20616c72656164792066696e697368656400000060448201526064016106a8565b600354600580546000868152600b60209081526040808320909401548252600a90528290205491516323b872dd60e01b81523360048201526001600160a01b0391821660248201526044810192909252909116906323b872dd90606401602060405180830381600087803b1580156107e757600080fd5b505af11580156107fb573d6000803e3d6000fd5b505050506040513d601f19601f8201168201806040525081019061081f91906126de565b61086b5760405162461bcd60e51b815260206004820152601b60248201527f4c6f626279426174746c653a206e6f7420656e6f75676820666565000000000060448201526064016106a8565b6000838152600b602052604081206003810180546001600160a01b03191633179055426007909101555b818110156108fc57600084815260096020908152604080832033845290915290208383838181106108c8576108c8612700565b83546001810185556000948552602094859020919094029290920135919092015550806108f48161272c565b915050610895565b506000838152600b602052604090206005015460011415610c91576000838152600960209081526040808320600b8352818420600201546001600160a01b0316845282529182902080548351818402810184019094528084526109c7939283018282801561098957602002820191906000526020600020905b815481526020019060010190808311610975575b5050505050838380806020026020016040519081016040528093929190818152602001838360200280828437600092019190915250611c2992505050565b6000848152600b6020526040902060080181905560011415610b4757600280546000858152600960209081526040808320600b8352818420909501546001600160a01b0390811684529490915281208054939092169263b00475b59291610a4791839190610a3757610a37612700565b9060005260206000200154611b94565b6040518363ffffffff1660e01b8152600401610a64929190612747565b600060405180830381600087803b158015610a7e57600080fd5b505af1158015610a92573d6000803e3d6000fd5b5050600280546000878152600960209081526040808320600b8352818420600301546001600160a01b03908116855292528220805491909316955063b00475b59450919291610ae9918491610a3757610a37612700565b610af391906127ad565b6040518363ffffffff1660e01b8152600401610b10929190612747565b600060405180830381600087803b158015610b2a57600080fd5b505af1158015610b3e573d6000803e3d6000fd5b50505050610c91565b600280546000858152600960209081526040808320600b83528184208601546001600160a01b039081168552925282208054919093169363b00475b593929091610b99918491610a3757610a37612700565b610ba391906127ad565b6040518363ffffffff1660e01b8152600401610bc0929190612747565b600060405180830381600087803b158015610bda57600080fd5b505af1158015610bee573d6000803e3d6000fd5b50506002546000868152600960209081526040808320600b8352818420600301546001600160a01b03908116855292528220805491909316945063b00475b59350610c41918391610a3757610a37612700565b6040518363ffffffff1660e01b8152600401610c5e929190612747565b600060405180830381600087803b158015610c7857600080fd5b505af1158015610c8c573d6000803e3d6000fd5b505050505b6006546000848152600b60209081526040808320600501548352600a909152902054606491610cbf916127c1565b610cc991906127ad565b6000848152600b60205260409020600a8101919091556003546005546008909201546001600160a01b03918216926323b872dd921690600114610d26576000868152600b60205260409020600301546001600160a01b0316610d42565b6000868152600b60205260409020600201546001600160a01b03165b6000878152600b602052604090819020600a0154905160e085901b6001600160e01b03191681526001600160a01b0393841660048201529290911660248301526044820152606401602060405180830381600087803b158015610da457600080fd5b505af1158015610db8573d6000803e3d6000fd5b505050506040513d601f19601f82011682018060405250810190610ddc91906126de565b50505050565b6000805b83811015610ef2576004546001600160a01b038085169116636352211e878785818110610e1557610e15612700565b905060200201356040518263ffffffff1660e01b8152600401610e3a91815260200190565b60206040518083038186803b158015610e5257600080fd5b505afa158015610e66573d6000803e3d6000fd5b505050506040513d601f19601f82011682018060405250810190610e8a91906127e0565b6001600160a01b031614610ee05760405162461bcd60e51b815260206004820152601b60248201527f4c6f626279426174746c653a206e6f74206865726f206f776e6572000000000060448201526064016106a8565b80610eea8161272c565b915050610de6565b50600190505b9392505050565b610f0a828233610de2565b50848114610f5a5760405162461bcd60e51b815260206004820152601d60248201527f4c6f626279426174746c653a2077726f6e6720706172616d657465727300000060448201526064016106a8565b6000858152600a6020526040902054610fbf5760405162461bcd60e51b815260206004820152602160248201527f4c6f626279426174746c653a2077726f6e67206c6f62627920636170616369746044820152607960f81b60648201526084016106a8565b6003546005546000878152600a6020526040908190205490516323b872dd60e01b81523360048201526001600160a01b03928316602482015260448101919091529116906323b872dd90606401602060405180830381600087803b15801561102657600080fd5b505af115801561103a573d6000803e3d6000fd5b505050506040513d601f19601f8201168201806040525081019061105e91906126de565b6110aa5760405162461bcd60e51b815260206004820152601b60248201527f4c6f626279426174746c653a206e6f7420656e6f75676820666565000000000060448201526064016106a8565b6110b8600180546001019055565b60006110c360015490565b90506000604051806101600160405280878152602001868152602001336001600160a01b0316815260200160006001600160a01b031681526020018381526020018881526020014281526020016000815260200160008152602001600a60008a81526020019081526020016000205481526020016000815250905080600b6000848152602001908152602001600020600082015181600001556020820151816001015560408201518160020160006101000a8154816001600160a01b0302191690836001600160a01b0316021790555060608201518160030160006101000a8154816001600160a01b0302191690836001600160a01b031602179055506080820151816004015560a0820151816005015560c0820151816006015560e082015181600701556101008201518160080155610120820151816009015561014082015181600a015590505060005b83811015611276576000838152600960209081526040808320338452909152902085858381811061124257611242612700565b835460018101855560009485526020948590209190940292909201359190920155508061126e8161272c565b91505061120f565b5050505050505050565b600960205282600052604060002060205281600052604060002081815481106112a857600080fd5b9060005260206000200160009250925050505481565b6060600060015b600154811161132f576000818152600b602052604090206007015415801561130a57506000818152600b60205260409020600201546001600160a01b03858116911614155b1561131d57816113198161272c565b9250505b806113278161272c565b9150506112c5565b506000808267ffffffffffffffff81111561134c5761134c6127fd565b604051908082528060200260200182016040528015611375578160200160208202803683370190505b50905060015b6001548111611403576000818152600b60205260409020600701541580156113c057506000818152600b60205260409020600201546001600160a01b03878116911614155b156113f157808284815181106113d8576113d8612700565b6020908102919091010152826113ed8161272c565b9350505b806113fb8161272c565b91505061137b565b50949350505050565b6060600060015b60015481116114a3576000818152600b60205260409020600701541580159061147e57506000818152600b60205260409020600201546001600160a01b038581169116148061147e57506000818152600b60205260409020600301546001600160a01b038581169116145b15611491578161148d8161272c565b9250505b8061149b8161272c565b915050611413565b506000808267ffffffffffffffff8111156114c0576114c06127fd565b6040519080825280602002602001820160405280156114e9578160200160208202803683370190505b50905060015b6001548111611403576000818152600b60205260409020600701541580159061155a57506000818152600b60205260409020600201546001600160a01b038781169116148061155a57506000818152600b60205260409020600301546001600160a01b038781169116145b1561158b578082848151811061157257611572612700565b6020908102919091010152826115878161272c565b9350505b806115958161272c565b9150506114ef565b6000546001600160a01b031633146115c75760405162461bcd60e51b81526004016106a890612813565b600280546001600160a01b0319166001600160a01b0392909216919091179055565b6060600060015b6001548111611630576000818152600b60205260409020600701541561161e578161161a8161272c565b9250505b806116288161272c565b9150506115f0565b506000808267ffffffffffffffff81111561164d5761164d6127fd565b604051908082528060200260200182016040528015611676578160200160208202803683370190505b50905060015b60015481116116da576000818152600b6020526040902060070154156116c857808284815181106116af576116af612700565b6020908102919091010152826116c48161272c565b9350505b806116d28161272c565b91505061167c565b509392505050565b6060600060015b6001548111611752576000818152600b602052604090206007015415801561172d57506000818152600b60205260409020600201546001600160a01b038581169116145b15611740578161173c8161272c565b9250505b8061174a8161272c565b9150506116e9565b506000808267ffffffffffffffff81111561176f5761176f6127fd565b604051908082528060200260200182016040528015611798578160200160208202803683370190505b50905060015b6001548111611403576000818152600b60205260409020600701541580156117e257506000818152600b60205260409020600201546001600160a01b038781169116145b1561181357808284815181106117fa576117fa612700565b60209081029190910101528261180f8161272c565b9350505b8061181d8161272c565b91505061179e565b6000546001600160a01b0316331461184f5760405162461bcd60e51b81526004016106a890612813565b61185960006121f3565b565b6000546001600160a01b031633146118855760405162461bcd60e51b81526004016106a890612813565b6000918252600a602052604090912055565b60408051446020820152429181019190915233606090811b6bffffffffffffffffffffffff1916908201526074810183905260948101829052600090819060b40160408051601f1981840301815291905280516020909101209050836118fd8185612848565b61190890600161285f565b6119129083612877565b61191c919061285f565b9150505b92915050565b60608167ffffffffffffffff811115611941576119416127fd565b60405190808252806020026020018201604052801561197457816020015b606081526020019060019003908161195f5790505b50905060005b82811015611a14576119e43085858481811061199857611998612700565b90506020028101906119aa919061288b565b8080601f01602080910402602001604051908101604052809392919081815260200183838082843760009201919091525061224392505050565b8282815181106119f6576119f6612700565b60200260200101819052508080611a0c9061272c565b91505061197a565b5092915050565b6000546001600160a01b03163314611a455760405162461bcd60e51b81526004016106a890612813565b600755565b6000546001600160a01b03163314611a745760405162461bcd60e51b81526004016106a890612813565b6040516001600160a01b038216904780156108fc02916000818181858888f19350505050158015611aa9573d6000803e3d6000fd5b5050565b6000546001600160a01b03163314611ad75760405162461bcd60e51b81526004016106a890612813565b600580546001600160a01b0319166001600160a01b0392909216919091179055565b6000546001600160a01b03163314611b235760405162461bcd60e51b81526004016106a890612813565b6001600160a01b038116611b885760405162461bcd60e51b815260206004820152602660248201527f4f776e61626c653a206e6577206f776e657220697320746865207a65726f206160448201526564647265737360d01b60648201526084016106a8565b611b91816121f3565b50565b600254604051630a36d40b60e01b8152600481018390526000916001600160a01b031690630a36d40b9060240160206040518083038186803b158015611bd957600080fd5b505afa158015611bed573d6000803e3d6000fd5b505050506040513d601f19601f82011682018060405250810190611c1191906128d2565b600754611c1e9190612848565b61192090600161285f565b60008083600081518110611c3f57611c3f612700565b60200260200101519050600083600081518110611c5e57611c5e612700565b6020908102919091010151600254604051636ae0f6c560e11b8152600481018590529192506000916001600160a01b039091169063d5c1ed8a9060240160206040518083038186803b158015611cb357600080fd5b505afa158015611cc7573d6000803e3d6000fd5b505050506040513d601f19601f82011682018060405250810190611ceb91906128d2565b600254604051636ae0f6c560e11b8152600481018590529192506000916001600160a01b039091169063d5c1ed8a9060240160206040518083038186803b158015611d3557600080fd5b505afa158015611d49573d6000803e3d6000fd5b505050506040513d601f19601f82011682018060405250810190611d6d91906128d2565b60025460405163f3d1b5ab60e01b8152600481018790529192506000916001600160a01b039091169063f3d1b5ab9060240160206040518083038186803b158015611db757600080fd5b505afa158015611dcb573d6000803e3d6000fd5b505050506040513d601f19601f82011682018060405250810190611def91906128d2565b600254604051630a36d40b60e01b8152600481018890529192506000916001600160a01b0390911690630a36d40b9060240160206040518083038186803b158015611e3957600080fd5b505afa158015611e4d573d6000803e3d6000fd5b505050506040513d601f19601f82011682018060405250810190611e7191906128d2565b60025460405163f3d1b5ab60e01b8152600481018890529192506000916001600160a01b039091169063f3d1b5ab9060240160206040518083038186803b158015611ebb57600080fd5b505afa158015611ecf573d6000803e3d6000fd5b505050506040513d601f19601f82011682018060405250810190611ef391906128d2565b600254604051630a36d40b60e01b8152600481018990529192506000916001600160a01b0390911690630a36d40b9060240160206040518083038186803b158015611f3d57600080fd5b505afa158015611f51573d6000803e3d6000fd5b505050506040513d601f19601f82011682018060405250810190611f7591906128d2565b9050818414156120d657808311156120205784861115611fa057600198505050505050505050611920565b84861415611fe4576000611fb660016064611897565b9050603c8111611fd25760019950505050505050505050611920565b60029950505050505050505050611920565b6000611ff260016064611897565b90506046811161200e5760029950505050505050505050611920565b60019950505050505050505050611920565b8083141561207d578486111561205a57600061203e60016064611897565b905060468111611fd25760019950505050505050505050611920565b84861415611fe45761206e60016002611897565b98505050505050505050611920565b8486101561209657600298505050505050505050611920565b848614156120c85760006120ac60016064611897565b9050603c811161200e5760029950505050505050505050611920565b600061203e60016064611897565b8083141561214f57848611156121115760006120f460016064611897565b90506046811115611fd25760019950505050505050505050611920565b848614156121255761206e60016002611897565b600061213360016064611897565b905060148111611fd25760019950505050505050505050611920565b8083111561219a578486111561217057600198505050505050505050611920565b600061217e60016064611897565b905060288111611fd25760019950505050505050505050611920565b848610156121b357600298505050505050505050611920565b848614156121e55760006121c960016064611897565b9050601e8111611fd25760019950505050505050505050611920565b6000611fb660016064611897565b600080546001600160a01b038381166001600160a01b0319831681178455604051919092169283917f8be0079c531659141344cd1fd0a4f28419497f9722a3daafe3b4186f6b6457e09190a35050565b6060610ef8838360405180606001604052806027815260200161291b6027913960606001600160a01b0384163b6122cb5760405162461bcd60e51b815260206004820152602660248201527f416464726573733a2064656c65676174652063616c6c20746f206e6f6e2d636f6044820152651b9d1c9858dd60d21b60648201526084016106a8565b600080856001600160a01b0316856040516122e691906128eb565b600060405180830381855af49150503d8060008114612321576040519150601f19603f3d011682016040523d82523d6000602084013e612326565b606091505b5091509150612336828286612340565b9695505050505050565b6060831561234f575081610ef8565b82511561235f5782518084602001fd5b8160405162461bcd60e51b81526004016106a89190612907565b60008083601f84011261238b57600080fd5b50813567ffffffffffffffff8111156123a357600080fd5b6020830191508360208260051b85010111156123be57600080fd5b9250929050565b6000806000604084860312156123da57600080fd5b83359250602084013567ffffffffffffffff8111156123f857600080fd5b61240486828701612379565b9497909650939450505050565b6001600160a01b0381168114611b9157600080fd5b60008060006040848603121561243b57600080fd5b833567ffffffffffffffff81111561245257600080fd5b61245e86828701612379565b909450925050602084013561247281612411565b809150509250925092565b60008060008060006080868803121561249557600080fd5b853594506020860135935060408601359250606086013567ffffffffffffffff8111156124c157600080fd5b6124cd88828901612379565b969995985093965092949392505050565b6000806000606084860312156124f357600080fd5b83359250602084013561250581612411565b929592945050506040919091013590565b60006020828403121561252857600080fd5b8135610ef881612411565b6020808252825182820181905260009190848201906040850190845b8181101561256b5783518352928401929184019160010161254f565b50909695505050505050565b60006020828403121561258957600080fd5b5035919050565b600080604083850312156125a357600080fd5b8235915060208301356125b581612411565b809150509250929050565b600080604083850312156125d357600080fd5b50508035926020909101359150565b600080602083850312156125f557600080fd5b823567ffffffffffffffff81111561260c57600080fd5b61261885828601612379565b90969095509350505050565b60005b8381101561263f578181015183820152602001612627565b83811115610ddc5750506000910152565b60008151808452612668816020860160208601612624565b601f01601f19169290920160200192915050565b6000602080830181845280855180835260408601915060408160051b870101925083870160005b828110156126d157603f198886030184526126bf858351612650565b945092850192908501906001016126a3565b5092979650505050505050565b6000602082840312156126f057600080fd5b81518015158114610ef857600080fd5b634e487b7160e01b600052603260045260246000fd5b634e487b7160e01b600052601160045260246000fd5b600060001982141561274057612740612716565b5060010190565b6000604082016040835280855480835260608501915086600052602092508260002060005b828110156127885781548452928401926001918201910161276c565b50505092019290925292915050565b634e487b7160e01b600052601260045260246000fd5b6000826127bc576127bc612797565b500490565b60008160001904831182151516156127db576127db612716565b500290565b6000602082840312156127f257600080fd5b8151610ef881612411565b634e487b7160e01b600052604160045260246000fd5b6020808252818101527f4f776e61626c653a2063616c6c6572206973206e6f7420746865206f776e6572604082015260600190565b60008282101561285a5761285a612716565b500390565b6000821982111561287257612872612716565b500190565b60008261288657612886612797565b500690565b6000808335601e198436030181126128a257600080fd5b83018035915067ffffffffffffffff8211156128bd57600080fd5b6020019150368190038213156123be57600080fd5b6000602082840312156128e457600080fd5b5051919050565b600082516128fd818460208701612624565b9190910192915050565b602081526000610ef8602083018461265056fe416464726573733a206c6f772d6c6576656c2064656c65676174652063616c6c206661696c6564a26469706673582212200ca25b9a57e00c6ff9c1f97baea926d693f7135ac853cf970c4d7826d2eb174c64736f6c63430008090033",
  "linkReferences": {},
  "deployedLinkReferences": {}
}