{
  "_format": "hh-sol-artifact-1",
  "contractName": "LobbyManager",
  "sourceName": "contracts/game/LobbyManager.sol",
  "abi": [
    {
      "inputs": [],
      "stateMutability": "nonpayable",
      "type": "constructor"
    },
    {
      "anonymous": false,
      "inputs": [
        {
          "indexed": true,
          "internalType": "uint256",
          "name": "lobbyId",
          "type": "uint256"
        },
        {
          "indexed": true,
          "internalType": "address",
          "name": "host",
          "type": "address"
        },
        {
          "indexed": true,
          "internalType": "address",
          "name": "client",
          "type": "address"
        }
      ],
      "name": "BattleFinished",
      "type": "event"
    },
    {
      "anonymous": false,
      "inputs": [
        {
          "indexed": true,
          "internalType": "address",
          "name": "previousOwner",
          "type": "address"
        },
        {
          "indexed": true,
          "internalType": "address",
          "name": "newOwner",
          "type": "address"
        }
      ],
      "name": "OwnershipTransferred",
      "type": "event"
    },
    {
      "inputs": [
        {
          "internalType": "uint256",
          "name": "",
          "type": "uint256"
        }
      ],
      "name": "battles",
      "outputs": [
        {
          "internalType": "contract IVersusBattle",
          "name": "",
          "type": "address"
        }
      ],
      "stateMutability": "view",
      "type": "function"
    },
    {
      "inputs": [],
      "name": "benefitMultiplier",
      "outputs": [
        {
          "internalType": "uint256",
          "name": "",
          "type": "uint256"
        }
      ],
      "stateMutability": "view",
      "type": "function"
    },
    {
      "inputs": [
        {
          "internalType": "bytes32",
          "name": "name",
          "type": "bytes32"
        },
        {
          "internalType": "bytes32",
          "name": "avatar",
          "type": "bytes32"
        },
        {
          "internalType": "uint256",
          "name": "capacity",
          "type": "uint256"
        },
        {
          "internalType": "uint256[]",
          "name": "heroIds",
          "type": "uint256[]"
        }
      ],
      "name": "createLobby",
      "outputs": [],
      "stateMutability": "nonpayable",
      "type": "function"
    },
    {
      "inputs": [
        {
          "internalType": "uint256[]",
          "name": "heroes",
          "type": "uint256[]"
        }
      ],
      "name": "getHeroesPower",
      "outputs": [
        {
          "internalType": "uint256",
          "name": "",
          "type": "uint256"
        }
      ],
      "stateMutability": "view",
      "type": "function"
    },
    {
      "inputs": [
        {
          "internalType": "uint256",
          "name": "lobbyId",
          "type": "uint256"
        },
        {
          "internalType": "address",
          "name": "player",
          "type": "address"
        }
      ],
      "name": "getPlayerHeroesOnLobby",
      "outputs": [
        {
          "internalType": "uint256[]",
          "name": "",
          "type": "uint256[]"
        }
      ],
      "stateMutability": "view",
      "type": "function"
    },
    {
      "inputs": [],
      "name": "heroManager",
      "outputs": [
        {
          "internalType": "contract IHeroManager",
          "name": "",
          "type": "address"
        }
      ],
      "stateMutability": "view",
      "type": "function"
    },
    {
      "inputs": [
        {
          "internalType": "uint256",
          "name": "lobbyId",
          "type": "uint256"
        },
        {
          "internalType": "uint256[]",
          "name": "heroIds",
          "type": "uint256[]"
        }
      ],
      "name": "joinLobby",
      "outputs": [],
      "stateMutability": "nonpayable",
      "type": "function"
    },
    {
      "inputs": [
        {
          "internalType": "uint256",
          "name": "",
          "type": "uint256"
        }
      ],
      "name": "lobbies",
      "outputs": [
        {
          "internalType": "bytes32",
          "name": "name",
          "type": "bytes32"
        },
        {
          "internalType": "bytes32",
          "name": "avatar",
          "type": "bytes32"
        },
        {
          "internalType": "address",
          "name": "host",
          "type": "address"
        },
        {
          "internalType": "address",
          "name": "client",
          "type": "address"
        },
        {
          "internalType": "uint256",
          "name": "id",
          "type": "uint256"
        },
        {
          "internalType": "uint256",
          "name": "capacity",
          "type": "uint256"
        },
        {
          "internalType": "uint256",
          "name": "startedAt",
          "type": "uint256"
        },
        {
          "internalType": "uint256",
          "name": "finishedAt",
          "type": "uint256"
        },
        {
          "internalType": "uint256",
          "name": "winner",
          "type": "uint256"
        },
        {
          "internalType": "uint256",
          "name": "fee",
          "type": "uint256"
        },
        {
          "internalType": "uint256",
          "name": "rewards",
          "type": "uint256"
        }
      ],
      "stateMutability": "view",
      "type": "function"
    },
    {
      "inputs": [
        {
          "internalType": "uint256",
          "name": "",
          "type": "uint256"
        }
      ],
      "name": "lobbyFees",
      "outputs": [
        {
          "internalType": "uint256",
          "name": "",
          "type": "uint256"
        }
      ],
      "stateMutability": "view",
      "type": "function"
    },
    {
      "inputs": [
        {
          "internalType": "uint256",
          "name": "",
          "type": "uint256"
        },
        {
          "internalType": "address",
          "name": "",
          "type": "address"
        },
        {
          "internalType": "uint256",
          "name": "",
          "type": "uint256"
        }
      ],
      "name": "lobbyHeroes",
      "outputs": [
        {
          "internalType": "uint256",
          "name": "",
          "type": "uint256"
        }
      ],
      "stateMutability": "view",
      "type": "function"
    },
    {
      "inputs": [
        {
          "internalType": "bytes[]",
          "name": "data",
          "type": "bytes[]"
        }
      ],
      "name": "multicall",
      "outputs": [
        {
          "internalType": "bytes[]",
          "name": "results",
          "type": "bytes[]"
        }
      ],
      "stateMutability": "nonpayable",
      "type": "function"
    },
    {
      "inputs": [],
      "name": "owner",
      "outputs": [
        {
          "internalType": "address",
          "name": "",
          "type": "address"
        }
      ],
      "stateMutability": "view",
      "type": "function"
    },
    {
      "inputs": [
        {
          "internalType": "address",
          "name": "",
          "type": "address"
        }
      ],
      "name": "playersFees",
      "outputs": [
        {
          "internalType": "uint256",
          "name": "",
          "type": "uint256"
        }
      ],
      "stateMutability": "view",
      "type": "function"
    },
    {
      "inputs": [
        {
          "internalType": "address",
          "name": "",
          "type": "address"
        }
      ],
      "name": "playersRewards",
      "outputs": [
        {
          "internalType": "uint256",
          "name": "",
          "type": "uint256"
        }
      ],
      "stateMutability": "view",
      "type": "function"
    },
    {
      "inputs": [
        {
          "internalType": "uint256",
          "name": "",
          "type": "uint256"
        },
        {
          "internalType": "address",
          "name": "",
          "type": "address"
        }
      ],
      "name": "powerHistory",
      "outputs": [
        {
          "internalType": "uint256",
          "name": "",
          "type": "uint256"
        }
      ],
      "stateMutability": "view",
      "type": "function"
    },
    {
      "inputs": [
        {
          "internalType": "uint256",
          "name": "min",
          "type": "uint256"
        },
        {
          "internalType": "uint256",
          "name": "max",
          "type": "uint256"
        }
      ],
      "name": "random",
      "outputs": [
        {
          "internalType": "uint256",
          "name": "",
          "type": "uint256"
        }
      ],
      "stateMutability": "view",
      "type": "function"
    },
    {
      "inputs": [
        {
          "internalType": "address",
          "name": "",
          "type": "address"
        }
      ],
      "name": "registeredPlayers",
      "outputs": [
        {
          "internalType": "bool",
          "name": "",
          "type": "bool"
        }
      ],
      "stateMutability": "view",
      "type": "function"
    },
    {
      "inputs": [],
      "name": "renounceOwnership",
      "outputs": [],
      "stateMutability": "nonpayable",
      "type": "function"
    },
    {
      "inputs": [
        {
          "internalType": "uint256",
          "name": "capacity",
          "type": "uint256"
        },
        {
          "internalType": "address",
          "name": "battleAddress",
          "type": "address"
        }
      ],
      "name": "setBattleAddress",
      "outputs": [],
      "stateMutability": "nonpayable",
      "type": "function"
    },
    {
      "inputs": [
        {
          "internalType": "uint256",
          "name": "multiplier",
          "type": "uint256"
        }
      ],
      "name": "setBenefitMultiplier",
      "outputs": [],
      "stateMutability": "nonpayable",
      "type": "function"
    },
    {
      "inputs": [
        {
          "internalType": "address",
          "name": "hmAddr",
          "type": "address"
        }
      ],
      "name": "setHeroManager",
      "outputs": [],
      "stateMutability": "nonpayable",
      "type": "function"
    },
    {
      "inputs": [
        {
          "internalType": "uint256",
          "name": "capacity",
          "type": "uint256"
        },
        {
          "internalType": "uint256",
          "name": "fee",
          "type": "uint256"
        }
      ],
      "name": "setLobbyFee",
      "outputs": [],
      "stateMutability": "nonpayable",
      "type": "function"
    },
    {
      "inputs": [],
      "name": "totalLobbies",
      "outputs": [
        {
          "internalType": "uint256",
          "name": "",
          "type": "uint256"
        }
      ],
      "stateMutability": "view",
      "type": "function"
    },
    {
      "inputs": [],
      "name": "totalPlayers",
      "outputs": [
        {
          "internalType": "uint256",
          "name": "",
          "type": "uint256"
        }
      ],
      "stateMutability": "view",
      "type": "function"
    },
    {
      "inputs": [
        {
          "internalType": "address",
          "name": "newOwner",
          "type": "address"
        }
      ],
      "name": "transferOwnership",
      "outputs": [],
      "stateMutability": "nonpayable",
      "type": "function"
    },
    {
      "inputs": [
        {
          "internalType": "uint256",
          "name": "",
          "type": "uint256"
        }
      ],
      "name": "uniquePlayers",
      "outputs": [
        {
          "internalType": "address",
          "name": "",
          "type": "address"
        }
      ],
      "stateMutability": "view",
      "type": "function"
    }
  ],
  "bytecode": "0x608060405260fa60035534801561001557600080fd5b5061001f336100b5565b600b60205269010f0cf064dd592000007f72c6bfb7988af3a1efa6568f02a999bc52252641c659d85961ca3d372b57d5cf5569054b40b1f852bda000007f64c15cc42be7899b001f818cf4433057002112c418d1d3a67cd5cb453051d33e556005600052690a968163f0a57b4000007febae6141bae5521e99e0a8d610356b0f501fea54980b59c84841db43ba7204f455610105565b600080546001600160a01b038381166001600160a01b0319831681178455604051919092169283917f8be0079c531659141344cd1fd0a4f28419497f9722a3daafe3b4186f6b6457e09190a35050565b612328806101146000396000f3fe608060405234801561001057600080fd5b506004361061018d5760003560e01c8063930613fc116100de578063b9f2d52011610097578063da596bb511610071578063da596bb5146104ce578063ed697f32146104d7578063f2fde38b146104ea578063f60cdcf6146104fd57600080fd5b8063b9f2d52014610463578063c7f790bb14610483578063c8f94270146104ae57600080fd5b8063930613fc146103cb57806394f69662146103f4578063965d3dc914610407578063a9dd122514610410578063ac9650d814610423578063b97dcb221461044357600080fd5b806357d15a8b1161014b5780636e8fb4c6116101255780636e8fb4c6146102cb578063715018a61461039f578063833588cc146103a75780638da5cb5b146103ba57600080fd5b806357d15a8b1461026f578063606d2e96146102825780636bd2dc85146102ab57600080fd5b8062c8bd7e1461019257806316fc989c146101a757806328b11d23146101eb578063378cc347146101fe5780633b8a7a13146102115780634bafce221461023c575b600080fd5b6101a56101a0366004611cda565b610506565b005b6101d86101b5366004611d3b565b600960209081526000938452604080852082529284528284209052825290205481565b6040519081526020015b60405180910390f35b6101a56101f9366004611d73565b610d19565b6101a561020c366004611d8c565b610d48565b600254610224906001600160a01b031681565b6040516001600160a01b0390911681526020016101e2565b61025f61024a366004611d8c565b60066020526000908152604090205460ff1681565b60405190151581526020016101e2565b6101a561027d366004611da9565b610d94565b610224610290366004611d73565b600c602052600090815260409020546001600160a01b031681565b6101d86102b9366004611d8c565b60086020526000908152604090205481565b6103406102d9366004611d73565b600a60208190526000918252604090912080546001820154600283015460038401546004850154600586015460068701546007880154600889015460098a015499909a0154979996986001600160a01b03968716989590961696939592949193909290918b565b604080519b8c5260208c019a909a526001600160a01b03988916998b0199909952969095166060890152608088019390935260a087019190915260c086015260e0850152610100840152610120830152610140820152610160016101e2565b6101a5610dec565b6101a56103b5366004611dd9565b610e22565b6000546001600160a01b0316610224565b6102246103d9366004611d73565b6005602052600090815260409020546001600160a01b031681565b6101a5610402366004611dfb565b610e5e565b6101d860015481565b6101d861041e366004611dd9565b611476565b610436610431366004611e5c565b611528565b6040516101e29190611efa565b610456610451366004611da9565b61161d565b6040516101e29190611f97565b6101d8610471366004611d73565b600b6020526000908152604090205481565b6101d8610491366004611da9565b600d60209081526000928352604080842090915290825290205481565b6101d86104bc366004611d8c565b60076020526000908152604090205481565b6101d860035481565b6101d86104e5366004611fc0565b611711565b6101a56104f8366004611d8c565b6117d0565b6101d860045481565b6000838152600a60205260409081902060028082015460059092015490549251630152368f60e01b815233936001600160a01b03938416931690630152368f90610558908890889088906004016120b4565b60206040518083038186803b15801561057057600080fd5b505afa158015610584573d6000803e3d6000fd5b505050506040513d601f19601f820116820180604052508101906105a891906120e0565b5060025460405163b7601a1560e01b81526001600160a01b039091169063b7601a15906105db9088908890600401612102565b60206040518083038186803b1580156105f357600080fd5b505afa158015610607573d6000803e3d6000fd5b505050506040513d601f19601f8201168201806040525081019061062b91906120e0565b506000868152600a6020526040902060040154861461069b5760405162461bcd60e51b815260206004820152602160248201527f4c6f6262794d616e616765723a206c6f62627920646f65736e277420657869736044820152601d60fa1b60648201526084015b60405180910390fd5b8084146106ea5760405162461bcd60e51b815260206004820152601a60248201527f4c6f6262794d616e616765723a2077726f6e67206865726f65730000000000006044820152606401610692565b6000868152600a6020526040902060070154156107495760405162461bcd60e51b815260206004820152601e60248201527f4c6f6262794d616e616765723a20616c72656164792066696e697368656400006044820152606401610692565b60025460408051637e062a3560e11b815290516000926001600160a01b03169163fc0c546a916004808301926020929190829003018186803b15801561078e57600080fd5b505afa1580156107a2573d6000803e3d6000fd5b505050506040513d601f19601f820116820180604052508101906107c69190612116565b90506000600b6000848152602001908152602001600020549050816001600160a01b03166323b872dd86600260009054906101000a90046001600160a01b03166001600160a01b03166311ce406d6040518163ffffffff1660e01b815260040160206040518083038186803b15801561083e57600080fd5b505afa158015610852573d6000803e3d6000fd5b505050506040513d601f19601f820116820180604052508101906108769190612116565b6040516001600160e01b031960e085901b1681526001600160a01b0392831660048201529116602482015260448101849052606401602060405180830381600087803b1580156108c557600080fd5b505af11580156108d9573d6000803e3d6000fd5b505050506040513d601f19601f820116820180604052508101906108fd91906120e0565b6109495760405162461bcd60e51b815260206004820152601c60248201527f4c6f6262794d616e616765723a206e6f7420656e6f75676820666565000000006044820152606401610692565b6109528561186b565b6001600160a01b03851660008181526007602081815260408084208054870190558c8452600a90915282206003810180546001600160a01b031916909417909355429201919091556109a4898661161d565b90506109af81611711565b60008a8152600d602090815260408083206001600160a01b038a1684528252918290209290925580518983028181018401909252898152610a0d9290918b918b91829185019084908082843760009201919091525061171192505050565b60008a8152600d602090815260408083206001600160a01b038b168452909152812091909155600354610a4390840260646118e0565b60008b8152600a60208181526040808420909201849055888352600c90528082205490516348e8c1d360e01b81529293506001600160a01b03169182906348e8c1d390610a989087908f908f90600401612133565b60206040518083038186803b158015610ab057600080fd5b505afa158015610ac4573d6000803e3d6000fd5b505050506040513d601f19601f82011682018060405250810190610ae89190612159565b905080600a60008e815260200190815260200160002060080181905550610b538c82868e8e80806020026020016040519081016040528093929190818152602001838360200280828437600081840152601f19601f820116905080830192505050505050508d6118f9565b600081600114610b635789610b65565b885b9050866001600160a01b03166323b872dd600260009054906101000a90046001600160a01b03166001600160a01b03166311ce406d6040518163ffffffff1660e01b815260040160206040518083038186803b158015610bc457600080fd5b505afa158015610bd8573d6000803e3d6000fd5b505050506040513d601f19601f82011682018060405250810190610bfc9190612116565b6040516001600160e01b031960e084901b1681526001600160a01b039182166004820152908416602482015260448101879052606401602060405180830381600087803b158015610c4c57600080fd5b505af1158015610c60573d6000803e3d6000fd5b505050506040513d601f19601f82011682018060405250810190610c8491906120e0565b506001600160a01b038116600090815260086020526040902054840160086000836001600160a01b03166001600160a01b0316815260200190815260200160002081905550896001600160a01b0316896001600160a01b03168e7fc77dc6cd4b51c8efc4af40a582ca4cf229fda505a830b4486b200ddcbdb1383f60405160405180910390a450505050505050505050505050565b6000546001600160a01b03163314610d435760405162461bcd60e51b815260040161069290612172565b600355565b6000546001600160a01b03163314610d725760405162461bcd60e51b815260040161069290612172565b600280546001600160a01b0319166001600160a01b0392909216919091179055565b6000546001600160a01b03163314610dbe5760405162461bcd60e51b815260040161069290612172565b6000918252600c602052604090912080546001600160a01b0319166001600160a01b03909216919091179055565b6000546001600160a01b03163314610e165760405162461bcd60e51b815260040161069290612172565b610e206000611afc565b565b6000546001600160a01b03163314610e4c5760405162461bcd60e51b815260040161069290612172565b6000918252600b602052604090912055565b6000838152600b602052604090819020546002549151630152368f60e01b815233926001600160a01b031690630152368f90610ea2908790879087906004016120b4565b60206040518083038186803b158015610eba57600080fd5b505afa158015610ece573d6000803e3d6000fd5b505050506040513d601f19601f82011682018060405250810190610ef291906120e0565b5060025460405163b7601a1560e01b81526001600160a01b039091169063b7601a1590610f259087908790600401612102565b60206040518083038186803b158015610f3d57600080fd5b505afa158015610f51573d6000803e3d6000fd5b505050506040513d601f19601f82011682018060405250810190610f7591906120e0565b5060025460408051637e062a3560e11b815290516000926001600160a01b03169163fc0c546a916004808301926020929190829003018186803b158015610fbb57600080fd5b505afa158015610fcf573d6000803e3d6000fd5b505050506040513d601f19601f82011682018060405250810190610ff39190612116565b90508584146110445760405162461bcd60e51b815260206004820152601e60248201527f4c6f6262794d616e616765723a2077726f6e6720706172616d657465727300006044820152606401610692565b6000821161109f5760405162461bcd60e51b815260206004820152602260248201527f4c6f6262794d616e616765723a2077726f6e67206c6f62627920636170616369604482015261747960f01b6064820152608401610692565b806001600160a01b03166323b872dd84600260009054906101000a90046001600160a01b03166001600160a01b03166311ce406d6040518163ffffffff1660e01b815260040160206040518083038186803b1580156110fd57600080fd5b505afa158015611111573d6000803e3d6000fd5b505050506040513d601f19601f820116820180604052508101906111359190612116565b6040516001600160e01b031960e085901b1681526001600160a01b0392831660048201529116602482015260448101859052606401602060405180830381600087803b15801561118457600080fd5b505af1158015611198573d6000803e3d6000fd5b505050506040513d601f19601f820116820180604052508101906111bc91906120e0565b6112085760405162461bcd60e51b815260206004820152601c60248201527f4c6f6262794d616e616765723a206e6f7420656e6f75676820666565000000006044820152606401610692565b6112118361186b565b6001600160a01b03831660009081526007602052604090205482016001600160a01b038416600090815260076020526040812091909155600180540190508060018190555060006040518061016001604052808b81526020018a8152602001866001600160a01b0316815260200160006001600160a01b0316815260200183815260200189815260200142815260200160008152602001600081526020018581526020016000815250905080600a6000848152602001908152602001600020600082015181600001556020820151816001015560408201518160020160006101000a8154816001600160a01b0302191690836001600160a01b0316021790555060608201518160030160006101000a8154816001600160a01b0302191690836001600160a01b031602179055506080820151816004015560a0820151816005015560c0820151816006015560e082015181600701556101008201518160080155610120820151816009015561014082015181600a015590505060005b86811015611469578787828181106113a7576113a76121a7565b60008681526009602090815260408083206001600160a01b03808e168552908352818420888552835292209202939093013590555060025416634239ca308989848181106113f7576113f76121a7565b905060200201356040518263ffffffff1660e01b815260040161141c91815260200190565b600060405180830381600087803b15801561143657600080fd5b505af115801561144a573d6000803e3d6000fd5b505050506114626001826118dc90919063ffffffff16565b905061138d565b5050505050505050505050565b6000804442336000356001600160e01b0319165a6040805160208101969096528501939093526bffffffffffffffffffffffff19606092831b16918401919091526001600160e01b031916607483015260788201526098810185905260b8810184905260d80160408051601f19818403018152919052805160209091012090508361150181856121d3565b61150c9060016121ea565b6115169083612218565b61152091906121ea565b949350505050565b60608167ffffffffffffffff81111561154357611543611faa565b60405190808252806020026020018201604052801561157657816020015b60608152602001906001900390816115615790505b50905060005b82811015611616576115e63085858481811061159a5761159a6121a7565b90506020028101906115ac919061223a565b8080601f016020809104026020016040519081016040528093929190818152602001838380828437600092019190915250611b4c92505050565b8282815181106115f8576115f86121a7565b6020026020010181905250808061160e90612281565b91505061157c565b5092915050565b606060005b60008481526009602090815260408083206001600160a01b0387168452825280832084845290915290205415611664578061165c81612281565b915050611622565b60008167ffffffffffffffff81111561167f5761167f611faa565b6040519080825280602002602001820160405280156116a8578160200160208202803683370190505b50905060005b828110156117085760008681526009602090815260408083206001600160a01b0389168452825280832084845290915290205482518390839081106116f5576116f56121a7565b60209081029190910101526001016116ae565b50949350505050565b60008060005b83518110156116165760025484516117c6916001600160a01b03169063d5c1ed8a9087908590811061174b5761174b6121a7565b60200260200101516040518263ffffffff1660e01b815260040161177191815260200190565b60206040518083038186803b15801561178957600080fd5b505afa15801561179d573d6000803e3d6000fd5b505050506040513d601f19601f820116820180604052508101906117c19190612159565b830190565b9150600101611717565b6000546001600160a01b031633146117fa5760405162461bcd60e51b815260040161069290612172565b6001600160a01b03811661185f5760405162461bcd60e51b815260206004820152602660248201527f4f776e61626c653a206e6577206f776e657220697320746865207a65726f206160448201526564647265737360d01b6064820152608401610692565b61186881611afc565b50565b6001600160a01b03811660009081526006602052604090205460ff166118685760048054600090815260056020908152604080832080546001600160a01b0319166001600160a01b038716908117909155835260069091529020805460ff1916600190811790915590540160045550565b0190565b60008183816118f1576118f1612202565b049392505050565b60005b8351811015611af45760025484516001600160a01b039091169063b0a04efa9086908490811061192e5761192e6121a7565b6020026020010151876001146040518363ffffffff1660e01b81526004016119629291909182521515602082015260400190565b600060405180830381600087803b15801561197c57600080fd5b505af1158015611990573d6000803e3d6000fd5b505060025485516001600160a01b03909116925063b0a04efa91508590849081106119bd576119bd6121a7565b6020026020010151876002146040518363ffffffff1660e01b81526004016119f19291909182521515602082015260400190565b600060405180830381600087803b158015611a0b57600080fd5b505af1158015611a1f573d6000803e3d6000fd5b505060025485516001600160a01b039091169250634239ca309150859084908110611a4c57611a4c6121a7565b60200260200101516040518263ffffffff1660e01b8152600401611a7291815260200190565b600060405180830381600087803b158015611a8c57600080fd5b505af1158015611aa0573d6000803e3d6000fd5b50505050828181518110611ab657611ab66121a7565b60209081029190910181015160008881526009835260408082206001600160a01b0387168352845280822085835290935291909120556001016118fc565b505050505050565b600080546001600160a01b038381166001600160a01b0319831681178455604051919092169283917f8be0079c531659141344cd1fd0a4f28419497f9722a3daafe3b4186f6b6457e09190a35050565b6060611b7183836040518060600160405280602781526020016122cc60279139611b78565b9392505050565b60606001600160a01b0384163b611be05760405162461bcd60e51b815260206004820152602660248201527f416464726573733a2064656c65676174652063616c6c20746f206e6f6e2d636f6044820152651b9d1c9858dd60d21b6064820152608401610692565b600080856001600160a01b031685604051611bfb919061229c565b600060405180830381855af49150503d8060008114611c36576040519150601f19603f3d011682016040523d82523d6000602084013e611c3b565b606091505b5091509150611c4b828286611c55565b9695505050505050565b60608315611c64575081611b71565b825115611c745782518084602001fd5b8160405162461bcd60e51b815260040161069291906122b8565b60008083601f840112611ca057600080fd5b50813567ffffffffffffffff811115611cb857600080fd5b6020830191508360208260051b8501011115611cd357600080fd5b9250929050565b600080600060408486031215611cef57600080fd5b83359250602084013567ffffffffffffffff811115611d0d57600080fd5b611d1986828701611c8e565b9497909650939450505050565b6001600160a01b038116811461186857600080fd5b600080600060608486031215611d5057600080fd5b833592506020840135611d6281611d26565b929592945050506040919091013590565b600060208284031215611d8557600080fd5b5035919050565b600060208284031215611d9e57600080fd5b8135611b7181611d26565b60008060408385031215611dbc57600080fd5b823591506020830135611dce81611d26565b809150509250929050565b60008060408385031215611dec57600080fd5b50508035926020909101359150565b600080600080600060808688031215611e1357600080fd5b853594506020860135935060408601359250606086013567ffffffffffffffff811115611e3f57600080fd5b611e4b88828901611c8e565b969995985093965092949392505050565b60008060208385031215611e6f57600080fd5b823567ffffffffffffffff811115611e8657600080fd5b611e9285828601611c8e565b90969095509350505050565b60005b83811015611eb9578181015183820152602001611ea1565b83811115611ec8576000848401525b50505050565b60008151808452611ee6816020860160208601611e9e565b601f01601f19169290920160200192915050565b6000602080830181845280855180835260408601915060408160051b870101925083870160005b82811015611f4f57603f19888603018452611f3d858351611ece565b94509285019290850190600101611f21565b5092979650505050505050565b600081518084526020808501945080840160005b83811015611f8c57815187529582019590820190600101611f70565b509495945050505050565b602081526000611b716020830184611f5c565b634e487b7160e01b600052604160045260246000fd5b60006020808385031215611fd357600080fd5b823567ffffffffffffffff80821115611feb57600080fd5b818501915085601f830112611fff57600080fd5b81358181111561201157612011611faa565b8060051b604051601f19603f8301168101818110858211171561203657612036611faa565b60405291825284820192508381018501918883111561205457600080fd5b938501935b8285101561207257843584529385019392850192612059565b98975050505050505050565b81835260006001600160fb1b0383111561209757600080fd5b8260051b8083602087013760009401602001938452509192915050565b6040815260006120c860408301858761207e565b905060018060a01b0383166020830152949350505050565b6000602082840312156120f257600080fd5b81518015158114611b7157600080fd5b60208152600061152060208301848661207e565b60006020828403121561212857600080fd5b8151611b7181611d26565b6040815260006121466040830186611f5c565b8281036020840152611c4b81858761207e565b60006020828403121561216b57600080fd5b5051919050565b6020808252818101527f4f776e61626c653a2063616c6c6572206973206e6f7420746865206f776e6572604082015260600190565b634e487b7160e01b600052603260045260246000fd5b634e487b7160e01b600052601160045260246000fd5b6000828210156121e5576121e56121bd565b500390565b600082198211156121fd576121fd6121bd565b500190565b634e487b7160e01b600052601260045260246000fd5b60008261223557634e487b7160e01b600052601260045260246000fd5b500690565b6000808335601e1984360301811261225157600080fd5b83018035915067ffffffffffffffff82111561226c57600080fd5b602001915036819003821315611cd357600080fd5b6000600019821415612295576122956121bd565b5060010190565b600082516122ae818460208701611e9e565b9190910192915050565b602081526000611b716020830184611ece56fe416464726573733a206c6f772d6c6576656c2064656c65676174652063616c6c206661696c6564a26469706673582212209202ecf7ee185dc611d0271d0fe09fd54a52ad98fc7bb33b47fa3ee04898071a64736f6c63430008090033",
  "linkReferences": {},
  "deployedLinkReferences": {}
}