{
  "_format": "hh-sol-artifact-1",
  "contractName": "LobbyBattle",
  "sourceName": "contracts/game/LobbyBattle.sol",
  "abi": [
    {
      "inputs": [
        {
          "internalType": "address",
          "name": "heroManagerAddress",
          "type": "address"
        }
      ],
      "stateMutability": "nonpayable",
      "type": "constructor"
    },
    {
      "anonymous": false,
      "inputs": [
        {
          "indexed": true,
          "internalType": "address",
          "name": "previousOwner",
          "type": "address"
        },
        {
          "indexed": true,
          "internalType": "address",
          "name": "newOwner",
          "type": "address"
        }
      ],
      "name": "OwnershipTransferred",
      "type": "event"
    },
    {
      "inputs": [
        {
          "internalType": "uint256",
          "name": "capacity",
          "type": "uint256"
        },
        {
          "internalType": "uint256[]",
          "name": "heroIds",
          "type": "uint256[]"
        }
      ],
      "name": "createLobby",
      "outputs": [],
      "stateMutability": "nonpayable",
      "type": "function"
    },
    {
      "inputs": [
        {
          "internalType": "address",
          "name": "account",
          "type": "address"
        },
        {
          "internalType": "uint8",
          "name": "hostOrClient",
          "type": "uint8"
        },
        {
          "internalType": "uint8",
          "name": "runningOrDone",
          "type": "uint8"
        }
      ],
      "name": "getLobbies",
      "outputs": [
        {
          "internalType": "uint256[]",
          "name": "",
          "type": "uint256[]"
        }
      ],
      "stateMutability": "view",
      "type": "function"
    },
    {
      "inputs": [],
      "name": "heroManager",
      "outputs": [
        {
          "internalType": "contract IHeroManager",
          "name": "",
          "type": "address"
        }
      ],
      "stateMutability": "view",
      "type": "function"
    },
    {
      "inputs": [
        {
          "internalType": "uint256",
          "name": "lobbyId",
          "type": "uint256"
        },
        {
          "internalType": "uint256[]",
          "name": "heroIds",
          "type": "uint256[]"
        }
      ],
      "name": "joinLobby",
      "outputs": [],
      "stateMutability": "nonpayable",
      "type": "function"
    },
    {
      "inputs": [
        {
          "internalType": "uint256",
          "name": "",
          "type": "uint256"
        }
      ],
      "name": "lobbies",
      "outputs": [
        {
          "internalType": "uint256",
          "name": "id",
          "type": "uint256"
        },
        {
          "internalType": "address",
          "name": "host",
          "type": "address"
        },
        {
          "internalType": "address",
          "name": "client",
          "type": "address"
        },
        {
          "internalType": "uint256",
          "name": "capacity",
          "type": "uint256"
        },
        {
          "internalType": "uint256",
          "name": "startedAt",
          "type": "uint256"
        },
        {
          "internalType": "uint256",
          "name": "finishedAt",
          "type": "uint256"
        },
        {
          "internalType": "uint8",
          "name": "winner",
          "type": "uint8"
        }
      ],
      "stateMutability": "view",
      "type": "function"
    },
    {
      "inputs": [
        {
          "internalType": "uint256",
          "name": "",
          "type": "uint256"
        },
        {
          "internalType": "address",
          "name": "",
          "type": "address"
        }
      ],
      "name": "lobbiesRefreshed",
      "outputs": [
        {
          "internalType": "uint256",
          "name": "updatedAt",
          "type": "uint256"
        },
        {
          "internalType": "uint8",
          "name": "limit",
          "type": "uint8"
        }
      ],
      "stateMutability": "view",
      "type": "function"
    },
    {
      "inputs": [
        {
          "internalType": "uint256",
          "name": "",
          "type": "uint256"
        }
      ],
      "name": "lobbyFees",
      "outputs": [
        {
          "internalType": "uint256",
          "name": "",
          "type": "uint256"
        }
      ],
      "stateMutability": "view",
      "type": "function"
    },
    {
      "inputs": [
        {
          "internalType": "bytes[]",
          "name": "data",
          "type": "bytes[]"
        }
      ],
      "name": "multicall",
      "outputs": [
        {
          "internalType": "bytes[]",
          "name": "results",
          "type": "bytes[]"
        }
      ],
      "stateMutability": "nonpayable",
      "type": "function"
    },
    {
      "inputs": [],
      "name": "nft",
      "outputs": [
        {
          "internalType": "contract IERC721",
          "name": "",
          "type": "address"
        }
      ],
      "stateMutability": "view",
      "type": "function"
    },
    {
      "inputs": [],
      "name": "owner",
      "outputs": [
        {
          "internalType": "address",
          "name": "",
          "type": "address"
        }
      ],
      "stateMutability": "view",
      "type": "function"
    },
    {
      "inputs": [
        {
          "internalType": "uint256",
          "name": "min",
          "type": "uint256"
        },
        {
          "internalType": "uint256",
          "name": "max",
          "type": "uint256"
        }
      ],
      "name": "random",
      "outputs": [
        {
          "internalType": "uint256",
          "name": "",
          "type": "uint256"
        }
      ],
      "stateMutability": "view",
      "type": "function"
    },
    {
      "inputs": [],
      "name": "renounceOwnership",
      "outputs": [],
      "stateMutability": "nonpayable",
      "type": "function"
    },
    {
      "inputs": [],
      "name": "rewardsPayeer",
      "outputs": [
        {
          "internalType": "address",
          "name": "",
          "type": "address"
        }
      ],
      "stateMutability": "view",
      "type": "function"
    },
    {
      "inputs": [
        {
          "internalType": "address",
          "name": "payer",
          "type": "address"
        }
      ],
      "name": "setRewardsPayeer",
      "outputs": [],
      "stateMutability": "nonpayable",
      "type": "function"
    },
    {
      "inputs": [],
      "name": "token",
      "outputs": [
        {
          "internalType": "contract IERC20",
          "name": "",
          "type": "address"
        }
      ],
      "stateMutability": "view",
      "type": "function"
    },
    {
      "inputs": [
        {
          "internalType": "address",
          "name": "newOwner",
          "type": "address"
        }
      ],
      "name": "transferOwnership",
      "outputs": [],
      "stateMutability": "nonpayable",
      "type": "function"
    },
    {
      "inputs": [
        {
          "internalType": "uint256[]",
          "name": "heroIds",
          "type": "uint256[]"
        }
      ],
      "name": "validateHeroIds",
      "outputs": [],
      "stateMutability": "view",
      "type": "function"
    }
  ],
  "bytecode": "0x608060405260fa6006553480156200001657600080fd5b50604051620023b5380380620023b583398101604081905262000039916200014b565b6200004433620000fb565b600280546001600160a01b0319166001600160a01b0392909216919091179055600860205269010f0cf064dd592000007fad67d757c34507f157cacfa2e3153e9f260a2244f30428821be7be64587ac55f5569054b40b1f852bda000007f625b35f5e76f098dd7c3a05b10e2e5e78a4a01228d60c3b143426cdf36d26455556005600052690a968163f0a57b4000007f91238f30f286c9a1c6e901c4eda3b214c381c846e3dbe48df95c21488e8e1fdb556200017d565b600080546001600160a01b038381166001600160a01b0319831681178455604051919092169283917f8be0079c531659141344cd1fd0a4f28419497f9722a3daafe3b4186f6b6457e09190a35050565b6000602082840312156200015e57600080fd5b81516001600160a01b03811681146200017657600080fd5b9392505050565b612228806200018d6000396000f3fe608060405234801561001057600080fd5b506004361061010a5760003560e01c806377cb47bf116100a2578063b5f5d2a511610071578063b5f5d2a5146102f1578063b9f2d52014610304578063e4118fca14610324578063f2fde38b14610337578063fc0c546a1461034a57600080fd5b806377cb47bf146102535780638da5cb5b1461029f578063a9dd1225146102b0578063ac9650d8146102d157600080fd5b8063510131bf116100de578063510131bf1461017a5780636e8fb4c61461019a578063715018a6146102385780637675e0e01461024057600080fd5b8062c8bd7e1461010f57806311ce406d146101245780633b8a7a131461015457806347ccca0214610167575b600080fd5b61012261011d366004611cdf565b61035d565b005b600554610137906001600160a01b031681565b6040516001600160a01b0390911681526020015b60405180910390f35b600254610137906001600160a01b031681565b600454610137906001600160a01b031681565b61018d610188366004611d4f565b610a5a565b60405161014b9190611d9a565b6101f46101a8366004611dde565b600960205260009081526040902080546001820154600283015460038401546006850154600786015460089096015494956001600160a01b039485169594909316939192909160ff1687565b604080519788526001600160a01b03968716602089015294909516938601939093526060850191909152608084015260a083015260ff1660c082015260e00161014b565b610122610e04565b61012261024e366004611cdf565b610e3a565b610288610261366004611df7565b60076020908152600092835260408084209091529082529020805460019091015460ff1682565b6040805192835260ff90911660208301520161014b565b6000546001600160a01b0316610137565b6102c36102be366004611e27565b611151565b60405190815260200161014b565b6102e46102df366004611e49565b6111da565b60405161014b9190611ee7565b6101226102ff366004611e49565b6112cf565b6102c3610312366004611dde565b60086020526000908152604090205481565b610122610332366004611f49565b6113e7565b610122610345366004611f49565b611433565b600354610137906001600160a01b031681565b60008381526009602090815260408083208151610120810183528154815260018201546001600160a01b039081168286015260028301541681840152600382015460608201526004820180548451818702810187019095528085529194929360808601939092908301828280156103f357602002820191906000526020600020905b8154815260200190600101908083116103df575b505050505081526020016005820180548060200260200160405190810160405280929190818152602001828054801561044b57602002820191906000526020600020905b815481526020019060010190808311610437575b5050509183525050600682015460208201526007820154604082015260089091015460ff16606090910152805190915084146104ce5760405162461bcd60e51b815260206004820181905260248201527f4c6f626279426174746c653a206c6f62627920646f65736e277420657869737460448201526064015b60405180910390fd5b606081015182146105215760405162461bcd60e51b815260206004820152601960248201527f4c6f626279426174746c653a2077726f6e67206865726f65730000000000000060448201526064016104c5565b60e0810151156105735760405162461bcd60e51b815260206004820152601d60248201527f4c6f626279426174746c653a20616c72656164792066696e697368656400000060448201526064016104c5565b6003546005546060830151600090815260086020526040908190205490516323b872dd60e01b81523360048201526001600160a01b03928316602482015260448101919091529116906323b872dd90606401602060405180830381600087803b1580156105df57600080fd5b505af11580156105f3573d6000803e3d6000fd5b505050506040513d601f19601f820116820180604052508101906106179190611f66565b6106635760405162461bcd60e51b815260206004820152601b60248201527f4c6f626279426174746c653a206e6f7420656e6f75676820666565000000000060448201526064016104c5565b61066d83836112cf565b3360408201524260e0820152606081015160011415610872576106c781608001518484808060200260200160405190810160405280939291908181526020018383602002808284376000920191909152506114ce92505050565b60ff166101008201819052600114156107a85760025460808201516040516319b0803560e31b81526001600160a01b039092169163cd8401a89161070d91600401611d9a565b600060405180830381600087803b15801561072757600080fd5b505af115801561073b573d6000803e3d6000fd5b50506002546040516347f8f4c760e11b81526001600160a01b039091169250638ff1e98e91506107719086908690600401611f88565b600060405180830381600087803b15801561078b57600080fd5b505af115801561079f573d6000803e3d6000fd5b50505050610872565b60025460808201516040516347f8f4c760e11b81526001600160a01b0390921691638ff1e98e916107db91600401611d9a565b600060405180830381600087803b1580156107f557600080fd5b505af1158015610809573d6000803e3d6000fd5b50506002546040516319b0803560e31b81526001600160a01b03909116925063cd8401a8915061083f9086908690600401611f88565b600060405180830381600087803b15801561085957600080fd5b505af115801561086d573d6000803e3d6000fd5b505050505b828280806020026020016040519081016040528093929190818152602001838360200280828437600092018290525060a08601949094525050508481526009602090815260409182902083518155818401516001820180546001600160a01b03199081166001600160a01b039384161790915593850151600283018054909516911617909255606083015160038301556080830151805184939261091d926004850192910190611c33565b5060a08201518051610939916005840191602090910190611c33565b5060c0820151600682015560e08201516007820155610100918201516008909101805460ff191660ff928316179055600354600554928401516001600160a01b03918216936323b872dd939216911660011461099957836040015161099f565b83602001515b60065460608601516000908152600860205260409020546064916109c291611fda565b6109cc919061200f565b6040516001600160e01b031960e086901b1681526001600160a01b0393841660048201529290911660248301526044820152606401602060405180830381600087803b158015610a1b57600080fd5b505af1158015610a2f573d6000803e3d6000fd5b505050506040513d601f19601f82011682018060405250810190610a539190611f66565b5050505050565b60608060ff8416610b8557600060015b6001548111610b7e5760ff8516610aa9578083610a88600183612023565b81518110610a9857610a9861203a565b602002602001018181525050610b6c565b8460ff1660011415610b0c5760008181526009602052604090206006015415801590610ae45750600081815260096020526040902060070154155b15610b0757808383610af581612050565b945081518110610a9857610a9861203a565b610b6c565b60008181526009602052604090206006015415801590610b3c575060008181526009602052604090206007015415155b15610b6c57808383610b4d81612050565b945081518110610b5f57610b5f61203a565b6020026020010181815250505b80610b7681612050565b915050610a6a565b5050610dfa565b8360ff1660011415610cbe57600060015b6001548111610b7e576000818152600960205260409020600101546001600160a01b0388811691161415610cac5760ff8516610bfb57808383610bd881612050565b945081518110610bea57610bea61203a565b602002602001018181525050610cac565b8460ff1660011415610c4c5760008181526009602052604090206006015415801590610c365750600081815260096020526040902060070154155b15610c4757808383610bd881612050565b610cac565b60008181526009602052604090206006015415801590610c7c575060008181526009602052604090206007015415155b15610cac57808383610c8d81612050565b945081518110610c9f57610c9f61203a565b6020026020010181815250505b80610cb681612050565b915050610b96565b8360ff1660021415610dfa57600060015b6001548111610df7576000818152600960205260409020600201546001600160a01b0388811691161415610de55760ff8516610d3457808383610d1181612050565b945081518110610d2357610d2361203a565b602002602001018181525050610de5565b8460ff1660011415610d855760008181526009602052604090206006015415801590610d6f5750600081815260096020526040902060070154155b15610d8057808383610d1181612050565b610de5565b60008181526009602052604090206006015415801590610db5575060008181526009602052604090206007015415155b15610de557808383610dc681612050565b945081518110610dd857610dd861203a565b6020026020010181815250505b80610def81612050565b915050610ccf565b50505b90505b9392505050565b6000546001600160a01b03163314610e2e5760405162461bcd60e51b81526004016104c59061206b565b610e386000611ab6565b565b610e4482826112cf565b828114610e935760405162461bcd60e51b815260206004820152601d60248201527f4c6f626279426174746c653a2077726f6e6720706172616d657465727300000060448201526064016104c5565b600083815260086020526040902054610ef85760405162461bcd60e51b815260206004820152602160248201527f4c6f626279426174746c653a2077726f6e67206c6f62627920636170616369746044820152607960f81b60648201526084016104c5565b600354600084815260086020526040908190205490516323b872dd60e01b815233600482015230602482015260448101919091526001600160a01b03909116906323b872dd90606401602060405180830381600087803b158015610f5b57600080fd5b505af1158015610f6f573d6000803e3d6000fd5b505050506040513d601f19601f82011682018060405250810190610f939190611f66565b610fdf5760405162461bcd60e51b815260206004820152601b60248201527f4c6f626279426174746c653a206e6f7420656e6f75676820666565000000000060448201526064016104c5565b6060610fef600180546001019055565b6000610ffa60015490565b90506000604051806101200160405280838152602001336001600160a01b0316815260200160006001600160a01b03168152602001878152602001868680806020026020016040519081016040528093929190818152602001838360200280828437600092018290525093855250505060208083018790524260408085019190915260608085018490526080948501849052878452600983529281902085518155858301516001820180546001600160a01b03199081166001600160a01b039384161790915592870151600283018054909416911617909155918401516003830155918301518051939450849391926110fb92600485019290910190611c33565b5060a08201518051611117916005840191602090910190611c33565b5060c0820151600682015560e08201516007820155610100909101516008909101805460ff191660ff909216919091179055505050505050565b60008044423360405160200161118c93929190928352602083019190915260601b6bffffffffffffffffffffffff1916604082015260540190565b60408051601f1981840301815291905280516020909101209050836111b18185612023565b6111bc9060016120a0565b6111c690836120b8565b6111d091906120a0565b9150505b92915050565b60608167ffffffffffffffff8111156111f5576111f56120cc565b60405190808252806020026020018201604052801561122857816020015b60608152602001906001900390816112135790505b50905060005b828110156112c8576112983085858481811061124c5761124c61203a565b905060200281019061125e91906120e2565b8080601f016020809104026020016040519081016040528093929190818152602001838380828437600092019190915250611b0692505050565b8282815181106112aa576112aa61203a565b602002602001018190525080806112c090612050565b91505061122e565b5092915050565b60005b60ff81168211156113e25760045433906001600160a01b0316636352211e858560ff86168181106113055761130561203a565b905060200201356040518263ffffffff1660e01b815260040161132a91815260200190565b60206040518083038186803b15801561134257600080fd5b505afa158015611356573d6000803e3d6000fd5b505050506040513d601f19601f8201168201806040525081019061137a9190612129565b6001600160a01b0316146113d05760405162461bcd60e51b815260206004820152601b60248201527f4c6f626279426174746c653a206e6f74206865726f206f776e6572000000000060448201526064016104c5565b806113da81612146565b9150506112d2565b505050565b6000546001600160a01b031633146114115760405162461bcd60e51b81526004016104c59061206b565b600580546001600160a01b0319166001600160a01b0392909216919091179055565b6000546001600160a01b0316331461145d5760405162461bcd60e51b81526004016104c59061206b565b6001600160a01b0381166114c25760405162461bcd60e51b815260206004820152602660248201527f4f776e61626c653a206e6577206f776e657220697320746865207a65726f206160448201526564647265737360d01b60648201526084016104c5565b6114cb81611ab6565b50565b600080836000815181106114e4576114e461203a565b602002602001015190506000836000815181106115035761150361203a565b6020908102919091010151600254604051636ae0f6c560e11b8152600481018590529192506000916001600160a01b039091169063d5c1ed8a9060240160206040518083038186803b15801561155857600080fd5b505afa15801561156c573d6000803e3d6000fd5b505050506040513d601f19601f820116820180604052508101906115909190612166565b600254604051636ae0f6c560e11b8152600481018590529192506000916001600160a01b039091169063d5c1ed8a9060240160206040518083038186803b1580156115da57600080fd5b505afa1580156115ee573d6000803e3d6000fd5b505050506040513d601f19601f820116820180604052508101906116129190612166565b60025460405163f3d1b5ab60e01b8152600481018790529192506000916001600160a01b039091169063f3d1b5ab9060240160206040518083038186803b15801561165c57600080fd5b505afa158015611670573d6000803e3d6000fd5b505050506040513d601f19601f82011682018060405250810190611694919061217f565b600254604051630a36d40b60e01b8152600481018890529192506000916001600160a01b0390911690630a36d40b9060240160206040518083038186803b1580156116de57600080fd5b505afa1580156116f2573d6000803e3d6000fd5b505050506040513d601f19601f82011682018060405250810190611716919061217f565b60025460405163f3d1b5ab60e01b8152600481018890529192506000916001600160a01b039091169063f3d1b5ab9060240160206040518083038186803b15801561176057600080fd5b505afa158015611774573d6000803e3d6000fd5b505050506040513d601f19601f82011682018060405250810190611798919061217f565b600254604051630a36d40b60e01b8152600481018990529192506000916001600160a01b0390911690630a36d40b9060240160206040518083038186803b1580156117e257600080fd5b505afa1580156117f6573d6000803e3d6000fd5b505050506040513d601f19601f8201168201806040525081019061181a919061217f565b90508160ff168460ff16141561198d578060ff168360ff1611156118d15784861115611851576001985050505050505050506111d4565b8486141561189557600061186760016064611151565b9050603c811161188357600199505050505050505050506111d4565b600299505050505050505050506111d4565b60006118a360016064611151565b9050604681116118bf57600299505050505050505050506111d4565b600199505050505050505050506111d4565b8060ff168360ff16141561193457848611156119115760006118f560016064611151565b90506046811161188357600199505050505050505050506111d4565b848614156118955761192560016002611151565b985050505050505050506111d4565b8486101561194d576002985050505050505050506111d4565b8486141561197f57600061196360016064611151565b9050603c81116118bf57600299505050505050505050506111d4565b60006118f560016064611151565b8060ff168360ff161415611a0c57848611156119ce5760006119b160016064611151565b9050604681111561188357600199505050505050505050506111d4565b848614156119e25761192560016002611151565b60006119f060016064611151565b90506014811161188357600199505050505050505050506111d4565b8060ff168360ff161115611a5d5784861115611a33576001985050505050505050506111d4565b6000611a4160016064611151565b90506028811161188357600199505050505050505050506111d4565b84861015611a76576002985050505050505050506111d4565b84861415611aa8576000611a8c60016064611151565b9050601e811161188357600199505050505050505050506111d4565b600061186760016064611151565b600080546001600160a01b038381166001600160a01b0319831681178455604051919092169283917f8be0079c531659141344cd1fd0a4f28419497f9722a3daafe3b4186f6b6457e09190a35050565b6060610dfd83836040518060600160405280602781526020016121cc602791396060833b611b855760405162461bcd60e51b815260206004820152602660248201527f416464726573733a2064656c65676174652063616c6c20746f206e6f6e2d636f6044820152651b9d1c9858dd60d21b60648201526084016104c5565b600080856001600160a01b031685604051611ba0919061219c565b600060405180830381855af49150503d8060008114611bdb576040519150601f19603f3d011682016040523d82523d6000602084013e611be0565b606091505b5091509150611bf0828286611bfa565b9695505050505050565b60608315611c09575081610dfd565b825115611c195782518084602001fd5b8160405162461bcd60e51b81526004016104c591906121b8565b828054828255906000526020600020908101928215611c6e579160200282015b82811115611c6e578251825591602001919060010190611c53565b50611c7a929150611c7e565b5090565b5b80821115611c7a5760008155600101611c7f565b60008083601f840112611ca557600080fd5b50813567ffffffffffffffff811115611cbd57600080fd5b6020830191508360208260051b8501011115611cd857600080fd5b9250929050565b600080600060408486031215611cf457600080fd5b83359250602084013567ffffffffffffffff811115611d1257600080fd5b611d1e86828701611c93565b9497909650939450505050565b6001600160a01b03811681146114cb57600080fd5b60ff811681146114cb57600080fd5b600080600060608486031215611d6457600080fd5b8335611d6f81611d2b565b92506020840135611d7f81611d40565b91506040840135611d8f81611d40565b809150509250925092565b6020808252825182820181905260009190848201906040850190845b81811015611dd257835183529284019291840191600101611db6565b50909695505050505050565b600060208284031215611df057600080fd5b5035919050565b60008060408385031215611e0a57600080fd5b823591506020830135611e1c81611d2b565b809150509250929050565b60008060408385031215611e3a57600080fd5b50508035926020909101359150565b60008060208385031215611e5c57600080fd5b823567ffffffffffffffff811115611e7357600080fd5b611e7f85828601611c93565b90969095509350505050565b60005b83811015611ea6578181015183820152602001611e8e565b83811115611eb5576000848401525b50505050565b60008151808452611ed3816020860160208601611e8b565b601f01601f19169290920160200192915050565b6000602080830181845280855180835260408601915060408160051b870101925083870160005b82811015611f3c57603f19888603018452611f2a858351611ebb565b94509285019290850190600101611f0e565b5092979650505050505050565b600060208284031215611f5b57600080fd5b8135610dfd81611d2b565b600060208284031215611f7857600080fd5b81518015158114610dfd57600080fd5b6020808252810182905260006001600160fb1b03831115611fa857600080fd5b8260051b80856040850137600092016040019182525092915050565b634e487b7160e01b600052601160045260246000fd5b6000816000190483118215151615611ff457611ff4611fc4565b500290565b634e487b7160e01b600052601260045260246000fd5b60008261201e5761201e611ff9565b500490565b60008282101561203557612035611fc4565b500390565b634e487b7160e01b600052603260045260246000fd5b600060001982141561206457612064611fc4565b5060010190565b6020808252818101527f4f776e61626c653a2063616c6c6572206973206e6f7420746865206f776e6572604082015260600190565b600082198211156120b3576120b3611fc4565b500190565b6000826120c7576120c7611ff9565b500690565b634e487b7160e01b600052604160045260246000fd5b6000808335601e198436030181126120f957600080fd5b83018035915067ffffffffffffffff82111561211457600080fd5b602001915036819003821315611cd857600080fd5b60006020828403121561213b57600080fd5b8151610dfd81611d2b565b600060ff821660ff81141561215d5761215d611fc4565b60010192915050565b60006020828403121561217857600080fd5b5051919050565b60006020828403121561219157600080fd5b8151610dfd81611d40565b600082516121ae818460208701611e8b565b9190910192915050565b602081526000610dfd6020830184611ebb56fe416464726573733a206c6f772d6c6576656c2064656c65676174652063616c6c206661696c6564a26469706673582212203e9f58e97e0748a4b92106b80fa2a91b7b9e6f8c182a2280f8b07dfda4f0f49c64736f6c63430008090033",
  "linkReferences": {},
  "deployedLinkReferences": {}
}