{
  "_format": "hh-sol-artifact-1",
  "contractName": "LobbyManager",
  "sourceName": "contracts/game/LobbyManager.sol",
  "abi": [
    {
      "inputs": [
        {
          "internalType": "address",
          "name": "npAddr",
          "type": "address"
        }
      ],
      "stateMutability": "nonpayable",
      "type": "constructor"
    },
    {
      "anonymous": false,
      "inputs": [
        {
          "indexed": true,
          "internalType": "uint256",
          "name": "lobbyId",
          "type": "uint256"
        },
        {
          "indexed": true,
          "internalType": "address",
          "name": "host",
          "type": "address"
        },
        {
          "indexed": true,
          "internalType": "address",
          "name": "client",
          "type": "address"
        }
      ],
      "name": "BattleFinished",
      "type": "event"
    },
    {
      "anonymous": false,
      "inputs": [
        {
          "indexed": true,
          "internalType": "address",
          "name": "previousOwner",
          "type": "address"
        },
        {
          "indexed": true,
          "internalType": "address",
          "name": "newOwner",
          "type": "address"
        }
      ],
      "name": "OwnershipTransferred",
      "type": "event"
    },
    {
      "inputs": [
        {
          "internalType": "uint256",
          "name": "",
          "type": "uint256"
        }
      ],
      "name": "battles",
      "outputs": [
        {
          "internalType": "contract IVersusBattle",
          "name": "",
          "type": "address"
        }
      ],
      "stateMutability": "view",
      "type": "function"
    },
    {
      "inputs": [],
      "name": "benefitMultiplier",
      "outputs": [
        {
          "internalType": "uint256",
          "name": "",
          "type": "uint256"
        }
      ],
      "stateMutability": "view",
      "type": "function"
    },
    {
      "inputs": [
        {
          "internalType": "bytes32",
          "name": "name",
          "type": "bytes32"
        },
        {
          "internalType": "bytes32",
          "name": "avatar",
          "type": "bytes32"
        },
        {
          "internalType": "uint256",
          "name": "capacity",
          "type": "uint256"
        },
        {
          "internalType": "uint256[]",
          "name": "heroIds",
          "type": "uint256[]"
        }
      ],
      "name": "createLobby",
      "outputs": [],
      "stateMutability": "nonpayable",
      "type": "function"
    },
    {
      "inputs": [
        {
          "internalType": "uint256[]",
          "name": "heroes",
          "type": "uint256[]"
        }
      ],
      "name": "getHeroesPower",
      "outputs": [
        {
          "internalType": "uint256",
          "name": "",
          "type": "uint256"
        }
      ],
      "stateMutability": "view",
      "type": "function"
    },
    {
      "inputs": [
        {
          "internalType": "uint256",
          "name": "lobbyId",
          "type": "uint256"
        },
        {
          "internalType": "address",
          "name": "player",
          "type": "address"
        }
      ],
      "name": "getPlayerHeroesOnLobby",
      "outputs": [
        {
          "internalType": "uint256[]",
          "name": "",
          "type": "uint256[]"
        }
      ],
      "stateMutability": "view",
      "type": "function"
    },
    {
      "inputs": [],
      "name": "heroManager",
      "outputs": [
        {
          "internalType": "contract IHeroManager",
          "name": "",
          "type": "address"
        }
      ],
      "stateMutability": "view",
      "type": "function"
    },
    {
      "inputs": [
        {
          "internalType": "uint256",
          "name": "lobbyId",
          "type": "uint256"
        },
        {
          "internalType": "uint256[]",
          "name": "heroIds",
          "type": "uint256[]"
        }
      ],
      "name": "joinLobby",
      "outputs": [],
      "stateMutability": "nonpayable",
      "type": "function"
    },
    {
      "inputs": [
        {
          "internalType": "uint256",
          "name": "",
          "type": "uint256"
        }
      ],
      "name": "lobbies",
      "outputs": [
        {
          "internalType": "bytes32",
          "name": "name",
          "type": "bytes32"
        },
        {
          "internalType": "bytes32",
          "name": "avatar",
          "type": "bytes32"
        },
        {
          "internalType": "address",
          "name": "host",
          "type": "address"
        },
        {
          "internalType": "address",
          "name": "client",
          "type": "address"
        },
        {
          "internalType": "uint256",
          "name": "id",
          "type": "uint256"
        },
        {
          "internalType": "uint256",
          "name": "capacity",
          "type": "uint256"
        },
        {
          "internalType": "uint256",
          "name": "startedAt",
          "type": "uint256"
        },
        {
          "internalType": "uint256",
          "name": "finishedAt",
          "type": "uint256"
        },
        {
          "internalType": "uint256",
          "name": "winner",
          "type": "uint256"
        },
        {
          "internalType": "uint256",
          "name": "fee",
          "type": "uint256"
        },
        {
          "internalType": "uint256",
          "name": "rewards",
          "type": "uint256"
        }
      ],
      "stateMutability": "view",
      "type": "function"
    },
    {
      "inputs": [
        {
          "internalType": "uint256",
          "name": "",
          "type": "uint256"
        }
      ],
      "name": "lobbyFees",
      "outputs": [
        {
          "internalType": "uint256",
          "name": "",
          "type": "uint256"
        }
      ],
      "stateMutability": "view",
      "type": "function"
    },
    {
      "inputs": [
        {
          "internalType": "uint256",
          "name": "",
          "type": "uint256"
        },
        {
          "internalType": "address",
          "name": "",
          "type": "address"
        },
        {
          "internalType": "uint256",
          "name": "",
          "type": "uint256"
        }
      ],
      "name": "lobbyHeroes",
      "outputs": [
        {
          "internalType": "uint256",
          "name": "",
          "type": "uint256"
        }
      ],
      "stateMutability": "view",
      "type": "function"
    },
    {
      "inputs": [
        {
          "internalType": "bytes[]",
          "name": "data",
          "type": "bytes[]"
        }
      ],
      "name": "multicall",
      "outputs": [
        {
          "internalType": "bytes[]",
          "name": "results",
          "type": "bytes[]"
        }
      ],
      "stateMutability": "nonpayable",
      "type": "function"
    },
    {
      "inputs": [],
      "name": "nodePoolAddress",
      "outputs": [
        {
          "internalType": "address",
          "name": "",
          "type": "address"
        }
      ],
      "stateMutability": "view",
      "type": "function"
    },
    {
      "inputs": [],
      "name": "owner",
      "outputs": [
        {
          "internalType": "address",
          "name": "",
          "type": "address"
        }
      ],
      "stateMutability": "view",
      "type": "function"
    },
    {
      "inputs": [
        {
          "internalType": "address",
          "name": "",
          "type": "address"
        }
      ],
      "name": "playersFees",
      "outputs": [
        {
          "internalType": "uint256",
          "name": "",
          "type": "uint256"
        }
      ],
      "stateMutability": "view",
      "type": "function"
    },
    {
      "inputs": [
        {
          "internalType": "address",
          "name": "",
          "type": "address"
        }
      ],
      "name": "playersRewards",
      "outputs": [
        {
          "internalType": "uint256",
          "name": "",
          "type": "uint256"
        }
      ],
      "stateMutability": "view",
      "type": "function"
    },
    {
      "inputs": [
        {
          "internalType": "uint256",
          "name": "",
          "type": "uint256"
        },
        {
          "internalType": "address",
          "name": "",
          "type": "address"
        }
      ],
      "name": "powerHistory",
      "outputs": [
        {
          "internalType": "uint256",
          "name": "",
          "type": "uint256"
        }
      ],
      "stateMutability": "view",
      "type": "function"
    },
    {
      "inputs": [
        {
          "internalType": "address",
          "name": "",
          "type": "address"
        }
      ],
      "name": "registeredPlayers",
      "outputs": [
        {
          "internalType": "bool",
          "name": "",
          "type": "bool"
        }
      ],
      "stateMutability": "view",
      "type": "function"
    },
    {
      "inputs": [],
      "name": "renounceOwnership",
      "outputs": [],
      "stateMutability": "nonpayable",
      "type": "function"
    },
    {
      "inputs": [
        {
          "internalType": "uint256",
          "name": "capacity",
          "type": "uint256"
        },
        {
          "internalType": "address",
          "name": "battleAddress",
          "type": "address"
        }
      ],
      "name": "setBattleAddress",
      "outputs": [],
      "stateMutability": "nonpayable",
      "type": "function"
    },
    {
      "inputs": [
        {
          "internalType": "uint256",
          "name": "multiplier",
          "type": "uint256"
        }
      ],
      "name": "setBenefitMultiplier",
      "outputs": [],
      "stateMutability": "nonpayable",
      "type": "function"
    },
    {
      "inputs": [
        {
          "internalType": "address",
          "name": "hmAddr",
          "type": "address"
        }
      ],
      "name": "setHeroManager",
      "outputs": [],
      "stateMutability": "nonpayable",
      "type": "function"
    },
    {
      "inputs": [
        {
          "internalType": "uint256",
          "name": "capacity",
          "type": "uint256"
        },
        {
          "internalType": "uint256",
          "name": "fee",
          "type": "uint256"
        }
      ],
      "name": "setLobbyFee",
      "outputs": [],
      "stateMutability": "nonpayable",
      "type": "function"
    },
    {
      "inputs": [
        {
          "internalType": "address",
          "name": "npAddr",
          "type": "address"
        }
      ],
      "name": "setNodePool",
      "outputs": [],
      "stateMutability": "nonpayable",
      "type": "function"
    },
    {
      "inputs": [],
      "name": "totalLobbies",
      "outputs": [
        {
          "internalType": "uint256",
          "name": "",
          "type": "uint256"
        }
      ],
      "stateMutability": "view",
      "type": "function"
    },
    {
      "inputs": [],
      "name": "totalPlayers",
      "outputs": [
        {
          "internalType": "uint256",
          "name": "",
          "type": "uint256"
        }
      ],
      "stateMutability": "view",
      "type": "function"
    },
    {
      "inputs": [
        {
          "internalType": "address",
          "name": "newOwner",
          "type": "address"
        }
      ],
      "name": "transferOwnership",
      "outputs": [],
      "stateMutability": "nonpayable",
      "type": "function"
    },
    {
      "inputs": [
        {
          "internalType": "uint256",
          "name": "",
          "type": "uint256"
        }
      ],
      "name": "uniquePlayers",
      "outputs": [
        {
          "internalType": "address",
          "name": "",
          "type": "address"
        }
      ],
      "stateMutability": "view",
      "type": "function"
    },
    {
      "inputs": [
        {
          "internalType": "uint256",
          "name": "amount",
          "type": "uint256"
        }
      ],
      "name": "withdrawReserves",
      "outputs": [],
      "stateMutability": "nonpayable",
      "type": "function"
    }
  ],
  "bytecode": "0x608060405260b46004553480156200001657600080fd5b50604051620024f4380380620024f483398101604081905262000039916200014b565b6200004433620000fb565b600c602052690a968163f0a57b4000007fd421a5181c571bba3f01190c922c3b2a896fc1d84e86c9f17ac10e67ebef8b5c55691a784379d99db42000007fc0da782485e77ae272268ae0a3ff44c1552ecb60b3743924de17a815e0a3cfd755600560005269250ec4ddca432f6000007f2cd9ebf6ff19cdd7ffcc447d7c7d47b5991f5c7392a04512134e765802361fa655600280546001600160a01b0319166001600160a01b03929092169190911790556200017d565b600080546001600160a01b038381166001600160a01b0319831681178455604051919092169283917f8be0079c531659141344cd1fd0a4f28419497f9722a3daafe3b4186f6b6457e09190a35050565b6000602082840312156200015e57600080fd5b81516001600160a01b03811681146200017657600080fd5b9392505050565b612367806200018d6000396000f3fe608060405234801561001057600080fd5b50600436106101c35760003560e01c80638da5cb5b116100f9578063b9f2d52011610097578063da596bb511610071578063da596bb514610528578063ed697f3214610531578063f2fde38b14610544578063f60cdcf61461055757600080fd5b8063b9f2d520146104bd578063c7f790bb146104dd578063c8f942701461050857600080fd5b8063965d3dc9116100d3578063965d3dc91461046157806398aa8c331461046a578063ac9650d81461047d578063b97dcb221461049d57600080fd5b80638da5cb5b14610414578063930613fc1461042557806394f696621461044e57600080fd5b80634bafce22116101665780636bd2dc85116101405780636bd2dc85146103075780636e8fb4c614610327578063715018a6146103f9578063833588cc1461040157600080fd5b80634bafce221461029857806357d15a8b146102cb578063606d2e96146102de57600080fd5b806326cea918116101a257806326cea9181461024c57806328b11d231461025f578063378cc347146102725780633b8a7a131461028557600080fd5b8062c8bd7e146101c85780630c17ce5e146101dd57806316fc989c1461020d575b600080fd5b6101db6101d6366004611d4b565b610560565b005b6002546101f0906001600160a01b031681565b6040516001600160a01b0390911681526020015b60405180910390f35b61023e61021b366004611dac565b600a60209081526000938452604080852082529284528284209052825290205481565b604051908152602001610204565b6101db61025a366004611de4565b610cfc565b6101db61026d366004611e01565b610d48565b6101db610280366004611de4565b610dd1565b6003546101f0906001600160a01b031681565b6102bb6102a6366004611de4565b60076020526000908152604090205460ff1681565b6040519015158152602001610204565b6101db6102d9366004611e1a565b610e1d565b6101f06102ec366004611e01565b600d602052600090815260409020546001600160a01b031681565b61023e610315366004611de4565b60096020526000908152604090205481565b61039a610335366004611e01565b600b60205260009081526040902080546001820154600283015460038401546004850154600586015460068701546007880154600889015460098a0154600a909a0154989997986001600160a01b03978816989790961696949593949293919290918b565b604080519b8c5260208c019a909a526001600160a01b03988916998b0199909952969095166060890152608088019390935260a087019190915260c086015260e085015261010084015261012083015261014082015261016001610204565b6101db610e75565b6101db61040f366004611e4a565b610eab565b6000546001600160a01b03166101f0565b6101f0610433366004611e01565b6006602052600090815260409020546001600160a01b031681565b6101db61045c366004611e6c565b610ee7565b61023e60015481565b6101db610478366004611e01565b61146a565b61049061048b366004611ecd565b611599565b6040516102049190611f6b565b6104b06104ab366004611e1a565b61168e565b6040516102049190612008565b61023e6104cb366004611e01565b600c6020526000908152604090205481565b61023e6104eb366004611e1a565b600e60209081526000928352604080842090915290825290205481565b61023e610516366004611de4565b60086020526000908152604090205481565b61023e60045481565b61023e61053f366004612031565b611782565b6101db610552366004611de4565b611841565b61023e60055481565b6000838152600b60205260409081902060028101546005909101546003549251630152368f60e01b815233936001600160a01b03938416931690630152368f906105b290889088908890600401612125565b60206040518083038186803b1580156105ca57600080fd5b505afa1580156105de573d6000803e3d6000fd5b505050506040513d601f19601f820116820180604052508101906106029190612151565b5060035460405163b7601a1560e01b81526001600160a01b039091169063b7601a15906106359088908890600401612173565b60206040518083038186803b15801561064d57600080fd5b505afa158015610661573d6000803e3d6000fd5b505050506040513d601f19601f820116820180604052508101906106859190612151565b506000868152600b602052604090206004015486146106f55760405162461bcd60e51b815260206004820152602160248201527f4c6f6262794d616e616765723a206c6f62627920646f65736e277420657869736044820152601d60fa1b60648201526084015b60405180910390fd5b8084146107445760405162461bcd60e51b815260206004820152601a60248201527f4c6f6262794d616e616765723a2077726f6e67206865726f657300000000000060448201526064016106ec565b6000868152600b6020526040902060070154156107a35760405162461bcd60e51b815260206004820152601e60248201527f4c6f6262794d616e616765723a20616c72656164792066696e6973686564000060448201526064016106ec565b60035460408051637e062a3560e11b815290516000926001600160a01b03169163fc0c546a916004808301926020929190829003018186803b1580156107e857600080fd5b505afa1580156107fc573d6000803e3d6000fd5b505050506040513d601f19601f82011682018060405250810190610820919061218f565b6000838152600c6020526040908190205490516323b872dd60e01b81526001600160a01b0387811660048301523060248301526044820183905292935090918316906323b872dd90606401602060405180830381600087803b15801561088557600080fd5b505af1158015610899573d6000803e3d6000fd5b505050506040513d601f19601f820116820180604052508101906108bd9190612151565b6109095760405162461bcd60e51b815260206004820152601c60248201527f4c6f6262794d616e616765723a206e6f7420656e6f756768206665650000000060448201526064016106ec565b610912856118dc565b6001600160a01b03851660008181526008602090815260408083208054860190558b8352600b90915281206003810180546001600160a01b03191690931790925542600790920191909155610967898661168e565b905061097281611782565b60008a8152600e602090815260408083206001600160a01b038a16845282529182902092909255805189830281810184019092528981526109d09290918b918b91829185019084908082843760009201919091525061178292505050565b60008a8152600e602090815260408083206001600160a01b038b168452909152812091909155600454610a099060649085025b90611951565b60008b8152600b60209081526040808320600a01849055888352600d9091528082205490516348e8c1d360e01b81529293506001600160a01b03169182906348e8c1d390610a5f9087908f908f906004016121ac565b60206040518083038186803b158015610a7757600080fd5b505afa158015610a8b573d6000803e3d6000fd5b505050506040513d601f19601f82011682018060405250810190610aaf91906121d2565b905080600b60008e815260200190815260200160002060080181905550610b1a8c82868e8e80806020026020016040519081016040528093929190818152602001838360200280828437600081840152601f19601f820116905080830192505050505050508d61196a565b600081600114610b2a5789610b2c565b885b60405163a9059cbb60e01b81526001600160a01b038083166004830152602482018790529192509088169063a9059cbb90604401602060405180830381600087803b158015610b7a57600080fd5b505af1158015610b8e573d6000803e3d6000fd5b505050506040513d601f19601f82011682018060405250810190610bb29190612151565b506002546004546001600160a01b03808a169263a9059cbb92911690610be990606490610a0390610be49060c8612201565b8c0290565b6040516001600160e01b031960e085901b1681526001600160a01b0390921660048301526024820152604401602060405180830381600087803b158015610c2f57600080fd5b505af1158015610c43573d6000803e3d6000fd5b505050506040513d601f19601f82011682018060405250810190610c679190612151565b506001600160a01b038116600090815260096020526040902054840160096000836001600160a01b03166001600160a01b0316815260200190815260200160002081905550896001600160a01b0316896001600160a01b03168e7fc77dc6cd4b51c8efc4af40a582ca4cf229fda505a830b4486b200ddcbdb1383f60405160405180910390a450505050505050505050505050565b6000546001600160a01b03163314610d265760405162461bcd60e51b81526004016106ec90612218565b600280546001600160a01b0319166001600160a01b0392909216919091179055565b6000546001600160a01b03163314610d725760405162461bcd60e51b81526004016106ec90612218565b60c88110610dcc5760405162461bcd60e51b815260206004820152602160248201527f4c6f6262794d616e616765723a20746f6f2068696768206d756c7469706c69656044820152603960f91b60648201526084016106ec565b600455565b6000546001600160a01b03163314610dfb5760405162461bcd60e51b81526004016106ec90612218565b600380546001600160a01b0319166001600160a01b0392909216919091179055565b6000546001600160a01b03163314610e475760405162461bcd60e51b81526004016106ec90612218565b6000918252600d602052604090912080546001600160a01b0319166001600160a01b03909216919091179055565b6000546001600160a01b03163314610e9f5760405162461bcd60e51b81526004016106ec90612218565b610ea96000611b6d565b565b6000546001600160a01b03163314610ed55760405162461bcd60e51b81526004016106ec90612218565b6000918252600c602052604090912055565b6000838152600c602052604090819020546003549151630152368f60e01b815233926001600160a01b031690630152368f90610f2b90879087908790600401612125565b60206040518083038186803b158015610f4357600080fd5b505afa158015610f57573d6000803e3d6000fd5b505050506040513d601f19601f82011682018060405250810190610f7b9190612151565b5060035460405163b7601a1560e01b81526001600160a01b039091169063b7601a1590610fae9087908790600401612173565b60206040518083038186803b158015610fc657600080fd5b505afa158015610fda573d6000803e3d6000fd5b505050506040513d601f19601f82011682018060405250810190610ffe9190612151565b5060035460408051637e062a3560e11b815290516000926001600160a01b03169163fc0c546a916004808301926020929190829003018186803b15801561104457600080fd5b505afa158015611058573d6000803e3d6000fd5b505050506040513d601f19601f8201168201806040525081019061107c919061218f565b90508584146110cd5760405162461bcd60e51b815260206004820152601e60248201527f4c6f6262794d616e616765723a2077726f6e6720706172616d6574657273000060448201526064016106ec565b600082116111285760405162461bcd60e51b815260206004820152602260248201527f4c6f6262794d616e616765723a2077726f6e67206c6f62627920636170616369604482015261747960f01b60648201526084016106ec565b6040516323b872dd60e01b81526001600160a01b038481166004830152306024830152604482018490528216906323b872dd90606401602060405180830381600087803b15801561117857600080fd5b505af115801561118c573d6000803e3d6000fd5b505050506040513d601f19601f820116820180604052508101906111b09190612151565b6111fc5760405162461bcd60e51b815260206004820152601c60248201527f4c6f6262794d616e616765723a206e6f7420656e6f756768206665650000000060448201526064016106ec565b611205836118dc565b6001600160a01b03831660009081526008602052604090205482016001600160a01b038416600090815260086020526040812091909155600180540190508060018190555060006040518061016001604052808b81526020018a8152602001866001600160a01b0316815260200160006001600160a01b0316815260200183815260200189815260200142815260200160008152602001600081526020018581526020016000815250905080600b6000848152602001908152602001600020600082015181600001556020820151816001015560408201518160020160006101000a8154816001600160a01b0302191690836001600160a01b0316021790555060608201518160030160006101000a8154816001600160a01b0302191690836001600160a01b031602179055506080820151816004015560a0820151816005015560c0820151816006015560e082015181600701556101008201518160080155610120820151816009015561014082015181600a015590505060005b8681101561145d5787878281811061139b5761139b61224d565b6000868152600a602090815260408083206001600160a01b03808e168552908352818420888552835292209202939093013590555060035416634239ca308989848181106113eb576113eb61224d565b905060200201356040518263ffffffff1660e01b815260040161141091815260200190565b600060405180830381600087803b15801561142a57600080fd5b505af115801561143e573d6000803e3d6000fd5b5050505061145660018261194d90919063ffffffff16565b9050611381565b5050505050505050505050565b6000546001600160a01b031633146114945760405162461bcd60e51b81526004016106ec90612218565b60035460408051637e062a3560e11b815290516000926001600160a01b03169163fc0c546a916004808301926020929190829003018186803b1580156114d957600080fd5b505afa1580156114ed573d6000803e3d6000fd5b505050506040513d601f19601f82011682018060405250810190611511919061218f565b60405163a9059cbb60e01b8152336004820152602481018490529091506001600160a01b0382169063a9059cbb90604401602060405180830381600087803b15801561155c57600080fd5b505af1158015611570573d6000803e3d6000fd5b505050506040513d601f19601f820116820180604052508101906115949190612151565b505050565b60608167ffffffffffffffff8111156115b4576115b461201b565b6040519080825280602002602001820160405280156115e757816020015b60608152602001906001900390816115d25790505b50905060005b82811015611687576116573085858481811061160b5761160b61224d565b905060200281019061161d9190612263565b8080601f016020809104026020016040519081016040528093929190818152602001838380828437600092019190915250611bbd92505050565b8282815181106116695761166961224d565b6020026020010181905250808061167f906122aa565b9150506115ed565b5092915050565b606060005b6000848152600a602090815260408083206001600160a01b03871684528252808320848452909152902054156116d557806116cd816122aa565b915050611693565b60008167ffffffffffffffff8111156116f0576116f061201b565b604051908082528060200260200182016040528015611719578160200160208202803683370190505b50905060005b82811015611779576000868152600a602090815260408083206001600160a01b0389168452825280832084845290915290205482518390839081106117665761176661224d565b602090810291909101015260010161171f565b50949350505050565b60008060005b8351811015611687576003548451611837916001600160a01b03169063d5c1ed8a908790859081106117bc576117bc61224d565b60200260200101516040518263ffffffff1660e01b81526004016117e291815260200190565b60206040518083038186803b1580156117fa57600080fd5b505afa15801561180e573d6000803e3d6000fd5b505050506040513d601f19601f8201168201806040525081019061183291906121d2565b830190565b9150600101611788565b6000546001600160a01b0316331461186b5760405162461bcd60e51b81526004016106ec90612218565b6001600160a01b0381166118d05760405162461bcd60e51b815260206004820152602660248201527f4f776e61626c653a206e6577206f776e657220697320746865207a65726f206160448201526564647265737360d01b60648201526084016106ec565b6118d981611b6d565b50565b6001600160a01b03811660009081526007602052604090205460ff166118d95760058054600090815260066020908152604080832080546001600160a01b0319166001600160a01b038716908117909155835260079091529020805460ff1916600190811790915590540160055550565b0190565b6000818381611962576119626122c5565b049392505050565b60005b8351811015611b655760035484516001600160a01b039091169063b0a04efa9086908490811061199f5761199f61224d565b6020026020010151876001146040518363ffffffff1660e01b81526004016119d39291909182521515602082015260400190565b600060405180830381600087803b1580156119ed57600080fd5b505af1158015611a01573d6000803e3d6000fd5b505060035485516001600160a01b03909116925063b0a04efa9150859084908110611a2e57611a2e61224d565b6020026020010151876002146040518363ffffffff1660e01b8152600401611a629291909182521515602082015260400190565b600060405180830381600087803b158015611a7c57600080fd5b505af1158015611a90573d6000803e3d6000fd5b505060035485516001600160a01b039091169250634239ca309150859084908110611abd57611abd61224d565b60200260200101516040518263ffffffff1660e01b8152600401611ae391815260200190565b600060405180830381600087803b158015611afd57600080fd5b505af1158015611b11573d6000803e3d6000fd5b50505050828181518110611b2757611b2761224d565b6020908102919091018101516000888152600a835260408082206001600160a01b03871683528452808220858352909352919091205560010161196d565b505050505050565b600080546001600160a01b038381166001600160a01b0319831681178455604051919092169283917f8be0079c531659141344cd1fd0a4f28419497f9722a3daafe3b4186f6b6457e09190a35050565b6060611be2838360405180606001604052806027815260200161230b60279139611be9565b9392505050565b60606001600160a01b0384163b611c515760405162461bcd60e51b815260206004820152602660248201527f416464726573733a2064656c65676174652063616c6c20746f206e6f6e2d636f6044820152651b9d1c9858dd60d21b60648201526084016106ec565b600080856001600160a01b031685604051611c6c91906122db565b600060405180830381855af49150503d8060008114611ca7576040519150601f19603f3d011682016040523d82523d6000602084013e611cac565b606091505b5091509150611cbc828286611cc6565b9695505050505050565b60608315611cd5575081611be2565b825115611ce55782518084602001fd5b8160405162461bcd60e51b81526004016106ec91906122f7565b60008083601f840112611d1157600080fd5b50813567ffffffffffffffff811115611d2957600080fd5b6020830191508360208260051b8501011115611d4457600080fd5b9250929050565b600080600060408486031215611d6057600080fd5b83359250602084013567ffffffffffffffff811115611d7e57600080fd5b611d8a86828701611cff565b9497909650939450505050565b6001600160a01b03811681146118d957600080fd5b600080600060608486031215611dc157600080fd5b833592506020840135611dd381611d97565b929592945050506040919091013590565b600060208284031215611df657600080fd5b8135611be281611d97565b600060208284031215611e1357600080fd5b5035919050565b60008060408385031215611e2d57600080fd5b823591506020830135611e3f81611d97565b809150509250929050565b60008060408385031215611e5d57600080fd5b50508035926020909101359150565b600080600080600060808688031215611e8457600080fd5b853594506020860135935060408601359250606086013567ffffffffffffffff811115611eb057600080fd5b611ebc88828901611cff565b969995985093965092949392505050565b60008060208385031215611ee057600080fd5b823567ffffffffffffffff811115611ef757600080fd5b611f0385828601611cff565b90969095509350505050565b60005b83811015611f2a578181015183820152602001611f12565b83811115611f39576000848401525b50505050565b60008151808452611f57816020860160208601611f0f565b601f01601f19169290920160200192915050565b6000602080830181845280855180835260408601915060408160051b870101925083870160005b82811015611fc057603f19888603018452611fae858351611f3f565b94509285019290850190600101611f92565b5092979650505050505050565b600081518084526020808501945080840160005b83811015611ffd57815187529582019590820190600101611fe1565b509495945050505050565b602081526000611be26020830184611fcd565b634e487b7160e01b600052604160045260246000fd5b6000602080838503121561204457600080fd5b823567ffffffffffffffff8082111561205c57600080fd5b818501915085601f83011261207057600080fd5b8135818111156120825761208261201b565b8060051b604051601f19603f830116810181811085821117156120a7576120a761201b565b6040529182528482019250838101850191888311156120c557600080fd5b938501935b828510156120e3578435845293850193928501926120ca565b98975050505050505050565b81835260006001600160fb1b0383111561210857600080fd5b8260051b8083602087013760009401602001938452509192915050565b6040815260006121396040830185876120ef565b905060018060a01b0383166020830152949350505050565b60006020828403121561216357600080fd5b81518015158114611be257600080fd5b6020815260006121876020830184866120ef565b949350505050565b6000602082840312156121a157600080fd5b8151611be281611d97565b6040815260006121bf6040830186611fcd565b8281036020840152611cbc8185876120ef565b6000602082840312156121e457600080fd5b5051919050565b634e487b7160e01b600052601160045260246000fd5b600082821015612213576122136121eb565b500390565b6020808252818101527f4f776e61626c653a2063616c6c6572206973206e6f7420746865206f776e6572604082015260600190565b634e487b7160e01b600052603260045260246000fd5b6000808335601e1984360301811261227a57600080fd5b83018035915067ffffffffffffffff82111561229557600080fd5b602001915036819003821315611d4457600080fd5b60006000198214156122be576122be6121eb565b5060010190565b634e487b7160e01b600052601260045260246000fd5b600082516122ed818460208701611f0f565b9190910192915050565b602081526000611be26020830184611f3f56fe416464726573733a206c6f772d6c6576656c2064656c65676174652063616c6c206661696c6564a264697066735822122084f8332b6483a4143a4c0446749bf8b4abb7d4c711c093aad40fb622d5c953ef64736f6c63430008090033",
  "linkReferences": {},
  "deployedLinkReferences": {}
}