{
  "_format": "hh-sol-artifact-1",
  "contractName": "LobbyBattle",
  "sourceName": "contracts/game/LobbyBattle.sol",
  "abi": [
    {
      "inputs": [],
      "stateMutability": "nonpayable",
      "type": "constructor"
    },
    {
      "anonymous": false,
      "inputs": [
        {
          "indexed": true,
          "internalType": "address",
          "name": "previousOwner",
          "type": "address"
        },
        {
          "indexed": true,
          "internalType": "address",
          "name": "newOwner",
          "type": "address"
        }
      ],
      "name": "OwnershipTransferred",
      "type": "event"
    },
    {
      "inputs": [],
      "name": "bonusExp",
      "outputs": [
        {
          "internalType": "uint256",
          "name": "",
          "type": "uint256"
        }
      ],
      "stateMutability": "view",
      "type": "function"
    },
    {
      "inputs": [
        {
          "internalType": "uint256",
          "name": "capacity",
          "type": "uint256"
        },
        {
          "internalType": "bytes32",
          "name": "name",
          "type": "bytes32"
        },
        {
          "internalType": "bytes32",
          "name": "avatar",
          "type": "bytes32"
        },
        {
          "internalType": "uint256[]",
          "name": "heroIds",
          "type": "uint256[]"
        }
      ],
      "name": "createLobby",
      "outputs": [],
      "stateMutability": "nonpayable",
      "type": "function"
    },
    {
      "inputs": [
        {
          "internalType": "address",
          "name": "myAddr",
          "type": "address"
        }
      ],
      "name": "getActiveLobbies",
      "outputs": [
        {
          "internalType": "uint256[]",
          "name": "",
          "type": "uint256[]"
        }
      ],
      "stateMutability": "view",
      "type": "function"
    },
    {
      "inputs": [],
      "name": "getAllHistory",
      "outputs": [
        {
          "internalType": "uint256[]",
          "name": "",
          "type": "uint256[]"
        }
      ],
      "stateMutability": "view",
      "type": "function"
    },
    {
      "inputs": [
        {
          "internalType": "address",
          "name": "myAddr",
          "type": "address"
        }
      ],
      "name": "getMyHistory",
      "outputs": [
        {
          "internalType": "uint256[]",
          "name": "",
          "type": "uint256[]"
        }
      ],
      "stateMutability": "view",
      "type": "function"
    },
    {
      "inputs": [
        {
          "internalType": "address",
          "name": "myAddr",
          "type": "address"
        }
      ],
      "name": "getMyLobbies",
      "outputs": [
        {
          "internalType": "uint256[]",
          "name": "",
          "type": "uint256[]"
        }
      ],
      "stateMutability": "view",
      "type": "function"
    },
    {
      "inputs": [
        {
          "internalType": "uint256",
          "name": "heroId",
          "type": "uint256"
        }
      ],
      "name": "heroBonusExp",
      "outputs": [
        {
          "internalType": "uint256",
          "name": "",
          "type": "uint256"
        }
      ],
      "stateMutability": "view",
      "type": "function"
    },
    {
      "inputs": [],
      "name": "heroManager",
      "outputs": [
        {
          "internalType": "contract IHeroManager",
          "name": "",
          "type": "address"
        }
      ],
      "stateMutability": "view",
      "type": "function"
    },
    {
      "inputs": [
        {
          "internalType": "uint256",
          "name": "lobbyId",
          "type": "uint256"
        },
        {
          "internalType": "uint256[]",
          "name": "heroIds",
          "type": "uint256[]"
        }
      ],
      "name": "joinLobby",
      "outputs": [],
      "stateMutability": "nonpayable",
      "type": "function"
    },
    {
      "inputs": [
        {
          "internalType": "uint256",
          "name": "",
          "type": "uint256"
        }
      ],
      "name": "lobbies",
      "outputs": [
        {
          "internalType": "bytes32",
          "name": "name",
          "type": "bytes32"
        },
        {
          "internalType": "bytes32",
          "name": "avatar",
          "type": "bytes32"
        },
        {
          "internalType": "address",
          "name": "host",
          "type": "address"
        },
        {
          "internalType": "address",
          "name": "client",
          "type": "address"
        },
        {
          "internalType": "uint256",
          "name": "id",
          "type": "uint256"
        },
        {
          "internalType": "uint256",
          "name": "capacity",
          "type": "uint256"
        },
        {
          "internalType": "uint256",
          "name": "startedAt",
          "type": "uint256"
        },
        {
          "internalType": "uint256",
          "name": "finishedAt",
          "type": "uint256"
        },
        {
          "internalType": "uint256",
          "name": "winner",
          "type": "uint256"
        },
        {
          "internalType": "uint256",
          "name": "fee",
          "type": "uint256"
        },
        {
          "internalType": "uint256",
          "name": "rewards",
          "type": "uint256"
        }
      ],
      "stateMutability": "view",
      "type": "function"
    },
    {
      "inputs": [
        {
          "internalType": "uint256",
          "name": "",
          "type": "uint256"
        },
        {
          "internalType": "address",
          "name": "",
          "type": "address"
        }
      ],
      "name": "lobbiesRefreshed",
      "outputs": [
        {
          "internalType": "uint256",
          "name": "updatedAt",
          "type": "uint256"
        },
        {
          "internalType": "uint256",
          "name": "limit",
          "type": "uint256"
        }
      ],
      "stateMutability": "view",
      "type": "function"
    },
    {
      "inputs": [
        {
          "internalType": "uint256",
          "name": "",
          "type": "uint256"
        }
      ],
      "name": "lobbyFees",
      "outputs": [
        {
          "internalType": "uint256",
          "name": "",
          "type": "uint256"
        }
      ],
      "stateMutability": "view",
      "type": "function"
    },
    {
      "inputs": [
        {
          "internalType": "bytes[]",
          "name": "data",
          "type": "bytes[]"
        }
      ],
      "name": "multicall",
      "outputs": [
        {
          "internalType": "bytes[]",
          "name": "results",
          "type": "bytes[]"
        }
      ],
      "stateMutability": "nonpayable",
      "type": "function"
    },
    {
      "inputs": [],
      "name": "nft",
      "outputs": [
        {
          "internalType": "contract IERC721",
          "name": "",
          "type": "address"
        }
      ],
      "stateMutability": "view",
      "type": "function"
    },
    {
      "inputs": [],
      "name": "owner",
      "outputs": [
        {
          "internalType": "address",
          "name": "",
          "type": "address"
        }
      ],
      "stateMutability": "view",
      "type": "function"
    },
    {
      "inputs": [
        {
          "internalType": "uint256",
          "name": "min",
          "type": "uint256"
        },
        {
          "internalType": "uint256",
          "name": "max",
          "type": "uint256"
        }
      ],
      "name": "random",
      "outputs": [
        {
          "internalType": "uint256",
          "name": "",
          "type": "uint256"
        }
      ],
      "stateMutability": "view",
      "type": "function"
    },
    {
      "inputs": [],
      "name": "renounceOwnership",
      "outputs": [],
      "stateMutability": "nonpayable",
      "type": "function"
    },
    {
      "inputs": [],
      "name": "rewardsPayeer",
      "outputs": [
        {
          "internalType": "address",
          "name": "",
          "type": "address"
        }
      ],
      "stateMutability": "view",
      "type": "function"
    },
    {
      "inputs": [
        {
          "internalType": "uint256",
          "name": "value",
          "type": "uint256"
        }
      ],
      "name": "setBonusExp",
      "outputs": [],
      "stateMutability": "nonpayable",
      "type": "function"
    },
    {
      "inputs": [
        {
          "internalType": "address",
          "name": "payer",
          "type": "address"
        }
      ],
      "name": "setRewardsPayeer",
      "outputs": [],
      "stateMutability": "nonpayable",
      "type": "function"
    },
    {
      "inputs": [],
      "name": "token",
      "outputs": [
        {
          "internalType": "contract IERC20",
          "name": "",
          "type": "address"
        }
      ],
      "stateMutability": "view",
      "type": "function"
    },
    {
      "inputs": [
        {
          "internalType": "address",
          "name": "newOwner",
          "type": "address"
        }
      ],
      "name": "transferOwnership",
      "outputs": [],
      "stateMutability": "nonpayable",
      "type": "function"
    },
    {
      "inputs": [
        {
          "internalType": "uint256[]",
          "name": "heroIds",
          "type": "uint256[]"
        },
        {
          "internalType": "address",
          "name": "owner",
          "type": "address"
        }
      ],
      "name": "validateHeroIds",
      "outputs": [],
      "stateMutability": "view",
      "type": "function"
    }
  ],
  "bytecode": "0x6080604052600280546001600160a01b031916730c966628e4828958376a24ee66f5278a71c96aee17905560fa600655601e60075534801561004057600080fd5b5061004a336100e0565b600960205269010f0cf064dd592000007f92e85d02570a8092d09a6e3a57665bc3815a2699a4074001bf1ccabf660f5a365569054b40b1f852bda000007fc575c31fea594a6eb97c8e9d3f9caee4c16218c6ef37e923234c0fe9014a61e7556005600052690a968163f0a57b4000007f74b05292d1d4b2b48b65261b07099d24244bcb069f138d9a6bfdcf776becac4c55610130565b600080546001600160a01b038381166001600160a01b0319831681178455604051919092169283917f8be0079c531659141344cd1fd0a4f28419497f9722a3daafe3b4186f6b6457e09190a35050565b6122e48061013f6000396000f3fe608060405234801561001057600080fd5b506004361061014c5760003560e01c8063715018a6116100c3578063b8830f9f1161007c578063b8830f9f146103ae578063b9f2d520146103c1578063e4118fca146103e1578063f2fde38b146103f4578063fc0c546a14610407578063fc5850341461041a57600080fd5b8063715018a61461030457806377cb47bf1461030c5780638da5cb5b14610353578063a9dd122514610364578063ab40514514610385578063ac9650d81461038e57600080fd5b8063370068aa11610115578063370068aa146101dc57806339c5891a146101ef5780633b8a7a13146101f75780633c1522911461020a57806347ccca021461021d5780636e8fb4c61461023057600080fd5b8062c8bd7e146101515780630152368f1461016657806306d040d31461017957806311ce406d1461018c5780633024438d146101bc575b600080fd5b61016461015f366004611d6a565b61042d565b005b610164610174366004611dcb565b610b07565b610164610187366004611e22565b610c16565b60055461019f906001600160a01b031681565b6040516001600160a01b0390911681526020015b60405180910390f35b6101cf6101ca366004611e83565b610f7a565b6040516101b39190611ea0565b6101cf6101ea366004611e83565b611012565b6101cf6110c7565b60025461019f906001600160a01b031681565b6101cf610218366004611e83565b611134565b60045461019f906001600160a01b031681565b6102a561023e366004611ee4565b600a60208190526000918252604090912080546001820154600283015460038401546004850154600586015460068701546007880154600889015460098a015499909a0154979996986001600160a01b03968716989590961696939592949193909290918b565b604080519b8c5260208c019a909a526001600160a01b03988916998b0199909952969095166060890152608088019390935260a087019190915260c086015260e0850152610100840152610120830152610140820152610160016101b3565b6101646111c2565b61033e61031a366004611efd565b60086020908152600092835260408084209091529082529020805460019091015482565b604080519283526020830191909152016101b3565b6000546001600160a01b031661019f565b610377610372366004611f2d565b6111f8565b6040519081526020016101b3565b61037760075481565b6103a161039c366004611f4f565b611287565b6040516101b39190611fe9565b6101646103bc366004611ee4565b61137c565b6103776103cf366004611ee4565b60096020526000908152604090205481565b6101646103ef366004611e83565b6113ab565b610164610402366004611e83565b6113f7565b60035461019f906001600160a01b031681565b610377610428366004611ee4565b611492565b610438828233610b07565b6000838152600a6020526040902060040154831461049d5760405162461bcd60e51b815260206004820181905260248201527f4c6f626279426174746c653a206c6f62627920646f65736e277420657869737460448201526064015b60405180910390fd5b6000838152600a602052604090206005015481146104fd5760405162461bcd60e51b815260206004820152601960248201527f4c6f626279426174746c653a2077726f6e67206865726f6573000000000000006044820152606401610494565b6000838152600a60205260409020600701541561055c5760405162461bcd60e51b815260206004820152601d60248201527f4c6f626279426174746c653a20616c72656164792066696e69736865640000006044820152606401610494565b600354600580546000868152600a60209081526040808320909401548252600990528290205491516323b872dd60e01b81523360048201526001600160a01b0391821660248201526044810192909252909116906323b872dd90606401602060405180830381600087803b1580156105d357600080fd5b505af11580156105e7573d6000803e3d6000fd5b505050506040513d601f19601f8201168201806040525081019061060b919061204b565b6106575760405162461bcd60e51b815260206004820152601b60248201527f4c6f626279426174746c653a206e6f7420656e6f7567682066656500000000006044820152606401610494565b6000838152600a602052604090206003810180546001600160a01b031916331790554260078201556005015460011415610997576000838152600a6020908152604091829020600b01805483518184028101840190945280845261072393928301828280156106e557602002820191906000526020600020905b8154815260200190600101908083116106d1575b505050505083838080602002602001604051908101604052809392919081815260200183836020028082843760009201919091525061152792505050565b6000848152600a6020526040902060080181905560011415610874576002546000848152600a60205260408120600b0180546001600160a01b039093169263b00475b59261078a9183919061077a5761077a61206d565b9060005260206000200154611492565b6040518363ffffffff1660e01b81526004016107a7929190612083565b600060405180830381600087803b1580156107c157600080fd5b505af11580156107d5573d6000803e3d6000fd5b5050600280546000878152600a60205260408120600c0180546001600160a01b03909316955063b00475b59450929161081691849161077a5761077a61206d565b61082091906120ff565b6040518363ffffffff1660e01b815260040161083d929190612083565b600060405180830381600087803b15801561085757600080fd5b505af115801561086b573d6000803e3d6000fd5b50505050610997565b600280546000858152600a60205260408120600b0180546001600160a01b039093169363b00475b593919290916108b391849161077a5761077a61206d565b6108bd91906120ff565b6040518363ffffffff1660e01b81526004016108da929190612083565b600060405180830381600087803b1580156108f457600080fd5b505af1158015610908573d6000803e3d6000fd5b50506002546000868152600a60205260408120600c0180546001600160a01b03909316945063b00475b593509161094791839161077a5761077a61206d565b6040518363ffffffff1660e01b8152600401610964929190612083565b600060405180830381600087803b15801561097e57600080fd5b505af1158015610992573d6000803e3d6000fd5b505050505b6000838152600a602052604090206109b390600c018383611c83565b506006546000848152600a6020908152604080832060050154835260099091529020546064916109e291612113565b6109ec91906120ff565b6000848152600a60208190526040909120908101919091556003546005546008909201546001600160a01b03918216926323b872dd921690600114610a4b576000868152600a60205260409020600301546001600160a01b0316610a67565b6000868152600a60205260409020600201546001600160a01b03165b6000878152600a6020819052604091829020015490516001600160e01b031960e086901b1681526001600160a01b0393841660048201529290911660248301526044820152606401602060405180830381600087803b158015610ac957600080fd5b505af1158015610add573d6000803e3d6000fd5b505050506040513d601f19601f82011682018060405250810190610b01919061204b565b50505050565b60005b82811015610b01576004546001600160a01b038084169116636352211e868685818110610b3957610b3961206d565b905060200201356040518263ffffffff1660e01b8152600401610b5e91815260200190565b60206040518083038186803b158015610b7657600080fd5b505afa158015610b8a573d6000803e3d6000fd5b505050506040513d601f19601f82011682018060405250810190610bae9190612132565b6001600160a01b031614610c045760405162461bcd60e51b815260206004820152601b60248201527f4c6f626279426174746c653a206e6f74206865726f206f776e657200000000006044820152606401610494565b80610c0e8161214f565b915050610b0a565b610c21828233610b07565b848114610c705760405162461bcd60e51b815260206004820152601d60248201527f4c6f626279426174746c653a2077726f6e6720706172616d65746572730000006044820152606401610494565b600085815260096020526040902054610cd55760405162461bcd60e51b815260206004820152602160248201527f4c6f626279426174746c653a2077726f6e67206c6f62627920636170616369746044820152607960f81b6064820152608401610494565b600354600554600087815260096020526040908190205490516323b872dd60e01b81523360048201526001600160a01b03928316602482015260448101919091529116906323b872dd90606401602060405180830381600087803b158015610d3c57600080fd5b505af1158015610d50573d6000803e3d6000fd5b505050506040513d601f19601f82011682018060405250810190610d74919061204b565b610dc05760405162461bcd60e51b815260206004820152601b60248201527f4c6f626279426174746c653a206e6f7420656e6f7567682066656500000000006044820152606401610494565b6060610dd0600180546001019055565b6000610ddb60015490565b90506000604051806101a00160405280888152602001878152602001336001600160a01b0316815260200160006001600160a01b031681526020018381526020018981526020014281526020016000815260200160008152602001600960008b81526020019081526020016000205481526020016000815260200186868080602002602001604051908101604052809392919081815260200183836020028082843760009201829052509385525050506020918201869052848152600a80835260409182902084518155848401516001820155918401516002830180546001600160a01b039283166001600160a01b03199182161790915560608601516003850180549190931691161790556080840151600483015560a0840151600583015560c0840151600683015560e084015160078301556101008401516008830155610120840151600983015561014084015190820155610160830151805193945084939192610f5092600b85019290910190611cce565b506101808201518051610f6d91600c840191602090910190611cce565b5050505050505050505050565b606080600060015b6001548111611009576000818152600a6020526040902060070154158015610fc757506000818152600a60205260409020600201546001600160a01b03868116911614155b15610ff757808383610fd88161214f565b945081518110610fea57610fea61206d565b6020026020010181815250505b806110018161214f565b915050610f82565b50909392505050565b606080600060015b6001548111611009576000818152600a60205260409020600701541580159061108557506000818152600a60205260409020600201546001600160a01b038681169116148061108557506000818152600a60205260409020600301546001600160a01b038681169116145b156110b5578083836110968161214f565b9450815181106110a8576110a861206d565b6020026020010181815250505b806110bf8161214f565b91505061101a565b606080600060015b600154811161112c576000818152600a60205260409020600701541561111a578083836110fb8161214f565b94508151811061110d5761110d61206d565b6020026020010181815250505b806111248161214f565b9150506110cf565b509092915050565b606080600060015b6001548111611009576000818152600a602052604090206007015415801561118057506000818152600a60205260409020600201546001600160a01b038681169116145b156111b0578083836111918161214f565b9450815181106111a3576111a361206d565b6020026020010181815250505b806111ba8161214f565b91505061113c565b6000546001600160a01b031633146111ec5760405162461bcd60e51b81526004016104949061216a565b6111f66000611af1565b565b60408051446020820152429181019190915233606090811b6bffffffffffffffffffffffff1916908201526074810183905260948101829052600090819060b40160408051601f19818403018152919052805160209091012090508361125e818561219f565b6112699060016121b6565b61127390836121ce565b61127d91906121b6565b9150505b92915050565b60608167ffffffffffffffff8111156112a2576112a26121e2565b6040519080825280602002602001820160405280156112d557816020015b60608152602001906001900390816112c05790505b50905060005b8281101561137557611345308585848181106112f9576112f961206d565b905060200281019061130b91906121f8565b8080601f016020809104026020016040519081016040528093929190818152602001838380828437600092019190915250611b4192505050565b8282815181106113575761135761206d565b6020026020010181905250808061136d9061214f565b9150506112db565b5092915050565b6000546001600160a01b031633146113a65760405162461bcd60e51b81526004016104949061216a565b600755565b6000546001600160a01b031633146113d55760405162461bcd60e51b81526004016104949061216a565b600580546001600160a01b0319166001600160a01b0392909216919091179055565b6000546001600160a01b031633146114215760405162461bcd60e51b81526004016104949061216a565b6001600160a01b0381166114865760405162461bcd60e51b815260206004820152602660248201527f4f776e61626c653a206e6577206f776e657220697320746865207a65726f206160448201526564647265737360d01b6064820152608401610494565b61148f81611af1565b50565b600254604051630a36d40b60e01b8152600481018390526000916001600160a01b031690630a36d40b9060240160206040518083038186803b1580156114d757600080fd5b505afa1580156114eb573d6000803e3d6000fd5b505050506040513d601f19601f8201168201806040525081019061150f919061223f565b60075461151c919061219f565b6112819060016121b6565b6000808360008151811061153d5761153d61206d565b6020026020010151905060008360008151811061155c5761155c61206d565b6020908102919091010151600254604051636ae0f6c560e11b8152600481018590529192506000916001600160a01b039091169063d5c1ed8a9060240160206040518083038186803b1580156115b157600080fd5b505afa1580156115c5573d6000803e3d6000fd5b505050506040513d601f19601f820116820180604052508101906115e9919061223f565b600254604051636ae0f6c560e11b8152600481018590529192506000916001600160a01b039091169063d5c1ed8a9060240160206040518083038186803b15801561163357600080fd5b505afa158015611647573d6000803e3d6000fd5b505050506040513d601f19601f8201168201806040525081019061166b919061223f565b60025460405163f3d1b5ab60e01b8152600481018790529192506000916001600160a01b039091169063f3d1b5ab9060240160206040518083038186803b1580156116b557600080fd5b505afa1580156116c9573d6000803e3d6000fd5b505050506040513d601f19601f820116820180604052508101906116ed919061223f565b600254604051630a36d40b60e01b8152600481018890529192506000916001600160a01b0390911690630a36d40b9060240160206040518083038186803b15801561173757600080fd5b505afa15801561174b573d6000803e3d6000fd5b505050506040513d601f19601f8201168201806040525081019061176f919061223f565b60025460405163f3d1b5ab60e01b8152600481018890529192506000916001600160a01b039091169063f3d1b5ab9060240160206040518083038186803b1580156117b957600080fd5b505afa1580156117cd573d6000803e3d6000fd5b505050506040513d601f19601f820116820180604052508101906117f1919061223f565b600254604051630a36d40b60e01b8152600481018990529192506000916001600160a01b0390911690630a36d40b9060240160206040518083038186803b15801561183b57600080fd5b505afa15801561184f573d6000803e3d6000fd5b505050506040513d601f19601f82011682018060405250810190611873919061223f565b9050818414156119d4578083111561191e578486111561189e57600198505050505050505050611281565b848614156118e25760006118b4600160646111f8565b9050603c81116118d05760019950505050505050505050611281565b60029950505050505050505050611281565b60006118f0600160646111f8565b90506046811161190c5760029950505050505050505050611281565b60019950505050505050505050611281565b8083141561197b578486111561195857600061193c600160646111f8565b9050604681116118d05760019950505050505050505050611281565b848614156118e25761196c600160026111f8565b98505050505050505050611281565b8486101561199457600298505050505050505050611281565b848614156119c65760006119aa600160646111f8565b9050603c811161190c5760029950505050505050505050611281565b600061193c600160646111f8565b80831415611a4d5784861115611a0f5760006119f2600160646111f8565b905060468111156118d05760019950505050505050505050611281565b84861415611a235761196c600160026111f8565b6000611a31600160646111f8565b9050601481116118d05760019950505050505050505050611281565b80831115611a985784861115611a6e57600198505050505050505050611281565b6000611a7c600160646111f8565b9050602881116118d05760019950505050505050505050611281565b84861015611ab157600298505050505050505050611281565b84861415611ae3576000611ac7600160646111f8565b9050601e81116118d05760019950505050505050505050611281565b60006118b4600160646111f8565b600080546001600160a01b038381166001600160a01b0319831681178455604051919092169283917f8be0079c531659141344cd1fd0a4f28419497f9722a3daafe3b4186f6b6457e09190a35050565b6060611b66838360405180606001604052806027815260200161228860279139611b6d565b9392505050565b60606001600160a01b0384163b611bd55760405162461bcd60e51b815260206004820152602660248201527f416464726573733a2064656c65676174652063616c6c20746f206e6f6e2d636f6044820152651b9d1c9858dd60d21b6064820152608401610494565b600080856001600160a01b031685604051611bf09190612258565b600060405180830381855af49150503d8060008114611c2b576040519150601f19603f3d011682016040523d82523d6000602084013e611c30565b606091505b5091509150611c40828286611c4a565b9695505050505050565b60608315611c59575081611b66565b825115611c695782518084602001fd5b8160405162461bcd60e51b81526004016104949190612274565b828054828255906000526020600020908101928215611cbe579160200282015b82811115611cbe578235825591602001919060010190611ca3565b50611cca929150611d09565b5090565b828054828255906000526020600020908101928215611cbe579160200282015b82811115611cbe578251825591602001919060010190611cee565b5b80821115611cca5760008155600101611d0a565b60008083601f840112611d3057600080fd5b50813567ffffffffffffffff811115611d4857600080fd5b6020830191508360208260051b8501011115611d6357600080fd5b9250929050565b600080600060408486031215611d7f57600080fd5b83359250602084013567ffffffffffffffff811115611d9d57600080fd5b611da986828701611d1e565b9497909650939450505050565b6001600160a01b038116811461148f57600080fd5b600080600060408486031215611de057600080fd5b833567ffffffffffffffff811115611df757600080fd5b611e0386828701611d1e565b9094509250506020840135611e1781611db6565b809150509250925092565b600080600080600060808688031215611e3a57600080fd5b853594506020860135935060408601359250606086013567ffffffffffffffff811115611e6657600080fd5b611e7288828901611d1e565b969995985093965092949392505050565b600060208284031215611e9557600080fd5b8135611b6681611db6565b6020808252825182820181905260009190848201906040850190845b81811015611ed857835183529284019291840191600101611ebc565b50909695505050505050565b600060208284031215611ef657600080fd5b5035919050565b60008060408385031215611f1057600080fd5b823591506020830135611f2281611db6565b809150509250929050565b60008060408385031215611f4057600080fd5b50508035926020909101359150565b60008060208385031215611f6257600080fd5b823567ffffffffffffffff811115611f7957600080fd5b611f8585828601611d1e565b90969095509350505050565b60005b83811015611fac578181015183820152602001611f94565b83811115610b015750506000910152565b60008151808452611fd5816020860160208601611f91565b601f01601f19169290920160200192915050565b6000602080830181845280855180835260408601915060408160051b870101925083870160005b8281101561203e57603f1988860301845261202c858351611fbd565b94509285019290850190600101612010565b5092979650505050505050565b60006020828403121561205d57600080fd5b81518015158114611b6657600080fd5b634e487b7160e01b600052603260045260246000fd5b6000604082016040835280855480835260608501915086600052602092508260002060005b828110156120c4578154845292840192600191820191016120a8565b50505092019290925292915050565b634e487b7160e01b600052601260045260246000fd5b634e487b7160e01b600052601160045260246000fd5b60008261210e5761210e6120d3565b500490565b600081600019048311821515161561212d5761212d6120e9565b500290565b60006020828403121561214457600080fd5b8151611b6681611db6565b6000600019821415612163576121636120e9565b5060010190565b6020808252818101527f4f776e61626c653a2063616c6c6572206973206e6f7420746865206f776e6572604082015260600190565b6000828210156121b1576121b16120e9565b500390565b600082198211156121c9576121c96120e9565b500190565b6000826121dd576121dd6120d3565b500690565b634e487b7160e01b600052604160045260246000fd5b6000808335601e1984360301811261220f57600080fd5b83018035915067ffffffffffffffff82111561222a57600080fd5b602001915036819003821315611d6357600080fd5b60006020828403121561225157600080fd5b5051919050565b6000825161226a818460208701611f91565b9190910192915050565b602081526000611b666020830184611fbd56fe416464726573733a206c6f772d6c6576656c2064656c65676174652063616c6c206661696c6564a2646970667358221220d01403333be684bdca8ac242da243f5e71b33481af9985528fd8f96bae0588fa64736f6c63430008090033",
  "linkReferences": {},
  "deployedLinkReferences": {}
}