{
  "_format": "hh-sol-artifact-1",
  "contractName": "LobbyBattle",
  "sourceName": "contracts/game/LobbyBattle.sol",
  "abi": [
    {
      "inputs": [],
      "stateMutability": "nonpayable",
      "type": "constructor"
    },
    {
      "anonymous": false,
      "inputs": [
        {
          "indexed": true,
          "internalType": "address",
          "name": "previousOwner",
          "type": "address"
        },
        {
          "indexed": true,
          "internalType": "address",
          "name": "newOwner",
          "type": "address"
        }
      ],
      "name": "OwnershipTransferred",
      "type": "event"
    },
    {
      "inputs": [],
      "name": "bonusExp",
      "outputs": [
        {
          "internalType": "uint256",
          "name": "",
          "type": "uint256"
        }
      ],
      "stateMutability": "view",
      "type": "function"
    },
    {
      "inputs": [
        {
          "internalType": "uint256",
          "name": "capacity",
          "type": "uint256"
        },
        {
          "internalType": "bytes32",
          "name": "name",
          "type": "bytes32"
        },
        {
          "internalType": "bytes32",
          "name": "avatar",
          "type": "bytes32"
        },
        {
          "internalType": "uint256[]",
          "name": "heroIds",
          "type": "uint256[]"
        }
      ],
      "name": "createLobby",
      "outputs": [],
      "stateMutability": "nonpayable",
      "type": "function"
    },
    {
      "inputs": [
        {
          "internalType": "address",
          "name": "myAddr",
          "type": "address"
        }
      ],
      "name": "getActiveLobbies",
      "outputs": [
        {
          "internalType": "uint256[]",
          "name": "",
          "type": "uint256[]"
        }
      ],
      "stateMutability": "view",
      "type": "function"
    },
    {
      "inputs": [],
      "name": "getAllHistory",
      "outputs": [
        {
          "internalType": "uint256[]",
          "name": "",
          "type": "uint256[]"
        }
      ],
      "stateMutability": "view",
      "type": "function"
    },
    {
      "inputs": [
        {
          "internalType": "address",
          "name": "myAddr",
          "type": "address"
        }
      ],
      "name": "getMyHistory",
      "outputs": [
        {
          "internalType": "uint256[]",
          "name": "",
          "type": "uint256[]"
        }
      ],
      "stateMutability": "view",
      "type": "function"
    },
    {
      "inputs": [
        {
          "internalType": "address",
          "name": "myAddr",
          "type": "address"
        }
      ],
      "name": "getMyLobbies",
      "outputs": [
        {
          "internalType": "uint256[]",
          "name": "",
          "type": "uint256[]"
        }
      ],
      "stateMutability": "view",
      "type": "function"
    },
    {
      "inputs": [
        {
          "internalType": "uint256",
          "name": "heroId",
          "type": "uint256"
        }
      ],
      "name": "heroBonusExp",
      "outputs": [
        {
          "internalType": "uint256",
          "name": "",
          "type": "uint256"
        }
      ],
      "stateMutability": "view",
      "type": "function"
    },
    {
      "inputs": [],
      "name": "heroManager",
      "outputs": [
        {
          "internalType": "contract IHeroManager",
          "name": "",
          "type": "address"
        }
      ],
      "stateMutability": "view",
      "type": "function"
    },
    {
      "inputs": [
        {
          "internalType": "uint256",
          "name": "lobbyId",
          "type": "uint256"
        },
        {
          "internalType": "uint256[]",
          "name": "heroIds",
          "type": "uint256[]"
        }
      ],
      "name": "joinLobby",
      "outputs": [],
      "stateMutability": "nonpayable",
      "type": "function"
    },
    {
      "inputs": [
        {
          "internalType": "uint256",
          "name": "",
          "type": "uint256"
        }
      ],
      "name": "lobbies",
      "outputs": [
        {
          "internalType": "bytes32",
          "name": "name",
          "type": "bytes32"
        },
        {
          "internalType": "bytes32",
          "name": "avatar",
          "type": "bytes32"
        },
        {
          "internalType": "address",
          "name": "host",
          "type": "address"
        },
        {
          "internalType": "address",
          "name": "client",
          "type": "address"
        },
        {
          "internalType": "uint256",
          "name": "id",
          "type": "uint256"
        },
        {
          "internalType": "uint256",
          "name": "capacity",
          "type": "uint256"
        },
        {
          "internalType": "uint256",
          "name": "startedAt",
          "type": "uint256"
        },
        {
          "internalType": "uint256",
          "name": "finishedAt",
          "type": "uint256"
        },
        {
          "internalType": "uint256",
          "name": "winner",
          "type": "uint256"
        },
        {
          "internalType": "uint256",
          "name": "fee",
          "type": "uint256"
        },
        {
          "internalType": "uint256",
          "name": "rewards",
          "type": "uint256"
        }
      ],
      "stateMutability": "view",
      "type": "function"
    },
    {
      "inputs": [
        {
          "internalType": "uint256",
          "name": "",
          "type": "uint256"
        },
        {
          "internalType": "address",
          "name": "",
          "type": "address"
        }
      ],
      "name": "lobbiesRefreshed",
      "outputs": [
        {
          "internalType": "uint256",
          "name": "updatedAt",
          "type": "uint256"
        },
        {
          "internalType": "uint256",
          "name": "limit",
          "type": "uint256"
        }
      ],
      "stateMutability": "view",
      "type": "function"
    },
    {
      "inputs": [
        {
          "internalType": "uint256",
          "name": "",
          "type": "uint256"
        }
      ],
      "name": "lobbyFees",
      "outputs": [
        {
          "internalType": "uint256",
          "name": "",
          "type": "uint256"
        }
      ],
      "stateMutability": "view",
      "type": "function"
    },
    {
      "inputs": [
        {
          "internalType": "bytes[]",
          "name": "data",
          "type": "bytes[]"
        }
      ],
      "name": "multicall",
      "outputs": [
        {
          "internalType": "bytes[]",
          "name": "results",
          "type": "bytes[]"
        }
      ],
      "stateMutability": "nonpayable",
      "type": "function"
    },
    {
      "inputs": [],
      "name": "nft",
      "outputs": [
        {
          "internalType": "contract IERC721",
          "name": "",
          "type": "address"
        }
      ],
      "stateMutability": "view",
      "type": "function"
    },
    {
      "inputs": [],
      "name": "owner",
      "outputs": [
        {
          "internalType": "address",
          "name": "",
          "type": "address"
        }
      ],
      "stateMutability": "view",
      "type": "function"
    },
    {
      "inputs": [
        {
          "internalType": "uint256",
          "name": "min",
          "type": "uint256"
        },
        {
          "internalType": "uint256",
          "name": "max",
          "type": "uint256"
        }
      ],
      "name": "random",
      "outputs": [
        {
          "internalType": "uint256",
          "name": "",
          "type": "uint256"
        }
      ],
      "stateMutability": "view",
      "type": "function"
    },
    {
      "inputs": [],
      "name": "renounceOwnership",
      "outputs": [],
      "stateMutability": "nonpayable",
      "type": "function"
    },
    {
      "inputs": [],
      "name": "rewardsPayeer",
      "outputs": [
        {
          "internalType": "address",
          "name": "",
          "type": "address"
        }
      ],
      "stateMutability": "view",
      "type": "function"
    },
    {
      "inputs": [
        {
          "internalType": "uint256",
          "name": "value",
          "type": "uint256"
        }
      ],
      "name": "setBonusExp",
      "outputs": [],
      "stateMutability": "nonpayable",
      "type": "function"
    },
    {
      "inputs": [
        {
          "internalType": "address",
          "name": "hmAddr",
          "type": "address"
        }
      ],
      "name": "setHeroManager",
      "outputs": [],
      "stateMutability": "nonpayable",
      "type": "function"
    },
    {
      "inputs": [
        {
          "internalType": "uint256",
          "name": "capacity",
          "type": "uint256"
        },
        {
          "internalType": "uint256",
          "name": "fee",
          "type": "uint256"
        }
      ],
      "name": "setLobbyFee",
      "outputs": [],
      "stateMutability": "nonpayable",
      "type": "function"
    },
    {
      "inputs": [
        {
          "internalType": "address",
          "name": "payer",
          "type": "address"
        }
      ],
      "name": "setRewardsPayeer",
      "outputs": [],
      "stateMutability": "nonpayable",
      "type": "function"
    },
    {
      "inputs": [],
      "name": "token",
      "outputs": [
        {
          "internalType": "contract IERC20",
          "name": "",
          "type": "address"
        }
      ],
      "stateMutability": "view",
      "type": "function"
    },
    {
      "inputs": [
        {
          "internalType": "address",
          "name": "newOwner",
          "type": "address"
        }
      ],
      "name": "transferOwnership",
      "outputs": [],
      "stateMutability": "nonpayable",
      "type": "function"
    },
    {
      "inputs": [
        {
          "internalType": "uint256[]",
          "name": "heroIds",
          "type": "uint256[]"
        },
        {
          "internalType": "address",
          "name": "owner",
          "type": "address"
        }
      ],
      "name": "validateHeroIds",
      "outputs": [],
      "stateMutability": "view",
      "type": "function"
    },
    {
      "inputs": [
        {
          "internalType": "address payable",
          "name": "recipient",
          "type": "address"
        }
      ],
      "name": "withdrawDustETH",
      "outputs": [],
      "stateMutability": "nonpayable",
      "type": "function"
    },
    {
      "stateMutability": "payable",
      "type": "receive"
    }
  ],
  "bytecode": "0x6080604052600280546001600160a01b0319908116730c966628e4828958376a24ee66f5278a71c96aee179091556003805482167328ee3e2826264b9c55fcdd122dfa93680916c9b817905560048054821673ef5a8af5148a53a4ef4749595fe44e3e08754b8b17905560058054909116730cca7943409260455ceef6be46c69b3fc808e24f17905560fa600655601e60075534801561009e57600080fd5b506100a83361013e565b600960205269010f0cf064dd592000007f92e85d02570a8092d09a6e3a57665bc3815a2699a4074001bf1ccabf660f5a365569054b40b1f852bda000007fc575c31fea594a6eb97c8e9d3f9caee4c16218c6ef37e923234c0fe9014a61e7556005600052690a968163f0a57b4000007f74b05292d1d4b2b48b65261b07099d24244bcb069f138d9a6bfdcf776becac4c5561018e565b600080546001600160a01b038381166001600160a01b0319831681178455604051919092169283917f8be0079c531659141344cd1fd0a4f28419497f9722a3daafe3b4186f6b6457e09190a35050565b6125998061019d6000396000f3fe6080604052600436106101845760003560e01c806377cb47bf116100d1578063b8830f9f1161008a578063e4118fca11610064578063e4118fca14610577578063f2fde38b14610597578063fc0c546a146105b7578063fc585034146105d757600080fd5b8063b8830f9f1461050a578063b9f2d5201461052a578063e393c2941461055757600080fd5b806377cb47bf14610407578063833588cc1461045b5780638da5cb5b1461047b578063a9dd122514610499578063ab405145146104c7578063ac9650d8146104dd57600080fd5b8063378cc3471161013e5780633c152291116101185780633c152291146102d157806347ccca02146102f15780636e8fb4c614610311578063715018a6146103f257600080fd5b8063378cc3471461027c57806339c5891a1461029c5780633b8a7a13146102b157600080fd5b8062c8bd7e146101905780630152368f146101b257806306d040d3146101d257806311ce406d146101f25780633024438d1461022f578063370068aa1461025c57600080fd5b3661018b57005b600080fd5b34801561019c57600080fd5b506101b06101ab36600461201f565b6105f7565b005b3480156101be57600080fd5b506101b06101cd366004612080565b610cd1565b3480156101de57600080fd5b506101b06101ed3660046120d7565b610de0565b3480156101fe57600080fd5b50600554610212906001600160a01b031681565b6040516001600160a01b0390911681526020015b60405180910390f35b34801561023b57600080fd5b5061024f61024a366004612138565b611144565b6040516102269190612155565b34801561026857600080fd5b5061024f610277366004612138565b6111dc565b34801561028857600080fd5b506101b0610297366004612138565b611291565b3480156102a857600080fd5b5061024f6112dd565b3480156102bd57600080fd5b50600254610212906001600160a01b031681565b3480156102dd57600080fd5b5061024f6102ec366004612138565b61134a565b3480156102fd57600080fd5b50600454610212906001600160a01b031681565b34801561031d57600080fd5b5061039361032c366004612199565b600a60208190526000918252604090912080546001820154600283015460038401546004850154600586015460068701546007880154600889015460098a015499909a0154979996986001600160a01b03968716989590961696939592949193909290918b565b604080519b8c5260208c019a909a526001600160a01b03988916998b0199909952969095166060890152608088019390935260a087019190915260c086015260e085015261010084015261012083015261014082015261016001610226565b3480156103fe57600080fd5b506101b06113d8565b34801561041357600080fd5b506104466104223660046121b2565b60086020908152600092835260408084209091529082529020805460019091015482565b60408051928352602083019190915201610226565b34801561046757600080fd5b506101b06104763660046121e2565b61140e565b34801561048757600080fd5b506000546001600160a01b0316610212565b3480156104a557600080fd5b506104b96104b43660046121e2565b61144a565b604051908152602001610226565b3480156104d357600080fd5b506104b960075481565b3480156104e957600080fd5b506104fd6104f8366004612204565b6114d9565b604051610226919061229e565b34801561051657600080fd5b506101b0610525366004612199565b6115ce565b34801561053657600080fd5b506104b9610545366004612199565b60096020526000908152604090205481565b34801561056357600080fd5b506101b0610572366004612138565b6115fd565b34801561058357600080fd5b506101b0610592366004612138565b611660565b3480156105a357600080fd5b506101b06105b2366004612138565b6116ac565b3480156105c357600080fd5b50600354610212906001600160a01b031681565b3480156105e357600080fd5b506104b96105f2366004612199565b611747565b610602828233610cd1565b6000838152600a602052604090206004015483146106675760405162461bcd60e51b815260206004820181905260248201527f4c6f626279426174746c653a206c6f62627920646f65736e277420657869737460448201526064015b60405180910390fd5b6000838152600a602052604090206005015481146106c75760405162461bcd60e51b815260206004820152601960248201527f4c6f626279426174746c653a2077726f6e67206865726f657300000000000000604482015260640161065e565b6000838152600a6020526040902060070154156107265760405162461bcd60e51b815260206004820152601d60248201527f4c6f626279426174746c653a20616c72656164792066696e6973686564000000604482015260640161065e565b600354600580546000868152600a60209081526040808320909401548252600990528290205491516323b872dd60e01b81523360048201526001600160a01b0391821660248201526044810192909252909116906323b872dd90606401602060405180830381600087803b15801561079d57600080fd5b505af11580156107b1573d6000803e3d6000fd5b505050506040513d601f19601f820116820180604052508101906107d59190612300565b6108215760405162461bcd60e51b815260206004820152601b60248201527f4c6f626279426174746c653a206e6f7420656e6f756768206665650000000000604482015260640161065e565b6000838152600a602052604090206003810180546001600160a01b031916331790554260078201556005015460011415610b61576000838152600a6020908152604091829020600b0180548351818402810184019094528084526108ed93928301828280156108af57602002820191906000526020600020905b81548152602001906001019080831161089b575b50505050508383808060200260200160405190810160405280939291908181526020018383602002808284376000920191909152506117dc92505050565b6000848152600a6020526040902060080181905560011415610a3e576002546000848152600a60205260408120600b0180546001600160a01b039093169263b00475b5926109549183919061094457610944612322565b9060005260206000200154611747565b6040518363ffffffff1660e01b8152600401610971929190612338565b600060405180830381600087803b15801561098b57600080fd5b505af115801561099f573d6000803e3d6000fd5b5050600280546000878152600a60205260408120600c0180546001600160a01b03909316955063b00475b5945092916109e091849161094457610944612322565b6109ea91906123b4565b6040518363ffffffff1660e01b8152600401610a07929190612338565b600060405180830381600087803b158015610a2157600080fd5b505af1158015610a35573d6000803e3d6000fd5b50505050610b61565b600280546000858152600a60205260408120600b0180546001600160a01b039093169363b00475b59391929091610a7d91849161094457610944612322565b610a8791906123b4565b6040518363ffffffff1660e01b8152600401610aa4929190612338565b600060405180830381600087803b158015610abe57600080fd5b505af1158015610ad2573d6000803e3d6000fd5b50506002546000868152600a60205260408120600c0180546001600160a01b03909316945063b00475b5935091610b1191839161094457610944612322565b6040518363ffffffff1660e01b8152600401610b2e929190612338565b600060405180830381600087803b158015610b4857600080fd5b505af1158015610b5c573d6000803e3d6000fd5b505050505b6000838152600a60205260409020610b7d90600c018383611f38565b506006546000848152600a602090815260408083206005015483526009909152902054606491610bac916123c8565b610bb691906123b4565b6000848152600a60208190526040909120908101919091556003546005546008909201546001600160a01b03918216926323b872dd921690600114610c15576000868152600a60205260409020600301546001600160a01b0316610c31565b6000868152600a60205260409020600201546001600160a01b03165b6000878152600a6020819052604091829020015490516001600160e01b031960e086901b1681526001600160a01b0393841660048201529290911660248301526044820152606401602060405180830381600087803b158015610c9357600080fd5b505af1158015610ca7573d6000803e3d6000fd5b505050506040513d601f19601f82011682018060405250810190610ccb9190612300565b50505050565b60005b82811015610ccb576004546001600160a01b038084169116636352211e868685818110610d0357610d03612322565b905060200201356040518263ffffffff1660e01b8152600401610d2891815260200190565b60206040518083038186803b158015610d4057600080fd5b505afa158015610d54573d6000803e3d6000fd5b505050506040513d601f19601f82011682018060405250810190610d7891906123e7565b6001600160a01b031614610dce5760405162461bcd60e51b815260206004820152601b60248201527f4c6f626279426174746c653a206e6f74206865726f206f776e65720000000000604482015260640161065e565b80610dd881612404565b915050610cd4565b610deb828233610cd1565b848114610e3a5760405162461bcd60e51b815260206004820152601d60248201527f4c6f626279426174746c653a2077726f6e6720706172616d6574657273000000604482015260640161065e565b600085815260096020526040902054610e9f5760405162461bcd60e51b815260206004820152602160248201527f4c6f626279426174746c653a2077726f6e67206c6f62627920636170616369746044820152607960f81b606482015260840161065e565b600354600554600087815260096020526040908190205490516323b872dd60e01b81523360048201526001600160a01b03928316602482015260448101919091529116906323b872dd90606401602060405180830381600087803b158015610f0657600080fd5b505af1158015610f1a573d6000803e3d6000fd5b505050506040513d601f19601f82011682018060405250810190610f3e9190612300565b610f8a5760405162461bcd60e51b815260206004820152601b60248201527f4c6f626279426174746c653a206e6f7420656e6f756768206665650000000000604482015260640161065e565b6060610f9a600180546001019055565b6000610fa560015490565b90506000604051806101a00160405280888152602001878152602001336001600160a01b0316815260200160006001600160a01b031681526020018381526020018981526020014281526020016000815260200160008152602001600960008b81526020019081526020016000205481526020016000815260200186868080602002602001604051908101604052809392919081815260200183836020028082843760009201829052509385525050506020918201869052848152600a80835260409182902084518155848401516001820155918401516002830180546001600160a01b039283166001600160a01b03199182161790915560608601516003850180549190931691161790556080840151600483015560a0840151600583015560c0840151600683015560e08401516007830155610100840151600883015561012084015160098301556101408401519082015561016083015180519394508493919261111a92600b85019290910190611f83565b50610180820151805161113791600c840191602090910190611f83565b5050505050505050505050565b606080600060015b60015481116111d3576000818152600a602052604090206007015415801561119157506000818152600a60205260409020600201546001600160a01b03868116911614155b156111c1578083836111a281612404565b9450815181106111b4576111b4612322565b6020026020010181815250505b806111cb81612404565b91505061114c565b50909392505050565b606080600060015b60015481116111d3576000818152600a60205260409020600701541580159061124f57506000818152600a60205260409020600201546001600160a01b038681169116148061124f57506000818152600a60205260409020600301546001600160a01b038681169116145b1561127f5780838361126081612404565b94508151811061127257611272612322565b6020026020010181815250505b8061128981612404565b9150506111e4565b6000546001600160a01b031633146112bb5760405162461bcd60e51b815260040161065e9061241f565b600280546001600160a01b0319166001600160a01b0392909216919091179055565b606080600060015b6001548111611342576000818152600a6020526040902060070154156113305780838361131181612404565b94508151811061132357611323612322565b6020026020010181815250505b8061133a81612404565b9150506112e5565b509092915050565b606080600060015b60015481116111d3576000818152600a602052604090206007015415801561139657506000818152600a60205260409020600201546001600160a01b038681169116145b156113c6578083836113a781612404565b9450815181106113b9576113b9612322565b6020026020010181815250505b806113d081612404565b915050611352565b6000546001600160a01b031633146114025760405162461bcd60e51b815260040161065e9061241f565b61140c6000611da6565b565b6000546001600160a01b031633146114385760405162461bcd60e51b815260040161065e9061241f565b60009182526009602052604090912055565b60408051446020820152429181019190915233606090811b6bffffffffffffffffffffffff1916908201526074810183905260948101829052600090819060b40160408051601f1981840301815291905280516020909101209050836114b08185612454565b6114bb90600161246b565b6114c59083612483565b6114cf919061246b565b9150505b92915050565b60608167ffffffffffffffff8111156114f4576114f4612497565b60405190808252806020026020018201604052801561152757816020015b60608152602001906001900390816115125790505b50905060005b828110156115c7576115973085858481811061154b5761154b612322565b905060200281019061155d91906124ad565b8080601f016020809104026020016040519081016040528093929190818152602001838380828437600092019190915250611df692505050565b8282815181106115a9576115a9612322565b602002602001018190525080806115bf90612404565b91505061152d565b5092915050565b6000546001600160a01b031633146115f85760405162461bcd60e51b815260040161065e9061241f565b600755565b6000546001600160a01b031633146116275760405162461bcd60e51b815260040161065e9061241f565b6040516001600160a01b038216904780156108fc02916000818181858888f1935050505015801561165c573d6000803e3d6000fd5b5050565b6000546001600160a01b0316331461168a5760405162461bcd60e51b815260040161065e9061241f565b600580546001600160a01b0319166001600160a01b0392909216919091179055565b6000546001600160a01b031633146116d65760405162461bcd60e51b815260040161065e9061241f565b6001600160a01b03811661173b5760405162461bcd60e51b815260206004820152602660248201527f4f776e61626c653a206e6577206f776e657220697320746865207a65726f206160448201526564647265737360d01b606482015260840161065e565b61174481611da6565b50565b600254604051630a36d40b60e01b8152600481018390526000916001600160a01b031690630a36d40b9060240160206040518083038186803b15801561178c57600080fd5b505afa1580156117a0573d6000803e3d6000fd5b505050506040513d601f19601f820116820180604052508101906117c491906124f4565b6007546117d19190612454565b6114d390600161246b565b600080836000815181106117f2576117f2612322565b6020026020010151905060008360008151811061181157611811612322565b6020908102919091010151600254604051636ae0f6c560e11b8152600481018590529192506000916001600160a01b039091169063d5c1ed8a9060240160206040518083038186803b15801561186657600080fd5b505afa15801561187a573d6000803e3d6000fd5b505050506040513d601f19601f8201168201806040525081019061189e91906124f4565b600254604051636ae0f6c560e11b8152600481018590529192506000916001600160a01b039091169063d5c1ed8a9060240160206040518083038186803b1580156118e857600080fd5b505afa1580156118fc573d6000803e3d6000fd5b505050506040513d601f19601f8201168201806040525081019061192091906124f4565b60025460405163f3d1b5ab60e01b8152600481018790529192506000916001600160a01b039091169063f3d1b5ab9060240160206040518083038186803b15801561196a57600080fd5b505afa15801561197e573d6000803e3d6000fd5b505050506040513d601f19601f820116820180604052508101906119a291906124f4565b600254604051630a36d40b60e01b8152600481018890529192506000916001600160a01b0390911690630a36d40b9060240160206040518083038186803b1580156119ec57600080fd5b505afa158015611a00573d6000803e3d6000fd5b505050506040513d601f19601f82011682018060405250810190611a2491906124f4565b60025460405163f3d1b5ab60e01b8152600481018890529192506000916001600160a01b039091169063f3d1b5ab9060240160206040518083038186803b158015611a6e57600080fd5b505afa158015611a82573d6000803e3d6000fd5b505050506040513d601f19601f82011682018060405250810190611aa691906124f4565b600254604051630a36d40b60e01b8152600481018990529192506000916001600160a01b0390911690630a36d40b9060240160206040518083038186803b158015611af057600080fd5b505afa158015611b04573d6000803e3d6000fd5b505050506040513d601f19601f82011682018060405250810190611b2891906124f4565b905081841415611c895780831115611bd35784861115611b53576001985050505050505050506114d3565b84861415611b97576000611b696001606461144a565b9050603c8111611b8557600199505050505050505050506114d3565b600299505050505050505050506114d3565b6000611ba56001606461144a565b905060468111611bc157600299505050505050505050506114d3565b600199505050505050505050506114d3565b80831415611c305784861115611c0d576000611bf16001606461144a565b905060468111611b8557600199505050505050505050506114d3565b84861415611b9757611c216001600261144a565b985050505050505050506114d3565b84861015611c49576002985050505050505050506114d3565b84861415611c7b576000611c5f6001606461144a565b9050603c8111611bc157600299505050505050505050506114d3565b6000611bf16001606461144a565b80831415611d025784861115611cc4576000611ca76001606461144a565b90506046811115611b8557600199505050505050505050506114d3565b84861415611cd857611c216001600261144a565b6000611ce66001606461144a565b905060148111611b8557600199505050505050505050506114d3565b80831115611d4d5784861115611d23576001985050505050505050506114d3565b6000611d316001606461144a565b905060288111611b8557600199505050505050505050506114d3565b84861015611d66576002985050505050505050506114d3565b84861415611d98576000611d7c6001606461144a565b9050601e8111611b8557600199505050505050505050506114d3565b6000611b696001606461144a565b600080546001600160a01b038381166001600160a01b0319831681178455604051919092169283917f8be0079c531659141344cd1fd0a4f28419497f9722a3daafe3b4186f6b6457e09190a35050565b6060611e1b838360405180606001604052806027815260200161253d60279139611e22565b9392505050565b60606001600160a01b0384163b611e8a5760405162461bcd60e51b815260206004820152602660248201527f416464726573733a2064656c65676174652063616c6c20746f206e6f6e2d636f6044820152651b9d1c9858dd60d21b606482015260840161065e565b600080856001600160a01b031685604051611ea5919061250d565b600060405180830381855af49150503d8060008114611ee0576040519150601f19603f3d011682016040523d82523d6000602084013e611ee5565b606091505b5091509150611ef5828286611eff565b9695505050505050565b60608315611f0e575081611e1b565b825115611f1e5782518084602001fd5b8160405162461bcd60e51b815260040161065e9190612529565b828054828255906000526020600020908101928215611f73579160200282015b82811115611f73578235825591602001919060010190611f58565b50611f7f929150611fbe565b5090565b828054828255906000526020600020908101928215611f73579160200282015b82811115611f73578251825591602001919060010190611fa3565b5b80821115611f7f5760008155600101611fbf565b60008083601f840112611fe557600080fd5b50813567ffffffffffffffff811115611ffd57600080fd5b6020830191508360208260051b850101111561201857600080fd5b9250929050565b60008060006040848603121561203457600080fd5b83359250602084013567ffffffffffffffff81111561205257600080fd5b61205e86828701611fd3565b9497909650939450505050565b6001600160a01b038116811461174457600080fd5b60008060006040848603121561209557600080fd5b833567ffffffffffffffff8111156120ac57600080fd5b6120b886828701611fd3565b90945092505060208401356120cc8161206b565b809150509250925092565b6000806000806000608086880312156120ef57600080fd5b853594506020860135935060408601359250606086013567ffffffffffffffff81111561211b57600080fd5b61212788828901611fd3565b969995985093965092949392505050565b60006020828403121561214a57600080fd5b8135611e1b8161206b565b6020808252825182820181905260009190848201906040850190845b8181101561218d57835183529284019291840191600101612171565b50909695505050505050565b6000602082840312156121ab57600080fd5b5035919050565b600080604083850312156121c557600080fd5b8235915060208301356121d78161206b565b809150509250929050565b600080604083850312156121f557600080fd5b50508035926020909101359150565b6000806020838503121561221757600080fd5b823567ffffffffffffffff81111561222e57600080fd5b61223a85828601611fd3565b90969095509350505050565b60005b83811015612261578181015183820152602001612249565b83811115610ccb5750506000910152565b6000815180845261228a816020860160208601612246565b601f01601f19169290920160200192915050565b6000602080830181845280855180835260408601915060408160051b870101925083870160005b828110156122f357603f198886030184526122e1858351612272565b945092850192908501906001016122c5565b5092979650505050505050565b60006020828403121561231257600080fd5b81518015158114611e1b57600080fd5b634e487b7160e01b600052603260045260246000fd5b6000604082016040835280855480835260608501915086600052602092508260002060005b828110156123795781548452928401926001918201910161235d565b50505092019290925292915050565b634e487b7160e01b600052601260045260246000fd5b634e487b7160e01b600052601160045260246000fd5b6000826123c3576123c3612388565b500490565b60008160001904831182151516156123e2576123e261239e565b500290565b6000602082840312156123f957600080fd5b8151611e1b8161206b565b60006000198214156124185761241861239e565b5060010190565b6020808252818101527f4f776e61626c653a2063616c6c6572206973206e6f7420746865206f776e6572604082015260600190565b6000828210156124665761246661239e565b500390565b6000821982111561247e5761247e61239e565b500190565b60008261249257612492612388565b500690565b634e487b7160e01b600052604160045260246000fd5b6000808335601e198436030181126124c457600080fd5b83018035915067ffffffffffffffff8211156124df57600080fd5b60200191503681900382131561201857600080fd5b60006020828403121561250657600080fd5b5051919050565b6000825161251f818460208701612246565b9190910192915050565b602081526000611e1b602083018461227256fe416464726573733a206c6f772d6c6576656c2064656c65676174652063616c6c206661696c6564a2646970667358221220cc0b41787098ad400f8cd683dd262fb7cc4ded7f5b26281b9cf8a5e3ed0b600464736f6c63430008090033",
  "linkReferences": {},
  "deployedLinkReferences": {}
}