{
  "_format": "hh-sol-artifact-1",
  "contractName": "LobbyBattle",
  "sourceName": "contracts/game/LobbyBattle.sol",
  "abi": [
    {
      "inputs": [],
      "stateMutability": "nonpayable",
      "type": "constructor"
    },
    {
      "anonymous": false,
      "inputs": [
        {
          "indexed": true,
          "internalType": "uint256",
          "name": "lobbyId",
          "type": "uint256"
        },
        {
          "indexed": true,
          "internalType": "address",
          "name": "host",
          "type": "address"
        },
        {
          "indexed": true,
          "internalType": "address",
          "name": "client",
          "type": "address"
        }
      ],
      "name": "BattleFinished",
      "type": "event"
    },
    {
      "anonymous": false,
      "inputs": [
        {
          "indexed": true,
          "internalType": "address",
          "name": "previousOwner",
          "type": "address"
        },
        {
          "indexed": true,
          "internalType": "address",
          "name": "newOwner",
          "type": "address"
        }
      ],
      "name": "OwnershipTransferred",
      "type": "event"
    },
    {
      "inputs": [],
      "name": "HRI_TOKEN",
      "outputs": [
        {
          "internalType": "contract IERC20",
          "name": "",
          "type": "address"
        }
      ],
      "stateMutability": "view",
      "type": "function"
    },
    {
      "inputs": [],
      "name": "NFT",
      "outputs": [
        {
          "internalType": "contract IERC721",
          "name": "",
          "type": "address"
        }
      ],
      "stateMutability": "view",
      "type": "function"
    },
    {
      "inputs": [
        {
          "internalType": "bytes32",
          "name": "name",
          "type": "bytes32"
        },
        {
          "internalType": "bytes32",
          "name": "avatar",
          "type": "bytes32"
        },
        {
          "internalType": "uint256",
          "name": "capacity",
          "type": "uint256"
        },
        {
          "internalType": "uint256[]",
          "name": "heroIds",
          "type": "uint256[]"
        }
      ],
      "name": "createLobby",
      "outputs": [],
      "stateMutability": "nonpayable",
      "type": "function"
    },
    {
      "inputs": [
        {
          "internalType": "address",
          "name": "myAddr",
          "type": "address"
        },
        {
          "internalType": "uint256",
          "name": "capacity",
          "type": "uint256"
        }
      ],
      "name": "getActiveLobbies",
      "outputs": [
        {
          "internalType": "uint256[]",
          "name": "",
          "type": "uint256[]"
        }
      ],
      "stateMutability": "view",
      "type": "function"
    },
    {
      "inputs": [
        {
          "internalType": "uint256",
          "name": "capacity",
          "type": "uint256"
        }
      ],
      "name": "getAllHistory",
      "outputs": [
        {
          "internalType": "uint256[]",
          "name": "",
          "type": "uint256[]"
        }
      ],
      "stateMutability": "view",
      "type": "function"
    },
    {
      "inputs": [
        {
          "internalType": "uint256[]",
          "name": "heroes",
          "type": "uint256[]"
        }
      ],
      "name": "getHeroesPower",
      "outputs": [
        {
          "internalType": "uint256",
          "name": "",
          "type": "uint256"
        }
      ],
      "stateMutability": "view",
      "type": "function"
    },
    {
      "inputs": [
        {
          "internalType": "uint256",
          "name": "lobbyId",
          "type": "uint256"
        }
      ],
      "name": "getLobbyHeroes",
      "outputs": [
        {
          "internalType": "address",
          "name": "",
          "type": "address"
        },
        {
          "internalType": "uint256[]",
          "name": "",
          "type": "uint256[]"
        },
        {
          "internalType": "address",
          "name": "",
          "type": "address"
        },
        {
          "internalType": "uint256[]",
          "name": "",
          "type": "uint256[]"
        }
      ],
      "stateMutability": "view",
      "type": "function"
    },
    {
      "inputs": [
        {
          "internalType": "uint256",
          "name": "lobbyId",
          "type": "uint256"
        }
      ],
      "name": "getLobbyPower",
      "outputs": [
        {
          "internalType": "address",
          "name": "",
          "type": "address"
        },
        {
          "internalType": "uint256",
          "name": "",
          "type": "uint256"
        },
        {
          "internalType": "address",
          "name": "",
          "type": "address"
        },
        {
          "internalType": "uint256",
          "name": "",
          "type": "uint256"
        }
      ],
      "stateMutability": "view",
      "type": "function"
    },
    {
      "inputs": [
        {
          "internalType": "address",
          "name": "myAddr",
          "type": "address"
        },
        {
          "internalType": "uint256",
          "name": "capacity",
          "type": "uint256"
        }
      ],
      "name": "getMyHistory",
      "outputs": [
        {
          "internalType": "uint256[]",
          "name": "",
          "type": "uint256[]"
        }
      ],
      "stateMutability": "view",
      "type": "function"
    },
    {
      "inputs": [
        {
          "internalType": "address",
          "name": "myAddr",
          "type": "address"
        },
        {
          "internalType": "uint256",
          "name": "capacity",
          "type": "uint256"
        }
      ],
      "name": "getMyLobbies",
      "outputs": [
        {
          "internalType": "uint256[]",
          "name": "",
          "type": "uint256[]"
        }
      ],
      "stateMutability": "view",
      "type": "function"
    },
    {
      "inputs": [
        {
          "internalType": "uint256",
          "name": "lobbyId",
          "type": "uint256"
        },
        {
          "internalType": "address",
          "name": "player",
          "type": "address"
        }
      ],
      "name": "getPlayerHeroesOnLobby",
      "outputs": [
        {
          "internalType": "uint256[]",
          "name": "",
          "type": "uint256[]"
        }
      ],
      "stateMutability": "view",
      "type": "function"
    },
    {
      "inputs": [],
      "name": "heroManager",
      "outputs": [
        {
          "internalType": "contract IHeroManager",
          "name": "",
          "type": "address"
        }
      ],
      "stateMutability": "view",
      "type": "function"
    },
    {
      "inputs": [
        {
          "internalType": "uint256",
          "name": "lobbyId",
          "type": "uint256"
        },
        {
          "internalType": "uint256[]",
          "name": "heroIds",
          "type": "uint256[]"
        }
      ],
      "name": "joinLobby",
      "outputs": [],
      "stateMutability": "nonpayable",
      "type": "function"
    },
    {
      "inputs": [
        {
          "internalType": "uint256",
          "name": "",
          "type": "uint256"
        }
      ],
      "name": "lobbies",
      "outputs": [
        {
          "internalType": "bytes32",
          "name": "name",
          "type": "bytes32"
        },
        {
          "internalType": "bytes32",
          "name": "avatar",
          "type": "bytes32"
        },
        {
          "internalType": "address",
          "name": "host",
          "type": "address"
        },
        {
          "internalType": "address",
          "name": "client",
          "type": "address"
        },
        {
          "internalType": "uint256",
          "name": "id",
          "type": "uint256"
        },
        {
          "internalType": "uint256",
          "name": "capacity",
          "type": "uint256"
        },
        {
          "internalType": "uint256",
          "name": "startedAt",
          "type": "uint256"
        },
        {
          "internalType": "uint256",
          "name": "finishedAt",
          "type": "uint256"
        },
        {
          "internalType": "uint256",
          "name": "winner",
          "type": "uint256"
        },
        {
          "internalType": "uint256",
          "name": "fee",
          "type": "uint256"
        },
        {
          "internalType": "uint256",
          "name": "rewards",
          "type": "uint256"
        }
      ],
      "stateMutability": "view",
      "type": "function"
    },
    {
      "inputs": [
        {
          "internalType": "uint256",
          "name": "",
          "type": "uint256"
        }
      ],
      "name": "lobbyFees",
      "outputs": [
        {
          "internalType": "uint256",
          "name": "",
          "type": "uint256"
        }
      ],
      "stateMutability": "view",
      "type": "function"
    },
    {
      "inputs": [
        {
          "internalType": "uint256",
          "name": "",
          "type": "uint256"
        },
        {
          "internalType": "address",
          "name": "",
          "type": "address"
        },
        {
          "internalType": "uint256",
          "name": "",
          "type": "uint256"
        }
      ],
      "name": "lobbyHeroes",
      "outputs": [
        {
          "internalType": "uint256",
          "name": "",
          "type": "uint256"
        }
      ],
      "stateMutability": "view",
      "type": "function"
    },
    {
      "inputs": [
        {
          "internalType": "uint256",
          "name": "",
          "type": "uint256"
        },
        {
          "internalType": "address",
          "name": "",
          "type": "address"
        }
      ],
      "name": "lobbyHeroesCount",
      "outputs": [
        {
          "internalType": "uint256",
          "name": "",
          "type": "uint256"
        }
      ],
      "stateMutability": "view",
      "type": "function"
    },
    {
      "inputs": [
        {
          "internalType": "bytes[]",
          "name": "data",
          "type": "bytes[]"
        }
      ],
      "name": "multicall",
      "outputs": [
        {
          "internalType": "bytes[]",
          "name": "results",
          "type": "bytes[]"
        }
      ],
      "stateMutability": "nonpayable",
      "type": "function"
    },
    {
      "inputs": [],
      "name": "owner",
      "outputs": [
        {
          "internalType": "address",
          "name": "",
          "type": "address"
        }
      ],
      "stateMutability": "view",
      "type": "function"
    },
    {
      "inputs": [
        {
          "internalType": "address",
          "name": "",
          "type": "address"
        }
      ],
      "name": "playersFees",
      "outputs": [
        {
          "internalType": "uint256",
          "name": "",
          "type": "uint256"
        }
      ],
      "stateMutability": "view",
      "type": "function"
    },
    {
      "inputs": [
        {
          "internalType": "address",
          "name": "",
          "type": "address"
        }
      ],
      "name": "playersRewards",
      "outputs": [
        {
          "internalType": "uint256",
          "name": "",
          "type": "uint256"
        }
      ],
      "stateMutability": "view",
      "type": "function"
    },
    {
      "inputs": [
        {
          "internalType": "uint256",
          "name": "min",
          "type": "uint256"
        },
        {
          "internalType": "uint256",
          "name": "max",
          "type": "uint256"
        }
      ],
      "name": "random",
      "outputs": [
        {
          "internalType": "uint256",
          "name": "",
          "type": "uint256"
        }
      ],
      "stateMutability": "view",
      "type": "function"
    },
    {
      "inputs": [
        {
          "internalType": "address",
          "name": "",
          "type": "address"
        }
      ],
      "name": "registeredPlayers",
      "outputs": [
        {
          "internalType": "bool",
          "name": "",
          "type": "bool"
        }
      ],
      "stateMutability": "view",
      "type": "function"
    },
    {
      "inputs": [],
      "name": "renounceOwnership",
      "outputs": [],
      "stateMutability": "nonpayable",
      "type": "function"
    },
    {
      "inputs": [],
      "name": "rewardsPayeer",
      "outputs": [
        {
          "internalType": "address",
          "name": "",
          "type": "address"
        }
      ],
      "stateMutability": "view",
      "type": "function"
    },
    {
      "inputs": [
        {
          "internalType": "uint256",
          "name": "multiplier",
          "type": "uint256"
        }
      ],
      "name": "setBenefitMultiplier",
      "outputs": [],
      "stateMutability": "nonpayable",
      "type": "function"
    },
    {
      "inputs": [
        {
          "internalType": "address",
          "name": "hmAddr",
          "type": "address"
        }
      ],
      "name": "setHeroManager",
      "outputs": [],
      "stateMutability": "nonpayable",
      "type": "function"
    },
    {
      "inputs": [
        {
          "internalType": "uint256",
          "name": "capacity",
          "type": "uint256"
        },
        {
          "internalType": "uint256",
          "name": "fee",
          "type": "uint256"
        }
      ],
      "name": "setLobbyFee",
      "outputs": [],
      "stateMutability": "nonpayable",
      "type": "function"
    },
    {
      "inputs": [
        {
          "internalType": "address",
          "name": "payer",
          "type": "address"
        }
      ],
      "name": "setRewardsPayeer",
      "outputs": [],
      "stateMutability": "nonpayable",
      "type": "function"
    },
    {
      "inputs": [],
      "name": "totalPlayers",
      "outputs": [
        {
          "internalType": "uint256",
          "name": "",
          "type": "uint256"
        }
      ],
      "stateMutability": "view",
      "type": "function"
    },
    {
      "inputs": [
        {
          "internalType": "address",
          "name": "newOwner",
          "type": "address"
        }
      ],
      "name": "transferOwnership",
      "outputs": [],
      "stateMutability": "nonpayable",
      "type": "function"
    },
    {
      "inputs": [
        {
          "internalType": "uint256",
          "name": "",
          "type": "uint256"
        }
      ],
      "name": "uniquePlayers",
      "outputs": [
        {
          "internalType": "address",
          "name": "",
          "type": "address"
        }
      ],
      "stateMutability": "view",
      "type": "function"
    },
    {
      "inputs": [
        {
          "internalType": "uint256[]",
          "name": "heroIds",
          "type": "uint256[]"
        },
        {
          "internalType": "address",
          "name": "owner",
          "type": "address"
        }
      ],
      "name": "validateHeroIds",
      "outputs": [
        {
          "internalType": "bool",
          "name": "",
          "type": "bool"
        }
      ],
      "stateMutability": "view",
      "type": "function"
    },
    {
      "inputs": [
        {
          "internalType": "address payable",
          "name": "recipient",
          "type": "address"
        }
      ],
      "name": "withdrawDustETH",
      "outputs": [],
      "stateMutability": "nonpayable",
      "type": "function"
    },
    {
      "stateMutability": "payable",
      "type": "receive"
    }
  ],
  "bytecode": "0x6080604052600280546001600160a01b03199081167351624b86523c95175d4b3d145f2ed9f884c683e21790915560038054909116730cca7943409260455ceef6be46c69b3fc808e24f17905560fa60045534801561005d57600080fd5b50610067336100fd565b600d60205269010f0cf064dd592000007ffd54ff1ed53f34a900b24c5ba64f85761163b5d82d98a47b9bd80e45466993c55569054b40b1f852bda000007f26b4a10d0f0b04925c23bd4480ee147c916e5e87a7d68206a533dad160ac81e2556005600052690a968163f0a57b4000007fa5049387d9cb649c59f4bda666105ba636c2a103d8e2b232ba4d125737cd21495561014d565b600080546001600160a01b038381166001600160a01b0319831681178455604051919092169283917f8be0079c531659141344cd1fd0a4f28419497f9722a3daafe3b4186f6b6457e09190a35050565b6131a7806200015d6000396000f3fe6080604052600436106101fc5760003560e01c80637c0b8de21161010d578063b97dcb22116100a0578063e393c2941161006f578063e393c29414610789578063e4118fca146107a9578063ed697f32146107c9578063f2fde38b146107e9578063f60cdcf61461080957600080fd5b8063b97dcb22146106e7578063b9f2d52014610707578063c4ee3a4a14610734578063c8f942701461075c57600080fd5b806394f69662116100dc57806394f6966214610625578063a9dd122514610645578063ac9650d814610665578063b12f5c571461069257600080fd5b80637c0b8de214610589578063833588cc146105b15780638da5cb5b146105d1578063930613fc146105ef57600080fd5b80633b8a7a13116101905780636bd2dc851161015f5780636bd2dc85146104105780636e8fb4c61461043d578063715018a61461051c57806372c90ca6146105315780637407fddd1461056957600080fd5b80633b8a7a131461038057806345efd785146103a05780634bafce22146103c05780634d5f80ad146103f057600080fd5b806316fc989c116101cc57806316fc989c146102c75780631deb8c441461031357806328b11d2314610340578063378cc3471461036057600080fd5b8062c8bd7e146102085780630152368f1461022a57806307a48c191461025f57806311ce406d1461028f57600080fd5b3661020357005b600080fd5b34801561021457600080fd5b50610228610223366004612aaa565b61081f565b005b34801561023657600080fd5b5061024a610245366004612b0a565b61104c565b60405190151581526020015b60405180910390f35b34801561026b57600080fd5b5061027f61027a366004612b60565b611178565b6040516102569493929190612bb4565b34801561029b57600080fd5b506003546102af906001600160a01b031681565b6040516001600160a01b039091168152602001610256565b3480156102d357600080fd5b506103056102e2366004612bfc565b600a60209081526000938452604080852082529284528284209052825290205481565b604051908152602001610256565b34801561031f57600080fd5b5061033361032e366004612c34565b6111cc565b6040516102569190612c60565b34801561034c57600080fd5b5061022861035b366004612b60565b611354565b34801561036c57600080fd5b5061022861037b366004612c73565b611383565b34801561038c57600080fd5b506002546102af906001600160a01b031681565b3480156103ac57600080fd5b506103336103bb366004612b60565b6113cf565b3480156103cc57600080fd5b5061024a6103db366004612c73565b60076020526000908152604090205460ff1681565b3480156103fc57600080fd5b5061033361040b366004612c34565b611504565b34801561041c57600080fd5b5061030561042b366004612c73565b60096020526000908152604090205481565b34801561044957600080fd5b506104bd610458366004612b60565b600c60205260009081526040902080546001820154600283015460038401546004850154600586015460068701546007880154600889015460098a0154600a909a0154989997986001600160a01b03978816989790961696949593949293919290918b565b604080519b8c5260208c019a909a526001600160a01b03988916998b0199909952969095166060890152608088019390935260a087019190915260c086015260e085015261010084015261012083015261014082015261016001610256565b34801561052857600080fd5b5061022861167e565b34801561053d57600080fd5b5061030561054c366004612c90565b600b60209081526000928352604080842090915290825290205481565b34801561057557600080fd5b50610333610584366004612c34565b6116b4565b34801561059557600080fd5b506102af7376b713ff56b9cad82b2820202537a98182b5a0ec81565b3480156105bd57600080fd5b506102286105cc366004612cc0565b61187c565b3480156105dd57600080fd5b506000546001600160a01b03166102af565b3480156105fb57600080fd5b506102af61060a366004612b60565b6006602052600090815260409020546001600160a01b031681565b34801561063157600080fd5b50610228610640366004612ce2565b6118b8565b34801561065157600080fd5b50610305610660366004612cc0565b611ce8565b34801561067157600080fd5b50610685610680366004612d42565b611d75565b6040516102569190612ddf565b34801561069e57600080fd5b506106b26106ad366004612b60565b611e69565b60405161025694939291906001600160a01b039485168152602081019390935292166040820152606081019190915260800190565b3480156106f357600080fd5b50610333610702366004612c90565b612028565b34801561071357600080fd5b50610305610722366004612b60565b600d6020526000908152604090205481565b34801561074057600080fd5b506102af7328ee3e2826264b9c55fcdd122dfa93680916c9b881565b34801561076857600080fd5b50610305610777366004612c73565b60086020526000908152604090205481565b34801561079557600080fd5b506102286107a4366004612c73565b6120f9565b3480156107b557600080fd5b506102286107c4366004612c73565b61215c565b3480156107d557600080fd5b506103056107e4366004612e57565b6121a8565b3480156107f557600080fd5b50610228610804366004612c73565b612274565b34801561081557600080fd5b5061030560055481565b61082a82823361104c565b506000838152600c602052604090206004015483146108905760405162461bcd60e51b815260206004820181905260248201527f4c6f626279426174746c653a206c6f62627920646f65736e277420657869737460448201526064015b60405180910390fd5b6000838152600c602052604090206005015481146108f05760405162461bcd60e51b815260206004820152601960248201527f4c6f626279426174746c653a2077726f6e67206865726f6573000000000000006044820152606401610887565b6000838152600c60205260409020600701541561094f5760405162461bcd60e51b815260206004820152601d60248201527f4c6f626279426174746c653a20616c72656164792066696e69736865640000006044820152606401610887565b6000838152600c60209081526040808320600501548352600d909152908190205460035491516323b872dd60e01b81523360048201526001600160a01b03909216602483015260448201819052907328ee3e2826264b9c55fcdd122dfa93680916c9b8906323b872dd90606401602060405180830381600087803b1580156109d657600080fd5b505af11580156109ea573d6000803e3d6000fd5b505050506040513d601f19601f82011682018060405250810190610a0e9190612f08565b610a5a5760405162461bcd60e51b815260206004820152601b60248201527f4c6f626279426174746c653a206e6f7420656e6f7567682066656500000000006044820152606401610887565b3360009081526007602052604090205460ff16610ac75760058054600090815260066020908152604080832080546001600160a01b03191633908117909155835260079091528120805460ff19166001908117909155825490929190610ac1908490612f40565b90915550505b3360009081526008602052604081208054839290610ae6908490612f40565b90915550506000848152600c602052604081206003810180546001600160a01b0319163317905542600790910155826001600160401b03811115610b2c57610b2c612e41565b604051908082528060200260200182016040528015610b55578160200160208202803683370190505b50905060005b83811015610bff57848482818110610b7557610b75612f58565b6000898152600a60209081526040808320338452808352818420888552835281842094830296909601359093558a8252600c8152828220600201546001600160a01b03168252938452818120858252909352909120548351909150839083908110610be257610be2612f58565b602090810291909101015280610bf781612f6e565b915050610b5b565b506000858152600b602090815260408083203384528252808320869055600454888452600c8352818420600501548452600d90925290912054606491610c4491612f89565b610c4e9190612fbe565b6000868152600c60205260409020600a8101919091556005015460011415610ee157610cad8185858080602002602001604051908101604052809392919081815260200183836020028082843760009201919091525061230f92505050565b6000868152600c6020526040902060080181905560011415610ddf5760025460405163852eebff60e01b81526001600160a01b039091169063852eebff90610cfc908490600190600401612fd2565b600060405180830381600087803b158015610d1657600080fd5b505af1158015610d2a573d6000803e3d6000fd5b505060025460405163852eebff60e01b81526001600160a01b03909116925063852eebff9150610d639087908790600090600401612ff6565b600060405180830381600087803b158015610d7d57600080fd5b505af1158015610d91573d6000803e3d6000fd5b5050506000868152600c60209081526040808320600a8101546002909101546001600160a01b031684526009909252822080549193509190610dd4908490612f40565b90915550610ee19050565b60025460405163852eebff60e01b81526001600160a01b039091169063852eebff90610e12908490600090600401612fd2565b600060405180830381600087803b158015610e2c57600080fd5b505af1158015610e40573d6000803e3d6000fd5b505060025460405163852eebff60e01b81526001600160a01b03909116925063852eebff9150610e799087908790600190600401612ff6565b600060405180830381600087803b158015610e9357600080fd5b505af1158015610ea7573d6000803e3d6000fd5b5050506000868152600c60209081526040808320600a01543384526009909252822080549193509190610edb908490612f40565b90915550505b6003546000868152600c60205260409020600801547328ee3e2826264b9c55fcdd122dfa93680916c9b8916323b872dd916001600160a01b0390911690600114610f45576000888152600c60205260409020600301546001600160a01b0316610f61565b6000888152600c60205260409020600201546001600160a01b03165b6000898152600c602052604090819020600a0154905160e085901b6001600160e01b03191681526001600160a01b0393841660048201529290911660248301526044820152606401602060405180830381600087803b158015610fc357600080fd5b505af1158015610fd7573d6000803e3d6000fd5b505050506040513d601f19601f82011682018060405250810190610ffb9190612f08565b506000858152600c602052604080822060020154905133926001600160a01b039092169188917fc77dc6cd4b51c8efc4af40a582ca4cf229fda505a830b4486b200ddcbdb1383f9190a45050505050565b6000805b8381101561116b576001600160a01b0383167376b713ff56b9cad82b2820202537a98182b5a0ec636352211e87878581811061108e5761108e612f58565b905060200201356040518263ffffffff1660e01b81526004016110b391815260200190565b60206040518083038186803b1580156110cb57600080fd5b505afa1580156110df573d6000803e3d6000fd5b505050506040513d601f19601f82011682018060405250810190611103919061303f565b6001600160a01b0316146111595760405162461bcd60e51b815260206004820152601b60248201527f4c6f626279426174746c653a206e6f74206865726f206f776e657200000000006044820152606401610887565b8061116381612f6e565b915050611050565b50600190505b9392505050565b6000818152600c602052604081206002810154600390910154606091839183916001600160a01b039081169116816111b08882612028565b826111bb8a85612028565b955095509550955050509193509193565b6060600060015b6001548111611259576000818152600c602052604090206007015415801561120b57506000818152600c602052604090206005015484145b801561123457506000818152600c60205260409020600201546001600160a01b03868116911614155b15611247578161124381612f6e565b9250505b8061125181612f6e565b9150506111d3565b50600080826001600160401b0381111561127557611275612e41565b60405190808252806020026020018201604052801561129e578160200160208202803683370190505b50905060015b6001548111611348576000818152600c60205260409020600701541580156112dc57506000818152600c602052604090206005015486145b801561130557506000818152600c60205260409020600201546001600160a01b03888116911614155b15611336578082848151811061131d5761131d612f58565b60209081029190910101528261133281612f6e565b9350505b8061134081612f6e565b9150506112a4565b50925050505b92915050565b6000546001600160a01b0316331461137e5760405162461bcd60e51b81526004016108879061305c565b600455565b6000546001600160a01b031633146113ad5760405162461bcd60e51b81526004016108879061305c565b600280546001600160a01b0319166001600160a01b0392909216919091179055565b6060600060015b6001548111611434576000818152600c60205260409020600701541580159061140f57506000818152600c602052604090206005015484145b15611422578161141e81612f6e565b9250505b8061142c81612f6e565b9150506113d6565b50600080826001600160401b0381111561145057611450612e41565b604051908082528060200260200182016040528015611479578160200160208202803683370190505b50905060015b60015481116114fb576000818152600c6020526040902060070154158015906114b857506000818152600c602052604090206005015486145b156114e957808284815181106114d0576114d0612f58565b6020908102919091010152826114e581612f6e565b9350505b806114f381612f6e565b91505061147f565b50949350505050565b6060600060015b6001548111611590576000818152600c602052604090206007015415801561154357506000818152600c602052604090206005015484145b801561156b57506000818152600c60205260409020600201546001600160a01b038681169116145b1561157e578161157a81612f6e565b9250505b8061158881612f6e565b91505061150b565b50600080826001600160401b038111156115ac576115ac612e41565b6040519080825280602002602001820160405280156115d5578160200160208202803683370190505b50905060015b6001548111611348576000818152600c602052604090206007015415801561161357506000818152600c602052604090206005015486145b801561163b57506000818152600c60205260409020600201546001600160a01b038881169116145b1561166c578082848151811061165357611653612f58565b60209081029190910101528261166881612f6e565b9350505b8061167681612f6e565b9150506115db565b6000546001600160a01b031633146116a85760405162461bcd60e51b81526004016108879061305c565b6116b260006128d9565b565b6060600060015b6001548111611767576000818152600c6020526040902060070154158015906116f457506000818152600c602052604090206005015484145b801561174257506000818152600c60205260409020600201546001600160a01b038681169116148061174257506000818152600c60205260409020600301546001600160a01b038681169116145b15611755578161175181612f6e565b9250505b8061175f81612f6e565b9150506116bb565b50600080826001600160401b0381111561178357611783612e41565b6040519080825280602002602001820160405280156117ac578160200160208202803683370190505b50905060015b6001548111611348576000818152600c6020526040902060070154158015906117eb57506000818152600c602052604090206005015486145b801561183957506000818152600c60205260409020600201546001600160a01b038881169116148061183957506000818152600c60205260409020600301546001600160a01b038881169116145b1561186a578082848151811061185157611851612f58565b60209081029190910101528261186681612f6e565b9350505b8061187481612f6e565b9150506117b2565b6000546001600160a01b031633146118a65760405162461bcd60e51b81526004016108879061305c565b6000918252600d602052604090912055565b6118c382823361104c565b508281146119135760405162461bcd60e51b815260206004820152601d60248201527f4c6f626279426174746c653a2077726f6e6720706172616d65746572730000006044820152606401610887565b6000838152600d60205260409020546119785760405162461bcd60e51b815260206004820152602160248201527f4c6f626279426174746c653a2077726f6e67206c6f62627920636170616369746044820152607960f81b6064820152608401610887565b6003546000848152600d6020526040908190205490516323b872dd60e01b81523360048201526001600160a01b03909216602483015260448201527328ee3e2826264b9c55fcdd122dfa93680916c9b8906323b872dd90606401602060405180830381600087803b1580156119ec57600080fd5b505af1158015611a00573d6000803e3d6000fd5b505050506040513d601f19601f82011682018060405250810190611a249190612f08565b611a705760405162461bcd60e51b815260206004820152601b60248201527f4c6f626279426174746c653a206e6f7420656e6f7567682066656500000000006044820152606401610887565b3360009081526007602052604090205460ff16611add5760058054600090815260066020908152604080832080546001600160a01b03191633908117909155835260079091528120805460ff19166001908117909155825490929190611ad7908490612f40565b90915550505b6000838152600d602090815260408083205433845260089092528220805491929091611b0a908490612f40565b909155505060018054810190556000611b2260015490565b90506000604051806101600160405280888152602001878152602001336001600160a01b0316815260200160006001600160a01b031681526020018381526020018681526020014281526020016000815260200160008152602001600d60008881526020019081526020016000205481526020016000815250905080600c6000848152602001908152602001600020600082015181600001556020820151816001015560408201518160020160006101000a8154816001600160a01b0302191690836001600160a01b0316021790555060608201518160030160006101000a8154816001600160a01b0302191690836001600160a01b031602179055506080820151816004015560a0820151816005015560c0820151816006015560e082015181600701556101008201518160080155610120820151816009015561014082015181600a015590505060005b83811015611cc657848482818110611c8857611c88612f58565b6000868152600a6020908152604080832033845282528083208784528252909120910292909201359091555080611cbe81612f6e565b915050611c6e565b50506000908152600b6020908152604080832033845290915290205550505050565b60408051446020820152429181019190915233606090811b6bffffffffffffffffffffffff1916908201526074810183905260948101829052600090819060b40160408051601f198184030181529190528051602090910120905083611d4e8185613091565b611d59906001612f40565b611d6390836130a8565b611d6d9190612f40565b949350505050565b6060816001600160401b03811115611d8f57611d8f612e41565b604051908082528060200260200182016040528015611dc257816020015b6060815260200190600190039081611dad5790505b50905060005b82811015611e6257611e3230858584818110611de657611de6612f58565b9050602002810190611df891906130bc565b8080601f01602080910402602001604051908101604052809392919081815260200183838082843760009201919091525061292992505050565b828281518110611e4457611e44612f58565b60200260200101819052508080611e5a90612f6e565b915050611dc8565b5092915050565b600080600080600080600080611e7e89611178565b935093509350935060008060005b85518110156120155760025486516000916001600160a01b03169063d5c1ed8a90899085908110611ebf57611ebf612f58565b60200260200101516040518263ffffffff1660e01b8152600401611ee591815260200190565b60206040518083038186803b158015611efd57600080fd5b505afa158015611f11573d6000803e3d6000fd5b505050506040513d601f19601f82011682018060405250810190611f359190613102565b9050611f418185612f40565b93506001600160a01b038616156120025760025485516000916001600160a01b03169063d5c1ed8a90889086908110611f7c57611f7c612f58565b60200260200101516040518263ffffffff1660e01b8152600401611fa291815260200190565b60206040518083038186803b158015611fba57600080fd5b505afa158015611fce573d6000803e3d6000fd5b505050506040513d601f19601f82011682018060405250810190611ff29190613102565b9050611ffe8185612f40565b9350505b508061200d81612f6e565b915050611e8c565b50949a9099509197509295509350505050565b6000828152600b602090815260408083206001600160a01b0385168452909152812054606091816001600160401b0381111561206657612066612e41565b60405190808252806020026020018201604052801561208f578160200160208202803683370190505b50905060005b828110156114fb576000868152600a602090815260408083206001600160a01b0389168452825280832084845290915290205482518390839081106120dc576120dc612f58565b6020908102919091010152806120f181612f6e565b915050612095565b6000546001600160a01b031633146121235760405162461bcd60e51b81526004016108879061305c565b6040516001600160a01b038216904780156108fc02916000818181858888f19350505050158015612158573d6000803e3d6000fd5b5050565b6000546001600160a01b031633146121865760405162461bcd60e51b81526004016108879061305c565b600380546001600160a01b0319166001600160a01b0392909216919091179055565b60008060005b8351811015611e625760025484516001600160a01b039091169063d5c1ed8a908690849081106121e0576121e0612f58565b60200260200101516040518263ffffffff1660e01b815260040161220691815260200190565b60206040518083038186803b15801561221e57600080fd5b505afa158015612232573d6000803e3d6000fd5b505050506040513d601f19601f820116820180604052508101906122569190613102565b6122609083612f40565b91508061226c81612f6e565b9150506121ae565b6000546001600160a01b0316331461229e5760405162461bcd60e51b81526004016108879061305c565b6001600160a01b0381166123035760405162461bcd60e51b815260206004820152602660248201527f4f776e61626c653a206e6577206f776e657220697320746865207a65726f206160448201526564647265737360d01b6064820152608401610887565b61230c816128d9565b50565b6000808360008151811061232557612325612f58565b6020026020010151905060008360008151811061234457612344612f58565b6020908102919091010151600254604051636ae0f6c560e11b8152600481018590529192506000916001600160a01b039091169063d5c1ed8a9060240160206040518083038186803b15801561239957600080fd5b505afa1580156123ad573d6000803e3d6000fd5b505050506040513d601f19601f820116820180604052508101906123d19190613102565b600254604051636ae0f6c560e11b8152600481018590529192506000916001600160a01b039091169063d5c1ed8a9060240160206040518083038186803b15801561241b57600080fd5b505afa15801561242f573d6000803e3d6000fd5b505050506040513d601f19601f820116820180604052508101906124539190613102565b60025460405163f3d1b5ab60e01b8152600481018790529192506000916001600160a01b039091169063f3d1b5ab9060240160206040518083038186803b15801561249d57600080fd5b505afa1580156124b1573d6000803e3d6000fd5b505050506040513d601f19601f820116820180604052508101906124d59190613102565b600254604051630a36d40b60e01b8152600481018890529192506000916001600160a01b0390911690630a36d40b9060240160206040518083038186803b15801561251f57600080fd5b505afa158015612533573d6000803e3d6000fd5b505050506040513d601f19601f820116820180604052508101906125579190613102565b60025460405163f3d1b5ab60e01b8152600481018890529192506000916001600160a01b039091169063f3d1b5ab9060240160206040518083038186803b1580156125a157600080fd5b505afa1580156125b5573d6000803e3d6000fd5b505050506040513d601f19601f820116820180604052508101906125d99190613102565b600254604051630a36d40b60e01b8152600481018990529192506000916001600160a01b0390911690630a36d40b9060240160206040518083038186803b15801561262357600080fd5b505afa158015612637573d6000803e3d6000fd5b505050506040513d601f19601f8201168201806040525081019061265b9190613102565b9050818414156127bc578083111561270657848611156126865760019850505050505050505061134e565b848614156126ca57600061269c60016064611ce8565b9050603c81116126b8576001995050505050505050505061134e565b6002995050505050505050505061134e565b60006126d860016064611ce8565b9050604681116126f4576002995050505050505050505061134e565b6001995050505050505050505061134e565b80831415612763578486111561274057600061272460016064611ce8565b9050604681116126b8576001995050505050505050505061134e565b848614156126ca5761275460016002611ce8565b9850505050505050505061134e565b8486101561277c5760029850505050505050505061134e565b848614156127ae57600061279260016064611ce8565b9050603c81116126f4576002995050505050505050505061134e565b600061272460016064611ce8565b8083141561283557848611156127f75760006127da60016064611ce8565b905060468111156126b8576001995050505050505050505061134e565b8486141561280b5761275460016002611ce8565b600061281960016064611ce8565b9050601481116126b8576001995050505050505050505061134e565b8083111561288057848611156128565760019850505050505050505061134e565b600061286460016064611ce8565b9050602881116126b8576001995050505050505050505061134e565b848610156128995760029850505050505050505061134e565b848614156128cb5760006128af60016064611ce8565b9050601e81116126b8576001995050505050505050505061134e565b600061269c60016064611ce8565b600080546001600160a01b038381166001600160a01b0319831681178455604051919092169283917f8be0079c531659141344cd1fd0a4f28419497f9722a3daafe3b4186f6b6457e09190a35050565b6060611171838360405180606001604052806027815260200161314b6027913960606001600160a01b0384163b6129b15760405162461bcd60e51b815260206004820152602660248201527f416464726573733a2064656c65676174652063616c6c20746f206e6f6e2d636f6044820152651b9d1c9858dd60d21b6064820152608401610887565b600080856001600160a01b0316856040516129cc919061311b565b600060405180830381855af49150503d8060008114612a07576040519150601f19603f3d011682016040523d82523d6000602084013e612a0c565b606091505b5091509150612a1c828286612a26565b9695505050505050565b60608315612a35575081611171565b825115612a455782518084602001fd5b8160405162461bcd60e51b81526004016108879190613137565b60008083601f840112612a7157600080fd5b5081356001600160401b03811115612a8857600080fd5b6020830191508360208260051b8501011115612aa357600080fd5b9250929050565b600080600060408486031215612abf57600080fd5b8335925060208401356001600160401b03811115612adc57600080fd5b612ae886828701612a5f565b9497909650939450505050565b6001600160a01b038116811461230c57600080fd5b600080600060408486031215612b1f57600080fd5b83356001600160401b03811115612b3557600080fd5b612b4186828701612a5f565b9094509250506020840135612b5581612af5565b809150509250925092565b600060208284031215612b7257600080fd5b5035919050565b600081518084526020808501945080840160005b83811015612ba957815187529582019590820190600101612b8d565b509495945050505050565b600060018060a01b03808716835260806020840152612bd66080840187612b79565b81861660408501528381036060850152612bf08186612b79565b98975050505050505050565b600080600060608486031215612c1157600080fd5b833592506020840135612c2381612af5565b929592945050506040919091013590565b60008060408385031215612c4757600080fd5b8235612c5281612af5565b946020939093013593505050565b6020815260006111716020830184612b79565b600060208284031215612c8557600080fd5b813561117181612af5565b60008060408385031215612ca357600080fd5b823591506020830135612cb581612af5565b809150509250929050565b60008060408385031215612cd357600080fd5b50508035926020909101359150565b600080600080600060808688031215612cfa57600080fd5b85359450602086013593506040860135925060608601356001600160401b03811115612d2557600080fd5b612d3188828901612a5f565b969995985093965092949392505050565b60008060208385031215612d5557600080fd5b82356001600160401b03811115612d6b57600080fd5b612d7785828601612a5f565b90969095509350505050565b60005b83811015612d9e578181015183820152602001612d86565b83811115612dad576000848401525b50505050565b60008151808452612dcb816020860160208601612d83565b601f01601f19169290920160200192915050565b6000602080830181845280855180835260408601915060408160051b870101925083870160005b82811015612e3457603f19888603018452612e22858351612db3565b94509285019290850190600101612e06565b5092979650505050505050565b634e487b7160e01b600052604160045260246000fd5b60006020808385031215612e6a57600080fd5b82356001600160401b0380821115612e8157600080fd5b818501915085601f830112612e9557600080fd5b813581811115612ea757612ea7612e41565b8060051b604051601f19603f83011681018181108582111715612ecc57612ecc612e41565b604052918252848201925083810185019188831115612eea57600080fd5b938501935b82851015612bf057843584529385019392850192612eef565b600060208284031215612f1a57600080fd5b8151801515811461117157600080fd5b634e487b7160e01b600052601160045260246000fd5b60008219821115612f5357612f53612f2a565b500190565b634e487b7160e01b600052603260045260246000fd5b6000600019821415612f8257612f82612f2a565b5060010190565b6000816000190483118215151615612fa357612fa3612f2a565b500290565b634e487b7160e01b600052601260045260246000fd5b600082612fcd57612fcd612fa8565b500490565b604081526000612fe56040830185612b79565b905082151560208301529392505050565b6040808252810183905260006001600160fb1b0384111561301657600080fd5b8360051b8086606085013760009083016060019081529215156020909201919091525092915050565b60006020828403121561305157600080fd5b815161117181612af5565b6020808252818101527f4f776e61626c653a2063616c6c6572206973206e6f7420746865206f776e6572604082015260600190565b6000828210156130a3576130a3612f2a565b500390565b6000826130b7576130b7612fa8565b500690565b6000808335601e198436030181126130d357600080fd5b8301803591506001600160401b038211156130ed57600080fd5b602001915036819003821315612aa357600080fd5b60006020828403121561311457600080fd5b5051919050565b6000825161312d818460208701612d83565b9190910192915050565b6020815260006111716020830184612db356fe416464726573733a206c6f772d6c6576656c2064656c65676174652063616c6c206661696c6564a2646970667358221220df4fa2b228802c6497cd03f5ad5d37e5ab7c1bf745dab2f93490fcc2aacdde1f64736f6c63430008090033",
  "linkReferences": {},
  "deployedLinkReferences": {}
}