{
  "_format": "hh-sol-artifact-1",
  "contractName": "LobbyBattle",
  "sourceName": "contracts/game/LobbyBattle.sol",
  "abi": [
    {
      "inputs": [],
      "stateMutability": "nonpayable",
      "type": "constructor"
    },
    {
      "anonymous": false,
      "inputs": [
        {
          "indexed": true,
          "internalType": "uint256",
          "name": "lobbyId",
          "type": "uint256"
        },
        {
          "indexed": true,
          "internalType": "address",
          "name": "host",
          "type": "address"
        },
        {
          "indexed": true,
          "internalType": "address",
          "name": "client",
          "type": "address"
        }
      ],
      "name": "BattleFinished",
      "type": "event"
    },
    {
      "anonymous": false,
      "inputs": [
        {
          "indexed": true,
          "internalType": "address",
          "name": "previousOwner",
          "type": "address"
        },
        {
          "indexed": true,
          "internalType": "address",
          "name": "newOwner",
          "type": "address"
        }
      ],
      "name": "OwnershipTransferred",
      "type": "event"
    },
    {
      "inputs": [],
      "name": "bonusExp",
      "outputs": [
        {
          "internalType": "uint256",
          "name": "",
          "type": "uint256"
        }
      ],
      "stateMutability": "view",
      "type": "function"
    },
    {
      "inputs": [
        {
          "internalType": "bytes32",
          "name": "name",
          "type": "bytes32"
        },
        {
          "internalType": "bytes32",
          "name": "avatar",
          "type": "bytes32"
        },
        {
          "internalType": "uint256",
          "name": "capacity",
          "type": "uint256"
        },
        {
          "internalType": "uint256",
          "name": "minPower",
          "type": "uint256"
        },
        {
          "internalType": "uint256",
          "name": "maxPower",
          "type": "uint256"
        },
        {
          "internalType": "uint256[]",
          "name": "heroIds",
          "type": "uint256[]"
        }
      ],
      "name": "createLobby",
      "outputs": [],
      "stateMutability": "nonpayable",
      "type": "function"
    },
    {
      "inputs": [
        {
          "internalType": "address",
          "name": "myAddr",
          "type": "address"
        }
      ],
      "name": "getActiveLobbies",
      "outputs": [
        {
          "internalType": "uint256[]",
          "name": "",
          "type": "uint256[]"
        }
      ],
      "stateMutability": "view",
      "type": "function"
    },
    {
      "inputs": [],
      "name": "getAllHistory",
      "outputs": [
        {
          "internalType": "uint256[]",
          "name": "",
          "type": "uint256[]"
        }
      ],
      "stateMutability": "view",
      "type": "function"
    },
    {
      "inputs": [
        {
          "internalType": "uint256[]",
          "name": "heroes",
          "type": "uint256[]"
        }
      ],
      "name": "getHeroesPower",
      "outputs": [
        {
          "internalType": "uint256",
          "name": "",
          "type": "uint256"
        }
      ],
      "stateMutability": "view",
      "type": "function"
    },
    {
      "inputs": [
        {
          "internalType": "uint256",
          "name": "lobbyId",
          "type": "uint256"
        }
      ],
      "name": "getLobbyHeroes",
      "outputs": [
        {
          "internalType": "address",
          "name": "",
          "type": "address"
        },
        {
          "internalType": "uint256[]",
          "name": "",
          "type": "uint256[]"
        },
        {
          "internalType": "address",
          "name": "",
          "type": "address"
        },
        {
          "internalType": "uint256[]",
          "name": "",
          "type": "uint256[]"
        }
      ],
      "stateMutability": "view",
      "type": "function"
    },
    {
      "inputs": [
        {
          "internalType": "uint256",
          "name": "lobbyId",
          "type": "uint256"
        }
      ],
      "name": "getLobbyPower",
      "outputs": [
        {
          "internalType": "address",
          "name": "",
          "type": "address"
        },
        {
          "internalType": "uint256",
          "name": "",
          "type": "uint256"
        },
        {
          "internalType": "address",
          "name": "",
          "type": "address"
        },
        {
          "internalType": "uint256",
          "name": "",
          "type": "uint256"
        }
      ],
      "stateMutability": "view",
      "type": "function"
    },
    {
      "inputs": [
        {
          "internalType": "uint256",
          "name": "lobbyId",
          "type": "uint256"
        }
      ],
      "name": "getLobbyPowerRange",
      "outputs": [
        {
          "internalType": "uint256",
          "name": "",
          "type": "uint256"
        },
        {
          "internalType": "uint256",
          "name": "",
          "type": "uint256"
        },
        {
          "internalType": "uint256",
          "name": "",
          "type": "uint256"
        },
        {
          "internalType": "uint256",
          "name": "",
          "type": "uint256"
        }
      ],
      "stateMutability": "view",
      "type": "function"
    },
    {
      "inputs": [
        {
          "internalType": "address",
          "name": "myAddr",
          "type": "address"
        }
      ],
      "name": "getMyHistory",
      "outputs": [
        {
          "internalType": "uint256[]",
          "name": "",
          "type": "uint256[]"
        }
      ],
      "stateMutability": "view",
      "type": "function"
    },
    {
      "inputs": [
        {
          "internalType": "address",
          "name": "myAddr",
          "type": "address"
        }
      ],
      "name": "getMyLobbies",
      "outputs": [
        {
          "internalType": "uint256[]",
          "name": "",
          "type": "uint256[]"
        }
      ],
      "stateMutability": "view",
      "type": "function"
    },
    {
      "inputs": [
        {
          "internalType": "uint256",
          "name": "lobbyId",
          "type": "uint256"
        },
        {
          "internalType": "address",
          "name": "player",
          "type": "address"
        }
      ],
      "name": "getPlayerHeroesOnLobby",
      "outputs": [
        {
          "internalType": "uint256[]",
          "name": "",
          "type": "uint256[]"
        }
      ],
      "stateMutability": "view",
      "type": "function"
    },
    {
      "inputs": [
        {
          "internalType": "uint256",
          "name": "heroId",
          "type": "uint256"
        }
      ],
      "name": "heroBonusExp",
      "outputs": [
        {
          "internalType": "uint256",
          "name": "",
          "type": "uint256"
        }
      ],
      "stateMutability": "view",
      "type": "function"
    },
    {
      "inputs": [],
      "name": "heroManager",
      "outputs": [
        {
          "internalType": "contract IHeroManager",
          "name": "",
          "type": "address"
        }
      ],
      "stateMutability": "view",
      "type": "function"
    },
    {
      "inputs": [],
      "name": "heroPowerRange",
      "outputs": [
        {
          "internalType": "uint256",
          "name": "",
          "type": "uint256"
        }
      ],
      "stateMutability": "view",
      "type": "function"
    },
    {
      "inputs": [
        {
          "internalType": "uint256",
          "name": "lobbyId",
          "type": "uint256"
        },
        {
          "internalType": "uint256",
          "name": "minPower",
          "type": "uint256"
        },
        {
          "internalType": "uint256",
          "name": "maxPower",
          "type": "uint256"
        },
        {
          "internalType": "uint256[]",
          "name": "heroIds",
          "type": "uint256[]"
        }
      ],
      "name": "joinLobby",
      "outputs": [],
      "stateMutability": "nonpayable",
      "type": "function"
    },
    {
      "inputs": [
        {
          "internalType": "uint256",
          "name": "",
          "type": "uint256"
        }
      ],
      "name": "lobbies",
      "outputs": [
        {
          "internalType": "bytes32",
          "name": "name",
          "type": "bytes32"
        },
        {
          "internalType": "bytes32",
          "name": "avatar",
          "type": "bytes32"
        },
        {
          "internalType": "address",
          "name": "host",
          "type": "address"
        },
        {
          "internalType": "address",
          "name": "client",
          "type": "address"
        },
        {
          "internalType": "uint256",
          "name": "id",
          "type": "uint256"
        },
        {
          "internalType": "uint256",
          "name": "capacity",
          "type": "uint256"
        },
        {
          "internalType": "uint256",
          "name": "startedAt",
          "type": "uint256"
        },
        {
          "internalType": "uint256",
          "name": "finishedAt",
          "type": "uint256"
        },
        {
          "internalType": "uint256",
          "name": "winner",
          "type": "uint256"
        },
        {
          "internalType": "uint256",
          "name": "fee",
          "type": "uint256"
        },
        {
          "internalType": "uint256",
          "name": "rewards",
          "type": "uint256"
        }
      ],
      "stateMutability": "view",
      "type": "function"
    },
    {
      "inputs": [
        {
          "internalType": "uint256",
          "name": "",
          "type": "uint256"
        }
      ],
      "name": "lobbyFees",
      "outputs": [
        {
          "internalType": "uint256",
          "name": "",
          "type": "uint256"
        }
      ],
      "stateMutability": "view",
      "type": "function"
    },
    {
      "inputs": [
        {
          "internalType": "uint256",
          "name": "",
          "type": "uint256"
        },
        {
          "internalType": "address",
          "name": "",
          "type": "address"
        },
        {
          "internalType": "uint256",
          "name": "",
          "type": "uint256"
        }
      ],
      "name": "lobbyHeroes",
      "outputs": [
        {
          "internalType": "uint256",
          "name": "",
          "type": "uint256"
        }
      ],
      "stateMutability": "view",
      "type": "function"
    },
    {
      "inputs": [
        {
          "internalType": "uint256",
          "name": "",
          "type": "uint256"
        },
        {
          "internalType": "address",
          "name": "",
          "type": "address"
        }
      ],
      "name": "lobbyHeroesCount",
      "outputs": [
        {
          "internalType": "uint256",
          "name": "",
          "type": "uint256"
        }
      ],
      "stateMutability": "view",
      "type": "function"
    },
    {
      "inputs": [
        {
          "internalType": "bytes[]",
          "name": "data",
          "type": "bytes[]"
        }
      ],
      "name": "multicall",
      "outputs": [
        {
          "internalType": "bytes[]",
          "name": "results",
          "type": "bytes[]"
        }
      ],
      "stateMutability": "nonpayable",
      "type": "function"
    },
    {
      "inputs": [],
      "name": "nft",
      "outputs": [
        {
          "internalType": "contract IERC721",
          "name": "",
          "type": "address"
        }
      ],
      "stateMutability": "view",
      "type": "function"
    },
    {
      "inputs": [],
      "name": "owner",
      "outputs": [
        {
          "internalType": "address",
          "name": "",
          "type": "address"
        }
      ],
      "stateMutability": "view",
      "type": "function"
    },
    {
      "inputs": [
        {
          "internalType": "uint256",
          "name": "",
          "type": "uint256"
        },
        {
          "internalType": "address",
          "name": "",
          "type": "address"
        },
        {
          "internalType": "uint256",
          "name": "",
          "type": "uint256"
        }
      ],
      "name": "powers",
      "outputs": [
        {
          "internalType": "uint256",
          "name": "",
          "type": "uint256"
        }
      ],
      "stateMutability": "view",
      "type": "function"
    },
    {
      "inputs": [
        {
          "internalType": "uint256",
          "name": "min",
          "type": "uint256"
        },
        {
          "internalType": "uint256",
          "name": "max",
          "type": "uint256"
        }
      ],
      "name": "random",
      "outputs": [
        {
          "internalType": "uint256",
          "name": "",
          "type": "uint256"
        }
      ],
      "stateMutability": "view",
      "type": "function"
    },
    {
      "inputs": [],
      "name": "renounceOwnership",
      "outputs": [],
      "stateMutability": "nonpayable",
      "type": "function"
    },
    {
      "inputs": [],
      "name": "rewardsPayeer",
      "outputs": [
        {
          "internalType": "address",
          "name": "",
          "type": "address"
        }
      ],
      "stateMutability": "view",
      "type": "function"
    },
    {
      "inputs": [
        {
          "internalType": "uint256",
          "name": "multiplier",
          "type": "uint256"
        }
      ],
      "name": "setBenefitMultiplier",
      "outputs": [],
      "stateMutability": "nonpayable",
      "type": "function"
    },
    {
      "inputs": [
        {
          "internalType": "uint256",
          "name": "value",
          "type": "uint256"
        }
      ],
      "name": "setBonusExp",
      "outputs": [],
      "stateMutability": "nonpayable",
      "type": "function"
    },
    {
      "inputs": [
        {
          "internalType": "address",
          "name": "hmAddr",
          "type": "address"
        }
      ],
      "name": "setHeroManager",
      "outputs": [],
      "stateMutability": "nonpayable",
      "type": "function"
    },
    {
      "inputs": [
        {
          "internalType": "uint256",
          "name": "range",
          "type": "uint256"
        }
      ],
      "name": "setHeroPowerRange",
      "outputs": [],
      "stateMutability": "nonpayable",
      "type": "function"
    },
    {
      "inputs": [
        {
          "internalType": "uint256",
          "name": "capacity",
          "type": "uint256"
        },
        {
          "internalType": "uint256",
          "name": "fee",
          "type": "uint256"
        }
      ],
      "name": "setLobbyFee",
      "outputs": [],
      "stateMutability": "nonpayable",
      "type": "function"
    },
    {
      "inputs": [
        {
          "internalType": "address",
          "name": "payer",
          "type": "address"
        }
      ],
      "name": "setRewardsPayeer",
      "outputs": [],
      "stateMutability": "nonpayable",
      "type": "function"
    },
    {
      "inputs": [],
      "name": "token",
      "outputs": [
        {
          "internalType": "contract IERC20",
          "name": "",
          "type": "address"
        }
      ],
      "stateMutability": "view",
      "type": "function"
    },
    {
      "inputs": [
        {
          "internalType": "address",
          "name": "newOwner",
          "type": "address"
        }
      ],
      "name": "transferOwnership",
      "outputs": [],
      "stateMutability": "nonpayable",
      "type": "function"
    },
    {
      "inputs": [
        {
          "internalType": "uint256[]",
          "name": "heroIds",
          "type": "uint256[]"
        },
        {
          "internalType": "address",
          "name": "owner",
          "type": "address"
        }
      ],
      "name": "validateHeroIds",
      "outputs": [
        {
          "internalType": "bool",
          "name": "",
          "type": "bool"
        }
      ],
      "stateMutability": "view",
      "type": "function"
    },
    {
      "inputs": [
        {
          "internalType": "address payable",
          "name": "recipient",
          "type": "address"
        }
      ],
      "name": "withdrawDustETH",
      "outputs": [],
      "stateMutability": "nonpayable",
      "type": "function"
    },
    {
      "stateMutability": "payable",
      "type": "receive"
    }
  ],
  "bytecode": "0x6080604052600280546001600160a01b0319908116730c966628e4828958376a24ee66f5278a71c96aee179091556003805482167328ee3e2826264b9c55fcdd122dfa93680916c9b817905560048054821673ef5a8af5148a53a4ef4749595fe44e3e08754b8b17905560058054909116730cca7943409260455ceef6be46c69b3fc808e24f17905560fa600655680821ab0d4414980000600755601e6008553480156100ab57600080fd5b506100b53361014b565b600c60205269010f0cf064dd592000007fd421a5181c571bba3f01190c922c3b2a896fc1d84e86c9f17ac10e67ebef8b5c5569054b40b1f852bda000007fc0da782485e77ae272268ae0a3ff44c1552ecb60b3743924de17a815e0a3cfd7556005600052690a968163f0a57b4000007f2cd9ebf6ff19cdd7ffcc447d7c7d47b5991f5c7392a04512134e765802361fa65561019b565b600080546001600160a01b038381166001600160a01b0319831681178455604051919092169283917f8be0079c531659141344cd1fd0a4f28419497f9722a3daafe3b4186f6b6457e09190a35050565b61332b80620001ab6000396000f3fe6080604052600436106102135760003560e01c8063715018a611610118578063b97dcb22116100a0578063ed697f321161006f578063ed697f321461078f578063f2fde38b146107af578063f8a42d37146107cf578063fc0c546a14610877578063fc5850341461089757600080fd5b8063b97dcb2214610702578063b9f2d52014610722578063e393c2941461074f578063e4118fca1461076f57600080fd5b8063a9dd1225116100e7578063a9dd12251461062a578063ab4051451461064a578063ac9650d814610660578063b12f5c571461068d578063b8830f9f146106e257600080fd5b8063715018a61461059f57806372c90ca6146105b4578063833588cc146105ec5780638da5cb5b1461060c57600080fd5b8063378cc3471161019b5780633c1522911161016a5780633c15229114610440578063410a3adc1461046057806347ccca02146104805780636dbd07cf146104a05780636e8fb4c6146104c057600080fd5b8063378cc347146103ad57806339c5891a146103cd5780633b2144ec146103e25780633b8a7a131461042057600080fd5b806316fc989c116101e257806316fc989c146102e05780631a42c59b1461031e57806328b11d23146103405780633024438d14610360578063370068aa1461038d57600080fd5b80630152368f1461021f578063047f49911461025457806307a48c191461027857806311ce406d146102a857600080fd5b3661021a57005b600080fd5b34801561022b57600080fd5b5061023f61023a366004612c4c565b6108b7565b60405190151581526020015b60405180910390f35b34801561026057600080fd5b5061026a60075481565b60405190815260200161024b565b34801561028457600080fd5b50610298610293366004612ca2565b6109d9565b60405161024b9493929190612cf6565b3480156102b457600080fd5b506005546102c8906001600160a01b031681565b6040516001600160a01b03909116815260200161024b565b3480156102ec57600080fd5b5061026a6102fb366004612d3e565b600960209081526000938452604080852082529284528284209052825290205481565b34801561032a57600080fd5b5061033e610339366004612d76565b610a2d565b005b34801561034c57600080fd5b5061033e61035b366004612ca2565b6112a1565b34801561036c57600080fd5b5061038061037b366004612dd6565b6112d0565b60405161024b9190612df3565b34801561039957600080fd5b506103806103a8366004612dd6565b61141d565b3480156103b957600080fd5b5061033e6103c8366004612dd6565b6115ad565b3480156103d957600080fd5b506103806115f9565b3480156103ee57600080fd5b5061026a6103fd366004612d3e565b600b60209081526000938452604080852082529284528284209052825290205481565b34801561042c57600080fd5b506002546102c8906001600160a01b031681565b34801561044c57600080fd5b5061038061045b366004612dd6565b6116f1565b34801561046c57600080fd5b5061033e61047b366004612ca2565b611833565b34801561048c57600080fd5b506004546102c8906001600160a01b031681565b3480156104ac57600080fd5b5061033e6104bb366004612e06565b611862565b3480156104cc57600080fd5b506105406104db366004612ca2565b600d60205260009081526040902080546001820154600283015460038401546004850154600586015460068701546007880154600889015460098a0154600a909a0154989997986001600160a01b03978816989790961696949593949293919290918b565b604080519b8c5260208c019a909a526001600160a01b03988916998b0199909952969095166060890152608088019390935260a087019190915260c086015260e08501526101008401526101208301526101408201526101600161024b565b3480156105ab57600080fd5b5061033e611d3d565b3480156105c057600080fd5b5061026a6105cf366004612e79565b600a60209081526000928352604080842090915290825290205481565b3480156105f857600080fd5b5061033e610607366004612ea9565b611d73565b34801561061857600080fd5b506000546001600160a01b03166102c8565b34801561063657600080fd5b5061026a610645366004612ea9565b611daf565b34801561065657600080fd5b5061026a60085481565b34801561066c57600080fd5b5061068061067b366004612ecb565b611e3e565b60405161024b9190612f68565b34801561069957600080fd5b506106ad6106a8366004612ca2565b611f32565b60405161024b94939291906001600160a01b039485168152602081019390935292166040820152606081019190915260800190565b3480156106ee57600080fd5b5061033e6106fd366004612ca2565b6120f1565b34801561070e57600080fd5b5061038061071d366004612e79565b612120565b34801561072e57600080fd5b5061026a61073d366004612ca2565b600c6020526000908152604090205481565b34801561075b57600080fd5b5061033e61076a366004612dd6565b6121f1565b34801561077b57600080fd5b5061033e61078a366004612dd6565b612254565b34801561079b57600080fd5b5061026a6107aa366004612fe0565b6122a0565b3480156107bb57600080fd5b5061033e6107ca366004612dd6565b61236c565b3480156107db57600080fd5b506108576107ea366004612ca2565b6000908152600d602090815260408083206002810154600390910154600b84528285206001600160a01b0392831686528085528386208680528552838620546001808852858820549490931687529085528386208680529094528285205490855291909320549193909190565b60408051948552602085019390935291830152606082015260800161024b565b34801561088357600080fd5b506003546102c8906001600160a01b031681565b3480156108a357600080fd5b5061026a6108b2366004612ca2565b612407565b6000805b838110156109cc576004546001600160a01b038085169116636352211e8787858181106108ea576108ea613091565b905060200201356040518263ffffffff1660e01b815260040161090f91815260200190565b60206040518083038186803b15801561092757600080fd5b505afa15801561093b573d6000803e3d6000fd5b505050506040513d601f19601f8201168201806040525081019061095f91906130a7565b6001600160a01b0316146109ba5760405162461bcd60e51b815260206004820152601b60248201527f4c6f626279426174746c653a206e6f74206865726f206f776e6572000000000060448201526064015b60405180910390fd5b806109c4816130da565b9150506108bb565b50600190505b9392505050565b6000818152600d602052604081206002810154600390910154606091839183916001600160a01b03908116911681610a118882612120565b82610a1c8a85612120565b955095509550955050509193509193565b610a388282336108b7565b506000858152600d60205260409020600401548514610a995760405162461bcd60e51b815260206004820181905260248201527f4c6f626279426174746c653a206c6f62627920646f65736e277420657869737460448201526064016109b1565b6000858152600d60205260409020600501548114610af95760405162461bcd60e51b815260206004820152601960248201527f4c6f626279426174746c653a2077726f6e67206865726f65730000000000000060448201526064016109b1565b6000610b378383808060200260200160405190810160405280939291908181526020018383602002808284376000920191909152506122a092505050565b9050808511158015610b495750808410155b8015610b5f5750600754610b5d86866130f5565b145b610bab5760405162461bcd60e51b815260206004820152601e60248201527f4c6f626279426174746c653a2077726f6e6720706f7765722072616e6765000060448201526064016109b1565b6000868152600d602052604090206007015415610c0a5760405162461bcd60e51b815260206004820152601d60248201527f4c6f626279426174746c653a20616c72656164792066696e697368656400000060448201526064016109b1565b600354600580546000898152600d60209081526040808320909401548252600c90528290205491516323b872dd60e01b81523360048201526001600160a01b0391821660248201526044810192909252909116906323b872dd90606401602060405180830381600087803b158015610c8157600080fd5b505af1158015610c95573d6000803e3d6000fd5b505050506040513d601f19601f82011682018060405250810190610cb9919061310c565b610d055760405162461bcd60e51b815260206004820152601b60248201527f4c6f626279426174746c653a206e6f7420656e6f75676820666565000000000060448201526064016109b1565b6000868152600d602090815260408083206003810180546001600160a01b0319163390811790915542600790920191909155600b83528184209084528252808320838052909152808220879055600182528120859055826001600160401b03811115610d7357610d73612fca565b604051908082528060200260200182016040528015610d9c578160200160208202803683370190505b50905060005b83811015610e4657848482818110610dbc57610dbc613091565b60008b8152600960209081526040808320338452808352818420888552835281842094830296909601359093558c8252600d8152828220600201546001600160a01b03168252938452818120858252909352909120548351909150839083908110610e2957610e29613091565b602090810291909101015280610e3e816130da565b915050610da2565b506000878152600a602090815260408083203384528252808320869055898352600d9091529020600501546001141561110357610eb68185858080602002602001604051908101604052809392919081815260200183836020028082843760009201919091525061249c92505050565b6000888152600d6020526040902060080181905560011415610ff35760025481516001600160a01b039091169063b00475b5908390610f0d908290600090610f0057610f00613091565b6020026020010151612407565b6040518363ffffffff1660e01b8152600401610f2a92919061312e565b600060405180830381600087803b158015610f4457600080fd5b505af1158015610f58573d6000803e3d6000fd5b5050600280546001600160a01b0316925063b00475b5915086908690610f948383600081610f8857610f88613091565b90506020020135612407565b610f9e9190613166565b6040518463ffffffff1660e01b8152600401610fbc9392919061317a565b600060405180830381600087803b158015610fd657600080fd5b505af1158015610fea573d6000803e3d6000fd5b50505050611103565b600260009054906101000a90046001600160a01b03166001600160a01b031663b00475b582600261103085600081518110610f0057610f00613091565b61103a9190613166565b6040518363ffffffff1660e01b815260040161105792919061312e565b600060405180830381600087803b15801561107157600080fd5b505af1158015611085573d6000803e3d6000fd5b50506002546001600160a01b0316915063b00475b5905085856110b28282600081610f8857610f88613091565b6040518463ffffffff1660e01b81526004016110d09392919061317a565b600060405180830381600087803b1580156110ea57600080fd5b505af11580156110fe573d6000803e3d6000fd5b505050505b6006546000888152600d60209081526040808320600501548352600c909152902054606491611131916131c0565b61113b9190613166565b6000888152600d60205260409020600a8101919091556003546005546008909201546001600160a01b03918216926323b872dd9216906001146111985760008a8152600d60205260409020600301546001600160a01b03166111b4565b60008a8152600d60205260409020600201546001600160a01b03165b60008b8152600d602052604090819020600a0154905160e085901b6001600160e01b03191681526001600160a01b0393841660048201529290911660248301526044820152606401602060405180830381600087803b15801561121657600080fd5b505af115801561122a573d6000803e3d6000fd5b505050506040513d601f19601f8201168201806040525081019061124e919061310c565b506000878152600d602052604080822060020154905133926001600160a01b03909216918a917fc77dc6cd4b51c8efc4af40a582ca4cf229fda505a830b4486b200ddcbdb1383f9190a450505050505050565b6000546001600160a01b031633146112cb5760405162461bcd60e51b81526004016109b1906131df565b600655565b6060600060015b6001548111611341576000818152600d602052604090206007015415801561131c57506000818152600d60205260409020600201546001600160a01b03858116911614155b1561132f578161132b816130da565b9250505b80611339816130da565b9150506112d7565b50600080826001600160401b0381111561135d5761135d612fca565b604051908082528060200260200182016040528015611386578160200160208202803683370190505b50905060015b6001548111611414576000818152600d60205260409020600701541580156113d157506000818152600d60205260409020600201546001600160a01b03878116911614155b1561140257808284815181106113e9576113e9613091565b6020908102919091010152826113fe816130da565b9350505b8061140c816130da565b91505061138c565b50949350505050565b6060600060015b60015481116114b4576000818152600d60205260409020600701541580159061148f57506000818152600d60205260409020600201546001600160a01b038581169116148061148f57506000818152600d60205260409020600301546001600160a01b038581169116145b156114a2578161149e816130da565b9250505b806114ac816130da565b915050611424565b50600080826001600160401b038111156114d0576114d0612fca565b6040519080825280602002602001820160405280156114f9578160200160208202803683370190505b50905060015b6001548111611414576000818152600d60205260409020600701541580159061156a57506000818152600d60205260409020600201546001600160a01b038781169116148061156a57506000818152600d60205260409020600301546001600160a01b038781169116145b1561159b578082848151811061158257611582613091565b602090810291909101015282611597816130da565b9350505b806115a5816130da565b9150506114ff565b6000546001600160a01b031633146115d75760405162461bcd60e51b81526004016109b1906131df565b600280546001600160a01b0319166001600160a01b0392909216919091179055565b6060600060015b6001548111611640576000818152600d60205260409020600701541561162e578161162a816130da565b9250505b80611638816130da565b915050611600565b50600080826001600160401b0381111561165c5761165c612fca565b604051908082528060200260200182016040528015611685578160200160208202803683370190505b50905060015b60015481116116e9576000818152600d6020526040902060070154156116d757808284815181106116be576116be613091565b6020908102919091010152826116d3816130da565b9350505b806116e1816130da565b91505061168b565b509392505050565b6060600060015b6001548111611761576000818152600d602052604090206007015415801561173c57506000818152600d60205260409020600201546001600160a01b038581169116145b1561174f578161174b816130da565b9250505b80611759816130da565b9150506116f8565b50600080826001600160401b0381111561177d5761177d612fca565b6040519080825280602002602001820160405280156117a6578160200160208202803683370190505b50905060015b6001548111611414576000818152600d60205260409020600701541580156117f057506000818152600d60205260409020600201546001600160a01b038781169116145b15611821578082848151811061180857611808613091565b60209081029190910101528261181d816130da565b9350505b8061182b816130da565b9150506117ac565b6000546001600160a01b0316331461185d5760405162461bcd60e51b81526004016109b1906131df565b600755565b61186d8282336108b7565b508481146118bd5760405162461bcd60e51b815260206004820152601d60248201527f4c6f626279426174746c653a2077726f6e6720706172616d657465727300000060448201526064016109b1565b60006118fb8383808060200260200160405190810160405280939291908181526020018383602002808284376000920191909152506122a092505050565b905080851115801561190d5750808410155b8015611923575060075461192186866130f5565b145b61196f5760405162461bcd60e51b815260206004820152601e60248201527f4c6f626279426174746c653a2077726f6e6720706f7765722072616e6765000060448201526064016109b1565b6000868152600c60205260409020546119d45760405162461bcd60e51b815260206004820152602160248201527f4c6f626279426174746c653a2077726f6e67206c6f62627920636170616369746044820152607960f81b60648201526084016109b1565b6003546005546000888152600c6020526040908190205490516323b872dd60e01b81523360048201526001600160a01b03928316602482015260448101919091529116906323b872dd90606401602060405180830381600087803b158015611a3b57600080fd5b505af1158015611a4f573d6000803e3d6000fd5b505050506040513d601f19601f82011682018060405250810190611a73919061310c565b611abf5760405162461bcd60e51b815260206004820152601b60248201527f4c6f626279426174746c653a206e6f7420656e6f75676820666565000000000060448201526064016109b1565b611acd600180546001019055565b6000611ad860015490565b905060006040518061016001604052808b81526020018a8152602001336001600160a01b0316815260200160006001600160a01b031681526020018381526020018981526020014281526020016000815260200160008152602001600c60008b81526020019081526020016000205481526020016000815250905086600b60008481526020019081526020016000206000336001600160a01b03166001600160a01b0316815260200190815260200160002060008081526020019081526020016000208190555085600b60008481526020019081526020016000206000336001600160a01b03166001600160a01b031681526020019081526020016000206000600181526020019081526020016000208190555080600d6000848152602001908152602001600020600082015181600001556020820151816001015560408201518160020160006101000a8154816001600160a01b0302191690836001600160a01b0316021790555060608201518160030160006101000a8154816001600160a01b0302191690836001600160a01b031602179055506080820151816004015560a0820151816005015560c0820151816006015560e082015181600701556101008201518160080155610120820151816009015561014082015181600a015590505060005b84811015611d1557858582818110611cd757611cd7613091565b600086815260096020908152604080832033845282528083208784528252909120910292909201359091555080611d0d816130da565b915050611cbd565b50506000908152600a6020908152604080832033845290915290209190915550505050505050565b6000546001600160a01b03163314611d675760405162461bcd60e51b81526004016109b1906131df565b611d716000612a66565b565b6000546001600160a01b03163314611d9d5760405162461bcd60e51b81526004016109b1906131df565b6000918252600c602052604090912055565b60408051446020820152429181019190915233606090811b6bffffffffffffffffffffffff1916908201526074810183905260948101829052600090819060b40160408051601f198184030181529190528051602090910120905083611e1581856130f5565b611e20906001613214565b611e2a908361322c565b611e349190613214565b9150505b92915050565b6060816001600160401b03811115611e5857611e58612fca565b604051908082528060200260200182016040528015611e8b57816020015b6060815260200190600190039081611e765790505b50905060005b82811015611f2b57611efb30858584818110611eaf57611eaf613091565b9050602002810190611ec19190613240565b8080601f016020809104026020016040519081016040528093929190818152602001838380828437600092019190915250612ab692505050565b828281518110611f0d57611f0d613091565b60200260200101819052508080611f23906130da565b915050611e91565b5092915050565b600080600080600080600080611f47896109d9565b935093509350935060008060005b85518110156120de5760025486516000916001600160a01b03169063d5c1ed8a90899085908110611f8857611f88613091565b60200260200101516040518263ffffffff1660e01b8152600401611fae91815260200190565b60206040518083038186803b158015611fc657600080fd5b505afa158015611fda573d6000803e3d6000fd5b505050506040513d601f19601f82011682018060405250810190611ffe9190613286565b905061200a8185613214565b93506001600160a01b038616156120cb5760025485516000916001600160a01b03169063d5c1ed8a9088908690811061204557612045613091565b60200260200101516040518263ffffffff1660e01b815260040161206b91815260200190565b60206040518083038186803b15801561208357600080fd5b505afa158015612097573d6000803e3d6000fd5b505050506040513d601f19601f820116820180604052508101906120bb9190613286565b90506120c78185613214565b9350505b50806120d6816130da565b915050611f55565b50949a9099509197509295509350505050565b6000546001600160a01b0316331461211b5760405162461bcd60e51b81526004016109b1906131df565b600855565b6000828152600a602090815260408083206001600160a01b0385168452909152812054606091816001600160401b0381111561215e5761215e612fca565b604051908082528060200260200182016040528015612187578160200160208202803683370190505b50905060005b828110156114145760008681526009602090815260408083206001600160a01b0389168452825280832084845290915290205482518390839081106121d4576121d4613091565b6020908102919091010152806121e9816130da565b91505061218d565b6000546001600160a01b0316331461221b5760405162461bcd60e51b81526004016109b1906131df565b6040516001600160a01b038216904780156108fc02916000818181858888f19350505050158015612250573d6000803e3d6000fd5b5050565b6000546001600160a01b0316331461227e5760405162461bcd60e51b81526004016109b1906131df565b600580546001600160a01b0319166001600160a01b0392909216919091179055565b60008060005b8351811015611f2b5760025484516001600160a01b039091169063d5c1ed8a908690849081106122d8576122d8613091565b60200260200101516040518263ffffffff1660e01b81526004016122fe91815260200190565b60206040518083038186803b15801561231657600080fd5b505afa15801561232a573d6000803e3d6000fd5b505050506040513d601f19601f8201168201806040525081019061234e9190613286565b6123589083613214565b915080612364816130da565b9150506122a6565b6000546001600160a01b031633146123965760405162461bcd60e51b81526004016109b1906131df565b6001600160a01b0381166123fb5760405162461bcd60e51b815260206004820152602660248201527f4f776e61626c653a206e6577206f776e657220697320746865207a65726f206160448201526564647265737360d01b60648201526084016109b1565b61240481612a66565b50565b600254604051630a36d40b60e01b8152600481018390526000916001600160a01b031690630a36d40b9060240160206040518083038186803b15801561244c57600080fd5b505afa158015612460573d6000803e3d6000fd5b505050506040513d601f19601f820116820180604052508101906124849190613286565b60085461249191906130f5565b611e38906001613214565b600080836000815181106124b2576124b2613091565b602002602001015190506000836000815181106124d1576124d1613091565b6020908102919091010151600254604051636ae0f6c560e11b8152600481018590529192506000916001600160a01b039091169063d5c1ed8a9060240160206040518083038186803b15801561252657600080fd5b505afa15801561253a573d6000803e3d6000fd5b505050506040513d601f19601f8201168201806040525081019061255e9190613286565b600254604051636ae0f6c560e11b8152600481018590529192506000916001600160a01b039091169063d5c1ed8a9060240160206040518083038186803b1580156125a857600080fd5b505afa1580156125bc573d6000803e3d6000fd5b505050506040513d601f19601f820116820180604052508101906125e09190613286565b60025460405163f3d1b5ab60e01b8152600481018790529192506000916001600160a01b039091169063f3d1b5ab9060240160206040518083038186803b15801561262a57600080fd5b505afa15801561263e573d6000803e3d6000fd5b505050506040513d601f19601f820116820180604052508101906126629190613286565b600254604051630a36d40b60e01b8152600481018890529192506000916001600160a01b0390911690630a36d40b9060240160206040518083038186803b1580156126ac57600080fd5b505afa1580156126c0573d6000803e3d6000fd5b505050506040513d601f19601f820116820180604052508101906126e49190613286565b60025460405163f3d1b5ab60e01b8152600481018890529192506000916001600160a01b039091169063f3d1b5ab9060240160206040518083038186803b15801561272e57600080fd5b505afa158015612742573d6000803e3d6000fd5b505050506040513d601f19601f820116820180604052508101906127669190613286565b600254604051630a36d40b60e01b8152600481018990529192506000916001600160a01b0390911690630a36d40b9060240160206040518083038186803b1580156127b057600080fd5b505afa1580156127c4573d6000803e3d6000fd5b505050506040513d601f19601f820116820180604052508101906127e89190613286565b9050818414156129495780831115612893578486111561281357600198505050505050505050611e38565b8486141561285757600061282960016064611daf565b9050603c81116128455760019950505050505050505050611e38565b60029950505050505050505050611e38565b600061286560016064611daf565b9050604681116128815760029950505050505050505050611e38565b60019950505050505050505050611e38565b808314156128f057848611156128cd5760006128b160016064611daf565b9050604681116128455760019950505050505050505050611e38565b84861415612857576128e160016002611daf565b98505050505050505050611e38565b8486101561290957600298505050505050505050611e38565b8486141561293b57600061291f60016064611daf565b9050603c81116128815760029950505050505050505050611e38565b60006128b160016064611daf565b808314156129c2578486111561298457600061296760016064611daf565b905060468111156128455760019950505050505050505050611e38565b84861415612998576128e160016002611daf565b60006129a660016064611daf565b9050601481116128455760019950505050505050505050611e38565b80831115612a0d57848611156129e357600198505050505050505050611e38565b60006129f160016064611daf565b9050602881116128455760019950505050505050505050611e38565b84861015612a2657600298505050505050505050611e38565b84861415612a58576000612a3c60016064611daf565b9050601e81116128455760019950505050505050505050611e38565b600061282960016064611daf565b600080546001600160a01b038381166001600160a01b0319831681178455604051919092169283917f8be0079c531659141344cd1fd0a4f28419497f9722a3daafe3b4186f6b6457e09190a35050565b60606109d283836040518060600160405280602781526020016132cf6027913960606001600160a01b0384163b612b3e5760405162461bcd60e51b815260206004820152602660248201527f416464726573733a2064656c65676174652063616c6c20746f206e6f6e2d636f6044820152651b9d1c9858dd60d21b60648201526084016109b1565b600080856001600160a01b031685604051612b59919061329f565b600060405180830381855af49150503d8060008114612b94576040519150601f19603f3d011682016040523d82523d6000602084013e612b99565b606091505b5091509150612ba9828286612bb3565b9695505050505050565b60608315612bc25750816109d2565b825115612bd25782518084602001fd5b8160405162461bcd60e51b81526004016109b191906132bb565b60008083601f840112612bfe57600080fd5b5081356001600160401b03811115612c1557600080fd5b6020830191508360208260051b8501011115612c3057600080fd5b9250929050565b6001600160a01b038116811461240457600080fd5b600080600060408486031215612c6157600080fd5b83356001600160401b03811115612c7757600080fd5b612c8386828701612bec565b9094509250506020840135612c9781612c37565b809150509250925092565b600060208284031215612cb457600080fd5b5035919050565b600081518084526020808501945080840160005b83811015612ceb57815187529582019590820190600101612ccf565b509495945050505050565b600060018060a01b03808716835260806020840152612d186080840187612cbb565b81861660408501528381036060850152612d328186612cbb565b98975050505050505050565b600080600060608486031215612d5357600080fd5b833592506020840135612d6581612c37565b929592945050506040919091013590565b600080600080600060808688031215612d8e57600080fd5b85359450602086013593506040860135925060608601356001600160401b03811115612db957600080fd5b612dc588828901612bec565b969995985093965092949392505050565b600060208284031215612de857600080fd5b81356109d281612c37565b6020815260006109d26020830184612cbb565b600080600080600080600060c0888a031215612e2157600080fd5b873596506020880135955060408801359450606088013593506080880135925060a08801356001600160401b03811115612e5a57600080fd5b612e668a828b01612bec565b989b979a50959850939692959293505050565b60008060408385031215612e8c57600080fd5b823591506020830135612e9e81612c37565b809150509250929050565b60008060408385031215612ebc57600080fd5b50508035926020909101359150565b60008060208385031215612ede57600080fd5b82356001600160401b03811115612ef457600080fd5b612f0085828601612bec565b90969095509350505050565b60005b83811015612f27578181015183820152602001612f0f565b83811115612f36576000848401525b50505050565b60008151808452612f54816020860160208601612f0c565b601f01601f19169290920160200192915050565b6000602080830181845280855180835260408601915060408160051b870101925083870160005b82811015612fbd57603f19888603018452612fab858351612f3c565b94509285019290850190600101612f8f565b5092979650505050505050565b634e487b7160e01b600052604160045260246000fd5b60006020808385031215612ff357600080fd5b82356001600160401b038082111561300a57600080fd5b818501915085601f83011261301e57600080fd5b81358181111561303057613030612fca565b8060051b604051601f19603f8301168101818110858211171561305557613055612fca565b60405291825284820192508381018501918883111561307357600080fd5b938501935b82851015612d3257843584529385019392850192613078565b634e487b7160e01b600052603260045260246000fd5b6000602082840312156130b957600080fd5b81516109d281612c37565b634e487b7160e01b600052601160045260246000fd5b60006000198214156130ee576130ee6130c4565b5060010190565b600082821015613107576131076130c4565b500390565b60006020828403121561311e57600080fd5b815180151581146109d257600080fd5b6040815260006131416040830185612cbb565b90508260208301529392505050565b634e487b7160e01b600052601260045260246000fd5b60008261317557613175613150565b500490565b6040808252810183905260006001600160fb1b0384111561319a57600080fd5b8360051b8086606085013760009083016060019081526020909201929092529392505050565b60008160001904831182151516156131da576131da6130c4565b500290565b6020808252818101527f4f776e61626c653a2063616c6c6572206973206e6f7420746865206f776e6572604082015260600190565b60008219821115613227576132276130c4565b500190565b60008261323b5761323b613150565b500690565b6000808335601e1984360301811261325757600080fd5b8301803591506001600160401b0382111561327157600080fd5b602001915036819003821315612c3057600080fd5b60006020828403121561329857600080fd5b5051919050565b600082516132b1818460208701612f0c565b9190910192915050565b6020815260006109d26020830184612f3c56fe416464726573733a206c6f772d6c6576656c2064656c65676174652063616c6c206661696c6564a2646970667358221220e23e4e68a4f6a1a05ada9b733fb2e9cb12bd9001f06f1e0773132db7ed02d66964736f6c63430008090033",
  "linkReferences": {},
  "deployedLinkReferences": {}
}