{
  "_format": "hh-sol-artifact-1",
  "contractName": "LobbyBattle",
  "sourceName": "contracts/game/LobbyBattle.sol",
  "abi": [
    {
      "inputs": [],
      "stateMutability": "nonpayable",
      "type": "constructor"
    },
    {
      "anonymous": false,
      "inputs": [
        {
          "indexed": true,
          "internalType": "uint256",
          "name": "lobbyId",
          "type": "uint256"
        },
        {
          "indexed": true,
          "internalType": "address",
          "name": "host",
          "type": "address"
        },
        {
          "indexed": true,
          "internalType": "address",
          "name": "client",
          "type": "address"
        }
      ],
      "name": "BattleFinished",
      "type": "event"
    },
    {
      "anonymous": false,
      "inputs": [
        {
          "indexed": true,
          "internalType": "address",
          "name": "previousOwner",
          "type": "address"
        },
        {
          "indexed": true,
          "internalType": "address",
          "name": "newOwner",
          "type": "address"
        }
      ],
      "name": "OwnershipTransferred",
      "type": "event"
    },
    {
      "inputs": [
        {
          "internalType": "bytes32",
          "name": "name",
          "type": "bytes32"
        },
        {
          "internalType": "bytes32",
          "name": "avatar",
          "type": "bytes32"
        },
        {
          "internalType": "uint256",
          "name": "capacity",
          "type": "uint256"
        },
        {
          "internalType": "uint256",
          "name": "minPower",
          "type": "uint256"
        },
        {
          "internalType": "uint256",
          "name": "maxPower",
          "type": "uint256"
        },
        {
          "internalType": "uint256[]",
          "name": "heroIds",
          "type": "uint256[]"
        }
      ],
      "name": "createLobby",
      "outputs": [],
      "stateMutability": "nonpayable",
      "type": "function"
    },
    {
      "inputs": [
        {
          "internalType": "address",
          "name": "myAddr",
          "type": "address"
        },
        {
          "internalType": "uint256",
          "name": "capacity",
          "type": "uint256"
        }
      ],
      "name": "getActiveLobbies",
      "outputs": [
        {
          "internalType": "uint256[]",
          "name": "",
          "type": "uint256[]"
        }
      ],
      "stateMutability": "view",
      "type": "function"
    },
    {
      "inputs": [
        {
          "internalType": "uint256",
          "name": "capacity",
          "type": "uint256"
        }
      ],
      "name": "getAllHistory",
      "outputs": [
        {
          "internalType": "uint256[]",
          "name": "",
          "type": "uint256[]"
        }
      ],
      "stateMutability": "view",
      "type": "function"
    },
    {
      "inputs": [
        {
          "internalType": "uint256[]",
          "name": "heroes",
          "type": "uint256[]"
        }
      ],
      "name": "getHeroesPower",
      "outputs": [
        {
          "internalType": "uint256",
          "name": "",
          "type": "uint256"
        }
      ],
      "stateMutability": "view",
      "type": "function"
    },
    {
      "inputs": [
        {
          "internalType": "uint256",
          "name": "lobbyId",
          "type": "uint256"
        }
      ],
      "name": "getLobbyHeroes",
      "outputs": [
        {
          "internalType": "address",
          "name": "",
          "type": "address"
        },
        {
          "internalType": "uint256[]",
          "name": "",
          "type": "uint256[]"
        },
        {
          "internalType": "address",
          "name": "",
          "type": "address"
        },
        {
          "internalType": "uint256[]",
          "name": "",
          "type": "uint256[]"
        }
      ],
      "stateMutability": "view",
      "type": "function"
    },
    {
      "inputs": [
        {
          "internalType": "uint256",
          "name": "lobbyId",
          "type": "uint256"
        }
      ],
      "name": "getLobbyPower",
      "outputs": [
        {
          "internalType": "address",
          "name": "",
          "type": "address"
        },
        {
          "internalType": "uint256",
          "name": "",
          "type": "uint256"
        },
        {
          "internalType": "address",
          "name": "",
          "type": "address"
        },
        {
          "internalType": "uint256",
          "name": "",
          "type": "uint256"
        }
      ],
      "stateMutability": "view",
      "type": "function"
    },
    {
      "inputs": [
        {
          "internalType": "uint256",
          "name": "lobbyId",
          "type": "uint256"
        }
      ],
      "name": "getLobbyPowerRange",
      "outputs": [
        {
          "internalType": "uint256",
          "name": "",
          "type": "uint256"
        },
        {
          "internalType": "uint256",
          "name": "",
          "type": "uint256"
        },
        {
          "internalType": "uint256",
          "name": "",
          "type": "uint256"
        },
        {
          "internalType": "uint256",
          "name": "",
          "type": "uint256"
        }
      ],
      "stateMutability": "view",
      "type": "function"
    },
    {
      "inputs": [
        {
          "internalType": "address",
          "name": "myAddr",
          "type": "address"
        },
        {
          "internalType": "uint256",
          "name": "capacity",
          "type": "uint256"
        }
      ],
      "name": "getMyHistory",
      "outputs": [
        {
          "internalType": "uint256[]",
          "name": "",
          "type": "uint256[]"
        }
      ],
      "stateMutability": "view",
      "type": "function"
    },
    {
      "inputs": [
        {
          "internalType": "address",
          "name": "myAddr",
          "type": "address"
        },
        {
          "internalType": "uint256",
          "name": "capacity",
          "type": "uint256"
        }
      ],
      "name": "getMyLobbies",
      "outputs": [
        {
          "internalType": "uint256[]",
          "name": "",
          "type": "uint256[]"
        }
      ],
      "stateMutability": "view",
      "type": "function"
    },
    {
      "inputs": [
        {
          "internalType": "uint256",
          "name": "lobbyId",
          "type": "uint256"
        },
        {
          "internalType": "address",
          "name": "player",
          "type": "address"
        }
      ],
      "name": "getPlayerHeroesOnLobby",
      "outputs": [
        {
          "internalType": "uint256[]",
          "name": "",
          "type": "uint256[]"
        }
      ],
      "stateMutability": "view",
      "type": "function"
    },
    {
      "inputs": [],
      "name": "heroManager",
      "outputs": [
        {
          "internalType": "contract IHeroManager",
          "name": "",
          "type": "address"
        }
      ],
      "stateMutability": "view",
      "type": "function"
    },
    {
      "inputs": [],
      "name": "heroPowerRange",
      "outputs": [
        {
          "internalType": "uint256",
          "name": "",
          "type": "uint256"
        }
      ],
      "stateMutability": "view",
      "type": "function"
    },
    {
      "inputs": [
        {
          "internalType": "uint256",
          "name": "lobbyId",
          "type": "uint256"
        },
        {
          "internalType": "uint256",
          "name": "minPower",
          "type": "uint256"
        },
        {
          "internalType": "uint256",
          "name": "maxPower",
          "type": "uint256"
        },
        {
          "internalType": "uint256[]",
          "name": "heroIds",
          "type": "uint256[]"
        }
      ],
      "name": "joinLobby",
      "outputs": [],
      "stateMutability": "nonpayable",
      "type": "function"
    },
    {
      "inputs": [
        {
          "internalType": "uint256",
          "name": "",
          "type": "uint256"
        }
      ],
      "name": "lobbies",
      "outputs": [
        {
          "internalType": "bytes32",
          "name": "name",
          "type": "bytes32"
        },
        {
          "internalType": "bytes32",
          "name": "avatar",
          "type": "bytes32"
        },
        {
          "internalType": "address",
          "name": "host",
          "type": "address"
        },
        {
          "internalType": "address",
          "name": "client",
          "type": "address"
        },
        {
          "internalType": "uint256",
          "name": "id",
          "type": "uint256"
        },
        {
          "internalType": "uint256",
          "name": "capacity",
          "type": "uint256"
        },
        {
          "internalType": "uint256",
          "name": "startedAt",
          "type": "uint256"
        },
        {
          "internalType": "uint256",
          "name": "finishedAt",
          "type": "uint256"
        },
        {
          "internalType": "uint256",
          "name": "winner",
          "type": "uint256"
        },
        {
          "internalType": "uint256",
          "name": "fee",
          "type": "uint256"
        },
        {
          "internalType": "uint256",
          "name": "rewards",
          "type": "uint256"
        }
      ],
      "stateMutability": "view",
      "type": "function"
    },
    {
      "inputs": [
        {
          "internalType": "uint256",
          "name": "",
          "type": "uint256"
        }
      ],
      "name": "lobbyFees",
      "outputs": [
        {
          "internalType": "uint256",
          "name": "",
          "type": "uint256"
        }
      ],
      "stateMutability": "view",
      "type": "function"
    },
    {
      "inputs": [
        {
          "internalType": "uint256",
          "name": "",
          "type": "uint256"
        },
        {
          "internalType": "address",
          "name": "",
          "type": "address"
        },
        {
          "internalType": "uint256",
          "name": "",
          "type": "uint256"
        }
      ],
      "name": "lobbyHeroes",
      "outputs": [
        {
          "internalType": "uint256",
          "name": "",
          "type": "uint256"
        }
      ],
      "stateMutability": "view",
      "type": "function"
    },
    {
      "inputs": [
        {
          "internalType": "uint256",
          "name": "",
          "type": "uint256"
        },
        {
          "internalType": "address",
          "name": "",
          "type": "address"
        }
      ],
      "name": "lobbyHeroesCount",
      "outputs": [
        {
          "internalType": "uint256",
          "name": "",
          "type": "uint256"
        }
      ],
      "stateMutability": "view",
      "type": "function"
    },
    {
      "inputs": [
        {
          "internalType": "uint256",
          "name": "",
          "type": "uint256"
        },
        {
          "internalType": "address",
          "name": "",
          "type": "address"
        },
        {
          "internalType": "uint256",
          "name": "",
          "type": "uint256"
        }
      ],
      "name": "lobbyPowers",
      "outputs": [
        {
          "internalType": "uint256",
          "name": "",
          "type": "uint256"
        }
      ],
      "stateMutability": "view",
      "type": "function"
    },
    {
      "inputs": [
        {
          "internalType": "bytes[]",
          "name": "data",
          "type": "bytes[]"
        }
      ],
      "name": "multicall",
      "outputs": [
        {
          "internalType": "bytes[]",
          "name": "results",
          "type": "bytes[]"
        }
      ],
      "stateMutability": "nonpayable",
      "type": "function"
    },
    {
      "inputs": [],
      "name": "nft",
      "outputs": [
        {
          "internalType": "contract IERC721",
          "name": "",
          "type": "address"
        }
      ],
      "stateMutability": "view",
      "type": "function"
    },
    {
      "inputs": [],
      "name": "owner",
      "outputs": [
        {
          "internalType": "address",
          "name": "",
          "type": "address"
        }
      ],
      "stateMutability": "view",
      "type": "function"
    },
    {
      "inputs": [
        {
          "internalType": "address",
          "name": "",
          "type": "address"
        }
      ],
      "name": "playersFees",
      "outputs": [
        {
          "internalType": "uint256",
          "name": "",
          "type": "uint256"
        }
      ],
      "stateMutability": "view",
      "type": "function"
    },
    {
      "inputs": [
        {
          "internalType": "address",
          "name": "",
          "type": "address"
        }
      ],
      "name": "playersRewards",
      "outputs": [
        {
          "internalType": "uint256",
          "name": "",
          "type": "uint256"
        }
      ],
      "stateMutability": "view",
      "type": "function"
    },
    {
      "inputs": [
        {
          "internalType": "uint256",
          "name": "min",
          "type": "uint256"
        },
        {
          "internalType": "uint256",
          "name": "max",
          "type": "uint256"
        }
      ],
      "name": "random",
      "outputs": [
        {
          "internalType": "uint256",
          "name": "",
          "type": "uint256"
        }
      ],
      "stateMutability": "view",
      "type": "function"
    },
    {
      "inputs": [
        {
          "internalType": "address",
          "name": "",
          "type": "address"
        }
      ],
      "name": "registeredPlayers",
      "outputs": [
        {
          "internalType": "bool",
          "name": "",
          "type": "bool"
        }
      ],
      "stateMutability": "view",
      "type": "function"
    },
    {
      "inputs": [],
      "name": "renounceOwnership",
      "outputs": [],
      "stateMutability": "nonpayable",
      "type": "function"
    },
    {
      "inputs": [],
      "name": "rewardsPayeer",
      "outputs": [
        {
          "internalType": "address",
          "name": "",
          "type": "address"
        }
      ],
      "stateMutability": "view",
      "type": "function"
    },
    {
      "inputs": [
        {
          "internalType": "uint256",
          "name": "multiplier",
          "type": "uint256"
        }
      ],
      "name": "setBenefitMultiplier",
      "outputs": [],
      "stateMutability": "nonpayable",
      "type": "function"
    },
    {
      "inputs": [
        {
          "internalType": "address",
          "name": "hmAddr",
          "type": "address"
        }
      ],
      "name": "setHeroManager",
      "outputs": [],
      "stateMutability": "nonpayable",
      "type": "function"
    },
    {
      "inputs": [
        {
          "internalType": "uint256",
          "name": "range",
          "type": "uint256"
        }
      ],
      "name": "setHeroPowerRange",
      "outputs": [],
      "stateMutability": "nonpayable",
      "type": "function"
    },
    {
      "inputs": [
        {
          "internalType": "uint256",
          "name": "capacity",
          "type": "uint256"
        },
        {
          "internalType": "uint256",
          "name": "fee",
          "type": "uint256"
        }
      ],
      "name": "setLobbyFee",
      "outputs": [],
      "stateMutability": "nonpayable",
      "type": "function"
    },
    {
      "inputs": [
        {
          "internalType": "address",
          "name": "payer",
          "type": "address"
        }
      ],
      "name": "setRewardsPayeer",
      "outputs": [],
      "stateMutability": "nonpayable",
      "type": "function"
    },
    {
      "inputs": [],
      "name": "token",
      "outputs": [
        {
          "internalType": "contract IERC20",
          "name": "",
          "type": "address"
        }
      ],
      "stateMutability": "view",
      "type": "function"
    },
    {
      "inputs": [
        {
          "internalType": "address",
          "name": "newOwner",
          "type": "address"
        }
      ],
      "name": "transferOwnership",
      "outputs": [],
      "stateMutability": "nonpayable",
      "type": "function"
    },
    {
      "inputs": [
        {
          "internalType": "uint256",
          "name": "",
          "type": "uint256"
        }
      ],
      "name": "uniquePlayers",
      "outputs": [
        {
          "internalType": "address",
          "name": "",
          "type": "address"
        }
      ],
      "stateMutability": "view",
      "type": "function"
    },
    {
      "inputs": [
        {
          "internalType": "uint256[]",
          "name": "heroIds",
          "type": "uint256[]"
        },
        {
          "internalType": "address",
          "name": "owner",
          "type": "address"
        }
      ],
      "name": "validateHeroIds",
      "outputs": [
        {
          "internalType": "bool",
          "name": "",
          "type": "bool"
        }
      ],
      "stateMutability": "view",
      "type": "function"
    },
    {
      "inputs": [
        {
          "internalType": "address payable",
          "name": "recipient",
          "type": "address"
        }
      ],
      "name": "withdrawDustETH",
      "outputs": [],
      "stateMutability": "nonpayable",
      "type": "function"
    },
    {
      "stateMutability": "payable",
      "type": "receive"
    }
  ],
  "bytecode": "0x6080604052600280546001600160a01b03199081167351624b86523c95175d4b3d145f2ed9f884c683e2179091556003805482167328ee3e2826264b9c55fcdd122dfa93680916c9b817905560048054821673ef5a8af5148a53a4ef4749595fe44e3e08754b8b17905560058054909116730cca7943409260455ceef6be46c69b3fc808e24f17905560fa600655680821ab0d4414980000600755348015620000a757600080fd5b50620000b3336200014a565b601060205269010f0cf064dd592000007f8c6065603763fec3f5742441d3833f3f43b982453612d76adb39a885e3006b5f5569054b40b1f852bda000007fb3edd0d534d647cffdae9f1294f11ad21f3fcf2814bea44c92bbb8d384a57d9e556005600052690a968163f0a57b4000007f61a7346ab5ebdac457db2a901eaf1b805239b6049a1b2f34bab85e2e274f39cb556200019a565b600080546001600160a01b038381166001600160a01b0319831681178455604051919092169283917f8be0079c531659141344cd1fd0a4f28419497f9722a3daafe3b4186f6b6457e09190a35050565b61352d80620001aa6000396000f3fe60806040526004361061021e5760003560e01c80636e8fb4c611610123578063b12f5c57116100ab578063e4118fca1161006f578063e4118fca146107f9578063ed697f3214610819578063f2fde38b14610839578063f8a42d3714610859578063fc0c546a1461090157600080fd5b8063b12f5c571461070a578063b97dcb221461075f578063b9f2d5201461077f578063c8f94270146107ac578063e393c294146107d957600080fd5b8063833588cc116100f2578063833588cc1461065f5780638da5cb5b1461067f578063930613fc1461069d578063a9dd1225146106bd578063ac9650d8146106dd57600080fd5b80636e8fb4c614610513578063715018a6146105f257806372c90ca6146106075780637407fddd1461063f57600080fd5b806338ebed5c116101a657806347ccca021161017557806347ccca02146104565780634bafce22146104765780634d5f80ad146104a65780636bd2dc85146104c65780636dbd07cf146104f357600080fd5b806338ebed5c146103b85780633b8a7a13146103f6578063410a3adc1461041657806345efd7851461043657600080fd5b806316fc989c116101ed57806316fc989c146102eb5780631a42c59b146103295780631deb8c441461034b57806328b11d2314610378578063378cc3471461039857600080fd5b80630152368f1461022a578063047f49911461025f57806307a48c191461028357806311ce406d146102b357600080fd5b3661022557005b600080fd5b34801561023657600080fd5b5061024a610245366004612e1d565b610921565b60405190151581526020015b60405180910390f35b34801561026b57600080fd5b5061027560075481565b604051908152602001610256565b34801561028f57600080fd5b506102a361029e366004612e73565b610a43565b6040516102569493929190612ec7565b3480156102bf57600080fd5b506005546102d3906001600160a01b031681565b6040516001600160a01b039091168152602001610256565b3480156102f757600080fd5b50610275610306366004612f0f565b600c60209081526000938452604080852082529284528284209052825290205481565b34801561033557600080fd5b50610349610344366004612f47565b610a97565b005b34801561035757600080fd5b5061036b610366366004612fa7565b611388565b6040516102569190612fd3565b34801561038457600080fd5b50610349610393366004612e73565b611510565b3480156103a457600080fd5b506103496103b3366004612fe6565b61153f565b3480156103c457600080fd5b506102756103d3366004612f0f565b600e60209081526000938452604080852082529284528284209052825290205481565b34801561040257600080fd5b506002546102d3906001600160a01b031681565b34801561042257600080fd5b50610349610431366004612e73565b61158b565b34801561044257600080fd5b5061036b610451366004612e73565b6115ba565b34801561046257600080fd5b506004546102d3906001600160a01b031681565b34801561048257600080fd5b5061024a610491366004612fe6565b60096020526000908152604090205460ff1681565b3480156104b257600080fd5b5061036b6104c1366004612fa7565b6116ef565b3480156104d257600080fd5b506102756104e1366004612fe6565b600b6020526000908152604090205481565b3480156104ff57600080fd5b5061034961050e366004613003565b611869565b34801561051f57600080fd5b5061059361052e366004612e73565b600f60205260009081526040902080546001820154600283015460038401546004850154600586015460068701546007880154600889015460098a0154600a909a0154989997986001600160a01b03978816989790961696949593949293919290918b565b604080519b8c5260208c019a909a526001600160a01b03988916998b0199909952969095166060890152608088019390935260a087019190915260c086015260e085015261010084015261012083015261014082015261016001610256565b3480156105fe57600080fd5b50610349611de2565b34801561061357600080fd5b50610275610622366004613076565b600d60209081526000928352604080842090915290825290205481565b34801561064b57600080fd5b5061036b61065a366004612fa7565b611e18565b34801561066b57600080fd5b5061034961067a3660046130a6565b611fe0565b34801561068b57600080fd5b506000546001600160a01b03166102d3565b3480156106a957600080fd5b506102d36106b8366004612e73565b61201c565b3480156106c957600080fd5b506102756106d83660046130a6565b612046565b3480156106e957600080fd5b506106fd6106f83660046130c8565b6120d3565b6040516102569190613165565b34801561071657600080fd5b5061072a610725366004612e73565b6121c7565b60405161025694939291906001600160a01b039485168152602081019390935292166040820152606081019190915260800190565b34801561076b57600080fd5b5061036b61077a366004613076565b612386565b34801561078b57600080fd5b5061027561079a366004612e73565b60106020526000908152604090205481565b3480156107b857600080fd5b506102756107c7366004612fe6565b600a6020526000908152604090205481565b3480156107e557600080fd5b506103496107f4366004612fe6565b612457565b34801561080557600080fd5b50610349610814366004612fe6565b6124ba565b34801561082557600080fd5b506102756108343660046131dd565b612506565b34801561084557600080fd5b50610349610854366004612fe6565b6125d2565b34801561086557600080fd5b506108e1610874366004612e73565b6000908152600f602090815260408083206002810154600390910154600e84528285206001600160a01b0392831686528085528386208680528552838620546001808852858820549490931687529085528386208680529094528285205490855291909320549193909190565b604080519485526020850193909352918301526060820152608001610256565b34801561090d57600080fd5b506003546102d3906001600160a01b031681565b6000805b83811015610a36576004546001600160a01b038085169116636352211e8787858181106109545761095461328e565b905060200201356040518263ffffffff1660e01b815260040161097991815260200190565b60206040518083038186803b15801561099157600080fd5b505afa1580156109a5573d6000803e3d6000fd5b505050506040513d601f19601f820116820180604052508101906109c991906132a4565b6001600160a01b031614610a245760405162461bcd60e51b815260206004820152601b60248201527f4c6f626279426174746c653a206e6f74206865726f206f776e6572000000000060448201526064015b60405180910390fd5b80610a2e816132d7565b915050610925565b50600190505b9392505050565b6000818152600f602052604081206002810154600390910154606091839183916001600160a01b03908116911681610a7b8882612386565b82610a868a85612386565b955095509550955050509193509193565b610aa2828233610921565b506000858152600f60205260409020600401548514610b035760405162461bcd60e51b815260206004820181905260248201527f4c6f626279426174746c653a206c6f62627920646f65736e27742065786973746044820152606401610a1b565b6000858152600f60205260409020600501548114610b635760405162461bcd60e51b815260206004820152601960248201527f4c6f626279426174746c653a2077726f6e67206865726f6573000000000000006044820152606401610a1b565b6000610ba183838080602002602001604051908101604052809392919081815260200183836020028082843760009201919091525061250692505050565b9050808511158015610bb35750808410155b8015610bc95750600754610bc786866132f2565b145b610c155760405162461bcd60e51b815260206004820152601e60248201527f4c6f626279426174746c653a2077726f6e6720706f7765722072616e676500006044820152606401610a1b565b6000868152600f602052604090206007015415610c745760405162461bcd60e51b815260206004820152601d60248201527f4c6f626279426174746c653a20616c72656164792066696e69736865640000006044820152606401610a1b565b6000868152600f60209081526040808320600590810154845260109092529182902054600354915492516323b872dd60e01b81523360048201526001600160a01b039384166024820152604481018290529092909116906323b872dd90606401602060405180830381600087803b158015610cee57600080fd5b505af1158015610d02573d6000803e3d6000fd5b505050506040513d601f19601f82011682018060405250810190610d269190613309565b610d725760405162461bcd60e51b815260206004820152601b60248201527f4c6f626279426174746c653a206e6f7420656e6f7567682066656500000000006044820152606401610a1b565b3360009081526009602052604090205460ff16610de4576008805460018181019092557ff3f7a9fe364faab93b216da50a3214154f22a0a2b415b23a84c8169e8b636ee30180546001600160a01b031916339081179091556000908152600960205260409020805460ff191690911790555b336000908152600a602052604081208054839290610e0390849061332b565b90915550506000878152600f602090815260408083206003810180546001600160a01b0319163390811790915542600790920191909155600e83528184209084528252808320838052909152808220889055600182528120869055836001600160401b03811115610e7657610e766131c7565b604051908082528060200260200182016040528015610e9f578160200160208202803683370190505b50905060005b84811015610f4957858582818110610ebf57610ebf61328e565b60008c8152600c60209081526040808320338452808352818420888552835281842094830296909601359093558d8252600f8152828220600201546001600160a01b03168252938452818120858252909352909120548351909150839083908110610f2c57610f2c61328e565b602090810291909101015280610f41816132d7565b915050610ea5565b506000888152600d6020908152604080832033845282528083208790556006548b8452600f8352818420600501548452601090925290912054606491610f8e91613343565b610f989190613378565b6000898152600f60205260409020600a810191909155600501546001141561122b57610ff78186868080602002602001604051908101604052809392919081815260200183836020028082843760009201919091525061266d92505050565b6000898152600f60205260409020600801819055600114156111295760025460405163852eebff60e01b81526001600160a01b039091169063852eebff9061104690849060019060040161338c565b600060405180830381600087803b15801561106057600080fd5b505af1158015611074573d6000803e3d6000fd5b505060025460405163852eebff60e01b81526001600160a01b03909116925063852eebff91506110ad90889088906000906004016133b0565b600060405180830381600087803b1580156110c757600080fd5b505af11580156110db573d6000803e3d6000fd5b5050506000898152600f60209081526040808320600a8101546002909101546001600160a01b03168452600b90925282208054919350919061111e90849061332b565b9091555061122b9050565b60025460405163852eebff60e01b81526001600160a01b039091169063852eebff9061115c90849060009060040161338c565b600060405180830381600087803b15801561117657600080fd5b505af115801561118a573d6000803e3d6000fd5b505060025460405163852eebff60e01b81526001600160a01b03909116925063852eebff91506111c390889088906001906004016133b0565b600060405180830381600087803b1580156111dd57600080fd5b505af11580156111f1573d6000803e3d6000fd5b5050506000898152600f60209081526040808320600a0154338452600b90925282208054919350919061122590849061332b565b90915550505b60035460055460008a8152600f60205260409020600801546001600160a01b03928316926323b872dd92169060011461127e5760008b8152600f60205260409020600301546001600160a01b031661129a565b60008b8152600f60205260409020600201546001600160a01b03165b60008c8152600f602052604090819020600a0154905160e085901b6001600160e01b03191681526001600160a01b0393841660048201529290911660248301526044820152606401602060405180830381600087803b1580156112fc57600080fd5b505af1158015611310573d6000803e3d6000fd5b505050506040513d601f19601f820116820180604052508101906113349190613309565b506000888152600f602052604080822060020154905133926001600160a01b03909216918b917fc77dc6cd4b51c8efc4af40a582ca4cf229fda505a830b4486b200ddcbdb1383f9190a45050505050505050565b6060600060015b6001548111611415576000818152600f60205260409020600701541580156113c757506000818152600f602052604090206005015484145b80156113f057506000818152600f60205260409020600201546001600160a01b03868116911614155b1561140357816113ff816132d7565b9250505b8061140d816132d7565b91505061138f565b50600080826001600160401b03811115611431576114316131c7565b60405190808252806020026020018201604052801561145a578160200160208202803683370190505b50905060015b6001548111611504576000818152600f602052604090206007015415801561149857506000818152600f602052604090206005015486145b80156114c157506000818152600f60205260409020600201546001600160a01b03888116911614155b156114f257808284815181106114d9576114d961328e565b6020908102919091010152826114ee816132d7565b9350505b806114fc816132d7565b915050611460565b50925050505b92915050565b6000546001600160a01b0316331461153a5760405162461bcd60e51b8152600401610a1b906133f9565b600655565b6000546001600160a01b031633146115695760405162461bcd60e51b8152600401610a1b906133f9565b600280546001600160a01b0319166001600160a01b0392909216919091179055565b6000546001600160a01b031633146115b55760405162461bcd60e51b8152600401610a1b906133f9565b600755565b6060600060015b600154811161161f576000818152600f6020526040902060070154158015906115fa57506000818152600f602052604090206005015484145b1561160d5781611609816132d7565b9250505b80611617816132d7565b9150506115c1565b50600080826001600160401b0381111561163b5761163b6131c7565b604051908082528060200260200182016040528015611664578160200160208202803683370190505b50905060015b60015481116116e6576000818152600f6020526040902060070154158015906116a357506000818152600f602052604090206005015486145b156116d457808284815181106116bb576116bb61328e565b6020908102919091010152826116d0816132d7565b9350505b806116de816132d7565b91505061166a565b50949350505050565b6060600060015b600154811161177b576000818152600f602052604090206007015415801561172e57506000818152600f602052604090206005015484145b801561175657506000818152600f60205260409020600201546001600160a01b038681169116145b156117695781611765816132d7565b9250505b80611773816132d7565b9150506116f6565b50600080826001600160401b03811115611797576117976131c7565b6040519080825280602002602001820160405280156117c0578160200160208202803683370190505b50905060015b6001548111611504576000818152600f60205260409020600701541580156117fe57506000818152600f602052604090206005015486145b801561182657506000818152600f60205260409020600201546001600160a01b038881169116145b15611857578082848151811061183e5761183e61328e565b602090810291909101015282611853816132d7565b9350505b80611861816132d7565b9150506117c6565b611874828233610921565b508481146118c45760405162461bcd60e51b815260206004820152601d60248201527f4c6f626279426174746c653a2077726f6e6720706172616d65746572730000006044820152606401610a1b565b600061190283838080602002602001604051908101604052809392919081815260200183836020028082843760009201919091525061250692505050565b90508085111580156119145750808410155b801561192a575060075461192886866132f2565b145b6119765760405162461bcd60e51b815260206004820152601e60248201527f4c6f626279426174746c653a2077726f6e6720706f7765722072616e676500006044820152606401610a1b565b6000868152601060205260409020546119db5760405162461bcd60e51b815260206004820152602160248201527f4c6f626279426174746c653a2077726f6e67206c6f62627920636170616369746044820152607960f81b6064820152608401610a1b565b600354600554600088815260106020526040908190205490516323b872dd60e01b81523360048201526001600160a01b03928316602482015260448101919091529116906323b872dd90606401602060405180830381600087803b158015611a4257600080fd5b505af1158015611a56573d6000803e3d6000fd5b505050506040513d601f19601f82011682018060405250810190611a7a9190613309565b611ac65760405162461bcd60e51b815260206004820152601b60248201527f4c6f626279426174746c653a206e6f7420656e6f7567682066656500000000006044820152606401610a1b565b3360009081526009602052604090205460ff16611b38576008805460018181019092557ff3f7a9fe364faab93b216da50a3214154f22a0a2b415b23a84c8169e8b636ee30180546001600160a01b031916339081179091556000908152600960205260409020805460ff191690911790555b600086815260106020908152604080832054338452600a9092528220805491929091611b6590849061332b565b909155505060018054810190556000611b7d60015490565b905060006040518061016001604052808b81526020018a8152602001336001600160a01b0316815260200160006001600160a01b031681526020018381526020018981526020014281526020016000815260200160008152602001601060008b81526020019081526020016000205481526020016000815250905086600e60008481526020019081526020016000206000336001600160a01b03166001600160a01b0316815260200190815260200160002060008081526020019081526020016000208190555085600e60008481526020019081526020016000206000336001600160a01b03166001600160a01b031681526020019081526020016000206000600181526020019081526020016000208190555080600f6000848152602001908152602001600020600082015181600001556020820151816001015560408201518160020160006101000a8154816001600160a01b0302191690836001600160a01b0316021790555060608201518160030160006101000a8154816001600160a01b0302191690836001600160a01b031602179055506080820151816004015560a0820151816005015560c0820151816006015560e082015181600701556101008201518160080155610120820151816009015561014082015181600a015590505060005b84811015611dba57858582818110611d7c57611d7c61328e565b6000868152600c6020908152604080832033845282528083208784528252909120910292909201359091555080611db2816132d7565b915050611d62565b50506000908152600d6020908152604080832033845290915290209190915550505050505050565b6000546001600160a01b03163314611e0c5760405162461bcd60e51b8152600401610a1b906133f9565b611e166000612c37565b565b6060600060015b6001548111611ecb576000818152600f602052604090206007015415801590611e5857506000818152600f602052604090206005015484145b8015611ea657506000818152600f60205260409020600201546001600160a01b0386811691161480611ea657506000818152600f60205260409020600301546001600160a01b038681169116145b15611eb95781611eb5816132d7565b9250505b80611ec3816132d7565b915050611e1f565b50600080826001600160401b03811115611ee757611ee76131c7565b604051908082528060200260200182016040528015611f10578160200160208202803683370190505b50905060015b6001548111611504576000818152600f602052604090206007015415801590611f4f57506000818152600f602052604090206005015486145b8015611f9d57506000818152600f60205260409020600201546001600160a01b0388811691161480611f9d57506000818152600f60205260409020600301546001600160a01b038881169116145b15611fce5780828481518110611fb557611fb561328e565b602090810291909101015282611fca816132d7565b9350505b80611fd8816132d7565b915050611f16565b6000546001600160a01b0316331461200a5760405162461bcd60e51b8152600401610a1b906133f9565b60009182526010602052604090912055565b6008818154811061202c57600080fd5b6000918252602090912001546001600160a01b0316905081565b60408051446020820152429181019190915233606090811b6bffffffffffffffffffffffff1916908201526074810183905260948101829052600090819060b40160408051601f1981840301815291905280516020909101209050836120ac81856132f2565b6120b790600161332b565b6120c1908361342e565b6120cb919061332b565b949350505050565b6060816001600160401b038111156120ed576120ed6131c7565b60405190808252806020026020018201604052801561212057816020015b606081526020019060019003908161210b5790505b50905060005b828110156121c057612190308585848181106121445761214461328e565b90506020028101906121569190613442565b8080601f016020809104026020016040519081016040528093929190818152602001838380828437600092019190915250612c8792505050565b8282815181106121a2576121a261328e565b602002602001018190525080806121b8906132d7565b915050612126565b5092915050565b6000806000806000806000806121dc89610a43565b935093509350935060008060005b85518110156123735760025486516000916001600160a01b03169063d5c1ed8a9089908590811061221d5761221d61328e565b60200260200101516040518263ffffffff1660e01b815260040161224391815260200190565b60206040518083038186803b15801561225b57600080fd5b505afa15801561226f573d6000803e3d6000fd5b505050506040513d601f19601f820116820180604052508101906122939190613488565b905061229f818561332b565b93506001600160a01b038616156123605760025485516000916001600160a01b03169063d5c1ed8a908890869081106122da576122da61328e565b60200260200101516040518263ffffffff1660e01b815260040161230091815260200190565b60206040518083038186803b15801561231857600080fd5b505afa15801561232c573d6000803e3d6000fd5b505050506040513d601f19601f820116820180604052508101906123509190613488565b905061235c818561332b565b9350505b508061236b816132d7565b9150506121ea565b50949a9099509197509295509350505050565b6000828152600d602090815260408083206001600160a01b0385168452909152812054606091816001600160401b038111156123c4576123c46131c7565b6040519080825280602002602001820160405280156123ed578160200160208202803683370190505b50905060005b828110156116e6576000868152600c602090815260408083206001600160a01b03891684528252808320848452909152902054825183908390811061243a5761243a61328e565b60209081029190910101528061244f816132d7565b9150506123f3565b6000546001600160a01b031633146124815760405162461bcd60e51b8152600401610a1b906133f9565b6040516001600160a01b038216904780156108fc02916000818181858888f193505050501580156124b6573d6000803e3d6000fd5b5050565b6000546001600160a01b031633146124e45760405162461bcd60e51b8152600401610a1b906133f9565b600580546001600160a01b0319166001600160a01b0392909216919091179055565b60008060005b83518110156121c05760025484516001600160a01b039091169063d5c1ed8a9086908490811061253e5761253e61328e565b60200260200101516040518263ffffffff1660e01b815260040161256491815260200190565b60206040518083038186803b15801561257c57600080fd5b505afa158015612590573d6000803e3d6000fd5b505050506040513d601f19601f820116820180604052508101906125b49190613488565b6125be908361332b565b9150806125ca816132d7565b91505061250c565b6000546001600160a01b031633146125fc5760405162461bcd60e51b8152600401610a1b906133f9565b6001600160a01b0381166126615760405162461bcd60e51b815260206004820152602660248201527f4f776e61626c653a206e6577206f776e657220697320746865207a65726f206160448201526564647265737360d01b6064820152608401610a1b565b61266a81612c37565b50565b600080836000815181106126835761268361328e565b602002602001015190506000836000815181106126a2576126a261328e565b6020908102919091010151600254604051636ae0f6c560e11b8152600481018590529192506000916001600160a01b039091169063d5c1ed8a9060240160206040518083038186803b1580156126f757600080fd5b505afa15801561270b573d6000803e3d6000fd5b505050506040513d601f19601f8201168201806040525081019061272f9190613488565b600254604051636ae0f6c560e11b8152600481018590529192506000916001600160a01b039091169063d5c1ed8a9060240160206040518083038186803b15801561277957600080fd5b505afa15801561278d573d6000803e3d6000fd5b505050506040513d601f19601f820116820180604052508101906127b19190613488565b60025460405163f3d1b5ab60e01b8152600481018790529192506000916001600160a01b039091169063f3d1b5ab9060240160206040518083038186803b1580156127fb57600080fd5b505afa15801561280f573d6000803e3d6000fd5b505050506040513d601f19601f820116820180604052508101906128339190613488565b600254604051630a36d40b60e01b8152600481018890529192506000916001600160a01b0390911690630a36d40b9060240160206040518083038186803b15801561287d57600080fd5b505afa158015612891573d6000803e3d6000fd5b505050506040513d601f19601f820116820180604052508101906128b59190613488565b60025460405163f3d1b5ab60e01b8152600481018890529192506000916001600160a01b039091169063f3d1b5ab9060240160206040518083038186803b1580156128ff57600080fd5b505afa158015612913573d6000803e3d6000fd5b505050506040513d601f19601f820116820180604052508101906129379190613488565b600254604051630a36d40b60e01b8152600481018990529192506000916001600160a01b0390911690630a36d40b9060240160206040518083038186803b15801561298157600080fd5b505afa158015612995573d6000803e3d6000fd5b505050506040513d601f19601f820116820180604052508101906129b99190613488565b905081841415612b1a5780831115612a6457848611156129e45760019850505050505050505061150a565b84861415612a285760006129fa60016064612046565b9050603c8111612a16576001995050505050505050505061150a565b6002995050505050505050505061150a565b6000612a3660016064612046565b905060468111612a52576002995050505050505050505061150a565b6001995050505050505050505061150a565b80831415612ac15784861115612a9e576000612a8260016064612046565b905060468111612a16576001995050505050505050505061150a565b84861415612a2857612ab260016002612046565b9850505050505050505061150a565b84861015612ada5760029850505050505050505061150a565b84861415612b0c576000612af060016064612046565b9050603c8111612a52576002995050505050505050505061150a565b6000612a8260016064612046565b80831415612b935784861115612b55576000612b3860016064612046565b90506046811115612a16576001995050505050505050505061150a565b84861415612b6957612ab260016002612046565b6000612b7760016064612046565b905060148111612a16576001995050505050505050505061150a565b80831115612bde5784861115612bb45760019850505050505050505061150a565b6000612bc260016064612046565b905060288111612a16576001995050505050505050505061150a565b84861015612bf75760029850505050505050505061150a565b84861415612c29576000612c0d60016064612046565b9050601e8111612a16576001995050505050505050505061150a565b60006129fa60016064612046565b600080546001600160a01b038381166001600160a01b0319831681178455604051919092169283917f8be0079c531659141344cd1fd0a4f28419497f9722a3daafe3b4186f6b6457e09190a35050565b6060610a3c83836040518060600160405280602781526020016134d16027913960606001600160a01b0384163b612d0f5760405162461bcd60e51b815260206004820152602660248201527f416464726573733a2064656c65676174652063616c6c20746f206e6f6e2d636f6044820152651b9d1c9858dd60d21b6064820152608401610a1b565b600080856001600160a01b031685604051612d2a91906134a1565b600060405180830381855af49150503d8060008114612d65576040519150601f19603f3d011682016040523d82523d6000602084013e612d6a565b606091505b5091509150612d7a828286612d84565b9695505050505050565b60608315612d93575081610a3c565b825115612da35782518084602001fd5b8160405162461bcd60e51b8152600401610a1b91906134bd565b60008083601f840112612dcf57600080fd5b5081356001600160401b03811115612de657600080fd5b6020830191508360208260051b8501011115612e0157600080fd5b9250929050565b6001600160a01b038116811461266a57600080fd5b600080600060408486031215612e3257600080fd5b83356001600160401b03811115612e4857600080fd5b612e5486828701612dbd565b9094509250506020840135612e6881612e08565b809150509250925092565b600060208284031215612e8557600080fd5b5035919050565b600081518084526020808501945080840160005b83811015612ebc57815187529582019590820190600101612ea0565b509495945050505050565b600060018060a01b03808716835260806020840152612ee96080840187612e8c565b81861660408501528381036060850152612f038186612e8c565b98975050505050505050565b600080600060608486031215612f2457600080fd5b833592506020840135612f3681612e08565b929592945050506040919091013590565b600080600080600060808688031215612f5f57600080fd5b85359450602086013593506040860135925060608601356001600160401b03811115612f8a57600080fd5b612f9688828901612dbd565b969995985093965092949392505050565b60008060408385031215612fba57600080fd5b8235612fc581612e08565b946020939093013593505050565b602081526000610a3c6020830184612e8c565b600060208284031215612ff857600080fd5b8135610a3c81612e08565b600080600080600080600060c0888a03121561301e57600080fd5b873596506020880135955060408801359450606088013593506080880135925060a08801356001600160401b0381111561305757600080fd5b6130638a828b01612dbd565b989b979a50959850939692959293505050565b6000806040838503121561308957600080fd5b82359150602083013561309b81612e08565b809150509250929050565b600080604083850312156130b957600080fd5b50508035926020909101359150565b600080602083850312156130db57600080fd5b82356001600160401b038111156130f157600080fd5b6130fd85828601612dbd565b90969095509350505050565b60005b8381101561312457818101518382015260200161310c565b83811115613133576000848401525b50505050565b60008151808452613151816020860160208601613109565b601f01601f19169290920160200192915050565b6000602080830181845280855180835260408601915060408160051b870101925083870160005b828110156131ba57603f198886030184526131a8858351613139565b9450928501929085019060010161318c565b5092979650505050505050565b634e487b7160e01b600052604160045260246000fd5b600060208083850312156131f057600080fd5b82356001600160401b038082111561320757600080fd5b818501915085601f83011261321b57600080fd5b81358181111561322d5761322d6131c7565b8060051b604051601f19603f83011681018181108582111715613252576132526131c7565b60405291825284820192508381018501918883111561327057600080fd5b938501935b82851015612f0357843584529385019392850192613275565b634e487b7160e01b600052603260045260246000fd5b6000602082840312156132b657600080fd5b8151610a3c81612e08565b634e487b7160e01b600052601160045260246000fd5b60006000198214156132eb576132eb6132c1565b5060010190565b600082821015613304576133046132c1565b500390565b60006020828403121561331b57600080fd5b81518015158114610a3c57600080fd5b6000821982111561333e5761333e6132c1565b500190565b600081600019048311821515161561335d5761335d6132c1565b500290565b634e487b7160e01b600052601260045260246000fd5b60008261338757613387613362565b500490565b60408152600061339f6040830185612e8c565b905082151560208301529392505050565b6040808252810183905260006001600160fb1b038411156133d057600080fd5b8360051b8086606085013760009083016060019081529215156020909201919091525092915050565b6020808252818101527f4f776e61626c653a2063616c6c6572206973206e6f7420746865206f776e6572604082015260600190565b60008261343d5761343d613362565b500690565b6000808335601e1984360301811261345957600080fd5b8301803591506001600160401b0382111561347357600080fd5b602001915036819003821315612e0157600080fd5b60006020828403121561349a57600080fd5b5051919050565b600082516134b3818460208701613109565b9190910192915050565b602081526000610a3c602083018461313956fe416464726573733a206c6f772d6c6576656c2064656c65676174652063616c6c206661696c6564a2646970667358221220248ed3e17b47f756071bbec4af7ec109727f310174211884f16504306930ea7e64736f6c63430008090033",
  "linkReferences": {},
  "deployedLinkReferences": {}
}