{
  "_format": "hh-sol-artifact-1",
  "contractName": "LobbyBattle",
  "sourceName": "contracts/game/LobbyBattle.sol",
  "abi": [
    {
      "inputs": [
        {
          "internalType": "address",
          "name": "heroManagerAddress",
          "type": "address"
        }
      ],
      "stateMutability": "nonpayable",
      "type": "constructor"
    },
    {
      "anonymous": false,
      "inputs": [
        {
          "indexed": true,
          "internalType": "address",
          "name": "previousOwner",
          "type": "address"
        },
        {
          "indexed": true,
          "internalType": "address",
          "name": "newOwner",
          "type": "address"
        }
      ],
      "name": "OwnershipTransferred",
      "type": "event"
    },
    {
      "inputs": [
        {
          "internalType": "uint256",
          "name": "capacity",
          "type": "uint256"
        },
        {
          "internalType": "uint256[]",
          "name": "heroIds",
          "type": "uint256[]"
        }
      ],
      "name": "createLobby",
      "outputs": [],
      "stateMutability": "nonpayable",
      "type": "function"
    },
    {
      "inputs": [
        {
          "internalType": "address",
          "name": "account",
          "type": "address"
        },
        {
          "internalType": "uint256",
          "name": "hostOrClient",
          "type": "uint256"
        },
        {
          "internalType": "uint256",
          "name": "runningOrDone",
          "type": "uint256"
        }
      ],
      "name": "getLobbies",
      "outputs": [
        {
          "internalType": "uint256[]",
          "name": "",
          "type": "uint256[]"
        }
      ],
      "stateMutability": "view",
      "type": "function"
    },
    {
      "inputs": [],
      "name": "heroManager",
      "outputs": [
        {
          "internalType": "contract IHeroManager",
          "name": "",
          "type": "address"
        }
      ],
      "stateMutability": "view",
      "type": "function"
    },
    {
      "inputs": [
        {
          "internalType": "uint256",
          "name": "lobbyId",
          "type": "uint256"
        },
        {
          "internalType": "uint256[]",
          "name": "heroIds",
          "type": "uint256[]"
        }
      ],
      "name": "joinLobby",
      "outputs": [],
      "stateMutability": "nonpayable",
      "type": "function"
    },
    {
      "inputs": [
        {
          "internalType": "uint256",
          "name": "",
          "type": "uint256"
        }
      ],
      "name": "lobbies",
      "outputs": [
        {
          "internalType": "uint256",
          "name": "id",
          "type": "uint256"
        },
        {
          "internalType": "address",
          "name": "host",
          "type": "address"
        },
        {
          "internalType": "address",
          "name": "client",
          "type": "address"
        },
        {
          "internalType": "uint256",
          "name": "capacity",
          "type": "uint256"
        },
        {
          "internalType": "uint256",
          "name": "startedAt",
          "type": "uint256"
        },
        {
          "internalType": "uint256",
          "name": "finishedAt",
          "type": "uint256"
        },
        {
          "internalType": "uint256",
          "name": "winner",
          "type": "uint256"
        }
      ],
      "stateMutability": "view",
      "type": "function"
    },
    {
      "inputs": [
        {
          "internalType": "uint256",
          "name": "",
          "type": "uint256"
        },
        {
          "internalType": "address",
          "name": "",
          "type": "address"
        }
      ],
      "name": "lobbiesRefreshed",
      "outputs": [
        {
          "internalType": "uint256",
          "name": "updatedAt",
          "type": "uint256"
        },
        {
          "internalType": "uint256",
          "name": "limit",
          "type": "uint256"
        }
      ],
      "stateMutability": "view",
      "type": "function"
    },
    {
      "inputs": [
        {
          "internalType": "uint256",
          "name": "",
          "type": "uint256"
        }
      ],
      "name": "lobbyFees",
      "outputs": [
        {
          "internalType": "uint256",
          "name": "",
          "type": "uint256"
        }
      ],
      "stateMutability": "view",
      "type": "function"
    },
    {
      "inputs": [
        {
          "internalType": "bytes[]",
          "name": "data",
          "type": "bytes[]"
        }
      ],
      "name": "multicall",
      "outputs": [
        {
          "internalType": "bytes[]",
          "name": "results",
          "type": "bytes[]"
        }
      ],
      "stateMutability": "nonpayable",
      "type": "function"
    },
    {
      "inputs": [],
      "name": "nft",
      "outputs": [
        {
          "internalType": "contract IERC721",
          "name": "",
          "type": "address"
        }
      ],
      "stateMutability": "view",
      "type": "function"
    },
    {
      "inputs": [],
      "name": "owner",
      "outputs": [
        {
          "internalType": "address",
          "name": "",
          "type": "address"
        }
      ],
      "stateMutability": "view",
      "type": "function"
    },
    {
      "inputs": [
        {
          "internalType": "uint256",
          "name": "min",
          "type": "uint256"
        },
        {
          "internalType": "uint256",
          "name": "max",
          "type": "uint256"
        }
      ],
      "name": "random",
      "outputs": [
        {
          "internalType": "uint256",
          "name": "",
          "type": "uint256"
        }
      ],
      "stateMutability": "view",
      "type": "function"
    },
    {
      "inputs": [],
      "name": "renounceOwnership",
      "outputs": [],
      "stateMutability": "nonpayable",
      "type": "function"
    },
    {
      "inputs": [],
      "name": "rewardsPayeer",
      "outputs": [
        {
          "internalType": "address",
          "name": "",
          "type": "address"
        }
      ],
      "stateMutability": "view",
      "type": "function"
    },
    {
      "inputs": [
        {
          "internalType": "address",
          "name": "payer",
          "type": "address"
        }
      ],
      "name": "setRewardsPayeer",
      "outputs": [],
      "stateMutability": "nonpayable",
      "type": "function"
    },
    {
      "inputs": [],
      "name": "token",
      "outputs": [
        {
          "internalType": "contract IERC20",
          "name": "",
          "type": "address"
        }
      ],
      "stateMutability": "view",
      "type": "function"
    },
    {
      "inputs": [
        {
          "internalType": "address",
          "name": "newOwner",
          "type": "address"
        }
      ],
      "name": "transferOwnership",
      "outputs": [],
      "stateMutability": "nonpayable",
      "type": "function"
    },
    {
      "inputs": [
        {
          "internalType": "uint256[]",
          "name": "heroIds",
          "type": "uint256[]"
        }
      ],
      "name": "validateHeroIds",
      "outputs": [],
      "stateMutability": "view",
      "type": "function"
    }
  ],
  "bytecode": "0x608060405260fa6006553480156200001657600080fd5b50604051620022f4380380620022f483398101604081905262000039916200014b565b6200004433620000fb565b600280546001600160a01b0319166001600160a01b0392909216919091179055600860205269010f0cf064dd592000007fad67d757c34507f157cacfa2e3153e9f260a2244f30428821be7be64587ac55f5569054b40b1f852bda000007f625b35f5e76f098dd7c3a05b10e2e5e78a4a01228d60c3b143426cdf36d26455556005600052690a968163f0a57b4000007f91238f30f286c9a1c6e901c4eda3b214c381c846e3dbe48df95c21488e8e1fdb556200017d565b600080546001600160a01b038381166001600160a01b0319831681178455604051919092169283917f8be0079c531659141344cd1fd0a4f28419497f9722a3daafe3b4186f6b6457e09190a35050565b6000602082840312156200015e57600080fd5b81516001600160a01b03811681146200017657600080fd5b9392505050565b612167806200018d6000396000f3fe608060405234801561001057600080fd5b506004361061010a5760003560e01c806377cb47bf116100a2578063b5f5d2a511610071578063b5f5d2a5146102e6578063b9f2d520146102f9578063e4118fca14610319578063f2fde38b1461032c578063fc0c546a1461033f57600080fd5b806377cb47bf1461024d5780638da5cb5b14610294578063a9dd1225146102a5578063ac9650d8146102c657600080fd5b806347ccca02116100de57806347ccca02146101875780636e8fb4c61461019a578063715018a6146102325780637675e0e01461023a57600080fd5b8062c8bd7e1461010f57806311ce406d1461012457806331c7faa2146101545780633b8a7a1314610174575b600080fd5b61012261011d366004611c80565b610352565b005b600554610137906001600160a01b031681565b6040516001600160a01b0390911681526020015b60405180910390f35b610167610162366004611ce1565b610a3b565b60405161014b9190611d16565b600254610137906001600160a01b031681565b600454610137906001600160a01b031681565b6101f16101a8366004611d5a565b600960205260009081526040902080546001820154600283015460038401546006850154600786015460089096015494956001600160a01b039485169594909316939192909187565b604080519788526001600160a01b03968716602089015294909516938601939093526060850191909152608084015260a083015260c082015260e00161014b565b610122610dca565b610122610248366004611c80565b610e00565b61027f61025b366004611d73565b60076020908152600092835260408084209091529082529020805460019091015482565b6040805192835260208301919091520161014b565b6000546001600160a01b0316610137565b6102b86102b3366004611da3565b611107565b60405190815260200161014b565b6102d96102d4366004611dc5565b611196565b60405161014b9190611e63565b6101226102f4366004611dc5565b61128b565b6102b8610307366004611d5a565b60086020526000908152604090205481565b610122610327366004611ec5565b61139d565b61012261033a366004611ec5565b6113e9565b600354610137906001600160a01b031681565b60008381526009602090815260408083208151610120810183528154815260018201546001600160a01b039081168286015260028301541681840152600382015460608201526004820180548451818702810187019095528085529194929360808601939092908301828280156103e857602002820191906000526020600020905b8154815260200190600101908083116103d4575b505050505081526020016005820180548060200260200160405190810160405280929190818152602001828054801561044057602002820191906000526020600020905b81548152602001906001019080831161042c575b5050505050815260200160068201548152602001600782015481526020016008820154815250509050838160000151146104c15760405162461bcd60e51b815260206004820181905260248201527f4c6f626279426174746c653a206c6f62627920646f65736e277420657869737460448201526064015b60405180910390fd5b606081015182146105145760405162461bcd60e51b815260206004820152601960248201527f4c6f626279426174746c653a2077726f6e67206865726f65730000000000000060448201526064016104b8565b60e0810151156105665760405162461bcd60e51b815260206004820152601d60248201527f4c6f626279426174746c653a20616c72656164792066696e697368656400000060448201526064016104b8565b6003546005546060830151600090815260086020526040908190205490516323b872dd60e01b81523360048201526001600160a01b03928316602482015260448101919091529116906323b872dd90606401602060405180830381600087803b1580156105d257600080fd5b505af11580156105e6573d6000803e3d6000fd5b505050506040513d601f19601f8201168201806040525081019061060a9190611ee2565b6106565760405162461bcd60e51b815260206004820152601b60248201527f4c6f626279426174746c653a206e6f7420656e6f75676820666565000000000060448201526064016104b8565b610660838361128b565b3360408201524260e0820152606081015160011415610862576106ba816080015184848080602002602001604051908101604052809392919081815260200183836020028082843760009201919091525061148492505050565b6101008201819052600114156107985760025460808201516040516319b0803560e31b81526001600160a01b039092169163cd8401a8916106fd91600401611d16565b600060405180830381600087803b15801561071757600080fd5b505af115801561072b573d6000803e3d6000fd5b50506002546040516347f8f4c760e11b81526001600160a01b039091169250638ff1e98e91506107619086908690600401611f04565b600060405180830381600087803b15801561077b57600080fd5b505af115801561078f573d6000803e3d6000fd5b50505050610862565b60025460808201516040516347f8f4c760e11b81526001600160a01b0390921691638ff1e98e916107cb91600401611d16565b600060405180830381600087803b1580156107e557600080fd5b505af11580156107f9573d6000803e3d6000fd5b50506002546040516319b0803560e31b81526001600160a01b03909116925063cd8401a8915061082f9086908690600401611f04565b600060405180830381600087803b15801561084957600080fd5b505af115801561085d573d6000803e3d6000fd5b505050505b828280806020026020016040519081016040528093929190818152602001838360200280828437600092018290525060a08601949094525050508481526009602090815260409182902083518155818401516001820180546001600160a01b03199081166001600160a01b039384161790915593850151600283018054909516911617909255606083015160038301556080830151805184939261090d926004850192910190611bd4565b5060a08201518051610929916005840191602090910190611bd4565b5060c0820151600682015560e0820151600782015561010091820151600890910155600354600554918301516001600160a01b03918216926323b872dd92169060011461097a578360400151610980565b83602001515b60065460608601516000908152600860205260409020546064916109a391611f56565b6109ad9190611f8b565b6040516001600160e01b031960e086901b1681526001600160a01b0393841660048201529290911660248301526044820152606401602060405180830381600087803b1580156109fc57600080fd5b505af1158015610a10573d6000803e3d6000fd5b505050506040513d601f19601f82011682018060405250810190610a349190611ee2565b5050505050565b60608083610b5d57600060015b6001548111610b565784610a84578083610a63600183611f9f565b81518110610a7357610a73611fb6565b602002602001018181525050610b44565b8460011415610ae45760008181526009602052604090206006015415801590610abc5750600081815260096020526040902060070154155b15610adf57808383610acd81611fcc565b945081518110610a7357610a73611fb6565b610b44565b60008181526009602052604090206006015415801590610b14575060008181526009602052604090206007015415155b15610b4457808383610b2581611fcc565b945081518110610b3757610b37611fb6565b6020026020010181815250505b80610b4e81611fcc565b915050610a48565b5050610dc0565b8360011415610c8d57600060015b6001548111610b56576000818152600960205260409020600101546001600160a01b0388811691161415610c7b5784610bcd57808383610baa81611fcc565b945081518110610bbc57610bbc611fb6565b602002602001018181525050610c7b565b8460011415610c1b5760008181526009602052604090206006015415801590610c055750600081815260096020526040902060070154155b15610c1657808383610baa81611fcc565b610c7b565b60008181526009602052604090206006015415801590610c4b575060008181526009602052604090206007015415155b15610c7b57808383610c5c81611fcc565b945081518110610c6e57610c6e611fb6565b6020026020010181815250505b80610c8581611fcc565b915050610b6b565b8360021415610dc057600060015b6001548111610dbd576000818152600960205260409020600201546001600160a01b0388811691161415610dab5784610cfd57808383610cda81611fcc565b945081518110610cec57610cec611fb6565b602002602001018181525050610dab565b8460011415610d4b5760008181526009602052604090206006015415801590610d355750600081815260096020526040902060070154155b15610d4657808383610cda81611fcc565b610dab565b60008181526009602052604090206006015415801590610d7b575060008181526009602052604090206007015415155b15610dab57808383610d8c81611fcc565b945081518110610d9e57610d9e611fb6565b6020026020010181815250505b80610db581611fcc565b915050610c9b565b50505b90505b9392505050565b6000546001600160a01b03163314610df45760405162461bcd60e51b81526004016104b890611fe7565b610dfe6000611a4e565b565b610e0a828261128b565b828114610e595760405162461bcd60e51b815260206004820152601d60248201527f4c6f626279426174746c653a2077726f6e6720706172616d657465727300000060448201526064016104b8565b600083815260086020526040902054610ebe5760405162461bcd60e51b815260206004820152602160248201527f4c6f626279426174746c653a2077726f6e67206c6f62627920636170616369746044820152607960f81b60648201526084016104b8565b600354600084815260086020526040908190205490516323b872dd60e01b815233600482015230602482015260448101919091526001600160a01b03909116906323b872dd90606401602060405180830381600087803b158015610f2157600080fd5b505af1158015610f35573d6000803e3d6000fd5b505050506040513d601f19601f82011682018060405250810190610f599190611ee2565b610fa55760405162461bcd60e51b815260206004820152601b60248201527f4c6f626279426174746c653a206e6f7420656e6f75676820666565000000000060448201526064016104b8565b6060610fb5600180546001019055565b6000610fc060015490565b90506000604051806101200160405280838152602001336001600160a01b0316815260200160006001600160a01b03168152602001878152602001868680806020026020016040519081016040528093929190818152602001838360200280828437600092018290525093855250505060208083018790524260408085019190915260608085018490526080948501849052878452600983529281902085518155858301516001820180546001600160a01b03199081166001600160a01b039384161790915592870151600283018054909416911617909155918401516003830155918301518051939450849391926110c192600485019290910190611bd4565b5060a082015180516110dd916005840191602090910190611bd4565b5060c0820151600682015560e0820151600782015561010090910151600890910155505050505050565b60408051446020820152429181019190915233606090811b6bffffffffffffffffffffffff1916908201526074810183905260948101829052600090819060b40160408051601f19818403018152919052805160209091012090508361116d8185611f9f565b61117890600161201c565b6111829083612034565b61118c919061201c565b9150505b92915050565b60608167ffffffffffffffff8111156111b1576111b1612048565b6040519080825280602002602001820160405280156111e457816020015b60608152602001906001900390816111cf5790505b50905060005b82811015611284576112543085858481811061120857611208611fb6565b905060200281019061121a919061205e565b8080601f016020809104026020016040519081016040528093929190818152602001838380828437600092019190915250611a9e92505050565b82828151811061126657611266611fb6565b6020026020010181905250808061127c90611fcc565b9150506111ea565b5092915050565b60005b818110156113985760045433906001600160a01b0316636352211e8585858181106112bb576112bb611fb6565b905060200201356040518263ffffffff1660e01b81526004016112e091815260200190565b60206040518083038186803b1580156112f857600080fd5b505afa15801561130c573d6000803e3d6000fd5b505050506040513d601f19601f8201168201806040525081019061133091906120a5565b6001600160a01b0316146113865760405162461bcd60e51b815260206004820152601b60248201527f4c6f626279426174746c653a206e6f74206865726f206f776e6572000000000060448201526064016104b8565b8061139081611fcc565b91505061128e565b505050565b6000546001600160a01b031633146113c75760405162461bcd60e51b81526004016104b890611fe7565b600580546001600160a01b0319166001600160a01b0392909216919091179055565b6000546001600160a01b031633146114135760405162461bcd60e51b81526004016104b890611fe7565b6001600160a01b0381166114785760405162461bcd60e51b815260206004820152602660248201527f4f776e61626c653a206e6577206f776e657220697320746865207a65726f206160448201526564647265737360d01b60648201526084016104b8565b61148181611a4e565b50565b6000808360008151811061149a5761149a611fb6565b602002602001015190506000836000815181106114b9576114b9611fb6565b6020908102919091010151600254604051636ae0f6c560e11b8152600481018590529192506000916001600160a01b039091169063d5c1ed8a9060240160206040518083038186803b15801561150e57600080fd5b505afa158015611522573d6000803e3d6000fd5b505050506040513d601f19601f8201168201806040525081019061154691906120c2565b600254604051636ae0f6c560e11b8152600481018590529192506000916001600160a01b039091169063d5c1ed8a9060240160206040518083038186803b15801561159057600080fd5b505afa1580156115a4573d6000803e3d6000fd5b505050506040513d601f19601f820116820180604052508101906115c891906120c2565b60025460405163f3d1b5ab60e01b8152600481018790529192506000916001600160a01b039091169063f3d1b5ab9060240160206040518083038186803b15801561161257600080fd5b505afa158015611626573d6000803e3d6000fd5b505050506040513d601f19601f8201168201806040525081019061164a91906120c2565b600254604051630a36d40b60e01b8152600481018890529192506000916001600160a01b0390911690630a36d40b9060240160206040518083038186803b15801561169457600080fd5b505afa1580156116a8573d6000803e3d6000fd5b505050506040513d601f19601f820116820180604052508101906116cc91906120c2565b60025460405163f3d1b5ab60e01b8152600481018890529192506000916001600160a01b039091169063f3d1b5ab9060240160206040518083038186803b15801561171657600080fd5b505afa15801561172a573d6000803e3d6000fd5b505050506040513d601f19601f8201168201806040525081019061174e91906120c2565b600254604051630a36d40b60e01b8152600481018990529192506000916001600160a01b0390911690630a36d40b9060240160206040518083038186803b15801561179857600080fd5b505afa1580156117ac573d6000803e3d6000fd5b505050506040513d601f19601f820116820180604052508101906117d091906120c2565b905081841415611931578083111561187b57848611156117fb57600198505050505050505050611190565b8486141561183f57600061181160016064611107565b9050603c811161182d5760019950505050505050505050611190565b60029950505050505050505050611190565b600061184d60016064611107565b9050604681116118695760029950505050505050505050611190565b60019950505050505050505050611190565b808314156118d857848611156118b557600061189960016064611107565b90506046811161182d5760019950505050505050505050611190565b8486141561183f576118c960016002611107565b98505050505050505050611190565b848610156118f157600298505050505050505050611190565b8486141561192357600061190760016064611107565b9050603c81116118695760029950505050505050505050611190565b600061189960016064611107565b808314156119aa578486111561196c57600061194f60016064611107565b9050604681111561182d5760019950505050505050505050611190565b84861415611980576118c960016002611107565b600061198e60016064611107565b90506014811161182d5760019950505050505050505050611190565b808311156119f557848611156119cb57600198505050505050505050611190565b60006119d960016064611107565b90506028811161182d5760019950505050505050505050611190565b84861015611a0e57600298505050505050505050611190565b84861415611a40576000611a2460016064611107565b9050601e811161182d5760019950505050505050505050611190565b600061181160016064611107565b600080546001600160a01b038381166001600160a01b0319831681178455604051919092169283917f8be0079c531659141344cd1fd0a4f28419497f9722a3daafe3b4186f6b6457e09190a35050565b6060610dc3838360405180606001604052806027815260200161210b6027913960606001600160a01b0384163b611b265760405162461bcd60e51b815260206004820152602660248201527f416464726573733a2064656c65676174652063616c6c20746f206e6f6e2d636f6044820152651b9d1c9858dd60d21b60648201526084016104b8565b600080856001600160a01b031685604051611b4191906120db565b600060405180830381855af49150503d8060008114611b7c576040519150601f19603f3d011682016040523d82523d6000602084013e611b81565b606091505b5091509150611b91828286611b9b565b9695505050505050565b60608315611baa575081610dc3565b825115611bba5782518084602001fd5b8160405162461bcd60e51b81526004016104b891906120f7565b828054828255906000526020600020908101928215611c0f579160200282015b82811115611c0f578251825591602001919060010190611bf4565b50611c1b929150611c1f565b5090565b5b80821115611c1b5760008155600101611c20565b60008083601f840112611c4657600080fd5b50813567ffffffffffffffff811115611c5e57600080fd5b6020830191508360208260051b8501011115611c7957600080fd5b9250929050565b600080600060408486031215611c9557600080fd5b83359250602084013567ffffffffffffffff811115611cb357600080fd5b611cbf86828701611c34565b9497909650939450505050565b6001600160a01b038116811461148157600080fd5b600080600060608486031215611cf657600080fd5b8335611d0181611ccc565b95602085013595506040909401359392505050565b6020808252825182820181905260009190848201906040850190845b81811015611d4e57835183529284019291840191600101611d32565b50909695505050505050565b600060208284031215611d6c57600080fd5b5035919050565b60008060408385031215611d8657600080fd5b823591506020830135611d9881611ccc565b809150509250929050565b60008060408385031215611db657600080fd5b50508035926020909101359150565b60008060208385031215611dd857600080fd5b823567ffffffffffffffff811115611def57600080fd5b611dfb85828601611c34565b90969095509350505050565b60005b83811015611e22578181015183820152602001611e0a565b83811115611e31576000848401525b50505050565b60008151808452611e4f816020860160208601611e07565b601f01601f19169290920160200192915050565b6000602080830181845280855180835260408601915060408160051b870101925083870160005b82811015611eb857603f19888603018452611ea6858351611e37565b94509285019290850190600101611e8a565b5092979650505050505050565b600060208284031215611ed757600080fd5b8135610dc381611ccc565b600060208284031215611ef457600080fd5b81518015158114610dc357600080fd5b6020808252810182905260006001600160fb1b03831115611f2457600080fd5b8260051b80856040850137600092016040019182525092915050565b634e487b7160e01b600052601160045260246000fd5b6000816000190483118215151615611f7057611f70611f40565b500290565b634e487b7160e01b600052601260045260246000fd5b600082611f9a57611f9a611f75565b500490565b600082821015611fb157611fb1611f40565b500390565b634e487b7160e01b600052603260045260246000fd5b6000600019821415611fe057611fe0611f40565b5060010190565b6020808252818101527f4f776e61626c653a2063616c6c6572206973206e6f7420746865206f776e6572604082015260600190565b6000821982111561202f5761202f611f40565b500190565b60008261204357612043611f75565b500690565b634e487b7160e01b600052604160045260246000fd5b6000808335601e1984360301811261207557600080fd5b83018035915067ffffffffffffffff82111561209057600080fd5b602001915036819003821315611c7957600080fd5b6000602082840312156120b757600080fd5b8151610dc381611ccc565b6000602082840312156120d457600080fd5b5051919050565b600082516120ed818460208701611e07565b9190910192915050565b602081526000610dc36020830184611e3756fe416464726573733a206c6f772d6c6576656c2064656c65676174652063616c6c206661696c6564a2646970667358221220c6902e0d926cc94aa937413733521bcba192d1acc57203151b82d6401fa8bd8864736f6c63430008090033",
  "linkReferences": {},
  "deployedLinkReferences": {}
}