{
  "_format": "hh-sol-artifact-1",
  "contractName": "Randomness",
  "sourceName": "contracts/game/Randomness.sol",
  "abi": [
    {
      "inputs": [
        {
          "internalType": "uint256",
          "name": "min",
          "type": "uint256"
        },
        {
          "internalType": "uint256",
          "name": "max",
          "type": "uint256"
        }
      ],
      "name": "random",
      "outputs": [
        {
          "internalType": "uint256",
          "name": "",
          "type": "uint256"
        }
      ],
      "stateMutability": "view",
      "type": "function"
    }
  ],
  "bytecode": "0x608060405234801561001057600080fd5b506101c4806100206000396000f3fe608060405234801561001057600080fd5b506004361061002b5760003560e01c8063a9dd122514610030575b600080fd5b61004361003e366004610105565b610055565b60405190815260200160405180910390f35b6000808383336000356001600160e01b0319165a6040805160208101969096528501939093526bffffffffffffffffffffffff19606092831b16918401919091526001600160e01b031916607483015260788201524460988201524260b882015260d80160408051601f1981840301815291905280516020909101209050836100de818561013d565b6100e9906001610154565b6100f3908361016c565b6100fd9190610154565b949350505050565b6000806040838503121561011857600080fd5b50508035926020909101359150565b634e487b7160e01b600052601160045260246000fd5b60008282101561014f5761014f610127565b500390565b6000821982111561016757610167610127565b500190565b60008261018957634e487b7160e01b600052601260045260246000fd5b50069056fea2646970667358221220a2572abba19b73e91abf11506eae740ccc3629aed678a7773c88864eadc2372b64736f6c63430008090033",
  "linkReferences": {},
  "deployedLinkReferences": {}
}