{
  "_format": "hh-sol-artifact-1",
  "contractName": "Randomness",
  "sourceName": "contracts/game/Randomness.sol",
  "abi": [
    {
      "inputs": [
        {
          "internalType": "uint256",
          "name": "min",
          "type": "uint256"
        },
        {
          "internalType": "uint256",
          "name": "max",
          "type": "uint256"
        }
      ],
      "name": "random",
      "outputs": [
        {
          "internalType": "uint256",
          "name": "",
          "type": "uint256"
        }
      ],
      "stateMutability": "view",
      "type": "function"
    }
  ],
  "bytecode": "0x608060405234801561001057600080fd5b506101a1806100206000396000f3fe608060405234801561001057600080fd5b506004361061002b5760003560e01c8063a9dd122514610030575b600080fd5b61004361003e3660046100e2565b610055565b60405190815260200160405180910390f35b60408051446020820152429181019190915233606090811b6bffffffffffffffffffffffff1916908201526074810183905260948101829052600090819060b40160408051601f1981840301815291905280516020909101209050836100bb818561011a565b6100c6906001610131565b6100d09083610149565b6100da9190610131565b949350505050565b600080604083850312156100f557600080fd5b50508035926020909101359150565b634e487b7160e01b600052601160045260246000fd5b60008282101561012c5761012c610104565b500390565b6000821982111561014457610144610104565b500190565b60008261016657634e487b7160e01b600052601260045260246000fd5b50069056fea2646970667358221220a4d8414a829bd8d1d7e81f6f880c29a60d0e560b447ea3dab41d38672f8eb8c364736f6c63430008090033",
  "linkReferences": {},
  "deployedLinkReferences": {}
}