{
  "_format": "hh-sol-artifact-1",
  "contractName": "TokenGovernor",
  "sourceName": "contracts/TokenGovernor.sol",
  "abi": [
    {
      "inputs": [
        {
          "internalType": "uint256",
          "name": "minDelay",
          "type": "uint256"
        },
        {
          "internalType": "address[]",
          "name": "proposers",
          "type": "address[]"
        },
        {
          "internalType": "address[]",
          "name": "executors",
          "type": "address[]"
        }
      ],
      "stateMutability": "nonpayable",
      "type": "constructor"
    },
    {
      "anonymous": false,
      "inputs": [
        {
          "indexed": true,
          "internalType": "bytes32",
          "name": "id",
          "type": "bytes32"
        },
        {
          "indexed": true,
          "internalType": "uint256",
          "name": "index",
          "type": "uint256"
        },
        {
          "indexed": false,
          "internalType": "address",
          "name": "target",
          "type": "address"
        },
        {
          "indexed": false,
          "internalType": "uint256",
          "name": "value",
          "type": "uint256"
        },
        {
          "indexed": false,
          "internalType": "bytes",
          "name": "data",
          "type": "bytes"
        }
      ],
      "name": "CallExecuted",
      "type": "event"
    },
    {
      "anonymous": false,
      "inputs": [
        {
          "indexed": true,
          "internalType": "bytes32",
          "name": "id",
          "type": "bytes32"
        },
        {
          "indexed": true,
          "internalType": "uint256",
          "name": "index",
          "type": "uint256"
        },
        {
          "indexed": false,
          "internalType": "address",
          "name": "target",
          "type": "address"
        },
        {
          "indexed": false,
          "internalType": "uint256",
          "name": "value",
          "type": "uint256"
        },
        {
          "indexed": false,
          "internalType": "bytes",
          "name": "data",
          "type": "bytes"
        },
        {
          "indexed": false,
          "internalType": "bytes32",
          "name": "predecessor",
          "type": "bytes32"
        },
        {
          "indexed": false,
          "internalType": "uint256",
          "name": "delay",
          "type": "uint256"
        }
      ],
      "name": "CallScheduled",
      "type": "event"
    },
    {
      "anonymous": false,
      "inputs": [
        {
          "indexed": true,
          "internalType": "bytes32",
          "name": "id",
          "type": "bytes32"
        }
      ],
      "name": "Cancelled",
      "type": "event"
    },
    {
      "anonymous": false,
      "inputs": [
        {
          "indexed": false,
          "internalType": "uint256",
          "name": "oldDuration",
          "type": "uint256"
        },
        {
          "indexed": false,
          "internalType": "uint256",
          "name": "newDuration",
          "type": "uint256"
        }
      ],
      "name": "MinDelayChange",
      "type": "event"
    },
    {
      "anonymous": false,
      "inputs": [
        {
          "indexed": true,
          "internalType": "bytes32",
          "name": "role",
          "type": "bytes32"
        },
        {
          "indexed": true,
          "internalType": "bytes32",
          "name": "previousAdminRole",
          "type": "bytes32"
        },
        {
          "indexed": true,
          "internalType": "bytes32",
          "name": "newAdminRole",
          "type": "bytes32"
        }
      ],
      "name": "RoleAdminChanged",
      "type": "event"
    },
    {
      "anonymous": false,
      "inputs": [
        {
          "indexed": true,
          "internalType": "bytes32",
          "name": "role",
          "type": "bytes32"
        },
        {
          "indexed": true,
          "internalType": "address",
          "name": "account",
          "type": "address"
        },
        {
          "indexed": true,
          "internalType": "address",
          "name": "sender",
          "type": "address"
        }
      ],
      "name": "RoleGranted",
      "type": "event"
    },
    {
      "anonymous": false,
      "inputs": [
        {
          "indexed": true,
          "internalType": "bytes32",
          "name": "role",
          "type": "bytes32"
        },
        {
          "indexed": true,
          "internalType": "address",
          "name": "account",
          "type": "address"
        },
        {
          "indexed": true,
          "internalType": "address",
          "name": "sender",
          "type": "address"
        }
      ],
      "name": "RoleRevoked",
      "type": "event"
    },
    {
      "inputs": [],
      "name": "DEFAULT_ADMIN_ROLE",
      "outputs": [
        {
          "internalType": "bytes32",
          "name": "",
          "type": "bytes32"
        }
      ],
      "stateMutability": "view",
      "type": "function"
    },
    {
      "inputs": [],
      "name": "EXECUTOR_ROLE",
      "outputs": [
        {
          "internalType": "bytes32",
          "name": "",
          "type": "bytes32"
        }
      ],
      "stateMutability": "view",
      "type": "function"
    },
    {
      "inputs": [],
      "name": "PROPOSER_ROLE",
      "outputs": [
        {
          "internalType": "bytes32",
          "name": "",
          "type": "bytes32"
        }
      ],
      "stateMutability": "view",
      "type": "function"
    },
    {
      "inputs": [],
      "name": "TIMELOCK_ADMIN_ROLE",
      "outputs": [
        {
          "internalType": "bytes32",
          "name": "",
          "type": "bytes32"
        }
      ],
      "stateMutability": "view",
      "type": "function"
    },
    {
      "inputs": [
        {
          "internalType": "bytes32",
          "name": "id",
          "type": "bytes32"
        }
      ],
      "name": "cancel",
      "outputs": [],
      "stateMutability": "nonpayable",
      "type": "function"
    },
    {
      "inputs": [
        {
          "internalType": "address",
          "name": "target",
          "type": "address"
        },
        {
          "internalType": "uint256",
          "name": "value",
          "type": "uint256"
        },
        {
          "internalType": "bytes",
          "name": "data",
          "type": "bytes"
        },
        {
          "internalType": "bytes32",
          "name": "predecessor",
          "type": "bytes32"
        },
        {
          "internalType": "bytes32",
          "name": "salt",
          "type": "bytes32"
        }
      ],
      "name": "execute",
      "outputs": [],
      "stateMutability": "payable",
      "type": "function"
    },
    {
      "inputs": [
        {
          "internalType": "address[]",
          "name": "targets",
          "type": "address[]"
        },
        {
          "internalType": "uint256[]",
          "name": "values",
          "type": "uint256[]"
        },
        {
          "internalType": "bytes[]",
          "name": "datas",
          "type": "bytes[]"
        },
        {
          "internalType": "bytes32",
          "name": "predecessor",
          "type": "bytes32"
        },
        {
          "internalType": "bytes32",
          "name": "salt",
          "type": "bytes32"
        }
      ],
      "name": "executeBatch",
      "outputs": [],
      "stateMutability": "payable",
      "type": "function"
    },
    {
      "inputs": [],
      "name": "getMinDelay",
      "outputs": [
        {
          "internalType": "uint256",
          "name": "duration",
          "type": "uint256"
        }
      ],
      "stateMutability": "view",
      "type": "function"
    },
    {
      "inputs": [
        {
          "internalType": "bytes32",
          "name": "role",
          "type": "bytes32"
        }
      ],
      "name": "getRoleAdmin",
      "outputs": [
        {
          "internalType": "bytes32",
          "name": "",
          "type": "bytes32"
        }
      ],
      "stateMutability": "view",
      "type": "function"
    },
    {
      "inputs": [
        {
          "internalType": "bytes32",
          "name": "id",
          "type": "bytes32"
        }
      ],
      "name": "getTimestamp",
      "outputs": [
        {
          "internalType": "uint256",
          "name": "timestamp",
          "type": "uint256"
        }
      ],
      "stateMutability": "view",
      "type": "function"
    },
    {
      "inputs": [
        {
          "internalType": "bytes32",
          "name": "role",
          "type": "bytes32"
        },
        {
          "internalType": "address",
          "name": "account",
          "type": "address"
        }
      ],
      "name": "grantRole",
      "outputs": [],
      "stateMutability": "nonpayable",
      "type": "function"
    },
    {
      "inputs": [
        {
          "internalType": "bytes32",
          "name": "role",
          "type": "bytes32"
        },
        {
          "internalType": "address",
          "name": "account",
          "type": "address"
        }
      ],
      "name": "hasRole",
      "outputs": [
        {
          "internalType": "bool",
          "name": "",
          "type": "bool"
        }
      ],
      "stateMutability": "view",
      "type": "function"
    },
    {
      "inputs": [
        {
          "internalType": "address",
          "name": "target",
          "type": "address"
        },
        {
          "internalType": "uint256",
          "name": "value",
          "type": "uint256"
        },
        {
          "internalType": "bytes",
          "name": "data",
          "type": "bytes"
        },
        {
          "internalType": "bytes32",
          "name": "predecessor",
          "type": "bytes32"
        },
        {
          "internalType": "bytes32",
          "name": "salt",
          "type": "bytes32"
        }
      ],
      "name": "hashOperation",
      "outputs": [
        {
          "internalType": "bytes32",
          "name": "hash",
          "type": "bytes32"
        }
      ],
      "stateMutability": "pure",
      "type": "function"
    },
    {
      "inputs": [
        {
          "internalType": "address[]",
          "name": "targets",
          "type": "address[]"
        },
        {
          "internalType": "uint256[]",
          "name": "values",
          "type": "uint256[]"
        },
        {
          "internalType": "bytes[]",
          "name": "datas",
          "type": "bytes[]"
        },
        {
          "internalType": "bytes32",
          "name": "predecessor",
          "type": "bytes32"
        },
        {
          "internalType": "bytes32",
          "name": "salt",
          "type": "bytes32"
        }
      ],
      "name": "hashOperationBatch",
      "outputs": [
        {
          "internalType": "bytes32",
          "name": "hash",
          "type": "bytes32"
        }
      ],
      "stateMutability": "pure",
      "type": "function"
    },
    {
      "inputs": [
        {
          "internalType": "bytes32",
          "name": "id",
          "type": "bytes32"
        }
      ],
      "name": "isOperation",
      "outputs": [
        {
          "internalType": "bool",
          "name": "pending",
          "type": "bool"
        }
      ],
      "stateMutability": "view",
      "type": "function"
    },
    {
      "inputs": [
        {
          "internalType": "bytes32",
          "name": "id",
          "type": "bytes32"
        }
      ],
      "name": "isOperationDone",
      "outputs": [
        {
          "internalType": "bool",
          "name": "done",
          "type": "bool"
        }
      ],
      "stateMutability": "view",
      "type": "function"
    },
    {
      "inputs": [
        {
          "internalType": "bytes32",
          "name": "id",
          "type": "bytes32"
        }
      ],
      "name": "isOperationPending",
      "outputs": [
        {
          "internalType": "bool",
          "name": "pending",
          "type": "bool"
        }
      ],
      "stateMutability": "view",
      "type": "function"
    },
    {
      "inputs": [
        {
          "internalType": "bytes32",
          "name": "id",
          "type": "bytes32"
        }
      ],
      "name": "isOperationReady",
      "outputs": [
        {
          "internalType": "bool",
          "name": "ready",
          "type": "bool"
        }
      ],
      "stateMutability": "view",
      "type": "function"
    },
    {
      "inputs": [
        {
          "internalType": "bytes32",
          "name": "role",
          "type": "bytes32"
        },
        {
          "internalType": "address",
          "name": "account",
          "type": "address"
        }
      ],
      "name": "renounceRole",
      "outputs": [],
      "stateMutability": "nonpayable",
      "type": "function"
    },
    {
      "inputs": [
        {
          "internalType": "bytes32",
          "name": "role",
          "type": "bytes32"
        },
        {
          "internalType": "address",
          "name": "account",
          "type": "address"
        }
      ],
      "name": "revokeRole",
      "outputs": [],
      "stateMutability": "nonpayable",
      "type": "function"
    },
    {
      "inputs": [
        {
          "internalType": "address",
          "name": "target",
          "type": "address"
        },
        {
          "internalType": "uint256",
          "name": "value",
          "type": "uint256"
        },
        {
          "internalType": "bytes",
          "name": "data",
          "type": "bytes"
        },
        {
          "internalType": "bytes32",
          "name": "predecessor",
          "type": "bytes32"
        },
        {
          "internalType": "bytes32",
          "name": "salt",
          "type": "bytes32"
        },
        {
          "internalType": "uint256",
          "name": "delay",
          "type": "uint256"
        }
      ],
      "name": "schedule",
      "outputs": [],
      "stateMutability": "nonpayable",
      "type": "function"
    },
    {
      "inputs": [
        {
          "internalType": "address[]",
          "name": "targets",
          "type": "address[]"
        },
        {
          "internalType": "uint256[]",
          "name": "values",
          "type": "uint256[]"
        },
        {
          "internalType": "bytes[]",
          "name": "datas",
          "type": "bytes[]"
        },
        {
          "internalType": "bytes32",
          "name": "predecessor",
          "type": "bytes32"
        },
        {
          "internalType": "bytes32",
          "name": "salt",
          "type": "bytes32"
        },
        {
          "internalType": "uint256",
          "name": "delay",
          "type": "uint256"
        }
      ],
      "name": "scheduleBatch",
      "outputs": [],
      "stateMutability": "nonpayable",
      "type": "function"
    },
    {
      "inputs": [
        {
          "internalType": "bytes4",
          "name": "interfaceId",
          "type": "bytes4"
        }
      ],
      "name": "supportsInterface",
      "outputs": [
        {
          "internalType": "bool",
          "name": "",
          "type": "bool"
        }
      ],
      "stateMutability": "view",
      "type": "function"
    },
    {
      "inputs": [
        {
          "internalType": "address",
          "name": "tokenAddress",
          "type": "address"
        },
        {
          "internalType": "address",
          "name": "toAddress",
          "type": "address"
        },
        {
          "internalType": "uint256",
          "name": "amount",
          "type": "uint256"
        }
      ],
      "name": "tokenTransfer",
      "outputs": [],
      "stateMutability": "nonpayable",
      "type": "function"
    },
    {
      "inputs": [
        {
          "internalType": "uint256",
          "name": "newDelay",
          "type": "uint256"
        }
      ],
      "name": "updateDelay",
      "outputs": [],
      "stateMutability": "nonpayable",
      "type": "function"
    },
    {
      "stateMutability": "payable",
      "type": "receive"
    }
  ],
  "bytecode": "0x60806040523480156200001157600080fd5b5060405162003973380380620039738339818101604052810190620000379190620006d2565b620000697f5f58e3a2316349923ce3780f8d587db2d72378aed66a8261c916544fa6846ca580620002ae60201b60201c565b620000bb7fb09aa5aeb3702cfd50b6b62bc4532604938f21248a27a1d5ca736082b6819cc17f5f58e3a2316349923ce3780f8d587db2d72378aed66a8261c916544fa6846ca5620002ae60201b60201c565b6200010d7fd8aa0f3194971a2a116679f7c2090f6939c8d4e01a2a8d7e41d55e5351469e637f5f58e3a2316349923ce3780f8d587db2d72378aed66a8261c916544fa6846ca5620002ae60201b60201c565b6200014e7f5f58e3a2316349923ce3780f8d587db2d72378aed66a8261c916544fa6846ca5620001426200031160201b60201c565b6200031960201b60201c565b620001807f5f58e3a2316349923ce3780f8d587db2d72378aed66a8261c916544fa6846ca5306200031960201b60201c565b60005b8251811015620001f057620001dc7fb09aa5aeb3702cfd50b6b62bc4532604938f21248a27a1d5ca736082b6819cc1848381518110620001c857620001c76200076c565b5b60200260200101516200031960201b60201c565b80620001e890620007ca565b905062000183565b5060005b815181101562000261576200024d7fd8aa0f3194971a2a116679f7c2090f6939c8d4e01a2a8d7e41d55e5351469e638383815181106200023957620002386200076c565b5b60200260200101516200031960201b60201c565b806200025990620007ca565b9050620001f4565b50826002819055507f11c24f4ead16507c69ac467fbd5e4eed5fb5c699626d2cc6d66421df253886d56000846040516200029d92919062000875565b60405180910390a1505050620008a2565b6000620002c1836200032f60201b60201c565b905081600080858152602001908152602001600020600101819055508181847fbd79b86ffe0ab8e8776151514217cd7cacd52c909f66475c3af44e129f0b00ff60405160405180910390a4505050565b600033905090565b6200032b82826200034e60201b60201c565b5050565b6000806000838152602001908152602001600020600101549050919050565b6200036082826200043f60201b60201c565b6200043b57600160008084815260200190815260200160002060000160008373ffffffffffffffffffffffffffffffffffffffff1673ffffffffffffffffffffffffffffffffffffffff16815260200190815260200160002060006101000a81548160ff021916908315150217905550620003e06200031160201b60201c565b73ffffffffffffffffffffffffffffffffffffffff168173ffffffffffffffffffffffffffffffffffffffff16837f2f8788117e7eff1d82e926ec794901d17c78024a50270940304540a733656f0d60405160405180910390a45b5050565b600080600084815260200190815260200160002060000160008373ffffffffffffffffffffffffffffffffffffffff1673ffffffffffffffffffffffffffffffffffffffff16815260200190815260200160002060009054906101000a900460ff16905092915050565b6000604051905090565b600080fd5b600080fd5b6000819050919050565b620004d281620004bd565b8114620004de57600080fd5b50565b600081519050620004f281620004c7565b92915050565b600080fd5b6000601f19601f8301169050919050565b7f4e487b7100000000000000000000000000000000000000000000000000000000600052604160045260246000fd5b6200054882620004fd565b810181811067ffffffffffffffff821117156200056a57620005696200050e565b5b80604052505050565b60006200057f620004a9565b90506200058d82826200053d565b919050565b600067ffffffffffffffff821115620005b057620005af6200050e565b5b602082029050602081019050919050565b600080fd5b600073ffffffffffffffffffffffffffffffffffffffff82169050919050565b6000620005f382620005c6565b9050919050565b6200060581620005e6565b81146200061157600080fd5b50565b6000815190506200062581620005fa565b92915050565b6000620006426200063c8462000592565b62000573565b90508083825260208201905060208402830185811115620006685762000667620005c1565b5b835b8181101562000695578062000680888262000614565b8452602084019350506020810190506200066a565b5050509392505050565b600082601f830112620006b757620006b6620004f8565b5b8151620006c98482602086016200062b565b91505092915050565b600080600060608486031215620006ee57620006ed620004b3565b5b6000620006fe86828701620004e1565b935050602084015167ffffffffffffffff811115620007225762000721620004b8565b5b62000730868287016200069f565b925050604084015167ffffffffffffffff811115620007545762000753620004b8565b5b62000762868287016200069f565b9150509250925092565b7f4e487b7100000000000000000000000000000000000000000000000000000000600052603260045260246000fd5b7f4e487b7100000000000000000000000000000000000000000000000000000000600052601160045260246000fd5b6000620007d782620004bd565b91507fffffffffffffffffffffffffffffffffffffffffffffffffffffffffffffffff82036200080c576200080b6200079b565b5b600182019050919050565b6000819050919050565b6000819050919050565b60006200084c62000846620008408462000817565b62000821565b620004bd565b9050919050565b6200085e816200082b565b82525050565b6200086f81620004bd565b82525050565b60006040820190506200088c600083018562000853565b6200089b602083018462000864565b9392505050565b6130c180620008b26000396000f3fe60806040526004361061016a5760003560e01c8063584b153e116100d1578063a217fddf1161008a578063d45c443511610064578063d45c443514610582578063d547741f146105bf578063e38335e5146105e8578063f27a0c921461060457610171565b8063a217fddf146104f1578063b1c5f4271461051c578063c4d252f51461055957610171565b8063584b153e146103bd57806364d62353146103fa5780638065657f146104235780638f2a0bb0146104605780638f61f4f51461048957806391d14854146104b457610171565b806315eaef6b1161012357806315eaef6b1461028b578063248a9ca3146102b45780632ab0f529146102f15780632f2ff15d1461032e57806331d507501461035757806336568abe1461039457610171565b806301d5062a1461017657806301ffc9a71461019f57806307bd0265146101dc5780630d3cf6fc14610207578063134008d31461023257806313bc9f201461024e57610171565b3661017157005b600080fd5b34801561018257600080fd5b5061019d60048036038101906101989190611a51565b61062f565b005b3480156101ab57600080fd5b506101c660048036038101906101c19190611b58565b6106cc565b6040516101d39190611ba0565b60405180910390f35b3480156101e857600080fd5b506101f1610746565b6040516101fe9190611bca565b60405180910390f35b34801561021357600080fd5b5061021c61076a565b6040516102299190611bca565b60405180910390f35b61024c60048036038101906102479190611be5565b61078e565b005b34801561025a57600080fd5b5061027560048036038101906102709190611c7f565b61080e565b6040516102829190611ba0565b60405180910390f35b34801561029757600080fd5b506102b260048036038101906102ad9190611cac565b610834565b005b3480156102c057600080fd5b506102db60048036038101906102d69190611c7f565b610a26565b6040516102e89190611bca565b60405180910390f35b3480156102fd57600080fd5b5061031860048036038101906103139190611c7f565b610a45565b6040516103259190611ba0565b60405180910390f35b34801561033a57600080fd5b5061035560048036038101906103509190611cff565b610a5a565b005b34801561036357600080fd5b5061037e60048036038101906103799190611c7f565b610a83565b60405161038b9190611ba0565b60405180910390f35b3480156103a057600080fd5b506103bb60048036038101906103b69190611cff565b610a97565b005b3480156103c957600080fd5b506103e460048036038101906103df9190611c7f565b610b1a565b6040516103f19190611ba0565b60405180910390f35b34801561040657600080fd5b50610421600480360381019061041c9190611d3f565b610b2f565b005b34801561042f57600080fd5b5061044a60048036038101906104459190611be5565b610be2565b6040516104579190611bca565b60405180910390f35b34801561046c57600080fd5b5061048760048036038101906104829190611e6e565b610c21565b005b34801561049557600080fd5b5061049e610dd4565b6040516104ab9190611bca565b60405180910390f35b3480156104c057600080fd5b506104db60048036038101906104d69190611cff565b610df8565b6040516104e89190611ba0565b60405180910390f35b3480156104fd57600080fd5b50610506610e62565b6040516105139190611bca565b60405180910390f35b34801561052857600080fd5b50610543600480360381019061053e9190611f5d565b610e69565b6040516105509190611bca565b60405180910390f35b34801561056557600080fd5b50610580600480360381019061057b9190611c7f565b610eae565b005b34801561058e57600080fd5b506105a960048036038101906105a49190611c7f565b610f70565b6040516105b69190612048565b60405180910390f35b3480156105cb57600080fd5b506105e660048036038101906105e19190611cff565b610f8d565b005b61060260048036038101906105fd9190611f5d565b610fb6565b005b34801561061057600080fd5b5061061961114c565b6040516106269190612048565b60405180910390f35b7fb09aa5aeb3702cfd50b6b62bc4532604938f21248a27a1d5ca736082b6819cc16106618161065c611156565b61115e565b6000610671898989898989610be2565b905061067d81846111fb565b6000817f4cf4410cc57040e44862ef0f45f3dd5a5e02db8eb8add648d4b0e236f1d07dca8b8b8b8b8b8a6040516106b9969594939291906120d0565b60405180910390a3505050505050505050565b60007f7965db0b000000000000000000000000000000000000000000000000000000007bffffffffffffffffffffffffffffffffffffffffffffffffffffffff1916827bffffffffffffffffffffffffffffffffffffffffffffffffffffffff1916148061073f575061073e826112b5565b5b9050919050565b7fd8aa0f3194971a2a116679f7c2090f6939c8d4e01a2a8d7e41d55e5351469e6381565b7f5f58e3a2316349923ce3780f8d587db2d72378aed66a8261c916544fa6846ca581565b7fd8aa0f3194971a2a116679f7c2090f6939c8d4e01a2a8d7e41d55e5351469e636107ba816000610df8565b6107d0576107cf816107ca611156565b61115e565b5b60006107e0888888888888610be2565b90506107ec818561131f565b6107fb8160008a8a8a8a6113c0565b610804816114b8565b5050505050505050565b60008061081a83610f70565b905060018111801561082c5750428111155b915050919050565b60008390503073ffffffffffffffffffffffffffffffffffffffff163373ffffffffffffffffffffffffffffffffffffffff16146108a7576040517f08c379a000000000000000000000000000000000000000000000000000000000815260040161089e906121af565b60405180910390fd5b818173ffffffffffffffffffffffffffffffffffffffff166370a08231306040518263ffffffff1660e01b81526004016108e191906121cf565b602060405180830381865afa1580156108fe573d6000803e3d6000fd5b505050506040513d601f19601f8201168201806040525081019061092291906121ff565b1015610963576040517f08c379a000000000000000000000000000000000000000000000000000000000815260040161095a90612278565b60405180910390fd5b8073ffffffffffffffffffffffffffffffffffffffff1663a9059cbb84846040518363ffffffff1660e01b815260040161099e929190612298565b6020604051808303816000875af11580156109bd573d6000803e3d6000fd5b505050506040513d601f19601f820116820180604052508101906109e191906122ed565b610a20576040517f08c379a0000000000000000000000000000000000000000000000000000000008152600401610a179061238c565b60405180910390fd5b50505050565b6000806000838152602001908152602001600020600101549050919050565b60006001610a5283610f70565b149050919050565b610a6382610a26565b610a7481610a6f611156565b61115e565b610a7e838361151b565b505050565b600080610a8f83610f70565b119050919050565b610a9f611156565b73ffffffffffffffffffffffffffffffffffffffff168173ffffffffffffffffffffffffffffffffffffffff1614610b0c576040517f08c379a0000000000000000000000000000000000000000000000000000000008152600401610b039061241e565b60405180910390fd5b610b1682826115fb565b5050565b60006001610b2783610f70565b119050919050565b3073ffffffffffffffffffffffffffffffffffffffff163373ffffffffffffffffffffffffffffffffffffffff1614610b9d576040517f08c379a0000000000000000000000000000000000000000000000000000000008152600401610b94906121af565b60405180910390fd5b7f11c24f4ead16507c69ac467fbd5e4eed5fb5c699626d2cc6d66421df253886d560025482604051610bd092919061243e565b60405180910390a18060028190555050565b6000868686868686604051602001610bff96959493929190612467565b6040516020818303038152906040528051906020012090509695505050505050565b7fb09aa5aeb3702cfd50b6b62bc4532604938f21248a27a1d5ca736082b6819cc1610c5381610c4e611156565b61115e565b878790508a8a905014610c9b576040517f08c379a0000000000000000000000000000000000000000000000000000000008152600401610c929061250f565b60405180910390fd5b858590508a8a905014610ce3576040517f08c379a0000000000000000000000000000000000000000000000000000000008152600401610cda9061250f565b60405180910390fd5b6000610cf58b8b8b8b8b8b8b8b610e69565b9050610d0181846111fb565b60005b8b8b9050811015610dc65780827f4cf4410cc57040e44862ef0f45f3dd5a5e02db8eb8add648d4b0e236f1d07dca8e8e85818110610d4557610d4461252f565b5b9050602002016020810190610d5a919061255e565b8d8d86818110610d6d57610d6c61252f565b5b905060200201358c8c87818110610d8757610d8661252f565b5b9050602002810190610d99919061259a565b8c8b604051610dad969594939291906120d0565b60405180910390a380610dbf9061262c565b9050610d04565b505050505050505050505050565b7fb09aa5aeb3702cfd50b6b62bc4532604938f21248a27a1d5ca736082b6819cc181565b600080600084815260200190815260200160002060000160008373ffffffffffffffffffffffffffffffffffffffff1673ffffffffffffffffffffffffffffffffffffffff16815260200190815260200160002060009054906101000a900460ff16905092915050565b6000801b81565b60008888888888888888604051602001610e8a98979695949392919061290d565b60405160208183030381529060405280519060200120905098975050505050505050565b7fb09aa5aeb3702cfd50b6b62bc4532604938f21248a27a1d5ca736082b6819cc1610ee081610edb611156565b61115e565b610ee982610b1a565b610f28576040517f08c379a0000000000000000000000000000000000000000000000000000000008152600401610f1f906129ed565b60405180910390fd5b6001600083815260200190815260200160002060009055817fbaa1eb22f2a492ba1a5fea61b8df4d27c6c8b5f3971e63bb58fa14ff72eedb7060405160405180910390a25050565b600060016000838152602001908152602001600020549050919050565b610f9682610a26565b610fa781610fa2611156565b61115e565b610fb183836115fb565b505050565b7fd8aa0f3194971a2a116679f7c2090f6939c8d4e01a2a8d7e41d55e5351469e63610fe2816000610df8565b610ff857610ff781610ff2611156565b61115e565b5b868690508989905014611040576040517f08c379a00000000000000000000000000000000000000000000000000000000081526004016110379061250f565b60405180910390fd5b848490508989905014611088576040517f08c379a000000000000000000000000000000000000000000000000000000000815260040161107f9061250f565b60405180910390fd5b600061109a8a8a8a8a8a8a8a8a610e69565b90506110a6818561131f565b60005b8a8a90508110156111365761112582828d8d858181106110cc576110cb61252f565b5b90506020020160208101906110e1919061255e565b8c8c868181106110f4576110f361252f565b5b905060200201358b8b8781811061110e5761110d61252f565b5b9050602002810190611120919061259a565b6113c0565b8061112f9061262c565b90506110a9565b50611140816114b8565b50505050505050505050565b6000600254905090565b600033905090565b6111688282610df8565b6111f75761118d8173ffffffffffffffffffffffffffffffffffffffff1660146116dc565b61119b8360001c60206116dc565b6040516020016111ac929190612b1f565b6040516020818303038152906040526040517f08c379a00000000000000000000000000000000000000000000000000000000081526004016111ee9190612b92565b60405180910390fd5b5050565b61120482610a83565b15611244576040517f08c379a000000000000000000000000000000000000000000000000000000000815260040161123b90612c26565b60405180910390fd5b61124c61114c565b81101561128e576040517f08c379a000000000000000000000000000000000000000000000000000000000815260040161128590612cb8565b60405180910390fd5b804261129a9190612cd8565b60016000848152602001908152602001600020819055505050565b60007f01ffc9a7000000000000000000000000000000000000000000000000000000007bffffffffffffffffffffffffffffffffffffffffffffffffffffffff1916827bffffffffffffffffffffffffffffffffffffffffffffffffffffffff1916149050919050565b6113288261080e565b611367576040517f08c379a000000000000000000000000000000000000000000000000000000000815260040161135e90612da0565b60405180910390fd5b6000801b81148061137d575061137c81610a45565b5b6113bc576040517f08c379a00000000000000000000000000000000000000000000000000000000081526004016113b390612e32565b60405180910390fd5b5050565b60008473ffffffffffffffffffffffffffffffffffffffff168484846040516113ea929190612e82565b60006040518083038185875af1925050503d8060008114611427576040519150601f19603f3d011682016040523d82523d6000602084013e61142c565b606091505b5050905080611470576040517f08c379a000000000000000000000000000000000000000000000000000000000815260040161146790612f0d565b60405180910390fd5b85877fc2617efa69bab66782fa219543714338489c4e9e178271560a91b82c3f612b58878787876040516114a79493929190612f2d565b60405180910390a350505050505050565b6114c18161080e565b611500576040517f08c379a00000000000000000000000000000000000000000000000000000000081526004016114f790612da0565b60405180910390fd5b60018060008381526020019081526020016000208190555050565b6115258282610df8565b6115f757600160008084815260200190815260200160002060000160008373ffffffffffffffffffffffffffffffffffffffff1673ffffffffffffffffffffffffffffffffffffffff16815260200190815260200160002060006101000a81548160ff02191690831515021790555061159c611156565b73ffffffffffffffffffffffffffffffffffffffff168173ffffffffffffffffffffffffffffffffffffffff16837f2f8788117e7eff1d82e926ec794901d17c78024a50270940304540a733656f0d60405160405180910390a45b5050565b6116058282610df8565b156116d857600080600084815260200190815260200160002060000160008373ffffffffffffffffffffffffffffffffffffffff1673ffffffffffffffffffffffffffffffffffffffff16815260200190815260200160002060006101000a81548160ff02191690831515021790555061167d611156565b73ffffffffffffffffffffffffffffffffffffffff168173ffffffffffffffffffffffffffffffffffffffff16837ff6391f5c32d9c69d2a47ea670b442974b53935d1edc7fd64eb21e047a839171b60405160405180910390a45b5050565b6060600060028360026116ef9190612f6d565b6116f99190612cd8565b67ffffffffffffffff81111561171257611711612fc7565b5b6040519080825280601f01601f1916602001820160405280156117445781602001600182028036833780820191505090505b5090507f30000000000000000000000000000000000000000000000000000000000000008160008151811061177c5761177b61252f565b5b60200101907effffffffffffffffffffffffffffffffffffffffffffffffffffffffffffff1916908160001a9053507f7800000000000000000000000000000000000000000000000000000000000000816001815181106117e0576117df61252f565b5b60200101907effffffffffffffffffffffffffffffffffffffffffffffffffffffffffffff1916908160001a905350600060018460026118209190612f6d565b61182a9190612cd8565b90505b60018111156118ca577f3031323334353637383961626364656600000000000000000000000000000000600f86166010811061186c5761186b61252f565b5b1a60f81b8282815181106118835761188261252f565b5b60200101907effffffffffffffffffffffffffffffffffffffffffffffffffffffffffffff1916908160001a905350600485901c9450806118c390612ff6565b905061182d565b506000841461190e576040517f08c379a00000000000000000000000000000000000000000000000000000000081526004016119059061306b565b60405180910390fd5b8091505092915050565b600080fd5b600080fd5b600073ffffffffffffffffffffffffffffffffffffffff82169050919050565b600061194d82611922565b9050919050565b61195d81611942565b811461196857600080fd5b50565b60008135905061197a81611954565b92915050565b6000819050919050565b61199381611980565b811461199e57600080fd5b50565b6000813590506119b08161198a565b92915050565b600080fd5b600080fd5b600080fd5b60008083601f8401126119db576119da6119b6565b5b8235905067ffffffffffffffff8111156119f8576119f76119bb565b5b602083019150836001820283011115611a1457611a136119c0565b5b9250929050565b6000819050919050565b611a2e81611a1b565b8114611a3957600080fd5b50565b600081359050611a4b81611a25565b92915050565b600080600080600080600060c0888a031215611a7057611a6f611918565b5b6000611a7e8a828b0161196b565b9750506020611a8f8a828b016119a1565b965050604088013567ffffffffffffffff811115611ab057611aaf61191d565b5b611abc8a828b016119c5565b95509550506060611acf8a828b01611a3c565b9350506080611ae08a828b01611a3c565b92505060a0611af18a828b016119a1565b91505092959891949750929550565b60007fffffffff0000000000000000000000000000000000000000000000000000000082169050919050565b611b3581611b00565b8114611b4057600080fd5b50565b600081359050611b5281611b2c565b92915050565b600060208284031215611b6e57611b6d611918565b5b6000611b7c84828501611b43565b91505092915050565b60008115159050919050565b611b9a81611b85565b82525050565b6000602082019050611bb56000830184611b91565b92915050565b611bc481611a1b565b82525050565b6000602082019050611bdf6000830184611bbb565b92915050565b60008060008060008060a08789031215611c0257611c01611918565b5b6000611c1089828a0161196b565b9650506020611c2189828a016119a1565b955050604087013567ffffffffffffffff811115611c4257611c4161191d565b5b611c4e89828a016119c5565b94509450506060611c6189828a01611a3c565b9250506080611c7289828a01611a3c565b9150509295509295509295565b600060208284031215611c9557611c94611918565b5b6000611ca384828501611a3c565b91505092915050565b600080600060608486031215611cc557611cc4611918565b5b6000611cd38682870161196b565b9350506020611ce48682870161196b565b9250506040611cf5868287016119a1565b9150509250925092565b60008060408385031215611d1657611d15611918565b5b6000611d2485828601611a3c565b9250506020611d358582860161196b565b9150509250929050565b600060208284031215611d5557611d54611918565b5b6000611d63848285016119a1565b91505092915050565b60008083601f840112611d8257611d816119b6565b5b8235905067ffffffffffffffff811115611d9f57611d9e6119bb565b5b602083019150836020820283011115611dbb57611dba6119c0565b5b9250929050565b60008083601f840112611dd857611dd76119b6565b5b8235905067ffffffffffffffff811115611df557611df46119bb565b5b602083019150836020820283011115611e1157611e106119c0565b5b9250929050565b60008083601f840112611e2e57611e2d6119b6565b5b8235905067ffffffffffffffff811115611e4b57611e4a6119bb565b5b602083019150836020820283011115611e6757611e666119c0565b5b9250929050565b600080600080600080600080600060c08a8c031215611e9057611e8f611918565b5b60008a013567ffffffffffffffff811115611eae57611ead61191d565b5b611eba8c828d01611d6c565b995099505060208a013567ffffffffffffffff811115611edd57611edc61191d565b5b611ee98c828d01611dc2565b975097505060408a013567ffffffffffffffff811115611f0c57611f0b61191d565b5b611f188c828d01611e18565b95509550506060611f2b8c828d01611a3c565b9350506080611f3c8c828d01611a3c565b92505060a0611f4d8c828d016119a1565b9150509295985092959850929598565b60008060008060008060008060a0898b031215611f7d57611f7c611918565b5b600089013567ffffffffffffffff811115611f9b57611f9a61191d565b5b611fa78b828c01611d6c565b9850985050602089013567ffffffffffffffff811115611fca57611fc961191d565b5b611fd68b828c01611dc2565b9650965050604089013567ffffffffffffffff811115611ff957611ff861191d565b5b6120058b828c01611e18565b945094505060606120188b828c01611a3c565b92505060806120298b828c01611a3c565b9150509295985092959890939650565b61204281611980565b82525050565b600060208201905061205d6000830184612039565b92915050565b61206c81611942565b82525050565b600082825260208201905092915050565b82818337600083830152505050565b6000601f19601f8301169050919050565b60006120af8385612072565b93506120bc838584612083565b6120c583612092565b840190509392505050565b600060a0820190506120e56000830189612063565b6120f26020830188612039565b81810360408301526121058186886120a3565b90506121146060830185611bbb565b6121216080830184612039565b979650505050505050565b600082825260208201905092915050565b7f546f6b656e476f7665726e6f723a2063616c6c6572206d75737420626520746960008201527f6d656c6f636b0000000000000000000000000000000000000000000000000000602082015250565b600061219960268361212c565b91506121a48261213d565b604082019050919050565b600060208201905081810360008301526121c88161218c565b9050919050565b60006020820190506121e46000830184612063565b92915050565b6000815190506121f98161198a565b92915050565b60006020828403121561221557612214611918565b5b6000612223848285016121ea565b91505092915050565b7f546f6b656e476f7665726e6f723a206e6f7420656e6f75676820746f6b656e73600082015250565b600061226260208361212c565b915061226d8261222c565b602082019050919050565b6000602082019050818103600083015261229181612255565b9050919050565b60006040820190506122ad6000830185612063565b6122ba6020830184612039565b9392505050565b6122ca81611b85565b81146122d557600080fd5b50565b6000815190506122e7816122c1565b92915050565b60006020828403121561230357612302611918565b5b6000612311848285016122d8565b91505092915050565b7f546f6b656e476f7665726e6f723a20746f6b656e207472616e7366657220666160008201527f696c656400000000000000000000000000000000000000000000000000000000602082015250565b600061237660248361212c565b91506123818261231a565b604082019050919050565b600060208201905081810360008301526123a581612369565b9050919050565b7f416363657373436f6e74726f6c3a2063616e206f6e6c792072656e6f756e636560008201527f20726f6c657320666f722073656c660000000000000000000000000000000000602082015250565b6000612408602f8361212c565b9150612413826123ac565b604082019050919050565b60006020820190508181036000830152612437816123fb565b9050919050565b60006040820190506124536000830185612039565b6124606020830184612039565b9392505050565b600060a08201905061247c6000830189612063565b6124896020830188612039565b818103604083015261249c8186886120a3565b90506124ab6060830185611bbb565b6124b86080830184611bbb565b979650505050505050565b7f546f6b656e476f7665726e6f723a206c656e677468206d69736d617463680000600082015250565b60006124f9601e8361212c565b9150612504826124c3565b602082019050919050565b60006020820190508181036000830152612528816124ec565b9050919050565b7f4e487b7100000000000000000000000000000000000000000000000000000000600052603260045260246000fd5b60006020828403121561257457612573611918565b5b60006125828482850161196b565b91505092915050565b600080fd5b600080fd5b600080fd5b600080833560016020038436030381126125b7576125b661258b565b5b80840192508235915067ffffffffffffffff8211156125d9576125d8612590565b5b6020830192506001820236038313156125f5576125f4612595565b5b509250929050565b7f4e487b7100000000000000000000000000000000000000000000000000000000600052601160045260246000fd5b600061263782611980565b91507fffffffffffffffffffffffffffffffffffffffffffffffffffffffffffffffff8203612669576126686125fd565b5b600182019050919050565b600082825260208201905092915050565b6000819050919050565b61269881611942565b82525050565b60006126aa838361268f565b60208301905092915050565b60006126c5602084018461196b565b905092915050565b6000602082019050919050565b60006126e68385612674565b93506126f182612685565b8060005b8581101561272a5761270782846126b6565b612711888261269e565b975061271c836126cd565b9250506001810190506126f5565b5085925050509392505050565b600082825260208201905092915050565b600080fd5b60006127598385612737565b93507f07ffffffffffffffffffffffffffffffffffffffffffffffffffffffffffffff83111561278c5761278b612748565b5b60208302925061279d838584612083565b82840190509392505050565b600082825260208201905092915050565b6000819050919050565b600082825260208201905092915050565b60006127e183856127c4565b93506127ee838584612083565b6127f783612092565b840190509392505050565b600061280f8484846127d5565b90509392505050565b600080fd5b600080fd5b600080fd5b6000808335600160200384360303811261284457612843612822565b5b83810192508235915060208301925067ffffffffffffffff82111561286c5761286b612818565b5b6001820236038413156128825761288161281d565b5b509250929050565b6000602082019050919050565b60006128a383856127a9565b9350836020840285016128b5846127ba565b8060005b878110156128fb5784840389526128d08284612827565b6128db868284612802565b95506128e68461288a565b935060208b019a5050506001810190506128b9565b50829750879450505050509392505050565b600060a0820190508181036000830152612928818a8c6126da565b9050818103602083015261293d81888a61274d565b90508181036040830152612952818688612897565b90506129616060830185611bbb565b61296e6080830184611bbb565b9998505050505050505050565b7f546f6b656e476f7665726e6f723a206f7065726174696f6e2063616e6e6f742060008201527f62652063616e63656c6c65640000000000000000000000000000000000000000602082015250565b60006129d7602c8361212c565b91506129e28261297b565b604082019050919050565b60006020820190508181036000830152612a06816129ca565b9050919050565b600081905092915050565b7f416363657373436f6e74726f6c3a206163636f756e7420000000000000000000600082015250565b6000612a4e601783612a0d565b9150612a5982612a18565b601782019050919050565b600081519050919050565b60005b83811015612a8d578082015181840152602081019050612a72565b83811115612a9c576000848401525b50505050565b6000612aad82612a64565b612ab78185612a0d565b9350612ac7818560208601612a6f565b80840191505092915050565b7f206973206d697373696e6720726f6c6520000000000000000000000000000000600082015250565b6000612b09601183612a0d565b9150612b1482612ad3565b601182019050919050565b6000612b2a82612a41565b9150612b368285612aa2565b9150612b4182612afc565b9150612b4d8284612aa2565b91508190509392505050565b6000612b6482612a64565b612b6e818561212c565b9350612b7e818560208601612a6f565b612b8781612092565b840191505092915050565b60006020820190508181036000830152612bac8184612b59565b905092915050565b7f546f6b656e476f7665726e6f723a206f7065726174696f6e20616c726561647960008201527f207363686564756c656400000000000000000000000000000000000000000000602082015250565b6000612c10602a8361212c565b9150612c1b82612bb4565b604082019050919050565b60006020820190508181036000830152612c3f81612c03565b9050919050565b7f546f6b656e476f7665726e6f723a20696e73756666696369656e742064656c6160008201527f7900000000000000000000000000000000000000000000000000000000000000602082015250565b6000612ca260218361212c565b9150612cad82612c46565b604082019050919050565b60006020820190508181036000830152612cd181612c95565b9050919050565b6000612ce382611980565b9150612cee83611980565b9250827fffffffffffffffffffffffffffffffffffffffffffffffffffffffffffffffff03821115612d2357612d226125fd565b5b828201905092915050565b7f546f6b656e476f7665726e6f723a206f7065726174696f6e206973206e6f742060008201527f7265616479000000000000000000000000000000000000000000000000000000602082015250565b6000612d8a60258361212c565b9150612d9582612d2e565b604082019050919050565b60006020820190508181036000830152612db981612d7d565b9050919050565b7f546f6b656e476f7665726e6f723a206d697373696e6720646570656e64656e6360008201527f7900000000000000000000000000000000000000000000000000000000000000602082015250565b6000612e1c60218361212c565b9150612e2782612dc0565b604082019050919050565b60006020820190508181036000830152612e4b81612e0f565b9050919050565b600081905092915050565b6000612e698385612e52565b9350612e76838584612083565b82840190509392505050565b6000612e8f828486612e5d565b91508190509392505050565b7f546f6b656e476f7665726e6f723a20756e6465726c79696e67207472616e736160008201527f6374696f6e207265766572746564000000000000000000000000000000000000602082015250565b6000612ef7602e8361212c565b9150612f0282612e9b565b604082019050919050565b60006020820190508181036000830152612f2681612eea565b9050919050565b6000606082019050612f426000830187612063565b612f4f6020830186612039565b8181036040830152612f628184866120a3565b905095945050505050565b6000612f7882611980565b9150612f8383611980565b9250817fffffffffffffffffffffffffffffffffffffffffffffffffffffffffffffffff0483118215151615612fbc57612fbb6125fd565b5b828202905092915050565b7f4e487b7100000000000000000000000000000000000000000000000000000000600052604160045260246000fd5b600061300182611980565b915060008203613014576130136125fd565b5b600182039050919050565b7f537472696e67733a20686578206c656e67746820696e73756666696369656e74600082015250565b600061305560208361212c565b91506130608261301f565b602082019050919050565b6000602082019050818103600083015261308481613048565b905091905056fea2646970667358221220bc97f0d04d990fd94f2c663958dc730a0d5504842b62cd195698641eafe994ea64736f6c634300080d0033",
  "linkReferences": {},
  "deployedLinkReferences": {}
}