{
  "_format": "hh-sol-artifact-1",
  "contractName": "TokenGovernor",
  "sourceName": "contracts/TokenGovernor.sol",
  "abi": [
    {
      "inputs": [
        {
          "internalType": "uint256",
          "name": "minDelay",
          "type": "uint256"
        },
        {
          "internalType": "address[]",
          "name": "proposers",
          "type": "address[]"
        },
        {
          "internalType": "address[]",
          "name": "executors",
          "type": "address[]"
        }
      ],
      "stateMutability": "nonpayable",
      "type": "constructor"
    },
    {
      "anonymous": false,
      "inputs": [
        {
          "indexed": true,
          "internalType": "bytes32",
          "name": "id",
          "type": "bytes32"
        },
        {
          "indexed": true,
          "internalType": "uint256",
          "name": "index",
          "type": "uint256"
        },
        {
          "indexed": false,
          "internalType": "address",
          "name": "target",
          "type": "address"
        },
        {
          "indexed": false,
          "internalType": "uint256",
          "name": "value",
          "type": "uint256"
        },
        {
          "indexed": false,
          "internalType": "bytes",
          "name": "data",
          "type": "bytes"
        }
      ],
      "name": "CallExecuted",
      "type": "event"
    },
    {
      "anonymous": false,
      "inputs": [
        {
          "indexed": true,
          "internalType": "bytes32",
          "name": "id",
          "type": "bytes32"
        },
        {
          "indexed": true,
          "internalType": "uint256",
          "name": "index",
          "type": "uint256"
        },
        {
          "indexed": false,
          "internalType": "address",
          "name": "target",
          "type": "address"
        },
        {
          "indexed": false,
          "internalType": "uint256",
          "name": "value",
          "type": "uint256"
        },
        {
          "indexed": false,
          "internalType": "bytes",
          "name": "data",
          "type": "bytes"
        },
        {
          "indexed": false,
          "internalType": "bytes32",
          "name": "predecessor",
          "type": "bytes32"
        },
        {
          "indexed": false,
          "internalType": "uint256",
          "name": "delay",
          "type": "uint256"
        }
      ],
      "name": "CallScheduled",
      "type": "event"
    },
    {
      "anonymous": false,
      "inputs": [
        {
          "indexed": true,
          "internalType": "bytes32",
          "name": "id",
          "type": "bytes32"
        }
      ],
      "name": "Cancelled",
      "type": "event"
    },
    {
      "anonymous": false,
      "inputs": [
        {
          "indexed": false,
          "internalType": "uint256",
          "name": "oldDuration",
          "type": "uint256"
        },
        {
          "indexed": false,
          "internalType": "uint256",
          "name": "newDuration",
          "type": "uint256"
        }
      ],
      "name": "MinDelayChange",
      "type": "event"
    },
    {
      "anonymous": false,
      "inputs": [
        {
          "indexed": true,
          "internalType": "bytes32",
          "name": "role",
          "type": "bytes32"
        },
        {
          "indexed": true,
          "internalType": "bytes32",
          "name": "previousAdminRole",
          "type": "bytes32"
        },
        {
          "indexed": true,
          "internalType": "bytes32",
          "name": "newAdminRole",
          "type": "bytes32"
        }
      ],
      "name": "RoleAdminChanged",
      "type": "event"
    },
    {
      "anonymous": false,
      "inputs": [
        {
          "indexed": true,
          "internalType": "bytes32",
          "name": "role",
          "type": "bytes32"
        },
        {
          "indexed": true,
          "internalType": "address",
          "name": "account",
          "type": "address"
        },
        {
          "indexed": true,
          "internalType": "address",
          "name": "sender",
          "type": "address"
        }
      ],
      "name": "RoleGranted",
      "type": "event"
    },
    {
      "anonymous": false,
      "inputs": [
        {
          "indexed": true,
          "internalType": "bytes32",
          "name": "role",
          "type": "bytes32"
        },
        {
          "indexed": true,
          "internalType": "address",
          "name": "account",
          "type": "address"
        },
        {
          "indexed": true,
          "internalType": "address",
          "name": "sender",
          "type": "address"
        }
      ],
      "name": "RoleRevoked",
      "type": "event"
    },
    {
      "inputs": [],
      "name": "DEFAULT_ADMIN_ROLE",
      "outputs": [
        {
          "internalType": "bytes32",
          "name": "",
          "type": "bytes32"
        }
      ],
      "stateMutability": "view",
      "type": "function"
    },
    {
      "inputs": [],
      "name": "EXECUTOR_ROLE",
      "outputs": [
        {
          "internalType": "bytes32",
          "name": "",
          "type": "bytes32"
        }
      ],
      "stateMutability": "view",
      "type": "function"
    },
    {
      "inputs": [],
      "name": "PROPOSER_ROLE",
      "outputs": [
        {
          "internalType": "bytes32",
          "name": "",
          "type": "bytes32"
        }
      ],
      "stateMutability": "view",
      "type": "function"
    },
    {
      "inputs": [],
      "name": "TIMELOCK_ADMIN_ROLE",
      "outputs": [
        {
          "internalType": "bytes32",
          "name": "",
          "type": "bytes32"
        }
      ],
      "stateMutability": "view",
      "type": "function"
    },
    {
      "inputs": [
        {
          "internalType": "bytes32",
          "name": "id",
          "type": "bytes32"
        }
      ],
      "name": "cancel",
      "outputs": [],
      "stateMutability": "nonpayable",
      "type": "function"
    },
    {
      "inputs": [
        {
          "internalType": "address",
          "name": "target",
          "type": "address"
        },
        {
          "internalType": "uint256",
          "name": "value",
          "type": "uint256"
        },
        {
          "internalType": "bytes",
          "name": "data",
          "type": "bytes"
        },
        {
          "internalType": "bytes32",
          "name": "predecessor",
          "type": "bytes32"
        },
        {
          "internalType": "bytes32",
          "name": "salt",
          "type": "bytes32"
        }
      ],
      "name": "execute",
      "outputs": [],
      "stateMutability": "payable",
      "type": "function"
    },
    {
      "inputs": [
        {
          "internalType": "address[]",
          "name": "targets",
          "type": "address[]"
        },
        {
          "internalType": "uint256[]",
          "name": "values",
          "type": "uint256[]"
        },
        {
          "internalType": "bytes[]",
          "name": "datas",
          "type": "bytes[]"
        },
        {
          "internalType": "bytes32",
          "name": "predecessor",
          "type": "bytes32"
        },
        {
          "internalType": "bytes32",
          "name": "salt",
          "type": "bytes32"
        }
      ],
      "name": "executeBatch",
      "outputs": [],
      "stateMutability": "payable",
      "type": "function"
    },
    {
      "inputs": [],
      "name": "getMinDelay",
      "outputs": [
        {
          "internalType": "uint256",
          "name": "duration",
          "type": "uint256"
        }
      ],
      "stateMutability": "view",
      "type": "function"
    },
    {
      "inputs": [
        {
          "internalType": "bytes32",
          "name": "role",
          "type": "bytes32"
        }
      ],
      "name": "getRoleAdmin",
      "outputs": [
        {
          "internalType": "bytes32",
          "name": "",
          "type": "bytes32"
        }
      ],
      "stateMutability": "view",
      "type": "function"
    },
    {
      "inputs": [
        {
          "internalType": "bytes32",
          "name": "id",
          "type": "bytes32"
        }
      ],
      "name": "getTimestamp",
      "outputs": [
        {
          "internalType": "uint256",
          "name": "timestamp",
          "type": "uint256"
        }
      ],
      "stateMutability": "view",
      "type": "function"
    },
    {
      "inputs": [
        {
          "internalType": "bytes32",
          "name": "role",
          "type": "bytes32"
        },
        {
          "internalType": "address",
          "name": "account",
          "type": "address"
        }
      ],
      "name": "grantRole",
      "outputs": [],
      "stateMutability": "nonpayable",
      "type": "function"
    },
    {
      "inputs": [
        {
          "internalType": "bytes32",
          "name": "role",
          "type": "bytes32"
        },
        {
          "internalType": "address",
          "name": "account",
          "type": "address"
        }
      ],
      "name": "hasRole",
      "outputs": [
        {
          "internalType": "bool",
          "name": "",
          "type": "bool"
        }
      ],
      "stateMutability": "view",
      "type": "function"
    },
    {
      "inputs": [
        {
          "internalType": "address",
          "name": "target",
          "type": "address"
        },
        {
          "internalType": "uint256",
          "name": "value",
          "type": "uint256"
        },
        {
          "internalType": "bytes",
          "name": "data",
          "type": "bytes"
        },
        {
          "internalType": "bytes32",
          "name": "predecessor",
          "type": "bytes32"
        },
        {
          "internalType": "bytes32",
          "name": "salt",
          "type": "bytes32"
        }
      ],
      "name": "hashOperation",
      "outputs": [
        {
          "internalType": "bytes32",
          "name": "hash",
          "type": "bytes32"
        }
      ],
      "stateMutability": "pure",
      "type": "function"
    },
    {
      "inputs": [
        {
          "internalType": "address[]",
          "name": "targets",
          "type": "address[]"
        },
        {
          "internalType": "uint256[]",
          "name": "values",
          "type": "uint256[]"
        },
        {
          "internalType": "bytes[]",
          "name": "datas",
          "type": "bytes[]"
        },
        {
          "internalType": "bytes32",
          "name": "predecessor",
          "type": "bytes32"
        },
        {
          "internalType": "bytes32",
          "name": "salt",
          "type": "bytes32"
        }
      ],
      "name": "hashOperationBatch",
      "outputs": [
        {
          "internalType": "bytes32",
          "name": "hash",
          "type": "bytes32"
        }
      ],
      "stateMutability": "pure",
      "type": "function"
    },
    {
      "inputs": [
        {
          "internalType": "bytes32",
          "name": "id",
          "type": "bytes32"
        }
      ],
      "name": "isOperation",
      "outputs": [
        {
          "internalType": "bool",
          "name": "pending",
          "type": "bool"
        }
      ],
      "stateMutability": "view",
      "type": "function"
    },
    {
      "inputs": [
        {
          "internalType": "bytes32",
          "name": "id",
          "type": "bytes32"
        }
      ],
      "name": "isOperationDone",
      "outputs": [
        {
          "internalType": "bool",
          "name": "done",
          "type": "bool"
        }
      ],
      "stateMutability": "view",
      "type": "function"
    },
    {
      "inputs": [
        {
          "internalType": "bytes32",
          "name": "id",
          "type": "bytes32"
        }
      ],
      "name": "isOperationPending",
      "outputs": [
        {
          "internalType": "bool",
          "name": "pending",
          "type": "bool"
        }
      ],
      "stateMutability": "view",
      "type": "function"
    },
    {
      "inputs": [
        {
          "internalType": "bytes32",
          "name": "id",
          "type": "bytes32"
        }
      ],
      "name": "isOperationReady",
      "outputs": [
        {
          "internalType": "bool",
          "name": "ready",
          "type": "bool"
        }
      ],
      "stateMutability": "view",
      "type": "function"
    },
    {
      "inputs": [
        {
          "internalType": "bytes32",
          "name": "role",
          "type": "bytes32"
        },
        {
          "internalType": "address",
          "name": "account",
          "type": "address"
        }
      ],
      "name": "renounceRole",
      "outputs": [],
      "stateMutability": "nonpayable",
      "type": "function"
    },
    {
      "inputs": [
        {
          "internalType": "bytes32",
          "name": "role",
          "type": "bytes32"
        },
        {
          "internalType": "address",
          "name": "account",
          "type": "address"
        }
      ],
      "name": "revokeRole",
      "outputs": [],
      "stateMutability": "nonpayable",
      "type": "function"
    },
    {
      "inputs": [
        {
          "internalType": "address",
          "name": "target",
          "type": "address"
        },
        {
          "internalType": "uint256",
          "name": "value",
          "type": "uint256"
        },
        {
          "internalType": "bytes",
          "name": "data",
          "type": "bytes"
        },
        {
          "internalType": "bytes32",
          "name": "predecessor",
          "type": "bytes32"
        },
        {
          "internalType": "bytes32",
          "name": "salt",
          "type": "bytes32"
        },
        {
          "internalType": "uint256",
          "name": "delay",
          "type": "uint256"
        }
      ],
      "name": "schedule",
      "outputs": [],
      "stateMutability": "nonpayable",
      "type": "function"
    },
    {
      "inputs": [
        {
          "internalType": "address[]",
          "name": "targets",
          "type": "address[]"
        },
        {
          "internalType": "uint256[]",
          "name": "values",
          "type": "uint256[]"
        },
        {
          "internalType": "bytes[]",
          "name": "datas",
          "type": "bytes[]"
        },
        {
          "internalType": "bytes32",
          "name": "predecessor",
          "type": "bytes32"
        },
        {
          "internalType": "bytes32",
          "name": "salt",
          "type": "bytes32"
        },
        {
          "internalType": "uint256",
          "name": "delay",
          "type": "uint256"
        }
      ],
      "name": "scheduleBatch",
      "outputs": [],
      "stateMutability": "nonpayable",
      "type": "function"
    },
    {
      "inputs": [
        {
          "internalType": "bytes4",
          "name": "interfaceId",
          "type": "bytes4"
        }
      ],
      "name": "supportsInterface",
      "outputs": [
        {
          "internalType": "bool",
          "name": "",
          "type": "bool"
        }
      ],
      "stateMutability": "view",
      "type": "function"
    },
    {
      "inputs": [
        {
          "internalType": "address",
          "name": "tokenAddress",
          "type": "address"
        },
        {
          "internalType": "address",
          "name": "toAddress",
          "type": "address"
        },
        {
          "internalType": "uint256",
          "name": "amount",
          "type": "uint256"
        }
      ],
      "name": "tokenTransfer",
      "outputs": [],
      "stateMutability": "nonpayable",
      "type": "function"
    },
    {
      "inputs": [
        {
          "internalType": "uint256",
          "name": "newDelay",
          "type": "uint256"
        }
      ],
      "name": "updateDelay",
      "outputs": [],
      "stateMutability": "nonpayable",
      "type": "function"
    },
    {
      "stateMutability": "payable",
      "type": "receive"
    }
  ],
  "bytecode": "0x60806040523480156200001157600080fd5b5060405162003994380380620039948339818101604052810190620000379190620006d2565b620000697f5f58e3a2316349923ce3780f8d587db2d72378aed66a8261c916544fa6846ca580620002ae60201b60201c565b620000bb7fb09aa5aeb3702cfd50b6b62bc4532604938f21248a27a1d5ca736082b6819cc17f5f58e3a2316349923ce3780f8d587db2d72378aed66a8261c916544fa6846ca5620002ae60201b60201c565b6200010d7fd8aa0f3194971a2a116679f7c2090f6939c8d4e01a2a8d7e41d55e5351469e637f5f58e3a2316349923ce3780f8d587db2d72378aed66a8261c916544fa6846ca5620002ae60201b60201c565b6200014e7f5f58e3a2316349923ce3780f8d587db2d72378aed66a8261c916544fa6846ca5620001426200031160201b60201c565b6200031960201b60201c565b620001807f5f58e3a2316349923ce3780f8d587db2d72378aed66a8261c916544fa6846ca5306200031960201b60201c565b60005b8251811015620001f057620001dc7fb09aa5aeb3702cfd50b6b62bc4532604938f21248a27a1d5ca736082b6819cc1848381518110620001c857620001c76200076c565b5b60200260200101516200031960201b60201c565b80620001e890620007ca565b905062000183565b5060005b815181101562000261576200024d7fd8aa0f3194971a2a116679f7c2090f6939c8d4e01a2a8d7e41d55e5351469e638383815181106200023957620002386200076c565b5b60200260200101516200031960201b60201c565b806200025990620007ca565b9050620001f4565b50826002819055507f11c24f4ead16507c69ac467fbd5e4eed5fb5c699626d2cc6d66421df253886d56000846040516200029d92919062000876565b60405180910390a1505050620008a3565b6000620002c1836200032f60201b60201c565b905081600080858152602001908152602001600020600101819055508181847fbd79b86ffe0ab8e8776151514217cd7cacd52c909f66475c3af44e129f0b00ff60405160405180910390a4505050565b600033905090565b6200032b82826200034e60201b60201c565b5050565b6000806000838152602001908152602001600020600101549050919050565b6200036082826200043f60201b60201c565b6200043b57600160008084815260200190815260200160002060000160008373ffffffffffffffffffffffffffffffffffffffff1673ffffffffffffffffffffffffffffffffffffffff16815260200190815260200160002060006101000a81548160ff021916908315150217905550620003e06200031160201b60201c565b73ffffffffffffffffffffffffffffffffffffffff168173ffffffffffffffffffffffffffffffffffffffff16837f2f8788117e7eff1d82e926ec794901d17c78024a50270940304540a733656f0d60405160405180910390a45b5050565b600080600084815260200190815260200160002060000160008373ffffffffffffffffffffffffffffffffffffffff1673ffffffffffffffffffffffffffffffffffffffff16815260200190815260200160002060009054906101000a900460ff16905092915050565b6000604051905090565b600080fd5b600080fd5b6000819050919050565b620004d281620004bd565b8114620004de57600080fd5b50565b600081519050620004f281620004c7565b92915050565b600080fd5b6000601f19601f8301169050919050565b7f4e487b7100000000000000000000000000000000000000000000000000000000600052604160045260246000fd5b6200054882620004fd565b810181811067ffffffffffffffff821117156200056a57620005696200050e565b5b80604052505050565b60006200057f620004a9565b90506200058d82826200053d565b919050565b600067ffffffffffffffff821115620005b057620005af6200050e565b5b602082029050602081019050919050565b600080fd5b600073ffffffffffffffffffffffffffffffffffffffff82169050919050565b6000620005f382620005c6565b9050919050565b6200060581620005e6565b81146200061157600080fd5b50565b6000815190506200062581620005fa565b92915050565b6000620006426200063c8462000592565b62000573565b90508083825260208201905060208402830185811115620006685762000667620005c1565b5b835b8181101562000695578062000680888262000614565b8452602084019350506020810190506200066a565b5050509392505050565b600082601f830112620006b757620006b6620004f8565b5b8151620006c98482602086016200062b565b91505092915050565b600080600060608486031215620006ee57620006ed620004b3565b5b6000620006fe86828701620004e1565b935050602084015167ffffffffffffffff811115620007225762000721620004b8565b5b62000730868287016200069f565b925050604084015167ffffffffffffffff811115620007545762000753620004b8565b5b62000762868287016200069f565b9150509250925092565b7f4e487b7100000000000000000000000000000000000000000000000000000000600052603260045260246000fd5b7f4e487b7100000000000000000000000000000000000000000000000000000000600052601160045260246000fd5b6000620007d782620004bd565b91507fffffffffffffffffffffffffffffffffffffffffffffffffffffffffffffffff8214156200080d576200080c6200079b565b5b600182019050919050565b6000819050919050565b6000819050919050565b60006200084d62000847620008418462000818565b62000822565b620004bd565b9050919050565b6200085f816200082c565b82525050565b6200087081620004bd565b82525050565b60006040820190506200088d600083018562000854565b6200089c602083018462000865565b9392505050565b6130e180620008b36000396000f3fe60806040526004361061016a5760003560e01c8063584b153e116100d1578063a217fddf1161008a578063d45c443511610064578063d45c443514610582578063d547741f146105bf578063e38335e5146105e8578063f27a0c921461060457610171565b8063a217fddf146104f1578063b1c5f4271461051c578063c4d252f51461055957610171565b8063584b153e146103bd57806364d62353146103fa5780638065657f146104235780638f2a0bb0146104605780638f61f4f51461048957806391d14854146104b457610171565b806315eaef6b1161012357806315eaef6b1461028b578063248a9ca3146102b45780632ab0f529146102f15780632f2ff15d1461032e57806331d507501461035757806336568abe1461039457610171565b806301d5062a1461017657806301ffc9a71461019f57806307bd0265146101dc5780630d3cf6fc14610207578063134008d31461023257806313bc9f201461024e57610171565b3661017157005b600080fd5b34801561018257600080fd5b5061019d60048036038101906101989190611a6f565b61062f565b005b3480156101ab57600080fd5b506101c660048036038101906101c19190611b76565b6106cc565b6040516101d39190611bbe565b60405180910390f35b3480156101e857600080fd5b506101f1610746565b6040516101fe9190611be8565b60405180910390f35b34801561021357600080fd5b5061021c61076a565b6040516102299190611be8565b60405180910390f35b61024c60048036038101906102479190611c03565b61078e565b005b34801561025a57600080fd5b5061027560048036038101906102709190611c9d565b61080e565b6040516102829190611bbe565b60405180910390f35b34801561029757600080fd5b506102b260048036038101906102ad9190611cca565b610834565b005b3480156102c057600080fd5b506102db60048036038101906102d69190611c9d565b610a44565b6040516102e89190611be8565b60405180910390f35b3480156102fd57600080fd5b5061031860048036038101906103139190611c9d565b610a63565b6040516103259190611bbe565b60405180910390f35b34801561033a57600080fd5b5061035560048036038101906103509190611d1d565b610a78565b005b34801561036357600080fd5b5061037e60048036038101906103799190611c9d565b610aa1565b60405161038b9190611bbe565b60405180910390f35b3480156103a057600080fd5b506103bb60048036038101906103b69190611d1d565b610ab5565b005b3480156103c957600080fd5b506103e460048036038101906103df9190611c9d565b610b38565b6040516103f19190611bbe565b60405180910390f35b34801561040657600080fd5b50610421600480360381019061041c9190611d5d565b610b4d565b005b34801561042f57600080fd5b5061044a60048036038101906104459190611c03565b610c00565b6040516104579190611be8565b60405180910390f35b34801561046c57600080fd5b5061048760048036038101906104829190611e8c565b610c3f565b005b34801561049557600080fd5b5061049e610df2565b6040516104ab9190611be8565b60405180910390f35b3480156104c057600080fd5b506104db60048036038101906104d69190611d1d565b610e16565b6040516104e89190611bbe565b60405180910390f35b3480156104fd57600080fd5b50610506610e80565b6040516105139190611be8565b60405180910390f35b34801561052857600080fd5b50610543600480360381019061053e9190611f7b565b610e87565b6040516105509190611be8565b60405180910390f35b34801561056557600080fd5b50610580600480360381019061057b9190611c9d565b610ecc565b005b34801561058e57600080fd5b506105a960048036038101906105a49190611c9d565b610f8e565b6040516105b69190612066565b60405180910390f35b3480156105cb57600080fd5b506105e660048036038101906105e19190611d1d565b610fab565b005b61060260048036038101906105fd9190611f7b565b610fd4565b005b34801561061057600080fd5b5061061961116a565b6040516106269190612066565b60405180910390f35b7fb09aa5aeb3702cfd50b6b62bc4532604938f21248a27a1d5ca736082b6819cc16106618161065c611174565b61117c565b6000610671898989898989610c00565b905061067d8184611219565b6000817f4cf4410cc57040e44862ef0f45f3dd5a5e02db8eb8add648d4b0e236f1d07dca8b8b8b8b8b8a6040516106b9969594939291906120ee565b60405180910390a3505050505050505050565b60007f7965db0b000000000000000000000000000000000000000000000000000000007bffffffffffffffffffffffffffffffffffffffffffffffffffffffff1916827bffffffffffffffffffffffffffffffffffffffffffffffffffffffff1916148061073f575061073e826112d3565b5b9050919050565b7fd8aa0f3194971a2a116679f7c2090f6939c8d4e01a2a8d7e41d55e5351469e6381565b7f5f58e3a2316349923ce3780f8d587db2d72378aed66a8261c916544fa6846ca581565b7fd8aa0f3194971a2a116679f7c2090f6939c8d4e01a2a8d7e41d55e5351469e636107ba816000610e16565b6107d0576107cf816107ca611174565b61117c565b5b60006107e0888888888888610c00565b90506107ec818561133d565b6107fb8160008a8a8a8a6113de565b610804816114d6565b5050505050505050565b60008061081a83610f8e565b905060018111801561082c5750428111155b915050919050565b60008390503073ffffffffffffffffffffffffffffffffffffffff163373ffffffffffffffffffffffffffffffffffffffff16146108a7576040517f08c379a000000000000000000000000000000000000000000000000000000000815260040161089e906121cd565b60405180910390fd5b818173ffffffffffffffffffffffffffffffffffffffff166370a08231306040518263ffffffff1660e01b81526004016108e191906121ed565b60206040518083038186803b1580156108f957600080fd5b505afa15801561090d573d6000803e3d6000fd5b505050506040513d601f19601f82011682018060405250810190610931919061221d565b1015610972576040517f08c379a000000000000000000000000000000000000000000000000000000000815260040161096990612296565b60405180910390fd5b8073ffffffffffffffffffffffffffffffffffffffff1663a9059cbb84846040518363ffffffff1660e01b81526004016109ad9291906122b6565b602060405180830381600087803b1580156109c757600080fd5b505af11580156109db573d6000803e3d6000fd5b505050506040513d601f19601f820116820180604052508101906109ff919061230b565b610a3e576040517f08c379a0000000000000000000000000000000000000000000000000000000008152600401610a35906123aa565b60405180910390fd5b50505050565b6000806000838152602001908152602001600020600101549050919050565b60006001610a7083610f8e565b149050919050565b610a8182610a44565b610a9281610a8d611174565b61117c565b610a9c8383611539565b505050565b600080610aad83610f8e565b119050919050565b610abd611174565b73ffffffffffffffffffffffffffffffffffffffff168173ffffffffffffffffffffffffffffffffffffffff1614610b2a576040517f08c379a0000000000000000000000000000000000000000000000000000000008152600401610b219061243c565b60405180910390fd5b610b348282611619565b5050565b60006001610b4583610f8e565b119050919050565b3073ffffffffffffffffffffffffffffffffffffffff163373ffffffffffffffffffffffffffffffffffffffff1614610bbb576040517f08c379a0000000000000000000000000000000000000000000000000000000008152600401610bb2906121cd565b60405180910390fd5b7f11c24f4ead16507c69ac467fbd5e4eed5fb5c699626d2cc6d66421df253886d560025482604051610bee92919061245c565b60405180910390a18060028190555050565b6000868686868686604051602001610c1d96959493929190612485565b6040516020818303038152906040528051906020012090509695505050505050565b7fb09aa5aeb3702cfd50b6b62bc4532604938f21248a27a1d5ca736082b6819cc1610c7181610c6c611174565b61117c565b878790508a8a905014610cb9576040517f08c379a0000000000000000000000000000000000000000000000000000000008152600401610cb09061252d565b60405180910390fd5b858590508a8a905014610d01576040517f08c379a0000000000000000000000000000000000000000000000000000000008152600401610cf89061252d565b60405180910390fd5b6000610d138b8b8b8b8b8b8b8b610e87565b9050610d1f8184611219565b60005b8b8b9050811015610de45780827f4cf4410cc57040e44862ef0f45f3dd5a5e02db8eb8add648d4b0e236f1d07dca8e8e85818110610d6357610d6261254d565b5b9050602002016020810190610d78919061257c565b8d8d86818110610d8b57610d8a61254d565b5b905060200201358c8c87818110610da557610da461254d565b5b9050602002810190610db791906125b8565b8c8b604051610dcb969594939291906120ee565b60405180910390a380610ddd9061264a565b9050610d22565b505050505050505050505050565b7fb09aa5aeb3702cfd50b6b62bc4532604938f21248a27a1d5ca736082b6819cc181565b600080600084815260200190815260200160002060000160008373ffffffffffffffffffffffffffffffffffffffff1673ffffffffffffffffffffffffffffffffffffffff16815260200190815260200160002060009054906101000a900460ff16905092915050565b6000801b81565b60008888888888888888604051602001610ea898979695949392919061292c565b60405160208183030381529060405280519060200120905098975050505050505050565b7fb09aa5aeb3702cfd50b6b62bc4532604938f21248a27a1d5ca736082b6819cc1610efe81610ef9611174565b61117c565b610f0782610b38565b610f46576040517f08c379a0000000000000000000000000000000000000000000000000000000008152600401610f3d90612a0c565b60405180910390fd5b6001600083815260200190815260200160002060009055817fbaa1eb22f2a492ba1a5fea61b8df4d27c6c8b5f3971e63bb58fa14ff72eedb7060405160405180910390a25050565b600060016000838152602001908152602001600020549050919050565b610fb482610a44565b610fc581610fc0611174565b61117c565b610fcf8383611619565b505050565b7fd8aa0f3194971a2a116679f7c2090f6939c8d4e01a2a8d7e41d55e5351469e63611000816000610e16565b6110165761101581611010611174565b61117c565b5b86869050898990501461105e576040517f08c379a00000000000000000000000000000000000000000000000000000000081526004016110559061252d565b60405180910390fd5b8484905089899050146110a6576040517f08c379a000000000000000000000000000000000000000000000000000000000815260040161109d9061252d565b60405180910390fd5b60006110b88a8a8a8a8a8a8a8a610e87565b90506110c4818561133d565b60005b8a8a90508110156111545761114382828d8d858181106110ea576110e961254d565b5b90506020020160208101906110ff919061257c565b8c8c868181106111125761111161254d565b5b905060200201358b8b8781811061112c5761112b61254d565b5b905060200281019061113e91906125b8565b6113de565b8061114d9061264a565b90506110c7565b5061115e816114d6565b50505050505050505050565b6000600254905090565b600033905090565b6111868282610e16565b611215576111ab8173ffffffffffffffffffffffffffffffffffffffff1660146116fa565b6111b98360001c60206116fa565b6040516020016111ca929190612b3e565b6040516020818303038152906040526040517f08c379a000000000000000000000000000000000000000000000000000000000815260040161120c9190612bb1565b60405180910390fd5b5050565b61122282610aa1565b15611262576040517f08c379a000000000000000000000000000000000000000000000000000000000815260040161125990612c45565b60405180910390fd5b61126a61116a565b8110156112ac576040517f08c379a00000000000000000000000000000000000000000000000000000000081526004016112a390612cd7565b60405180910390fd5b80426112b89190612cf7565b60016000848152602001908152602001600020819055505050565b60007f01ffc9a7000000000000000000000000000000000000000000000000000000007bffffffffffffffffffffffffffffffffffffffffffffffffffffffff1916827bffffffffffffffffffffffffffffffffffffffffffffffffffffffff1916149050919050565b6113468261080e565b611385576040517f08c379a000000000000000000000000000000000000000000000000000000000815260040161137c90612dbf565b60405180910390fd5b6000801b81148061139b575061139a81610a63565b5b6113da576040517f08c379a00000000000000000000000000000000000000000000000000000000081526004016113d190612e51565b60405180910390fd5b5050565b60008473ffffffffffffffffffffffffffffffffffffffff16848484604051611408929190612ea1565b60006040518083038185875af1925050503d8060008114611445576040519150601f19603f3d011682016040523d82523d6000602084013e61144a565b606091505b505090508061148e576040517f08c379a000000000000000000000000000000000000000000000000000000000815260040161148590612f2c565b60405180910390fd5b85877fc2617efa69bab66782fa219543714338489c4e9e178271560a91b82c3f612b58878787876040516114c59493929190612f4c565b60405180910390a350505050505050565b6114df8161080e565b61151e576040517f08c379a000000000000000000000000000000000000000000000000000000000815260040161151590612dbf565b60405180910390fd5b60018060008381526020019081526020016000208190555050565b6115438282610e16565b61161557600160008084815260200190815260200160002060000160008373ffffffffffffffffffffffffffffffffffffffff1673ffffffffffffffffffffffffffffffffffffffff16815260200190815260200160002060006101000a81548160ff0219169083151502179055506115ba611174565b73ffffffffffffffffffffffffffffffffffffffff168173ffffffffffffffffffffffffffffffffffffffff16837f2f8788117e7eff1d82e926ec794901d17c78024a50270940304540a733656f0d60405160405180910390a45b5050565b6116238282610e16565b156116f657600080600084815260200190815260200160002060000160008373ffffffffffffffffffffffffffffffffffffffff1673ffffffffffffffffffffffffffffffffffffffff16815260200190815260200160002060006101000a81548160ff02191690831515021790555061169b611174565b73ffffffffffffffffffffffffffffffffffffffff168173ffffffffffffffffffffffffffffffffffffffff16837ff6391f5c32d9c69d2a47ea670b442974b53935d1edc7fd64eb21e047a839171b60405160405180910390a45b5050565b60606000600283600261170d9190612f8c565b6117179190612cf7565b67ffffffffffffffff8111156117305761172f612fe6565b5b6040519080825280601f01601f1916602001820160405280156117625781602001600182028036833780820191505090505b5090507f30000000000000000000000000000000000000000000000000000000000000008160008151811061179a5761179961254d565b5b60200101907effffffffffffffffffffffffffffffffffffffffffffffffffffffffffffff1916908160001a9053507f7800000000000000000000000000000000000000000000000000000000000000816001815181106117fe576117fd61254d565b5b60200101907effffffffffffffffffffffffffffffffffffffffffffffffffffffffffffff1916908160001a9053506000600184600261183e9190612f8c565b6118489190612cf7565b90505b60018111156118e8577f3031323334353637383961626364656600000000000000000000000000000000600f86166010811061188a5761188961254d565b5b1a60f81b8282815181106118a1576118a061254d565b5b60200101907effffffffffffffffffffffffffffffffffffffffffffffffffffffffffffff1916908160001a905350600485901c9450806118e190613015565b905061184b565b506000841461192c576040517f08c379a00000000000000000000000000000000000000000000000000000000081526004016119239061308b565b60405180910390fd5b8091505092915050565b600080fd5b600080fd5b600073ffffffffffffffffffffffffffffffffffffffff82169050919050565b600061196b82611940565b9050919050565b61197b81611960565b811461198657600080fd5b50565b60008135905061199881611972565b92915050565b6000819050919050565b6119b18161199e565b81146119bc57600080fd5b50565b6000813590506119ce816119a8565b92915050565b600080fd5b600080fd5b600080fd5b60008083601f8401126119f9576119f86119d4565b5b8235905067ffffffffffffffff811115611a1657611a156119d9565b5b602083019150836001820283011115611a3257611a316119de565b5b9250929050565b6000819050919050565b611a4c81611a39565b8114611a5757600080fd5b50565b600081359050611a6981611a43565b92915050565b600080600080600080600060c0888a031215611a8e57611a8d611936565b5b6000611a9c8a828b01611989565b9750506020611aad8a828b016119bf565b965050604088013567ffffffffffffffff811115611ace57611acd61193b565b5b611ada8a828b016119e3565b95509550506060611aed8a828b01611a5a565b9350506080611afe8a828b01611a5a565b92505060a0611b0f8a828b016119bf565b91505092959891949750929550565b60007fffffffff0000000000000000000000000000000000000000000000000000000082169050919050565b611b5381611b1e565b8114611b5e57600080fd5b50565b600081359050611b7081611b4a565b92915050565b600060208284031215611b8c57611b8b611936565b5b6000611b9a84828501611b61565b91505092915050565b60008115159050919050565b611bb881611ba3565b82525050565b6000602082019050611bd36000830184611baf565b92915050565b611be281611a39565b82525050565b6000602082019050611bfd6000830184611bd9565b92915050565b60008060008060008060a08789031215611c2057611c1f611936565b5b6000611c2e89828a01611989565b9650506020611c3f89828a016119bf565b955050604087013567ffffffffffffffff811115611c6057611c5f61193b565b5b611c6c89828a016119e3565b94509450506060611c7f89828a01611a5a565b9250506080611c9089828a01611a5a565b9150509295509295509295565b600060208284031215611cb357611cb2611936565b5b6000611cc184828501611a5a565b91505092915050565b600080600060608486031215611ce357611ce2611936565b5b6000611cf186828701611989565b9350506020611d0286828701611989565b9250506040611d13868287016119bf565b9150509250925092565b60008060408385031215611d3457611d33611936565b5b6000611d4285828601611a5a565b9250506020611d5385828601611989565b9150509250929050565b600060208284031215611d7357611d72611936565b5b6000611d81848285016119bf565b91505092915050565b60008083601f840112611da057611d9f6119d4565b5b8235905067ffffffffffffffff811115611dbd57611dbc6119d9565b5b602083019150836020820283011115611dd957611dd86119de565b5b9250929050565b60008083601f840112611df657611df56119d4565b5b8235905067ffffffffffffffff811115611e1357611e126119d9565b5b602083019150836020820283011115611e2f57611e2e6119de565b5b9250929050565b60008083601f840112611e4c57611e4b6119d4565b5b8235905067ffffffffffffffff811115611e6957611e686119d9565b5b602083019150836020820283011115611e8557611e846119de565b5b9250929050565b600080600080600080600080600060c08a8c031215611eae57611ead611936565b5b60008a013567ffffffffffffffff811115611ecc57611ecb61193b565b5b611ed88c828d01611d8a565b995099505060208a013567ffffffffffffffff811115611efb57611efa61193b565b5b611f078c828d01611de0565b975097505060408a013567ffffffffffffffff811115611f2a57611f2961193b565b5b611f368c828d01611e36565b95509550506060611f498c828d01611a5a565b9350506080611f5a8c828d01611a5a565b92505060a0611f6b8c828d016119bf565b9150509295985092959850929598565b60008060008060008060008060a0898b031215611f9b57611f9a611936565b5b600089013567ffffffffffffffff811115611fb957611fb861193b565b5b611fc58b828c01611d8a565b9850985050602089013567ffffffffffffffff811115611fe857611fe761193b565b5b611ff48b828c01611de0565b9650965050604089013567ffffffffffffffff8111156120175761201661193b565b5b6120238b828c01611e36565b945094505060606120368b828c01611a5a565b92505060806120478b828c01611a5a565b9150509295985092959890939650565b6120608161199e565b82525050565b600060208201905061207b6000830184612057565b92915050565b61208a81611960565b82525050565b600082825260208201905092915050565b82818337600083830152505050565b6000601f19601f8301169050919050565b60006120cd8385612090565b93506120da8385846120a1565b6120e3836120b0565b840190509392505050565b600060a0820190506121036000830189612081565b6121106020830188612057565b81810360408301526121238186886120c1565b90506121326060830185611bd9565b61213f6080830184612057565b979650505050505050565b600082825260208201905092915050565b7f546f6b656e476f7665726e6f723a2063616c6c6572206d75737420626520746960008201527f6d656c6f636b0000000000000000000000000000000000000000000000000000602082015250565b60006121b760268361214a565b91506121c28261215b565b604082019050919050565b600060208201905081810360008301526121e6816121aa565b9050919050565b60006020820190506122026000830184612081565b92915050565b600081519050612217816119a8565b92915050565b60006020828403121561223357612232611936565b5b600061224184828501612208565b91505092915050565b7f546f6b656e476f7665726e6f723a206e6f7420656e6f75676820746f6b656e73600082015250565b600061228060208361214a565b915061228b8261224a565b602082019050919050565b600060208201905081810360008301526122af81612273565b9050919050565b60006040820190506122cb6000830185612081565b6122d86020830184612057565b9392505050565b6122e881611ba3565b81146122f357600080fd5b50565b600081519050612305816122df565b92915050565b60006020828403121561232157612320611936565b5b600061232f848285016122f6565b91505092915050565b7f546f6b656e476f7665726e6f723a20746f6b656e207472616e7366657220666160008201527f696c656400000000000000000000000000000000000000000000000000000000602082015250565b600061239460248361214a565b915061239f82612338565b604082019050919050565b600060208201905081810360008301526123c381612387565b9050919050565b7f416363657373436f6e74726f6c3a2063616e206f6e6c792072656e6f756e636560008201527f20726f6c657320666f722073656c660000000000000000000000000000000000602082015250565b6000612426602f8361214a565b9150612431826123ca565b604082019050919050565b6000602082019050818103600083015261245581612419565b9050919050565b60006040820190506124716000830185612057565b61247e6020830184612057565b9392505050565b600060a08201905061249a6000830189612081565b6124a76020830188612057565b81810360408301526124ba8186886120c1565b90506124c96060830185611bd9565b6124d66080830184611bd9565b979650505050505050565b7f546f6b656e476f7665726e6f723a206c656e677468206d69736d617463680000600082015250565b6000612517601e8361214a565b9150612522826124e1565b602082019050919050565b600060208201905081810360008301526125468161250a565b9050919050565b7f4e487b7100000000000000000000000000000000000000000000000000000000600052603260045260246000fd5b60006020828403121561259257612591611936565b5b60006125a084828501611989565b91505092915050565b600080fd5b600080fd5b600080fd5b600080833560016020038436030381126125d5576125d46125a9565b5b80840192508235915067ffffffffffffffff8211156125f7576125f66125ae565b5b602083019250600182023603831315612613576126126125b3565b5b509250929050565b7f4e487b7100000000000000000000000000000000000000000000000000000000600052601160045260246000fd5b60006126558261199e565b91507fffffffffffffffffffffffffffffffffffffffffffffffffffffffffffffffff8214156126885761268761261b565b5b600182019050919050565b600082825260208201905092915050565b6000819050919050565b6126b781611960565b82525050565b60006126c983836126ae565b60208301905092915050565b60006126e46020840184611989565b905092915050565b6000602082019050919050565b60006127058385612693565b9350612710826126a4565b8060005b858110156127495761272682846126d5565b61273088826126bd565b975061273b836126ec565b925050600181019050612714565b5085925050509392505050565b600082825260208201905092915050565b600080fd5b60006127788385612756565b93507f07ffffffffffffffffffffffffffffffffffffffffffffffffffffffffffffff8311156127ab576127aa612767565b5b6020830292506127bc8385846120a1565b82840190509392505050565b600082825260208201905092915050565b6000819050919050565b600082825260208201905092915050565b600061280083856127e3565b935061280d8385846120a1565b612816836120b0565b840190509392505050565b600061282e8484846127f4565b90509392505050565b600080fd5b600080fd5b600080fd5b6000808335600160200384360303811261286357612862612841565b5b83810192508235915060208301925067ffffffffffffffff82111561288b5761288a612837565b5b6001820236038413156128a1576128a061283c565b5b509250929050565b6000602082019050919050565b60006128c283856127c8565b9350836020840285016128d4846127d9565b8060005b8781101561291a5784840389526128ef8284612846565b6128fa868284612821565b9550612905846128a9565b935060208b019a5050506001810190506128d8565b50829750879450505050509392505050565b600060a0820190508181036000830152612947818a8c6126f9565b9050818103602083015261295c81888a61276c565b905081810360408301526129718186886128b6565b90506129806060830185611bd9565b61298d6080830184611bd9565b9998505050505050505050565b7f546f6b656e476f7665726e6f723a206f7065726174696f6e2063616e6e6f742060008201527f62652063616e63656c6c65640000000000000000000000000000000000000000602082015250565b60006129f6602c8361214a565b9150612a018261299a565b604082019050919050565b60006020820190508181036000830152612a25816129e9565b9050919050565b600081905092915050565b7f416363657373436f6e74726f6c3a206163636f756e7420000000000000000000600082015250565b6000612a6d601783612a2c565b9150612a7882612a37565b601782019050919050565b600081519050919050565b60005b83811015612aac578082015181840152602081019050612a91565b83811115612abb576000848401525b50505050565b6000612acc82612a83565b612ad68185612a2c565b9350612ae6818560208601612a8e565b80840191505092915050565b7f206973206d697373696e6720726f6c6520000000000000000000000000000000600082015250565b6000612b28601183612a2c565b9150612b3382612af2565b601182019050919050565b6000612b4982612a60565b9150612b558285612ac1565b9150612b6082612b1b565b9150612b6c8284612ac1565b91508190509392505050565b6000612b8382612a83565b612b8d818561214a565b9350612b9d818560208601612a8e565b612ba6816120b0565b840191505092915050565b60006020820190508181036000830152612bcb8184612b78565b905092915050565b7f546f6b656e476f7665726e6f723a206f7065726174696f6e20616c726561647960008201527f207363686564756c656400000000000000000000000000000000000000000000602082015250565b6000612c2f602a8361214a565b9150612c3a82612bd3565b604082019050919050565b60006020820190508181036000830152612c5e81612c22565b9050919050565b7f546f6b656e476f7665726e6f723a20696e73756666696369656e742064656c6160008201527f7900000000000000000000000000000000000000000000000000000000000000602082015250565b6000612cc160218361214a565b9150612ccc82612c65565b604082019050919050565b60006020820190508181036000830152612cf081612cb4565b9050919050565b6000612d028261199e565b9150612d0d8361199e565b9250827fffffffffffffffffffffffffffffffffffffffffffffffffffffffffffffffff03821115612d4257612d4161261b565b5b828201905092915050565b7f546f6b656e476f7665726e6f723a206f7065726174696f6e206973206e6f742060008201527f7265616479000000000000000000000000000000000000000000000000000000602082015250565b6000612da960258361214a565b9150612db482612d4d565b604082019050919050565b60006020820190508181036000830152612dd881612d9c565b9050919050565b7f546f6b656e476f7665726e6f723a206d697373696e6720646570656e64656e6360008201527f7900000000000000000000000000000000000000000000000000000000000000602082015250565b6000612e3b60218361214a565b9150612e4682612ddf565b604082019050919050565b60006020820190508181036000830152612e6a81612e2e565b9050919050565b600081905092915050565b6000612e888385612e71565b9350612e958385846120a1565b82840190509392505050565b6000612eae828486612e7c565b91508190509392505050565b7f546f6b656e476f7665726e6f723a20756e6465726c79696e67207472616e736160008201527f6374696f6e207265766572746564000000000000000000000000000000000000602082015250565b6000612f16602e8361214a565b9150612f2182612eba565b604082019050919050565b60006020820190508181036000830152612f4581612f09565b9050919050565b6000606082019050612f616000830187612081565b612f6e6020830186612057565b8181036040830152612f818184866120c1565b905095945050505050565b6000612f978261199e565b9150612fa28361199e565b9250817fffffffffffffffffffffffffffffffffffffffffffffffffffffffffffffffff0483118215151615612fdb57612fda61261b565b5b828202905092915050565b7f4e487b7100000000000000000000000000000000000000000000000000000000600052604160045260246000fd5b60006130208261199e565b915060008214156130345761303361261b565b5b600182039050919050565b7f537472696e67733a20686578206c656e67746820696e73756666696369656e74600082015250565b600061307560208361214a565b91506130808261303f565b602082019050919050565b600060208201905081810360008301526130a481613068565b905091905056fea26469706673582212200312a65dd0052c86f9cf9f32523e86ffda880c6fad9a68c9e07a01ebc93fcf6764736f6c63430008090033",
  "linkReferences": {},
  "deployedLinkReferences": {}
}