{
  "_format": "hh-sol-artifact-1",
  "contractName": "TokenGovernor",
  "sourceName": "contracts/TokenGovernor.sol",
  "abi": [
    {
      "inputs": [
        {
          "internalType": "contract IERC20",
          "name": "_token",
          "type": "address"
        },
        {
          "internalType": "uint256",
          "name": "minDelay",
          "type": "uint256"
        },
        {
          "internalType": "address[]",
          "name": "proposers",
          "type": "address[]"
        },
        {
          "internalType": "address[]",
          "name": "executors",
          "type": "address[]"
        }
      ],
      "stateMutability": "nonpayable",
      "type": "constructor"
    },
    {
      "anonymous": false,
      "inputs": [
        {
          "indexed": true,
          "internalType": "bytes32",
          "name": "id",
          "type": "bytes32"
        },
        {
          "indexed": true,
          "internalType": "uint256",
          "name": "index",
          "type": "uint256"
        },
        {
          "indexed": false,
          "internalType": "address",
          "name": "target",
          "type": "address"
        },
        {
          "indexed": false,
          "internalType": "uint256",
          "name": "value",
          "type": "uint256"
        },
        {
          "indexed": false,
          "internalType": "bytes",
          "name": "data",
          "type": "bytes"
        }
      ],
      "name": "CallExecuted",
      "type": "event"
    },
    {
      "anonymous": false,
      "inputs": [
        {
          "indexed": true,
          "internalType": "bytes32",
          "name": "id",
          "type": "bytes32"
        },
        {
          "indexed": true,
          "internalType": "uint256",
          "name": "index",
          "type": "uint256"
        },
        {
          "indexed": false,
          "internalType": "address",
          "name": "target",
          "type": "address"
        },
        {
          "indexed": false,
          "internalType": "uint256",
          "name": "value",
          "type": "uint256"
        },
        {
          "indexed": false,
          "internalType": "bytes",
          "name": "data",
          "type": "bytes"
        },
        {
          "indexed": false,
          "internalType": "bytes32",
          "name": "predecessor",
          "type": "bytes32"
        },
        {
          "indexed": false,
          "internalType": "uint256",
          "name": "delay",
          "type": "uint256"
        }
      ],
      "name": "CallScheduled",
      "type": "event"
    },
    {
      "anonymous": false,
      "inputs": [
        {
          "indexed": true,
          "internalType": "bytes32",
          "name": "id",
          "type": "bytes32"
        }
      ],
      "name": "Cancelled",
      "type": "event"
    },
    {
      "anonymous": false,
      "inputs": [
        {
          "indexed": false,
          "internalType": "uint256",
          "name": "oldDuration",
          "type": "uint256"
        },
        {
          "indexed": false,
          "internalType": "uint256",
          "name": "newDuration",
          "type": "uint256"
        }
      ],
      "name": "MinDelayChange",
      "type": "event"
    },
    {
      "anonymous": false,
      "inputs": [
        {
          "indexed": true,
          "internalType": "bytes32",
          "name": "role",
          "type": "bytes32"
        },
        {
          "indexed": true,
          "internalType": "bytes32",
          "name": "previousAdminRole",
          "type": "bytes32"
        },
        {
          "indexed": true,
          "internalType": "bytes32",
          "name": "newAdminRole",
          "type": "bytes32"
        }
      ],
      "name": "RoleAdminChanged",
      "type": "event"
    },
    {
      "anonymous": false,
      "inputs": [
        {
          "indexed": true,
          "internalType": "bytes32",
          "name": "role",
          "type": "bytes32"
        },
        {
          "indexed": true,
          "internalType": "address",
          "name": "account",
          "type": "address"
        },
        {
          "indexed": true,
          "internalType": "address",
          "name": "sender",
          "type": "address"
        }
      ],
      "name": "RoleGranted",
      "type": "event"
    },
    {
      "anonymous": false,
      "inputs": [
        {
          "indexed": true,
          "internalType": "bytes32",
          "name": "role",
          "type": "bytes32"
        },
        {
          "indexed": true,
          "internalType": "address",
          "name": "account",
          "type": "address"
        },
        {
          "indexed": true,
          "internalType": "address",
          "name": "sender",
          "type": "address"
        }
      ],
      "name": "RoleRevoked",
      "type": "event"
    },
    {
      "inputs": [],
      "name": "DEFAULT_ADMIN_ROLE",
      "outputs": [
        {
          "internalType": "bytes32",
          "name": "",
          "type": "bytes32"
        }
      ],
      "stateMutability": "view",
      "type": "function"
    },
    {
      "inputs": [],
      "name": "EXECUTOR_ROLE",
      "outputs": [
        {
          "internalType": "bytes32",
          "name": "",
          "type": "bytes32"
        }
      ],
      "stateMutability": "view",
      "type": "function"
    },
    {
      "inputs": [],
      "name": "PROPOSER_ROLE",
      "outputs": [
        {
          "internalType": "bytes32",
          "name": "",
          "type": "bytes32"
        }
      ],
      "stateMutability": "view",
      "type": "function"
    },
    {
      "inputs": [],
      "name": "TIMELOCK_ADMIN_ROLE",
      "outputs": [
        {
          "internalType": "bytes32",
          "name": "",
          "type": "bytes32"
        }
      ],
      "stateMutability": "view",
      "type": "function"
    },
    {
      "inputs": [
        {
          "internalType": "bytes32",
          "name": "id",
          "type": "bytes32"
        }
      ],
      "name": "cancel",
      "outputs": [],
      "stateMutability": "nonpayable",
      "type": "function"
    },
    {
      "inputs": [
        {
          "internalType": "address",
          "name": "target",
          "type": "address"
        },
        {
          "internalType": "uint256",
          "name": "value",
          "type": "uint256"
        },
        {
          "internalType": "bytes",
          "name": "data",
          "type": "bytes"
        },
        {
          "internalType": "bytes32",
          "name": "predecessor",
          "type": "bytes32"
        },
        {
          "internalType": "bytes32",
          "name": "salt",
          "type": "bytes32"
        }
      ],
      "name": "execute",
      "outputs": [],
      "stateMutability": "payable",
      "type": "function"
    },
    {
      "inputs": [
        {
          "internalType": "address[]",
          "name": "targets",
          "type": "address[]"
        },
        {
          "internalType": "uint256[]",
          "name": "values",
          "type": "uint256[]"
        },
        {
          "internalType": "bytes[]",
          "name": "datas",
          "type": "bytes[]"
        },
        {
          "internalType": "bytes32",
          "name": "predecessor",
          "type": "bytes32"
        },
        {
          "internalType": "bytes32",
          "name": "salt",
          "type": "bytes32"
        }
      ],
      "name": "executeBatch",
      "outputs": [],
      "stateMutability": "payable",
      "type": "function"
    },
    {
      "inputs": [],
      "name": "getMinDelay",
      "outputs": [
        {
          "internalType": "uint256",
          "name": "duration",
          "type": "uint256"
        }
      ],
      "stateMutability": "view",
      "type": "function"
    },
    {
      "inputs": [
        {
          "internalType": "bytes32",
          "name": "role",
          "type": "bytes32"
        }
      ],
      "name": "getRoleAdmin",
      "outputs": [
        {
          "internalType": "bytes32",
          "name": "",
          "type": "bytes32"
        }
      ],
      "stateMutability": "view",
      "type": "function"
    },
    {
      "inputs": [
        {
          "internalType": "bytes32",
          "name": "id",
          "type": "bytes32"
        }
      ],
      "name": "getTimestamp",
      "outputs": [
        {
          "internalType": "uint256",
          "name": "timestamp",
          "type": "uint256"
        }
      ],
      "stateMutability": "view",
      "type": "function"
    },
    {
      "inputs": [
        {
          "internalType": "bytes32",
          "name": "role",
          "type": "bytes32"
        },
        {
          "internalType": "address",
          "name": "account",
          "type": "address"
        }
      ],
      "name": "grantRole",
      "outputs": [],
      "stateMutability": "nonpayable",
      "type": "function"
    },
    {
      "inputs": [
        {
          "internalType": "bytes32",
          "name": "role",
          "type": "bytes32"
        },
        {
          "internalType": "address",
          "name": "account",
          "type": "address"
        }
      ],
      "name": "hasRole",
      "outputs": [
        {
          "internalType": "bool",
          "name": "",
          "type": "bool"
        }
      ],
      "stateMutability": "view",
      "type": "function"
    },
    {
      "inputs": [
        {
          "internalType": "address",
          "name": "target",
          "type": "address"
        },
        {
          "internalType": "uint256",
          "name": "value",
          "type": "uint256"
        },
        {
          "internalType": "bytes",
          "name": "data",
          "type": "bytes"
        },
        {
          "internalType": "bytes32",
          "name": "predecessor",
          "type": "bytes32"
        },
        {
          "internalType": "bytes32",
          "name": "salt",
          "type": "bytes32"
        }
      ],
      "name": "hashOperation",
      "outputs": [
        {
          "internalType": "bytes32",
          "name": "hash",
          "type": "bytes32"
        }
      ],
      "stateMutability": "pure",
      "type": "function"
    },
    {
      "inputs": [
        {
          "internalType": "address[]",
          "name": "targets",
          "type": "address[]"
        },
        {
          "internalType": "uint256[]",
          "name": "values",
          "type": "uint256[]"
        },
        {
          "internalType": "bytes[]",
          "name": "datas",
          "type": "bytes[]"
        },
        {
          "internalType": "bytes32",
          "name": "predecessor",
          "type": "bytes32"
        },
        {
          "internalType": "bytes32",
          "name": "salt",
          "type": "bytes32"
        }
      ],
      "name": "hashOperationBatch",
      "outputs": [
        {
          "internalType": "bytes32",
          "name": "hash",
          "type": "bytes32"
        }
      ],
      "stateMutability": "pure",
      "type": "function"
    },
    {
      "inputs": [
        {
          "internalType": "bytes32",
          "name": "id",
          "type": "bytes32"
        }
      ],
      "name": "isOperation",
      "outputs": [
        {
          "internalType": "bool",
          "name": "pending",
          "type": "bool"
        }
      ],
      "stateMutability": "view",
      "type": "function"
    },
    {
      "inputs": [
        {
          "internalType": "bytes32",
          "name": "id",
          "type": "bytes32"
        }
      ],
      "name": "isOperationDone",
      "outputs": [
        {
          "internalType": "bool",
          "name": "done",
          "type": "bool"
        }
      ],
      "stateMutability": "view",
      "type": "function"
    },
    {
      "inputs": [
        {
          "internalType": "bytes32",
          "name": "id",
          "type": "bytes32"
        }
      ],
      "name": "isOperationPending",
      "outputs": [
        {
          "internalType": "bool",
          "name": "pending",
          "type": "bool"
        }
      ],
      "stateMutability": "view",
      "type": "function"
    },
    {
      "inputs": [
        {
          "internalType": "bytes32",
          "name": "id",
          "type": "bytes32"
        }
      ],
      "name": "isOperationReady",
      "outputs": [
        {
          "internalType": "bool",
          "name": "ready",
          "type": "bool"
        }
      ],
      "stateMutability": "view",
      "type": "function"
    },
    {
      "inputs": [
        {
          "internalType": "bytes32",
          "name": "role",
          "type": "bytes32"
        },
        {
          "internalType": "address",
          "name": "account",
          "type": "address"
        }
      ],
      "name": "renounceRole",
      "outputs": [],
      "stateMutability": "nonpayable",
      "type": "function"
    },
    {
      "inputs": [
        {
          "internalType": "bytes32",
          "name": "role",
          "type": "bytes32"
        },
        {
          "internalType": "address",
          "name": "account",
          "type": "address"
        }
      ],
      "name": "revokeRole",
      "outputs": [],
      "stateMutability": "nonpayable",
      "type": "function"
    },
    {
      "inputs": [
        {
          "internalType": "address",
          "name": "target",
          "type": "address"
        },
        {
          "internalType": "uint256",
          "name": "value",
          "type": "uint256"
        },
        {
          "internalType": "bytes",
          "name": "data",
          "type": "bytes"
        },
        {
          "internalType": "bytes32",
          "name": "predecessor",
          "type": "bytes32"
        },
        {
          "internalType": "bytes32",
          "name": "salt",
          "type": "bytes32"
        },
        {
          "internalType": "uint256",
          "name": "delay",
          "type": "uint256"
        }
      ],
      "name": "schedule",
      "outputs": [],
      "stateMutability": "nonpayable",
      "type": "function"
    },
    {
      "inputs": [
        {
          "internalType": "address[]",
          "name": "targets",
          "type": "address[]"
        },
        {
          "internalType": "uint256[]",
          "name": "values",
          "type": "uint256[]"
        },
        {
          "internalType": "bytes[]",
          "name": "datas",
          "type": "bytes[]"
        },
        {
          "internalType": "bytes32",
          "name": "predecessor",
          "type": "bytes32"
        },
        {
          "internalType": "bytes32",
          "name": "salt",
          "type": "bytes32"
        },
        {
          "internalType": "uint256",
          "name": "delay",
          "type": "uint256"
        }
      ],
      "name": "scheduleBatch",
      "outputs": [],
      "stateMutability": "nonpayable",
      "type": "function"
    },
    {
      "inputs": [
        {
          "internalType": "bytes4",
          "name": "interfaceId",
          "type": "bytes4"
        }
      ],
      "name": "supportsInterface",
      "outputs": [
        {
          "internalType": "bool",
          "name": "",
          "type": "bool"
        }
      ],
      "stateMutability": "view",
      "type": "function"
    },
    {
      "inputs": [],
      "name": "token",
      "outputs": [
        {
          "internalType": "contract IERC20",
          "name": "",
          "type": "address"
        }
      ],
      "stateMutability": "view",
      "type": "function"
    },
    {
      "inputs": [
        {
          "internalType": "address",
          "name": "toAddress",
          "type": "address"
        },
        {
          "internalType": "uint256",
          "name": "amount",
          "type": "uint256"
        }
      ],
      "name": "tokenTransfer",
      "outputs": [],
      "stateMutability": "nonpayable",
      "type": "function"
    },
    {
      "inputs": [
        {
          "internalType": "uint256",
          "name": "newDelay",
          "type": "uint256"
        }
      ],
      "name": "updateDelay",
      "outputs": [],
      "stateMutability": "nonpayable",
      "type": "function"
    },
    {
      "stateMutability": "payable",
      "type": "receive"
    }
  ],
  "bytecode": "0x60806040523480156200001157600080fd5b5060405162003b4838038062003b4883398181016040528101906200003791906200061a565b83600160006101000a81548173ffffffffffffffffffffffffffffffffffffffff021916908373ffffffffffffffffffffffffffffffffffffffff160217905550620000aa7f5f58e3a2316349923ce3780f8d587db2d72378aed66a8261c916544fa6846ca5806200033860201b60201c565b620000fc7fb09aa5aeb3702cfd50b6b62bc4532604938f21248a27a1d5ca736082b6819cc17f5f58e3a2316349923ce3780f8d587db2d72378aed66a8261c916544fa6846ca56200033860201b60201c565b6200014e7fd8aa0f3194971a2a116679f7c2090f6939c8d4e01a2a8d7e41d55e5351469e637f5f58e3a2316349923ce3780f8d587db2d72378aed66a8261c916544fa6846ca56200033860201b60201c565b6200018f7f5f58e3a2316349923ce3780f8d587db2d72378aed66a8261c916544fa6846ca5620001836200039b60201b60201c565b620003a360201b60201c565b620001c17f5f58e3a2316349923ce3780f8d587db2d72378aed66a8261c916544fa6846ca530620003a360201b60201c565b60005b82518110156200025557620002417fb09aa5aeb3702cfd50b6b62bc4532604938f21248a27a1d5ca736082b6819cc18483815181106200022d577f4e487b7100000000000000000000000000000000000000000000000000000000600052603260045260246000fd5b6020026020010151620003a360201b60201c565b806200024d90620007fb565b9050620001c4565b5060005b8151811015620002ea57620002d67fd8aa0f3194971a2a116679f7c2090f6939c8d4e01a2a8d7e41d55e5351469e63838381518110620002c2577f4e487b7100000000000000000000000000000000000000000000000000000000600052603260045260246000fd5b6020026020010151620003a360201b60201c565b80620002e290620007fb565b905062000259565b50826003819055507f11c24f4ead16507c69ac467fbd5e4eed5fb5c699626d2cc6d66421df253886d560008460405162000326929190620006da565b60405180910390a15050505062000906565b60006200034b83620003b960201b60201c565b905081600080858152602001908152602001600020600101819055508181847fbd79b86ffe0ab8e8776151514217cd7cacd52c909f66475c3af44e129f0b00ff60405160405180910390a4505050565b600033905090565b620003b58282620003d860201b60201c565b5050565b6000806000838152602001908152602001600020600101549050919050565b620003ea8282620004c960201b60201c565b620004c557600160008084815260200190815260200160002060000160008373ffffffffffffffffffffffffffffffffffffffff1673ffffffffffffffffffffffffffffffffffffffff16815260200190815260200160002060006101000a81548160ff0219169083151502179055506200046a6200039b60201b60201c565b73ffffffffffffffffffffffffffffffffffffffff168173ffffffffffffffffffffffffffffffffffffffff16837f2f8788117e7eff1d82e926ec794901d17c78024a50270940304540a733656f0d60405160405180910390a45b5050565b600080600084815260200190815260200160002060000160008373ffffffffffffffffffffffffffffffffffffffff1673ffffffffffffffffffffffffffffffffffffffff16815260200190815260200160002060009054906101000a900460ff16905092915050565b60006200054a620005448462000730565b62000707565b905080838252602082019050828560208602820111156200056a57600080fd5b60005b858110156200059e5781620005838882620005a8565b8452602084019350602083019250506001810190506200056d565b5050509392505050565b600081519050620005b981620008b8565b92915050565b600082601f830112620005d157600080fd5b8151620005e384826020860162000533565b91505092915050565b600081519050620005fd81620008d2565b92915050565b6000815190506200061481620008ec565b92915050565b600080600080608085870312156200063157600080fd5b60006200064187828801620005ec565b9450506020620006548782880162000603565b935050604085015167ffffffffffffffff8111156200067257600080fd5b6200068087828801620005bf565b925050606085015167ffffffffffffffff8111156200069e57600080fd5b620006ac87828801620005bf565b91505092959194509250565b620006c381620007b1565b82525050565b620006d481620007a7565b82525050565b6000604082019050620006f16000830185620006b8565b620007006020830184620006c9565b9392505050565b60006200071362000726565b9050620007218282620007c5565b919050565b6000604051905090565b600067ffffffffffffffff8211156200074e576200074d62000878565b5b602082029050602081019050919050565b60006200076c8262000787565b9050919050565b600062000780826200075f565b9050919050565b600073ffffffffffffffffffffffffffffffffffffffff82169050919050565b6000819050919050565b6000620007be82620007a7565b9050919050565b620007d082620008a7565b810181811067ffffffffffffffff82111715620007f257620007f162000878565b5b80604052505050565b60006200080882620007a7565b91507fffffffffffffffffffffffffffffffffffffffffffffffffffffffffffffffff8214156200083e576200083d62000849565b5b600182019050919050565b7f4e487b7100000000000000000000000000000000000000000000000000000000600052601160045260246000fd5b7f4e487b7100000000000000000000000000000000000000000000000000000000600052604160045260246000fd5b6000601f19601f8301169050919050565b620008c3816200075f565b8114620008cf57600080fd5b50565b620008dd8162000773565b8114620008e957600080fd5b50565b620008f781620007a7565b81146200090357600080fd5b50565b61323280620009166000396000f3fe6080604052600436106101855760003560e01c806368cdafe6116100d1578063b1c5f4271161008a578063d547741f11610064578063d547741f146105da578063e38335e514610603578063f27a0c921461061f578063fc0c546a1461064a5761018c565b8063b1c5f42714610537578063c4d252f514610574578063d45c44351461059d5761018c565b806368cdafe6146104155780638065657f1461043e5780638f2a0bb01461047b5780638f61f4f5146104a457806391d14854146104cf578063a217fddf1461050c5761018c565b8063248a9ca31161013e57806331d507501161011857806331d507501461034957806336568abe14610386578063584b153e146103af57806364d62353146103ec5761018c565b8063248a9ca3146102a65780632ab0f529146102e35780632f2ff15d146103205761018c565b806301d5062a1461019157806301ffc9a7146101ba57806307bd0265146101f75780630d3cf6fc14610222578063134008d31461024d57806313bc9f20146102695761018c565b3661018c57005b600080fd5b34801561019d57600080fd5b506101b860048036038101906101b39190611e1f565b610675565b005b3480156101c657600080fd5b506101e160048036038101906101dc91906120ff565b610712565b6040516101ee91906127fd565b60405180910390f35b34801561020357600080fd5b5061020c61078c565b6040516102199190612818565b60405180910390f35b34801561022e57600080fd5b506102376107b0565b6040516102449190612818565b60405180910390f35b61026760048036038101906102629190611d8d565b6107d4565b005b34801561027557600080fd5b50610290600480360381019061028b919061209a565b610854565b60405161029d91906127fd565b60405180910390f35b3480156102b257600080fd5b506102cd60048036038101906102c8919061209a565b61087a565b6040516102da9190612818565b60405180910390f35b3480156102ef57600080fd5b5061030a6004803603810190610305919061209a565b610899565b60405161031791906127fd565b60405180910390f35b34801561032c57600080fd5b50610347600480360381019061034291906120c3565b6108ae565b005b34801561035557600080fd5b50610370600480360381019061036b919061209a565b6108d7565b60405161037d91906127fd565b60405180910390f35b34801561039257600080fd5b506103ad60048036038101906103a891906120c3565b6108eb565b005b3480156103bb57600080fd5b506103d660048036038101906103d1919061209a565b61096e565b6040516103e391906127fd565b60405180910390f35b3480156103f857600080fd5b50610413600480360381019061040e9190612128565b610983565b005b34801561042157600080fd5b5061043c60048036038101906104379190611d51565b610a36565b005b34801561044a57600080fd5b5061046560048036038101906104609190611d8d565b610c83565b6040516104729190612818565b60405180910390f35b34801561048757600080fd5b506104a2600480360381019061049d9190611f92565b610cc2565b005b3480156104b057600080fd5b506104b9610ee7565b6040516104c69190612818565b60405180910390f35b3480156104db57600080fd5b506104f660048036038101906104f191906120c3565b610f0b565b60405161050391906127fd565b60405180910390f35b34801561051857600080fd5b50610521610f75565b60405161052e9190612818565b60405180910390f35b34801561054357600080fd5b5061055e60048036038101906105599190611ec6565b610f7c565b60405161056b9190612818565b60405180910390f35b34801561058057600080fd5b5061059b6004803603810190610596919061209a565b610fc1565b005b3480156105a957600080fd5b506105c460048036038101906105bf919061209a565b611083565b6040516105d191906129f0565b60405180910390f35b3480156105e657600080fd5b5061060160048036038101906105fc91906120c3565b6110a0565b005b61061d60048036038101906106189190611ec6565b6110c9565b005b34801561062b57600080fd5b506106346112d1565b60405161064191906129f0565b60405180910390f35b34801561065657600080fd5b5061065f6112db565b60405161066c9190612833565b60405180910390f35b7fb09aa5aeb3702cfd50b6b62bc4532604938f21248a27a1d5ca736082b6819cc16106a7816106a2611301565b611309565b60006106b7898989898989610c83565b90506106c381846113a6565b6000817f4cf4410cc57040e44862ef0f45f3dd5a5e02db8eb8add648d4b0e236f1d07dca8b8b8b8b8b8a6040516106ff96959493929190612733565b60405180910390a3505050505050505050565b60007f7965db0b000000000000000000000000000000000000000000000000000000007bffffffffffffffffffffffffffffffffffffffffffffffffffffffff1916827bffffffffffffffffffffffffffffffffffffffffffffffffffffffff19161480610785575061078482611460565b5b9050919050565b7fd8aa0f3194971a2a116679f7c2090f6939c8d4e01a2a8d7e41d55e5351469e6381565b7f5f58e3a2316349923ce3780f8d587db2d72378aed66a8261c916544fa6846ca581565b7fd8aa0f3194971a2a116679f7c2090f6939c8d4e01a2a8d7e41d55e5351469e63610800816000610f0b565b6108165761081581610810611301565b611309565b5b6000610826888888888888610c83565b905061083281856114ca565b6108418160008a8a8a8a61156b565b61084a81611663565b5050505050505050565b60008061086083611083565b90506001811180156108725750428111155b915050919050565b6000806000838152602001908152602001600020600101549050919050565b600060016108a683611083565b149050919050565b6108b78261087a565b6108c8816108c3611301565b611309565b6108d283836116c7565b505050565b6000806108e383611083565b119050919050565b6108f3611301565b73ffffffffffffffffffffffffffffffffffffffff168173ffffffffffffffffffffffffffffffffffffffff1614610960576040517f08c379a0000000000000000000000000000000000000000000000000000000008152600401610957906129d0565b60405180910390fd5b61096a82826117a7565b5050565b6000600161097b83611083565b119050919050565b3073ffffffffffffffffffffffffffffffffffffffff163373ffffffffffffffffffffffffffffffffffffffff16146109f1576040517f08c379a00000000000000000000000000000000000000000000000000000000081526004016109e890612990565b60405180910390fd5b7f11c24f4ead16507c69ac467fbd5e4eed5fb5c699626d2cc6d66421df253886d560035482604051610a24929190612a0b565b60405180910390a18060038190555050565b3073ffffffffffffffffffffffffffffffffffffffff163373ffffffffffffffffffffffffffffffffffffffff1614610aa4576040517f08c379a0000000000000000000000000000000000000000000000000000000008152600401610a9b90612990565b60405180910390fd5b80600160009054906101000a900473ffffffffffffffffffffffffffffffffffffffff1673ffffffffffffffffffffffffffffffffffffffff166370a08231306040518263ffffffff1660e01b8152600401610b009190612653565b60206040518083038186803b158015610b1857600080fd5b505afa158015610b2c573d6000803e3d6000fd5b505050506040513d601f19601f82011682018060405250810190610b509190612151565b1015610b91576040517f08c379a0000000000000000000000000000000000000000000000000000000008152600401610b88906128b0565b60405180910390fd5b600160009054906101000a900473ffffffffffffffffffffffffffffffffffffffff1673ffffffffffffffffffffffffffffffffffffffff1663a9059cbb83836040518363ffffffff1660e01b8152600401610bee92919061266e565b602060405180830381600087803b158015610c0857600080fd5b505af1158015610c1c573d6000803e3d6000fd5b505050506040513d601f19601f82011682018060405250810190610c409190612071565b610c7f576040517f08c379a0000000000000000000000000000000000000000000000000000000008152600401610c7690612910565b60405180910390fd5b5050565b6000868686868686604051602001610ca0969594939291906126d7565b6040516020818303038152906040528051906020012090509695505050505050565b7fb09aa5aeb3702cfd50b6b62bc4532604938f21248a27a1d5ca736082b6819cc1610cf481610cef611301565b611309565b878790508a8a905014610d3c576040517f08c379a0000000000000000000000000000000000000000000000000000000008152600401610d3390612950565b60405180910390fd5b858590508a8a905014610d84576040517f08c379a0000000000000000000000000000000000000000000000000000000008152600401610d7b90612950565b60405180910390fd5b6000610d968b8b8b8b8b8b8b8b610f7c565b9050610da281846113a6565b60005b8b8b9050811015610ed95780827f4cf4410cc57040e44862ef0f45f3dd5a5e02db8eb8add648d4b0e236f1d07dca8e8e85818110610e0c577f4e487b7100000000000000000000000000000000000000000000000000000000600052603260045260246000fd5b9050602002016020810190610e219190611d28565b8d8d86818110610e5a577f4e487b7100000000000000000000000000000000000000000000000000000000600052603260045260246000fd5b905060200201358c8c87818110610e9a577f4e487b7100000000000000000000000000000000000000000000000000000000600052603260045260246000fd5b9050602002810190610eac9190612a34565b8c8b604051610ec096959493929190612733565b60405180910390a380610ed290612d6c565b9050610da5565b505050505050505050505050565b7fb09aa5aeb3702cfd50b6b62bc4532604938f21248a27a1d5ca736082b6819cc181565b600080600084815260200190815260200160002060000160008373ffffffffffffffffffffffffffffffffffffffff1673ffffffffffffffffffffffffffffffffffffffff16815260200190815260200160002060009054906101000a900460ff16905092915050565b6000801b81565b60008888888888888888604051602001610f9d98979695949392919061278f565b60405160208183030381529060405280519060200120905098975050505050505050565b7fb09aa5aeb3702cfd50b6b62bc4532604938f21248a27a1d5ca736082b6819cc1610ff381610fee611301565b611309565b610ffc8261096e565b61103b576040517f08c379a000000000000000000000000000000000000000000000000000000000815260040161103290612930565b60405180910390fd5b6002600083815260200190815260200160002060009055817fbaa1eb22f2a492ba1a5fea61b8df4d27c6c8b5f3971e63bb58fa14ff72eedb7060405160405180910390a25050565b600060026000838152602001908152602001600020549050919050565b6110a98261087a565b6110ba816110b5611301565b611309565b6110c483836117a7565b505050565b7fd8aa0f3194971a2a116679f7c2090f6939c8d4e01a2a8d7e41d55e5351469e636110f5816000610f0b565b61110b5761110a81611105611301565b611309565b5b868690508989905014611153576040517f08c379a000000000000000000000000000000000000000000000000000000000815260040161114a90612950565b60405180910390fd5b84849050898990501461119b576040517f08c379a000000000000000000000000000000000000000000000000000000000815260040161119290612950565b60405180910390fd5b60006111ad8a8a8a8a8a8a8a8a610f7c565b90506111b981856114ca565b60005b8a8a90508110156112bb576112aa82828d8d85818110611205577f4e487b7100000000000000000000000000000000000000000000000000000000600052603260045260246000fd5b905060200201602081019061121a9190611d28565b8c8c86818110611253577f4e487b7100000000000000000000000000000000000000000000000000000000600052603260045260246000fd5b905060200201358b8b87818110611293577f4e487b7100000000000000000000000000000000000000000000000000000000600052603260045260246000fd5b90506020028101906112a59190612a34565b61156b565b806112b490612d6c565b90506111bc565b506112c581611663565b50505050505050505050565b6000600354905090565b600160009054906101000a900473ffffffffffffffffffffffffffffffffffffffff1681565b600033905090565b6113138282610f0b565b6113a2576113388173ffffffffffffffffffffffffffffffffffffffff166014611888565b6113468360001c6020611888565b604051602001611357929190612619565b6040516020818303038152906040526040517f08c379a0000000000000000000000000000000000000000000000000000000008152600401611399919061284e565b60405180910390fd5b5050565b6113af826108d7565b156113ef576040517f08c379a00000000000000000000000000000000000000000000000000000000081526004016113e690612890565b60405180910390fd5b6113f76112d1565b811015611439576040517f08c379a0000000000000000000000000000000000000000000000000000000008152600401611430906128d0565b60405180910390fd5b80426114459190612bae565b60026000848152602001908152602001600020819055505050565b60007f01ffc9a7000000000000000000000000000000000000000000000000000000007bffffffffffffffffffffffffffffffffffffffffffffffffffffffff1916827bffffffffffffffffffffffffffffffffffffffffffffffffffffffff1916149050919050565b6114d382610854565b611512576040517f08c379a000000000000000000000000000000000000000000000000000000000815260040161150990612970565b60405180910390fd5b6000801b811480611528575061152781610899565b5b611567576040517f08c379a000000000000000000000000000000000000000000000000000000000815260040161155e906128f0565b60405180910390fd5b5050565b60008473ffffffffffffffffffffffffffffffffffffffff16848484604051611595929190612600565b60006040518083038185875af1925050503d80600081146115d2576040519150601f19603f3d011682016040523d82523d6000602084013e6115d7565b606091505b505090508061161b576040517f08c379a0000000000000000000000000000000000000000000000000000000008152600401611612906129b0565b60405180910390fd5b85877fc2617efa69bab66782fa219543714338489c4e9e178271560a91b82c3f612b58878787876040516116529493929190612697565b60405180910390a350505050505050565b61166c81610854565b6116ab576040517f08c379a00000000000000000000000000000000000000000000000000000000081526004016116a290612970565b60405180910390fd5b6001600260008381526020019081526020016000208190555050565b6116d18282610f0b565b6117a357600160008084815260200190815260200160002060000160008373ffffffffffffffffffffffffffffffffffffffff1673ffffffffffffffffffffffffffffffffffffffff16815260200190815260200160002060006101000a81548160ff021916908315150217905550611748611301565b73ffffffffffffffffffffffffffffffffffffffff168173ffffffffffffffffffffffffffffffffffffffff16837f2f8788117e7eff1d82e926ec794901d17c78024a50270940304540a733656f0d60405160405180910390a45b5050565b6117b18282610f0b565b1561188457600080600084815260200190815260200160002060000160008373ffffffffffffffffffffffffffffffffffffffff1673ffffffffffffffffffffffffffffffffffffffff16815260200190815260200160002060006101000a81548160ff021916908315150217905550611829611301565b73ffffffffffffffffffffffffffffffffffffffff168173ffffffffffffffffffffffffffffffffffffffff16837ff6391f5c32d9c69d2a47ea670b442974b53935d1edc7fd64eb21e047a839171b60405160405180910390a45b5050565b60606000600283600261189b9190612c04565b6118a59190612bae565b67ffffffffffffffff8111156118e4577f4e487b7100000000000000000000000000000000000000000000000000000000600052604160045260246000fd5b6040519080825280601f01601f1916602001820160405280156119165781602001600182028036833780820191505090505b5090507f300000000000000000000000000000000000000000000000000000000000000081600081518110611974577f4e487b7100000000000000000000000000000000000000000000000000000000600052603260045260246000fd5b60200101907effffffffffffffffffffffffffffffffffffffffffffffffffffffffffffff1916908160001a9053507f7800000000000000000000000000000000000000000000000000000000000000816001815181106119fe577f4e487b7100000000000000000000000000000000000000000000000000000000600052603260045260246000fd5b60200101907effffffffffffffffffffffffffffffffffffffffffffffffffffffffffffff1916908160001a90535060006001846002611a3e9190612c04565b611a489190612bae565b90505b6001811115611b34577f3031323334353637383961626364656600000000000000000000000000000000600f861660108110611ab0577f4e487b7100000000000000000000000000000000000000000000000000000000600052603260045260246000fd5b1a60f81b828281518110611aed577f4e487b7100000000000000000000000000000000000000000000000000000000600052603260045260246000fd5b60200101907effffffffffffffffffffffffffffffffffffffffffffffffffffffffffffff1916908160001a905350600485901c945080611b2d90612d42565b9050611a4b565b5060008414611b78576040517f08c379a0000000000000000000000000000000000000000000000000000000008152600401611b6f90612870565b60405180910390fd5b8091505092915050565b600081359050611b9181613189565b92915050565b60008083601f840112611ba957600080fd5b8235905067ffffffffffffffff811115611bc257600080fd5b602083019150836020820283011115611bda57600080fd5b9250929050565b60008083601f840112611bf357600080fd5b8235905067ffffffffffffffff811115611c0c57600080fd5b602083019150836020820283011115611c2457600080fd5b9250929050565b60008083601f840112611c3d57600080fd5b8235905067ffffffffffffffff811115611c5657600080fd5b602083019150836020820283011115611c6e57600080fd5b9250929050565b600081519050611c84816131a0565b92915050565b600081359050611c99816131b7565b92915050565b600081359050611cae816131ce565b92915050565b60008083601f840112611cc657600080fd5b8235905067ffffffffffffffff811115611cdf57600080fd5b602083019150836001820283011115611cf757600080fd5b9250929050565b600081359050611d0d816131e5565b92915050565b600081519050611d22816131e5565b92915050565b600060208284031215611d3a57600080fd5b6000611d4884828501611b82565b91505092915050565b60008060408385031215611d6457600080fd5b6000611d7285828601611b82565b9250506020611d8385828601611cfe565b9150509250929050565b60008060008060008060a08789031215611da657600080fd5b6000611db489828a01611b82565b9650506020611dc589828a01611cfe565b955050604087013567ffffffffffffffff811115611de257600080fd5b611dee89828a01611cb4565b94509450506060611e0189828a01611c8a565b9250506080611e1289828a01611c8a565b9150509295509295509295565b600080600080600080600060c0888a031215611e3a57600080fd5b6000611e488a828b01611b82565b9750506020611e598a828b01611cfe565b965050604088013567ffffffffffffffff811115611e7657600080fd5b611e828a828b01611cb4565b95509550506060611e958a828b01611c8a565b9350506080611ea68a828b01611c8a565b92505060a0611eb78a828b01611cfe565b91505092959891949750929550565b60008060008060008060008060a0898b031215611ee257600080fd5b600089013567ffffffffffffffff811115611efc57600080fd5b611f088b828c01611b97565b9850985050602089013567ffffffffffffffff811115611f2757600080fd5b611f338b828c01611c2b565b9650965050604089013567ffffffffffffffff811115611f5257600080fd5b611f5e8b828c01611be1565b94509450506060611f718b828c01611c8a565b9250506080611f828b828c01611c8a565b9150509295985092959890939650565b600080600080600080600080600060c08a8c031215611fb057600080fd5b60008a013567ffffffffffffffff811115611fca57600080fd5b611fd68c828d01611b97565b995099505060208a013567ffffffffffffffff811115611ff557600080fd5b6120018c828d01611c2b565b975097505060408a013567ffffffffffffffff81111561202057600080fd5b61202c8c828d01611be1565b9550955050606061203f8c828d01611c8a565b93505060806120508c828d01611c8a565b92505060a06120618c828d01611cfe565b9150509295985092959850929598565b60006020828403121561208357600080fd5b600061209184828501611c75565b91505092915050565b6000602082840312156120ac57600080fd5b60006120ba84828501611c8a565b91505092915050565b600080604083850312156120d657600080fd5b60006120e485828601611c8a565b92505060206120f585828601611b82565b9150509250929050565b60006020828403121561211157600080fd5b600061211f84828501611c9f565b91505092915050565b60006020828403121561213a57600080fd5b600061214884828501611cfe565b91505092915050565b60006020828403121561216357600080fd5b600061217184828501611d13565b91505092915050565b600061218683836121a8565b60208301905092915050565b600061219f84848461230f565b90509392505050565b6121b181612c5e565b82525050565b6121c081612c5e565b82525050565b60006121d28385612ac4565b93506121dd82612a8b565b8060005b85811015612216576121f38284612b40565b6121fd888261217a565b975061220883612aaa565b9250506001810190506121e1565b5085925050509392505050565b600061222f8385612ad5565b93508360208402850161224184612a95565b8060005b8781101561228757848403895261225c8284612b57565b612267868284612192565b955061227284612ab7565b935060208b019a505050600181019050612245565b50829750879450505050509392505050565b60006122a58385612ae6565b93507f07ffffffffffffffffffffffffffffffffffffffffffffffffffffffffffffff8311156122d457600080fd5b6020830292506122e5838584612d00565b82840190509392505050565b6122fa81612c70565b82525050565b61230981612c7c565b82525050565b600061231b8385612af7565b9350612328838584612d00565b61233183612de4565b840190509392505050565b60006123488385612b08565b9350612355838584612d00565b61235e83612de4565b840190509392505050565b60006123758385612b19565b9350612382838584612d00565b82840190509392505050565b61239781612cdc565b82525050565b60006123a882612a9f565b6123b28185612b24565b93506123c2818560208601612d0f565b6123cb81612de4565b840191505092915050565b60006123e182612a9f565b6123eb8185612b35565b93506123fb818560208601612d0f565b80840191505092915050565b6000612414602083612b24565b915061241f82612df5565b602082019050919050565b6000612437602a83612b24565b915061244282612e1e565b604082019050919050565b600061245a602083612b24565b915061246582612e6d565b602082019050919050565b600061247d602183612b24565b915061248882612e96565b604082019050919050565b60006124a0602183612b24565b91506124ab82612ee5565b604082019050919050565b60006124c3602483612b24565b91506124ce82612f34565b604082019050919050565b60006124e6602c83612b24565b91506124f182612f83565b604082019050919050565b6000612509601e83612b24565b915061251482612fd2565b602082019050919050565b600061252c602583612b24565b915061253782612ffb565b604082019050919050565b600061254f602683612b24565b915061255a8261304a565b604082019050919050565b6000612572602e83612b24565b915061257d82613099565b604082019050919050565b6000612595601783612b35565b91506125a0826130e8565b601782019050919050565b60006125b8601183612b35565b91506125c382613111565b601182019050919050565b60006125db602f83612b24565b91506125e68261313a565b604082019050919050565b6125fa81612cd2565b82525050565b600061260d828486612369565b91508190509392505050565b600061262482612588565b915061263082856123d6565b915061263b826125ab565b915061264782846123d6565b91508190509392505050565b600060208201905061266860008301846121b7565b92915050565b600060408201905061268360008301856121b7565b61269060208301846125f1565b9392505050565b60006060820190506126ac60008301876121b7565b6126b960208301866125f1565b81810360408301526126cc81848661233c565b905095945050505050565b600060a0820190506126ec60008301896121b7565b6126f960208301886125f1565b818103604083015261270c81868861233c565b905061271b6060830185612300565b6127286080830184612300565b979650505050505050565b600060a08201905061274860008301896121b7565b61275560208301886125f1565b818103604083015261276881868861233c565b90506127776060830185612300565b61278460808301846125f1565b979650505050505050565b600060a08201905081810360008301526127aa818a8c6121c6565b905081810360208301526127bf81888a612299565b905081810360408301526127d4818688612223565b90506127e36060830185612300565b6127f06080830184612300565b9998505050505050505050565b600060208201905061281260008301846122f1565b92915050565b600060208201905061282d6000830184612300565b92915050565b6000602082019050612848600083018461238e565b92915050565b60006020820190508181036000830152612868818461239d565b905092915050565b6000602082019050818103600083015261288981612407565b9050919050565b600060208201905081810360008301526128a98161242a565b9050919050565b600060208201905081810360008301526128c98161244d565b9050919050565b600060208201905081810360008301526128e981612470565b9050919050565b6000602082019050818103600083015261290981612493565b9050919050565b60006020820190508181036000830152612929816124b6565b9050919050565b60006020820190508181036000830152612949816124d9565b9050919050565b60006020820190508181036000830152612969816124fc565b9050919050565b600060208201905081810360008301526129898161251f565b9050919050565b600060208201905081810360008301526129a981612542565b9050919050565b600060208201905081810360008301526129c981612565565b9050919050565b600060208201905081810360008301526129e9816125ce565b9050919050565b6000602082019050612a0560008301846125f1565b92915050565b6000604082019050612a2060008301856125f1565b612a2d60208301846125f1565b9392505050565b60008083356001602003843603038112612a4d57600080fd5b80840192508235915067ffffffffffffffff821115612a6b57600080fd5b602083019250600182023603831315612a8357600080fd5b509250929050565b6000819050919050565b6000819050919050565b600081519050919050565b6000602082019050919050565b6000602082019050919050565b600082825260208201905092915050565b600082825260208201905092915050565b600082825260208201905092915050565b600082825260208201905092915050565b600082825260208201905092915050565b600081905092915050565b600082825260208201905092915050565b600081905092915050565b6000612b4f6020840184611b82565b905092915050565b60008083356001602003843603038112612b7057600080fd5b83810192508235915060208301925067ffffffffffffffff821115612b9457600080fd5b600182023603841315612ba657600080fd5b509250929050565b6000612bb982612cd2565b9150612bc483612cd2565b9250827fffffffffffffffffffffffffffffffffffffffffffffffffffffffffffffffff03821115612bf957612bf8612db5565b5b828201905092915050565b6000612c0f82612cd2565b9150612c1a83612cd2565b9250817fffffffffffffffffffffffffffffffffffffffffffffffffffffffffffffffff0483118215151615612c5357612c52612db5565b5b828202905092915050565b6000612c6982612cb2565b9050919050565b60008115159050919050565b6000819050919050565b60007fffffffff0000000000000000000000000000000000000000000000000000000082169050919050565b600073ffffffffffffffffffffffffffffffffffffffff82169050919050565b6000819050919050565b6000612ce782612cee565b9050919050565b6000612cf982612cb2565b9050919050565b82818337600083830152505050565b60005b83811015612d2d578082015181840152602081019050612d12565b83811115612d3c576000848401525b50505050565b6000612d4d82612cd2565b91506000821415612d6157612d60612db5565b5b600182039050919050565b6000612d7782612cd2565b91507fffffffffffffffffffffffffffffffffffffffffffffffffffffffffffffffff821415612daa57612da9612db5565b5b600182019050919050565b7f4e487b7100000000000000000000000000000000000000000000000000000000600052601160045260246000fd5b6000601f19601f8301169050919050565b7f537472696e67733a20686578206c656e67746820696e73756666696369656e74600082015250565b7f546f6b656e476f7665726e6f723a206f7065726174696f6e20616c726561647960008201527f207363686564756c656400000000000000000000000000000000000000000000602082015250565b7f546f6b656e476f7665726e6f723a206e6f7420656e6f75676820746f6b656e73600082015250565b7f546f6b656e476f7665726e6f723a20696e73756666696369656e742064656c6160008201527f7900000000000000000000000000000000000000000000000000000000000000602082015250565b7f546f6b656e476f7665726e6f723a206d697373696e6720646570656e64656e6360008201527f7900000000000000000000000000000000000000000000000000000000000000602082015250565b7f546f6b656e476f7665726e6f723a20746f6b656e207472616e7366657220666160008201527f696c656400000000000000000000000000000000000000000000000000000000602082015250565b7f546f6b656e476f7665726e6f723a206f7065726174696f6e2063616e6e6f742060008201527f62652063616e63656c6c65640000000000000000000000000000000000000000602082015250565b7f546f6b656e476f7665726e6f723a206c656e677468206d69736d617463680000600082015250565b7f546f6b656e476f7665726e6f723a206f7065726174696f6e206973206e6f742060008201527f7265616479000000000000000000000000000000000000000000000000000000602082015250565b7f546f6b656e476f7665726e6f723a2063616c6c6572206d75737420626520746960008201527f6d656c6f636b0000000000000000000000000000000000000000000000000000602082015250565b7f546f6b656e476f7665726e6f723a20756e6465726c79696e67207472616e736160008201527f6374696f6e207265766572746564000000000000000000000000000000000000602082015250565b7f416363657373436f6e74726f6c3a206163636f756e7420000000000000000000600082015250565b7f206973206d697373696e6720726f6c6520000000000000000000000000000000600082015250565b7f416363657373436f6e74726f6c3a2063616e206f6e6c792072656e6f756e636560008201527f20726f6c657320666f722073656c660000000000000000000000000000000000602082015250565b61319281612c5e565b811461319d57600080fd5b50565b6131a981612c70565b81146131b457600080fd5b50565b6131c081612c7c565b81146131cb57600080fd5b50565b6131d781612c86565b81146131e257600080fd5b50565b6131ee81612cd2565b81146131f957600080fd5b5056fea2646970667358221220db0fac20c47c472ec25abf9106780a4fdb0ed20b917e138b67e8ab1f2e05b5a364736f6c63430008040033",
  "linkReferences": {},
  "deployedLinkReferences": {}
}