{
  "_format": "hh-sol-artifact-1",
  "contractName": "Treasure",
  "sourceName": "contracts/NFT/Treasure.sol",
  "abi": [
    {
      "inputs": [
        {
          "internalType": "address",
          "name": "_tokenAddress",
          "type": "address"
        },
        {
          "internalType": "address",
          "name": "_nftAddress",
          "type": "address"
        }
      ],
      "stateMutability": "nonpayable",
      "type": "constructor"
    },
    {
      "anonymous": false,
      "inputs": [
        {
          "indexed": true,
          "internalType": "address",
          "name": "previousOwner",
          "type": "address"
        },
        {
          "indexed": true,
          "internalType": "address",
          "name": "newOwner",
          "type": "address"
        }
      ],
      "name": "OwnershipTransferred",
      "type": "event"
    },
    {
      "anonymous": false,
      "inputs": [
        {
          "indexed": true,
          "internalType": "address",
          "name": "_owner",
          "type": "address"
        },
        {
          "indexed": true,
          "internalType": "uint8",
          "name": "_treasureId",
          "type": "uint8"
        }
      ],
      "name": "Purchased",
      "type": "event"
    },
    {
      "inputs": [
        {
          "internalType": "uint256",
          "name": "_price",
          "type": "uint256"
        },
        {
          "internalType": "uint8",
          "name": "_count",
          "type": "uint8"
        }
      ],
      "name": "addTreasure",
      "outputs": [],
      "stateMutability": "nonpayable",
      "type": "function"
    },
    {
      "inputs": [],
      "name": "nft",
      "outputs": [
        {
          "internalType": "contract HeroInfinityNFT",
          "name": "",
          "type": "address"
        }
      ],
      "stateMutability": "view",
      "type": "function"
    },
    {
      "inputs": [],
      "name": "owner",
      "outputs": [
        {
          "internalType": "address",
          "name": "",
          "type": "address"
        }
      ],
      "stateMutability": "view",
      "type": "function"
    },
    {
      "inputs": [
        {
          "internalType": "uint8",
          "name": "_treasureId",
          "type": "uint8"
        }
      ],
      "name": "purchase",
      "outputs": [],
      "stateMutability": "nonpayable",
      "type": "function"
    },
    {
      "inputs": [],
      "name": "renounceOwnership",
      "outputs": [],
      "stateMutability": "nonpayable",
      "type": "function"
    },
    {
      "inputs": [],
      "name": "token",
      "outputs": [
        {
          "internalType": "contract IERC20",
          "name": "",
          "type": "address"
        }
      ],
      "stateMutability": "view",
      "type": "function"
    },
    {
      "inputs": [
        {
          "internalType": "address",
          "name": "newOwner",
          "type": "address"
        }
      ],
      "name": "transferOwnership",
      "outputs": [],
      "stateMutability": "nonpayable",
      "type": "function"
    },
    {
      "inputs": [
        {
          "internalType": "uint8",
          "name": "",
          "type": "uint8"
        }
      ],
      "name": "treasures",
      "outputs": [
        {
          "internalType": "uint256",
          "name": "price",
          "type": "uint256"
        },
        {
          "internalType": "uint8",
          "name": "count",
          "type": "uint8"
        },
        {
          "internalType": "bool",
          "name": "enabled",
          "type": "bool"
        }
      ],
      "stateMutability": "view",
      "type": "function"
    },
    {
      "inputs": [],
      "name": "treasuresCount",
      "outputs": [
        {
          "internalType": "uint8",
          "name": "",
          "type": "uint8"
        }
      ],
      "stateMutability": "view",
      "type": "function"
    },
    {
      "inputs": [
        {
          "internalType": "uint8",
          "name": "_treasureId",
          "type": "uint8"
        },
        {
          "internalType": "uint256",
          "name": "_price",
          "type": "uint256"
        },
        {
          "internalType": "uint8",
          "name": "_count",
          "type": "uint8"
        },
        {
          "internalType": "bool",
          "name": "_enabled",
          "type": "bool"
        }
      ],
      "name": "updateTreasure",
      "outputs": [],
      "stateMutability": "nonpayable",
      "type": "function"
    },
    {
      "inputs": [
        {
          "internalType": "address",
          "name": "_targetAddress",
          "type": "address"
        }
      ],
      "name": "withdraw",
      "outputs": [],
      "stateMutability": "nonpayable",
      "type": "function"
    }
  ],
  "bytecode": "0x60806040526000600360006101000a81548160ff021916908360ff1602179055503480156200002d57600080fd5b50604051620017e6380380620017e6833981810160405281019062000053919062000418565b6200007362000067620001a860201b60201c565b620001b060201b60201c565b81600160006101000a81548173ffffffffffffffffffffffffffffffffffffffff021916908373ffffffffffffffffffffffffffffffffffffffff16021790555080600360016101000a81548173ffffffffffffffffffffffffffffffffffffffff021916908373ffffffffffffffffffffffffffffffffffffffff16021790555062000111683635c9adc5dea0000060016200027460201b60201c565b6200012d68878678326eac90000060036200027460201b60201c565b6200014968d8d726b7177a80000060056200027460201b60201c565b620001666901969368974c05b00000600a6200027460201b60201c565b620001836902f6f10780d22cc0000060146200027460201b60201c565b620001a069065a4da25d3016c0000060326200027460201b60201c565b505062000595565b600033905090565b60008060009054906101000a900473ffffffffffffffffffffffffffffffffffffffff169050816000806101000a81548173ffffffffffffffffffffffffffffffffffffffff021916908373ffffffffffffffffffffffffffffffffffffffff1602179055508173ffffffffffffffffffffffffffffffffffffffff168173ffffffffffffffffffffffffffffffffffffffff167f8be0079c531659141344cd1fd0a4f28419497f9722a3daafe3b4186f6b6457e060405160405180910390a35050565b62000284620001a860201b60201c565b73ffffffffffffffffffffffffffffffffffffffff16620002aa620003d860201b60201c565b73ffffffffffffffffffffffffffffffffffffffff161462000303576040517f08c379a0000000000000000000000000000000000000000000000000000000008152600401620002fa9062000480565b60405180910390fd5b60405180606001604052808381526020018260ff1681526020016001151581525060026000600360009054906101000a900460ff1660ff1660ff1681526020019081526020016000206000820151816000015560208201518160010160006101000a81548160ff021916908360ff16021790555060408201518160010160016101000a81548160ff0219169083151502179055509050506003600081819054906101000a900460ff1680929190620003bb90620004f4565b91906101000a81548160ff021916908360ff160217905550505050565b60008060009054906101000a900473ffffffffffffffffffffffffffffffffffffffff16905090565b60008151905062000412816200057b565b92915050565b600080604083850312156200042c57600080fd5b60006200043c8582860162000401565b92505060206200044f8582860162000401565b9150509250929050565b600062000468602083620004a2565b9150620004758262000552565b602082019050919050565b600060208201905081810360008301526200049b8162000459565b9050919050565b600082825260208201905092915050565b6000620004c082620004c7565b9050919050565b600073ffffffffffffffffffffffffffffffffffffffff82169050919050565b600060ff82169050919050565b60006200050182620004e7565b915060ff82141562000518576200051762000523565b5b600182019050919050565b7f4e487b7100000000000000000000000000000000000000000000000000000000600052601160045260246000fd5b7f4f776e61626c653a2063616c6c6572206973206e6f7420746865206f776e6572600082015250565b6200058681620004b3565b81146200059257600080fd5b50565b61124180620005a56000396000f3fe608060405234801561001057600080fd5b50600436106100a95760003560e01c806351cff8d91161007157806351cff8d91461015257806369a595da1461016e578063715018a61461018c5780638da5cb5b14610196578063f2fde38b146101b4578063fc0c546a146101d0576100a9565b806329f895d5146100ae5780633298df76146100ca5780633ae2b3c7146100e657806347ccca02146101025780634c8509b114610120575b600080fd5b6100c860048036038101906100c39190610ce9565b6101ee565b005b6100e460048036038101906100df9190610cc0565b6102f7565b005b61010060048036038101906100fb9190610c84565b61054b565b005b61010a61069a565b6040516101179190610ed6565b60405180910390f35b61013a60048036038101906101359190610cc0565b6106c0565b60405161014993929190610f8c565b60405180910390f35b61016c60048036038101906101679190610c09565b610704565b005b6101766108dd565b6040516101839190610fc3565b60405180910390f35b6101946108f0565b005b61019e610978565b6040516101ab9190610e32565b60405180910390f35b6101ce60048036038101906101c99190610c09565b6109a1565b005b6101d8610a99565b6040516101e59190610ef1565b60405180910390f35b6101f6610abf565b73ffffffffffffffffffffffffffffffffffffffff16610214610978565b73ffffffffffffffffffffffffffffffffffffffff161461026a576040517f08c379a000000000000000000000000000000000000000000000000000000000815260040161026190610f4c565b60405180910390fd5b60405180606001604052808481526020018360ff168152602001821515815250600260008660ff1660ff1681526020019081526020016000206000820151816000015560208201518160010160006101000a81548160ff021916908360ff16021790555060408201518160010160016101000a81548160ff02191690831515021790555090505050505050565b6000600260008360ff1660ff1681526020019081526020016000209050600115158160010160019054906101000a900460ff1615151461036c576040517f08c379a000000000000000000000000000000000000000000000000000000000815260040161036390610f6c565b60405180910390fd5b600160009054906101000a900473ffffffffffffffffffffffffffffffffffffffff1673ffffffffffffffffffffffffffffffffffffffff166323b872dd333084600001546040518463ffffffff1660e01b81526004016103cf93929190610e4d565b602060405180830381600087803b1580156103e957600080fd5b505af11580156103fd573d6000803e3d6000fd5b505050506040513d601f19601f820116820180604052508101906104219190610c32565b610460576040517f08c379a000000000000000000000000000000000000000000000000000000000815260040161045790610f0c565b60405180910390fd5b600360019054906101000a900473ffffffffffffffffffffffffffffffffffffffff1673ffffffffffffffffffffffffffffffffffffffff1663691562a0338360010160009054906101000a900460ff166040518363ffffffff1660e01b81526004016104ce929190610ead565b600060405180830381600087803b1580156104e857600080fd5b505af11580156104fc573d6000803e3d6000fd5b505050508160ff163373ffffffffffffffffffffffffffffffffffffffff167f67ffc1b812e06b0f05a76dd05197cb5d1e62b28a4cee50b4f57ae4d81529c59760405160405180910390a35050565b610553610abf565b73ffffffffffffffffffffffffffffffffffffffff16610571610978565b73ffffffffffffffffffffffffffffffffffffffff16146105c7576040517f08c379a00000000000000000000000000000000000000000000000000000000081526004016105be90610f4c565b60405180910390fd5b60405180606001604052808381526020018260ff1681526020016001151581525060026000600360009054906101000a900460ff1660ff1660ff1681526020019081526020016000206000820151816000015560208201518160010160006101000a81548160ff021916908360ff16021790555060408201518160010160016101000a81548160ff0219169083151502179055509050506003600081819054906101000a900460ff168092919061067d9061108c565b91906101000a81548160ff021916908360ff160217905550505050565b600360019054906101000a900473ffffffffffffffffffffffffffffffffffffffff1681565b60026020528060005260406000206000915090508060000154908060010160009054906101000a900460ff16908060010160019054906101000a900460ff16905083565b61070c610abf565b73ffffffffffffffffffffffffffffffffffffffff1661072a610978565b73ffffffffffffffffffffffffffffffffffffffff1614610780576040517f08c379a000000000000000000000000000000000000000000000000000000000815260040161077790610f4c565b60405180910390fd5b600160009054906101000a900473ffffffffffffffffffffffffffffffffffffffff1673ffffffffffffffffffffffffffffffffffffffff1663a9059cbb82600160009054906101000a900473ffffffffffffffffffffffffffffffffffffffff1673ffffffffffffffffffffffffffffffffffffffff166370a08231306040518263ffffffff1660e01b815260040161081a9190610e32565b60206040518083038186803b15801561083257600080fd5b505afa158015610846573d6000803e3d6000fd5b505050506040513d601f19601f8201168201806040525081019061086a9190610c5b565b6040518363ffffffff1660e01b8152600401610887929190610e84565b602060405180830381600087803b1580156108a157600080fd5b505af11580156108b5573d6000803e3d6000fd5b505050506040513d601f19601f820116820180604052508101906108d99190610c32565b5050565b600360009054906101000a900460ff1681565b6108f8610abf565b73ffffffffffffffffffffffffffffffffffffffff16610916610978565b73ffffffffffffffffffffffffffffffffffffffff161461096c576040517f08c379a000000000000000000000000000000000000000000000000000000000815260040161096390610f4c565b60405180910390fd5b6109766000610ac7565b565b60008060009054906101000a900473ffffffffffffffffffffffffffffffffffffffff16905090565b6109a9610abf565b73ffffffffffffffffffffffffffffffffffffffff166109c7610978565b73ffffffffffffffffffffffffffffffffffffffff1614610a1d576040517f08c379a0000000000000000000000000000000000000000000000000000000008152600401610a1490610f4c565b60405180910390fd5b600073ffffffffffffffffffffffffffffffffffffffff168173ffffffffffffffffffffffffffffffffffffffff161415610a8d576040517f08c379a0000000000000000000000000000000000000000000000000000000008152600401610a8490610f2c565b60405180910390fd5b610a9681610ac7565b50565b600160009054906101000a900473ffffffffffffffffffffffffffffffffffffffff1681565b600033905090565b60008060009054906101000a900473ffffffffffffffffffffffffffffffffffffffff169050816000806101000a81548173ffffffffffffffffffffffffffffffffffffffff021916908373ffffffffffffffffffffffffffffffffffffffff1602179055508173ffffffffffffffffffffffffffffffffffffffff168173ffffffffffffffffffffffffffffffffffffffff167f8be0079c531659141344cd1fd0a4f28419497f9722a3daafe3b4186f6b6457e060405160405180910390a35050565b600081359050610b9a816111af565b92915050565b600081359050610baf816111c6565b92915050565b600081519050610bc4816111c6565b92915050565b600081359050610bd9816111dd565b92915050565b600081519050610bee816111dd565b92915050565b600081359050610c03816111f4565b92915050565b600060208284031215610c1b57600080fd5b6000610c2984828501610b8b565b91505092915050565b600060208284031215610c4457600080fd5b6000610c5284828501610bb5565b91505092915050565b600060208284031215610c6d57600080fd5b6000610c7b84828501610bdf565b91505092915050565b60008060408385031215610c9757600080fd5b6000610ca585828601610bca565b9250506020610cb685828601610bf4565b9150509250929050565b600060208284031215610cd257600080fd5b6000610ce084828501610bf4565b91505092915050565b60008060008060808587031215610cff57600080fd5b6000610d0d87828801610bf4565b9450506020610d1e87828801610bca565b9350506040610d2f87828801610bf4565b9250506060610d4087828801610ba0565b91505092959194509250565b610d5581610fef565b82525050565b610d6481611001565b82525050565b610d7381611044565b82525050565b610d8281611068565b82525050565b6000610d95601883610fde565b9150610da0826110e5565b602082019050919050565b6000610db8602683610fde565b9150610dc38261110e565b604082019050919050565b6000610ddb602083610fde565b9150610de68261115d565b602082019050919050565b6000610dfe601583610fde565b9150610e0982611186565b602082019050919050565b610e1d8161102d565b82525050565b610e2c81611037565b82525050565b6000602082019050610e476000830184610d4c565b92915050565b6000606082019050610e626000830186610d4c565b610e6f6020830185610d4c565b610e7c6040830184610e14565b949350505050565b6000604082019050610e996000830185610d4c565b610ea66020830184610e14565b9392505050565b6000604082019050610ec26000830185610d4c565b610ecf6020830184610e23565b9392505050565b6000602082019050610eeb6000830184610d6a565b92915050565b6000602082019050610f066000830184610d79565b92915050565b60006020820190508181036000830152610f2581610d88565b9050919050565b60006020820190508181036000830152610f4581610dab565b9050919050565b60006020820190508181036000830152610f6581610dce565b9050919050565b60006020820190508181036000830152610f8581610df1565b9050919050565b6000606082019050610fa16000830186610e14565b610fae6020830185610e23565b610fbb6040830184610d5b565b949350505050565b6000602082019050610fd86000830184610e23565b92915050565b600082825260208201905092915050565b6000610ffa8261100d565b9050919050565b60008115159050919050565b600073ffffffffffffffffffffffffffffffffffffffff82169050919050565b6000819050919050565b600060ff82169050919050565b600061104f82611056565b9050919050565b60006110618261100d565b9050919050565b60006110738261107a565b9050919050565b60006110858261100d565b9050919050565b600061109782611037565b915060ff8214156110ab576110aa6110b6565b5b600182019050919050565b7f4e487b7100000000000000000000000000000000000000000000000000000000600052601160045260246000fd5b7f54726561737572653a206e6f7420656e6f756768206665650000000000000000600082015250565b7f4f776e61626c653a206e6577206f776e657220697320746865207a65726f206160008201527f6464726573730000000000000000000000000000000000000000000000000000602082015250565b7f4f776e61626c653a2063616c6c6572206973206e6f7420746865206f776e6572600082015250565b7f54726561737572653a206e6f7420616c6c6f7765640000000000000000000000600082015250565b6111b881610fef565b81146111c357600080fd5b50565b6111cf81611001565b81146111da57600080fd5b50565b6111e68161102d565b81146111f157600080fd5b50565b6111fd81611037565b811461120857600080fd5b5056fea264697066735822122011f9e0b55c1cbbf2b6b9f39dcd4c97e5a6369f88ebefdbd53a9e95bbf0c2d01464736f6c63430008040033",
  "linkReferences": {},
  "deployedLinkReferences": {}
}