{
  "_format": "hh-sol-artifact-1",
  "contractName": "Treasure",
  "sourceName": "contracts/NFT/Treasure.sol",
  "abi": [
    {
      "inputs": [],
      "stateMutability": "nonpayable",
      "type": "constructor"
    },
    {
      "anonymous": false,
      "inputs": [
        {
          "indexed": true,
          "internalType": "address",
          "name": "previousOwner",
          "type": "address"
        },
        {
          "indexed": true,
          "internalType": "address",
          "name": "newOwner",
          "type": "address"
        }
      ],
      "name": "OwnershipTransferred",
      "type": "event"
    },
    {
      "anonymous": false,
      "inputs": [
        {
          "indexed": true,
          "internalType": "address",
          "name": "_owner",
          "type": "address"
        },
        {
          "indexed": true,
          "internalType": "uint8",
          "name": "_treasureId",
          "type": "uint8"
        }
      ],
      "name": "Purchased",
      "type": "event"
    },
    {
      "inputs": [
        {
          "internalType": "uint256",
          "name": "_price",
          "type": "uint256"
        },
        {
          "internalType": "uint8",
          "name": "_count",
          "type": "uint8"
        }
      ],
      "name": "addTreasure",
      "outputs": [],
      "stateMutability": "nonpayable",
      "type": "function"
    },
    {
      "inputs": [],
      "name": "nft",
      "outputs": [
        {
          "internalType": "contract HeroInfinityNFT",
          "name": "",
          "type": "address"
        }
      ],
      "stateMutability": "view",
      "type": "function"
    },
    {
      "inputs": [],
      "name": "owner",
      "outputs": [
        {
          "internalType": "address",
          "name": "",
          "type": "address"
        }
      ],
      "stateMutability": "view",
      "type": "function"
    },
    {
      "inputs": [
        {
          "internalType": "uint8",
          "name": "_treasureId",
          "type": "uint8"
        }
      ],
      "name": "purchase",
      "outputs": [],
      "stateMutability": "nonpayable",
      "type": "function"
    },
    {
      "inputs": [],
      "name": "renounceOwnership",
      "outputs": [],
      "stateMutability": "nonpayable",
      "type": "function"
    },
    {
      "inputs": [
        {
          "internalType": "address",
          "name": "_nftAddress",
          "type": "address"
        }
      ],
      "name": "setNftAddress",
      "outputs": [],
      "stateMutability": "nonpayable",
      "type": "function"
    },
    {
      "inputs": [
        {
          "internalType": "address",
          "name": "_tokenAddress",
          "type": "address"
        }
      ],
      "name": "setTokenAddress",
      "outputs": [],
      "stateMutability": "nonpayable",
      "type": "function"
    },
    {
      "inputs": [],
      "name": "token",
      "outputs": [
        {
          "internalType": "contract IERC20",
          "name": "",
          "type": "address"
        }
      ],
      "stateMutability": "view",
      "type": "function"
    },
    {
      "inputs": [
        {
          "internalType": "address",
          "name": "newOwner",
          "type": "address"
        }
      ],
      "name": "transferOwnership",
      "outputs": [],
      "stateMutability": "nonpayable",
      "type": "function"
    },
    {
      "inputs": [
        {
          "internalType": "uint8",
          "name": "",
          "type": "uint8"
        }
      ],
      "name": "treasures",
      "outputs": [
        {
          "internalType": "uint256",
          "name": "price",
          "type": "uint256"
        },
        {
          "internalType": "uint8",
          "name": "count",
          "type": "uint8"
        },
        {
          "internalType": "bool",
          "name": "enabled",
          "type": "bool"
        }
      ],
      "stateMutability": "view",
      "type": "function"
    },
    {
      "inputs": [],
      "name": "treasuresCount",
      "outputs": [
        {
          "internalType": "uint8",
          "name": "",
          "type": "uint8"
        }
      ],
      "stateMutability": "view",
      "type": "function"
    },
    {
      "inputs": [
        {
          "internalType": "uint8",
          "name": "_treasureId",
          "type": "uint8"
        },
        {
          "internalType": "uint256",
          "name": "_price",
          "type": "uint256"
        },
        {
          "internalType": "uint8",
          "name": "_count",
          "type": "uint8"
        },
        {
          "internalType": "bool",
          "name": "_enabled",
          "type": "bool"
        }
      ],
      "name": "updateTreasure",
      "outputs": [],
      "stateMutability": "nonpayable",
      "type": "function"
    },
    {
      "inputs": [
        {
          "internalType": "address",
          "name": "_targetAddress",
          "type": "address"
        }
      ],
      "name": "withdraw",
      "outputs": [],
      "stateMutability": "nonpayable",
      "type": "function"
    }
  ],
  "bytecode": "0x60806040526000600360006101000a81548160ff021916908360ff1602179055503480156200002d57600080fd5b506200004e62000042620000ff60201b60201c565b6200010760201b60201c565b6200006a683635c9adc5dea000006001620001cb60201b60201c565b6200008668878678326eac9000006003620001cb60201b60201c565b620000a268d8d726b7177a8000006005620001cb60201b60201c565b620000bf6901969368974c05b00000600a620001cb60201b60201c565b620000dc6902f6f10780d22cc000006014620001cb60201b60201c565b620000f969065a4da25d3016c000006032620001cb60201b60201c565b62000446565b600033905090565b60008060009054906101000a900473ffffffffffffffffffffffffffffffffffffffff169050816000806101000a81548173ffffffffffffffffffffffffffffffffffffffff021916908373ffffffffffffffffffffffffffffffffffffffff1602179055508173ffffffffffffffffffffffffffffffffffffffff168173ffffffffffffffffffffffffffffffffffffffff167f8be0079c531659141344cd1fd0a4f28419497f9722a3daafe3b4186f6b6457e060405160405180910390a35050565b620001db620000ff60201b60201c565b73ffffffffffffffffffffffffffffffffffffffff16620002016200032f60201b60201c565b73ffffffffffffffffffffffffffffffffffffffff16146200025a576040517f08c379a000000000000000000000000000000000000000000000000000000000815260040162000251906200037f565b60405180910390fd5b60405180606001604052808381526020018260ff1681526020016001151581525060026000600360009054906101000a900460ff1660ff1660ff1681526020019081526020016000206000820151816000015560208201518160010160006101000a81548160ff021916908360ff16021790555060408201518160010160016101000a81548160ff0219169083151502179055509050506003600081819054906101000a900460ff16809291906200031290620003bf565b91906101000a81548160ff021916908360ff160217905550505050565b60008060009054906101000a900473ffffffffffffffffffffffffffffffffffffffff16905090565b600062000367602083620003a1565b915062000374826200041d565b602082019050919050565b600060208201905081810360008301526200039a8162000358565b9050919050565b600082825260208201905092915050565b600060ff82169050919050565b6000620003cc82620003b2565b915060ff821415620003e357620003e2620003ee565b5b600182019050919050565b7f4e487b7100000000000000000000000000000000000000000000000000000000600052601160045260246000fd5b7f4f776e61626c653a2063616c6c6572206973206e6f7420746865206f776e6572600082015250565b61156b80620004566000396000f3fe608060405234801561001057600080fd5b50600436106100cf5760003560e01c80634c8509b11161008c578063715018a611610066578063715018a6146101ea5780638da5cb5b146101f4578063f2fde38b14610212578063fc0c546a1461022e576100cf565b80634c8509b11461017e57806351cff8d9146101b057806369a595da146101cc576100cf565b80630b102d1a146100d457806326a4e8d2146100f057806329f895d51461010c5780633298df76146101285780633ae2b3c71461014457806347ccca0214610160575b600080fd5b6100ee60048036038101906100e99190610ec7565b61024c565b005b61010a60048036038101906101059190610ec7565b61037c565b005b61012660048036038101906101219190610fa7565b6104ac565b005b610142600480360381019061013d9190610f7e565b6105b5565b005b61015e60048036038101906101599190610f42565b610809565b005b610168610958565b60405161017591906111b7565b60405180910390f35b61019860048036038101906101939190610f7e565b61097e565b6040516101a79392919061128d565b60405180910390f35b6101ca60048036038101906101c59190610ec7565b6109c2565b005b6101d4610b9b565b6040516101e191906112c4565b60405180910390f35b6101f2610bae565b005b6101fc610c36565b6040516102099190611113565b60405180910390f35b61022c60048036038101906102279190610ec7565b610c5f565b005b610236610d57565b60405161024391906111d2565b60405180910390f35b610254610d7d565b73ffffffffffffffffffffffffffffffffffffffff16610272610c36565b73ffffffffffffffffffffffffffffffffffffffff16146102c8576040517f08c379a00000000000000000000000000000000000000000000000000000000081526004016102bf9061124d565b60405180910390fd5b600073ffffffffffffffffffffffffffffffffffffffff168173ffffffffffffffffffffffffffffffffffffffff161415610338576040517f08c379a000000000000000000000000000000000000000000000000000000000815260040161032f9061122d565b60405180910390fd5b80600360016101000a81548173ffffffffffffffffffffffffffffffffffffffff021916908373ffffffffffffffffffffffffffffffffffffffff16021790555050565b610384610d7d565b73ffffffffffffffffffffffffffffffffffffffff166103a2610c36565b73ffffffffffffffffffffffffffffffffffffffff16146103f8576040517f08c379a00000000000000000000000000000000000000000000000000000000081526004016103ef9061124d565b60405180910390fd5b600073ffffffffffffffffffffffffffffffffffffffff168173ffffffffffffffffffffffffffffffffffffffff161415610468576040517f08c379a000000000000000000000000000000000000000000000000000000000815260040161045f9061122d565b60405180910390fd5b80600160006101000a81548173ffffffffffffffffffffffffffffffffffffffff021916908373ffffffffffffffffffffffffffffffffffffffff16021790555050565b6104b4610d7d565b73ffffffffffffffffffffffffffffffffffffffff166104d2610c36565b73ffffffffffffffffffffffffffffffffffffffff1614610528576040517f08c379a000000000000000000000000000000000000000000000000000000000815260040161051f9061124d565b60405180910390fd5b60405180606001604052808481526020018360ff168152602001821515815250600260008660ff1660ff1681526020019081526020016000206000820151816000015560208201518160010160006101000a81548160ff021916908360ff16021790555060408201518160010160016101000a81548160ff02191690831515021790555090505050505050565b6000600260008360ff1660ff1681526020019081526020016000209050600115158160010160019054906101000a900460ff1615151461062a576040517f08c379a00000000000000000000000000000000000000000000000000000000081526004016106219061126d565b60405180910390fd5b600160009054906101000a900473ffffffffffffffffffffffffffffffffffffffff1673ffffffffffffffffffffffffffffffffffffffff166323b872dd333084600001546040518463ffffffff1660e01b815260040161068d9392919061112e565b602060405180830381600087803b1580156106a757600080fd5b505af11580156106bb573d6000803e3d6000fd5b505050506040513d601f19601f820116820180604052508101906106df9190610ef0565b61071e576040517f08c379a0000000000000000000000000000000000000000000000000000000008152600401610715906111ed565b60405180910390fd5b600360019054906101000a900473ffffffffffffffffffffffffffffffffffffffff1673ffffffffffffffffffffffffffffffffffffffff1663691562a0338360010160009054906101000a900460ff166040518363ffffffff1660e01b815260040161078c92919061118e565b600060405180830381600087803b1580156107a657600080fd5b505af11580156107ba573d6000803e3d6000fd5b505050508160ff163373ffffffffffffffffffffffffffffffffffffffff167f67ffc1b812e06b0f05a76dd05197cb5d1e62b28a4cee50b4f57ae4d81529c59760405160405180910390a35050565b610811610d7d565b73ffffffffffffffffffffffffffffffffffffffff1661082f610c36565b73ffffffffffffffffffffffffffffffffffffffff1614610885576040517f08c379a000000000000000000000000000000000000000000000000000000000815260040161087c9061124d565b60405180910390fd5b60405180606001604052808381526020018260ff1681526020016001151581525060026000600360009054906101000a900460ff1660ff1660ff1681526020019081526020016000206000820151816000015560208201518160010160006101000a81548160ff021916908360ff16021790555060408201518160010160016101000a81548160ff0219169083151502179055509050506003600081819054906101000a900460ff168092919061093b9061138d565b91906101000a81548160ff021916908360ff160217905550505050565b600360019054906101000a900473ffffffffffffffffffffffffffffffffffffffff1681565b60026020528060005260406000206000915090508060000154908060010160009054906101000a900460ff16908060010160019054906101000a900460ff16905083565b6109ca610d7d565b73ffffffffffffffffffffffffffffffffffffffff166109e8610c36565b73ffffffffffffffffffffffffffffffffffffffff1614610a3e576040517f08c379a0000000000000000000000000000000000000000000000000000000008152600401610a359061124d565b60405180910390fd5b600160009054906101000a900473ffffffffffffffffffffffffffffffffffffffff1673ffffffffffffffffffffffffffffffffffffffff1663a9059cbb82600160009054906101000a900473ffffffffffffffffffffffffffffffffffffffff1673ffffffffffffffffffffffffffffffffffffffff166370a08231306040518263ffffffff1660e01b8152600401610ad89190611113565b60206040518083038186803b158015610af057600080fd5b505afa158015610b04573d6000803e3d6000fd5b505050506040513d601f19601f82011682018060405250810190610b289190610f19565b6040518363ffffffff1660e01b8152600401610b45929190611165565b602060405180830381600087803b158015610b5f57600080fd5b505af1158015610b73573d6000803e3d6000fd5b505050506040513d601f19601f82011682018060405250810190610b979190610ef0565b5050565b600360009054906101000a900460ff1681565b610bb6610d7d565b73ffffffffffffffffffffffffffffffffffffffff16610bd4610c36565b73ffffffffffffffffffffffffffffffffffffffff1614610c2a576040517f08c379a0000000000000000000000000000000000000000000000000000000008152600401610c219061124d565b60405180910390fd5b610c346000610d85565b565b60008060009054906101000a900473ffffffffffffffffffffffffffffffffffffffff16905090565b610c67610d7d565b73ffffffffffffffffffffffffffffffffffffffff16610c85610c36565b73ffffffffffffffffffffffffffffffffffffffff1614610cdb576040517f08c379a0000000000000000000000000000000000000000000000000000000008152600401610cd29061124d565b60405180910390fd5b600073ffffffffffffffffffffffffffffffffffffffff168173ffffffffffffffffffffffffffffffffffffffff161415610d4b576040517f08c379a0000000000000000000000000000000000000000000000000000000008152600401610d429061120d565b60405180910390fd5b610d5481610d85565b50565b600160009054906101000a900473ffffffffffffffffffffffffffffffffffffffff1681565b600033905090565b60008060009054906101000a900473ffffffffffffffffffffffffffffffffffffffff169050816000806101000a81548173ffffffffffffffffffffffffffffffffffffffff021916908373ffffffffffffffffffffffffffffffffffffffff1602179055508173ffffffffffffffffffffffffffffffffffffffff168173ffffffffffffffffffffffffffffffffffffffff167f8be0079c531659141344cd1fd0a4f28419497f9722a3daafe3b4186f6b6457e060405160405180910390a35050565b600081359050610e58816114d9565b92915050565b600081359050610e6d816114f0565b92915050565b600081519050610e82816114f0565b92915050565b600081359050610e9781611507565b92915050565b600081519050610eac81611507565b92915050565b600081359050610ec18161151e565b92915050565b600060208284031215610ed957600080fd5b6000610ee784828501610e49565b91505092915050565b600060208284031215610f0257600080fd5b6000610f1084828501610e73565b91505092915050565b600060208284031215610f2b57600080fd5b6000610f3984828501610e9d565b91505092915050565b60008060408385031215610f5557600080fd5b6000610f6385828601610e88565b9250506020610f7485828601610eb2565b9150509250929050565b600060208284031215610f9057600080fd5b6000610f9e84828501610eb2565b91505092915050565b60008060008060808587031215610fbd57600080fd5b6000610fcb87828801610eb2565b9450506020610fdc87828801610e88565b9350506040610fed87828801610eb2565b9250506060610ffe87828801610e5e565b91505092959194509250565b611013816112f0565b82525050565b61102281611302565b82525050565b61103181611345565b82525050565b61104081611369565b82525050565b60006110536018836112df565b915061105e826113e6565b602082019050919050565b60006110766026836112df565b91506110818261140f565b604082019050919050565b60006110996016836112df565b91506110a48261145e565b602082019050919050565b60006110bc6020836112df565b91506110c782611487565b602082019050919050565b60006110df6015836112df565b91506110ea826114b0565b602082019050919050565b6110fe8161132e565b82525050565b61110d81611338565b82525050565b6000602082019050611128600083018461100a565b92915050565b6000606082019050611143600083018661100a565b611150602083018561100a565b61115d60408301846110f5565b949350505050565b600060408201905061117a600083018561100a565b61118760208301846110f5565b9392505050565b60006040820190506111a3600083018561100a565b6111b06020830184611104565b9392505050565b60006020820190506111cc6000830184611028565b92915050565b60006020820190506111e76000830184611037565b92915050565b6000602082019050818103600083015261120681611046565b9050919050565b6000602082019050818103600083015261122681611069565b9050919050565b600060208201905081810360008301526112468161108c565b9050919050565b60006020820190508181036000830152611266816110af565b9050919050565b60006020820190508181036000830152611286816110d2565b9050919050565b60006060820190506112a260008301866110f5565b6112af6020830185611104565b6112bc6040830184611019565b949350505050565b60006020820190506112d96000830184611104565b92915050565b600082825260208201905092915050565b60006112fb8261130e565b9050919050565b60008115159050919050565b600073ffffffffffffffffffffffffffffffffffffffff82169050919050565b6000819050919050565b600060ff82169050919050565b600061135082611357565b9050919050565b60006113628261130e565b9050919050565b60006113748261137b565b9050919050565b60006113868261130e565b9050919050565b600061139882611338565b915060ff8214156113ac576113ab6113b7565b5b600182019050919050565b7f4e487b7100000000000000000000000000000000000000000000000000000000600052601160045260246000fd5b7f54726561737572653a206e6f7420656e6f756768206665650000000000000000600082015250565b7f4f776e61626c653a206e6577206f776e657220697320746865207a65726f206160008201527f6464726573730000000000000000000000000000000000000000000000000000602082015250565b7f54726561737572653a207a65726f206164647265737300000000000000000000600082015250565b7f4f776e61626c653a2063616c6c6572206973206e6f7420746865206f776e6572600082015250565b7f54726561737572653a206e6f7420616c6c6f7765640000000000000000000000600082015250565b6114e2816112f0565b81146114ed57600080fd5b50565b6114f981611302565b811461150457600080fd5b50565b6115108161132e565b811461151b57600080fd5b50565b61152781611338565b811461153257600080fd5b5056fea26469706673582212208a1ab6d439fefb88ff4873cd391053b2f68c31223b6000a3c2982e30e12d36d464736f6c63430008040033",
  "linkReferences": {},
  "deployedLinkReferences": {}
}